{
  "_format": "hh3-artifact-1",
  "contractName": "MSXUnifiedDemoHub",
  "sourceName": "contracts/MSXUnifiedDemoHub.sol",
  "abi": [
    {
      "inputs": [
        {
          "internalType": "string",
          "name": "baseUri",
          "type": "string"
        }
      ],
      "stateMutability": "nonpayable",
      "type": "constructor"
    },
    {
      "anonymous": false,
      "inputs": [
        {
          "indexed": true,
          "internalType": "address",
          "name": "account",
          "type": "address"
        },
        {
          "indexed": true,
          "internalType": "uint256",
          "name": "achievementId",
          "type": "uint256"
        }
      ],
      "name": "AchievementClaimed",
      "type": "event"
    },
    {
      "anonymous": false,
      "inputs": [
        {
          "indexed": true,
          "internalType": "address",
          "name": "account",
          "type": "address"
        },
        {
          "indexed": true,
          "internalType": "address",
          "name": "operator",
          "type": "address"
        },
        {
          "indexed": false,
          "internalType": "bool",
          "name": "approved",
          "type": "bool"
        }
      ],
      "name": "ApprovalForAll",
      "type": "event"
    },
    {
      "anonymous": false,
      "inputs": [
        {
          "indexed": false,
          "internalType": "bytes32",
          "name": "attestationRoot",
          "type": "bytes32"
        },
        {
          "indexed": false,
          "internalType": "uint256",
          "name": "timestamp",
          "type": "uint256"
        }
      ],
      "name": "AttestationUpdated",
      "type": "event"
    },
    {
      "anonymous": false,
      "inputs": [
        {
          "indexed": true,
          "internalType": "address",
          "name": "investor",
          "type": "address"
        },
        {
          "indexed": false,
          "internalType": "bool",
          "name": "allowed",
          "type": "bool"
        },
        {
          "indexed": true,
          "internalType": "uint8",
          "name": "tier",
          "type": "uint8"
        }
      ],
      "name": "InvestorEligibilityUpdated",
      "type": "event"
    },
    {
      "anonymous": false,
      "inputs": [
        {
          "indexed": true,
          "internalType": "address",
          "name": "renderer",
          "type": "address"
        }
      ],
      "name": "MetadataRendererUpdated",
      "type": "event"
    },
    {
      "anonymous": false,
      "inputs": [
        {
          "indexed": false,
          "internalType": "uint256",
          "name": "navBps",
          "type": "uint256"
        },
        {
          "indexed": false,
          "internalType": "uint256",
          "name": "timestamp",
          "type": "uint256"
        }
      ],
      "name": "NavUpdated",
      "type": "event"
    },
    {
      "anonymous": false,
      "inputs": [
        {
          "indexed": true,
          "internalType": "address",
          "name": "previousOwner",
          "type": "address"
        },
        {
          "indexed": true,
          "internalType": "address",
          "name": "newOwner",
          "type": "address"
        }
      ],
      "name": "OwnershipTransferred",
      "type": "event"
    },
    {
      "anonymous": false,
      "inputs": [
        {
          "indexed": true,
          "internalType": "address",
          "name": "account",
          "type": "address"
        },
        {
          "indexed": true,
          "internalType": "uint256",
          "name": "tokenId",
          "type": "uint256"
        },
        {
          "indexed": false,
          "internalType": "string",
          "name": "category",
          "type": "string"
        },
        {
          "indexed": false,
          "internalType": "string",
          "name": "submittedOn",
          "type": "string"
        },
        {
          "indexed": false,
          "internalType": "int256",
          "name": "returnBps",
          "type": "int256"
        },
        {
          "indexed": false,
          "internalType": "uint256",
          "name": "winRateBps",
          "type": "uint256"
        },
        {
          "indexed": false,
          "internalType": "uint256",
          "name": "maxDrawdownBps",
          "type": "uint256"
        }
      ],
      "name": "PaperLeaderboardCredentialMinted",
      "type": "event"
    },
    {
      "anonymous": false,
      "inputs": [
        {
          "indexed": true,
          "internalType": "uint16",
          "name": "productId",
          "type": "uint16"
        },
        {
          "indexed": false,
          "internalType": "string",
          "name": "detail",
          "type": "string"
        }
      ],
      "name": "ProductReceiptDetailUpdated",
      "type": "event"
    },
    {
      "anonymous": false,
      "inputs": [
        {
          "indexed": true,
          "internalType": "uint16",
          "name": "productId",
          "type": "uint16"
        },
        {
          "indexed": false,
          "internalType": "string",
          "name": "label",
          "type": "string"
        }
      ],
      "name": "ProductReceiptLabelUpdated",
      "type": "event"
    },
    {
      "anonymous": false,
      "inputs": [
        {
          "indexed": true,
          "internalType": "uint16",
          "name": "productId",
          "type": "uint16"
        },
        {
          "indexed": false,
          "internalType": "string",
          "name": "productType",
          "type": "string"
        },
        {
          "indexed": false,
          "internalType": "string",
          "name": "maturity",
          "type": "string"
        }
      ],
      "name": "ProductReceiptMetadataUpdated",
      "type": "event"
    },
    {
      "anonymous": false,
      "inputs": [
        {
          "indexed": true,
          "internalType": "address",
          "name": "investor",
          "type": "address"
        },
        {
          "indexed": true,
          "internalType": "uint16",
          "name": "productId",
          "type": "uint16"
        },
        {
          "indexed": true,
          "internalType": "uint256",
          "name": "tokenId",
          "type": "uint256"
        },
        {
          "indexed": false,
          "internalType": "uint256",
          "name": "shareAmount",
          "type": "uint256"
        },
        {
          "indexed": false,
          "internalType": "uint256",
          "name": "assetAmount",
          "type": "uint256"
        }
      ],
      "name": "ProductReceiptRedeemed",
      "type": "event"
    },
    {
      "anonymous": false,
      "inputs": [
        {
          "indexed": true,
          "internalType": "address",
          "name": "investor",
          "type": "address"
        },
        {
          "indexed": true,
          "internalType": "uint16",
          "name": "fromProductId",
          "type": "uint16"
        },
        {
          "indexed": true,
          "internalType": "uint16",
          "name": "toProductId",
          "type": "uint16"
        },
        {
          "indexed": false,
          "internalType": "uint256",
          "name": "burnAmount",
          "type": "uint256"
        },
        {
          "indexed": false,
          "internalType": "uint256",
          "name": "mintAmount",
          "type": "uint256"
        }
      ],
      "name": "ProductReceiptSettled",
      "type": "event"
    },
    {
      "anonymous": false,
      "inputs": [
        {
          "indexed": true,
          "internalType": "address",
          "name": "investor",
          "type": "address"
        },
        {
          "indexed": true,
          "internalType": "uint16",
          "name": "productId",
          "type": "uint16"
        },
        {
          "indexed": true,
          "internalType": "uint256",
          "name": "tokenId",
          "type": "uint256"
        },
        {
          "indexed": false,
          "internalType": "uint256",
          "name": "assetAmount",
          "type": "uint256"
        },
        {
          "indexed": false,
          "internalType": "uint256",
          "name": "shareAmount",
          "type": "uint256"
        },
        {
          "indexed": false,
          "internalType": "uint256",
          "name": "purchasedAt",
          "type": "uint256"
        },
        {
          "indexed": false,
          "internalType": "string",
          "name": "productDetail",
          "type": "string"
        }
      ],
      "name": "ProductReceiptSubscribed",
      "type": "event"
    },
    {
      "anonymous": false,
      "inputs": [
        {
          "indexed": true,
          "internalType": "address",
          "name": "investor",
          "type": "address"
        },
        {
          "indexed": false,
          "internalType": "uint256",
          "name": "shareAmount",
          "type": "uint256"
        },
        {
          "indexed": false,
          "internalType": "uint256",
          "name": "assetAmount",
          "type": "uint256"
        }
      ],
      "name": "Redeemed",
      "type": "event"
    },
    {
      "anonymous": false,
      "inputs": [
        {
          "indexed": true,
          "internalType": "address",
          "name": "account",
          "type": "address"
        },
        {
          "indexed": false,
          "internalType": "int256",
          "name": "netPnl",
          "type": "int256"
        },
        {
          "indexed": false,
          "internalType": "uint256",
          "name": "accountValue",
          "type": "uint256"
        },
        {
          "indexed": false,
          "internalType": "uint256",
          "name": "tradeCount",
          "type": "uint256"
        },
        {
          "indexed": false,
          "internalType": "uint256",
          "name": "submittedAt",
          "type": "uint256"
        }
      ],
      "name": "ReplayScoreSubmitted",
      "type": "event"
    },
    {
      "anonymous": false,
      "inputs": [
        {
          "indexed": false,
          "internalType": "string",
          "name": "status",
          "type": "string"
        },
        {
          "indexed": false,
          "internalType": "uint256",
          "name": "timestamp",
          "type": "uint256"
        }
      ],
      "name": "StrategyStatusUpdated",
      "type": "event"
    },
    {
      "anonymous": false,
      "inputs": [
        {
          "indexed": true,
          "internalType": "address",
          "name": "investor",
          "type": "address"
        },
        {
          "indexed": false,
          "internalType": "uint256",
          "name": "assetAmount",
          "type": "uint256"
        },
        {
          "indexed": false,
          "internalType": "uint256",
          "name": "shareAmount",
          "type": "uint256"
        }
      ],
      "name": "Subscribed",
      "type": "event"
    },
    {
      "anonymous": false,
      "inputs": [
        {
          "indexed": true,
          "internalType": "address",
          "name": "recipient",
          "type": "address"
        },
        {
          "indexed": true,
          "internalType": "uint8",
          "name": "badgeType",
          "type": "uint8"
        },
        {
          "indexed": true,
          "internalType": "uint256",
          "name": "tokenId",
          "type": "uint256"
        }
      ],
      "name": "TaskBadgeMinted",
      "type": "event"
    },
    {
      "anonymous": false,
      "inputs": [
        {
          "indexed": true,
          "internalType": "address",
          "name": "operator",
          "type": "address"
        },
        {
          "indexed": true,
          "internalType": "address",
          "name": "from",
          "type": "address"
        },
        {
          "indexed": true,
          "internalType": "address",
          "name": "to",
          "type": "address"
        },
        {
          "indexed": false,
          "internalType": "uint256[]",
          "name": "ids",
          "type": "uint256[]"
        },
        {
          "indexed": false,
          "internalType": "uint256[]",
          "name": "values",
          "type": "uint256[]"
        }
      ],
      "name": "TransferBatch",
      "type": "event"
    },
    {
      "anonymous": false,
      "inputs": [
        {
          "indexed": true,
          "internalType": "address",
          "name": "operator",
          "type": "address"
        },
        {
          "indexed": true,
          "internalType": "address",
          "name": "from",
          "type": "address"
        },
        {
          "indexed": true,
          "internalType": "address",
          "name": "to",
          "type": "address"
        },
        {
          "indexed": false,
          "internalType": "uint256",
          "name": "id",
          "type": "uint256"
        },
        {
          "indexed": false,
          "internalType": "uint256",
          "name": "value",
          "type": "uint256"
        }
      ],
      "name": "TransferSingle",
      "type": "event"
    },
    {
      "anonymous": false,
      "inputs": [
        {
          "indexed": false,
          "internalType": "string",
          "name": "value",
          "type": "string"
        },
        {
          "indexed": true,
          "internalType": "uint256",
          "name": "id",
          "type": "uint256"
        }
      ],
      "name": "URI",
      "type": "event"
    },
    {
      "anonymous": false,
      "inputs": [
        {
          "indexed": true,
          "internalType": "bytes32",
          "name": "assetHash",
          "type": "bytes32"
        },
        {
          "indexed": false,
          "internalType": "bool",
          "name": "passed",
          "type": "bool"
        },
        {
          "indexed": false,
          "internalType": "string",
          "name": "note",
          "type": "string"
        }
      ],
      "name": "UnderlyingReviewRecorded",
      "type": "event"
    },
    {
      "anonymous": false,
      "inputs": [
        {
          "indexed": true,
          "internalType": "address",
          "name": "account",
          "type": "address"
        },
        {
          "indexed": true,
          "internalType": "uint16",
          "name": "productId",
          "type": "uint16"
        },
        {
          "indexed": true,
          "internalType": "uint256",
          "name": "tokenId",
          "type": "uint256"
        },
        {
          "indexed": false,
          "internalType": "uint256",
          "name": "supportAmount",
          "type": "uint256"
        },
        {
          "indexed": false,
          "internalType": "string",
          "name": "pledgedOn",
          "type": "string"
        }
      ],
      "name": "WealthPledgeCredentialMinted",
      "type": "event"
    },
    {
      "anonymous": false,
      "inputs": [
        {
          "indexed": true,
          "internalType": "address",
          "name": "account",
          "type": "address"
        },
        {
          "indexed": true,
          "internalType": "uint16",
          "name": "productId",
          "type": "uint16"
        },
        {
          "indexed": true,
          "internalType": "uint256",
          "name": "tokenId",
          "type": "uint256"
        },
        {
          "indexed": false,
          "internalType": "uint256",
          "name": "assetAmount",
          "type": "uint256"
        },
        {
          "indexed": false,
          "internalType": "string",
          "name": "purchasedOn",
          "type": "string"
        }
      ],
      "name": "WealthReceiptCredentialMinted",
      "type": "event"
    },
    {
      "anonymous": false,
      "inputs": [
        {
          "indexed": true,
          "internalType": "address",
          "name": "account",
          "type": "address"
        },
        {
          "indexed": true,
          "internalType": "uint8",
          "name": "taskId",
          "type": "uint8"
        }
      ],
      "name": "WealthTaskCompleted",
      "type": "event"
    },
    {
      "anonymous": false,
      "inputs": [
        {
          "indexed": true,
          "internalType": "address",
          "name": "account",
          "type": "address"
        },
        {
          "indexed": true,
          "internalType": "uint8",
          "name": "taskId",
          "type": "uint8"
        },
        {
          "indexed": false,
          "internalType": "int256",
          "name": "realizedPnl",
          "type": "int256"
        },
        {
          "indexed": false,
          "internalType": "bytes32",
          "name": "evidenceHash",
          "type": "bytes32"
        }
      ],
      "name": "WealthTaskEvidenceRecorded",
      "type": "event"
    },
    {
      "inputs": [],
      "name": "ASSET_DECIMALS",
      "outputs": [
        {
          "internalType": "uint8",
          "name": "",
          "type": "uint8"
        }
      ],
      "stateMutability": "view",
      "type": "function"
    },
    {
      "inputs": [],
      "name": "BPS",
      "outputs": [
        {
          "internalType": "uint256",
          "name": "",
          "type": "uint256"
        }
      ],
      "stateMutability": "view",
      "type": "function"
    },
    {
      "inputs": [],
      "name": "DEFAULT_WEALTH_PRODUCT_ID",
      "outputs": [
        {
          "internalType": "uint16",
          "name": "",
          "type": "uint16"
        }
      ],
      "stateMutability": "view",
      "type": "function"
    },
    {
      "inputs": [],
      "name": "HOME_PAPER",
      "outputs": [
        {
          "internalType": "uint8",
          "name": "",
          "type": "uint8"
        }
      ],
      "stateMutability": "view",
      "type": "function"
    },
    {
      "inputs": [],
      "name": "HOME_QUIZ",
      "outputs": [
        {
          "internalType": "uint8",
          "name": "",
          "type": "uint8"
        }
      ],
      "stateMutability": "view",
      "type": "function"
    },
    {
      "inputs": [],
      "name": "HOME_RISK",
      "outputs": [
        {
          "internalType": "uint8",
          "name": "",
          "type": "uint8"
        }
      ],
      "stateMutability": "view",
      "type": "function"
    },
    {
      "inputs": [],
      "name": "HOME_WALLET",
      "outputs": [
        {
          "internalType": "uint8",
          "name": "",
          "type": "uint8"
        }
      ],
      "stateMutability": "view",
      "type": "function"
    },
    {
      "inputs": [],
      "name": "HOME_WELCOME",
      "outputs": [
        {
          "internalType": "uint8",
          "name": "",
          "type": "uint8"
        }
      ],
      "stateMutability": "view",
      "type": "function"
    },
    {
      "inputs": [],
      "name": "MAX_SCORE_SUBMISSIONS_PER_DAY",
      "outputs": [
        {
          "internalType": "uint256",
          "name": "",
          "type": "uint256"
        }
      ],
      "stateMutability": "view",
      "type": "function"
    },
    {
      "inputs": [],
      "name": "PAPER_BASE_CHECK",
      "outputs": [
        {
          "internalType": "uint256",
          "name": "",
          "type": "uint256"
        }
      ],
      "stateMutability": "view",
      "type": "function"
    },
    {
      "inputs": [],
      "name": "PAPER_LEADERBOARD",
      "outputs": [
        {
          "internalType": "uint256",
          "name": "",
          "type": "uint256"
        }
      ],
      "stateMutability": "view",
      "type": "function"
    },
    {
      "inputs": [],
      "name": "PAPER_PERP_LEVERAGE",
      "outputs": [
        {
          "internalType": "uint256",
          "name": "",
          "type": "uint256"
        }
      ],
      "stateMutability": "view",
      "type": "function"
    },
    {
      "inputs": [],
      "name": "PAPER_PROTECTIVE_HEDGE",
      "outputs": [
        {
          "internalType": "uint256",
          "name": "",
          "type": "uint256"
        }
      ],
      "stateMutability": "view",
      "type": "function"
    },
    {
      "inputs": [],
      "name": "PAPER_SPOT_LOOP",
      "outputs": [
        {
          "internalType": "uint256",
          "name": "",
          "type": "uint256"
        }
      ],
      "stateMutability": "view",
      "type": "function"
    },
    {
      "inputs": [],
      "name": "WEALTH_DUAL_PROFIT",
      "outputs": [
        {
          "internalType": "uint8",
          "name": "",
          "type": "uint8"
        }
      ],
      "stateMutability": "view",
      "type": "function"
    },
    {
      "inputs": [],
      "name": "WEALTH_PLEDGE",
      "outputs": [
        {
          "internalType": "uint8",
          "name": "",
          "type": "uint8"
        }
      ],
      "stateMutability": "view",
      "type": "function"
    },
    {
      "inputs": [],
      "name": "WEALTH_PROFITABLE_TRADE",
      "outputs": [
        {
          "internalType": "uint8",
          "name": "",
          "type": "uint8"
        }
      ],
      "stateMutability": "view",
      "type": "function"
    },
    {
      "inputs": [
        {
          "internalType": "bytes32",
          "name": "",
          "type": "bytes32"
        }
      ],
      "name": "approvedUnderlyingHash",
      "outputs": [
        {
          "internalType": "bool",
          "name": "",
          "type": "bool"
        }
      ],
      "stateMutability": "view",
      "type": "function"
    },
    {
      "inputs": [],
      "name": "assetSymbol",
      "outputs": [
        {
          "internalType": "string",
          "name": "",
          "type": "string"
        }
      ],
      "stateMutability": "view",
      "type": "function"
    },
    {
      "inputs": [
        {
          "internalType": "address",
          "name": "account",
          "type": "address"
        },
        {
          "internalType": "uint256",
          "name": "id",
          "type": "uint256"
        }
      ],
      "name": "balanceOf",
      "outputs": [
        {
          "internalType": "uint256",
          "name": "",
          "type": "uint256"
        }
      ],
      "stateMutability": "view",
      "type": "function"
    },
    {
      "inputs": [
        {
          "internalType": "address[]",
          "name": "accounts",
          "type": "address[]"
        },
        {
          "internalType": "uint256[]",
          "name": "ids",
          "type": "uint256[]"
        }
      ],
      "name": "balanceOfBatch",
      "outputs": [
        {
          "internalType": "uint256[]",
          "name": "",
          "type": "uint256[]"
        }
      ],
      "stateMutability": "view",
      "type": "function"
    },
    {
      "inputs": [
        {
          "internalType": "address",
          "name": "investor",
          "type": "address"
        }
      ],
      "name": "canAccessAdvancedShelf",
      "outputs": [
        {
          "internalType": "bool",
          "name": "",
          "type": "bool"
        }
      ],
      "stateMutability": "view",
      "type": "function"
    },
    {
      "inputs": [
        {
          "internalType": "uint256",
          "name": "achievementId",
          "type": "uint256"
        }
      ],
      "name": "claim",
      "outputs": [],
      "stateMutability": "nonpayable",
      "type": "function"
    },
    {
      "inputs": [
        {
          "internalType": "uint256[]",
          "name": "achievementIds",
          "type": "uint256[]"
        }
      ],
      "name": "claimBatch",
      "outputs": [],
      "stateMutability": "nonpayable",
      "type": "function"
    },
    {
      "inputs": [
        {
          "internalType": "address",
          "name": "",
          "type": "address"
        }
      ],
      "name": "eligibleInvestor",
      "outputs": [
        {
          "internalType": "bool",
          "name": "",
          "type": "bool"
        }
      ],
      "stateMutability": "view",
      "type": "function"
    },
    {
      "inputs": [
        {
          "internalType": "address",
          "name": "holder",
          "type": "address"
        }
      ],
      "name": "hasMinted",
      "outputs": [
        {
          "internalType": "bool",
          "name": "",
          "type": "bool"
        }
      ],
      "stateMutability": "view",
      "type": "function"
    },
    {
      "inputs": [
        {
          "internalType": "address",
          "name": "",
          "type": "address"
        },
        {
          "internalType": "uint8",
          "name": "",
          "type": "uint8"
        }
      ],
      "name": "hasMintedBadge",
      "outputs": [
        {
          "internalType": "bool",
          "name": "",
          "type": "bool"
        }
      ],
      "stateMutability": "view",
      "type": "function"
    },
    {
      "inputs": [
        {
          "internalType": "address",
          "name": "holder",
          "type": "address"
        },
        {
          "internalType": "uint8",
          "name": "badgeType",
          "type": "uint8"
        }
      ],
      "name": "hasMintedTask",
      "outputs": [
        {
          "internalType": "bool",
          "name": "",
          "type": "bool"
        }
      ],
      "stateMutability": "view",
      "type": "function"
    },
    {
      "inputs": [
        {
          "internalType": "address",
          "name": "",
          "type": "address"
        }
      ],
      "name": "hasSubmittedScore",
      "outputs": [
        {
          "internalType": "bool",
          "name": "",
          "type": "bool"
        }
      ],
      "stateMutability": "view",
      "type": "function"
    },
    {
      "inputs": [
        {
          "internalType": "address",
          "name": "holder",
          "type": "address"
        },
        {
          "internalType": "uint8",
          "name": "taskId",
          "type": "uint8"
        }
      ],
      "name": "hasWealthTask",
      "outputs": [
        {
          "internalType": "bool",
          "name": "",
          "type": "bool"
        }
      ],
      "stateMutability": "view",
      "type": "function"
    },
    {
      "inputs": [
        {
          "internalType": "address",
          "name": "account",
          "type": "address"
        },
        {
          "internalType": "address",
          "name": "operator",
          "type": "address"
        }
      ],
      "name": "isApprovedForAll",
      "outputs": [
        {
          "internalType": "bool",
          "name": "",
          "type": "bool"
        }
      ],
      "stateMutability": "view",
      "type": "function"
    },
    {
      "inputs": [],
      "name": "lastAttestedAt",
      "outputs": [
        {
          "internalType": "uint256",
          "name": "",
          "type": "uint256"
        }
      ],
      "stateMutability": "view",
      "type": "function"
    },
    {
      "inputs": [],
      "name": "latestAttestationRoot",
      "outputs": [
        {
          "internalType": "bytes32",
          "name": "",
          "type": "bytes32"
        }
      ],
      "stateMutability": "view",
      "type": "function"
    },
    {
      "inputs": [
        {
          "internalType": "uint16",
          "name": "productId",
          "type": "uint16"
        },
        {
          "internalType": "uint256",
          "name": "supportAmount",
          "type": "uint256"
        },
        {
          "internalType": "string",
          "name": "pledgedOn",
          "type": "string"
        },
        {
          "internalType": "bytes32",
          "name": "evidenceHash",
          "type": "bytes32"
        }
      ],
      "name": "markWealthPledgeWithEvidence",
      "outputs": [
        {
          "internalType": "uint256",
          "name": "tokenId",
          "type": "uint256"
        }
      ],
      "stateMutability": "nonpayable",
      "type": "function"
    },
    {
      "inputs": [
        {
          "internalType": "uint8",
          "name": "taskId",
          "type": "uint8"
        }
      ],
      "name": "markWealthTask",
      "outputs": [],
      "stateMutability": "nonpayable",
      "type": "function"
    },
    {
      "inputs": [
        {
          "internalType": "uint8",
          "name": "taskId",
          "type": "uint8"
        },
        {
          "internalType": "int256",
          "name": "realizedPnl",
          "type": "int256"
        },
        {
          "internalType": "bytes32",
          "name": "evidenceHash",
          "type": "bytes32"
        }
      ],
      "name": "markWealthTaskWithEvidence",
      "outputs": [],
      "stateMutability": "nonpayable",
      "type": "function"
    },
    {
      "inputs": [],
      "name": "metadataRenderer",
      "outputs": [
        {
          "internalType": "address",
          "name": "",
          "type": "address"
        }
      ],
      "stateMutability": "view",
      "type": "function"
    },
    {
      "inputs": [],
      "name": "minSubscription",
      "outputs": [
        {
          "internalType": "uint256",
          "name": "",
          "type": "uint256"
        }
      ],
      "stateMutability": "view",
      "type": "function"
    },
    {
      "inputs": [
        {
          "internalType": "uint8",
          "name": "badgeType",
          "type": "uint8"
        },
        {
          "internalType": "address",
          "name": "to",
          "type": "address"
        }
      ],
      "name": "mintBadge",
      "outputs": [
        {
          "internalType": "uint256",
          "name": "tokenId",
          "type": "uint256"
        }
      ],
      "stateMutability": "nonpayable",
      "type": "function"
    },
    {
      "inputs": [
        {
          "internalType": "string",
          "name": "category",
          "type": "string"
        },
        {
          "internalType": "string",
          "name": "submittedOn",
          "type": "string"
        },
        {
          "internalType": "int256",
          "name": "returnBps",
          "type": "int256"
        },
        {
          "internalType": "uint256",
          "name": "winRateBps",
          "type": "uint256"
        },
        {
          "internalType": "uint256",
          "name": "maxDrawdownBps",
          "type": "uint256"
        }
      ],
      "name": "mintPaperLeaderboardCredential",
      "outputs": [
        {
          "internalType": "uint256",
          "name": "tokenId",
          "type": "uint256"
        }
      ],
      "stateMutability": "nonpayable",
      "type": "function"
    },
    {
      "inputs": [
        {
          "internalType": "address",
          "name": "to",
          "type": "address"
        }
      ],
      "name": "mintWelcomeBadge",
      "outputs": [
        {
          "internalType": "uint256",
          "name": "tokenId",
          "type": "uint256"
        }
      ],
      "stateMutability": "nonpayable",
      "type": "function"
    },
    {
      "inputs": [],
      "name": "navBps",
      "outputs": [
        {
          "internalType": "uint256",
          "name": "",
          "type": "uint256"
        }
      ],
      "stateMutability": "view",
      "type": "function"
    },
    {
      "inputs": [],
      "name": "nextHomeTokenId",
      "outputs": [
        {
          "internalType": "uint256",
          "name": "",
          "type": "uint256"
        }
      ],
      "stateMutability": "view",
      "type": "function"
    },
    {
      "inputs": [],
      "name": "nextPaperLeaderboardCredentialTokenId",
      "outputs": [
        {
          "internalType": "uint256",
          "name": "",
          "type": "uint256"
        }
      ],
      "stateMutability": "view",
      "type": "function"
    },
    {
      "inputs": [],
      "name": "nextWealthPledgeCredentialTokenId",
      "outputs": [
        {
          "internalType": "uint256",
          "name": "",
          "type": "uint256"
        }
      ],
      "stateMutability": "view",
      "type": "function"
    },
    {
      "inputs": [],
      "name": "nextWealthReceiptCredentialTokenId",
      "outputs": [
        {
          "internalType": "uint256",
          "name": "",
          "type": "uint256"
        }
      ],
      "stateMutability": "view",
      "type": "function"
    },
    {
      "inputs": [],
      "name": "owner",
      "outputs": [
        {
          "internalType": "address",
          "name": "",
          "type": "address"
        }
      ],
      "stateMutability": "view",
      "type": "function"
    },
    {
      "inputs": [
        {
          "internalType": "address",
          "name": "",
          "type": "address"
        },
        {
          "internalType": "uint256",
          "name": "",
          "type": "uint256"
        }
      ],
      "name": "paperLeaderboardCredentialMintsByDay",
      "outputs": [
        {
          "internalType": "uint256",
          "name": "",
          "type": "uint256"
        }
      ],
      "stateMutability": "view",
      "type": "function"
    },
    {
      "inputs": [
        {
          "internalType": "uint256",
          "name": "",
          "type": "uint256"
        }
      ],
      "name": "paperLeaderboardCredentialOf",
      "outputs": [
        {
          "internalType": "address",
          "name": "account",
          "type": "address"
        },
        {
          "internalType": "string",
          "name": "category",
          "type": "string"
        },
        {
          "internalType": "string",
          "name": "submittedOn",
          "type": "string"
        },
        {
          "internalType": "int256",
          "name": "returnBps",
          "type": "int256"
        },
        {
          "internalType": "uint256",
          "name": "winRateBps",
          "type": "uint256"
        },
        {
          "internalType": "uint256",
          "name": "maxDrawdownBps",
          "type": "uint256"
        }
      ],
      "stateMutability": "view",
      "type": "function"
    },
    {
      "inputs": [
        {
          "internalType": "uint256",
          "name": "shareAmount",
          "type": "uint256"
        }
      ],
      "name": "previewAssets",
      "outputs": [
        {
          "internalType": "uint256",
          "name": "",
          "type": "uint256"
        }
      ],
      "stateMutability": "view",
      "type": "function"
    },
    {
      "inputs": [
        {
          "internalType": "uint256",
          "name": "assetAmount",
          "type": "uint256"
        }
      ],
      "name": "previewShares",
      "outputs": [
        {
          "internalType": "uint256",
          "name": "",
          "type": "uint256"
        }
      ],
      "stateMutability": "view",
      "type": "function"
    },
    {
      "inputs": [
        {
          "internalType": "uint16",
          "name": "",
          "type": "uint16"
        }
      ],
      "name": "productReceiptDetail",
      "outputs": [
        {
          "internalType": "string",
          "name": "",
          "type": "string"
        }
      ],
      "stateMutability": "view",
      "type": "function"
    },
    {
      "inputs": [
        {
          "internalType": "uint16",
          "name": "",
          "type": "uint16"
        }
      ],
      "name": "productReceiptLabel",
      "outputs": [
        {
          "internalType": "string",
          "name": "",
          "type": "string"
        }
      ],
      "stateMutability": "view",
      "type": "function"
    },
    {
      "inputs": [
        {
          "internalType": "uint16",
          "name": "",
          "type": "uint16"
        }
      ],
      "name": "productReceiptMaturity",
      "outputs": [
        {
          "internalType": "string",
          "name": "",
          "type": "string"
        }
      ],
      "stateMutability": "view",
      "type": "function"
    },
    {
      "inputs": [
        {
          "internalType": "uint16",
          "name": "",
          "type": "uint16"
        }
      ],
      "name": "productReceiptType",
      "outputs": [
        {
          "internalType": "string",
          "name": "",
          "type": "string"
        }
      ],
      "stateMutability": "view",
      "type": "function"
    },
    {
      "inputs": [
        {
          "internalType": "uint16",
          "name": "productId",
          "type": "uint16"
        }
      ],
      "name": "receiptTokenId",
      "outputs": [
        {
          "internalType": "uint256",
          "name": "",
          "type": "uint256"
        }
      ],
      "stateMutability": "pure",
      "type": "function"
    },
    {
      "inputs": [
        {
          "internalType": "bytes32",
          "name": "assetHash",
          "type": "bytes32"
        },
        {
          "internalType": "bool",
          "name": "passed",
          "type": "bool"
        },
        {
          "internalType": "string",
          "name": "note",
          "type": "string"
        }
      ],
      "name": "recordUnderlyingReview",
      "outputs": [],
      "stateMutability": "nonpayable",
      "type": "function"
    },
    {
      "inputs": [
        {
          "internalType": "uint256",
          "name": "shareAmount",
          "type": "uint256"
        }
      ],
      "name": "redeem",
      "outputs": [
        {
          "internalType": "uint256",
          "name": "assetAmount",
          "type": "uint256"
        }
      ],
      "stateMutability": "nonpayable",
      "type": "function"
    },
    {
      "inputs": [
        {
          "internalType": "uint16",
          "name": "productId",
          "type": "uint16"
        },
        {
          "internalType": "uint256",
          "name": "shareAmount",
          "type": "uint256"
        }
      ],
      "name": "redeemProduct",
      "outputs": [
        {
          "internalType": "uint256",
          "name": "assetAmount",
          "type": "uint256"
        }
      ],
      "stateMutability": "nonpayable",
      "type": "function"
    },
    {
      "inputs": [],
      "name": "renounceOwnership",
      "outputs": [],
      "stateMutability": "nonpayable",
      "type": "function"
    },
    {
      "inputs": [
        {
          "internalType": "address",
          "name": "",
          "type": "address"
        }
      ],
      "name": "replayScoreOf",
      "outputs": [
        {
          "internalType": "int256",
          "name": "bestNetPnl",
          "type": "int256"
        },
        {
          "internalType": "uint256",
          "name": "bestAccountValue",
          "type": "uint256"
        },
        {
          "internalType": "uint256",
          "name": "bestTradeCount",
          "type": "uint256"
        },
        {
          "internalType": "uint256",
          "name": "lastSubmittedAt",
          "type": "uint256"
        },
        {
          "internalType": "uint256",
          "name": "submissionCount",
          "type": "uint256"
        },
        {
          "internalType": "uint256",
          "name": "submissionDay",
          "type": "uint256"
        },
        {
          "internalType": "uint256",
          "name": "submissionsToday",
          "type": "uint256"
        }
      ],
      "stateMutability": "view",
      "type": "function"
    },
    {
      "inputs": [
        {
          "internalType": "address",
          "name": "",
          "type": "address"
        }
      ],
      "name": "riskTier",
      "outputs": [
        {
          "internalType": "uint8",
          "name": "",
          "type": "uint8"
        }
      ],
      "stateMutability": "view",
      "type": "function"
    },
    {
      "inputs": [
        {
          "internalType": "address",
          "name": "from",
          "type": "address"
        },
        {
          "internalType": "address",
          "name": "to",
          "type": "address"
        },
        {
          "internalType": "uint256[]",
          "name": "ids",
          "type": "uint256[]"
        },
        {
          "internalType": "uint256[]",
          "name": "amounts",
          "type": "uint256[]"
        },
        {
          "internalType": "bytes",
          "name": "data",
          "type": "bytes"
        }
      ],
      "name": "safeBatchTransferFrom",
      "outputs": [],
      "stateMutability": "nonpayable",
      "type": "function"
    },
    {
      "inputs": [
        {
          "internalType": "address",
          "name": "from",
          "type": "address"
        },
        {
          "internalType": "address",
          "name": "to",
          "type": "address"
        },
        {
          "internalType": "uint256",
          "name": "id",
          "type": "uint256"
        },
        {
          "internalType": "uint256",
          "name": "amount",
          "type": "uint256"
        },
        {
          "internalType": "bytes",
          "name": "data",
          "type": "bytes"
        }
      ],
      "name": "safeTransferFrom",
      "outputs": [],
      "stateMutability": "nonpayable",
      "type": "function"
    },
    {
      "inputs": [
        {
          "internalType": "uint256",
          "name": "index",
          "type": "uint256"
        }
      ],
      "name": "scoreAccountAt",
      "outputs": [
        {
          "internalType": "address",
          "name": "",
          "type": "address"
        }
      ],
      "stateMutability": "view",
      "type": "function"
    },
    {
      "inputs": [],
      "name": "scoreAccountCount",
      "outputs": [
        {
          "internalType": "uint256",
          "name": "",
          "type": "uint256"
        }
      ],
      "stateMutability": "view",
      "type": "function"
    },
    {
      "inputs": [
        {
          "internalType": "address",
          "name": "operator",
          "type": "address"
        },
        {
          "internalType": "bool",
          "name": "approved",
          "type": "bool"
        }
      ],
      "name": "setApprovalForAll",
      "outputs": [],
      "stateMutability": "nonpayable",
      "type": "function"
    },
    {
      "inputs": [
        {
          "internalType": "string",
          "name": "nextUri",
          "type": "string"
        }
      ],
      "name": "setBaseUri",
      "outputs": [],
      "stateMutability": "nonpayable",
      "type": "function"
    },
    {
      "inputs": [
        {
          "internalType": "address",
          "name": "investor",
          "type": "address"
        },
        {
          "internalType": "bool",
          "name": "allowed",
          "type": "bool"
        },
        {
          "internalType": "uint8",
          "name": "tier",
          "type": "uint8"
        }
      ],
      "name": "setInvestorEligibility",
      "outputs": [],
      "stateMutability": "nonpayable",
      "type": "function"
    },
    {
      "inputs": [
        {
          "internalType": "address",
          "name": "renderer",
          "type": "address"
        }
      ],
      "name": "setMetadataRenderer",
      "outputs": [],
      "stateMutability": "nonpayable",
      "type": "function"
    },
    {
      "inputs": [
        {
          "internalType": "uint256",
          "name": "nextMinSubscription",
          "type": "uint256"
        }
      ],
      "name": "setMinSubscription",
      "outputs": [],
      "stateMutability": "nonpayable",
      "type": "function"
    },
    {
      "inputs": [
        {
          "internalType": "uint256",
          "name": "nextNavBps",
          "type": "uint256"
        }
      ],
      "name": "setNavBps",
      "outputs": [],
      "stateMutability": "nonpayable",
      "type": "function"
    },
    {
      "inputs": [
        {
          "internalType": "uint16",
          "name": "productId",
          "type": "uint16"
        },
        {
          "internalType": "string",
          "name": "detail",
          "type": "string"
        }
      ],
      "name": "setProductReceiptDetail",
      "outputs": [],
      "stateMutability": "nonpayable",
      "type": "function"
    },
    {
      "inputs": [
        {
          "internalType": "uint16",
          "name": "productId",
          "type": "uint16"
        },
        {
          "internalType": "string",
          "name": "label",
          "type": "string"
        }
      ],
      "name": "setProductReceiptLabel",
      "outputs": [],
      "stateMutability": "nonpayable",
      "type": "function"
    },
    {
      "inputs": [
        {
          "internalType": "uint16",
          "name": "productId",
          "type": "uint16"
        },
        {
          "internalType": "string",
          "name": "productType",
          "type": "string"
        },
        {
          "internalType": "string",
          "name": "maturity",
          "type": "string"
        }
      ],
      "name": "setProductReceiptMetadata",
      "outputs": [],
      "stateMutability": "nonpayable",
      "type": "function"
    },
    {
      "inputs": [
        {
          "internalType": "string",
          "name": "nextStatus",
          "type": "string"
        }
      ],
      "name": "setStrategyStatus",
      "outputs": [],
      "stateMutability": "nonpayable",
      "type": "function"
    },
    {
      "inputs": [
        {
          "internalType": "bool",
          "name": "paused",
          "type": "bool"
        }
      ],
      "name": "setSubscriptionsPaused",
      "outputs": [],
      "stateMutability": "nonpayable",
      "type": "function"
    },
    {
      "inputs": [
        {
          "internalType": "uint16",
          "name": "fromProductId",
          "type": "uint16"
        },
        {
          "internalType": "uint16",
          "name": "toProductId",
          "type": "uint16"
        },
        {
          "internalType": "uint256",
          "name": "burnAmount",
          "type": "uint256"
        },
        {
          "internalType": "uint256",
          "name": "mintAmount",
          "type": "uint256"
        }
      ],
      "name": "settleProduct",
      "outputs": [
        {
          "internalType": "uint256",
          "name": "assetAmount",
          "type": "uint256"
        },
        {
          "internalType": "uint256",
          "name": "mintedAmount",
          "type": "uint256"
        }
      ],
      "stateMutability": "nonpayable",
      "type": "function"
    },
    {
      "inputs": [],
      "name": "strategyStatus",
      "outputs": [
        {
          "internalType": "string",
          "name": "",
          "type": "string"
        }
      ],
      "stateMutability": "view",
      "type": "function"
    },
    {
      "inputs": [
        {
          "internalType": "int256",
          "name": "netPnl",
          "type": "int256"
        },
        {
          "internalType": "uint256",
          "name": "accountValue",
          "type": "uint256"
        },
        {
          "internalType": "uint256",
          "name": "tradeCount",
          "type": "uint256"
        }
      ],
      "name": "submitScore",
      "outputs": [],
      "stateMutability": "nonpayable",
      "type": "function"
    },
    {
      "inputs": [
        {
          "internalType": "uint256",
          "name": "assetAmount",
          "type": "uint256"
        }
      ],
      "name": "subscribe",
      "outputs": [
        {
          "internalType": "uint256",
          "name": "shareAmount",
          "type": "uint256"
        }
      ],
      "stateMutability": "nonpayable",
      "type": "function"
    },
    {
      "inputs": [
        {
          "internalType": "uint16",
          "name": "productId",
          "type": "uint16"
        },
        {
          "internalType": "uint256",
          "name": "assetAmount",
          "type": "uint256"
        }
      ],
      "name": "subscribeProduct",
      "outputs": [
        {
          "internalType": "uint256",
          "name": "shareAmount",
          "type": "uint256"
        }
      ],
      "stateMutability": "nonpayable",
      "type": "function"
    },
    {
      "inputs": [
        {
          "internalType": "uint16",
          "name": "productId",
          "type": "uint16"
        },
        {
          "internalType": "uint256",
          "name": "assetAmount",
          "type": "uint256"
        },
        {
          "internalType": "string",
          "name": "purchasedOn",
          "type": "string"
        }
      ],
      "name": "subscribeProductWithMetadata",
      "outputs": [
        {
          "internalType": "uint256",
          "name": "shareAmount",
          "type": "uint256"
        }
      ],
      "stateMutability": "nonpayable",
      "type": "function"
    },
    {
      "inputs": [],
      "name": "subscriptionsPaused",
      "outputs": [
        {
          "internalType": "bool",
          "name": "",
          "type": "bool"
        }
      ],
      "stateMutability": "view",
      "type": "function"
    },
    {
      "inputs": [
        {
          "internalType": "bytes4",
          "name": "interfaceId",
          "type": "bytes4"
        }
      ],
      "name": "supportsInterface",
      "outputs": [
        {
          "internalType": "bool",
          "name": "",
          "type": "bool"
        }
      ],
      "stateMutability": "view",
      "type": "function"
    },
    {
      "inputs": [
        {
          "internalType": "uint256",
          "name": "",
          "type": "uint256"
        }
      ],
      "name": "tokenBadgeType",
      "outputs": [
        {
          "internalType": "uint8",
          "name": "",
          "type": "uint8"
        }
      ],
      "stateMutability": "view",
      "type": "function"
    },
    {
      "inputs": [
        {
          "internalType": "address",
          "name": "newOwner",
          "type": "address"
        }
      ],
      "name": "transferOwnership",
      "outputs": [],
      "stateMutability": "nonpayable",
      "type": "function"
    },
    {
      "inputs": [
        {
          "internalType": "bytes32",
          "name": "nextAttestationRoot",
          "type": "bytes32"
        }
      ],
      "name": "updateAttestation",
      "outputs": [],
      "stateMutability": "nonpayable",
      "type": "function"
    },
    {
      "inputs": [
        {
          "internalType": "uint256",
          "name": "tokenId",
          "type": "uint256"
        }
      ],
      "name": "uri",
      "outputs": [
        {
          "internalType": "string",
          "name": "",
          "type": "string"
        }
      ],
      "stateMutability": "view",
      "type": "function"
    },
    {
      "inputs": [],
      "name": "vaultLabel",
      "outputs": [
        {
          "internalType": "string",
          "name": "",
          "type": "string"
        }
      ],
      "stateMutability": "view",
      "type": "function"
    },
    {
      "inputs": [
        {
          "internalType": "uint256",
          "name": "",
          "type": "uint256"
        }
      ],
      "name": "wealthPledgeCredentialOf",
      "outputs": [
        {
          "internalType": "address",
          "name": "account",
          "type": "address"
        },
        {
          "internalType": "uint16",
          "name": "productId",
          "type": "uint16"
        },
        {
          "internalType": "uint256",
          "name": "supportAmount",
          "type": "uint256"
        },
        {
          "internalType": "string",
          "name": "pledgedOn",
          "type": "string"
        }
      ],
      "stateMutability": "view",
      "type": "function"
    },
    {
      "inputs": [
        {
          "internalType": "uint256",
          "name": "",
          "type": "uint256"
        }
      ],
      "name": "wealthReceiptCredentialOf",
      "outputs": [
        {
          "internalType": "address",
          "name": "account",
          "type": "address"
        },
        {
          "internalType": "uint16",
          "name": "productId",
          "type": "uint16"
        },
        {
          "internalType": "uint256",
          "name": "assetAmount",
          "type": "uint256"
        },
        {
          "internalType": "uint256",
          "name": "shareAmount",
          "type": "uint256"
        },
        {
          "internalType": "string",
          "name": "purchasedOn",
          "type": "string"
        }
      ],
      "stateMutability": "view",
      "type": "function"
    },
    {
      "inputs": [
        {
          "internalType": "address",
          "name": "",
          "type": "address"
        },
        {
          "internalType": "uint16",
          "name": "",
          "type": "uint16"
        }
      ],
      "name": "wealthReceiptProofOf",
      "outputs": [
        {
          "internalType": "uint256",
          "name": "lastAssetAmount",
          "type": "uint256"
        },
        {
          "internalType": "uint256",
          "name": "lastShareAmount",
          "type": "uint256"
        },
        {
          "internalType": "uint256",
          "name": "purchasedAt",
          "type": "uint256"
        },
        {
          "internalType": "string",
          "name": "productDetail",
          "type": "string"
        }
      ],
      "stateMutability": "view",
      "type": "function"
    },
    {
      "inputs": [
        {
          "internalType": "address",
          "name": "",
          "type": "address"
        },
        {
          "internalType": "uint16",
          "name": "",
          "type": "uint16"
        }
      ],
      "name": "wealthReceiptShares",
      "outputs": [
        {
          "internalType": "uint256",
          "name": "",
          "type": "uint256"
        }
      ],
      "stateMutability": "view",
      "type": "function"
    },
    {
      "inputs": [
        {
          "internalType": "address",
          "name": "",
          "type": "address"
        },
        {
          "internalType": "uint8",
          "name": "",
          "type": "uint8"
        }
      ],
      "name": "wealthTaskCompleted",
      "outputs": [
        {
          "internalType": "bool",
          "name": "",
          "type": "bool"
        }
      ],
      "stateMutability": "view",
      "type": "function"
    },
    {
      "inputs": [
        {
          "internalType": "address",
          "name": "",
          "type": "address"
        },
        {
          "internalType": "uint8",
          "name": "",
          "type": "uint8"
        }
      ],
      "name": "wealthTaskEvidenceHash",
      "outputs": [
        {
          "internalType": "bytes32",
          "name": "",
          "type": "bytes32"
        }
      ],
      "stateMutability": "view",
      "type": "function"
    },
    {
      "inputs": [
        {
          "internalType": "address",
          "name": "",
          "type": "address"
        },
        {
          "internalType": "uint8",
          "name": "",
          "type": "uint8"
        }
      ],
      "name": "wealthTaskRealizedPnl",
      "outputs": [
        {
          "internalType": "int256",
          "name": "",
          "type": "int256"
        }
      ],
      "stateMutability": "view",
      "type": "function"
    }
  ],
  "bytecode": "0x6080604052346200035b5762005f69803803806200001d816200035f565b92833981019060209182828203126200035b5781516001600160401b03928382116200035b570191601f918083850112156200035b578351938285116200033357601f199462000073858201871688016200035f565b928184528782840101116200035b5786915f5b82811062000347575050905f918301015280519182116200033357620000ae60025462000385565b838111620002f7575b508493838311600114620002945750928192935f9262000288575b50508160011b915f199060031b1c1916176002555b60038054336001600160a01b0319821681179092556001600160a01b03167f8be0079c531659141344cd1fd0a4f28419497f9722a3daafe3b4186f6b6457e05f80a36001600455620186a160055562030d41600655620493e16007556127106008556101f46009556200015c600e5462000385565b81811162000266575b507f5269736b4c656e7320556e69666965642044656d6f205661756c740000000036600e55600f54620001989062000385565b81811162000244575b50600461141560f21b01600f55600d54620001bc9062000385565b9080821162000222575b7f44656d6f20726561647900000000000000000000000000000000000000000014600d557f326aeea7abf8a20d2ae5c71811b6e16c6ad80e0128362081ef8dd5af3774b9c0600c5542600a55604051615b909081620003d98239f35b6200023b92600d5f525f20910160051c810190620003c0565b5f8080620001c6565b6200025f90600f5f5282845f20910160051c810190620003c0565b5f620001a1565b6200028190600e5f5282845f20910160051c810190620003c0565b5f62000165565b015190505f80620000d2565b82169360025f52855f20915f5b87878210620002e0575050836001959610620002c7575b505050811b01600255620000e7565b01515f1960f88460031b161c191690555f8080620002b8565b6001849582939585015181550194019201620002a1565b620003229060025f52865f208580860160051c82019289871062000329575b0160051c0190620003c0565b5f620000b7565b9250819262000316565b634e487b7160e01b5f52604160045260245ffd5b818101840151858201850152830162000086565b5f80fd5b6040519190601f01601f191682016001600160401b038111838210176200033357604052565b90600182811c92168015620003b5575b6020831014620003a157565b634e487b7160e01b5f52602260045260245ffd5b91607f169162000395565b818110620003cc575050565b5f8155600101620003c056fe60806040526004361015610011575f80fd5b5f3560e01c80629b27af14614017578062fdd58e14613ff057806301b4597d14613f9e57806301ffc9a714613f3057806302cea26b14613edf5780630765b4b414613eac5780630e89341c14613e8d5780630f574ba7146139ef578063176de7a814613964578063176f1cdd146138d9578063179649ad1461383f5780631a2e99961461375c5780631b6c218e146135425780631de3083d14613527578063218900b41461350a578063249d39e9146134ee57806327dac9e2146134a157806327e80368146134845780632a0ee085146134405780632baa75211461341d5780632e6f6b1f146134005780632eb2c2d61461318c5780632f85874a146131705780632fb4e0f9146130b0578063325116ee1461309557806332ddc5241461302b578063379607f514612fd157806338e21cce14612f8957806341be5f6414612f6c5780634973fd9a14612f3d5780634adb4cc814612f205780634d7c10a714612ee35780634e1273f414612d6f578063513f840114612c1657806352163337146129e057806355cc02611461287957806357997aa21461285e5780635acc90091461282b5780635ad32a3c146127bf578063619a1d291461279857806362abebce14612557578063663c39d2146124765780636961fd46146122fd5780636b3ce2f11461229f5780636ea17abd14612284578063703199701461225c578063715018a6146122145780637206abbd1461207557806374b3322c146120275780637cea070a1461200c5780638385f14a14611fef5780638530a3bf14611fc2578063889d100214611f8f5780638909e50614611edd5780638d00bbe514611e885780638da5cb5b14611e605780638f631d5414611e4557806393b9e5ae14611df857806399b49e2514611d995780639a2aaca114611d0e578063a0bcfc7f14611bd7578063a22cb46514611afd578063aec45d8014611a9a578063b363935c14610567578063b5884e2014611a04578063b7d120d0146119bd578063b84d93d414611982578063bce4899114611493578063c056e1e314610872578063c1d150e4146113fb578063c4ebe024146113e0578063c5e20f8014611349578063c8a3c3b5146112d0578063cad4719214610562578063cb33bcdb1461127e578063cc272b1114611205578063ceb0f6d814610eef578063cf22928d146111e3578063d28c390a146111ad578063d4b0521b14611130578063d5c21baa14611113578063d92fa2c6146110e3578063db006a7514610ef4578063dcb2125b14610eef578063e5a8994514610a20578063e985e9c5146109ce578063ed2ff225146109b1578063eda7c56e14610877578063eeaa817714610872578063f242432a14610631578063f2fde38b14610582578063f4db898414610567578063f64bfa5914610562578063f68e55c314610504578063f766dee4146104e9578063f9569673146104ac5763fd4fe8a814610442575f80fd5b346104a85760203660031901126104a85761045b61405e565b610463614a8d565b601080546001600160a01b0319166001600160a01b039290921691821790557f60a886c8dc324af9c6d6a1bf7369ffe7557ef345eb5717bceffb59beac879a0a5f80a2005b5f80fd5b346104a85760203660031901126104a8576001600160a01b036104cd61405e565b165f526018602052602060ff60405f2054166040519015158152f35b346104a8575f3660031901126104a8576020604051600a8152f35b346104a85760203660031901126104a857600435610520614a8d565b801561052b57600955005b60405162461bcd60e51b815260206004820152600f60248201526e496e76616c6964206d696e696d756d60881b6044820152606490fd5b614446565b346104a8575f3660031901126104a857602060405160068152f35b346104a85760203660031901126104a85761059b61405e565b6105a3614a8d565b6001600160a01b039081169081156105dd57600380546001600160a01b031981168417909155165f80516020615a3b8339815191525f80a3005b60405162461bcd60e51b815260206004820152602660248201527f4f776e61626c653a206e6577206f776e657220697320746865207a65726f206160448201526564647265737360d01b6064820152608490fd5b346104a85760a03660031901126104a85761064a61405e565b610652614074565b906064356044356084356001600160401b0381116104a857610678903690600401614397565b6001600160a01b0393841693338514801561084d575b610697906148db565b85166106a4811515614ccf565b6106ad83615807565b506106b784615807565b50825f526020955f875260405f20865f5287528460405f20546106dc82821015614d29565b855f525f895260405f20885f5289520360405f2055835f525f875260405f20825f52875260405f2061070f8682546148af565b90558186604051868152878a8201525f8051602061591b83398151915260403392a43b61073857005b61077b935f87946040519687958694859363f23a6e6160e01b9b8c865233600487015260248601526044850152606484015260a0608484015260a4830190614271565b03925af15f918161081e575b506107f25782610795615703565b6308c379a0146107bd575b60405162461bcd60e51b8152806107b96004820161578b565b0390fd5b6107c561571e565b90816107d157506107a0565b6107b960405192839262461bcd60e51b845260048401526024830190614271565b6001600160e01b03191603905061080557005b60405162461bcd60e51b8152806107b9600482016156ba565b61083f919250843d8611610846575b610837818361418b565b81019061569a565b9084610787565b503d61082d565b50845f52600160205260405f20335f5260205261069760ff60405f205416905061068e565b6113e0565b346104a85761ffff61088836614408565b91610894939193614a8d565b16916108a1831515614810565b825f52602090601a825260405f2060018060401b03841161099d576108d0846108ca83546140cc565b8361484e565b5f601f851160011461092857916109189161090486805f805160206158fb8339815191529897965f9161091d575b5061489d565b90555b604051938385948552840191614770565b0390a2005b90508401358a6108fe565b601f19851690825f52845f20915f5b8181106109865750916109189391875f805160206158fb833981519152989796941061096d575b5050600185811b019055610907565b8301355f19600388901b60f8161c19169055878061095e565b919286600181928689013581550194019201610937565b634e487b7160e01b5f52604160045260245ffd5b346104a8575f3660031901126104a8576020600654604051908152f35b346104a85760403660031901126104a8576109e761405e565b6109ef614074565b9060018060a01b038091165f52600160205260405f2091165f52602052602060ff60405f2054166040519015158152f35b346104a85760a03660031901126104a8576004356001600160401b0381116104a857610a50903690600401614296565b6024356001600160401b0381116104a857610a6f903690600401614296565b90916044906064938115610eb9578315610e875761271080863511610e515760843511610e1b57620151804204335f52602360205260405f20815f52602052600360405f20541015610dd857335f52602360205260405f20905f5260205260405f2080549060018201809211610dc457556005549360018501808611610dc4576005556040519660c088016001600160401b0381118982101761099d57604052338852610b1d368583614361565b60208901908152610b2f368486614361565b60408a810191909152863560608b0152883560808b015260843560a08b01525f888152602260205220895181546001600160a01b0319166001600160a01b039190911617815590518051906001600160401b03821161099d57610ba282610b9960018601546140cc565b6001860161484e565b602090601f8311600114610d5a57610bc492915f9183610d4f575b505061489d565b60018201555b604089015180519099906001600160401b03811161099d5760209a610bff82610bf660028701546140cc565b6002870161484e565b8b90601f8311600114610cc55793600560a08c9d9895610c4086610c8a97610c979b975f8051602061599b8339815191529f9e9b5f92610cba57505061489d565b60028501555b60608101516003850155608081015160048501550151910155610c78604051610c6e8161413a565b5f81528b33614e1b565b6040519660a0885260a0880191614770565b918583038b870152614770565b9335604083015235606082015260843560808201528033930390a3604051908152f35b015190505f80610bbd565b90600285015f528c5f20915f5b601f1985168110610d38575060a08c9d9895600186610c979a965f8051602061599b8339815191529e9d9a96600596610c8a9a601f19811610610d20575b505050811b016002850155610c46565b01515f1960f88460031b161c191690555f8080610d10565b91928e600181928685015181550194019201610cd2565b015190508c80610bbd565b90601f19831691600185015f5260205f20925f5b818110610dac5750908460019594939210610d94575b505050811b016001820155610bca565b01515f1960f88460031b161c191690558b8080610d84565b92936020600181928786015181550195019301610d6e565b634e487b7160e01b5f52601160045260245ffd5b60405162461bcd60e51b815260206004820152601e60248201527f4461696c792063726564656e7469616c206c696d697420726561636865640000818601528690fd5b60405162461bcd60e51b815260206004820152601060248201526f24b73b30b634b210323930bbb237bbb760811b818501528590fd5b60405162461bcd60e51b815260206004820152601060248201526f496e76616c69642077696e207261746560801b818601528690fd5b60405162461bcd60e51b815260206004820152600c60248201526b4d697373696e67206461746560a01b818501528590fd5b60405162461bcd60e51b815260206004820152601060248201526f4d697373696e672063617465676f727960801b818501528590fd5b61200c565b346104a8576020806003193601126104a857600435610f14811515614fc2565b33156110a557604051610f2681614155565b6001815282810190833683375115611091576103e9809152610f4782615807565b505f604051610f558161413a565b52805f525f835260405f20335f52835260405f2054828110611053578290825f525f855260405f20335f5285520360405f20555f604051828152838582015233905f8051602061591b83398151915260403392a45f604051610fb68161413a565b52335f90815260198452604080822060018352855290205480831061103457505f5b335f526019845260405f2060015f52845260405f205560405182815282848201525f80516020615b1b83398151915260403392a2600160405183815283858201525f80516020615a7b83398151915260403392a4604051908152f35b82810390811115610fd857634e487b7160e01b5f52601160045260245ffd5b60405162461bcd60e51b8152600481018590526024808201525f80516020615a1b833981519152604482015263616e636560e01b6064820152608490fd5b634e487b7160e01b5f52603260045260245ffd5b60405162461bcd60e51b815260048101839052602360248201525f8051602061597b83398151915260448201526265737360e81b6064820152608490fd5b346104a85760403660031901126104a857602061110b6111016140aa565b6024359033614ffc565b604051908152f35b346104a8575f3660031901126104a8576020600554604051908152f35b346104a85760203660031901126104a85760043560205481101561117257611159602091614a15565b905460405160039290921b1c6001600160a01b03168152f35b60405162461bcd60e51b8152602060048201526013602482015272496e646578206f7574206f6620626f756e647360681b6044820152606490fd5b346104a85760203660031901126104a857600854600435818102918115918304141715610dc45760209061271060405191048152f35b346104a8575f3660031901126104a857602060ff600b54166040519015158152f35b346104a85760203660031901126104a8576004355f52602460205261ffff60405f2061127a8154916001810154906112446003600283015492016141ae565b9160405195869560018060a01b038116875260a01c1660208601526040850152606084015260a0608084015260a0830190614271565b0390f35b346104a85760403660031901126104a85761129761405e565b61129f61408a565b9060018060a01b03165f52601360205260ff60405f2091165f52602052602060ff60405f2054166040519015158152f35b346104a85760203660031901126104a8576001600160a01b036112f161405e565b165f52601760205260e060405f20805490600181015490600281015460038201546004830154916006600585015494015494604051968752602087015260408601526060850152608084015260a083015260c0820152f35b346104a85760203660031901126104a8576004355f90815260226020526040902080546001600160a01b0316611381600183016141ae565b9161138e600282016141ae565b6003820154916113cc60056004830154920154926113be604051978897885260c0602089015260c0880190614271565b908682036040880152614271565b926060850152608084015260a08301520390f35b346104a8575f3660031901126104a857602060405160038152f35b346104a85760603660031901126104a8576114146140aa565b6044356001600160401b0381116104a857611433903690600401614296565b9182156114565761144b61110b926020943691614361565b9060243590336151b4565b60405162461bcd60e51b81526020600482015260156024820152744d697373696e67207075726368617365206461746560581b6044820152606490fd5b346104a85760803660031901126104a8576114ac6140aa565b6024906001600160401b03906044358281116104a8576114d0903690600401614296565b6064939193359461ffff809416926114e9841515614810565b81351561194c578215611912576115018715156149c6565b61151361150d33614472565b156147d2565b335f526020966013885260405f20600290815f52895260405f20916001928360ff19825416179055335f52601f8a5260405f20825f528a525f6040812055335f52601e8a5260405f20825f528a528060405f205561157033614472565b15611730575b506007549682880180891161171d57856115f98a969594938a60258f8f6115c1908e98600755604051986115a98a614104565b338a52838a0195865260408a01983589523691614361565b606088019081525f9b8c529190526040909920945185546001600160a01b0319166001600160a01b0391909116178555511683614a6e565b5183820155019251805192831161170a5761161e8361161886546140cc565b8661484e565b8991601f84116001146116975750825f80516020615b3b8339815191529593899a9593611652935f92610d4f57505061489d565b90555b61166e6040516116648161413a565b5f81528733614e1b565b61168c60405192839235835260408a84015233956040840191614770565b0390a4604051908152f35b9291601f19831691855f528b5f20925f5b8d8282106116f6575050915f80516020615b3b83398151915297959391858c9d989694106116de575b505050811b019055611655565b01515f1960f88460031b161c191690558b80806116d1565b8385015186559487019493840193016116a8565b84634e487b7160e01b5f5260416004525ffd5b85634e487b7160e01b5f5260116004525ffd5b60405161173c8161413a565b5f815261174a331515614dc5565b60405161175681614155565b8481528b8101908c36833751156118ff5760ca90526117736157e0565b5060ca5f525f8b5260405f20335f528b5260405f208054908582018092116118ec575560405160ca8152848c8201525f33915f8051602061591b83398151915260403392a4333b6117f8575b50604051829182335f805160206159fb8339815191525f80a35f82528b8201525f80516020615adb83398151915260403392a389611576565b9461183f8b829c9b9a999897604051809381925f63f23a6e6160e01b9788855233600486015284015260ca604484015289606484015260a0608484015260a4830190614271565b03815f335af15f91816118cd575b506118b2578b8b61185c615703565b6308c379a01461187f5760405162461bcd60e51b8152806107b96004820161578b565b61188761571e565b8061189257506107a0565b6107b99060405193849362461bcd60e51b85526004850152830190614271565b63ffffffff60e09c9798999a9b9c1b160361080557816117bf565b6118e59192508c8d3d1061084657610837818361418b565b908d61184d565b87634e487b7160e01b5f5260116004525ffd5b86634e487b7160e01b5f5260326004525ffd5b60405162461bcd60e51b815260206004820152601381840152724d697373696e6720706c65646765206461746560681b6044820152606490fd5b60405162461bcd60e51b815260206004820152600f818401526e125b9d985b1a59081cdd5c1c1bdc9d608a1b6044820152606490fd5b346104a85760203660031901126104a8576001600160a01b036119a361405e565b165f526015602052602060ff60405f205416604051908152f35b346104a85760203660031901126104a85761ffff6119d96140aa565b165f52601a60205261127a6119f060405f206141ae565b604051918291602083526020830190614271565b346104a85760603660031901126104a857611a1d61405e565b611a2561404f565b6044359160ff83168093036104a85760207fa0aa2b85df88566521daa2ac1eb0694994372f9f1e64a41307f9d06a571f921291611a60614a8d565b60018060a01b031692835f5260148252611a7d8160405f20614461565b6015825260405f208560ff198254161790556040519015158152a3005b346104a85760403660031901126104a857611ab361405e565b611abb61408a565b90611acd611ac883614c46565b614790565b60018060a01b03165f52601360205260ff60405f2091165f52602052602060ff60405f2054166040519015158152f35b346104a85760403660031901126104a857611b1661405e565b611b1e61404f565b6001600160a01b0390911690338214611b8057335f52600160205260405f20825f52602052611b508160405f20614461565b60405190151581527f17307eab39ab6107e8899845ad3d59bd9653f200f220920489ca2b5937696c3160203392a3005b60405162461bcd60e51b815260206004820152602960248201527f455243313135353a2073657474696e6720617070726f76616c20737461747573604482015268103337b91039b2b63360b91b6064820152608490fd5b346104a8576020806003193601126104a8576001600160401b036004358181116104a857611c0c611c1b913690600401614296565b611c14614a8d565b3691614361565b91825191821161099d57611c306002546140cc565b601f8111611cca575b5080601f8311600114611c6a57508190611c5a935f92611c5f57505061489d565b600255005b015190508380610bbd565b90601f1983169360025f52825f20925f905b868210611cb25750508360019510611c9a575b505050811b01600255005b01515f1960f88460031b161c19169055828080611c8f565b80600185968294968601518155019501930190611c7c565b60025f52815f20601f840160051c810191838510611d04575b601f0160051c01905b818110611cf95750611c39565b5f8155600101611cec565b9091508190611ce3565b346104a85760203660031901126104a857600435611d2a614a8d565b8015611d66576040817f1e1223c1f6274c6d64fdb08c485e192bd2896c9abf70e840e199ac1f54d6d1d5926008558151908152426020820152a1005b60405162461bcd60e51b815260206004820152600b60248201526a24b73b30b634b2102720ab60a91b6044820152606490fd5b346104a85760203660031901126104a8576001600160a01b03611dba61405e565b165f52601460205260ff60405f20541680611ddd575b6020906040519015158152f35b5060156020526020600260ff60405f20541610159050611dd0565b346104a85760403660031901126104a857611e1161405e565b611e1961408a565b9060018060a01b03165f52601f60205260ff60405f2091165f52602052602060405f2054604051908152f35b346104a8575f3660031901126104a857602060405160048152f35b346104a8575f3660031901126104a8576003546040516001600160a01b039091168152602090f35b346104a85760203660031901126104a8577f181f92f68826a8d2b5b97d27f9e18d05a337290356fabf5b717154077dbea9336040600435611ec7614a8d565b80600c5542600a558151908152426020820152a1005b346104a85760803660031901126104a8576040611ef86140aa565b611f006140bb565b5f90604435606435611f13828633614ffc565b9461ffff918285169485151580611f86575b611f68575b508751938452602084015216907f031b66f6d8a6a3252233defe3a4204c77215f4ddd23783ce33b9b3d9a86b6ac6863392a482519182526020820152f35b81611f7f929750611f7842614ae5565b91336151b4565b9488611f2a565b50811515611f25565b346104a85760203660031901126104a85761ffff611fab6140aa565b165f52601d60205261127a6119f060405f206141ae565b346104a85760203660031901126104a8576004355f526012602052602060ff60405f205416604051908152f35b346104a8575f3660031901126104a8576020600454604051908152f35b346104a8575f3660031901126104a857602060405160018152f35b346104a85760403660031901126104a85761204061405e565b6120486140bb565b9060018060a01b03165f52601960205261ffff60405f2091165f52602052602060405f2054604051908152f35b346104a85760403660031901126104a85761208e61409a565b612096614074565b6120a76120a283614fa7565b614a2d565b6001600160a01b0381169081156121db578133036121a557815f526020926011845260ff60405f20911690815f52845260ff60405f205416612169576004549260018401808511610dc457600455805f526011855260405f20825f52855260405f2060ff1990600182825416179055845f52601286528260405f20918254161790558160640180606411610dc457849361215091604051916121488361413a565b5f8352614e1b565b5f80516020615afb8339815191525f80a4604051908152f35b60405162461bcd60e51b815260048101859052601460248201527310985919d948185b1c9958591e481b5a5b9d195960621b6044820152606490fd5b60405162461bcd60e51b815260206004820152600e60248201526d13db9b1e481cd95b19881b5a5b9d60921b6044820152606490fd5b60405162461bcd60e51b8152602060048201526011602482015270125b9d985b1a59081c9958da5c1a595b9d607a1b6044820152606490fd5b346104a8575f3660031901126104a85761222c614a8d565b600380546001600160a01b031981169091555f906001600160a01b03165f80516020615a3b8339815191528280a3005b346104a8575f3660031901126104a8576010546040516001600160a01b039091168152602090f35b346104a8575f3660031901126104a857602060405160078152f35b346104a85760403660031901126104a8576122b861405e565b6122c061408a565b906122cd6120a283614fa7565b60018060a01b03165f52601160205260ff60405f2091165f52602052602060ff60405f2054166040519015158152f35b346104a85760603660031901126104a85760043560243560443590335f5260206017815260405f206201518042046018835260405f20805460ff81161561242d575b5050600582018181540361241f575b50506006810180549160038310156123de57806004915488136123ca575b4260038201550180549060018201809211610dc4575560018201809211610dc4575560405193845283015260408201524260608201527ff6d69723c1e13a6e751ff8839d394f04ffffc588fdd13a7cfd1fdfc1bf87ebe160803392a2005b87815585600182015586600282015561236c565b60405162461bcd60e51b815260048101859052601960248201527811185a5b1e481cd8dbdc99481b1a5b5a5d081c995858da1959603a1b6044820152606490fd5b555f6006820155858061234e565b60ff191660011790558254600160401b81101561099d5780600161245392018555614a15565b81546001600160a01b0360039290921b91821b19163390911b179055868061233f565b346104a85761ffff61248736614408565b91612493939193614a8d565b16916124a0831515614810565b825f52602090601b825260405f2060018060401b03841161099d576124c9846108ca83546140cc565b5f601f85116001146124fc57916109189161090486805f805160206159bb8339815191529897965f9161091d575061489d565b601f19851690825f52845f20915f5b8181106125405750916109189391875f805160206159bb833981519152989796941061096d575050600185811b019055610907565b91928660018192868901358155019401920161250b565b346104a857600319602036820181136104a8576001600160401b0390600435908282116104a857366023830112156104a85781600401359283116104a8576024820191602436918560051b0101116104a8576125b283614980565b5f5b84811061275a57506125c73685856142da565b92604051946125d58661413a565b5f86526125e3331515614dc5565b6125f08551845114614c72565b5f5b85518110156126395780612608600192866149b2565b5161261382896149b2565b515f525f875260405f20335f52875261263160405f209182546148af565b9055016125f2565b5084868594896040515f33915f805160206158db833981519152339180612661888b83614d88565b0390a4333b6126a4575b505050509091505f5b81811061267d57005b8061268b6001928486614a05565b35335f805160206159db8339815191525f80a301612674565b86916127006126f19260405195869485946126e163bc197c8160e01b9a8b88523360048901525f602489015260a0604489015260a48801906143b2565b90848783030160648801526143b2565b91848303016084850152614271565b03815f335af15f918161273b575b5061271c5784610795615703565b92935090916001600160e01b031916036108055781908380808061266b565b612753919250863d881161084657610837818361418b565b908661270e565b8061278661150d61276e6001948989614a05565b3561278061277b82614dad565b61493e565b33614509565b8161279182856149b2565b52016125b4565b346104a85760403660031901126104a857602061110b6127b66140aa565b61144b42614ae5565b346104a85760403660031901126104a8576127d861405e565b6127e06140bb565b9060018060a01b03165f52602160205261ffff60405f2091165f5260205260405f20805461127a60018301549261281e6003600283015492016141ae565b90604051948594856143e5565b346104a85760203660031901126104a85761ffff6128476140aa565b165f52601c60205261127a6119f060405f206141ae565b346104a8575f3660031901126104a857602060405160088152f35b346104a8576020806003193601126104a8576001600160401b036004358181116104a8576128ab903690600401614296565b90916128b5614a8d565b811161099d576128c6600d546140cc565b601f811161299c575b505f92601f821160011461292e576128fd82805f80516020615abb833981519152965f91612923575061489d565b600d555b612918604051938493604085526040850191614770565b9042908301520390a1005b9050850135876108fe565b601f19821693600d5f52815f20905f5b8681106129855750835f80516020615abb833981519152961061296c575b5050600182811b01600d55612901565b8401355f19600385901b60f8161c19169055848061295c565b90918360018192858901358155019301910161293e565b600d5f52835f20601f830160051c8101918584106129d6575b601f0160051c01905b8181106129cb57506128cf565b5f81556001016129be565b90915081906129b5565b346104a8576020806003193601126104a8576129fa61405e565b6001600160a01b038116908115612bdd57813303612ba757815f526011835260405f20600190815f52845260ff60405f2054166121695760045492818401808511610dc457600455805f526011855260405f20825f52855260405f2060ff19908382825416179055845f52601286528260405f2091825416179055604051612a818161413a565b5f8152604051612a9081614155565b838152868101908736833751156110915760659052612aad6157e0565b5060655f525f865260405f20825f52865260405f20938454848101809111610dc457869555825f60405160658152868a8201525f8051602061591b83398151915260403392a43b612b13575b505f80516020615afb8339815191525f80a4604051908152f35b909250604051858180612b5563f23a6e6160e01b958683523360048401525f60248401526065604484015287606484015260a0608484015260a4830190614271565b03815f885af15f9181612b88575b50612b715785610795615703565b6001600160e01b0319160361080557829185612af9565b612ba0919250873d891161084657610837818361418b565b9087612b63565b60405162461bcd60e51b815260048101849052600e60248201526d13db9b1e481cd95b19881b5a5b9d60921b6044820152606490fd5b60405162461bcd60e51b8152600481018490526011602482015270125b9d985b1a59081c9958da5c1a595b9d607a1b6044820152606490fd5b346104a85760603660031901126104a857612c2f61409a565b602435604435612c41611ac884614c46565b612c5061150d61278085614c61565b612c5b8115156149c6565b60ff831692600184148015612d65575b612d21575b335f52612cc66020916013835260405f20865f52835260405f20600160ff19825416179055335f52601f835260405f20865f5283528460405f2055335f52601e835260405f20865f5283528360405f2055614c61565b612cd08133614509565b15612cd757005b604051612cf091612ce78261413a565b5f825233614e1b565b6040519284335f805160206159fb8339815191525f80a383528201525f80516020615adb83398151915260403392a3005b5f8313612c705760405162461bcd60e51b8152602060048201526015602482015274141bdcda5d1a5d9948141b93081c995c5d5a5c9959605a1b6044820152606490fd5b5060038414612c6b565b346104a85760403660031901126104a8576004356001600160401b038082116104a857366023830112156104a857816004013590612dac826142c3565b92612dba604051948561418b565b82845260209260248486019160051b830101913683116104a857602401905b828210612ec4575050506024359081116104a857612dfb903690600401614328565b8251815103612e6d57612e0e8351614980565b925f5b8151811015612e5657600190612e456001600160a01b03612e3283866149b2565b5116612e3e83876149b2565b5190614509565b612e4f82886149b2565b5201612e11565b50505061127a6040519282849384528301906143b2565b60405162461bcd60e51b815260048101839052602960248201527f455243313135353a206163636f756e747320616e6420696473206c656e677468604482015268040dad2e6dac2e8c6d60bb1b6064820152608490fd5b81356001600160a01b03811681036104a8578152908401908401612dd9565b346104a85760203660031901126104a8576001600160a01b03612f0461405e565b165f526014602052602060ff60405f2054166040519015158152f35b346104a8575f3660031901126104a8576020600a54604051908152f35b346104a85760203660031901126104a8576004355f526016602052602060ff60405f2054166040519015158152f35b346104a8575f3660031901126104a8576020600954604051908152f35b346104a85760203660031901126104a8576001600160a01b03612faa61405e565b165f52601160205260405f2060015f52602052602060ff60405f2054166040519015158152f35b346104a85760203660031901126104a857600435612ff161277b82614dad565b612ffe61150d8233614509565b61301760405161300d8161413a565b5f81528233614e1b565b335f805160206159db8339815191525f80a3005b346104a85760203660031901126104a8576004355f52602560205261ffff60405f2061127a8154916130646002600183015492016141ae565b9060405194859460018060a01b038116865260a01c1660208501526040840152608060608401526080830190614271565b346104a8575f3660031901126104a857602060405160098152f35b346104a8575f3660031901126104a857604051600e545f826130d1836140cc565b91828252602093600190856001821691825f14613150575050600114613113575b506130ff9250038361418b565b61127a604051928284938452830190614271565b849150600e5f52815f20905f915b8583106131385750506130ff9350820101856130f2565b80548389018501528794508693909201918101613121565b60ff1916858201526130ff95151560051b85010192508791506130f29050565b346104a8575f3660031901126104a85760208054604051908152f35b346104a85760031960a0368201126104a8576131a661405e565b906131af614074565b906001600160401b03906044358281116104a8576131d1903690600401614328565b6064358381116104a8576131e9903690600401614328565b926084359081116104a857613202903690600401614397565b6001600160a01b039586169590929033871480156133db575b613224906148db565b6132318351865114614c72565b85169261323f841515614ccf565b5f5b83518110156132c35780613257600192866149b2565b5161326282896149b2565b5190805f526020905f825260405f208c5f5282528260405f205461328882821015614d29565b825f525f84528d60405f20905f5284520360405f20555f525f815260405f2090885f52526132bb60405f209182546148af565b905501613241565b5090949392919382876040515f805160206158db8339815191523391806132eb8a8c83614d88565b0390a43b6132f557005b5f6020946133366126f1976126e194604051998a988997889663bc197c8160e01b9e8f89523360048a0152602489015260a0604489015260a48801906143b2565b03925af15f91816133ba575b506133a95761334f615703565b6308c379a0146133725760405162461bcd60e51b8152806107b96004820161578b565b61337a61571e565b8061338557506107a0565b60405162461bcd60e51b8152602060048201529081906107b9906024830190614271565b6001600160e01b0319160361080557005b6133d491925060203d60201161084657610837818361418b565b9083613342565b50865f52600160205260405f20335f5260205261322460ff60405f205416905061321b565b346104a8575f3660031901126104a8576020600c54604051908152f35b346104a85760203660031901126104a857602061110b61343b6140aa565b6148bc565b346104a85760403660031901126104a8576001600160a01b0361346161405e565b165f52602360205260405f206024355f52602052602060405f2054604051908152f35b346104a8575f3660031901126104a8576020600754604051908152f35b346104a85760403660031901126104a8576134ba61405e565b6134c261408a565b9060018060a01b03165f52601e60205260ff60405f2091165f52602052602060405f2054604051908152f35b346104a8575f3660031901126104a85760206040516127108152f35b346104a8575f3660031901126104a8576020600854604051908152f35b346104a8575f3660031901126104a857602060405160058152f35b346104a85760603660031901126104a85761355b6140aa565b6001600160401b03906024358281116104a85761357c903690600401614296565b6044358481116104a85761359761ffff913690600401614296565b9190946135a2614a8d565b16936135af851515614810565b845f52602095601c875260405f2081851161099d576135d2856108ca83546140cc565b5f85601f81116001146136fa57806135f0925f916136ef575061489d565b90555b855f52601d875260405f2090831161099d57613613836108ca83546140cc565b5f601f84116001146136795791839161364783610918965f8051602061595b8339815191529a9b965f9161366e575061489d565b90555b613661604051968796604088526040880191614770565b9285840390860152614770565b90508401358c6108fe565b601f19841690825f52885f20915f5b8181106136d8575091859391610918965f8051602061595b8339815191529a9b9694106136bf575b5050600183811b01905561364a565b8301355f19600386901b60f8161c1916905589806136b0565b91928a600181928689013581550194019201613688565b90508801358b6108fe565b50601f19861690825f52868a5f20925f5b8c8282106137435750501061372a575b5050600185811b0190556135f3565b8701355f19600388901b60f8161c19169055888061371b565b8b8501358655600190950194938401938a93500161370b565b346104a8576020806003193601126104a85761377661409a565b90613783611ac883614c46565b61379261150d61278084614c61565b335f52601381526137eb60405f209260ff811693845f52835260405f20600160ff19825416179055335f52601f835260405f20845f5283525f6040812055335f52601e835260405f20845f5283525f6040812055614c61565b6137f58133614509565b156137fc57005b60405161380c91612ce78261413a565b5f6040519183335f805160206159fb8339815191528480a38183528201525f80516020615adb83398151915260403392a3005b346104a85760603660031901126104a85760043561385b61404f565b6044356001600160401b0381116104a8577f5cd61427930ab89a7ffdd8646dd284f02d4ec213a21d6dcaab300350e80066119161389f610918923690600401614296565b92906138a9614a8d565b855f5260166020526138be8360405f20614461565b60405193849315158452604060208501526040840191614770565b346104a8575f3660031901126104a857604051600d545f826138fa836140cc565b91828252602093600190856001821691825f1461315057505060011461392757506130ff9250038361418b565b849150600d5f52815f20905f915b85831061394c5750506130ff9350820101856130f2565b80548389018501528794508693909201918101613935565b346104a8575f3660031901126104a857604051600f545f82613985836140cc565b91828252602093600190856001821691825f146131505750506001146139b257506130ff9250038361418b565b849150600f5f52815f20905f915b8583106139d75750506130ff9350820101856130f2565b805483890185015287945086939092019181016139c0565b346104a8576020806003193601126104a857600435613a0d42614ae5565b60ff600b5416613e51576009548210613e1c57613a2b821515614fc2565b604051613a378161413a565b5f8152613a45331515614dc5565b60405191613a5283614155565b60019182845285840193863686375115611091576103e9809452613a7585615807565b50835f525f865260405f20335f52865260405f20613a948682546148af565b905560405184815285878201525f33915f8051602061591b83398151915260403392a4333b613d8e575b50335f526019855260405f20825f52855260405f20613ade8582546148af565b9055613ae861582c565b926003604051613af781614104565b868152878101878152604082019042825260608301978852335f5260218a5260405f20875f528a5260405f2092518355518683015551600282015501935193845160018060401b039586821161099d57613b5b82613b5585546140cc565b8561484e565b8890601f8311600114613d3057613b7b92915f9183613cc757505061489d565b90555b6006549383850190818611610dc45785916006556003604051613ba08161411f565b338152888a613bf261ffff8285018b81526024604087019486865260608801968752608088019a8d8c525f525260405f209560018060a01b0390511660018060a01b0319875416178655511684614a6e565b5188830155516002820155019151805191821161099d57613c1782613b5585546140cc565b8890601f8311600114613cd257613c3792915f9183613cc757505061489d565b90555b613c53604051613c498161413a565b5f81528533614e1b565b60405185815285878201525f80516020615a9b83398151915260403392a282613c7a61582c565b5f80516020615a5b83398151915260405180613c9a3394428c80856143e5565b0390a45f8051602061593b8339815191526040518581526040878201528061168c33946040830190614271565b015190508a80610bbd565b869291601f19831691855f528b5f20925f5b8d828210613d1a5750508411613d02575b505050811b019055613c3a565b01515f1960f88460031b161c19169055898080613cf5565b8385015186558b97909501949384019301613ce4565b869291601f19831691855f528b5f20925f5b8d828210613d785750508411613d60575b505050811b019055613b7e565b01515f1960f88460031b161c19169055898080613d53565b8385015186558b97909501949384019301613d42565b604051868180613dcc63f23a6e6160e01b958683523360048401525f60248401528960448401528a606484015260a0608484015260a4830190614271565b03815f335af15f9181613dfd575b50613de85786610795615703565b6001600160e01b031916036108055785613abe565b613e15919250883d8a1161084657610837818361418b565b9088613dda565b60405162461bcd60e51b815260048101849052600d60248201526c42656c6f77206d696e696d756d60981b6044820152606490fd5b60405162461bcd60e51b815260048101849052601460248201527314dd589cd8dc9a5c1d1a5bdb9cc81c185d5cd95960621b6044820152606490fd5b346104a85760203660031901126104a85761127a6119f0600435614531565b346104a85760203660031901126104a85761ffff613ec86140aa565b165f52601b60205261127a6119f060405f206141ae565b346104a85760203660031901126104a857612710600435818102918115918304141715610dc457600854908115613f1c5760209160405191048152f35b634e487b7160e01b5f52601260045260245ffd5b346104a85760203660031901126104a85760043563ffffffff60e01b81168091036104a857602090636cdb3d1360e11b8114908115613f8d575b8115613f7c575b506040519015158152f35b6301ffc9a760e01b14905082613f71565b6303a24d0760e21b81149150613f6a565b346104a85760403660031901126104a857613fb761405e565b613fbf61408a565b9060018060a01b03165f52601160205260ff60405f2091165f52602052602060ff60405f2054166040519015158152f35b346104a85760403660031901126104a857602061110b61400e61405e565b60243590614509565b346104a85760203660031901126104a8576004358015158091036104a85761403d614a8d565b60ff8019600b5416911617600b555f80f35b6024359081151582036104a857565b600435906001600160a01b03821682036104a857565b602435906001600160a01b03821682036104a857565b6024359060ff821682036104a857565b6004359060ff821682036104a857565b6004359061ffff821682036104a857565b6024359061ffff821682036104a857565b90600182811c921680156140fa575b60208310146140e657565b634e487b7160e01b5f52602260045260245ffd5b91607f16916140db565b608081019081106001600160401b0382111761099d57604052565b60a081019081106001600160401b0382111761099d57604052565b602081019081106001600160401b0382111761099d57604052565b604081019081106001600160401b0382111761099d57604052565b606081019081106001600160401b0382111761099d57604052565b601f909101601f19168101906001600160401b0382119082101761099d57604052565b9060405191825f82546141c0816140cc565b908184526020946001916001811690815f1461422e57506001146141f0575b5050506141ee9250038361418b565b565b5f90815285812095935091905b8183106142165750506141ee93508201015f80806141df565b855488840185015294850194879450918301916141fd565b925050506141ee94925060ff191682840152151560051b8201015f80806141df565b5f5b8381106142615750505f910152565b8181015183820152602001614252565b9060209161428a81518092818552858086019101614250565b601f01601f1916010190565b9181601f840112156104a8578235916001600160401b0383116104a857602083818601950101116104a857565b6001600160401b03811161099d5760051b60200190565b92916142e5826142c3565b916142f3604051938461418b565b829481845260208094019160051b81019283116104a857905b8282106143195750505050565b8135815290830190830161430c565b9080601f830112156104a857816020614343933591016142da565b90565b6001600160401b03811161099d57601f01601f191660200190565b92919261436d82614346565b9161437b604051938461418b565b8294818452818301116104a8578281602093845f960137010152565b9080601f830112156104a85781602061434393359101614361565b9081518082526020808093019301915f5b8281106143d1575050505090565b8351855293810193928101926001016143c3565b909260809261434395948352602083015260408201528160608201520190614271565b9060406003198301126104a85760043561ffff811681036104a85791602435906001600160401b0382116104a85761444291600401614296565b9091565b346104a8575f3660031901126104a857602060405160028152f35b9060ff801983541691151516179055565b6001600160a01b031680156144b1575f9081527f8768e3ed19a5d00be410e8d8ad51c65c3aa78049339b9ad4303f61914e359db3602052604090205490565b60405162461bcd60e51b815260206004820152602a60248201527f455243313135353a2061646472657373207a65726f206973206e6f742061207660448201526930b634b21037bbb732b960b11b6064820152608490fd5b6001600160a01b03169081156144b1575f525f60205260405f20905f5260205260405f205490565b6010546001600160a01b031690816146c7575b61454e9150614ae5565b61434361012060405180937a19185d184e985c1c1b1a58d85d1a5bdb8bda9cdbdb8edd5d198e0b602a1b60208301527f7b226e616d65223a225269736b4c656e732044656d6f20436f6c6c6563746962603b8301527f6c65222c226465736372697074696f6e223a225269736b4c656e73205365706f605b8301527f6c696120636f6c6c65637469626c652e20436f6e66696775726520746865206d607b8301527f657461646174612072656e646572657220666f722066756c6c20636f76657220609b8301527f6172742e222c2261747472696275746573223a5b7b2274726169745f7479706560bb8301527f223a224e6574776f726b222c2276616c7565223a225365706f6c6961227d2c7b60db8301527f2274726169745f74797065223a22546f6b656e204944222c2276616c7565223a60fb830152601160f91b61011b83015261011c906146a98151809260208587019101614250565b82019063227d5d7d60e01b908201520361010081018452018261418b565b5f602492604051938480926303a24d0760e21b82528560048301525afa5f92816146f6575b5015614544575090565b9092503d805f833e614708818361418b565b8101906020818303126104a8578051906001600160401b0382116104a8570181601f820112156104a857805161473d81614346565b9261474b604051948561418b565b818452602082840101116104a8576147699160208085019101614250565b915f6146ec565b908060209392818452848401375f828201840152601f01601f1916010190565b1561479757565b60405162461bcd60e51b8152602060048201526013602482015272496e76616c6964207765616c7468207461736b60681b6044820152606490fd5b156147d957565b60405162461bcd60e51b815260206004820152600f60248201526e105b1c9958591e4818db185a5b5959608a1b6044820152606490fd5b1561481757565b60405162461bcd60e51b815260206004820152600f60248201526e125b9d985b1a59081c1c9bd91d58dd608a1b6044820152606490fd5b601f821161485b57505050565b5f5260205f20906020601f840160051c83019310614893575b601f0160051c01905b818110614888575050565b5f815560010161487d565b9091508190614874565b8160011b915f199060031b1c19161790565b91908201809211610dc457565b61ffff166148cb811515614810565b6103e8908101809111610dc45790565b156148e257565b60405162461bcd60e51b815260206004820152602e60248201527f455243313135353a2063616c6c6572206973206e6f7420746f6b656e206f776e60448201526d195c881bdc88185c1c1c9bdd995960921b6064820152608490fd5b1561494557565b60405162461bcd60e51b8152602060048201526013602482015272125b9d985b1a59081858da1a595d995b595b9d606a1b6044820152606490fd5b9061498a826142c3565b614997604051918261418b565b82815280926149a8601f19916142c3565b0190602036910137565b80518210156110915760209160051b010190565b156149cd57565b60405162461bcd60e51b815260206004820152601060248201526f4d697373696e672065766964656e636560801b6044820152606490fd5b91908110156110915760051b0190565b6020548110156110915760205f5260205f2001905f90565b15614a3457565b60405162461bcd60e51b8152602060048201526012602482015271496e76616c696420686f6d6520626164676560701b6044820152606490fd5b805461ffff60a01b191660a09290921b61ffff60a01b16919091179055565b6003546001600160a01b03163303614aa157565b606460405162461bcd60e51b815260206004820152602060248201527f4f776e61626c653a2063616c6c6572206973206e6f7420746865206f776e65726044820152fd5b5f908072184f03e93ff9f4daa797ed6e38ed64bf6a1f0160401b80821015614c38575b506904ee2d6d415b85acef8160201b80831015614c29575b50662386f26fc1000080831015614c1a575b506305f5e10080831015614c0b575b5061271080831015614bfc575b506064821015614bec575b600a80921015614be2575b6001908160216001860195614b7887614346565b96614b86604051988961418b565b808852614b95601f1991614346565b01366020890137860101905b614bad575b5050505090565b5f19019083906f181899199a1a9b1b9c1cb0b131b232b360811b8282061a835304918215614bdd57919082614ba1565b614ba6565b9160010191614b64565b9190606460029104910191614b59565b6004919392049101915f614b4e565b6008919392049101915f614b41565b6010919392049101915f614b32565b6020919392049101915f614b20565b60409350810491505f614b08565b60ff1660018110159081614c58575090565b60039150111590565b60ff1660c8018060c811610dc45790565b15614c7957565b60405162461bcd60e51b815260206004820152602860248201527f455243313135353a2069647320616e6420616d6f756e7473206c656e677468206044820152670dad2e6dac2e8c6d60c31b6064820152608490fd5b15614cd657565b60405162461bcd60e51b815260206004820152602560248201527f455243313135353a207472616e7366657220746f20746865207a65726f206164604482015264647265737360d81b6064820152608490fd5b15614d3057565b60405162461bcd60e51b815260206004820152602a60248201527f455243313135353a20696e73756666696369656e742062616c616e636520666f60448201526939103a3930b739b332b960b11b6064820152608490fd5b9091614d9f614343936040845260408401906143b2565b9160208184039101526143b2565b60068110159081614dbc575090565b600a9150111590565b15614dcc57565b60405162461bcd60e51b815260206004820152602160248201527f455243313135353a206d696e7420746f20746865207a65726f206164647265736044820152607360f81b6064820152608490fd5b91906001600160a01b038316614e32811515614dc5565b614e3b82615807565b50614e446157e0565b50815f526020925f8452604094855f20835f528552855f2080549060018201809211610dc45755825f87518681526001888201525f8051602061591b833981519152893392a43b614e97575b5050505050565b92614ede5f9286979583975194858094819363f23a6e6160e01b998a845233600485015284602485015260448401526001606484015260a0608484015260a4830190614271565b03925af15f9181614f88575b50614f5157505050614efa615703565b6308c379a014614f1d575b505162461bcd60e51b8152806107b96004820161578b565b614f2561571e565b9081614f315750614f05565b6107b9835192839262461bcd60e51b845260048401526024830190614271565b919392506001600160e01b031990911603614f7157505f80808080614e90565b5162461bcd60e51b8152806107b9600482016156ba565b614fa0919250853d871161084657610837818361418b565b905f614eea565b60ff1660018110159081614fb9575090565b60059150111590565b15614fc957565b60405162461bcd60e51b815260206004820152600b60248201526a5a65726f2073686172657360a81b6044820152606490fd5b90929161ffff841690615010821515614810565b61501b811515614fc2565b61502581956148bc565b926001600160a01b03169081156151765761503f84615807565b5061504981615807565b5060405f81516150588161413a565b52845f5260205f8152815f20845f528152815f205483811061513a578390875f525f8352835f20865f52835203825f20555f84835188815285848201525f8051602061591b833981519152853392a45f82516150b38161413a565b525f848152601982528281208682528252829020549283811061511c575f80516020615a7b83398151915293505f5b855f5260198352835f20875f528352835f2055845f80516020615b1b8339815191528480518481528486820152a2825191818352820152a4565b808403938411610dc4575f80516020615a7b833981519152936150e2565b50608491519062461bcd60e51b825260048201526024808201525f80516020615a1b833981519152604482015263616e636560e01b6064820152fd5b60405162461bcd60e51b815260206004820152602360248201525f8051602061597b83398151915260448201526265737360e81b6064820152608490fd5b9091939260ff600b541661565e5761ffff926151d38482161515614810565b600954861061562957856151e8811515614fc2565b6151f1826148bc565b94604051906151ff8261413a565b5f82526001600160a01b03916152188784161515614dc5565b61522188615807565b5061522b84615807565b50875f525f60205260405f208388165f5260205260405f2061524e8582546148af565b90556040518881528460208201525f848916915f8051602061591b83398151915260403392a4863b615597575b508186165f52601960205260405f208185165f5260205260405f206152a18482546148af565b90556152ac846158c3565b9660036040516152bb81614104565b858152602081018681526040820190428252606083019b8c52868b165f52602160205260405f20868a165f5260205260405f209251835551600183015551600282015501975197885160018060401b03998a821161099d5761532182613b5585546140cc565b602090601f83116001146155335761534292915f9183610cba57505061489d565b90555b6006549760018901808a11610dc457600655604051906153648261411f565b8489168252878a60208401868a1681526153b48760408701928b845260608801948c8652608089019687525f5260246020528a60405f2098511660018060a01b0319895416178855511686614a6e565b51600185015551600284015551805191821161099d576153e4826153db60038601546140cc565b6003860161484e565b602090601f83116001146154b15761541f835f8051602061593b8339815191529a999896946154ac9896946003945f92610cba57505061489d565b9101555b61543c6040516154328161413a565b5f81528b8b614e1b565b6040518581528560208201525f80516020615a9b8339815191526040858c1692a288615467876158c3565b5f80516020615a5b8339815191526040518061548c88888d16961694428c80856143e5565b0390a4604051948594855260406020860152169616946040830190614271565b0390a4565b90600384015f5260205f20915f5b601f198516811061551b5750836154ac9795936003936001935f8051602061593b8339815191529d9c9b9997601f19811610615504575b505050811b01910155615423565b01515f1983861b60f8161c191690555f80806154f6565b919260206001819286850151815501940192016154bf565b90601f19831691845f5260205f20925f5b81811061557f5750908460019594939210615567575b505050811b019055615345565b01515f1960f88460031b161c191690555f808061555a565b92936020600181928786015181550195019301615544565b604051602081806155d663f23a6e6160e01b958683523360048401525f60248401528d604484015289606484015260a0608484015260a4830190614271565b03815f888d165af15f9181615608575b506155f35761334f615703565b6001600160e01b03191603610805575f61527b565b61562291925060203d60201161084657610837818361418b565b905f6155e6565b60405162461bcd60e51b815260206004820152600d60248201526c42656c6f77206d696e696d756d60981b6044820152606490fd5b60405162461bcd60e51b815260206004820152601460248201527314dd589cd8dc9a5c1d1a5bdb9cc81c185d5cd95960621b6044820152606490fd5b908160209103126104a857516001600160e01b0319811681036104a85790565b60809060208152602860208201527f455243313135353a204552433131353552656365697665722072656a656374656040820152676420746f6b656e7360c01b60608201520190565b5f9060033d1161570f57565b905060045f803e5f5160e01c90565b5f60443d1061434357604051600319913d83016004833e81516001600160401b03918282113d60248401111761577a57818401948551938411615782573d8501016020848701011161577a57506143439291016020019061418b565b949350505050565b50949350505050565b60809060208152603460208201527f455243313135353a207472616e7366657220746f206e6f6e2d455243313135356040820152732932b1b2b4bb32b91034b6b83632b6b2b73a32b960611b60608201520190565b6040516157ec81614155565b60018152602081016020368237815115611091576001905290565b6040519061581482614155565b60018252602082016020368237825115611091575290565b60015f52601b60205261585e7f9fafca4c9c0d5c2cbf85f49fd8ab8212430ce78c2a0cb75b51e0f9c4f9ace0036141ae565b8051614343575060405161587181614170565b603c81527f536574746c656d656e74207465726d73207265636f7264656420696e2074686560208201527b205269736b4c656e73205765616c74682064657461696c207061676560201b604082015290565b61ffff165f52601b60205261585e60405f206141ae56fe4a39dc06d4c0dbc64b70af90fd698a233a518aa5d07e595d983b8c0526c8f7fb866aab14c7f7439fa866f885f22e8a9fce19f006d3956137b07f4284346bac9cc3d58168c5ae7397731d063d5bbf3d657854427343f4c083240f7aacaa2d0f62d054490758ccb582307891c51bcbd8e7626fa40eaea4b9f7374c916dca2be628309eb5725bc0fcc8192e7491a4adaaf2ebbfb008e6f1062f264953c0976e27b7455243313135353a206275726e2066726f6d20746865207a65726f2061646472ee734f4dc9367a19993b3dd18a799f252c2874ef9d7388163aa9c16cb0011100b16cf5b05c6e7e92f2299a1d0894bbf220a63a7b1ccc786436c3d89d18df7bbe04844d30b922ffc2b845400eb2a15cdd62742176c723e09d7cc9703e83645e4bbd1ae2c6d13c1a8dc9dbe03823192cb9ab92b45e5b9264dd65b2794c526e6f9f455243313135353a206275726e20616d6f756e7420657863656564732062616c8be0079c531659141344cd1fd0a4f28419497f9722a3daafe3b4186f6b6457e09ec85e292a34c98a43e8ffe45de1c625bdfe7e8efc23f4a9da12895a70b358157c7917c3334372c8a1ab0009b4314b5fa722b2ae8bb2603b7195279aeb45a37af94991dcbea6e8ac439cbc93bd9c62a4d39f04e0ad656df9a703f13552c2787f09fb0a9f79f07cf16c95b92623175f408d609663d7868ae62581439d923470bdcfdb31fa548aa2c58dcf9c124e888cfd6afefe9fe228a5cc829205ab69b69e0c4c7380f1d23a71f74fa1303f23b7100826e4a89a4e47b2985e5c708e47a19b3af3a670cd3af7d64b488926880889d08a8585a138ff455227af6737339a1ec262683c55aed4ead4746321e8659fb2c565dd8e202a7a594f73a71e3f57607e1bd0a26469706673582212200fd2d39f95ca4ea50f8844653cd0faddfea7a309145c64809aa28f7667770a0564736f6c63430008180033",
  "linkReferences": {},
  "deployedLinkReferences": {},
  "immutableReferences": {},
  "inputSourceName": "project/contracts/MSXUnifiedDemoHub.sol",
  "buildInfoId": "solc-0_8_24-ea6a928c01a9c7975190e1e0565bdb7c6f742391"
}