{
  "_format": "hh3-artifact-1",
  "contractName": "MSXUnifiedDemoHub",
  "sourceName": "contracts/MSXUnifiedDemoHub.sol",
  "abi": [
    {
      "inputs": [
        {
          "internalType": "string",
          "name": "baseUri",
          "type": "string"
        }
      ],
      "stateMutability": "nonpayable",
      "type": "constructor"
    },
    {
      "anonymous": false,
      "inputs": [
        {
          "indexed": true,
          "internalType": "address",
          "name": "account",
          "type": "address"
        },
        {
          "indexed": true,
          "internalType": "uint256",
          "name": "achievementId",
          "type": "uint256"
        }
      ],
      "name": "AchievementClaimed",
      "type": "event"
    },
    {
      "anonymous": false,
      "inputs": [
        {
          "indexed": true,
          "internalType": "address",
          "name": "account",
          "type": "address"
        },
        {
          "indexed": true,
          "internalType": "address",
          "name": "operator",
          "type": "address"
        },
        {
          "indexed": false,
          "internalType": "bool",
          "name": "approved",
          "type": "bool"
        }
      ],
      "name": "ApprovalForAll",
      "type": "event"
    },
    {
      "anonymous": false,
      "inputs": [
        {
          "indexed": false,
          "internalType": "bytes32",
          "name": "attestationRoot",
          "type": "bytes32"
        },
        {
          "indexed": false,
          "internalType": "uint256",
          "name": "timestamp",
          "type": "uint256"
        }
      ],
      "name": "AttestationUpdated",
      "type": "event"
    },
    {
      "anonymous": false,
      "inputs": [
        {
          "indexed": true,
          "internalType": "address",
          "name": "investor",
          "type": "address"
        },
        {
          "indexed": false,
          "internalType": "bool",
          "name": "allowed",
          "type": "bool"
        },
        {
          "indexed": true,
          "internalType": "uint8",
          "name": "tier",
          "type": "uint8"
        }
      ],
      "name": "InvestorEligibilityUpdated",
      "type": "event"
    },
    {
      "anonymous": false,
      "inputs": [
        {
          "indexed": false,
          "internalType": "uint256",
          "name": "navBps",
          "type": "uint256"
        },
        {
          "indexed": false,
          "internalType": "uint256",
          "name": "timestamp",
          "type": "uint256"
        }
      ],
      "name": "NavUpdated",
      "type": "event"
    },
    {
      "anonymous": false,
      "inputs": [
        {
          "indexed": true,
          "internalType": "address",
          "name": "previousOwner",
          "type": "address"
        },
        {
          "indexed": true,
          "internalType": "address",
          "name": "newOwner",
          "type": "address"
        }
      ],
      "name": "OwnershipTransferred",
      "type": "event"
    },
    {
      "anonymous": false,
      "inputs": [
        {
          "indexed": true,
          "internalType": "uint16",
          "name": "productId",
          "type": "uint16"
        },
        {
          "indexed": false,
          "internalType": "string",
          "name": "detail",
          "type": "string"
        }
      ],
      "name": "ProductReceiptDetailUpdated",
      "type": "event"
    },
    {
      "anonymous": false,
      "inputs": [
        {
          "indexed": true,
          "internalType": "uint16",
          "name": "productId",
          "type": "uint16"
        },
        {
          "indexed": false,
          "internalType": "string",
          "name": "label",
          "type": "string"
        }
      ],
      "name": "ProductReceiptLabelUpdated",
      "type": "event"
    },
    {
      "anonymous": false,
      "inputs": [
        {
          "indexed": true,
          "internalType": "address",
          "name": "investor",
          "type": "address"
        },
        {
          "indexed": true,
          "internalType": "uint16",
          "name": "productId",
          "type": "uint16"
        },
        {
          "indexed": true,
          "internalType": "uint256",
          "name": "tokenId",
          "type": "uint256"
        },
        {
          "indexed": false,
          "internalType": "uint256",
          "name": "shareAmount",
          "type": "uint256"
        },
        {
          "indexed": false,
          "internalType": "uint256",
          "name": "assetAmount",
          "type": "uint256"
        }
      ],
      "name": "ProductReceiptRedeemed",
      "type": "event"
    },
    {
      "anonymous": false,
      "inputs": [
        {
          "indexed": true,
          "internalType": "address",
          "name": "investor",
          "type": "address"
        },
        {
          "indexed": true,
          "internalType": "uint16",
          "name": "fromProductId",
          "type": "uint16"
        },
        {
          "indexed": true,
          "internalType": "uint16",
          "name": "toProductId",
          "type": "uint16"
        },
        {
          "indexed": false,
          "internalType": "uint256",
          "name": "burnAmount",
          "type": "uint256"
        },
        {
          "indexed": false,
          "internalType": "uint256",
          "name": "mintAmount",
          "type": "uint256"
        }
      ],
      "name": "ProductReceiptSettled",
      "type": "event"
    },
    {
      "anonymous": false,
      "inputs": [
        {
          "indexed": true,
          "internalType": "address",
          "name": "investor",
          "type": "address"
        },
        {
          "indexed": true,
          "internalType": "uint16",
          "name": "productId",
          "type": "uint16"
        },
        {
          "indexed": true,
          "internalType": "uint256",
          "name": "tokenId",
          "type": "uint256"
        },
        {
          "indexed": false,
          "internalType": "uint256",
          "name": "assetAmount",
          "type": "uint256"
        },
        {
          "indexed": false,
          "internalType": "uint256",
          "name": "shareAmount",
          "type": "uint256"
        },
        {
          "indexed": false,
          "internalType": "uint256",
          "name": "purchasedAt",
          "type": "uint256"
        },
        {
          "indexed": false,
          "internalType": "string",
          "name": "productDetail",
          "type": "string"
        }
      ],
      "name": "ProductReceiptSubscribed",
      "type": "event"
    },
    {
      "anonymous": false,
      "inputs": [
        {
          "indexed": true,
          "internalType": "address",
          "name": "investor",
          "type": "address"
        },
        {
          "indexed": false,
          "internalType": "uint256",
          "name": "shareAmount",
          "type": "uint256"
        },
        {
          "indexed": false,
          "internalType": "uint256",
          "name": "assetAmount",
          "type": "uint256"
        }
      ],
      "name": "Redeemed",
      "type": "event"
    },
    {
      "anonymous": false,
      "inputs": [
        {
          "indexed": true,
          "internalType": "address",
          "name": "account",
          "type": "address"
        },
        {
          "indexed": false,
          "internalType": "int256",
          "name": "netPnl",
          "type": "int256"
        },
        {
          "indexed": false,
          "internalType": "uint256",
          "name": "accountValue",
          "type": "uint256"
        },
        {
          "indexed": false,
          "internalType": "uint256",
          "name": "tradeCount",
          "type": "uint256"
        },
        {
          "indexed": false,
          "internalType": "uint256",
          "name": "submittedAt",
          "type": "uint256"
        }
      ],
      "name": "ReplayScoreSubmitted",
      "type": "event"
    },
    {
      "anonymous": false,
      "inputs": [
        {
          "indexed": false,
          "internalType": "string",
          "name": "status",
          "type": "string"
        },
        {
          "indexed": false,
          "internalType": "uint256",
          "name": "timestamp",
          "type": "uint256"
        }
      ],
      "name": "StrategyStatusUpdated",
      "type": "event"
    },
    {
      "anonymous": false,
      "inputs": [
        {
          "indexed": true,
          "internalType": "address",
          "name": "investor",
          "type": "address"
        },
        {
          "indexed": false,
          "internalType": "uint256",
          "name": "assetAmount",
          "type": "uint256"
        },
        {
          "indexed": false,
          "internalType": "uint256",
          "name": "shareAmount",
          "type": "uint256"
        }
      ],
      "name": "Subscribed",
      "type": "event"
    },
    {
      "anonymous": false,
      "inputs": [
        {
          "indexed": true,
          "internalType": "address",
          "name": "recipient",
          "type": "address"
        },
        {
          "indexed": true,
          "internalType": "uint8",
          "name": "badgeType",
          "type": "uint8"
        },
        {
          "indexed": true,
          "internalType": "uint256",
          "name": "tokenId",
          "type": "uint256"
        }
      ],
      "name": "TaskBadgeMinted",
      "type": "event"
    },
    {
      "anonymous": false,
      "inputs": [
        {
          "indexed": true,
          "internalType": "address",
          "name": "operator",
          "type": "address"
        },
        {
          "indexed": true,
          "internalType": "address",
          "name": "from",
          "type": "address"
        },
        {
          "indexed": true,
          "internalType": "address",
          "name": "to",
          "type": "address"
        },
        {
          "indexed": false,
          "internalType": "uint256[]",
          "name": "ids",
          "type": "uint256[]"
        },
        {
          "indexed": false,
          "internalType": "uint256[]",
          "name": "values",
          "type": "uint256[]"
        }
      ],
      "name": "TransferBatch",
      "type": "event"
    },
    {
      "anonymous": false,
      "inputs": [
        {
          "indexed": true,
          "internalType": "address",
          "name": "operator",
          "type": "address"
        },
        {
          "indexed": true,
          "internalType": "address",
          "name": "from",
          "type": "address"
        },
        {
          "indexed": true,
          "internalType": "address",
          "name": "to",
          "type": "address"
        },
        {
          "indexed": false,
          "internalType": "uint256",
          "name": "id",
          "type": "uint256"
        },
        {
          "indexed": false,
          "internalType": "uint256",
          "name": "value",
          "type": "uint256"
        }
      ],
      "name": "TransferSingle",
      "type": "event"
    },
    {
      "anonymous": false,
      "inputs": [
        {
          "indexed": false,
          "internalType": "string",
          "name": "value",
          "type": "string"
        },
        {
          "indexed": true,
          "internalType": "uint256",
          "name": "id",
          "type": "uint256"
        }
      ],
      "name": "URI",
      "type": "event"
    },
    {
      "anonymous": false,
      "inputs": [
        {
          "indexed": true,
          "internalType": "bytes32",
          "name": "assetHash",
          "type": "bytes32"
        },
        {
          "indexed": false,
          "internalType": "bool",
          "name": "passed",
          "type": "bool"
        },
        {
          "indexed": false,
          "internalType": "string",
          "name": "note",
          "type": "string"
        }
      ],
      "name": "UnderlyingReviewRecorded",
      "type": "event"
    },
    {
      "anonymous": false,
      "inputs": [
        {
          "indexed": true,
          "internalType": "address",
          "name": "account",
          "type": "address"
        },
        {
          "indexed": true,
          "internalType": "uint8",
          "name": "taskId",
          "type": "uint8"
        }
      ],
      "name": "WealthTaskCompleted",
      "type": "event"
    },
    {
      "inputs": [],
      "name": "ASSET_DECIMALS",
      "outputs": [
        {
          "internalType": "uint8",
          "name": "",
          "type": "uint8"
        }
      ],
      "stateMutability": "view",
      "type": "function"
    },
    {
      "inputs": [],
      "name": "BPS",
      "outputs": [
        {
          "internalType": "uint256",
          "name": "",
          "type": "uint256"
        }
      ],
      "stateMutability": "view",
      "type": "function"
    },
    {
      "inputs": [],
      "name": "DEFAULT_WEALTH_PRODUCT_ID",
      "outputs": [
        {
          "internalType": "uint16",
          "name": "",
          "type": "uint16"
        }
      ],
      "stateMutability": "view",
      "type": "function"
    },
    {
      "inputs": [],
      "name": "HOME_PAPER",
      "outputs": [
        {
          "internalType": "uint8",
          "name": "",
          "type": "uint8"
        }
      ],
      "stateMutability": "view",
      "type": "function"
    },
    {
      "inputs": [],
      "name": "HOME_QUIZ",
      "outputs": [
        {
          "internalType": "uint8",
          "name": "",
          "type": "uint8"
        }
      ],
      "stateMutability": "view",
      "type": "function"
    },
    {
      "inputs": [],
      "name": "HOME_RISK",
      "outputs": [
        {
          "internalType": "uint8",
          "name": "",
          "type": "uint8"
        }
      ],
      "stateMutability": "view",
      "type": "function"
    },
    {
      "inputs": [],
      "name": "HOME_WALLET",
      "outputs": [
        {
          "internalType": "uint8",
          "name": "",
          "type": "uint8"
        }
      ],
      "stateMutability": "view",
      "type": "function"
    },
    {
      "inputs": [],
      "name": "HOME_WELCOME",
      "outputs": [
        {
          "internalType": "uint8",
          "name": "",
          "type": "uint8"
        }
      ],
      "stateMutability": "view",
      "type": "function"
    },
    {
      "inputs": [],
      "name": "MAX_SCORE_SUBMISSIONS_PER_DAY",
      "outputs": [
        {
          "internalType": "uint256",
          "name": "",
          "type": "uint256"
        }
      ],
      "stateMutability": "view",
      "type": "function"
    },
    {
      "inputs": [],
      "name": "PAPER_BASE_CHECK",
      "outputs": [
        {
          "internalType": "uint256",
          "name": "",
          "type": "uint256"
        }
      ],
      "stateMutability": "view",
      "type": "function"
    },
    {
      "inputs": [],
      "name": "PAPER_LEADERBOARD",
      "outputs": [
        {
          "internalType": "uint256",
          "name": "",
          "type": "uint256"
        }
      ],
      "stateMutability": "view",
      "type": "function"
    },
    {
      "inputs": [],
      "name": "PAPER_PERP_LEVERAGE",
      "outputs": [
        {
          "internalType": "uint256",
          "name": "",
          "type": "uint256"
        }
      ],
      "stateMutability": "view",
      "type": "function"
    },
    {
      "inputs": [],
      "name": "PAPER_PROTECTIVE_HEDGE",
      "outputs": [
        {
          "internalType": "uint256",
          "name": "",
          "type": "uint256"
        }
      ],
      "stateMutability": "view",
      "type": "function"
    },
    {
      "inputs": [],
      "name": "PAPER_SPOT_LOOP",
      "outputs": [
        {
          "internalType": "uint256",
          "name": "",
          "type": "uint256"
        }
      ],
      "stateMutability": "view",
      "type": "function"
    },
    {
      "inputs": [],
      "name": "WEALTH_BUY_RECEIPT",
      "outputs": [
        {
          "internalType": "uint8",
          "name": "",
          "type": "uint8"
        }
      ],
      "stateMutability": "view",
      "type": "function"
    },
    {
      "inputs": [],
      "name": "WEALTH_SETTLE_OR_PLEDGE",
      "outputs": [
        {
          "internalType": "uint8",
          "name": "",
          "type": "uint8"
        }
      ],
      "stateMutability": "view",
      "type": "function"
    },
    {
      "inputs": [
        {
          "internalType": "bytes32",
          "name": "",
          "type": "bytes32"
        }
      ],
      "name": "approvedUnderlyingHash",
      "outputs": [
        {
          "internalType": "bool",
          "name": "",
          "type": "bool"
        }
      ],
      "stateMutability": "view",
      "type": "function"
    },
    {
      "inputs": [],
      "name": "assetSymbol",
      "outputs": [
        {
          "internalType": "string",
          "name": "",
          "type": "string"
        }
      ],
      "stateMutability": "view",
      "type": "function"
    },
    {
      "inputs": [
        {
          "internalType": "address",
          "name": "account",
          "type": "address"
        },
        {
          "internalType": "uint256",
          "name": "id",
          "type": "uint256"
        }
      ],
      "name": "balanceOf",
      "outputs": [
        {
          "internalType": "uint256",
          "name": "",
          "type": "uint256"
        }
      ],
      "stateMutability": "view",
      "type": "function"
    },
    {
      "inputs": [
        {
          "internalType": "address[]",
          "name": "accounts",
          "type": "address[]"
        },
        {
          "internalType": "uint256[]",
          "name": "ids",
          "type": "uint256[]"
        }
      ],
      "name": "balanceOfBatch",
      "outputs": [
        {
          "internalType": "uint256[]",
          "name": "",
          "type": "uint256[]"
        }
      ],
      "stateMutability": "view",
      "type": "function"
    },
    {
      "inputs": [
        {
          "internalType": "address",
          "name": "investor",
          "type": "address"
        }
      ],
      "name": "canAccessAdvancedShelf",
      "outputs": [
        {
          "internalType": "bool",
          "name": "",
          "type": "bool"
        }
      ],
      "stateMutability": "view",
      "type": "function"
    },
    {
      "inputs": [
        {
          "internalType": "uint256",
          "name": "achievementId",
          "type": "uint256"
        }
      ],
      "name": "claim",
      "outputs": [],
      "stateMutability": "nonpayable",
      "type": "function"
    },
    {
      "inputs": [
        {
          "internalType": "uint256[]",
          "name": "achievementIds",
          "type": "uint256[]"
        }
      ],
      "name": "claimBatch",
      "outputs": [],
      "stateMutability": "nonpayable",
      "type": "function"
    },
    {
      "inputs": [
        {
          "internalType": "address",
          "name": "",
          "type": "address"
        }
      ],
      "name": "eligibleInvestor",
      "outputs": [
        {
          "internalType": "bool",
          "name": "",
          "type": "bool"
        }
      ],
      "stateMutability": "view",
      "type": "function"
    },
    {
      "inputs": [
        {
          "internalType": "address",
          "name": "holder",
          "type": "address"
        }
      ],
      "name": "hasMinted",
      "outputs": [
        {
          "internalType": "bool",
          "name": "",
          "type": "bool"
        }
      ],
      "stateMutability": "view",
      "type": "function"
    },
    {
      "inputs": [
        {
          "internalType": "address",
          "name": "",
          "type": "address"
        },
        {
          "internalType": "uint8",
          "name": "",
          "type": "uint8"
        }
      ],
      "name": "hasMintedBadge",
      "outputs": [
        {
          "internalType": "bool",
          "name": "",
          "type": "bool"
        }
      ],
      "stateMutability": "view",
      "type": "function"
    },
    {
      "inputs": [
        {
          "internalType": "address",
          "name": "holder",
          "type": "address"
        },
        {
          "internalType": "uint8",
          "name": "badgeType",
          "type": "uint8"
        }
      ],
      "name": "hasMintedTask",
      "outputs": [
        {
          "internalType": "bool",
          "name": "",
          "type": "bool"
        }
      ],
      "stateMutability": "view",
      "type": "function"
    },
    {
      "inputs": [
        {
          "internalType": "address",
          "name": "",
          "type": "address"
        }
      ],
      "name": "hasSubmittedScore",
      "outputs": [
        {
          "internalType": "bool",
          "name": "",
          "type": "bool"
        }
      ],
      "stateMutability": "view",
      "type": "function"
    },
    {
      "inputs": [
        {
          "internalType": "address",
          "name": "holder",
          "type": "address"
        },
        {
          "internalType": "uint8",
          "name": "taskId",
          "type": "uint8"
        }
      ],
      "name": "hasWealthTask",
      "outputs": [
        {
          "internalType": "bool",
          "name": "",
          "type": "bool"
        }
      ],
      "stateMutability": "view",
      "type": "function"
    },
    {
      "inputs": [
        {
          "internalType": "address",
          "name": "account",
          "type": "address"
        },
        {
          "internalType": "address",
          "name": "operator",
          "type": "address"
        }
      ],
      "name": "isApprovedForAll",
      "outputs": [
        {
          "internalType": "bool",
          "name": "",
          "type": "bool"
        }
      ],
      "stateMutability": "view",
      "type": "function"
    },
    {
      "inputs": [],
      "name": "lastAttestedAt",
      "outputs": [
        {
          "internalType": "uint256",
          "name": "",
          "type": "uint256"
        }
      ],
      "stateMutability": "view",
      "type": "function"
    },
    {
      "inputs": [],
      "name": "latestAttestationRoot",
      "outputs": [
        {
          "internalType": "bytes32",
          "name": "",
          "type": "bytes32"
        }
      ],
      "stateMutability": "view",
      "type": "function"
    },
    {
      "inputs": [
        {
          "internalType": "uint8",
          "name": "taskId",
          "type": "uint8"
        }
      ],
      "name": "markWealthTask",
      "outputs": [],
      "stateMutability": "nonpayable",
      "type": "function"
    },
    {
      "inputs": [],
      "name": "minSubscription",
      "outputs": [
        {
          "internalType": "uint256",
          "name": "",
          "type": "uint256"
        }
      ],
      "stateMutability": "view",
      "type": "function"
    },
    {
      "inputs": [
        {
          "internalType": "uint8",
          "name": "badgeType",
          "type": "uint8"
        },
        {
          "internalType": "address",
          "name": "to",
          "type": "address"
        }
      ],
      "name": "mintBadge",
      "outputs": [
        {
          "internalType": "uint256",
          "name": "tokenId",
          "type": "uint256"
        }
      ],
      "stateMutability": "nonpayable",
      "type": "function"
    },
    {
      "inputs": [
        {
          "internalType": "address",
          "name": "to",
          "type": "address"
        }
      ],
      "name": "mintWelcomeBadge",
      "outputs": [
        {
          "internalType": "uint256",
          "name": "tokenId",
          "type": "uint256"
        }
      ],
      "stateMutability": "nonpayable",
      "type": "function"
    },
    {
      "inputs": [],
      "name": "navBps",
      "outputs": [
        {
          "internalType": "uint256",
          "name": "",
          "type": "uint256"
        }
      ],
      "stateMutability": "view",
      "type": "function"
    },
    {
      "inputs": [],
      "name": "nextHomeTokenId",
      "outputs": [
        {
          "internalType": "uint256",
          "name": "",
          "type": "uint256"
        }
      ],
      "stateMutability": "view",
      "type": "function"
    },
    {
      "inputs": [],
      "name": "owner",
      "outputs": [
        {
          "internalType": "address",
          "name": "",
          "type": "address"
        }
      ],
      "stateMutability": "view",
      "type": "function"
    },
    {
      "inputs": [
        {
          "internalType": "uint256",
          "name": "shareAmount",
          "type": "uint256"
        }
      ],
      "name": "previewAssets",
      "outputs": [
        {
          "internalType": "uint256",
          "name": "",
          "type": "uint256"
        }
      ],
      "stateMutability": "view",
      "type": "function"
    },
    {
      "inputs": [
        {
          "internalType": "uint256",
          "name": "assetAmount",
          "type": "uint256"
        }
      ],
      "name": "previewShares",
      "outputs": [
        {
          "internalType": "uint256",
          "name": "",
          "type": "uint256"
        }
      ],
      "stateMutability": "view",
      "type": "function"
    },
    {
      "inputs": [
        {
          "internalType": "uint16",
          "name": "",
          "type": "uint16"
        }
      ],
      "name": "productReceiptDetail",
      "outputs": [
        {
          "internalType": "string",
          "name": "",
          "type": "string"
        }
      ],
      "stateMutability": "view",
      "type": "function"
    },
    {
      "inputs": [
        {
          "internalType": "uint16",
          "name": "",
          "type": "uint16"
        }
      ],
      "name": "productReceiptLabel",
      "outputs": [
        {
          "internalType": "string",
          "name": "",
          "type": "string"
        }
      ],
      "stateMutability": "view",
      "type": "function"
    },
    {
      "inputs": [
        {
          "internalType": "uint16",
          "name": "productId",
          "type": "uint16"
        }
      ],
      "name": "receiptTokenId",
      "outputs": [
        {
          "internalType": "uint256",
          "name": "",
          "type": "uint256"
        }
      ],
      "stateMutability": "pure",
      "type": "function"
    },
    {
      "inputs": [
        {
          "internalType": "bytes32",
          "name": "assetHash",
          "type": "bytes32"
        },
        {
          "internalType": "bool",
          "name": "passed",
          "type": "bool"
        },
        {
          "internalType": "string",
          "name": "note",
          "type": "string"
        }
      ],
      "name": "recordUnderlyingReview",
      "outputs": [],
      "stateMutability": "nonpayable",
      "type": "function"
    },
    {
      "inputs": [
        {
          "internalType": "uint256",
          "name": "shareAmount",
          "type": "uint256"
        }
      ],
      "name": "redeem",
      "outputs": [
        {
          "internalType": "uint256",
          "name": "assetAmount",
          "type": "uint256"
        }
      ],
      "stateMutability": "nonpayable",
      "type": "function"
    },
    {
      "inputs": [
        {
          "internalType": "uint16",
          "name": "productId",
          "type": "uint16"
        },
        {
          "internalType": "uint256",
          "name": "shareAmount",
          "type": "uint256"
        }
      ],
      "name": "redeemProduct",
      "outputs": [
        {
          "internalType": "uint256",
          "name": "assetAmount",
          "type": "uint256"
        }
      ],
      "stateMutability": "nonpayable",
      "type": "function"
    },
    {
      "inputs": [],
      "name": "renounceOwnership",
      "outputs": [],
      "stateMutability": "nonpayable",
      "type": "function"
    },
    {
      "inputs": [
        {
          "internalType": "address",
          "name": "",
          "type": "address"
        }
      ],
      "name": "replayScoreOf",
      "outputs": [
        {
          "internalType": "int256",
          "name": "bestNetPnl",
          "type": "int256"
        },
        {
          "internalType": "uint256",
          "name": "bestAccountValue",
          "type": "uint256"
        },
        {
          "internalType": "uint256",
          "name": "bestTradeCount",
          "type": "uint256"
        },
        {
          "internalType": "uint256",
          "name": "lastSubmittedAt",
          "type": "uint256"
        },
        {
          "internalType": "uint256",
          "name": "submissionCount",
          "type": "uint256"
        },
        {
          "internalType": "uint256",
          "name": "submissionDay",
          "type": "uint256"
        },
        {
          "internalType": "uint256",
          "name": "submissionsToday",
          "type": "uint256"
        }
      ],
      "stateMutability": "view",
      "type": "function"
    },
    {
      "inputs": [
        {
          "internalType": "address",
          "name": "",
          "type": "address"
        }
      ],
      "name": "riskTier",
      "outputs": [
        {
          "internalType": "uint8",
          "name": "",
          "type": "uint8"
        }
      ],
      "stateMutability": "view",
      "type": "function"
    },
    {
      "inputs": [
        {
          "internalType": "address",
          "name": "from",
          "type": "address"
        },
        {
          "internalType": "address",
          "name": "to",
          "type": "address"
        },
        {
          "internalType": "uint256[]",
          "name": "ids",
          "type": "uint256[]"
        },
        {
          "internalType": "uint256[]",
          "name": "amounts",
          "type": "uint256[]"
        },
        {
          "internalType": "bytes",
          "name": "data",
          "type": "bytes"
        }
      ],
      "name": "safeBatchTransferFrom",
      "outputs": [],
      "stateMutability": "nonpayable",
      "type": "function"
    },
    {
      "inputs": [
        {
          "internalType": "address",
          "name": "from",
          "type": "address"
        },
        {
          "internalType": "address",
          "name": "to",
          "type": "address"
        },
        {
          "internalType": "uint256",
          "name": "id",
          "type": "uint256"
        },
        {
          "internalType": "uint256",
          "name": "amount",
          "type": "uint256"
        },
        {
          "internalType": "bytes",
          "name": "data",
          "type": "bytes"
        }
      ],
      "name": "safeTransferFrom",
      "outputs": [],
      "stateMutability": "nonpayable",
      "type": "function"
    },
    {
      "inputs": [
        {
          "internalType": "uint256",
          "name": "index",
          "type": "uint256"
        }
      ],
      "name": "scoreAccountAt",
      "outputs": [
        {
          "internalType": "address",
          "name": "",
          "type": "address"
        }
      ],
      "stateMutability": "view",
      "type": "function"
    },
    {
      "inputs": [],
      "name": "scoreAccountCount",
      "outputs": [
        {
          "internalType": "uint256",
          "name": "",
          "type": "uint256"
        }
      ],
      "stateMutability": "view",
      "type": "function"
    },
    {
      "inputs": [
        {
          "internalType": "address",
          "name": "operator",
          "type": "address"
        },
        {
          "internalType": "bool",
          "name": "approved",
          "type": "bool"
        }
      ],
      "name": "setApprovalForAll",
      "outputs": [],
      "stateMutability": "nonpayable",
      "type": "function"
    },
    {
      "inputs": [
        {
          "internalType": "string",
          "name": "nextUri",
          "type": "string"
        }
      ],
      "name": "setBaseUri",
      "outputs": [],
      "stateMutability": "nonpayable",
      "type": "function"
    },
    {
      "inputs": [
        {
          "internalType": "address",
          "name": "investor",
          "type": "address"
        },
        {
          "internalType": "bool",
          "name": "allowed",
          "type": "bool"
        },
        {
          "internalType": "uint8",
          "name": "tier",
          "type": "uint8"
        }
      ],
      "name": "setInvestorEligibility",
      "outputs": [],
      "stateMutability": "nonpayable",
      "type": "function"
    },
    {
      "inputs": [
        {
          "internalType": "uint256",
          "name": "nextMinSubscription",
          "type": "uint256"
        }
      ],
      "name": "setMinSubscription",
      "outputs": [],
      "stateMutability": "nonpayable",
      "type": "function"
    },
    {
      "inputs": [
        {
          "internalType": "uint256",
          "name": "nextNavBps",
          "type": "uint256"
        }
      ],
      "name": "setNavBps",
      "outputs": [],
      "stateMutability": "nonpayable",
      "type": "function"
    },
    {
      "inputs": [
        {
          "internalType": "uint16",
          "name": "productId",
          "type": "uint16"
        },
        {
          "internalType": "string",
          "name": "detail",
          "type": "string"
        }
      ],
      "name": "setProductReceiptDetail",
      "outputs": [],
      "stateMutability": "nonpayable",
      "type": "function"
    },
    {
      "inputs": [
        {
          "internalType": "uint16",
          "name": "productId",
          "type": "uint16"
        },
        {
          "internalType": "string",
          "name": "label",
          "type": "string"
        }
      ],
      "name": "setProductReceiptLabel",
      "outputs": [],
      "stateMutability": "nonpayable",
      "type": "function"
    },
    {
      "inputs": [
        {
          "internalType": "string",
          "name": "nextStatus",
          "type": "string"
        }
      ],
      "name": "setStrategyStatus",
      "outputs": [],
      "stateMutability": "nonpayable",
      "type": "function"
    },
    {
      "inputs": [
        {
          "internalType": "bool",
          "name": "paused",
          "type": "bool"
        }
      ],
      "name": "setSubscriptionsPaused",
      "outputs": [],
      "stateMutability": "nonpayable",
      "type": "function"
    },
    {
      "inputs": [
        {
          "internalType": "uint16",
          "name": "fromProductId",
          "type": "uint16"
        },
        {
          "internalType": "uint16",
          "name": "toProductId",
          "type": "uint16"
        },
        {
          "internalType": "uint256",
          "name": "burnAmount",
          "type": "uint256"
        },
        {
          "internalType": "uint256",
          "name": "mintAmount",
          "type": "uint256"
        }
      ],
      "name": "settleProduct",
      "outputs": [
        {
          "internalType": "uint256",
          "name": "assetAmount",
          "type": "uint256"
        },
        {
          "internalType": "uint256",
          "name": "mintedAmount",
          "type": "uint256"
        }
      ],
      "stateMutability": "nonpayable",
      "type": "function"
    },
    {
      "inputs": [],
      "name": "strategyStatus",
      "outputs": [
        {
          "internalType": "string",
          "name": "",
          "type": "string"
        }
      ],
      "stateMutability": "view",
      "type": "function"
    },
    {
      "inputs": [
        {
          "internalType": "int256",
          "name": "netPnl",
          "type": "int256"
        },
        {
          "internalType": "uint256",
          "name": "accountValue",
          "type": "uint256"
        },
        {
          "internalType": "uint256",
          "name": "tradeCount",
          "type": "uint256"
        }
      ],
      "name": "submitScore",
      "outputs": [],
      "stateMutability": "nonpayable",
      "type": "function"
    },
    {
      "inputs": [
        {
          "internalType": "uint256",
          "name": "assetAmount",
          "type": "uint256"
        }
      ],
      "name": "subscribe",
      "outputs": [
        {
          "internalType": "uint256",
          "name": "shareAmount",
          "type": "uint256"
        }
      ],
      "stateMutability": "nonpayable",
      "type": "function"
    },
    {
      "inputs": [
        {
          "internalType": "uint16",
          "name": "productId",
          "type": "uint16"
        },
        {
          "internalType": "uint256",
          "name": "assetAmount",
          "type": "uint256"
        }
      ],
      "name": "subscribeProduct",
      "outputs": [
        {
          "internalType": "uint256",
          "name": "shareAmount",
          "type": "uint256"
        }
      ],
      "stateMutability": "nonpayable",
      "type": "function"
    },
    {
      "inputs": [],
      "name": "subscriptionsPaused",
      "outputs": [
        {
          "internalType": "bool",
          "name": "",
          "type": "bool"
        }
      ],
      "stateMutability": "view",
      "type": "function"
    },
    {
      "inputs": [
        {
          "internalType": "bytes4",
          "name": "interfaceId",
          "type": "bytes4"
        }
      ],
      "name": "supportsInterface",
      "outputs": [
        {
          "internalType": "bool",
          "name": "",
          "type": "bool"
        }
      ],
      "stateMutability": "view",
      "type": "function"
    },
    {
      "inputs": [
        {
          "internalType": "uint256",
          "name": "",
          "type": "uint256"
        }
      ],
      "name": "tokenBadgeType",
      "outputs": [
        {
          "internalType": "uint8",
          "name": "",
          "type": "uint8"
        }
      ],
      "stateMutability": "view",
      "type": "function"
    },
    {
      "inputs": [
        {
          "internalType": "address",
          "name": "newOwner",
          "type": "address"
        }
      ],
      "name": "transferOwnership",
      "outputs": [],
      "stateMutability": "nonpayable",
      "type": "function"
    },
    {
      "inputs": [
        {
          "internalType": "bytes32",
          "name": "nextAttestationRoot",
          "type": "bytes32"
        }
      ],
      "name": "updateAttestation",
      "outputs": [],
      "stateMutability": "nonpayable",
      "type": "function"
    },
    {
      "inputs": [
        {
          "internalType": "uint256",
          "name": "tokenId",
          "type": "uint256"
        }
      ],
      "name": "uri",
      "outputs": [
        {
          "internalType": "string",
          "name": "",
          "type": "string"
        }
      ],
      "stateMutability": "view",
      "type": "function"
    },
    {
      "inputs": [],
      "name": "vaultLabel",
      "outputs": [
        {
          "internalType": "string",
          "name": "",
          "type": "string"
        }
      ],
      "stateMutability": "view",
      "type": "function"
    },
    {
      "inputs": [
        {
          "internalType": "address",
          "name": "",
          "type": "address"
        },
        {
          "internalType": "uint16",
          "name": "",
          "type": "uint16"
        }
      ],
      "name": "wealthReceiptProofOf",
      "outputs": [
        {
          "internalType": "uint256",
          "name": "lastAssetAmount",
          "type": "uint256"
        },
        {
          "internalType": "uint256",
          "name": "lastShareAmount",
          "type": "uint256"
        },
        {
          "internalType": "uint256",
          "name": "purchasedAt",
          "type": "uint256"
        },
        {
          "internalType": "string",
          "name": "productDetail",
          "type": "string"
        }
      ],
      "stateMutability": "view",
      "type": "function"
    },
    {
      "inputs": [
        {
          "internalType": "address",
          "name": "",
          "type": "address"
        },
        {
          "internalType": "uint16",
          "name": "",
          "type": "uint16"
        }
      ],
      "name": "wealthReceiptShares",
      "outputs": [
        {
          "internalType": "uint256",
          "name": "",
          "type": "uint256"
        }
      ],
      "stateMutability": "view",
      "type": "function"
    },
    {
      "inputs": [
        {
          "internalType": "address",
          "name": "",
          "type": "address"
        },
        {
          "internalType": "uint8",
          "name": "",
          "type": "uint8"
        }
      ],
      "name": "wealthTaskCompleted",
      "outputs": [
        {
          "internalType": "bool",
          "name": "",
          "type": "bool"
        }
      ],
      "stateMutability": "view",
      "type": "function"
    }
  ],
  "bytecode": "0x608060405234620003465762006931803803806200001d816200034a565b9283398101906020918282820312620003465781516001600160401b039283821162000346570191601f9180838501121562000346578351938285116200031e57601f199462000073858201871688016200034a565b92818452878284010111620003465786915f5b82811062000332575050905f918301015280519182116200031e57620000ae60025462000370565b838111620002e2575b5084938383116001146200027f5750928192935f9262000273575b50508160011b915f199060031b1c1916176002555b60038054336001600160a01b0319821681179092556001600160a01b03167f8be0079c531659141344cd1fd0a4f28419497f9722a3daafe3b4186f6b6457e05f80a360016004556127106005556101f460065562000147600b5462000370565b81811162000251575b507f5269736b4c656e7320556e69666965642044656d6f205661756c740000000036600b55600c54620001839062000370565b8181116200022f575b50600461141560f21b01600c55600a54620001a79062000370565b908082116200020d575b7f44656d6f20726561647900000000000000000000000000000000000000000014600a557f326aeea7abf8a20d2ae5c71811b6e16c6ad80e0128362081ef8dd5af3774b9c06009554260075560405161656d9081620003c48239f35b6200022692600a5f525f20910160051c810190620003ab565b5f8080620001b1565b6200024a90600c5f5282845f20910160051c810190620003ab565b5f6200018c565b6200026c90600b5f5282845f20910160051c810190620003ab565b5f62000150565b015190505f80620000d2565b82169360025f52855f20915f5b87878210620002cb575050836001959610620002b2575b505050811b01600255620000e7565b01515f1960f88460031b161c191690555f8080620002a3565b60018495829395850151815501940192016200028c565b6200030d9060025f52865f208580860160051c82019289871062000314575b0160051c0190620003ab565b5f620000b7565b9250819262000301565b634e487b7160e01b5f52604160045260245ffd5b818101840151858201850152830162000086565b5f80fd5b6040519190601f01601f191682016001600160401b038111838210176200031e57604052565b90600182811c92168015620003a0575b60208310146200038c57565b634e487b7160e01b5f52602260045260245ffd5b91607f169162000380565b818110620003b7575050565b5f8155600101620003ab56fe604060808152600480361015610013575f80fd5b5f3560e01c9081629b27af14613a37578162fdd58e14613a0f57816301b4597d146139be57816301ffc9a71461395257816302cea26b146139025781630765b4b4146138ce5781630e89341c1461307a5781630f574ba714612cf9578163176de7a814612c4a578163176f1cdd14612b9b578163179649ad14612afb5781631a2e999614612a485781631de3083d14612a2d578163218900b414612a0f578163249d39e9146129f35781632baa7521146129ce5781632e6f6b1f146129b05781632eb2c2d6146127165781632f85874a146126f85781632fb4e0f914612617578163325116ee146125fc578163379607f51461258f57816338e21cce1461254a57816341be5f641461252c5781634973fd9a146125005781634adb4cc8146124e25781634d7c10a7146124a65781634e1273f41461233a578163521633371461208057816355cc026114611e9d57816357997aa214611e825781635ad32a3c14611e1857816360062cd11461092e578163619a1d2914611def57816362abebce14611b5d578163663c39d214611a435781636961fd461461189a5781636b3ce2f11461183e5781636ea17abd14611823578163715018a6146117c85781637206abbd1461160d57816374b3322c146115c35781637cea070a146115a85781638385f14a1461158c5781638530a3bf146115625781638909e5061461128a5781638d00bbe5146112375781638da5cb5b1461120f5781638f631d54146111f457816399b49e251461119b5781639a2aaca114611113578163a0bcfc7f14610f8f578163a22cb46514610eae578163aec45d8014610e4d578163b363935c14610434578163b5884e2014610db0578163b7d120d014610d65578163b84d93d414610d2b578163c4ebe02414610755578163c8a3c3b514610cb5578163cad471921461042f578163cb33bcdb14610c64578163cf22928d14610c41578163d28c390a14610bf7578163d4b0521b14610b7c578163d92fa2c614610b4c578163db006a7514610933578163dcb2125b1461092e578163e985e9c5146108e0578163eda7c56e14610770578163eeaa817714610755578163f242432a1461051a578163f2fde38b1461044f578163f4db898414610434578163f5952d121461042f578163f68e55c3146103cf57508063f766dee4146103b45763f956967314610375575f80fd5b346103b05760203660031901126103b0576020906001600160a01b03610399613a7c565b165f526014825260ff815f20541690519015158152f35b5f80fd5b50346103b0575f3660031901126103b05760209051600a8152f35b9050346103b05760203660031901126103b0578035916103ed614203565b82156103fa576006839055005b906020606492519162461bcd60e51b8352820152600f60248201526e496e76616c6964206d696e696d756d60881b6044820152fd5b613e76565b82346103b0575f3660031901126103b0576020905160068152f35b9050346103b05760203660031901126103b05761046a613a7c565b90610473614203565b6001600160a01b039182169283156104c8575050600354826bffffffffffffffffffffffff60a01b821617600355167f8be0079c531659141344cd1fd0a4f28419497f9722a3daafe3b4186f6b6457e05f80a3005b906020608492519162461bcd60e51b8352820152602660248201527f4f776e61626c653a206e6577206f776e657220697320746865207a65726f206160448201526564647265737360d01b6064820152fd5b9050346103b05760a03660031901126103b057610535613a7c565b9161053e613a92565b9260443590606435906084356001600160401b0381116103b0576105659036908701613dac565b916001600160a01b03918216913383148015610732575b6105859061402f565b8716610592811515615574565b61059b856164f2565b506105a5826164f2565b50845f526020975f8952865f20845f52895282875f20546105c8828210156155ce565b875f525f8b52885f20865f528b5203875f2055855f525f8952865f20825f528952865f206105f7848254613fef565b905581848851888152858c8201525f805160206165188339815191528a3392a43b61061e57005b86945f899461066089519788968795869463f23a6e6160e01b9c8d8752339087015260248601526044850152606484015260a0608484015260a4830190613c86565b03925af15f9181610703575b506106d457505061067b6163ee565b6308c379a0146106a3575b5162461bcd60e51b81529150819061069f908201616476565b0390fd5b6106ab616409565b806106b65750610686565b61069f915193849362461bcd60e51b85528401526024830190613c86565b9193506001600160e01b0319909116036106ea57005b905162461bcd60e51b815290819061069f9082016163a5565b610724919250863d881161072b575b61071c8183613ba2565b810190616385565b905f61066c565b503d610712565b50825f526001602052855f20335f5260205261058560ff875f205416905061057c565b82346103b0575f3660031901126103b0576020905160038152f35b9050346103b05761ffff9061078436613e38565b9291610791949194614203565b169261079e841515613fb1565b835f5260209160168352855f20906001600160401b0385116108cd57506107cf846107c98354613aea565b8361412e565b5f601f85116001146108455795610835929161082386807f866aab14c7f7439fa866f885f22e8a9fce19f006d3956137b07f4284346bac9c999a5f9161083a575b508160011b915f199060031b1c19161790565b90555b51938385948552840191613f11565b0390a2005b90508501355f610810565b601f19851690825f52845f20915f5b8181106108b6575091610835949391877f866aab14c7f7439fa866f885f22e8a9fce19f006d3956137b07f4284346bac9c999a941061089d575b5050600186811b019055610826565b8401355f19600389901b60f8161c191690555f8061088e565b919286600181928689013581550194019201610854565b604190634e487b7160e01b5f525260245ffd5b82346103b057806003193601126103b0576020906108fc613a7c565b610904613a92565b9060018060a01b038091165f5260018452825f2091165f52825260ff815f20541690519015158152f35b613e1d565b9050346103b057602091826003193601126103b057813591610956831515614e56565b3315610aff5781519061096882613b6c565b6001825284820191853684375115610aec576103e9809252610989846164f2565b505f835161099681613b51565b52815f525f8552825f20335f528552825f205490848210610a9d57508390825f525f8652835f20335f52865203825f20555f8251828152848682015233905f80516020616518833981519152853392a45f82516109f281613b51565b52335f908152601585528281206001825285528290205483818110610a8f5750505f5b335f5260158552825f2060015f528552825f2055815183815283858201527ff3a670cd3af7d64b488926880889d08a8585a138ff455227af6737339a1ec262833392a26001825184815284868201527f7c7917c3334372c8a1ab0009b4314b5fa722b2ae8bb2603b7195279aeb45a37a843392a451908152f35b610a9891615808565b610a15565b835162461bcd60e51b81529081018690526024808201527f455243313135353a206275726e20616d6f756e7420657863656564732062616c604482015263616e636560e01b6064820152608490fd5b603290634e487b7160e01b5f525260245ffd5b83608492519162461bcd60e51b8352820152602360248201527f455243313135353a206275726e2066726f6d20746865207a65726f206164647260448201526265737360e81b6064820152fd5b82346103b057806003193601126103b057602090610b75610b6b613ac8565b6024359033615815565b9051908152f35b9050346103b05760203660031901126103b057803590601854821015610bbe57602083610ba88461418d565b905491519160018060a01b039160031b1c168152f35b606490602084519162461bcd60e51b83528201526013602482015272496e646578206f7574206f6620626f756e647360681b6044820152fd5b9050346103b05760203660031901126103b057600554813581810292918115918404141715610c2e57506127106020925191048152f35b601190634e487b7160e01b5f525260245ffd5b82346103b0575f3660031901126103b05760209060ff6008541690519015158152f35b82346103b057806003193601126103b057602090610c80613a7c565b610c88613aa8565b6001600160a01b039091165f908152600f845282812060ff92831682528452829020549151911615158152f35b82346103b05760203660031901126103b05760e0916001600160a01b03610cda613a7c565b165f526013602052815f208054926001820154926002830154600384015491840154926006600586015495015495815197885260208801528601526060850152608084015260a083015260c0820152f35b82346103b05760203660031901126103b0576020906001600160a01b03610d50613a7c565b165f526011825260ff815f2054169051908152f35b82346103b05760203660031901126103b057610dac9061ffff610d86613ac8565b165f526016602052610d99815f20613bc3565b9051918291602083526020830190613c86565b0390f35b82346103b05760603660031901126103b057610dca613a7c565b90610dd3613a6d565b6044359260ff84168094036103b0577fa0aa2b85df88566521daa2ac1eb0694994372f9f1e64a41307f9d06a571f921291602091610e0f614203565b6001600160a01b03165f81815260108452859020805460ff191660ff841515161790559360118352805f208660ff19825416179055519015158152a3005b82346103b057806003193601126103b057602090610e69613a7c565b610e71613aa8565b90610e83610e7e836152db565b613f31565b6001600160a01b03165f908152600f845282812060ff92831682528452829020549151911615158152f35b82346103b057806003193601126103b057610ec7613a7c565b90610ed0613a6d565b6001600160a01b0390921692338414610f3b5750335f526001602052805f20835f52602052610f0d82825f209060ff801983541691151516179055565b5190151581527f17307eab39ab6107e8899845ad3d59bd9653f200f220920489ca2b5937696c3160203392a3005b6020608492519162461bcd60e51b8352820152602960248201527f455243313135353a2073657474696e6720617070726f76616c20737461747573604482015268103337b91039b2b63360b91b6064820152fd5b346103b0576020806003193601126103b0576001600160401b039082358281116103b057610fc3610fd29136908601613cab565b610fcb614203565b3691613d76565b9283519283116108cd5750610fe8600254613aea565b601f81116110b0575b50602090601f831160011461103257508190611022935f92611027575b50508160011b915f199060031b1c19161790565b600255005b01519050838061100e565b90601f1983169360025f527f405787fa12a823e0f2b7631cc41b3ba8828b3321ca811111fa75cd3aa3bb5ace925f905b8682106110985750508360019510611080575b505050811b01600255005b01515f1960f88460031b161c19169055828080611075565b80600185968294968601518155019501930190611062565b60025f527f405787fa12a823e0f2b7631cc41b3ba8828b3321ca811111fa75cd3aa3bb5ace601f840160051c81019160208510611109575b601f0160051c01905b8181106110fe5750610ff1565b5f81556001016110f1565b90915081906110e8565b82346103b05760203660031901126103b057813561112f614203565b801561116a577f1e1223c1f6274c6d64fdb08c485e192bd2896c9abf70e840e199ac1f54d6d1d59250806005558151908152426020820152a1005b815162461bcd60e51b8152602081850152600b60248201526a24b73b30b634b2102720ab60a91b6044820152606490fd5b82346103b05760203660031901126103b0576020906001600160a01b036111c0613a7c565b165f526010825260ff815f20541690816111dd575b519015158152f35b905060118252600260ff825f2054161015906111d5565b9050346103b0575f3660031901126103b05760209151908152f35b82346103b0575f3660031901126103b05760035490516001600160a01b039091168152602090f35b82346103b05760203660031901126103b0577f181f92f68826a8d2b5b97d27f9e18d05a337290356fabf5b717154077dbea9339135611274614203565b80600955426007558151908152426020820152a1005b9050346103b05760803660031901126103b0576112a5613ac8565b906112ae613ad9565b5f91906044356064356112c2828733615815565b9561ffff918285169485151580611559575b611544575b50335f52602095600f8752895f2060025f528752895f20600160ff1982541617905533156114ee5760ca5f525f8752895f20335f528752895f205415611355575b5088519384528584015216907f031b66f6d8a6a3252233defe3a4204c77215f4ddd23783ce33b9b3d9a86b6ac6873392a48351928352820152f35b895161136081613b51565b5f81528a5161136e81613b6c565b60018152888101908936833751156114db5760ca905261138c6164cb565b5060ca5f525f88528a5f20335f5288528a5f20805490600182018092116114c857558a5f815160ca815260018b8201525f8051602061651883398151915233933392a4333b611405575b50506002337fbd1ae2c6d13c1a8dc9dbe03823192cb9ab92b45e5b9264dd65b2794c526e6f9f5f80a35f61131a565b90611451888c9a989796959493839c9a9d518093819263f23a6e6160e01b9687845233908401525f602484015260ca60448401526001606484015260a0608484015260a4830190613c86565b03815f335af15f91816114a9575b5061146f578b8b8b61067b6163ee565b63ffffffff60e09c999b9394959697989a9c1b160361149057505f806113d6565b895162461bcd60e51b815290819061069f9082016163a5565b6114c19192508d803d1061072b5761071c8183613ba2565b905f61145f565b601184634e487b7160e01b5f525260245ffd5b603283634e487b7160e01b5f525260245ffd5b895162461bcd60e51b8152908101879052602a60248201527f455243313135353a2061646472657373207a65726f206973206e6f742061207660448201526930b634b21037bbb732b960b11b6064820152608490fd5b819750906115529133614e90565b955f6112d9565b508115156112d4565b82346103b05760203660031901126103b057602091355f52600e825260ff815f2054169051908152f35b82346103b0575f3660031901126103b057602091549051908152f35b82346103b0575f3660031901126103b0576020905160018152f35b82346103b057806003193601126103b0576020906115df613a7c565b6115e7613ad9565b9060018060a01b03165f526015835261ffff825f2091165f528252805f20549051908152f35b9050346103b057816003193601126103b057611627613ab8565b91611630613a92565b9261164261163d826157dd565b6141c2565b6001600160a01b03841680156117915780330361175d57805f52602094600d865260ff845f20931692835f52865260ff845f2054166117235784549460018601808711611710578155825f52600d8752845f20845f528752845f2060ff1990600182825416179055865f52600e885284865f2091825416179055836064019081606411610c2e5750859392916116e6918651916116de83613b51565b5f83526156c0565b7f4c7380f1d23a71f74fa1303f23b7100826e4a89a4e47b2985e5c708e47a19b3a5f80a451908152f35b601182634e487b7160e01b5f525260245ffd5b835162461bcd60e51b8152808601879052601460248201527310985919d948185b1c9958591e481b5a5b9d195960621b6044820152606490fd5b825162461bcd60e51b8152602081860152600e60248201526d13db9b1e481cd95b19881b5a5b9d60921b6044820152606490fd5b825162461bcd60e51b81526020818601526011602482015270125b9d985b1a59081c9958da5c1a595b9d607a1b6044820152606490fd5b346103b0575f3660031901126103b0576117e0614203565b600380546001600160a01b031981169091555f906001600160a01b03167f8be0079c531659141344cd1fd0a4f28419497f9722a3daafe3b4186f6b6457e08280a3005b82346103b0575f3660031901126103b0576020905160078152f35b82346103b057806003193601126103b05760209061185a613a7c565b611862613aa8565b9061186f61163d836157dd565b6001600160a01b03165f908152600d845282812060ff92831682528452829020549151911615158152f35b9050346103b05760603660031901126103b05780359160243560443592335f526013602052825f20906201518042046014602052845f20805460ff8116156119e0575b505060058301818154036119d2575b50506006820190815492600384101561198f5780829154891361197b575b4260038201550180549060018201809211611968575560018301809311610c2e575055815193845260208401528201524260608201527ff6d69723c1e13a6e751ff8839d394f04ffffc588fdd13a7cfd1fdfc1bf87ebe160803392a2005b601183634e487b7160e01b5f525260245ffd5b88815585600182015587600282015561190a565b855162461bcd60e51b8152602081840152601960248201527f4461696c792073636f7265206c696d69742072656163686564000000000000006044820152606490fd5b555f60068301555f806118ec565b60ff1916600117905560185468010000000000000000811015611a3057806001611a0d920160185561418d565b81546001600160a01b0360039290921b91821b19163390911b1790555f806118dd565b604183634e487b7160e01b5f525260245ffd5b9050346103b05761ffff90611a5736613e38565b9291611a64949194614203565b1692611a71841515613fb1565b835f5260209160178352855f20906001600160401b0385116108cd5750611a9c846107c98354613aea565b5f601f8511600114611aef5795610835929161082386807fb16cf5b05c6e7e92f2299a1d0894bbf220a63a7b1ccc786436c3d89d18df7bbe999a5f9161083a57508160011b915f199060031b1c19161790565b601f19851690825f52845f20915f5b818110611b46575091610835949391877fb16cf5b05c6e7e92f2299a1d0894bbf220a63a7b1ccc786436c3d89d18df7bbe999a941061089d575050600186811b019055610826565b919286600181928689013581550194019201611afe565b82346103b0576020916003199183833601126103b0578135936001600160401b038086116103b057366023870112156103b057858401359081116103b0576024860195602436918360051b0101116103b057611bb8816140d4565b905f5b818110611dab5750611bce368289613cef565b94845196611bdb88613b51565b5f8852611be933151561566a565b611bf68751855114615517565b5f5b8751811015611c3d5780611c0e60019287614106565b51611c19828b614106565b515f525f8852885f20335f528852611c35895f20918254613fef565b905501611bf8565b5090949395919684515f33917f4a39dc06d4c0dbc64b70af90fd698a233a518aa5d07e595d983b8c0526c8f7fb339180611c788a8a8361562d565b0390a4333b611cce575b505050505050505f5b818110611c9457005b80611ca2600192848661417d565b35337f04844d30b922ffc2b845400eb2a15cdd62742176c723e09d7cc9703e83645e4b5f80a301611c8b565b8597949698959392611d308a93611d1193611d218b51978896879663bc197c8160e01b9b8c895233908901525f602489015260a0604489015260a4880190613dc7565b9084878303016064880152613dc7565b91848303016084850152613c86565b03815f335af15f9181611d8c575b50611d4f575050505061067b6163ee565b929550909392916001600160e01b03191603611d7357505082808080808080611c82565b5162461bcd60e51b81529150819061069f9082016163a5565b611da4919250883d8a1161072b5761071c8183613ba2565b9088611d3e565b80611ddd611dd7611dbf600194868d61417d565b35611dd1611dcc82615652565b614092565b33613e91565b15613f73565b81611de88286614106565b5201611bbb565b82346103b057806003193601126103b057602090610b75611e0e613ac8565b6024359033614e90565b82346103b057806003193601126103b057611e31613a7c565b611e39613ad9565b9060018060a01b03165f52601960205261ffff825f2091165f52602052805f2090610dac825491600184015493611e77600360028301549201613bc3565b915194859485613dfa565b82346103b0575f3660031901126103b0576020905160088152f35b9050346103b0576020806003193601126103b0576001600160401b039082358281116103b057611ed09036908501613cab565b939092611edb614203565b84116108cd5750611eed600a54613aea565b601f811161201d575b505f90601f8411600114611f7457507f09fb0a9f79f07cf16c95b92623175f408d609663d7868ae62581439d923470bd9391611f4a8480611f5e945f91611f6957508160011b915f199060031b1c19161790565b600a555b8251938385948552840191613f11565b4260208301520390a1005b90508301355f610810565b90601f198416600a5f527fc65a7bb8d6351c1cf70c95a316cc6a92839c986682d98bc35f958f4883f9d2a8925f905b828210612005575050917f09fb0a9f79f07cf16c95b92623175f408d609663d7868ae62581439d923470bd95939185611f5e9410611fec575b5050600184811b01600a55611f4e565b8201355f19600387901b60f8161c191690555f80611fdc565b80600185968294968901358155019501930190611fa3565b600a5f527fc65a7bb8d6351c1cf70c95a316cc6a92839c986682d98bc35f958f4883f9d2a8601f850160051c81019160208610612076575b601f0160051c01905b81811061206b5750611ef6565b5f815560010161205e565b9091508190612055565b9050346103b057602091826003193601126103b05761209d613a7c565b916001600160a01b0383168015612304578033036122d157805f52600d8552825f2091600192835f52865260ff845f20541661229757805494838601808711611968578255825f52600d8752845f20845f528752845f2060ff19908582825416179055865f52600e885284865f209182541617905584519061211e82613b51565b5f8252855161212c81613b6c565b8581528881019089368337511561228457606590526121496164cb565b5060655f525f8852855f20845f528852855f208054908682018092116122715755835f875160658152878b8201525f80516020616518833981519152893392a43b6121be575b50509083917f4c7380f1d23a71f74fa1303f23b7100826e4a89a4e47b2985e5c708e47a19b3a5f80a451908152f35b8495939291955187818061220063f23a6e6160e01b95868352338c8401525f60248401526065604484015288606484015260a0608484015260a4830190613c86565b03815f875af15f9181612252575b5061221e5787878761067b6163ee565b63ffffffff60e097939495971b16036122395750835f61218f565b835162461bcd60e51b815290819061069f9082016163a5565b61226a919250893d8b1161072b5761071c8183613ba2565b905f61220e565b601185634e487b7160e01b5f525260245ffd5b603284634e487b7160e01b5f525260245ffd5b835162461bcd60e51b8152908101869052601460248201527310985919d948185b1c9958591e481b5a5b9d195960621b6044820152606490fd5b5083606492519162461bcd60e51b8352820152600e60248201526d13db9b1e481cd95b19881b5a5b9d60921b6044820152fd5b5083606492519162461bcd60e51b83528201526011602482015270125b9d985b1a59081c9958da5c1a595b9d607a1b6044820152fd5b82346103b057806003193601126103b0576001600160401b039180358381116103b057366023820112156103b057808201359361237685613cd8565b9161238385519384613ba2565b85835260209560248785019160051b830101913683116103b057602401905b828210612487575050506024359081116103b0576123c39036908401613d3d565b91815183510361243257506123d881516140d4565b935f5b82518110156124205760019061240f6001600160a01b036123fc8387614106565b51166124088388614106565b5190613e91565b6124198289614106565b52016123db565b845182815280610dac81850189613dc7565b835162461bcd60e51b8152908101859052602960248201527f455243313135353a206163636f756e747320616e6420696473206c656e677468604482015268040dad2e6dac2e8c6d60bb1b6064820152608490fd5b81356001600160a01b03811681036103b05781529087019087016123a2565b82346103b05760203660031901126103b0576020906001600160a01b036124cb613a7c565b165f526010825260ff815f20541690519015158152f35b82346103b0575f3660031901126103b0576020906007549051908152f35b82346103b05760203660031901126103b057602091355f526012825260ff815f20541690519015158152f35b82346103b0575f3660031901126103b0576020906006549051908152f35b82346103b05760203660031901126103b0576020906001600160a01b0361256f613a7c565b165f52600d8252805f2060015f52825260ff815f20541690519015158152f35b9050346103b05760203660031901126103b0576125d59035916125b4611dcc84615652565b6125c1611dd78433613e91565b516125cb81613b51565b5f815282336156c0565b337f04844d30b922ffc2b845400eb2a15cdd62742176c723e09d7cc9703e83645e4b5f80a3005b82346103b0575f3660031901126103b0576020905160098152f35b82346103b0575f3660031901126103b0578051600b549091825f61263a84613aea565b808352602094600190866001821691825f146126d657505060011461267b575b5050610dac929161266c910385613ba2565b51928284938452830190613c86565b90859250600b5f527f0175b7a638427703f0dbe7bb9bbf987a2551717b34e79f33b5b1008d1fa01db9915f925b8284106126be575050508201018161266c61265a565b8054848a0186015288955087949093019281016126a8565b60ff19168682015292151560051b8501909201925083915061266c905061265a565b82346103b0575f3660031901126103b0576020906018549051908152f35b9050346103b0576003199060a0368301126103b057612733613a7c565b9161273c613a92565b926001600160401b03926044358481116103b05761275d9036908301613d3d565b906064358581116103b0576127759036908301613d3d565b946084359081116103b05761278d9036908301613dac565b936001600160a01b0393841693338514801561298d575b6127ad9061402f565b6127ba8451885114615517565b8716946127c8861515615574565b5f5b845181101561284657806127e060019287614106565b516127eb828b614106565b5190805f526020905f82528d5f208a5f5282528d83815f2054612810828210156155ce565b835f525f8552825f208d5f52855203905f20555f525f81528c5f20908a5f525261283e8c5f20918254613fef565b9055016127ca565b509094939592919684878a517f4a39dc06d4c0dbc64b70af90fd698a233a518aa5d07e595d983b8c0526c8f7fb3391806128818a8a8361562d565b0390a43b61288b57005b8751948593849363bc197c8160e01b98898652338b87015260248601526044850160a0905260a485016128bd91613dc7565b828582030160648601526128d091613dc7565b908382030160848401526128e391613c86565b03815a6020945f91f15f918161296c575b5061295b5750506129036163ee565b6308c379a014612927575b905162461bcd60e51b815290819061069f908201616476565b61292f616409565b8061293a575061290e565b61069f906020935193849362461bcd60e51b85528401526024830190613c86565b6001600160e01b031916036106ea57005b61298691925060203d60201161072b5761071c8183613ba2565b905f6128f4565b50845f526001602052885f20335f526020526127ad60ff8a5f20541690506127a4565b82346103b0575f3660031901126103b0576020906009549051908152f35b82346103b05760203660031901126103b057602090610b756129ee613ac8565b614010565b82346103b0575f3660031901126103b057602090516127108152f35b82346103b0575f3660031901126103b0576020906005549051908152f35b82346103b0575f3660031901126103b0576020905160058152f35b82346103b05760203660031901126103b057612a62613ab8565b90612a6f610e7e836152db565b612a7e611dd7611dd1846152f5565b335f52600f602052612aab815f209260ff811693845f52602052825f20600160ff198254161790556152f5565b612ab58133613e91565b15612abc57005b612ad4915190612acb82613b51565b5f8252336156c0565b337fbd1ae2c6d13c1a8dc9dbe03823192cb9ab92b45e5b9264dd65b2794c526e6f9f5f80a3005b9050346103b05760603660031901126103b057803591612b19613a6d565b604435926001600160401b0384116103b057612b5c610835917f5cd61427930ab89a7ffdd8646dd284f02d4ec213a21d6dcaab300350e800661195369101613cab565b612b64614203565b865f526012602052612b8484865f209060ff801983541691151516179055565b845194859415158552806020860152840191613f11565b82346103b0575f3660031901126103b0578051600a549091825f612bbe84613aea565b808352602094600190866001821691825f146126d6575050600114612bef575050610dac929161266c910385613ba2565b90859250600a5f527fc65a7bb8d6351c1cf70c95a316cc6a92839c986682d98bc35f958f4883f9d2a8915f925b828410612c32575050508201018161266c61265a565b8054848a018601528895508794909301928101612c1c565b82346103b0575f3660031901126103b0578051600c549091825f612c6d84613aea565b808352602094600190866001821691825f146126d6575050600114612c9e575050610dac929161266c910385613ba2565b90859250600c5f527fdf6966c971051c3d54ec59162606531493a51404a002842f56009d7e5cf4a8c7915f925b828410612ce1575050508201018161266c61265a565b8054848a018601528895508794909301928101612ccb565b9050346103b057602091826003193601126103b05781359160ff6008541661304257600654831061301157612d2f831515614e56565b8151612d3a81613b51565b5f8152612d4833151561566a565b825191612d5483613b6c565b60019182845286840193873686375115612ffe576103e9809452612d77866164f2565b50835f525f8752845f20335f528752845f20612d94878254613fef565b9055845184815286888201525f33915f80516020616518833981519152883392a4333b612f67575b50335f5260158652835f20825f528652835f20612dda868254613fef565b9055612de4615a82565b9060038551612df281613b22565b8781528881018881528782019042825260608301958652335f5260198b52885f20875f528b52885f209251835551868301555160028201550191518051916001600160401b0383116108cd5750612e5382612e4d8554613aea565b8561412e565b8790601f8311600114612f0957612e8092915f9183612efe5750508160011b915f199060031b1c19161790565b90555b612e8c33615306565b825184815284868201527ff94991dcbea6e8ac439cbc93bd9c62a4d39f04e0ad656df9a703f13552c2787f843392a2612ec3615a82565b7f9ec85e292a34c98a43e8ffe45de1c625bdfe7e8efc23f4a9da12895a70b35815845180612ef53394428a8085613dfa565b0390a451908152f35b015190505f8061100e565b849291601f19831691855f528a5f20925f5b8c828210612f515750508411612f39575b505050811b019055612e83565b01515f1960f88460031b161c191690555f8080612f2c565b8385015186558997909501949384019301612f1b565b84959392919551878180612fa863f23a6e6160e01b95868352338c8401525f602484015288604484015289606484015260a0608484015260a4830190613c86565b03815f335af15f9181612fdf575b50612fc65787878761067b6163ee565b63ffffffff60e097939495971b1603612239575f612dbc565b612ff7919250893d8b1161072b5761071c8183613ba2565b905f612fb6565b603282634e487b7160e01b5f525260245ffd5b83606492519162461bcd60e51b8352820152600d60248201526c42656c6f77206d696e696d756d60981b6044820152fd5b83606492519162461bcd60e51b8352820152601460248201527314dd589cd8dc9a5c1d1a5bdb9cc81c185d5cd95960621b6044820152fd5b9050346103b057602090816003193601126103b0573561309981614294565b6130a282614678565b916130ac81615b31565b856130b683615b31565b916130c084615b31565b6130c985615ca8565b916130d386615dac565b6130dc87615e3a565b6130e588616148565b948b6130f08a616270565b946130fa8b614bb3565b89517f3c73766720786d6c6e733d22687474703a2f2f7777772e77332e6f72672f3230848201527f30302f737667222076696577426f783d223020302036303020363030223e3c649a81019a909a527f6566733e3c6c696e6561724772616469656e742069643d2267222078313d223360608b01527f36222079313d223232222078323d22353630222079323d22353738223e3c737460808b01527f6f702073746f702d636f6c6f723d2223313232323141222f3e3c73746f70206f60a08b01527f66667365743d222e3535222073746f702d636f6c6f723d22233131313832372260c08b01527f2f3e3c73746f70206f66667365743d2231222073746f702d636f6c6f723d222360e08b01527f313233333341222f3e3c2f6c696e6561724772616469656e743e3c2f646566736101008b01527f3e3c726563742077696474683d2236303022206865696768743d2236303022206101208b01527f72783d223434222066696c6c3d2223304231313143222f3e3c7265637420783d6101408b01527f2232382220793d223238222077696474683d2235343422206865696768743d226101608b01527f353434222072783d223334222066696c6c3d2275726c2823672922207374726f6101808b01526335b29e9160e11b6101a08b01528151999a8b9a91986101a4939092906132f8908290868f01908801613c65565b8b019283017f22207374726f6b652d77696474683d2232222f3e3c636972636c652063783d2290526101c483017f3932222063793d2239322220723d223138222066696c6c3d220000000000000090526101dd92815191828686840192019161336092613c65565b019182017f222f3e3c7465787420783d223132362220793d22313031222066696c6c3d220090526101fc91815191828585840192019161339f92613c65565b019081017f2220666f6e742d73697a653d2231382220666f6e742d7765696768743d223830905261021c81017f302220666f6e742d66616d696c793d22417269616c223e0000000000000000009052610233928051809385840192019161340592613c65565b019081017f3c2f746578743e3c7465787420783d2235382220793d22323834222066696c6c90527f3d22234636463846422220666f6e742d73697a653d2234382220666f6e742d77806102538301528c7f65696768743d223930302220666f6e742d66616d696c793d22417269616c223e9283610273820152610293958051809388840192019161349592613c65565b019384017f3c2f746578743e3c7465787420783d2235382220793d22333434222066696c6c90526102b38401526102d38301526102f391815191828d8584019201916134e092613c65565b019081017f3c2f746578743e3c7465787420783d2235382220793d22343130222066696c6c90527f3d22234141423843372220666f6e742d73697a653d2232302220666f6e742d66806103138301528a6d30b6b4b63c9e9120b934b0b6111f60911b9283610333820152610341968051809389840192019161356192613c65565b019485017f3c2f746578743e3c7465787420783d2235382220793d22343430222066696c6c905261036185015261038184015261038f92815191828b8684019201916135ac92613c65565b7f3c2f746578743e3c7465787420783d2235382220793d22353230222066696c6c9101928301527f3d22233646383039352220666f6e742d73697a653d2231382220666f6e742d776103af8301527f65696768743d223730302220666f6e742d66616d696c793d22417269616c223e6103cf83015266544f4b454e202360c81b6103ef83015280516103f692909161364b908390858401908c01613c65565b019081016c1e17ba32bc3a1f1e17b9bb339f60991b9052036103e381018252610403016136789082613ba2565b6136819061493f565b9061368b81614a98565b61369482614bb3565b9161369e90614cf5565b928751958695683d913730b6b2911d1160b91b89880152805190818a60298a019201916136ca92613c65565b8601701116113232b9b1b934b83a34b7b7111d1160791b6029820152815191828a603a84019201916136fb92613c65565b01603a81017f222c22696d616765223a22646174613a696d6167652f7376672b786d6c3b62619052605a8101641cd94d8d0b60da1b90528151918289605f840192019161374792613c65565b01605f81017f222c2261747472696275746573223a5b7b2274726169745f74797065223a22539052703ab93330b1b29116113b30b63ab2911d1160791b607f82015281519182886090840192019161379e92613c65565b01609081017f227d2c7b2274726169745f74797065223a224e6574776f726b222c2276616c75905260b081017f65223a225365706f6c6961227d2c7b2274726169745f74797065223a22546f6b90526f32b71024a21116113b30b63ab2911d1160811b60d0820152815191828760e0840192019161381b92613c65565b0161227d60f01b60e0820152815191828660e2840192019161383c92613c65565b0160e28101615d7d60f01b90520360c48101825260e40161385d9082613ba2565b6138669061493f565b91805180938382017f646174613a6170706c69636174696f6e2f6a736f6e3b6261736536342c00000090528051908185603d85019201916138a692613c65565b810103601d81018452603d016138bc9084613ba2565b519181839283528201610dac91613c86565b82346103b05760203660031901126103b057610dac9061ffff6138ef613ac8565b165f526017602052610d99815f20613bc3565b82346103b05760203660031901126103b0576127108235818102929181159184041417156119685760055490811561393f57602093505191048152f35b601284634e487b7160e01b5f525260245ffd5b9050346103b05760203660031901126103b0573563ffffffff60e01b81168091036103b057602091636cdb3d1360e11b82149182156139ad575b821561399c575b50519015158152f35b6301ffc9a760e01b1491505f613993565b6303a24d0760e21b8114925061398c565b82346103b057806003193601126103b0576020906139da613a7c565b6139e2613aa8565b6001600160a01b039091165f908152600d845282812060ff92831682528452829020549151911615158152f35b82346103b057806003193601126103b057602090610b75613a2e613a7c565b60243590613e91565b346103b05760203660031901126103b057358015158091036103b057613a5b614203565b60ff8019600854169116176008555f80f35b6024359081151582036103b057565b600435906001600160a01b03821682036103b057565b602435906001600160a01b03821682036103b057565b6024359060ff821682036103b057565b6004359060ff821682036103b057565b6004359061ffff821682036103b057565b6024359061ffff821682036103b057565b90600182811c92168015613b18575b6020831014613b0457565b634e487b7160e01b5f52602260045260245ffd5b91607f1691613af9565b608081019081106001600160401b03821117613b3d57604052565b634e487b7160e01b5f52604160045260245ffd5b602081019081106001600160401b03821117613b3d57604052565b604081019081106001600160401b03821117613b3d57604052565b606081019081106001600160401b03821117613b3d57604052565b90601f801991011681019081106001600160401b03821117613b3d57604052565b9060405191825f8254613bd581613aea565b908184526020946001916001811690815f14613c435750600114613c05575b505050613c0392500383613ba2565b565b5f90815285812095935091905b818310613c2b575050613c0393508201015f8080613bf4565b85548884018501529485019487945091830191613c12565b92505050613c0394925060ff191682840152151560051b8201015f8080613bf4565b5f5b838110613c765750505f910152565b8181015183820152602001613c67565b90602091613c9f81518092818552858086019101613c65565b601f01601f1916010190565b9181601f840112156103b0578235916001600160401b0383116103b057602083818601950101116103b057565b6001600160401b038111613b3d5760051b60200190565b9291613cfa82613cd8565b91613d086040519384613ba2565b829481845260208094019160051b81019283116103b057905b828210613d2e5750505050565b81358152908301908301613d21565b9080601f830112156103b057816020613d5893359101613cef565b90565b6001600160401b038111613b3d57601f01601f191660200190565b929192613d8282613d5b565b91613d906040519384613ba2565b8294818452818301116103b0578281602093845f960137010152565b9080601f830112156103b057816020613d5893359101613d76565b9081518082526020808093019301915f5b828110613de6575050505090565b835185529381019392810192600101613dd8565b9092608092613d5895948352602083015260408201528160608201520190613c86565b346103b0575f3660031901126103b057602060405160018152f35b9060406003198301126103b05760043561ffff811681036103b05791602435906001600160401b0382116103b057613e7291600401613cab565b9091565b346103b0575f3660031901126103b057602060405160028152f35b6001600160a01b0316908115613eb9575f525f60205260405f20905f5260205260405f205490565b60405162461bcd60e51b815260206004820152602a60248201527f455243313135353a2061646472657373207a65726f206973206e6f742061207660448201526930b634b21037bbb732b960b11b6064820152608490fd5b908060209392818452848401375f828201840152601f01601f1916010190565b15613f3857565b60405162461bcd60e51b8152602060048201526013602482015272496e76616c6964207765616c7468207461736b60681b6044820152606490fd5b15613f7a57565b60405162461bcd60e51b815260206004820152600f60248201526e105b1c9958591e4818db185a5b5959608a1b6044820152606490fd5b15613fb857565b60405162461bcd60e51b815260206004820152600f60248201526e125b9d985b1a59081c1c9bd91d58dd608a1b6044820152606490fd5b91908201809211613ffc57565b634e487b7160e01b5f52601160045260245ffd5b61ffff1661401f811515613fb1565b6103e8908101809111613ffc5790565b1561403657565b60405162461bcd60e51b815260206004820152602e60248201527f455243313135353a2063616c6c6572206973206e6f7420746f6b656e206f776e60448201526d195c881bdc88185c1c1c9bdd995960921b6064820152608490fd5b1561409957565b60405162461bcd60e51b8152602060048201526013602482015272125b9d985b1a59081858da1a595d995b595b9d606a1b6044820152606490fd5b906140de82613cd8565b6140eb6040519182613ba2565b82815280926140fc601f1991613cd8565b0190602036910137565b805182101561411a5760209160051b010190565b634e487b7160e01b5f52603260045260245ffd5b601f821161413b57505050565b5f5260205f20906020601f840160051c83019310614173575b601f0160051c01905b818110614168575050565b5f815560010161415d565b9091508190614154565b919081101561411a5760051b0190565b60185481101561411a5760185f527fb13d2d76d1f4b7be834882e410b3e3a8afaf69f83600ae24db354391d2378d2e01905f90565b156141c957565b60405162461bcd60e51b8152602060048201526012602482015271496e76616c696420686f6d6520626164676560701b6044820152606490fd5b6003546001600160a01b0316330361421757565b606460405162461bcd60e51b815260206004820152602060248201527f4f776e61626c653a2063616c6c6572206973206e6f7420746865206f776e65726044820152fd5b6040519061426882613b6c565b601b82527f5269736b4c656e732057616c6c657420436f6c6c65637469626c6500000000006020830152565b606481118061466d575b61453b5760c8811180614530575b6144a8576142b981615652565b61437b576103e881118061436e575b61430657506040516142d981613b6c565b601981527f5269736b4c656e732044656d6f20436f6c6c65637469626c6500000000000000602082015290565b61ffff61431561431b926157f8565b16615a0f565b613d58603a60405180937f5269736b4c656e73205765616c74682052656365697074202d20000000000000602083015261435e8151809260208686019101613c65565b810103601a810184520182613ba2565b50620103e78111156142c8565b6006811461446e57600781146144345760088114614405576009146143d3576040516143a681613b6c565b601981527f5269736b4c656e732050726f7465637469766520486564676500000000000000602082015290565b6040516143df81613b6c565b60168152755269736b4c656e732050657270204c6576657261676560501b602082015290565b5060405161441281613b6c565b601281527105269736b4c656e732053706f74204c6f6f760741b602082015290565b5060405161444181613b6c565b601a81527f5269736b4c656e73205061706572204c6561646572626f617264000000000000602082015290565b5060405161447b81613b6c565b601981527f5269736b4c656e73205061706572204261736520436865636b00000000000000602082015290565b60c7198101908111613ffc5760ff166001146144f7576040516144ca81613b6c565b601f81527f5269736b4c656e73205765616c7468204c6966656379636c6520426164676500602082015290565b60405161450381613b6c565b601d81527f5269736b4c656e73205765616c74682052656365697074204261646765000000602082015290565b5060ca8111156142ac565b6063198101908111613ffc5760ff1660018114614633576002811461462a57600381146145f0576004146145ad5760405161457581613b87565b602281527f5269736b4c656e73205061706572205072657669657720436f6c6c65637469626020820152616c6560f01b604082015290565b6040516145b981613b87565b602181527f5269736b4c656e732050726f64756374205175697a20436f6c6c65637469626c6020820152606560f81b604082015290565b506040516145fd81613b6c565b602081527f5269736b4c656e73205269736b2052657669657720436f6c6c65637469626c65602082015290565b50613d5861425b565b5060405161464081613b6c565b601c81527f5269736b4c656e732057656c636f6d6520436f6c6c65637469626c6500000000602082015290565b50606981111561429e565b6103e881118061490a575b6148025761469081615652565b6147b05760c88111806147a5575b61475e57606481119081614752575b50614704576040516146be81613b87565b603081527f41205365706f6c696120636f6c6c65637469626c6520666f722074686520526960208201526f39b5a632b739903232b6b790343ab11760811b604082015290565b60405161471081613b87565b602c81527f5365706f6c6961206f6e626f617264696e6720636f6c6c65637469626c65206660208201526b37b9102934b9b5a632b7399760a11b604082015290565b6069915011155f6146ad565b5060405161476b81613b87565b602481527f5365706f6c6961205765616c746820776f726b666c6f7720636f6c6c656374696020820152633136329760e11b604082015290565b5060ca81111561469e565b506040516147bd81613b87565b602f81527f5365706f6c69612070617065722d74726164696e6720616368696576656d656e60208201526e3a103337b9102934b9b5a632b7399760891b604082015290565b613d58609861482961ffff61482361481d82614315886157f8565b956157f8565b16615b1a565b926040519384917f5365706f6c6961205765616c7468207265636569707420666f72200000000000602084015261486a815180926020603b87019101613c65565b82017101710283937b23ab1ba103232ba30b4b61d160751b603b82015261489b825180936020604d85019101613c65565b017f2e20507572636861736520646174652069732074686520626c6f636b2074696d604d8201527f657374616d7020656d69747465642062792050726f6475637452656365697074606d8201526a29bab139b1b934b132b21760a91b608d820152036078810184520182613ba2565b50620103e7811115614683565b9061492182613d5b565b61492e6040519182613ba2565b82815280926140fc601f1991613d5b565b90815115614a84576040519161495483613b87565b604083527f4142434445464748494a4b4c4d4e4f505152535455565758595a61626364656660208401527f6768696a6b6c6d6e6f707172737475767778797a303132333435363738392b2f604084015280519260029160028501809511613ffc576003948590046001600160fe1b0381168103613ffc576149da9060029694961b614917565b9260208401928291835184019760208901928351945f85525b8a8110614a3757505050506003939495965052510680600114614a2557600214614a1b575090565b603d905f19015390565b50603d90815f19820153600119015390565b836004919b989b019a8b51600190603f9082828260121c16870101518453828282600c1c16870101518385015382828260061c1687010151878501531684010151858201530196996149f3565b9050604051614a9281613b51565b5f815290565b6064811180614ba8575b614b875760c8811180614b7c575b614b5457614abd81615652565b614b2a576103e881119081614b1c575b50614af257604051614ade81613b6c565b600481526344656d6f60e01b602082015290565b604051614afe81613b6c565b600e81526d15d9585b1d1a08149958d95a5c1d60921b602082015290565b620103e7915011155f614acd565b50604051614b3781613b6c565b600d81526c50617065722054726164696e6760981b602082015290565b50604051614b6181613b6c565b600b81526a5765616c7468205461736b60a81b602082015290565b5060ca811115614ab0565b50604051614b9481613b6c565b6004815263486f6d6560e01b602082015290565b506069811115614aa2565b805f917a184f03e93ff9f4daa797ed6e38ed64bf6a1f01000000000000000080821015614ce7575b506d04ee2d6d415b85acef810000000080831015614cd8575b50662386f26fc1000080831015614cc9575b506305f5e10080831015614cba575b5061271080831015614cab575b506064821015614c9b575b600a80921015614c91575b600190816021614c4a60018701614917565b95860101905b614c5c575b5050505090565b5f19019083906f181899199a1a9b1b9c1cb0b131b232b360811b8282061a835304918215614c8c57919082614c50565b614c55565b9160010191614c38565b9190606460029104910191614c2d565b6004919392049101915f614c22565b6008919392049101915f614c15565b6010919392049101915f614c06565b6020919392049101915f614bf4565b60409350810491505f614bdb565b6103e8811180614e49575b614d115750604051614a9281613b51565b614d1d61ffff916157f8565b16613d5860c1614d35614d2f84615a0f565b93615b1a565b926040519384917f2c7b2274726169745f74797065223a2250726f64756374222c2276616c7565226020840152611d1160f11b6040840152614d81815180926020604287019101613c65565b82017f227d2c7b2274726169745f74797065223a2250726f647563742064657461696c60428201526a1116113b30b63ab2911d1160a91b6062820152614dd1825180936020606d85019101613c65565b017f227d2c7b2274726169745f74797065223a225075726368617365206461746522606d8201527f2c2276616c7565223a2250726f64756374526563656970745375627363726962608d82015273656420626c6f636b2074696d657374616d70227d60601b60ad8201520360a1810184520182613ba2565b50620103e7811115614d00565b15614e5d57565b60405162461bcd60e51b815260206004820152600b60248201526a5a65726f2073686172657360a81b6044820152606490fd5b9291909260ff6008541661529f5761ffff841690614eaf821515613fb1565b600654831061526a578294614ec5841515614e56565b614ece81614010565b93604091825193614ede85613b51565b5f85526001600160a01b03811694614ef786151561566a565b614f00886164f2565b50614f0a846164f2565b50875f526020905f8252855f20875f528252855f20614f2a868254613fef565b9055865f87518b815287858201525f80516020616518833981519152893392a4823b615159575b50855f5260158152845f20875f528152845f20614f6f858254613fef565b9055614f7a83615b1a565b91855192614f8784613b22565b858452600383850194878652888101428152606082019384528a5f5260198652895f208c5f528652895f2091518255600196516001830155516002820155019051938451906001600160401b038211613b3d578995614ff083614fea8654613aea565b8661412e565b8591601f841160011461509c5750946150798a9998956150979895615072867ff94991dcbea6e8ac439cbc93bd9c62a4d39f04e0ad656df9a703f13552c2787f977f9ec85e292a34c98a43e8ffe45de1c625bdfe7e8efc23f4a9da12895a70b358159f976150899c5f92612efe5750508160011b915f199060031b1c19161790565b9055615306565b87825191818352820152a2615b1a565b925192839242908085613dfa565b0390a4565b9190601f9a9998979a198416855f52875f20935f905b82821061513f575050957f9ec85e292a34c98a43e8ffe45de1c625bdfe7e8efc23f4a9da12895a70b358159b956001868d966150899b96615079967ff94991dcbea6e8ac439cbc93bd9c62a4d39f04e0ad656df9a703f13552c2787f9a6150979f9d10615127575b505050811b019055615306565b01515f1960f88460031b161c191690555f808061511a565b8484015186558e9d509485019493890193908901906150b2565b859a989694939291999795518a81806151a063f23a6e6160e01b958683523360048401525f60248401528c604484015289606484015260a0608484015260a4830190613c86565b03815f8a5af15f918161524b575b50615214578b8b6151bd6163ee565b6308c379a0146151e0575b505162461bcd60e51b81528061069f60048201616476565b6151e8616409565b90816151f457506151c8565b61069f835192839262461bcd60e51b845260048401526024830190613c86565b63ffffffff60e09c97999b93949596989a9c1b1603615233575f614f51565b845162461bcd60e51b81528061069f600482016163a5565b6152639192508c8d3d1061072b5761071c8183613ba2565b905f6151ae565b60405162461bcd60e51b815260206004820152600d60248201526c42656c6f77206d696e696d756d60981b6044820152606490fd5b60405162461bcd60e51b815260206004820152601460248201527314dd589cd8dc9a5c1d1a5bdb9cc81c185d5cd95960621b6044820152606490fd5b60ff16600181149081156152ed575090565b600291501490565b60ff1660c8018060c811613ffc5790565b6001600160a01b0381165f818152600f60209081526040808320600180855290835292819020805460ff191684179055919383156154c15760c95f525f8252825f20845f528252825f20541561535e575b5050505050565b82519061536a82613b51565b5f8252835161537881613b6c565b8681528381019084368337511561411a5760c990526153956164cb565b5060c95f525f8352835f20855f528352835f20805490878201809211613ffc5755845f855160c9815288868201525f80516020616518833981519152873392a43b61540c575b5050507fbd1ae2c6d13c1a8dc9dbe03823192cb9ab92b45e5b9264dd65b2794c526e6f9f5f80a35f80808080615357565b8295939194925185818061544f63f23a6e6160e01b958683523360048401525f602484015260c9604484015288606484015260a0608484015260a4830190613c86565b03815f875af15f91816154a2575b5061546c5786866151bd6163ee565b939592945090926001600160e01b0319160361548b57505f80806153db565b5162461bcd60e51b81528061069f600482016163a5565b6154ba919250873d891161072b5761071c8183613ba2565b905f61545d565b50608491519062461bcd60e51b82526004820152602a60248201527f455243313135353a2061646472657373207a65726f206973206e6f742061207660448201526930b634b21037bbb732b960b11b6064820152fd5b1561551e57565b60405162461bcd60e51b815260206004820152602860248201527f455243313135353a2069647320616e6420616d6f756e7473206c656e677468206044820152670dad2e6dac2e8c6d60c31b6064820152608490fd5b1561557b57565b60405162461bcd60e51b815260206004820152602560248201527f455243313135353a207472616e7366657220746f20746865207a65726f206164604482015264647265737360d81b6064820152608490fd5b156155d557565b60405162461bcd60e51b815260206004820152602a60248201527f455243313135353a20696e73756666696369656e742062616c616e636520666f60448201526939103a3930b739b332b960b11b6064820152608490fd5b9091615644613d5893604084526040840190613dc7565b916020818403910152613dc7565b60068110159081615661575090565b600a9150111590565b1561567157565b60405162461bcd60e51b815260206004820152602160248201527f455243313135353a206d696e7420746f20746865207a65726f206164647265736044820152607360f81b6064820152608490fd5b91906001600160a01b0383166156d781151561566a565b6156e0826164f2565b506156e96164cb565b50815f526020925f8452604094855f20835f528552855f2080549060018201809211613ffc5755825f87518681526001888201525f80516020616518833981519152893392a43b61573b575050505050565b926157825f9286979583975194858094819363f23a6e6160e01b998a845233600485015284602485015260448401526001606484015260a0608484015260a4830190613c86565b03925af15f91816157be575b5061579e575050506151bd6163ee565b919392506001600160e01b03199091160361548b57505f80808080615357565b6157d6919250853d871161072b5761071c8183613ba2565b905f61578e565b60ff16600181101590816157ef575090565b60059150111590565b6103e719810191908211613ffc57565b91908203918211613ffc57565b90929161ffff841690615829821515613fb1565b615834811515614e56565b61583e8195614010565b926001600160a01b03169081156159be57615858846164f2565b50615862816164f2565b506040905f825161587281613b51565b52845f526020905f8252825f20845f528252825f205481811061596e5790807f7c7917c3334372c8a1ab0009b4314b5fa722b2ae8bb2603b7195279aeb45a37a949392885f525f8452845f20875f52845203835f20555f85845189815283858201525f80516020616518833981519152863392a45f83516158f281613b51565b525f85815260158352838120878252835283902054818181106159605750505f5b855f5260158352835f20875f528352835f2055847ff3a670cd3af7d64b488926880889d08a8585a138ff455227af6737339a1ec2628480518481528486820152a2825191818352820152a4565b61596991615808565b615913565b835162461bcd60e51b8152600481018490526024808201527f455243313135353a206275726e20616d6f756e7420657863656564732062616c604482015263616e636560e01b6064820152608490fd5b60405162461bcd60e51b815260206004820152602360248201527f455243313135353a206275726e2066726f6d20746865207a65726f206164647260448201526265737360e81b6064820152608490fd5b61ffff16805f526016602052615a2760405f20613bc3565b908151615a7e57615a389150614bb3565b613d58603060405180936f5765616c74682050726f64756374202360801b6020830152615a6e8151809260208686019101613c65565b8101036010810184520182613ba2565b5090565b60015f526017602052615ab47ff36d6bc9642eb6fb6ee9998b09ce990566df752ab06e11f8de7ab633bbd57b8f613bc3565b8051613d585750604051615ac781613b87565b603c81527f536574746c656d656e74207465726d73207265636f7264656420696e2074686560208201527f205269736b4c656e73205765616c74682064657461696c207061676500000000604082015290565b61ffff165f526017602052615ab460405f20613bc3565b6103e8811180615c9b575b615c775760c8811180615c6c575b615c4857615b5781615652565b615c2457606481119081615c18575b8180615c00575b615bdb5781615bc2575b50615b9f57604051615b8881613b6c565b60078152662342364646343360c81b602082015290565b604051615bab81613b6c565b600781526611a32322189b1b60c91b602082015290565b606319810191508111613ffc5760ff166003145f615b77565b5050604051615be981613b6c565b600781526611a32321199b2160c91b602082015290565b506063198101818111613ffc5760ff16600414615b6d565b60698111159150615b66565b50604051615c3181613b6c565b6007815266119b9b209ca32360c91b602082015290565b50604051615c5581613b6c565b600781526608cd0e510d90cd60ca1b602082015290565b5060ca811115615b4a565b50604051615c8481613b6c565b600781526611a19c23231b2160c91b602082015290565b50620103e7811115615b3c565b6103e8811180615d7d575b615d435760c8811180615d38575b615d0c57615cce90615652565b615cda57613d5861425b565b604051615ce681613b6c565b60168152755269736b4c656e732050617065722054726164696e6760501b602082015290565b50604051615d1981613b6c565b600f81526e0a4d2e6d698cadce640aecac2d8e8d608b1b602082015290565b5060ca811115615cc1565b50604051615d5081613b6c565b601781527f5269736b4c656e73205765616c74682052656365697074000000000000000000602082015290565b50620103e7811115615cb3565b60405190615d9782613b6c565b60068252650ae8a8298a8960d31b6020830152565b6103e8811180615e2d575b615e195760c8811180615e22575b615e1957615dd290615652565b615df857604051615de281613b6c565b600681526515d05313115560d21b602082015290565b604051615e0481613b6c565b60058152642820a822a960d91b602082015290565b50613d58615d8a565b5060ca811115615dc5565b50620103e7811115615db7565b6103e881118061613b575b6160e25760c88111806160d7575b61606d57615e6081615652565b615f94576064811180615f89575b615e9a5750604051615e7f81613b6c565b600b81526a434f4c4c45435449424c4560a81b602082015290565b6063198101908111613ffc5760ff1660018114615f655760028114615f415760038114615f1957600414615ef157604051615ed481613b6c565b600d81526c5041504552205052455649455760981b602082015290565b604051615efd81613b6c565b600c81526b282927a22aa1aa1028aaa4ad60a11b602082015290565b50604051615f2681613b6c565b600b81526a5249534b2052455649455760a81b602082015290565b50604051615f4e81613b6c565b600781526610d3d3939150d560ca1b602082015290565b50604051615f7281613b6c565b600781526657454c434f4d4560c81b602082015290565b506069811115615e6e565b60068114616046576007811461601e5760088114615ff857600914615fd457604051615fbf81613b6c565b6005815264484544474560d81b602082015290565b604051615fe081613b6c565b60088152674c4556455241474560c01b602082015290565b5060405161600581613b6c565b6009815268053504f54204c4f4f560bc1b602082015290565b5060405161602b81613b6c565b600b81526a1311505111549093d0549160aa1b602082015290565b5060405161605381613b6c565b600a8152694241534520434845434b60b01b602082015290565b60c7198101908111613ffc5760ff166001036160ac5760405161608f81613b6c565b600d81526c5245434549505420424144474560981b602082015290565b6040516160b881613b6c565b600f81526e4c4946454359434c4520424144474560881b602082015290565b5060ca811115615e53565b6103e7198101908111613ffc5761ffff6160fc9116614bb3565b613d58602960405180936852454345495054202360b81b602083015261612b8151809260208686019101613c65565b8101036009810184520182613ba2565b50620103e7811115615e45565b6103e8811180616263575b6162295760c881118061621e575b6161e45761616e90615652565b6161ab5760405161617e81613b6c565b601d81527f4f6e626f617264696e67206d696c6573746f6e65207265636f72646564000000602082015290565b6040516161b781613b6c565b601b81527f5265706c617920616368696576656d656e74207265636f726465640000000000602082015290565b506040516161f181613b6c565b601b81527f576f726b666c6f77206d696c6573746f6e65207265636f726465640000000000602082015290565b5060ca811115616161565b5060405161623681613b6c565b602081527f537562736372697074696f6e207265636569707420736861726573206c697665602082015290565b50620103e7811115616153565b6103e8811180616378575b61633e5760c8811180616333575b6163035761629690615652565b6162ca576040516162a681613b6c565b60148152733337b9103a3432902934b9b5a632b73990343ab160611b602082015290565b6040516162d681613b6c565b601981527f666f72207468652073696d756c6174696f6e2077616c6c657400000000000000602082015290565b5060405161631081613b6c565b6013815272666f7220746865205765616c746820666c6f7760681b602082015290565b5060ca811115616289565b5060405161634b81613b6c565b601781527f696e2074686520636f6e6e65637465642077616c6c6574000000000000000000602082015290565b50620103e781111561627b565b908160209103126103b057516001600160e01b0319811681036103b05790565b60809060208152602860208201527f455243313135353a204552433131353552656365697665722072656a656374656040820152676420746f6b656e7360c01b60608201520190565b5f9060033d116163fa57565b905060045f803e5f5160e01c90565b5f60443d10613d5857604051600319913d83016004833e81516001600160401b03918282113d6024840111176164655781840194855193841161646d573d850101602084870101116164655750613d5892910160200190613ba2565b949350505050565b50949350505050565b60809060208152603460208201527f455243313135353a207472616e7366657220746f206e6f6e2d455243313135356040820152732932b1b2b4bb32b91034b6b83632b6b2b73a32b960611b60608201520190565b6040516164d781613b6c565b6001815260208101602036823781511561411a576001905290565b604051906164ff82613b6c565b6001825260208201602036823782511561411a57529056fec3d58168c5ae7397731d063d5bbf3d657854427343f4c083240f7aacaa2d0f62a264697066735822122082edb8067c852f228a59c6c3da9de285dc96bed0970cfd6adf5f00b6da2338ee64736f6c63430008180033",
  "linkReferences": {},
  "deployedLinkReferences": {},
  "immutableReferences": {},
  "inputSourceName": "project/contracts/MSXUnifiedDemoHub.sol",
  "buildInfoId": "solc-0_8_24-9359eed084cdec5bd48e19222710d13e1f8b0ac6"
}