{
  "_format": "hh3-artifact-1",
  "contractName": "MSXUnifiedDemoHub",
  "sourceName": "contracts/MSXUnifiedDemoHub.sol",
  "abi": [
    {
      "inputs": [
        {
          "internalType": "string",
          "name": "baseUri",
          "type": "string"
        }
      ],
      "stateMutability": "nonpayable",
      "type": "constructor"
    },
    {
      "anonymous": false,
      "inputs": [
        {
          "indexed": true,
          "internalType": "address",
          "name": "account",
          "type": "address"
        },
        {
          "indexed": true,
          "internalType": "uint256",
          "name": "achievementId",
          "type": "uint256"
        }
      ],
      "name": "AchievementClaimed",
      "type": "event"
    },
    {
      "anonymous": false,
      "inputs": [
        {
          "indexed": true,
          "internalType": "address",
          "name": "account",
          "type": "address"
        },
        {
          "indexed": true,
          "internalType": "address",
          "name": "operator",
          "type": "address"
        },
        {
          "indexed": false,
          "internalType": "bool",
          "name": "approved",
          "type": "bool"
        }
      ],
      "name": "ApprovalForAll",
      "type": "event"
    },
    {
      "anonymous": false,
      "inputs": [
        {
          "indexed": false,
          "internalType": "bytes32",
          "name": "attestationRoot",
          "type": "bytes32"
        },
        {
          "indexed": false,
          "internalType": "uint256",
          "name": "timestamp",
          "type": "uint256"
        }
      ],
      "name": "AttestationUpdated",
      "type": "event"
    },
    {
      "anonymous": false,
      "inputs": [
        {
          "indexed": true,
          "internalType": "address",
          "name": "investor",
          "type": "address"
        },
        {
          "indexed": false,
          "internalType": "bool",
          "name": "allowed",
          "type": "bool"
        },
        {
          "indexed": true,
          "internalType": "uint8",
          "name": "tier",
          "type": "uint8"
        }
      ],
      "name": "InvestorEligibilityUpdated",
      "type": "event"
    },
    {
      "anonymous": false,
      "inputs": [
        {
          "indexed": false,
          "internalType": "uint256",
          "name": "navBps",
          "type": "uint256"
        },
        {
          "indexed": false,
          "internalType": "uint256",
          "name": "timestamp",
          "type": "uint256"
        }
      ],
      "name": "NavUpdated",
      "type": "event"
    },
    {
      "anonymous": false,
      "inputs": [
        {
          "indexed": true,
          "internalType": "address",
          "name": "previousOwner",
          "type": "address"
        },
        {
          "indexed": true,
          "internalType": "address",
          "name": "newOwner",
          "type": "address"
        }
      ],
      "name": "OwnershipTransferred",
      "type": "event"
    },
    {
      "anonymous": false,
      "inputs": [
        {
          "indexed": true,
          "internalType": "uint16",
          "name": "productId",
          "type": "uint16"
        },
        {
          "indexed": false,
          "internalType": "string",
          "name": "detail",
          "type": "string"
        }
      ],
      "name": "ProductReceiptDetailUpdated",
      "type": "event"
    },
    {
      "anonymous": false,
      "inputs": [
        {
          "indexed": true,
          "internalType": "uint16",
          "name": "productId",
          "type": "uint16"
        },
        {
          "indexed": false,
          "internalType": "string",
          "name": "label",
          "type": "string"
        }
      ],
      "name": "ProductReceiptLabelUpdated",
      "type": "event"
    },
    {
      "anonymous": false,
      "inputs": [
        {
          "indexed": true,
          "internalType": "uint16",
          "name": "productId",
          "type": "uint16"
        },
        {
          "indexed": false,
          "internalType": "string",
          "name": "productType",
          "type": "string"
        },
        {
          "indexed": false,
          "internalType": "string",
          "name": "maturity",
          "type": "string"
        }
      ],
      "name": "ProductReceiptMetadataUpdated",
      "type": "event"
    },
    {
      "anonymous": false,
      "inputs": [
        {
          "indexed": true,
          "internalType": "address",
          "name": "investor",
          "type": "address"
        },
        {
          "indexed": true,
          "internalType": "uint16",
          "name": "productId",
          "type": "uint16"
        },
        {
          "indexed": true,
          "internalType": "uint256",
          "name": "tokenId",
          "type": "uint256"
        },
        {
          "indexed": false,
          "internalType": "uint256",
          "name": "shareAmount",
          "type": "uint256"
        },
        {
          "indexed": false,
          "internalType": "uint256",
          "name": "assetAmount",
          "type": "uint256"
        }
      ],
      "name": "ProductReceiptRedeemed",
      "type": "event"
    },
    {
      "anonymous": false,
      "inputs": [
        {
          "indexed": true,
          "internalType": "address",
          "name": "investor",
          "type": "address"
        },
        {
          "indexed": true,
          "internalType": "uint16",
          "name": "fromProductId",
          "type": "uint16"
        },
        {
          "indexed": true,
          "internalType": "uint16",
          "name": "toProductId",
          "type": "uint16"
        },
        {
          "indexed": false,
          "internalType": "uint256",
          "name": "burnAmount",
          "type": "uint256"
        },
        {
          "indexed": false,
          "internalType": "uint256",
          "name": "mintAmount",
          "type": "uint256"
        }
      ],
      "name": "ProductReceiptSettled",
      "type": "event"
    },
    {
      "anonymous": false,
      "inputs": [
        {
          "indexed": true,
          "internalType": "address",
          "name": "investor",
          "type": "address"
        },
        {
          "indexed": true,
          "internalType": "uint16",
          "name": "productId",
          "type": "uint16"
        },
        {
          "indexed": true,
          "internalType": "uint256",
          "name": "tokenId",
          "type": "uint256"
        },
        {
          "indexed": false,
          "internalType": "uint256",
          "name": "assetAmount",
          "type": "uint256"
        },
        {
          "indexed": false,
          "internalType": "uint256",
          "name": "shareAmount",
          "type": "uint256"
        },
        {
          "indexed": false,
          "internalType": "uint256",
          "name": "purchasedAt",
          "type": "uint256"
        },
        {
          "indexed": false,
          "internalType": "string",
          "name": "productDetail",
          "type": "string"
        }
      ],
      "name": "ProductReceiptSubscribed",
      "type": "event"
    },
    {
      "anonymous": false,
      "inputs": [
        {
          "indexed": true,
          "internalType": "address",
          "name": "investor",
          "type": "address"
        },
        {
          "indexed": false,
          "internalType": "uint256",
          "name": "shareAmount",
          "type": "uint256"
        },
        {
          "indexed": false,
          "internalType": "uint256",
          "name": "assetAmount",
          "type": "uint256"
        }
      ],
      "name": "Redeemed",
      "type": "event"
    },
    {
      "anonymous": false,
      "inputs": [
        {
          "indexed": true,
          "internalType": "address",
          "name": "account",
          "type": "address"
        },
        {
          "indexed": false,
          "internalType": "int256",
          "name": "netPnl",
          "type": "int256"
        },
        {
          "indexed": false,
          "internalType": "uint256",
          "name": "accountValue",
          "type": "uint256"
        },
        {
          "indexed": false,
          "internalType": "uint256",
          "name": "tradeCount",
          "type": "uint256"
        },
        {
          "indexed": false,
          "internalType": "uint256",
          "name": "submittedAt",
          "type": "uint256"
        }
      ],
      "name": "ReplayScoreSubmitted",
      "type": "event"
    },
    {
      "anonymous": false,
      "inputs": [
        {
          "indexed": false,
          "internalType": "string",
          "name": "status",
          "type": "string"
        },
        {
          "indexed": false,
          "internalType": "uint256",
          "name": "timestamp",
          "type": "uint256"
        }
      ],
      "name": "StrategyStatusUpdated",
      "type": "event"
    },
    {
      "anonymous": false,
      "inputs": [
        {
          "indexed": true,
          "internalType": "address",
          "name": "investor",
          "type": "address"
        },
        {
          "indexed": false,
          "internalType": "uint256",
          "name": "assetAmount",
          "type": "uint256"
        },
        {
          "indexed": false,
          "internalType": "uint256",
          "name": "shareAmount",
          "type": "uint256"
        }
      ],
      "name": "Subscribed",
      "type": "event"
    },
    {
      "anonymous": false,
      "inputs": [
        {
          "indexed": true,
          "internalType": "address",
          "name": "recipient",
          "type": "address"
        },
        {
          "indexed": true,
          "internalType": "uint8",
          "name": "badgeType",
          "type": "uint8"
        },
        {
          "indexed": true,
          "internalType": "uint256",
          "name": "tokenId",
          "type": "uint256"
        }
      ],
      "name": "TaskBadgeMinted",
      "type": "event"
    },
    {
      "anonymous": false,
      "inputs": [
        {
          "indexed": true,
          "internalType": "address",
          "name": "operator",
          "type": "address"
        },
        {
          "indexed": true,
          "internalType": "address",
          "name": "from",
          "type": "address"
        },
        {
          "indexed": true,
          "internalType": "address",
          "name": "to",
          "type": "address"
        },
        {
          "indexed": false,
          "internalType": "uint256[]",
          "name": "ids",
          "type": "uint256[]"
        },
        {
          "indexed": false,
          "internalType": "uint256[]",
          "name": "values",
          "type": "uint256[]"
        }
      ],
      "name": "TransferBatch",
      "type": "event"
    },
    {
      "anonymous": false,
      "inputs": [
        {
          "indexed": true,
          "internalType": "address",
          "name": "operator",
          "type": "address"
        },
        {
          "indexed": true,
          "internalType": "address",
          "name": "from",
          "type": "address"
        },
        {
          "indexed": true,
          "internalType": "address",
          "name": "to",
          "type": "address"
        },
        {
          "indexed": false,
          "internalType": "uint256",
          "name": "id",
          "type": "uint256"
        },
        {
          "indexed": false,
          "internalType": "uint256",
          "name": "value",
          "type": "uint256"
        }
      ],
      "name": "TransferSingle",
      "type": "event"
    },
    {
      "anonymous": false,
      "inputs": [
        {
          "indexed": false,
          "internalType": "string",
          "name": "value",
          "type": "string"
        },
        {
          "indexed": true,
          "internalType": "uint256",
          "name": "id",
          "type": "uint256"
        }
      ],
      "name": "URI",
      "type": "event"
    },
    {
      "anonymous": false,
      "inputs": [
        {
          "indexed": true,
          "internalType": "bytes32",
          "name": "assetHash",
          "type": "bytes32"
        },
        {
          "indexed": false,
          "internalType": "bool",
          "name": "passed",
          "type": "bool"
        },
        {
          "indexed": false,
          "internalType": "string",
          "name": "note",
          "type": "string"
        }
      ],
      "name": "UnderlyingReviewRecorded",
      "type": "event"
    },
    {
      "anonymous": false,
      "inputs": [
        {
          "indexed": true,
          "internalType": "address",
          "name": "account",
          "type": "address"
        },
        {
          "indexed": true,
          "internalType": "uint8",
          "name": "taskId",
          "type": "uint8"
        }
      ],
      "name": "WealthTaskCompleted",
      "type": "event"
    },
    {
      "anonymous": false,
      "inputs": [
        {
          "indexed": true,
          "internalType": "address",
          "name": "account",
          "type": "address"
        },
        {
          "indexed": true,
          "internalType": "uint8",
          "name": "taskId",
          "type": "uint8"
        },
        {
          "indexed": false,
          "internalType": "int256",
          "name": "realizedPnl",
          "type": "int256"
        },
        {
          "indexed": false,
          "internalType": "bytes32",
          "name": "evidenceHash",
          "type": "bytes32"
        }
      ],
      "name": "WealthTaskEvidenceRecorded",
      "type": "event"
    },
    {
      "inputs": [],
      "name": "ASSET_DECIMALS",
      "outputs": [
        {
          "internalType": "uint8",
          "name": "",
          "type": "uint8"
        }
      ],
      "stateMutability": "view",
      "type": "function"
    },
    {
      "inputs": [],
      "name": "BPS",
      "outputs": [
        {
          "internalType": "uint256",
          "name": "",
          "type": "uint256"
        }
      ],
      "stateMutability": "view",
      "type": "function"
    },
    {
      "inputs": [],
      "name": "DEFAULT_WEALTH_PRODUCT_ID",
      "outputs": [
        {
          "internalType": "uint16",
          "name": "",
          "type": "uint16"
        }
      ],
      "stateMutability": "view",
      "type": "function"
    },
    {
      "inputs": [],
      "name": "HOME_PAPER",
      "outputs": [
        {
          "internalType": "uint8",
          "name": "",
          "type": "uint8"
        }
      ],
      "stateMutability": "view",
      "type": "function"
    },
    {
      "inputs": [],
      "name": "HOME_QUIZ",
      "outputs": [
        {
          "internalType": "uint8",
          "name": "",
          "type": "uint8"
        }
      ],
      "stateMutability": "view",
      "type": "function"
    },
    {
      "inputs": [],
      "name": "HOME_RISK",
      "outputs": [
        {
          "internalType": "uint8",
          "name": "",
          "type": "uint8"
        }
      ],
      "stateMutability": "view",
      "type": "function"
    },
    {
      "inputs": [],
      "name": "HOME_WALLET",
      "outputs": [
        {
          "internalType": "uint8",
          "name": "",
          "type": "uint8"
        }
      ],
      "stateMutability": "view",
      "type": "function"
    },
    {
      "inputs": [],
      "name": "HOME_WELCOME",
      "outputs": [
        {
          "internalType": "uint8",
          "name": "",
          "type": "uint8"
        }
      ],
      "stateMutability": "view",
      "type": "function"
    },
    {
      "inputs": [],
      "name": "MAX_SCORE_SUBMISSIONS_PER_DAY",
      "outputs": [
        {
          "internalType": "uint256",
          "name": "",
          "type": "uint256"
        }
      ],
      "stateMutability": "view",
      "type": "function"
    },
    {
      "inputs": [],
      "name": "PAPER_BASE_CHECK",
      "outputs": [
        {
          "internalType": "uint256",
          "name": "",
          "type": "uint256"
        }
      ],
      "stateMutability": "view",
      "type": "function"
    },
    {
      "inputs": [],
      "name": "PAPER_LEADERBOARD",
      "outputs": [
        {
          "internalType": "uint256",
          "name": "",
          "type": "uint256"
        }
      ],
      "stateMutability": "view",
      "type": "function"
    },
    {
      "inputs": [],
      "name": "PAPER_PERP_LEVERAGE",
      "outputs": [
        {
          "internalType": "uint256",
          "name": "",
          "type": "uint256"
        }
      ],
      "stateMutability": "view",
      "type": "function"
    },
    {
      "inputs": [],
      "name": "PAPER_PROTECTIVE_HEDGE",
      "outputs": [
        {
          "internalType": "uint256",
          "name": "",
          "type": "uint256"
        }
      ],
      "stateMutability": "view",
      "type": "function"
    },
    {
      "inputs": [],
      "name": "PAPER_SPOT_LOOP",
      "outputs": [
        {
          "internalType": "uint256",
          "name": "",
          "type": "uint256"
        }
      ],
      "stateMutability": "view",
      "type": "function"
    },
    {
      "inputs": [],
      "name": "WEALTH_DUAL_PROFIT",
      "outputs": [
        {
          "internalType": "uint8",
          "name": "",
          "type": "uint8"
        }
      ],
      "stateMutability": "view",
      "type": "function"
    },
    {
      "inputs": [],
      "name": "WEALTH_PLEDGE",
      "outputs": [
        {
          "internalType": "uint8",
          "name": "",
          "type": "uint8"
        }
      ],
      "stateMutability": "view",
      "type": "function"
    },
    {
      "inputs": [],
      "name": "WEALTH_PROFITABLE_TRADE",
      "outputs": [
        {
          "internalType": "uint8",
          "name": "",
          "type": "uint8"
        }
      ],
      "stateMutability": "view",
      "type": "function"
    },
    {
      "inputs": [
        {
          "internalType": "bytes32",
          "name": "",
          "type": "bytes32"
        }
      ],
      "name": "approvedUnderlyingHash",
      "outputs": [
        {
          "internalType": "bool",
          "name": "",
          "type": "bool"
        }
      ],
      "stateMutability": "view",
      "type": "function"
    },
    {
      "inputs": [],
      "name": "assetSymbol",
      "outputs": [
        {
          "internalType": "string",
          "name": "",
          "type": "string"
        }
      ],
      "stateMutability": "view",
      "type": "function"
    },
    {
      "inputs": [
        {
          "internalType": "address",
          "name": "account",
          "type": "address"
        },
        {
          "internalType": "uint256",
          "name": "id",
          "type": "uint256"
        }
      ],
      "name": "balanceOf",
      "outputs": [
        {
          "internalType": "uint256",
          "name": "",
          "type": "uint256"
        }
      ],
      "stateMutability": "view",
      "type": "function"
    },
    {
      "inputs": [
        {
          "internalType": "address[]",
          "name": "accounts",
          "type": "address[]"
        },
        {
          "internalType": "uint256[]",
          "name": "ids",
          "type": "uint256[]"
        }
      ],
      "name": "balanceOfBatch",
      "outputs": [
        {
          "internalType": "uint256[]",
          "name": "",
          "type": "uint256[]"
        }
      ],
      "stateMutability": "view",
      "type": "function"
    },
    {
      "inputs": [
        {
          "internalType": "address",
          "name": "investor",
          "type": "address"
        }
      ],
      "name": "canAccessAdvancedShelf",
      "outputs": [
        {
          "internalType": "bool",
          "name": "",
          "type": "bool"
        }
      ],
      "stateMutability": "view",
      "type": "function"
    },
    {
      "inputs": [
        {
          "internalType": "uint256",
          "name": "achievementId",
          "type": "uint256"
        }
      ],
      "name": "claim",
      "outputs": [],
      "stateMutability": "nonpayable",
      "type": "function"
    },
    {
      "inputs": [
        {
          "internalType": "uint256[]",
          "name": "achievementIds",
          "type": "uint256[]"
        }
      ],
      "name": "claimBatch",
      "outputs": [],
      "stateMutability": "nonpayable",
      "type": "function"
    },
    {
      "inputs": [
        {
          "internalType": "address",
          "name": "",
          "type": "address"
        }
      ],
      "name": "eligibleInvestor",
      "outputs": [
        {
          "internalType": "bool",
          "name": "",
          "type": "bool"
        }
      ],
      "stateMutability": "view",
      "type": "function"
    },
    {
      "inputs": [
        {
          "internalType": "address",
          "name": "holder",
          "type": "address"
        }
      ],
      "name": "hasMinted",
      "outputs": [
        {
          "internalType": "bool",
          "name": "",
          "type": "bool"
        }
      ],
      "stateMutability": "view",
      "type": "function"
    },
    {
      "inputs": [
        {
          "internalType": "address",
          "name": "",
          "type": "address"
        },
        {
          "internalType": "uint8",
          "name": "",
          "type": "uint8"
        }
      ],
      "name": "hasMintedBadge",
      "outputs": [
        {
          "internalType": "bool",
          "name": "",
          "type": "bool"
        }
      ],
      "stateMutability": "view",
      "type": "function"
    },
    {
      "inputs": [
        {
          "internalType": "address",
          "name": "holder",
          "type": "address"
        },
        {
          "internalType": "uint8",
          "name": "badgeType",
          "type": "uint8"
        }
      ],
      "name": "hasMintedTask",
      "outputs": [
        {
          "internalType": "bool",
          "name": "",
          "type": "bool"
        }
      ],
      "stateMutability": "view",
      "type": "function"
    },
    {
      "inputs": [
        {
          "internalType": "address",
          "name": "",
          "type": "address"
        }
      ],
      "name": "hasSubmittedScore",
      "outputs": [
        {
          "internalType": "bool",
          "name": "",
          "type": "bool"
        }
      ],
      "stateMutability": "view",
      "type": "function"
    },
    {
      "inputs": [
        {
          "internalType": "address",
          "name": "holder",
          "type": "address"
        },
        {
          "internalType": "uint8",
          "name": "taskId",
          "type": "uint8"
        }
      ],
      "name": "hasWealthTask",
      "outputs": [
        {
          "internalType": "bool",
          "name": "",
          "type": "bool"
        }
      ],
      "stateMutability": "view",
      "type": "function"
    },
    {
      "inputs": [
        {
          "internalType": "address",
          "name": "account",
          "type": "address"
        },
        {
          "internalType": "address",
          "name": "operator",
          "type": "address"
        }
      ],
      "name": "isApprovedForAll",
      "outputs": [
        {
          "internalType": "bool",
          "name": "",
          "type": "bool"
        }
      ],
      "stateMutability": "view",
      "type": "function"
    },
    {
      "inputs": [],
      "name": "lastAttestedAt",
      "outputs": [
        {
          "internalType": "uint256",
          "name": "",
          "type": "uint256"
        }
      ],
      "stateMutability": "view",
      "type": "function"
    },
    {
      "inputs": [],
      "name": "latestAttestationRoot",
      "outputs": [
        {
          "internalType": "bytes32",
          "name": "",
          "type": "bytes32"
        }
      ],
      "stateMutability": "view",
      "type": "function"
    },
    {
      "inputs": [
        {
          "internalType": "uint8",
          "name": "taskId",
          "type": "uint8"
        }
      ],
      "name": "markWealthTask",
      "outputs": [],
      "stateMutability": "nonpayable",
      "type": "function"
    },
    {
      "inputs": [
        {
          "internalType": "uint8",
          "name": "taskId",
          "type": "uint8"
        },
        {
          "internalType": "int256",
          "name": "realizedPnl",
          "type": "int256"
        },
        {
          "internalType": "bytes32",
          "name": "evidenceHash",
          "type": "bytes32"
        }
      ],
      "name": "markWealthTaskWithEvidence",
      "outputs": [],
      "stateMutability": "nonpayable",
      "type": "function"
    },
    {
      "inputs": [],
      "name": "minSubscription",
      "outputs": [
        {
          "internalType": "uint256",
          "name": "",
          "type": "uint256"
        }
      ],
      "stateMutability": "view",
      "type": "function"
    },
    {
      "inputs": [
        {
          "internalType": "uint8",
          "name": "badgeType",
          "type": "uint8"
        },
        {
          "internalType": "address",
          "name": "to",
          "type": "address"
        }
      ],
      "name": "mintBadge",
      "outputs": [
        {
          "internalType": "uint256",
          "name": "tokenId",
          "type": "uint256"
        }
      ],
      "stateMutability": "nonpayable",
      "type": "function"
    },
    {
      "inputs": [
        {
          "internalType": "address",
          "name": "to",
          "type": "address"
        }
      ],
      "name": "mintWelcomeBadge",
      "outputs": [
        {
          "internalType": "uint256",
          "name": "tokenId",
          "type": "uint256"
        }
      ],
      "stateMutability": "nonpayable",
      "type": "function"
    },
    {
      "inputs": [],
      "name": "navBps",
      "outputs": [
        {
          "internalType": "uint256",
          "name": "",
          "type": "uint256"
        }
      ],
      "stateMutability": "view",
      "type": "function"
    },
    {
      "inputs": [],
      "name": "nextHomeTokenId",
      "outputs": [
        {
          "internalType": "uint256",
          "name": "",
          "type": "uint256"
        }
      ],
      "stateMutability": "view",
      "type": "function"
    },
    {
      "inputs": [],
      "name": "owner",
      "outputs": [
        {
          "internalType": "address",
          "name": "",
          "type": "address"
        }
      ],
      "stateMutability": "view",
      "type": "function"
    },
    {
      "inputs": [
        {
          "internalType": "uint256",
          "name": "shareAmount",
          "type": "uint256"
        }
      ],
      "name": "previewAssets",
      "outputs": [
        {
          "internalType": "uint256",
          "name": "",
          "type": "uint256"
        }
      ],
      "stateMutability": "view",
      "type": "function"
    },
    {
      "inputs": [
        {
          "internalType": "uint256",
          "name": "assetAmount",
          "type": "uint256"
        }
      ],
      "name": "previewShares",
      "outputs": [
        {
          "internalType": "uint256",
          "name": "",
          "type": "uint256"
        }
      ],
      "stateMutability": "view",
      "type": "function"
    },
    {
      "inputs": [
        {
          "internalType": "uint16",
          "name": "",
          "type": "uint16"
        }
      ],
      "name": "productReceiptDetail",
      "outputs": [
        {
          "internalType": "string",
          "name": "",
          "type": "string"
        }
      ],
      "stateMutability": "view",
      "type": "function"
    },
    {
      "inputs": [
        {
          "internalType": "uint16",
          "name": "",
          "type": "uint16"
        }
      ],
      "name": "productReceiptLabel",
      "outputs": [
        {
          "internalType": "string",
          "name": "",
          "type": "string"
        }
      ],
      "stateMutability": "view",
      "type": "function"
    },
    {
      "inputs": [
        {
          "internalType": "uint16",
          "name": "",
          "type": "uint16"
        }
      ],
      "name": "productReceiptMaturity",
      "outputs": [
        {
          "internalType": "string",
          "name": "",
          "type": "string"
        }
      ],
      "stateMutability": "view",
      "type": "function"
    },
    {
      "inputs": [
        {
          "internalType": "uint16",
          "name": "",
          "type": "uint16"
        }
      ],
      "name": "productReceiptType",
      "outputs": [
        {
          "internalType": "string",
          "name": "",
          "type": "string"
        }
      ],
      "stateMutability": "view",
      "type": "function"
    },
    {
      "inputs": [
        {
          "internalType": "uint16",
          "name": "productId",
          "type": "uint16"
        }
      ],
      "name": "receiptTokenId",
      "outputs": [
        {
          "internalType": "uint256",
          "name": "",
          "type": "uint256"
        }
      ],
      "stateMutability": "pure",
      "type": "function"
    },
    {
      "inputs": [
        {
          "internalType": "bytes32",
          "name": "assetHash",
          "type": "bytes32"
        },
        {
          "internalType": "bool",
          "name": "passed",
          "type": "bool"
        },
        {
          "internalType": "string",
          "name": "note",
          "type": "string"
        }
      ],
      "name": "recordUnderlyingReview",
      "outputs": [],
      "stateMutability": "nonpayable",
      "type": "function"
    },
    {
      "inputs": [
        {
          "internalType": "uint256",
          "name": "shareAmount",
          "type": "uint256"
        }
      ],
      "name": "redeem",
      "outputs": [
        {
          "internalType": "uint256",
          "name": "assetAmount",
          "type": "uint256"
        }
      ],
      "stateMutability": "nonpayable",
      "type": "function"
    },
    {
      "inputs": [
        {
          "internalType": "uint16",
          "name": "productId",
          "type": "uint16"
        },
        {
          "internalType": "uint256",
          "name": "shareAmount",
          "type": "uint256"
        }
      ],
      "name": "redeemProduct",
      "outputs": [
        {
          "internalType": "uint256",
          "name": "assetAmount",
          "type": "uint256"
        }
      ],
      "stateMutability": "nonpayable",
      "type": "function"
    },
    {
      "inputs": [],
      "name": "renounceOwnership",
      "outputs": [],
      "stateMutability": "nonpayable",
      "type": "function"
    },
    {
      "inputs": [
        {
          "internalType": "address",
          "name": "",
          "type": "address"
        }
      ],
      "name": "replayScoreOf",
      "outputs": [
        {
          "internalType": "int256",
          "name": "bestNetPnl",
          "type": "int256"
        },
        {
          "internalType": "uint256",
          "name": "bestAccountValue",
          "type": "uint256"
        },
        {
          "internalType": "uint256",
          "name": "bestTradeCount",
          "type": "uint256"
        },
        {
          "internalType": "uint256",
          "name": "lastSubmittedAt",
          "type": "uint256"
        },
        {
          "internalType": "uint256",
          "name": "submissionCount",
          "type": "uint256"
        },
        {
          "internalType": "uint256",
          "name": "submissionDay",
          "type": "uint256"
        },
        {
          "internalType": "uint256",
          "name": "submissionsToday",
          "type": "uint256"
        }
      ],
      "stateMutability": "view",
      "type": "function"
    },
    {
      "inputs": [
        {
          "internalType": "address",
          "name": "",
          "type": "address"
        }
      ],
      "name": "riskTier",
      "outputs": [
        {
          "internalType": "uint8",
          "name": "",
          "type": "uint8"
        }
      ],
      "stateMutability": "view",
      "type": "function"
    },
    {
      "inputs": [
        {
          "internalType": "address",
          "name": "from",
          "type": "address"
        },
        {
          "internalType": "address",
          "name": "to",
          "type": "address"
        },
        {
          "internalType": "uint256[]",
          "name": "ids",
          "type": "uint256[]"
        },
        {
          "internalType": "uint256[]",
          "name": "amounts",
          "type": "uint256[]"
        },
        {
          "internalType": "bytes",
          "name": "data",
          "type": "bytes"
        }
      ],
      "name": "safeBatchTransferFrom",
      "outputs": [],
      "stateMutability": "nonpayable",
      "type": "function"
    },
    {
      "inputs": [
        {
          "internalType": "address",
          "name": "from",
          "type": "address"
        },
        {
          "internalType": "address",
          "name": "to",
          "type": "address"
        },
        {
          "internalType": "uint256",
          "name": "id",
          "type": "uint256"
        },
        {
          "internalType": "uint256",
          "name": "amount",
          "type": "uint256"
        },
        {
          "internalType": "bytes",
          "name": "data",
          "type": "bytes"
        }
      ],
      "name": "safeTransferFrom",
      "outputs": [],
      "stateMutability": "nonpayable",
      "type": "function"
    },
    {
      "inputs": [
        {
          "internalType": "uint256",
          "name": "index",
          "type": "uint256"
        }
      ],
      "name": "scoreAccountAt",
      "outputs": [
        {
          "internalType": "address",
          "name": "",
          "type": "address"
        }
      ],
      "stateMutability": "view",
      "type": "function"
    },
    {
      "inputs": [],
      "name": "scoreAccountCount",
      "outputs": [
        {
          "internalType": "uint256",
          "name": "",
          "type": "uint256"
        }
      ],
      "stateMutability": "view",
      "type": "function"
    },
    {
      "inputs": [
        {
          "internalType": "address",
          "name": "operator",
          "type": "address"
        },
        {
          "internalType": "bool",
          "name": "approved",
          "type": "bool"
        }
      ],
      "name": "setApprovalForAll",
      "outputs": [],
      "stateMutability": "nonpayable",
      "type": "function"
    },
    {
      "inputs": [
        {
          "internalType": "string",
          "name": "nextUri",
          "type": "string"
        }
      ],
      "name": "setBaseUri",
      "outputs": [],
      "stateMutability": "nonpayable",
      "type": "function"
    },
    {
      "inputs": [
        {
          "internalType": "address",
          "name": "investor",
          "type": "address"
        },
        {
          "internalType": "bool",
          "name": "allowed",
          "type": "bool"
        },
        {
          "internalType": "uint8",
          "name": "tier",
          "type": "uint8"
        }
      ],
      "name": "setInvestorEligibility",
      "outputs": [],
      "stateMutability": "nonpayable",
      "type": "function"
    },
    {
      "inputs": [
        {
          "internalType": "uint256",
          "name": "nextMinSubscription",
          "type": "uint256"
        }
      ],
      "name": "setMinSubscription",
      "outputs": [],
      "stateMutability": "nonpayable",
      "type": "function"
    },
    {
      "inputs": [
        {
          "internalType": "uint256",
          "name": "nextNavBps",
          "type": "uint256"
        }
      ],
      "name": "setNavBps",
      "outputs": [],
      "stateMutability": "nonpayable",
      "type": "function"
    },
    {
      "inputs": [
        {
          "internalType": "uint16",
          "name": "productId",
          "type": "uint16"
        },
        {
          "internalType": "string",
          "name": "detail",
          "type": "string"
        }
      ],
      "name": "setProductReceiptDetail",
      "outputs": [],
      "stateMutability": "nonpayable",
      "type": "function"
    },
    {
      "inputs": [
        {
          "internalType": "uint16",
          "name": "productId",
          "type": "uint16"
        },
        {
          "internalType": "string",
          "name": "label",
          "type": "string"
        }
      ],
      "name": "setProductReceiptLabel",
      "outputs": [],
      "stateMutability": "nonpayable",
      "type": "function"
    },
    {
      "inputs": [
        {
          "internalType": "uint16",
          "name": "productId",
          "type": "uint16"
        },
        {
          "internalType": "string",
          "name": "productType",
          "type": "string"
        },
        {
          "internalType": "string",
          "name": "maturity",
          "type": "string"
        }
      ],
      "name": "setProductReceiptMetadata",
      "outputs": [],
      "stateMutability": "nonpayable",
      "type": "function"
    },
    {
      "inputs": [
        {
          "internalType": "string",
          "name": "nextStatus",
          "type": "string"
        }
      ],
      "name": "setStrategyStatus",
      "outputs": [],
      "stateMutability": "nonpayable",
      "type": "function"
    },
    {
      "inputs": [
        {
          "internalType": "bool",
          "name": "paused",
          "type": "bool"
        }
      ],
      "name": "setSubscriptionsPaused",
      "outputs": [],
      "stateMutability": "nonpayable",
      "type": "function"
    },
    {
      "inputs": [
        {
          "internalType": "uint16",
          "name": "fromProductId",
          "type": "uint16"
        },
        {
          "internalType": "uint16",
          "name": "toProductId",
          "type": "uint16"
        },
        {
          "internalType": "uint256",
          "name": "burnAmount",
          "type": "uint256"
        },
        {
          "internalType": "uint256",
          "name": "mintAmount",
          "type": "uint256"
        }
      ],
      "name": "settleProduct",
      "outputs": [
        {
          "internalType": "uint256",
          "name": "assetAmount",
          "type": "uint256"
        },
        {
          "internalType": "uint256",
          "name": "mintedAmount",
          "type": "uint256"
        }
      ],
      "stateMutability": "nonpayable",
      "type": "function"
    },
    {
      "inputs": [],
      "name": "strategyStatus",
      "outputs": [
        {
          "internalType": "string",
          "name": "",
          "type": "string"
        }
      ],
      "stateMutability": "view",
      "type": "function"
    },
    {
      "inputs": [
        {
          "internalType": "int256",
          "name": "netPnl",
          "type": "int256"
        },
        {
          "internalType": "uint256",
          "name": "accountValue",
          "type": "uint256"
        },
        {
          "internalType": "uint256",
          "name": "tradeCount",
          "type": "uint256"
        }
      ],
      "name": "submitScore",
      "outputs": [],
      "stateMutability": "nonpayable",
      "type": "function"
    },
    {
      "inputs": [
        {
          "internalType": "uint256",
          "name": "assetAmount",
          "type": "uint256"
        }
      ],
      "name": "subscribe",
      "outputs": [
        {
          "internalType": "uint256",
          "name": "shareAmount",
          "type": "uint256"
        }
      ],
      "stateMutability": "nonpayable",
      "type": "function"
    },
    {
      "inputs": [
        {
          "internalType": "uint16",
          "name": "productId",
          "type": "uint16"
        },
        {
          "internalType": "uint256",
          "name": "assetAmount",
          "type": "uint256"
        }
      ],
      "name": "subscribeProduct",
      "outputs": [
        {
          "internalType": "uint256",
          "name": "shareAmount",
          "type": "uint256"
        }
      ],
      "stateMutability": "nonpayable",
      "type": "function"
    },
    {
      "inputs": [],
      "name": "subscriptionsPaused",
      "outputs": [
        {
          "internalType": "bool",
          "name": "",
          "type": "bool"
        }
      ],
      "stateMutability": "view",
      "type": "function"
    },
    {
      "inputs": [
        {
          "internalType": "bytes4",
          "name": "interfaceId",
          "type": "bytes4"
        }
      ],
      "name": "supportsInterface",
      "outputs": [
        {
          "internalType": "bool",
          "name": "",
          "type": "bool"
        }
      ],
      "stateMutability": "view",
      "type": "function"
    },
    {
      "inputs": [
        {
          "internalType": "uint256",
          "name": "",
          "type": "uint256"
        }
      ],
      "name": "tokenBadgeType",
      "outputs": [
        {
          "internalType": "uint8",
          "name": "",
          "type": "uint8"
        }
      ],
      "stateMutability": "view",
      "type": "function"
    },
    {
      "inputs": [
        {
          "internalType": "address",
          "name": "newOwner",
          "type": "address"
        }
      ],
      "name": "transferOwnership",
      "outputs": [],
      "stateMutability": "nonpayable",
      "type": "function"
    },
    {
      "inputs": [
        {
          "internalType": "bytes32",
          "name": "nextAttestationRoot",
          "type": "bytes32"
        }
      ],
      "name": "updateAttestation",
      "outputs": [],
      "stateMutability": "nonpayable",
      "type": "function"
    },
    {
      "inputs": [
        {
          "internalType": "uint256",
          "name": "tokenId",
          "type": "uint256"
        }
      ],
      "name": "uri",
      "outputs": [
        {
          "internalType": "string",
          "name": "",
          "type": "string"
        }
      ],
      "stateMutability": "view",
      "type": "function"
    },
    {
      "inputs": [],
      "name": "vaultLabel",
      "outputs": [
        {
          "internalType": "string",
          "name": "",
          "type": "string"
        }
      ],
      "stateMutability": "view",
      "type": "function"
    },
    {
      "inputs": [
        {
          "internalType": "address",
          "name": "",
          "type": "address"
        },
        {
          "internalType": "uint16",
          "name": "",
          "type": "uint16"
        }
      ],
      "name": "wealthReceiptProofOf",
      "outputs": [
        {
          "internalType": "uint256",
          "name": "lastAssetAmount",
          "type": "uint256"
        },
        {
          "internalType": "uint256",
          "name": "lastShareAmount",
          "type": "uint256"
        },
        {
          "internalType": "uint256",
          "name": "purchasedAt",
          "type": "uint256"
        },
        {
          "internalType": "string",
          "name": "productDetail",
          "type": "string"
        }
      ],
      "stateMutability": "view",
      "type": "function"
    },
    {
      "inputs": [
        {
          "internalType": "address",
          "name": "",
          "type": "address"
        },
        {
          "internalType": "uint16",
          "name": "",
          "type": "uint16"
        }
      ],
      "name": "wealthReceiptShares",
      "outputs": [
        {
          "internalType": "uint256",
          "name": "",
          "type": "uint256"
        }
      ],
      "stateMutability": "view",
      "type": "function"
    },
    {
      "inputs": [
        {
          "internalType": "address",
          "name": "",
          "type": "address"
        },
        {
          "internalType": "uint8",
          "name": "",
          "type": "uint8"
        }
      ],
      "name": "wealthTaskCompleted",
      "outputs": [
        {
          "internalType": "bool",
          "name": "",
          "type": "bool"
        }
      ],
      "stateMutability": "view",
      "type": "function"
    },
    {
      "inputs": [
        {
          "internalType": "address",
          "name": "",
          "type": "address"
        },
        {
          "internalType": "uint8",
          "name": "",
          "type": "uint8"
        }
      ],
      "name": "wealthTaskEvidenceHash",
      "outputs": [
        {
          "internalType": "bytes32",
          "name": "",
          "type": "bytes32"
        }
      ],
      "stateMutability": "view",
      "type": "function"
    },
    {
      "inputs": [
        {
          "internalType": "address",
          "name": "",
          "type": "address"
        },
        {
          "internalType": "uint8",
          "name": "",
          "type": "uint8"
        }
      ],
      "name": "wealthTaskRealizedPnl",
      "outputs": [
        {
          "internalType": "int256",
          "name": "",
          "type": "int256"
        }
      ],
      "stateMutability": "view",
      "type": "function"
    }
  ],
  "bytecode": "0x608060405234620003465762005ca8803803806200001d816200034a565b9283398101906020918282820312620003465781516001600160401b039283821162000346570191601f9180838501121562000346578351938285116200031e57601f199462000073858201871688016200034a565b92818452878284010111620003465786915f5b82811062000332575050905f918301015280519182116200031e57620000ae60025462000370565b838111620002e2575b5084938383116001146200027f5750928192935f9262000273575b50508160011b915f199060031b1c1916176002555b60038054336001600160a01b0319821681179092556001600160a01b03167f8be0079c531659141344cd1fd0a4f28419497f9722a3daafe3b4186f6b6457e05f80a360016004556127106005556101f460065562000147600b5462000370565b81811162000251575b507f5269736b4c656e7320556e69666965642044656d6f205661756c740000000036600b55600c54620001839062000370565b8181116200022f575b50600461141560f21b01600c55600a54620001a79062000370565b908082116200020d575b7f44656d6f20726561647900000000000000000000000000000000000000000014600a557f326aeea7abf8a20d2ae5c71811b6e16c6ad80e0128362081ef8dd5af3774b9c0600955426007556040516158e49081620003c48239f35b6200022692600a5f525f20910160051c810190620003ab565b5f8080620001b1565b6200024a90600c5f5282845f20910160051c810190620003ab565b5f6200018c565b6200026c90600b5f5282845f20910160051c810190620003ab565b5f62000150565b015190505f80620000d2565b82169360025f52855f20915f5b87878210620002cb575050836001959610620002b2575b505050811b01600255620000e7565b01515f1960f88460031b161c191690555f8080620002a3565b60018495829395850151815501940192016200028c565b6200030d9060025f52865f208580860160051c82019289871062000314575b0160051c0190620003ab565b5f620000b7565b9250819262000301565b634e487b7160e01b5f52604160045260245ffd5b818101840151858201850152830162000086565b5f80fd5b6040519190601f01601f191682016001600160401b038111838210176200031e57604052565b90600182811c92168015620003a0575b60208310146200038c57565b634e487b7160e01b5f52602260045260245ffd5b91607f169162000380565b818110620003b7575050565b5f8155600101620003ab56fe604060808152600480361015610013575f80fd5b5f3560e01c9081629b27af14613732578162fdd58e1461370a57816301b4597d146136b957816301ffc9a71461364d57816302cea26b146135fd5781630765b4b4146135c95781630e89341c146133f55781630f574ba71461307d578163176de7a814612fce578163176f1cdd14612f1f578163179649ad14612e7f5781631a2e999614612d7d5781631b6c218e14612b0d5781631de3083d14612af2578163218900b414612ad4578163249d39e914612ab857816327dac9e214612a6f5781632baa752114612a4a5781632e6f6b1f14612a2c5781632eb2c2d6146127925781632f85874a146127745781632fb4e0f914612693578163325116ee14612678578163379607f51461260b57816338e21cce146125c657816341be5f64146125a85781634973fd9a1461257c5781634adb4cc81461255e5781634d7c10a7146125225781634e1273f4146123b6578163513f84011461220d5781635216333714611f5357816355cc026114611d7057816357997aa214611d555781635acc900914611d215781635ad32a3c14611cb7578163619a1d2914611c8e57816362abebce146119fc578163663c39d2146118e25781636961fd46146117395781636b3ce2f1146116dd5781636ea17abd146116c2578163715018a6146116675781637206abbd146114ac57816374b3322c146114625781637cea070a146114475781638385f14a1461142b5781638530a3bf14611401578163889d1002146113cd5781638909e506146113255781638d00bbe5146112d25781638da5cb5b146112aa5781638f631d541461128f57816393b9e5ae1461124657816399b49e25146111ed5781639a2aaca114611165578163a0bcfc7f14610fe1578163a22cb46514610f00578163aec45d8014610e9f578163b363935c14610481578163b5884e2014610e02578163b7d120d014610db7578163b84d93d414610d7d578163c056e1e3146107a2578163c4ebe02414610d62578163c8a3c3b514610cec578163cad471921461047c578163cb33bcdb14610c9b578163ceb0f6d814610965578163cf22928d14610c78578163d28c390a14610c2e578163d4b0521b14610bb3578163d92fa2c614610b83578163db006a751461096a578163dcb2125b14610965578163e985e9c514610917578163eda7c56e146107a7578163eeaa8177146107a2578163f242432a14610567578163f2fde38b1461049c578163f4db898414610481578163f64bfa591461047c578163f68e55c31461041c57508063f766dee4146104015763f9569673146103c2575f80fd5b346103fd5760203660031901126103fd576020906001600160a01b036103e6613777565b165f526014825260ff815f20541690519015158152f35b5f80fd5b50346103fd575f3660031901126103fd5760209051600a8152f35b9050346103fd5760203660031901126103fd5780359161043a613f19565b8215610447576006839055005b906020606492519162461bcd60e51b8352820152600f60248201526e496e76616c6964206d696e696d756d60881b6044820152fd5b613b71565b82346103fd575f3660031901126103fd576020905160068152f35b9050346103fd5760203660031901126103fd576104b7613777565b906104c0613f19565b6001600160a01b03918216928315610515575050600354826bffffffffffffffffffffffff60a01b821617600355167f8be0079c531659141344cd1fd0a4f28419497f9722a3daafe3b4186f6b6457e05f80a3005b906020608492519162461bcd60e51b8352820152602660248201527f4f776e61626c653a206e6577206f776e657220697320746865207a65726f206160448201526564647265737360d01b6064820152fd5b9050346103fd5760a03660031901126103fd57610582613777565b9161058b61378d565b9260443590606435906084356001600160401b0381116103fd576105b29036908701613aa7565b916001600160a01b0391821691338314801561077f575b6105d290613d94565b87166105df811515615095565b6105e885615869565b506105f282615869565b50845f526020975f8952865f20845f52895282875f2054610615828210156150ef565b875f525f8b52885f20865f528b5203875f2055855f525f8952865f20825f528952865f20610644848254613d54565b905581848851888152858c8201525f8051602061588f8339815191528a3392a43b61066b57005b86945f89946106ad89519788968795869463f23a6e6160e01b9c8d8752339087015260248601526044850152606484015260a0608484015260a4830190613981565b03925af15f9181610750575b506107215750506106c8615765565b6308c379a0146106f0575b5162461bcd60e51b8152915081906106ec9082016157ed565b0390fd5b6106f8615780565b8061070357506106d3565b6106ec915193849362461bcd60e51b85528401526024830190613981565b9193506001600160e01b03199091160361073757005b905162461bcd60e51b81529081906106ec90820161571c565b610771919250863d8811610778575b610769818361389d565b8101906156fc565b905f6106b9565b503d61075f565b50825f526001602052855f20335f526020526105d260ff875f20541690506105c9565b613b56565b9050346103fd5761ffff906107bb36613b18565b92916107c8949194613f19565b16926107d5841515613cc7565b835f5260209160168352855f20906001600160401b03851161090457506108068461080083546137e5565b83613d05565b5f601f851160011461087c579561086c929161085a86807f866aab14c7f7439fa866f885f22e8a9fce19f006d3956137b07f4284346bac9c999a5f91610871575b508160011b915f199060031b1c19161790565b90555b51938385948552840191613c27565b0390a2005b90508501355f610847565b601f19851690825f52845f20915f5b8181106108ed57509161086c949391877f866aab14c7f7439fa866f885f22e8a9fce19f006d3956137b07f4284346bac9c999a94106108d4575b5050600186811b01905561085d565b8401355f19600389901b60f8161c191690555f806108c5565b91928660018192868901358155019401920161088b565b604190634e487b7160e01b5f525260245ffd5b82346103fd57806003193601126103fd57602090610933613777565b61093b61378d565b9060018060a01b038091165f5260018452825f2091165f52825260ff815f20541690519015158152f35b613b8c565b9050346103fd57602091826003193601126103fd5781359161098d831515614b94565b3315610b365781519061099f82613867565b6001825284820191853684375115610b23576103e98092526109c084615869565b505f83516109cd8161384c565b52815f525f8552825f20335f528552825f205490848210610ad457508390825f525f8652835f20335f52865203825f20555f8251828152848682015233905f8051602061588f833981519152853392a45f8251610a298161384c565b52335f908152601585528281206001825285528290205483818110610ac65750505f5b335f5260158552825f2060015f528552825f2055815183815283858201527ff3a670cd3af7d64b488926880889d08a8585a138ff455227af6737339a1ec262833392a26001825184815284868201527f7c7917c3334372c8a1ab0009b4314b5fa722b2ae8bb2603b7195279aeb45a37a843392a451908152f35b610acf91615341565b610a4c565b835162461bcd60e51b81529081018690526024808201527f455243313135353a206275726e20616d6f756e7420657863656564732062616c604482015263616e636560e01b6064820152608490fd5b603290634e487b7160e01b5f525260245ffd5b83608492519162461bcd60e51b8352820152602360248201527f455243313135353a206275726e2066726f6d20746865207a65726f206164647260448201526265737360e81b6064820152fd5b82346103fd57806003193601126103fd57602090610bac610ba26137c3565b602435903361534e565b9051908152f35b9050346103fd5760203660031901126103fd57803590601c54821015610bf557602083610bdf84613ea3565b905491519160018060a01b039160031b1c168152f35b606490602084519162461bcd60e51b83528201526013602482015272496e646578206f7574206f6620626f756e647360681b6044820152fd5b9050346103fd5760203660031901126103fd57600554813581810292918115918404141715610c6557506127106020925191048152f35b601190634e487b7160e01b5f525260245ffd5b82346103fd575f3660031901126103fd5760209060ff6008541690519015158152f35b82346103fd57806003193601126103fd57602090610cb7613777565b610cbf6137a3565b6001600160a01b039091165f908152600f845282812060ff92831682528452829020549151911615158152f35b82346103fd5760203660031901126103fd5760e0916001600160a01b03610d11613777565b165f526013602052815f208054926001820154926002830154600384015491840154926006600586015495015495815197885260208801528601526060850152608084015260a083015260c0820152f35b82346103fd575f3660031901126103fd576020905160038152f35b82346103fd5760203660031901126103fd576020906001600160a01b03610da2613777565b165f526011825260ff815f2054169051908152f35b82346103fd5760203660031901126103fd57610dfe9061ffff610dd86137c3565b165f526016602052610deb815f206138be565b9051918291602083526020830190613981565b0390f35b82346103fd5760603660031901126103fd57610e1c613777565b90610e25613768565b6044359260ff84168094036103fd577fa0aa2b85df88566521daa2ac1eb0694994372f9f1e64a41307f9d06a571f921291602091610e61613f19565b6001600160a01b03165f81815260108452859020805460ff191660ff841515161790559360118352805f208660ff19825416179055519015158152a3005b82346103fd57806003193601126103fd57602090610ebb613777565b610ec36137a3565b90610ed5610ed08361500c565b613c47565b6001600160a01b03165f908152600f845282812060ff92831682528452829020549151911615158152f35b82346103fd57806003193601126103fd57610f19613777565b90610f22613768565b6001600160a01b0390921692338414610f8d5750335f526001602052805f20835f52602052610f5f82825f209060ff801983541691151516179055565b5190151581527f17307eab39ab6107e8899845ad3d59bd9653f200f220920489ca2b5937696c3160203392a3005b6020608492519162461bcd60e51b8352820152602960248201527f455243313135353a2073657474696e6720617070726f76616c20737461747573604482015268103337b91039b2b63360b91b6064820152fd5b346103fd576020806003193601126103fd576001600160401b039082358281116103fd5761101561102491369086016139a6565b61101d613f19565b3691613a71565b928351928311610904575061103a6002546137e5565b601f8111611102575b50602090601f831160011461108457508190611074935f92611079575b50508160011b915f199060031b1c19161790565b600255005b015190508380611060565b90601f1983169360025f527f405787fa12a823e0f2b7631cc41b3ba8828b3321ca811111fa75cd3aa3bb5ace925f905b8682106110ea57505083600195106110d2575b505050811b01600255005b01515f1960f88460031b161c191690558280806110c7565b806001859682949686015181550195019301906110b4565b60025f527f405787fa12a823e0f2b7631cc41b3ba8828b3321ca811111fa75cd3aa3bb5ace601f840160051c8101916020851061115b575b601f0160051c01905b8181106111505750611043565b5f8155600101611143565b909150819061113a565b82346103fd5760203660031901126103fd578135611181613f19565b80156111bc577f1e1223c1f6274c6d64fdb08c485e192bd2896c9abf70e840e199ac1f54d6d1d59250806005558151908152426020820152a1005b815162461bcd60e51b8152602081850152600b60248201526a24b73b30b634b2102720ab60a91b6044820152606490fd5b82346103fd5760203660031901126103fd576020906001600160a01b03611212613777565b165f526010825260ff815f205416908161122f575b519015158152f35b905060118252600260ff825f205416101590611227565b82346103fd57806003193601126103fd57602090611262613777565b61126a6137a3565b9060018060a01b03165f52601b835260ff825f2091165f528252805f20549051908152f35b9050346103fd575f3660031901126103fd5760209151908152f35b82346103fd575f3660031901126103fd5760035490516001600160a01b039091168152602090f35b82346103fd5760203660031901126103fd577f181f92f68826a8d2b5b97d27f9e18d05a337290356fabf5b717154077dbea933913561130f613f19565b80600955426007558151908152426020820152a1005b82346103fd5760803660031901126103fd5761133f6137c3565b6113476137d4565b5f9060443560643561135a82863361534e565b9461ffff9182851694851515806113c4575b6113af575b508751938452602084015216907f031b66f6d8a6a3252233defe3a4204c77215f4ddd23783ce33b9b3d9a86b6ac6863392a482519182526020820152f35b819650906113bd9133614bce565b9488611371565b5081151561136c565b82346103fd5760203660031901126103fd57610dfe9061ffff6113ee6137c3565b165f526019602052610deb815f206138be565b82346103fd5760203660031901126103fd57602091355f52600e825260ff815f2054169051908152f35b82346103fd575f3660031901126103fd57602091549051908152f35b82346103fd575f3660031901126103fd576020905160018152f35b82346103fd57806003193601126103fd5760209061147e613777565b6114866137d4565b9060018060a01b03165f526015835261ffff825f2091165f528252805f20549051908152f35b9050346103fd57816003193601126103fd576114c66137b3565b916114cf61378d565b926114e16114dc82615316565b613ed8565b6001600160a01b0384168015611630578033036115fc57805f52602094600d865260ff845f20931692835f52865260ff845f2054166115c257845494600186018087116115af578155825f52600d8752845f20845f528752845f2060ff1990600182825416179055865f52600e885284865f2091825416179055836064019081606411610c655750859392916115859186519161157d8361384c565b5f83526151e1565b7f4c7380f1d23a71f74fa1303f23b7100826e4a89a4e47b2985e5c708e47a19b3a5f80a451908152f35b601182634e487b7160e01b5f525260245ffd5b835162461bcd60e51b8152808601879052601460248201527310985919d948185b1c9958591e481b5a5b9d195960621b6044820152606490fd5b825162461bcd60e51b8152602081860152600e60248201526d13db9b1e481cd95b19881b5a5b9d60921b6044820152606490fd5b825162461bcd60e51b81526020818601526011602482015270125b9d985b1a59081c9958da5c1a595b9d607a1b6044820152606490fd5b346103fd575f3660031901126103fd5761167f613f19565b600380546001600160a01b031981169091555f906001600160a01b03167f8be0079c531659141344cd1fd0a4f28419497f9722a3daafe3b4186f6b6457e08280a3005b82346103fd575f3660031901126103fd576020905160078152f35b82346103fd57806003193601126103fd576020906116f9613777565b6117016137a3565b9061170e6114dc83615316565b6001600160a01b03165f908152600d845282812060ff92831682528452829020549151911615158152f35b9050346103fd5760603660031901126103fd5780359160243560443592335f526013602052825f20906201518042046014602052845f20805460ff81161561187f575b50506005830181815403611871575b50506006820190815492600384101561182e5780829154891361181a575b4260038201550180549060018201809211611807575560018301809311610c65575055815193845260208401528201524260608201527ff6d69723c1e13a6e751ff8839d394f04ffffc588fdd13a7cfd1fdfc1bf87ebe160803392a2005b601183634e487b7160e01b5f525260245ffd5b8881558560018201558760028201556117a9565b855162461bcd60e51b8152602081840152601960248201527f4461696c792073636f7265206c696d69742072656163686564000000000000006044820152606490fd5b555f60068301555f8061178b565b60ff19166001179055601c54680100000000000000008110156118cf578060016118ac9201601c55613ea3565b81546001600160a01b0360039290921b91821b19163390911b1790555f8061177c565b604183634e487b7160e01b5f525260245ffd5b9050346103fd5761ffff906118f636613b18565b9291611903949194613f19565b1692611910841515613cc7565b835f5260209160178352855f20906001600160401b038511610904575061193b8461080083546137e5565b5f601f851160011461198e579561086c929161085a86807fb16cf5b05c6e7e92f2299a1d0894bbf220a63a7b1ccc786436c3d89d18df7bbe999a5f9161087157508160011b915f199060031b1c19161790565b601f19851690825f52845f20915f5b8181106119e557509161086c949391877fb16cf5b05c6e7e92f2299a1d0894bbf220a63a7b1ccc786436c3d89d18df7bbe999a94106108d4575050600186811b01905561085d565b91928660018192868901358155019401920161199d565b82346103fd576020916003199183833601126103fd578135936001600160401b038086116103fd57366023870112156103fd57858401359081116103fd576024860195602436918360051b0101116103fd57611a5781613e39565b905f5b818110611c4a5750611a6d3682896139ea565b94845196611a7a8861384c565b5f8852611a8833151561518b565b611a958751855114615038565b5f5b8751811015611adc5780611aad60019287613e6b565b51611ab8828b613e6b565b515f525f8852885f20335f528852611ad4895f20918254613d54565b905501611a97565b5090949395919684515f33917f4a39dc06d4c0dbc64b70af90fd698a233a518aa5d07e595d983b8c0526c8f7fb339180611b178a8a8361514e565b0390a4333b611b6d575b505050505050505f5b818110611b3357005b80611b416001928486613e93565b35337f04844d30b922ffc2b845400eb2a15cdd62742176c723e09d7cc9703e83645e4b5f80a301611b2a565b8597949698959392611bcf8a93611bb093611bc08b51978896879663bc197c8160e01b9b8c895233908901525f602489015260a0604489015260a4880190613ac2565b9084878303016064880152613ac2565b91848303016084850152613981565b03815f335af15f9181611c2b575b50611bee57505050506106c8615765565b929550909392916001600160e01b03191603611c1257505082808080808080611b21565b5162461bcd60e51b8152915081906106ec90820161571c565b611c43919250883d8a1161077857610769818361389d565b9088611bdd565b80611c7c611c76611c5e600194868d613e93565b35611c70611c6b82615173565b613df7565b33613ba7565b15613c89565b81611c878286613e6b565b5201611a5a565b82346103fd57806003193601126103fd57602090610bac611cad6137c3565b6024359033614bce565b82346103fd57806003193601126103fd57611cd0613777565b611cd86137d4565b9060018060a01b03165f52601d60205261ffff825f2091165f52602052805f2090610dfe825491600184015493611d166003600283015492016138be565b915194859485613af5565b82346103fd5760203660031901126103fd57610dfe9061ffff611d426137c3565b165f526018602052610deb815f206138be565b82346103fd575f3660031901126103fd576020905160088152f35b9050346103fd576020806003193601126103fd576001600160401b039082358281116103fd57611da390369085016139a6565b939092611dae613f19565b84116109045750611dc0600a546137e5565b601f8111611ef0575b505f90601f8411600114611e4757507f09fb0a9f79f07cf16c95b92623175f408d609663d7868ae62581439d923470bd9391611e1d8480611e31945f91611e3c57508160011b915f199060031b1c19161790565b600a555b8251938385948552840191613c27565b4260208301520390a1005b90508301355f610847565b90601f198416600a5f527fc65a7bb8d6351c1cf70c95a316cc6a92839c986682d98bc35f958f4883f9d2a8925f905b828210611ed8575050917f09fb0a9f79f07cf16c95b92623175f408d609663d7868ae62581439d923470bd95939185611e319410611ebf575b5050600184811b01600a55611e21565b8201355f19600387901b60f8161c191690555f80611eaf565b80600185968294968901358155019501930190611e76565b600a5f527fc65a7bb8d6351c1cf70c95a316cc6a92839c986682d98bc35f958f4883f9d2a8601f850160051c81019160208610611f49575b601f0160051c01905b818110611f3e5750611dc9565b5f8155600101611f31565b9091508190611f28565b9050346103fd57602091826003193601126103fd57611f70613777565b916001600160a01b03831680156121d7578033036121a457805f52600d8552825f2091600192835f52865260ff845f20541661216a57805494838601808711611807578255825f52600d8752845f20845f528752845f2060ff19908582825416179055865f52600e885284865f2091825416179055845190611ff18261384c565b5f82528551611fff81613867565b85815288810190893683375115612157576065905261201c615842565b5060655f525f8852855f20845f528852855f208054908682018092116121445755835f875160658152878b8201525f8051602061588f833981519152893392a43b612091575b50509083917f4c7380f1d23a71f74fa1303f23b7100826e4a89a4e47b2985e5c708e47a19b3a5f80a451908152f35b849593929195518781806120d363f23a6e6160e01b95868352338c8401525f60248401526065604484015288606484015260a0608484015260a4830190613981565b03815f875af15f9181612125575b506120f1578787876106c8615765565b63ffffffff60e097939495971b160361210c5750835f612062565b835162461bcd60e51b81529081906106ec90820161571c565b61213d919250893d8b1161077857610769818361389d565b905f6120e1565b601185634e487b7160e01b5f525260245ffd5b603284634e487b7160e01b5f525260245ffd5b835162461bcd60e51b8152908101869052601460248201527310985919d948185b1c9958591e481b5a5b9d195960621b6044820152606490fd5b5083606492519162461bcd60e51b8352820152600e60248201526d13db9b1e481cd95b19881b5a5b9d60921b6044820152fd5b5083606492519162461bcd60e51b83528201526011602482015270125b9d985b1a59081c9958da5c1a595b9d607a1b6044820152fd5b82346103fd5760603660031901126103fd576122276137b3565b6024359160443561223a610ed08461500c565b612249611c76611c7085615027565b80156123805760ff831694600186148015612376575b612334575b50335f526122b5602093600f8552835f20875f528552835f20600160ff19825416179055335f52601b8552835f20875f52855285845f2055335f52601a8552835f20875f52855282845f2055615027565b926122c08433613ba7565b156122c757005b6123017fcfdb31fa548aa2c58dcf9c124e888cfd6afefe9fe228a5cc829205ab69b69e0c948451906122f88261384c565b5f8252336151e1565b82519486337fbd1ae2c6d13c1a8dc9dbe03823192cb9ab92b45e5b9264dd65b2794c526e6f9f5f80a385528401523392a3005b5f851361226457606490602084519162461bcd60e51b83528201526015602482015274141bdcda5d1a5d9948141b93081c995c5d5a5c9959605a1b6044820152fd5b506003861461225f565b815162461bcd60e51b8152602081870152601060248201526f4d697373696e672065766964656e636560801b6044820152606490fd5b82346103fd57806003193601126103fd576001600160401b039180358381116103fd57366023820112156103fd5780820135936123f2856139d3565b916123ff8551938461389d565b85835260209560248785019160051b830101913683116103fd57602401905b828210612503575050506024359081116103fd5761243f9036908401613a38565b9181518351036124ae57506124548151613e39565b935f5b825181101561249c5760019061248b6001600160a01b036124788387613e6b565b51166124848388613e6b565b5190613ba7565b6124958289613e6b565b5201612457565b845182815280610dfe81850189613ac2565b835162461bcd60e51b8152908101859052602960248201527f455243313135353a206163636f756e747320616e6420696473206c656e677468604482015268040dad2e6dac2e8c6d60bb1b6064820152608490fd5b81356001600160a01b03811681036103fd57815290870190870161241e565b82346103fd5760203660031901126103fd576020906001600160a01b03612547613777565b165f526010825260ff815f20541690519015158152f35b82346103fd575f3660031901126103fd576020906007549051908152f35b82346103fd5760203660031901126103fd57602091355f526012825260ff815f20541690519015158152f35b82346103fd575f3660031901126103fd576020906006549051908152f35b82346103fd5760203660031901126103fd576020906001600160a01b036125eb613777565b165f52600d8252805f2060015f52825260ff815f20541690519015158152f35b9050346103fd5760203660031901126103fd57612651903591612630611c6b84615173565b61263d611c768433613ba7565b516126478161384c565b5f815282336151e1565b337f04844d30b922ffc2b845400eb2a15cdd62742176c723e09d7cc9703e83645e4b5f80a3005b82346103fd575f3660031901126103fd576020905160098152f35b82346103fd575f3660031901126103fd578051600b549091825f6126b6846137e5565b808352602094600190866001821691825f146127525750506001146126f7575b5050610dfe92916126e891038561389d565b51928284938452830190613981565b90859250600b5f527f0175b7a638427703f0dbe7bb9bbf987a2551717b34e79f33b5b1008d1fa01db9915f925b82841061273a57505050820101816126e86126d6565b8054848a018601528895508794909301928101612724565b60ff19168682015292151560051b850190920192508391506126e890506126d6565b82346103fd575f3660031901126103fd57602090601c549051908152f35b9050346103fd576003199060a0368301126103fd576127af613777565b916127b861378d565b926001600160401b03926044358481116103fd576127d99036908301613a38565b906064358581116103fd576127f19036908301613a38565b946084359081116103fd576128099036908301613aa7565b936001600160a01b03938416933385148015612a09575b61282990613d94565b6128368451885114615038565b871694612844861515615095565b5f5b84518110156128c2578061285c60019287613e6b565b51612867828b613e6b565b5190805f526020905f82528d5f208a5f5282528d83815f205461288c828210156150ef565b835f525f8552825f208d5f52855203905f20555f525f81528c5f20908a5f52526128ba8c5f20918254613d54565b905501612846565b509094939592919684878a517f4a39dc06d4c0dbc64b70af90fd698a233a518aa5d07e595d983b8c0526c8f7fb3391806128fd8a8a8361514e565b0390a43b61290757005b8751948593849363bc197c8160e01b98898652338b87015260248601526044850160a0905260a4850161293991613ac2565b8285820301606486015261294c91613ac2565b9083820301608484015261295f91613981565b03815a6020945f91f15f91816129e8575b506129d757505061297f615765565b6308c379a0146129a3575b905162461bcd60e51b81529081906106ec9082016157ed565b6129ab615780565b806129b6575061298a565b6106ec906020935193849362461bcd60e51b85528401526024830190613981565b6001600160e01b0319160361073757005b612a0291925060203d60201161077857610769818361389d565b905f612970565b50845f526001602052885f20335f5260205261282960ff8a5f2054169050612820565b82346103fd575f3660031901126103fd576020906009549051908152f35b82346103fd5760203660031901126103fd57602090610bac612a6a6137c3565b613d75565b82346103fd57806003193601126103fd57602090612a8b613777565b612a936137a3565b9060018060a01b03165f52601a835260ff825f2091165f528252805f20549051908152f35b82346103fd575f3660031901126103fd57602090516127108152f35b82346103fd575f3660031901126103fd576020906005549051908152f35b82346103fd575f3660031901126103fd576020905160058152f35b82346103fd5760603660031901126103fd57612b276137c3565b6001600160401b03916024358381116103fd57612b4790369086016139a6565b92604435918583116103fd57612b6361ffff93369089016139a6565b939092612b6e613f19565b1695612b7b871515613cc7565b865f5260209760188952855f20828811612d6a57612b9d8861080083546137e5565b5f88601f8111600114612d065780612bc8925f91612cfb57508160011b915f199060031b1c19161790565b90555b875f5260198952855f209185116109045750612beb8461080083546137e5565b5f601f8511600114612c6e5784927f309eb5725bc0fcc8192e7491a4adaaf2ebbfb008e6f1062f264953c0976e27b798999492612c438561086c98612c56955f91612c6357508160011b915f199060031b1c19161790565b90555b8651978789988952880191613c27565b9285840390860152613c27565b90508601358e610847565b601f19851690825f52895f20915f5b818110612ce4575092612c569287959261086c987f309eb5725bc0fcc8192e7491a4adaaf2ebbfb008e6f1062f264953c0976e27b79c9d989610612ccb575b5050600185811b019055612c46565b8501355f19600388901b60f8161c191690558b80612cbc565b91928b60018192868a013581550194019201612c7d565b90508601358d610847565b50601f19891690825f52898c5f20928d5f905b828210612d5057505010612d37575b5050600188811b019055612bcb565b8501355f1960038b901b60f8161c191690558a80612d28565b898501358655600190950194938401938d9350018e612d19565b604182634e487b7160e01b5f525260245ffd5b82346103fd576020806003193601126103fd57612d986137b3565b91612da5610ed08461500c565b612db4611c76611c7085615027565b335f52600f8252612e07815f209360ff811694855f528452825f20600160ff19825416179055335f52601b8452825f20855f5284525f83812055335f52601a8452825f20855f5284525f83812055615027565b90612e128233613ba7565b15612e1957005b612e4a7fcfdb31fa548aa2c58dcf9c124e888cfd6afefe9fe228a5cc829205ab69b69e0c928251906122f88261384c565b5f81519385337fbd1ae2c6d13c1a8dc9dbe03823192cb9ab92b45e5b9264dd65b2794c526e6f9f8480a38185528401523392a3005b9050346103fd5760603660031901126103fd57803591612e9d613768565b604435926001600160401b0384116103fd57612ee061086c917f5cd61427930ab89a7ffdd8646dd284f02d4ec213a21d6dcaab300350e8006611953691016139a6565b612ee8613f19565b865f526012602052612f0884865f209060ff801983541691151516179055565b845194859415158552806020860152840191613c27565b82346103fd575f3660031901126103fd578051600a549091825f612f42846137e5565b808352602094600190866001821691825f14612752575050600114612f73575050610dfe92916126e891038561389d565b90859250600a5f527fc65a7bb8d6351c1cf70c95a316cc6a92839c986682d98bc35f958f4883f9d2a8915f925b828410612fb657505050820101816126e86126d6565b8054848a018601528895508794909301928101612fa0565b82346103fd575f3660031901126103fd578051600c549091825f612ff1846137e5565b808352602094600190866001821691825f14612752575050600114613022575050610dfe92916126e891038561389d565b90859250600c5f527fdf6966c971051c3d54ec59162606531493a51404a002842f56009d7e5cf4a8c7915f925b82841061306557505050820101816126e86126d6565b8054848a01860152889550879490930192810161304f565b9050346103fd57602091826003193601126103fd5781359160ff600854166133bd57600654831061338c576130b3831515614b94565b81516130be8161384c565b5f81526130cc33151561518b565b8251916130d883613867565b60019182845286840193873686375115613379576103e98094526130fb86615869565b50835f525f8752845f20335f528752845f20613118878254613d54565b9055845184815286888201525f33915f8051602061588f833981519152883392a4333b6132e2575b50335f5260158652835f20825f528652835f2061315e868254613d54565b90556131686155bb565b90600385516131768161381d565b8781528881018881528782019042825260608301958652335f52601d8b52885f20875f528b52885f209251835551868301555160028201550191518051916001600160401b03831161090457506131d7826131d185546137e5565b85613d05565b8790601f83116001146132845761320492915f91836132795750508160011b915f199060031b1c19161790565b90555b825184815284868201527ff94991dcbea6e8ac439cbc93bd9c62a4d39f04e0ad656df9a703f13552c2787f843392a261323e6155bb565b7f9ec85e292a34c98a43e8ffe45de1c625bdfe7e8efc23f4a9da12895a70b358158451806132703394428a8085613af5565b0390a451908152f35b015190505f80611060565b849291601f19831691855f528a5f20925f5b8c8282106132cc57505084116132b4575b505050811b019055613207565b01515f1960f88460031b161c191690555f80806132a7565b8385015186558997909501949384019301613296565b8495939291955187818061332363f23a6e6160e01b95868352338c8401525f602484015288604484015289606484015260a0608484015260a4830190613981565b03815f335af15f918161335a575b50613341578787876106c8615765565b63ffffffff60e097939495971b160361210c575f613140565b613372919250893d8b1161077857610769818361389d565b905f613331565b603282634e487b7160e01b5f525260245ffd5b83606492519162461bcd60e51b8352820152600d60248201526c42656c6f77206d696e696d756d60981b6044820152fd5b83606492519162461bcd60e51b8352820152601460248201527314dd589cd8dc9a5c1d1a5bdb9cc81c185d5cd95960621b6044820152fd5b9050346103fd57602090816003193601126103fd57610dfe9035926126e860da61341e86613f71565b613427876143e1565b9661343181614701565b9061344461343e8261481c565b91614983565b918651998a947f646174613a6170706c69636174696f6e2f6a736f6e3b757466382c00000000008b870152683d913730b6b2911d1160b91b603b870152613494815180928d60448a019101613960565b8501701116113232b9b1b934b83a34b7b7111d1160791b60448201526134c3825180938d605585019101613960565b017f222c2261747472696275746573223a5b7b2274726169745f74797065223a22536055820152703ab93330b1b29116113b30b63ab2911d1160791b6075820152613517825180938c608685019101613960565b017f227d2c7b2274726169745f74797065223a224e6574776f726b222c2276616c7560868201527f65223a225365706f6c6961227d2c7b2274726169745f74797065223a22546f6b60a68201526f32b71024a21116113b30b63ab2911d1160811b60c6820152613590825180938b60d685019101613960565b0161227d60f01b60d68201526135af825180938a60d885019101613960565b01615d7d60f01b60d88201520360ba81018752018561389d565b82346103fd5760203660031901126103fd57610dfe9061ffff6135ea6137c3565b165f526017602052610deb815f206138be565b82346103fd5760203660031901126103fd576127108235818102929181159184041417156118075760055490811561363a57602093505191048152f35b601284634e487b7160e01b5f525260245ffd5b9050346103fd5760203660031901126103fd573563ffffffff60e01b81168091036103fd57602091636cdb3d1360e11b82149182156136a8575b8215613697575b50519015158152f35b6301ffc9a760e01b1491505f61368e565b6303a24d0760e21b81149250613687565b82346103fd57806003193601126103fd576020906136d5613777565b6136dd6137a3565b6001600160a01b039091165f908152600d845282812060ff92831682528452829020549151911615158152f35b82346103fd57806003193601126103fd57602090610bac613729613777565b60243590613ba7565b346103fd5760203660031901126103fd57358015158091036103fd57613756613f19565b60ff8019600854169116176008555f80f35b6024359081151582036103fd57565b600435906001600160a01b03821682036103fd57565b602435906001600160a01b03821682036103fd57565b6024359060ff821682036103fd57565b6004359060ff821682036103fd57565b6004359061ffff821682036103fd57565b6024359061ffff821682036103fd57565b90600182811c92168015613813575b60208310146137ff57565b634e487b7160e01b5f52602260045260245ffd5b91607f16916137f4565b608081019081106001600160401b0382111761383857604052565b634e487b7160e01b5f52604160045260245ffd5b602081019081106001600160401b0382111761383857604052565b604081019081106001600160401b0382111761383857604052565b606081019081106001600160401b0382111761383857604052565b90601f801991011681019081106001600160401b0382111761383857604052565b9060405191825f82546138d0816137e5565b908184526020946001916001811690815f1461393e5750600114613900575b5050506138fe9250038361389d565b565b5f90815285812095935091905b8183106139265750506138fe93508201015f80806138ef565b8554888401850152948501948794509183019161390d565b925050506138fe94925060ff191682840152151560051b8201015f80806138ef565b5f5b8381106139715750505f910152565b8181015183820152602001613962565b9060209161399a81518092818552858086019101613960565b601f01601f1916010190565b9181601f840112156103fd578235916001600160401b0383116103fd57602083818601950101116103fd57565b6001600160401b0381116138385760051b60200190565b92916139f5826139d3565b91613a03604051938461389d565b829481845260208094019160051b81019283116103fd57905b828210613a295750505050565b81358152908301908301613a1c565b9080601f830112156103fd57816020613a53933591016139ea565b90565b6001600160401b03811161383857601f01601f191660200190565b929192613a7d82613a56565b91613a8b604051938461389d565b8294818452818301116103fd578281602093845f960137010152565b9080601f830112156103fd57816020613a5393359101613a71565b9081518082526020808093019301915f5b828110613ae1575050505090565b835185529381019392810192600101613ad3565b9092608092613a5395948352602083015260408201528160608201520190613981565b9060406003198301126103fd5760043561ffff811681036103fd5791602435906001600160401b0382116103fd57613b52916004016139a6565b9091565b346103fd575f3660031901126103fd57602060405160038152f35b346103fd575f3660031901126103fd57602060405160028152f35b346103fd575f3660031901126103fd57602060405160018152f35b6001600160a01b0316908115613bcf575f525f60205260405f20905f5260205260405f205490565b60405162461bcd60e51b815260206004820152602a60248201527f455243313135353a2061646472657373207a65726f206973206e6f742061207660448201526930b634b21037bbb732b960b11b6064820152608490fd5b908060209392818452848401375f828201840152601f01601f1916010190565b15613c4e57565b60405162461bcd60e51b8152602060048201526013602482015272496e76616c6964207765616c7468207461736b60681b6044820152606490fd5b15613c9057565b60405162461bcd60e51b815260206004820152600f60248201526e105b1c9958591e4818db185a5b5959608a1b6044820152606490fd5b15613cce57565b60405162461bcd60e51b815260206004820152600f60248201526e125b9d985b1a59081c1c9bd91d58dd608a1b6044820152606490fd5b601f8211613d1257505050565b5f5260205f20906020601f840160051c83019310613d4a575b601f0160051c01905b818110613d3f575050565b5f8155600101613d34565b9091508190613d2b565b91908201809211613d6157565b634e487b7160e01b5f52601160045260245ffd5b61ffff16613d84811515613cc7565b6103e8908101809111613d615790565b15613d9b57565b60405162461bcd60e51b815260206004820152602e60248201527f455243313135353a2063616c6c6572206973206e6f7420746f6b656e206f776e60448201526d195c881bdc88185c1c1c9bdd995960921b6064820152608490fd5b15613dfe57565b60405162461bcd60e51b8152602060048201526013602482015272125b9d985b1a59081858da1a595d995b595b9d606a1b6044820152606490fd5b90613e43826139d3565b613e50604051918261389d565b8281528092613e61601f19916139d3565b0190602036910137565b8051821015613e7f5760209160051b010190565b634e487b7160e01b5f52603260045260245ffd5b9190811015613e7f5760051b0190565b601c54811015613e7f57601c5f527f0e4562a10381dec21b205ed72637e6b1b523bdd0e4d4d50af5cd23dd4500a21101905f90565b15613edf57565b60405162461bcd60e51b8152602060048201526012602482015271496e76616c696420686f6d6520626164676560701b6044820152606490fd5b6003546001600160a01b03163303613f2d57565b606460405162461bcd60e51b815260206004820152602060248201527f4f776e61626c653a2063616c6c6572206973206e6f7420746865206f776e65726044820152fd5b60648111806143d6575b6142735760c8811180614268575b61418557613f9681615173565b614058576103e881118061404b575b613fe35750604051613fb681613867565b601981527f5269736b4c656e732044656d6f20436f6c6c65637469626c6500000000000000602082015290565b61ffff613ff2613ff892615331565b16615548565b613a53603a60405180937f5269736b4c656e73205765616c74682052656365697074202d20000000000000602083015261403b8151809260208686019101613960565b810103601a81018452018261389d565b50620103e7811115613fa5565b6006811461414b576007811461411157600881146140e2576009146140b05760405161408381613867565b601981527f5269736b4c656e732050726f7465637469766520486564676500000000000000602082015290565b6040516140bc81613867565b60168152755269736b4c656e732050657270204c6576657261676560501b602082015290565b506040516140ef81613867565b601281527105269736b4c656e732053706f74204c6f6f760741b602082015290565b5060405161411e81613867565b601a81527f5269736b4c656e73205061706572204c6561646572626f617264000000000000602082015290565b5060405161415881613867565b601981527f5269736b4c656e73205061706572204261736520436865636b00000000000000602082015290565b60c7198101908111613d615760ff166001811461421f576002146141e6576040516141af81613882565b602181527f5269736b4c656e73205765616c7468204475616c2050726f66697420426164676020820152606560f81b604082015290565b6040516141f281613867565b601c81527f5269736b4c656e73205765616c746820506c6564676520426164676500000000602082015290565b5060405161422c81613882565b602681527f5269736b4c656e73205765616c74682050726f66697461626c6520547261646560208201526520426164676560d01b604082015290565b5060cb811115613f89565b6063198101908111613d615760ff166001811461439c57600281146143625760038114614328576004146142e5576040516142ad81613882565b602281527f5269736b4c656e73205061706572205072657669657720436f6c6c65637469626020820152616c6560f01b604082015290565b6040516142f181613882565b602181527f5269736b4c656e732050726f64756374205175697a20436f6c6c65637469626c6020820152606560f81b604082015290565b5060405161433581613867565b602081527f5269736b4c656e73205269736b2052657669657720436f6c6c65637469626c65602082015290565b5060405161436f81613867565b601b81527f5269736b4c656e732057616c6c657420436f6c6c65637469626c650000000000602082015290565b506040516143a981613867565b601c81527f5269736b4c656e732057656c636f6d6520436f6c6c65637469626c6500000000602082015290565b506069811115613f7b565b6103e88111806146f4575b61456b576143f981615173565b6145195760c881118061450e575b6144c7576064811190816144bb575b5061446d5760405161442781613882565b603081527f41205365706f6c696120636f6c6c65637469626c6520666f722074686520526960208201526f39b5a632b739903232b6b790343ab11760811b604082015290565b60405161447981613882565b602c81527f5365706f6c6961206f6e626f617264696e6720636f6c6c65637469626c65206660208201526b37b9102934b9b5a632b7399760a11b604082015290565b6069915011155f614416565b506040516144d481613882565b602481527f5365706f6c6961205765616c746820776f726b666c6f7720636f6c6c656374696020820152633136329760e11b604082015290565b5060cb811115614407565b5060405161452681613882565b602f81527f5365706f6c69612070617065722d74726164696e6720616368696576656d656e60208201526e3a103337b9102934b9b5a632b7399760891b604082015290565b613a5360b461ffff9261458184613ff283615331565b906145bb6145988661459284615331565b16615653565b956145b56145af826145a986615331565b1661566a565b93615331565b166156b2565b906040519586937f5365706f6c6961205765616c7468207265636569707420666f7220000000000060208601526145fc815180926020603b89019101613960565b84017101710283937b23ab1ba103232ba30b4b61d160751b603b82015261462d825180936020604d85019101613960565b016f01710283937b23ab1ba103a3cb8329d160851b604d82015261465b825180936020605d85019101613960565b016b0171026b0ba3ab934ba3c9d160a51b605d820152614685825180936020606985019101613960565b017f2e20507572636861736520646174652069732074686520626c6f636b2074696d60698201527f657374616d7020656d69747465642062792050726f647563745265636569707460898201526a29bab139b1b934b132b21760a91b60a982015203609481018452018261389d565b50620103e78111156143ec565b6064811180614811575b6147f05760c88111806147e5575b6147bd5761472681615173565b614793576103e881119081614785575b5061475b5760405161474781613867565b600481526344656d6f60e01b602082015290565b60405161476781613867565b600e81526d15d9585b1d1a08149958d95a5c1d60921b602082015290565b620103e7915011155f614736565b506040516147a081613867565b600d81526c50617065722054726164696e6760981b602082015290565b506040516147ca81613867565b600b81526a5765616c7468205461736b60a81b602082015290565b5060cb811115614719565b506040516147fd81613867565b6004815263486f6d6560e01b602082015290565b50606981111561470b565b805f917a184f03e93ff9f4daa797ed6e38ed64bf6a1f01000000000000000080821015614975575b506d04ee2d6d415b85acef810000000080831015614966575b50662386f26fc1000080831015614957575b506305f5e10080831015614948575b5061271080831015614939575b506064821015614929575b600a8092101561491f575b60019081602160018601956148b587613a56565b966148c3604051988961389d565b8088526148d2601f1991613a56565b01366020890137860101905b6148ea575b5050505090565b5f19019083906f181899199a1a9b1b9c1cb0b131b232b360811b8282061a83530491821561491a579190826148de565b6148e3565b91600101916148a1565b9190606460029104910191614896565b6004919392049101915f61488b565b6008919392049101915f61487e565b6010919392049101915f61486f565b6020919392049101915f61485d565b60409350810491505f614844565b6103e8811180614b87575b6149a5575060405161499f8161384c565b5f815290565b6149b161ffff91615331565b16613a5361010f6149c183615548565b6149ca84615653565b936149dd6149d78261566a565b916156b2565b906040519586937f2c7b2274726169745f74797065223a2250726f64756374222c2276616c7565226020860152611d1160f11b6040860152614a29815180926020604289019101613960565b84017f227d2c7b2274726169745f74797065223a2250726f647563742064657461696c60428201526a1116113b30b63ab2911d1160a91b6062820152614a79825180936020606d85019101613960565b017f227d2c7b2274726169745f74797065223a2250726f647563742074797065222c606d82015268113b30b63ab2911d1160b91b608d820152614ac6825180936020609685019101613960565b017f227d2c7b2274726169745f74797065223a224d61747572697479222c2276616c6096820152643ab2911d1160d91b60b6820152614b0f82518093602060bb85019101613960565b017f227d2c7b2274726169745f74797065223a22507572636861736520646174652260bb8201527f2c2276616c7565223a2250726f6475637452656365697074537562736372696260db82015273656420626c6f636b2074696d657374616d70227d60601b60fb8201520360ef81018452018261389d565b50620103e781111561498e565b15614b9b57565b60405162461bcd60e51b815260206004820152600b60248201526a5a65726f2073686172657360a81b6044820152606490fd5b9291909260ff60085416614fd05761ffff841690614bed821515613cc7565b6006548310614f9b578294614c03841515614b94565b614c0c81613d75565b93604091825193614c1c8561384c565b5f85526001600160a01b03811694614c3586151561518b565b614c3e88615869565b50614c4884615869565b50875f526020915f8352855f20875f528352855f20614c68868254613d54565b9055865f87518b815287868201525f8051602061588f833981519152893392a43b614e8c575b50845f5260158152835f20865f528152835f20614cac848254613d54565b9055614cb782615653565b90845191614cc48361381d565b84835260038284019386855287810142815260608201938452895f52601d8552885f208b5f528552885f2091518255600195516001830155516002820155019051928351906001600160401b038211613838578894614d2d83614d2786546137e5565b86613d05565b8491601f8411600114614dd1575097614dbe9481989794614dab85614dcc99967ff94991dcbea6e8ac439cbc93bd9c62a4d39f04e0ad656df9a703f13552c2787f967f9ec85e292a34c98a43e8ffe45de1c625bdfe7e8efc23f4a9da12895a70b358159e5f926132795750508160011b915f199060031b1c19161790565b90555b87825191818352820152a2615653565b925192839242908085613af5565b0390a4565b989796959493929190601f198316845f52855f209a5f905b828210614e72575050936001847f9ec85e292a34c98a43e8ffe45de1c625bdfe7e8efc23f4a9da12895a70b358159c8c95614dcc9b99957ff94991dcbea6e8ac439cbc93bd9c62a4d39f04e0ad656df9a703f13552c2787f98614dbe9c9a10614e5a575b505050811b019055614dae565b01515f1960f88460031b161c191690555f8080614e4d565b848401518d559b8c019b8d98509387019390870190614de9565b8499979593929198969451898180614ed263f23a6e6160e01b958683523360048401525f60248401528b604484015288606484015260a0608484015260a4830190613981565b03815f895af15f9181614f7c575b50614f46578a8a614eef615765565b6308c379a014614f12575b505162461bcd60e51b8152806106ec600482016157ed565b614f1a615780565b9081614f265750614efa565b6106ec835192839262461bcd60e51b845260048401526024830190613981565b63ffffffff60e09b96989a93949597999b1b1603614f64575f614c8e565b835162461bcd60e51b8152806106ec6004820161571c565b614f949192508b3d8d1161077857610769818361389d565b905f614ee0565b60405162461bcd60e51b815260206004820152600d60248201526c42656c6f77206d696e696d756d60981b6044820152606490fd5b60405162461bcd60e51b815260206004820152601460248201527314dd589cd8dc9a5c1d1a5bdb9cc81c185d5cd95960621b6044820152606490fd5b60ff166001811015908161501e575090565b60039150111590565b60ff1660c8018060c811613d615790565b1561503f57565b60405162461bcd60e51b815260206004820152602860248201527f455243313135353a2069647320616e6420616d6f756e7473206c656e677468206044820152670dad2e6dac2e8c6d60c31b6064820152608490fd5b1561509c57565b60405162461bcd60e51b815260206004820152602560248201527f455243313135353a207472616e7366657220746f20746865207a65726f206164604482015264647265737360d81b6064820152608490fd5b156150f657565b60405162461bcd60e51b815260206004820152602a60248201527f455243313135353a20696e73756666696369656e742062616c616e636520666f60448201526939103a3930b739b332b960b11b6064820152608490fd5b9091615165613a5393604084526040840190613ac2565b916020818403910152613ac2565b60068110159081615182575090565b600a9150111590565b1561519257565b60405162461bcd60e51b815260206004820152602160248201527f455243313135353a206d696e7420746f20746865207a65726f206164647265736044820152607360f81b6064820152608490fd5b91906001600160a01b0383166151f881151561518b565b61520182615869565b5061520a615842565b50815f526020925f8452604094855f20835f528552855f2080549060018201809211613d615755825f87518681526001888201525f8051602061588f833981519152893392a43b61525d575b5050505050565b926152a45f9286979583975194858094819363f23a6e6160e01b998a845233600485015284602485015260448401526001606484015260a0608484015260a4830190613981565b03925af15f91816152f7575b506152c057505050614eef615765565b919392506001600160e01b0319909116036152e057505f80808080615256565b5162461bcd60e51b8152806106ec6004820161571c565b61530f919250853d871161077857610769818361389d565b905f6152b0565b60ff1660018110159081615328575090565b60059150111590565b6103e719810191908211613d6157565b91908203918211613d6157565b90929161ffff841690615362821515613cc7565b61536d811515614b94565b6153778195613d75565b926001600160a01b03169081156154f75761539184615869565b5061539b81615869565b506040905f82516153ab8161384c565b52845f526020905f8252825f20845f528252825f20548181106154a75790807f7c7917c3334372c8a1ab0009b4314b5fa722b2ae8bb2603b7195279aeb45a37a949392885f525f8452845f20875f52845203835f20555f85845189815283858201525f8051602061588f833981519152863392a45f835161542b8161384c565b525f85815260158352838120878252835283902054818181106154995750505f5b855f5260158352835f20875f528352835f2055847ff3a670cd3af7d64b488926880889d08a8585a138ff455227af6737339a1ec2628480518481528486820152a2825191818352820152a4565b6154a291615341565b61544c565b835162461bcd60e51b8152600481018490526024808201527f455243313135353a206275726e20616d6f756e7420657863656564732062616c604482015263616e636560e01b6064820152608490fd5b60405162461bcd60e51b815260206004820152602360248201527f455243313135353a206275726e2066726f6d20746865207a65726f206164647260448201526265737360e81b6064820152608490fd5b61ffff16805f52601660205261556060405f206138be565b9081516155b757615571915061481c565b613a53603060405180936f5765616c74682050726f64756374202360801b60208301526155a78151809260208686019101613960565b810103601081018452018261389d565b5090565b60015f5260176020526155ed7ff36d6bc9642eb6fb6ee9998b09ce990566df752ab06e11f8de7ab633bbd57b8f6138be565b8051613a53575060405161560081613882565b603c81527f536574746c656d656e74207465726d73207265636f7264656420696e2074686560208201527f205269736b4c656e73205765616c74682064657461696c207061676500000000604082015290565b61ffff165f5260176020526155ed60405f206138be565b61ffff165f52601860205261568160405f206138be565b8051613a53575060405161569481613867565b600e81526d15d9585b1d1a081c9958d95a5c1d60921b602082015290565b61ffff165f5260196020526156c960405f206138be565b8051613a5357506040516156dc81613867565b601081526f50726f647563742d737065636966696360801b602082015290565b908160209103126103fd57516001600160e01b0319811681036103fd5790565b60809060208152602860208201527f455243313135353a204552433131353552656365697665722072656a656374656040820152676420746f6b656e7360c01b60608201520190565b5f9060033d1161577157565b905060045f803e5f5160e01c90565b5f60443d10613a5357604051600319913d83016004833e81516001600160401b03918282113d6024840111176157dc578184019485519384116157e4573d850101602084870101116157dc5750613a539291016020019061389d565b949350505050565b50949350505050565b60809060208152603460208201527f455243313135353a207472616e7366657220746f206e6f6e2d455243313135356040820152732932b1b2b4bb32b91034b6b83632b6b2b73a32b960611b60608201520190565b60405161584e81613867565b60018152602081016020368237815115613e7f576001905290565b6040519061587682613867565b60018252602082016020368237825115613e7f57529056fec3d58168c5ae7397731d063d5bbf3d657854427343f4c083240f7aacaa2d0f62a264697066735822122064ae1c669b2bfd89336c01755ed47ac5713f65b308bbc685173d3538a2d6899a64736f6c63430008180033",
  "linkReferences": {},
  "deployedLinkReferences": {},
  "immutableReferences": {},
  "inputSourceName": "project/contracts/MSXUnifiedDemoHub.sol",
  "buildInfoId": "solc-0_8_24-e262377a4a78ff39be1c1b6109eb78e889dab3dd"
}