{
  "_format": "hh3-artifact-1",
  "contractName": "MSXUnifiedDemoHub",
  "sourceName": "contracts/MSXUnifiedDemoHub.sol",
  "abi": [
    {
      "inputs": [
        {
          "internalType": "string",
          "name": "baseUri",
          "type": "string"
        }
      ],
      "stateMutability": "nonpayable",
      "type": "constructor"
    },
    {
      "anonymous": false,
      "inputs": [
        {
          "indexed": true,
          "internalType": "address",
          "name": "account",
          "type": "address"
        },
        {
          "indexed": true,
          "internalType": "uint256",
          "name": "achievementId",
          "type": "uint256"
        }
      ],
      "name": "AchievementClaimed",
      "type": "event"
    },
    {
      "anonymous": false,
      "inputs": [
        {
          "indexed": true,
          "internalType": "address",
          "name": "account",
          "type": "address"
        },
        {
          "indexed": true,
          "internalType": "address",
          "name": "operator",
          "type": "address"
        },
        {
          "indexed": false,
          "internalType": "bool",
          "name": "approved",
          "type": "bool"
        }
      ],
      "name": "ApprovalForAll",
      "type": "event"
    },
    {
      "anonymous": false,
      "inputs": [
        {
          "indexed": false,
          "internalType": "bytes32",
          "name": "attestationRoot",
          "type": "bytes32"
        },
        {
          "indexed": false,
          "internalType": "uint256",
          "name": "timestamp",
          "type": "uint256"
        }
      ],
      "name": "AttestationUpdated",
      "type": "event"
    },
    {
      "anonymous": false,
      "inputs": [
        {
          "indexed": true,
          "internalType": "address",
          "name": "investor",
          "type": "address"
        },
        {
          "indexed": false,
          "internalType": "bool",
          "name": "allowed",
          "type": "bool"
        },
        {
          "indexed": true,
          "internalType": "uint8",
          "name": "tier",
          "type": "uint8"
        }
      ],
      "name": "InvestorEligibilityUpdated",
      "type": "event"
    },
    {
      "anonymous": false,
      "inputs": [
        {
          "indexed": false,
          "internalType": "uint256",
          "name": "navBps",
          "type": "uint256"
        },
        {
          "indexed": false,
          "internalType": "uint256",
          "name": "timestamp",
          "type": "uint256"
        }
      ],
      "name": "NavUpdated",
      "type": "event"
    },
    {
      "anonymous": false,
      "inputs": [
        {
          "indexed": true,
          "internalType": "address",
          "name": "previousOwner",
          "type": "address"
        },
        {
          "indexed": true,
          "internalType": "address",
          "name": "newOwner",
          "type": "address"
        }
      ],
      "name": "OwnershipTransferred",
      "type": "event"
    },
    {
      "anonymous": false,
      "inputs": [
        {
          "indexed": true,
          "internalType": "uint16",
          "name": "productId",
          "type": "uint16"
        },
        {
          "indexed": false,
          "internalType": "string",
          "name": "label",
          "type": "string"
        }
      ],
      "name": "ProductReceiptLabelUpdated",
      "type": "event"
    },
    {
      "anonymous": false,
      "inputs": [
        {
          "indexed": true,
          "internalType": "address",
          "name": "investor",
          "type": "address"
        },
        {
          "indexed": true,
          "internalType": "uint16",
          "name": "productId",
          "type": "uint16"
        },
        {
          "indexed": true,
          "internalType": "uint256",
          "name": "tokenId",
          "type": "uint256"
        },
        {
          "indexed": false,
          "internalType": "uint256",
          "name": "shareAmount",
          "type": "uint256"
        },
        {
          "indexed": false,
          "internalType": "uint256",
          "name": "assetAmount",
          "type": "uint256"
        }
      ],
      "name": "ProductReceiptRedeemed",
      "type": "event"
    },
    {
      "anonymous": false,
      "inputs": [
        {
          "indexed": true,
          "internalType": "address",
          "name": "investor",
          "type": "address"
        },
        {
          "indexed": true,
          "internalType": "uint16",
          "name": "fromProductId",
          "type": "uint16"
        },
        {
          "indexed": true,
          "internalType": "uint16",
          "name": "toProductId",
          "type": "uint16"
        },
        {
          "indexed": false,
          "internalType": "uint256",
          "name": "burnAmount",
          "type": "uint256"
        },
        {
          "indexed": false,
          "internalType": "uint256",
          "name": "mintAmount",
          "type": "uint256"
        }
      ],
      "name": "ProductReceiptSettled",
      "type": "event"
    },
    {
      "anonymous": false,
      "inputs": [
        {
          "indexed": true,
          "internalType": "address",
          "name": "investor",
          "type": "address"
        },
        {
          "indexed": true,
          "internalType": "uint16",
          "name": "productId",
          "type": "uint16"
        },
        {
          "indexed": true,
          "internalType": "uint256",
          "name": "tokenId",
          "type": "uint256"
        },
        {
          "indexed": false,
          "internalType": "uint256",
          "name": "assetAmount",
          "type": "uint256"
        },
        {
          "indexed": false,
          "internalType": "uint256",
          "name": "shareAmount",
          "type": "uint256"
        }
      ],
      "name": "ProductReceiptSubscribed",
      "type": "event"
    },
    {
      "anonymous": false,
      "inputs": [
        {
          "indexed": true,
          "internalType": "address",
          "name": "investor",
          "type": "address"
        },
        {
          "indexed": false,
          "internalType": "uint256",
          "name": "shareAmount",
          "type": "uint256"
        },
        {
          "indexed": false,
          "internalType": "uint256",
          "name": "assetAmount",
          "type": "uint256"
        }
      ],
      "name": "Redeemed",
      "type": "event"
    },
    {
      "anonymous": false,
      "inputs": [
        {
          "indexed": true,
          "internalType": "address",
          "name": "account",
          "type": "address"
        },
        {
          "indexed": false,
          "internalType": "int256",
          "name": "netPnl",
          "type": "int256"
        },
        {
          "indexed": false,
          "internalType": "uint256",
          "name": "accountValue",
          "type": "uint256"
        },
        {
          "indexed": false,
          "internalType": "uint256",
          "name": "tradeCount",
          "type": "uint256"
        },
        {
          "indexed": false,
          "internalType": "uint256",
          "name": "submittedAt",
          "type": "uint256"
        }
      ],
      "name": "ReplayScoreSubmitted",
      "type": "event"
    },
    {
      "anonymous": false,
      "inputs": [
        {
          "indexed": false,
          "internalType": "string",
          "name": "status",
          "type": "string"
        },
        {
          "indexed": false,
          "internalType": "uint256",
          "name": "timestamp",
          "type": "uint256"
        }
      ],
      "name": "StrategyStatusUpdated",
      "type": "event"
    },
    {
      "anonymous": false,
      "inputs": [
        {
          "indexed": true,
          "internalType": "address",
          "name": "investor",
          "type": "address"
        },
        {
          "indexed": false,
          "internalType": "uint256",
          "name": "assetAmount",
          "type": "uint256"
        },
        {
          "indexed": false,
          "internalType": "uint256",
          "name": "shareAmount",
          "type": "uint256"
        }
      ],
      "name": "Subscribed",
      "type": "event"
    },
    {
      "anonymous": false,
      "inputs": [
        {
          "indexed": true,
          "internalType": "address",
          "name": "recipient",
          "type": "address"
        },
        {
          "indexed": true,
          "internalType": "uint8",
          "name": "badgeType",
          "type": "uint8"
        },
        {
          "indexed": true,
          "internalType": "uint256",
          "name": "tokenId",
          "type": "uint256"
        }
      ],
      "name": "TaskBadgeMinted",
      "type": "event"
    },
    {
      "anonymous": false,
      "inputs": [
        {
          "indexed": true,
          "internalType": "address",
          "name": "operator",
          "type": "address"
        },
        {
          "indexed": true,
          "internalType": "address",
          "name": "from",
          "type": "address"
        },
        {
          "indexed": true,
          "internalType": "address",
          "name": "to",
          "type": "address"
        },
        {
          "indexed": false,
          "internalType": "uint256[]",
          "name": "ids",
          "type": "uint256[]"
        },
        {
          "indexed": false,
          "internalType": "uint256[]",
          "name": "values",
          "type": "uint256[]"
        }
      ],
      "name": "TransferBatch",
      "type": "event"
    },
    {
      "anonymous": false,
      "inputs": [
        {
          "indexed": true,
          "internalType": "address",
          "name": "operator",
          "type": "address"
        },
        {
          "indexed": true,
          "internalType": "address",
          "name": "from",
          "type": "address"
        },
        {
          "indexed": true,
          "internalType": "address",
          "name": "to",
          "type": "address"
        },
        {
          "indexed": false,
          "internalType": "uint256",
          "name": "id",
          "type": "uint256"
        },
        {
          "indexed": false,
          "internalType": "uint256",
          "name": "value",
          "type": "uint256"
        }
      ],
      "name": "TransferSingle",
      "type": "event"
    },
    {
      "anonymous": false,
      "inputs": [
        {
          "indexed": false,
          "internalType": "string",
          "name": "value",
          "type": "string"
        },
        {
          "indexed": true,
          "internalType": "uint256",
          "name": "id",
          "type": "uint256"
        }
      ],
      "name": "URI",
      "type": "event"
    },
    {
      "anonymous": false,
      "inputs": [
        {
          "indexed": true,
          "internalType": "bytes32",
          "name": "assetHash",
          "type": "bytes32"
        },
        {
          "indexed": false,
          "internalType": "bool",
          "name": "passed",
          "type": "bool"
        },
        {
          "indexed": false,
          "internalType": "string",
          "name": "note",
          "type": "string"
        }
      ],
      "name": "UnderlyingReviewRecorded",
      "type": "event"
    },
    {
      "anonymous": false,
      "inputs": [
        {
          "indexed": true,
          "internalType": "address",
          "name": "account",
          "type": "address"
        },
        {
          "indexed": true,
          "internalType": "uint8",
          "name": "taskId",
          "type": "uint8"
        }
      ],
      "name": "WealthTaskCompleted",
      "type": "event"
    },
    {
      "inputs": [],
      "name": "ASSET_DECIMALS",
      "outputs": [
        {
          "internalType": "uint8",
          "name": "",
          "type": "uint8"
        }
      ],
      "stateMutability": "view",
      "type": "function"
    },
    {
      "inputs": [],
      "name": "BPS",
      "outputs": [
        {
          "internalType": "uint256",
          "name": "",
          "type": "uint256"
        }
      ],
      "stateMutability": "view",
      "type": "function"
    },
    {
      "inputs": [],
      "name": "DEFAULT_WEALTH_PRODUCT_ID",
      "outputs": [
        {
          "internalType": "uint16",
          "name": "",
          "type": "uint16"
        }
      ],
      "stateMutability": "view",
      "type": "function"
    },
    {
      "inputs": [],
      "name": "HOME_PAPER",
      "outputs": [
        {
          "internalType": "uint8",
          "name": "",
          "type": "uint8"
        }
      ],
      "stateMutability": "view",
      "type": "function"
    },
    {
      "inputs": [],
      "name": "HOME_QUIZ",
      "outputs": [
        {
          "internalType": "uint8",
          "name": "",
          "type": "uint8"
        }
      ],
      "stateMutability": "view",
      "type": "function"
    },
    {
      "inputs": [],
      "name": "HOME_RISK",
      "outputs": [
        {
          "internalType": "uint8",
          "name": "",
          "type": "uint8"
        }
      ],
      "stateMutability": "view",
      "type": "function"
    },
    {
      "inputs": [],
      "name": "HOME_WALLET",
      "outputs": [
        {
          "internalType": "uint8",
          "name": "",
          "type": "uint8"
        }
      ],
      "stateMutability": "view",
      "type": "function"
    },
    {
      "inputs": [],
      "name": "HOME_WELCOME",
      "outputs": [
        {
          "internalType": "uint8",
          "name": "",
          "type": "uint8"
        }
      ],
      "stateMutability": "view",
      "type": "function"
    },
    {
      "inputs": [],
      "name": "MAX_SCORE_SUBMISSIONS_PER_DAY",
      "outputs": [
        {
          "internalType": "uint256",
          "name": "",
          "type": "uint256"
        }
      ],
      "stateMutability": "view",
      "type": "function"
    },
    {
      "inputs": [],
      "name": "PAPER_BASE_CHECK",
      "outputs": [
        {
          "internalType": "uint256",
          "name": "",
          "type": "uint256"
        }
      ],
      "stateMutability": "view",
      "type": "function"
    },
    {
      "inputs": [],
      "name": "PAPER_LEADERBOARD",
      "outputs": [
        {
          "internalType": "uint256",
          "name": "",
          "type": "uint256"
        }
      ],
      "stateMutability": "view",
      "type": "function"
    },
    {
      "inputs": [],
      "name": "PAPER_PERP_LEVERAGE",
      "outputs": [
        {
          "internalType": "uint256",
          "name": "",
          "type": "uint256"
        }
      ],
      "stateMutability": "view",
      "type": "function"
    },
    {
      "inputs": [],
      "name": "PAPER_PROTECTIVE_HEDGE",
      "outputs": [
        {
          "internalType": "uint256",
          "name": "",
          "type": "uint256"
        }
      ],
      "stateMutability": "view",
      "type": "function"
    },
    {
      "inputs": [],
      "name": "PAPER_SPOT_LOOP",
      "outputs": [
        {
          "internalType": "uint256",
          "name": "",
          "type": "uint256"
        }
      ],
      "stateMutability": "view",
      "type": "function"
    },
    {
      "inputs": [],
      "name": "WEALTH_BUY_RECEIPT",
      "outputs": [
        {
          "internalType": "uint8",
          "name": "",
          "type": "uint8"
        }
      ],
      "stateMutability": "view",
      "type": "function"
    },
    {
      "inputs": [],
      "name": "WEALTH_SETTLE_OR_PLEDGE",
      "outputs": [
        {
          "internalType": "uint8",
          "name": "",
          "type": "uint8"
        }
      ],
      "stateMutability": "view",
      "type": "function"
    },
    {
      "inputs": [
        {
          "internalType": "bytes32",
          "name": "",
          "type": "bytes32"
        }
      ],
      "name": "approvedUnderlyingHash",
      "outputs": [
        {
          "internalType": "bool",
          "name": "",
          "type": "bool"
        }
      ],
      "stateMutability": "view",
      "type": "function"
    },
    {
      "inputs": [],
      "name": "assetSymbol",
      "outputs": [
        {
          "internalType": "string",
          "name": "",
          "type": "string"
        }
      ],
      "stateMutability": "view",
      "type": "function"
    },
    {
      "inputs": [
        {
          "internalType": "address",
          "name": "account",
          "type": "address"
        },
        {
          "internalType": "uint256",
          "name": "id",
          "type": "uint256"
        }
      ],
      "name": "balanceOf",
      "outputs": [
        {
          "internalType": "uint256",
          "name": "",
          "type": "uint256"
        }
      ],
      "stateMutability": "view",
      "type": "function"
    },
    {
      "inputs": [
        {
          "internalType": "address[]",
          "name": "accounts",
          "type": "address[]"
        },
        {
          "internalType": "uint256[]",
          "name": "ids",
          "type": "uint256[]"
        }
      ],
      "name": "balanceOfBatch",
      "outputs": [
        {
          "internalType": "uint256[]",
          "name": "",
          "type": "uint256[]"
        }
      ],
      "stateMutability": "view",
      "type": "function"
    },
    {
      "inputs": [
        {
          "internalType": "address",
          "name": "investor",
          "type": "address"
        }
      ],
      "name": "canAccessAdvancedShelf",
      "outputs": [
        {
          "internalType": "bool",
          "name": "",
          "type": "bool"
        }
      ],
      "stateMutability": "view",
      "type": "function"
    },
    {
      "inputs": [
        {
          "internalType": "uint256",
          "name": "achievementId",
          "type": "uint256"
        }
      ],
      "name": "claim",
      "outputs": [],
      "stateMutability": "nonpayable",
      "type": "function"
    },
    {
      "inputs": [
        {
          "internalType": "uint256[]",
          "name": "achievementIds",
          "type": "uint256[]"
        }
      ],
      "name": "claimBatch",
      "outputs": [],
      "stateMutability": "nonpayable",
      "type": "function"
    },
    {
      "inputs": [
        {
          "internalType": "address",
          "name": "",
          "type": "address"
        }
      ],
      "name": "eligibleInvestor",
      "outputs": [
        {
          "internalType": "bool",
          "name": "",
          "type": "bool"
        }
      ],
      "stateMutability": "view",
      "type": "function"
    },
    {
      "inputs": [
        {
          "internalType": "address",
          "name": "holder",
          "type": "address"
        }
      ],
      "name": "hasMinted",
      "outputs": [
        {
          "internalType": "bool",
          "name": "",
          "type": "bool"
        }
      ],
      "stateMutability": "view",
      "type": "function"
    },
    {
      "inputs": [
        {
          "internalType": "address",
          "name": "",
          "type": "address"
        },
        {
          "internalType": "uint8",
          "name": "",
          "type": "uint8"
        }
      ],
      "name": "hasMintedBadge",
      "outputs": [
        {
          "internalType": "bool",
          "name": "",
          "type": "bool"
        }
      ],
      "stateMutability": "view",
      "type": "function"
    },
    {
      "inputs": [
        {
          "internalType": "address",
          "name": "holder",
          "type": "address"
        },
        {
          "internalType": "uint8",
          "name": "badgeType",
          "type": "uint8"
        }
      ],
      "name": "hasMintedTask",
      "outputs": [
        {
          "internalType": "bool",
          "name": "",
          "type": "bool"
        }
      ],
      "stateMutability": "view",
      "type": "function"
    },
    {
      "inputs": [
        {
          "internalType": "address",
          "name": "",
          "type": "address"
        }
      ],
      "name": "hasSubmittedScore",
      "outputs": [
        {
          "internalType": "bool",
          "name": "",
          "type": "bool"
        }
      ],
      "stateMutability": "view",
      "type": "function"
    },
    {
      "inputs": [
        {
          "internalType": "address",
          "name": "holder",
          "type": "address"
        },
        {
          "internalType": "uint8",
          "name": "taskId",
          "type": "uint8"
        }
      ],
      "name": "hasWealthTask",
      "outputs": [
        {
          "internalType": "bool",
          "name": "",
          "type": "bool"
        }
      ],
      "stateMutability": "view",
      "type": "function"
    },
    {
      "inputs": [
        {
          "internalType": "address",
          "name": "account",
          "type": "address"
        },
        {
          "internalType": "address",
          "name": "operator",
          "type": "address"
        }
      ],
      "name": "isApprovedForAll",
      "outputs": [
        {
          "internalType": "bool",
          "name": "",
          "type": "bool"
        }
      ],
      "stateMutability": "view",
      "type": "function"
    },
    {
      "inputs": [],
      "name": "lastAttestedAt",
      "outputs": [
        {
          "internalType": "uint256",
          "name": "",
          "type": "uint256"
        }
      ],
      "stateMutability": "view",
      "type": "function"
    },
    {
      "inputs": [],
      "name": "latestAttestationRoot",
      "outputs": [
        {
          "internalType": "bytes32",
          "name": "",
          "type": "bytes32"
        }
      ],
      "stateMutability": "view",
      "type": "function"
    },
    {
      "inputs": [
        {
          "internalType": "uint8",
          "name": "taskId",
          "type": "uint8"
        }
      ],
      "name": "markWealthTask",
      "outputs": [],
      "stateMutability": "nonpayable",
      "type": "function"
    },
    {
      "inputs": [],
      "name": "minSubscription",
      "outputs": [
        {
          "internalType": "uint256",
          "name": "",
          "type": "uint256"
        }
      ],
      "stateMutability": "view",
      "type": "function"
    },
    {
      "inputs": [
        {
          "internalType": "uint8",
          "name": "badgeType",
          "type": "uint8"
        },
        {
          "internalType": "address",
          "name": "to",
          "type": "address"
        }
      ],
      "name": "mintBadge",
      "outputs": [
        {
          "internalType": "uint256",
          "name": "tokenId",
          "type": "uint256"
        }
      ],
      "stateMutability": "nonpayable",
      "type": "function"
    },
    {
      "inputs": [
        {
          "internalType": "address",
          "name": "to",
          "type": "address"
        }
      ],
      "name": "mintWelcomeBadge",
      "outputs": [
        {
          "internalType": "uint256",
          "name": "tokenId",
          "type": "uint256"
        }
      ],
      "stateMutability": "nonpayable",
      "type": "function"
    },
    {
      "inputs": [],
      "name": "navBps",
      "outputs": [
        {
          "internalType": "uint256",
          "name": "",
          "type": "uint256"
        }
      ],
      "stateMutability": "view",
      "type": "function"
    },
    {
      "inputs": [],
      "name": "nextHomeTokenId",
      "outputs": [
        {
          "internalType": "uint256",
          "name": "",
          "type": "uint256"
        }
      ],
      "stateMutability": "view",
      "type": "function"
    },
    {
      "inputs": [],
      "name": "owner",
      "outputs": [
        {
          "internalType": "address",
          "name": "",
          "type": "address"
        }
      ],
      "stateMutability": "view",
      "type": "function"
    },
    {
      "inputs": [
        {
          "internalType": "uint256",
          "name": "shareAmount",
          "type": "uint256"
        }
      ],
      "name": "previewAssets",
      "outputs": [
        {
          "internalType": "uint256",
          "name": "",
          "type": "uint256"
        }
      ],
      "stateMutability": "view",
      "type": "function"
    },
    {
      "inputs": [
        {
          "internalType": "uint256",
          "name": "assetAmount",
          "type": "uint256"
        }
      ],
      "name": "previewShares",
      "outputs": [
        {
          "internalType": "uint256",
          "name": "",
          "type": "uint256"
        }
      ],
      "stateMutability": "view",
      "type": "function"
    },
    {
      "inputs": [
        {
          "internalType": "uint16",
          "name": "",
          "type": "uint16"
        }
      ],
      "name": "productReceiptLabel",
      "outputs": [
        {
          "internalType": "string",
          "name": "",
          "type": "string"
        }
      ],
      "stateMutability": "view",
      "type": "function"
    },
    {
      "inputs": [
        {
          "internalType": "uint16",
          "name": "productId",
          "type": "uint16"
        }
      ],
      "name": "receiptTokenId",
      "outputs": [
        {
          "internalType": "uint256",
          "name": "",
          "type": "uint256"
        }
      ],
      "stateMutability": "pure",
      "type": "function"
    },
    {
      "inputs": [
        {
          "internalType": "bytes32",
          "name": "assetHash",
          "type": "bytes32"
        },
        {
          "internalType": "bool",
          "name": "passed",
          "type": "bool"
        },
        {
          "internalType": "string",
          "name": "note",
          "type": "string"
        }
      ],
      "name": "recordUnderlyingReview",
      "outputs": [],
      "stateMutability": "nonpayable",
      "type": "function"
    },
    {
      "inputs": [
        {
          "internalType": "uint256",
          "name": "shareAmount",
          "type": "uint256"
        }
      ],
      "name": "redeem",
      "outputs": [
        {
          "internalType": "uint256",
          "name": "assetAmount",
          "type": "uint256"
        }
      ],
      "stateMutability": "nonpayable",
      "type": "function"
    },
    {
      "inputs": [
        {
          "internalType": "uint16",
          "name": "productId",
          "type": "uint16"
        },
        {
          "internalType": "uint256",
          "name": "shareAmount",
          "type": "uint256"
        }
      ],
      "name": "redeemProduct",
      "outputs": [
        {
          "internalType": "uint256",
          "name": "assetAmount",
          "type": "uint256"
        }
      ],
      "stateMutability": "nonpayable",
      "type": "function"
    },
    {
      "inputs": [],
      "name": "renounceOwnership",
      "outputs": [],
      "stateMutability": "nonpayable",
      "type": "function"
    },
    {
      "inputs": [
        {
          "internalType": "address",
          "name": "",
          "type": "address"
        }
      ],
      "name": "replayScoreOf",
      "outputs": [
        {
          "internalType": "int256",
          "name": "bestNetPnl",
          "type": "int256"
        },
        {
          "internalType": "uint256",
          "name": "bestAccountValue",
          "type": "uint256"
        },
        {
          "internalType": "uint256",
          "name": "bestTradeCount",
          "type": "uint256"
        },
        {
          "internalType": "uint256",
          "name": "lastSubmittedAt",
          "type": "uint256"
        },
        {
          "internalType": "uint256",
          "name": "submissionCount",
          "type": "uint256"
        },
        {
          "internalType": "uint256",
          "name": "submissionDay",
          "type": "uint256"
        },
        {
          "internalType": "uint256",
          "name": "submissionsToday",
          "type": "uint256"
        }
      ],
      "stateMutability": "view",
      "type": "function"
    },
    {
      "inputs": [
        {
          "internalType": "address",
          "name": "",
          "type": "address"
        }
      ],
      "name": "riskTier",
      "outputs": [
        {
          "internalType": "uint8",
          "name": "",
          "type": "uint8"
        }
      ],
      "stateMutability": "view",
      "type": "function"
    },
    {
      "inputs": [
        {
          "internalType": "address",
          "name": "from",
          "type": "address"
        },
        {
          "internalType": "address",
          "name": "to",
          "type": "address"
        },
        {
          "internalType": "uint256[]",
          "name": "ids",
          "type": "uint256[]"
        },
        {
          "internalType": "uint256[]",
          "name": "amounts",
          "type": "uint256[]"
        },
        {
          "internalType": "bytes",
          "name": "data",
          "type": "bytes"
        }
      ],
      "name": "safeBatchTransferFrom",
      "outputs": [],
      "stateMutability": "nonpayable",
      "type": "function"
    },
    {
      "inputs": [
        {
          "internalType": "address",
          "name": "from",
          "type": "address"
        },
        {
          "internalType": "address",
          "name": "to",
          "type": "address"
        },
        {
          "internalType": "uint256",
          "name": "id",
          "type": "uint256"
        },
        {
          "internalType": "uint256",
          "name": "amount",
          "type": "uint256"
        },
        {
          "internalType": "bytes",
          "name": "data",
          "type": "bytes"
        }
      ],
      "name": "safeTransferFrom",
      "outputs": [],
      "stateMutability": "nonpayable",
      "type": "function"
    },
    {
      "inputs": [
        {
          "internalType": "uint256",
          "name": "index",
          "type": "uint256"
        }
      ],
      "name": "scoreAccountAt",
      "outputs": [
        {
          "internalType": "address",
          "name": "",
          "type": "address"
        }
      ],
      "stateMutability": "view",
      "type": "function"
    },
    {
      "inputs": [],
      "name": "scoreAccountCount",
      "outputs": [
        {
          "internalType": "uint256",
          "name": "",
          "type": "uint256"
        }
      ],
      "stateMutability": "view",
      "type": "function"
    },
    {
      "inputs": [
        {
          "internalType": "address",
          "name": "operator",
          "type": "address"
        },
        {
          "internalType": "bool",
          "name": "approved",
          "type": "bool"
        }
      ],
      "name": "setApprovalForAll",
      "outputs": [],
      "stateMutability": "nonpayable",
      "type": "function"
    },
    {
      "inputs": [
        {
          "internalType": "string",
          "name": "nextUri",
          "type": "string"
        }
      ],
      "name": "setBaseUri",
      "outputs": [],
      "stateMutability": "nonpayable",
      "type": "function"
    },
    {
      "inputs": [
        {
          "internalType": "address",
          "name": "investor",
          "type": "address"
        },
        {
          "internalType": "bool",
          "name": "allowed",
          "type": "bool"
        },
        {
          "internalType": "uint8",
          "name": "tier",
          "type": "uint8"
        }
      ],
      "name": "setInvestorEligibility",
      "outputs": [],
      "stateMutability": "nonpayable",
      "type": "function"
    },
    {
      "inputs": [
        {
          "internalType": "uint256",
          "name": "nextMinSubscription",
          "type": "uint256"
        }
      ],
      "name": "setMinSubscription",
      "outputs": [],
      "stateMutability": "nonpayable",
      "type": "function"
    },
    {
      "inputs": [
        {
          "internalType": "uint256",
          "name": "nextNavBps",
          "type": "uint256"
        }
      ],
      "name": "setNavBps",
      "outputs": [],
      "stateMutability": "nonpayable",
      "type": "function"
    },
    {
      "inputs": [
        {
          "internalType": "uint16",
          "name": "productId",
          "type": "uint16"
        },
        {
          "internalType": "string",
          "name": "label",
          "type": "string"
        }
      ],
      "name": "setProductReceiptLabel",
      "outputs": [],
      "stateMutability": "nonpayable",
      "type": "function"
    },
    {
      "inputs": [
        {
          "internalType": "string",
          "name": "nextStatus",
          "type": "string"
        }
      ],
      "name": "setStrategyStatus",
      "outputs": [],
      "stateMutability": "nonpayable",
      "type": "function"
    },
    {
      "inputs": [
        {
          "internalType": "bool",
          "name": "paused",
          "type": "bool"
        }
      ],
      "name": "setSubscriptionsPaused",
      "outputs": [],
      "stateMutability": "nonpayable",
      "type": "function"
    },
    {
      "inputs": [
        {
          "internalType": "uint16",
          "name": "fromProductId",
          "type": "uint16"
        },
        {
          "internalType": "uint16",
          "name": "toProductId",
          "type": "uint16"
        },
        {
          "internalType": "uint256",
          "name": "burnAmount",
          "type": "uint256"
        },
        {
          "internalType": "uint256",
          "name": "mintAmount",
          "type": "uint256"
        }
      ],
      "name": "settleProduct",
      "outputs": [
        {
          "internalType": "uint256",
          "name": "assetAmount",
          "type": "uint256"
        },
        {
          "internalType": "uint256",
          "name": "mintedAmount",
          "type": "uint256"
        }
      ],
      "stateMutability": "nonpayable",
      "type": "function"
    },
    {
      "inputs": [],
      "name": "strategyStatus",
      "outputs": [
        {
          "internalType": "string",
          "name": "",
          "type": "string"
        }
      ],
      "stateMutability": "view",
      "type": "function"
    },
    {
      "inputs": [
        {
          "internalType": "int256",
          "name": "netPnl",
          "type": "int256"
        },
        {
          "internalType": "uint256",
          "name": "accountValue",
          "type": "uint256"
        },
        {
          "internalType": "uint256",
          "name": "tradeCount",
          "type": "uint256"
        }
      ],
      "name": "submitScore",
      "outputs": [],
      "stateMutability": "nonpayable",
      "type": "function"
    },
    {
      "inputs": [
        {
          "internalType": "uint256",
          "name": "assetAmount",
          "type": "uint256"
        }
      ],
      "name": "subscribe",
      "outputs": [
        {
          "internalType": "uint256",
          "name": "shareAmount",
          "type": "uint256"
        }
      ],
      "stateMutability": "nonpayable",
      "type": "function"
    },
    {
      "inputs": [
        {
          "internalType": "uint16",
          "name": "productId",
          "type": "uint16"
        },
        {
          "internalType": "uint256",
          "name": "assetAmount",
          "type": "uint256"
        }
      ],
      "name": "subscribeProduct",
      "outputs": [
        {
          "internalType": "uint256",
          "name": "shareAmount",
          "type": "uint256"
        }
      ],
      "stateMutability": "nonpayable",
      "type": "function"
    },
    {
      "inputs": [],
      "name": "subscriptionsPaused",
      "outputs": [
        {
          "internalType": "bool",
          "name": "",
          "type": "bool"
        }
      ],
      "stateMutability": "view",
      "type": "function"
    },
    {
      "inputs": [
        {
          "internalType": "bytes4",
          "name": "interfaceId",
          "type": "bytes4"
        }
      ],
      "name": "supportsInterface",
      "outputs": [
        {
          "internalType": "bool",
          "name": "",
          "type": "bool"
        }
      ],
      "stateMutability": "view",
      "type": "function"
    },
    {
      "inputs": [
        {
          "internalType": "uint256",
          "name": "",
          "type": "uint256"
        }
      ],
      "name": "tokenBadgeType",
      "outputs": [
        {
          "internalType": "uint8",
          "name": "",
          "type": "uint8"
        }
      ],
      "stateMutability": "view",
      "type": "function"
    },
    {
      "inputs": [
        {
          "internalType": "address",
          "name": "newOwner",
          "type": "address"
        }
      ],
      "name": "transferOwnership",
      "outputs": [],
      "stateMutability": "nonpayable",
      "type": "function"
    },
    {
      "inputs": [
        {
          "internalType": "bytes32",
          "name": "nextAttestationRoot",
          "type": "bytes32"
        }
      ],
      "name": "updateAttestation",
      "outputs": [],
      "stateMutability": "nonpayable",
      "type": "function"
    },
    {
      "inputs": [
        {
          "internalType": "uint256",
          "name": "tokenId",
          "type": "uint256"
        }
      ],
      "name": "uri",
      "outputs": [
        {
          "internalType": "string",
          "name": "",
          "type": "string"
        }
      ],
      "stateMutability": "view",
      "type": "function"
    },
    {
      "inputs": [],
      "name": "vaultLabel",
      "outputs": [
        {
          "internalType": "string",
          "name": "",
          "type": "string"
        }
      ],
      "stateMutability": "view",
      "type": "function"
    },
    {
      "inputs": [
        {
          "internalType": "address",
          "name": "",
          "type": "address"
        },
        {
          "internalType": "uint16",
          "name": "",
          "type": "uint16"
        }
      ],
      "name": "wealthReceiptShares",
      "outputs": [
        {
          "internalType": "uint256",
          "name": "",
          "type": "uint256"
        }
      ],
      "stateMutability": "view",
      "type": "function"
    },
    {
      "inputs": [
        {
          "internalType": "address",
          "name": "",
          "type": "address"
        },
        {
          "internalType": "uint8",
          "name": "",
          "type": "uint8"
        }
      ],
      "name": "wealthTaskCompleted",
      "outputs": [
        {
          "internalType": "bool",
          "name": "",
          "type": "bool"
        }
      ],
      "stateMutability": "view",
      "type": "function"
    }
  ],
  "bytecode": "0x6080604052346200034857620061c0803803806200001d816200034c565b9283398101906020918282820312620003485781516001600160401b039283821162000348570191601f9180838501121562000348578351938285116200032057601f199462000073858201871688016200034c565b92818452878284010111620003485786915f5b82811062000334575050905f918301015280519182116200032057620000ae60025462000372565b838111620002e4575b508493838311600114620002815750928192935f9262000275575b50508160011b915f199060031b1c1916176002555b60038054336001600160a01b0319821681179092556001600160a01b03167f8be0079c531659141344cd1fd0a4f28419497f9722a3daafe3b4186f6b6457e05f80a36001600455612710600555631dcd650060065562000149600b5462000372565b81811162000253575b507f5269736b4c656e7320556e69666965642044656d6f205661756c740000000036600b55600c54620001859062000372565b81811162000231575b50600461141560f21b01600c55600a54620001a99062000372565b908082116200020f575b7f44656d6f20726561647900000000000000000000000000000000000000000014600a557f326aeea7abf8a20d2ae5c71811b6e16c6ad80e0128362081ef8dd5af3774b9c060095542600755604051615dfa9081620003c68239f35b6200022892600a5f525f20910160051c810190620003ad565b5f8080620001b3565b6200024c90600c5f5282845f20910160051c810190620003ad565b5f6200018e565b6200026e90600b5f5282845f20910160051c810190620003ad565b5f62000152565b015190505f80620000d2565b82169360025f52855f20915f5b87878210620002cd575050836001959610620002b4575b505050811b01600255620000e7565b01515f1960f88460031b161c191690555f8080620002a5565b60018495829395850151815501940192016200028e565b6200030f9060025f52865f208580860160051c82019289871062000316575b0160051c0190620003ad565b5f620000b7565b9250819262000303565b634e487b7160e01b5f52604160045260245ffd5b818101840151858201850152830162000086565b5f80fd5b6040519190601f01601f191682016001600160401b038111838210176200032057604052565b90600182811c92168015620003a2575b60208310146200038e57565b634e487b7160e01b5f52602260045260245ffd5b91607f169162000382565b818110620003b9575050565b5f8155600101620003ad56fe604060808152600480361015610013575f80fd5b5f3560e01c9081629b27af14613798578162fdd58e1461377057816301b4597d1461371f57816301ffc9a7146136b357816302cea26b146136635781630e89341c14612e385781630f574ba714612bb7578163176de7a814612b08578163176f1cdd14612a59578163179649ad146129b95781631a2e9996146129065781631de3083d146128eb578163218900b4146128cd578163249d39e9146128b15781632baa75211461288c5781632e6f6b1f1461286e5781632eb2c2d6146125d45781632f85874a146125b65781632fb4e0f9146124d5578163325116ee146124ba578163379607f51461244d57816338e21cce1461240857816341be5f64146123ea5781634973fd9a146123be5781634adb4cc8146123a05781634d7c10a7146123645781634e1273f4146121f85781635216333714611f3e57816355cc026114611d5b57816357997aa214611d4057816360062cd114610970578163619a1d2914611d1757816362abebce14611a855781636961fd46146118dc5781636b3ce2f1146118805781636ea17abd14611865578163715018a61461180a5781637206abbd1461164f57816374b3322c146116055781637cea070a146115ea5781638385f14a146115ce5781638530a3bf146115a45781638909e506146112cc5781638d00bbe5146112795781638da5cb5b146112515781638f631d541461123657816399b49e25146111dd5781639a2aaca114611155578163a0bcfc7f14610fd1578163a22cb46514610ef0578163aec45d8014610e8f578163b363935c14610413578163b5884e2014610df2578163b7d120d014610da7578163b84d93d414610d6d578163c4ebe02414610734578163c8a3c3b514610cf7578163cad471921461040e578163cb33bcdb14610ca6578163cf22928d14610c83578163d28c390a14610c39578163d4b0521b14610bbe578163d92fa2c614610b8e578163db006a7514610975578163dcb2125b14610970578163e985e9c514610922578163eda7c56e1461074f578163eeaa817714610734578163f242432a146104f9578163f2fde38b1461042e578163f4db898414610413578163f5952d121461040e578163f68e55c3146103ae57508063f766dee4146103935763f956967314610354575f80fd5b3461038f57602036600319011261038f576020906001600160a01b036103786137dd565b165f526014825260ff815f20541690519015158152f35b5f80fd5b503461038f575f36600319011261038f5760209051600a8152f35b90503461038f57602036600319011261038f578035916103cc613e99565b82156103d9576006839055005b906020606492519162461bcd60e51b8352820152600f60248201526e496e76616c6964206d696e696d756d60881b6044820152fd5b613b5b565b823461038f575f36600319011261038f576020905160068152f35b90503461038f57602036600319011261038f576104496137dd565b90610452613e99565b6001600160a01b039182169283156104a7575050600354826bffffffffffffffffffffffff60a01b821617600355167f8be0079c531659141344cd1fd0a4f28419497f9722a3daafe3b4186f6b6457e05f80a3005b906020608492519162461bcd60e51b8352820152602660248201527f4f776e61626c653a206e6577206f776e657220697320746865207a65726f206160448201526564647265737360d01b6064820152fd5b90503461038f5760a036600319011261038f576105146137dd565b9161051d6137f3565b9260443590606435906084356001600160401b03811161038f576105449036908701613af2565b916001600160a01b03918216913383148015610711575b61056490613d14565b8716610571811515614eb0565b61057a85615d7f565b5061058482615d7f565b50845f526020975f8952865f20845f52895282875f20546105a782821015614f0a565b875f525f8b52885f20865f528b5203875f2055855f525f8952865f20825f528952865f206105d6848254613cd4565b905581848851888152858c8201525f80516020615da58339815191528a3392a43b6105fd57005b86945f899461063f89519788968795869463f23a6e6160e01b9c8d8752339087015260248601526044850152606484015260a0608484015260a483019061384a565b03925af15f91816106e2575b506106b357505061065a615c7b565b6308c379a014610682575b5162461bcd60e51b81529150819061067e908201615d03565b0390fd5b61068a615c96565b806106955750610665565b61067e915193849362461bcd60e51b8552840152602483019061384a565b9193506001600160e01b0319909116036106c957005b905162461bcd60e51b815290819061067e908201615c32565b610703919250863d881161070a575b6106fb818361390c565b810190615c12565b905f61064b565b503d6106f1565b50825f526001602052855f20335f5260205261056460ff875f205416905061055b565b823461038f575f36600319011261038f576020905160038152f35b90503461038f578160031936011261038f576107696139fc565b6001600160401b03916024359183831161038f5761078d61ffff93369084016139cf565b939091610798613e99565b16936107a5851515613c96565b845f5260209260168452865f2091851161090f57506107c4815461386f565b601f81116108cc575b505f601f85116001146108445795610834929161082286807f866aab14c7f7439fa866f885f22e8a9fce19f006d3956137b07f4284346bac9c999a5f91610839575b508160011b915f199060031b1c19161790565b90555b51938385948552840191613bf6565b0390a2005b90508501355f61080f565b601f19851690825f52845f20915f5b8181106108b5575091610834949391877f866aab14c7f7439fa866f885f22e8a9fce19f006d3956137b07f4284346bac9c999a941061089c575b5050600186811b019055610825565b8401355f19600389901b60f8161c191690555f8061088d565b919286600181928689013581550194019201610853565b815f52835f20601f860160051c810191858710610905575b601f0160051c01905b8181106108fa57506107cd565b5f81556001016108ed565b90915081906108e4565b604190634e487b7160e01b5f525260245ffd5b823461038f578060031936011261038f5760209061093e6137dd565b6109466137f3565b9060018060a01b038091165f5260018452825f2091165f52825260ff815f20541690519015158152f35b613b40565b90503461038f576020918260031936011261038f5781359161099883151561491d565b3315610b41578151906109aa826138d6565b6001825284820191853684375115610b2e576103e98092526109cb84615d7f565b505f83516109d8816138a7565b52815f525f8552825f20335f528552825f205490848210610adf57508390825f525f8652835f20335f52865203825f20555f8251828152848682015233905f80516020615da5833981519152853392a45f8251610a34816138a7565b52335f908152601585528281206001825285528290205483818110610ad15750505f5b335f5260158552825f2060015f528552825f2055815183815283858201527ff3a670cd3af7d64b488926880889d08a8585a138ff455227af6737339a1ec262833392a26001825184815284868201527f7c7917c3334372c8a1ab0009b4314b5fa722b2ae8bb2603b7195279aeb45a37a843392a451908152f35b610ada91615144565b610a57565b835162461bcd60e51b81529081018690526024808201527f455243313135353a206275726e20616d6f756e7420657863656564732062616c604482015263616e636560e01b6064820152608490fd5b603290634e487b7160e01b5f525260245ffd5b83608492519162461bcd60e51b8352820152602360248201527f455243313135353a206275726e2066726f6d20746865207a65726f206164647260448201526265737360e81b6064820152fd5b823461038f578060031936011261038f57602090610bb7610bad6139fc565b6024359033615151565b9051908152f35b90503461038f57602036600319011261038f57803590601754821015610c0057602083610bea84613e23565b905491519160018060a01b039160031b1c168152f35b606490602084519162461bcd60e51b83528201526013602482015272496e646578206f7574206f6620626f756e647360681b6044820152fd5b90503461038f57602036600319011261038f57600554813581810292918115918404141715610c7057506127106020925191048152f35b601190634e487b7160e01b5f525260245ffd5b823461038f575f36600319011261038f5760209060ff6008541690519015158152f35b823461038f578060031936011261038f57602090610cc26137dd565b610cca613809565b6001600160a01b039091165f908152600f845282812060ff92831682528452829020549151911615158152f35b823461038f57602036600319011261038f5760e0916001600160a01b03610d1c6137dd565b165f526013602052815f208054926001820154926002830154600384015491840154926006600586015495015495815197885260208801528601526060850152608084015260a083015260c0820152f35b823461038f57602036600319011261038f576020906001600160a01b03610d926137dd565b165f526011825260ff815f2054169051908152f35b823461038f57602036600319011261038f57610dee9061ffff610dc86139fc565b165f526016602052610ddb815f2061392d565b905191829160208352602083019061384a565b0390f35b823461038f57606036600319011261038f57610e0c6137dd565b90610e156137ce565b6044359260ff841680940361038f577fa0aa2b85df88566521daa2ac1eb0694994372f9f1e64a41307f9d06a571f921291602091610e51613e99565b6001600160a01b03165f81815260108452859020805460ff191660ff841515161790559360118352805f208660ff19825416179055519015158152a3005b823461038f578060031936011261038f57602090610eab6137dd565b610eb3613809565b90610ec5610ec083614c17565b613c16565b6001600160a01b03165f908152600f845282812060ff92831682528452829020549151911615158152f35b823461038f578060031936011261038f57610f096137dd565b90610f126137ce565b6001600160a01b0390921692338414610f7d5750335f526001602052805f20835f52602052610f4f82825f209060ff801983541691151516179055565b5190151581527f17307eab39ab6107e8899845ad3d59bd9653f200f220920489ca2b5937696c3160203392a3005b6020608492519162461bcd60e51b8352820152602960248201527f455243313135353a2073657474696e6720617070726f76616c20737461747573604482015268103337b91039b2b63360b91b6064820152fd5b3461038f5760208060031936011261038f576001600160401b0390823582811161038f5761100561101491369086016139cf565b61100d613e99565b3691613abc565b92835192831161090f575061102a60025461386f565b601f81116110f2575b50602090601f831160011461107457508190611064935f92611069575b50508160011b915f199060031b1c19161790565b600255005b015190508380611050565b90601f1983169360025f527f405787fa12a823e0f2b7631cc41b3ba8828b3321ca811111fa75cd3aa3bb5ace925f905b8682106110da57505083600195106110c2575b505050811b01600255005b01515f1960f88460031b161c191690558280806110b7565b806001859682949686015181550195019301906110a4565b60025f527f405787fa12a823e0f2b7631cc41b3ba8828b3321ca811111fa75cd3aa3bb5ace601f840160051c8101916020851061114b575b601f0160051c01905b8181106111405750611033565b5f8155600101611133565b909150819061112a565b823461038f57602036600319011261038f578135611171613e99565b80156111ac577f1e1223c1f6274c6d64fdb08c485e192bd2896c9abf70e840e199ac1f54d6d1d59250806005558151908152426020820152a1005b815162461bcd60e51b8152602081850152600b60248201526a24b73b30b634b2102720ab60a91b6044820152606490fd5b823461038f57602036600319011261038f576020906001600160a01b036112026137dd565b165f526010825260ff815f205416908161121f575b519015158152f35b905060118252600260ff825f205416101590611217565b90503461038f575f36600319011261038f5760209151908152f35b823461038f575f36600319011261038f5760035490516001600160a01b039091168152602090f35b823461038f57602036600319011261038f577f181f92f68826a8d2b5b97d27f9e18d05a337290356fabf5b717154077dbea93391356112b6613e99565b80600955426007558151908152426020820152a1005b90503461038f57608036600319011261038f576112e76139fc565b906112f0613a0d565b5f9190604435606435611304828733615151565b9561ffff91828516948515158061159b575b611586575b50335f52602095600f8752895f2060025f528752895f20600160ff1982541617905533156115305760ca5f525f8752895f20335f528752895f205415611397575b5088519384528584015216907f031b66f6d8a6a3252233defe3a4204c77215f4ddd23783ce33b9b3d9a86b6ac6873392a48351928352820152f35b89516113a2816138a7565b5f81528a516113b0816138d6565b600181528881019089368337511561151d5760ca90526113ce615d58565b5060ca5f525f88528a5f20335f5288528a5f208054906001820180921161150a57558a5f815160ca815260018b8201525f80516020615da583398151915233933392a4333b611447575b50506002337fbd1ae2c6d13c1a8dc9dbe03823192cb9ab92b45e5b9264dd65b2794c526e6f9f5f80a35f61135c565b90611493888c9a989796959493839c9a9d518093819263f23a6e6160e01b9687845233908401525f602484015260ca60448401526001606484015260a0608484015260a483019061384a565b03815f335af15f91816114eb575b506114b1578b8b8b61065a615c7b565b63ffffffff60e09c999b9394959697989a9c1b16036114d257505f80611418565b895162461bcd60e51b815290819061067e908201615c32565b6115039192508d803d1061070a576106fb818361390c565b905f6114a1565b601184634e487b7160e01b5f525260245ffd5b603283634e487b7160e01b5f525260245ffd5b895162461bcd60e51b8152908101879052602a60248201527f455243313135353a2061646472657373207a65726f206973206e6f742061207660448201526930b634b21037bbb732b960b11b6064820152608490fd5b819750906115949133614957565b955f61131b565b50811515611316565b823461038f57602036600319011261038f57602091355f52600e825260ff815f2054169051908152f35b823461038f575f36600319011261038f57602091549051908152f35b823461038f575f36600319011261038f576020905160018152f35b823461038f578060031936011261038f576020906116216137dd565b611629613a0d565b9060018060a01b03165f526015835261ffff825f2091165f528252805f20549051908152f35b90503461038f578160031936011261038f57611669613819565b916116726137f3565b9261168461167f82615119565b613e58565b6001600160a01b03841680156117d35780330361179f57805f52602094600d865260ff845f20931692835f52865260ff845f2054166117655784549460018601808711611752578155825f52600d8752845f20845f528752845f2060ff1990600182825416179055865f52600e885284865f2091825416179055836064019081606411610c7057508593929161172891865191611720836138a7565b5f8352614ffc565b7f4c7380f1d23a71f74fa1303f23b7100826e4a89a4e47b2985e5c708e47a19b3a5f80a451908152f35b601182634e487b7160e01b5f525260245ffd5b835162461bcd60e51b8152808601879052601460248201527310985919d948185b1c9958591e481b5a5b9d195960621b6044820152606490fd5b825162461bcd60e51b8152602081860152600e60248201526d13db9b1e481cd95b19881b5a5b9d60921b6044820152606490fd5b825162461bcd60e51b81526020818601526011602482015270125b9d985b1a59081c9958da5c1a595b9d607a1b6044820152606490fd5b3461038f575f36600319011261038f57611822613e99565b600380546001600160a01b031981169091555f906001600160a01b03167f8be0079c531659141344cd1fd0a4f28419497f9722a3daafe3b4186f6b6457e08280a3005b823461038f575f36600319011261038f576020905160078152f35b823461038f578060031936011261038f5760209061189c6137dd565b6118a4613809565b906118b161167f83615119565b6001600160a01b03165f908152600d845282812060ff92831682528452829020549151911615158152f35b90503461038f57606036600319011261038f5780359160243560443592335f526013602052825f20906201518042046014602052845f20805460ff811615611a22575b50506005830181815403611a14575b5050600682019081549260038410156119d1578082915489136119bd575b42600382015501805490600182018092116119aa575560018301809311610c70575055815193845260208401528201524260608201527ff6d69723c1e13a6e751ff8839d394f04ffffc588fdd13a7cfd1fdfc1bf87ebe160803392a2005b601183634e487b7160e01b5f525260245ffd5b88815585600182015587600282015561194c565b855162461bcd60e51b8152602081840152601960248201527f4461696c792073636f7265206c696d69742072656163686564000000000000006044820152606490fd5b555f60068301555f8061192e565b60ff1916600117905560175468010000000000000000811015611a7257806001611a4f9201601755613e23565b81546001600160a01b0360039290921b91821b19163390911b1790555f8061191f565b604183634e487b7160e01b5f525260245ffd5b823461038f5760209160031991838336011261038f578135936001600160401b0380861161038f573660238701121561038f578584013590811161038f576024860195602436918360051b01011161038f57611ae081613db9565b905f5b818110611cd35750611af6368289613a35565b94845196611b03886138a7565b5f8852611b11331515614fa6565b611b1e8751855114614e53565b5f5b8751811015611b655780611b3660019287613deb565b51611b41828b613deb565b515f525f8852885f20335f528852611b5d895f20918254613cd4565b905501611b20565b5090949395919684515f33917f4a39dc06d4c0dbc64b70af90fd698a233a518aa5d07e595d983b8c0526c8f7fb339180611ba08a8a83614f69565b0390a4333b611bf6575b505050505050505f5b818110611bbc57005b80611bca6001928486613e13565b35337f04844d30b922ffc2b845400eb2a15cdd62742176c723e09d7cc9703e83645e4b5f80a301611bb3565b8597949698959392611c588a93611c3993611c498b51978896879663bc197c8160e01b9b8c895233908901525f602489015260a0604489015260a4880190613b0d565b9084878303016064880152613b0d565b9184830301608485015261384a565b03815f335af15f9181611cb4575b50611c77575050505061065a615c7b565b929550909392916001600160e01b03191603611c9b57505082808080808080611baa565b5162461bcd60e51b81529150819061067e908201615c32565b611ccc919250883d8a1161070a576106fb818361390c565b9088611c66565b80611d05611cff611ce7600194868d613e13565b35611cf9611cf482614f8e565b613d77565b33613b76565b15613c58565b81611d108286613deb565b5201611ae3565b823461038f578060031936011261038f57602090610bb7611d366139fc565b6024359033614957565b823461038f575f36600319011261038f576020905160088152f35b90503461038f5760208060031936011261038f576001600160401b0390823582811161038f57611d8e90369085016139cf565b939092611d99613e99565b841161090f5750611dab600a5461386f565b601f8111611edb575b505f90601f8411600114611e3257507f09fb0a9f79f07cf16c95b92623175f408d609663d7868ae62581439d923470bd9391611e088480611e1c945f91611e2757508160011b915f199060031b1c19161790565b600a555b8251938385948552840191613bf6565b4260208301520390a1005b90508301355f61080f565b90601f198416600a5f527fc65a7bb8d6351c1cf70c95a316cc6a92839c986682d98bc35f958f4883f9d2a8925f905b828210611ec3575050917f09fb0a9f79f07cf16c95b92623175f408d609663d7868ae62581439d923470bd95939185611e1c9410611eaa575b5050600184811b01600a55611e0c565b8201355f19600387901b60f8161c191690555f80611e9a565b80600185968294968901358155019501930190611e61565b600a5f527fc65a7bb8d6351c1cf70c95a316cc6a92839c986682d98bc35f958f4883f9d2a8601f850160051c81019160208610611f34575b601f0160051c01905b818110611f295750611db4565b5f8155600101611f1c565b9091508190611f13565b90503461038f576020918260031936011261038f57611f5b6137dd565b916001600160a01b03831680156121c25780330361218f57805f52600d8552825f2091600192835f52865260ff845f205416612155578054948386018087116119aa578255825f52600d8752845f20845f528752845f2060ff19908582825416179055865f52600e885284865f2091825416179055845190611fdc826138a7565b5f82528551611fea816138d6565b858152888101908936833751156121425760659052612007615d58565b5060655f525f8852855f20845f528852855f2080549086820180921161212f5755835f875160658152878b8201525f80516020615da5833981519152893392a43b61207c575b50509083917f4c7380f1d23a71f74fa1303f23b7100826e4a89a4e47b2985e5c708e47a19b3a5f80a451908152f35b849593929195518781806120be63f23a6e6160e01b95868352338c8401525f60248401526065604484015288606484015260a0608484015260a483019061384a565b03815f875af15f9181612110575b506120dc5787878761065a615c7b565b63ffffffff60e097939495971b16036120f75750835f61204d565b835162461bcd60e51b815290819061067e908201615c32565b612128919250893d8b1161070a576106fb818361390c565b905f6120cc565b601185634e487b7160e01b5f525260245ffd5b603284634e487b7160e01b5f525260245ffd5b835162461bcd60e51b8152908101869052601460248201527310985919d948185b1c9958591e481b5a5b9d195960621b6044820152606490fd5b5083606492519162461bcd60e51b8352820152600e60248201526d13db9b1e481cd95b19881b5a5b9d60921b6044820152fd5b5083606492519162461bcd60e51b83528201526011602482015270125b9d985b1a59081c9958da5c1a595b9d607a1b6044820152fd5b823461038f578060031936011261038f576001600160401b0391803583811161038f573660238201121561038f57808201359361223485613a1e565b916122418551938461390c565b85835260209560248785019160051b8301019136831161038f57602401905b8282106123455750505060243590811161038f576122819036908401613a83565b9181518351036122f057506122968151613db9565b935f5b82518110156122de576001906122cd6001600160a01b036122ba8387613deb565b51166122c68388613deb565b5190613b76565b6122d78289613deb565b5201612299565b845182815280610dee81850189613b0d565b835162461bcd60e51b8152908101859052602960248201527f455243313135353a206163636f756e747320616e6420696473206c656e677468604482015268040dad2e6dac2e8c6d60bb1b6064820152608490fd5b81356001600160a01b038116810361038f578152908701908701612260565b823461038f57602036600319011261038f576020906001600160a01b036123896137dd565b165f526010825260ff815f20541690519015158152f35b823461038f575f36600319011261038f576020906007549051908152f35b823461038f57602036600319011261038f57602091355f526012825260ff815f20541690519015158152f35b823461038f575f36600319011261038f576020906006549051908152f35b823461038f57602036600319011261038f576020906001600160a01b0361242d6137dd565b165f52600d8252805f2060015f52825260ff815f20541690519015158152f35b90503461038f57602036600319011261038f57612493903591612472611cf484614f8e565b61247f611cff8433613b76565b51612489816138a7565b5f81528233614ffc565b337f04844d30b922ffc2b845400eb2a15cdd62742176c723e09d7cc9703e83645e4b5f80a3005b823461038f575f36600319011261038f576020905160098152f35b823461038f575f36600319011261038f578051600b549091825f6124f88461386f565b808352602094600190866001821691825f14612594575050600114612539575b5050610dee929161252a91038561390c565b5192828493845283019061384a565b90859250600b5f527f0175b7a638427703f0dbe7bb9bbf987a2551717b34e79f33b5b1008d1fa01db9915f925b82841061257c575050508201018161252a612518565b8054848a018601528895508794909301928101612566565b60ff19168682015292151560051b8501909201925083915061252a9050612518565b823461038f575f36600319011261038f576020906017549051908152f35b90503461038f576003199060a03683011261038f576125f16137dd565b916125fa6137f3565b926001600160401b039260443584811161038f5761261b9036908301613a83565b9060643585811161038f576126339036908301613a83565b9460843590811161038f5761264b9036908301613af2565b936001600160a01b0393841693338514801561284b575b61266b90613d14565b6126788451885114614e53565b871694612686861515614eb0565b5f5b8451811015612704578061269e60019287613deb565b516126a9828b613deb565b5190805f526020905f82528d5f208a5f5282528d83815f20546126ce82821015614f0a565b835f525f8552825f208d5f52855203905f20555f525f81528c5f20908a5f52526126fc8c5f20918254613cd4565b905501612688565b509094939592919684878a517f4a39dc06d4c0dbc64b70af90fd698a233a518aa5d07e595d983b8c0526c8f7fb33918061273f8a8a83614f69565b0390a43b61274957005b8751948593849363bc197c8160e01b98898652338b87015260248601526044850160a0905260a4850161277b91613b0d565b8285820301606486015261278e91613b0d565b908382030160848401526127a19161384a565b03815a6020945f91f15f918161282a575b506128195750506127c1615c7b565b6308c379a0146127e5575b905162461bcd60e51b815290819061067e908201615d03565b6127ed615c96565b806127f857506127cc565b61067e906020935193849362461bcd60e51b8552840152602483019061384a565b6001600160e01b031916036106c957005b61284491925060203d60201161070a576106fb818361390c565b905f6127b2565b50845f526001602052885f20335f5260205261266b60ff8a5f2054169050612662565b823461038f575f36600319011261038f576020906009549051908152f35b823461038f57602036600319011261038f57602090610bb76128ac6139fc565b613cf5565b823461038f575f36600319011261038f57602090516127108152f35b823461038f575f36600319011261038f576020906005549051908152f35b823461038f575f36600319011261038f576020905160058152f35b823461038f57602036600319011261038f57612920613819565b9061292d610ec083614c17565b61293c611cff611cf984614c31565b335f52600f602052612969815f209260ff811693845f52602052825f20600160ff19825416179055614c31565b6129738133613b76565b1561297a57005b612992915190612989826138a7565b5f825233614ffc565b337fbd1ae2c6d13c1a8dc9dbe03823192cb9ab92b45e5b9264dd65b2794c526e6f9f5f80a3005b90503461038f57606036600319011261038f578035916129d76137ce565b604435926001600160401b03841161038f57612a1a610834917f5cd61427930ab89a7ffdd8646dd284f02d4ec213a21d6dcaab300350e8006611953691016139cf565b612a22613e99565b865f526012602052612a4284865f209060ff801983541691151516179055565b845194859415158552806020860152840191613bf6565b823461038f575f36600319011261038f578051600a549091825f612a7c8461386f565b808352602094600190866001821691825f14612594575050600114612aad575050610dee929161252a91038561390c565b90859250600a5f527fc65a7bb8d6351c1cf70c95a316cc6a92839c986682d98bc35f958f4883f9d2a8915f925b828410612af0575050508201018161252a612518565b8054848a018601528895508794909301928101612ada565b823461038f575f36600319011261038f578051600c549091825f612b2b8461386f565b808352602094600190866001821691825f14612594575050600114612b5c575050610dee929161252a91038561390c565b90859250600c5f527fdf6966c971051c3d54ec59162606531493a51404a002842f56009d7e5cf4a8c7915f925b828410612b9f575050508201018161252a612518565b8054848a018601528895508794909301928101612b89565b90503461038f576020918260031936011261038f5781359160ff60085416612e00576006548310612dcf57612bed83151561491d565b815190612bf9826138a7565b5f8252612c07331515614fa6565b825191612c13836138d6565b6001835285830192863685375115612dbc576103e9809352612c3485615d7f565b50825f525f8652835f20335f528652835f20612c51868254613cd4565b9055835183815285878201525f33915f80516020615da5833981519152873392a4333b612d0a575b5050335f5260158452815f2060015f528452815f20612c99848254613cd4565b9055612ca433614c42565b815183815283858201527ff94991dcbea6e8ac439cbc93bd9c62a4d39f04e0ad656df9a703f13552c2787f833392a26001825184815284868201527f1ce38089da937ff378b753cbad5b85ebccefe73af87b074d88b881b11bccc86a843392a451908152f35b839492919451868180612d4a63f23a6e6160e01b95868352338b8401525f602484015287604484015288606484015260a0608484015260a483019061384a565b03815f335af15f9181612d9d575b50612d69575050505061065a615c7b565b929491926001600160e01b03191603612d8457505f80612c79565b825162461bcd60e51b815290819061067e908201615c32565b612db5919250883d8a1161070a576106fb818361390c565b905f612d58565b603282634e487b7160e01b5f525260245ffd5b83606492519162461bcd60e51b8352820152600d60248201526c42656c6f77206d696e696d756d60981b6044820152fd5b83606492519162461bcd60e51b8352820152601460248201527314dd589cd8dc9a5c1d1a5bdb9cc81c185d5cd95960621b6044820152fd5b90503461038f576020908160031936011261038f5735612e5781613f2a565b612e608261430e565b91612e6a816153be565b85612e74836153be565b91612e7e846153be565b612e8785615535565b91612e9186615639565b612e9a876156c7565b612ea3886159d5565b948b612eae8a615afd565b94612eb88b6147db565b89517f3c73766720786d6c6e733d22687474703a2f2f7777772e77332e6f72672f3230848201527f30302f737667222076696577426f783d223020302036303020363030223e3c649a81019a909a527f6566733e3c6c696e6561724772616469656e742069643d2267222078313d223360608b01527f36222079313d223232222078323d22353630222079323d22353738223e3c737460808b01527f6f702073746f702d636f6c6f723d2223313232323141222f3e3c73746f70206f60a08b01527f66667365743d222e3535222073746f702d636f6c6f723d22233131313832372260c08b01527f2f3e3c73746f70206f66667365743d2231222073746f702d636f6c6f723d222360e08b01527f313233333341222f3e3c2f6c696e6561724772616469656e743e3c2f646566736101008b01527f3e3c726563742077696474683d2236303022206865696768743d2236303022206101208b01527f72783d223434222066696c6c3d2223304231313143222f3e3c7265637420783d6101408b01527f2232382220793d223238222077696474683d2235343422206865696768743d226101608b01527f353434222072783d223334222066696c6c3d2275726c2823672922207374726f6101808b01526335b29e9160e11b6101a08b01528151999a8b9a91986101a4939092906130b6908290868f01908801613829565b8b019283017f22207374726f6b652d77696474683d2232222f3e3c636972636c652063783d2290526101c483017f3932222063793d2239322220723d223138222066696c6c3d220000000000000090526101dd92815191828686840192019161311e92613829565b019182017f222f3e3c7465787420783d223132362220793d22313031222066696c6c3d220090526101fc91815191828585840192019161315d92613829565b019081017f2220666f6e742d73697a653d2231382220666f6e742d7765696768743d223830905261021c81017f302220666f6e742d66616d696c793d22417269616c223e000000000000000000905261023392805180938584019201916131c392613829565b019081017f3c2f746578743e3c7465787420783d2235382220793d22323834222066696c6c90527f3d22234636463846422220666f6e742d73697a653d2234382220666f6e742d77806102538301528c7f65696768743d223930302220666f6e742d66616d696c793d22417269616c223e9283610273820152610293958051809388840192019161325392613829565b019384017f3c2f746578743e3c7465787420783d2235382220793d22333434222066696c6c90526102b38401526102d38301526102f391815191828d85840192019161329e92613829565b019081017f3c2f746578743e3c7465787420783d2235382220793d22343130222066696c6c90527f3d22234141423843372220666f6e742d73697a653d2232302220666f6e742d66806103138301528a6d30b6b4b63c9e9120b934b0b6111f60911b9283610333820152610341968051809389840192019161331f92613829565b019485017f3c2f746578743e3c7465787420783d2235382220793d22343430222066696c6c905261036185015261038184015261038f92815191828b86840192019161336a92613829565b7f3c2f746578743e3c7465787420783d2235382220793d22353230222066696c6c9101928301527f3d22233646383039352220666f6e742d73697a653d2231382220666f6e742d776103af8301527f65696768743d223730302220666f6e742d66616d696c793d22417269616c223e6103cf83015266544f4b454e202360c81b6103ef83015280516103f6929091613409908390858401908c01613829565b019081016c1e17ba32bc3a1f1e17b9bb339f60991b9052036103e38101825261040301613436908261390c565b61343f90614567565b90613449816146c0565b90613453906147db565b918651948594683d913730b6b2911d1160b91b8887015280519081896029890192019161347f92613829565b8501701116113232b9b1b934b83a34b7b7111d1160791b60298201528151918289603a84019201916134b092613829565b01603a81017f222c22696d616765223a22646174613a696d6167652f7376672b786d6c3b62619052605a8101641cd94d8d0b60da1b90528151918288605f84019201916134fc92613829565b01605f81017f222c2261747472696275746573223a5b7b2274726169745f74797065223a22539052703ab93330b1b29116113b30b63ab2911d1160791b607f82015281519182876090840192019161355392613829565b01609081017f227d2c7b2274726169745f74797065223a224e6574776f726b222c2276616c75905260b081017f65223a225365706f6c6961227d2c7b2274726169745f74797065223a22546f6b90526f32b71024a21116113b30b63ab2911d1160811b60d0820152815191828660e084019201916135d092613829565b0163227d5d7d60e01b60e08201520360c48101825260e4016135f2908261390c565b6135fb90614567565b91805180938382017f646174613a6170706c69636174696f6e2f6a736f6e3b6261736536342c00000090528051908185603d850192019161363b92613829565b810103601d81018452603d01613651908461390c565b519181839283528201610dee9161384a565b823461038f57602036600319011261038f576127108235818102929181159184041417156119aa576005549081156136a057602093505191048152f35b601284634e487b7160e01b5f525260245ffd5b90503461038f57602036600319011261038f573563ffffffff60e01b811680910361038f57602091636cdb3d1360e11b821491821561370e575b82156136fd575b50519015158152f35b6301ffc9a760e01b1491505f6136f4565b6303a24d0760e21b811492506136ed565b823461038f578060031936011261038f5760209061373b6137dd565b613743613809565b6001600160a01b039091165f908152600d845282812060ff92831682528452829020549151911615158152f35b823461038f578060031936011261038f57602090610bb761378f6137dd565b60243590613b76565b3461038f57602036600319011261038f573580151580910361038f576137bc613e99565b60ff8019600854169116176008555f80f35b60243590811515820361038f57565b600435906001600160a01b038216820361038f57565b602435906001600160a01b038216820361038f57565b6024359060ff8216820361038f57565b6004359060ff8216820361038f57565b5f5b83811061383a5750505f910152565b818101518382015260200161382b565b9060209161386381518092818552858086019101613829565b601f01601f1916010190565b90600182811c9216801561389d575b602083101461388957565b634e487b7160e01b5f52602260045260245ffd5b91607f169161387e565b602081019081106001600160401b038211176138c257604052565b634e487b7160e01b5f52604160045260245ffd5b604081019081106001600160401b038211176138c257604052565b606081019081106001600160401b038211176138c257604052565b90601f801991011681019081106001600160401b038211176138c257604052565b9060405191825f825461393f8161386f565b908184526020946001916001811690815f146139ad575060011461396f575b50505061396d9250038361390c565b565b5f90815285812095935091905b81831061399557505061396d93508201015f808061395e565b8554888401850152948501948794509183019161397c565b9250505061396d94925060ff191682840152151560051b8201015f808061395e565b9181601f8401121561038f578235916001600160401b03831161038f576020838186019501011161038f57565b6004359061ffff8216820361038f57565b6024359061ffff8216820361038f57565b6001600160401b0381116138c25760051b60200190565b9291613a4082613a1e565b91613a4e604051938461390c565b829481845260208094019160051b810192831161038f57905b828210613a745750505050565b81358152908301908301613a67565b9080601f8301121561038f57816020613a9e93359101613a35565b90565b6001600160401b0381116138c257601f01601f191660200190565b929192613ac882613aa1565b91613ad6604051938461390c565b82948184528183011161038f578281602093845f960137010152565b9080601f8301121561038f57816020613a9e93359101613abc565b9081518082526020808093019301915f5b828110613b2c575050505090565b835185529381019392810192600101613b1e565b3461038f575f36600319011261038f57602060405160018152f35b3461038f575f36600319011261038f57602060405160028152f35b6001600160a01b0316908115613b9e575f525f60205260405f20905f5260205260405f205490565b60405162461bcd60e51b815260206004820152602a60248201527f455243313135353a2061646472657373207a65726f206973206e6f742061207660448201526930b634b21037bbb732b960b11b6064820152608490fd5b908060209392818452848401375f828201840152601f01601f1916010190565b15613c1d57565b60405162461bcd60e51b8152602060048201526013602482015272496e76616c6964207765616c7468207461736b60681b6044820152606490fd5b15613c5f57565b60405162461bcd60e51b815260206004820152600f60248201526e105b1c9958591e4818db185a5b5959608a1b6044820152606490fd5b15613c9d57565b60405162461bcd60e51b815260206004820152600f60248201526e125b9d985b1a59081c1c9bd91d58dd608a1b6044820152606490fd5b91908201809211613ce157565b634e487b7160e01b5f52601160045260245ffd5b61ffff16613d04811515613c96565b6103e8908101809111613ce15790565b15613d1b57565b60405162461bcd60e51b815260206004820152602e60248201527f455243313135353a2063616c6c6572206973206e6f7420746f6b656e206f776e60448201526d195c881bdc88185c1c1c9bdd995960921b6064820152608490fd5b15613d7e57565b60405162461bcd60e51b8152602060048201526013602482015272125b9d985b1a59081858da1a595d995b595b9d606a1b6044820152606490fd5b90613dc382613a1e565b613dd0604051918261390c565b8281528092613de1601f1991613a1e565b0190602036910137565b8051821015613dff5760209160051b010190565b634e487b7160e01b5f52603260045260245ffd5b9190811015613dff5760051b0190565b601754811015613dff5760175f527fc624b66cc0138b8fabc209247f72d758e1cf3343756d543badbf24212bed8c1501905f90565b15613e5f57565b60405162461bcd60e51b8152602060048201526012602482015271496e76616c696420686f6d6520626164676560701b6044820152606490fd5b6003546001600160a01b03163303613ead57565b606460405162461bcd60e51b815260206004820152602060248201527f4f776e61626c653a2063616c6c6572206973206e6f7420746865206f776e65726044820152fd5b60405190613efe826138d6565b601b82527f5269736b4c656e732057616c6c657420436f6c6c65637469626c6500000000006020830152565b6064811180614303575b6141d15760c88111806141c6575b61413e57613f4f81614f8e565b614011576103e8811180614004575b613f9c5750604051613f6f816138d6565b601981527f5269736b4c656e732044656d6f20436f6c6c65637469626c6500000000000000602082015290565b61ffff613fab613fb192615134565b1661534b565b613a9e603a60405180937f5269736b4c656e73205765616c74682052656365697074202d200000000000006020830152613ff48151809260208686019101613829565b810103601a81018452018261390c565b50620103e7811115613f5e565b6006811461410457600781146140ca576008811461409b576009146140695760405161403c816138d6565b601981527f5269736b4c656e732050726f7465637469766520486564676500000000000000602082015290565b604051614075816138d6565b60168152755269736b4c656e732050657270204c6576657261676560501b602082015290565b506040516140a8816138d6565b601281527105269736b4c656e732053706f74204c6f6f760741b602082015290565b506040516140d7816138d6565b601a81527f5269736b4c656e73205061706572204c6561646572626f617264000000000000602082015290565b50604051614111816138d6565b601981527f5269736b4c656e73205061706572204261736520436865636b00000000000000602082015290565b60c7198101908111613ce15760ff1660011461418d57604051614160816138d6565b601f81527f5269736b4c656e73205765616c7468204c6966656379636c6520426164676500602082015290565b604051614199816138d6565b601d81527f5269736b4c656e73205765616c74682052656365697074204261646765000000602082015290565b5060ca811115613f42565b6063198101908111613ce15760ff16600181146142c957600281146142c05760038114614286576004146142435760405161420b816138f1565b602281527f5269736b4c656e73205061706572205072657669657720436f6c6c65637469626020820152616c6560f01b604082015290565b60405161424f816138f1565b602181527f5269736b4c656e732050726f64756374205175697a20436f6c6c65637469626c6020820152606560f81b604082015290565b50604051614293816138d6565b602081527f5269736b4c656e73205269736b2052657669657720436f6c6c65637469626c65602082015290565b50613a9e613ef1565b506040516142d6816138d6565b601c81527f5269736b4c656e732057656c636f6d6520436f6c6c65637469626c6500000000602082015290565b506069811115613f34565b6103e8811180614532575b6144985761432681614f8e565b6144465760c881118061443b575b6143f4576064811190816143e8575b5061439a57604051614354816138f1565b603081527f41205365706f6c696120636f6c6c65637469626c6520666f722074686520526960208201526f39b5a632b739903232b6b790343ab11760811b604082015290565b6040516143a6816138f1565b602c81527f5365706f6c6961206f6e626f617264696e6720636f6c6c65637469626c65206660208201526b37b9102934b9b5a632b7399760a11b604082015290565b6069915011155f614343565b50604051614401816138f1565b602481527f5365706f6c6961205765616c746820776f726b666c6f7720636f6c6c656374696020820152633136329760e11b604082015290565b5060ca811115614334565b50604051614453816138f1565b602f81527f5365706f6c69612070617065722d74726164696e6720616368696576656d656e60208201526e3a103337b9102934b9b5a632b7399760891b604082015290565b61ffff613fab6144a792615134565b613a9e606360405180937f5365706f6c6961205765616c7468207265636569707420666f7220000000000060208301526144eb815180926020603b86019101613829565b81017f2e20536574746c65206f722072656465656d206275726e73206d61746368696e603b8201526733903ab734ba399760c11b605b82015203604381018452018261390c565b50620103e7811115614319565b9061454982613aa1565b614556604051918261390c565b8281528092613de1601f1991613aa1565b908151156146ac576040519161457c836138f1565b604083527f4142434445464748494a4b4c4d4e4f505152535455565758595a61626364656660208401527f6768696a6b6c6d6e6f707172737475767778797a303132333435363738392b2f604084015280519260029160028501809511613ce1576003948590046001600160fe1b0381168103613ce1576146029060029694961b61453f565b9260208401928291835184019760208901928351945f85525b8a811061465f5750505050600393949596505251068060011461464d57600214614643575090565b603d905f19015390565b50603d90815f19820153600119015390565b836004919b989b019a8b51600190603f9082828260121c16870101518453828282600c1c16870101518385015382828260061c16870101518785015316840101518582015301969961461b565b90506040516146ba816138a7565b5f815290565b60648111806147d0575b6147af5760c88111806147a4575b61477c576146e581614f8e565b614752576103e881119081614744575b5061471a57604051614706816138d6565b600481526344656d6f60e01b602082015290565b604051614726816138d6565b600e81526d15d9585b1d1a08149958d95a5c1d60921b602082015290565b620103e7915011155f6146f5565b5060405161475f816138d6565b600d81526c50617065722054726164696e6760981b602082015290565b50604051614789816138d6565b600b81526a5765616c7468205461736b60a81b602082015290565b5060ca8111156146d8565b506040516147bc816138d6565b6004815263486f6d6560e01b602082015290565b5060698111156146ca565b805f917a184f03e93ff9f4daa797ed6e38ed64bf6a1f0100000000000000008082101561490f575b506d04ee2d6d415b85acef810000000080831015614900575b50662386f26fc10000808310156148f1575b506305f5e100808310156148e2575b50612710808310156148d3575b5060648210156148c3575b600a809210156148b9575b6001908160216148726001870161453f565b95860101905b614884575b5050505090565b5f19019083906f181899199a1a9b1b9c1cb0b131b232b360811b8282061a8353049182156148b457919082614878565b61487d565b9160010191614860565b9190606460029104910191614855565b6004919392049101915f61484a565b6008919392049101915f61483d565b6010919392049101915f61482e565b6020919392049101915f61481c565b60409350810491505f614803565b1561492457565b60405162461bcd60e51b815260206004820152600b60248201526a5a65726f2073686172657360a81b6044820152606490fd5b9291909260ff60085416614bdb5761ffff841690614976821515613c96565b6006548310614ba65761498f83956128ac85151561491d565b9260409081519061499f826138a7565b5f82526001600160a01b038416936149b8851515614fa6565b6149c187615d7f565b506149cb82615d7f565b50865f526020925f8452845f20865f528452845f206149eb848254613cd4565b9055855f86518a815285878201525f80516020615da5833981519152883392a4813b614a99575b5090614a5f7f1ce38089da937ff378b753cbad5b85ebccefe73af87b074d88b881b11bccc86a949392865f5260158452845f20885f528452845f20614a58848254613cd4565b9055614c42565b847ff94991dcbea6e8ac439cbc93bd9c62a4d39f04e0ad656df9a703f13552c2787f8480518481528486820152a2825191818352820152a4565b849997959398969451898180614add63f23a6e6160e01b958683523360048401525f60248401528b604484015288606484015260a0608484015260a483019061384a565b03815f895af15f9181614b87575b50614b51578a8a614afa615c7b565b6308c379a014614b1d575b505162461bcd60e51b81528061067e60048201615d03565b614b25615c96565b9081614b315750614b05565b61067e835192839262461bcd60e51b84526004840152602483019061384a565b63ffffffff60e09b96989a9597999b1b1603614b6f57614a5f614a12565b835162461bcd60e51b81528061067e60048201615c32565b614b9f9192508b3d8d1161070a576106fb818361390c565b905f614aeb565b60405162461bcd60e51b815260206004820152600d60248201526c42656c6f77206d696e696d756d60981b6044820152606490fd5b60405162461bcd60e51b815260206004820152601460248201527314dd589cd8dc9a5c1d1a5bdb9cc81c185d5cd95960621b6044820152606490fd5b60ff1660018114908115614c29575090565b600291501490565b60ff1660c8018060c811613ce15790565b6001600160a01b0381165f818152600f60209081526040808320600180855290835292819020805460ff19168417905591938315614dfd5760c95f525f8252825f20845f528252825f205415614c9a575b5050505050565b825190614ca6826138a7565b5f82528351614cb4816138d6565b86815283810190843683375115613dff5760c99052614cd1615d58565b5060c95f525f8352835f20855f528352835f20805490878201809211613ce15755845f855160c9815288868201525f80516020615da5833981519152873392a43b614d48575b5050507fbd1ae2c6d13c1a8dc9dbe03823192cb9ab92b45e5b9264dd65b2794c526e6f9f5f80a35f80808080614c93565b82959391949251858180614d8b63f23a6e6160e01b958683523360048401525f602484015260c9604484015288606484015260a0608484015260a483019061384a565b03815f875af15f9181614dde575b50614da8578686614afa615c7b565b939592945090926001600160e01b03191603614dc757505f8080614d17565b5162461bcd60e51b81528061067e60048201615c32565b614df6919250873d891161070a576106fb818361390c565b905f614d99565b50608491519062461bcd60e51b82526004820152602a60248201527f455243313135353a2061646472657373207a65726f206973206e6f742061207660448201526930b634b21037bbb732b960b11b6064820152fd5b15614e5a57565b60405162461bcd60e51b815260206004820152602860248201527f455243313135353a2069647320616e6420616d6f756e7473206c656e677468206044820152670dad2e6dac2e8c6d60c31b6064820152608490fd5b15614eb757565b60405162461bcd60e51b815260206004820152602560248201527f455243313135353a207472616e7366657220746f20746865207a65726f206164604482015264647265737360d81b6064820152608490fd5b15614f1157565b60405162461bcd60e51b815260206004820152602a60248201527f455243313135353a20696e73756666696369656e742062616c616e636520666f60448201526939103a3930b739b332b960b11b6064820152608490fd5b9091614f80613a9e93604084526040840190613b0d565b916020818403910152613b0d565b60068110159081614f9d575090565b600a9150111590565b15614fad57565b60405162461bcd60e51b815260206004820152602160248201527f455243313135353a206d696e7420746f20746865207a65726f206164647265736044820152607360f81b6064820152608490fd5b91906001600160a01b038316615013811515614fa6565b61501c82615d7f565b50615025615d58565b50815f526020925f8452604094855f20835f528552855f2080549060018201809211613ce15755825f87518681526001888201525f80516020615da5833981519152893392a43b615077575050505050565b926150be5f9286979583975194858094819363f23a6e6160e01b998a845233600485015284602485015260448401526001606484015260a0608484015260a483019061384a565b03925af15f91816150fa575b506150da57505050614afa615c7b565b919392506001600160e01b031990911603614dc757505f80808080614c93565b615112919250853d871161070a576106fb818361390c565b905f6150ca565b60ff166001811015908161512b575090565b60059150111590565b6103e719810191908211613ce157565b91908203918211613ce157565b90929161ffff841690615165821515613c96565b61517081151561491d565b61517a8195613cf5565b926001600160a01b03169081156152fa5761519484615d7f565b5061519e81615d7f565b506040905f82516151ae816138a7565b52845f526020905f8252825f20845f528252825f20548181106152aa5790807f7c7917c3334372c8a1ab0009b4314b5fa722b2ae8bb2603b7195279aeb45a37a949392885f525f8452845f20875f52845203835f20555f85845189815283858201525f80516020615da5833981519152863392a45f835161522e816138a7565b525f858152601583528381208782528352839020548181811061529c5750505f5b855f5260158352835f20875f528352835f2055847ff3a670cd3af7d64b488926880889d08a8585a138ff455227af6737339a1ec2628480518481528486820152a2825191818352820152a4565b6152a591615144565b61524f565b835162461bcd60e51b8152600481018490526024808201527f455243313135353a206275726e20616d6f756e7420657863656564732062616c604482015263616e636560e01b6064820152608490fd5b60405162461bcd60e51b815260206004820152602360248201527f455243313135353a206275726e2066726f6d20746865207a65726f206164647260448201526265737360e81b6064820152608490fd5b61ffff16805f52601660205261536360405f2061392d565b9081516153ba5761537491506147db565b613a9e603060405180936f5765616c74682050726f64756374202360801b60208301526153aa8151809260208686019101613829565b810103601081018452018261390c565b5090565b6103e8811180615528575b6155045760c88111806154f9575b6154d5576153e481614f8e565b6154b1576064811190816154a5575b818061548d575b615468578161544f575b5061542c57604051615415816138d6565b60078152662342364646343360c81b602082015290565b604051615438816138d6565b600781526611a32322189b1b60c91b602082015290565b606319810191508111613ce15760ff166003145f615404565b5050604051615476816138d6565b600781526611a32321199b2160c91b602082015290565b506063198101818111613ce15760ff166004146153fa565b606981111591506153f3565b506040516154be816138d6565b6007815266119b9b209ca32360c91b602082015290565b506040516154e2816138d6565b600781526608cd0e510d90cd60ca1b602082015290565b5060ca8111156153d7565b50604051615511816138d6565b600781526611a19c23231b2160c91b602082015290565b50620103e78111156153c9565b6103e881118061560a575b6155d05760c88111806155c5575b6155995761555b90614f8e565b61556757613a9e613ef1565b604051615573816138d6565b60168152755269736b4c656e732050617065722054726164696e6760501b602082015290565b506040516155a6816138d6565b600f81526e0a4d2e6d698cadce640aecac2d8e8d608b1b602082015290565b5060ca81111561554e565b506040516155dd816138d6565b601781527f5269736b4c656e73205765616c74682052656365697074000000000000000000602082015290565b50620103e7811115615540565b60405190615624826138d6565b60068252650ae8a8298a8960d31b6020830152565b6103e88111806156ba575b6156a65760c88111806156af575b6156a65761565f90614f8e565b6156855760405161566f816138d6565b600681526515d05313115560d21b602082015290565b604051615691816138d6565b60058152642820a822a960d91b602082015290565b50613a9e615617565b5060ca811115615652565b50620103e7811115615644565b6103e88111806159c8575b61596f5760c8811180615964575b6158fa576156ed81614f8e565b615821576064811180615816575b615727575060405161570c816138d6565b600b81526a434f4c4c45435449424c4560a81b602082015290565b6063198101908111613ce15760ff16600181146157f257600281146157ce57600381146157a65760041461577e57604051615761816138d6565b600d81526c5041504552205052455649455760981b602082015290565b60405161578a816138d6565b600c81526b282927a22aa1aa1028aaa4ad60a11b602082015290565b506040516157b3816138d6565b600b81526a5249534b2052455649455760a81b602082015290565b506040516157db816138d6565b600781526610d3d3939150d560ca1b602082015290565b506040516157ff816138d6565b600781526657454c434f4d4560c81b602082015290565b5060698111156156fb565b600681146158d357600781146158ab5760088114615885576009146158615760405161584c816138d6565b6005815264484544474560d81b602082015290565b60405161586d816138d6565b60088152674c4556455241474560c01b602082015290565b50604051615892816138d6565b6009815268053504f54204c4f4f560bc1b602082015290565b506040516158b8816138d6565b600b81526a1311505111549093d0549160aa1b602082015290565b506040516158e0816138d6565b600a8152694241534520434845434b60b01b602082015290565b60c7198101908111613ce15760ff166001036159395760405161591c816138d6565b600d81526c5245434549505420424144474560981b602082015290565b604051615945816138d6565b600f81526e4c4946454359434c4520424144474560881b602082015290565b5060ca8111156156e0565b6103e7198101908111613ce15761ffff61598991166147db565b613a9e602960405180936852454345495054202360b81b60208301526159b88151809260208686019101613829565b810103600981018452018261390c565b50620103e78111156156d2565b6103e8811180615af0575b615ab65760c8811180615aab575b615a71576159fb90614f8e565b615a3857604051615a0b816138d6565b601d81527f4f6e626f617264696e67206d696c6573746f6e65207265636f72646564000000602082015290565b604051615a44816138d6565b601b81527f5265706c617920616368696576656d656e74207265636f726465640000000000602082015290565b50604051615a7e816138d6565b601b81527f576f726b666c6f77206d696c6573746f6e65207265636f726465640000000000602082015290565b5060ca8111156159ee565b50604051615ac3816138d6565b602081527f537562736372697074696f6e207265636569707420736861726573206c697665602082015290565b50620103e78111156159e0565b6103e8811180615c05575b615bcb5760c8811180615bc0575b615b9057615b2390614f8e565b615b5757604051615b33816138d6565b60148152733337b9103a3432902934b9b5a632b73990343ab160611b602082015290565b604051615b63816138d6565b601981527f666f72207468652073696d756c6174696f6e2077616c6c657400000000000000602082015290565b50604051615b9d816138d6565b6013815272666f7220746865205765616c746820666c6f7760681b602082015290565b5060ca811115615b16565b50604051615bd8816138d6565b601781527f696e2074686520636f6e6e65637465642077616c6c6574000000000000000000602082015290565b50620103e7811115615b08565b9081602091031261038f57516001600160e01b03198116810361038f5790565b60809060208152602860208201527f455243313135353a204552433131353552656365697665722072656a656374656040820152676420746f6b656e7360c01b60608201520190565b5f9060033d11615c8757565b905060045f803e5f5160e01c90565b5f60443d10613a9e57604051600319913d83016004833e81516001600160401b03918282113d602484011117615cf257818401948551938411615cfa573d85010160208487010111615cf25750613a9e9291016020019061390c565b949350505050565b50949350505050565b60809060208152603460208201527f455243313135353a207472616e7366657220746f206e6f6e2d455243313135356040820152732932b1b2b4bb32b91034b6b83632b6b2b73a32b960611b60608201520190565b604051615d64816138d6565b60018152602081016020368237815115613dff576001905290565b60405190615d8c826138d6565b60018252602082016020368237825115613dff57529056fec3d58168c5ae7397731d063d5bbf3d657854427343f4c083240f7aacaa2d0f62a2646970667358221220b7477f4e8116280692552c5ca1d8d15ebaf8015d1bfd338628053778da621cf464736f6c63430008180033",
  "linkReferences": {},
  "deployedLinkReferences": {},
  "immutableReferences": {},
  "inputSourceName": "project/contracts/MSXUnifiedDemoHub.sol",
  "buildInfoId": "solc-0_8_24-30a727be753cbb4e338cb905de400da3eef75a44"
}