{
  "_format": "hh3-artifact-1",
  "contractName": "MSXUnifiedDemoHub",
  "sourceName": "contracts/MSXUnifiedDemoHub.sol",
  "abi": [
    {
      "inputs": [
        {
          "internalType": "string",
          "name": "baseUri",
          "type": "string"
        }
      ],
      "stateMutability": "nonpayable",
      "type": "constructor"
    },
    {
      "anonymous": false,
      "inputs": [
        {
          "indexed": true,
          "internalType": "address",
          "name": "account",
          "type": "address"
        },
        {
          "indexed": true,
          "internalType": "uint256",
          "name": "achievementId",
          "type": "uint256"
        }
      ],
      "name": "AchievementClaimed",
      "type": "event"
    },
    {
      "anonymous": false,
      "inputs": [
        {
          "indexed": true,
          "internalType": "address",
          "name": "account",
          "type": "address"
        },
        {
          "indexed": true,
          "internalType": "address",
          "name": "operator",
          "type": "address"
        },
        {
          "indexed": false,
          "internalType": "bool",
          "name": "approved",
          "type": "bool"
        }
      ],
      "name": "ApprovalForAll",
      "type": "event"
    },
    {
      "anonymous": false,
      "inputs": [
        {
          "indexed": false,
          "internalType": "bytes32",
          "name": "attestationRoot",
          "type": "bytes32"
        },
        {
          "indexed": false,
          "internalType": "uint256",
          "name": "timestamp",
          "type": "uint256"
        }
      ],
      "name": "AttestationUpdated",
      "type": "event"
    },
    {
      "anonymous": false,
      "inputs": [
        {
          "indexed": true,
          "internalType": "address",
          "name": "investor",
          "type": "address"
        },
        {
          "indexed": false,
          "internalType": "bool",
          "name": "allowed",
          "type": "bool"
        },
        {
          "indexed": true,
          "internalType": "uint8",
          "name": "tier",
          "type": "uint8"
        }
      ],
      "name": "InvestorEligibilityUpdated",
      "type": "event"
    },
    {
      "anonymous": false,
      "inputs": [
        {
          "indexed": true,
          "internalType": "address",
          "name": "renderer",
          "type": "address"
        }
      ],
      "name": "MetadataRendererUpdated",
      "type": "event"
    },
    {
      "anonymous": false,
      "inputs": [
        {
          "indexed": false,
          "internalType": "uint256",
          "name": "navBps",
          "type": "uint256"
        },
        {
          "indexed": false,
          "internalType": "uint256",
          "name": "timestamp",
          "type": "uint256"
        }
      ],
      "name": "NavUpdated",
      "type": "event"
    },
    {
      "anonymous": false,
      "inputs": [
        {
          "indexed": true,
          "internalType": "address",
          "name": "previousOwner",
          "type": "address"
        },
        {
          "indexed": true,
          "internalType": "address",
          "name": "newOwner",
          "type": "address"
        }
      ],
      "name": "OwnershipTransferred",
      "type": "event"
    },
    {
      "anonymous": false,
      "inputs": [
        {
          "indexed": true,
          "internalType": "address",
          "name": "account",
          "type": "address"
        },
        {
          "indexed": true,
          "internalType": "uint256",
          "name": "tokenId",
          "type": "uint256"
        },
        {
          "indexed": false,
          "internalType": "string",
          "name": "category",
          "type": "string"
        },
        {
          "indexed": false,
          "internalType": "string",
          "name": "submittedOn",
          "type": "string"
        },
        {
          "indexed": false,
          "internalType": "int256",
          "name": "returnBps",
          "type": "int256"
        },
        {
          "indexed": false,
          "internalType": "uint256",
          "name": "winRateBps",
          "type": "uint256"
        },
        {
          "indexed": false,
          "internalType": "uint256",
          "name": "maxDrawdownBps",
          "type": "uint256"
        }
      ],
      "name": "PaperLeaderboardCredentialMinted",
      "type": "event"
    },
    {
      "anonymous": false,
      "inputs": [
        {
          "indexed": true,
          "internalType": "uint16",
          "name": "productId",
          "type": "uint16"
        },
        {
          "indexed": false,
          "internalType": "string",
          "name": "detail",
          "type": "string"
        }
      ],
      "name": "ProductReceiptDetailUpdated",
      "type": "event"
    },
    {
      "anonymous": false,
      "inputs": [
        {
          "indexed": true,
          "internalType": "uint16",
          "name": "productId",
          "type": "uint16"
        },
        {
          "indexed": false,
          "internalType": "string",
          "name": "label",
          "type": "string"
        }
      ],
      "name": "ProductReceiptLabelUpdated",
      "type": "event"
    },
    {
      "anonymous": false,
      "inputs": [
        {
          "indexed": true,
          "internalType": "uint16",
          "name": "productId",
          "type": "uint16"
        },
        {
          "indexed": false,
          "internalType": "string",
          "name": "productType",
          "type": "string"
        },
        {
          "indexed": false,
          "internalType": "string",
          "name": "maturity",
          "type": "string"
        }
      ],
      "name": "ProductReceiptMetadataUpdated",
      "type": "event"
    },
    {
      "anonymous": false,
      "inputs": [
        {
          "indexed": true,
          "internalType": "address",
          "name": "investor",
          "type": "address"
        },
        {
          "indexed": true,
          "internalType": "uint16",
          "name": "productId",
          "type": "uint16"
        },
        {
          "indexed": true,
          "internalType": "uint256",
          "name": "tokenId",
          "type": "uint256"
        },
        {
          "indexed": false,
          "internalType": "uint256",
          "name": "shareAmount",
          "type": "uint256"
        },
        {
          "indexed": false,
          "internalType": "uint256",
          "name": "assetAmount",
          "type": "uint256"
        }
      ],
      "name": "ProductReceiptRedeemed",
      "type": "event"
    },
    {
      "anonymous": false,
      "inputs": [
        {
          "indexed": true,
          "internalType": "address",
          "name": "investor",
          "type": "address"
        },
        {
          "indexed": true,
          "internalType": "uint16",
          "name": "fromProductId",
          "type": "uint16"
        },
        {
          "indexed": true,
          "internalType": "uint16",
          "name": "toProductId",
          "type": "uint16"
        },
        {
          "indexed": false,
          "internalType": "uint256",
          "name": "burnAmount",
          "type": "uint256"
        },
        {
          "indexed": false,
          "internalType": "uint256",
          "name": "mintAmount",
          "type": "uint256"
        }
      ],
      "name": "ProductReceiptSettled",
      "type": "event"
    },
    {
      "anonymous": false,
      "inputs": [
        {
          "indexed": true,
          "internalType": "address",
          "name": "investor",
          "type": "address"
        },
        {
          "indexed": true,
          "internalType": "uint16",
          "name": "productId",
          "type": "uint16"
        },
        {
          "indexed": true,
          "internalType": "uint256",
          "name": "tokenId",
          "type": "uint256"
        },
        {
          "indexed": false,
          "internalType": "uint256",
          "name": "assetAmount",
          "type": "uint256"
        },
        {
          "indexed": false,
          "internalType": "uint256",
          "name": "shareAmount",
          "type": "uint256"
        },
        {
          "indexed": false,
          "internalType": "uint256",
          "name": "purchasedAt",
          "type": "uint256"
        },
        {
          "indexed": false,
          "internalType": "string",
          "name": "productDetail",
          "type": "string"
        }
      ],
      "name": "ProductReceiptSubscribed",
      "type": "event"
    },
    {
      "anonymous": false,
      "inputs": [
        {
          "indexed": true,
          "internalType": "address",
          "name": "investor",
          "type": "address"
        },
        {
          "indexed": false,
          "internalType": "uint256",
          "name": "shareAmount",
          "type": "uint256"
        },
        {
          "indexed": false,
          "internalType": "uint256",
          "name": "assetAmount",
          "type": "uint256"
        }
      ],
      "name": "Redeemed",
      "type": "event"
    },
    {
      "anonymous": false,
      "inputs": [
        {
          "indexed": true,
          "internalType": "address",
          "name": "account",
          "type": "address"
        },
        {
          "indexed": false,
          "internalType": "int256",
          "name": "netPnl",
          "type": "int256"
        },
        {
          "indexed": false,
          "internalType": "uint256",
          "name": "accountValue",
          "type": "uint256"
        },
        {
          "indexed": false,
          "internalType": "uint256",
          "name": "tradeCount",
          "type": "uint256"
        },
        {
          "indexed": false,
          "internalType": "uint256",
          "name": "submittedAt",
          "type": "uint256"
        }
      ],
      "name": "ReplayScoreSubmitted",
      "type": "event"
    },
    {
      "anonymous": false,
      "inputs": [
        {
          "indexed": false,
          "internalType": "string",
          "name": "status",
          "type": "string"
        },
        {
          "indexed": false,
          "internalType": "uint256",
          "name": "timestamp",
          "type": "uint256"
        }
      ],
      "name": "StrategyStatusUpdated",
      "type": "event"
    },
    {
      "anonymous": false,
      "inputs": [
        {
          "indexed": true,
          "internalType": "address",
          "name": "investor",
          "type": "address"
        },
        {
          "indexed": false,
          "internalType": "uint256",
          "name": "assetAmount",
          "type": "uint256"
        },
        {
          "indexed": false,
          "internalType": "uint256",
          "name": "shareAmount",
          "type": "uint256"
        }
      ],
      "name": "Subscribed",
      "type": "event"
    },
    {
      "anonymous": false,
      "inputs": [
        {
          "indexed": true,
          "internalType": "address",
          "name": "recipient",
          "type": "address"
        },
        {
          "indexed": true,
          "internalType": "uint8",
          "name": "badgeType",
          "type": "uint8"
        },
        {
          "indexed": true,
          "internalType": "uint256",
          "name": "tokenId",
          "type": "uint256"
        }
      ],
      "name": "TaskBadgeMinted",
      "type": "event"
    },
    {
      "anonymous": false,
      "inputs": [
        {
          "indexed": true,
          "internalType": "address",
          "name": "operator",
          "type": "address"
        },
        {
          "indexed": true,
          "internalType": "address",
          "name": "from",
          "type": "address"
        },
        {
          "indexed": true,
          "internalType": "address",
          "name": "to",
          "type": "address"
        },
        {
          "indexed": false,
          "internalType": "uint256[]",
          "name": "ids",
          "type": "uint256[]"
        },
        {
          "indexed": false,
          "internalType": "uint256[]",
          "name": "values",
          "type": "uint256[]"
        }
      ],
      "name": "TransferBatch",
      "type": "event"
    },
    {
      "anonymous": false,
      "inputs": [
        {
          "indexed": true,
          "internalType": "address",
          "name": "operator",
          "type": "address"
        },
        {
          "indexed": true,
          "internalType": "address",
          "name": "from",
          "type": "address"
        },
        {
          "indexed": true,
          "internalType": "address",
          "name": "to",
          "type": "address"
        },
        {
          "indexed": false,
          "internalType": "uint256",
          "name": "id",
          "type": "uint256"
        },
        {
          "indexed": false,
          "internalType": "uint256",
          "name": "value",
          "type": "uint256"
        }
      ],
      "name": "TransferSingle",
      "type": "event"
    },
    {
      "anonymous": false,
      "inputs": [
        {
          "indexed": false,
          "internalType": "string",
          "name": "value",
          "type": "string"
        },
        {
          "indexed": true,
          "internalType": "uint256",
          "name": "id",
          "type": "uint256"
        }
      ],
      "name": "URI",
      "type": "event"
    },
    {
      "anonymous": false,
      "inputs": [
        {
          "indexed": true,
          "internalType": "bytes32",
          "name": "assetHash",
          "type": "bytes32"
        },
        {
          "indexed": false,
          "internalType": "bool",
          "name": "passed",
          "type": "bool"
        },
        {
          "indexed": false,
          "internalType": "string",
          "name": "note",
          "type": "string"
        }
      ],
      "name": "UnderlyingReviewRecorded",
      "type": "event"
    },
    {
      "anonymous": false,
      "inputs": [
        {
          "indexed": true,
          "internalType": "address",
          "name": "account",
          "type": "address"
        },
        {
          "indexed": true,
          "internalType": "uint16",
          "name": "productId",
          "type": "uint16"
        },
        {
          "indexed": true,
          "internalType": "uint256",
          "name": "tokenId",
          "type": "uint256"
        },
        {
          "indexed": false,
          "internalType": "uint256",
          "name": "supportAmount",
          "type": "uint256"
        },
        {
          "indexed": false,
          "internalType": "string",
          "name": "pledgedOn",
          "type": "string"
        }
      ],
      "name": "WealthPledgeCredentialMinted",
      "type": "event"
    },
    {
      "anonymous": false,
      "inputs": [
        {
          "indexed": true,
          "internalType": "address",
          "name": "account",
          "type": "address"
        },
        {
          "indexed": true,
          "internalType": "uint8",
          "name": "taskId",
          "type": "uint8"
        }
      ],
      "name": "WealthTaskCompleted",
      "type": "event"
    },
    {
      "anonymous": false,
      "inputs": [
        {
          "indexed": true,
          "internalType": "address",
          "name": "account",
          "type": "address"
        },
        {
          "indexed": true,
          "internalType": "uint8",
          "name": "taskId",
          "type": "uint8"
        },
        {
          "indexed": false,
          "internalType": "int256",
          "name": "realizedPnl",
          "type": "int256"
        },
        {
          "indexed": false,
          "internalType": "bytes32",
          "name": "evidenceHash",
          "type": "bytes32"
        }
      ],
      "name": "WealthTaskEvidenceRecorded",
      "type": "event"
    },
    {
      "inputs": [],
      "name": "ASSET_DECIMALS",
      "outputs": [
        {
          "internalType": "uint8",
          "name": "",
          "type": "uint8"
        }
      ],
      "stateMutability": "view",
      "type": "function"
    },
    {
      "inputs": [],
      "name": "BPS",
      "outputs": [
        {
          "internalType": "uint256",
          "name": "",
          "type": "uint256"
        }
      ],
      "stateMutability": "view",
      "type": "function"
    },
    {
      "inputs": [],
      "name": "DEFAULT_WEALTH_PRODUCT_ID",
      "outputs": [
        {
          "internalType": "uint16",
          "name": "",
          "type": "uint16"
        }
      ],
      "stateMutability": "view",
      "type": "function"
    },
    {
      "inputs": [],
      "name": "HOME_PAPER",
      "outputs": [
        {
          "internalType": "uint8",
          "name": "",
          "type": "uint8"
        }
      ],
      "stateMutability": "view",
      "type": "function"
    },
    {
      "inputs": [],
      "name": "HOME_QUIZ",
      "outputs": [
        {
          "internalType": "uint8",
          "name": "",
          "type": "uint8"
        }
      ],
      "stateMutability": "view",
      "type": "function"
    },
    {
      "inputs": [],
      "name": "HOME_RISK",
      "outputs": [
        {
          "internalType": "uint8",
          "name": "",
          "type": "uint8"
        }
      ],
      "stateMutability": "view",
      "type": "function"
    },
    {
      "inputs": [],
      "name": "HOME_WALLET",
      "outputs": [
        {
          "internalType": "uint8",
          "name": "",
          "type": "uint8"
        }
      ],
      "stateMutability": "view",
      "type": "function"
    },
    {
      "inputs": [],
      "name": "HOME_WELCOME",
      "outputs": [
        {
          "internalType": "uint8",
          "name": "",
          "type": "uint8"
        }
      ],
      "stateMutability": "view",
      "type": "function"
    },
    {
      "inputs": [],
      "name": "MAX_SCORE_SUBMISSIONS_PER_DAY",
      "outputs": [
        {
          "internalType": "uint256",
          "name": "",
          "type": "uint256"
        }
      ],
      "stateMutability": "view",
      "type": "function"
    },
    {
      "inputs": [],
      "name": "PAPER_BASE_CHECK",
      "outputs": [
        {
          "internalType": "uint256",
          "name": "",
          "type": "uint256"
        }
      ],
      "stateMutability": "view",
      "type": "function"
    },
    {
      "inputs": [],
      "name": "PAPER_LEADERBOARD",
      "outputs": [
        {
          "internalType": "uint256",
          "name": "",
          "type": "uint256"
        }
      ],
      "stateMutability": "view",
      "type": "function"
    },
    {
      "inputs": [],
      "name": "PAPER_PERP_LEVERAGE",
      "outputs": [
        {
          "internalType": "uint256",
          "name": "",
          "type": "uint256"
        }
      ],
      "stateMutability": "view",
      "type": "function"
    },
    {
      "inputs": [],
      "name": "PAPER_PROTECTIVE_HEDGE",
      "outputs": [
        {
          "internalType": "uint256",
          "name": "",
          "type": "uint256"
        }
      ],
      "stateMutability": "view",
      "type": "function"
    },
    {
      "inputs": [],
      "name": "PAPER_SPOT_LOOP",
      "outputs": [
        {
          "internalType": "uint256",
          "name": "",
          "type": "uint256"
        }
      ],
      "stateMutability": "view",
      "type": "function"
    },
    {
      "inputs": [],
      "name": "WEALTH_DUAL_PROFIT",
      "outputs": [
        {
          "internalType": "uint8",
          "name": "",
          "type": "uint8"
        }
      ],
      "stateMutability": "view",
      "type": "function"
    },
    {
      "inputs": [],
      "name": "WEALTH_PLEDGE",
      "outputs": [
        {
          "internalType": "uint8",
          "name": "",
          "type": "uint8"
        }
      ],
      "stateMutability": "view",
      "type": "function"
    },
    {
      "inputs": [],
      "name": "WEALTH_PROFITABLE_TRADE",
      "outputs": [
        {
          "internalType": "uint8",
          "name": "",
          "type": "uint8"
        }
      ],
      "stateMutability": "view",
      "type": "function"
    },
    {
      "inputs": [
        {
          "internalType": "bytes32",
          "name": "",
          "type": "bytes32"
        }
      ],
      "name": "approvedUnderlyingHash",
      "outputs": [
        {
          "internalType": "bool",
          "name": "",
          "type": "bool"
        }
      ],
      "stateMutability": "view",
      "type": "function"
    },
    {
      "inputs": [],
      "name": "assetSymbol",
      "outputs": [
        {
          "internalType": "string",
          "name": "",
          "type": "string"
        }
      ],
      "stateMutability": "view",
      "type": "function"
    },
    {
      "inputs": [
        {
          "internalType": "address",
          "name": "account",
          "type": "address"
        },
        {
          "internalType": "uint256",
          "name": "id",
          "type": "uint256"
        }
      ],
      "name": "balanceOf",
      "outputs": [
        {
          "internalType": "uint256",
          "name": "",
          "type": "uint256"
        }
      ],
      "stateMutability": "view",
      "type": "function"
    },
    {
      "inputs": [
        {
          "internalType": "address[]",
          "name": "accounts",
          "type": "address[]"
        },
        {
          "internalType": "uint256[]",
          "name": "ids",
          "type": "uint256[]"
        }
      ],
      "name": "balanceOfBatch",
      "outputs": [
        {
          "internalType": "uint256[]",
          "name": "",
          "type": "uint256[]"
        }
      ],
      "stateMutability": "view",
      "type": "function"
    },
    {
      "inputs": [
        {
          "internalType": "address",
          "name": "investor",
          "type": "address"
        }
      ],
      "name": "canAccessAdvancedShelf",
      "outputs": [
        {
          "internalType": "bool",
          "name": "",
          "type": "bool"
        }
      ],
      "stateMutability": "view",
      "type": "function"
    },
    {
      "inputs": [
        {
          "internalType": "uint256",
          "name": "achievementId",
          "type": "uint256"
        }
      ],
      "name": "claim",
      "outputs": [],
      "stateMutability": "nonpayable",
      "type": "function"
    },
    {
      "inputs": [
        {
          "internalType": "uint256[]",
          "name": "achievementIds",
          "type": "uint256[]"
        }
      ],
      "name": "claimBatch",
      "outputs": [],
      "stateMutability": "nonpayable",
      "type": "function"
    },
    {
      "inputs": [
        {
          "internalType": "address",
          "name": "",
          "type": "address"
        }
      ],
      "name": "eligibleInvestor",
      "outputs": [
        {
          "internalType": "bool",
          "name": "",
          "type": "bool"
        }
      ],
      "stateMutability": "view",
      "type": "function"
    },
    {
      "inputs": [
        {
          "internalType": "address",
          "name": "holder",
          "type": "address"
        }
      ],
      "name": "hasMinted",
      "outputs": [
        {
          "internalType": "bool",
          "name": "",
          "type": "bool"
        }
      ],
      "stateMutability": "view",
      "type": "function"
    },
    {
      "inputs": [
        {
          "internalType": "address",
          "name": "",
          "type": "address"
        },
        {
          "internalType": "uint8",
          "name": "",
          "type": "uint8"
        }
      ],
      "name": "hasMintedBadge",
      "outputs": [
        {
          "internalType": "bool",
          "name": "",
          "type": "bool"
        }
      ],
      "stateMutability": "view",
      "type": "function"
    },
    {
      "inputs": [
        {
          "internalType": "address",
          "name": "holder",
          "type": "address"
        },
        {
          "internalType": "uint8",
          "name": "badgeType",
          "type": "uint8"
        }
      ],
      "name": "hasMintedTask",
      "outputs": [
        {
          "internalType": "bool",
          "name": "",
          "type": "bool"
        }
      ],
      "stateMutability": "view",
      "type": "function"
    },
    {
      "inputs": [
        {
          "internalType": "address",
          "name": "",
          "type": "address"
        }
      ],
      "name": "hasSubmittedScore",
      "outputs": [
        {
          "internalType": "bool",
          "name": "",
          "type": "bool"
        }
      ],
      "stateMutability": "view",
      "type": "function"
    },
    {
      "inputs": [
        {
          "internalType": "address",
          "name": "holder",
          "type": "address"
        },
        {
          "internalType": "uint8",
          "name": "taskId",
          "type": "uint8"
        }
      ],
      "name": "hasWealthTask",
      "outputs": [
        {
          "internalType": "bool",
          "name": "",
          "type": "bool"
        }
      ],
      "stateMutability": "view",
      "type": "function"
    },
    {
      "inputs": [
        {
          "internalType": "address",
          "name": "account",
          "type": "address"
        },
        {
          "internalType": "address",
          "name": "operator",
          "type": "address"
        }
      ],
      "name": "isApprovedForAll",
      "outputs": [
        {
          "internalType": "bool",
          "name": "",
          "type": "bool"
        }
      ],
      "stateMutability": "view",
      "type": "function"
    },
    {
      "inputs": [],
      "name": "lastAttestedAt",
      "outputs": [
        {
          "internalType": "uint256",
          "name": "",
          "type": "uint256"
        }
      ],
      "stateMutability": "view",
      "type": "function"
    },
    {
      "inputs": [],
      "name": "latestAttestationRoot",
      "outputs": [
        {
          "internalType": "bytes32",
          "name": "",
          "type": "bytes32"
        }
      ],
      "stateMutability": "view",
      "type": "function"
    },
    {
      "inputs": [
        {
          "internalType": "uint16",
          "name": "productId",
          "type": "uint16"
        },
        {
          "internalType": "uint256",
          "name": "supportAmount",
          "type": "uint256"
        },
        {
          "internalType": "string",
          "name": "pledgedOn",
          "type": "string"
        },
        {
          "internalType": "bytes32",
          "name": "evidenceHash",
          "type": "bytes32"
        }
      ],
      "name": "markWealthPledgeWithEvidence",
      "outputs": [
        {
          "internalType": "uint256",
          "name": "tokenId",
          "type": "uint256"
        }
      ],
      "stateMutability": "nonpayable",
      "type": "function"
    },
    {
      "inputs": [
        {
          "internalType": "uint8",
          "name": "taskId",
          "type": "uint8"
        }
      ],
      "name": "markWealthTask",
      "outputs": [],
      "stateMutability": "nonpayable",
      "type": "function"
    },
    {
      "inputs": [
        {
          "internalType": "uint8",
          "name": "taskId",
          "type": "uint8"
        },
        {
          "internalType": "int256",
          "name": "realizedPnl",
          "type": "int256"
        },
        {
          "internalType": "bytes32",
          "name": "evidenceHash",
          "type": "bytes32"
        }
      ],
      "name": "markWealthTaskWithEvidence",
      "outputs": [],
      "stateMutability": "nonpayable",
      "type": "function"
    },
    {
      "inputs": [],
      "name": "metadataRenderer",
      "outputs": [
        {
          "internalType": "address",
          "name": "",
          "type": "address"
        }
      ],
      "stateMutability": "view",
      "type": "function"
    },
    {
      "inputs": [],
      "name": "minSubscription",
      "outputs": [
        {
          "internalType": "uint256",
          "name": "",
          "type": "uint256"
        }
      ],
      "stateMutability": "view",
      "type": "function"
    },
    {
      "inputs": [
        {
          "internalType": "uint8",
          "name": "badgeType",
          "type": "uint8"
        },
        {
          "internalType": "address",
          "name": "to",
          "type": "address"
        }
      ],
      "name": "mintBadge",
      "outputs": [
        {
          "internalType": "uint256",
          "name": "tokenId",
          "type": "uint256"
        }
      ],
      "stateMutability": "nonpayable",
      "type": "function"
    },
    {
      "inputs": [
        {
          "internalType": "string",
          "name": "category",
          "type": "string"
        },
        {
          "internalType": "string",
          "name": "submittedOn",
          "type": "string"
        },
        {
          "internalType": "int256",
          "name": "returnBps",
          "type": "int256"
        },
        {
          "internalType": "uint256",
          "name": "winRateBps",
          "type": "uint256"
        },
        {
          "internalType": "uint256",
          "name": "maxDrawdownBps",
          "type": "uint256"
        }
      ],
      "name": "mintPaperLeaderboardCredential",
      "outputs": [
        {
          "internalType": "uint256",
          "name": "tokenId",
          "type": "uint256"
        }
      ],
      "stateMutability": "nonpayable",
      "type": "function"
    },
    {
      "inputs": [
        {
          "internalType": "address",
          "name": "to",
          "type": "address"
        }
      ],
      "name": "mintWelcomeBadge",
      "outputs": [
        {
          "internalType": "uint256",
          "name": "tokenId",
          "type": "uint256"
        }
      ],
      "stateMutability": "nonpayable",
      "type": "function"
    },
    {
      "inputs": [],
      "name": "navBps",
      "outputs": [
        {
          "internalType": "uint256",
          "name": "",
          "type": "uint256"
        }
      ],
      "stateMutability": "view",
      "type": "function"
    },
    {
      "inputs": [],
      "name": "nextHomeTokenId",
      "outputs": [
        {
          "internalType": "uint256",
          "name": "",
          "type": "uint256"
        }
      ],
      "stateMutability": "view",
      "type": "function"
    },
    {
      "inputs": [],
      "name": "nextPaperLeaderboardCredentialTokenId",
      "outputs": [
        {
          "internalType": "uint256",
          "name": "",
          "type": "uint256"
        }
      ],
      "stateMutability": "view",
      "type": "function"
    },
    {
      "inputs": [],
      "name": "nextWealthPledgeCredentialTokenId",
      "outputs": [
        {
          "internalType": "uint256",
          "name": "",
          "type": "uint256"
        }
      ],
      "stateMutability": "view",
      "type": "function"
    },
    {
      "inputs": [],
      "name": "owner",
      "outputs": [
        {
          "internalType": "address",
          "name": "",
          "type": "address"
        }
      ],
      "stateMutability": "view",
      "type": "function"
    },
    {
      "inputs": [
        {
          "internalType": "address",
          "name": "",
          "type": "address"
        },
        {
          "internalType": "uint256",
          "name": "",
          "type": "uint256"
        }
      ],
      "name": "paperLeaderboardCredentialMintsByDay",
      "outputs": [
        {
          "internalType": "uint256",
          "name": "",
          "type": "uint256"
        }
      ],
      "stateMutability": "view",
      "type": "function"
    },
    {
      "inputs": [
        {
          "internalType": "uint256",
          "name": "",
          "type": "uint256"
        }
      ],
      "name": "paperLeaderboardCredentialOf",
      "outputs": [
        {
          "internalType": "address",
          "name": "account",
          "type": "address"
        },
        {
          "internalType": "string",
          "name": "category",
          "type": "string"
        },
        {
          "internalType": "string",
          "name": "submittedOn",
          "type": "string"
        },
        {
          "internalType": "int256",
          "name": "returnBps",
          "type": "int256"
        },
        {
          "internalType": "uint256",
          "name": "winRateBps",
          "type": "uint256"
        },
        {
          "internalType": "uint256",
          "name": "maxDrawdownBps",
          "type": "uint256"
        }
      ],
      "stateMutability": "view",
      "type": "function"
    },
    {
      "inputs": [
        {
          "internalType": "uint256",
          "name": "shareAmount",
          "type": "uint256"
        }
      ],
      "name": "previewAssets",
      "outputs": [
        {
          "internalType": "uint256",
          "name": "",
          "type": "uint256"
        }
      ],
      "stateMutability": "view",
      "type": "function"
    },
    {
      "inputs": [
        {
          "internalType": "uint256",
          "name": "assetAmount",
          "type": "uint256"
        }
      ],
      "name": "previewShares",
      "outputs": [
        {
          "internalType": "uint256",
          "name": "",
          "type": "uint256"
        }
      ],
      "stateMutability": "view",
      "type": "function"
    },
    {
      "inputs": [
        {
          "internalType": "uint16",
          "name": "",
          "type": "uint16"
        }
      ],
      "name": "productReceiptDetail",
      "outputs": [
        {
          "internalType": "string",
          "name": "",
          "type": "string"
        }
      ],
      "stateMutability": "view",
      "type": "function"
    },
    {
      "inputs": [
        {
          "internalType": "uint16",
          "name": "",
          "type": "uint16"
        }
      ],
      "name": "productReceiptLabel",
      "outputs": [
        {
          "internalType": "string",
          "name": "",
          "type": "string"
        }
      ],
      "stateMutability": "view",
      "type": "function"
    },
    {
      "inputs": [
        {
          "internalType": "uint16",
          "name": "",
          "type": "uint16"
        }
      ],
      "name": "productReceiptMaturity",
      "outputs": [
        {
          "internalType": "string",
          "name": "",
          "type": "string"
        }
      ],
      "stateMutability": "view",
      "type": "function"
    },
    {
      "inputs": [
        {
          "internalType": "uint16",
          "name": "",
          "type": "uint16"
        }
      ],
      "name": "productReceiptType",
      "outputs": [
        {
          "internalType": "string",
          "name": "",
          "type": "string"
        }
      ],
      "stateMutability": "view",
      "type": "function"
    },
    {
      "inputs": [
        {
          "internalType": "uint16",
          "name": "productId",
          "type": "uint16"
        }
      ],
      "name": "receiptTokenId",
      "outputs": [
        {
          "internalType": "uint256",
          "name": "",
          "type": "uint256"
        }
      ],
      "stateMutability": "pure",
      "type": "function"
    },
    {
      "inputs": [
        {
          "internalType": "bytes32",
          "name": "assetHash",
          "type": "bytes32"
        },
        {
          "internalType": "bool",
          "name": "passed",
          "type": "bool"
        },
        {
          "internalType": "string",
          "name": "note",
          "type": "string"
        }
      ],
      "name": "recordUnderlyingReview",
      "outputs": [],
      "stateMutability": "nonpayable",
      "type": "function"
    },
    {
      "inputs": [
        {
          "internalType": "uint256",
          "name": "shareAmount",
          "type": "uint256"
        }
      ],
      "name": "redeem",
      "outputs": [
        {
          "internalType": "uint256",
          "name": "assetAmount",
          "type": "uint256"
        }
      ],
      "stateMutability": "nonpayable",
      "type": "function"
    },
    {
      "inputs": [
        {
          "internalType": "uint16",
          "name": "productId",
          "type": "uint16"
        },
        {
          "internalType": "uint256",
          "name": "shareAmount",
          "type": "uint256"
        }
      ],
      "name": "redeemProduct",
      "outputs": [
        {
          "internalType": "uint256",
          "name": "assetAmount",
          "type": "uint256"
        }
      ],
      "stateMutability": "nonpayable",
      "type": "function"
    },
    {
      "inputs": [],
      "name": "renounceOwnership",
      "outputs": [],
      "stateMutability": "nonpayable",
      "type": "function"
    },
    {
      "inputs": [
        {
          "internalType": "address",
          "name": "",
          "type": "address"
        }
      ],
      "name": "replayScoreOf",
      "outputs": [
        {
          "internalType": "int256",
          "name": "bestNetPnl",
          "type": "int256"
        },
        {
          "internalType": "uint256",
          "name": "bestAccountValue",
          "type": "uint256"
        },
        {
          "internalType": "uint256",
          "name": "bestTradeCount",
          "type": "uint256"
        },
        {
          "internalType": "uint256",
          "name": "lastSubmittedAt",
          "type": "uint256"
        },
        {
          "internalType": "uint256",
          "name": "submissionCount",
          "type": "uint256"
        },
        {
          "internalType": "uint256",
          "name": "submissionDay",
          "type": "uint256"
        },
        {
          "internalType": "uint256",
          "name": "submissionsToday",
          "type": "uint256"
        }
      ],
      "stateMutability": "view",
      "type": "function"
    },
    {
      "inputs": [
        {
          "internalType": "address",
          "name": "",
          "type": "address"
        }
      ],
      "name": "riskTier",
      "outputs": [
        {
          "internalType": "uint8",
          "name": "",
          "type": "uint8"
        }
      ],
      "stateMutability": "view",
      "type": "function"
    },
    {
      "inputs": [
        {
          "internalType": "address",
          "name": "from",
          "type": "address"
        },
        {
          "internalType": "address",
          "name": "to",
          "type": "address"
        },
        {
          "internalType": "uint256[]",
          "name": "ids",
          "type": "uint256[]"
        },
        {
          "internalType": "uint256[]",
          "name": "amounts",
          "type": "uint256[]"
        },
        {
          "internalType": "bytes",
          "name": "data",
          "type": "bytes"
        }
      ],
      "name": "safeBatchTransferFrom",
      "outputs": [],
      "stateMutability": "nonpayable",
      "type": "function"
    },
    {
      "inputs": [
        {
          "internalType": "address",
          "name": "from",
          "type": "address"
        },
        {
          "internalType": "address",
          "name": "to",
          "type": "address"
        },
        {
          "internalType": "uint256",
          "name": "id",
          "type": "uint256"
        },
        {
          "internalType": "uint256",
          "name": "amount",
          "type": "uint256"
        },
        {
          "internalType": "bytes",
          "name": "data",
          "type": "bytes"
        }
      ],
      "name": "safeTransferFrom",
      "outputs": [],
      "stateMutability": "nonpayable",
      "type": "function"
    },
    {
      "inputs": [
        {
          "internalType": "uint256",
          "name": "index",
          "type": "uint256"
        }
      ],
      "name": "scoreAccountAt",
      "outputs": [
        {
          "internalType": "address",
          "name": "",
          "type": "address"
        }
      ],
      "stateMutability": "view",
      "type": "function"
    },
    {
      "inputs": [],
      "name": "scoreAccountCount",
      "outputs": [
        {
          "internalType": "uint256",
          "name": "",
          "type": "uint256"
        }
      ],
      "stateMutability": "view",
      "type": "function"
    },
    {
      "inputs": [
        {
          "internalType": "address",
          "name": "operator",
          "type": "address"
        },
        {
          "internalType": "bool",
          "name": "approved",
          "type": "bool"
        }
      ],
      "name": "setApprovalForAll",
      "outputs": [],
      "stateMutability": "nonpayable",
      "type": "function"
    },
    {
      "inputs": [
        {
          "internalType": "string",
          "name": "nextUri",
          "type": "string"
        }
      ],
      "name": "setBaseUri",
      "outputs": [],
      "stateMutability": "nonpayable",
      "type": "function"
    },
    {
      "inputs": [
        {
          "internalType": "address",
          "name": "investor",
          "type": "address"
        },
        {
          "internalType": "bool",
          "name": "allowed",
          "type": "bool"
        },
        {
          "internalType": "uint8",
          "name": "tier",
          "type": "uint8"
        }
      ],
      "name": "setInvestorEligibility",
      "outputs": [],
      "stateMutability": "nonpayable",
      "type": "function"
    },
    {
      "inputs": [
        {
          "internalType": "address",
          "name": "renderer",
          "type": "address"
        }
      ],
      "name": "setMetadataRenderer",
      "outputs": [],
      "stateMutability": "nonpayable",
      "type": "function"
    },
    {
      "inputs": [
        {
          "internalType": "uint256",
          "name": "nextMinSubscription",
          "type": "uint256"
        }
      ],
      "name": "setMinSubscription",
      "outputs": [],
      "stateMutability": "nonpayable",
      "type": "function"
    },
    {
      "inputs": [
        {
          "internalType": "uint256",
          "name": "nextNavBps",
          "type": "uint256"
        }
      ],
      "name": "setNavBps",
      "outputs": [],
      "stateMutability": "nonpayable",
      "type": "function"
    },
    {
      "inputs": [
        {
          "internalType": "uint16",
          "name": "productId",
          "type": "uint16"
        },
        {
          "internalType": "string",
          "name": "detail",
          "type": "string"
        }
      ],
      "name": "setProductReceiptDetail",
      "outputs": [],
      "stateMutability": "nonpayable",
      "type": "function"
    },
    {
      "inputs": [
        {
          "internalType": "uint16",
          "name": "productId",
          "type": "uint16"
        },
        {
          "internalType": "string",
          "name": "label",
          "type": "string"
        }
      ],
      "name": "setProductReceiptLabel",
      "outputs": [],
      "stateMutability": "nonpayable",
      "type": "function"
    },
    {
      "inputs": [
        {
          "internalType": "uint16",
          "name": "productId",
          "type": "uint16"
        },
        {
          "internalType": "string",
          "name": "productType",
          "type": "string"
        },
        {
          "internalType": "string",
          "name": "maturity",
          "type": "string"
        }
      ],
      "name": "setProductReceiptMetadata",
      "outputs": [],
      "stateMutability": "nonpayable",
      "type": "function"
    },
    {
      "inputs": [
        {
          "internalType": "string",
          "name": "nextStatus",
          "type": "string"
        }
      ],
      "name": "setStrategyStatus",
      "outputs": [],
      "stateMutability": "nonpayable",
      "type": "function"
    },
    {
      "inputs": [
        {
          "internalType": "bool",
          "name": "paused",
          "type": "bool"
        }
      ],
      "name": "setSubscriptionsPaused",
      "outputs": [],
      "stateMutability": "nonpayable",
      "type": "function"
    },
    {
      "inputs": [
        {
          "internalType": "uint16",
          "name": "fromProductId",
          "type": "uint16"
        },
        {
          "internalType": "uint16",
          "name": "toProductId",
          "type": "uint16"
        },
        {
          "internalType": "uint256",
          "name": "burnAmount",
          "type": "uint256"
        },
        {
          "internalType": "uint256",
          "name": "mintAmount",
          "type": "uint256"
        }
      ],
      "name": "settleProduct",
      "outputs": [
        {
          "internalType": "uint256",
          "name": "assetAmount",
          "type": "uint256"
        },
        {
          "internalType": "uint256",
          "name": "mintedAmount",
          "type": "uint256"
        }
      ],
      "stateMutability": "nonpayable",
      "type": "function"
    },
    {
      "inputs": [],
      "name": "strategyStatus",
      "outputs": [
        {
          "internalType": "string",
          "name": "",
          "type": "string"
        }
      ],
      "stateMutability": "view",
      "type": "function"
    },
    {
      "inputs": [
        {
          "internalType": "int256",
          "name": "netPnl",
          "type": "int256"
        },
        {
          "internalType": "uint256",
          "name": "accountValue",
          "type": "uint256"
        },
        {
          "internalType": "uint256",
          "name": "tradeCount",
          "type": "uint256"
        }
      ],
      "name": "submitScore",
      "outputs": [],
      "stateMutability": "nonpayable",
      "type": "function"
    },
    {
      "inputs": [
        {
          "internalType": "uint256",
          "name": "assetAmount",
          "type": "uint256"
        }
      ],
      "name": "subscribe",
      "outputs": [
        {
          "internalType": "uint256",
          "name": "shareAmount",
          "type": "uint256"
        }
      ],
      "stateMutability": "nonpayable",
      "type": "function"
    },
    {
      "inputs": [
        {
          "internalType": "uint16",
          "name": "productId",
          "type": "uint16"
        },
        {
          "internalType": "uint256",
          "name": "assetAmount",
          "type": "uint256"
        }
      ],
      "name": "subscribeProduct",
      "outputs": [
        {
          "internalType": "uint256",
          "name": "shareAmount",
          "type": "uint256"
        }
      ],
      "stateMutability": "nonpayable",
      "type": "function"
    },
    {
      "inputs": [
        {
          "internalType": "uint16",
          "name": "productId",
          "type": "uint16"
        },
        {
          "internalType": "uint256",
          "name": "assetAmount",
          "type": "uint256"
        },
        {
          "internalType": "string",
          "name": "purchasedOn",
          "type": "string"
        }
      ],
      "name": "subscribeProductWithMetadata",
      "outputs": [
        {
          "internalType": "uint256",
          "name": "shareAmount",
          "type": "uint256"
        }
      ],
      "stateMutability": "nonpayable",
      "type": "function"
    },
    {
      "inputs": [],
      "name": "subscriptionsPaused",
      "outputs": [
        {
          "internalType": "bool",
          "name": "",
          "type": "bool"
        }
      ],
      "stateMutability": "view",
      "type": "function"
    },
    {
      "inputs": [
        {
          "internalType": "bytes4",
          "name": "interfaceId",
          "type": "bytes4"
        }
      ],
      "name": "supportsInterface",
      "outputs": [
        {
          "internalType": "bool",
          "name": "",
          "type": "bool"
        }
      ],
      "stateMutability": "view",
      "type": "function"
    },
    {
      "inputs": [
        {
          "internalType": "uint256",
          "name": "",
          "type": "uint256"
        }
      ],
      "name": "tokenBadgeType",
      "outputs": [
        {
          "internalType": "uint8",
          "name": "",
          "type": "uint8"
        }
      ],
      "stateMutability": "view",
      "type": "function"
    },
    {
      "inputs": [
        {
          "internalType": "address",
          "name": "newOwner",
          "type": "address"
        }
      ],
      "name": "transferOwnership",
      "outputs": [],
      "stateMutability": "nonpayable",
      "type": "function"
    },
    {
      "inputs": [
        {
          "internalType": "bytes32",
          "name": "nextAttestationRoot",
          "type": "bytes32"
        }
      ],
      "name": "updateAttestation",
      "outputs": [],
      "stateMutability": "nonpayable",
      "type": "function"
    },
    {
      "inputs": [
        {
          "internalType": "uint256",
          "name": "tokenId",
          "type": "uint256"
        }
      ],
      "name": "uri",
      "outputs": [
        {
          "internalType": "string",
          "name": "",
          "type": "string"
        }
      ],
      "stateMutability": "view",
      "type": "function"
    },
    {
      "inputs": [],
      "name": "vaultLabel",
      "outputs": [
        {
          "internalType": "string",
          "name": "",
          "type": "string"
        }
      ],
      "stateMutability": "view",
      "type": "function"
    },
    {
      "inputs": [
        {
          "internalType": "uint256",
          "name": "",
          "type": "uint256"
        }
      ],
      "name": "wealthPledgeCredentialOf",
      "outputs": [
        {
          "internalType": "address",
          "name": "account",
          "type": "address"
        },
        {
          "internalType": "uint16",
          "name": "productId",
          "type": "uint16"
        },
        {
          "internalType": "uint256",
          "name": "supportAmount",
          "type": "uint256"
        },
        {
          "internalType": "string",
          "name": "pledgedOn",
          "type": "string"
        }
      ],
      "stateMutability": "view",
      "type": "function"
    },
    {
      "inputs": [
        {
          "internalType": "address",
          "name": "",
          "type": "address"
        },
        {
          "internalType": "uint16",
          "name": "",
          "type": "uint16"
        }
      ],
      "name": "wealthReceiptProofOf",
      "outputs": [
        {
          "internalType": "uint256",
          "name": "lastAssetAmount",
          "type": "uint256"
        },
        {
          "internalType": "uint256",
          "name": "lastShareAmount",
          "type": "uint256"
        },
        {
          "internalType": "uint256",
          "name": "purchasedAt",
          "type": "uint256"
        },
        {
          "internalType": "string",
          "name": "productDetail",
          "type": "string"
        }
      ],
      "stateMutability": "view",
      "type": "function"
    },
    {
      "inputs": [
        {
          "internalType": "address",
          "name": "",
          "type": "address"
        },
        {
          "internalType": "uint16",
          "name": "",
          "type": "uint16"
        }
      ],
      "name": "wealthReceiptShares",
      "outputs": [
        {
          "internalType": "uint256",
          "name": "",
          "type": "uint256"
        }
      ],
      "stateMutability": "view",
      "type": "function"
    },
    {
      "inputs": [
        {
          "internalType": "address",
          "name": "",
          "type": "address"
        },
        {
          "internalType": "uint8",
          "name": "",
          "type": "uint8"
        }
      ],
      "name": "wealthTaskCompleted",
      "outputs": [
        {
          "internalType": "bool",
          "name": "",
          "type": "bool"
        }
      ],
      "stateMutability": "view",
      "type": "function"
    },
    {
      "inputs": [
        {
          "internalType": "address",
          "name": "",
          "type": "address"
        },
        {
          "internalType": "uint8",
          "name": "",
          "type": "uint8"
        }
      ],
      "name": "wealthTaskEvidenceHash",
      "outputs": [
        {
          "internalType": "bytes32",
          "name": "",
          "type": "bytes32"
        }
      ],
      "stateMutability": "view",
      "type": "function"
    },
    {
      "inputs": [
        {
          "internalType": "address",
          "name": "",
          "type": "address"
        },
        {
          "internalType": "uint8",
          "name": "",
          "type": "uint8"
        }
      ],
      "name": "wealthTaskRealizedPnl",
      "outputs": [
        {
          "internalType": "int256",
          "name": "",
          "type": "int256"
        }
      ],
      "stateMutability": "view",
      "type": "function"
    }
  ],
  "bytecode": "0x608060405234620003545762005b5f803803806200001d8162000358565b9283398101906020918282820312620003545781516001600160401b039283821162000354570191601f9180838501121562000354578351938285116200032c57601f1994620000738582018716880162000358565b92818452878284010111620003545786915f5b82811062000340575050905f918301015280519182116200032c57620000ae6002546200037e565b838111620002f0575b5084938383116001146200028d5750928192935f9262000281575b50508160011b915f199060031b1c1916176002555b60038054336001600160a01b0319821681179092556001600160a01b03167f8be0079c531659141344cd1fd0a4f28419497f9722a3daafe3b4186f6b6457e05f80a36001600455620186a1600555620493e16006556127106007556101f460085562000155600d546200037e565b8181116200025f575b507f5269736b4c656e7320556e69666965642044656d6f205661756c740000000036600d55600e5462000191906200037e565b8181116200023d575b50600461141560f21b01600e55600c54620001b5906200037e565b908082116200021b575b7f44656d6f20726561647900000000000000000000000000000000000000000014600c557f326aeea7abf8a20d2ae5c71811b6e16c6ad80e0128362081ef8dd5af3774b9c0600b554260095560405161578d9081620003d28239f35b6200023492600c5f525f20910160051c810190620003b9565b5f8080620001bf565b6200025890600e5f5282845f20910160051c810190620003b9565b5f6200019a565b6200027a90600d5f5282845f20910160051c810190620003b9565b5f6200015e565b015190505f80620000d2565b82169360025f52855f20915f5b87878210620002d9575050836001959610620002c0575b505050811b01600255620000e7565b01515f1960f88460031b161c191690555f8080620002b1565b60018495829395850151815501940192016200029a565b6200031b9060025f52865f208580860160051c82019289871062000322575b0160051c0190620003b9565b5f620000b7565b925081926200030f565b634e487b7160e01b5f52604160045260245ffd5b818101840151858201850152830162000086565b5f80fd5b6040519190601f01601f191682016001600160401b038111838210176200032c57604052565b90600182811c92168015620003ae575b60208310146200039a57565b634e487b7160e01b5f52602260045260245ffd5b91607f16916200038e565b818110620003c5575050565b5f8155600101620003b956fe60806040526004361015610011575f80fd5b5f3560e01c80629b27af14613de4578062fdd58e14613dbd57806301b4597d14613d6b57806301ffc9a714613cfd57806302cea26b14613cac5780630765b4b414613c795780630e89341c14613c5a5780630f574ba71461392a578063176de7a81461389f578063176f1cdd14613814578063179649ad1461377a5780631a2e9996146136975780631b6c218e1461347d5780631de3083d14613462578063218900b414613445578063249d39e91461342957806327dac9e2146133dc57806327e80368146133bf5780632a0ee0851461337b5780632baa7521146133585780632e6f6b1f1461333b5780632eb2c2d6146130c75780632f85874a146130aa5780632fb4e0f914612fea578063325116ee14612fcf57806332ddc52414612f65578063379607f514612f0b57806338e21cce14612ec357806341be5f6414612ea65780634973fd9a14612e775780634adb4cc814612e5a5780634d7c10a714612e1d5780634e1273f414612ca9578063513f840114612b50578063521633371461291a57806355cc0261146127b357806357997aa2146127985780635acc9009146127655780635ad32a3c146126fa578063619a1d29146126d257806362abebce14612491578063663c39d2146123b05780636961fd46146122335780636b3ce2f1146121d55780636ea17abd146121ba5780637031997014612192578063715018a61461214a5780637206abbd14611fab57806374b3322c14611f5d5780637cea070a14611f425780638385f14a14611f255780638530a3bf14611ef8578063889d100214611ec55780638909e50614611e1c5780638d00bbe514611dc75780638da5cb5b14611d9f5780638f631d5414611d8457806393b9e5ae14611d3757806399b49e2514611cd85780639a2aaca114611c4d578063a0bcfc7f14611b16578063a22cb46514611a3c578063aec45d80146119d9578063b363935c14610551578063b5884e2014611943578063b7d120d0146118f8578063b84d93d4146118bd578063bce48991146113db578063c056e1e31461085c578063c1d150e41461134f578063c4ebe02414611334578063c5e20f801461129d578063c8a3c3b514611224578063cad471921461054c578063cb33bcdb146111d2578063ceb0f6d814610ebc578063cf22928d146111b0578063d28c390a1461117a578063d4b0521b146110fd578063d5c21baa146110e0578063d92fa2c6146110b0578063db006a7514610ec1578063dcb2125b14610ebc578063e5a89945146109ed578063e985e9c51461099b578063eda7c56e14610861578063eeaa81771461085c578063f242432a1461061b578063f2fde38b1461056c578063f4db898414610551578063f64bfa591461054c578063f68e55c3146104ee578063f766dee4146104d3578063f9569673146104965763fd4fe8a81461042c575f80fd5b3461049257602036600319011261049257610445613e2b565b61044d61496b565b600f80546001600160a01b0319166001600160a01b039290921691821790557f60a886c8dc324af9c6d6a1bf7369ffe7557ef345eb5717bceffb59beac879a0a5f80a2005b5f80fd5b34610492576020366003190112610492576001600160a01b036104b7613e2b565b165f526017602052602060ff60405f2054166040519015158152f35b34610492575f366003190112610492576020604051600a8152f35b346104925760203660031901126104925760043561050a61496b565b801561051557600855005b60405162461bcd60e51b815260206004820152600f60248201526e496e76616c6964206d696e696d756d60881b6044820152606490fd5b6141f8565b34610492575f36600319011261049257602060405160068152f35b3461049257602036600319011261049257610585613e2b565b61058d61496b565b6001600160a01b039081169081156105c757600380546001600160a01b031981168417909155165f805160206156388339815191525f80a3005b60405162461bcd60e51b815260206004820152602660248201527f4f776e61626c653a206e6577206f776e657220697320746865207a65726f206160448201526564647265737360d01b6064820152608490fd5b346104925760a036600319011261049257610634613e2b565b61063c613e41565b906064356044356084356001600160401b03811161049257610662903690600401614149565b6001600160a01b03938416933385148015610837575b610681906147d8565b851661068e811515614e63565b610697836154d2565b506106a1846154d2565b50825f526020955f875260405f20865f5287528460405f20546106c682821015614ebd565b855f525f895260405f20885f5289520360405f2055835f525f875260405f20825f52875260405f206106f98682546147ac565b90558186604051868152878a8201525f8051602061553883398151915260403392a43b61072257005b610765935f87946040519687958694859363f23a6e6160e01b9b8c865233600487015260248601526044850152606484015260a0608484015260a4830190614023565b03925af15f9181610808575b506107dc578261077f6153ce565b6308c379a0146107a7575b60405162461bcd60e51b8152806107a360048201615456565b0390fd5b6107af6153e9565b90816107bb575061078a565b6107a360405192839262461bcd60e51b845260048401526024830190614023565b6001600160e01b0319160390506107ef57005b60405162461bcd60e51b8152806107a360048201615385565b610829919250843d8611610830575b6108218183613f3d565b810190615365565b9084610771565b503d610817565b50845f52600160205260405f20335f5260205261068160ff60405f2054169050610678565b611334565b346104925761ffff610872366141ba565b9161087e93919361496b565b169161088b83151561470d565b825f526020906019825260405f2060018060401b038411610987576108ba846108b48354613e99565b8361474b565b5f601f85116001146109125791610902916108ee86805f805160206155188339815191529897965f91610907575b5061479a565b90555b60405193838594855284019161466d565b0390a2005b90508401358a6108e8565b601f19851690825f52845f20915f5b8181106109705750916109029391875f805160206155188339815191529897969410610957575b5050600185811b0190556108f1565b8301355f19600388901b60f8161c191690558780610948565b919286600181928689013581550194019201610921565b634e487b7160e01b5f52604160045260245ffd5b34610492576040366003190112610492576109b4613e2b565b6109bc613e41565b9060018060a01b038091165f52600160205260405f2091165f52602052602060ff60405f2054166040519015158152f35b346104925760a0366003190112610492576004356001600160401b03811161049257610a1d903690600401614048565b6024356001600160401b03811161049257610a3c903690600401614048565b90916044906064938115610e86578315610e545761271080863511610e1e5760843511610de857620151804204335f52602260205260405f20815f52602052600360405f20541015610da557335f52602260205260405f20905f5260205260405f2080549060018201809211610d9157556005549360018501808611610d91576005556040519660c088016001600160401b0381118982101761098757604052338852610aea368583614113565b60208901908152610afc368486614113565b60408a810191909152863560608b0152883560808b015260843560a08b01525f888152602160205220895181546001600160a01b0319166001600160a01b039190911617815590518051906001600160401b03821161098757610b6f82610b666001860154613e99565b6001860161474b565b602090601f8311600114610d2757610b9192915f9183610d1c575b505061479a565b60018201555b604089015180519099906001600160401b0381116109875760209a610bcc82610bc36002870154613e99565b6002870161474b565b8b90601f8311600114610c925793600560a08c9d9895610c0d86610c5797610c649b975f805160206155988339815191529f9e9b5f92610c8757505061479a565b60028501555b60608101516003850155608081015160048501550151910155610c45604051610c3b81613eec565b5f81528b33614faf565b6040519660a0885260a088019161466d565b918583038b87015261466d565b9335604083015235606082015260843560808201528033930390a3604051908152f35b015190505f80610b8a565b90600285015f528c5f20915f5b601f1985168110610d05575060a08c9d9895600186610c649a965f805160206155988339815191529e9d9a96600596610c579a601f19811610610ced575b505050811b016002850155610c13565b01515f1960f88460031b161c191690555f8080610cdd565b91928e600181928685015181550194019201610c9f565b015190508c80610b8a565b90601f19831691600185015f5260205f20925f5b818110610d795750908460019594939210610d61575b505050811b016001820155610b97565b01515f1960f88460031b161c191690558b8080610d51565b92936020600181928786015181550195019301610d3b565b634e487b7160e01b5f52601160045260245ffd5b60405162461bcd60e51b815260206004820152601e60248201527f4461696c792063726564656e7469616c206c696d697420726561636865640000818601528690fd5b60405162461bcd60e51b815260206004820152601060248201526f24b73b30b634b210323930bbb237bbb760811b818501528590fd5b60405162461bcd60e51b815260206004820152601060248201526f496e76616c69642077696e207261746560801b818601528690fd5b60405162461bcd60e51b815260206004820152600c60248201526b4d697373696e67206461746560a01b818501528590fd5b60405162461bcd60e51b815260206004820152601060248201526f4d697373696e672063617465676f727960801b818501528590fd5b611f42565b346104925760208060031936011261049257600435610ee18115156149c3565b331561107257604051610ef381613f22565b600181528281019083368337511561105e576103e9809152610f14826154d2565b505f604051610f2281613eec565b52805f525f835260405f20335f52835260405f2054828110611020578290825f525f855260405f20335f5285520360405f20555f604051828152838582015233905f8051602061553883398151915260403392a45f604051610f8381613eec565b52335f90815260188452604080822060018352855290205480831061100157505f5b335f526018845260405f2060015f52845260405f205560405182815282848201525f8051602061571883398151915260403392a2600160405183815283858201525f8051602061567883398151915260403392a4604051908152f35b82810390811115610fa557634e487b7160e01b5f52601160045260245ffd5b60405162461bcd60e51b8152600481018590526024808201525f80516020615618833981519152604482015263616e636560e01b6064820152608490fd5b634e487b7160e01b5f52603260045260245ffd5b60405162461bcd60e51b815260048101839052602360248201525f8051602061557883398151915260448201526265737360e81b6064820152608490fd5b346104925760403660031901126104925760206110d86110ce613e77565b60243590336150ff565b604051908152f35b34610492575f366003190112610492576020600554604051908152f35b3461049257602036600319011261049257600435601f5481101561113f57611126602091614912565b905460405160039290921b1c6001600160a01b03168152f35b60405162461bcd60e51b8152602060048201526013602482015272496e646578206f7574206f6620626f756e647360681b6044820152606490fd5b3461049257602036600319011261049257600754600435818102918115918304141715610d915760209061271060405191048152f35b34610492575f36600319011261049257602060ff600a54166040519015158152f35b34610492576040366003190112610492576111eb613e2b565b6111f3613e57565b9060018060a01b03165f52601260205260ff60405f2091165f52602052602060ff60405f2054166040519015158152f35b34610492576020366003190112610492576001600160a01b03611245613e2b565b165f52601660205260e060405f20805490600181015490600281015460038201546004830154916006600585015494015494604051968752602087015260408601526060850152608084015260a083015260c0820152f35b34610492576020366003190112610492576004355f90815260216020526040902080546001600160a01b03166112d560018301613f60565b916112e260028201613f60565b6003820154916113206005600483015492015492611312604051978897885260c0602089015260c0880190614023565b908682036040880152614023565b926060850152608084015260a08301520390f35b34610492575f36600319011261049257602060405160038152f35b3461049257606036600319011261049257611368613e77565b6044356001600160401b03811161049257611387903690600401614048565b90501561139e576110d860209160243590336149fd565b60405162461bcd60e51b81526020600482015260156024820152744d697373696e67207075726368617365206461746560581b6044820152606490fd5b34610492576080366003190112610492576113f4613e77565b6001600160401b039060249060443583811161049257611418903690600401614048565b61ffff60649492943593169161142f83151561470d565b80351561188757811561184d576114478415156148c3565b61145961145333614224565b156146cf565b335f526020956012875260405f2090600291825f52885260405f20956001968760ff19825416179055335f52601e895260405f20835f5289525f6040812055335f52601d895260405f20835f5289528060405f20556114b733614224565b1561166b575b506006549580870180881161165857600655604051926114dc84613ed1565b3384528984019387855260408101863581526114f936898d614113565b95606083019687528a5f5260238d5260405f209260018060a01b0390511683549161ffff60a01b905160a01b169160018060b01b031916171782555183820155019251805192831161164557611559836115538654613e99565b8661474b565b8991601f84116001146115d25750825f805160206157388339815191529593899a959361158d935f92610d1c57505061479a565b90555b6115a960405161159f81613eec565b5f81528733614faf565b6115c760405192839235835260408a8401523395604084019161466d565b0390a4604051908152f35b9291601f19831691855f528b5f20925f5b8d828210611631575050915f8051602061573883398151915297959391858c9d98969410611619575b505050811b019055611590565b01515f1960f88460031b161c191690558b808061160c565b8385015186559487019493840193016115e3565b84634e487b7160e01b5f5260416004525ffd5b84634e487b7160e01b5f5260116004525ffd5b60405161167781613eec565b5f8152611685331515614f59565b60405161169181613f22565b8881528a8101908b368337511561183a5760ca90526116ae6154ab565b5060ca5f525f8a5260405f20335f528a5260405f20805490898201809211611827575560405160ca8152888b8201525f33915f8051602061553883398151915260403392a4333b611733575b50604051839182335f805160206155f88339815191525f80a35f82528a8201525f805160206156d883398151915260403392a3886114bd565b9361177a8a829b9a99989796604051809381925f63f23a6e6160e01b9788855233600486015284015260ca60448401528c606484015260a0608484015260a4830190614023565b03815f335af15f9181611808575b506117ed578a8a6117976153ce565b6308c379a0146117ba5760405162461bcd60e51b8152806107a360048201615456565b6117c26153e9565b806117cd575061078a565b6107a39060405193849362461bcd60e51b85526004850152830190614023565b63ffffffff60e09b969798999a9b1b16036107ef57826116fa565b6118209192508b3d8d11610830576108218183613f3d565b908c611788565b86634e487b7160e01b5f5260116004525ffd5b85634e487b7160e01b5f5260326004525ffd5b60649060136040519162461bcd60e51b835260206004840152820152724d697373696e6720706c65646765206461746560681b6044820152fd5b606490600f6040519162461bcd60e51b8352602060048401528201526e125b9d985b1a59081cdd5c1c1bdc9d608a1b6044820152fd5b34610492576020366003190112610492576001600160a01b036118de613e2b565b165f526014602052602060ff60405f205416604051908152f35b346104925760203660031901126104925761ffff611914613e77565b165f52601960205261193f61192b60405f20613f60565b604051918291602083526020830190614023565b0390f35b346104925760603660031901126104925761195c613e2b565b611964613e1c565b6044359160ff83168093036104925760207fa0aa2b85df88566521daa2ac1eb0694994372f9f1e64a41307f9d06a571f92129161199f61496b565b60018060a01b031692835f52601382526119bc8160405f20614213565b6014825260405f208560ff198254161790556040519015158152a3005b34610492576040366003190112610492576119f2613e2b565b6119fa613e57565b90611a0c611a0783614dda565b61468d565b60018060a01b03165f52601260205260ff60405f2091165f52602052602060ff60405f2054166040519015158152f35b3461049257604036600319011261049257611a55613e2b565b611a5d613e1c565b6001600160a01b0390911690338214611abf57335f52600160205260405f20825f52602052611a8f8160405f20614213565b60405190151581527f17307eab39ab6107e8899845ad3d59bd9653f200f220920489ca2b5937696c3160203392a3005b60405162461bcd60e51b815260206004820152602960248201527f455243313135353a2073657474696e6720617070726f76616c20737461747573604482015268103337b91039b2b63360b91b6064820152608490fd5b3461049257602080600319360112610492576001600160401b0360043581811161049257611b4b611b5a913690600401614048565b611b5361496b565b3691614113565b91825191821161098757611b6f600254613e99565b601f8111611c09575b5080601f8311600114611ba957508190611b99935f92611b9e57505061479a565b600255005b015190508380610b8a565b90601f1983169360025f52825f20925f905b868210611bf15750508360019510611bd9575b505050811b01600255005b01515f1960f88460031b161c19169055828080611bce565b80600185968294968601518155019501930190611bbb565b60025f52815f20601f840160051c810191838510611c43575b601f0160051c01905b818110611c385750611b78565b5f8155600101611c2b565b9091508190611c22565b3461049257602036600319011261049257600435611c6961496b565b8015611ca5576040817f1e1223c1f6274c6d64fdb08c485e192bd2896c9abf70e840e199ac1f54d6d1d5926007558151908152426020820152a1005b60405162461bcd60e51b815260206004820152600b60248201526a24b73b30b634b2102720ab60a91b6044820152606490fd5b34610492576020366003190112610492576001600160a01b03611cf9613e2b565b165f52601360205260ff60405f20541680611d1c575b6020906040519015158152f35b5060146020526020600260ff60405f20541610159050611d0f565b3461049257604036600319011261049257611d50613e2b565b611d58613e57565b9060018060a01b03165f52601e60205260ff60405f2091165f52602052602060405f2054604051908152f35b34610492575f36600319011261049257602060405160048152f35b34610492575f366003190112610492576003546040516001600160a01b039091168152602090f35b34610492576020366003190112610492577f181f92f68826a8d2b5b97d27f9e18d05a337290356fabf5b717154077dbea9336040600435611e0661496b565b80600b55426009558151908152426020820152a1005b34610492576080366003190112610492576040611e37613e77565b611e3f613e88565b5f90604435606435611e528286336150ff565b9461ffff918285169485151580611ebc575b611ea7575b508751938452602084015216907f031b66f6d8a6a3252233defe3a4204c77215f4ddd23783ce33b9b3d9a86b6ac6863392a482519182526020820152f35b81965090611eb591336149fd565b9488611e69565b50811515611e64565b346104925760203660031901126104925761ffff611ee1613e77565b165f52601c60205261193f61192b60405f20613f60565b34610492576020366003190112610492576004355f526011602052602060ff60405f205416604051908152f35b34610492575f366003190112610492576020600454604051908152f35b34610492575f36600319011261049257602060405160018152f35b3461049257604036600319011261049257611f76613e2b565b611f7e613e88565b9060018060a01b03165f52601860205261ffff60405f2091165f52602052602060405f2054604051908152f35b3461049257604036600319011261049257611fc4613e67565b611fcc613e41565b611fdd611fd8836150e4565b61492a565b6001600160a01b038116908115612111578133036120db57815f526020926010845260ff60405f20911690815f52845260ff60405f20541661209f576004549260018401808511610d9157600455805f526010855260405f20825f52855260405f2060ff1990600182825416179055845f52601186528260405f20918254161790558160640180606411610d91578493612086916040519161207e83613eec565b5f8352614faf565b5f805160206156f88339815191525f80a4604051908152f35b60405162461bcd60e51b815260048101859052601460248201527310985919d948185b1c9958591e481b5a5b9d195960621b6044820152606490fd5b60405162461bcd60e51b815260206004820152600e60248201526d13db9b1e481cd95b19881b5a5b9d60921b6044820152606490fd5b60405162461bcd60e51b8152602060048201526011602482015270125b9d985b1a59081c9958da5c1a595b9d607a1b6044820152606490fd5b34610492575f3660031901126104925761216261496b565b600380546001600160a01b031981169091555f906001600160a01b03165f805160206156388339815191528280a3005b34610492575f36600319011261049257600f546040516001600160a01b039091168152602090f35b34610492575f36600319011261049257602060405160078152f35b34610492576040366003190112610492576121ee613e2b565b6121f6613e57565b90612203611fd8836150e4565b60018060a01b03165f52601060205260ff60405f2091165f52602052602060ff60405f2054166040519015158152f35b346104925760603660031901126104925760043560243560443590335f52601660205260405f20620151804204601760205260405f20805460ff811615612365575b50506005820181815403612357575b50506006810180549160038310156123165780600491548713612302575b4260038201550180549060018201809211610d91575560018201809211610d915755604051928352602083015260408201524260608201527ff6d69723c1e13a6e751ff8839d394f04ffffc588fdd13a7cfd1fdfc1bf87ebe160803392a2005b8681558460018201558560028201556122a2565b60405162461bcd60e51b815260206004820152601960248201527811185a5b1e481cd8dbdc99481b1a5b5a5d081c995858da1959603a1b6044820152606490fd5b555f60068201558480612284565b60ff19166001179055601f54600160401b8110156109875780600161238d9201601f55614912565b81546001600160a01b0360039290921b91821b19163390911b1790558580612275565b346104925761ffff6123c1366141ba565b916123cd93919361496b565b16916123da83151561470d565b825f52602090601a825260405f2060018060401b03841161098757612403846108b48354613e99565b5f601f85116001146124365791610902916108ee86805f805160206155b88339815191529897965f91610907575061479a565b601f19851690825f52845f20915f5b81811061247a5750916109029391875f805160206155b88339815191529897969410610957575050600185811b0190556108f1565b919286600181928689013581550194019201612445565b346104925760031960203682018113610492576001600160401b0390600435908282116104925736602383011215610492578160040135928311610492576024820191602436918560051b010111610492576124ec8361487d565b5f5b848110612694575061250136858561408c565b926040519461250f86613eec565b5f865261251d331515614f59565b61252a8551845114614e06565b5f5b85518110156125735780612542600192866148af565b5161254d82896148af565b515f525f875260405f20335f52875261256b60405f209182546147ac565b90550161252c565b5084868594896040515f33915f805160206154f883398151915233918061259b888b83614f1c565b0390a4333b6125de575b505050509091505f5b8181106125b757005b806125c56001928486614902565b35335f805160206155d88339815191525f80a3016125ae565b869161263a61262b92604051958694859461261b63bc197c8160e01b9a8b88523360048901525f602489015260a0604489015260a4880190614164565b9084878303016064880152614164565b91848303016084850152614023565b03815f335af15f9181612675575b50612656578461077f6153ce565b92935090916001600160e01b031916036107ef578190838080806125a5565b61268d919250863d8811610830576108218183613f3d565b9086612648565b806126c06114536126a86001948989614902565b356126ba6126b582614f41565b61483b565b336142bb565b816126cb82856148af565b52016124ee565b346104925760403660031901126104925760206110d86126f0613e77565b60243590336149fd565b3461049257604036600319011261049257612713613e2b565b61271b613e88565b9060018060a01b03165f526020805261ffff60405f2091165f5260205260405f20805461193f600183015492612758600360028301549201613f60565b9060405194859485614197565b346104925760203660031901126104925761ffff612781613e77565b165f52601b60205261193f61192b60405f20613f60565b34610492575f36600319011261049257602060405160088152f35b3461049257602080600319360112610492576001600160401b03600435818111610492576127e5903690600401614048565b90916127ef61496b565b811161098757612800600c54613e99565b601f81116128d6575b505f92601f82116001146128685761283782805f805160206156b8833981519152965f9161285d575061479a565b600c555b61285260405193849360408552604085019161466d565b9042908301520390a1005b9050850135876108e8565b601f19821693600c5f52815f20905f5b8681106128bf5750835f805160206156b883398151915296106128a6575b5050600182811b01600c5561283b565b8401355f19600385901b60f8161c191690558480612896565b909183600181928589013581550193019101612878565b600c5f52835f20601f830160051c810191858410612910575b601f0160051c01905b8181106129055750612809565b5f81556001016128f8565b90915081906128ef565b346104925760208060031936011261049257612934613e2b565b6001600160a01b038116908115612b1757813303612ae157815f526010835260405f20600190815f52845260ff60405f20541661209f5760045492818401808511610d9157600455805f526010855260405f20825f52855260405f2060ff19908382825416179055845f52601186528260405f20918254161790556040516129bb81613eec565b5f81526040516129ca81613f22565b8381528681019087368337511561105e57606590526129e76154ab565b5060655f525f865260405f20825f52865260405f20938454848101809111610d9157869555825f60405160658152868a8201525f8051602061553883398151915260403392a43b612a4d575b505f805160206156f88339815191525f80a4604051908152f35b909250604051858180612a8f63f23a6e6160e01b958683523360048401525f60248401526065604484015287606484015260a0608484015260a4830190614023565b03815f885af15f9181612ac2575b50612aab578561077f6153ce565b6001600160e01b031916036107ef57829185612a33565b612ada919250873d8911610830576108218183613f3d565b9087612a9d565b60405162461bcd60e51b815260048101849052600e60248201526d13db9b1e481cd95b19881b5a5b9d60921b6044820152606490fd5b60405162461bcd60e51b8152600481018490526011602482015270125b9d985b1a59081c9958da5c1a595b9d607a1b6044820152606490fd5b3461049257606036600319011261049257612b69613e67565b602435604435612b7b611a0784614dda565b612b8a6114536126ba85614df5565b612b958115156148c3565b60ff831692600184148015612c9f575b612c5b575b335f52612c006020916012835260405f20865f52835260405f20600160ff19825416179055335f52601e835260405f20865f5283528460405f2055335f52601d835260405f20865f5283528360405f2055614df5565b612c0a81336142bb565b15612c1157005b604051612c2a91612c2182613eec565b5f825233614faf565b6040519284335f805160206155f88339815191525f80a383528201525f805160206156d883398151915260403392a3005b5f8313612baa5760405162461bcd60e51b8152602060048201526015602482015274141bdcda5d1a5d9948141b93081c995c5d5a5c9959605a1b6044820152606490fd5b5060038414612ba5565b34610492576040366003190112610492576004356001600160401b03808211610492573660238301121561049257816004013590612ce682614075565b92612cf46040519485613f3d565b82845260209260248486019160051b8301019136831161049257602401905b828210612dfe5750505060243590811161049257612d359036906004016140da565b8251815103612da757612d48835161487d565b925f5b8151811015612d9057600190612d7f6001600160a01b03612d6c83866148af565b5116612d7883876148af565b51906142bb565b612d8982886148af565b5201612d4b565b50505061193f604051928284938452830190614164565b60405162461bcd60e51b815260048101839052602960248201527f455243313135353a206163636f756e747320616e6420696473206c656e677468604482015268040dad2e6dac2e8c6d60bb1b6064820152608490fd5b81356001600160a01b0381168103610492578152908401908401612d13565b34610492576020366003190112610492576001600160a01b03612e3e613e2b565b165f526013602052602060ff60405f2054166040519015158152f35b34610492575f366003190112610492576020600954604051908152f35b34610492576020366003190112610492576004355f526015602052602060ff60405f2054166040519015158152f35b34610492575f366003190112610492576020600854604051908152f35b34610492576020366003190112610492576001600160a01b03612ee4613e2b565b165f52601060205260405f2060015f52602052602060ff60405f2054166040519015158152f35b3461049257602036600319011261049257600435612f2b6126b582614f41565b612f3861145382336142bb565b612f51604051612f4781613eec565b5f81528233614faf565b335f805160206155d88339815191525f80a3005b34610492576020366003190112610492576004355f52602360205261ffff60405f2061193f815491612f9e600260018301549201613f60565b9060405194859460018060a01b038116865260a01c1660208501526040840152608060608401526080830190614023565b34610492575f36600319011261049257602060405160098152f35b34610492575f36600319011261049257604051600d545f8261300b83613e99565b91828252602093600190856001821691825f1461308a57505060011461304d575b5061303992500383613f3d565b61193f604051928284938452830190614023565b849150600d5f52815f20905f915b85831061307257505061303993508201018561302c565b8054838901850152879450869390920191810161305b565b60ff19168582015261303995151560051b850101925087915061302c9050565b34610492575f366003190112610492576020601f54604051908152f35b346104925760031960a036820112610492576130e1613e2b565b906130ea613e41565b906001600160401b03906044358281116104925761310c9036906004016140da565b606435838111610492576131249036906004016140da565b926084359081116104925761313d903690600401614149565b6001600160a01b03958616959092903387148015613316575b61315f906147d8565b61316c8351865114614e06565b85169261317a841515614e63565b5f5b83518110156131fe5780613192600192866148af565b5161319d82896148af565b5190805f526020905f825260405f208c5f5282528260405f20546131c382821015614ebd565b825f525f84528d60405f20905f5284520360405f20555f525f815260405f2090885f52526131f660405f209182546147ac565b90550161317c565b5090949392919382876040515f805160206154f88339815191523391806132268a8c83614f1c565b0390a43b61323057005b5f60209461327161262b9761261b94604051998a988997889663bc197c8160e01b9e8f89523360048a0152602489015260a0604489015260a4880190614164565b03925af15f91816132f5575b506132e45761328a6153ce565b6308c379a0146132ad5760405162461bcd60e51b8152806107a360048201615456565b6132b56153e9565b806132c0575061078a565b60405162461bcd60e51b8152602060048201529081906107a3906024830190614023565b6001600160e01b031916036107ef57005b61330f91925060203d602011610830576108218183613f3d565b908361327d565b50865f52600160205260405f20335f5260205261315f60ff60405f2054169050613156565b34610492575f366003190112610492576020600b54604051908152f35b346104925760203660031901126104925760206110d8613376613e77565b6147b9565b34610492576040366003190112610492576001600160a01b0361339c613e2b565b165f52602260205260405f206024355f52602052602060405f2054604051908152f35b34610492575f366003190112610492576020600654604051908152f35b34610492576040366003190112610492576133f5613e2b565b6133fd613e57565b9060018060a01b03165f52601d60205260ff60405f2091165f52602052602060405f2054604051908152f35b34610492575f3660031901126104925760206040516127108152f35b34610492575f366003190112610492576020600754604051908152f35b34610492575f36600319011261049257602060405160058152f35b3461049257606036600319011261049257613496613e77565b6001600160401b0390602435828111610492576134b7903690600401614048565b604435848111610492576134d261ffff913690600401614048565b9190946134dd61496b565b16936134ea85151561470d565b845f52602095601b875260405f208185116109875761350d856108b48354613e99565b5f85601f8111600114613635578061352b925f9161362a575061479a565b90555b855f52601c875260405f209083116109875761354e836108b48354613e99565b5f601f84116001146135b45791839161358283610902965f805160206155588339815191529a9b965f916135a9575061479a565b90555b61359c60405196879660408852604088019161466d565b928584039086015261466d565b90508401358c6108e8565b601f19841690825f52885f20915f5b818110613613575091859391610902965f805160206155588339815191529a9b9694106135fa575b5050600183811b019055613585565b8301355f19600386901b60f8161c1916905589806135eb565b91928a6001819286890135815501940192016135c3565b90508801358b6108e8565b50601f19861690825f52868a5f20925f5b8c82821061367e57505010613665575b5050600185811b01905561352e565b8701355f19600388901b60f8161c191690558880613656565b8b8501358655600190950194938401938a935001613646565b3461049257602080600319360112610492576136b1613e67565b906136be611a0783614dda565b6136cd6114536126ba84614df5565b335f526012815261372660405f209260ff811693845f52835260405f20600160ff19825416179055335f52601e835260405f20845f5283525f6040812055335f52601d835260405f20845f5283525f6040812055614df5565b61373081336142bb565b1561373757005b60405161374791612c2182613eec565b5f6040519183335f805160206155f88339815191528480a38183528201525f805160206156d883398151915260403392a3005b3461049257606036600319011261049257600435613796613e1c565b6044356001600160401b038111610492577f5cd61427930ab89a7ffdd8646dd284f02d4ec213a21d6dcaab300350e8006611916137da610902923690600401614048565b92906137e461496b565b855f5260156020526137f98360405f20614213565b6040519384931515845260406020850152604084019161466d565b34610492575f36600319011261049257604051600c545f8261383583613e99565b91828252602093600190856001821691825f1461308a575050600114613862575061303992500383613f3d565b849150600c5f52815f20905f915b85831061388757505061303993508201018561302c565b80548389018501528794508693909201918101613870565b34610492575f36600319011261049257604051600e545f826138c083613e99565b91828252602093600190856001821691825f1461308a5750506001146138ed575061303992500383613f3d565b849150600e5f52815f20905f915b85831061391257505061303993508201018561302c565b805483890185015287945086939092019181016138fb565b34610492576020806003193601126104925760043560ff600a5416613c1e576008548110613be95761395d8115156149c3565b60405161396981613eec565b5f8152613977331515614f59565b6040519061398482613f22565b6001908183528483019285368537511561105e576103e98093526139a7846154d2565b50825f525f855260405f20335f52855260405f206139c68582546147ac565b905560405183815284868201525f33915f8051602061553883398151915260403392a4333b613b5b575b50335f526018845260405f20815f52845260405f20613a108482546147ac565b9055613a1a6152b7565b6003604051613a2881613ed1565b858152868101868152604082019042825260608301948552335f5288805260405f20865f52895260405f2092518355518583015551600282015501905180519060018060401b03821161098757613a8982613a838554613e99565b8561474b565b8690601f8311600114613afd57613aa992915f9183613af257505061479a565b90555b60405183815283858201525f8051602061569883398151915260403392a2613ad26152b7565b5f80516020615658833981519152604051806115c7339442898085614197565b015190508880610b8a565b849291601f19831691855f52895f20925f5b8b828210613b455750508411613b2d575b505050811b019055613aac565b01515f1960f88460031b161c19169055878080613b20565b8385015186558997909501949384019301613b0f565b604051858180613b9963f23a6e6160e01b958683523360048401525f602484015288604484015289606484015260a0608484015260a4830190614023565b03815f335af15f9181613bca575b50613bb5578561077f6153ce565b6001600160e01b031916036107ef57846139f0565b613be2919250873d8911610830576108218183613f3d565b9087613ba7565b60405162461bcd60e51b815260048101839052600d60248201526c42656c6f77206d696e696d756d60981b6044820152606490fd5b60405162461bcd60e51b815260048101839052601460248201527314dd589cd8dc9a5c1d1a5bdb9cc81c185d5cd95960621b6044820152606490fd5b346104925760203660031901126104925761193f61192b6004356142e3565b346104925760203660031901126104925761ffff613c95613e77565b165f52601a60205261193f61192b60405f20613f60565b3461049257602036600319011261049257612710600435818102918115918304141715610d9157600754908115613ce95760209160405191048152f35b634e487b7160e01b5f52601260045260245ffd5b346104925760203660031901126104925760043563ffffffff60e01b811680910361049257602090636cdb3d1360e11b8114908115613d5a575b8115613d49575b506040519015158152f35b6301ffc9a760e01b14905082613d3e565b6303a24d0760e21b81149150613d37565b3461049257604036600319011261049257613d84613e2b565b613d8c613e57565b9060018060a01b03165f52601060205260ff60405f2091165f52602052602060ff60405f2054166040519015158152f35b346104925760403660031901126104925760206110d8613ddb613e2b565b602435906142bb565b346104925760203660031901126104925760043580151580910361049257613e0a61496b565b60ff8019600a5416911617600a555f80f35b60243590811515820361049257565b600435906001600160a01b038216820361049257565b602435906001600160a01b038216820361049257565b6024359060ff8216820361049257565b6004359060ff8216820361049257565b6004359061ffff8216820361049257565b6024359061ffff8216820361049257565b90600182811c92168015613ec7575b6020831014613eb357565b634e487b7160e01b5f52602260045260245ffd5b91607f1691613ea8565b608081019081106001600160401b0382111761098757604052565b602081019081106001600160401b0382111761098757604052565b606081019081106001600160401b0382111761098757604052565b604081019081106001600160401b0382111761098757604052565b601f909101601f19168101906001600160401b0382119082101761098757604052565b9060405191825f8254613f7281613e99565b908184526020946001916001811690815f14613fe05750600114613fa2575b505050613fa092500383613f3d565b565b5f90815285812095935091905b818310613fc8575050613fa093508201015f8080613f91565b85548884018501529485019487945091830191613faf565b92505050613fa094925060ff191682840152151560051b8201015f8080613f91565b5f5b8381106140135750505f910152565b8181015183820152602001614004565b9060209161403c81518092818552858086019101614002565b601f01601f1916010190565b9181601f84011215610492578235916001600160401b038311610492576020838186019501011161049257565b6001600160401b0381116109875760051b60200190565b929161409782614075565b916140a56040519384613f3d565b829481845260208094019160051b810192831161049257905b8282106140cb5750505050565b813581529083019083016140be565b9080601f83011215610492578160206140f59335910161408c565b90565b6001600160401b03811161098757601f01601f191660200190565b92919261411f826140f8565b9161412d6040519384613f3d565b829481845281830111610492578281602093845f960137010152565b9080601f83011215610492578160206140f593359101614113565b9081518082526020808093019301915f5b828110614183575050505090565b835185529381019392810192600101614175565b90926080926140f595948352602083015260408201528160608201520190614023565b9060406003198301126104925760043561ffff811681036104925791602435906001600160401b038211610492576141f491600401614048565b9091565b34610492575f36600319011261049257602060405160028152f35b9060ff801983541691151516179055565b6001600160a01b03168015614263575f9081527f8768e3ed19a5d00be410e8d8ad51c65c3aa78049339b9ad4303f61914e359db3602052604090205490565b60405162461bcd60e51b815260206004820152602a60248201527f455243313135353a2061646472657373207a65726f206973206e6f742061207660448201526930b634b21037bbb732b960b11b6064820152608490fd5b6001600160a01b0316908115614263575f525f60205260405f20905f5260205260405f205490565b600f546001600160a01b0316806145c3575b505f8172184f03e93ff9f4daa797ed6e38ed64bf6a1f0160401b81818110156145b5575b506904ee2d6d415b85acef8160201b9050808210156145a8575b50662386f26fc100008082101561459b575b506305f5e1008082101561458e575b5061271080821015614581575b506064811015614573575b600a80911015614569575b6001808301938160216143a261438c886140f8565b9761439a604051998a613f3d565b8089526140f8565b602088019690601f1901368837870101905b614534575b505050506101206140f5916040519384917a19185d184e985c1c1b1a58d85d1a5bdb8bda9cdbdb8edd5d198e0b602a1b60208401527f7b226e616d65223a225269736b4c656e732044656d6f20436f6c6c6563746962603b8401527f6c65222c226465736372697074696f6e223a225269736b4c656e73205365706f605b8401527f6c696120636f6c6c65637469626c652e20436f6e66696775726520746865206d607b8401527f657461646174612072656e646572657220666f722066756c6c20636f76657220609b8401527f6172742e222c2261747472696275746573223a5b7b2274726169745f7479706560bb8401527f223a224e6574776f726b222c2276616c7565223a225365706f6c6961227d2c7b60db8401527f2274726169745f74797065223a22546f6b656e204944222c2276616c7565223a60fb840152601160f91b61011b84015261451661011c9251809284860190614002565b82019063227d5d7d60e01b9082015203610100810184520182613f3d565b5f19019083906f181899199a1a9b1b9c1cb0b131b232b360811b8282061a835304918215614564579190826143b4565b6143b9565b9060010190614377565b60646002910491019061436c565b600491049101905f614361565b600891049101905f614354565b601091049101905f614345565b602091049101905f614333565b604093500490505f80614319565b5f602491604051928380926303a24d0760e21b82528660048301525afa5f91816145f3575b50156142f557905090565b9091503d805f833e6146058183613f3d565b810190602081830312610492578051906001600160401b038211610492570181601f8201121561049257805161463a816140f8565b926146486040519485613f3d565b81845260208284010111610492576146669160208085019101614002565b905f6145e8565b908060209392818452848401375f828201840152601f01601f1916010190565b1561469457565b60405162461bcd60e51b8152602060048201526013602482015272496e76616c6964207765616c7468207461736b60681b6044820152606490fd5b156146d657565b60405162461bcd60e51b815260206004820152600f60248201526e105b1c9958591e4818db185a5b5959608a1b6044820152606490fd5b1561471457565b60405162461bcd60e51b815260206004820152600f60248201526e125b9d985b1a59081c1c9bd91d58dd608a1b6044820152606490fd5b601f821161475857505050565b5f5260205f20906020601f840160051c83019310614790575b601f0160051c01905b818110614785575050565b5f815560010161477a565b9091508190614771565b8160011b915f199060031b1c19161790565b91908201809211610d9157565b61ffff166147c881151561470d565b6103e8908101809111610d915790565b156147df57565b60405162461bcd60e51b815260206004820152602e60248201527f455243313135353a2063616c6c6572206973206e6f7420746f6b656e206f776e60448201526d195c881bdc88185c1c1c9bdd995960921b6064820152608490fd5b1561484257565b60405162461bcd60e51b8152602060048201526013602482015272125b9d985b1a59081858da1a595d995b595b9d606a1b6044820152606490fd5b9061488782614075565b6148946040519182613f3d565b82815280926148a5601f1991614075565b0190602036910137565b805182101561105e5760209160051b010190565b156148ca57565b60405162461bcd60e51b815260206004820152601060248201526f4d697373696e672065766964656e636560801b6044820152606490fd5b919081101561105e5760051b0190565b601f5481101561105e57601f5f5260205f2001905f90565b1561493157565b60405162461bcd60e51b8152602060048201526012602482015271496e76616c696420686f6d6520626164676560701b6044820152606490fd5b6003546001600160a01b0316330361497f57565b606460405162461bcd60e51b815260206004820152602060248201527f4f776e61626c653a2063616c6c6572206973206e6f7420746865206f776e65726044820152fd5b156149ca57565b60405162461bcd60e51b815260206004820152600b60248201526a5a65726f2073686172657360a81b6044820152606490fd5b9291909260ff600a5416614d9e5761ffff841690614a1c82151561470d565b6008548310614d69578294614a328415156149c3565b614a3b816147b9565b93604091825193614a4b85613eec565b5f85526001600160a01b03811694614a64861515614f59565b614a6d886154d2565b50614a77846154d2565b50875f526020915f8352855f20875f528352855f20614a978682546147ac565b9055865f87518b815287868201525f80516020615538833981519152893392a43b614c5a575b50845f5260188152835f20865f528152835f20614adb8482546147ac565b9055614ae68261534e565b90845191614af383613ed1565b84835260038284019386855287810142815260608201938452895f52848052885f208b5f528552885f20915182556001955160018301555160028201550190519283519060018060401b038211610987578894614b54836115538654613e99565b8491601f8411600114614bc5575097614bb29481989794614b9f85614bc099965f80516020615698833981519152965f805160206156588339815191529e5f92610c8757505061479a565b90555b87825191818352820152a261534e565b925192839242908085614197565b0390a4565b989796959493929190601f198316845f52855f209a5f905b828210614c40575050936001845f805160206156588339815191529c8c95614bc09b99955f8051602061569883398151915298614bb29c9a10614c28575b505050811b019055614ba2565b01515f1960f88460031b161c191690555f8080614c1b565b848401518d559b8c019b8d98509387019390870190614bdd565b8499979593929198969451898180614ca063f23a6e6160e01b958683523360048401525f60248401528b604484015288606484015260a0608484015260a4830190614023565b03815f895af15f9181614d4a575b50614d14578a8a614cbd6153ce565b6308c379a014614ce0575b505162461bcd60e51b8152806107a360048201615456565b614ce86153e9565b9081614cf45750614cc8565b6107a3835192839262461bcd60e51b845260048401526024830190614023565b63ffffffff60e09b96989a93949597999b1b1603614d32575f614abd565b835162461bcd60e51b8152806107a360048201615385565b614d629192508b3d8d11610830576108218183613f3d565b905f614cae565b60405162461bcd60e51b815260206004820152600d60248201526c42656c6f77206d696e696d756d60981b6044820152606490fd5b60405162461bcd60e51b815260206004820152601460248201527314dd589cd8dc9a5c1d1a5bdb9cc81c185d5cd95960621b6044820152606490fd5b60ff1660018110159081614dec575090565b60039150111590565b60ff1660c8018060c811610d915790565b15614e0d57565b60405162461bcd60e51b815260206004820152602860248201527f455243313135353a2069647320616e6420616d6f756e7473206c656e677468206044820152670dad2e6dac2e8c6d60c31b6064820152608490fd5b15614e6a57565b60405162461bcd60e51b815260206004820152602560248201527f455243313135353a207472616e7366657220746f20746865207a65726f206164604482015264647265737360d81b6064820152608490fd5b15614ec457565b60405162461bcd60e51b815260206004820152602a60248201527f455243313135353a20696e73756666696369656e742062616c616e636520666f60448201526939103a3930b739b332b960b11b6064820152608490fd5b9091614f336140f593604084526040840190614164565b916020818403910152614164565b60068110159081614f50575090565b600a9150111590565b15614f6057565b60405162461bcd60e51b815260206004820152602160248201527f455243313135353a206d696e7420746f20746865207a65726f206164647265736044820152607360f81b6064820152608490fd5b91906001600160a01b038316614fc6811515614f59565b614fcf826154d2565b50614fd86154ab565b50815f526020925f8452604094855f20835f528552855f2080549060018201809211610d915755825f87518681526001888201525f80516020615538833981519152893392a43b61502b575b5050505050565b926150725f9286979583975194858094819363f23a6e6160e01b998a845233600485015284602485015260448401526001606484015260a0608484015260a4830190614023565b03925af15f91816150c5575b5061508e57505050614cbd6153ce565b919392506001600160e01b0319909116036150ae57505f80808080615024565b5162461bcd60e51b8152806107a360048201615385565b6150dd919250853d8711610830576108218183613f3d565b905f61507e565b60ff16600181101590816150f6575090565b60059150111590565b90929161ffff84169061511382151561470d565b61511e8115156149c3565b61512881956147b9565b926001600160a01b031690811561527957615142846154d2565b5061514c816154d2565b5060405f815161515b81613eec565b52845f5260205f8152815f20845f528152815f205483811061523d578390875f525f8352835f20865f52835203825f20555f84835188815285848201525f80516020615538833981519152853392a45f82516151b681613eec565b525f848152601882528281208682528252829020549283811061521f575f8051602061567883398151915293505f5b855f5260188352835f20875f528352835f2055845f805160206157188339815191528480518481528486820152a2825191818352820152a4565b808403938411610d91575f80516020615678833981519152936151e5565b50608491519062461bcd60e51b825260048201526024808201525f80516020615618833981519152604482015263616e636560e01b6064820152fd5b60405162461bcd60e51b815260206004820152602360248201525f8051602061557883398151915260448201526265737360e81b6064820152608490fd5b60015f52601a6020526152e97ff88cd8d612926ebb404e40725c01084b6e9b3ce0344cde068570342cbd448c61613f60565b80516140f557506040516152fc81613f07565b603c81527f536574746c656d656e74207465726d73207265636f7264656420696e2074686560208201527b205269736b4c656e73205765616c74682064657461696c207061676560201b604082015290565b61ffff165f52601a6020526152e960405f20613f60565b9081602091031261049257516001600160e01b0319811681036104925790565b60809060208152602860208201527f455243313135353a204552433131353552656365697665722072656a656374656040820152676420746f6b656e7360c01b60608201520190565b5f9060033d116153da57565b905060045f803e5f5160e01c90565b5f60443d106140f557604051600319913d83016004833e81516001600160401b03918282113d6024840111176154455781840194855193841161544d573d8501016020848701011161544557506140f592910160200190613f3d565b949350505050565b50949350505050565b60809060208152603460208201527f455243313135353a207472616e7366657220746f206e6f6e2d455243313135356040820152732932b1b2b4bb32b91034b6b83632b6b2b73a32b960611b60608201520190565b6040516154b781613f22565b6001815260208101602036823781511561105e576001905290565b604051906154df82613f22565b6001825260208201602036823782511561105e57529056fe4a39dc06d4c0dbc64b70af90fd698a233a518aa5d07e595d983b8c0526c8f7fb866aab14c7f7439fa866f885f22e8a9fce19f006d3956137b07f4284346bac9cc3d58168c5ae7397731d063d5bbf3d657854427343f4c083240f7aacaa2d0f62309eb5725bc0fcc8192e7491a4adaaf2ebbfb008e6f1062f264953c0976e27b7455243313135353a206275726e2066726f6d20746865207a65726f2061646472ee734f4dc9367a19993b3dd18a799f252c2874ef9d7388163aa9c16cb0011100b16cf5b05c6e7e92f2299a1d0894bbf220a63a7b1ccc786436c3d89d18df7bbe04844d30b922ffc2b845400eb2a15cdd62742176c723e09d7cc9703e83645e4bbd1ae2c6d13c1a8dc9dbe03823192cb9ab92b45e5b9264dd65b2794c526e6f9f455243313135353a206275726e20616d6f756e7420657863656564732062616c8be0079c531659141344cd1fd0a4f28419497f9722a3daafe3b4186f6b6457e09ec85e292a34c98a43e8ffe45de1c625bdfe7e8efc23f4a9da12895a70b358157c7917c3334372c8a1ab0009b4314b5fa722b2ae8bb2603b7195279aeb45a37af94991dcbea6e8ac439cbc93bd9c62a4d39f04e0ad656df9a703f13552c2787f09fb0a9f79f07cf16c95b92623175f408d609663d7868ae62581439d923470bdcfdb31fa548aa2c58dcf9c124e888cfd6afefe9fe228a5cc829205ab69b69e0c4c7380f1d23a71f74fa1303f23b7100826e4a89a4e47b2985e5c708e47a19b3af3a670cd3af7d64b488926880889d08a8585a138ff455227af6737339a1ec262683c55aed4ead4746321e8659fb2c565dd8e202a7a594f73a71e3f57607e1bd0a264697066735822122000a780a73a541a93ce69e1ef6fc4f32aae1abc5e672cacabe1991951fdbb7b4a64736f6c63430008180033",
  "linkReferences": {},
  "deployedLinkReferences": {},
  "immutableReferences": {},
  "inputSourceName": "project/contracts/MSXUnifiedDemoHub.sol",
  "buildInfoId": "solc-0_8_24-d2ce9c50d750522b7c6f4a9670760dc2cfd2d3a9"
}