{"project/contracts/MSXQuestBadge.sol":{"MSXQuestBadge":{"abi":[{"inputs":[],"stateMutability":"nonpayable","type":"constructor"},{"anonymous":false,"inputs":[{"indexed":true,"internalType":"address","name":"owner","type":"address"},{"indexed":true,"internalType":"address","name":"approved","type":"address"},{"indexed":true,"internalType":"uint256","name":"tokenId","type":"uint256"}],"name":"Approval","type":"event"},{"anonymous":false,"inputs":[{"indexed":true,"internalType":"address","name":"owner","type":"address"},{"indexed":true,"internalType":"address","name":"operator","type":"address"},{"indexed":false,"internalType":"bool","name":"approved","type":"bool"}],"name":"ApprovalForAll","type":"event"},{"anonymous":false,"inputs":[{"indexed":true,"internalType":"address","name":"previousOwner","type":"address"},{"indexed":true,"internalType":"address","name":"newOwner","type":"address"}],"name":"OwnershipTransferred","type":"event"},{"anonymous":false,"inputs":[{"indexed":true,"internalType":"address","name":"recipient","type":"address"},{"indexed":true,"internalType":"uint8","name":"badgeType","type":"uint8"},{"indexed":true,"internalType":"uint256","name":"tokenId","type":"uint256"}],"name":"TaskBadgeMinted","type":"event"},{"anonymous":false,"inputs":[{"indexed":true,"internalType":"address","name":"from","type":"address"},{"indexed":true,"internalType":"address","name":"to","type":"address"},{"indexed":true,"internalType":"uint256","name":"tokenId","type":"uint256"}],"name":"Transfer","type":"event"},{"inputs":[],"name":"BADGE_COUNT","outputs":[{"internalType":"uint8","name":"","type":"uint8"}],"stateMutability":"view","type":"function"},{"inputs":[],"name":"BADGE_PAPER","outputs":[{"internalType":"uint8","name":"","type":"uint8"}],"stateMutability":"view","type":"function"},{"inputs":[],"name":"BADGE_QUIZ","outputs":[{"internalType":"uint8","name":"","type":"uint8"}],"stateMutability":"view","type":"function"},{"inputs":[],"name":"BADGE_RISK","outputs":[{"internalType":"uint8","name":"","type":"uint8"}],"stateMutability":"view","type":"function"},{"inputs":[],"name":"BADGE_WALLET","outputs":[{"internalType":"uint8","name":"","type":"uint8"}],"stateMutability":"view","type":"function"},{"inputs":[],"name":"BADGE_WELCOME","outputs":[{"internalType":"uint8","name":"","type":"uint8"}],"stateMutability":"view","type":"function"},{"inputs":[{"internalType":"address","name":"to","type":"address"},{"internalType":"uint256","name":"tokenId","type":"uint256"}],"name":"approve","outputs":[],"stateMutability":"nonpayable","type":"function"},{"inputs":[{"internalType":"address","name":"owner","type":"address"}],"name":"balanceOf","outputs":[{"internalType":"uint256","name":"","type":"uint256"}],"stateMutability":"view","type":"function"},{"inputs":[{"internalType":"uint256","name":"tokenId","type":"uint256"}],"name":"getApproved","outputs":[{"internalType":"address","name":"","type":"address"}],"stateMutability":"view","type":"function"},{"inputs":[{"internalType":"address","name":"holder","type":"address"}],"name":"hasMinted","outputs":[{"internalType":"bool","name":"","type":"bool"}],"stateMutability":"view","type":"function"},{"inputs":[{"internalType":"address","name":"","type":"address"},{"internalType":"uint8","name":"","type":"uint8"}],"name":"hasMintedBadge","outputs":[{"internalType":"bool","name":"","type":"bool"}],"stateMutability":"view","type":"function"},{"inputs":[{"internalType":"address","name":"holder","type":"address"},{"internalType":"uint8","name":"badgeType","type":"uint8"}],"name":"hasMintedTask","outputs":[{"internalType":"bool","name":"","type":"bool"}],"stateMutability":"view","type":"function"},{"inputs":[{"internalType":"address","name":"owner","type":"address"},{"internalType":"address","name":"operator","type":"address"}],"name":"isApprovedForAll","outputs":[{"internalType":"bool","name":"","type":"bool"}],"stateMutability":"view","type":"function"},{"inputs":[{"internalType":"uint8","name":"badgeType","type":"uint8"},{"internalType":"address","name":"to","type":"address"}],"name":"mintBadge","outputs":[{"internalType":"uint256","name":"tokenId","type":"uint256"}],"stateMutability":"nonpayable","type":"function"},{"inputs":[{"internalType":"address","name":"to","type":"address"}],"name":"mintWelcomeBadge","outputs":[{"internalType":"uint256","name":"tokenId","type":"uint256"}],"stateMutability":"nonpayable","type":"function"},{"inputs":[],"name":"name","outputs":[{"internalType":"string","name":"","type":"string"}],"stateMutability":"view","type":"function"},{"inputs":[],"name":"nextTokenId","outputs":[{"internalType":"uint256","name":"","type":"uint256"}],"stateMutability":"view","type":"function"},{"inputs":[],"name":"owner","outputs":[{"internalType":"address","name":"","type":"address"}],"stateMutability":"view","type":"function"},{"inputs":[{"internalType":"uint256","name":"tokenId","type":"uint256"}],"name":"ownerOf","outputs":[{"internalType":"address","name":"","type":"address"}],"stateMutability":"view","type":"function"},{"inputs":[],"name":"renounceOwnership","outputs":[],"stateMutability":"nonpayable","type":"function"},{"inputs":[{"internalType":"address","name":"from","type":"address"},{"internalType":"address","name":"to","type":"address"},{"internalType":"uint256","name":"tokenId","type":"uint256"}],"name":"safeTransferFrom","outputs":[],"stateMutability":"nonpayable","type":"function"},{"inputs":[{"internalType":"address","name":"from","type":"address"},{"internalType":"address","name":"to","type":"address"},{"internalType":"uint256","name":"tokenId","type":"uint256"},{"internalType":"bytes","name":"data","type":"bytes"}],"name":"safeTransferFrom","outputs":[],"stateMutability":"nonpayable","type":"function"},{"inputs":[{"internalType":"address","name":"operator","type":"address"},{"internalType":"bool","name":"approved","type":"bool"}],"name":"setApprovalForAll","outputs":[],"stateMutability":"nonpayable","type":"function"},{"inputs":[{"internalType":"bytes4","name":"interfaceId","type":"bytes4"}],"name":"supportsInterface","outputs":[{"internalType":"bool","name":"","type":"bool"}],"stateMutability":"view","type":"function"},{"inputs":[],"name":"symbol","outputs":[{"internalType":"string","name":"","type":"string"}],"stateMutability":"view","type":"function"},{"inputs":[{"internalType":"uint256","name":"","type":"uint256"}],"name":"tokenBadgeType","outputs":[{"internalType":"uint8","name":"","type":"uint8"}],"stateMutability":"view","type":"function"},{"inputs":[{"internalType":"uint256","name":"tokenId","type":"uint256"}],"name":"tokenURI","outputs":[{"internalType":"string","name":"","type":"string"}],"stateMutability":"view","type":"function"},{"inputs":[{"internalType":"address","name":"from","type":"address"},{"internalType":"address","name":"to","type":"address"},{"internalType":"uint256","name":"tokenId","type":"uint256"}],"name":"transferFrom","outputs":[],"stateMutability":"nonpayable","type":"function"},{"inputs":[{"internalType":"address","name":"newOwner","type":"address"}],"name":"transferOwnership","outputs":[],"stateMutability":"nonpayable","type":"function"}],"evm":{"bytecode":{"linkReferences":{},"object":"6080346200032e576001600160401b0390604090808201838111828210176200024c578252600f81526020926e4d535820517565737420426164676560881b84830152825193838501858110838211176200024c578452600585526426a9ac28a160d91b818601528251908282116200024c575f54916001948584811c9416801562000323575b838510146200022d578190601f94858111620002d0575b5083908583116001146200026c575f9262000260575b50505f19600383901b1c191690851b175f555b85519283116200024c5783548481811c9116801562000241575b828210146200022d57828111620001e5575b5080918311600114620001805750819293945f9262000174575b50505f19600383901b1c191690821b1781555b60068054336001600160a01b0319821681179092559251926001600160a01b03167f8be0079c531659141344cd1fd0a4f28419497f9722a3daafe3b4186f6b6457e05f80a36007556133229081620003338239f35b015190505f806200010c565b90601f19831695845f52825f20925f905b888210620001cd5750508385969710620001b4575b505050811b0181556200011f565b01515f1960f88460031b161c191690555f8080620001a6565b80878596829496860151815501950193019062000191565b845f52815f208380860160051c82019284871062000223575b0160051c019085905b82811062000217575050620000f2565b5f815501859062000207565b92508192620001fe565b634e487b7160e01b5f52602260045260245ffd5b90607f1690620000e0565b634e487b7160e01b5f52604160045260245ffd5b015190505f80620000b3565b90879350601f198316915f8052855f20925f5b87828210620002b95750508411620002a0575b505050811b015f55620000c6565b01515f1960f88460031b161c191690555f808062000292565b8385015186558b979095019493840193016200027f565b9091505f8052835f208580850160051c82019286861062000319575b918991869594930160051c01915b8281106200030a5750506200009d565b5f8155859450899101620002fa565b92508192620002ec565b93607f169362000086565b5f80fdfe608060409080825260049081361015610016575f80fd5b5f3560e01c90816301b4597d14611f965750806301ffc9a714611f2b57806306fdde0314611e64578063081812fc14611e45578063095ea7b314611cd75780630ce1a02f14611cbd5780631cc6a90614611c1c57806323b872dd14611c9957806338e21cce14611c5457806342842e0e14611c215780634304f9a614611c1c5780635216333714611a6657806359e0c9be14611a4b5780636352211e14611a1b5780636b3ce2f1146119bf57806370a082311461192b578063715018a6146118d05780637206abbd1461168357806375794a3c146116655780638530a3bf1461163a5780638da5cb5b1461161257806395d89b41146115115780639ef94994146114f6578063a22cb4651461142c578063b88d4fde1461137f578063bf68f84814611364578063c87b56dd14610275578063e985e9c5146102275763f2fde38b1461015f575f80fd5b3461022357602036600319011261022357610178611fe4565b906101816124b6565b6001600160a01b039182169283156101d1575050600654826001600160601b0360a01b821617600655167f8be0079c531659141344cd1fd0a4f28419497f9722a3daafe3b4186f6b6457e05f80a3005b906020608492519162461bcd60e51b8352820152602660248201527f4f776e61626c653a206e6577206f776e657220697320746865207a65726f206160448201526564647265737360d01b6064820152fd5b5f80fd5b8234610223578060031936011261022357602090610243611fe4565b61024b611ffa565b9060018060a01b038091165f5260058452825f2091165f52825260ff815f20541690519015158152f35b503461022357602090816003193601126102235780355f81815260028452849020549091906102ae906001600160a01b03161515612216565b815f5260098352835f205460ff166102c581612585565b906102cf8161267d565b9286866102db84612777565b936102e581612d66565b6102ee82612d66565b6102f783612da2565b61030084612dbc565b908561030b86612da2565b9461031587612da2565b61031e88612e06565b9661032889612ee1565b956103328a612fe8565b9561033c8b61303f565b9a6103469061317a565b988d519d8e9d8e017f3c7376672077696474683d223132303022206865696768743d2231323030222090528d017f76696577426f783d2230203020313230302031323030222066696c6c3d226e6f905260608d017f6e652220786d6c6e733d22687474703a2f2f7777772e77332e6f72672f32303090528c661817b9bb33911f60c91b906080015260878d017f3c646566733e3c6c696e6561724772616469656e742069643d22626722207831905260a78d017f3d223634222079313d223430222078323d2231313034222079323d2231313436905260c78d017f22206772616469656e74556e6974733d227573657253706163654f6e55736522905260e78d017f3e3c73746f702073746f702d636f6c6f723d2223324134333145222f3e3c737490526101078d017f6f70206f66667365743d22302e3335222073746f702d636f6c6f723d2223304590526101278d017f31373232222f3e3c73746f70206f66667365743d2231222073746f702d636f6c90526101478d017f6f723d2223313733413346222f3e3c2f6c696e6561724772616469656e743e0090526101668d017f3c72616469616c4772616469656e742069643d22676c6f77222063783d22302290526101868d017f2063793d22302220723d223122206772616469656e74556e6974733d2275736590526101a68d017f7253706163654f6e55736522206772616469656e745472616e73666f726d3d2290526101c68d017f7472616e736c61746528323230203231302920726f746174652834372920736390526101e68d017f616c65283336302033363029223e3c73746f702073746f702d636f6c6f723d2290528c610206968791898251938492019201916105c492612020565b7f222073746f702d6f7061636974793d22302e35222f3e3c73746f70206f666673908e01968701527232ba1e9118911039ba37b816b1b7b637b91e9160691b6102268701528051610239969091610622908390898401908b01612020565b7f222073746f702d6f7061636974793d2230222f3e3c2f72616469616c477261649101958601526434b2b73a1f60d91b6102598601527f3c6c696e6561724772616469656e742069643d2265646765222078313d22393661025e8601527f222079313d223936222078323d2231313034222079323d22313130342220677261027e8601527f616469656e74556e6974733d227573657253706163654f6e557365223e3c737461029e8601526e37b81039ba37b816b1b7b637b91e9160891b6102be86015280516102cd9590916106ff908390888401908a01612020565b7f222073746f702d6f7061636974793d22302e3238222f3e3c73746f70206f66669101948501527339b2ba1e9118911039ba37b816b1b7b637b91e9160611b6102ed850152805161030194909161075d908390878401908901612020565b7f222073746f702d6f7061636974793d22302e3136222f3e3c2f6c696e656172479101938401526e3930b234b2b73a1f1e17b232b3399f60891b6103218401527f3c726563742077696474683d223132303022206865696768743d2231323030226103308401527f2072783d223732222066696c6c3d2223304331333230222f3e3c7265637420786103508401527f3d2235322220793d223532222077696474683d223130393622206865696768746103708401527f3d2231303936222072783d223438222066696c6c3d2275726c282362672922206103908401527f7374726f6b653d2275726c2823656467652922207374726f6b652d77696474686103b0840152651e911911179f60d11b6103d08401527f3c636972636c652063783d22323230222063793d223231302220723d223332306103d68401527411103334b6361e913ab9361411b3b637bb9491179f60591b6103f68401527f3c67206f7061636974793d22302e3122207374726f6b653d222338454130423761040b8401527f223e3c7061746820643d224d31323020305631323030222f3e3c70617468206461042b8401527f3d224d32343020305631323030222f3e3c7061746820643d224d33363020305661044b8401527f31323030222f3e3c7061746820643d224d34383020305631323030222f3e3c7061046b8401527f61746820643d224d36303020305631323030222f3e3c7061746820643d224d3761048b8401527f323020305631323030222f3e3c7061746820643d224d383430203056313230306104ab8401527f222f3e3c7061746820643d224d39363020305631323030222f3e3c70617468206104cb8401527f643d224d3130383020305631323030222f3e3c7061746820643d224d302031326104eb8401527f304831323030222f3e3c7061746820643d224d30203234304831323030222f3e61050b8401527f3c7061746820643d224d30203336304831323030222f3e3c7061746820643d2261052b8401527f4d30203438304831323030222f3e3c7061746820643d224d302036303048313261054b8401527f3030222f3e3c7061746820643d224d30203732304831323030222f3e3c70617461056b8401527f6820643d224d30203834304831323030222f3e3c7061746820643d224d30203961058b8401527f36304831323030222f3e3c7061746820643d224d3020313038304831323030226105ab84015265179f1e17b39f60d11b6105cb8401527f3c636972636c652063783d22313232222063793d223132322220723d223136226105d184015266103334b6361e9160c91b6105f184015280516105f8939091610b39908390868401908801612020565b019182017f222f3e3c7465787420783d223135342220793d22313332222066696c6c3d22009052610617918151918285858401920191610b7892612020565b7f2220666f6e742d73697a653d2232342220666f6e742d7765696768743d2238309101918201527f302220666f6e742d66616d696c793d22417269616c2c2073616e732d73657269610637820152753311103632ba3a32b916b9b830b1b4b7339e9119111f60511b610657820152855161066d969092610bfe9184918985019101612020565b01938d661e17ba32bc3a1f60c91b9586809382015261067481017f3c7465787420783d223131302220793d22343730222066696c6c3d222346344690527f3746422220666f6e742d73697a653d2236382220666f6e742d7765696768743d806106948301527f223930302220666f6e742d66616d696c793d22417269616c2c2073616e732d7390816106b4840152846532b934b3111f60d11b97886106d48601526106da948151918288888401920191610cb792612020565b01938401526106e183017f3c7465787420783d223131302220793d22353438222066696c6c3d22234634469052610701830152610721820152846107418201526107479380518093868401920191610d0e92612020565b019182015261074e81017f3c7465787420783d223131302220793d22363534222066696c6c3d222339464290528c847f3043342220666f6e742d73697a653d2232382220666f6e742d7765696768743d918261076e8501527f223530302220666f6e742d66616d696c793d22417269616c2c2073616e732d73938461078e820152856107ae8201526107b498805180938b8401920191610dad92612020565b01968701526107bb86017f3c7465787420783d223131302220793d22363936222066696c6c3d222339464290526107db8601526107fb85015261081b84015261082192815191828d868401920191610e0492612020565b01918201527f3c7265637420783d223131302220793d22383436222077696474683d223138386108288201527f22206865696768743d223538222072783d223239222066696c6c3d22726762616108488201527f2831302c31382c32382c302e36322922207374726f6b653d22726762612832356108688201527f352c3235352c3235352c302e313229222f3e3c7465787420783d2231343222206108888201527f793d22383833222066696c6c3d22234634463746422220666f6e742d73697a656108a88201527f3d2232322220666f6e742d7765696768743d223730302220666f6e742d66616d6108c88201527f696c793d22417269616c2c2073616e732d7365726966223e5365706f6c6961206108e88201526b28bab2b9ba1e17ba32bc3a1f60a11b610908820152651e17b9bb339f60d11b610914820152036108fa81018252610f569061091a018261213a565b610f5f906129dc565b91868880519384838101967f646174613a696d6167652f7376672b786d6c3b6261736536342c00000000000088528051908186603a8501920191610fa292612020565b810103601a81018652603a01610fb8908661213a565b8889915f9a7a184f03e93ff9f4daa797ed6e38ed64bf6a1f0100000000000000009081811015611355575b50506d04ee2d6d415b85acef810000000080841015611347575b50662386f26fc1000080841015611338575b506305f5e10080841015611329575b506127108084101561131b575b5050606482101561130b575b600a80921015611301575b6001908160216110538d83016129aa565b9c8d0101905b6112cc575b505050509461126394610135946110f561126899956112c89b956110d260296110a59c519c8d809b683d913730b6b2911d1160b91b86830152858151948593019101612020565b890191701116113232b9b1b934b83a34b7b7111d1160791b60298401528351938491603a85019101612020565b01916a11161134b6b0b3b2911d1160a91b603a8401525180936045840190612020565b017f222c2261747472696275746573223a5b7b2274726169745f74797065223a224360458201527f616d706169676e222c2276616c7565223a224d53582047756964656420496e7660658201527f657374696e6720487562227d2c7b2274726169745f74797065223a224e65747760858201527f6f726b222c2276616c7565223a225365706f6c6961227d2c7b2274726169745f60a58201527f74797065223a2242616467652054797065222c2276616c7565223a220000000060c58201526111c7825180938c60e185019101612020565b01907f227d2c7b2274726169745f74797065223a22537461747573222c2276616c756560e18301527f223a22556e6c6f636b6564227d2c7b2274726169745f74797065223a22546f6b6101018301526f32b71024a21116113b30b63ab2911d1160811b61012183015261013191611246825180938c8685019101612020565b019063227d5d7d60e01b908201520361011581018452018261213a565b6129dc565b926112b9603d825180967f646174613a6170706c69636174696f6e2f6a736f6e3b6261736536342c000000878301526112a981518092898686019101612020565b810103601d81018752018561213a565b51928284938452830190612041565b0390f35b5f19019083906f181899199a1a9b1b9c1cb0b131b232b360811b8282061a8353049182156112fc57919082611059565b61105e565b9860010198611042565b9890606460029104910198611037565b9a0199909104905f8061102b565b6008919b93049201995f61101e565b6010919b93049201995f61100f565b85919b93049201995f610ffd565b949b508b940492505f80610fe3565b8234610223575f366003190112610223576020905160018152f35b503461022357608036600319011261022357611399611fe4565b916113a2611ffa565b604435906064359367ffffffffffffffff8511610223573660238601121561022357840135946113dd6113d48761215c565b9451948561213a565b8584523660248787010111610223575f60208761142a9860246114259901838901378601015261141561141084336122c8565b6121b4565b61142083838361238c565b612c56565b612561565b005b509034610223578060031936011261022357611446611fe4565b9060243591821515809303610223576001600160a01b0316923384146114b45750335f526005602052805f20835f52602052805f2060ff1981541660ff8416179055519081527f17307eab39ab6107e8899845ad3d59bd9653f200f220920489ca2b5937696c3160203392a3005b6020606492519162461bcd60e51b8352820152601960248201527f4552433732313a20617070726f766520746f2063616c6c6572000000000000006044820152fd5b8234610223575f366003190112610223576020905160028152f35b509034610223575f366003190112610223578051905f90600191600154928360011c9060018516948515611608575b60209586841081146115f5578388528794939291879082156115d3575050600114611578575b50506112c892916112b991038561213a565b9085925060015f527fb10e2d527612073b26eecdfd717e6a320cf44b4afac2b0732d9fcbe2b7fa0cf6915f925b8284106115bb57505050820101816112b9611566565b8054848a0186015288955087949093019281016115a5565b60ff19168682015292151560051b850190920192508391506112b99050611566565b602289634e487b7160e01b5f525260245ffd5b91607f1691611540565b8234610223575f3660031901126102235760065490516001600160a01b039091168152602090f35b50903461022357602036600319011261022357602091355f526009825260ff815f2054169051908152f35b8234610223575f366003190112610223576020906007549051908152f35b503461022357816003193601126102235780359160ff8316808403610223576116bb6116b66116b0611ffa565b9561249b565b612287565b6001600160a01b03841680156118995780330361186557805f5260209460088652835f20835f52865260ff845f20541661182b576007549460018601908187116118185750611425869493926117ee92600755835f5260088952865f20855f528952865f2060ff1990600182825416179055865f5260098a5285885f20918254161790558587519161174c836120b6565b5f80845282815260026020526040902054611773906001600160a01b031615155b156132a0565b5f82815260026020526040902054611795906001600160a01b0316151561176d565b855f5260038b52885f2060018154019055815f5260028b52885f20866001600160601b0360a01b82541617905581865f7fddf252ad1be2c89b69c2b068fc378daa952ba7f163c4a11628f55a4df523b3ef8180a4612b49565b7f4c7380f1d23a71f74fa1303f23b7100826e4a89a4e47b2985e5c708e47a19b3a5f80a451908152f35b601190634e487b7160e01b5f525260245ffd5b835162461bcd60e51b8152808601879052601460248201527310985919d948185b1c9958591e481b5a5b9d195960621b6044820152606490fd5b825162461bcd60e51b8152602081860152600e60248201526d13db9b1e481cd95b19881b5a5b9d60921b6044820152606490fd5b825162461bcd60e51b81526020818601526011602482015270125b9d985b1a59081c9958da5c1a595b9d607a1b6044820152606490fd5b34610223575f366003190112610223576118e86124b6565b600680546001600160a01b031981169091555f906001600160a01b03167f8be0079c531659141344cd1fd0a4f28419497f9722a3daafe3b4186f6b6457e08280a3005b509034610223576020366003190112610223576001600160a01b0361194e611fe4565b16801561196a57602092505f5260038252805f20549051908152f35b815162461bcd60e51b8152602081850152602960248201527f4552433732313a2061646472657373207a65726f206973206e6f7420612076616044820152683634b21037bbb732b960b91b6064820152608490fd5b82346102235780600319360112610223576020906119db611fe4565b6119e3612010565b906119f06116b68361249b565b6001600160a01b03165f9081526008845282812060ff92831682528452829020549151911615158152f35b50903461022357602036600319011261022357611a3a60209235612262565b90516001600160a01b039091168152f35b8234610223575f366003190112610223576020905160038152f35b5034610223576020918260031936011261022357611a82611fe4565b6001600160a01b0381168015611be557803303611bb157805f5260088552825f2091600192835f52865260ff845f20541661182b5760075494838601908187116118185750611425869493926117ee92600755835f5260088952865f20855f528952865f2060ff19908682825416179055865f5260098a5285885f209182541617905585875191611b12836120b6565b5f80845282815260026020526040902054611b37906001600160a01b0316151561176d565b5f82815260026020526040902054611b59906001600160a01b0316151561176d565b855f5260038b52885f20878154019055815f5260028b52885f20866001600160601b0360a01b82541617905581865f7fddf252ad1be2c89b69c2b068fc378daa952ba7f163c4a11628f55a4df523b3ef8180a4612b49565b825162461bcd60e51b8152808501869052600e60248201526d13db9b1e481cd95b19881b5a5b9d60921b6044820152606490fd5b825162461bcd60e51b81528085018690526011602482015270125b9d985b1a59081c9958da5c1a595b9d607a1b6044820152606490fd5b612066565b82346102235761142561142a91611c3736612081565b91925192611c44846120b6565b5f845261141561141084336122c8565b8234610223576020366003190112610223576020906001600160a01b03611c79611fe4565b165f5260088252805f2060015f52825260ff815f20541690519015158152f35b346102235761142a611caa36612081565b91611cb861141084336122c8565b61238c565b5034610223575f3660031901126102235760209151908152f35b5034610223578160031936011261022357611cf0611fe4565b6024359290916001600160a01b0391908280611d0b87612262565b16941693808514611df857803314908115611dd9575b5015611d7157845f526020525f20826001600160601b0360a01b825416179055611d4a83612262565b167f8c5be1e5ebec7d5bd14f71427d1e84f3dd0314c0f7b2291e5b200ac8c7c3b9255f80a4005b6020608492519162461bcd60e51b8352820152603d60248201527f4552433732313a20617070726f76652063616c6c6572206973206e6f7420746f60448201527f6b656e206f776e6572206f7220617070726f76656420666f7220616c6c0000006064820152fd5b90505f526005602052815f20335f5260205260ff825f2054165f611d21565b506020608492519162461bcd60e51b8352820152602160248201527f4552433732313a20617070726f76616c20746f2063757272656e74206f776e656044820152603960f91b6064820152fd5b50903461022357602036600319011261022357611a3a60209235612178565b509034610223575f366003190112610223578051905f905f549160018360011c9060018516948515611f21575b60209586841081146115f5578388528794939291879082156115d3575050600114611ec85750506112c892916112b991038561213a565b5f80805286935091907f290decd9548b62a8d60345a988386fc84ba6bc95484008f6362f93160ef3e5635b828410611f0957505050820101816112b9611566565b8054848a018601528895508794909301928101611ef3565b91607f1691611e91565b5034610223576020366003190112610223573563ffffffff60e01b8116809103610223576020916380ac58cd60e01b8214918215611f85575b8215611f74575b50519015158152f35b6301ffc9a760e01b1491505f611f6b565b635b5e139f60e01b81149250611f64565b83903461022357816003193601126102235760ff602092611fb5611fe4565b611fbd612010565b6001600160a01b039091165f90815260088652828120918416815290855220541615158152f35b600435906001600160a01b038216820361022357565b602435906001600160a01b038216820361022357565b6024359060ff8216820361022357565b5f5b8381106120315750505f910152565b8181015183820152602001612022565b9060209161205a81518092818552858086019101612020565b601f01601f1916010190565b34610223575f36600319011261022357602060405160058152f35b6060906003190112610223576001600160a01b0390600435828116810361022357916024359081168103610223579060443590565b6020810190811067ffffffffffffffff8211176120d257604052565b634e487b7160e01b5f52604160045260245ffd5b6040810190811067ffffffffffffffff8211176120d257604052565b6080810190811067ffffffffffffffff8211176120d257604052565b6060810190811067ffffffffffffffff8211176120d257604052565b90601f8019910116810190811067ffffffffffffffff8211176120d257604052565b67ffffffffffffffff81116120d257601f01601f191660200190565b5f8181526002602052604090205461219a906001600160a01b03161515612216565b5f908152600460205260409020546001600160a01b031690565b156121bb57565b60405162461bcd60e51b815260206004820152602d60248201527f4552433732313a2063616c6c6572206973206e6f7420746f6b656e206f776e6560448201526c1c881bdc88185c1c1c9bdd9959609a1b6064820152608490fd5b1561221d57565b60405162461bcd60e51b815260206004820152601860248201527f4552433732313a20696e76616c696420746f6b656e20494400000000000000006044820152606490fd5b5f908152600260205260409020546001600160a01b0316612284811515612216565b90565b1561228e57565b60405162461bcd60e51b8152602060048201526012602482015271496e76616c6964206261646765207479706560701b6044820152606490fd5b906001600160a01b0380806122dc84612262565b1693169183831493841561230f575b5083156122f9575b50505090565b61230591929350612178565b16145f80806122f3565b9093505f52600560205260405f20825f5260205260ff60405f205416925f6122eb565b1561233957565b60405162461bcd60e51b815260206004820152602560248201527f4552433732313a207472616e736665722066726f6d20696e636f72726563742060448201526437bbb732b960d91b6064820152608490fd5b906123b49161239a84612262565b6001600160a01b0393918416928492909183168414612332565b1691821561244a57816123d1916123ca86612262565b1614612332565b825f52600460205260405f206001600160601b0360a01b90818154169055815f52600360205260405f205f198154019055825f5260405f2060018154019055835f5260026020528260405f20918254161790557fddf252ad1be2c89b69c2b068fc378daa952ba7f163c4a11628f55a4df523b3ef5f80a4565b60405162461bcd60e51b8152602060048201526024808201527f4552433732313a207472616e7366657220746f20746865207a65726f206164646044820152637265737360e01b6064820152608490fd5b60ff16600181101590816124ad575090565b60059150111590565b6006546001600160a01b031633036124ca57565b606460405162461bcd60e51b815260206004820152602060248201527f4f776e61626c653a2063616c6c6572206973206e6f7420746865206f776e65726044820152fd5b60809060208152603260208201527f4552433732313a207472616e7366657220746f206e6f6e20455243373231526560408201527131b2b4bb32b91034b6b83632b6b2b73a32b960711b60608201520190565b1561256857565b60405162461bcd60e51b8152806125816004820161250e565b0390fd5b60ff166001811461262c576002811461260957600381146125e8576004146125c8576040516125b3816120e6565b60058152643830b832b960d91b602082015290565b6040516125d4816120e6565b600481526338bab4bd60e11b602082015290565b506040516125f5816120e6565b60048152637269736b60e01b602082015290565b50604051612616816120e6565b60068152651dd85b1b195d60d21b602082015290565b50604051612639816120e6565b600781526677656c636f6d6560c81b602082015290565b6040519061265d826120e6565b60118252704d53582057656c636f6d6520426164676560781b6020830152565b60ff166001811461276e576002811461273c576003811461270a576004146126d8576040516126ab816120e6565b601781527f4d53582050617065722054726164696e67204261646765000000000000000000602082015290565b6040516126e4816120e6565b60168152754d53582050726f64756374205175697a20426164676560501b602082015290565b50604051612717816120e6565b60158152744d5358205269736b2052657669657720426164676560581b602082015290565b50604051612749816120e6565b60158152744d53582057616c6c6574205461736b20426164676560581b602082015290565b50612284612650565b60ff166001811461293257600281146128d2576003811461286857600414612809576040516127a581612102565b604881527f412070617065722d74726164696e67206d696c6573746f6e6520636f6c6c656360208201527f7469626c6520666f7220746865204d53582067756964656420696e7665737469604082015267373390333637bb9760c11b606082015290565b6040516128158161211e565b603d81527f412070726f647563742d7175697a20636f6c6c65637469626c6520666f72207460208201527f6865204d53582067756964656420696e76657374696e6720666c6f772e000000604082015290565b5060405161287581612102565b604181527f41207269736b2d636172642072657669657720636f6c6c65637469626c65206660208201527f6f7220746865204d53582067756964656420696e76657374696e6720666c6f776040820152601760f91b606082015290565b506040516128df8161211e565b603c81527f412077616c6c65742d636f6e6e656374696f6e20636f6c6c65637469626c652060208201527f666f7220746865204d5358206f6e626f617264696e6720666c6f772e00000000604082015290565b5060405161293f81612102565b604f81527f41205365706f6c69612077656c636f6d6520636f6c6c65637469626c6520666f60208201527f7220746865204d53582047756964656420496e76657374696e6720487562206f60408201526e373137b0b93234b73390333637bb9760891b606082015290565b906129b48261215c565b6129c1604051918261213a565b82815280926129d2601f199161215c565b0190602036910137565b90815115612b3557604051916129f18361211e565b604083527f4142434445464748494a4b4c4d4e4f505152535455565758595a61626364656660208401527f6768696a6b6c6d6e6f707172737475767778797a303132333435363738392b2f604084015280519260029160028501809511612b21576003948590046001600160fe1b0381168103612b2157612a779060029694961b6129aa565b9260208401928291835184019760208901928351945f85525b8a8110612ad457505050506003939495965052510680600114612ac257600214612ab8575090565b603d905f19015390565b50603d90815f19820153600119015390565b836004919b989b019a8b51600190603f9082828260121c16870101518453828282600c1c16870101518385015382828260061c168701015187850153168401015185820153019699612a90565b634e487b7160e01b5f52601160045260245ffd5b9050604051612b43816120b6565b5f815290565b919291803b15612c4e57612b92936040518092630a85bd0160e11b948583523360048401525f6024840152604483015260806064830152815f816020998a966084830190612041565b03926001600160a01b03165af15f9181612c0e575b50612bff57833d15612bf8573d612bbd8161215c565b90612bcb604051928361213a565b81523d5f8383013e5b80519182612bf55760405162461bcd60e51b8152806125816004820161250e565b01fd5b6060612bd4565b6001600160e01b031916149150565b9091508481813d8311612c47575b612c26818361213a565b8101031261022357516001600160e01b03198116810361022357905f612ba7565b503d612c1c565b506001925050565b9293929190803b15612cd157935f91612caf9560018060a01b039160405194838694928593630a85bd0160e11b998a86523360048701521660248501526044840152608060648401528260209a8b976084830190612041565b0393165af15f9181612c0e5750612bff57833d15612bf8573d612bbd8161215c565b50600193505050565b60405190612ce7826120e6565b6007825266119b23209aa32360c91b6020830152565b60405190612d0a826120e6565b600782526611a32322189b1b60c91b6020830152565b60405190612d2d826120e6565b60078252662346463946364560c81b6020830152565b60405190612d50826120e6565b60078252662342364646343360c81b6020830152565b60ff1660028114612d995760038114612d9057600414612d8857612284612d43565b612284612d20565b50612284612cfd565b50612284612cda565b60ff1660038114612d9057600414612d8857612284612d43565b60ff1660028114908115612dfb575b50612df357604051612ddc816120e6565b600781526608cd0e510d90cd60ca1b602082015290565b612284612cda565b60059150145f612dcb565b60ff166001811461276e5760028114612eb35760038114612e8557600414612e5957604051612e34816120e6565b60158152744d53582053696d756c6174696f6e2041636365737360581b602082015290565b604051612e65816120e6565b601081526f26a9ac10283937b23ab1ba1028bab4bd60811b602082015290565b50604051612e92816120e6565b60118152704d5358205374617274657220477569646560781b602082015290565b50604051612ec0816120e6565b60118152701354d60810dbdb9b9958dd08145d595cdd607a1b602082015290565b60ff1660018114612f9c5760028114612f745760038114612f4e57600414612f2957604051612f0f816120e6565b600a8152695041504552204d4f444560b01b602082015290565b604051612f35816120e6565b60098152685155495a205441534b60b81b602082015290565b50604051612f5b816120e6565b60098152685249534b205441534b60b81b602082015290565b50604051612f81816120e6565b600b81526a57414c4c4554205441534b60a81b602082015290565b50604051612fa9816120e6565b600d81526c57454c434f4d4520424144474560981b602082015290565b60405190612fd3826120e6565b600682526513525395115160d21b6020830152565b60ff1660018114613036576002811461303657600381146130365760041461302e57604051613016816120e6565b600881526715539313d0d2d15160c21b602082015290565b612284612fc6565b50612284612fc6565b60ff1660018114613140576002811461310657600381146130cc5760041461309a5760405161306d816120e6565b601a81527f507261637469636520666c6f77206f70656e6564206166746572000000000000602082015290565b6040516130a6816120e6565b60168152754f776e65727368697020616e6420646f776e7369646560501b602082015290565b506040516130d9816120e6565b601981527f5269736b2072657669657720636f6d706c6574656420666f7200000000000000602082015290565b50604051613113816120e6565b601a81527f57616c6c65742061636365737320617070726f76656420666f72000000000000602082015290565b5060405161314d816120e6565b601b81527f5365706f6c696120636f6c6c65637469626c6520666f72207468650000000000602082015290565b60ff166001811461326d576002811461323c5760038114613202576004146131d5576040516131a8816120e6565b601a81527f77616c6c6574207475746f7269616c20636f6d706c6574696f6e000000000000602082015290565b6040516131e1816120e6565b6011815270199c985b5a5b99c818dbdb999a5c9b5959607a1b602082015290565b5060405161320f816120e6565b601a81527f74686520677569646564206f6e626f617264696e6720666c6f77000000000000602082015290565b50604051613249816120e6565b6014815273746865204d53582077656c636f6d6520666c6f7760601b602082015290565b5060405161327a816120e6565b6016815275677569646564206f6e626f617264696e6720666c6f7760501b602082015290565b156132a757565b60405162461bcd60e51b815260206004820152601c60248201527f4552433732313a20746f6b656e20616c7265616479206d696e746564000000006044820152606490fdfea2646970667358221220d7f84a37e5eac3cf0b3fcb04ccc750f9e8d4c19441a0e52608a25dfcafcedc0964736f6c63430008180033","opcodes":"PUSH1 0x80 CALLVALUE PUSH3 0x32E JUMPI PUSH1 0x1 PUSH1 0x1 PUSH1 0x40 SHL SUB SWAP1 PUSH1 0x40 SWAP1 DUP1 DUP3 ADD DUP4 DUP2 GT DUP3 DUP3 LT OR PUSH3 0x24C JUMPI DUP3 MSTORE PUSH1 0xF DUP2 MSTORE PUSH1 0x20 SWAP3 PUSH15 0x4D5358205175657374204261646765 PUSH1 0x88 SHL DUP5 DUP4 ADD MSTORE DUP3 MLOAD SWAP4 DUP4 DUP6 ADD DUP6 DUP2 LT DUP4 DUP3 GT OR PUSH3 0x24C JUMPI DUP5 MSTORE PUSH1 0x5 DUP6 MSTORE PUSH5 0x26A9AC28A1 PUSH1 0xD9 SHL DUP2 DUP7 ADD MSTORE DUP3 MLOAD SWAP1 DUP3 DUP3 GT PUSH3 0x24C JUMPI PUSH0 SLOAD SWAP2 PUSH1 0x1 SWAP5 DUP6 DUP5 DUP2 SHR SWAP5 AND DUP1 ISZERO PUSH3 0x323 JUMPI JUMPDEST DUP4 DUP6 LT EQ PUSH3 0x22D JUMPI DUP2 SWAP1 PUSH1 0x1F SWAP5 DUP6 DUP2 GT PUSH3 0x2D0 JUMPI JUMPDEST POP DUP4 SWAP1 DUP6 DUP4 GT PUSH1 0x1 EQ PUSH3 0x26C JUMPI PUSH0 SWAP3 PUSH3 0x260 JUMPI JUMPDEST POP POP PUSH0 NOT PUSH1 0x3 DUP4 SWAP1 SHL SHR NOT AND SWAP1 DUP6 SHL OR PUSH0 SSTORE JUMPDEST DUP6 MLOAD SWAP3 DUP4 GT PUSH3 0x24C JUMPI DUP4 SLOAD DUP5 DUP2 DUP2 SHR SWAP2 AND DUP1 ISZERO PUSH3 0x241 JUMPI JUMPDEST DUP3 DUP3 LT EQ PUSH3 0x22D JUMPI DUP3 DUP2 GT PUSH3 0x1E5 JUMPI JUMPDEST POP DUP1 SWAP2 DUP4 GT PUSH1 0x1 EQ PUSH3 0x180 JUMPI POP DUP2 SWAP3 SWAP4 SWAP5 PUSH0 SWAP3 PUSH3 0x174 JUMPI JUMPDEST POP POP PUSH0 NOT PUSH1 0x3 DUP4 SWAP1 SHL SHR NOT AND SWAP1 DUP3 SHL OR DUP2 SSTORE JUMPDEST PUSH1 0x6 DUP1 SLOAD CALLER PUSH1 0x1 PUSH1 0x1 PUSH1 0xA0 SHL SUB NOT DUP3 AND DUP2 OR SWAP1 SWAP3 SSTORE SWAP3 MLOAD SWAP3 PUSH1 0x1 PUSH1 0x1 PUSH1 0xA0 SHL SUB AND PUSH32 0x8BE0079C531659141344CD1FD0A4F28419497F9722A3DAAFE3B4186F6B6457E0 PUSH0 DUP1 LOG3 PUSH1 0x7 SSTORE PUSH2 0x3322 SWAP1 DUP2 PUSH3 0x333 DUP3 CODECOPY RETURN JUMPDEST ADD MLOAD SWAP1 POP PUSH0 DUP1 PUSH3 0x10C JUMP JUMPDEST SWAP1 PUSH1 0x1F NOT DUP4 AND SWAP6 DUP5 PUSH0 MSTORE DUP3 PUSH0 KECCAK256 SWAP3 PUSH0 SWAP1 JUMPDEST DUP9 DUP3 LT PUSH3 0x1CD JUMPI POP POP DUP4 DUP6 SWAP7 SWAP8 LT PUSH3 0x1B4 JUMPI JUMPDEST POP POP POP DUP2 SHL ADD DUP2 SSTORE PUSH3 0x11F JUMP JUMPDEST ADD MLOAD PUSH0 NOT PUSH1 0xF8 DUP5 PUSH1 0x3 SHL AND SHR NOT AND SWAP1 SSTORE PUSH0 DUP1 DUP1 PUSH3 0x1A6 JUMP JUMPDEST DUP1 DUP8 DUP6 SWAP7 DUP3 SWAP5 SWAP7 DUP7 ADD MLOAD DUP2 SSTORE ADD SWAP6 ADD SWAP4 ADD SWAP1 PUSH3 0x191 JUMP JUMPDEST DUP5 PUSH0 MSTORE DUP2 PUSH0 KECCAK256 DUP4 DUP1 DUP7 ADD PUSH1 0x5 SHR DUP3 ADD SWAP3 DUP5 DUP8 LT PUSH3 0x223 JUMPI JUMPDEST ADD PUSH1 0x5 SHR ADD SWAP1 DUP6 SWAP1 JUMPDEST DUP3 DUP2 LT PUSH3 0x217 JUMPI POP POP PUSH3 0xF2 JUMP JUMPDEST PUSH0 DUP2 SSTORE ADD DUP6 SWAP1 PUSH3 0x207 JUMP JUMPDEST SWAP3 POP DUP2 SWAP3 PUSH3 0x1FE JUMP JUMPDEST PUSH4 0x4E487B71 PUSH1 0xE0 SHL PUSH0 MSTORE PUSH1 0x22 PUSH1 0x4 MSTORE PUSH1 0x24 PUSH0 REVERT JUMPDEST SWAP1 PUSH1 0x7F AND SWAP1 PUSH3 0xE0 JUMP JUMPDEST PUSH4 0x4E487B71 PUSH1 0xE0 SHL PUSH0 MSTORE PUSH1 0x41 PUSH1 0x4 MSTORE PUSH1 0x24 PUSH0 REVERT JUMPDEST ADD MLOAD SWAP1 POP PUSH0 DUP1 PUSH3 0xB3 JUMP JUMPDEST SWAP1 DUP8 SWAP4 POP PUSH1 0x1F NOT DUP4 AND SWAP2 PUSH0 DUP1 MSTORE DUP6 PUSH0 KECCAK256 SWAP3 PUSH0 JUMPDEST DUP8 DUP3 DUP3 LT PUSH3 0x2B9 JUMPI POP POP DUP5 GT PUSH3 0x2A0 JUMPI JUMPDEST POP POP POP DUP2 SHL ADD PUSH0 SSTORE PUSH3 0xC6 JUMP JUMPDEST ADD MLOAD PUSH0 NOT PUSH1 0xF8 DUP5 PUSH1 0x3 SHL AND SHR NOT AND SWAP1 SSTORE PUSH0 DUP1 DUP1 PUSH3 0x292 JUMP JUMPDEST DUP4 DUP6 ADD MLOAD DUP7 SSTORE DUP12 SWAP8 SWAP1 SWAP6 ADD SWAP5 SWAP4 DUP5 ADD SWAP4 ADD PUSH3 0x27F JUMP JUMPDEST SWAP1 SWAP2 POP PUSH0 DUP1 MSTORE DUP4 PUSH0 KECCAK256 DUP6 DUP1 DUP6 ADD PUSH1 0x5 SHR DUP3 ADD SWAP3 DUP7 DUP7 LT PUSH3 0x319 JUMPI JUMPDEST SWAP2 DUP10 SWAP2 DUP7 SWAP6 SWAP5 SWAP4 ADD PUSH1 0x5 SHR ADD SWAP2 JUMPDEST DUP3 DUP2 LT PUSH3 0x30A JUMPI POP POP PUSH3 0x9D JUMP JUMPDEST PUSH0 DUP2 SSTORE DUP6 SWAP5 POP DUP10 SWAP2 ADD PUSH3 0x2FA JUMP JUMPDEST SWAP3 POP DUP2 SWAP3 PUSH3 0x2EC JUMP JUMPDEST SWAP4 PUSH1 0x7F AND SWAP4 PUSH3 0x86 JUMP JUMPDEST PUSH0 DUP1 REVERT INVALID PUSH1 0x80 PUSH1 0x40 SWAP1 DUP1 DUP3 MSTORE PUSH1 0x4 SWAP1 DUP2 CALLDATASIZE LT ISZERO PUSH2 0x16 JUMPI PUSH0 DUP1 REVERT JUMPDEST PUSH0 CALLDATALOAD PUSH1 0xE0 SHR SWAP1 DUP2 PUSH4 0x1B4597D EQ PUSH2 0x1F96 JUMPI POP DUP1 PUSH4 0x1FFC9A7 EQ PUSH2 0x1F2B JUMPI DUP1 PUSH4 0x6FDDE03 EQ PUSH2 0x1E64 JUMPI DUP1 PUSH4 0x81812FC EQ PUSH2 0x1E45 JUMPI DUP1 PUSH4 0x95EA7B3 EQ PUSH2 0x1CD7 JUMPI DUP1 PUSH4 0xCE1A02F EQ PUSH2 0x1CBD JUMPI DUP1 PUSH4 0x1CC6A906 EQ PUSH2 0x1C1C JUMPI DUP1 PUSH4 0x23B872DD EQ PUSH2 0x1C99 JUMPI DUP1 PUSH4 0x38E21CCE EQ PUSH2 0x1C54 JUMPI DUP1 PUSH4 0x42842E0E EQ PUSH2 0x1C21 JUMPI DUP1 PUSH4 0x4304F9A6 EQ PUSH2 0x1C1C JUMPI DUP1 PUSH4 0x52163337 EQ PUSH2 0x1A66 JUMPI DUP1 PUSH4 0x59E0C9BE EQ PUSH2 0x1A4B JUMPI DUP1 PUSH4 0x6352211E EQ PUSH2 0x1A1B JUMPI DUP1 PUSH4 0x6B3CE2F1 EQ PUSH2 0x19BF JUMPI DUP1 PUSH4 0x70A08231 EQ PUSH2 0x192B JUMPI DUP1 PUSH4 0x715018A6 EQ PUSH2 0x18D0 JUMPI DUP1 PUSH4 0x7206ABBD EQ PUSH2 0x1683 JUMPI DUP1 PUSH4 0x75794A3C EQ PUSH2 0x1665 JUMPI DUP1 PUSH4 0x8530A3BF EQ PUSH2 0x163A JUMPI DUP1 PUSH4 0x8DA5CB5B EQ PUSH2 0x1612 JUMPI DUP1 PUSH4 0x95D89B41 EQ PUSH2 0x1511 JUMPI DUP1 PUSH4 0x9EF94994 EQ PUSH2 0x14F6 JUMPI DUP1 PUSH4 0xA22CB465 EQ PUSH2 0x142C JUMPI DUP1 PUSH4 0xB88D4FDE EQ PUSH2 0x137F JUMPI DUP1 PUSH4 0xBF68F848 EQ PUSH2 0x1364 JUMPI DUP1 PUSH4 0xC87B56DD EQ PUSH2 0x275 JUMPI DUP1 PUSH4 0xE985E9C5 EQ PUSH2 0x227 JUMPI PUSH4 0xF2FDE38B EQ PUSH2 0x15F JUMPI PUSH0 DUP1 REVERT JUMPDEST CALLVALUE PUSH2 0x223 JUMPI PUSH1 0x20 CALLDATASIZE PUSH1 0x3 NOT ADD SLT PUSH2 0x223 JUMPI PUSH2 0x178 PUSH2 0x1FE4 JUMP JUMPDEST SWAP1 PUSH2 0x181 PUSH2 0x24B6 JUMP JUMPDEST PUSH1 0x1 PUSH1 0x1 PUSH1 0xA0 SHL SUB SWAP2 DUP3 AND SWAP3 DUP4 ISZERO PUSH2 0x1D1 JUMPI POP POP PUSH1 0x6 SLOAD DUP3 PUSH1 0x1 PUSH1 0x1 PUSH1 0x60 SHL SUB PUSH1 0xA0 SHL DUP3 AND OR PUSH1 0x6 SSTORE AND PUSH32 0x8BE0079C531659141344CD1FD0A4F28419497F9722A3DAAFE3B4186F6B6457E0 PUSH0 DUP1 LOG3 STOP JUMPDEST SWAP1 PUSH1 0x20 PUSH1 0x84 SWAP3 MLOAD SWAP2 PUSH3 0x461BCD PUSH1 0xE5 SHL DUP4 MSTORE DUP3 ADD MSTORE PUSH1 0x26 PUSH1 0x24 DUP3 ADD MSTORE PUSH32 0x4F776E61626C653A206E6577206F776E657220697320746865207A65726F2061 PUSH1 0x44 DUP3 ADD MSTORE PUSH6 0x646472657373 PUSH1 0xD0 SHL PUSH1 0x64 DUP3 ADD MSTORE REVERT JUMPDEST PUSH0 DUP1 REVERT JUMPDEST DUP3 CALLVALUE PUSH2 0x223 JUMPI DUP1 PUSH1 0x3 NOT CALLDATASIZE ADD SLT PUSH2 0x223 JUMPI PUSH1 0x20 SWAP1 PUSH2 0x243 PUSH2 0x1FE4 JUMP JUMPDEST PUSH2 0x24B PUSH2 0x1FFA JUMP JUMPDEST SWAP1 PUSH1 0x1 DUP1 PUSH1 0xA0 SHL SUB DUP1 SWAP2 AND PUSH0 MSTORE PUSH1 0x5 DUP5 MSTORE DUP3 PUSH0 KECCAK256 SWAP2 AND PUSH0 MSTORE DUP3 MSTORE PUSH1 0xFF DUP2 PUSH0 KECCAK256 SLOAD AND SWAP1 MLOAD SWAP1 ISZERO ISZERO DUP2 MSTORE RETURN JUMPDEST POP CALLVALUE PUSH2 0x223 JUMPI PUSH1 0x20 SWAP1 DUP2 PUSH1 0x3 NOT CALLDATASIZE ADD SLT PUSH2 0x223 JUMPI DUP1 CALLDATALOAD PUSH0 DUP2 DUP2 MSTORE PUSH1 0x2 DUP5 MSTORE DUP5 SWAP1 KECCAK256 SLOAD SWAP1 SWAP2 SWAP1 PUSH2 0x2AE SWAP1 PUSH1 0x1 PUSH1 0x1 PUSH1 0xA0 SHL SUB AND ISZERO ISZERO PUSH2 0x2216 JUMP JUMPDEST DUP2 PUSH0 MSTORE PUSH1 0x9 DUP4 MSTORE DUP4 PUSH0 KECCAK256 SLOAD PUSH1 0xFF AND PUSH2 0x2C5 DUP2 PUSH2 0x2585 JUMP JUMPDEST SWAP1 PUSH2 0x2CF DUP2 PUSH2 0x267D JUMP JUMPDEST SWAP3 DUP7 DUP7 PUSH2 0x2DB DUP5 PUSH2 0x2777 JUMP JUMPDEST SWAP4 PUSH2 0x2E5 DUP2 PUSH2 0x2D66 JUMP JUMPDEST PUSH2 0x2EE DUP3 PUSH2 0x2D66 JUMP JUMPDEST PUSH2 0x2F7 DUP4 PUSH2 0x2DA2 JUMP JUMPDEST PUSH2 0x300 DUP5 PUSH2 0x2DBC JUMP JUMPDEST SWAP1 DUP6 PUSH2 0x30B DUP7 PUSH2 0x2DA2 JUMP JUMPDEST SWAP5 PUSH2 0x315 DUP8 PUSH2 0x2DA2 JUMP JUMPDEST PUSH2 0x31E DUP9 PUSH2 0x2E06 JUMP JUMPDEST SWAP7 PUSH2 0x328 DUP10 PUSH2 0x2EE1 JUMP JUMPDEST SWAP6 PUSH2 0x332 DUP11 PUSH2 0x2FE8 JUMP JUMPDEST SWAP6 PUSH2 0x33C DUP12 PUSH2 0x303F JUMP JUMPDEST SWAP11 PUSH2 0x346 SWAP1 PUSH2 0x317A JUMP JUMPDEST SWAP9 DUP14 MLOAD SWAP14 DUP15 SWAP14 DUP15 ADD PUSH32 0x3C7376672077696474683D223132303022206865696768743D22313230302220 SWAP1 MSTORE DUP14 ADD PUSH32 0x76696577426F783D2230203020313230302031323030222066696C6C3D226E6F SWAP1 MSTORE PUSH1 0x60 DUP14 ADD PUSH32 0x6E652220786D6C6E733D22687474703A2F2F7777772E77332E6F72672F323030 SWAP1 MSTORE DUP13 PUSH7 0x1817B9BB33911F PUSH1 0xC9 SHL SWAP1 PUSH1 0x80 ADD MSTORE PUSH1 0x87 DUP14 ADD PUSH32 0x3C646566733E3C6C696E6561724772616469656E742069643D22626722207831 SWAP1 MSTORE PUSH1 0xA7 DUP14 ADD PUSH32 0x3D223634222079313D223430222078323D2231313034222079323D2231313436 SWAP1 MSTORE PUSH1 0xC7 DUP14 ADD PUSH32 0x22206772616469656E74556E6974733D227573657253706163654F6E55736522 SWAP1 MSTORE PUSH1 0xE7 DUP14 ADD PUSH32 0x3E3C73746F702073746F702D636F6C6F723D2223324134333145222F3E3C7374 SWAP1 MSTORE PUSH2 0x107 DUP14 ADD PUSH32 0x6F70206F66667365743D22302E3335222073746F702D636F6C6F723D22233045 SWAP1 MSTORE PUSH2 0x127 DUP14 ADD PUSH32 0x31373232222F3E3C73746F70206F66667365743D2231222073746F702D636F6C SWAP1 MSTORE PUSH2 0x147 DUP14 ADD PUSH32 0x6F723D2223313733413346222F3E3C2F6C696E6561724772616469656E743E00 SWAP1 MSTORE PUSH2 0x166 DUP14 ADD PUSH32 0x3C72616469616C4772616469656E742069643D22676C6F77222063783D223022 SWAP1 MSTORE PUSH2 0x186 DUP14 ADD PUSH32 0x2063793D22302220723D223122206772616469656E74556E6974733D22757365 SWAP1 MSTORE PUSH2 0x1A6 DUP14 ADD PUSH32 0x7253706163654F6E55736522206772616469656E745472616E73666F726D3D22 SWAP1 MSTORE PUSH2 0x1C6 DUP14 ADD PUSH32 0x7472616E736C61746528323230203231302920726F7461746528343729207363 SWAP1 MSTORE PUSH2 0x1E6 DUP14 ADD PUSH32 0x616C65283336302033363029223E3C73746F702073746F702D636F6C6F723D22 SWAP1 MSTORE DUP13 PUSH2 0x206 SWAP7 DUP8 SWAP2 DUP10 DUP3 MLOAD SWAP4 DUP5 SWAP3 ADD SWAP3 ADD SWAP2 PUSH2 0x5C4 SWAP3 PUSH2 0x2020 JUMP JUMPDEST PUSH32 0x222073746F702D6F7061636974793D22302E35222F3E3C73746F70206F666673 SWAP1 DUP15 ADD SWAP7 DUP8 ADD MSTORE PUSH19 0x32BA1E9118911039BA37B816B1B7B637B91E91 PUSH1 0x69 SHL PUSH2 0x226 DUP8 ADD MSTORE DUP1 MLOAD PUSH2 0x239 SWAP7 SWAP1 SWAP2 PUSH2 0x622 SWAP1 DUP4 SWAP1 DUP10 DUP5 ADD SWAP1 DUP12 ADD PUSH2 0x2020 JUMP JUMPDEST PUSH32 0x222073746F702D6F7061636974793D2230222F3E3C2F72616469616C47726164 SWAP2 ADD SWAP6 DUP7 ADD MSTORE PUSH5 0x34B2B73A1F PUSH1 0xD9 SHL PUSH2 0x259 DUP7 ADD MSTORE PUSH32 0x3C6C696E6561724772616469656E742069643D2265646765222078313D223936 PUSH2 0x25E DUP7 ADD MSTORE PUSH32 0x222079313D223936222078323D2231313034222079323D223131303422206772 PUSH2 0x27E DUP7 ADD MSTORE PUSH32 0x616469656E74556E6974733D227573657253706163654F6E557365223E3C7374 PUSH2 0x29E DUP7 ADD MSTORE PUSH15 0x37B81039BA37B816B1B7B637B91E91 PUSH1 0x89 SHL PUSH2 0x2BE DUP7 ADD MSTORE DUP1 MLOAD PUSH2 0x2CD SWAP6 SWAP1 SWAP2 PUSH2 0x6FF SWAP1 DUP4 SWAP1 DUP9 DUP5 ADD SWAP1 DUP11 ADD PUSH2 0x2020 JUMP JUMPDEST PUSH32 0x222073746F702D6F7061636974793D22302E3238222F3E3C73746F70206F6666 SWAP2 ADD SWAP5 DUP6 ADD MSTORE PUSH20 0x39B2BA1E9118911039BA37B816B1B7B637B91E91 PUSH1 0x61 SHL PUSH2 0x2ED DUP6 ADD MSTORE DUP1 MLOAD PUSH2 0x301 SWAP5 SWAP1 SWAP2 PUSH2 0x75D SWAP1 DUP4 SWAP1 DUP8 DUP5 ADD SWAP1 DUP10 ADD PUSH2 0x2020 JUMP JUMPDEST PUSH32 0x222073746F702D6F7061636974793D22302E3136222F3E3C2F6C696E65617247 SWAP2 ADD SWAP4 DUP5 ADD MSTORE PUSH15 0x3930B234B2B73A1F1E17B232B3399F PUSH1 0x89 SHL PUSH2 0x321 DUP5 ADD MSTORE PUSH32 0x3C726563742077696474683D223132303022206865696768743D223132303022 PUSH2 0x330 DUP5 ADD MSTORE PUSH32 0x2072783D223732222066696C6C3D2223304331333230222F3E3C726563742078 PUSH2 0x350 DUP5 ADD MSTORE PUSH32 0x3D2235322220793D223532222077696474683D22313039362220686569676874 PUSH2 0x370 DUP5 ADD MSTORE PUSH32 0x3D2231303936222072783D223438222066696C6C3D2275726C28236267292220 PUSH2 0x390 DUP5 ADD MSTORE PUSH32 0x7374726F6B653D2275726C2823656467652922207374726F6B652D7769647468 PUSH2 0x3B0 DUP5 ADD MSTORE PUSH6 0x1E911911179F PUSH1 0xD1 SHL PUSH2 0x3D0 DUP5 ADD MSTORE PUSH32 0x3C636972636C652063783D22323230222063793D223231302220723D22333230 PUSH2 0x3D6 DUP5 ADD MSTORE PUSH21 0x11103334B6361E913AB9361411B3B637BB9491179F PUSH1 0x59 SHL PUSH2 0x3F6 DUP5 ADD MSTORE PUSH32 0x3C67206F7061636974793D22302E3122207374726F6B653D2223384541304237 PUSH2 0x40B DUP5 ADD MSTORE PUSH32 0x223E3C7061746820643D224D31323020305631323030222F3E3C706174682064 PUSH2 0x42B DUP5 ADD MSTORE PUSH32 0x3D224D32343020305631323030222F3E3C7061746820643D224D333630203056 PUSH2 0x44B DUP5 ADD MSTORE PUSH32 0x31323030222F3E3C7061746820643D224D34383020305631323030222F3E3C70 PUSH2 0x46B DUP5 ADD MSTORE PUSH32 0x61746820643D224D36303020305631323030222F3E3C7061746820643D224D37 PUSH2 0x48B DUP5 ADD MSTORE PUSH32 0x323020305631323030222F3E3C7061746820643D224D38343020305631323030 PUSH2 0x4AB DUP5 ADD MSTORE PUSH32 0x222F3E3C7061746820643D224D39363020305631323030222F3E3C7061746820 PUSH2 0x4CB DUP5 ADD MSTORE PUSH32 0x643D224D3130383020305631323030222F3E3C7061746820643D224D30203132 PUSH2 0x4EB DUP5 ADD MSTORE PUSH32 0x304831323030222F3E3C7061746820643D224D30203234304831323030222F3E PUSH2 0x50B DUP5 ADD MSTORE PUSH32 0x3C7061746820643D224D30203336304831323030222F3E3C7061746820643D22 PUSH2 0x52B DUP5 ADD MSTORE PUSH32 0x4D30203438304831323030222F3E3C7061746820643D224D3020363030483132 PUSH2 0x54B DUP5 ADD MSTORE PUSH32 0x3030222F3E3C7061746820643D224D30203732304831323030222F3E3C706174 PUSH2 0x56B DUP5 ADD MSTORE PUSH32 0x6820643D224D30203834304831323030222F3E3C7061746820643D224D302039 PUSH2 0x58B DUP5 ADD MSTORE PUSH32 0x36304831323030222F3E3C7061746820643D224D302031303830483132303022 PUSH2 0x5AB DUP5 ADD MSTORE PUSH6 0x179F1E17B39F PUSH1 0xD1 SHL PUSH2 0x5CB DUP5 ADD MSTORE PUSH32 0x3C636972636C652063783D22313232222063793D223132322220723D22313622 PUSH2 0x5D1 DUP5 ADD MSTORE PUSH7 0x103334B6361E91 PUSH1 0xC9 SHL PUSH2 0x5F1 DUP5 ADD MSTORE DUP1 MLOAD PUSH2 0x5F8 SWAP4 SWAP1 SWAP2 PUSH2 0xB39 SWAP1 DUP4 SWAP1 DUP7 DUP5 ADD SWAP1 DUP9 ADD PUSH2 0x2020 JUMP JUMPDEST ADD SWAP2 DUP3 ADD PUSH32 0x222F3E3C7465787420783D223135342220793D22313332222066696C6C3D2200 SWAP1 MSTORE PUSH2 0x617 SWAP2 DUP2 MLOAD SWAP2 DUP3 DUP6 DUP6 DUP5 ADD SWAP3 ADD SWAP2 PUSH2 0xB78 SWAP3 PUSH2 0x2020 JUMP JUMPDEST PUSH32 0x2220666F6E742D73697A653D2232342220666F6E742D7765696768743D223830 SWAP2 ADD SWAP2 DUP3 ADD MSTORE PUSH32 0x302220666F6E742D66616D696C793D22417269616C2C2073616E732D73657269 PUSH2 0x637 DUP3 ADD MSTORE PUSH22 0x3311103632BA3A32B916B9B830B1B4B7339E9119111F PUSH1 0x51 SHL PUSH2 0x657 DUP3 ADD MSTORE DUP6 MLOAD PUSH2 0x66D SWAP7 SWAP1 SWAP3 PUSH2 0xBFE SWAP2 DUP5 SWAP2 DUP10 DUP6 ADD SWAP2 ADD PUSH2 0x2020 JUMP JUMPDEST ADD SWAP4 DUP14 PUSH7 0x1E17BA32BC3A1F PUSH1 0xC9 SHL SWAP6 DUP7 DUP1 SWAP4 DUP3 ADD MSTORE PUSH2 0x674 DUP2 ADD PUSH32 0x3C7465787420783D223131302220793D22343730222066696C6C3D2223463446 SWAP1 MSTORE PUSH32 0x3746422220666F6E742D73697A653D2236382220666F6E742D7765696768743D DUP1 PUSH2 0x694 DUP4 ADD MSTORE PUSH32 0x223930302220666F6E742D66616D696C793D22417269616C2C2073616E732D73 SWAP1 DUP2 PUSH2 0x6B4 DUP5 ADD MSTORE DUP5 PUSH6 0x32B934B3111F PUSH1 0xD1 SHL SWAP8 DUP9 PUSH2 0x6D4 DUP7 ADD MSTORE PUSH2 0x6DA SWAP5 DUP2 MLOAD SWAP2 DUP3 DUP9 DUP9 DUP5 ADD SWAP3 ADD SWAP2 PUSH2 0xCB7 SWAP3 PUSH2 0x2020 JUMP JUMPDEST ADD SWAP4 DUP5 ADD MSTORE PUSH2 0x6E1 DUP4 ADD PUSH32 0x3C7465787420783D223131302220793D22353438222066696C6C3D2223463446 SWAP1 MSTORE PUSH2 0x701 DUP4 ADD MSTORE PUSH2 0x721 DUP3 ADD MSTORE DUP5 PUSH2 0x741 DUP3 ADD MSTORE PUSH2 0x747 SWAP4 DUP1 MLOAD DUP1 SWAP4 DUP7 DUP5 ADD SWAP3 ADD SWAP2 PUSH2 0xD0E SWAP3 PUSH2 0x2020 JUMP JUMPDEST ADD SWAP2 DUP3 ADD MSTORE PUSH2 0x74E DUP2 ADD PUSH32 0x3C7465787420783D223131302220793D22363534222066696C6C3D2223394642 SWAP1 MSTORE DUP13 DUP5 PUSH32 0x3043342220666F6E742D73697A653D2232382220666F6E742D7765696768743D SWAP2 DUP3 PUSH2 0x76E DUP6 ADD MSTORE PUSH32 0x223530302220666F6E742D66616D696C793D22417269616C2C2073616E732D73 SWAP4 DUP5 PUSH2 0x78E DUP3 ADD MSTORE DUP6 PUSH2 0x7AE DUP3 ADD MSTORE PUSH2 0x7B4 SWAP9 DUP1 MLOAD DUP1 SWAP4 DUP12 DUP5 ADD SWAP3 ADD SWAP2 PUSH2 0xDAD SWAP3 PUSH2 0x2020 JUMP JUMPDEST ADD SWAP7 DUP8 ADD MSTORE PUSH2 0x7BB DUP7 ADD PUSH32 0x3C7465787420783D223131302220793D22363936222066696C6C3D2223394642 SWAP1 MSTORE PUSH2 0x7DB DUP7 ADD MSTORE PUSH2 0x7FB DUP6 ADD MSTORE PUSH2 0x81B DUP5 ADD MSTORE PUSH2 0x821 SWAP3 DUP2 MLOAD SWAP2 DUP3 DUP14 DUP7 DUP5 ADD SWAP3 ADD SWAP2 PUSH2 0xE04 SWAP3 PUSH2 0x2020 JUMP JUMPDEST ADD SWAP2 DUP3 ADD MSTORE PUSH32 0x3C7265637420783D223131302220793D22383436222077696474683D22313838 PUSH2 0x828 DUP3 ADD MSTORE PUSH32 0x22206865696768743D223538222072783D223239222066696C6C3D2272676261 PUSH2 0x848 DUP3 ADD MSTORE PUSH32 0x2831302C31382C32382C302E36322922207374726F6B653D2272676261283235 PUSH2 0x868 DUP3 ADD MSTORE PUSH32 0x352C3235352C3235352C302E313229222F3E3C7465787420783D223134322220 PUSH2 0x888 DUP3 ADD MSTORE PUSH32 0x793D22383833222066696C6C3D22234634463746422220666F6E742D73697A65 PUSH2 0x8A8 DUP3 ADD MSTORE PUSH32 0x3D2232322220666F6E742D7765696768743D223730302220666F6E742D66616D PUSH2 0x8C8 DUP3 ADD MSTORE PUSH32 0x696C793D22417269616C2C2073616E732D7365726966223E5365706F6C696120 PUSH2 0x8E8 DUP3 ADD MSTORE PUSH12 0x28BAB2B9BA1E17BA32BC3A1F PUSH1 0xA1 SHL PUSH2 0x908 DUP3 ADD MSTORE PUSH6 0x1E17B9BB339F PUSH1 0xD1 SHL PUSH2 0x914 DUP3 ADD MSTORE SUB PUSH2 0x8FA DUP2 ADD DUP3 MSTORE PUSH2 0xF56 SWAP1 PUSH2 0x91A ADD DUP3 PUSH2 0x213A JUMP JUMPDEST PUSH2 0xF5F SWAP1 PUSH2 0x29DC JUMP JUMPDEST SWAP2 DUP7 DUP9 DUP1 MLOAD SWAP4 DUP5 DUP4 DUP2 ADD SWAP7 PUSH32 0x646174613A696D6167652F7376672B786D6C3B6261736536342C000000000000 DUP9 MSTORE DUP1 MLOAD SWAP1 DUP2 DUP7 PUSH1 0x3A DUP6 ADD SWAP3 ADD SWAP2 PUSH2 0xFA2 SWAP3 PUSH2 0x2020 JUMP JUMPDEST DUP2 ADD SUB PUSH1 0x1A DUP2 ADD DUP7 MSTORE PUSH1 0x3A ADD PUSH2 0xFB8 SWAP1 DUP7 PUSH2 0x213A JUMP JUMPDEST DUP9 DUP10 SWAP2 PUSH0 SWAP11 PUSH27 0x184F03E93FF9F4DAA797ED6E38ED64BF6A1F010000000000000000 SWAP1 DUP2 DUP2 LT ISZERO PUSH2 0x1355 JUMPI JUMPDEST POP POP PUSH14 0x4EE2D6D415B85ACEF8100000000 DUP1 DUP5 LT ISZERO PUSH2 0x1347 JUMPI JUMPDEST POP PUSH7 0x2386F26FC10000 DUP1 DUP5 LT ISZERO PUSH2 0x1338 JUMPI JUMPDEST POP PUSH4 0x5F5E100 DUP1 DUP5 LT ISZERO PUSH2 0x1329 JUMPI JUMPDEST POP PUSH2 0x2710 DUP1 DUP5 LT ISZERO PUSH2 0x131B JUMPI JUMPDEST POP POP PUSH1 0x64 DUP3 LT ISZERO PUSH2 0x130B JUMPI JUMPDEST PUSH1 0xA DUP1 SWAP3 LT ISZERO PUSH2 0x1301 JUMPI JUMPDEST PUSH1 0x1 SWAP1 DUP2 PUSH1 0x21 PUSH2 0x1053 DUP14 DUP4 ADD PUSH2 0x29AA JUMP JUMPDEST SWAP13 DUP14 ADD ADD SWAP1 JUMPDEST PUSH2 0x12CC JUMPI JUMPDEST POP POP POP POP SWAP5 PUSH2 0x1263 SWAP5 PUSH2 0x135 SWAP5 PUSH2 0x10F5 PUSH2 0x1268 SWAP10 SWAP6 PUSH2 0x12C8 SWAP12 SWAP6 PUSH2 0x10D2 PUSH1 0x29 PUSH2 0x10A5 SWAP13 MLOAD SWAP13 DUP14 DUP1 SWAP12 PUSH9 0x3D913730B6B2911D11 PUSH1 0xB9 SHL DUP7 DUP4 ADD MSTORE DUP6 DUP2 MLOAD SWAP5 DUP6 SWAP4 ADD SWAP2 ADD PUSH2 0x2020 JUMP JUMPDEST DUP10 ADD SWAP2 PUSH17 0x1116113232B9B1B934B83A34B7B7111D11 PUSH1 0x79 SHL PUSH1 0x29 DUP5 ADD MSTORE DUP4 MLOAD SWAP4 DUP5 SWAP2 PUSH1 0x3A DUP6 ADD SWAP2 ADD PUSH2 0x2020 JUMP JUMPDEST ADD SWAP2 PUSH11 0x11161134B6B0B3B2911D11 PUSH1 0xA9 SHL PUSH1 0x3A DUP5 ADD MSTORE MLOAD DUP1 SWAP4 PUSH1 0x45 DUP5 ADD SWAP1 PUSH2 0x2020 JUMP JUMPDEST ADD PUSH32 0x222C2261747472696275746573223A5B7B2274726169745F74797065223A2243 PUSH1 0x45 DUP3 ADD MSTORE PUSH32 0x616D706169676E222C2276616C7565223A224D53582047756964656420496E76 PUSH1 0x65 DUP3 ADD MSTORE PUSH32 0x657374696E6720487562227D2C7B2274726169745F74797065223A224E657477 PUSH1 0x85 DUP3 ADD MSTORE PUSH32 0x6F726B222C2276616C7565223A225365706F6C6961227D2C7B2274726169745F PUSH1 0xA5 DUP3 ADD MSTORE PUSH32 0x74797065223A2242616467652054797065222C2276616C7565223A2200000000 PUSH1 0xC5 DUP3 ADD MSTORE PUSH2 0x11C7 DUP3 MLOAD DUP1 SWAP4 DUP13 PUSH1 0xE1 DUP6 ADD SWAP2 ADD PUSH2 0x2020 JUMP JUMPDEST ADD SWAP1 PUSH32 0x227D2C7B2274726169745F74797065223A22537461747573222C2276616C7565 PUSH1 0xE1 DUP4 ADD MSTORE PUSH32 0x223A22556E6C6F636B6564227D2C7B2274726169745F74797065223A22546F6B PUSH2 0x101 DUP4 ADD MSTORE PUSH16 0x32B71024A21116113B30B63AB2911D11 PUSH1 0x81 SHL PUSH2 0x121 DUP4 ADD MSTORE PUSH2 0x131 SWAP2 PUSH2 0x1246 DUP3 MLOAD DUP1 SWAP4 DUP13 DUP7 DUP6 ADD SWAP2 ADD PUSH2 0x2020 JUMP JUMPDEST ADD SWAP1 PUSH4 0x227D5D7D PUSH1 0xE0 SHL SWAP1 DUP3 ADD MSTORE SUB PUSH2 0x115 DUP2 ADD DUP5 MSTORE ADD DUP3 PUSH2 0x213A JUMP JUMPDEST PUSH2 0x29DC JUMP JUMPDEST SWAP3 PUSH2 0x12B9 PUSH1 0x3D DUP3 MLOAD DUP1 SWAP7 PUSH32 0x646174613A6170706C69636174696F6E2F6A736F6E3B6261736536342C000000 DUP8 DUP4 ADD MSTORE PUSH2 0x12A9 DUP2 MLOAD DUP1 SWAP3 DUP10 DUP7 DUP7 ADD SWAP2 ADD PUSH2 0x2020 JUMP JUMPDEST DUP2 ADD SUB PUSH1 0x1D DUP2 ADD DUP8 MSTORE ADD DUP6 PUSH2 0x213A JUMP JUMPDEST MLOAD SWAP3 DUP3 DUP5 SWAP4 DUP5 MSTORE DUP4 ADD SWAP1 PUSH2 0x2041 JUMP JUMPDEST SUB SWAP1 RETURN JUMPDEST PUSH0 NOT ADD SWAP1 DUP4 SWAP1 PUSH16 0x181899199A1A9B1B9C1CB0B131B232B3 PUSH1 0x81 SHL DUP3 DUP3 MOD BYTE DUP4 MSTORE8 DIV SWAP2 DUP3 ISZERO PUSH2 0x12FC JUMPI SWAP2 SWAP1 DUP3 PUSH2 0x1059 JUMP JUMPDEST PUSH2 0x105E JUMP JUMPDEST SWAP9 PUSH1 0x1 ADD SWAP9 PUSH2 0x1042 JUMP JUMPDEST SWAP9 SWAP1 PUSH1 0x64 PUSH1 0x2 SWAP2 DIV SWAP2 ADD SWAP9 PUSH2 0x1037 JUMP JUMPDEST SWAP11 ADD SWAP10 SWAP1 SWAP2 DIV SWAP1 PUSH0 DUP1 PUSH2 0x102B JUMP JUMPDEST PUSH1 0x8 SWAP2 SWAP12 SWAP4 DIV SWAP3 ADD SWAP10 PUSH0 PUSH2 0x101E JUMP JUMPDEST PUSH1 0x10 SWAP2 SWAP12 SWAP4 DIV SWAP3 ADD SWAP10 PUSH0 PUSH2 0x100F JUMP JUMPDEST DUP6 SWAP2 SWAP12 SWAP4 DIV SWAP3 ADD SWAP10 PUSH0 PUSH2 0xFFD JUMP JUMPDEST SWAP5 SWAP12 POP DUP12 SWAP5 DIV SWAP3 POP PUSH0 DUP1 PUSH2 0xFE3 JUMP JUMPDEST DUP3 CALLVALUE PUSH2 0x223 JUMPI PUSH0 CALLDATASIZE PUSH1 0x3 NOT ADD SLT PUSH2 0x223 JUMPI PUSH1 0x20 SWAP1 MLOAD PUSH1 0x1 DUP2 MSTORE RETURN JUMPDEST POP CALLVALUE PUSH2 0x223 JUMPI PUSH1 0x80 CALLDATASIZE PUSH1 0x3 NOT ADD SLT PUSH2 0x223 JUMPI PUSH2 0x1399 PUSH2 0x1FE4 JUMP JUMPDEST SWAP2 PUSH2 0x13A2 PUSH2 0x1FFA JUMP JUMPDEST PUSH1 0x44 CALLDATALOAD SWAP1 PUSH1 0x64 CALLDATALOAD SWAP4 PUSH8 0xFFFFFFFFFFFFFFFF DUP6 GT PUSH2 0x223 JUMPI CALLDATASIZE PUSH1 0x23 DUP7 ADD SLT ISZERO PUSH2 0x223 JUMPI DUP5 ADD CALLDATALOAD SWAP5 PUSH2 0x13DD PUSH2 0x13D4 DUP8 PUSH2 0x215C JUMP JUMPDEST SWAP5 MLOAD SWAP5 DUP6 PUSH2 0x213A JUMP JUMPDEST DUP6 DUP5 MSTORE CALLDATASIZE PUSH1 0x24 DUP8 DUP8 ADD ADD GT PUSH2 0x223 JUMPI PUSH0 PUSH1 0x20 DUP8 PUSH2 0x142A SWAP9 PUSH1 0x24 PUSH2 0x1425 SWAP10 ADD DUP4 DUP10 ADD CALLDATACOPY DUP7 ADD ADD MSTORE PUSH2 0x1415 PUSH2 0x1410 DUP5 CALLER PUSH2 0x22C8 JUMP JUMPDEST PUSH2 0x21B4 JUMP JUMPDEST PUSH2 0x1420 DUP4 DUP4 DUP4 PUSH2 0x238C JUMP JUMPDEST PUSH2 0x2C56 JUMP JUMPDEST PUSH2 0x2561 JUMP JUMPDEST STOP JUMPDEST POP SWAP1 CALLVALUE PUSH2 0x223 JUMPI DUP1 PUSH1 0x3 NOT CALLDATASIZE ADD SLT PUSH2 0x223 JUMPI PUSH2 0x1446 PUSH2 0x1FE4 JUMP JUMPDEST SWAP1 PUSH1 0x24 CALLDATALOAD SWAP2 DUP3 ISZERO ISZERO DUP1 SWAP4 SUB PUSH2 0x223 JUMPI PUSH1 0x1 PUSH1 0x1 PUSH1 0xA0 SHL SUB AND SWAP3 CALLER DUP5 EQ PUSH2 0x14B4 JUMPI POP CALLER PUSH0 MSTORE PUSH1 0x5 PUSH1 0x20 MSTORE DUP1 PUSH0 KECCAK256 DUP4 PUSH0 MSTORE PUSH1 0x20 MSTORE DUP1 PUSH0 KECCAK256 PUSH1 0xFF NOT DUP2 SLOAD AND PUSH1 0xFF DUP5 AND OR SWAP1 SSTORE MLOAD SWAP1 DUP2 MSTORE PUSH32 0x17307EAB39AB6107E8899845AD3D59BD9653F200F220920489CA2B5937696C31 PUSH1 0x20 CALLER SWAP3 LOG3 STOP JUMPDEST PUSH1 0x20 PUSH1 0x64 SWAP3 MLOAD SWAP2 PUSH3 0x461BCD PUSH1 0xE5 SHL DUP4 MSTORE DUP3 ADD MSTORE PUSH1 0x19 PUSH1 0x24 DUP3 ADD MSTORE PUSH32 0x4552433732313A20617070726F766520746F2063616C6C657200000000000000 PUSH1 0x44 DUP3 ADD MSTORE REVERT JUMPDEST DUP3 CALLVALUE PUSH2 0x223 JUMPI PUSH0 CALLDATASIZE PUSH1 0x3 NOT ADD SLT PUSH2 0x223 JUMPI PUSH1 0x20 SWAP1 MLOAD PUSH1 0x2 DUP2 MSTORE RETURN JUMPDEST POP SWAP1 CALLVALUE PUSH2 0x223 JUMPI PUSH0 CALLDATASIZE PUSH1 0x3 NOT ADD SLT PUSH2 0x223 JUMPI DUP1 MLOAD SWAP1 PUSH0 SWAP1 PUSH1 0x1 SWAP2 PUSH1 0x1 SLOAD SWAP3 DUP4 PUSH1 0x1 SHR SWAP1 PUSH1 0x1 DUP6 AND SWAP5 DUP6 ISZERO PUSH2 0x1608 JUMPI JUMPDEST PUSH1 0x20 SWAP6 DUP7 DUP5 LT DUP2 EQ PUSH2 0x15F5 JUMPI DUP4 DUP9 MSTORE DUP8 SWAP5 SWAP4 SWAP3 SWAP2 DUP8 SWAP1 DUP3 ISZERO PUSH2 0x15D3 JUMPI POP POP PUSH1 0x1 EQ PUSH2 0x1578 JUMPI JUMPDEST POP POP PUSH2 0x12C8 SWAP3 SWAP2 PUSH2 0x12B9 SWAP2 SUB DUP6 PUSH2 0x213A JUMP JUMPDEST SWAP1 DUP6 SWAP3 POP PUSH1 0x1 PUSH0 MSTORE PUSH32 0xB10E2D527612073B26EECDFD717E6A320CF44B4AFAC2B0732D9FCBE2B7FA0CF6 SWAP2 PUSH0 SWAP3 JUMPDEST DUP3 DUP5 LT PUSH2 0x15BB JUMPI POP POP POP DUP3 ADD ADD DUP2 PUSH2 0x12B9 PUSH2 0x1566 JUMP JUMPDEST DUP1 SLOAD DUP5 DUP11 ADD DUP7 ADD MSTORE DUP9 SWAP6 POP DUP8 SWAP5 SWAP1 SWAP4 ADD SWAP3 DUP2 ADD PUSH2 0x15A5 JUMP JUMPDEST PUSH1 0xFF NOT AND DUP7 DUP3 ADD MSTORE SWAP3 ISZERO ISZERO PUSH1 0x5 SHL DUP6 ADD SWAP1 SWAP3 ADD SWAP3 POP DUP4 SWAP2 POP PUSH2 0x12B9 SWAP1 POP PUSH2 0x1566 JUMP JUMPDEST PUSH1 0x22 DUP10 PUSH4 0x4E487B71 PUSH1 0xE0 SHL PUSH0 MSTORE MSTORE PUSH1 0x24 PUSH0 REVERT JUMPDEST SWAP2 PUSH1 0x7F AND SWAP2 PUSH2 0x1540 JUMP JUMPDEST DUP3 CALLVALUE PUSH2 0x223 JUMPI PUSH0 CALLDATASIZE PUSH1 0x3 NOT ADD SLT PUSH2 0x223 JUMPI PUSH1 0x6 SLOAD SWAP1 MLOAD PUSH1 0x1 PUSH1 0x1 PUSH1 0xA0 SHL SUB SWAP1 SWAP2 AND DUP2 MSTORE PUSH1 0x20 SWAP1 RETURN JUMPDEST POP SWAP1 CALLVALUE PUSH2 0x223 JUMPI PUSH1 0x20 CALLDATASIZE PUSH1 0x3 NOT ADD SLT PUSH2 0x223 JUMPI PUSH1 0x20 SWAP2 CALLDATALOAD PUSH0 MSTORE PUSH1 0x9 DUP3 MSTORE PUSH1 0xFF DUP2 PUSH0 KECCAK256 SLOAD AND SWAP1 MLOAD SWAP1 DUP2 MSTORE RETURN JUMPDEST DUP3 CALLVALUE PUSH2 0x223 JUMPI PUSH0 CALLDATASIZE PUSH1 0x3 NOT ADD SLT PUSH2 0x223 JUMPI PUSH1 0x20 SWAP1 PUSH1 0x7 SLOAD SWAP1 MLOAD SWAP1 DUP2 MSTORE RETURN JUMPDEST POP CALLVALUE PUSH2 0x223 JUMPI DUP2 PUSH1 0x3 NOT CALLDATASIZE ADD SLT PUSH2 0x223 JUMPI DUP1 CALLDATALOAD SWAP2 PUSH1 0xFF DUP4 AND DUP1 DUP5 SUB PUSH2 0x223 JUMPI PUSH2 0x16BB PUSH2 0x16B6 PUSH2 0x16B0 PUSH2 0x1FFA JUMP JUMPDEST SWAP6 PUSH2 0x249B JUMP JUMPDEST PUSH2 0x2287 JUMP JUMPDEST PUSH1 0x1 PUSH1 0x1 PUSH1 0xA0 SHL SUB DUP5 AND DUP1 ISZERO PUSH2 0x1899 JUMPI DUP1 CALLER SUB PUSH2 0x1865 JUMPI DUP1 PUSH0 MSTORE PUSH1 0x20 SWAP5 PUSH1 0x8 DUP7 MSTORE DUP4 PUSH0 KECCAK256 DUP4 PUSH0 MSTORE DUP7 MSTORE PUSH1 0xFF DUP5 PUSH0 KECCAK256 SLOAD AND PUSH2 0x182B JUMPI PUSH1 0x7 SLOAD SWAP5 PUSH1 0x1 DUP7 ADD SWAP1 DUP2 DUP8 GT PUSH2 0x1818 JUMPI POP PUSH2 0x1425 DUP7 SWAP5 SWAP4 SWAP3 PUSH2 0x17EE SWAP3 PUSH1 0x7 SSTORE DUP4 PUSH0 MSTORE PUSH1 0x8 DUP10 MSTORE DUP7 PUSH0 KECCAK256 DUP6 PUSH0 MSTORE DUP10 MSTORE DUP7 PUSH0 KECCAK256 PUSH1 0xFF NOT SWAP1 PUSH1 0x1 DUP3 DUP3 SLOAD AND OR SWAP1 SSTORE DUP7 PUSH0 MSTORE PUSH1 0x9 DUP11 MSTORE DUP6 DUP9 PUSH0 KECCAK256 SWAP2 DUP3 SLOAD AND OR SWAP1 SSTORE DUP6 DUP8 MLOAD SWAP2 PUSH2 0x174C DUP4 PUSH2 0x20B6 JUMP JUMPDEST PUSH0 DUP1 DUP5 MSTORE DUP3 DUP2 MSTORE PUSH1 0x2 PUSH1 0x20 MSTORE PUSH1 0x40 SWAP1 KECCAK256 SLOAD PUSH2 0x1773 SWAP1 PUSH1 0x1 PUSH1 0x1 PUSH1 0xA0 SHL SUB AND ISZERO ISZERO JUMPDEST ISZERO PUSH2 0x32A0 JUMP JUMPDEST PUSH0 DUP3 DUP2 MSTORE PUSH1 0x2 PUSH1 0x20 MSTORE PUSH1 0x40 SWAP1 KECCAK256 SLOAD PUSH2 0x1795 SWAP1 PUSH1 0x1 PUSH1 0x1 PUSH1 0xA0 SHL SUB AND ISZERO ISZERO PUSH2 0x176D JUMP JUMPDEST DUP6 PUSH0 MSTORE PUSH1 0x3 DUP12 MSTORE DUP9 PUSH0 KECCAK256 PUSH1 0x1 DUP2 SLOAD ADD SWAP1 SSTORE DUP2 PUSH0 MSTORE PUSH1 0x2 DUP12 MSTORE DUP9 PUSH0 KECCAK256 DUP7 PUSH1 0x1 PUSH1 0x1 PUSH1 0x60 SHL SUB PUSH1 0xA0 SHL DUP3 SLOAD AND OR SWAP1 SSTORE DUP2 DUP7 PUSH0 PUSH32 0xDDF252AD1BE2C89B69C2B068FC378DAA952BA7F163C4A11628F55A4DF523B3EF DUP2 DUP1 LOG4 PUSH2 0x2B49 JUMP JUMPDEST PUSH32 0x4C7380F1D23A71F74FA1303F23B7100826E4A89A4E47B2985E5C708E47A19B3A PUSH0 DUP1 LOG4 MLOAD SWAP1 DUP2 MSTORE RETURN JUMPDEST PUSH1 0x11 SWAP1 PUSH4 0x4E487B71 PUSH1 0xE0 SHL PUSH0 MSTORE MSTORE PUSH1 0x24 PUSH0 REVERT JUMPDEST DUP4 MLOAD PUSH3 0x461BCD PUSH1 0xE5 SHL DUP2 MSTORE DUP1 DUP7 ADD DUP8 SWAP1 MSTORE PUSH1 0x14 PUSH1 0x24 DUP3 ADD MSTORE PUSH20 0x10985919D948185B1C9958591E481B5A5B9D1959 PUSH1 0x62 SHL PUSH1 0x44 DUP3 ADD MSTORE PUSH1 0x64 SWAP1 REVERT JUMPDEST DUP3 MLOAD PUSH3 0x461BCD PUSH1 0xE5 SHL DUP2 MSTORE PUSH1 0x20 DUP2 DUP7 ADD MSTORE PUSH1 0xE PUSH1 0x24 DUP3 ADD MSTORE PUSH14 0x13DB9B1E481CD95B19881B5A5B9D PUSH1 0x92 SHL PUSH1 0x44 DUP3 ADD MSTORE PUSH1 0x64 SWAP1 REVERT JUMPDEST DUP3 MLOAD PUSH3 0x461BCD PUSH1 0xE5 SHL DUP2 MSTORE PUSH1 0x20 DUP2 DUP7 ADD MSTORE PUSH1 0x11 PUSH1 0x24 DUP3 ADD MSTORE PUSH17 0x125B9D985B1A59081C9958DA5C1A595B9D PUSH1 0x7A SHL PUSH1 0x44 DUP3 ADD MSTORE PUSH1 0x64 SWAP1 REVERT JUMPDEST CALLVALUE PUSH2 0x223 JUMPI PUSH0 CALLDATASIZE PUSH1 0x3 NOT ADD SLT PUSH2 0x223 JUMPI PUSH2 0x18E8 PUSH2 0x24B6 JUMP JUMPDEST PUSH1 0x6 DUP1 SLOAD PUSH1 0x1 PUSH1 0x1 PUSH1 0xA0 SHL SUB NOT DUP2 AND SWAP1 SWAP2 SSTORE PUSH0 SWAP1 PUSH1 0x1 PUSH1 0x1 PUSH1 0xA0 SHL SUB AND PUSH32 0x8BE0079C531659141344CD1FD0A4F28419497F9722A3DAAFE3B4186F6B6457E0 DUP3 DUP1 LOG3 STOP JUMPDEST POP SWAP1 CALLVALUE PUSH2 0x223 JUMPI PUSH1 0x20 CALLDATASIZE PUSH1 0x3 NOT ADD SLT PUSH2 0x223 JUMPI PUSH1 0x1 PUSH1 0x1 PUSH1 0xA0 SHL SUB PUSH2 0x194E PUSH2 0x1FE4 JUMP JUMPDEST AND DUP1 ISZERO PUSH2 0x196A JUMPI PUSH1 0x20 SWAP3 POP PUSH0 MSTORE PUSH1 0x3 DUP3 MSTORE DUP1 PUSH0 KECCAK256 SLOAD SWAP1 MLOAD SWAP1 DUP2 MSTORE RETURN JUMPDEST DUP2 MLOAD PUSH3 0x461BCD PUSH1 0xE5 SHL DUP2 MSTORE PUSH1 0x20 DUP2 DUP6 ADD MSTORE PUSH1 0x29 PUSH1 0x24 DUP3 ADD MSTORE PUSH32 0x4552433732313A2061646472657373207A65726F206973206E6F742061207661 PUSH1 0x44 DUP3 ADD MSTORE PUSH9 0x3634B21037BBB732B9 PUSH1 0xB9 SHL PUSH1 0x64 DUP3 ADD MSTORE PUSH1 0x84 SWAP1 REVERT JUMPDEST DUP3 CALLVALUE PUSH2 0x223 JUMPI DUP1 PUSH1 0x3 NOT CALLDATASIZE ADD SLT PUSH2 0x223 JUMPI PUSH1 0x20 SWAP1 PUSH2 0x19DB PUSH2 0x1FE4 JUMP JUMPDEST PUSH2 0x19E3 PUSH2 0x2010 JUMP JUMPDEST SWAP1 PUSH2 0x19F0 PUSH2 0x16B6 DUP4 PUSH2 0x249B JUMP JUMPDEST PUSH1 0x1 PUSH1 0x1 PUSH1 0xA0 SHL SUB AND PUSH0 SWAP1 DUP2 MSTORE PUSH1 0x8 DUP5 MSTORE DUP3 DUP2 KECCAK256 PUSH1 0xFF SWAP3 DUP4 AND DUP3 MSTORE DUP5 MSTORE DUP3 SWAP1 KECCAK256 SLOAD SWAP2 MLOAD SWAP2 AND ISZERO ISZERO DUP2 MSTORE RETURN JUMPDEST POP SWAP1 CALLVALUE PUSH2 0x223 JUMPI PUSH1 0x20 CALLDATASIZE PUSH1 0x3 NOT ADD SLT PUSH2 0x223 JUMPI PUSH2 0x1A3A PUSH1 0x20 SWAP3 CALLDATALOAD PUSH2 0x2262 JUMP JUMPDEST SWAP1 MLOAD PUSH1 0x1 PUSH1 0x1 PUSH1 0xA0 SHL SUB SWAP1 SWAP2 AND DUP2 MSTORE RETURN JUMPDEST DUP3 CALLVALUE PUSH2 0x223 JUMPI PUSH0 CALLDATASIZE PUSH1 0x3 NOT ADD SLT PUSH2 0x223 JUMPI PUSH1 0x20 SWAP1 MLOAD PUSH1 0x3 DUP2 MSTORE RETURN JUMPDEST POP CALLVALUE PUSH2 0x223 JUMPI PUSH1 0x20 SWAP2 DUP3 PUSH1 0x3 NOT CALLDATASIZE ADD SLT PUSH2 0x223 JUMPI PUSH2 0x1A82 PUSH2 0x1FE4 JUMP JUMPDEST PUSH1 0x1 PUSH1 0x1 PUSH1 0xA0 SHL SUB DUP2 AND DUP1 ISZERO PUSH2 0x1BE5 JUMPI DUP1 CALLER SUB PUSH2 0x1BB1 JUMPI DUP1 PUSH0 MSTORE PUSH1 0x8 DUP6 MSTORE DUP3 PUSH0 KECCAK256 SWAP2 PUSH1 0x1 SWAP3 DUP4 PUSH0 MSTORE DUP7 MSTORE PUSH1 0xFF DUP5 PUSH0 KECCAK256 SLOAD AND PUSH2 0x182B JUMPI PUSH1 0x7 SLOAD SWAP5 DUP4 DUP7 ADD SWAP1 DUP2 DUP8 GT PUSH2 0x1818 JUMPI POP PUSH2 0x1425 DUP7 SWAP5 SWAP4 SWAP3 PUSH2 0x17EE SWAP3 PUSH1 0x7 SSTORE DUP4 PUSH0 MSTORE PUSH1 0x8 DUP10 MSTORE DUP7 PUSH0 KECCAK256 DUP6 PUSH0 MSTORE DUP10 MSTORE DUP7 PUSH0 KECCAK256 PUSH1 0xFF NOT SWAP1 DUP7 DUP3 DUP3 SLOAD AND OR SWAP1 SSTORE DUP7 PUSH0 MSTORE PUSH1 0x9 DUP11 MSTORE DUP6 DUP9 PUSH0 KECCAK256 SWAP2 DUP3 SLOAD AND OR SWAP1 SSTORE DUP6 DUP8 MLOAD SWAP2 PUSH2 0x1B12 DUP4 PUSH2 0x20B6 JUMP JUMPDEST PUSH0 DUP1 DUP5 MSTORE DUP3 DUP2 MSTORE PUSH1 0x2 PUSH1 0x20 MSTORE PUSH1 0x40 SWAP1 KECCAK256 SLOAD PUSH2 0x1B37 SWAP1 PUSH1 0x1 PUSH1 0x1 PUSH1 0xA0 SHL SUB AND ISZERO ISZERO PUSH2 0x176D JUMP JUMPDEST PUSH0 DUP3 DUP2 MSTORE PUSH1 0x2 PUSH1 0x20 MSTORE PUSH1 0x40 SWAP1 KECCAK256 SLOAD PUSH2 0x1B59 SWAP1 PUSH1 0x1 PUSH1 0x1 PUSH1 0xA0 SHL SUB AND ISZERO ISZERO PUSH2 0x176D JUMP JUMPDEST DUP6 PUSH0 MSTORE PUSH1 0x3 DUP12 MSTORE DUP9 PUSH0 KECCAK256 DUP8 DUP2 SLOAD ADD SWAP1 SSTORE DUP2 PUSH0 MSTORE PUSH1 0x2 DUP12 MSTORE DUP9 PUSH0 KECCAK256 DUP7 PUSH1 0x1 PUSH1 0x1 PUSH1 0x60 SHL SUB PUSH1 0xA0 SHL DUP3 SLOAD AND OR SWAP1 SSTORE DUP2 DUP7 PUSH0 PUSH32 0xDDF252AD1BE2C89B69C2B068FC378DAA952BA7F163C4A11628F55A4DF523B3EF DUP2 DUP1 LOG4 PUSH2 0x2B49 JUMP JUMPDEST DUP3 MLOAD PUSH3 0x461BCD PUSH1 0xE5 SHL DUP2 MSTORE DUP1 DUP6 ADD DUP7 SWAP1 MSTORE PUSH1 0xE PUSH1 0x24 DUP3 ADD MSTORE PUSH14 0x13DB9B1E481CD95B19881B5A5B9D PUSH1 0x92 SHL PUSH1 0x44 DUP3 ADD MSTORE PUSH1 0x64 SWAP1 REVERT JUMPDEST DUP3 MLOAD PUSH3 0x461BCD PUSH1 0xE5 SHL DUP2 MSTORE DUP1 DUP6 ADD DUP7 SWAP1 MSTORE PUSH1 0x11 PUSH1 0x24 DUP3 ADD MSTORE PUSH17 0x125B9D985B1A59081C9958DA5C1A595B9D PUSH1 0x7A SHL PUSH1 0x44 DUP3 ADD MSTORE PUSH1 0x64 SWAP1 REVERT JUMPDEST PUSH2 0x2066 JUMP JUMPDEST DUP3 CALLVALUE PUSH2 0x223 JUMPI PUSH2 0x1425 PUSH2 0x142A SWAP2 PUSH2 0x1C37 CALLDATASIZE PUSH2 0x2081 JUMP JUMPDEST SWAP2 SWAP3 MLOAD SWAP3 PUSH2 0x1C44 DUP5 PUSH2 0x20B6 JUMP JUMPDEST PUSH0 DUP5 MSTORE PUSH2 0x1415 PUSH2 0x1410 DUP5 CALLER PUSH2 0x22C8 JUMP JUMPDEST DUP3 CALLVALUE PUSH2 0x223 JUMPI PUSH1 0x20 CALLDATASIZE PUSH1 0x3 NOT ADD SLT PUSH2 0x223 JUMPI PUSH1 0x20 SWAP1 PUSH1 0x1 PUSH1 0x1 PUSH1 0xA0 SHL SUB PUSH2 0x1C79 PUSH2 0x1FE4 JUMP JUMPDEST AND PUSH0 MSTORE PUSH1 0x8 DUP3 MSTORE DUP1 PUSH0 KECCAK256 PUSH1 0x1 PUSH0 MSTORE DUP3 MSTORE PUSH1 0xFF DUP2 PUSH0 KECCAK256 SLOAD AND SWAP1 MLOAD SWAP1 ISZERO ISZERO DUP2 MSTORE RETURN JUMPDEST CALLVALUE PUSH2 0x223 JUMPI PUSH2 0x142A PUSH2 0x1CAA CALLDATASIZE PUSH2 0x2081 JUMP JUMPDEST SWAP2 PUSH2 0x1CB8 PUSH2 0x1410 DUP5 CALLER PUSH2 0x22C8 JUMP JUMPDEST PUSH2 0x238C JUMP JUMPDEST POP CALLVALUE PUSH2 0x223 JUMPI PUSH0 CALLDATASIZE PUSH1 0x3 NOT ADD SLT PUSH2 0x223 JUMPI PUSH1 0x20 SWAP2 MLOAD SWAP1 DUP2 MSTORE RETURN JUMPDEST POP CALLVALUE PUSH2 0x223 JUMPI DUP2 PUSH1 0x3 NOT CALLDATASIZE ADD SLT PUSH2 0x223 JUMPI PUSH2 0x1CF0 PUSH2 0x1FE4 JUMP JUMPDEST PUSH1 0x24 CALLDATALOAD SWAP3 SWAP1 SWAP2 PUSH1 0x1 PUSH1 0x1 PUSH1 0xA0 SHL SUB SWAP2 SWAP1 DUP3 DUP1 PUSH2 0x1D0B DUP8 PUSH2 0x2262 JUMP JUMPDEST AND SWAP5 AND SWAP4 DUP1 DUP6 EQ PUSH2 0x1DF8 JUMPI DUP1 CALLER EQ SWAP1 DUP2 ISZERO PUSH2 0x1DD9 JUMPI JUMPDEST POP ISZERO PUSH2 0x1D71 JUMPI DUP5 PUSH0 MSTORE PUSH1 0x20 MSTORE PUSH0 KECCAK256 DUP3 PUSH1 0x1 PUSH1 0x1 PUSH1 0x60 SHL SUB PUSH1 0xA0 SHL DUP3 SLOAD AND OR SWAP1 SSTORE PUSH2 0x1D4A DUP4 PUSH2 0x2262 JUMP JUMPDEST AND PUSH32 0x8C5BE1E5EBEC7D5BD14F71427D1E84F3DD0314C0F7B2291E5B200AC8C7C3B925 PUSH0 DUP1 LOG4 STOP JUMPDEST PUSH1 0x20 PUSH1 0x84 SWAP3 MLOAD SWAP2 PUSH3 0x461BCD PUSH1 0xE5 SHL DUP4 MSTORE DUP3 ADD MSTORE PUSH1 0x3D PUSH1 0x24 DUP3 ADD MSTORE PUSH32 0x4552433732313A20617070726F76652063616C6C6572206973206E6F7420746F PUSH1 0x44 DUP3 ADD MSTORE PUSH32 0x6B656E206F776E6572206F7220617070726F76656420666F7220616C6C000000 PUSH1 0x64 DUP3 ADD MSTORE REVERT JUMPDEST SWAP1 POP PUSH0 MSTORE PUSH1 0x5 PUSH1 0x20 MSTORE DUP2 PUSH0 KECCAK256 CALLER PUSH0 MSTORE PUSH1 0x20 MSTORE PUSH1 0xFF DUP3 PUSH0 KECCAK256 SLOAD AND PUSH0 PUSH2 0x1D21 JUMP JUMPDEST POP PUSH1 0x20 PUSH1 0x84 SWAP3 MLOAD SWAP2 PUSH3 0x461BCD PUSH1 0xE5 SHL DUP4 MSTORE DUP3 ADD MSTORE PUSH1 0x21 PUSH1 0x24 DUP3 ADD MSTORE PUSH32 0x4552433732313A20617070726F76616C20746F2063757272656E74206F776E65 PUSH1 0x44 DUP3 ADD MSTORE PUSH1 0x39 PUSH1 0xF9 SHL PUSH1 0x64 DUP3 ADD MSTORE REVERT JUMPDEST POP SWAP1 CALLVALUE PUSH2 0x223 JUMPI PUSH1 0x20 CALLDATASIZE PUSH1 0x3 NOT ADD SLT PUSH2 0x223 JUMPI PUSH2 0x1A3A PUSH1 0x20 SWAP3 CALLDATALOAD PUSH2 0x2178 JUMP JUMPDEST POP SWAP1 CALLVALUE PUSH2 0x223 JUMPI PUSH0 CALLDATASIZE PUSH1 0x3 NOT ADD SLT PUSH2 0x223 JUMPI DUP1 MLOAD SWAP1 PUSH0 SWAP1 PUSH0 SLOAD SWAP2 PUSH1 0x1 DUP4 PUSH1 0x1 SHR SWAP1 PUSH1 0x1 DUP6 AND SWAP5 DUP6 ISZERO PUSH2 0x1F21 JUMPI JUMPDEST PUSH1 0x20 SWAP6 DUP7 DUP5 LT DUP2 EQ PUSH2 0x15F5 JUMPI DUP4 DUP9 MSTORE DUP8 SWAP5 SWAP4 SWAP3 SWAP2 DUP8 SWAP1 DUP3 ISZERO PUSH2 0x15D3 JUMPI POP POP PUSH1 0x1 EQ PUSH2 0x1EC8 JUMPI POP POP PUSH2 0x12C8 SWAP3 SWAP2 PUSH2 0x12B9 SWAP2 SUB DUP6 PUSH2 0x213A JUMP JUMPDEST PUSH0 DUP1 DUP1 MSTORE DUP7 SWAP4 POP SWAP2 SWAP1 PUSH32 0x290DECD9548B62A8D60345A988386FC84BA6BC95484008F6362F93160EF3E563 JUMPDEST DUP3 DUP5 LT PUSH2 0x1F09 JUMPI POP POP POP DUP3 ADD ADD DUP2 PUSH2 0x12B9 PUSH2 0x1566 JUMP JUMPDEST DUP1 SLOAD DUP5 DUP11 ADD DUP7 ADD MSTORE DUP9 SWAP6 POP DUP8 SWAP5 SWAP1 SWAP4 ADD SWAP3 DUP2 ADD PUSH2 0x1EF3 JUMP JUMPDEST SWAP2 PUSH1 0x7F AND SWAP2 PUSH2 0x1E91 JUMP JUMPDEST POP CALLVALUE PUSH2 0x223 JUMPI PUSH1 0x20 CALLDATASIZE PUSH1 0x3 NOT ADD SLT PUSH2 0x223 JUMPI CALLDATALOAD PUSH4 0xFFFFFFFF PUSH1 0xE0 SHL DUP2 AND DUP1 SWAP2 SUB PUSH2 0x223 JUMPI PUSH1 0x20 SWAP2 PUSH4 0x80AC58CD PUSH1 0xE0 SHL DUP3 EQ SWAP2 DUP3 ISZERO PUSH2 0x1F85 JUMPI JUMPDEST DUP3 ISZERO PUSH2 0x1F74 JUMPI JUMPDEST POP MLOAD SWAP1 ISZERO ISZERO DUP2 MSTORE RETURN JUMPDEST PUSH4 0x1FFC9A7 PUSH1 0xE0 SHL EQ SWAP2 POP PUSH0 PUSH2 0x1F6B JUMP JUMPDEST PUSH4 0x5B5E139F PUSH1 0xE0 SHL DUP2 EQ SWAP3 POP PUSH2 0x1F64 JUMP JUMPDEST DUP4 SWAP1 CALLVALUE PUSH2 0x223 JUMPI DUP2 PUSH1 0x3 NOT CALLDATASIZE ADD SLT PUSH2 0x223 JUMPI PUSH1 0xFF PUSH1 0x20 SWAP3 PUSH2 0x1FB5 PUSH2 0x1FE4 JUMP JUMPDEST PUSH2 0x1FBD PUSH2 0x2010 JUMP JUMPDEST PUSH1 0x1 PUSH1 0x1 PUSH1 0xA0 SHL SUB SWAP1 SWAP2 AND PUSH0 SWAP1 DUP2 MSTORE PUSH1 0x8 DUP7 MSTORE DUP3 DUP2 KECCAK256 SWAP2 DUP5 AND DUP2 MSTORE SWAP1 DUP6 MSTORE KECCAK256 SLOAD AND ISZERO ISZERO DUP2 MSTORE RETURN JUMPDEST PUSH1 0x4 CALLDATALOAD SWAP1 PUSH1 0x1 PUSH1 0x1 PUSH1 0xA0 SHL SUB DUP3 AND DUP3 SUB PUSH2 0x223 JUMPI JUMP JUMPDEST PUSH1 0x24 CALLDATALOAD SWAP1 PUSH1 0x1 PUSH1 0x1 PUSH1 0xA0 SHL SUB DUP3 AND DUP3 SUB PUSH2 0x223 JUMPI JUMP JUMPDEST PUSH1 0x24 CALLDATALOAD SWAP1 PUSH1 0xFF DUP3 AND DUP3 SUB PUSH2 0x223 JUMPI JUMP JUMPDEST PUSH0 JUMPDEST DUP4 DUP2 LT PUSH2 0x2031 JUMPI POP POP PUSH0 SWAP2 ADD MSTORE JUMP JUMPDEST DUP2 DUP2 ADD MLOAD DUP4 DUP3 ADD MSTORE PUSH1 0x20 ADD PUSH2 0x2022 JUMP JUMPDEST SWAP1 PUSH1 0x20 SWAP2 PUSH2 0x205A DUP2 MLOAD DUP1 SWAP3 DUP2 DUP6 MSTORE DUP6 DUP1 DUP7 ADD SWAP2 ADD PUSH2 0x2020 JUMP JUMPDEST PUSH1 0x1F ADD PUSH1 0x1F NOT AND ADD ADD SWAP1 JUMP JUMPDEST CALLVALUE PUSH2 0x223 JUMPI PUSH0 CALLDATASIZE PUSH1 0x3 NOT ADD SLT PUSH2 0x223 JUMPI PUSH1 0x20 PUSH1 0x40 MLOAD PUSH1 0x5 DUP2 MSTORE RETURN JUMPDEST PUSH1 0x60 SWAP1 PUSH1 0x3 NOT ADD SLT PUSH2 0x223 JUMPI PUSH1 0x1 PUSH1 0x1 PUSH1 0xA0 SHL SUB SWAP1 PUSH1 0x4 CALLDATALOAD DUP3 DUP2 AND DUP2 SUB PUSH2 0x223 JUMPI SWAP2 PUSH1 0x24 CALLDATALOAD SWAP1 DUP2 AND DUP2 SUB PUSH2 0x223 JUMPI SWAP1 PUSH1 0x44 CALLDATALOAD SWAP1 JUMP JUMPDEST PUSH1 0x20 DUP2 ADD SWAP1 DUP2 LT PUSH8 0xFFFFFFFFFFFFFFFF DUP3 GT OR PUSH2 0x20D2 JUMPI PUSH1 0x40 MSTORE JUMP JUMPDEST PUSH4 0x4E487B71 PUSH1 0xE0 SHL PUSH0 MSTORE PUSH1 0x41 PUSH1 0x4 MSTORE PUSH1 0x24 PUSH0 REVERT JUMPDEST PUSH1 0x40 DUP2 ADD SWAP1 DUP2 LT PUSH8 0xFFFFFFFFFFFFFFFF DUP3 GT OR PUSH2 0x20D2 JUMPI PUSH1 0x40 MSTORE JUMP JUMPDEST PUSH1 0x80 DUP2 ADD SWAP1 DUP2 LT PUSH8 0xFFFFFFFFFFFFFFFF DUP3 GT OR PUSH2 0x20D2 JUMPI PUSH1 0x40 MSTORE JUMP JUMPDEST PUSH1 0x60 DUP2 ADD SWAP1 DUP2 LT PUSH8 0xFFFFFFFFFFFFFFFF DUP3 GT OR PUSH2 0x20D2 JUMPI PUSH1 0x40 MSTORE JUMP JUMPDEST SWAP1 PUSH1 0x1F DUP1 NOT SWAP2 ADD AND DUP2 ADD SWAP1 DUP2 LT PUSH8 0xFFFFFFFFFFFFFFFF DUP3 GT OR PUSH2 0x20D2 JUMPI PUSH1 0x40 MSTORE JUMP JUMPDEST PUSH8 0xFFFFFFFFFFFFFFFF DUP2 GT PUSH2 0x20D2 JUMPI PUSH1 0x1F ADD PUSH1 0x1F NOT AND PUSH1 0x20 ADD SWAP1 JUMP JUMPDEST PUSH0 DUP2 DUP2 MSTORE PUSH1 0x2 PUSH1 0x20 MSTORE PUSH1 0x40 SWAP1 KECCAK256 SLOAD PUSH2 0x219A SWAP1 PUSH1 0x1 PUSH1 0x1 PUSH1 0xA0 SHL SUB AND ISZERO ISZERO PUSH2 0x2216 JUMP JUMPDEST PUSH0 SWAP1 DUP2 MSTORE PUSH1 0x4 PUSH1 0x20 MSTORE PUSH1 0x40 SWAP1 KECCAK256 SLOAD PUSH1 0x1 PUSH1 0x1 PUSH1 0xA0 SHL SUB AND SWAP1 JUMP JUMPDEST ISZERO PUSH2 0x21BB JUMPI JUMP JUMPDEST PUSH1 0x40 MLOAD PUSH3 0x461BCD PUSH1 0xE5 SHL DUP2 MSTORE PUSH1 0x20 PUSH1 0x4 DUP3 ADD MSTORE PUSH1 0x2D PUSH1 0x24 DUP3 ADD MSTORE PUSH32 0x4552433732313A2063616C6C6572206973206E6F7420746F6B656E206F776E65 PUSH1 0x44 DUP3 ADD MSTORE PUSH13 0x1C881BDC88185C1C1C9BDD9959 PUSH1 0x9A SHL PUSH1 0x64 DUP3 ADD MSTORE PUSH1 0x84 SWAP1 REVERT JUMPDEST ISZERO PUSH2 0x221D JUMPI JUMP JUMPDEST PUSH1 0x40 MLOAD PUSH3 0x461BCD PUSH1 0xE5 SHL DUP2 MSTORE PUSH1 0x20 PUSH1 0x4 DUP3 ADD MSTORE PUSH1 0x18 PUSH1 0x24 DUP3 ADD MSTORE PUSH32 0x4552433732313A20696E76616C696420746F6B656E2049440000000000000000 PUSH1 0x44 DUP3 ADD MSTORE PUSH1 0x64 SWAP1 REVERT JUMPDEST PUSH0 SWAP1 DUP2 MSTORE PUSH1 0x2 PUSH1 0x20 MSTORE PUSH1 0x40 SWAP1 KECCAK256 SLOAD PUSH1 0x1 PUSH1 0x1 PUSH1 0xA0 SHL SUB AND PUSH2 0x2284 DUP2 ISZERO ISZERO PUSH2 0x2216 JUMP JUMPDEST SWAP1 JUMP JUMPDEST ISZERO PUSH2 0x228E JUMPI JUMP JUMPDEST PUSH1 0x40 MLOAD PUSH3 0x461BCD PUSH1 0xE5 SHL DUP2 MSTORE PUSH1 0x20 PUSH1 0x4 DUP3 ADD MSTORE PUSH1 0x12 PUSH1 0x24 DUP3 ADD MSTORE PUSH18 0x496E76616C69642062616467652074797065 PUSH1 0x70 SHL PUSH1 0x44 DUP3 ADD MSTORE PUSH1 0x64 SWAP1 REVERT JUMPDEST SWAP1 PUSH1 0x1 PUSH1 0x1 PUSH1 0xA0 SHL SUB DUP1 DUP1 PUSH2 0x22DC DUP5 PUSH2 0x2262 JUMP JUMPDEST AND SWAP4 AND SWAP2 DUP4 DUP4 EQ SWAP4 DUP5 ISZERO PUSH2 0x230F JUMPI JUMPDEST POP DUP4 ISZERO PUSH2 0x22F9 JUMPI JUMPDEST POP POP POP SWAP1 JUMP JUMPDEST PUSH2 0x2305 SWAP2 SWAP3 SWAP4 POP PUSH2 0x2178 JUMP JUMPDEST AND EQ PUSH0 DUP1 DUP1 PUSH2 0x22F3 JUMP JUMPDEST SWAP1 SWAP4 POP PUSH0 MSTORE PUSH1 0x5 PUSH1 0x20 MSTORE PUSH1 0x40 PUSH0 KECCAK256 DUP3 PUSH0 MSTORE PUSH1 0x20 MSTORE PUSH1 0xFF PUSH1 0x40 PUSH0 KECCAK256 SLOAD AND SWAP3 PUSH0 PUSH2 0x22EB JUMP JUMPDEST ISZERO PUSH2 0x2339 JUMPI JUMP JUMPDEST PUSH1 0x40 MLOAD PUSH3 0x461BCD PUSH1 0xE5 SHL DUP2 MSTORE PUSH1 0x20 PUSH1 0x4 DUP3 ADD MSTORE PUSH1 0x25 PUSH1 0x24 DUP3 ADD MSTORE PUSH32 0x4552433732313A207472616E736665722066726F6D20696E636F727265637420 PUSH1 0x44 DUP3 ADD MSTORE PUSH5 0x37BBB732B9 PUSH1 0xD9 SHL PUSH1 0x64 DUP3 ADD MSTORE PUSH1 0x84 SWAP1 REVERT JUMPDEST SWAP1 PUSH2 0x23B4 SWAP2 PUSH2 0x239A DUP5 PUSH2 0x2262 JUMP JUMPDEST PUSH1 0x1 PUSH1 0x1 PUSH1 0xA0 SHL SUB SWAP4 SWAP2 DUP5 AND SWAP3 DUP5 SWAP3 SWAP1 SWAP2 DUP4 AND DUP5 EQ PUSH2 0x2332 JUMP JUMPDEST AND SWAP2 DUP3 ISZERO PUSH2 0x244A JUMPI DUP2 PUSH2 0x23D1 SWAP2 PUSH2 0x23CA DUP7 PUSH2 0x2262 JUMP JUMPDEST AND EQ PUSH2 0x2332 JUMP JUMPDEST DUP3 PUSH0 MSTORE PUSH1 0x4 PUSH1 0x20 MSTORE PUSH1 0x40 PUSH0 KECCAK256 PUSH1 0x1 PUSH1 0x1 PUSH1 0x60 SHL SUB PUSH1 0xA0 SHL SWAP1 DUP2 DUP2 SLOAD AND SWAP1 SSTORE DUP2 PUSH0 MSTORE PUSH1 0x3 PUSH1 0x20 MSTORE PUSH1 0x40 PUSH0 KECCAK256 PUSH0 NOT DUP2 SLOAD ADD SWAP1 SSTORE DUP3 PUSH0 MSTORE PUSH1 0x40 PUSH0 KECCAK256 PUSH1 0x1 DUP2 SLOAD ADD SWAP1 SSTORE DUP4 PUSH0 MSTORE PUSH1 0x2 PUSH1 0x20 MSTORE DUP3 PUSH1 0x40 PUSH0 KECCAK256 SWAP2 DUP3 SLOAD AND OR SWAP1 SSTORE PUSH32 0xDDF252AD1BE2C89B69C2B068FC378DAA952BA7F163C4A11628F55A4DF523B3EF PUSH0 DUP1 LOG4 JUMP JUMPDEST PUSH1 0x40 MLOAD PUSH3 0x461BCD PUSH1 0xE5 SHL DUP2 MSTORE PUSH1 0x20 PUSH1 0x4 DUP3 ADD MSTORE PUSH1 0x24 DUP1 DUP3 ADD MSTORE PUSH32 0x4552433732313A207472616E7366657220746F20746865207A65726F20616464 PUSH1 0x44 DUP3 ADD MSTORE PUSH4 0x72657373 PUSH1 0xE0 SHL PUSH1 0x64 DUP3 ADD MSTORE PUSH1 0x84 SWAP1 REVERT JUMPDEST PUSH1 0xFF AND PUSH1 0x1 DUP2 LT ISZERO SWAP1 DUP2 PUSH2 0x24AD JUMPI POP SWAP1 JUMP JUMPDEST PUSH1 0x5 SWAP2 POP GT ISZERO SWAP1 JUMP JUMPDEST PUSH1 0x6 SLOAD PUSH1 0x1 PUSH1 0x1 PUSH1 0xA0 SHL SUB AND CALLER SUB PUSH2 0x24CA JUMPI JUMP JUMPDEST PUSH1 0x64 PUSH1 0x40 MLOAD PUSH3 0x461BCD PUSH1 0xE5 SHL DUP2 MSTORE PUSH1 0x20 PUSH1 0x4 DUP3 ADD MSTORE PUSH1 0x20 PUSH1 0x24 DUP3 ADD MSTORE PUSH32 0x4F776E61626C653A2063616C6C6572206973206E6F7420746865206F776E6572 PUSH1 0x44 DUP3 ADD MSTORE REVERT JUMPDEST PUSH1 0x80 SWAP1 PUSH1 0x20 DUP2 MSTORE PUSH1 0x32 PUSH1 0x20 DUP3 ADD MSTORE PUSH32 0x4552433732313A207472616E7366657220746F206E6F6E204552433732315265 PUSH1 0x40 DUP3 ADD MSTORE PUSH18 0x31B2B4BB32B91034B6B83632B6B2B73A32B9 PUSH1 0x71 SHL PUSH1 0x60 DUP3 ADD MSTORE ADD SWAP1 JUMP JUMPDEST ISZERO PUSH2 0x2568 JUMPI JUMP JUMPDEST PUSH1 0x40 MLOAD PUSH3 0x461BCD PUSH1 0xE5 SHL DUP2 MSTORE DUP1 PUSH2 0x2581 PUSH1 0x4 DUP3 ADD PUSH2 0x250E JUMP JUMPDEST SUB SWAP1 REVERT JUMPDEST PUSH1 0xFF AND PUSH1 0x1 DUP2 EQ PUSH2 0x262C JUMPI PUSH1 0x2 DUP2 EQ PUSH2 0x2609 JUMPI PUSH1 0x3 DUP2 EQ PUSH2 0x25E8 JUMPI PUSH1 0x4 EQ PUSH2 0x25C8 JUMPI PUSH1 0x40 MLOAD PUSH2 0x25B3 DUP2 PUSH2 0x20E6 JUMP JUMPDEST PUSH1 0x5 DUP2 MSTORE PUSH5 0x3830B832B9 PUSH1 0xD9 SHL PUSH1 0x20 DUP3 ADD MSTORE SWAP1 JUMP JUMPDEST PUSH1 0x40 MLOAD PUSH2 0x25D4 DUP2 PUSH2 0x20E6 JUMP JUMPDEST PUSH1 0x4 DUP2 MSTORE PUSH4 0x38BAB4BD PUSH1 0xE1 SHL PUSH1 0x20 DUP3 ADD MSTORE SWAP1 JUMP JUMPDEST POP PUSH1 0x40 MLOAD PUSH2 0x25F5 DUP2 PUSH2 0x20E6 JUMP JUMPDEST PUSH1 0x4 DUP2 MSTORE PUSH4 0x7269736B PUSH1 0xE0 SHL PUSH1 0x20 DUP3 ADD MSTORE SWAP1 JUMP JUMPDEST POP PUSH1 0x40 MLOAD PUSH2 0x2616 DUP2 PUSH2 0x20E6 JUMP JUMPDEST PUSH1 0x6 DUP2 MSTORE PUSH6 0x1DD85B1B195D PUSH1 0xD2 SHL PUSH1 0x20 DUP3 ADD MSTORE SWAP1 JUMP JUMPDEST POP PUSH1 0x40 MLOAD PUSH2 0x2639 DUP2 PUSH2 0x20E6 JUMP JUMPDEST PUSH1 0x7 DUP2 MSTORE PUSH7 0x77656C636F6D65 PUSH1 0xC8 SHL PUSH1 0x20 DUP3 ADD MSTORE SWAP1 JUMP JUMPDEST PUSH1 0x40 MLOAD SWAP1 PUSH2 0x265D DUP3 PUSH2 0x20E6 JUMP JUMPDEST PUSH1 0x11 DUP3 MSTORE PUSH17 0x4D53582057656C636F6D65204261646765 PUSH1 0x78 SHL PUSH1 0x20 DUP4 ADD MSTORE JUMP JUMPDEST PUSH1 0xFF AND PUSH1 0x1 DUP2 EQ PUSH2 0x276E JUMPI PUSH1 0x2 DUP2 EQ PUSH2 0x273C JUMPI PUSH1 0x3 DUP2 EQ PUSH2 0x270A JUMPI PUSH1 0x4 EQ PUSH2 0x26D8 JUMPI PUSH1 0x40 MLOAD PUSH2 0x26AB DUP2 PUSH2 0x20E6 JUMP JUMPDEST PUSH1 0x17 DUP2 MSTORE PUSH32 0x4D53582050617065722054726164696E67204261646765000000000000000000 PUSH1 0x20 DUP3 ADD MSTORE SWAP1 JUMP JUMPDEST PUSH1 0x40 MLOAD PUSH2 0x26E4 DUP2 PUSH2 0x20E6 JUMP JUMPDEST PUSH1 0x16 DUP2 MSTORE PUSH22 0x4D53582050726F64756374205175697A204261646765 PUSH1 0x50 SHL PUSH1 0x20 DUP3 ADD MSTORE SWAP1 JUMP JUMPDEST POP PUSH1 0x40 MLOAD PUSH2 0x2717 DUP2 PUSH2 0x20E6 JUMP JUMPDEST PUSH1 0x15 DUP2 MSTORE PUSH21 0x4D5358205269736B20526576696577204261646765 PUSH1 0x58 SHL PUSH1 0x20 DUP3 ADD MSTORE SWAP1 JUMP JUMPDEST POP PUSH1 0x40 MLOAD PUSH2 0x2749 DUP2 PUSH2 0x20E6 JUMP JUMPDEST PUSH1 0x15 DUP2 MSTORE PUSH21 0x4D53582057616C6C6574205461736B204261646765 PUSH1 0x58 SHL PUSH1 0x20 DUP3 ADD MSTORE SWAP1 JUMP JUMPDEST POP PUSH2 0x2284 PUSH2 0x2650 JUMP JUMPDEST PUSH1 0xFF AND PUSH1 0x1 DUP2 EQ PUSH2 0x2932 JUMPI PUSH1 0x2 DUP2 EQ PUSH2 0x28D2 JUMPI PUSH1 0x3 DUP2 EQ PUSH2 0x2868 JUMPI PUSH1 0x4 EQ PUSH2 0x2809 JUMPI PUSH1 0x40 MLOAD PUSH2 0x27A5 DUP2 PUSH2 0x2102 JUMP JUMPDEST PUSH1 0x48 DUP2 MSTORE PUSH32 0x412070617065722D74726164696E67206D696C6573746F6E6520636F6C6C6563 PUSH1 0x20 DUP3 ADD MSTORE PUSH32 0x7469626C6520666F7220746865204D53582067756964656420696E7665737469 PUSH1 0x40 DUP3 ADD MSTORE PUSH8 0x373390333637BB97 PUSH1 0xC1 SHL PUSH1 0x60 DUP3 ADD MSTORE SWAP1 JUMP JUMPDEST PUSH1 0x40 MLOAD PUSH2 0x2815 DUP2 PUSH2 0x211E JUMP JUMPDEST PUSH1 0x3D DUP2 MSTORE PUSH32 0x412070726F647563742D7175697A20636F6C6C65637469626C6520666F722074 PUSH1 0x20 DUP3 ADD MSTORE PUSH32 0x6865204D53582067756964656420696E76657374696E6720666C6F772E000000 PUSH1 0x40 DUP3 ADD MSTORE SWAP1 JUMP JUMPDEST POP PUSH1 0x40 MLOAD PUSH2 0x2875 DUP2 PUSH2 0x2102 JUMP JUMPDEST PUSH1 0x41 DUP2 MSTORE PUSH32 0x41207269736B2D636172642072657669657720636F6C6C65637469626C652066 PUSH1 0x20 DUP3 ADD MSTORE PUSH32 0x6F7220746865204D53582067756964656420696E76657374696E6720666C6F77 PUSH1 0x40 DUP3 ADD MSTORE PUSH1 0x17 PUSH1 0xF9 SHL PUSH1 0x60 DUP3 ADD MSTORE SWAP1 JUMP JUMPDEST POP PUSH1 0x40 MLOAD PUSH2 0x28DF DUP2 PUSH2 0x211E JUMP JUMPDEST PUSH1 0x3C DUP2 MSTORE PUSH32 0x412077616C6C65742D636F6E6E656374696F6E20636F6C6C65637469626C6520 PUSH1 0x20 DUP3 ADD MSTORE PUSH32 0x666F7220746865204D5358206F6E626F617264696E6720666C6F772E00000000 PUSH1 0x40 DUP3 ADD MSTORE SWAP1 JUMP JUMPDEST POP PUSH1 0x40 MLOAD PUSH2 0x293F DUP2 PUSH2 0x2102 JUMP JUMPDEST PUSH1 0x4F DUP2 MSTORE PUSH32 0x41205365706F6C69612077656C636F6D6520636F6C6C65637469626C6520666F PUSH1 0x20 DUP3 ADD MSTORE PUSH32 0x7220746865204D53582047756964656420496E76657374696E6720487562206F PUSH1 0x40 DUP3 ADD MSTORE PUSH15 0x373137B0B93234B73390333637BB97 PUSH1 0x89 SHL PUSH1 0x60 DUP3 ADD MSTORE SWAP1 JUMP JUMPDEST SWAP1 PUSH2 0x29B4 DUP3 PUSH2 0x215C JUMP JUMPDEST PUSH2 0x29C1 PUSH1 0x40 MLOAD SWAP2 DUP3 PUSH2 0x213A JUMP JUMPDEST DUP3 DUP2 MSTORE DUP1 SWAP3 PUSH2 0x29D2 PUSH1 0x1F NOT SWAP2 PUSH2 0x215C JUMP JUMPDEST ADD SWAP1 PUSH1 0x20 CALLDATASIZE SWAP2 ADD CALLDATACOPY JUMP JUMPDEST SWAP1 DUP2 MLOAD ISZERO PUSH2 0x2B35 JUMPI PUSH1 0x40 MLOAD SWAP2 PUSH2 0x29F1 DUP4 PUSH2 0x211E JUMP JUMPDEST PUSH1 0x40 DUP4 MSTORE PUSH32 0x4142434445464748494A4B4C4D4E4F505152535455565758595A616263646566 PUSH1 0x20 DUP5 ADD MSTORE PUSH32 0x6768696A6B6C6D6E6F707172737475767778797A303132333435363738392B2F PUSH1 0x40 DUP5 ADD MSTORE DUP1 MLOAD SWAP3 PUSH1 0x2 SWAP2 PUSH1 0x2 DUP6 ADD DUP1 SWAP6 GT PUSH2 0x2B21 JUMPI PUSH1 0x3 SWAP5 DUP6 SWAP1 DIV PUSH1 0x1 PUSH1 0x1 PUSH1 0xFE SHL SUB DUP2 AND DUP2 SUB PUSH2 0x2B21 JUMPI PUSH2 0x2A77 SWAP1 PUSH1 0x2 SWAP7 SWAP5 SWAP7 SHL PUSH2 0x29AA JUMP JUMPDEST SWAP3 PUSH1 0x20 DUP5 ADD SWAP3 DUP3 SWAP2 DUP4 MLOAD DUP5 ADD SWAP8 PUSH1 0x20 DUP10 ADD SWAP3 DUP4 MLOAD SWAP5 PUSH0 DUP6 MSTORE JUMPDEST DUP11 DUP2 LT PUSH2 0x2AD4 JUMPI POP POP POP POP PUSH1 0x3 SWAP4 SWAP5 SWAP6 SWAP7 POP MSTORE MLOAD MOD DUP1 PUSH1 0x1 EQ PUSH2 0x2AC2 JUMPI PUSH1 0x2 EQ PUSH2 0x2AB8 JUMPI POP SWAP1 JUMP JUMPDEST PUSH1 0x3D SWAP1 PUSH0 NOT ADD MSTORE8 SWAP1 JUMP JUMPDEST POP PUSH1 0x3D SWAP1 DUP2 PUSH0 NOT DUP3 ADD MSTORE8 PUSH1 0x1 NOT ADD MSTORE8 SWAP1 JUMP JUMPDEST DUP4 PUSH1 0x4 SWAP2 SWAP12 SWAP9 SWAP12 ADD SWAP11 DUP12 MLOAD PUSH1 0x1 SWAP1 PUSH1 0x3F SWAP1 DUP3 DUP3 DUP3 PUSH1 0x12 SHR AND DUP8 ADD ADD MLOAD DUP5 MSTORE8 DUP3 DUP3 DUP3 PUSH1 0xC SHR AND DUP8 ADD ADD MLOAD DUP4 DUP6 ADD MSTORE8 DUP3 DUP3 DUP3 PUSH1 0x6 SHR AND DUP8 ADD ADD MLOAD DUP8 DUP6 ADD MSTORE8 AND DUP5 ADD ADD MLOAD DUP6 DUP3 ADD MSTORE8 ADD SWAP7 SWAP10 PUSH2 0x2A90 JUMP JUMPDEST PUSH4 0x4E487B71 PUSH1 0xE0 SHL PUSH0 MSTORE PUSH1 0x11 PUSH1 0x4 MSTORE PUSH1 0x24 PUSH0 REVERT JUMPDEST SWAP1 POP PUSH1 0x40 MLOAD PUSH2 0x2B43 DUP2 PUSH2 0x20B6 JUMP JUMPDEST PUSH0 DUP2 MSTORE SWAP1 JUMP JUMPDEST SWAP2 SWAP3 SWAP2 DUP1 EXTCODESIZE ISZERO PUSH2 0x2C4E JUMPI PUSH2 0x2B92 SWAP4 PUSH1 0x40 MLOAD DUP1 SWAP3 PUSH4 0xA85BD01 PUSH1 0xE1 SHL SWAP5 DUP6 DUP4 MSTORE CALLER PUSH1 0x4 DUP5 ADD MSTORE PUSH0 PUSH1 0x24 DUP5 ADD MSTORE PUSH1 0x44 DUP4 ADD MSTORE PUSH1 0x80 PUSH1 0x64 DUP4 ADD MSTORE DUP2 PUSH0 DUP2 PUSH1 0x20 SWAP10 DUP11 SWAP7 PUSH1 0x84 DUP4 ADD SWAP1 PUSH2 0x2041 JUMP JUMPDEST SUB SWAP3 PUSH1 0x1 PUSH1 0x1 PUSH1 0xA0 SHL SUB AND GAS CALL PUSH0 SWAP2 DUP2 PUSH2 0x2C0E JUMPI JUMPDEST POP PUSH2 0x2BFF JUMPI DUP4 RETURNDATASIZE ISZERO PUSH2 0x2BF8 JUMPI RETURNDATASIZE PUSH2 0x2BBD DUP2 PUSH2 0x215C JUMP JUMPDEST SWAP1 PUSH2 0x2BCB PUSH1 0x40 MLOAD SWAP3 DUP4 PUSH2 0x213A JUMP JUMPDEST DUP2 MSTORE RETURNDATASIZE PUSH0 DUP4 DUP4 ADD RETURNDATACOPY JUMPDEST DUP1 MLOAD SWAP2 DUP3 PUSH2 0x2BF5 JUMPI PUSH1 0x40 MLOAD PUSH3 0x461BCD PUSH1 0xE5 SHL DUP2 MSTORE DUP1 PUSH2 0x2581 PUSH1 0x4 DUP3 ADD PUSH2 0x250E JUMP JUMPDEST ADD REVERT JUMPDEST PUSH1 0x60 PUSH2 0x2BD4 JUMP JUMPDEST PUSH1 0x1 PUSH1 0x1 PUSH1 0xE0 SHL SUB NOT AND EQ SWAP2 POP JUMP JUMPDEST SWAP1 SWAP2 POP DUP5 DUP2 DUP2 RETURNDATASIZE DUP4 GT PUSH2 0x2C47 JUMPI JUMPDEST PUSH2 0x2C26 DUP2 DUP4 PUSH2 0x213A JUMP JUMPDEST DUP2 ADD SUB SLT PUSH2 0x223 JUMPI MLOAD PUSH1 0x1 PUSH1 0x1 PUSH1 0xE0 SHL SUB NOT DUP2 AND DUP2 SUB PUSH2 0x223 JUMPI SWAP1 PUSH0 PUSH2 0x2BA7 JUMP JUMPDEST POP RETURNDATASIZE PUSH2 0x2C1C JUMP JUMPDEST POP PUSH1 0x1 SWAP3 POP POP JUMP JUMPDEST SWAP3 SWAP4 SWAP3 SWAP2 SWAP1 DUP1 EXTCODESIZE ISZERO PUSH2 0x2CD1 JUMPI SWAP4 PUSH0 SWAP2 PUSH2 0x2CAF SWAP6 PUSH1 0x1 DUP1 PUSH1 0xA0 SHL SUB SWAP2 PUSH1 0x40 MLOAD SWAP5 DUP4 DUP7 SWAP5 SWAP3 DUP6 SWAP4 PUSH4 0xA85BD01 PUSH1 0xE1 SHL SWAP10 DUP11 DUP7 MSTORE CALLER PUSH1 0x4 DUP8 ADD MSTORE AND PUSH1 0x24 DUP6 ADD MSTORE PUSH1 0x44 DUP5 ADD MSTORE PUSH1 0x80 PUSH1 0x64 DUP5 ADD MSTORE DUP3 PUSH1 0x20 SWAP11 DUP12 SWAP8 PUSH1 0x84 DUP4 ADD SWAP1 PUSH2 0x2041 JUMP JUMPDEST SUB SWAP4 AND GAS CALL PUSH0 SWAP2 DUP2 PUSH2 0x2C0E JUMPI POP PUSH2 0x2BFF JUMPI DUP4 RETURNDATASIZE ISZERO PUSH2 0x2BF8 JUMPI RETURNDATASIZE PUSH2 0x2BBD DUP2 PUSH2 0x215C JUMP JUMPDEST POP PUSH1 0x1 SWAP4 POP POP POP JUMP JUMPDEST PUSH1 0x40 MLOAD SWAP1 PUSH2 0x2CE7 DUP3 PUSH2 0x20E6 JUMP JUMPDEST PUSH1 0x7 DUP3 MSTORE PUSH7 0x119B23209AA323 PUSH1 0xC9 SHL PUSH1 0x20 DUP4 ADD MSTORE JUMP JUMPDEST PUSH1 0x40 MLOAD SWAP1 PUSH2 0x2D0A DUP3 PUSH2 0x20E6 JUMP JUMPDEST PUSH1 0x7 DUP3 MSTORE PUSH7 0x11A32322189B1B PUSH1 0xC9 SHL PUSH1 0x20 DUP4 ADD MSTORE JUMP JUMPDEST PUSH1 0x40 MLOAD SWAP1 PUSH2 0x2D2D DUP3 PUSH2 0x20E6 JUMP JUMPDEST PUSH1 0x7 DUP3 MSTORE PUSH7 0x23464639463645 PUSH1 0xC8 SHL PUSH1 0x20 DUP4 ADD MSTORE JUMP JUMPDEST PUSH1 0x40 MLOAD SWAP1 PUSH2 0x2D50 DUP3 PUSH2 0x20E6 JUMP JUMPDEST PUSH1 0x7 DUP3 MSTORE PUSH7 0x23423646463433 PUSH1 0xC8 SHL PUSH1 0x20 DUP4 ADD MSTORE JUMP JUMPDEST PUSH1 0xFF AND PUSH1 0x2 DUP2 EQ PUSH2 0x2D99 JUMPI PUSH1 0x3 DUP2 EQ PUSH2 0x2D90 JUMPI PUSH1 0x4 EQ PUSH2 0x2D88 JUMPI PUSH2 0x2284 PUSH2 0x2D43 JUMP JUMPDEST PUSH2 0x2284 PUSH2 0x2D20 JUMP JUMPDEST POP PUSH2 0x2284 PUSH2 0x2CFD JUMP JUMPDEST POP PUSH2 0x2284 PUSH2 0x2CDA JUMP JUMPDEST PUSH1 0xFF AND PUSH1 0x3 DUP2 EQ PUSH2 0x2D90 JUMPI PUSH1 0x4 EQ PUSH2 0x2D88 JUMPI PUSH2 0x2284 PUSH2 0x2D43 JUMP JUMPDEST PUSH1 0xFF AND PUSH1 0x2 DUP2 EQ SWAP1 DUP2 ISZERO PUSH2 0x2DFB JUMPI JUMPDEST POP PUSH2 0x2DF3 JUMPI PUSH1 0x40 MLOAD PUSH2 0x2DDC DUP2 PUSH2 0x20E6 JUMP JUMPDEST PUSH1 0x7 DUP2 MSTORE PUSH7 0x8CD0E510D90CD PUSH1 0xCA SHL PUSH1 0x20 DUP3 ADD MSTORE SWAP1 JUMP JUMPDEST PUSH2 0x2284 PUSH2 0x2CDA JUMP JUMPDEST PUSH1 0x5 SWAP2 POP EQ PUSH0 PUSH2 0x2DCB JUMP JUMPDEST PUSH1 0xFF AND PUSH1 0x1 DUP2 EQ PUSH2 0x276E JUMPI PUSH1 0x2 DUP2 EQ PUSH2 0x2EB3 JUMPI PUSH1 0x3 DUP2 EQ PUSH2 0x2E85 JUMPI PUSH1 0x4 EQ PUSH2 0x2E59 JUMPI PUSH1 0x40 MLOAD PUSH2 0x2E34 DUP2 PUSH2 0x20E6 JUMP JUMPDEST PUSH1 0x15 DUP2 MSTORE PUSH21 0x4D53582053696D756C6174696F6E20416363657373 PUSH1 0x58 SHL PUSH1 0x20 DUP3 ADD MSTORE SWAP1 JUMP JUMPDEST PUSH1 0x40 MLOAD PUSH2 0x2E65 DUP2 PUSH2 0x20E6 JUMP JUMPDEST PUSH1 0x10 DUP2 MSTORE PUSH16 0x26A9AC10283937B23AB1BA1028BAB4BD PUSH1 0x81 SHL PUSH1 0x20 DUP3 ADD MSTORE SWAP1 JUMP JUMPDEST POP PUSH1 0x40 MLOAD PUSH2 0x2E92 DUP2 PUSH2 0x20E6 JUMP JUMPDEST PUSH1 0x11 DUP2 MSTORE PUSH17 0x4D53582053746172746572204775696465 PUSH1 0x78 SHL PUSH1 0x20 DUP3 ADD MSTORE SWAP1 JUMP JUMPDEST POP PUSH1 0x40 MLOAD PUSH2 0x2EC0 DUP2 PUSH2 0x20E6 JUMP JUMPDEST PUSH1 0x11 DUP2 MSTORE PUSH17 0x1354D60810DBDB9B9958DD08145D595CDD PUSH1 0x7A SHL PUSH1 0x20 DUP3 ADD MSTORE SWAP1 JUMP JUMPDEST PUSH1 0xFF AND PUSH1 0x1 DUP2 EQ PUSH2 0x2F9C JUMPI PUSH1 0x2 DUP2 EQ PUSH2 0x2F74 JUMPI PUSH1 0x3 DUP2 EQ PUSH2 0x2F4E JUMPI PUSH1 0x4 EQ PUSH2 0x2F29 JUMPI PUSH1 0x40 MLOAD PUSH2 0x2F0F DUP2 PUSH2 0x20E6 JUMP JUMPDEST PUSH1 0xA DUP2 MSTORE PUSH10 0x5041504552204D4F4445 PUSH1 0xB0 SHL PUSH1 0x20 DUP3 ADD MSTORE SWAP1 JUMP JUMPDEST PUSH1 0x40 MLOAD PUSH2 0x2F35 DUP2 PUSH2 0x20E6 JUMP JUMPDEST PUSH1 0x9 DUP2 MSTORE PUSH9 0x5155495A205441534B PUSH1 0xB8 SHL PUSH1 0x20 DUP3 ADD MSTORE SWAP1 JUMP JUMPDEST POP PUSH1 0x40 MLOAD PUSH2 0x2F5B DUP2 PUSH2 0x20E6 JUMP JUMPDEST PUSH1 0x9 DUP2 MSTORE PUSH9 0x5249534B205441534B PUSH1 0xB8 SHL PUSH1 0x20 DUP3 ADD MSTORE SWAP1 JUMP JUMPDEST POP PUSH1 0x40 MLOAD PUSH2 0x2F81 DUP2 PUSH2 0x20E6 JUMP JUMPDEST PUSH1 0xB DUP2 MSTORE PUSH11 0x57414C4C4554205441534B PUSH1 0xA8 SHL PUSH1 0x20 DUP3 ADD MSTORE SWAP1 JUMP JUMPDEST POP PUSH1 0x40 MLOAD PUSH2 0x2FA9 DUP2 PUSH2 0x20E6 JUMP JUMPDEST PUSH1 0xD DUP2 MSTORE PUSH13 0x57454C434F4D45204241444745 PUSH1 0x98 SHL PUSH1 0x20 DUP3 ADD MSTORE SWAP1 JUMP JUMPDEST PUSH1 0x40 MLOAD SWAP1 PUSH2 0x2FD3 DUP3 PUSH2 0x20E6 JUMP JUMPDEST PUSH1 0x6 DUP3 MSTORE PUSH6 0x135253951151 PUSH1 0xD2 SHL PUSH1 0x20 DUP4 ADD MSTORE JUMP JUMPDEST PUSH1 0xFF AND PUSH1 0x1 DUP2 EQ PUSH2 0x3036 JUMPI PUSH1 0x2 DUP2 EQ PUSH2 0x3036 JUMPI PUSH1 0x3 DUP2 EQ PUSH2 0x3036 JUMPI PUSH1 0x4 EQ PUSH2 0x302E JUMPI PUSH1 0x40 MLOAD PUSH2 0x3016 DUP2 PUSH2 0x20E6 JUMP JUMPDEST PUSH1 0x8 DUP2 MSTORE PUSH8 0x15539313D0D2D151 PUSH1 0xC2 SHL PUSH1 0x20 DUP3 ADD MSTORE SWAP1 JUMP JUMPDEST PUSH2 0x2284 PUSH2 0x2FC6 JUMP JUMPDEST POP PUSH2 0x2284 PUSH2 0x2FC6 JUMP JUMPDEST PUSH1 0xFF AND PUSH1 0x1 DUP2 EQ PUSH2 0x3140 JUMPI PUSH1 0x2 DUP2 EQ PUSH2 0x3106 JUMPI PUSH1 0x3 DUP2 EQ PUSH2 0x30CC JUMPI PUSH1 0x4 EQ PUSH2 0x309A JUMPI PUSH1 0x40 MLOAD PUSH2 0x306D DUP2 PUSH2 0x20E6 JUMP JUMPDEST PUSH1 0x1A DUP2 MSTORE PUSH32 0x507261637469636520666C6F77206F70656E6564206166746572000000000000 PUSH1 0x20 DUP3 ADD MSTORE SWAP1 JUMP JUMPDEST PUSH1 0x40 MLOAD PUSH2 0x30A6 DUP2 PUSH2 0x20E6 JUMP JUMPDEST PUSH1 0x16 DUP2 MSTORE PUSH22 0x4F776E65727368697020616E6420646F776E73696465 PUSH1 0x50 SHL PUSH1 0x20 DUP3 ADD MSTORE SWAP1 JUMP JUMPDEST POP PUSH1 0x40 MLOAD PUSH2 0x30D9 DUP2 PUSH2 0x20E6 JUMP JUMPDEST PUSH1 0x19 DUP2 MSTORE PUSH32 0x5269736B2072657669657720636F6D706C6574656420666F7200000000000000 PUSH1 0x20 DUP3 ADD MSTORE SWAP1 JUMP JUMPDEST POP PUSH1 0x40 MLOAD PUSH2 0x3113 DUP2 PUSH2 0x20E6 JUMP JUMPDEST PUSH1 0x1A DUP2 MSTORE PUSH32 0x57616C6C65742061636365737320617070726F76656420666F72000000000000 PUSH1 0x20 DUP3 ADD MSTORE SWAP1 JUMP JUMPDEST POP PUSH1 0x40 MLOAD PUSH2 0x314D DUP2 PUSH2 0x20E6 JUMP JUMPDEST PUSH1 0x1B DUP2 MSTORE PUSH32 0x5365706F6C696120636F6C6C65637469626C6520666F72207468650000000000 PUSH1 0x20 DUP3 ADD MSTORE SWAP1 JUMP JUMPDEST PUSH1 0xFF AND PUSH1 0x1 DUP2 EQ PUSH2 0x326D JUMPI PUSH1 0x2 DUP2 EQ PUSH2 0x323C JUMPI PUSH1 0x3 DUP2 EQ PUSH2 0x3202 JUMPI PUSH1 0x4 EQ PUSH2 0x31D5 JUMPI PUSH1 0x40 MLOAD PUSH2 0x31A8 DUP2 PUSH2 0x20E6 JUMP JUMPDEST PUSH1 0x1A DUP2 MSTORE PUSH32 0x77616C6C6574207475746F7269616C20636F6D706C6574696F6E000000000000 PUSH1 0x20 DUP3 ADD MSTORE SWAP1 JUMP JUMPDEST PUSH1 0x40 MLOAD PUSH2 0x31E1 DUP2 PUSH2 0x20E6 JUMP JUMPDEST PUSH1 0x11 DUP2 MSTORE PUSH17 0x199C985B5A5B99C818DBDB999A5C9B5959 PUSH1 0x7A SHL PUSH1 0x20 DUP3 ADD MSTORE SWAP1 JUMP JUMPDEST POP PUSH1 0x40 MLOAD PUSH2 0x320F DUP2 PUSH2 0x20E6 JUMP JUMPDEST PUSH1 0x1A DUP2 MSTORE PUSH32 0x74686520677569646564206F6E626F617264696E6720666C6F77000000000000 PUSH1 0x20 DUP3 ADD MSTORE SWAP1 JUMP JUMPDEST POP PUSH1 0x40 MLOAD PUSH2 0x3249 DUP2 PUSH2 0x20E6 JUMP JUMPDEST PUSH1 0x14 DUP2 MSTORE PUSH20 0x746865204D53582077656C636F6D6520666C6F77 PUSH1 0x60 SHL PUSH1 0x20 DUP3 ADD MSTORE SWAP1 JUMP JUMPDEST POP PUSH1 0x40 MLOAD PUSH2 0x327A DUP2 PUSH2 0x20E6 JUMP JUMPDEST PUSH1 0x16 DUP2 MSTORE PUSH22 0x677569646564206F6E626F617264696E6720666C6F77 PUSH1 0x50 SHL PUSH1 0x20 DUP3 ADD MSTORE SWAP1 JUMP JUMPDEST ISZERO PUSH2 0x32A7 JUMPI JUMP JUMPDEST PUSH1 0x40 MLOAD PUSH3 0x461BCD PUSH1 0xE5 SHL DUP2 MSTORE PUSH1 0x20 PUSH1 0x4 DUP3 ADD MSTORE PUSH1 0x1C PUSH1 0x24 DUP3 ADD MSTORE PUSH32 0x4552433732313A20746F6B656E20616C7265616479206D696E74656400000000 PUSH1 0x44 DUP3 ADD MSTORE PUSH1 0x64 SWAP1 REVERT INVALID LOG2 PUSH5 0x6970667358 0x22 SLT KECCAK256 0xD7 0xF8 BLOBBASEFEE CALLDATACOPY 0xE5 0xEA 0xC3 0xCF SIGNEXTEND EXTCODEHASH 0xCB DIV 0xCC 0xC7 POP 0xF9 0xE8 0xD4 0xC1 SWAP5 COINBASE LOG0 0xE5 0x26 ADDMOD LOG2 TSTORE 0xFC 0xAF 0xCE 0xDC MULMOD PUSH5 0x736F6C6343 STOP ADDMOD XOR STOP CALLER "},"methodIdentifiers":{"BADGE_COUNT()":"4304f9a6","BADGE_PAPER()":"1cc6a906","BADGE_QUIZ()":"0ce1a02f","BADGE_RISK()":"59e0c9be","BADGE_WALLET()":"9ef94994","BADGE_WELCOME()":"bf68f848","approve(address,uint256)":"095ea7b3","balanceOf(address)":"70a08231","getApproved(uint256)":"081812fc","hasMinted(address)":"38e21cce","hasMintedBadge(address,uint8)":"01b4597d","hasMintedTask(address,uint8)":"6b3ce2f1","isApprovedForAll(address,address)":"e985e9c5","mintBadge(uint8,address)":"7206abbd","mintWelcomeBadge(address)":"52163337","name()":"06fdde03","nextTokenId()":"75794a3c","owner()":"8da5cb5b","ownerOf(uint256)":"6352211e","renounceOwnership()":"715018a6","safeTransferFrom(address,address,uint256)":"42842e0e","safeTransferFrom(address,address,uint256,bytes)":"b88d4fde","setApprovalForAll(address,bool)":"a22cb465","supportsInterface(bytes4)":"01ffc9a7","symbol()":"95d89b41","tokenBadgeType(uint256)":"8530a3bf","tokenURI(uint256)":"c87b56dd","transferFrom(address,address,uint256)":"23b872dd","transferOwnership(address)":"f2fde38b"}}}}}