{"project/contracts/MSXUnifiedDemoHub.sol":{"MSXUnifiedDemoHub":{"abi":[{"inputs":[{"internalType":"string","name":"baseUri","type":"string"}],"stateMutability":"nonpayable","type":"constructor"},{"anonymous":false,"inputs":[{"indexed":true,"internalType":"address","name":"account","type":"address"},{"indexed":true,"internalType":"uint256","name":"achievementId","type":"uint256"}],"name":"AchievementClaimed","type":"event"},{"anonymous":false,"inputs":[{"indexed":true,"internalType":"address","name":"account","type":"address"},{"indexed":true,"internalType":"address","name":"operator","type":"address"},{"indexed":false,"internalType":"bool","name":"approved","type":"bool"}],"name":"ApprovalForAll","type":"event"},{"anonymous":false,"inputs":[{"indexed":false,"internalType":"bytes32","name":"attestationRoot","type":"bytes32"},{"indexed":false,"internalType":"uint256","name":"timestamp","type":"uint256"}],"name":"AttestationUpdated","type":"event"},{"anonymous":false,"inputs":[{"indexed":true,"internalType":"address","name":"investor","type":"address"},{"indexed":false,"internalType":"bool","name":"allowed","type":"bool"},{"indexed":true,"internalType":"uint8","name":"tier","type":"uint8"}],"name":"InvestorEligibilityUpdated","type":"event"},{"anonymous":false,"inputs":[{"indexed":false,"internalType":"uint256","name":"navBps","type":"uint256"},{"indexed":false,"internalType":"uint256","name":"timestamp","type":"uint256"}],"name":"NavUpdated","type":"event"},{"anonymous":false,"inputs":[{"indexed":true,"internalType":"address","name":"previousOwner","type":"address"},{"indexed":true,"internalType":"address","name":"newOwner","type":"address"}],"name":"OwnershipTransferred","type":"event"},{"anonymous":false,"inputs":[{"indexed":true,"internalType":"address","name":"investor","type":"address"},{"indexed":false,"internalType":"uint256","name":"shareAmount","type":"uint256"},{"indexed":false,"internalType":"uint256","name":"assetAmount","type":"uint256"}],"name":"Redeemed","type":"event"},{"anonymous":false,"inputs":[{"indexed":true,"internalType":"address","name":"account","type":"address"},{"indexed":false,"internalType":"int256","name":"netPnl","type":"int256"},{"indexed":false,"internalType":"uint256","name":"accountValue","type":"uint256"},{"indexed":false,"internalType":"uint256","name":"tradeCount","type":"uint256"},{"indexed":false,"internalType":"uint256","name":"submittedAt","type":"uint256"}],"name":"ReplayScoreSubmitted","type":"event"},{"anonymous":false,"inputs":[{"indexed":false,"internalType":"string","name":"status","type":"string"},{"indexed":false,"internalType":"uint256","name":"timestamp","type":"uint256"}],"name":"StrategyStatusUpdated","type":"event"},{"anonymous":false,"inputs":[{"indexed":true,"internalType":"address","name":"investor","type":"address"},{"indexed":false,"internalType":"uint256","name":"assetAmount","type":"uint256"},{"indexed":false,"internalType":"uint256","name":"shareAmount","type":"uint256"}],"name":"Subscribed","type":"event"},{"anonymous":false,"inputs":[{"indexed":true,"internalType":"address","name":"recipient","type":"address"},{"indexed":true,"internalType":"uint8","name":"badgeType","type":"uint8"},{"indexed":true,"internalType":"uint256","name":"tokenId","type":"uint256"}],"name":"TaskBadgeMinted","type":"event"},{"anonymous":false,"inputs":[{"indexed":true,"internalType":"address","name":"operator","type":"address"},{"indexed":true,"internalType":"address","name":"from","type":"address"},{"indexed":true,"internalType":"address","name":"to","type":"address"},{"indexed":false,"internalType":"uint256[]","name":"ids","type":"uint256[]"},{"indexed":false,"internalType":"uint256[]","name":"values","type":"uint256[]"}],"name":"TransferBatch","type":"event"},{"anonymous":false,"inputs":[{"indexed":true,"internalType":"address","name":"operator","type":"address"},{"indexed":true,"internalType":"address","name":"from","type":"address"},{"indexed":true,"internalType":"address","name":"to","type":"address"},{"indexed":false,"internalType":"uint256","name":"id","type":"uint256"},{"indexed":false,"internalType":"uint256","name":"value","type":"uint256"}],"name":"TransferSingle","type":"event"},{"anonymous":false,"inputs":[{"indexed":false,"internalType":"string","name":"value","type":"string"},{"indexed":true,"internalType":"uint256","name":"id","type":"uint256"}],"name":"URI","type":"event"},{"anonymous":false,"inputs":[{"indexed":true,"internalType":"bytes32","name":"assetHash","type":"bytes32"},{"indexed":false,"internalType":"bool","name":"passed","type":"bool"},{"indexed":false,"internalType":"string","name":"note","type":"string"}],"name":"UnderlyingReviewRecorded","type":"event"},{"anonymous":false,"inputs":[{"indexed":true,"internalType":"address","name":"account","type":"address"},{"indexed":true,"internalType":"uint8","name":"taskId","type":"uint8"}],"name":"WealthTaskCompleted","type":"event"},{"inputs":[],"name":"ASSET_DECIMALS","outputs":[{"internalType":"uint8","name":"","type":"uint8"}],"stateMutability":"view","type":"function"},{"inputs":[],"name":"BPS","outputs":[{"internalType":"uint256","name":"","type":"uint256"}],"stateMutability":"view","type":"function"},{"inputs":[],"name":"HOME_PAPER","outputs":[{"internalType":"uint8","name":"","type":"uint8"}],"stateMutability":"view","type":"function"},{"inputs":[],"name":"HOME_QUIZ","outputs":[{"internalType":"uint8","name":"","type":"uint8"}],"stateMutability":"view","type":"function"},{"inputs":[],"name":"HOME_RISK","outputs":[{"internalType":"uint8","name":"","type":"uint8"}],"stateMutability":"view","type":"function"},{"inputs":[],"name":"HOME_WALLET","outputs":[{"internalType":"uint8","name":"","type":"uint8"}],"stateMutability":"view","type":"function"},{"inputs":[],"name":"HOME_WELCOME","outputs":[{"internalType":"uint8","name":"","type":"uint8"}],"stateMutability":"view","type":"function"},{"inputs":[],"name":"MAX_SCORE_SUBMISSIONS_PER_DAY","outputs":[{"internalType":"uint256","name":"","type":"uint256"}],"stateMutability":"view","type":"function"},{"inputs":[],"name":"PAPER_BASE_CHECK","outputs":[{"internalType":"uint256","name":"","type":"uint256"}],"stateMutability":"view","type":"function"},{"inputs":[],"name":"PAPER_BUY_ONE_RECEIPT","outputs":[{"internalType":"uint256","name":"","type":"uint256"}],"stateMutability":"view","type":"function"},{"inputs":[],"name":"PAPER_LEADERBOARD","outputs":[{"internalType":"uint256","name":"","type":"uint256"}],"stateMutability":"view","type":"function"},{"inputs":[],"name":"PAPER_SETTLE_OR_PLEDGE","outputs":[{"internalType":"uint256","name":"","type":"uint256"}],"stateMutability":"view","type":"function"},{"inputs":[],"name":"PAPER_SPOT_LOOP","outputs":[{"internalType":"uint256","name":"","type":"uint256"}],"stateMutability":"view","type":"function"},{"inputs":[],"name":"WEALTH_BUY_RECEIPT","outputs":[{"internalType":"uint8","name":"","type":"uint8"}],"stateMutability":"view","type":"function"},{"inputs":[],"name":"WEALTH_SETTLE_OR_PLEDGE","outputs":[{"internalType":"uint8","name":"","type":"uint8"}],"stateMutability":"view","type":"function"},{"inputs":[{"internalType":"bytes32","name":"","type":"bytes32"}],"name":"approvedUnderlyingHash","outputs":[{"internalType":"bool","name":"","type":"bool"}],"stateMutability":"view","type":"function"},{"inputs":[],"name":"assetSymbol","outputs":[{"internalType":"string","name":"","type":"string"}],"stateMutability":"view","type":"function"},{"inputs":[{"internalType":"address","name":"account","type":"address"},{"internalType":"uint256","name":"id","type":"uint256"}],"name":"balanceOf","outputs":[{"internalType":"uint256","name":"","type":"uint256"}],"stateMutability":"view","type":"function"},{"inputs":[{"internalType":"address[]","name":"accounts","type":"address[]"},{"internalType":"uint256[]","name":"ids","type":"uint256[]"}],"name":"balanceOfBatch","outputs":[{"internalType":"uint256[]","name":"","type":"uint256[]"}],"stateMutability":"view","type":"function"},{"inputs":[{"internalType":"address","name":"investor","type":"address"}],"name":"canAccessAdvancedShelf","outputs":[{"internalType":"bool","name":"","type":"bool"}],"stateMutability":"view","type":"function"},{"inputs":[{"internalType":"uint256","name":"achievementId","type":"uint256"}],"name":"claim","outputs":[],"stateMutability":"nonpayable","type":"function"},{"inputs":[{"internalType":"uint256[]","name":"achievementIds","type":"uint256[]"}],"name":"claimBatch","outputs":[],"stateMutability":"nonpayable","type":"function"},{"inputs":[{"internalType":"address","name":"","type":"address"}],"name":"eligibleInvestor","outputs":[{"internalType":"bool","name":"","type":"bool"}],"stateMutability":"view","type":"function"},{"inputs":[{"internalType":"address","name":"holder","type":"address"}],"name":"hasMinted","outputs":[{"internalType":"bool","name":"","type":"bool"}],"stateMutability":"view","type":"function"},{"inputs":[{"internalType":"address","name":"","type":"address"},{"internalType":"uint8","name":"","type":"uint8"}],"name":"hasMintedBadge","outputs":[{"internalType":"bool","name":"","type":"bool"}],"stateMutability":"view","type":"function"},{"inputs":[{"internalType":"address","name":"holder","type":"address"},{"internalType":"uint8","name":"badgeType","type":"uint8"}],"name":"hasMintedTask","outputs":[{"internalType":"bool","name":"","type":"bool"}],"stateMutability":"view","type":"function"},{"inputs":[{"internalType":"address","name":"","type":"address"}],"name":"hasSubmittedScore","outputs":[{"internalType":"bool","name":"","type":"bool"}],"stateMutability":"view","type":"function"},{"inputs":[{"internalType":"address","name":"holder","type":"address"},{"internalType":"uint8","name":"taskId","type":"uint8"}],"name":"hasWealthTask","outputs":[{"internalType":"bool","name":"","type":"bool"}],"stateMutability":"view","type":"function"},{"inputs":[{"internalType":"address","name":"account","type":"address"},{"internalType":"address","name":"operator","type":"address"}],"name":"isApprovedForAll","outputs":[{"internalType":"bool","name":"","type":"bool"}],"stateMutability":"view","type":"function"},{"inputs":[],"name":"lastAttestedAt","outputs":[{"internalType":"uint256","name":"","type":"uint256"}],"stateMutability":"view","type":"function"},{"inputs":[],"name":"latestAttestationRoot","outputs":[{"internalType":"bytes32","name":"","type":"bytes32"}],"stateMutability":"view","type":"function"},{"inputs":[{"internalType":"uint8","name":"taskId","type":"uint8"}],"name":"markWealthTask","outputs":[],"stateMutability":"nonpayable","type":"function"},{"inputs":[],"name":"minSubscription","outputs":[{"internalType":"uint256","name":"","type":"uint256"}],"stateMutability":"view","type":"function"},{"inputs":[{"internalType":"uint8","name":"badgeType","type":"uint8"},{"internalType":"address","name":"to","type":"address"}],"name":"mintBadge","outputs":[{"internalType":"uint256","name":"tokenId","type":"uint256"}],"stateMutability":"nonpayable","type":"function"},{"inputs":[{"internalType":"address","name":"to","type":"address"}],"name":"mintWelcomeBadge","outputs":[{"internalType":"uint256","name":"tokenId","type":"uint256"}],"stateMutability":"nonpayable","type":"function"},{"inputs":[],"name":"navBps","outputs":[{"internalType":"uint256","name":"","type":"uint256"}],"stateMutability":"view","type":"function"},{"inputs":[],"name":"nextHomeTokenId","outputs":[{"internalType":"uint256","name":"","type":"uint256"}],"stateMutability":"view","type":"function"},{"inputs":[],"name":"owner","outputs":[{"internalType":"address","name":"","type":"address"}],"stateMutability":"view","type":"function"},{"inputs":[{"internalType":"uint256","name":"shareAmount","type":"uint256"}],"name":"previewAssets","outputs":[{"internalType":"uint256","name":"","type":"uint256"}],"stateMutability":"view","type":"function"},{"inputs":[{"internalType":"uint256","name":"assetAmount","type":"uint256"}],"name":"previewShares","outputs":[{"internalType":"uint256","name":"","type":"uint256"}],"stateMutability":"view","type":"function"},{"inputs":[{"internalType":"bytes32","name":"assetHash","type":"bytes32"},{"internalType":"bool","name":"passed","type":"bool"},{"internalType":"string","name":"note","type":"string"}],"name":"recordUnderlyingReview","outputs":[],"stateMutability":"nonpayable","type":"function"},{"inputs":[{"internalType":"uint256","name":"shareAmount","type":"uint256"}],"name":"redeem","outputs":[{"internalType":"uint256","name":"assetAmount","type":"uint256"}],"stateMutability":"nonpayable","type":"function"},{"inputs":[],"name":"renounceOwnership","outputs":[],"stateMutability":"nonpayable","type":"function"},{"inputs":[{"internalType":"address","name":"","type":"address"}],"name":"replayScoreOf","outputs":[{"internalType":"int256","name":"bestNetPnl","type":"int256"},{"internalType":"uint256","name":"bestAccountValue","type":"uint256"},{"internalType":"uint256","name":"bestTradeCount","type":"uint256"},{"internalType":"uint256","name":"lastSubmittedAt","type":"uint256"},{"internalType":"uint256","name":"submissionCount","type":"uint256"},{"internalType":"uint256","name":"submissionDay","type":"uint256"},{"internalType":"uint256","name":"submissionsToday","type":"uint256"}],"stateMutability":"view","type":"function"},{"inputs":[{"internalType":"address","name":"","type":"address"}],"name":"riskTier","outputs":[{"internalType":"uint8","name":"","type":"uint8"}],"stateMutability":"view","type":"function"},{"inputs":[{"internalType":"address","name":"from","type":"address"},{"internalType":"address","name":"to","type":"address"},{"internalType":"uint256[]","name":"ids","type":"uint256[]"},{"internalType":"uint256[]","name":"amounts","type":"uint256[]"},{"internalType":"bytes","name":"data","type":"bytes"}],"name":"safeBatchTransferFrom","outputs":[],"stateMutability":"nonpayable","type":"function"},{"inputs":[{"internalType":"address","name":"from","type":"address"},{"internalType":"address","name":"to","type":"address"},{"internalType":"uint256","name":"id","type":"uint256"},{"internalType":"uint256","name":"amount","type":"uint256"},{"internalType":"bytes","name":"data","type":"bytes"}],"name":"safeTransferFrom","outputs":[],"stateMutability":"nonpayable","type":"function"},{"inputs":[{"internalType":"uint256","name":"index","type":"uint256"}],"name":"scoreAccountAt","outputs":[{"internalType":"address","name":"","type":"address"}],"stateMutability":"view","type":"function"},{"inputs":[],"name":"scoreAccountCount","outputs":[{"internalType":"uint256","name":"","type":"uint256"}],"stateMutability":"view","type":"function"},{"inputs":[{"internalType":"address","name":"operator","type":"address"},{"internalType":"bool","name":"approved","type":"bool"}],"name":"setApprovalForAll","outputs":[],"stateMutability":"nonpayable","type":"function"},{"inputs":[{"internalType":"string","name":"nextUri","type":"string"}],"name":"setBaseUri","outputs":[],"stateMutability":"nonpayable","type":"function"},{"inputs":[{"internalType":"address","name":"investor","type":"address"},{"internalType":"bool","name":"allowed","type":"bool"},{"internalType":"uint8","name":"tier","type":"uint8"}],"name":"setInvestorEligibility","outputs":[],"stateMutability":"nonpayable","type":"function"},{"inputs":[{"internalType":"uint256","name":"nextMinSubscription","type":"uint256"}],"name":"setMinSubscription","outputs":[],"stateMutability":"nonpayable","type":"function"},{"inputs":[{"internalType":"uint256","name":"nextNavBps","type":"uint256"}],"name":"setNavBps","outputs":[],"stateMutability":"nonpayable","type":"function"},{"inputs":[{"internalType":"string","name":"nextStatus","type":"string"}],"name":"setStrategyStatus","outputs":[],"stateMutability":"nonpayable","type":"function"},{"inputs":[{"internalType":"bool","name":"paused","type":"bool"}],"name":"setSubscriptionsPaused","outputs":[],"stateMutability":"nonpayable","type":"function"},{"inputs":[],"name":"strategyStatus","outputs":[{"internalType":"string","name":"","type":"string"}],"stateMutability":"view","type":"function"},{"inputs":[{"internalType":"int256","name":"netPnl","type":"int256"},{"internalType":"uint256","name":"accountValue","type":"uint256"},{"internalType":"uint256","name":"tradeCount","type":"uint256"}],"name":"submitScore","outputs":[],"stateMutability":"nonpayable","type":"function"},{"inputs":[{"internalType":"uint256","name":"assetAmount","type":"uint256"}],"name":"subscribe","outputs":[{"internalType":"uint256","name":"shareAmount","type":"uint256"}],"stateMutability":"nonpayable","type":"function"},{"inputs":[],"name":"subscriptionsPaused","outputs":[{"internalType":"bool","name":"","type":"bool"}],"stateMutability":"view","type":"function"},{"inputs":[{"internalType":"bytes4","name":"interfaceId","type":"bytes4"}],"name":"supportsInterface","outputs":[{"internalType":"bool","name":"","type":"bool"}],"stateMutability":"view","type":"function"},{"inputs":[{"internalType":"uint256","name":"","type":"uint256"}],"name":"tokenBadgeType","outputs":[{"internalType":"uint8","name":"","type":"uint8"}],"stateMutability":"view","type":"function"},{"inputs":[{"internalType":"address","name":"newOwner","type":"address"}],"name":"transferOwnership","outputs":[],"stateMutability":"nonpayable","type":"function"},{"inputs":[{"internalType":"bytes32","name":"nextAttestationRoot","type":"bytes32"}],"name":"updateAttestation","outputs":[],"stateMutability":"nonpayable","type":"function"},{"inputs":[{"internalType":"uint256","name":"","type":"uint256"}],"name":"uri","outputs":[{"internalType":"string","name":"","type":"string"}],"stateMutability":"view","type":"function"},{"inputs":[],"name":"vaultLabel","outputs":[{"internalType":"string","name":"","type":"string"}],"stateMutability":"view","type":"function"},{"inputs":[{"internalType":"address","name":"","type":"address"},{"internalType":"uint8","name":"","type":"uint8"}],"name":"wealthTaskCompleted","outputs":[{"internalType":"bool","name":"","type":"bool"}],"stateMutability":"view","type":"function"}],"evm":{"bytecode":{"linkReferences":{},"object":"6080604052346200034857620038b0803803806200001d816200034c565b9283398101906020918282820312620003485781516001600160401b039283821162000348570191601f9180838501121562000348578351938285116200032057601f199462000073858201871688016200034c565b92818452878284010111620003485786915f5b82811062000334575050905f918301015280519182116200032057620000ae60025462000372565b838111620002e4575b508493838311600114620002815750928192935f9262000275575b50508160011b915f199060031b1c1916176002555b60038054336001600160a01b0319821681179092556001600160a01b03167f8be0079c531659141344cd1fd0a4f28419497f9722a3daafe3b4186f6b6457e05f80a36001600455612710600555631dcd650060065562000149600b5462000372565b81811162000253575b507f4d535820556e69666965642044656d6f205661756c740000000000000000002c600b55600c54620001859062000372565b81811162000231575b50600461141560f21b01600c55600a54620001a99062000372565b908082116200020f575b7f44656d6f20726561647900000000000000000000000000000000000000000014600a557f1f2f66bee3a390b49111cd6d6b87258a0e89b1d86dca9b267ce7dc032f67eb7e600955426007556040516134ea9081620003c68239f35b6200022892600a5f525f20910160051c810190620003ad565b5f8080620001b3565b6200024c90600c5f5282845f20910160051c810190620003ad565b5f6200018e565b6200026e90600b5f5282845f20910160051c810190620003ad565b5f62000152565b015190505f80620000d2565b82169360025f52855f20915f5b87878210620002cd575050836001959610620002b4575b505050811b01600255620000e7565b01515f1960f88460031b161c191690555f8080620002a5565b60018495829395850151815501940192016200028e565b6200030f9060025f52865f208580860160051c82019289871062000316575b0160051c0190620003ad565b5f620000b7565b9250819262000303565b634e487b7160e01b5f52604160045260245ffd5b818101840151858201850152830162000086565b5f80fd5b6040519190601f01601f191682016001600160401b038111838210176200032057604052565b90600182811c92168015620003a2575b60208310146200038e57565b634e487b7160e01b5f52602260045260245ffd5b91607f169162000382565b818110620003b9575050565b5f8155600101620003ad56fe604060808152600480361015610013575f80fd5b5f3560e01c9081629b27af146128d3578162fdd58e146128ab57816301b4597d1461285a57816301ffc9a7146127ee57816302cea26b146127c95781630e89341c1461271b5781630f574ba7146124d0578163176de7a814612421578163176f1cdd14612372578163179649ad146122cd5781631a2e9996146122245781631de3083d1461121d578163218900b414612206578163249d39e9146121ea5781632e6f6b1f146121cc5781632eb2c2d614611f325781632f85874a14611f145781632fb4e0f914611e33578163379607f514611dc657816338e21cce14611d8157816341be5f6414611d635781634973fd9a14611d375781634adb4cc814611d195781634d7c10a714611cdd5781634e1273f414611b6d57816352163337146118b357816355cc0261146116cf57816357997aa214610a4c57816360062cd11461072a57816362abebce1461143d5781636961fd46146112945781636b3ce2f1146112385781636e3dbb711461121d5781636ea17abd14611202578163715018a6146111a75781637206abbd14610fd95781638385f14a14610fbd5781638530a3bf14610f935781638d00bbe514610f405781638da5cb5b14610f185781638f631d5414610e1c57816399b49e2514610ebf5781639a2aaca114610e375781639cb9e49714610e1c578163a0bcfc7f14610c85578163a22cb46514610ba4578163aec45d8014610b43578163b363935c14610b28578163b5884e2014610a8b578163b84d93d414610a51578163c4ebe02414610a4c578163c8a3c3b5146109d6578163cad471921461039b578163cb33bcdb14610985578163cf22928d14610962578163d28c390a14610935578163d4b0521b146108ba578163db006a751461072f578163dcb2125b1461072a578163e985e9c5146106dc578163eeaa8177146106c1578163f242432a14610486578163f2fde38b146103bb578163f4db8984146103a0578163f5952d121461039b578163f68e55c31461033b575063f9569673146102fc575f80fd5b34610337576020366003190112610337576020906001600160a01b03610320612918565b165f526014825260ff815f20541690519015158152f35b5f80fd5b90503461033757602036600319011261033757803591610359612f22565b8215610366576006839055005b906020606492519162461bcd60e51b8352820152600f60248201526e496e76616c6964206d696e696d756d60881b6044820152fd5b612bbe565b8234610337575f366003190112610337576020905160068152f35b905034610337576020366003190112610337576103d6612918565b906103df612f22565b6001600160a01b03918216928315610434575050600354826bffffffffffffffffffffffff60a01b821617600355167f8be0079c531659141344cd1fd0a4f28419497f9722a3daafe3b4186f6b6457e05f80a3005b906020608492519162461bcd60e51b8352820152602660248201527f4f776e61626c653a206e6577206f776e657220697320746865207a65726f206160448201526564647265737360d01b6064820152fd5b9050346103375760a0366003190112610337576104a1612918565b916104aa61292e565b9260443590606435906084356001600160401b038111610337576104d19036908701612b3a565b916001600160a01b0391821691338314801561069e575b6104f190612d52565b87166104fe8115156131d3565b61050785613329565b5061051182613329565b50845f526020975f8952865f20845f52895282875f20546105348282101561322d565b875f525f8b52885f20865f528b5203875f2055855f525f8952865f20825f528952865f20610563848254612ed4565b905581848851888152858c8201525f805160206134958339815191528a3392a43b61058a57005b86945f89946105cc89519788968795869463f23a6e6160e01b9c8d8752339087015260248601526044850152606484015260a0608484015260a4830190612964565b03925af15f918161066f575b506106405750506105e76133b7565b6308c379a01461060f575b5162461bcd60e51b81529150819061060b90820161343f565b0390fd5b6106176133d2565b8061062257506105f2565b61060b915193849362461bcd60e51b85528401526024830190612964565b9193506001600160e01b03199091160361065657005b905162461bcd60e51b815290819061060b90820161336e565b610690919250863d8811610697575b6106888183612a24565b81019061334e565b905f6105d8565b503d61067e565b50825f526001602052855f20335f526020526104f160ff875f20541690506104e8565b8234610337575f366003190112610337576020905160038152f35b82346103375780600319360112610337576020906106f8612918565b61070061292e565b9060018060a01b038091165f5260018452825f2091165f52825260ff815f20541690519015158152f35b612ba3565b9050346103375760209182600319360112610337578135610751811515612cb6565b61271061076060055483612c59565b0492331561086b576107706132db565b5061077a82613329565b505f8351610787816129da565b5260c95f525f8552825f20335f528552825f20549082821061081c5750819060c95f525f8652835f20335f52865203825f20555f825160c98152828682015233905f80516020613495833981519152853392a45f82516107e6816129da565b52815190815282848201527ff3a670cd3af7d64b488926880889d08a8585a138ff455227af6737339a1ec262823392a251908152f35b835162461bcd60e51b81529081018690526024808201527f455243313135353a206275726e20616d6f756e7420657863656564732062616c604482015263616e636560e01b6064820152608490fd5b825162461bcd60e51b8152908101859052602360248201527f455243313135353a206275726e2066726f6d20746865207a65726f206164647260448201526265737360e81b6064820152608490fd5b905034610337576020366003190112610337578035906015548210156108fc576020836108e684612e9f565b905491519160018060a01b039160031b1c168152f35b606490602084519162461bcd60e51b83528201526013602482015272496e646578206f7574206f6620626f756e647360681b6044820152fd5b82346103375760203660031901126103375761271061095a6020936005549035612c59565b049051908152f35b8234610337575f3660031901126103375760209060ff6008541690519015158152f35b82346103375780600319360112610337576020906109a1612918565b6109a9612944565b6001600160a01b039091165f908152600f845282812060ff92831682528452829020549151911615158152f35b82346103375760203660031901126103375760e0916001600160a01b036109fb612918565b165f526013602052815f208054926001820154926002830154600384015491840154926006600586015495015495815197885260208801528601526060850152608084015260a083015260c0820152f35b612b88565b8234610337576020366003190112610337576020906001600160a01b03610a76612918565b165f526011825260ff815f2054169051908152f35b823461033757606036600319011261033757610aa5612918565b90610aae612909565b6044359260ff8416809403610337577fa0aa2b85df88566521daa2ac1eb0694994372f9f1e64a41307f9d06a571f921291602091610aea612f22565b6001600160a01b03165f81815260108452859020805460ff191660ff841515161790559360118352805f208660ff19825416179055519015158152a3005b8234610337575f366003190112610337576020905160018152f35b8234610337578060031936011261033757602090610b5f612918565b610b67612944565b90610b79610b748361315c565b612d10565b6001600160a01b03165f908152600f845282812060ff92831682528452829020549151911615158152f35b8234610337578060031936011261033757610bbd612918565b90610bc6612909565b6001600160a01b0390921692338414610c315750335f526001602052805f20835f52602052610c0382825f209060ff801983541691151516179055565b5190151581527f17307eab39ab6107e8899845ad3d59bd9653f200f220920489ca2b5937696c3160203392a3005b6020608492519162461bcd60e51b8352820152602960248201527f455243313135353a2073657474696e6720617070726f76616c20737461747573604482015268103337b91039b2b63360b91b6064820152fd5b3461033757602080600319360112610337576001600160401b0390823582811161033757610cb9610cc89136908601612a45565b610cc1612f22565b3691612af5565b928351928311610e095750610cde6002546129a2565b601f8111610da6575b50602090601f8311600114610d2857508190610d18935f92610d1d575b50508160011b915f199060031b1c19161790565b600255005b015190508380610d04565b90601f1983169360025f527f405787fa12a823e0f2b7631cc41b3ba8828b3321ca811111fa75cd3aa3bb5ace925f905b868210610d8e5750508360019510610d76575b505050811b01600255005b01515f1960f88460031b161c19169055828080610d6b565b80600185968294968601518155019501930190610d58565b60025f527f405787fa12a823e0f2b7631cc41b3ba8828b3321ca811111fa75cd3aa3bb5ace601f840160051c81019160208510610dff575b601f0160051c01905b818110610df45750610ce7565b5f8155600101610de7565b9091508190610dde565b604190634e487b7160e01b5f525260245ffd5b905034610337575f3660031901126103375760209151908152f35b8234610337576020366003190112610337578135610e53612f22565b8015610e8e577f1e1223c1f6274c6d64fdb08c485e192bd2896c9abf70e840e199ac1f54d6d1d59250806005558151908152426020820152a1005b815162461bcd60e51b8152602081850152600b60248201526a24b73b30b634b2102720ab60a91b6044820152606490fd5b8234610337576020366003190112610337576020906001600160a01b03610ee4612918565b165f526010825260ff815f2054169081610f01575b519015158152f35b905060118252600260ff825f205416101590610ef9565b8234610337575f3660031901126103375760035490516001600160a01b039091168152602090f35b8234610337576020366003190112610337577f181f92f68826a8d2b5b97d27f9e18d05a337290356fabf5b717154077dbea9339135610f7d612f22565b80600955426007558151908152426020820152a1005b823461033757602036600319011261033757602091355f52600e825260ff815f2054169051908152f35b8234610337575f36600319011261033757602091549051908152f35b905034610337578160031936011261033757610ff3612954565b91610ffc61292e565b9261100e611009826132c9565b612ee1565b6001600160a01b03841680156111705780330361113c57805f52602094600d865260ff845f20931692835f52865260ff845f20541661110257845494600186018087116110ef578155825f52600d8752845f20845f528752845f2060ff1990600182825416179055865f52600e885284865f20918254161790558360640190816064116110dc5750859392916110b2918651916110aa836129da565b5f8352612fd0565b7f4c7380f1d23a71f74fa1303f23b7100826e4a89a4e47b2985e5c708e47a19b3a5f80a451908152f35b601190634e487b7160e01b5f525260245ffd5b601182634e487b7160e01b5f525260245ffd5b835162461bcd60e51b8152808601879052601460248201527310985919d948185b1c9958591e481b5a5b9d195960621b6044820152606490fd5b825162461bcd60e51b8152602081860152600e60248201526d13db9b1e481cd95b19881b5a5b9d60921b6044820152606490fd5b825162461bcd60e51b81526020818601526011602482015270125b9d985b1a59081c9958da5c1a595b9d607a1b6044820152606490fd5b34610337575f366003190112610337576111bf612f22565b600380546001600160a01b031981169091555f906001600160a01b03167f8be0079c531659141344cd1fd0a4f28419497f9722a3daafe3b4186f6b6457e08280a3005b8234610337575f366003190112610337576020905160028152f35b8234610337575f366003190112610337576020905160058152f35b8234610337578060031936011261033757602090611254612918565b61125c612944565b90611269611009836132c9565b6001600160a01b03165f908152600d845282812060ff92831682528452829020549151911615158152f35b9050346103375760603660031901126103375780359160243560443592335f526013602052825f20906201518042046014602052845f20805460ff8116156113da575b505060058301818154036113cc575b50506006820190815492600384101561138957808291548913611375575b42600382015501805490600182018092116113625755600183018093116110dc575055815193845260208401528201524260608201527ff6d69723c1e13a6e751ff8839d394f04ffffc588fdd13a7cfd1fdfc1bf87ebe160803392a2005b601183634e487b7160e01b5f525260245ffd5b888155856001820155876002820155611304565b855162461bcd60e51b8152602081840152601960248201527f4461696c792073636f7265206c696d69742072656163686564000000000000006044820152606490fd5b555f60068301555f806112e6565b60ff191660011790556015546801000000000000000081101561142a578060016114079201601555612e9f565b81546001600160a01b0360039290921b91821b19163390911b1790555f806112d7565b604183634e487b7160e01b5f525260245ffd5b823461033757602091600319918383360112610337578135936001600160401b0380861161033757366023870112156103375785840135908111610337576024860195602436918360051b0101116103375761149881612e35565b905f5b81811061168b57506114ae368289612a89565b948451966114bb886129da565b5f88526114c9331515612f7a565b6114d68751855114613176565b5f5b875181101561151d57806114ee60019287612e67565b516114f9828b612e67565b515f525f8852885f20335f528852611515895f20918254612ed4565b9055016114d8565b5090949395919684515f33917f4a39dc06d4c0dbc64b70af90fd698a233a518aa5d07e595d983b8c0526c8f7fb3391806115588a8a8361328c565b0390a4333b6115ae575b505050505050505f5b81811061157457005b806115826001928486612e8f565b35337f04844d30b922ffc2b845400eb2a15cdd62742176c723e09d7cc9703e83645e4b5f80a30161156b565b85979496989593926116108a936115f1936116018b51978896879663bc197c8160e01b9b8c895233908901525f602489015260a0604489015260a4880190612b55565b9084878303016064880152612b55565b91848303016084850152612964565b03815f335af15f918161166c575b5061162f57505050506105e76133b7565b929550909392916001600160e01b0319160361165357505082808080808080611562565b5162461bcd60e51b81529150819061060b90820161336e565b611684919250883d8a11610697576106888183612a24565b908861161e565b806116bd6116b761169f600194868d612e8f565b356116b16116ac826132b1565b612db5565b33612bd9565b15612df7565b816116c88286612e67565b520161149b565b90503461033757602080600319360112610337576001600160401b03908235828111610337576117029036908501612a45565b93909261170d612f22565b8411610e09575061171f600a546129a2565b601f8111611850575b505f90601f84116001146117a757507f09fb0a9f79f07cf16c95b92623175f408d609663d7868ae62581439d923470bd939161177d8480611791945f9161179c575b508160011b915f199060031b1c19161790565b600a555b8251938385948552840191612cf0565b4260208301520390a1005b90508301355f61176a565b90601f198416600a5f527fc65a7bb8d6351c1cf70c95a316cc6a92839c986682d98bc35f958f4883f9d2a8925f905b828210611838575050917f09fb0a9f79f07cf16c95b92623175f408d609663d7868ae62581439d923470bd95939185611791941061181f575b5050600184811b01600a55611781565b8201355f19600387901b60f8161c191690555f8061180f565b806001859682949689013581550195019301906117d6565b600a5f527fc65a7bb8d6351c1cf70c95a316cc6a92839c986682d98bc35f958f4883f9d2a8601f850160051c810191602086106118a9575b601f0160051c01905b81811061189e5750611728565b5f8155600101611891565b9091508190611888565b9050346103375760209182600319360112610337576118d0612918565b916001600160a01b0383168015611b3757803303611b0457805f52600d8552825f2091600192835f52865260ff845f205416611aca57805494838601808711611362578255825f52600d8752845f20845f528752845f2060ff19908582825416179055865f52600e885284865f2091825416179055845190611951826129da565b5f8252855161195f81612a09565b85815288810190893683375115611ab7576065905261197c613302565b5060655f525f8852855f20845f528852855f20805490868201809211611aa45755835f875160658152878b8201525f80516020613495833981519152893392a43b6119f1575b50509083917f4c7380f1d23a71f74fa1303f23b7100826e4a89a4e47b2985e5c708e47a19b3a5f80a451908152f35b84959392919551878180611a3363f23a6e6160e01b95868352338c8401525f60248401526065604484015288606484015260a0608484015260a4830190612964565b03815f875af15f9181611a85575b50611a51578787876105e76133b7565b63ffffffff60e097939495971b1603611a6c5750835f6119c2565b835162461bcd60e51b815290819061060b90820161336e565b611a9d919250893d8b11610697576106888183612a24565b905f611a41565b601185634e487b7160e01b5f525260245ffd5b603284634e487b7160e01b5f525260245ffd5b835162461bcd60e51b8152908101869052601460248201527310985919d948185b1c9958591e481b5a5b9d195960621b6044820152606490fd5b5083606492519162461bcd60e51b8352820152600e60248201526d13db9b1e481cd95b19881b5a5b9d60921b6044820152fd5b5083606492519162461bcd60e51b83528201526011602482015270125b9d985b1a59081c9958da5c1a595b9d607a1b6044820152fd5b82346103375780600319360112610337576001600160401b039180358381116103375736602382011215610337578082013593611ba985612a72565b91611bb685519384612a24565b85835260209560248785019160051b8301019136831161033757602401905b828210611cbe5750505060243590811161033757611bf69036908401612ad7565b918151835103611c695750611c0b8151612e35565b935f5b8251811015611c5357600190611c426001600160a01b03611c2f8387612e67565b5116611c3b8388612e67565b5190612bd9565b611c4c8289612e67565b5201611c0e565b845182815280611c6581850189612b55565b0390f35b835162461bcd60e51b8152908101859052602960248201527f455243313135353a206163636f756e747320616e6420696473206c656e677468604482015268040dad2e6dac2e8c6d60bb1b6064820152608490fd5b81356001600160a01b0381168103610337578152908701908701611bd5565b8234610337576020366003190112610337576020906001600160a01b03611d02612918565b165f526010825260ff815f20541690519015158152f35b8234610337575f366003190112610337576020906007549051908152f35b823461033757602036600319011261033757602091355f526012825260ff815f20541690519015158152f35b8234610337575f366003190112610337576020906006549051908152f35b8234610337576020366003190112610337576020906001600160a01b03611da6612918565b165f52600d8252805f2060015f52825260ff815f20541690519015158152f35b90503461033757602036600319011261033757611e0c903591611deb6116ac846132b1565b611df86116b78433612bd9565b51611e02816129da565b5f81528233612fd0565b337f04844d30b922ffc2b845400eb2a15cdd62742176c723e09d7cc9703e83645e4b5f80a3005b8234610337575f366003190112610337578051600b549091825f611e56846129a2565b808352602094600190866001821691825f14611ef2575050600114611e97575b5050611c659291611e88910385612a24565b51928284938452830190612964565b90859250600b5f527f0175b7a638427703f0dbe7bb9bbf987a2551717b34e79f33b5b1008d1fa01db9915f925b828410611eda5750505082010181611e88611e76565b8054848a018601528895508794909301928101611ec4565b60ff19168682015292151560051b85019092019250839150611e889050611e76565b8234610337575f366003190112610337576020906015549051908152f35b905034610337576003199060a03683011261033757611f4f612918565b91611f5861292e565b926001600160401b039260443584811161033757611f799036908301612ad7565b9060643585811161033757611f919036908301612ad7565b9460843590811161033757611fa99036908301612b3a565b936001600160a01b039384169333851480156121a9575b611fc990612d52565b611fd68451885114613176565b871694611fe48615156131d3565b5f5b84518110156120625780611ffc60019287612e67565b51612007828b612e67565b5190805f526020905f82528d5f208a5f5282528d83815f205461202c8282101561322d565b835f525f8552825f208d5f52855203905f20555f525f81528c5f20908a5f525261205a8c5f20918254612ed4565b905501611fe6565b509094939592919684878a517f4a39dc06d4c0dbc64b70af90fd698a233a518aa5d07e595d983b8c0526c8f7fb33918061209d8a8a8361328c565b0390a43b6120a757005b8751948593849363bc197c8160e01b98898652338b87015260248601526044850160a0905260a485016120d991612b55565b828582030160648601526120ec91612b55565b908382030160848401526120ff91612964565b03815a6020945f91f15f9181612188575b5061217757505061211f6133b7565b6308c379a014612143575b905162461bcd60e51b815290819061060b90820161343f565b61214b6133d2565b80612156575061212a565b61060b906020935193849362461bcd60e51b85528401526024830190612964565b6001600160e01b0319160361065657005b6121a291925060203d602011610697576106888183612a24565b905f612110565b50845f526001602052885f20335f52602052611fc960ff8a5f2054169050611fc0565b8234610337575f366003190112610337576020906009549051908152f35b8234610337575f36600319011261033757602090516127108152f35b8234610337575f366003190112610337576020906005549051908152f35b82346103375760203660031901126103375761223e612954565b9061224b610b748361315c565b335f52600f60205260ff815f20921691825f52602052805f20600160ff198254161790558160c801908160c8116122ba57516122939161228a826129da565b5f825233612fd0565b337fbd1ae2c6d13c1a8dc9dbe03823192cb9ab92b45e5b9264dd65b2794c526e6f9f5f80a3005b601184634e487b7160e01b5f525260245ffd5b905034610337576060366003190112610337578035916122eb612909565b604435926001600160401b0384116103375761232e61236d917f5cd61427930ab89a7ffdd8646dd284f02d4ec213a21d6dcaab300350e800661195369101612a45565b612336612f22565b865f52601260205261235684865f209060ff801983541691151516179055565b845194859415158552806020860152840191612cf0565b0390a2005b8234610337575f366003190112610337578051600a549091825f612395846129a2565b808352602094600190866001821691825f14611ef25750506001146123c6575050611c659291611e88910385612a24565b90859250600a5f527fc65a7bb8d6351c1cf70c95a316cc6a92839c986682d98bc35f958f4883f9d2a8915f925b8284106124095750505082010181611e88611e76565b8054848a0186015288955087949093019281016123f3565b8234610337575f366003190112610337578051600c549091825f612444846129a2565b808352602094600190866001821691825f14611ef2575050600114612475575050611c659291611e88910385612a24565b90859250600c5f527fdf6966c971051c3d54ec59162606531493a51404a002842f56009d7e5cf4a8c7915f925b8284106124b85750505082010181611e88611e76565b8054848a0186015288955087949093019281016124a2565b905034610337576020918260031936011261033757813560ff600854166126e25760065481106126b05761250381612c80565b9261250f841515612cb6565b825161251a816129da565b5f8152612528331515612f7a565b6125306132db565b5061253a85613329565b5060c95f525f8652835f20335f528652835f20612558868254612ed4565b9055835160c9815285878201525f33915f80516020613495833981519152873392a4333b6125fd575b5050335f52600f8452815f2060015f528452815f20600160ff19825416179055815190815282848201527ff94991dcbea6e8ac439cbc93bd9c62a4d39f04e0ad656df9a703f13552c2787f823392a251906001337fbd1ae2c6d13c1a8dc9dbe03823192cb9ab92b45e5b9264dd65b2794c526e6f9f5f80a38152f35b83949291945186818061263e63f23a6e6160e01b95868352338b8401525f602484015260c9604484015288606484015260a0608484015260a4830190612964565b03815f335af15f9181612691575b5061265d57505050506105e76133b7565b929491926001600160e01b0319160361267857505f80612581565b825162461bcd60e51b815290819061060b90820161336e565b6126a9919250883d8a11610697576106888183612a24565b905f61264c565b5091606492519162461bcd60e51b8352820152600d60248201526c42656c6f77206d696e696d756d60981b6044820152fd5b5091606492519162461bcd60e51b8352820152601460248201527314dd589cd8dc9a5c1d1a5bdb9cc81c185d5cd95960621b6044820152fd5b82346103375760208060031936011261033757815191825f60025461273f816129a2565b90818452600190866001821691825f14611ef257505060011461276e575050611c659291611e88910385612a24565b9085925060025f527f405787fa12a823e0f2b7631cc41b3ba8828b3321ca811111fa75cd3aa3bb5ace915f925b8284106127b15750505082010181611e88611e76565b8054848a01860152889550879490930192810161279b565b8234610337576020366003190112610337576127e760209235612c80565b9051908152f35b905034610337576020366003190112610337573563ffffffff60e01b811680910361033757602091636cdb3d1360e11b8214918215612849575b8215612838575b50519015158152f35b6301ffc9a760e01b1491505f61282f565b6303a24d0760e21b81149250612828565b8234610337578060031936011261033757602090612876612918565b61287e612944565b6001600160a01b039091165f908152600d845282812060ff92831682528452829020549151911615158152f35b82346103375780600319360112610337576020906127e76128ca612918565b60243590612bd9565b346103375760203660031901126103375735801515809103610337576128f7612f22565b60ff8019600854169116176008555f80f35b60243590811515820361033757565b600435906001600160a01b038216820361033757565b602435906001600160a01b038216820361033757565b6024359060ff8216820361033757565b6004359060ff8216820361033757565b91908251928382525f5b84811061298e575050825f602080949584010152601f8019910116010190565b60208183018101518483018201520161296e565b90600182811c921680156129d0575b60208310146129bc57565b634e487b7160e01b5f52602260045260245ffd5b91607f16916129b1565b602081019081106001600160401b038211176129f557604052565b634e487b7160e01b5f52604160045260245ffd5b604081019081106001600160401b038211176129f557604052565b90601f801991011681019081106001600160401b038211176129f557604052565b9181601f84011215610337578235916001600160401b038311610337576020838186019501011161033757565b6001600160401b0381116129f55760051b60200190565b9291612a9482612a72565b91612aa26040519384612a24565b829481845260208094019160051b810192831161033757905b828210612ac85750505050565b81358152908301908301612abb565b9080601f8301121561033757816020612af293359101612a89565b90565b9291926001600160401b0382116129f55760405191612b1e601f8201601f191660200184612a24565b829481845281830111610337578281602093845f960137010152565b9080601f8301121561033757816020612af293359101612af5565b9081518082526020808093019301915f5b828110612b74575050505090565b835185529381019392810192600101612b66565b34610337575f36600319011261033757602060405160038152f35b34610337575f36600319011261033757602060405160018152f35b34610337575f36600319011261033757602060405160028152f35b6001600160a01b0316908115612c01575f525f60205260405f20905f5260205260405f205490565b60405162461bcd60e51b815260206004820152602a60248201527f455243313135353a2061646472657373207a65726f206973206e6f742061207660448201526930b634b21037bbb732b960b11b6064820152608490fd5b81810292918115918404141715612c6c57565b634e487b7160e01b5f52601160045260245ffd5b61271090818102918183041490151715612c6c57600554908115612ca2570490565b634e487b7160e01b5f52601260045260245ffd5b15612cbd57565b60405162461bcd60e51b815260206004820152600b60248201526a5a65726f2073686172657360a81b6044820152606490fd5b908060209392818452848401375f828201840152601f01601f1916010190565b15612d1757565b60405162461bcd60e51b8152602060048201526013602482015272496e76616c6964207765616c7468207461736b60681b6044820152606490fd5b15612d5957565b60405162461bcd60e51b815260206004820152602e60248201527f455243313135353a2063616c6c6572206973206e6f7420746f6b656e206f776e60448201526d195c881bdc88185c1c1c9bdd995960921b6064820152608490fd5b15612dbc57565b60405162461bcd60e51b8152602060048201526013602482015272125b9d985b1a59081858da1a595d995b595b9d606a1b6044820152606490fd5b15612dfe57565b60405162461bcd60e51b815260206004820152600f60248201526e105b1c9958591e4818db185a5b5959608a1b6044820152606490fd5b90612e3f82612a72565b612e4c6040519182612a24565b8281528092612e5d601f1991612a72565b0190602036910137565b8051821015612e7b5760209160051b010190565b634e487b7160e01b5f52603260045260245ffd5b9190811015612e7b5760051b0190565b601554811015612e7b5760155f527f55f448fdea98c4d29eb340757ef0a66cd03dbb9538908a6a81d96026b71ec47501905f90565b91908201809211612c6c57565b15612ee857565b60405162461bcd60e51b8152602060048201526012602482015271496e76616c696420686f6d6520626164676560701b6044820152606490fd5b6003546001600160a01b03163303612f3657565b606460405162461bcd60e51b815260206004820152602060248201527f4f776e61626c653a2063616c6c6572206973206e6f7420746865206f776e65726044820152fd5b15612f8157565b60405162461bcd60e51b815260206004820152602160248201527f455243313135353a206d696e7420746f20746865207a65726f206164647265736044820152607360f81b6064820152608490fd5b91906001600160a01b038316612fe7811515612f7a565b612ff082613329565b50612ff9613302565b50815f526020925f8452604094855f20835f528552855f2080549060018201809211612c6c5755825f87518681526001888201525f80516020613495833981519152893392a43b61304c575b5050505050565b926130935f9286979583975194858094819363f23a6e6160e01b998a845233600485015284602485015260448401526001606484015260a0608484015260a4830190612964565b03925af15f918161313d575b50613106575050506130af6133b7565b6308c379a0146130d2575b505162461bcd60e51b81528061060b6004820161343f565b6130da6133d2565b90816130e657506130ba565b61060b835192839262461bcd60e51b845260048401526024830190612964565b919392506001600160e01b03199091160361312657505f80808080613045565b5162461bcd60e51b81528061060b6004820161336e565b613155919250853d8711610697576106888183612a24565b905f61309f565b60ff166001811490811561316e575090565b600291501490565b1561317d57565b60405162461bcd60e51b815260206004820152602860248201527f455243313135353a2069647320616e6420616d6f756e7473206c656e677468206044820152670dad2e6dac2e8c6d60c31b6064820152608490fd5b156131da57565b60405162461bcd60e51b815260206004820152602560248201527f455243313135353a207472616e7366657220746f20746865207a65726f206164604482015264647265737360d81b6064820152608490fd5b1561323457565b60405162461bcd60e51b815260206004820152602a60248201527f455243313135353a20696e73756666696369656e742062616c616e636520666f60448201526939103a3930b739b332b960b11b6064820152608490fd5b90916132a3612af293604084526040840190612b55565b916020818403910152612b55565b600181101590816132c0575090565b60059150111590565b60ff16600181101590816132c0575090565b6040516132e781612a09565b60018152602081016020368237815115612e7b5760c9905290565b60405161330e81612a09565b60018152602081016020368237815115612e7b576001905290565b6040519061333682612a09565b60018252602082016020368237825115612e7b575290565b9081602091031261033757516001600160e01b0319811681036103375790565b60809060208152602860208201527f455243313135353a204552433131353552656365697665722072656a656374656040820152676420746f6b656e7360c01b60608201520190565b5f9060033d116133c357565b905060045f803e5f5160e01c90565b5f60443d10612af257604051600319913d83016004833e81516001600160401b03918282113d60248401111761342e57818401948551938411613436573d8501016020848701011161342e5750612af292910160200190612a24565b949350505050565b50949350505050565b60809060208152603460208201527f455243313135353a207472616e7366657220746f206e6f6e2d455243313135356040820152732932b1b2b4bb32b91034b6b83632b6b2b73a32b960611b6060820152019056fec3d58168c5ae7397731d063d5bbf3d657854427343f4c083240f7aacaa2d0f62a2646970667358221220ba7caf01f117c5281084218909db4e55769265ce23996b426a492af699050f9864736f6c63430008180033","opcodes":"PUSH1 0x80 PUSH1 0x40 MSTORE CALLVALUE PUSH3 0x348 JUMPI PUSH3 0x38B0 DUP1 CODESIZE SUB DUP1 PUSH3 0x1D DUP2 PUSH3 0x34C JUMP JUMPDEST SWAP3 DUP4 CODECOPY DUP2 ADD SWAP1 PUSH1 0x20 SWAP2 DUP3 DUP3 DUP3 SUB SLT PUSH3 0x348 JUMPI DUP2 MLOAD PUSH1 0x1 PUSH1 0x1 PUSH1 0x40 SHL SUB SWAP3 DUP4 DUP3 GT PUSH3 0x348 JUMPI ADD SWAP2 PUSH1 0x1F SWAP2 DUP1 DUP4 DUP6 ADD SLT ISZERO PUSH3 0x348 JUMPI DUP4 MLOAD SWAP4 DUP3 DUP6 GT PUSH3 0x320 JUMPI PUSH1 0x1F NOT SWAP5 PUSH3 0x73 DUP6 DUP3 ADD DUP8 AND DUP9 ADD PUSH3 0x34C JUMP JUMPDEST SWAP3 DUP2 DUP5 MSTORE DUP8 DUP3 DUP5 ADD ADD GT PUSH3 0x348 JUMPI DUP7 SWAP2 PUSH0 JUMPDEST DUP3 DUP2 LT PUSH3 0x334 JUMPI POP POP SWAP1 PUSH0 SWAP2 DUP4 ADD ADD MSTORE DUP1 MLOAD SWAP2 DUP3 GT PUSH3 0x320 JUMPI PUSH3 0xAE PUSH1 0x2 SLOAD PUSH3 0x372 JUMP JUMPDEST DUP4 DUP2 GT PUSH3 0x2E4 JUMPI JUMPDEST POP DUP5 SWAP4 DUP4 DUP4 GT PUSH1 0x1 EQ PUSH3 0x281 JUMPI POP SWAP3 DUP2 SWAP3 SWAP4 PUSH0 SWAP3 PUSH3 0x275 JUMPI JUMPDEST POP POP DUP2 PUSH1 0x1 SHL SWAP2 PUSH0 NOT SWAP1 PUSH1 0x3 SHL SHR NOT AND OR PUSH1 0x2 SSTORE JUMPDEST PUSH1 0x3 DUP1 SLOAD CALLER PUSH1 0x1 PUSH1 0x1 PUSH1 0xA0 SHL SUB NOT DUP3 AND DUP2 OR SWAP1 SWAP3 SSTORE PUSH1 0x1 PUSH1 0x1 PUSH1 0xA0 SHL SUB AND PUSH32 0x8BE0079C531659141344CD1FD0A4F28419497F9722A3DAAFE3B4186F6B6457E0 PUSH0 DUP1 LOG3 PUSH1 0x1 PUSH1 0x4 SSTORE PUSH2 0x2710 PUSH1 0x5 SSTORE PUSH4 0x1DCD6500 PUSH1 0x6 SSTORE PUSH3 0x149 PUSH1 0xB SLOAD PUSH3 0x372 JUMP JUMPDEST DUP2 DUP2 GT PUSH3 0x253 JUMPI JUMPDEST POP PUSH32 0x4D535820556E69666965642044656D6F205661756C740000000000000000002C PUSH1 0xB SSTORE PUSH1 0xC SLOAD PUSH3 0x185 SWAP1 PUSH3 0x372 JUMP JUMPDEST DUP2 DUP2 GT PUSH3 0x231 JUMPI JUMPDEST POP PUSH1 0x4 PUSH2 0x1415 PUSH1 0xF2 SHL ADD PUSH1 0xC SSTORE PUSH1 0xA SLOAD PUSH3 0x1A9 SWAP1 PUSH3 0x372 JUMP JUMPDEST SWAP1 DUP1 DUP3 GT PUSH3 0x20F JUMPI JUMPDEST PUSH32 0x44656D6F20726561647900000000000000000000000000000000000000000014 PUSH1 0xA SSTORE PUSH32 0x1F2F66BEE3A390B49111CD6D6B87258A0E89B1D86DCA9B267CE7DC032F67EB7E PUSH1 0x9 SSTORE TIMESTAMP PUSH1 0x7 SSTORE PUSH1 0x40 MLOAD PUSH2 0x34EA SWAP1 DUP2 PUSH3 0x3C6 DUP3 CODECOPY RETURN JUMPDEST PUSH3 0x228 SWAP3 PUSH1 0xA PUSH0 MSTORE PUSH0 KECCAK256 SWAP2 ADD PUSH1 0x5 SHR DUP2 ADD SWAP1 PUSH3 0x3AD JUMP JUMPDEST PUSH0 DUP1 DUP1 PUSH3 0x1B3 JUMP JUMPDEST PUSH3 0x24C SWAP1 PUSH1 0xC PUSH0 MSTORE DUP3 DUP5 PUSH0 KECCAK256 SWAP2 ADD PUSH1 0x5 SHR DUP2 ADD SWAP1 PUSH3 0x3AD JUMP JUMPDEST PUSH0 PUSH3 0x18E JUMP JUMPDEST PUSH3 0x26E SWAP1 PUSH1 0xB PUSH0 MSTORE DUP3 DUP5 PUSH0 KECCAK256 SWAP2 ADD PUSH1 0x5 SHR DUP2 ADD SWAP1 PUSH3 0x3AD JUMP JUMPDEST PUSH0 PUSH3 0x152 JUMP JUMPDEST ADD MLOAD SWAP1 POP PUSH0 DUP1 PUSH3 0xD2 JUMP JUMPDEST DUP3 AND SWAP4 PUSH1 0x2 PUSH0 MSTORE DUP6 PUSH0 KECCAK256 SWAP2 PUSH0 JUMPDEST DUP8 DUP8 DUP3 LT PUSH3 0x2CD JUMPI POP POP DUP4 PUSH1 0x1 SWAP6 SWAP7 LT PUSH3 0x2B4 JUMPI JUMPDEST POP POP POP DUP2 SHL ADD PUSH1 0x2 SSTORE PUSH3 0xE7 JUMP JUMPDEST ADD MLOAD PUSH0 NOT PUSH1 0xF8 DUP5 PUSH1 0x3 SHL AND SHR NOT AND SWAP1 SSTORE PUSH0 DUP1 DUP1 PUSH3 0x2A5 JUMP JUMPDEST PUSH1 0x1 DUP5 SWAP6 DUP3 SWAP4 SWAP6 DUP6 ADD MLOAD DUP2 SSTORE ADD SWAP5 ADD SWAP3 ADD PUSH3 0x28E JUMP JUMPDEST PUSH3 0x30F SWAP1 PUSH1 0x2 PUSH0 MSTORE DUP7 PUSH0 KECCAK256 DUP6 DUP1 DUP7 ADD PUSH1 0x5 SHR DUP3 ADD SWAP3 DUP10 DUP8 LT PUSH3 0x316 JUMPI JUMPDEST ADD PUSH1 0x5 SHR ADD SWAP1 PUSH3 0x3AD JUMP JUMPDEST PUSH0 PUSH3 0xB7 JUMP JUMPDEST SWAP3 POP DUP2 SWAP3 PUSH3 0x303 JUMP JUMPDEST PUSH4 0x4E487B71 PUSH1 0xE0 SHL PUSH0 MSTORE PUSH1 0x41 PUSH1 0x4 MSTORE PUSH1 0x24 PUSH0 REVERT JUMPDEST DUP2 DUP2 ADD DUP5 ADD MLOAD DUP6 DUP3 ADD DUP6 ADD MSTORE DUP4 ADD PUSH3 0x86 JUMP JUMPDEST PUSH0 DUP1 REVERT JUMPDEST PUSH1 0x40 MLOAD SWAP2 SWAP1 PUSH1 0x1F ADD PUSH1 0x1F NOT AND DUP3 ADD PUSH1 0x1 PUSH1 0x1 PUSH1 0x40 SHL SUB DUP2 GT DUP4 DUP3 LT OR PUSH3 0x320 JUMPI PUSH1 0x40 MSTORE JUMP JUMPDEST SWAP1 PUSH1 0x1 DUP3 DUP2 SHR SWAP3 AND DUP1 ISZERO PUSH3 0x3A2 JUMPI JUMPDEST PUSH1 0x20 DUP4 LT EQ PUSH3 0x38E JUMPI JUMP JUMPDEST PUSH4 0x4E487B71 PUSH1 0xE0 SHL PUSH0 MSTORE PUSH1 0x22 PUSH1 0x4 MSTORE PUSH1 0x24 PUSH0 REVERT JUMPDEST SWAP2 PUSH1 0x7F AND SWAP2 PUSH3 0x382 JUMP JUMPDEST DUP2 DUP2 LT PUSH3 0x3B9 JUMPI POP POP JUMP JUMPDEST PUSH0 DUP2 SSTORE PUSH1 0x1 ADD PUSH3 0x3AD JUMP INVALID PUSH1 0x40 PUSH1 0x80 DUP2 MSTORE PUSH1 0x4 DUP1 CALLDATASIZE LT ISZERO PUSH2 0x13 JUMPI PUSH0 DUP1 REVERT JUMPDEST PUSH0 CALLDATALOAD PUSH1 0xE0 SHR SWAP1 DUP2 PUSH3 0x9B27AF EQ PUSH2 0x28D3 JUMPI DUP2 PUSH3 0xFDD58E EQ PUSH2 0x28AB JUMPI DUP2 PUSH4 0x1B4597D EQ PUSH2 0x285A JUMPI DUP2 PUSH4 0x1FFC9A7 EQ PUSH2 0x27EE JUMPI DUP2 PUSH4 0x2CEA26B EQ PUSH2 0x27C9 JUMPI DUP2 PUSH4 0xE89341C EQ PUSH2 0x271B JUMPI DUP2 PUSH4 0xF574BA7 EQ PUSH2 0x24D0 JUMPI DUP2 PUSH4 0x176DE7A8 EQ PUSH2 0x2421 JUMPI DUP2 PUSH4 0x176F1CDD EQ PUSH2 0x2372 JUMPI DUP2 PUSH4 0x179649AD EQ PUSH2 0x22CD JUMPI DUP2 PUSH4 0x1A2E9996 EQ PUSH2 0x2224 JUMPI DUP2 PUSH4 0x1DE3083D EQ PUSH2 0x121D JUMPI DUP2 PUSH4 0x218900B4 EQ PUSH2 0x2206 JUMPI DUP2 PUSH4 0x249D39E9 EQ PUSH2 0x21EA JUMPI DUP2 PUSH4 0x2E6F6B1F EQ PUSH2 0x21CC JUMPI DUP2 PUSH4 0x2EB2C2D6 EQ PUSH2 0x1F32 JUMPI DUP2 PUSH4 0x2F85874A EQ PUSH2 0x1F14 JUMPI DUP2 PUSH4 0x2FB4E0F9 EQ PUSH2 0x1E33 JUMPI DUP2 PUSH4 0x379607F5 EQ PUSH2 0x1DC6 JUMPI DUP2 PUSH4 0x38E21CCE EQ PUSH2 0x1D81 JUMPI DUP2 PUSH4 0x41BE5F64 EQ PUSH2 0x1D63 JUMPI DUP2 PUSH4 0x4973FD9A EQ PUSH2 0x1D37 JUMPI DUP2 PUSH4 0x4ADB4CC8 EQ PUSH2 0x1D19 JUMPI DUP2 PUSH4 0x4D7C10A7 EQ PUSH2 0x1CDD JUMPI DUP2 PUSH4 0x4E1273F4 EQ PUSH2 0x1B6D JUMPI DUP2 PUSH4 0x52163337 EQ PUSH2 0x18B3 JUMPI DUP2 PUSH4 0x55CC0261 EQ PUSH2 0x16CF JUMPI DUP2 PUSH4 0x57997AA2 EQ PUSH2 0xA4C JUMPI DUP2 PUSH4 0x60062CD1 EQ PUSH2 0x72A JUMPI DUP2 PUSH4 0x62ABEBCE EQ PUSH2 0x143D JUMPI DUP2 PUSH4 0x6961FD46 EQ PUSH2 0x1294 JUMPI DUP2 PUSH4 0x6B3CE2F1 EQ PUSH2 0x1238 JUMPI DUP2 PUSH4 0x6E3DBB71 EQ PUSH2 0x121D JUMPI DUP2 PUSH4 0x6EA17ABD EQ PUSH2 0x1202 JUMPI DUP2 PUSH4 0x715018A6 EQ PUSH2 0x11A7 JUMPI DUP2 PUSH4 0x7206ABBD EQ PUSH2 0xFD9 JUMPI DUP2 PUSH4 0x8385F14A EQ PUSH2 0xFBD JUMPI DUP2 PUSH4 0x8530A3BF EQ PUSH2 0xF93 JUMPI DUP2 PUSH4 0x8D00BBE5 EQ PUSH2 0xF40 JUMPI DUP2 PUSH4 0x8DA5CB5B EQ PUSH2 0xF18 JUMPI DUP2 PUSH4 0x8F631D54 EQ PUSH2 0xE1C JUMPI DUP2 PUSH4 0x99B49E25 EQ PUSH2 0xEBF JUMPI DUP2 PUSH4 0x9A2AACA1 EQ PUSH2 0xE37 JUMPI DUP2 PUSH4 0x9CB9E497 EQ PUSH2 0xE1C JUMPI DUP2 PUSH4 0xA0BCFC7F EQ PUSH2 0xC85 JUMPI DUP2 PUSH4 0xA22CB465 EQ PUSH2 0xBA4 JUMPI DUP2 PUSH4 0xAEC45D80 EQ PUSH2 0xB43 JUMPI DUP2 PUSH4 0xB363935C EQ PUSH2 0xB28 JUMPI DUP2 PUSH4 0xB5884E20 EQ PUSH2 0xA8B JUMPI DUP2 PUSH4 0xB84D93D4 EQ PUSH2 0xA51 JUMPI DUP2 PUSH4 0xC4EBE024 EQ PUSH2 0xA4C JUMPI DUP2 PUSH4 0xC8A3C3B5 EQ PUSH2 0x9D6 JUMPI DUP2 PUSH4 0xCAD47192 EQ PUSH2 0x39B JUMPI DUP2 PUSH4 0xCB33BCDB EQ PUSH2 0x985 JUMPI DUP2 PUSH4 0xCF22928D EQ PUSH2 0x962 JUMPI DUP2 PUSH4 0xD28C390A EQ PUSH2 0x935 JUMPI DUP2 PUSH4 0xD4B0521B EQ PUSH2 0x8BA JUMPI DUP2 PUSH4 0xDB006A75 EQ PUSH2 0x72F JUMPI DUP2 PUSH4 0xDCB2125B EQ PUSH2 0x72A JUMPI DUP2 PUSH4 0xE985E9C5 EQ PUSH2 0x6DC JUMPI DUP2 PUSH4 0xEEAA8177 EQ PUSH2 0x6C1 JUMPI DUP2 PUSH4 0xF242432A EQ PUSH2 0x486 JUMPI DUP2 PUSH4 0xF2FDE38B EQ PUSH2 0x3BB JUMPI DUP2 PUSH4 0xF4DB8984 EQ PUSH2 0x3A0 JUMPI DUP2 PUSH4 0xF5952D12 EQ PUSH2 0x39B JUMPI DUP2 PUSH4 0xF68E55C3 EQ PUSH2 0x33B JUMPI POP PUSH4 0xF9569673 EQ PUSH2 0x2FC JUMPI PUSH0 DUP1 REVERT JUMPDEST CALLVALUE PUSH2 0x337 JUMPI PUSH1 0x20 CALLDATASIZE PUSH1 0x3 NOT ADD SLT PUSH2 0x337 JUMPI PUSH1 0x20 SWAP1 PUSH1 0x1 PUSH1 0x1 PUSH1 0xA0 SHL SUB PUSH2 0x320 PUSH2 0x2918 JUMP JUMPDEST AND PUSH0 MSTORE PUSH1 0x14 DUP3 MSTORE PUSH1 0xFF DUP2 PUSH0 KECCAK256 SLOAD AND SWAP1 MLOAD SWAP1 ISZERO ISZERO DUP2 MSTORE RETURN JUMPDEST PUSH0 DUP1 REVERT JUMPDEST SWAP1 POP CALLVALUE PUSH2 0x337 JUMPI PUSH1 0x20 CALLDATASIZE PUSH1 0x3 NOT ADD SLT PUSH2 0x337 JUMPI DUP1 CALLDATALOAD SWAP2 PUSH2 0x359 PUSH2 0x2F22 JUMP JUMPDEST DUP3 ISZERO PUSH2 0x366 JUMPI PUSH1 0x6 DUP4 SWAP1 SSTORE STOP JUMPDEST SWAP1 PUSH1 0x20 PUSH1 0x64 SWAP3 MLOAD SWAP2 PUSH3 0x461BCD PUSH1 0xE5 SHL DUP4 MSTORE DUP3 ADD MSTORE PUSH1 0xF PUSH1 0x24 DUP3 ADD MSTORE PUSH15 0x496E76616C6964206D696E696D756D PUSH1 0x88 SHL PUSH1 0x44 DUP3 ADD MSTORE REVERT JUMPDEST PUSH2 0x2BBE JUMP JUMPDEST DUP3 CALLVALUE PUSH2 0x337 JUMPI PUSH0 CALLDATASIZE PUSH1 0x3 NOT ADD SLT PUSH2 0x337 JUMPI PUSH1 0x20 SWAP1 MLOAD PUSH1 0x6 DUP2 MSTORE RETURN JUMPDEST SWAP1 POP CALLVALUE PUSH2 0x337 JUMPI PUSH1 0x20 CALLDATASIZE PUSH1 0x3 NOT ADD SLT PUSH2 0x337 JUMPI PUSH2 0x3D6 PUSH2 0x2918 JUMP JUMPDEST SWAP1 PUSH2 0x3DF PUSH2 0x2F22 JUMP JUMPDEST PUSH1 0x1 PUSH1 0x1 PUSH1 0xA0 SHL SUB SWAP2 DUP3 AND SWAP3 DUP4 ISZERO PUSH2 0x434 JUMPI POP POP PUSH1 0x3 SLOAD DUP3 PUSH12 0xFFFFFFFFFFFFFFFFFFFFFFFF PUSH1 0xA0 SHL DUP3 AND OR PUSH1 0x3 SSTORE AND PUSH32 0x8BE0079C531659141344CD1FD0A4F28419497F9722A3DAAFE3B4186F6B6457E0 PUSH0 DUP1 LOG3 STOP JUMPDEST SWAP1 PUSH1 0x20 PUSH1 0x84 SWAP3 MLOAD SWAP2 PUSH3 0x461BCD PUSH1 0xE5 SHL DUP4 MSTORE DUP3 ADD MSTORE PUSH1 0x26 PUSH1 0x24 DUP3 ADD MSTORE PUSH32 0x4F776E61626C653A206E6577206F776E657220697320746865207A65726F2061 PUSH1 0x44 DUP3 ADD MSTORE PUSH6 0x646472657373 PUSH1 0xD0 SHL PUSH1 0x64 DUP3 ADD MSTORE REVERT JUMPDEST SWAP1 POP CALLVALUE PUSH2 0x337 JUMPI PUSH1 0xA0 CALLDATASIZE PUSH1 0x3 NOT ADD SLT PUSH2 0x337 JUMPI PUSH2 0x4A1 PUSH2 0x2918 JUMP JUMPDEST SWAP2 PUSH2 0x4AA PUSH2 0x292E JUMP JUMPDEST SWAP3 PUSH1 0x44 CALLDATALOAD SWAP1 PUSH1 0x64 CALLDATALOAD SWAP1 PUSH1 0x84 CALLDATALOAD PUSH1 0x1 PUSH1 0x1 PUSH1 0x40 SHL SUB DUP2 GT PUSH2 0x337 JUMPI PUSH2 0x4D1 SWAP1 CALLDATASIZE SWAP1 DUP8 ADD PUSH2 0x2B3A JUMP JUMPDEST SWAP2 PUSH1 0x1 PUSH1 0x1 PUSH1 0xA0 SHL SUB SWAP2 DUP3 AND SWAP2 CALLER DUP4 EQ DUP1 ISZERO PUSH2 0x69E JUMPI JUMPDEST PUSH2 0x4F1 SWAP1 PUSH2 0x2D52 JUMP JUMPDEST DUP8 AND PUSH2 0x4FE DUP2 ISZERO ISZERO PUSH2 0x31D3 JUMP JUMPDEST PUSH2 0x507 DUP6 PUSH2 0x3329 JUMP JUMPDEST POP PUSH2 0x511 DUP3 PUSH2 0x3329 JUMP JUMPDEST POP DUP5 PUSH0 MSTORE PUSH1 0x20 SWAP8 PUSH0 DUP10 MSTORE DUP7 PUSH0 KECCAK256 DUP5 PUSH0 MSTORE DUP10 MSTORE DUP3 DUP8 PUSH0 KECCAK256 SLOAD PUSH2 0x534 DUP3 DUP3 LT ISZERO PUSH2 0x322D JUMP JUMPDEST DUP8 PUSH0 MSTORE PUSH0 DUP12 MSTORE DUP9 PUSH0 KECCAK256 DUP7 PUSH0 MSTORE DUP12 MSTORE SUB DUP8 PUSH0 KECCAK256 SSTORE DUP6 PUSH0 MSTORE PUSH0 DUP10 MSTORE DUP7 PUSH0 KECCAK256 DUP3 PUSH0 MSTORE DUP10 MSTORE DUP7 PUSH0 KECCAK256 PUSH2 0x563 DUP5 DUP3 SLOAD PUSH2 0x2ED4 JUMP JUMPDEST SWAP1 SSTORE DUP2 DUP5 DUP9 MLOAD DUP9 DUP2 MSTORE DUP6 DUP13 DUP3 ADD MSTORE PUSH0 DUP1 MLOAD PUSH1 0x20 PUSH2 0x3495 DUP4 CODECOPY DUP2 MLOAD SWAP2 MSTORE DUP11 CALLER SWAP3 LOG4 EXTCODESIZE PUSH2 0x58A JUMPI STOP JUMPDEST DUP7 SWAP5 PUSH0 DUP10 SWAP5 PUSH2 0x5CC DUP10 MLOAD SWAP8 DUP9 SWAP7 DUP8 SWAP6 DUP7 SWAP5 PUSH4 0xF23A6E61 PUSH1 0xE0 SHL SWAP13 DUP14 DUP8 MSTORE CALLER SWAP1 DUP8 ADD MSTORE PUSH1 0x24 DUP7 ADD MSTORE PUSH1 0x44 DUP6 ADD MSTORE PUSH1 0x64 DUP5 ADD MSTORE PUSH1 0xA0 PUSH1 0x84 DUP5 ADD MSTORE PUSH1 0xA4 DUP4 ADD SWAP1 PUSH2 0x2964 JUMP JUMPDEST SUB SWAP3 GAS CALL PUSH0 SWAP2 DUP2 PUSH2 0x66F JUMPI JUMPDEST POP PUSH2 0x640 JUMPI POP POP PUSH2 0x5E7 PUSH2 0x33B7 JUMP JUMPDEST PUSH4 0x8C379A0 EQ PUSH2 0x60F JUMPI JUMPDEST MLOAD PUSH3 0x461BCD PUSH1 0xE5 SHL DUP2 MSTORE SWAP2 POP DUP2 SWAP1 PUSH2 0x60B SWAP1 DUP3 ADD PUSH2 0x343F JUMP JUMPDEST SUB SWAP1 REVERT JUMPDEST PUSH2 0x617 PUSH2 0x33D2 JUMP JUMPDEST DUP1 PUSH2 0x622 JUMPI POP PUSH2 0x5F2 JUMP JUMPDEST PUSH2 0x60B SWAP2 MLOAD SWAP4 DUP5 SWAP4 PUSH3 0x461BCD PUSH1 0xE5 SHL DUP6 MSTORE DUP5 ADD MSTORE PUSH1 0x24 DUP4 ADD SWAP1 PUSH2 0x2964 JUMP JUMPDEST SWAP2 SWAP4 POP PUSH1 0x1 PUSH1 0x1 PUSH1 0xE0 SHL SUB NOT SWAP1 SWAP2 AND SUB PUSH2 0x656 JUMPI STOP JUMPDEST SWAP1 MLOAD PUSH3 0x461BCD PUSH1 0xE5 SHL DUP2 MSTORE SWAP1 DUP2 SWAP1 PUSH2 0x60B SWAP1 DUP3 ADD PUSH2 0x336E JUMP JUMPDEST PUSH2 0x690 SWAP2 SWAP3 POP DUP7 RETURNDATASIZE DUP9 GT PUSH2 0x697 JUMPI JUMPDEST PUSH2 0x688 DUP2 DUP4 PUSH2 0x2A24 JUMP JUMPDEST DUP2 ADD SWAP1 PUSH2 0x334E JUMP JUMPDEST SWAP1 PUSH0 PUSH2 0x5D8 JUMP JUMPDEST POP RETURNDATASIZE PUSH2 0x67E JUMP JUMPDEST POP DUP3 PUSH0 MSTORE PUSH1 0x1 PUSH1 0x20 MSTORE DUP6 PUSH0 KECCAK256 CALLER PUSH0 MSTORE PUSH1 0x20 MSTORE PUSH2 0x4F1 PUSH1 0xFF DUP8 PUSH0 KECCAK256 SLOAD AND SWAP1 POP PUSH2 0x4E8 JUMP JUMPDEST DUP3 CALLVALUE PUSH2 0x337 JUMPI PUSH0 CALLDATASIZE PUSH1 0x3 NOT ADD SLT PUSH2 0x337 JUMPI PUSH1 0x20 SWAP1 MLOAD PUSH1 0x3 DUP2 MSTORE RETURN JUMPDEST DUP3 CALLVALUE PUSH2 0x337 JUMPI DUP1 PUSH1 0x3 NOT CALLDATASIZE ADD SLT PUSH2 0x337 JUMPI PUSH1 0x20 SWAP1 PUSH2 0x6F8 PUSH2 0x2918 JUMP JUMPDEST PUSH2 0x700 PUSH2 0x292E JUMP JUMPDEST SWAP1 PUSH1 0x1 DUP1 PUSH1 0xA0 SHL SUB DUP1 SWAP2 AND PUSH0 MSTORE PUSH1 0x1 DUP5 MSTORE DUP3 PUSH0 KECCAK256 SWAP2 AND PUSH0 MSTORE DUP3 MSTORE PUSH1 0xFF DUP2 PUSH0 KECCAK256 SLOAD AND SWAP1 MLOAD SWAP1 ISZERO ISZERO DUP2 MSTORE RETURN JUMPDEST PUSH2 0x2BA3 JUMP JUMPDEST SWAP1 POP CALLVALUE PUSH2 0x337 JUMPI PUSH1 0x20 SWAP2 DUP3 PUSH1 0x3 NOT CALLDATASIZE ADD SLT PUSH2 0x337 JUMPI DUP2 CALLDATALOAD PUSH2 0x751 DUP2 ISZERO ISZERO PUSH2 0x2CB6 JUMP JUMPDEST PUSH2 0x2710 PUSH2 0x760 PUSH1 0x5 SLOAD DUP4 PUSH2 0x2C59 JUMP JUMPDEST DIV SWAP3 CALLER ISZERO PUSH2 0x86B JUMPI PUSH2 0x770 PUSH2 0x32DB JUMP JUMPDEST POP PUSH2 0x77A DUP3 PUSH2 0x3329 JUMP JUMPDEST POP PUSH0 DUP4 MLOAD PUSH2 0x787 DUP2 PUSH2 0x29DA JUMP JUMPDEST MSTORE PUSH1 0xC9 PUSH0 MSTORE PUSH0 DUP6 MSTORE DUP3 PUSH0 KECCAK256 CALLER PUSH0 MSTORE DUP6 MSTORE DUP3 PUSH0 KECCAK256 SLOAD SWAP1 DUP3 DUP3 LT PUSH2 0x81C JUMPI POP DUP2 SWAP1 PUSH1 0xC9 PUSH0 MSTORE PUSH0 DUP7 MSTORE DUP4 PUSH0 KECCAK256 CALLER PUSH0 MSTORE DUP7 MSTORE SUB DUP3 PUSH0 KECCAK256 SSTORE PUSH0 DUP3 MLOAD PUSH1 0xC9 DUP2 MSTORE DUP3 DUP7 DUP3 ADD MSTORE CALLER SWAP1 PUSH0 DUP1 MLOAD PUSH1 0x20 PUSH2 0x3495 DUP4 CODECOPY DUP2 MLOAD SWAP2 MSTORE DUP6 CALLER SWAP3 LOG4 PUSH0 DUP3 MLOAD PUSH2 0x7E6 DUP2 PUSH2 0x29DA JUMP JUMPDEST MSTORE DUP2 MLOAD SWAP1 DUP2 MSTORE DUP3 DUP5 DUP3 ADD MSTORE PUSH32 0xF3A670CD3AF7D64B488926880889D08A8585A138FF455227AF6737339A1EC262 DUP3 CALLER SWAP3 LOG2 MLOAD SWAP1 DUP2 MSTORE RETURN JUMPDEST DUP4 MLOAD PUSH3 0x461BCD PUSH1 0xE5 SHL DUP2 MSTORE SWAP1 DUP2 ADD DUP7 SWAP1 MSTORE PUSH1 0x24 DUP1 DUP3 ADD MSTORE PUSH32 0x455243313135353A206275726E20616D6F756E7420657863656564732062616C PUSH1 0x44 DUP3 ADD MSTORE PUSH4 0x616E6365 PUSH1 0xE0 SHL PUSH1 0x64 DUP3 ADD MSTORE PUSH1 0x84 SWAP1 REVERT JUMPDEST DUP3 MLOAD PUSH3 0x461BCD PUSH1 0xE5 SHL DUP2 MSTORE SWAP1 DUP2 ADD DUP6 SWAP1 MSTORE PUSH1 0x23 PUSH1 0x24 DUP3 ADD MSTORE PUSH32 0x455243313135353A206275726E2066726F6D20746865207A65726F2061646472 PUSH1 0x44 DUP3 ADD MSTORE PUSH3 0x657373 PUSH1 0xE8 SHL PUSH1 0x64 DUP3 ADD MSTORE PUSH1 0x84 SWAP1 REVERT JUMPDEST SWAP1 POP CALLVALUE PUSH2 0x337 JUMPI PUSH1 0x20 CALLDATASIZE PUSH1 0x3 NOT ADD SLT PUSH2 0x337 JUMPI DUP1 CALLDATALOAD SWAP1 PUSH1 0x15 SLOAD DUP3 LT ISZERO PUSH2 0x8FC JUMPI PUSH1 0x20 DUP4 PUSH2 0x8E6 DUP5 PUSH2 0x2E9F JUMP JUMPDEST SWAP1 SLOAD SWAP2 MLOAD SWAP2 PUSH1 0x1 DUP1 PUSH1 0xA0 SHL SUB SWAP2 PUSH1 0x3 SHL SHR AND DUP2 MSTORE RETURN JUMPDEST PUSH1 0x64 SWAP1 PUSH1 0x20 DUP5 MLOAD SWAP2 PUSH3 0x461BCD PUSH1 0xE5 SHL DUP4 MSTORE DUP3 ADD MSTORE PUSH1 0x13 PUSH1 0x24 DUP3 ADD MSTORE PUSH19 0x496E646578206F7574206F6620626F756E6473 PUSH1 0x68 SHL PUSH1 0x44 DUP3 ADD MSTORE REVERT JUMPDEST DUP3 CALLVALUE PUSH2 0x337 JUMPI PUSH1 0x20 CALLDATASIZE PUSH1 0x3 NOT ADD SLT PUSH2 0x337 JUMPI PUSH2 0x2710 PUSH2 0x95A PUSH1 0x20 SWAP4 PUSH1 0x5 SLOAD SWAP1 CALLDATALOAD PUSH2 0x2C59 JUMP JUMPDEST DIV SWAP1 MLOAD SWAP1 DUP2 MSTORE RETURN JUMPDEST DUP3 CALLVALUE PUSH2 0x337 JUMPI PUSH0 CALLDATASIZE PUSH1 0x3 NOT ADD SLT PUSH2 0x337 JUMPI PUSH1 0x20 SWAP1 PUSH1 0xFF PUSH1 0x8 SLOAD AND SWAP1 MLOAD SWAP1 ISZERO ISZERO DUP2 MSTORE RETURN JUMPDEST DUP3 CALLVALUE PUSH2 0x337 JUMPI DUP1 PUSH1 0x3 NOT CALLDATASIZE ADD SLT PUSH2 0x337 JUMPI PUSH1 0x20 SWAP1 PUSH2 0x9A1 PUSH2 0x2918 JUMP JUMPDEST PUSH2 0x9A9 PUSH2 0x2944 JUMP JUMPDEST PUSH1 0x1 PUSH1 0x1 PUSH1 0xA0 SHL SUB SWAP1 SWAP2 AND PUSH0 SWAP1 DUP2 MSTORE PUSH1 0xF DUP5 MSTORE DUP3 DUP2 KECCAK256 PUSH1 0xFF SWAP3 DUP4 AND DUP3 MSTORE DUP5 MSTORE DUP3 SWAP1 KECCAK256 SLOAD SWAP2 MLOAD SWAP2 AND ISZERO ISZERO DUP2 MSTORE RETURN JUMPDEST DUP3 CALLVALUE PUSH2 0x337 JUMPI PUSH1 0x20 CALLDATASIZE PUSH1 0x3 NOT ADD SLT PUSH2 0x337 JUMPI PUSH1 0xE0 SWAP2 PUSH1 0x1 PUSH1 0x1 PUSH1 0xA0 SHL SUB PUSH2 0x9FB PUSH2 0x2918 JUMP JUMPDEST AND PUSH0 MSTORE PUSH1 0x13 PUSH1 0x20 MSTORE DUP2 PUSH0 KECCAK256 DUP1 SLOAD SWAP3 PUSH1 0x1 DUP3 ADD SLOAD SWAP3 PUSH1 0x2 DUP4 ADD SLOAD PUSH1 0x3 DUP5 ADD SLOAD SWAP2 DUP5 ADD SLOAD SWAP3 PUSH1 0x6 PUSH1 0x5 DUP7 ADD SLOAD SWAP6 ADD SLOAD SWAP6 DUP2 MLOAD SWAP8 DUP9 MSTORE PUSH1 0x20 DUP9 ADD MSTORE DUP7 ADD MSTORE PUSH1 0x60 DUP6 ADD MSTORE PUSH1 0x80 DUP5 ADD MSTORE PUSH1 0xA0 DUP4 ADD MSTORE PUSH1 0xC0 DUP3 ADD MSTORE RETURN JUMPDEST PUSH2 0x2B88 JUMP JUMPDEST DUP3 CALLVALUE PUSH2 0x337 JUMPI PUSH1 0x20 CALLDATASIZE PUSH1 0x3 NOT ADD SLT PUSH2 0x337 JUMPI PUSH1 0x20 SWAP1 PUSH1 0x1 PUSH1 0x1 PUSH1 0xA0 SHL SUB PUSH2 0xA76 PUSH2 0x2918 JUMP JUMPDEST AND PUSH0 MSTORE PUSH1 0x11 DUP3 MSTORE PUSH1 0xFF DUP2 PUSH0 KECCAK256 SLOAD AND SWAP1 MLOAD SWAP1 DUP2 MSTORE RETURN JUMPDEST DUP3 CALLVALUE PUSH2 0x337 JUMPI PUSH1 0x60 CALLDATASIZE PUSH1 0x3 NOT ADD SLT PUSH2 0x337 JUMPI PUSH2 0xAA5 PUSH2 0x2918 JUMP JUMPDEST SWAP1 PUSH2 0xAAE PUSH2 0x2909 JUMP JUMPDEST PUSH1 0x44 CALLDATALOAD SWAP3 PUSH1 0xFF DUP5 AND DUP1 SWAP5 SUB PUSH2 0x337 JUMPI PUSH32 0xA0AA2B85DF88566521DAA2AC1EB0694994372F9F1E64A41307F9D06A571F9212 SWAP2 PUSH1 0x20 SWAP2 PUSH2 0xAEA PUSH2 0x2F22 JUMP JUMPDEST PUSH1 0x1 PUSH1 0x1 PUSH1 0xA0 SHL SUB AND PUSH0 DUP2 DUP2 MSTORE PUSH1 0x10 DUP5 MSTORE DUP6 SWAP1 KECCAK256 DUP1 SLOAD PUSH1 0xFF NOT AND PUSH1 0xFF DUP5 ISZERO ISZERO AND OR SWAP1 SSTORE SWAP4 PUSH1 0x11 DUP4 MSTORE DUP1 PUSH0 KECCAK256 DUP7 PUSH1 0xFF NOT DUP3 SLOAD AND OR SWAP1 SSTORE MLOAD SWAP1 ISZERO ISZERO DUP2 MSTORE LOG3 STOP JUMPDEST DUP3 CALLVALUE PUSH2 0x337 JUMPI PUSH0 CALLDATASIZE PUSH1 0x3 NOT ADD SLT PUSH2 0x337 JUMPI PUSH1 0x20 SWAP1 MLOAD PUSH1 0x1 DUP2 MSTORE RETURN JUMPDEST DUP3 CALLVALUE PUSH2 0x337 JUMPI DUP1 PUSH1 0x3 NOT CALLDATASIZE ADD SLT PUSH2 0x337 JUMPI PUSH1 0x20 SWAP1 PUSH2 0xB5F PUSH2 0x2918 JUMP JUMPDEST PUSH2 0xB67 PUSH2 0x2944 JUMP JUMPDEST SWAP1 PUSH2 0xB79 PUSH2 0xB74 DUP4 PUSH2 0x315C JUMP JUMPDEST PUSH2 0x2D10 JUMP JUMPDEST PUSH1 0x1 PUSH1 0x1 PUSH1 0xA0 SHL SUB AND PUSH0 SWAP1 DUP2 MSTORE PUSH1 0xF DUP5 MSTORE DUP3 DUP2 KECCAK256 PUSH1 0xFF SWAP3 DUP4 AND DUP3 MSTORE DUP5 MSTORE DUP3 SWAP1 KECCAK256 SLOAD SWAP2 MLOAD SWAP2 AND ISZERO ISZERO DUP2 MSTORE RETURN JUMPDEST DUP3 CALLVALUE PUSH2 0x337 JUMPI DUP1 PUSH1 0x3 NOT CALLDATASIZE ADD SLT PUSH2 0x337 JUMPI PUSH2 0xBBD PUSH2 0x2918 JUMP JUMPDEST SWAP1 PUSH2 0xBC6 PUSH2 0x2909 JUMP JUMPDEST PUSH1 0x1 PUSH1 0x1 PUSH1 0xA0 SHL SUB SWAP1 SWAP3 AND SWAP3 CALLER DUP5 EQ PUSH2 0xC31 JUMPI POP CALLER PUSH0 MSTORE PUSH1 0x1 PUSH1 0x20 MSTORE DUP1 PUSH0 KECCAK256 DUP4 PUSH0 MSTORE PUSH1 0x20 MSTORE PUSH2 0xC03 DUP3 DUP3 PUSH0 KECCAK256 SWAP1 PUSH1 0xFF DUP1 NOT DUP4 SLOAD AND SWAP2 ISZERO ISZERO AND OR SWAP1 SSTORE JUMP JUMPDEST MLOAD SWAP1 ISZERO ISZERO DUP2 MSTORE PUSH32 0x17307EAB39AB6107E8899845AD3D59BD9653F200F220920489CA2B5937696C31 PUSH1 0x20 CALLER SWAP3 LOG3 STOP JUMPDEST PUSH1 0x20 PUSH1 0x84 SWAP3 MLOAD SWAP2 PUSH3 0x461BCD PUSH1 0xE5 SHL DUP4 MSTORE DUP3 ADD MSTORE PUSH1 0x29 PUSH1 0x24 DUP3 ADD MSTORE PUSH32 0x455243313135353A2073657474696E6720617070726F76616C20737461747573 PUSH1 0x44 DUP3 ADD MSTORE PUSH9 0x103337B91039B2B633 PUSH1 0xB9 SHL PUSH1 0x64 DUP3 ADD MSTORE REVERT JUMPDEST CALLVALUE PUSH2 0x337 JUMPI PUSH1 0x20 DUP1 PUSH1 0x3 NOT CALLDATASIZE ADD SLT PUSH2 0x337 JUMPI PUSH1 0x1 PUSH1 0x1 PUSH1 0x40 SHL SUB SWAP1 DUP3 CALLDATALOAD DUP3 DUP2 GT PUSH2 0x337 JUMPI PUSH2 0xCB9 PUSH2 0xCC8 SWAP2 CALLDATASIZE SWAP1 DUP7 ADD PUSH2 0x2A45 JUMP JUMPDEST PUSH2 0xCC1 PUSH2 0x2F22 JUMP JUMPDEST CALLDATASIZE SWAP2 PUSH2 0x2AF5 JUMP JUMPDEST SWAP3 DUP4 MLOAD SWAP3 DUP4 GT PUSH2 0xE09 JUMPI POP PUSH2 0xCDE PUSH1 0x2 SLOAD PUSH2 0x29A2 JUMP JUMPDEST PUSH1 0x1F DUP2 GT PUSH2 0xDA6 JUMPI JUMPDEST POP PUSH1 0x20 SWAP1 PUSH1 0x1F DUP4 GT PUSH1 0x1 EQ PUSH2 0xD28 JUMPI POP DUP2 SWAP1 PUSH2 0xD18 SWAP4 PUSH0 SWAP3 PUSH2 0xD1D JUMPI JUMPDEST POP POP DUP2 PUSH1 0x1 SHL SWAP2 PUSH0 NOT SWAP1 PUSH1 0x3 SHL SHR NOT AND OR SWAP1 JUMP JUMPDEST PUSH1 0x2 SSTORE STOP JUMPDEST ADD MLOAD SWAP1 POP DUP4 DUP1 PUSH2 0xD04 JUMP JUMPDEST SWAP1 PUSH1 0x1F NOT DUP4 AND SWAP4 PUSH1 0x2 PUSH0 MSTORE PUSH32 0x405787FA12A823E0F2B7631CC41B3BA8828B3321CA811111FA75CD3AA3BB5ACE SWAP3 PUSH0 SWAP1 JUMPDEST DUP7 DUP3 LT PUSH2 0xD8E JUMPI POP POP DUP4 PUSH1 0x1 SWAP6 LT PUSH2 0xD76 JUMPI JUMPDEST POP POP POP DUP2 SHL ADD PUSH1 0x2 SSTORE STOP JUMPDEST ADD MLOAD PUSH0 NOT PUSH1 0xF8 DUP5 PUSH1 0x3 SHL AND SHR NOT AND SWAP1 SSTORE DUP3 DUP1 DUP1 PUSH2 0xD6B JUMP JUMPDEST DUP1 PUSH1 0x1 DUP6 SWAP7 DUP3 SWAP5 SWAP7 DUP7 ADD MLOAD DUP2 SSTORE ADD SWAP6 ADD SWAP4 ADD SWAP1 PUSH2 0xD58 JUMP JUMPDEST PUSH1 0x2 PUSH0 MSTORE PUSH32 0x405787FA12A823E0F2B7631CC41B3BA8828B3321CA811111FA75CD3AA3BB5ACE PUSH1 0x1F DUP5 ADD PUSH1 0x5 SHR DUP2 ADD SWAP2 PUSH1 0x20 DUP6 LT PUSH2 0xDFF JUMPI JUMPDEST PUSH1 0x1F ADD PUSH1 0x5 SHR ADD SWAP1 JUMPDEST DUP2 DUP2 LT PUSH2 0xDF4 JUMPI POP PUSH2 0xCE7 JUMP JUMPDEST PUSH0 DUP2 SSTORE PUSH1 0x1 ADD PUSH2 0xDE7 JUMP JUMPDEST SWAP1 SWAP2 POP DUP2 SWAP1 PUSH2 0xDDE JUMP JUMPDEST PUSH1 0x41 SWAP1 PUSH4 0x4E487B71 PUSH1 0xE0 SHL PUSH0 MSTORE MSTORE PUSH1 0x24 PUSH0 REVERT JUMPDEST SWAP1 POP CALLVALUE PUSH2 0x337 JUMPI PUSH0 CALLDATASIZE PUSH1 0x3 NOT ADD SLT PUSH2 0x337 JUMPI PUSH1 0x20 SWAP2 MLOAD SWAP1 DUP2 MSTORE RETURN JUMPDEST DUP3 CALLVALUE PUSH2 0x337 JUMPI PUSH1 0x20 CALLDATASIZE PUSH1 0x3 NOT ADD SLT PUSH2 0x337 JUMPI DUP2 CALLDATALOAD PUSH2 0xE53 PUSH2 0x2F22 JUMP JUMPDEST DUP1 ISZERO PUSH2 0xE8E JUMPI PUSH32 0x1E1223C1F6274C6D64FDB08C485E192BD2896C9ABF70E840E199AC1F54D6D1D5 SWAP3 POP DUP1 PUSH1 0x5 SSTORE DUP2 MLOAD SWAP1 DUP2 MSTORE TIMESTAMP PUSH1 0x20 DUP3 ADD MSTORE LOG1 STOP JUMPDEST DUP2 MLOAD PUSH3 0x461BCD PUSH1 0xE5 SHL DUP2 MSTORE PUSH1 0x20 DUP2 DUP6 ADD MSTORE PUSH1 0xB PUSH1 0x24 DUP3 ADD MSTORE PUSH11 0x24B73B30B634B2102720AB PUSH1 0xA9 SHL PUSH1 0x44 DUP3 ADD MSTORE PUSH1 0x64 SWAP1 REVERT JUMPDEST DUP3 CALLVALUE PUSH2 0x337 JUMPI PUSH1 0x20 CALLDATASIZE PUSH1 0x3 NOT ADD SLT PUSH2 0x337 JUMPI PUSH1 0x20 SWAP1 PUSH1 0x1 PUSH1 0x1 PUSH1 0xA0 SHL SUB PUSH2 0xEE4 PUSH2 0x2918 JUMP JUMPDEST AND PUSH0 MSTORE PUSH1 0x10 DUP3 MSTORE PUSH1 0xFF DUP2 PUSH0 KECCAK256 SLOAD AND SWAP1 DUP2 PUSH2 0xF01 JUMPI JUMPDEST MLOAD SWAP1 ISZERO ISZERO DUP2 MSTORE RETURN JUMPDEST SWAP1 POP PUSH1 0x11 DUP3 MSTORE PUSH1 0x2 PUSH1 0xFF DUP3 PUSH0 KECCAK256 SLOAD AND LT ISZERO SWAP1 PUSH2 0xEF9 JUMP JUMPDEST DUP3 CALLVALUE PUSH2 0x337 JUMPI PUSH0 CALLDATASIZE PUSH1 0x3 NOT ADD SLT PUSH2 0x337 JUMPI PUSH1 0x3 SLOAD SWAP1 MLOAD PUSH1 0x1 PUSH1 0x1 PUSH1 0xA0 SHL SUB SWAP1 SWAP2 AND DUP2 MSTORE PUSH1 0x20 SWAP1 RETURN JUMPDEST DUP3 CALLVALUE PUSH2 0x337 JUMPI PUSH1 0x20 CALLDATASIZE PUSH1 0x3 NOT ADD SLT PUSH2 0x337 JUMPI PUSH32 0x181F92F68826A8D2B5B97D27F9E18D05A337290356FABF5B717154077DBEA933 SWAP2 CALLDATALOAD PUSH2 0xF7D PUSH2 0x2F22 JUMP JUMPDEST DUP1 PUSH1 0x9 SSTORE TIMESTAMP PUSH1 0x7 SSTORE DUP2 MLOAD SWAP1 DUP2 MSTORE TIMESTAMP PUSH1 0x20 DUP3 ADD MSTORE LOG1 STOP JUMPDEST DUP3 CALLVALUE PUSH2 0x337 JUMPI PUSH1 0x20 CALLDATASIZE PUSH1 0x3 NOT ADD SLT PUSH2 0x337 JUMPI PUSH1 0x20 SWAP2 CALLDATALOAD PUSH0 MSTORE PUSH1 0xE DUP3 MSTORE PUSH1 0xFF DUP2 PUSH0 KECCAK256 SLOAD AND SWAP1 MLOAD SWAP1 DUP2 MSTORE RETURN JUMPDEST DUP3 CALLVALUE PUSH2 0x337 JUMPI PUSH0 CALLDATASIZE PUSH1 0x3 NOT ADD SLT PUSH2 0x337 JUMPI PUSH1 0x20 SWAP2 SLOAD SWAP1 MLOAD SWAP1 DUP2 MSTORE RETURN JUMPDEST SWAP1 POP CALLVALUE PUSH2 0x337 JUMPI DUP2 PUSH1 0x3 NOT CALLDATASIZE ADD SLT PUSH2 0x337 JUMPI PUSH2 0xFF3 PUSH2 0x2954 JUMP JUMPDEST SWAP2 PUSH2 0xFFC PUSH2 0x292E JUMP JUMPDEST SWAP3 PUSH2 0x100E PUSH2 0x1009 DUP3 PUSH2 0x32C9 JUMP JUMPDEST PUSH2 0x2EE1 JUMP JUMPDEST PUSH1 0x1 PUSH1 0x1 PUSH1 0xA0 SHL SUB DUP5 AND DUP1 ISZERO PUSH2 0x1170 JUMPI DUP1 CALLER SUB PUSH2 0x113C JUMPI DUP1 PUSH0 MSTORE PUSH1 0x20 SWAP5 PUSH1 0xD DUP7 MSTORE PUSH1 0xFF DUP5 PUSH0 KECCAK256 SWAP4 AND SWAP3 DUP4 PUSH0 MSTORE DUP7 MSTORE PUSH1 0xFF DUP5 PUSH0 KECCAK256 SLOAD AND PUSH2 0x1102 JUMPI DUP5 SLOAD SWAP5 PUSH1 0x1 DUP7 ADD DUP1 DUP8 GT PUSH2 0x10EF JUMPI DUP2 SSTORE DUP3 PUSH0 MSTORE PUSH1 0xD DUP8 MSTORE DUP5 PUSH0 KECCAK256 DUP5 PUSH0 MSTORE DUP8 MSTORE DUP5 PUSH0 KECCAK256 PUSH1 0xFF NOT SWAP1 PUSH1 0x1 DUP3 DUP3 SLOAD AND OR SWAP1 SSTORE DUP7 PUSH0 MSTORE PUSH1 0xE DUP9 MSTORE DUP5 DUP7 PUSH0 KECCAK256 SWAP2 DUP3 SLOAD AND OR SWAP1 SSTORE DUP4 PUSH1 0x64 ADD SWAP1 DUP2 PUSH1 0x64 GT PUSH2 0x10DC JUMPI POP DUP6 SWAP4 SWAP3 SWAP2 PUSH2 0x10B2 SWAP2 DUP7 MLOAD SWAP2 PUSH2 0x10AA DUP4 PUSH2 0x29DA JUMP JUMPDEST PUSH0 DUP4 MSTORE PUSH2 0x2FD0 JUMP JUMPDEST PUSH32 0x4C7380F1D23A71F74FA1303F23B7100826E4A89A4E47B2985E5C708E47A19B3A PUSH0 DUP1 LOG4 MLOAD SWAP1 DUP2 MSTORE RETURN JUMPDEST PUSH1 0x11 SWAP1 PUSH4 0x4E487B71 PUSH1 0xE0 SHL PUSH0 MSTORE MSTORE PUSH1 0x24 PUSH0 REVERT JUMPDEST PUSH1 0x11 DUP3 PUSH4 0x4E487B71 PUSH1 0xE0 SHL PUSH0 MSTORE MSTORE PUSH1 0x24 PUSH0 REVERT JUMPDEST DUP4 MLOAD PUSH3 0x461BCD PUSH1 0xE5 SHL DUP2 MSTORE DUP1 DUP7 ADD DUP8 SWAP1 MSTORE PUSH1 0x14 PUSH1 0x24 DUP3 ADD MSTORE PUSH20 0x10985919D948185B1C9958591E481B5A5B9D1959 PUSH1 0x62 SHL PUSH1 0x44 DUP3 ADD MSTORE PUSH1 0x64 SWAP1 REVERT JUMPDEST DUP3 MLOAD PUSH3 0x461BCD PUSH1 0xE5 SHL DUP2 MSTORE PUSH1 0x20 DUP2 DUP7 ADD MSTORE PUSH1 0xE PUSH1 0x24 DUP3 ADD MSTORE PUSH14 0x13DB9B1E481CD95B19881B5A5B9D PUSH1 0x92 SHL PUSH1 0x44 DUP3 ADD MSTORE PUSH1 0x64 SWAP1 REVERT JUMPDEST DUP3 MLOAD PUSH3 0x461BCD PUSH1 0xE5 SHL DUP2 MSTORE PUSH1 0x20 DUP2 DUP7 ADD MSTORE PUSH1 0x11 PUSH1 0x24 DUP3 ADD MSTORE PUSH17 0x125B9D985B1A59081C9958DA5C1A595B9D PUSH1 0x7A SHL PUSH1 0x44 DUP3 ADD MSTORE PUSH1 0x64 SWAP1 REVERT JUMPDEST CALLVALUE PUSH2 0x337 JUMPI PUSH0 CALLDATASIZE PUSH1 0x3 NOT ADD SLT PUSH2 0x337 JUMPI PUSH2 0x11BF PUSH2 0x2F22 JUMP JUMPDEST PUSH1 0x3 DUP1 SLOAD PUSH1 0x1 PUSH1 0x1 PUSH1 0xA0 SHL SUB NOT DUP2 AND SWAP1 SWAP2 SSTORE PUSH0 SWAP1 PUSH1 0x1 PUSH1 0x1 PUSH1 0xA0 SHL SUB AND PUSH32 0x8BE0079C531659141344CD1FD0A4F28419497F9722A3DAAFE3B4186F6B6457E0 DUP3 DUP1 LOG3 STOP JUMPDEST DUP3 CALLVALUE PUSH2 0x337 JUMPI PUSH0 CALLDATASIZE PUSH1 0x3 NOT ADD SLT PUSH2 0x337 JUMPI PUSH1 0x20 SWAP1 MLOAD PUSH1 0x2 DUP2 MSTORE RETURN JUMPDEST DUP3 CALLVALUE PUSH2 0x337 JUMPI PUSH0 CALLDATASIZE PUSH1 0x3 NOT ADD SLT PUSH2 0x337 JUMPI PUSH1 0x20 SWAP1 MLOAD PUSH1 0x5 DUP2 MSTORE RETURN JUMPDEST DUP3 CALLVALUE PUSH2 0x337 JUMPI DUP1 PUSH1 0x3 NOT CALLDATASIZE ADD SLT PUSH2 0x337 JUMPI PUSH1 0x20 SWAP1 PUSH2 0x1254 PUSH2 0x2918 JUMP JUMPDEST PUSH2 0x125C PUSH2 0x2944 JUMP JUMPDEST SWAP1 PUSH2 0x1269 PUSH2 0x1009 DUP4 PUSH2 0x32C9 JUMP JUMPDEST PUSH1 0x1 PUSH1 0x1 PUSH1 0xA0 SHL SUB AND PUSH0 SWAP1 DUP2 MSTORE PUSH1 0xD DUP5 MSTORE DUP3 DUP2 KECCAK256 PUSH1 0xFF SWAP3 DUP4 AND DUP3 MSTORE DUP5 MSTORE DUP3 SWAP1 KECCAK256 SLOAD SWAP2 MLOAD SWAP2 AND ISZERO ISZERO DUP2 MSTORE RETURN JUMPDEST SWAP1 POP CALLVALUE PUSH2 0x337 JUMPI PUSH1 0x60 CALLDATASIZE PUSH1 0x3 NOT ADD SLT PUSH2 0x337 JUMPI DUP1 CALLDATALOAD SWAP2 PUSH1 0x24 CALLDATALOAD PUSH1 0x44 CALLDATALOAD SWAP3 CALLER PUSH0 MSTORE PUSH1 0x13 PUSH1 0x20 MSTORE DUP3 PUSH0 KECCAK256 SWAP1 PUSH3 0x15180 TIMESTAMP DIV PUSH1 0x14 PUSH1 0x20 MSTORE DUP5 PUSH0 KECCAK256 DUP1 SLOAD PUSH1 0xFF DUP2 AND ISZERO PUSH2 0x13DA JUMPI JUMPDEST POP POP PUSH1 0x5 DUP4 ADD DUP2 DUP2 SLOAD SUB PUSH2 0x13CC JUMPI JUMPDEST POP POP PUSH1 0x6 DUP3 ADD SWAP1 DUP2 SLOAD SWAP3 PUSH1 0x3 DUP5 LT ISZERO PUSH2 0x1389 JUMPI DUP1 DUP3 SWAP2 SLOAD DUP10 SGT PUSH2 0x1375 JUMPI JUMPDEST TIMESTAMP PUSH1 0x3 DUP3 ADD SSTORE ADD DUP1 SLOAD SWAP1 PUSH1 0x1 DUP3 ADD DUP1 SWAP3 GT PUSH2 0x1362 JUMPI SSTORE PUSH1 0x1 DUP4 ADD DUP1 SWAP4 GT PUSH2 0x10DC JUMPI POP SSTORE DUP2 MLOAD SWAP4 DUP5 MSTORE PUSH1 0x20 DUP5 ADD MSTORE DUP3 ADD MSTORE TIMESTAMP PUSH1 0x60 DUP3 ADD MSTORE PUSH32 0xF6D69723C1E13A6E751FF8839D394F04FFFFC588FDD13A7CFD1FDFC1BF87EBE1 PUSH1 0x80 CALLER SWAP3 LOG2 STOP JUMPDEST PUSH1 0x11 DUP4 PUSH4 0x4E487B71 PUSH1 0xE0 SHL PUSH0 MSTORE MSTORE PUSH1 0x24 PUSH0 REVERT JUMPDEST DUP9 DUP2 SSTORE DUP6 PUSH1 0x1 DUP3 ADD SSTORE DUP8 PUSH1 0x2 DUP3 ADD SSTORE PUSH2 0x1304 JUMP JUMPDEST DUP6 MLOAD PUSH3 0x461BCD PUSH1 0xE5 SHL DUP2 MSTORE PUSH1 0x20 DUP2 DUP5 ADD MSTORE PUSH1 0x19 PUSH1 0x24 DUP3 ADD MSTORE PUSH32 0x4461696C792073636F7265206C696D6974207265616368656400000000000000 PUSH1 0x44 DUP3 ADD MSTORE PUSH1 0x64 SWAP1 REVERT JUMPDEST SSTORE PUSH0 PUSH1 0x6 DUP4 ADD SSTORE PUSH0 DUP1 PUSH2 0x12E6 JUMP JUMPDEST PUSH1 0xFF NOT AND PUSH1 0x1 OR SWAP1 SSTORE PUSH1 0x15 SLOAD PUSH9 0x10000000000000000 DUP2 LT ISZERO PUSH2 0x142A JUMPI DUP1 PUSH1 0x1 PUSH2 0x1407 SWAP3 ADD PUSH1 0x15 SSTORE PUSH2 0x2E9F JUMP JUMPDEST DUP2 SLOAD PUSH1 0x1 PUSH1 0x1 PUSH1 0xA0 SHL SUB PUSH1 0x3 SWAP3 SWAP1 SWAP3 SHL SWAP2 DUP3 SHL NOT AND CALLER SWAP1 SWAP2 SHL OR SWAP1 SSTORE PUSH0 DUP1 PUSH2 0x12D7 JUMP JUMPDEST PUSH1 0x41 DUP4 PUSH4 0x4E487B71 PUSH1 0xE0 SHL PUSH0 MSTORE MSTORE PUSH1 0x24 PUSH0 REVERT JUMPDEST DUP3 CALLVALUE PUSH2 0x337 JUMPI PUSH1 0x20 SWAP2 PUSH1 0x3 NOT SWAP2 DUP4 DUP4 CALLDATASIZE ADD SLT PUSH2 0x337 JUMPI DUP2 CALLDATALOAD SWAP4 PUSH1 0x1 PUSH1 0x1 PUSH1 0x40 SHL SUB DUP1 DUP7 GT PUSH2 0x337 JUMPI CALLDATASIZE PUSH1 0x23 DUP8 ADD SLT ISZERO PUSH2 0x337 JUMPI DUP6 DUP5 ADD CALLDATALOAD SWAP1 DUP2 GT PUSH2 0x337 JUMPI PUSH1 0x24 DUP7 ADD SWAP6 PUSH1 0x24 CALLDATASIZE SWAP2 DUP4 PUSH1 0x5 SHL ADD ADD GT PUSH2 0x337 JUMPI PUSH2 0x1498 DUP2 PUSH2 0x2E35 JUMP JUMPDEST SWAP1 PUSH0 JUMPDEST DUP2 DUP2 LT PUSH2 0x168B JUMPI POP PUSH2 0x14AE CALLDATASIZE DUP3 DUP10 PUSH2 0x2A89 JUMP JUMPDEST SWAP5 DUP5 MLOAD SWAP7 PUSH2 0x14BB DUP9 PUSH2 0x29DA JUMP JUMPDEST PUSH0 DUP9 MSTORE PUSH2 0x14C9 CALLER ISZERO ISZERO PUSH2 0x2F7A JUMP JUMPDEST PUSH2 0x14D6 DUP8 MLOAD DUP6 MLOAD EQ PUSH2 0x3176 JUMP JUMPDEST PUSH0 JUMPDEST DUP8 MLOAD DUP2 LT ISZERO PUSH2 0x151D JUMPI DUP1 PUSH2 0x14EE PUSH1 0x1 SWAP3 DUP8 PUSH2 0x2E67 JUMP JUMPDEST MLOAD PUSH2 0x14F9 DUP3 DUP12 PUSH2 0x2E67 JUMP JUMPDEST MLOAD PUSH0 MSTORE PUSH0 DUP9 MSTORE DUP9 PUSH0 KECCAK256 CALLER PUSH0 MSTORE DUP9 MSTORE PUSH2 0x1515 DUP10 PUSH0 KECCAK256 SWAP2 DUP3 SLOAD PUSH2 0x2ED4 JUMP JUMPDEST SWAP1 SSTORE ADD PUSH2 0x14D8 JUMP JUMPDEST POP SWAP1 SWAP5 SWAP4 SWAP6 SWAP2 SWAP7 DUP5 MLOAD PUSH0 CALLER SWAP2 PUSH32 0x4A39DC06D4C0DBC64B70AF90FD698A233A518AA5D07E595D983B8C0526C8F7FB CALLER SWAP2 DUP1 PUSH2 0x1558 DUP11 DUP11 DUP4 PUSH2 0x328C JUMP JUMPDEST SUB SWAP1 LOG4 CALLER EXTCODESIZE PUSH2 0x15AE JUMPI JUMPDEST POP POP POP POP POP POP POP PUSH0 JUMPDEST DUP2 DUP2 LT PUSH2 0x1574 JUMPI STOP JUMPDEST DUP1 PUSH2 0x1582 PUSH1 0x1 SWAP3 DUP5 DUP7 PUSH2 0x2E8F JUMP JUMPDEST CALLDATALOAD CALLER PUSH32 0x4844D30B922FFC2B845400EB2A15CDD62742176C723E09D7CC9703E83645E4B PUSH0 DUP1 LOG3 ADD PUSH2 0x156B JUMP JUMPDEST DUP6 SWAP8 SWAP5 SWAP7 SWAP9 SWAP6 SWAP4 SWAP3 PUSH2 0x1610 DUP11 SWAP4 PUSH2 0x15F1 SWAP4 PUSH2 0x1601 DUP12 MLOAD SWAP8 DUP9 SWAP7 DUP8 SWAP7 PUSH4 0xBC197C81 PUSH1 0xE0 SHL SWAP12 DUP13 DUP10 MSTORE CALLER SWAP1 DUP10 ADD MSTORE PUSH0 PUSH1 0x24 DUP10 ADD MSTORE PUSH1 0xA0 PUSH1 0x44 DUP10 ADD MSTORE PUSH1 0xA4 DUP9 ADD SWAP1 PUSH2 0x2B55 JUMP JUMPDEST SWAP1 DUP5 DUP8 DUP4 SUB ADD PUSH1 0x64 DUP9 ADD MSTORE PUSH2 0x2B55 JUMP JUMPDEST SWAP2 DUP5 DUP4 SUB ADD PUSH1 0x84 DUP6 ADD MSTORE PUSH2 0x2964 JUMP JUMPDEST SUB DUP2 PUSH0 CALLER GAS CALL PUSH0 SWAP2 DUP2 PUSH2 0x166C JUMPI JUMPDEST POP PUSH2 0x162F JUMPI POP POP POP POP PUSH2 0x5E7 PUSH2 0x33B7 JUMP JUMPDEST SWAP3 SWAP6 POP SWAP1 SWAP4 SWAP3 SWAP2 PUSH1 0x1 PUSH1 0x1 PUSH1 0xE0 SHL SUB NOT AND SUB PUSH2 0x1653 JUMPI POP POP DUP3 DUP1 DUP1 DUP1 DUP1 DUP1 DUP1 PUSH2 0x1562 JUMP JUMPDEST MLOAD PUSH3 0x461BCD PUSH1 0xE5 SHL DUP2 MSTORE SWAP2 POP DUP2 SWAP1 PUSH2 0x60B SWAP1 DUP3 ADD PUSH2 0x336E JUMP JUMPDEST PUSH2 0x1684 SWAP2 SWAP3 POP DUP9 RETURNDATASIZE DUP11 GT PUSH2 0x697 JUMPI PUSH2 0x688 DUP2 DUP4 PUSH2 0x2A24 JUMP JUMPDEST SWAP1 DUP9 PUSH2 0x161E JUMP JUMPDEST DUP1 PUSH2 0x16BD PUSH2 0x16B7 PUSH2 0x169F PUSH1 0x1 SWAP5 DUP7 DUP14 PUSH2 0x2E8F JUMP JUMPDEST CALLDATALOAD PUSH2 0x16B1 PUSH2 0x16AC DUP3 PUSH2 0x32B1 JUMP JUMPDEST PUSH2 0x2DB5 JUMP JUMPDEST CALLER PUSH2 0x2BD9 JUMP JUMPDEST ISZERO PUSH2 0x2DF7 JUMP JUMPDEST DUP2 PUSH2 0x16C8 DUP3 DUP7 PUSH2 0x2E67 JUMP JUMPDEST MSTORE ADD PUSH2 0x149B JUMP JUMPDEST SWAP1 POP CALLVALUE PUSH2 0x337 JUMPI PUSH1 0x20 DUP1 PUSH1 0x3 NOT CALLDATASIZE ADD SLT PUSH2 0x337 JUMPI PUSH1 0x1 PUSH1 0x1 PUSH1 0x40 SHL SUB SWAP1 DUP3 CALLDATALOAD DUP3 DUP2 GT PUSH2 0x337 JUMPI PUSH2 0x1702 SWAP1 CALLDATASIZE SWAP1 DUP6 ADD PUSH2 0x2A45 JUMP JUMPDEST SWAP4 SWAP1 SWAP3 PUSH2 0x170D PUSH2 0x2F22 JUMP JUMPDEST DUP5 GT PUSH2 0xE09 JUMPI POP PUSH2 0x171F PUSH1 0xA SLOAD PUSH2 0x29A2 JUMP JUMPDEST PUSH1 0x1F DUP2 GT PUSH2 0x1850 JUMPI JUMPDEST POP PUSH0 SWAP1 PUSH1 0x1F DUP5 GT PUSH1 0x1 EQ PUSH2 0x17A7 JUMPI POP PUSH32 0x9FB0A9F79F07CF16C95B92623175F408D609663D7868AE62581439D923470BD SWAP4 SWAP2 PUSH2 0x177D DUP5 DUP1 PUSH2 0x1791 SWAP5 PUSH0 SWAP2 PUSH2 0x179C JUMPI JUMPDEST POP DUP2 PUSH1 0x1 SHL SWAP2 PUSH0 NOT SWAP1 PUSH1 0x3 SHL SHR NOT AND OR SWAP1 JUMP JUMPDEST PUSH1 0xA SSTORE JUMPDEST DUP3 MLOAD SWAP4 DUP4 DUP6 SWAP5 DUP6 MSTORE DUP5 ADD SWAP2 PUSH2 0x2CF0 JUMP JUMPDEST TIMESTAMP PUSH1 0x20 DUP4 ADD MSTORE SUB SWAP1 LOG1 STOP JUMPDEST SWAP1 POP DUP4 ADD CALLDATALOAD PUSH0 PUSH2 0x176A JUMP JUMPDEST SWAP1 PUSH1 0x1F NOT DUP5 AND PUSH1 0xA PUSH0 MSTORE PUSH32 0xC65A7BB8D6351C1CF70C95A316CC6A92839C986682D98BC35F958F4883F9D2A8 SWAP3 PUSH0 SWAP1 JUMPDEST DUP3 DUP3 LT PUSH2 0x1838 JUMPI POP POP SWAP2 PUSH32 0x9FB0A9F79F07CF16C95B92623175F408D609663D7868AE62581439D923470BD SWAP6 SWAP4 SWAP2 DUP6 PUSH2 0x1791 SWAP5 LT PUSH2 0x181F JUMPI JUMPDEST POP POP PUSH1 0x1 DUP5 DUP2 SHL ADD PUSH1 0xA SSTORE PUSH2 0x1781 JUMP JUMPDEST DUP3 ADD CALLDATALOAD PUSH0 NOT PUSH1 0x3 DUP8 SWAP1 SHL PUSH1 0xF8 AND SHR NOT AND SWAP1 SSTORE PUSH0 DUP1 PUSH2 0x180F JUMP JUMPDEST DUP1 PUSH1 0x1 DUP6 SWAP7 DUP3 SWAP5 SWAP7 DUP10 ADD CALLDATALOAD DUP2 SSTORE ADD SWAP6 ADD SWAP4 ADD SWAP1 PUSH2 0x17D6 JUMP JUMPDEST PUSH1 0xA PUSH0 MSTORE PUSH32 0xC65A7BB8D6351C1CF70C95A316CC6A92839C986682D98BC35F958F4883F9D2A8 PUSH1 0x1F DUP6 ADD PUSH1 0x5 SHR DUP2 ADD SWAP2 PUSH1 0x20 DUP7 LT PUSH2 0x18A9 JUMPI JUMPDEST PUSH1 0x1F ADD PUSH1 0x5 SHR ADD SWAP1 JUMPDEST DUP2 DUP2 LT PUSH2 0x189E JUMPI POP PUSH2 0x1728 JUMP JUMPDEST PUSH0 DUP2 SSTORE PUSH1 0x1 ADD PUSH2 0x1891 JUMP JUMPDEST SWAP1 SWAP2 POP DUP2 SWAP1 PUSH2 0x1888 JUMP JUMPDEST SWAP1 POP CALLVALUE PUSH2 0x337 JUMPI PUSH1 0x20 SWAP2 DUP3 PUSH1 0x3 NOT CALLDATASIZE ADD SLT PUSH2 0x337 JUMPI PUSH2 0x18D0 PUSH2 0x2918 JUMP JUMPDEST SWAP2 PUSH1 0x1 PUSH1 0x1 PUSH1 0xA0 SHL SUB DUP4 AND DUP1 ISZERO PUSH2 0x1B37 JUMPI DUP1 CALLER SUB PUSH2 0x1B04 JUMPI DUP1 PUSH0 MSTORE PUSH1 0xD DUP6 MSTORE DUP3 PUSH0 KECCAK256 SWAP2 PUSH1 0x1 SWAP3 DUP4 PUSH0 MSTORE DUP7 MSTORE PUSH1 0xFF DUP5 PUSH0 KECCAK256 SLOAD AND PUSH2 0x1ACA JUMPI DUP1 SLOAD SWAP5 DUP4 DUP7 ADD DUP1 DUP8 GT PUSH2 0x1362 JUMPI DUP3 SSTORE DUP3 PUSH0 MSTORE PUSH1 0xD DUP8 MSTORE DUP5 PUSH0 KECCAK256 DUP5 PUSH0 MSTORE DUP8 MSTORE DUP5 PUSH0 KECCAK256 PUSH1 0xFF NOT SWAP1 DUP6 DUP3 DUP3 SLOAD AND OR SWAP1 SSTORE DUP7 PUSH0 MSTORE PUSH1 0xE DUP9 MSTORE DUP5 DUP7 PUSH0 KECCAK256 SWAP2 DUP3 SLOAD AND OR SWAP1 SSTORE DUP5 MLOAD SWAP1 PUSH2 0x1951 DUP3 PUSH2 0x29DA JUMP JUMPDEST PUSH0 DUP3 MSTORE DUP6 MLOAD PUSH2 0x195F DUP2 PUSH2 0x2A09 JUMP JUMPDEST DUP6 DUP2 MSTORE DUP9 DUP2 ADD SWAP1 DUP10 CALLDATASIZE DUP4 CALLDATACOPY MLOAD ISZERO PUSH2 0x1AB7 JUMPI PUSH1 0x65 SWAP1 MSTORE PUSH2 0x197C PUSH2 0x3302 JUMP JUMPDEST POP PUSH1 0x65 PUSH0 MSTORE PUSH0 DUP9 MSTORE DUP6 PUSH0 KECCAK256 DUP5 PUSH0 MSTORE DUP9 MSTORE DUP6 PUSH0 KECCAK256 DUP1 SLOAD SWAP1 DUP7 DUP3 ADD DUP1 SWAP3 GT PUSH2 0x1AA4 JUMPI SSTORE DUP4 PUSH0 DUP8 MLOAD PUSH1 0x65 DUP2 MSTORE DUP8 DUP12 DUP3 ADD MSTORE PUSH0 DUP1 MLOAD PUSH1 0x20 PUSH2 0x3495 DUP4 CODECOPY DUP2 MLOAD SWAP2 MSTORE DUP10 CALLER SWAP3 LOG4 EXTCODESIZE PUSH2 0x19F1 JUMPI JUMPDEST POP POP SWAP1 DUP4 SWAP2 PUSH32 0x4C7380F1D23A71F74FA1303F23B7100826E4A89A4E47B2985E5C708E47A19B3A PUSH0 DUP1 LOG4 MLOAD SWAP1 DUP2 MSTORE RETURN JUMPDEST DUP5 SWAP6 SWAP4 SWAP3 SWAP2 SWAP6 MLOAD DUP8 DUP2 DUP1 PUSH2 0x1A33 PUSH4 0xF23A6E61 PUSH1 0xE0 SHL SWAP6 DUP7 DUP4 MSTORE CALLER DUP13 DUP5 ADD MSTORE PUSH0 PUSH1 0x24 DUP5 ADD MSTORE PUSH1 0x65 PUSH1 0x44 DUP5 ADD MSTORE DUP9 PUSH1 0x64 DUP5 ADD MSTORE PUSH1 0xA0 PUSH1 0x84 DUP5 ADD MSTORE PUSH1 0xA4 DUP4 ADD SWAP1 PUSH2 0x2964 JUMP JUMPDEST SUB DUP2 PUSH0 DUP8 GAS CALL PUSH0 SWAP2 DUP2 PUSH2 0x1A85 JUMPI JUMPDEST POP PUSH2 0x1A51 JUMPI DUP8 DUP8 DUP8 PUSH2 0x5E7 PUSH2 0x33B7 JUMP JUMPDEST PUSH4 0xFFFFFFFF PUSH1 0xE0 SWAP8 SWAP4 SWAP5 SWAP6 SWAP8 SHL AND SUB PUSH2 0x1A6C JUMPI POP DUP4 PUSH0 PUSH2 0x19C2 JUMP JUMPDEST DUP4 MLOAD PUSH3 0x461BCD PUSH1 0xE5 SHL DUP2 MSTORE SWAP1 DUP2 SWAP1 PUSH2 0x60B SWAP1 DUP3 ADD PUSH2 0x336E JUMP JUMPDEST PUSH2 0x1A9D SWAP2 SWAP3 POP DUP10 RETURNDATASIZE DUP12 GT PUSH2 0x697 JUMPI PUSH2 0x688 DUP2 DUP4 PUSH2 0x2A24 JUMP JUMPDEST SWAP1 PUSH0 PUSH2 0x1A41 JUMP JUMPDEST PUSH1 0x11 DUP6 PUSH4 0x4E487B71 PUSH1 0xE0 SHL PUSH0 MSTORE MSTORE PUSH1 0x24 PUSH0 REVERT JUMPDEST PUSH1 0x32 DUP5 PUSH4 0x4E487B71 PUSH1 0xE0 SHL PUSH0 MSTORE MSTORE PUSH1 0x24 PUSH0 REVERT JUMPDEST DUP4 MLOAD PUSH3 0x461BCD PUSH1 0xE5 SHL DUP2 MSTORE SWAP1 DUP2 ADD DUP7 SWAP1 MSTORE PUSH1 0x14 PUSH1 0x24 DUP3 ADD MSTORE PUSH20 0x10985919D948185B1C9958591E481B5A5B9D1959 PUSH1 0x62 SHL PUSH1 0x44 DUP3 ADD MSTORE PUSH1 0x64 SWAP1 REVERT JUMPDEST POP DUP4 PUSH1 0x64 SWAP3 MLOAD SWAP2 PUSH3 0x461BCD PUSH1 0xE5 SHL DUP4 MSTORE DUP3 ADD MSTORE PUSH1 0xE PUSH1 0x24 DUP3 ADD MSTORE PUSH14 0x13DB9B1E481CD95B19881B5A5B9D PUSH1 0x92 SHL PUSH1 0x44 DUP3 ADD MSTORE REVERT JUMPDEST POP DUP4 PUSH1 0x64 SWAP3 MLOAD SWAP2 PUSH3 0x461BCD PUSH1 0xE5 SHL DUP4 MSTORE DUP3 ADD MSTORE PUSH1 0x11 PUSH1 0x24 DUP3 ADD MSTORE PUSH17 0x125B9D985B1A59081C9958DA5C1A595B9D PUSH1 0x7A SHL PUSH1 0x44 DUP3 ADD MSTORE REVERT JUMPDEST DUP3 CALLVALUE PUSH2 0x337 JUMPI DUP1 PUSH1 0x3 NOT CALLDATASIZE ADD SLT PUSH2 0x337 JUMPI PUSH1 0x1 PUSH1 0x1 PUSH1 0x40 SHL SUB SWAP2 DUP1 CALLDATALOAD DUP4 DUP2 GT PUSH2 0x337 JUMPI CALLDATASIZE PUSH1 0x23 DUP3 ADD SLT ISZERO PUSH2 0x337 JUMPI DUP1 DUP3 ADD CALLDATALOAD SWAP4 PUSH2 0x1BA9 DUP6 PUSH2 0x2A72 JUMP JUMPDEST SWAP2 PUSH2 0x1BB6 DUP6 MLOAD SWAP4 DUP5 PUSH2 0x2A24 JUMP JUMPDEST DUP6 DUP4 MSTORE PUSH1 0x20 SWAP6 PUSH1 0x24 DUP8 DUP6 ADD SWAP2 PUSH1 0x5 SHL DUP4 ADD ADD SWAP2 CALLDATASIZE DUP4 GT PUSH2 0x337 JUMPI PUSH1 0x24 ADD SWAP1 JUMPDEST DUP3 DUP3 LT PUSH2 0x1CBE JUMPI POP POP POP PUSH1 0x24 CALLDATALOAD SWAP1 DUP2 GT PUSH2 0x337 JUMPI PUSH2 0x1BF6 SWAP1 CALLDATASIZE SWAP1 DUP5 ADD PUSH2 0x2AD7 JUMP JUMPDEST SWAP2 DUP2 MLOAD DUP4 MLOAD SUB PUSH2 0x1C69 JUMPI POP PUSH2 0x1C0B DUP2 MLOAD PUSH2 0x2E35 JUMP JUMPDEST SWAP4 PUSH0 JUMPDEST DUP3 MLOAD DUP2 LT ISZERO PUSH2 0x1C53 JUMPI PUSH1 0x1 SWAP1 PUSH2 0x1C42 PUSH1 0x1 PUSH1 0x1 PUSH1 0xA0 SHL SUB PUSH2 0x1C2F DUP4 DUP8 PUSH2 0x2E67 JUMP JUMPDEST MLOAD AND PUSH2 0x1C3B DUP4 DUP9 PUSH2 0x2E67 JUMP JUMPDEST MLOAD SWAP1 PUSH2 0x2BD9 JUMP JUMPDEST PUSH2 0x1C4C DUP3 DUP10 PUSH2 0x2E67 JUMP JUMPDEST MSTORE ADD PUSH2 0x1C0E JUMP JUMPDEST DUP5 MLOAD DUP3 DUP2 MSTORE DUP1 PUSH2 0x1C65 DUP2 DUP6 ADD DUP10 PUSH2 0x2B55 JUMP JUMPDEST SUB SWAP1 RETURN JUMPDEST DUP4 MLOAD PUSH3 0x461BCD PUSH1 0xE5 SHL DUP2 MSTORE SWAP1 DUP2 ADD DUP6 SWAP1 MSTORE PUSH1 0x29 PUSH1 0x24 DUP3 ADD MSTORE PUSH32 0x455243313135353A206163636F756E747320616E6420696473206C656E677468 PUSH1 0x44 DUP3 ADD MSTORE PUSH9 0x40DAD2E6DAC2E8C6D PUSH1 0xBB SHL PUSH1 0x64 DUP3 ADD MSTORE PUSH1 0x84 SWAP1 REVERT JUMPDEST DUP2 CALLDATALOAD PUSH1 0x1 PUSH1 0x1 PUSH1 0xA0 SHL SUB DUP2 AND DUP2 SUB PUSH2 0x337 JUMPI DUP2 MSTORE SWAP1 DUP8 ADD SWAP1 DUP8 ADD PUSH2 0x1BD5 JUMP JUMPDEST DUP3 CALLVALUE PUSH2 0x337 JUMPI PUSH1 0x20 CALLDATASIZE PUSH1 0x3 NOT ADD SLT PUSH2 0x337 JUMPI PUSH1 0x20 SWAP1 PUSH1 0x1 PUSH1 0x1 PUSH1 0xA0 SHL SUB PUSH2 0x1D02 PUSH2 0x2918 JUMP JUMPDEST AND PUSH0 MSTORE PUSH1 0x10 DUP3 MSTORE PUSH1 0xFF DUP2 PUSH0 KECCAK256 SLOAD AND SWAP1 MLOAD SWAP1 ISZERO ISZERO DUP2 MSTORE RETURN JUMPDEST DUP3 CALLVALUE PUSH2 0x337 JUMPI PUSH0 CALLDATASIZE PUSH1 0x3 NOT ADD SLT PUSH2 0x337 JUMPI PUSH1 0x20 SWAP1 PUSH1 0x7 SLOAD SWAP1 MLOAD SWAP1 DUP2 MSTORE RETURN JUMPDEST DUP3 CALLVALUE PUSH2 0x337 JUMPI PUSH1 0x20 CALLDATASIZE PUSH1 0x3 NOT ADD SLT PUSH2 0x337 JUMPI PUSH1 0x20 SWAP2 CALLDATALOAD PUSH0 MSTORE PUSH1 0x12 DUP3 MSTORE PUSH1 0xFF DUP2 PUSH0 KECCAK256 SLOAD AND SWAP1 MLOAD SWAP1 ISZERO ISZERO DUP2 MSTORE RETURN JUMPDEST DUP3 CALLVALUE PUSH2 0x337 JUMPI PUSH0 CALLDATASIZE PUSH1 0x3 NOT ADD SLT PUSH2 0x337 JUMPI PUSH1 0x20 SWAP1 PUSH1 0x6 SLOAD SWAP1 MLOAD SWAP1 DUP2 MSTORE RETURN JUMPDEST DUP3 CALLVALUE PUSH2 0x337 JUMPI PUSH1 0x20 CALLDATASIZE PUSH1 0x3 NOT ADD SLT PUSH2 0x337 JUMPI PUSH1 0x20 SWAP1 PUSH1 0x1 PUSH1 0x1 PUSH1 0xA0 SHL SUB PUSH2 0x1DA6 PUSH2 0x2918 JUMP JUMPDEST AND PUSH0 MSTORE PUSH1 0xD DUP3 MSTORE DUP1 PUSH0 KECCAK256 PUSH1 0x1 PUSH0 MSTORE DUP3 MSTORE PUSH1 0xFF DUP2 PUSH0 KECCAK256 SLOAD AND SWAP1 MLOAD SWAP1 ISZERO ISZERO DUP2 MSTORE RETURN JUMPDEST SWAP1 POP CALLVALUE PUSH2 0x337 JUMPI PUSH1 0x20 CALLDATASIZE PUSH1 0x3 NOT ADD SLT PUSH2 0x337 JUMPI PUSH2 0x1E0C SWAP1 CALLDATALOAD SWAP2 PUSH2 0x1DEB PUSH2 0x16AC DUP5 PUSH2 0x32B1 JUMP JUMPDEST PUSH2 0x1DF8 PUSH2 0x16B7 DUP5 CALLER PUSH2 0x2BD9 JUMP JUMPDEST MLOAD PUSH2 0x1E02 DUP2 PUSH2 0x29DA JUMP JUMPDEST PUSH0 DUP2 MSTORE DUP3 CALLER PUSH2 0x2FD0 JUMP JUMPDEST CALLER PUSH32 0x4844D30B922FFC2B845400EB2A15CDD62742176C723E09D7CC9703E83645E4B PUSH0 DUP1 LOG3 STOP JUMPDEST DUP3 CALLVALUE PUSH2 0x337 JUMPI PUSH0 CALLDATASIZE PUSH1 0x3 NOT ADD SLT PUSH2 0x337 JUMPI DUP1 MLOAD PUSH1 0xB SLOAD SWAP1 SWAP2 DUP3 PUSH0 PUSH2 0x1E56 DUP5 PUSH2 0x29A2 JUMP JUMPDEST DUP1 DUP4 MSTORE PUSH1 0x20 SWAP5 PUSH1 0x1 SWAP1 DUP7 PUSH1 0x1 DUP3 AND SWAP2 DUP3 PUSH0 EQ PUSH2 0x1EF2 JUMPI POP POP PUSH1 0x1 EQ PUSH2 0x1E97 JUMPI JUMPDEST POP POP PUSH2 0x1C65 SWAP3 SWAP2 PUSH2 0x1E88 SWAP2 SUB DUP6 PUSH2 0x2A24 JUMP JUMPDEST MLOAD SWAP3 DUP3 DUP5 SWAP4 DUP5 MSTORE DUP4 ADD SWAP1 PUSH2 0x2964 JUMP JUMPDEST SWAP1 DUP6 SWAP3 POP PUSH1 0xB PUSH0 MSTORE PUSH32 0x175B7A638427703F0DBE7BB9BBF987A2551717B34E79F33B5B1008D1FA01DB9 SWAP2 PUSH0 SWAP3 JUMPDEST DUP3 DUP5 LT PUSH2 0x1EDA JUMPI POP POP POP DUP3 ADD ADD DUP2 PUSH2 0x1E88 PUSH2 0x1E76 JUMP JUMPDEST DUP1 SLOAD DUP5 DUP11 ADD DUP7 ADD MSTORE DUP9 SWAP6 POP DUP8 SWAP5 SWAP1 SWAP4 ADD SWAP3 DUP2 ADD PUSH2 0x1EC4 JUMP JUMPDEST PUSH1 0xFF NOT AND DUP7 DUP3 ADD MSTORE SWAP3 ISZERO ISZERO PUSH1 0x5 SHL DUP6 ADD SWAP1 SWAP3 ADD SWAP3 POP DUP4 SWAP2 POP PUSH2 0x1E88 SWAP1 POP PUSH2 0x1E76 JUMP JUMPDEST DUP3 CALLVALUE PUSH2 0x337 JUMPI PUSH0 CALLDATASIZE PUSH1 0x3 NOT ADD SLT PUSH2 0x337 JUMPI PUSH1 0x20 SWAP1 PUSH1 0x15 SLOAD SWAP1 MLOAD SWAP1 DUP2 MSTORE RETURN JUMPDEST SWAP1 POP CALLVALUE PUSH2 0x337 JUMPI PUSH1 0x3 NOT SWAP1 PUSH1 0xA0 CALLDATASIZE DUP4 ADD SLT PUSH2 0x337 JUMPI PUSH2 0x1F4F PUSH2 0x2918 JUMP JUMPDEST SWAP2 PUSH2 0x1F58 PUSH2 0x292E JUMP JUMPDEST SWAP3 PUSH1 0x1 PUSH1 0x1 PUSH1 0x40 SHL SUB SWAP3 PUSH1 0x44 CALLDATALOAD DUP5 DUP2 GT PUSH2 0x337 JUMPI PUSH2 0x1F79 SWAP1 CALLDATASIZE SWAP1 DUP4 ADD PUSH2 0x2AD7 JUMP JUMPDEST SWAP1 PUSH1 0x64 CALLDATALOAD DUP6 DUP2 GT PUSH2 0x337 JUMPI PUSH2 0x1F91 SWAP1 CALLDATASIZE SWAP1 DUP4 ADD PUSH2 0x2AD7 JUMP JUMPDEST SWAP5 PUSH1 0x84 CALLDATALOAD SWAP1 DUP2 GT PUSH2 0x337 JUMPI PUSH2 0x1FA9 SWAP1 CALLDATASIZE SWAP1 DUP4 ADD PUSH2 0x2B3A JUMP JUMPDEST SWAP4 PUSH1 0x1 PUSH1 0x1 PUSH1 0xA0 SHL SUB SWAP4 DUP5 AND SWAP4 CALLER DUP6 EQ DUP1 ISZERO PUSH2 0x21A9 JUMPI JUMPDEST PUSH2 0x1FC9 SWAP1 PUSH2 0x2D52 JUMP JUMPDEST PUSH2 0x1FD6 DUP5 MLOAD DUP9 MLOAD EQ PUSH2 0x3176 JUMP JUMPDEST DUP8 AND SWAP5 PUSH2 0x1FE4 DUP7 ISZERO ISZERO PUSH2 0x31D3 JUMP JUMPDEST PUSH0 JUMPDEST DUP5 MLOAD DUP2 LT ISZERO PUSH2 0x2062 JUMPI DUP1 PUSH2 0x1FFC PUSH1 0x1 SWAP3 DUP8 PUSH2 0x2E67 JUMP JUMPDEST MLOAD PUSH2 0x2007 DUP3 DUP12 PUSH2 0x2E67 JUMP JUMPDEST MLOAD SWAP1 DUP1 PUSH0 MSTORE PUSH1 0x20 SWAP1 PUSH0 DUP3 MSTORE DUP14 PUSH0 KECCAK256 DUP11 PUSH0 MSTORE DUP3 MSTORE DUP14 DUP4 DUP2 PUSH0 KECCAK256 SLOAD PUSH2 0x202C DUP3 DUP3 LT ISZERO PUSH2 0x322D JUMP JUMPDEST DUP4 PUSH0 MSTORE PUSH0 DUP6 MSTORE DUP3 PUSH0 KECCAK256 DUP14 PUSH0 MSTORE DUP6 MSTORE SUB SWAP1 PUSH0 KECCAK256 SSTORE PUSH0 MSTORE PUSH0 DUP2 MSTORE DUP13 PUSH0 KECCAK256 SWAP1 DUP11 PUSH0 MSTORE MSTORE PUSH2 0x205A DUP13 PUSH0 KECCAK256 SWAP2 DUP3 SLOAD PUSH2 0x2ED4 JUMP JUMPDEST SWAP1 SSTORE ADD PUSH2 0x1FE6 JUMP JUMPDEST POP SWAP1 SWAP5 SWAP4 SWAP6 SWAP3 SWAP2 SWAP7 DUP5 DUP8 DUP11 MLOAD PUSH32 0x4A39DC06D4C0DBC64B70AF90FD698A233A518AA5D07E595D983B8C0526C8F7FB CALLER SWAP2 DUP1 PUSH2 0x209D DUP11 DUP11 DUP4 PUSH2 0x328C JUMP JUMPDEST SUB SWAP1 LOG4 EXTCODESIZE PUSH2 0x20A7 JUMPI STOP JUMPDEST DUP8 MLOAD SWAP5 DUP6 SWAP4 DUP5 SWAP4 PUSH4 0xBC197C81 PUSH1 0xE0 SHL SWAP9 DUP10 DUP7 MSTORE CALLER DUP12 DUP8 ADD MSTORE PUSH1 0x24 DUP7 ADD MSTORE PUSH1 0x44 DUP6 ADD PUSH1 0xA0 SWAP1 MSTORE PUSH1 0xA4 DUP6 ADD PUSH2 0x20D9 SWAP2 PUSH2 0x2B55 JUMP JUMPDEST DUP3 DUP6 DUP3 SUB ADD PUSH1 0x64 DUP7 ADD MSTORE PUSH2 0x20EC SWAP2 PUSH2 0x2B55 JUMP JUMPDEST SWAP1 DUP4 DUP3 SUB ADD PUSH1 0x84 DUP5 ADD MSTORE PUSH2 0x20FF SWAP2 PUSH2 0x2964 JUMP JUMPDEST SUB DUP2 GAS PUSH1 0x20 SWAP5 PUSH0 SWAP2 CALL PUSH0 SWAP2 DUP2 PUSH2 0x2188 JUMPI JUMPDEST POP PUSH2 0x2177 JUMPI POP POP PUSH2 0x211F PUSH2 0x33B7 JUMP JUMPDEST PUSH4 0x8C379A0 EQ PUSH2 0x2143 JUMPI JUMPDEST SWAP1 MLOAD PUSH3 0x461BCD PUSH1 0xE5 SHL DUP2 MSTORE SWAP1 DUP2 SWAP1 PUSH2 0x60B SWAP1 DUP3 ADD PUSH2 0x343F JUMP JUMPDEST PUSH2 0x214B PUSH2 0x33D2 JUMP JUMPDEST DUP1 PUSH2 0x2156 JUMPI POP PUSH2 0x212A JUMP JUMPDEST PUSH2 0x60B SWAP1 PUSH1 0x20 SWAP4 MLOAD SWAP4 DUP5 SWAP4 PUSH3 0x461BCD PUSH1 0xE5 SHL DUP6 MSTORE DUP5 ADD MSTORE PUSH1 0x24 DUP4 ADD SWAP1 PUSH2 0x2964 JUMP JUMPDEST PUSH1 0x1 PUSH1 0x1 PUSH1 0xE0 SHL SUB NOT AND SUB PUSH2 0x656 JUMPI STOP JUMPDEST PUSH2 0x21A2 SWAP2 SWAP3 POP PUSH1 0x20 RETURNDATASIZE PUSH1 0x20 GT PUSH2 0x697 JUMPI PUSH2 0x688 DUP2 DUP4 PUSH2 0x2A24 JUMP JUMPDEST SWAP1 PUSH0 PUSH2 0x2110 JUMP JUMPDEST POP DUP5 PUSH0 MSTORE PUSH1 0x1 PUSH1 0x20 MSTORE DUP9 PUSH0 KECCAK256 CALLER PUSH0 MSTORE PUSH1 0x20 MSTORE PUSH2 0x1FC9 PUSH1 0xFF DUP11 PUSH0 KECCAK256 SLOAD AND SWAP1 POP PUSH2 0x1FC0 JUMP JUMPDEST DUP3 CALLVALUE PUSH2 0x337 JUMPI PUSH0 CALLDATASIZE PUSH1 0x3 NOT ADD SLT PUSH2 0x337 JUMPI PUSH1 0x20 SWAP1 PUSH1 0x9 SLOAD SWAP1 MLOAD SWAP1 DUP2 MSTORE RETURN JUMPDEST DUP3 CALLVALUE PUSH2 0x337 JUMPI PUSH0 CALLDATASIZE PUSH1 0x3 NOT ADD SLT PUSH2 0x337 JUMPI PUSH1 0x20 SWAP1 MLOAD PUSH2 0x2710 DUP2 MSTORE RETURN JUMPDEST DUP3 CALLVALUE PUSH2 0x337 JUMPI PUSH0 CALLDATASIZE PUSH1 0x3 NOT ADD SLT PUSH2 0x337 JUMPI PUSH1 0x20 SWAP1 PUSH1 0x5 SLOAD SWAP1 MLOAD SWAP1 DUP2 MSTORE RETURN JUMPDEST DUP3 CALLVALUE PUSH2 0x337 JUMPI PUSH1 0x20 CALLDATASIZE PUSH1 0x3 NOT ADD SLT PUSH2 0x337 JUMPI PUSH2 0x223E PUSH2 0x2954 JUMP JUMPDEST SWAP1 PUSH2 0x224B PUSH2 0xB74 DUP4 PUSH2 0x315C JUMP JUMPDEST CALLER PUSH0 MSTORE PUSH1 0xF PUSH1 0x20 MSTORE PUSH1 0xFF DUP2 PUSH0 KECCAK256 SWAP3 AND SWAP2 DUP3 PUSH0 MSTORE PUSH1 0x20 MSTORE DUP1 PUSH0 KECCAK256 PUSH1 0x1 PUSH1 0xFF NOT DUP3 SLOAD AND OR SWAP1 SSTORE DUP2 PUSH1 0xC8 ADD SWAP1 DUP2 PUSH1 0xC8 GT PUSH2 0x22BA JUMPI MLOAD PUSH2 0x2293 SWAP2 PUSH2 0x228A DUP3 PUSH2 0x29DA JUMP JUMPDEST PUSH0 DUP3 MSTORE CALLER PUSH2 0x2FD0 JUMP JUMPDEST CALLER PUSH32 0xBD1AE2C6D13C1A8DC9DBE03823192CB9AB92B45E5B9264DD65B2794C526E6F9F PUSH0 DUP1 LOG3 STOP JUMPDEST PUSH1 0x11 DUP5 PUSH4 0x4E487B71 PUSH1 0xE0 SHL PUSH0 MSTORE MSTORE PUSH1 0x24 PUSH0 REVERT JUMPDEST SWAP1 POP CALLVALUE PUSH2 0x337 JUMPI PUSH1 0x60 CALLDATASIZE PUSH1 0x3 NOT ADD SLT PUSH2 0x337 JUMPI DUP1 CALLDATALOAD SWAP2 PUSH2 0x22EB PUSH2 0x2909 JUMP JUMPDEST PUSH1 0x44 CALLDATALOAD SWAP3 PUSH1 0x1 PUSH1 0x1 PUSH1 0x40 SHL SUB DUP5 GT PUSH2 0x337 JUMPI PUSH2 0x232E PUSH2 0x236D SWAP2 PUSH32 0x5CD61427930AB89A7FFDD8646DD284F02D4EC213A21D6DCAAB300350E8006611 SWAP6 CALLDATASIZE SWAP2 ADD PUSH2 0x2A45 JUMP JUMPDEST PUSH2 0x2336 PUSH2 0x2F22 JUMP JUMPDEST DUP7 PUSH0 MSTORE PUSH1 0x12 PUSH1 0x20 MSTORE PUSH2 0x2356 DUP5 DUP7 PUSH0 KECCAK256 SWAP1 PUSH1 0xFF DUP1 NOT DUP4 SLOAD AND SWAP2 ISZERO ISZERO AND OR SWAP1 SSTORE JUMP JUMPDEST DUP5 MLOAD SWAP5 DUP6 SWAP5 ISZERO ISZERO DUP6 MSTORE DUP1 PUSH1 0x20 DUP7 ADD MSTORE DUP5 ADD SWAP2 PUSH2 0x2CF0 JUMP JUMPDEST SUB SWAP1 LOG2 STOP JUMPDEST DUP3 CALLVALUE PUSH2 0x337 JUMPI PUSH0 CALLDATASIZE PUSH1 0x3 NOT ADD SLT PUSH2 0x337 JUMPI DUP1 MLOAD PUSH1 0xA SLOAD SWAP1 SWAP2 DUP3 PUSH0 PUSH2 0x2395 DUP5 PUSH2 0x29A2 JUMP JUMPDEST DUP1 DUP4 MSTORE PUSH1 0x20 SWAP5 PUSH1 0x1 SWAP1 DUP7 PUSH1 0x1 DUP3 AND SWAP2 DUP3 PUSH0 EQ PUSH2 0x1EF2 JUMPI POP POP PUSH1 0x1 EQ PUSH2 0x23C6 JUMPI POP POP PUSH2 0x1C65 SWAP3 SWAP2 PUSH2 0x1E88 SWAP2 SUB DUP6 PUSH2 0x2A24 JUMP JUMPDEST SWAP1 DUP6 SWAP3 POP PUSH1 0xA PUSH0 MSTORE PUSH32 0xC65A7BB8D6351C1CF70C95A316CC6A92839C986682D98BC35F958F4883F9D2A8 SWAP2 PUSH0 SWAP3 JUMPDEST DUP3 DUP5 LT PUSH2 0x2409 JUMPI POP POP POP DUP3 ADD ADD DUP2 PUSH2 0x1E88 PUSH2 0x1E76 JUMP JUMPDEST DUP1 SLOAD DUP5 DUP11 ADD DUP7 ADD MSTORE DUP9 SWAP6 POP DUP8 SWAP5 SWAP1 SWAP4 ADD SWAP3 DUP2 ADD PUSH2 0x23F3 JUMP JUMPDEST DUP3 CALLVALUE PUSH2 0x337 JUMPI PUSH0 CALLDATASIZE PUSH1 0x3 NOT ADD SLT PUSH2 0x337 JUMPI DUP1 MLOAD PUSH1 0xC SLOAD SWAP1 SWAP2 DUP3 PUSH0 PUSH2 0x2444 DUP5 PUSH2 0x29A2 JUMP JUMPDEST DUP1 DUP4 MSTORE PUSH1 0x20 SWAP5 PUSH1 0x1 SWAP1 DUP7 PUSH1 0x1 DUP3 AND SWAP2 DUP3 PUSH0 EQ PUSH2 0x1EF2 JUMPI POP POP PUSH1 0x1 EQ PUSH2 0x2475 JUMPI POP POP PUSH2 0x1C65 SWAP3 SWAP2 PUSH2 0x1E88 SWAP2 SUB DUP6 PUSH2 0x2A24 JUMP JUMPDEST SWAP1 DUP6 SWAP3 POP PUSH1 0xC PUSH0 MSTORE PUSH32 0xDF6966C971051C3D54EC59162606531493A51404A002842F56009D7E5CF4A8C7 SWAP2 PUSH0 SWAP3 JUMPDEST DUP3 DUP5 LT PUSH2 0x24B8 JUMPI POP POP POP DUP3 ADD ADD DUP2 PUSH2 0x1E88 PUSH2 0x1E76 JUMP JUMPDEST DUP1 SLOAD DUP5 DUP11 ADD DUP7 ADD MSTORE DUP9 SWAP6 POP DUP8 SWAP5 SWAP1 SWAP4 ADD SWAP3 DUP2 ADD PUSH2 0x24A2 JUMP JUMPDEST SWAP1 POP CALLVALUE PUSH2 0x337 JUMPI PUSH1 0x20 SWAP2 DUP3 PUSH1 0x3 NOT CALLDATASIZE ADD SLT PUSH2 0x337 JUMPI DUP2 CALLDATALOAD PUSH1 0xFF PUSH1 0x8 SLOAD AND PUSH2 0x26E2 JUMPI PUSH1 0x6 SLOAD DUP2 LT PUSH2 0x26B0 JUMPI PUSH2 0x2503 DUP2 PUSH2 0x2C80 JUMP JUMPDEST SWAP3 PUSH2 0x250F DUP5 ISZERO ISZERO PUSH2 0x2CB6 JUMP JUMPDEST DUP3 MLOAD PUSH2 0x251A DUP2 PUSH2 0x29DA JUMP JUMPDEST PUSH0 DUP2 MSTORE PUSH2 0x2528 CALLER ISZERO ISZERO PUSH2 0x2F7A JUMP JUMPDEST PUSH2 0x2530 PUSH2 0x32DB JUMP JUMPDEST POP PUSH2 0x253A DUP6 PUSH2 0x3329 JUMP JUMPDEST POP PUSH1 0xC9 PUSH0 MSTORE PUSH0 DUP7 MSTORE DUP4 PUSH0 KECCAK256 CALLER PUSH0 MSTORE DUP7 MSTORE DUP4 PUSH0 KECCAK256 PUSH2 0x2558 DUP7 DUP3 SLOAD PUSH2 0x2ED4 JUMP JUMPDEST SWAP1 SSTORE DUP4 MLOAD PUSH1 0xC9 DUP2 MSTORE DUP6 DUP8 DUP3 ADD MSTORE PUSH0 CALLER SWAP2 PUSH0 DUP1 MLOAD PUSH1 0x20 PUSH2 0x3495 DUP4 CODECOPY DUP2 MLOAD SWAP2 MSTORE DUP8 CALLER SWAP3 LOG4 CALLER EXTCODESIZE PUSH2 0x25FD JUMPI JUMPDEST POP POP CALLER PUSH0 MSTORE PUSH1 0xF DUP5 MSTORE DUP2 PUSH0 KECCAK256 PUSH1 0x1 PUSH0 MSTORE DUP5 MSTORE DUP2 PUSH0 KECCAK256 PUSH1 0x1 PUSH1 0xFF NOT DUP3 SLOAD AND OR SWAP1 SSTORE DUP2 MLOAD SWAP1 DUP2 MSTORE DUP3 DUP5 DUP3 ADD MSTORE PUSH32 0xF94991DCBEA6E8AC439CBC93BD9C62A4D39F04E0AD656DF9A703F13552C2787F DUP3 CALLER SWAP3 LOG2 MLOAD SWAP1 PUSH1 0x1 CALLER PUSH32 0xBD1AE2C6D13C1A8DC9DBE03823192CB9AB92B45E5B9264DD65B2794C526E6F9F PUSH0 DUP1 LOG3 DUP2 MSTORE RETURN JUMPDEST DUP4 SWAP5 SWAP3 SWAP2 SWAP5 MLOAD DUP7 DUP2 DUP1 PUSH2 0x263E PUSH4 0xF23A6E61 PUSH1 0xE0 SHL SWAP6 DUP7 DUP4 MSTORE CALLER DUP12 DUP5 ADD MSTORE PUSH0 PUSH1 0x24 DUP5 ADD MSTORE PUSH1 0xC9 PUSH1 0x44 DUP5 ADD MSTORE DUP9 PUSH1 0x64 DUP5 ADD MSTORE PUSH1 0xA0 PUSH1 0x84 DUP5 ADD MSTORE PUSH1 0xA4 DUP4 ADD SWAP1 PUSH2 0x2964 JUMP JUMPDEST SUB DUP2 PUSH0 CALLER GAS CALL PUSH0 SWAP2 DUP2 PUSH2 0x2691 JUMPI JUMPDEST POP PUSH2 0x265D JUMPI POP POP POP POP PUSH2 0x5E7 PUSH2 0x33B7 JUMP JUMPDEST SWAP3 SWAP5 SWAP2 SWAP3 PUSH1 0x1 PUSH1 0x1 PUSH1 0xE0 SHL SUB NOT AND SUB PUSH2 0x2678 JUMPI POP PUSH0 DUP1 PUSH2 0x2581 JUMP JUMPDEST DUP3 MLOAD PUSH3 0x461BCD PUSH1 0xE5 SHL DUP2 MSTORE SWAP1 DUP2 SWAP1 PUSH2 0x60B SWAP1 DUP3 ADD PUSH2 0x336E JUMP JUMPDEST PUSH2 0x26A9 SWAP2 SWAP3 POP DUP9 RETURNDATASIZE DUP11 GT PUSH2 0x697 JUMPI PUSH2 0x688 DUP2 DUP4 PUSH2 0x2A24 JUMP JUMPDEST SWAP1 PUSH0 PUSH2 0x264C JUMP JUMPDEST POP SWAP2 PUSH1 0x64 SWAP3 MLOAD SWAP2 PUSH3 0x461BCD PUSH1 0xE5 SHL DUP4 MSTORE DUP3 ADD MSTORE PUSH1 0xD PUSH1 0x24 DUP3 ADD MSTORE PUSH13 0x42656C6F77206D696E696D756D PUSH1 0x98 SHL PUSH1 0x44 DUP3 ADD MSTORE REVERT JUMPDEST POP SWAP2 PUSH1 0x64 SWAP3 MLOAD SWAP2 PUSH3 0x461BCD PUSH1 0xE5 SHL DUP4 MSTORE DUP3 ADD MSTORE PUSH1 0x14 PUSH1 0x24 DUP3 ADD MSTORE PUSH20 0x14DD589CD8DC9A5C1D1A5BDB9CC81C185D5CD959 PUSH1 0x62 SHL PUSH1 0x44 DUP3 ADD MSTORE REVERT JUMPDEST DUP3 CALLVALUE PUSH2 0x337 JUMPI PUSH1 0x20 DUP1 PUSH1 0x3 NOT CALLDATASIZE ADD SLT PUSH2 0x337 JUMPI DUP2 MLOAD SWAP2 DUP3 PUSH0 PUSH1 0x2 SLOAD PUSH2 0x273F DUP2 PUSH2 0x29A2 JUMP JUMPDEST SWAP1 DUP2 DUP5 MSTORE PUSH1 0x1 SWAP1 DUP7 PUSH1 0x1 DUP3 AND SWAP2 DUP3 PUSH0 EQ PUSH2 0x1EF2 JUMPI POP POP PUSH1 0x1 EQ PUSH2 0x276E JUMPI POP POP PUSH2 0x1C65 SWAP3 SWAP2 PUSH2 0x1E88 SWAP2 SUB DUP6 PUSH2 0x2A24 JUMP JUMPDEST SWAP1 DUP6 SWAP3 POP PUSH1 0x2 PUSH0 MSTORE PUSH32 0x405787FA12A823E0F2B7631CC41B3BA8828B3321CA811111FA75CD3AA3BB5ACE SWAP2 PUSH0 SWAP3 JUMPDEST DUP3 DUP5 LT PUSH2 0x27B1 JUMPI POP POP POP DUP3 ADD ADD DUP2 PUSH2 0x1E88 PUSH2 0x1E76 JUMP JUMPDEST DUP1 SLOAD DUP5 DUP11 ADD DUP7 ADD MSTORE DUP9 SWAP6 POP DUP8 SWAP5 SWAP1 SWAP4 ADD SWAP3 DUP2 ADD PUSH2 0x279B JUMP JUMPDEST DUP3 CALLVALUE PUSH2 0x337 JUMPI PUSH1 0x20 CALLDATASIZE PUSH1 0x3 NOT ADD SLT PUSH2 0x337 JUMPI PUSH2 0x27E7 PUSH1 0x20 SWAP3 CALLDATALOAD PUSH2 0x2C80 JUMP JUMPDEST SWAP1 MLOAD SWAP1 DUP2 MSTORE RETURN JUMPDEST SWAP1 POP CALLVALUE PUSH2 0x337 JUMPI PUSH1 0x20 CALLDATASIZE PUSH1 0x3 NOT ADD SLT PUSH2 0x337 JUMPI CALLDATALOAD PUSH4 0xFFFFFFFF PUSH1 0xE0 SHL DUP2 AND DUP1 SWAP2 SUB PUSH2 0x337 JUMPI PUSH1 0x20 SWAP2 PUSH4 0x6CDB3D13 PUSH1 0xE1 SHL DUP3 EQ SWAP2 DUP3 ISZERO PUSH2 0x2849 JUMPI JUMPDEST DUP3 ISZERO PUSH2 0x2838 JUMPI JUMPDEST POP MLOAD SWAP1 ISZERO ISZERO DUP2 MSTORE RETURN JUMPDEST PUSH4 0x1FFC9A7 PUSH1 0xE0 SHL EQ SWAP2 POP PUSH0 PUSH2 0x282F JUMP JUMPDEST PUSH4 0x3A24D07 PUSH1 0xE2 SHL DUP2 EQ SWAP3 POP PUSH2 0x2828 JUMP JUMPDEST DUP3 CALLVALUE PUSH2 0x337 JUMPI DUP1 PUSH1 0x3 NOT CALLDATASIZE ADD SLT PUSH2 0x337 JUMPI PUSH1 0x20 SWAP1 PUSH2 0x2876 PUSH2 0x2918 JUMP JUMPDEST PUSH2 0x287E PUSH2 0x2944 JUMP JUMPDEST PUSH1 0x1 PUSH1 0x1 PUSH1 0xA0 SHL SUB SWAP1 SWAP2 AND PUSH0 SWAP1 DUP2 MSTORE PUSH1 0xD DUP5 MSTORE DUP3 DUP2 KECCAK256 PUSH1 0xFF SWAP3 DUP4 AND DUP3 MSTORE DUP5 MSTORE DUP3 SWAP1 KECCAK256 SLOAD SWAP2 MLOAD SWAP2 AND ISZERO ISZERO DUP2 MSTORE RETURN JUMPDEST DUP3 CALLVALUE PUSH2 0x337 JUMPI DUP1 PUSH1 0x3 NOT CALLDATASIZE ADD SLT PUSH2 0x337 JUMPI PUSH1 0x20 SWAP1 PUSH2 0x27E7 PUSH2 0x28CA PUSH2 0x2918 JUMP JUMPDEST PUSH1 0x24 CALLDATALOAD SWAP1 PUSH2 0x2BD9 JUMP JUMPDEST CALLVALUE PUSH2 0x337 JUMPI PUSH1 0x20 CALLDATASIZE PUSH1 0x3 NOT ADD SLT PUSH2 0x337 JUMPI CALLDATALOAD DUP1 ISZERO ISZERO DUP1 SWAP2 SUB PUSH2 0x337 JUMPI PUSH2 0x28F7 PUSH2 0x2F22 JUMP JUMPDEST PUSH1 0xFF DUP1 NOT PUSH1 0x8 SLOAD AND SWAP2 AND OR PUSH1 0x8 SSTORE PUSH0 DUP1 RETURN JUMPDEST PUSH1 0x24 CALLDATALOAD SWAP1 DUP2 ISZERO ISZERO DUP3 SUB PUSH2 0x337 JUMPI JUMP JUMPDEST PUSH1 0x4 CALLDATALOAD SWAP1 PUSH1 0x1 PUSH1 0x1 PUSH1 0xA0 SHL SUB DUP3 AND DUP3 SUB PUSH2 0x337 JUMPI JUMP JUMPDEST PUSH1 0x24 CALLDATALOAD SWAP1 PUSH1 0x1 PUSH1 0x1 PUSH1 0xA0 SHL SUB DUP3 AND DUP3 SUB PUSH2 0x337 JUMPI JUMP JUMPDEST PUSH1 0x24 CALLDATALOAD SWAP1 PUSH1 0xFF DUP3 AND DUP3 SUB PUSH2 0x337 JUMPI JUMP JUMPDEST PUSH1 0x4 CALLDATALOAD SWAP1 PUSH1 0xFF DUP3 AND DUP3 SUB PUSH2 0x337 JUMPI JUMP JUMPDEST SWAP2 SWAP1 DUP3 MLOAD SWAP3 DUP4 DUP3 MSTORE PUSH0 JUMPDEST DUP5 DUP2 LT PUSH2 0x298E JUMPI POP POP DUP3 PUSH0 PUSH1 0x20 DUP1 SWAP5 SWAP6 DUP5 ADD ADD MSTORE PUSH1 0x1F DUP1 NOT SWAP2 ADD AND ADD ADD SWAP1 JUMP JUMPDEST PUSH1 0x20 DUP2 DUP4 ADD DUP2 ADD MLOAD DUP5 DUP4 ADD DUP3 ADD MSTORE ADD PUSH2 0x296E JUMP JUMPDEST SWAP1 PUSH1 0x1 DUP3 DUP2 SHR SWAP3 AND DUP1 ISZERO PUSH2 0x29D0 JUMPI JUMPDEST PUSH1 0x20 DUP4 LT EQ PUSH2 0x29BC JUMPI JUMP JUMPDEST PUSH4 0x4E487B71 PUSH1 0xE0 SHL PUSH0 MSTORE PUSH1 0x22 PUSH1 0x4 MSTORE PUSH1 0x24 PUSH0 REVERT JUMPDEST SWAP2 PUSH1 0x7F AND SWAP2 PUSH2 0x29B1 JUMP JUMPDEST PUSH1 0x20 DUP2 ADD SWAP1 DUP2 LT PUSH1 0x1 PUSH1 0x1 PUSH1 0x40 SHL SUB DUP3 GT OR PUSH2 0x29F5 JUMPI PUSH1 0x40 MSTORE JUMP JUMPDEST PUSH4 0x4E487B71 PUSH1 0xE0 SHL PUSH0 MSTORE PUSH1 0x41 PUSH1 0x4 MSTORE PUSH1 0x24 PUSH0 REVERT JUMPDEST PUSH1 0x40 DUP2 ADD SWAP1 DUP2 LT PUSH1 0x1 PUSH1 0x1 PUSH1 0x40 SHL SUB DUP3 GT OR PUSH2 0x29F5 JUMPI PUSH1 0x40 MSTORE JUMP JUMPDEST SWAP1 PUSH1 0x1F DUP1 NOT SWAP2 ADD AND DUP2 ADD SWAP1 DUP2 LT PUSH1 0x1 PUSH1 0x1 PUSH1 0x40 SHL SUB DUP3 GT OR PUSH2 0x29F5 JUMPI PUSH1 0x40 MSTORE JUMP JUMPDEST SWAP2 DUP2 PUSH1 0x1F DUP5 ADD SLT ISZERO PUSH2 0x337 JUMPI DUP3 CALLDATALOAD SWAP2 PUSH1 0x1 PUSH1 0x1 PUSH1 0x40 SHL SUB DUP4 GT PUSH2 0x337 JUMPI PUSH1 0x20 DUP4 DUP2 DUP7 ADD SWAP6 ADD ADD GT PUSH2 0x337 JUMPI JUMP JUMPDEST PUSH1 0x1 PUSH1 0x1 PUSH1 0x40 SHL SUB DUP2 GT PUSH2 0x29F5 JUMPI PUSH1 0x5 SHL PUSH1 0x20 ADD SWAP1 JUMP JUMPDEST SWAP3 SWAP2 PUSH2 0x2A94 DUP3 PUSH2 0x2A72 JUMP JUMPDEST SWAP2 PUSH2 0x2AA2 PUSH1 0x40 MLOAD SWAP4 DUP5 PUSH2 0x2A24 JUMP JUMPDEST DUP3 SWAP5 DUP2 DUP5 MSTORE PUSH1 0x20 DUP1 SWAP5 ADD SWAP2 PUSH1 0x5 SHL DUP2 ADD SWAP3 DUP4 GT PUSH2 0x337 JUMPI SWAP1 JUMPDEST DUP3 DUP3 LT PUSH2 0x2AC8 JUMPI POP POP POP POP JUMP JUMPDEST DUP2 CALLDATALOAD DUP2 MSTORE SWAP1 DUP4 ADD SWAP1 DUP4 ADD PUSH2 0x2ABB JUMP JUMPDEST SWAP1 DUP1 PUSH1 0x1F DUP4 ADD SLT ISZERO PUSH2 0x337 JUMPI DUP2 PUSH1 0x20 PUSH2 0x2AF2 SWAP4 CALLDATALOAD SWAP2 ADD PUSH2 0x2A89 JUMP JUMPDEST SWAP1 JUMP JUMPDEST SWAP3 SWAP2 SWAP3 PUSH1 0x1 PUSH1 0x1 PUSH1 0x40 SHL SUB DUP3 GT PUSH2 0x29F5 JUMPI PUSH1 0x40 MLOAD SWAP2 PUSH2 0x2B1E PUSH1 0x1F DUP3 ADD PUSH1 0x1F NOT AND PUSH1 0x20 ADD DUP5 PUSH2 0x2A24 JUMP JUMPDEST DUP3 SWAP5 DUP2 DUP5 MSTORE DUP2 DUP4 ADD GT PUSH2 0x337 JUMPI DUP3 DUP2 PUSH1 0x20 SWAP4 DUP5 PUSH0 SWAP7 ADD CALLDATACOPY ADD ADD MSTORE JUMP JUMPDEST SWAP1 DUP1 PUSH1 0x1F DUP4 ADD SLT ISZERO PUSH2 0x337 JUMPI DUP2 PUSH1 0x20 PUSH2 0x2AF2 SWAP4 CALLDATALOAD SWAP2 ADD PUSH2 0x2AF5 JUMP JUMPDEST SWAP1 DUP2 MLOAD DUP1 DUP3 MSTORE PUSH1 0x20 DUP1 DUP1 SWAP4 ADD SWAP4 ADD SWAP2 PUSH0 JUMPDEST DUP3 DUP2 LT PUSH2 0x2B74 JUMPI POP POP POP POP SWAP1 JUMP JUMPDEST DUP4 MLOAD DUP6 MSTORE SWAP4 DUP2 ADD SWAP4 SWAP3 DUP2 ADD SWAP3 PUSH1 0x1 ADD PUSH2 0x2B66 JUMP JUMPDEST CALLVALUE PUSH2 0x337 JUMPI PUSH0 CALLDATASIZE PUSH1 0x3 NOT ADD SLT PUSH2 0x337 JUMPI PUSH1 0x20 PUSH1 0x40 MLOAD PUSH1 0x3 DUP2 MSTORE RETURN JUMPDEST CALLVALUE PUSH2 0x337 JUMPI PUSH0 CALLDATASIZE PUSH1 0x3 NOT ADD SLT PUSH2 0x337 JUMPI PUSH1 0x20 PUSH1 0x40 MLOAD PUSH1 0x1 DUP2 MSTORE RETURN JUMPDEST CALLVALUE PUSH2 0x337 JUMPI PUSH0 CALLDATASIZE PUSH1 0x3 NOT ADD SLT PUSH2 0x337 JUMPI PUSH1 0x20 PUSH1 0x40 MLOAD PUSH1 0x2 DUP2 MSTORE RETURN JUMPDEST PUSH1 0x1 PUSH1 0x1 PUSH1 0xA0 SHL SUB AND SWAP1 DUP2 ISZERO PUSH2 0x2C01 JUMPI PUSH0 MSTORE PUSH0 PUSH1 0x20 MSTORE PUSH1 0x40 PUSH0 KECCAK256 SWAP1 PUSH0 MSTORE PUSH1 0x20 MSTORE PUSH1 0x40 PUSH0 KECCAK256 SLOAD SWAP1 JUMP JUMPDEST PUSH1 0x40 MLOAD PUSH3 0x461BCD PUSH1 0xE5 SHL DUP2 MSTORE PUSH1 0x20 PUSH1 0x4 DUP3 ADD MSTORE PUSH1 0x2A PUSH1 0x24 DUP3 ADD MSTORE PUSH32 0x455243313135353A2061646472657373207A65726F206973206E6F7420612076 PUSH1 0x44 DUP3 ADD MSTORE PUSH10 0x30B634B21037BBB732B9 PUSH1 0xB1 SHL PUSH1 0x64 DUP3 ADD MSTORE PUSH1 0x84 SWAP1 REVERT JUMPDEST DUP2 DUP2 MUL SWAP3 SWAP2 DUP2 ISZERO SWAP2 DUP5 DIV EQ OR ISZERO PUSH2 0x2C6C JUMPI JUMP JUMPDEST PUSH4 0x4E487B71 PUSH1 0xE0 SHL PUSH0 MSTORE PUSH1 0x11 PUSH1 0x4 MSTORE PUSH1 0x24 PUSH0 REVERT JUMPDEST PUSH2 0x2710 SWAP1 DUP2 DUP2 MUL SWAP2 DUP2 DUP4 DIV EQ SWAP1 ISZERO OR ISZERO PUSH2 0x2C6C JUMPI PUSH1 0x5 SLOAD SWAP1 DUP2 ISZERO PUSH2 0x2CA2 JUMPI DIV SWAP1 JUMP JUMPDEST PUSH4 0x4E487B71 PUSH1 0xE0 SHL PUSH0 MSTORE PUSH1 0x12 PUSH1 0x4 MSTORE PUSH1 0x24 PUSH0 REVERT JUMPDEST ISZERO PUSH2 0x2CBD JUMPI JUMP JUMPDEST PUSH1 0x40 MLOAD PUSH3 0x461BCD PUSH1 0xE5 SHL DUP2 MSTORE PUSH1 0x20 PUSH1 0x4 DUP3 ADD MSTORE PUSH1 0xB PUSH1 0x24 DUP3 ADD MSTORE PUSH11 0x5A65726F20736861726573 PUSH1 0xA8 SHL PUSH1 0x44 DUP3 ADD MSTORE PUSH1 0x64 SWAP1 REVERT JUMPDEST SWAP1 DUP1 PUSH1 0x20 SWAP4 SWAP3 DUP2 DUP5 MSTORE DUP5 DUP5 ADD CALLDATACOPY PUSH0 DUP3 DUP3 ADD DUP5 ADD MSTORE PUSH1 0x1F ADD PUSH1 0x1F NOT AND ADD ADD SWAP1 JUMP JUMPDEST ISZERO PUSH2 0x2D17 JUMPI JUMP JUMPDEST PUSH1 0x40 MLOAD PUSH3 0x461BCD PUSH1 0xE5 SHL DUP2 MSTORE PUSH1 0x20 PUSH1 0x4 DUP3 ADD MSTORE PUSH1 0x13 PUSH1 0x24 DUP3 ADD MSTORE PUSH19 0x496E76616C6964207765616C7468207461736B PUSH1 0x68 SHL PUSH1 0x44 DUP3 ADD MSTORE PUSH1 0x64 SWAP1 REVERT JUMPDEST ISZERO PUSH2 0x2D59 JUMPI JUMP JUMPDEST PUSH1 0x40 MLOAD PUSH3 0x461BCD PUSH1 0xE5 SHL DUP2 MSTORE PUSH1 0x20 PUSH1 0x4 DUP3 ADD MSTORE PUSH1 0x2E PUSH1 0x24 DUP3 ADD MSTORE PUSH32 0x455243313135353A2063616C6C6572206973206E6F7420746F6B656E206F776E PUSH1 0x44 DUP3 ADD MSTORE PUSH14 0x195C881BDC88185C1C1C9BDD9959 PUSH1 0x92 SHL PUSH1 0x64 DUP3 ADD MSTORE PUSH1 0x84 SWAP1 REVERT JUMPDEST ISZERO PUSH2 0x2DBC JUMPI JUMP JUMPDEST PUSH1 0x40 MLOAD PUSH3 0x461BCD PUSH1 0xE5 SHL DUP2 MSTORE PUSH1 0x20 PUSH1 0x4 DUP3 ADD MSTORE PUSH1 0x13 PUSH1 0x24 DUP3 ADD MSTORE PUSH19 0x125B9D985B1A59081858DA1A595D995B595B9D PUSH1 0x6A SHL PUSH1 0x44 DUP3 ADD MSTORE PUSH1 0x64 SWAP1 REVERT JUMPDEST ISZERO PUSH2 0x2DFE JUMPI JUMP JUMPDEST PUSH1 0x40 MLOAD PUSH3 0x461BCD PUSH1 0xE5 SHL DUP2 MSTORE PUSH1 0x20 PUSH1 0x4 DUP3 ADD MSTORE PUSH1 0xF PUSH1 0x24 DUP3 ADD MSTORE PUSH15 0x105B1C9958591E4818DB185A5B5959 PUSH1 0x8A SHL PUSH1 0x44 DUP3 ADD MSTORE PUSH1 0x64 SWAP1 REVERT JUMPDEST SWAP1 PUSH2 0x2E3F DUP3 PUSH2 0x2A72 JUMP JUMPDEST PUSH2 0x2E4C PUSH1 0x40 MLOAD SWAP2 DUP3 PUSH2 0x2A24 JUMP JUMPDEST DUP3 DUP2 MSTORE DUP1 SWAP3 PUSH2 0x2E5D PUSH1 0x1F NOT SWAP2 PUSH2 0x2A72 JUMP JUMPDEST ADD SWAP1 PUSH1 0x20 CALLDATASIZE SWAP2 ADD CALLDATACOPY JUMP JUMPDEST DUP1 MLOAD DUP3 LT ISZERO PUSH2 0x2E7B JUMPI PUSH1 0x20 SWAP2 PUSH1 0x5 SHL ADD ADD SWAP1 JUMP JUMPDEST PUSH4 0x4E487B71 PUSH1 0xE0 SHL PUSH0 MSTORE PUSH1 0x32 PUSH1 0x4 MSTORE PUSH1 0x24 PUSH0 REVERT JUMPDEST SWAP2 SWAP1 DUP2 LT ISZERO PUSH2 0x2E7B JUMPI PUSH1 0x5 SHL ADD SWAP1 JUMP JUMPDEST PUSH1 0x15 SLOAD DUP2 LT ISZERO PUSH2 0x2E7B JUMPI PUSH1 0x15 PUSH0 MSTORE PUSH32 0x55F448FDEA98C4D29EB340757EF0A66CD03DBB9538908A6A81D96026B71EC475 ADD SWAP1 PUSH0 SWAP1 JUMP JUMPDEST SWAP2 SWAP1 DUP3 ADD DUP1 SWAP3 GT PUSH2 0x2C6C JUMPI JUMP JUMPDEST ISZERO PUSH2 0x2EE8 JUMPI JUMP JUMPDEST PUSH1 0x40 MLOAD PUSH3 0x461BCD PUSH1 0xE5 SHL DUP2 MSTORE PUSH1 0x20 PUSH1 0x4 DUP3 ADD MSTORE PUSH1 0x12 PUSH1 0x24 DUP3 ADD MSTORE PUSH18 0x496E76616C696420686F6D65206261646765 PUSH1 0x70 SHL PUSH1 0x44 DUP3 ADD MSTORE PUSH1 0x64 SWAP1 REVERT JUMPDEST PUSH1 0x3 SLOAD PUSH1 0x1 PUSH1 0x1 PUSH1 0xA0 SHL SUB AND CALLER SUB PUSH2 0x2F36 JUMPI JUMP JUMPDEST PUSH1 0x64 PUSH1 0x40 MLOAD PUSH3 0x461BCD PUSH1 0xE5 SHL DUP2 MSTORE PUSH1 0x20 PUSH1 0x4 DUP3 ADD MSTORE PUSH1 0x20 PUSH1 0x24 DUP3 ADD MSTORE PUSH32 0x4F776E61626C653A2063616C6C6572206973206E6F7420746865206F776E6572 PUSH1 0x44 DUP3 ADD MSTORE REVERT JUMPDEST ISZERO PUSH2 0x2F81 JUMPI JUMP JUMPDEST PUSH1 0x40 MLOAD PUSH3 0x461BCD PUSH1 0xE5 SHL DUP2 MSTORE PUSH1 0x20 PUSH1 0x4 DUP3 ADD MSTORE PUSH1 0x21 PUSH1 0x24 DUP3 ADD MSTORE PUSH32 0x455243313135353A206D696E7420746F20746865207A65726F20616464726573 PUSH1 0x44 DUP3 ADD MSTORE PUSH1 0x73 PUSH1 0xF8 SHL PUSH1 0x64 DUP3 ADD MSTORE PUSH1 0x84 SWAP1 REVERT JUMPDEST SWAP2 SWAP1 PUSH1 0x1 PUSH1 0x1 PUSH1 0xA0 SHL SUB DUP4 AND PUSH2 0x2FE7 DUP2 ISZERO ISZERO PUSH2 0x2F7A JUMP JUMPDEST PUSH2 0x2FF0 DUP3 PUSH2 0x3329 JUMP JUMPDEST POP PUSH2 0x2FF9 PUSH2 0x3302 JUMP JUMPDEST POP DUP2 PUSH0 MSTORE PUSH1 0x20 SWAP3 PUSH0 DUP5 MSTORE PUSH1 0x40 SWAP5 DUP6 PUSH0 KECCAK256 DUP4 PUSH0 MSTORE DUP6 MSTORE DUP6 PUSH0 KECCAK256 DUP1 SLOAD SWAP1 PUSH1 0x1 DUP3 ADD DUP1 SWAP3 GT PUSH2 0x2C6C JUMPI SSTORE DUP3 PUSH0 DUP8 MLOAD DUP7 DUP2 MSTORE PUSH1 0x1 DUP9 DUP3 ADD MSTORE PUSH0 DUP1 MLOAD PUSH1 0x20 PUSH2 0x3495 DUP4 CODECOPY DUP2 MLOAD SWAP2 MSTORE DUP10 CALLER SWAP3 LOG4 EXTCODESIZE PUSH2 0x304C JUMPI JUMPDEST POP POP POP POP POP JUMP JUMPDEST SWAP3 PUSH2 0x3093 PUSH0 SWAP3 DUP7 SWAP8 SWAP6 DUP4 SWAP8 MLOAD SWAP5 DUP6 DUP1 SWAP5 DUP2 SWAP4 PUSH4 0xF23A6E61 PUSH1 0xE0 SHL SWAP10 DUP11 DUP5 MSTORE CALLER PUSH1 0x4 DUP6 ADD MSTORE DUP5 PUSH1 0x24 DUP6 ADD MSTORE PUSH1 0x44 DUP5 ADD MSTORE PUSH1 0x1 PUSH1 0x64 DUP5 ADD MSTORE PUSH1 0xA0 PUSH1 0x84 DUP5 ADD MSTORE PUSH1 0xA4 DUP4 ADD SWAP1 PUSH2 0x2964 JUMP JUMPDEST SUB SWAP3 GAS CALL PUSH0 SWAP2 DUP2 PUSH2 0x313D JUMPI JUMPDEST POP PUSH2 0x3106 JUMPI POP POP POP PUSH2 0x30AF PUSH2 0x33B7 JUMP JUMPDEST PUSH4 0x8C379A0 EQ PUSH2 0x30D2 JUMPI JUMPDEST POP MLOAD PUSH3 0x461BCD PUSH1 0xE5 SHL DUP2 MSTORE DUP1 PUSH2 0x60B PUSH1 0x4 DUP3 ADD PUSH2 0x343F JUMP JUMPDEST PUSH2 0x30DA PUSH2 0x33D2 JUMP JUMPDEST SWAP1 DUP2 PUSH2 0x30E6 JUMPI POP PUSH2 0x30BA JUMP JUMPDEST PUSH2 0x60B DUP4 MLOAD SWAP3 DUP4 SWAP3 PUSH3 0x461BCD PUSH1 0xE5 SHL DUP5 MSTORE PUSH1 0x4 DUP5 ADD MSTORE PUSH1 0x24 DUP4 ADD SWAP1 PUSH2 0x2964 JUMP JUMPDEST SWAP2 SWAP4 SWAP3 POP PUSH1 0x1 PUSH1 0x1 PUSH1 0xE0 SHL SUB NOT SWAP1 SWAP2 AND SUB PUSH2 0x3126 JUMPI POP PUSH0 DUP1 DUP1 DUP1 DUP1 PUSH2 0x3045 JUMP JUMPDEST MLOAD PUSH3 0x461BCD PUSH1 0xE5 SHL DUP2 MSTORE DUP1 PUSH2 0x60B PUSH1 0x4 DUP3 ADD PUSH2 0x336E JUMP JUMPDEST PUSH2 0x3155 SWAP2 SWAP3 POP DUP6 RETURNDATASIZE DUP8 GT PUSH2 0x697 JUMPI PUSH2 0x688 DUP2 DUP4 PUSH2 0x2A24 JUMP JUMPDEST SWAP1 PUSH0 PUSH2 0x309F JUMP JUMPDEST PUSH1 0xFF AND PUSH1 0x1 DUP2 EQ SWAP1 DUP2 ISZERO PUSH2 0x316E JUMPI POP SWAP1 JUMP JUMPDEST PUSH1 0x2 SWAP2 POP EQ SWAP1 JUMP JUMPDEST ISZERO PUSH2 0x317D JUMPI JUMP JUMPDEST PUSH1 0x40 MLOAD PUSH3 0x461BCD PUSH1 0xE5 SHL DUP2 MSTORE PUSH1 0x20 PUSH1 0x4 DUP3 ADD MSTORE PUSH1 0x28 PUSH1 0x24 DUP3 ADD MSTORE PUSH32 0x455243313135353A2069647320616E6420616D6F756E7473206C656E67746820 PUSH1 0x44 DUP3 ADD MSTORE PUSH8 0xDAD2E6DAC2E8C6D PUSH1 0xC3 SHL PUSH1 0x64 DUP3 ADD MSTORE PUSH1 0x84 SWAP1 REVERT JUMPDEST ISZERO PUSH2 0x31DA JUMPI JUMP JUMPDEST PUSH1 0x40 MLOAD PUSH3 0x461BCD PUSH1 0xE5 SHL DUP2 MSTORE PUSH1 0x20 PUSH1 0x4 DUP3 ADD MSTORE PUSH1 0x25 PUSH1 0x24 DUP3 ADD MSTORE PUSH32 0x455243313135353A207472616E7366657220746F20746865207A65726F206164 PUSH1 0x44 DUP3 ADD MSTORE PUSH5 0x6472657373 PUSH1 0xD8 SHL PUSH1 0x64 DUP3 ADD MSTORE PUSH1 0x84 SWAP1 REVERT JUMPDEST ISZERO PUSH2 0x3234 JUMPI JUMP JUMPDEST PUSH1 0x40 MLOAD PUSH3 0x461BCD PUSH1 0xE5 SHL DUP2 MSTORE PUSH1 0x20 PUSH1 0x4 DUP3 ADD MSTORE PUSH1 0x2A PUSH1 0x24 DUP3 ADD MSTORE PUSH32 0x455243313135353A20696E73756666696369656E742062616C616E636520666F PUSH1 0x44 DUP3 ADD MSTORE PUSH10 0x39103A3930B739B332B9 PUSH1 0xB1 SHL PUSH1 0x64 DUP3 ADD MSTORE PUSH1 0x84 SWAP1 REVERT JUMPDEST SWAP1 SWAP2 PUSH2 0x32A3 PUSH2 0x2AF2 SWAP4 PUSH1 0x40 DUP5 MSTORE PUSH1 0x40 DUP5 ADD SWAP1 PUSH2 0x2B55 JUMP JUMPDEST SWAP2 PUSH1 0x20 DUP2 DUP5 SUB SWAP2 ADD MSTORE PUSH2 0x2B55 JUMP JUMPDEST PUSH1 0x1 DUP2 LT ISZERO SWAP1 DUP2 PUSH2 0x32C0 JUMPI POP SWAP1 JUMP JUMPDEST PUSH1 0x5 SWAP2 POP GT ISZERO SWAP1 JUMP JUMPDEST PUSH1 0xFF AND PUSH1 0x1 DUP2 LT ISZERO SWAP1 DUP2 PUSH2 0x32C0 JUMPI POP SWAP1 JUMP JUMPDEST PUSH1 0x40 MLOAD PUSH2 0x32E7 DUP2 PUSH2 0x2A09 JUMP JUMPDEST PUSH1 0x1 DUP2 MSTORE PUSH1 0x20 DUP2 ADD PUSH1 0x20 CALLDATASIZE DUP3 CALLDATACOPY DUP2 MLOAD ISZERO PUSH2 0x2E7B JUMPI PUSH1 0xC9 SWAP1 MSTORE SWAP1 JUMP JUMPDEST PUSH1 0x40 MLOAD PUSH2 0x330E DUP2 PUSH2 0x2A09 JUMP JUMPDEST PUSH1 0x1 DUP2 MSTORE PUSH1 0x20 DUP2 ADD PUSH1 0x20 CALLDATASIZE DUP3 CALLDATACOPY DUP2 MLOAD ISZERO PUSH2 0x2E7B JUMPI PUSH1 0x1 SWAP1 MSTORE SWAP1 JUMP JUMPDEST PUSH1 0x40 MLOAD SWAP1 PUSH2 0x3336 DUP3 PUSH2 0x2A09 JUMP JUMPDEST PUSH1 0x1 DUP3 MSTORE PUSH1 0x20 DUP3 ADD PUSH1 0x20 CALLDATASIZE DUP3 CALLDATACOPY DUP3 MLOAD ISZERO PUSH2 0x2E7B JUMPI MSTORE SWAP1 JUMP JUMPDEST SWAP1 DUP2 PUSH1 0x20 SWAP2 SUB SLT PUSH2 0x337 JUMPI MLOAD PUSH1 0x1 PUSH1 0x1 PUSH1 0xE0 SHL SUB NOT DUP2 AND DUP2 SUB PUSH2 0x337 JUMPI SWAP1 JUMP JUMPDEST PUSH1 0x80 SWAP1 PUSH1 0x20 DUP2 MSTORE PUSH1 0x28 PUSH1 0x20 DUP3 ADD MSTORE PUSH32 0x455243313135353A204552433131353552656365697665722072656A65637465 PUSH1 0x40 DUP3 ADD MSTORE PUSH8 0x6420746F6B656E73 PUSH1 0xC0 SHL PUSH1 0x60 DUP3 ADD MSTORE ADD SWAP1 JUMP JUMPDEST PUSH0 SWAP1 PUSH1 0x3 RETURNDATASIZE GT PUSH2 0x33C3 JUMPI JUMP JUMPDEST SWAP1 POP PUSH1 0x4 PUSH0 DUP1 RETURNDATACOPY PUSH0 MLOAD PUSH1 0xE0 SHR SWAP1 JUMP JUMPDEST PUSH0 PUSH1 0x44 RETURNDATASIZE LT PUSH2 0x2AF2 JUMPI PUSH1 0x40 MLOAD PUSH1 0x3 NOT SWAP2 RETURNDATASIZE DUP4 ADD PUSH1 0x4 DUP4 RETURNDATACOPY DUP2 MLOAD PUSH1 0x1 PUSH1 0x1 PUSH1 0x40 SHL SUB SWAP2 DUP3 DUP3 GT RETURNDATASIZE PUSH1 0x24 DUP5 ADD GT OR PUSH2 0x342E JUMPI DUP2 DUP5 ADD SWAP5 DUP6 MLOAD SWAP4 DUP5 GT PUSH2 0x3436 JUMPI RETURNDATASIZE DUP6 ADD ADD PUSH1 0x20 DUP5 DUP8 ADD ADD GT PUSH2 0x342E JUMPI POP PUSH2 0x2AF2 SWAP3 SWAP2 ADD PUSH1 0x20 ADD SWAP1 PUSH2 0x2A24 JUMP JUMPDEST SWAP5 SWAP4 POP POP POP POP JUMP JUMPDEST POP SWAP5 SWAP4 POP POP POP POP JUMP JUMPDEST PUSH1 0x80 SWAP1 PUSH1 0x20 DUP2 MSTORE PUSH1 0x34 PUSH1 0x20 DUP3 ADD MSTORE PUSH32 0x455243313135353A207472616E7366657220746F206E6F6E2D45524331313535 PUSH1 0x40 DUP3 ADD MSTORE PUSH20 0x2932B1B2B4BB32B91034B6B83632B6B2B73A32B9 PUSH1 0x61 SHL PUSH1 0x60 DUP3 ADD MSTORE ADD SWAP1 JUMP INVALID 0xC3 0xD5 DUP2 PUSH9 0xC5AE7397731D063D5B 0xBF RETURNDATASIZE PUSH6 0x7854427343F4 0xC0 DUP4 0x24 0xF PUSH27 0xACAA2D0F62A2646970667358221220BA7CAF01F117C52810842189 MULMOD 0xDB 0x4E SSTORE PUSH23 0x9265CE23996B426A492AF699050F9864736F6C63430008 XOR STOP CALLER "},"methodIdentifiers":{"ASSET_DECIMALS()":"f4db8984","BPS()":"249d39e9","HOME_PAPER()":"1de3083d","HOME_QUIZ()":"8f631d54","HOME_RISK()":"eeaa8177","HOME_WALLET()":"cad47192","HOME_WELCOME()":"dcb2125b","MAX_SCORE_SUBMISSIONS_PER_DAY()":"c4ebe024","PAPER_BASE_CHECK()":"b363935c","PAPER_BUY_ONE_RECEIPT()":"9cb9e497","PAPER_LEADERBOARD()":"6ea17abd","PAPER_SETTLE_OR_PLEDGE()":"6e3dbb71","PAPER_SPOT_LOOP()":"57997aa2","WEALTH_BUY_RECEIPT()":"60062cd1","WEALTH_SETTLE_OR_PLEDGE()":"f5952d12","approvedUnderlyingHash(bytes32)":"4973fd9a","assetSymbol()":"176de7a8","balanceOf(address,uint256)":"00fdd58e","balanceOfBatch(address[],uint256[])":"4e1273f4","canAccessAdvancedShelf(address)":"99b49e25","claim(uint256)":"379607f5","claimBatch(uint256[])":"62abebce","eligibleInvestor(address)":"4d7c10a7","hasMinted(address)":"38e21cce","hasMintedBadge(address,uint8)":"01b4597d","hasMintedTask(address,uint8)":"6b3ce2f1","hasSubmittedScore(address)":"f9569673","hasWealthTask(address,uint8)":"aec45d80","isApprovedForAll(address,address)":"e985e9c5","lastAttestedAt()":"4adb4cc8","latestAttestationRoot()":"2e6f6b1f","markWealthTask(uint8)":"1a2e9996","minSubscription()":"41be5f64","mintBadge(uint8,address)":"7206abbd","mintWelcomeBadge(address)":"52163337","navBps()":"218900b4","nextHomeTokenId()":"8385f14a","owner()":"8da5cb5b","previewAssets(uint256)":"d28c390a","previewShares(uint256)":"02cea26b","recordUnderlyingReview(bytes32,bool,string)":"179649ad","redeem(uint256)":"db006a75","renounceOwnership()":"715018a6","replayScoreOf(address)":"c8a3c3b5","riskTier(address)":"b84d93d4","safeBatchTransferFrom(address,address,uint256[],uint256[],bytes)":"2eb2c2d6","safeTransferFrom(address,address,uint256,uint256,bytes)":"f242432a","scoreAccountAt(uint256)":"d4b0521b","scoreAccountCount()":"2f85874a","setApprovalForAll(address,bool)":"a22cb465","setBaseUri(string)":"a0bcfc7f","setInvestorEligibility(address,bool,uint8)":"b5884e20","setMinSubscription(uint256)":"f68e55c3","setNavBps(uint256)":"9a2aaca1","setStrategyStatus(string)":"55cc0261","setSubscriptionsPaused(bool)":"009b27af","strategyStatus()":"176f1cdd","submitScore(int256,uint256,uint256)":"6961fd46","subscribe(uint256)":"0f574ba7","subscriptionsPaused()":"cf22928d","supportsInterface(bytes4)":"01ffc9a7","tokenBadgeType(uint256)":"8530a3bf","transferOwnership(address)":"f2fde38b","updateAttestation(bytes32)":"8d00bbe5","uri(uint256)":"0e89341c","vaultLabel()":"2fb4e0f9","wealthTaskCompleted(address,uint8)":"cb33bcdb"}}}}}