{"project/contracts/MSXReplayAchievementBadge.sol":{"MSXReplayAchievementBadge":{"abi":[{"inputs":[{"internalType":"string","name":"baseUri","type":"string"}],"stateMutability":"nonpayable","type":"constructor"},{"anonymous":false,"inputs":[{"indexed":true,"internalType":"address","name":"account","type":"address"},{"indexed":true,"internalType":"uint256","name":"achievementId","type":"uint256"}],"name":"AchievementClaimed","type":"event"},{"anonymous":false,"inputs":[{"indexed":true,"internalType":"uint256","name":"achievementId","type":"uint256"},{"indexed":false,"internalType":"string","name":"label","type":"string"}],"name":"AchievementLabelUpdated","type":"event"},{"anonymous":false,"inputs":[{"indexed":true,"internalType":"address","name":"account","type":"address"},{"indexed":true,"internalType":"address","name":"operator","type":"address"},{"indexed":false,"internalType":"bool","name":"approved","type":"bool"}],"name":"ApprovalForAll","type":"event"},{"anonymous":false,"inputs":[{"indexed":true,"internalType":"address","name":"account","type":"address"},{"indexed":true,"internalType":"uint256","name":"achievementId","type":"uint256"},{"indexed":false,"internalType":"bool","name":"approved","type":"bool"}],"name":"ClaimApprovalUpdated","type":"event"},{"anonymous":false,"inputs":[{"indexed":true,"internalType":"address","name":"previousOwner","type":"address"},{"indexed":true,"internalType":"address","name":"newOwner","type":"address"}],"name":"OwnershipTransferred","type":"event"},{"anonymous":false,"inputs":[{"indexed":true,"internalType":"address","name":"account","type":"address"},{"indexed":false,"internalType":"int256","name":"netPnl","type":"int256"},{"indexed":false,"internalType":"uint256","name":"accountValue","type":"uint256"},{"indexed":false,"internalType":"uint256","name":"tradeCount","type":"uint256"},{"indexed":false,"internalType":"uint256","name":"submittedAt","type":"uint256"}],"name":"ReplayScoreSubmitted","type":"event"},{"anonymous":false,"inputs":[{"indexed":true,"internalType":"address","name":"operator","type":"address"},{"indexed":true,"internalType":"address","name":"from","type":"address"},{"indexed":true,"internalType":"address","name":"to","type":"address"},{"indexed":false,"internalType":"uint256[]","name":"ids","type":"uint256[]"},{"indexed":false,"internalType":"uint256[]","name":"values","type":"uint256[]"}],"name":"TransferBatch","type":"event"},{"anonymous":false,"inputs":[{"indexed":true,"internalType":"address","name":"operator","type":"address"},{"indexed":true,"internalType":"address","name":"from","type":"address"},{"indexed":true,"internalType":"address","name":"to","type":"address"},{"indexed":false,"internalType":"uint256","name":"id","type":"uint256"},{"indexed":false,"internalType":"uint256","name":"value","type":"uint256"}],"name":"TransferSingle","type":"event"},{"anonymous":false,"inputs":[{"indexed":false,"internalType":"string","name":"value","type":"string"},{"indexed":true,"internalType":"uint256","name":"id","type":"uint256"}],"name":"URI","type":"event"},{"inputs":[],"name":"BASE_CHECK","outputs":[{"internalType":"uint256","name":"","type":"uint256"}],"stateMutability":"view","type":"function"},{"inputs":[],"name":"LEADERBOARD","outputs":[{"internalType":"uint256","name":"","type":"uint256"}],"stateMutability":"view","type":"function"},{"inputs":[],"name":"MAX_SCORE_SUBMISSIONS_PER_DAY","outputs":[{"internalType":"uint256","name":"","type":"uint256"}],"stateMutability":"view","type":"function"},{"inputs":[],"name":"PERP_LEVERAGE","outputs":[{"internalType":"uint256","name":"","type":"uint256"}],"stateMutability":"view","type":"function"},{"inputs":[],"name":"PROTECTIVE_HEDGE","outputs":[{"internalType":"uint256","name":"","type":"uint256"}],"stateMutability":"view","type":"function"},{"inputs":[],"name":"SPOT_LOOP","outputs":[{"internalType":"uint256","name":"","type":"uint256"}],"stateMutability":"view","type":"function"},{"inputs":[{"internalType":"uint256","name":"","type":"uint256"}],"name":"achievementLabel","outputs":[{"internalType":"string","name":"","type":"string"}],"stateMutability":"view","type":"function"},{"inputs":[{"internalType":"address","name":"account","type":"address"},{"internalType":"uint256[]","name":"achievementIds","type":"uint256[]"},{"internalType":"bool","name":"approved","type":"bool"}],"name":"approveBatchClaims","outputs":[],"stateMutability":"nonpayable","type":"function"},{"inputs":[{"internalType":"address","name":"account","type":"address"},{"internalType":"uint256","name":"achievementId","type":"uint256"},{"internalType":"bool","name":"approved","type":"bool"}],"name":"approveClaim","outputs":[],"stateMutability":"nonpayable","type":"function"},{"inputs":[{"internalType":"address","name":"account","type":"address"},{"internalType":"uint256","name":"id","type":"uint256"}],"name":"balanceOf","outputs":[{"internalType":"uint256","name":"","type":"uint256"}],"stateMutability":"view","type":"function"},{"inputs":[{"internalType":"address[]","name":"accounts","type":"address[]"},{"internalType":"uint256[]","name":"ids","type":"uint256[]"}],"name":"balanceOfBatch","outputs":[{"internalType":"uint256[]","name":"","type":"uint256[]"}],"stateMutability":"view","type":"function"},{"inputs":[{"internalType":"uint256","name":"achievementId","type":"uint256"}],"name":"claim","outputs":[],"stateMutability":"nonpayable","type":"function"},{"inputs":[{"internalType":"address","name":"","type":"address"},{"internalType":"uint256","name":"","type":"uint256"}],"name":"claimApproved","outputs":[{"internalType":"bool","name":"","type":"bool"}],"stateMutability":"view","type":"function"},{"inputs":[{"internalType":"uint256[]","name":"achievementIds","type":"uint256[]"}],"name":"claimBatch","outputs":[],"stateMutability":"nonpayable","type":"function"},{"inputs":[{"internalType":"address","name":"","type":"address"}],"name":"hasSubmittedScore","outputs":[{"internalType":"bool","name":"","type":"bool"}],"stateMutability":"view","type":"function"},{"inputs":[{"internalType":"address","name":"account","type":"address"},{"internalType":"address","name":"operator","type":"address"}],"name":"isApprovedForAll","outputs":[{"internalType":"bool","name":"","type":"bool"}],"stateMutability":"view","type":"function"},{"inputs":[],"name":"owner","outputs":[{"internalType":"address","name":"","type":"address"}],"stateMutability":"view","type":"function"},{"inputs":[],"name":"renounceOwnership","outputs":[],"stateMutability":"nonpayable","type":"function"},{"inputs":[{"internalType":"address","name":"","type":"address"}],"name":"replayScoreOf","outputs":[{"internalType":"int256","name":"bestNetPnl","type":"int256"},{"internalType":"uint256","name":"bestAccountValue","type":"uint256"},{"internalType":"uint256","name":"bestTradeCount","type":"uint256"},{"internalType":"uint256","name":"lastSubmittedAt","type":"uint256"},{"internalType":"uint256","name":"submissionCount","type":"uint256"},{"internalType":"uint256","name":"submissionDay","type":"uint256"},{"internalType":"uint256","name":"submissionsToday","type":"uint256"}],"stateMutability":"view","type":"function"},{"inputs":[{"internalType":"address","name":"from","type":"address"},{"internalType":"address","name":"to","type":"address"},{"internalType":"uint256[]","name":"ids","type":"uint256[]"},{"internalType":"uint256[]","name":"amounts","type":"uint256[]"},{"internalType":"bytes","name":"data","type":"bytes"}],"name":"safeBatchTransferFrom","outputs":[],"stateMutability":"nonpayable","type":"function"},{"inputs":[{"internalType":"address","name":"from","type":"address"},{"internalType":"address","name":"to","type":"address"},{"internalType":"uint256","name":"id","type":"uint256"},{"internalType":"uint256","name":"amount","type":"uint256"},{"internalType":"bytes","name":"data","type":"bytes"}],"name":"safeTransferFrom","outputs":[],"stateMutability":"nonpayable","type":"function"},{"inputs":[{"internalType":"uint256","name":"index","type":"uint256"}],"name":"scoreAccountAt","outputs":[{"internalType":"address","name":"","type":"address"}],"stateMutability":"view","type":"function"},{"inputs":[],"name":"scoreAccountCount","outputs":[{"internalType":"uint256","name":"","type":"uint256"}],"stateMutability":"view","type":"function"},{"inputs":[{"internalType":"uint256","name":"achievementId","type":"uint256"},{"internalType":"string","name":"label","type":"string"}],"name":"setAchievementLabel","outputs":[],"stateMutability":"nonpayable","type":"function"},{"inputs":[{"internalType":"address","name":"operator","type":"address"},{"internalType":"bool","name":"approved","type":"bool"}],"name":"setApprovalForAll","outputs":[],"stateMutability":"nonpayable","type":"function"},{"inputs":[{"internalType":"string","name":"nextUri","type":"string"}],"name":"setBaseUri","outputs":[],"stateMutability":"nonpayable","type":"function"},{"inputs":[{"internalType":"int256","name":"netPnl","type":"int256"},{"internalType":"uint256","name":"accountValue","type":"uint256"},{"internalType":"uint256","name":"tradeCount","type":"uint256"}],"name":"submitScore","outputs":[],"stateMutability":"nonpayable","type":"function"},{"inputs":[{"internalType":"bytes4","name":"interfaceId","type":"bytes4"}],"name":"supportsInterface","outputs":[{"internalType":"bool","name":"","type":"bool"}],"stateMutability":"view","type":"function"},{"inputs":[{"internalType":"address","name":"newOwner","type":"address"}],"name":"transferOwnership","outputs":[],"stateMutability":"nonpayable","type":"function"},{"inputs":[{"internalType":"uint256","name":"","type":"uint256"}],"name":"uri","outputs":[{"internalType":"string","name":"","type":"string"}],"stateMutability":"view","type":"function"}],"evm":{"bytecode":{"linkReferences":{},"object":"604060808152346200030157620024f190813803806200001f8162000305565b9384398201916020908181850312620003015780516001600160401b039182821162000301570190601f9480868401121562000301578251828111620002d857601f1993620000748289018616870162000305565b92828452868383010111620003015785905f5b838110620002ec5750505f91830101528051918211620002d857600292620000b084546200032b565b8781116200029d575b50849683116001146200023b57509481929394955f926200022f575b50508160011b915f199060031b1c19161781555b60038054336001600160a01b0319821681179092556001600160a01b03167f8be0079c531659141344cd1fd0a4f28419497f9722a3daafe3b4186f6b6457e05f80a360015f52600590818352835f206200014f6200014882546200032b565b826200037e565b6014694261736520436865636b60b01b0190555f52808252825f206200017a6200014882546200032b565b60166a13195859195c989bd85c9960aa1b01905560035f52808252825f20620001a86200014882546200032b565b601268053706f74204c6f6f760bc1b01905560045f52808252825f20620001d46200014882546200032b565b601a6c50657270204c6576657261676560981b019055805f528152815f20906200020a6200020383546200032b565b836200037e565b6f50726f7465637469766520486564676560801b019055516121479081620003aa8239f35b015190505f80620000d5565b821695835f52845f20915f5b88811062000285575083600195969798106200026c575b505050811b018155620000e9565b01515f1960f88460031b161c191690555f80806200025e565b91928660018192868501518155019401920162000247565b620002c790855f52865f208980870160051c820192898810620002ce575b0160051c019062000366565b5f620000b9565b92508192620002bb565b634e487b7160e01b5f52604160045260245ffd5b81810183015185820184015287920162000087565b5f80fd5b6040519190601f01601f191682016001600160401b03811183821017620002d857604052565b90600182811c921680156200035b575b60208310146200034757565b634e487b7160e01b5f52602260045260245ffd5b91607f16916200033b565b81811062000372575050565b5f815560010162000366565b90601f81116200038c575050565b620003a7915f52601f60205f20910160051c81019062000366565b56fe604060808152600480361015610013575f80fd5b5f3560e01c908162fdd58e1461186757816301ffc9a7146117fb5781630e89341c1461172a578163106749331461157357816316d26e6d1461149b5781631d4c1868146114805781632eb2c2d6146111e65781632f85874a146111c8578163379607f51461100a5781634e1273f414610e9a5781634ef64c0514610dcb5781635af02de714610db057816362abebce14610bbc578163681d0d6114610b795781636961fd46146109bd578163715018a6146109625781637865cd0f1461069f5781638da5cb5b1461093a578163a0bcfc7f146107a3578163a22cb465146106bf578163ac4d7298146106a4578163c4ebe0241461069f578163c8a3c3b514610629578163d4b0521b146105ae578163df54d23e14610593578163e985e9c514610545578163ed539364146104be578163f242432a14610270578163f2fde38b146101a5575063f956967314610166575f80fd5b346101a15760203660031901126101a1576020906001600160a01b0361018a611896565b165f526007825260ff815f20541690519015158152f35b5f80fd5b9050346101a15760203660031901126101a1576101c0611896565b906101c9611d70565b6001600160a01b0391821692831561021e575050600354826bffffffffffffffffffffffff60a01b821617600355167f8be0079c531659141344cd1fd0a4f28419497f9722a3daafe3b4186f6b6457e05f80a3005b906020608492519162461bcd60e51b8352820152602660248201527f4f776e61626c653a206e6577206f776e657220697320746865207a65726f206160448201526564647265737360d01b6064820152fd5b9050346101a15760a03660031901126101a15761028b611896565b916102946118ac565b9260443590606435906084356001600160401b0381116101a1576102bb9036908701611a98565b916001600160a01b0391821691338314801561049b575b6102db90611bc0565b87166102e8811515611e25565b6102f1856120ec565b506102fb826120ec565b50845f526020975f8952865f20845f52895282875f205461031e82821015611e7f565b875f525f8b52885f20865f528b5203875f2055855f525f8952865f20825f528952865f2061034d848254611d4f565b905581848851888152858c8201527fc3d58168c5ae7397731d063d5bbf3d657854427343f4c083240f7aacaa2d0f628a3392a43b61038757005b86945f89946103c989519788968795869463f23a6e6160e01b9c8d8752339087015260248601526044850152606484015260a0608484015260a48301906118c2565b03925af15f918161046c575b5061043d5750506103e461200f565b6308c379a01461040c575b5162461bcd60e51b815291508190610408908201612097565b0390fd5b61041461202a565b8061041f57506103ef565b610408915193849362461bcd60e51b855284015260248301906118c2565b9193506001600160e01b03199091160361045357005b905162461bcd60e51b8152908190610408908201611fc6565b61048d919250863d8811610494575b61048581836119af565b810190611fa6565b905f6103d5565b503d61047b565b50825f526001602052855f20335f526020526102db60ff875f20541690506102d2565b9050346101a15760603660031901126101a1577f9a91707d0ffd2febd948eb104af3b951795e9395cc97d50ab19776a94f0136dd60206104fc611896565b60243594610508611b16565b91610511611d70565b6001600160a01b03165f818152958452818620878752845294819020805460ff191660ff84151516179055519015158152a3005b82346101a157806003193601126101a157602090610561611896565b6105696118ac565b9060018060a01b038091165f5260018452825f2091165f52825260ff815f20541690519015158152f35b82346101a1575f3660031901126101a1576020905160018152f35b9050346101a15760203660031901126101a1578035906008548210156105f0576020836105da84611d1a565b905491519160018060a01b039160031b1c168152f35b606490602084519162461bcd60e51b83528201526013602482015272496e646578206f7574206f6620626f756e647360681b6044820152fd5b82346101a15760203660031901126101a15760e0916001600160a01b0361064e611896565b165f526006602052815f208054926001820154926002830154600384015491840154926006600586015495015495815197885260208801528601526060850152608084015260a083015260c0820152f35b611b25565b82346101a1575f3660031901126101a1576020905160058152f35b82346101a157806003193601126101a1576106d8611896565b90602435801515928382036101a1576001600160a01b03169333851461074e575061072290335f526001602052825f20855f52602052825f209060ff801983541691151516179055565b519081527f17307eab39ab6107e8899845ad3d59bd9653f200f220920489ca2b5937696c3160203392a3005b608490602084519162461bcd60e51b8352820152602960248201527f455243313135353a2073657474696e6720617070726f76616c20737461747573604482015268103337b91039b2b63360b91b6064820152fd5b346101a1576020806003193601126101a1576001600160401b039082358281116101a1576107d76107e69136908601611900565b6107df611d70565b3691611a53565b92835192831161092757506107fc60025461192d565b601f81116108c4575b50602090601f831160011461084657508190610836935f9261083b575b50508160011b915f199060031b1c19161790565b600255005b015190508380610822565b90601f1983169360025f527f405787fa12a823e0f2b7631cc41b3ba8828b3321ca811111fa75cd3aa3bb5ace925f905b8682106108ac5750508360019510610894575b505050811b01600255005b01515f1960f88460031b161c19169055828080610889565b80600185968294968601518155019501930190610876565b60025f527f405787fa12a823e0f2b7631cc41b3ba8828b3321ca811111fa75cd3aa3bb5ace601f840160051c8101916020851061091d575b601f0160051c01905b8181106109125750610805565b5f8155600101610905565b90915081906108fc565b604190634e487b7160e01b5f525260245ffd5b82346101a1575f3660031901126101a15760035490516001600160a01b039091168152602090f35b346101a1575f3660031901126101a15761097a611d70565b600380546001600160a01b031981169091555f906001600160a01b03167f8be0079c531659141344cd1fd0a4f28419497f9722a3daafe3b4186f6b6457e08280a3005b9050346101a15760603660031901126101a15780359160243560443592335f526006602052825f20906201518042046007602052845f20805460ff811615610b16575b50506005830181815403610b08575b505060068201908154926003841015610ac557808291548913610ab1575b4260038201550180549060018201809211610a9e575560018301809311610a8b575055815193845260208401528201524260608201527ff6d69723c1e13a6e751ff8839d394f04ffffc588fdd13a7cfd1fdfc1bf87ebe160803392a2005b601190634e487b7160e01b5f525260245ffd5b601183634e487b7160e01b5f525260245ffd5b888155856001820155876002820155610a2d565b855162461bcd60e51b8152602081840152601960248201527f4461696c792073636f7265206c696d69742072656163686564000000000000006044820152606490fd5b555f60068301555f80610a0f565b60ff1916600117905560085468010000000000000000811015610b6657806001610b439201600855611d1a565b81546001600160a01b0360039290921b91821b19163390911b1790555f80610a00565b604183634e487b7160e01b5f525260245ffd5b82346101a157806003193601126101a1576020916001600160a01b03610b9d611896565b165f528252805f206024355f52825260ff815f20541690519015158152f35b82346101a1576020916003199183833601126101a15781356001600160401b0381116101a157610bef9036908401611ae6565b905f5b828110610d785750610c0382611ca3565b915f5b818110610d63575090610c1a9136916119e7565b928251610c2681611965565b5f8152610c34331515611f50565b610c418551845114611dc8565b5f5b8551811015610c885780610c5960019286611cf6565b51610c648289611cf6565b515f525f8a52865f20335f528a52610c80875f20918254611d4f565b905501610c43565b50909391869584515f33917f4a39dc06d4c0dbc64b70af90fd698a233a518aa5d07e595d983b8c0526c8f7fb339180610cc2888b83611ede565b0390a4333b610ccd57005b8691610d28610d199287519586948594610d0963bc197c8160e01b9a8b88528d33908901525f602489015260a0604489015260a4880190611ab3565b9084878303016064880152611ab3565b918483030160848501526118c2565b03815f335af15f9181610d44575061043d5750506103e461200f565b610d5c919250863d88116104945761048581836119af565b90866103d5565b806001610d71819387611cf6565b5201610c06565b80610daa610da4610d8c6001948787611d0a565b35610d9e610d9982611f03565b611c23565b33611b40565b15611c65565b01610bf2565b9050346101a1575f3660031901126101a15760209151908152f35b9050346101a15760603660031901126101a157610de6611896565b906024356001600160401b0381116101a15790610e07849236908301611ae6565b610e12949194611b16565b92610e1b611d70565b6001600160a01b03909216918315155f5b838110610e3557005b80610e43600192868b611d0a565b35865f52867f9a91707d0ffd2febd948eb104af3b951795e9395cc97d50ab19776a94f0136dd60208781528b5f20845f528152610e8e8b8d5f209060ff801983541691151516179055565b8b51878152a301610e2c565b82346101a157806003193601126101a1576001600160401b039180358381116101a157366023820112156101a1578082013593610ed6856119d0565b91610ee3855193846119af565b85835260209560248785019160051b830101913683116101a157602401905b828210610feb575050506024359081116101a157610f239036908401611a35565b918151835103610f965750610f388151611ca3565b935f5b8251811015610f8057600190610f6f6001600160a01b03610f5c8387611cf6565b5116610f688388611cf6565b5190611b40565b610f798289611cf6565b5201610f3b565b845182815280610f9281850189611ab3565b0390f35b835162461bcd60e51b8152908101859052602960248201527f455243313135353a206163636f756e747320616e6420696473206c656e677468604482015268040dad2e6dac2e8c6d60bb1b6064820152608490fd5b81356001600160a01b03811681036101a1578152908701908701610f02565b9050346101a157602090816003193601126101a15780359261102e610d9985611f03565b61103b610da48533611b40565b805161104681611965565b5f8152611054331515611f50565b61105d856120ec565b50600161107c835161106e81611994565b828152863681830137611cd5565b52845f525f8452815f20335f528452815f20805490600182018092116111b5575581518581526001858201525f33917fc3d58168c5ae7397731d063d5bbf3d657854427343f4c083240f7aacaa2d0f62853392a4333b6110ff575b84337f04844d30b922ffc2b845400eb2a15cdd62742176c723e09d7cc9703e83645e4b5f80a3005b81929394915185818061114063f23a6e6160e01b95868352338a8401525f60248401528760448401526001606484015260a0608484015260a48301906118c2565b03815f335af15f9181611196575b5061115e575050506103e461200f565b9194506001600160e01b03199091160361117d5750505f8080806110d7565b5162461bcd60e51b815291508190610408908201611fc6565b6111ae919250873d89116104945761048581836119af565b905f61114e565b601185634e487b7160e01b5f525260245ffd5b82346101a1575f3660031901126101a1576020906008549051908152f35b9050346101a1576003199060a0368301126101a157611203611896565b9161120c6118ac565b926001600160401b03926044358481116101a15761122d9036908301611a35565b906064358581116101a1576112459036908301611a35565b946084359081116101a15761125d9036908301611a98565b936001600160a01b0393841693338514801561145d575b61127d90611bc0565b61128a8451885114611dc8565b871694611298861515611e25565b5f5b845181101561131657806112b060019287611cf6565b516112bb828b611cf6565b5190805f526020905f82528d5f208a5f5282528d83815f20546112e082821015611e7f565b835f525f8552825f208d5f52855203905f20555f525f81528c5f20908a5f525261130e8c5f20918254611d4f565b90550161129a565b509094939592919684878a517f4a39dc06d4c0dbc64b70af90fd698a233a518aa5d07e595d983b8c0526c8f7fb3391806113518a8a83611ede565b0390a43b61135b57005b8751948593849363bc197c8160e01b98898652338b87015260248601526044850160a0905260a4850161138d91611ab3565b828582030160648601526113a091611ab3565b908382030160848401526113b3916118c2565b03815a6020945f91f15f918161143c575b5061142b5750506113d361200f565b6308c379a0146113f7575b905162461bcd60e51b8152908190610408908201612097565b6113ff61202a565b8061140a57506113de565b610408906020935193849362461bcd60e51b855284015260248301906118c2565b6001600160e01b0319160361045357005b61145691925060203d6020116104945761048581836119af565b905f6113c4565b50845f526001602052885f20335f5260205261127d60ff8a5f2054169050611274565b82346101a1575f3660031901126101a1576020905160028152f35b9050346101a157602090816003193601126101a157355f5260058152815f2091805180935f9080546114cc8161192d565b91828552600191876001821691825f1461154c57505060011461150c575b505050610f9292916114fd9103856119af565b519282849384528301906118c2565b8693505f92919252825f20915f925b82841061153457505050820101816114fd610f926114ea565b8054848a01860152889550879490930192810161151b565b60ff19168782015293151560051b860190930193508492506114fd9150610f9290506114ea565b82346101a157806003193601126101a1578135906001600160401b03906024358281116101a1576115a79036908601611900565b926115b0611d70565b845f5260209560058752835f2091851161092757506115cf815461192d565b601f81116116e7575b505f601f851160011461165f577f0f1c7b1b56d5d626af1e77abead63b7d49ace9e5819ee9a93ff02e02d9da3271959692859261162c848080955f91611654575b508160011b915f199060031b1c19161790565b90555b8451958487958652850152848401375f828201840152601f01601f19168101030190a2005b90508401358c611619565b601f19851690825f52875f20915f5b8181106116d05750928693927f0f1c7b1b56d5d626af1e77abead63b7d49ace9e5819ee9a93ff02e02d9da327198999592858095106116b7575b5050600183811b01905561162f565b8301355f19600386901b60f8161c1916905589806116a8565b91928960018192868901358155019401920161166e565b815f52865f20601f860160051c810191888710611720575b601f0160051c01905b81811061171557506115d8565b5f8155600101611708565b90915081906116ff565b82346101a1576020806003193601126101a157815191825f60025461174e8161192d565b90818452600190866001821691825f146117d957505060011461177e575b5050610f9292916114fd9103856119af565b9085925060025f527f405787fa12a823e0f2b7631cc41b3ba8828b3321ca811111fa75cd3aa3bb5ace915f925b8284106117c157505050820101816114fd61176c565b8054848a0186015288955087949093019281016117ab565b60ff19168682015292151560051b850190920192508391506114fd905061176c565b9050346101a15760203660031901126101a1573563ffffffff60e01b81168091036101a157602091636cdb3d1360e11b8214918215611856575b8215611845575b50519015158152f35b6301ffc9a760e01b1491505f61183c565b6303a24d0760e21b81149250611835565b82346101a157806003193601126101a15760209061188f611886611896565b60243590611b40565b9051908152f35b600435906001600160a01b03821682036101a157565b602435906001600160a01b03821682036101a157565b91908251928382525f5b8481106118ec575050825f602080949584010152601f8019910116010190565b6020818301810151848301820152016118cc565b9181601f840112156101a1578235916001600160401b0383116101a157602083818601950101116101a157565b90600182811c9216801561195b575b602083101461194757565b634e487b7160e01b5f52602260045260245ffd5b91607f169161193c565b602081019081106001600160401b0382111761198057604052565b634e487b7160e01b5f52604160045260245ffd5b604081019081106001600160401b0382111761198057604052565b90601f801991011681019081106001600160401b0382111761198057604052565b6001600160401b0381116119805760051b60200190565b92916119f2826119d0565b91611a0060405193846119af565b829481845260208094019160051b81019283116101a157905b828210611a265750505050565b81358152908301908301611a19565b9080601f830112156101a157816020611a50933591016119e7565b90565b9291926001600160401b0382116119805760405191611a7c601f8201601f1916602001846119af565b8294818452818301116101a1578281602093845f960137010152565b9080601f830112156101a157816020611a5093359101611a53565b9081518082526020808093019301915f5b828110611ad2575050505090565b835185529381019392810192600101611ac4565b9181601f840112156101a1578235916001600160401b0383116101a1576020808501948460051b0101116101a157565b6044359081151582036101a157565b346101a1575f3660031901126101a157602060405160038152f35b6001600160a01b0316908115611b68575f525f60205260405f20905f5260205260405f205490565b60405162461bcd60e51b815260206004820152602a60248201527f455243313135353a2061646472657373207a65726f206973206e6f742061207660448201526930b634b21037bbb732b960b11b6064820152608490fd5b15611bc757565b60405162461bcd60e51b815260206004820152602e60248201527f455243313135353a2063616c6c6572206973206e6f7420746f6b656e206f776e60448201526d195c881bdc88185c1c1c9bdd995960921b6064820152608490fd5b15611c2a57565b60405162461bcd60e51b8152602060048201526013602482015272125b9d985b1a59081858da1a595d995b595b9d606a1b6044820152606490fd5b15611c6c57565b60405162461bcd60e51b815260206004820152600f60248201526e105b1c9958591e4818db185a5b5959608a1b6044820152606490fd5b90611cad826119d0565b611cba60405191826119af565b8281528092611ccb601f19916119d0565b0190602036910137565b805115611ce25760200190565b634e487b7160e01b5f52603260045260245ffd5b8051821015611ce25760209160051b010190565b9190811015611ce25760051b0190565b600854811015611ce25760085f527ff3f7a9fe364faab93b216da50a3214154f22a0a2b415b23a84c8169e8b636ee301905f90565b91908201809211611d5c57565b634e487b7160e01b5f52601160045260245ffd5b6003546001600160a01b03163303611d8457565b606460405162461bcd60e51b815260206004820152602060248201527f4f776e61626c653a2063616c6c6572206973206e6f7420746865206f776e65726044820152fd5b15611dcf57565b60405162461bcd60e51b815260206004820152602860248201527f455243313135353a2069647320616e6420616d6f756e7473206c656e677468206044820152670dad2e6dac2e8c6d60c31b6064820152608490fd5b15611e2c57565b60405162461bcd60e51b815260206004820152602560248201527f455243313135353a207472616e7366657220746f20746865207a65726f206164604482015264647265737360d81b6064820152608490fd5b15611e8657565b60405162461bcd60e51b815260206004820152602a60248201527f455243313135353a20696e73756666696369656e742062616c616e636520666f60448201526939103a3930b739b332b960b11b6064820152608490fd5b9091611ef5611a5093604084526040840190611ab3565b916020818403910152611ab3565b60018114908115611f45575b8115611f3a575b8115611f2f575b8115611f27575090565b600591501490565b600481149150611f1d565b600381149150611f16565b600281149150611f0f565b15611f5757565b60405162461bcd60e51b815260206004820152602160248201527f455243313135353a206d696e7420746f20746865207a65726f206164647265736044820152607360f81b6064820152608490fd5b908160209103126101a157516001600160e01b0319811681036101a15790565b60809060208152602860208201527f455243313135353a204552433131353552656365697665722072656a656374656040820152676420746f6b656e7360c01b60608201520190565b5f9060033d1161201b57565b905060045f803e5f5160e01c90565b5f60443d10611a5057604051600319913d83016004833e81516001600160401b03918282113d6024840111176120865781840194855193841161208e573d850101602084870101116120865750611a50929101602001906119af565b949350505050565b50949350505050565b60809060208152603460208201527f455243313135353a207472616e7366657220746f206e6f6e2d455243313135356040820152732932b1b2b4bb32b91034b6b83632b6b2b73a32b960611b60608201520190565b604051906120f982611994565b600182526020368184013761210d82611cd5565b529056fea264697066735822122025a8c3771a28a41e1161a52258d1d2875ba7cde92308fddc0306fa72520ca83364736f6c63430008180033","opcodes":"PUSH1 0x40 PUSH1 0x80 DUP2 MSTORE CALLVALUE PUSH3 0x301 JUMPI PUSH3 0x24F1 SWAP1 DUP2 CODESIZE SUB DUP1 PUSH3 0x1F DUP2 PUSH3 0x305 JUMP JUMPDEST SWAP4 DUP5 CODECOPY DUP3 ADD SWAP2 PUSH1 0x20 SWAP1 DUP2 DUP2 DUP6 SUB SLT PUSH3 0x301 JUMPI DUP1 MLOAD PUSH1 0x1 PUSH1 0x1 PUSH1 0x40 SHL SUB SWAP2 DUP3 DUP3 GT PUSH3 0x301 JUMPI ADD SWAP1 PUSH1 0x1F SWAP5 DUP1 DUP7 DUP5 ADD SLT ISZERO PUSH3 0x301 JUMPI DUP3 MLOAD DUP3 DUP2 GT PUSH3 0x2D8 JUMPI PUSH1 0x1F NOT SWAP4 PUSH3 0x74 DUP3 DUP10 ADD DUP7 AND DUP8 ADD PUSH3 0x305 JUMP JUMPDEST SWAP3 DUP3 DUP5 MSTORE DUP7 DUP4 DUP4 ADD ADD GT PUSH3 0x301 JUMPI DUP6 SWAP1 PUSH0 JUMPDEST DUP4 DUP2 LT PUSH3 0x2EC JUMPI POP POP PUSH0 SWAP2 DUP4 ADD ADD MSTORE DUP1 MLOAD SWAP2 DUP3 GT PUSH3 0x2D8 JUMPI PUSH1 0x2 SWAP3 PUSH3 0xB0 DUP5 SLOAD PUSH3 0x32B JUMP JUMPDEST DUP8 DUP2 GT PUSH3 0x29D JUMPI JUMPDEST POP DUP5 SWAP7 DUP4 GT PUSH1 0x1 EQ PUSH3 0x23B JUMPI POP SWAP5 DUP2 SWAP3 SWAP4 SWAP5 SWAP6 PUSH0 SWAP3 PUSH3 0x22F JUMPI JUMPDEST POP POP DUP2 PUSH1 0x1 SHL SWAP2 PUSH0 NOT SWAP1 PUSH1 0x3 SHL SHR NOT AND OR DUP2 SSTORE JUMPDEST PUSH1 0x3 DUP1 SLOAD CALLER PUSH1 0x1 PUSH1 0x1 PUSH1 0xA0 SHL SUB NOT DUP3 AND DUP2 OR SWAP1 SWAP3 SSTORE PUSH1 0x1 PUSH1 0x1 PUSH1 0xA0 SHL SUB AND PUSH32 0x8BE0079C531659141344CD1FD0A4F28419497F9722A3DAAFE3B4186F6B6457E0 PUSH0 DUP1 LOG3 PUSH1 0x1 PUSH0 MSTORE PUSH1 0x5 SWAP1 DUP2 DUP4 MSTORE DUP4 PUSH0 KECCAK256 PUSH3 0x14F PUSH3 0x148 DUP3 SLOAD PUSH3 0x32B JUMP JUMPDEST DUP3 PUSH3 0x37E JUMP JUMPDEST PUSH1 0x14 PUSH10 0x4261736520436865636B PUSH1 0xB0 SHL ADD SWAP1 SSTORE PUSH0 MSTORE DUP1 DUP3 MSTORE DUP3 PUSH0 KECCAK256 PUSH3 0x17A PUSH3 0x148 DUP3 SLOAD PUSH3 0x32B JUMP JUMPDEST PUSH1 0x16 PUSH11 0x13195859195C989BD85C99 PUSH1 0xAA SHL ADD SWAP1 SSTORE PUSH1 0x3 PUSH0 MSTORE DUP1 DUP3 MSTORE DUP3 PUSH0 KECCAK256 PUSH3 0x1A8 PUSH3 0x148 DUP3 SLOAD PUSH3 0x32B JUMP JUMPDEST PUSH1 0x12 PUSH9 0x53706F74204C6F6F7 PUSH1 0xBC SHL ADD SWAP1 SSTORE PUSH1 0x4 PUSH0 MSTORE DUP1 DUP3 MSTORE DUP3 PUSH0 KECCAK256 PUSH3 0x1D4 PUSH3 0x148 DUP3 SLOAD PUSH3 0x32B JUMP JUMPDEST PUSH1 0x1A PUSH13 0x50657270204C65766572616765 PUSH1 0x98 SHL ADD SWAP1 SSTORE DUP1 PUSH0 MSTORE DUP2 MSTORE DUP2 PUSH0 KECCAK256 SWAP1 PUSH3 0x20A PUSH3 0x203 DUP4 SLOAD PUSH3 0x32B JUMP JUMPDEST DUP4 PUSH3 0x37E JUMP JUMPDEST PUSH16 0x50726F74656374697665204865646765 PUSH1 0x80 SHL ADD SWAP1 SSTORE MLOAD PUSH2 0x2147 SWAP1 DUP2 PUSH3 0x3AA DUP3 CODECOPY RETURN JUMPDEST ADD MLOAD SWAP1 POP PUSH0 DUP1 PUSH3 0xD5 JUMP JUMPDEST DUP3 AND SWAP6 DUP4 PUSH0 MSTORE DUP5 PUSH0 KECCAK256 SWAP2 PUSH0 JUMPDEST DUP9 DUP2 LT PUSH3 0x285 JUMPI POP DUP4 PUSH1 0x1 SWAP6 SWAP7 SWAP8 SWAP9 LT PUSH3 0x26C JUMPI JUMPDEST POP POP POP DUP2 SHL ADD DUP2 SSTORE PUSH3 0xE9 JUMP JUMPDEST ADD MLOAD PUSH0 NOT PUSH1 0xF8 DUP5 PUSH1 0x3 SHL AND SHR NOT AND SWAP1 SSTORE PUSH0 DUP1 DUP1 PUSH3 0x25E JUMP JUMPDEST SWAP2 SWAP3 DUP7 PUSH1 0x1 DUP2 SWAP3 DUP7 DUP6 ADD MLOAD DUP2 SSTORE ADD SWAP5 ADD SWAP3 ADD PUSH3 0x247 JUMP JUMPDEST PUSH3 0x2C7 SWAP1 DUP6 PUSH0 MSTORE DUP7 PUSH0 KECCAK256 DUP10 DUP1 DUP8 ADD PUSH1 0x5 SHR DUP3 ADD SWAP3 DUP10 DUP9 LT PUSH3 0x2CE JUMPI JUMPDEST ADD PUSH1 0x5 SHR ADD SWAP1 PUSH3 0x366 JUMP JUMPDEST PUSH0 PUSH3 0xB9 JUMP JUMPDEST SWAP3 POP DUP2 SWAP3 PUSH3 0x2BB JUMP JUMPDEST PUSH4 0x4E487B71 PUSH1 0xE0 SHL PUSH0 MSTORE PUSH1 0x41 PUSH1 0x4 MSTORE PUSH1 0x24 PUSH0 REVERT JUMPDEST DUP2 DUP2 ADD DUP4 ADD MLOAD DUP6 DUP3 ADD DUP5 ADD MSTORE DUP8 SWAP3 ADD PUSH3 0x87 JUMP JUMPDEST PUSH0 DUP1 REVERT JUMPDEST PUSH1 0x40 MLOAD SWAP2 SWAP1 PUSH1 0x1F ADD PUSH1 0x1F NOT AND DUP3 ADD PUSH1 0x1 PUSH1 0x1 PUSH1 0x40 SHL SUB DUP2 GT DUP4 DUP3 LT OR PUSH3 0x2D8 JUMPI PUSH1 0x40 MSTORE JUMP JUMPDEST SWAP1 PUSH1 0x1 DUP3 DUP2 SHR SWAP3 AND DUP1 ISZERO PUSH3 0x35B JUMPI JUMPDEST PUSH1 0x20 DUP4 LT EQ PUSH3 0x347 JUMPI JUMP JUMPDEST PUSH4 0x4E487B71 PUSH1 0xE0 SHL PUSH0 MSTORE PUSH1 0x22 PUSH1 0x4 MSTORE PUSH1 0x24 PUSH0 REVERT JUMPDEST SWAP2 PUSH1 0x7F AND SWAP2 PUSH3 0x33B JUMP JUMPDEST DUP2 DUP2 LT PUSH3 0x372 JUMPI POP POP JUMP JUMPDEST PUSH0 DUP2 SSTORE PUSH1 0x1 ADD PUSH3 0x366 JUMP JUMPDEST SWAP1 PUSH1 0x1F DUP2 GT PUSH3 0x38C JUMPI POP POP JUMP JUMPDEST PUSH3 0x3A7 SWAP2 PUSH0 MSTORE PUSH1 0x1F PUSH1 0x20 PUSH0 KECCAK256 SWAP2 ADD PUSH1 0x5 SHR DUP2 ADD SWAP1 PUSH3 0x366 JUMP JUMPDEST JUMP INVALID PUSH1 0x40 PUSH1 0x80 DUP2 MSTORE PUSH1 0x4 DUP1 CALLDATASIZE LT ISZERO PUSH2 0x13 JUMPI PUSH0 DUP1 REVERT JUMPDEST PUSH0 CALLDATALOAD PUSH1 0xE0 SHR SWAP1 DUP2 PUSH3 0xFDD58E EQ PUSH2 0x1867 JUMPI DUP2 PUSH4 0x1FFC9A7 EQ PUSH2 0x17FB JUMPI DUP2 PUSH4 0xE89341C EQ PUSH2 0x172A JUMPI DUP2 PUSH4 0x10674933 EQ PUSH2 0x1573 JUMPI DUP2 PUSH4 0x16D26E6D EQ PUSH2 0x149B JUMPI DUP2 PUSH4 0x1D4C1868 EQ PUSH2 0x1480 JUMPI DUP2 PUSH4 0x2EB2C2D6 EQ PUSH2 0x11E6 JUMPI DUP2 PUSH4 0x2F85874A EQ PUSH2 0x11C8 JUMPI DUP2 PUSH4 0x379607F5 EQ PUSH2 0x100A JUMPI DUP2 PUSH4 0x4E1273F4 EQ PUSH2 0xE9A JUMPI DUP2 PUSH4 0x4EF64C05 EQ PUSH2 0xDCB JUMPI DUP2 PUSH4 0x5AF02DE7 EQ PUSH2 0xDB0 JUMPI DUP2 PUSH4 0x62ABEBCE EQ PUSH2 0xBBC JUMPI DUP2 PUSH4 0x681D0D61 EQ PUSH2 0xB79 JUMPI DUP2 PUSH4 0x6961FD46 EQ PUSH2 0x9BD JUMPI DUP2 PUSH4 0x715018A6 EQ PUSH2 0x962 JUMPI DUP2 PUSH4 0x7865CD0F EQ PUSH2 0x69F JUMPI DUP2 PUSH4 0x8DA5CB5B EQ PUSH2 0x93A JUMPI DUP2 PUSH4 0xA0BCFC7F EQ PUSH2 0x7A3 JUMPI DUP2 PUSH4 0xA22CB465 EQ PUSH2 0x6BF JUMPI DUP2 PUSH4 0xAC4D7298 EQ PUSH2 0x6A4 JUMPI DUP2 PUSH4 0xC4EBE024 EQ PUSH2 0x69F JUMPI DUP2 PUSH4 0xC8A3C3B5 EQ PUSH2 0x629 JUMPI DUP2 PUSH4 0xD4B0521B EQ PUSH2 0x5AE JUMPI DUP2 PUSH4 0xDF54D23E EQ PUSH2 0x593 JUMPI DUP2 PUSH4 0xE985E9C5 EQ PUSH2 0x545 JUMPI DUP2 PUSH4 0xED539364 EQ PUSH2 0x4BE JUMPI DUP2 PUSH4 0xF242432A EQ PUSH2 0x270 JUMPI DUP2 PUSH4 0xF2FDE38B EQ PUSH2 0x1A5 JUMPI POP PUSH4 0xF9569673 EQ PUSH2 0x166 JUMPI PUSH0 DUP1 REVERT JUMPDEST CALLVALUE PUSH2 0x1A1 JUMPI PUSH1 0x20 CALLDATASIZE PUSH1 0x3 NOT ADD SLT PUSH2 0x1A1 JUMPI PUSH1 0x20 SWAP1 PUSH1 0x1 PUSH1 0x1 PUSH1 0xA0 SHL SUB PUSH2 0x18A PUSH2 0x1896 JUMP JUMPDEST AND PUSH0 MSTORE PUSH1 0x7 DUP3 MSTORE PUSH1 0xFF DUP2 PUSH0 KECCAK256 SLOAD AND SWAP1 MLOAD SWAP1 ISZERO ISZERO DUP2 MSTORE RETURN JUMPDEST PUSH0 DUP1 REVERT JUMPDEST SWAP1 POP CALLVALUE PUSH2 0x1A1 JUMPI PUSH1 0x20 CALLDATASIZE PUSH1 0x3 NOT ADD SLT PUSH2 0x1A1 JUMPI PUSH2 0x1C0 PUSH2 0x1896 JUMP JUMPDEST SWAP1 PUSH2 0x1C9 PUSH2 0x1D70 JUMP JUMPDEST PUSH1 0x1 PUSH1 0x1 PUSH1 0xA0 SHL SUB SWAP2 DUP3 AND SWAP3 DUP4 ISZERO PUSH2 0x21E JUMPI POP POP PUSH1 0x3 SLOAD DUP3 PUSH12 0xFFFFFFFFFFFFFFFFFFFFFFFF PUSH1 0xA0 SHL DUP3 AND OR PUSH1 0x3 SSTORE AND PUSH32 0x8BE0079C531659141344CD1FD0A4F28419497F9722A3DAAFE3B4186F6B6457E0 PUSH0 DUP1 LOG3 STOP JUMPDEST SWAP1 PUSH1 0x20 PUSH1 0x84 SWAP3 MLOAD SWAP2 PUSH3 0x461BCD PUSH1 0xE5 SHL DUP4 MSTORE DUP3 ADD MSTORE PUSH1 0x26 PUSH1 0x24 DUP3 ADD MSTORE PUSH32 0x4F776E61626C653A206E6577206F776E657220697320746865207A65726F2061 PUSH1 0x44 DUP3 ADD MSTORE PUSH6 0x646472657373 PUSH1 0xD0 SHL PUSH1 0x64 DUP3 ADD MSTORE REVERT JUMPDEST SWAP1 POP CALLVALUE PUSH2 0x1A1 JUMPI PUSH1 0xA0 CALLDATASIZE PUSH1 0x3 NOT ADD SLT PUSH2 0x1A1 JUMPI PUSH2 0x28B PUSH2 0x1896 JUMP JUMPDEST SWAP2 PUSH2 0x294 PUSH2 0x18AC JUMP JUMPDEST SWAP3 PUSH1 0x44 CALLDATALOAD SWAP1 PUSH1 0x64 CALLDATALOAD SWAP1 PUSH1 0x84 CALLDATALOAD PUSH1 0x1 PUSH1 0x1 PUSH1 0x40 SHL SUB DUP2 GT PUSH2 0x1A1 JUMPI PUSH2 0x2BB SWAP1 CALLDATASIZE SWAP1 DUP8 ADD PUSH2 0x1A98 JUMP JUMPDEST SWAP2 PUSH1 0x1 PUSH1 0x1 PUSH1 0xA0 SHL SUB SWAP2 DUP3 AND SWAP2 CALLER DUP4 EQ DUP1 ISZERO PUSH2 0x49B JUMPI JUMPDEST PUSH2 0x2DB SWAP1 PUSH2 0x1BC0 JUMP JUMPDEST DUP8 AND PUSH2 0x2E8 DUP2 ISZERO ISZERO PUSH2 0x1E25 JUMP JUMPDEST PUSH2 0x2F1 DUP6 PUSH2 0x20EC JUMP JUMPDEST POP PUSH2 0x2FB DUP3 PUSH2 0x20EC JUMP JUMPDEST POP DUP5 PUSH0 MSTORE PUSH1 0x20 SWAP8 PUSH0 DUP10 MSTORE DUP7 PUSH0 KECCAK256 DUP5 PUSH0 MSTORE DUP10 MSTORE DUP3 DUP8 PUSH0 KECCAK256 SLOAD PUSH2 0x31E DUP3 DUP3 LT ISZERO PUSH2 0x1E7F JUMP JUMPDEST DUP8 PUSH0 MSTORE PUSH0 DUP12 MSTORE DUP9 PUSH0 KECCAK256 DUP7 PUSH0 MSTORE DUP12 MSTORE SUB DUP8 PUSH0 KECCAK256 SSTORE DUP6 PUSH0 MSTORE PUSH0 DUP10 MSTORE DUP7 PUSH0 KECCAK256 DUP3 PUSH0 MSTORE DUP10 MSTORE DUP7 PUSH0 KECCAK256 PUSH2 0x34D DUP5 DUP3 SLOAD PUSH2 0x1D4F JUMP JUMPDEST SWAP1 SSTORE DUP2 DUP5 DUP9 MLOAD DUP9 DUP2 MSTORE DUP6 DUP13 DUP3 ADD MSTORE PUSH32 0xC3D58168C5AE7397731D063D5BBF3D657854427343F4C083240F7AACAA2D0F62 DUP11 CALLER SWAP3 LOG4 EXTCODESIZE PUSH2 0x387 JUMPI STOP JUMPDEST DUP7 SWAP5 PUSH0 DUP10 SWAP5 PUSH2 0x3C9 DUP10 MLOAD SWAP8 DUP9 SWAP7 DUP8 SWAP6 DUP7 SWAP5 PUSH4 0xF23A6E61 PUSH1 0xE0 SHL SWAP13 DUP14 DUP8 MSTORE CALLER SWAP1 DUP8 ADD MSTORE PUSH1 0x24 DUP7 ADD MSTORE PUSH1 0x44 DUP6 ADD MSTORE PUSH1 0x64 DUP5 ADD MSTORE PUSH1 0xA0 PUSH1 0x84 DUP5 ADD MSTORE PUSH1 0xA4 DUP4 ADD SWAP1 PUSH2 0x18C2 JUMP JUMPDEST SUB SWAP3 GAS CALL PUSH0 SWAP2 DUP2 PUSH2 0x46C JUMPI JUMPDEST POP PUSH2 0x43D JUMPI POP POP PUSH2 0x3E4 PUSH2 0x200F JUMP JUMPDEST PUSH4 0x8C379A0 EQ PUSH2 0x40C JUMPI JUMPDEST MLOAD PUSH3 0x461BCD PUSH1 0xE5 SHL DUP2 MSTORE SWAP2 POP DUP2 SWAP1 PUSH2 0x408 SWAP1 DUP3 ADD PUSH2 0x2097 JUMP JUMPDEST SUB SWAP1 REVERT JUMPDEST PUSH2 0x414 PUSH2 0x202A JUMP JUMPDEST DUP1 PUSH2 0x41F JUMPI POP PUSH2 0x3EF JUMP JUMPDEST PUSH2 0x408 SWAP2 MLOAD SWAP4 DUP5 SWAP4 PUSH3 0x461BCD PUSH1 0xE5 SHL DUP6 MSTORE DUP5 ADD MSTORE PUSH1 0x24 DUP4 ADD SWAP1 PUSH2 0x18C2 JUMP JUMPDEST SWAP2 SWAP4 POP PUSH1 0x1 PUSH1 0x1 PUSH1 0xE0 SHL SUB NOT SWAP1 SWAP2 AND SUB PUSH2 0x453 JUMPI STOP JUMPDEST SWAP1 MLOAD PUSH3 0x461BCD PUSH1 0xE5 SHL DUP2 MSTORE SWAP1 DUP2 SWAP1 PUSH2 0x408 SWAP1 DUP3 ADD PUSH2 0x1FC6 JUMP JUMPDEST PUSH2 0x48D SWAP2 SWAP3 POP DUP7 RETURNDATASIZE DUP9 GT PUSH2 0x494 JUMPI JUMPDEST PUSH2 0x485 DUP2 DUP4 PUSH2 0x19AF JUMP JUMPDEST DUP2 ADD SWAP1 PUSH2 0x1FA6 JUMP JUMPDEST SWAP1 PUSH0 PUSH2 0x3D5 JUMP JUMPDEST POP RETURNDATASIZE PUSH2 0x47B JUMP JUMPDEST POP DUP3 PUSH0 MSTORE PUSH1 0x1 PUSH1 0x20 MSTORE DUP6 PUSH0 KECCAK256 CALLER PUSH0 MSTORE PUSH1 0x20 MSTORE PUSH2 0x2DB PUSH1 0xFF DUP8 PUSH0 KECCAK256 SLOAD AND SWAP1 POP PUSH2 0x2D2 JUMP JUMPDEST SWAP1 POP CALLVALUE PUSH2 0x1A1 JUMPI PUSH1 0x60 CALLDATASIZE PUSH1 0x3 NOT ADD SLT PUSH2 0x1A1 JUMPI PUSH32 0x9A91707D0FFD2FEBD948EB104AF3B951795E9395CC97D50AB19776A94F0136DD PUSH1 0x20 PUSH2 0x4FC PUSH2 0x1896 JUMP JUMPDEST PUSH1 0x24 CALLDATALOAD SWAP5 PUSH2 0x508 PUSH2 0x1B16 JUMP JUMPDEST SWAP2 PUSH2 0x511 PUSH2 0x1D70 JUMP JUMPDEST PUSH1 0x1 PUSH1 0x1 PUSH1 0xA0 SHL SUB AND PUSH0 DUP2 DUP2 MSTORE SWAP6 DUP5 MSTORE DUP2 DUP7 KECCAK256 DUP8 DUP8 MSTORE DUP5 MSTORE SWAP5 DUP2 SWAP1 KECCAK256 DUP1 SLOAD PUSH1 0xFF NOT AND PUSH1 0xFF DUP5 ISZERO ISZERO AND OR SWAP1 SSTORE MLOAD SWAP1 ISZERO ISZERO DUP2 MSTORE LOG3 STOP JUMPDEST DUP3 CALLVALUE PUSH2 0x1A1 JUMPI DUP1 PUSH1 0x3 NOT CALLDATASIZE ADD SLT PUSH2 0x1A1 JUMPI PUSH1 0x20 SWAP1 PUSH2 0x561 PUSH2 0x1896 JUMP JUMPDEST PUSH2 0x569 PUSH2 0x18AC JUMP JUMPDEST SWAP1 PUSH1 0x1 DUP1 PUSH1 0xA0 SHL SUB DUP1 SWAP2 AND PUSH0 MSTORE PUSH1 0x1 DUP5 MSTORE DUP3 PUSH0 KECCAK256 SWAP2 AND PUSH0 MSTORE DUP3 MSTORE PUSH1 0xFF DUP2 PUSH0 KECCAK256 SLOAD AND SWAP1 MLOAD SWAP1 ISZERO ISZERO DUP2 MSTORE RETURN JUMPDEST DUP3 CALLVALUE PUSH2 0x1A1 JUMPI PUSH0 CALLDATASIZE PUSH1 0x3 NOT ADD SLT PUSH2 0x1A1 JUMPI PUSH1 0x20 SWAP1 MLOAD PUSH1 0x1 DUP2 MSTORE RETURN JUMPDEST SWAP1 POP CALLVALUE PUSH2 0x1A1 JUMPI PUSH1 0x20 CALLDATASIZE PUSH1 0x3 NOT ADD SLT PUSH2 0x1A1 JUMPI DUP1 CALLDATALOAD SWAP1 PUSH1 0x8 SLOAD DUP3 LT ISZERO PUSH2 0x5F0 JUMPI PUSH1 0x20 DUP4 PUSH2 0x5DA DUP5 PUSH2 0x1D1A JUMP JUMPDEST SWAP1 SLOAD SWAP2 MLOAD SWAP2 PUSH1 0x1 DUP1 PUSH1 0xA0 SHL SUB SWAP2 PUSH1 0x3 SHL SHR AND DUP2 MSTORE RETURN JUMPDEST PUSH1 0x64 SWAP1 PUSH1 0x20 DUP5 MLOAD SWAP2 PUSH3 0x461BCD PUSH1 0xE5 SHL DUP4 MSTORE DUP3 ADD MSTORE PUSH1 0x13 PUSH1 0x24 DUP3 ADD MSTORE PUSH19 0x496E646578206F7574206F6620626F756E6473 PUSH1 0x68 SHL PUSH1 0x44 DUP3 ADD MSTORE REVERT JUMPDEST DUP3 CALLVALUE PUSH2 0x1A1 JUMPI PUSH1 0x20 CALLDATASIZE PUSH1 0x3 NOT ADD SLT PUSH2 0x1A1 JUMPI PUSH1 0xE0 SWAP2 PUSH1 0x1 PUSH1 0x1 PUSH1 0xA0 SHL SUB PUSH2 0x64E PUSH2 0x1896 JUMP JUMPDEST AND PUSH0 MSTORE PUSH1 0x6 PUSH1 0x20 MSTORE DUP2 PUSH0 KECCAK256 DUP1 SLOAD SWAP3 PUSH1 0x1 DUP3 ADD SLOAD SWAP3 PUSH1 0x2 DUP4 ADD SLOAD PUSH1 0x3 DUP5 ADD SLOAD SWAP2 DUP5 ADD SLOAD SWAP3 PUSH1 0x6 PUSH1 0x5 DUP7 ADD SLOAD SWAP6 ADD SLOAD SWAP6 DUP2 MLOAD SWAP8 DUP9 MSTORE PUSH1 0x20 DUP9 ADD MSTORE DUP7 ADD MSTORE PUSH1 0x60 DUP6 ADD MSTORE PUSH1 0x80 DUP5 ADD MSTORE PUSH1 0xA0 DUP4 ADD MSTORE PUSH1 0xC0 DUP3 ADD MSTORE RETURN JUMPDEST PUSH2 0x1B25 JUMP JUMPDEST DUP3 CALLVALUE PUSH2 0x1A1 JUMPI PUSH0 CALLDATASIZE PUSH1 0x3 NOT ADD SLT PUSH2 0x1A1 JUMPI PUSH1 0x20 SWAP1 MLOAD PUSH1 0x5 DUP2 MSTORE RETURN JUMPDEST DUP3 CALLVALUE PUSH2 0x1A1 JUMPI DUP1 PUSH1 0x3 NOT CALLDATASIZE ADD SLT PUSH2 0x1A1 JUMPI PUSH2 0x6D8 PUSH2 0x1896 JUMP JUMPDEST SWAP1 PUSH1 0x24 CALLDATALOAD DUP1 ISZERO ISZERO SWAP3 DUP4 DUP3 SUB PUSH2 0x1A1 JUMPI PUSH1 0x1 PUSH1 0x1 PUSH1 0xA0 SHL SUB AND SWAP4 CALLER DUP6 EQ PUSH2 0x74E JUMPI POP PUSH2 0x722 SWAP1 CALLER PUSH0 MSTORE PUSH1 0x1 PUSH1 0x20 MSTORE DUP3 PUSH0 KECCAK256 DUP6 PUSH0 MSTORE PUSH1 0x20 MSTORE DUP3 PUSH0 KECCAK256 SWAP1 PUSH1 0xFF DUP1 NOT DUP4 SLOAD AND SWAP2 ISZERO ISZERO AND OR SWAP1 SSTORE JUMP JUMPDEST MLOAD SWAP1 DUP2 MSTORE PUSH32 0x17307EAB39AB6107E8899845AD3D59BD9653F200F220920489CA2B5937696C31 PUSH1 0x20 CALLER SWAP3 LOG3 STOP JUMPDEST PUSH1 0x84 SWAP1 PUSH1 0x20 DUP5 MLOAD SWAP2 PUSH3 0x461BCD PUSH1 0xE5 SHL DUP4 MSTORE DUP3 ADD MSTORE PUSH1 0x29 PUSH1 0x24 DUP3 ADD MSTORE PUSH32 0x455243313135353A2073657474696E6720617070726F76616C20737461747573 PUSH1 0x44 DUP3 ADD MSTORE PUSH9 0x103337B91039B2B633 PUSH1 0xB9 SHL PUSH1 0x64 DUP3 ADD MSTORE REVERT JUMPDEST CALLVALUE PUSH2 0x1A1 JUMPI PUSH1 0x20 DUP1 PUSH1 0x3 NOT CALLDATASIZE ADD SLT PUSH2 0x1A1 JUMPI PUSH1 0x1 PUSH1 0x1 PUSH1 0x40 SHL SUB SWAP1 DUP3 CALLDATALOAD DUP3 DUP2 GT PUSH2 0x1A1 JUMPI PUSH2 0x7D7 PUSH2 0x7E6 SWAP2 CALLDATASIZE SWAP1 DUP7 ADD PUSH2 0x1900 JUMP JUMPDEST PUSH2 0x7DF PUSH2 0x1D70 JUMP JUMPDEST CALLDATASIZE SWAP2 PUSH2 0x1A53 JUMP JUMPDEST SWAP3 DUP4 MLOAD SWAP3 DUP4 GT PUSH2 0x927 JUMPI POP PUSH2 0x7FC PUSH1 0x2 SLOAD PUSH2 0x192D JUMP JUMPDEST PUSH1 0x1F DUP2 GT PUSH2 0x8C4 JUMPI JUMPDEST POP PUSH1 0x20 SWAP1 PUSH1 0x1F DUP4 GT PUSH1 0x1 EQ PUSH2 0x846 JUMPI POP DUP2 SWAP1 PUSH2 0x836 SWAP4 PUSH0 SWAP3 PUSH2 0x83B JUMPI JUMPDEST POP POP DUP2 PUSH1 0x1 SHL SWAP2 PUSH0 NOT SWAP1 PUSH1 0x3 SHL SHR NOT AND OR SWAP1 JUMP JUMPDEST PUSH1 0x2 SSTORE STOP JUMPDEST ADD MLOAD SWAP1 POP DUP4 DUP1 PUSH2 0x822 JUMP JUMPDEST SWAP1 PUSH1 0x1F NOT DUP4 AND SWAP4 PUSH1 0x2 PUSH0 MSTORE PUSH32 0x405787FA12A823E0F2B7631CC41B3BA8828B3321CA811111FA75CD3AA3BB5ACE SWAP3 PUSH0 SWAP1 JUMPDEST DUP7 DUP3 LT PUSH2 0x8AC JUMPI POP POP DUP4 PUSH1 0x1 SWAP6 LT PUSH2 0x894 JUMPI JUMPDEST POP POP POP DUP2 SHL ADD PUSH1 0x2 SSTORE STOP JUMPDEST ADD MLOAD PUSH0 NOT PUSH1 0xF8 DUP5 PUSH1 0x3 SHL AND SHR NOT AND SWAP1 SSTORE DUP3 DUP1 DUP1 PUSH2 0x889 JUMP JUMPDEST DUP1 PUSH1 0x1 DUP6 SWAP7 DUP3 SWAP5 SWAP7 DUP7 ADD MLOAD DUP2 SSTORE ADD SWAP6 ADD SWAP4 ADD SWAP1 PUSH2 0x876 JUMP JUMPDEST PUSH1 0x2 PUSH0 MSTORE PUSH32 0x405787FA12A823E0F2B7631CC41B3BA8828B3321CA811111FA75CD3AA3BB5ACE PUSH1 0x1F DUP5 ADD PUSH1 0x5 SHR DUP2 ADD SWAP2 PUSH1 0x20 DUP6 LT PUSH2 0x91D JUMPI JUMPDEST PUSH1 0x1F ADD PUSH1 0x5 SHR ADD SWAP1 JUMPDEST DUP2 DUP2 LT PUSH2 0x912 JUMPI POP PUSH2 0x805 JUMP JUMPDEST PUSH0 DUP2 SSTORE PUSH1 0x1 ADD PUSH2 0x905 JUMP JUMPDEST SWAP1 SWAP2 POP DUP2 SWAP1 PUSH2 0x8FC JUMP JUMPDEST PUSH1 0x41 SWAP1 PUSH4 0x4E487B71 PUSH1 0xE0 SHL PUSH0 MSTORE MSTORE PUSH1 0x24 PUSH0 REVERT JUMPDEST DUP3 CALLVALUE PUSH2 0x1A1 JUMPI PUSH0 CALLDATASIZE PUSH1 0x3 NOT ADD SLT PUSH2 0x1A1 JUMPI PUSH1 0x3 SLOAD SWAP1 MLOAD PUSH1 0x1 PUSH1 0x1 PUSH1 0xA0 SHL SUB SWAP1 SWAP2 AND DUP2 MSTORE PUSH1 0x20 SWAP1 RETURN JUMPDEST CALLVALUE PUSH2 0x1A1 JUMPI PUSH0 CALLDATASIZE PUSH1 0x3 NOT ADD SLT PUSH2 0x1A1 JUMPI PUSH2 0x97A PUSH2 0x1D70 JUMP JUMPDEST PUSH1 0x3 DUP1 SLOAD PUSH1 0x1 PUSH1 0x1 PUSH1 0xA0 SHL SUB NOT DUP2 AND SWAP1 SWAP2 SSTORE PUSH0 SWAP1 PUSH1 0x1 PUSH1 0x1 PUSH1 0xA0 SHL SUB AND PUSH32 0x8BE0079C531659141344CD1FD0A4F28419497F9722A3DAAFE3B4186F6B6457E0 DUP3 DUP1 LOG3 STOP JUMPDEST SWAP1 POP CALLVALUE PUSH2 0x1A1 JUMPI PUSH1 0x60 CALLDATASIZE PUSH1 0x3 NOT ADD SLT PUSH2 0x1A1 JUMPI DUP1 CALLDATALOAD SWAP2 PUSH1 0x24 CALLDATALOAD PUSH1 0x44 CALLDATALOAD SWAP3 CALLER PUSH0 MSTORE PUSH1 0x6 PUSH1 0x20 MSTORE DUP3 PUSH0 KECCAK256 SWAP1 PUSH3 0x15180 TIMESTAMP DIV PUSH1 0x7 PUSH1 0x20 MSTORE DUP5 PUSH0 KECCAK256 DUP1 SLOAD PUSH1 0xFF DUP2 AND ISZERO PUSH2 0xB16 JUMPI JUMPDEST POP POP PUSH1 0x5 DUP4 ADD DUP2 DUP2 SLOAD SUB PUSH2 0xB08 JUMPI JUMPDEST POP POP PUSH1 0x6 DUP3 ADD SWAP1 DUP2 SLOAD SWAP3 PUSH1 0x3 DUP5 LT ISZERO PUSH2 0xAC5 JUMPI DUP1 DUP3 SWAP2 SLOAD DUP10 SGT PUSH2 0xAB1 JUMPI JUMPDEST TIMESTAMP PUSH1 0x3 DUP3 ADD SSTORE ADD DUP1 SLOAD SWAP1 PUSH1 0x1 DUP3 ADD DUP1 SWAP3 GT PUSH2 0xA9E JUMPI SSTORE PUSH1 0x1 DUP4 ADD DUP1 SWAP4 GT PUSH2 0xA8B JUMPI POP SSTORE DUP2 MLOAD SWAP4 DUP5 MSTORE PUSH1 0x20 DUP5 ADD MSTORE DUP3 ADD MSTORE TIMESTAMP PUSH1 0x60 DUP3 ADD MSTORE PUSH32 0xF6D69723C1E13A6E751FF8839D394F04FFFFC588FDD13A7CFD1FDFC1BF87EBE1 PUSH1 0x80 CALLER SWAP3 LOG2 STOP JUMPDEST PUSH1 0x11 SWAP1 PUSH4 0x4E487B71 PUSH1 0xE0 SHL PUSH0 MSTORE MSTORE PUSH1 0x24 PUSH0 REVERT JUMPDEST PUSH1 0x11 DUP4 PUSH4 0x4E487B71 PUSH1 0xE0 SHL PUSH0 MSTORE MSTORE PUSH1 0x24 PUSH0 REVERT JUMPDEST DUP9 DUP2 SSTORE DUP6 PUSH1 0x1 DUP3 ADD SSTORE DUP8 PUSH1 0x2 DUP3 ADD SSTORE PUSH2 0xA2D JUMP JUMPDEST DUP6 MLOAD PUSH3 0x461BCD PUSH1 0xE5 SHL DUP2 MSTORE PUSH1 0x20 DUP2 DUP5 ADD MSTORE PUSH1 0x19 PUSH1 0x24 DUP3 ADD MSTORE PUSH32 0x4461696C792073636F7265206C696D6974207265616368656400000000000000 PUSH1 0x44 DUP3 ADD MSTORE PUSH1 0x64 SWAP1 REVERT JUMPDEST SSTORE PUSH0 PUSH1 0x6 DUP4 ADD SSTORE PUSH0 DUP1 PUSH2 0xA0F JUMP JUMPDEST PUSH1 0xFF NOT AND PUSH1 0x1 OR SWAP1 SSTORE PUSH1 0x8 SLOAD PUSH9 0x10000000000000000 DUP2 LT ISZERO PUSH2 0xB66 JUMPI DUP1 PUSH1 0x1 PUSH2 0xB43 SWAP3 ADD PUSH1 0x8 SSTORE PUSH2 0x1D1A JUMP JUMPDEST DUP2 SLOAD PUSH1 0x1 PUSH1 0x1 PUSH1 0xA0 SHL SUB PUSH1 0x3 SWAP3 SWAP1 SWAP3 SHL SWAP2 DUP3 SHL NOT AND CALLER SWAP1 SWAP2 SHL OR SWAP1 SSTORE PUSH0 DUP1 PUSH2 0xA00 JUMP JUMPDEST PUSH1 0x41 DUP4 PUSH4 0x4E487B71 PUSH1 0xE0 SHL PUSH0 MSTORE MSTORE PUSH1 0x24 PUSH0 REVERT JUMPDEST DUP3 CALLVALUE PUSH2 0x1A1 JUMPI DUP1 PUSH1 0x3 NOT CALLDATASIZE ADD SLT PUSH2 0x1A1 JUMPI PUSH1 0x20 SWAP2 PUSH1 0x1 PUSH1 0x1 PUSH1 0xA0 SHL SUB PUSH2 0xB9D PUSH2 0x1896 JUMP JUMPDEST AND PUSH0 MSTORE DUP3 MSTORE DUP1 PUSH0 KECCAK256 PUSH1 0x24 CALLDATALOAD PUSH0 MSTORE DUP3 MSTORE PUSH1 0xFF DUP2 PUSH0 KECCAK256 SLOAD AND SWAP1 MLOAD SWAP1 ISZERO ISZERO DUP2 MSTORE RETURN JUMPDEST DUP3 CALLVALUE PUSH2 0x1A1 JUMPI PUSH1 0x20 SWAP2 PUSH1 0x3 NOT SWAP2 DUP4 DUP4 CALLDATASIZE ADD SLT PUSH2 0x1A1 JUMPI DUP2 CALLDATALOAD PUSH1 0x1 PUSH1 0x1 PUSH1 0x40 SHL SUB DUP2 GT PUSH2 0x1A1 JUMPI PUSH2 0xBEF SWAP1 CALLDATASIZE SWAP1 DUP5 ADD PUSH2 0x1AE6 JUMP JUMPDEST SWAP1 PUSH0 JUMPDEST DUP3 DUP2 LT PUSH2 0xD78 JUMPI POP PUSH2 0xC03 DUP3 PUSH2 0x1CA3 JUMP JUMPDEST SWAP2 PUSH0 JUMPDEST DUP2 DUP2 LT PUSH2 0xD63 JUMPI POP SWAP1 PUSH2 0xC1A SWAP2 CALLDATASIZE SWAP2 PUSH2 0x19E7 JUMP JUMPDEST SWAP3 DUP3 MLOAD PUSH2 0xC26 DUP2 PUSH2 0x1965 JUMP JUMPDEST PUSH0 DUP2 MSTORE PUSH2 0xC34 CALLER ISZERO ISZERO PUSH2 0x1F50 JUMP JUMPDEST PUSH2 0xC41 DUP6 MLOAD DUP5 MLOAD EQ PUSH2 0x1DC8 JUMP JUMPDEST PUSH0 JUMPDEST DUP6 MLOAD DUP2 LT ISZERO PUSH2 0xC88 JUMPI DUP1 PUSH2 0xC59 PUSH1 0x1 SWAP3 DUP7 PUSH2 0x1CF6 JUMP JUMPDEST MLOAD PUSH2 0xC64 DUP3 DUP10 PUSH2 0x1CF6 JUMP JUMPDEST MLOAD PUSH0 MSTORE PUSH0 DUP11 MSTORE DUP7 PUSH0 KECCAK256 CALLER PUSH0 MSTORE DUP11 MSTORE PUSH2 0xC80 DUP8 PUSH0 KECCAK256 SWAP2 DUP3 SLOAD PUSH2 0x1D4F JUMP JUMPDEST SWAP1 SSTORE ADD PUSH2 0xC43 JUMP JUMPDEST POP SWAP1 SWAP4 SWAP2 DUP7 SWAP6 DUP5 MLOAD PUSH0 CALLER SWAP2 PUSH32 0x4A39DC06D4C0DBC64B70AF90FD698A233A518AA5D07E595D983B8C0526C8F7FB CALLER SWAP2 DUP1 PUSH2 0xCC2 DUP9 DUP12 DUP4 PUSH2 0x1EDE JUMP JUMPDEST SUB SWAP1 LOG4 CALLER EXTCODESIZE PUSH2 0xCCD JUMPI STOP JUMPDEST DUP7 SWAP2 PUSH2 0xD28 PUSH2 0xD19 SWAP3 DUP8 MLOAD SWAP6 DUP7 SWAP5 DUP6 SWAP5 PUSH2 0xD09 PUSH4 0xBC197C81 PUSH1 0xE0 SHL SWAP11 DUP12 DUP9 MSTORE DUP14 CALLER SWAP1 DUP10 ADD MSTORE PUSH0 PUSH1 0x24 DUP10 ADD MSTORE PUSH1 0xA0 PUSH1 0x44 DUP10 ADD MSTORE PUSH1 0xA4 DUP9 ADD SWAP1 PUSH2 0x1AB3 JUMP JUMPDEST SWAP1 DUP5 DUP8 DUP4 SUB ADD PUSH1 0x64 DUP9 ADD MSTORE PUSH2 0x1AB3 JUMP JUMPDEST SWAP2 DUP5 DUP4 SUB ADD PUSH1 0x84 DUP6 ADD MSTORE PUSH2 0x18C2 JUMP JUMPDEST SUB DUP2 PUSH0 CALLER GAS CALL PUSH0 SWAP2 DUP2 PUSH2 0xD44 JUMPI POP PUSH2 0x43D JUMPI POP POP PUSH2 0x3E4 PUSH2 0x200F JUMP JUMPDEST PUSH2 0xD5C SWAP2 SWAP3 POP DUP7 RETURNDATASIZE DUP9 GT PUSH2 0x494 JUMPI PUSH2 0x485 DUP2 DUP4 PUSH2 0x19AF JUMP JUMPDEST SWAP1 DUP7 PUSH2 0x3D5 JUMP JUMPDEST DUP1 PUSH1 0x1 PUSH2 0xD71 DUP2 SWAP4 DUP8 PUSH2 0x1CF6 JUMP JUMPDEST MSTORE ADD PUSH2 0xC06 JUMP JUMPDEST DUP1 PUSH2 0xDAA PUSH2 0xDA4 PUSH2 0xD8C PUSH1 0x1 SWAP5 DUP8 DUP8 PUSH2 0x1D0A JUMP JUMPDEST CALLDATALOAD PUSH2 0xD9E PUSH2 0xD99 DUP3 PUSH2 0x1F03 JUMP JUMPDEST PUSH2 0x1C23 JUMP JUMPDEST CALLER PUSH2 0x1B40 JUMP JUMPDEST ISZERO PUSH2 0x1C65 JUMP JUMPDEST ADD PUSH2 0xBF2 JUMP JUMPDEST SWAP1 POP CALLVALUE PUSH2 0x1A1 JUMPI PUSH0 CALLDATASIZE PUSH1 0x3 NOT ADD SLT PUSH2 0x1A1 JUMPI PUSH1 0x20 SWAP2 MLOAD SWAP1 DUP2 MSTORE RETURN JUMPDEST SWAP1 POP CALLVALUE PUSH2 0x1A1 JUMPI PUSH1 0x60 CALLDATASIZE PUSH1 0x3 NOT ADD SLT PUSH2 0x1A1 JUMPI PUSH2 0xDE6 PUSH2 0x1896 JUMP JUMPDEST SWAP1 PUSH1 0x24 CALLDATALOAD PUSH1 0x1 PUSH1 0x1 PUSH1 0x40 SHL SUB DUP2 GT PUSH2 0x1A1 JUMPI SWAP1 PUSH2 0xE07 DUP5 SWAP3 CALLDATASIZE SWAP1 DUP4 ADD PUSH2 0x1AE6 JUMP JUMPDEST PUSH2 0xE12 SWAP5 SWAP2 SWAP5 PUSH2 0x1B16 JUMP JUMPDEST SWAP3 PUSH2 0xE1B PUSH2 0x1D70 JUMP JUMPDEST PUSH1 0x1 PUSH1 0x1 PUSH1 0xA0 SHL SUB SWAP1 SWAP3 AND SWAP2 DUP4 ISZERO ISZERO PUSH0 JUMPDEST DUP4 DUP2 LT PUSH2 0xE35 JUMPI STOP JUMPDEST DUP1 PUSH2 0xE43 PUSH1 0x1 SWAP3 DUP7 DUP12 PUSH2 0x1D0A JUMP JUMPDEST CALLDATALOAD DUP7 PUSH0 MSTORE DUP7 PUSH32 0x9A91707D0FFD2FEBD948EB104AF3B951795E9395CC97D50AB19776A94F0136DD PUSH1 0x20 DUP8 DUP2 MSTORE DUP12 PUSH0 KECCAK256 DUP5 PUSH0 MSTORE DUP2 MSTORE PUSH2 0xE8E DUP12 DUP14 PUSH0 KECCAK256 SWAP1 PUSH1 0xFF DUP1 NOT DUP4 SLOAD AND SWAP2 ISZERO ISZERO AND OR SWAP1 SSTORE JUMP JUMPDEST DUP12 MLOAD DUP8 DUP2 MSTORE LOG3 ADD PUSH2 0xE2C JUMP JUMPDEST DUP3 CALLVALUE PUSH2 0x1A1 JUMPI DUP1 PUSH1 0x3 NOT CALLDATASIZE ADD SLT PUSH2 0x1A1 JUMPI PUSH1 0x1 PUSH1 0x1 PUSH1 0x40 SHL SUB SWAP2 DUP1 CALLDATALOAD DUP4 DUP2 GT PUSH2 0x1A1 JUMPI CALLDATASIZE PUSH1 0x23 DUP3 ADD SLT ISZERO PUSH2 0x1A1 JUMPI DUP1 DUP3 ADD CALLDATALOAD SWAP4 PUSH2 0xED6 DUP6 PUSH2 0x19D0 JUMP JUMPDEST SWAP2 PUSH2 0xEE3 DUP6 MLOAD SWAP4 DUP5 PUSH2 0x19AF JUMP JUMPDEST DUP6 DUP4 MSTORE PUSH1 0x20 SWAP6 PUSH1 0x24 DUP8 DUP6 ADD SWAP2 PUSH1 0x5 SHL DUP4 ADD ADD SWAP2 CALLDATASIZE DUP4 GT PUSH2 0x1A1 JUMPI PUSH1 0x24 ADD SWAP1 JUMPDEST DUP3 DUP3 LT PUSH2 0xFEB JUMPI POP POP POP PUSH1 0x24 CALLDATALOAD SWAP1 DUP2 GT PUSH2 0x1A1 JUMPI PUSH2 0xF23 SWAP1 CALLDATASIZE SWAP1 DUP5 ADD PUSH2 0x1A35 JUMP JUMPDEST SWAP2 DUP2 MLOAD DUP4 MLOAD SUB PUSH2 0xF96 JUMPI POP PUSH2 0xF38 DUP2 MLOAD PUSH2 0x1CA3 JUMP JUMPDEST SWAP4 PUSH0 JUMPDEST DUP3 MLOAD DUP2 LT ISZERO PUSH2 0xF80 JUMPI PUSH1 0x1 SWAP1 PUSH2 0xF6F PUSH1 0x1 PUSH1 0x1 PUSH1 0xA0 SHL SUB PUSH2 0xF5C DUP4 DUP8 PUSH2 0x1CF6 JUMP JUMPDEST MLOAD AND PUSH2 0xF68 DUP4 DUP9 PUSH2 0x1CF6 JUMP JUMPDEST MLOAD SWAP1 PUSH2 0x1B40 JUMP JUMPDEST PUSH2 0xF79 DUP3 DUP10 PUSH2 0x1CF6 JUMP JUMPDEST MSTORE ADD PUSH2 0xF3B JUMP JUMPDEST DUP5 MLOAD DUP3 DUP2 MSTORE DUP1 PUSH2 0xF92 DUP2 DUP6 ADD DUP10 PUSH2 0x1AB3 JUMP JUMPDEST SUB SWAP1 RETURN JUMPDEST DUP4 MLOAD PUSH3 0x461BCD PUSH1 0xE5 SHL DUP2 MSTORE SWAP1 DUP2 ADD DUP6 SWAP1 MSTORE PUSH1 0x29 PUSH1 0x24 DUP3 ADD MSTORE PUSH32 0x455243313135353A206163636F756E747320616E6420696473206C656E677468 PUSH1 0x44 DUP3 ADD MSTORE PUSH9 0x40DAD2E6DAC2E8C6D PUSH1 0xBB SHL PUSH1 0x64 DUP3 ADD MSTORE PUSH1 0x84 SWAP1 REVERT JUMPDEST DUP2 CALLDATALOAD PUSH1 0x1 PUSH1 0x1 PUSH1 0xA0 SHL SUB DUP2 AND DUP2 SUB PUSH2 0x1A1 JUMPI DUP2 MSTORE SWAP1 DUP8 ADD SWAP1 DUP8 ADD PUSH2 0xF02 JUMP JUMPDEST SWAP1 POP CALLVALUE PUSH2 0x1A1 JUMPI PUSH1 0x20 SWAP1 DUP2 PUSH1 0x3 NOT CALLDATASIZE ADD SLT PUSH2 0x1A1 JUMPI DUP1 CALLDATALOAD SWAP3 PUSH2 0x102E PUSH2 0xD99 DUP6 PUSH2 0x1F03 JUMP JUMPDEST PUSH2 0x103B PUSH2 0xDA4 DUP6 CALLER PUSH2 0x1B40 JUMP JUMPDEST DUP1 MLOAD PUSH2 0x1046 DUP2 PUSH2 0x1965 JUMP JUMPDEST PUSH0 DUP2 MSTORE PUSH2 0x1054 CALLER ISZERO ISZERO PUSH2 0x1F50 JUMP JUMPDEST PUSH2 0x105D DUP6 PUSH2 0x20EC JUMP JUMPDEST POP PUSH1 0x1 PUSH2 0x107C DUP4 MLOAD PUSH2 0x106E DUP2 PUSH2 0x1994 JUMP JUMPDEST DUP3 DUP2 MSTORE DUP7 CALLDATASIZE DUP2 DUP4 ADD CALLDATACOPY PUSH2 0x1CD5 JUMP JUMPDEST MSTORE DUP5 PUSH0 MSTORE PUSH0 DUP5 MSTORE DUP2 PUSH0 KECCAK256 CALLER PUSH0 MSTORE DUP5 MSTORE DUP2 PUSH0 KECCAK256 DUP1 SLOAD SWAP1 PUSH1 0x1 DUP3 ADD DUP1 SWAP3 GT PUSH2 0x11B5 JUMPI SSTORE DUP2 MLOAD DUP6 DUP2 MSTORE PUSH1 0x1 DUP6 DUP3 ADD MSTORE PUSH0 CALLER SWAP2 PUSH32 0xC3D58168C5AE7397731D063D5BBF3D657854427343F4C083240F7AACAA2D0F62 DUP6 CALLER SWAP3 LOG4 CALLER EXTCODESIZE PUSH2 0x10FF JUMPI JUMPDEST DUP5 CALLER PUSH32 0x4844D30B922FFC2B845400EB2A15CDD62742176C723E09D7CC9703E83645E4B PUSH0 DUP1 LOG3 STOP JUMPDEST DUP2 SWAP3 SWAP4 SWAP5 SWAP2 MLOAD DUP6 DUP2 DUP1 PUSH2 0x1140 PUSH4 0xF23A6E61 PUSH1 0xE0 SHL SWAP6 DUP7 DUP4 MSTORE CALLER DUP11 DUP5 ADD MSTORE PUSH0 PUSH1 0x24 DUP5 ADD MSTORE DUP8 PUSH1 0x44 DUP5 ADD MSTORE PUSH1 0x1 PUSH1 0x64 DUP5 ADD MSTORE PUSH1 0xA0 PUSH1 0x84 DUP5 ADD MSTORE PUSH1 0xA4 DUP4 ADD SWAP1 PUSH2 0x18C2 JUMP JUMPDEST SUB DUP2 PUSH0 CALLER GAS CALL PUSH0 SWAP2 DUP2 PUSH2 0x1196 JUMPI JUMPDEST POP PUSH2 0x115E JUMPI POP POP POP PUSH2 0x3E4 PUSH2 0x200F JUMP JUMPDEST SWAP2 SWAP5 POP PUSH1 0x1 PUSH1 0x1 PUSH1 0xE0 SHL SUB NOT SWAP1 SWAP2 AND SUB PUSH2 0x117D JUMPI POP POP PUSH0 DUP1 DUP1 DUP1 PUSH2 0x10D7 JUMP JUMPDEST MLOAD PUSH3 0x461BCD PUSH1 0xE5 SHL DUP2 MSTORE SWAP2 POP DUP2 SWAP1 PUSH2 0x408 SWAP1 DUP3 ADD PUSH2 0x1FC6 JUMP JUMPDEST PUSH2 0x11AE SWAP2 SWAP3 POP DUP8 RETURNDATASIZE DUP10 GT PUSH2 0x494 JUMPI PUSH2 0x485 DUP2 DUP4 PUSH2 0x19AF JUMP JUMPDEST SWAP1 PUSH0 PUSH2 0x114E JUMP JUMPDEST PUSH1 0x11 DUP6 PUSH4 0x4E487B71 PUSH1 0xE0 SHL PUSH0 MSTORE MSTORE PUSH1 0x24 PUSH0 REVERT JUMPDEST DUP3 CALLVALUE PUSH2 0x1A1 JUMPI PUSH0 CALLDATASIZE PUSH1 0x3 NOT ADD SLT PUSH2 0x1A1 JUMPI PUSH1 0x20 SWAP1 PUSH1 0x8 SLOAD SWAP1 MLOAD SWAP1 DUP2 MSTORE RETURN JUMPDEST SWAP1 POP CALLVALUE PUSH2 0x1A1 JUMPI PUSH1 0x3 NOT SWAP1 PUSH1 0xA0 CALLDATASIZE DUP4 ADD SLT PUSH2 0x1A1 JUMPI PUSH2 0x1203 PUSH2 0x1896 JUMP JUMPDEST SWAP2 PUSH2 0x120C PUSH2 0x18AC JUMP JUMPDEST SWAP3 PUSH1 0x1 PUSH1 0x1 PUSH1 0x40 SHL SUB SWAP3 PUSH1 0x44 CALLDATALOAD DUP5 DUP2 GT PUSH2 0x1A1 JUMPI PUSH2 0x122D SWAP1 CALLDATASIZE SWAP1 DUP4 ADD PUSH2 0x1A35 JUMP JUMPDEST SWAP1 PUSH1 0x64 CALLDATALOAD DUP6 DUP2 GT PUSH2 0x1A1 JUMPI PUSH2 0x1245 SWAP1 CALLDATASIZE SWAP1 DUP4 ADD PUSH2 0x1A35 JUMP JUMPDEST SWAP5 PUSH1 0x84 CALLDATALOAD SWAP1 DUP2 GT PUSH2 0x1A1 JUMPI PUSH2 0x125D SWAP1 CALLDATASIZE SWAP1 DUP4 ADD PUSH2 0x1A98 JUMP JUMPDEST SWAP4 PUSH1 0x1 PUSH1 0x1 PUSH1 0xA0 SHL SUB SWAP4 DUP5 AND SWAP4 CALLER DUP6 EQ DUP1 ISZERO PUSH2 0x145D JUMPI JUMPDEST PUSH2 0x127D SWAP1 PUSH2 0x1BC0 JUMP JUMPDEST PUSH2 0x128A DUP5 MLOAD DUP9 MLOAD EQ PUSH2 0x1DC8 JUMP JUMPDEST DUP8 AND SWAP5 PUSH2 0x1298 DUP7 ISZERO ISZERO PUSH2 0x1E25 JUMP JUMPDEST PUSH0 JUMPDEST DUP5 MLOAD DUP2 LT ISZERO PUSH2 0x1316 JUMPI DUP1 PUSH2 0x12B0 PUSH1 0x1 SWAP3 DUP8 PUSH2 0x1CF6 JUMP JUMPDEST MLOAD PUSH2 0x12BB DUP3 DUP12 PUSH2 0x1CF6 JUMP JUMPDEST MLOAD SWAP1 DUP1 PUSH0 MSTORE PUSH1 0x20 SWAP1 PUSH0 DUP3 MSTORE DUP14 PUSH0 KECCAK256 DUP11 PUSH0 MSTORE DUP3 MSTORE DUP14 DUP4 DUP2 PUSH0 KECCAK256 SLOAD PUSH2 0x12E0 DUP3 DUP3 LT ISZERO PUSH2 0x1E7F JUMP JUMPDEST DUP4 PUSH0 MSTORE PUSH0 DUP6 MSTORE DUP3 PUSH0 KECCAK256 DUP14 PUSH0 MSTORE DUP6 MSTORE SUB SWAP1 PUSH0 KECCAK256 SSTORE PUSH0 MSTORE PUSH0 DUP2 MSTORE DUP13 PUSH0 KECCAK256 SWAP1 DUP11 PUSH0 MSTORE MSTORE PUSH2 0x130E DUP13 PUSH0 KECCAK256 SWAP2 DUP3 SLOAD PUSH2 0x1D4F JUMP JUMPDEST SWAP1 SSTORE ADD PUSH2 0x129A JUMP JUMPDEST POP SWAP1 SWAP5 SWAP4 SWAP6 SWAP3 SWAP2 SWAP7 DUP5 DUP8 DUP11 MLOAD PUSH32 0x4A39DC06D4C0DBC64B70AF90FD698A233A518AA5D07E595D983B8C0526C8F7FB CALLER SWAP2 DUP1 PUSH2 0x1351 DUP11 DUP11 DUP4 PUSH2 0x1EDE JUMP JUMPDEST SUB SWAP1 LOG4 EXTCODESIZE PUSH2 0x135B JUMPI STOP JUMPDEST DUP8 MLOAD SWAP5 DUP6 SWAP4 DUP5 SWAP4 PUSH4 0xBC197C81 PUSH1 0xE0 SHL SWAP9 DUP10 DUP7 MSTORE CALLER DUP12 DUP8 ADD MSTORE PUSH1 0x24 DUP7 ADD MSTORE PUSH1 0x44 DUP6 ADD PUSH1 0xA0 SWAP1 MSTORE PUSH1 0xA4 DUP6 ADD PUSH2 0x138D SWAP2 PUSH2 0x1AB3 JUMP JUMPDEST DUP3 DUP6 DUP3 SUB ADD PUSH1 0x64 DUP7 ADD MSTORE PUSH2 0x13A0 SWAP2 PUSH2 0x1AB3 JUMP JUMPDEST SWAP1 DUP4 DUP3 SUB ADD PUSH1 0x84 DUP5 ADD MSTORE PUSH2 0x13B3 SWAP2 PUSH2 0x18C2 JUMP JUMPDEST SUB DUP2 GAS PUSH1 0x20 SWAP5 PUSH0 SWAP2 CALL PUSH0 SWAP2 DUP2 PUSH2 0x143C JUMPI JUMPDEST POP PUSH2 0x142B JUMPI POP POP PUSH2 0x13D3 PUSH2 0x200F JUMP JUMPDEST PUSH4 0x8C379A0 EQ PUSH2 0x13F7 JUMPI JUMPDEST SWAP1 MLOAD PUSH3 0x461BCD PUSH1 0xE5 SHL DUP2 MSTORE SWAP1 DUP2 SWAP1 PUSH2 0x408 SWAP1 DUP3 ADD PUSH2 0x2097 JUMP JUMPDEST PUSH2 0x13FF PUSH2 0x202A JUMP JUMPDEST DUP1 PUSH2 0x140A JUMPI POP PUSH2 0x13DE JUMP JUMPDEST PUSH2 0x408 SWAP1 PUSH1 0x20 SWAP4 MLOAD SWAP4 DUP5 SWAP4 PUSH3 0x461BCD PUSH1 0xE5 SHL DUP6 MSTORE DUP5 ADD MSTORE PUSH1 0x24 DUP4 ADD SWAP1 PUSH2 0x18C2 JUMP JUMPDEST PUSH1 0x1 PUSH1 0x1 PUSH1 0xE0 SHL SUB NOT AND SUB PUSH2 0x453 JUMPI STOP JUMPDEST PUSH2 0x1456 SWAP2 SWAP3 POP PUSH1 0x20 RETURNDATASIZE PUSH1 0x20 GT PUSH2 0x494 JUMPI PUSH2 0x485 DUP2 DUP4 PUSH2 0x19AF JUMP JUMPDEST SWAP1 PUSH0 PUSH2 0x13C4 JUMP JUMPDEST POP DUP5 PUSH0 MSTORE PUSH1 0x1 PUSH1 0x20 MSTORE DUP9 PUSH0 KECCAK256 CALLER PUSH0 MSTORE PUSH1 0x20 MSTORE PUSH2 0x127D PUSH1 0xFF DUP11 PUSH0 KECCAK256 SLOAD AND SWAP1 POP PUSH2 0x1274 JUMP JUMPDEST DUP3 CALLVALUE PUSH2 0x1A1 JUMPI PUSH0 CALLDATASIZE PUSH1 0x3 NOT ADD SLT PUSH2 0x1A1 JUMPI PUSH1 0x20 SWAP1 MLOAD PUSH1 0x2 DUP2 MSTORE RETURN JUMPDEST SWAP1 POP CALLVALUE PUSH2 0x1A1 JUMPI PUSH1 0x20 SWAP1 DUP2 PUSH1 0x3 NOT CALLDATASIZE ADD SLT PUSH2 0x1A1 JUMPI CALLDATALOAD PUSH0 MSTORE PUSH1 0x5 DUP2 MSTORE DUP2 PUSH0 KECCAK256 SWAP2 DUP1 MLOAD DUP1 SWAP4 PUSH0 SWAP1 DUP1 SLOAD PUSH2 0x14CC DUP2 PUSH2 0x192D JUMP JUMPDEST SWAP2 DUP3 DUP6 MSTORE PUSH1 0x1 SWAP2 DUP8 PUSH1 0x1 DUP3 AND SWAP2 DUP3 PUSH0 EQ PUSH2 0x154C JUMPI POP POP PUSH1 0x1 EQ PUSH2 0x150C JUMPI JUMPDEST POP POP POP PUSH2 0xF92 SWAP3 SWAP2 PUSH2 0x14FD SWAP2 SUB DUP6 PUSH2 0x19AF JUMP JUMPDEST MLOAD SWAP3 DUP3 DUP5 SWAP4 DUP5 MSTORE DUP4 ADD SWAP1 PUSH2 0x18C2 JUMP JUMPDEST DUP7 SWAP4 POP PUSH0 SWAP3 SWAP2 SWAP3 MSTORE DUP3 PUSH0 KECCAK256 SWAP2 PUSH0 SWAP3 JUMPDEST DUP3 DUP5 LT PUSH2 0x1534 JUMPI POP POP POP DUP3 ADD ADD DUP2 PUSH2 0x14FD PUSH2 0xF92 PUSH2 0x14EA JUMP JUMPDEST DUP1 SLOAD DUP5 DUP11 ADD DUP7 ADD MSTORE DUP9 SWAP6 POP DUP8 SWAP5 SWAP1 SWAP4 ADD SWAP3 DUP2 ADD PUSH2 0x151B JUMP JUMPDEST PUSH1 0xFF NOT AND DUP8 DUP3 ADD MSTORE SWAP4 ISZERO ISZERO PUSH1 0x5 SHL DUP7 ADD SWAP1 SWAP4 ADD SWAP4 POP DUP5 SWAP3 POP PUSH2 0x14FD SWAP2 POP PUSH2 0xF92 SWAP1 POP PUSH2 0x14EA JUMP JUMPDEST DUP3 CALLVALUE PUSH2 0x1A1 JUMPI DUP1 PUSH1 0x3 NOT CALLDATASIZE ADD SLT PUSH2 0x1A1 JUMPI DUP2 CALLDATALOAD SWAP1 PUSH1 0x1 PUSH1 0x1 PUSH1 0x40 SHL SUB SWAP1 PUSH1 0x24 CALLDATALOAD DUP3 DUP2 GT PUSH2 0x1A1 JUMPI PUSH2 0x15A7 SWAP1 CALLDATASIZE SWAP1 DUP7 ADD PUSH2 0x1900 JUMP JUMPDEST SWAP3 PUSH2 0x15B0 PUSH2 0x1D70 JUMP JUMPDEST DUP5 PUSH0 MSTORE PUSH1 0x20 SWAP6 PUSH1 0x5 DUP8 MSTORE DUP4 PUSH0 KECCAK256 SWAP2 DUP6 GT PUSH2 0x927 JUMPI POP PUSH2 0x15CF DUP2 SLOAD PUSH2 0x192D JUMP JUMPDEST PUSH1 0x1F DUP2 GT PUSH2 0x16E7 JUMPI JUMPDEST POP PUSH0 PUSH1 0x1F DUP6 GT PUSH1 0x1 EQ PUSH2 0x165F JUMPI PUSH32 0xF1C7B1B56D5D626AF1E77ABEAD63B7D49ACE9E5819EE9A93FF02E02D9DA3271 SWAP6 SWAP7 SWAP3 DUP6 SWAP3 PUSH2 0x162C DUP5 DUP1 DUP1 SWAP6 PUSH0 SWAP2 PUSH2 0x1654 JUMPI JUMPDEST POP DUP2 PUSH1 0x1 SHL SWAP2 PUSH0 NOT SWAP1 PUSH1 0x3 SHL SHR NOT AND OR SWAP1 JUMP JUMPDEST SWAP1 SSTORE JUMPDEST DUP5 MLOAD SWAP6 DUP5 DUP8 SWAP6 DUP7 MSTORE DUP6 ADD MSTORE DUP5 DUP5 ADD CALLDATACOPY PUSH0 DUP3 DUP3 ADD DUP5 ADD MSTORE PUSH1 0x1F ADD PUSH1 0x1F NOT AND DUP2 ADD SUB ADD SWAP1 LOG2 STOP JUMPDEST SWAP1 POP DUP5 ADD CALLDATALOAD DUP13 PUSH2 0x1619 JUMP JUMPDEST PUSH1 0x1F NOT DUP6 AND SWAP1 DUP3 PUSH0 MSTORE DUP8 PUSH0 KECCAK256 SWAP2 PUSH0 JUMPDEST DUP2 DUP2 LT PUSH2 0x16D0 JUMPI POP SWAP3 DUP7 SWAP4 SWAP3 PUSH32 0xF1C7B1B56D5D626AF1E77ABEAD63B7D49ACE9E5819EE9A93FF02E02D9DA3271 SWAP9 SWAP10 SWAP6 SWAP3 DUP6 DUP1 SWAP6 LT PUSH2 0x16B7 JUMPI JUMPDEST POP POP PUSH1 0x1 DUP4 DUP2 SHL ADD SWAP1 SSTORE PUSH2 0x162F JUMP JUMPDEST DUP4 ADD CALLDATALOAD PUSH0 NOT PUSH1 0x3 DUP7 SWAP1 SHL PUSH1 0xF8 AND SHR NOT AND SWAP1 SSTORE DUP10 DUP1 PUSH2 0x16A8 JUMP JUMPDEST SWAP2 SWAP3 DUP10 PUSH1 0x1 DUP2 SWAP3 DUP7 DUP10 ADD CALLDATALOAD DUP2 SSTORE ADD SWAP5 ADD SWAP3 ADD PUSH2 0x166E JUMP JUMPDEST DUP2 PUSH0 MSTORE DUP7 PUSH0 KECCAK256 PUSH1 0x1F DUP7 ADD PUSH1 0x5 SHR DUP2 ADD SWAP2 DUP9 DUP8 LT PUSH2 0x1720 JUMPI JUMPDEST PUSH1 0x1F ADD PUSH1 0x5 SHR ADD SWAP1 JUMPDEST DUP2 DUP2 LT PUSH2 0x1715 JUMPI POP PUSH2 0x15D8 JUMP JUMPDEST PUSH0 DUP2 SSTORE PUSH1 0x1 ADD PUSH2 0x1708 JUMP JUMPDEST SWAP1 SWAP2 POP DUP2 SWAP1 PUSH2 0x16FF JUMP JUMPDEST DUP3 CALLVALUE PUSH2 0x1A1 JUMPI PUSH1 0x20 DUP1 PUSH1 0x3 NOT CALLDATASIZE ADD SLT PUSH2 0x1A1 JUMPI DUP2 MLOAD SWAP2 DUP3 PUSH0 PUSH1 0x2 SLOAD PUSH2 0x174E DUP2 PUSH2 0x192D JUMP JUMPDEST SWAP1 DUP2 DUP5 MSTORE PUSH1 0x1 SWAP1 DUP7 PUSH1 0x1 DUP3 AND SWAP2 DUP3 PUSH0 EQ PUSH2 0x17D9 JUMPI POP POP PUSH1 0x1 EQ PUSH2 0x177E JUMPI JUMPDEST POP POP PUSH2 0xF92 SWAP3 SWAP2 PUSH2 0x14FD SWAP2 SUB DUP6 PUSH2 0x19AF JUMP JUMPDEST SWAP1 DUP6 SWAP3 POP PUSH1 0x2 PUSH0 MSTORE PUSH32 0x405787FA12A823E0F2B7631CC41B3BA8828B3321CA811111FA75CD3AA3BB5ACE SWAP2 PUSH0 SWAP3 JUMPDEST DUP3 DUP5 LT PUSH2 0x17C1 JUMPI POP POP POP DUP3 ADD ADD DUP2 PUSH2 0x14FD PUSH2 0x176C JUMP JUMPDEST DUP1 SLOAD DUP5 DUP11 ADD DUP7 ADD MSTORE DUP9 SWAP6 POP DUP8 SWAP5 SWAP1 SWAP4 ADD SWAP3 DUP2 ADD PUSH2 0x17AB JUMP JUMPDEST PUSH1 0xFF NOT AND DUP7 DUP3 ADD MSTORE SWAP3 ISZERO ISZERO PUSH1 0x5 SHL DUP6 ADD SWAP1 SWAP3 ADD SWAP3 POP DUP4 SWAP2 POP PUSH2 0x14FD SWAP1 POP PUSH2 0x176C JUMP JUMPDEST SWAP1 POP CALLVALUE PUSH2 0x1A1 JUMPI PUSH1 0x20 CALLDATASIZE PUSH1 0x3 NOT ADD SLT PUSH2 0x1A1 JUMPI CALLDATALOAD PUSH4 0xFFFFFFFF PUSH1 0xE0 SHL DUP2 AND DUP1 SWAP2 SUB PUSH2 0x1A1 JUMPI PUSH1 0x20 SWAP2 PUSH4 0x6CDB3D13 PUSH1 0xE1 SHL DUP3 EQ SWAP2 DUP3 ISZERO PUSH2 0x1856 JUMPI JUMPDEST DUP3 ISZERO PUSH2 0x1845 JUMPI JUMPDEST POP MLOAD SWAP1 ISZERO ISZERO DUP2 MSTORE RETURN JUMPDEST PUSH4 0x1FFC9A7 PUSH1 0xE0 SHL EQ SWAP2 POP PUSH0 PUSH2 0x183C JUMP JUMPDEST PUSH4 0x3A24D07 PUSH1 0xE2 SHL DUP2 EQ SWAP3 POP PUSH2 0x1835 JUMP JUMPDEST DUP3 CALLVALUE PUSH2 0x1A1 JUMPI DUP1 PUSH1 0x3 NOT CALLDATASIZE ADD SLT PUSH2 0x1A1 JUMPI PUSH1 0x20 SWAP1 PUSH2 0x188F PUSH2 0x1886 PUSH2 0x1896 JUMP JUMPDEST PUSH1 0x24 CALLDATALOAD SWAP1 PUSH2 0x1B40 JUMP JUMPDEST SWAP1 MLOAD SWAP1 DUP2 MSTORE RETURN JUMPDEST PUSH1 0x4 CALLDATALOAD SWAP1 PUSH1 0x1 PUSH1 0x1 PUSH1 0xA0 SHL SUB DUP3 AND DUP3 SUB PUSH2 0x1A1 JUMPI JUMP JUMPDEST PUSH1 0x24 CALLDATALOAD SWAP1 PUSH1 0x1 PUSH1 0x1 PUSH1 0xA0 SHL SUB DUP3 AND DUP3 SUB PUSH2 0x1A1 JUMPI JUMP JUMPDEST SWAP2 SWAP1 DUP3 MLOAD SWAP3 DUP4 DUP3 MSTORE PUSH0 JUMPDEST DUP5 DUP2 LT PUSH2 0x18EC JUMPI POP POP DUP3 PUSH0 PUSH1 0x20 DUP1 SWAP5 SWAP6 DUP5 ADD ADD MSTORE PUSH1 0x1F DUP1 NOT SWAP2 ADD AND ADD ADD SWAP1 JUMP JUMPDEST PUSH1 0x20 DUP2 DUP4 ADD DUP2 ADD MLOAD DUP5 DUP4 ADD DUP3 ADD MSTORE ADD PUSH2 0x18CC JUMP JUMPDEST SWAP2 DUP2 PUSH1 0x1F DUP5 ADD SLT ISZERO PUSH2 0x1A1 JUMPI DUP3 CALLDATALOAD SWAP2 PUSH1 0x1 PUSH1 0x1 PUSH1 0x40 SHL SUB DUP4 GT PUSH2 0x1A1 JUMPI PUSH1 0x20 DUP4 DUP2 DUP7 ADD SWAP6 ADD ADD GT PUSH2 0x1A1 JUMPI JUMP JUMPDEST SWAP1 PUSH1 0x1 DUP3 DUP2 SHR SWAP3 AND DUP1 ISZERO PUSH2 0x195B JUMPI JUMPDEST PUSH1 0x20 DUP4 LT EQ PUSH2 0x1947 JUMPI JUMP JUMPDEST PUSH4 0x4E487B71 PUSH1 0xE0 SHL PUSH0 MSTORE PUSH1 0x22 PUSH1 0x4 MSTORE PUSH1 0x24 PUSH0 REVERT JUMPDEST SWAP2 PUSH1 0x7F AND SWAP2 PUSH2 0x193C JUMP JUMPDEST PUSH1 0x20 DUP2 ADD SWAP1 DUP2 LT PUSH1 0x1 PUSH1 0x1 PUSH1 0x40 SHL SUB DUP3 GT OR PUSH2 0x1980 JUMPI PUSH1 0x40 MSTORE JUMP JUMPDEST PUSH4 0x4E487B71 PUSH1 0xE0 SHL PUSH0 MSTORE PUSH1 0x41 PUSH1 0x4 MSTORE PUSH1 0x24 PUSH0 REVERT JUMPDEST PUSH1 0x40 DUP2 ADD SWAP1 DUP2 LT PUSH1 0x1 PUSH1 0x1 PUSH1 0x40 SHL SUB DUP3 GT OR PUSH2 0x1980 JUMPI PUSH1 0x40 MSTORE JUMP JUMPDEST SWAP1 PUSH1 0x1F DUP1 NOT SWAP2 ADD AND DUP2 ADD SWAP1 DUP2 LT PUSH1 0x1 PUSH1 0x1 PUSH1 0x40 SHL SUB DUP3 GT OR PUSH2 0x1980 JUMPI PUSH1 0x40 MSTORE JUMP JUMPDEST PUSH1 0x1 PUSH1 0x1 PUSH1 0x40 SHL SUB DUP2 GT PUSH2 0x1980 JUMPI PUSH1 0x5 SHL PUSH1 0x20 ADD SWAP1 JUMP JUMPDEST SWAP3 SWAP2 PUSH2 0x19F2 DUP3 PUSH2 0x19D0 JUMP JUMPDEST SWAP2 PUSH2 0x1A00 PUSH1 0x40 MLOAD SWAP4 DUP5 PUSH2 0x19AF JUMP JUMPDEST DUP3 SWAP5 DUP2 DUP5 MSTORE PUSH1 0x20 DUP1 SWAP5 ADD SWAP2 PUSH1 0x5 SHL DUP2 ADD SWAP3 DUP4 GT PUSH2 0x1A1 JUMPI SWAP1 JUMPDEST DUP3 DUP3 LT PUSH2 0x1A26 JUMPI POP POP POP POP JUMP JUMPDEST DUP2 CALLDATALOAD DUP2 MSTORE SWAP1 DUP4 ADD SWAP1 DUP4 ADD PUSH2 0x1A19 JUMP JUMPDEST SWAP1 DUP1 PUSH1 0x1F DUP4 ADD SLT ISZERO PUSH2 0x1A1 JUMPI DUP2 PUSH1 0x20 PUSH2 0x1A50 SWAP4 CALLDATALOAD SWAP2 ADD PUSH2 0x19E7 JUMP JUMPDEST SWAP1 JUMP JUMPDEST SWAP3 SWAP2 SWAP3 PUSH1 0x1 PUSH1 0x1 PUSH1 0x40 SHL SUB DUP3 GT PUSH2 0x1980 JUMPI PUSH1 0x40 MLOAD SWAP2 PUSH2 0x1A7C PUSH1 0x1F DUP3 ADD PUSH1 0x1F NOT AND PUSH1 0x20 ADD DUP5 PUSH2 0x19AF JUMP JUMPDEST DUP3 SWAP5 DUP2 DUP5 MSTORE DUP2 DUP4 ADD GT PUSH2 0x1A1 JUMPI DUP3 DUP2 PUSH1 0x20 SWAP4 DUP5 PUSH0 SWAP7 ADD CALLDATACOPY ADD ADD MSTORE JUMP JUMPDEST SWAP1 DUP1 PUSH1 0x1F DUP4 ADD SLT ISZERO PUSH2 0x1A1 JUMPI DUP2 PUSH1 0x20 PUSH2 0x1A50 SWAP4 CALLDATALOAD SWAP2 ADD PUSH2 0x1A53 JUMP JUMPDEST SWAP1 DUP2 MLOAD DUP1 DUP3 MSTORE PUSH1 0x20 DUP1 DUP1 SWAP4 ADD SWAP4 ADD SWAP2 PUSH0 JUMPDEST DUP3 DUP2 LT PUSH2 0x1AD2 JUMPI POP POP POP POP SWAP1 JUMP JUMPDEST DUP4 MLOAD DUP6 MSTORE SWAP4 DUP2 ADD SWAP4 SWAP3 DUP2 ADD SWAP3 PUSH1 0x1 ADD PUSH2 0x1AC4 JUMP JUMPDEST SWAP2 DUP2 PUSH1 0x1F DUP5 ADD SLT ISZERO PUSH2 0x1A1 JUMPI DUP3 CALLDATALOAD SWAP2 PUSH1 0x1 PUSH1 0x1 PUSH1 0x40 SHL SUB DUP4 GT PUSH2 0x1A1 JUMPI PUSH1 0x20 DUP1 DUP6 ADD SWAP5 DUP5 PUSH1 0x5 SHL ADD ADD GT PUSH2 0x1A1 JUMPI JUMP JUMPDEST PUSH1 0x44 CALLDATALOAD SWAP1 DUP2 ISZERO ISZERO DUP3 SUB PUSH2 0x1A1 JUMPI JUMP JUMPDEST CALLVALUE PUSH2 0x1A1 JUMPI PUSH0 CALLDATASIZE PUSH1 0x3 NOT ADD SLT PUSH2 0x1A1 JUMPI PUSH1 0x20 PUSH1 0x40 MLOAD PUSH1 0x3 DUP2 MSTORE RETURN JUMPDEST PUSH1 0x1 PUSH1 0x1 PUSH1 0xA0 SHL SUB AND SWAP1 DUP2 ISZERO PUSH2 0x1B68 JUMPI PUSH0 MSTORE PUSH0 PUSH1 0x20 MSTORE PUSH1 0x40 PUSH0 KECCAK256 SWAP1 PUSH0 MSTORE PUSH1 0x20 MSTORE PUSH1 0x40 PUSH0 KECCAK256 SLOAD SWAP1 JUMP JUMPDEST PUSH1 0x40 MLOAD PUSH3 0x461BCD PUSH1 0xE5 SHL DUP2 MSTORE PUSH1 0x20 PUSH1 0x4 DUP3 ADD MSTORE PUSH1 0x2A PUSH1 0x24 DUP3 ADD MSTORE PUSH32 0x455243313135353A2061646472657373207A65726F206973206E6F7420612076 PUSH1 0x44 DUP3 ADD MSTORE PUSH10 0x30B634B21037BBB732B9 PUSH1 0xB1 SHL PUSH1 0x64 DUP3 ADD MSTORE PUSH1 0x84 SWAP1 REVERT JUMPDEST ISZERO PUSH2 0x1BC7 JUMPI JUMP JUMPDEST PUSH1 0x40 MLOAD PUSH3 0x461BCD PUSH1 0xE5 SHL DUP2 MSTORE PUSH1 0x20 PUSH1 0x4 DUP3 ADD MSTORE PUSH1 0x2E PUSH1 0x24 DUP3 ADD MSTORE PUSH32 0x455243313135353A2063616C6C6572206973206E6F7420746F6B656E206F776E PUSH1 0x44 DUP3 ADD MSTORE PUSH14 0x195C881BDC88185C1C1C9BDD9959 PUSH1 0x92 SHL PUSH1 0x64 DUP3 ADD MSTORE PUSH1 0x84 SWAP1 REVERT JUMPDEST ISZERO PUSH2 0x1C2A JUMPI JUMP JUMPDEST PUSH1 0x40 MLOAD PUSH3 0x461BCD PUSH1 0xE5 SHL DUP2 MSTORE PUSH1 0x20 PUSH1 0x4 DUP3 ADD MSTORE PUSH1 0x13 PUSH1 0x24 DUP3 ADD MSTORE PUSH19 0x125B9D985B1A59081858DA1A595D995B595B9D PUSH1 0x6A SHL PUSH1 0x44 DUP3 ADD MSTORE PUSH1 0x64 SWAP1 REVERT JUMPDEST ISZERO PUSH2 0x1C6C JUMPI JUMP JUMPDEST PUSH1 0x40 MLOAD PUSH3 0x461BCD PUSH1 0xE5 SHL DUP2 MSTORE PUSH1 0x20 PUSH1 0x4 DUP3 ADD MSTORE PUSH1 0xF PUSH1 0x24 DUP3 ADD MSTORE PUSH15 0x105B1C9958591E4818DB185A5B5959 PUSH1 0x8A SHL PUSH1 0x44 DUP3 ADD MSTORE PUSH1 0x64 SWAP1 REVERT JUMPDEST SWAP1 PUSH2 0x1CAD DUP3 PUSH2 0x19D0 JUMP JUMPDEST PUSH2 0x1CBA PUSH1 0x40 MLOAD SWAP2 DUP3 PUSH2 0x19AF JUMP JUMPDEST DUP3 DUP2 MSTORE DUP1 SWAP3 PUSH2 0x1CCB PUSH1 0x1F NOT SWAP2 PUSH2 0x19D0 JUMP JUMPDEST ADD SWAP1 PUSH1 0x20 CALLDATASIZE SWAP2 ADD CALLDATACOPY JUMP JUMPDEST DUP1 MLOAD ISZERO PUSH2 0x1CE2 JUMPI PUSH1 0x20 ADD SWAP1 JUMP JUMPDEST PUSH4 0x4E487B71 PUSH1 0xE0 SHL PUSH0 MSTORE PUSH1 0x32 PUSH1 0x4 MSTORE PUSH1 0x24 PUSH0 REVERT JUMPDEST DUP1 MLOAD DUP3 LT ISZERO PUSH2 0x1CE2 JUMPI PUSH1 0x20 SWAP2 PUSH1 0x5 SHL ADD ADD SWAP1 JUMP JUMPDEST SWAP2 SWAP1 DUP2 LT ISZERO PUSH2 0x1CE2 JUMPI PUSH1 0x5 SHL ADD SWAP1 JUMP JUMPDEST PUSH1 0x8 SLOAD DUP2 LT ISZERO PUSH2 0x1CE2 JUMPI PUSH1 0x8 PUSH0 MSTORE PUSH32 0xF3F7A9FE364FAAB93B216DA50A3214154F22A0A2B415B23A84C8169E8B636EE3 ADD SWAP1 PUSH0 SWAP1 JUMP JUMPDEST SWAP2 SWAP1 DUP3 ADD DUP1 SWAP3 GT PUSH2 0x1D5C JUMPI JUMP JUMPDEST PUSH4 0x4E487B71 PUSH1 0xE0 SHL PUSH0 MSTORE PUSH1 0x11 PUSH1 0x4 MSTORE PUSH1 0x24 PUSH0 REVERT JUMPDEST PUSH1 0x3 SLOAD PUSH1 0x1 PUSH1 0x1 PUSH1 0xA0 SHL SUB AND CALLER SUB PUSH2 0x1D84 JUMPI JUMP JUMPDEST PUSH1 0x64 PUSH1 0x40 MLOAD PUSH3 0x461BCD PUSH1 0xE5 SHL DUP2 MSTORE PUSH1 0x20 PUSH1 0x4 DUP3 ADD MSTORE PUSH1 0x20 PUSH1 0x24 DUP3 ADD MSTORE PUSH32 0x4F776E61626C653A2063616C6C6572206973206E6F7420746865206F776E6572 PUSH1 0x44 DUP3 ADD MSTORE REVERT JUMPDEST ISZERO PUSH2 0x1DCF JUMPI JUMP JUMPDEST PUSH1 0x40 MLOAD PUSH3 0x461BCD PUSH1 0xE5 SHL DUP2 MSTORE PUSH1 0x20 PUSH1 0x4 DUP3 ADD MSTORE PUSH1 0x28 PUSH1 0x24 DUP3 ADD MSTORE PUSH32 0x455243313135353A2069647320616E6420616D6F756E7473206C656E67746820 PUSH1 0x44 DUP3 ADD MSTORE PUSH8 0xDAD2E6DAC2E8C6D PUSH1 0xC3 SHL PUSH1 0x64 DUP3 ADD MSTORE PUSH1 0x84 SWAP1 REVERT JUMPDEST ISZERO PUSH2 0x1E2C JUMPI JUMP JUMPDEST PUSH1 0x40 MLOAD PUSH3 0x461BCD PUSH1 0xE5 SHL DUP2 MSTORE PUSH1 0x20 PUSH1 0x4 DUP3 ADD MSTORE PUSH1 0x25 PUSH1 0x24 DUP3 ADD MSTORE PUSH32 0x455243313135353A207472616E7366657220746F20746865207A65726F206164 PUSH1 0x44 DUP3 ADD MSTORE PUSH5 0x6472657373 PUSH1 0xD8 SHL PUSH1 0x64 DUP3 ADD MSTORE PUSH1 0x84 SWAP1 REVERT JUMPDEST ISZERO PUSH2 0x1E86 JUMPI JUMP JUMPDEST PUSH1 0x40 MLOAD PUSH3 0x461BCD PUSH1 0xE5 SHL DUP2 MSTORE PUSH1 0x20 PUSH1 0x4 DUP3 ADD MSTORE PUSH1 0x2A PUSH1 0x24 DUP3 ADD MSTORE PUSH32 0x455243313135353A20696E73756666696369656E742062616C616E636520666F PUSH1 0x44 DUP3 ADD MSTORE PUSH10 0x39103A3930B739B332B9 PUSH1 0xB1 SHL PUSH1 0x64 DUP3 ADD MSTORE PUSH1 0x84 SWAP1 REVERT JUMPDEST SWAP1 SWAP2 PUSH2 0x1EF5 PUSH2 0x1A50 SWAP4 PUSH1 0x40 DUP5 MSTORE PUSH1 0x40 DUP5 ADD SWAP1 PUSH2 0x1AB3 JUMP JUMPDEST SWAP2 PUSH1 0x20 DUP2 DUP5 SUB SWAP2 ADD MSTORE PUSH2 0x1AB3 JUMP JUMPDEST PUSH1 0x1 DUP2 EQ SWAP1 DUP2 ISZERO PUSH2 0x1F45 JUMPI JUMPDEST DUP2 ISZERO PUSH2 0x1F3A JUMPI JUMPDEST DUP2 ISZERO PUSH2 0x1F2F JUMPI JUMPDEST DUP2 ISZERO PUSH2 0x1F27 JUMPI POP SWAP1 JUMP JUMPDEST PUSH1 0x5 SWAP2 POP EQ SWAP1 JUMP JUMPDEST PUSH1 0x4 DUP2 EQ SWAP2 POP PUSH2 0x1F1D JUMP JUMPDEST PUSH1 0x3 DUP2 EQ SWAP2 POP PUSH2 0x1F16 JUMP JUMPDEST PUSH1 0x2 DUP2 EQ SWAP2 POP PUSH2 0x1F0F JUMP JUMPDEST ISZERO PUSH2 0x1F57 JUMPI JUMP JUMPDEST PUSH1 0x40 MLOAD PUSH3 0x461BCD PUSH1 0xE5 SHL DUP2 MSTORE PUSH1 0x20 PUSH1 0x4 DUP3 ADD MSTORE PUSH1 0x21 PUSH1 0x24 DUP3 ADD MSTORE PUSH32 0x455243313135353A206D696E7420746F20746865207A65726F20616464726573 PUSH1 0x44 DUP3 ADD MSTORE PUSH1 0x73 PUSH1 0xF8 SHL PUSH1 0x64 DUP3 ADD MSTORE PUSH1 0x84 SWAP1 REVERT JUMPDEST SWAP1 DUP2 PUSH1 0x20 SWAP2 SUB SLT PUSH2 0x1A1 JUMPI MLOAD PUSH1 0x1 PUSH1 0x1 PUSH1 0xE0 SHL SUB NOT DUP2 AND DUP2 SUB PUSH2 0x1A1 JUMPI SWAP1 JUMP JUMPDEST PUSH1 0x80 SWAP1 PUSH1 0x20 DUP2 MSTORE PUSH1 0x28 PUSH1 0x20 DUP3 ADD MSTORE PUSH32 0x455243313135353A204552433131353552656365697665722072656A65637465 PUSH1 0x40 DUP3 ADD MSTORE PUSH8 0x6420746F6B656E73 PUSH1 0xC0 SHL PUSH1 0x60 DUP3 ADD MSTORE ADD SWAP1 JUMP JUMPDEST PUSH0 SWAP1 PUSH1 0x3 RETURNDATASIZE GT PUSH2 0x201B JUMPI JUMP JUMPDEST SWAP1 POP PUSH1 0x4 PUSH0 DUP1 RETURNDATACOPY PUSH0 MLOAD PUSH1 0xE0 SHR SWAP1 JUMP JUMPDEST PUSH0 PUSH1 0x44 RETURNDATASIZE LT PUSH2 0x1A50 JUMPI PUSH1 0x40 MLOAD PUSH1 0x3 NOT SWAP2 RETURNDATASIZE DUP4 ADD PUSH1 0x4 DUP4 RETURNDATACOPY DUP2 MLOAD PUSH1 0x1 PUSH1 0x1 PUSH1 0x40 SHL SUB SWAP2 DUP3 DUP3 GT RETURNDATASIZE PUSH1 0x24 DUP5 ADD GT OR PUSH2 0x2086 JUMPI DUP2 DUP5 ADD SWAP5 DUP6 MLOAD SWAP4 DUP5 GT PUSH2 0x208E JUMPI RETURNDATASIZE DUP6 ADD ADD PUSH1 0x20 DUP5 DUP8 ADD ADD GT PUSH2 0x2086 JUMPI POP PUSH2 0x1A50 SWAP3 SWAP2 ADD PUSH1 0x20 ADD SWAP1 PUSH2 0x19AF JUMP JUMPDEST SWAP5 SWAP4 POP POP POP POP JUMP JUMPDEST POP SWAP5 SWAP4 POP POP POP POP JUMP JUMPDEST PUSH1 0x80 SWAP1 PUSH1 0x20 DUP2 MSTORE PUSH1 0x34 PUSH1 0x20 DUP3 ADD MSTORE PUSH32 0x455243313135353A207472616E7366657220746F206E6F6E2D45524331313535 PUSH1 0x40 DUP3 ADD MSTORE PUSH20 0x2932B1B2B4BB32B91034B6B83632B6B2B73A32B9 PUSH1 0x61 SHL PUSH1 0x60 DUP3 ADD MSTORE ADD SWAP1 JUMP JUMPDEST PUSH1 0x40 MLOAD SWAP1 PUSH2 0x20F9 DUP3 PUSH2 0x1994 JUMP JUMPDEST PUSH1 0x1 DUP3 MSTORE PUSH1 0x20 CALLDATASIZE DUP2 DUP5 ADD CALLDATACOPY PUSH2 0x210D DUP3 PUSH2 0x1CD5 JUMP JUMPDEST MSTORE SWAP1 JUMP INVALID LOG2 PUSH5 0x6970667358 0x22 SLT KECCAK256 0x25 0xA8 0xC3 PUSH24 0x1A28A41E1161A52258D1D2875BA7CDE92308FDDC0306FA72 MSTORE 0xC 0xA8 CALLER PUSH5 0x736F6C6343 STOP ADDMOD XOR STOP CALLER "},"methodIdentifiers":{"BASE_CHECK()":"df54d23e","LEADERBOARD()":"1d4c1868","MAX_SCORE_SUBMISSIONS_PER_DAY()":"c4ebe024","PERP_LEVERAGE()":"5af02de7","PROTECTIVE_HEDGE()":"ac4d7298","SPOT_LOOP()":"7865cd0f","achievementLabel(uint256)":"16d26e6d","approveBatchClaims(address,uint256[],bool)":"4ef64c05","approveClaim(address,uint256,bool)":"ed539364","balanceOf(address,uint256)":"00fdd58e","balanceOfBatch(address[],uint256[])":"4e1273f4","claim(uint256)":"379607f5","claimApproved(address,uint256)":"681d0d61","claimBatch(uint256[])":"62abebce","hasSubmittedScore(address)":"f9569673","isApprovedForAll(address,address)":"e985e9c5","owner()":"8da5cb5b","renounceOwnership()":"715018a6","replayScoreOf(address)":"c8a3c3b5","safeBatchTransferFrom(address,address,uint256[],uint256[],bytes)":"2eb2c2d6","safeTransferFrom(address,address,uint256,uint256,bytes)":"f242432a","scoreAccountAt(uint256)":"d4b0521b","scoreAccountCount()":"2f85874a","setAchievementLabel(uint256,string)":"10674933","setApprovalForAll(address,bool)":"a22cb465","setBaseUri(string)":"a0bcfc7f","submitScore(int256,uint256,uint256)":"6961fd46","supportsInterface(bytes4)":"01ffc9a7","transferOwnership(address)":"f2fde38b","uri(uint256)":"0e89341c"}}}}}