{"project/contracts/MSXUnifiedDemoHub.sol":{"MSXUnifiedDemoHub":{"abi":[{"inputs":[{"internalType":"string","name":"baseUri","type":"string"}],"stateMutability":"nonpayable","type":"constructor"},{"anonymous":false,"inputs":[{"indexed":true,"internalType":"address","name":"account","type":"address"},{"indexed":true,"internalType":"uint256","name":"achievementId","type":"uint256"}],"name":"AchievementClaimed","type":"event"},{"anonymous":false,"inputs":[{"indexed":true,"internalType":"address","name":"account","type":"address"},{"indexed":true,"internalType":"address","name":"operator","type":"address"},{"indexed":false,"internalType":"bool","name":"approved","type":"bool"}],"name":"ApprovalForAll","type":"event"},{"anonymous":false,"inputs":[{"indexed":false,"internalType":"bytes32","name":"attestationRoot","type":"bytes32"},{"indexed":false,"internalType":"uint256","name":"timestamp","type":"uint256"}],"name":"AttestationUpdated","type":"event"},{"anonymous":false,"inputs":[{"indexed":true,"internalType":"address","name":"investor","type":"address"},{"indexed":false,"internalType":"bool","name":"allowed","type":"bool"},{"indexed":true,"internalType":"uint8","name":"tier","type":"uint8"}],"name":"InvestorEligibilityUpdated","type":"event"},{"anonymous":false,"inputs":[{"indexed":false,"internalType":"uint256","name":"navBps","type":"uint256"},{"indexed":false,"internalType":"uint256","name":"timestamp","type":"uint256"}],"name":"NavUpdated","type":"event"},{"anonymous":false,"inputs":[{"indexed":true,"internalType":"address","name":"previousOwner","type":"address"},{"indexed":true,"internalType":"address","name":"newOwner","type":"address"}],"name":"OwnershipTransferred","type":"event"},{"anonymous":false,"inputs":[{"indexed":true,"internalType":"uint16","name":"productId","type":"uint16"},{"indexed":false,"internalType":"string","name":"label","type":"string"}],"name":"ProductReceiptLabelUpdated","type":"event"},{"anonymous":false,"inputs":[{"indexed":true,"internalType":"address","name":"investor","type":"address"},{"indexed":true,"internalType":"uint16","name":"productId","type":"uint16"},{"indexed":true,"internalType":"uint256","name":"tokenId","type":"uint256"},{"indexed":false,"internalType":"uint256","name":"shareAmount","type":"uint256"},{"indexed":false,"internalType":"uint256","name":"assetAmount","type":"uint256"}],"name":"ProductReceiptRedeemed","type":"event"},{"anonymous":false,"inputs":[{"indexed":true,"internalType":"address","name":"investor","type":"address"},{"indexed":true,"internalType":"uint16","name":"fromProductId","type":"uint16"},{"indexed":true,"internalType":"uint16","name":"toProductId","type":"uint16"},{"indexed":false,"internalType":"uint256","name":"burnAmount","type":"uint256"},{"indexed":false,"internalType":"uint256","name":"mintAmount","type":"uint256"}],"name":"ProductReceiptSettled","type":"event"},{"anonymous":false,"inputs":[{"indexed":true,"internalType":"address","name":"investor","type":"address"},{"indexed":true,"internalType":"uint16","name":"productId","type":"uint16"},{"indexed":true,"internalType":"uint256","name":"tokenId","type":"uint256"},{"indexed":false,"internalType":"uint256","name":"assetAmount","type":"uint256"},{"indexed":false,"internalType":"uint256","name":"shareAmount","type":"uint256"}],"name":"ProductReceiptSubscribed","type":"event"},{"anonymous":false,"inputs":[{"indexed":true,"internalType":"address","name":"investor","type":"address"},{"indexed":false,"internalType":"uint256","name":"shareAmount","type":"uint256"},{"indexed":false,"internalType":"uint256","name":"assetAmount","type":"uint256"}],"name":"Redeemed","type":"event"},{"anonymous":false,"inputs":[{"indexed":true,"internalType":"address","name":"account","type":"address"},{"indexed":false,"internalType":"int256","name":"netPnl","type":"int256"},{"indexed":false,"internalType":"uint256","name":"accountValue","type":"uint256"},{"indexed":false,"internalType":"uint256","name":"tradeCount","type":"uint256"},{"indexed":false,"internalType":"uint256","name":"submittedAt","type":"uint256"}],"name":"ReplayScoreSubmitted","type":"event"},{"anonymous":false,"inputs":[{"indexed":false,"internalType":"string","name":"status","type":"string"},{"indexed":false,"internalType":"uint256","name":"timestamp","type":"uint256"}],"name":"StrategyStatusUpdated","type":"event"},{"anonymous":false,"inputs":[{"indexed":true,"internalType":"address","name":"investor","type":"address"},{"indexed":false,"internalType":"uint256","name":"assetAmount","type":"uint256"},{"indexed":false,"internalType":"uint256","name":"shareAmount","type":"uint256"}],"name":"Subscribed","type":"event"},{"anonymous":false,"inputs":[{"indexed":true,"internalType":"address","name":"recipient","type":"address"},{"indexed":true,"internalType":"uint8","name":"badgeType","type":"uint8"},{"indexed":true,"internalType":"uint256","name":"tokenId","type":"uint256"}],"name":"TaskBadgeMinted","type":"event"},{"anonymous":false,"inputs":[{"indexed":true,"internalType":"address","name":"operator","type":"address"},{"indexed":true,"internalType":"address","name":"from","type":"address"},{"indexed":true,"internalType":"address","name":"to","type":"address"},{"indexed":false,"internalType":"uint256[]","name":"ids","type":"uint256[]"},{"indexed":false,"internalType":"uint256[]","name":"values","type":"uint256[]"}],"name":"TransferBatch","type":"event"},{"anonymous":false,"inputs":[{"indexed":true,"internalType":"address","name":"operator","type":"address"},{"indexed":true,"internalType":"address","name":"from","type":"address"},{"indexed":true,"internalType":"address","name":"to","type":"address"},{"indexed":false,"internalType":"uint256","name":"id","type":"uint256"},{"indexed":false,"internalType":"uint256","name":"value","type":"uint256"}],"name":"TransferSingle","type":"event"},{"anonymous":false,"inputs":[{"indexed":false,"internalType":"string","name":"value","type":"string"},{"indexed":true,"internalType":"uint256","name":"id","type":"uint256"}],"name":"URI","type":"event"},{"anonymous":false,"inputs":[{"indexed":true,"internalType":"bytes32","name":"assetHash","type":"bytes32"},{"indexed":false,"internalType":"bool","name":"passed","type":"bool"},{"indexed":false,"internalType":"string","name":"note","type":"string"}],"name":"UnderlyingReviewRecorded","type":"event"},{"anonymous":false,"inputs":[{"indexed":true,"internalType":"address","name":"account","type":"address"},{"indexed":true,"internalType":"uint8","name":"taskId","type":"uint8"}],"name":"WealthTaskCompleted","type":"event"},{"inputs":[],"name":"ASSET_DECIMALS","outputs":[{"internalType":"uint8","name":"","type":"uint8"}],"stateMutability":"view","type":"function"},{"inputs":[],"name":"BPS","outputs":[{"internalType":"uint256","name":"","type":"uint256"}],"stateMutability":"view","type":"function"},{"inputs":[],"name":"DEFAULT_WEALTH_PRODUCT_ID","outputs":[{"internalType":"uint16","name":"","type":"uint16"}],"stateMutability":"view","type":"function"},{"inputs":[],"name":"HOME_PAPER","outputs":[{"internalType":"uint8","name":"","type":"uint8"}],"stateMutability":"view","type":"function"},{"inputs":[],"name":"HOME_QUIZ","outputs":[{"internalType":"uint8","name":"","type":"uint8"}],"stateMutability":"view","type":"function"},{"inputs":[],"name":"HOME_RISK","outputs":[{"internalType":"uint8","name":"","type":"uint8"}],"stateMutability":"view","type":"function"},{"inputs":[],"name":"HOME_WALLET","outputs":[{"internalType":"uint8","name":"","type":"uint8"}],"stateMutability":"view","type":"function"},{"inputs":[],"name":"HOME_WELCOME","outputs":[{"internalType":"uint8","name":"","type":"uint8"}],"stateMutability":"view","type":"function"},{"inputs":[],"name":"MAX_SCORE_SUBMISSIONS_PER_DAY","outputs":[{"internalType":"uint256","name":"","type":"uint256"}],"stateMutability":"view","type":"function"},{"inputs":[],"name":"PAPER_BASE_CHECK","outputs":[{"internalType":"uint256","name":"","type":"uint256"}],"stateMutability":"view","type":"function"},{"inputs":[],"name":"PAPER_LEADERBOARD","outputs":[{"internalType":"uint256","name":"","type":"uint256"}],"stateMutability":"view","type":"function"},{"inputs":[],"name":"PAPER_PERP_LEVERAGE","outputs":[{"internalType":"uint256","name":"","type":"uint256"}],"stateMutability":"view","type":"function"},{"inputs":[],"name":"PAPER_PROTECTIVE_HEDGE","outputs":[{"internalType":"uint256","name":"","type":"uint256"}],"stateMutability":"view","type":"function"},{"inputs":[],"name":"PAPER_SPOT_LOOP","outputs":[{"internalType":"uint256","name":"","type":"uint256"}],"stateMutability":"view","type":"function"},{"inputs":[],"name":"WEALTH_BUY_RECEIPT","outputs":[{"internalType":"uint8","name":"","type":"uint8"}],"stateMutability":"view","type":"function"},{"inputs":[],"name":"WEALTH_SETTLE_OR_PLEDGE","outputs":[{"internalType":"uint8","name":"","type":"uint8"}],"stateMutability":"view","type":"function"},{"inputs":[{"internalType":"bytes32","name":"","type":"bytes32"}],"name":"approvedUnderlyingHash","outputs":[{"internalType":"bool","name":"","type":"bool"}],"stateMutability":"view","type":"function"},{"inputs":[],"name":"assetSymbol","outputs":[{"internalType":"string","name":"","type":"string"}],"stateMutability":"view","type":"function"},{"inputs":[{"internalType":"address","name":"account","type":"address"},{"internalType":"uint256","name":"id","type":"uint256"}],"name":"balanceOf","outputs":[{"internalType":"uint256","name":"","type":"uint256"}],"stateMutability":"view","type":"function"},{"inputs":[{"internalType":"address[]","name":"accounts","type":"address[]"},{"internalType":"uint256[]","name":"ids","type":"uint256[]"}],"name":"balanceOfBatch","outputs":[{"internalType":"uint256[]","name":"","type":"uint256[]"}],"stateMutability":"view","type":"function"},{"inputs":[{"internalType":"address","name":"investor","type":"address"}],"name":"canAccessAdvancedShelf","outputs":[{"internalType":"bool","name":"","type":"bool"}],"stateMutability":"view","type":"function"},{"inputs":[{"internalType":"uint256","name":"achievementId","type":"uint256"}],"name":"claim","outputs":[],"stateMutability":"nonpayable","type":"function"},{"inputs":[{"internalType":"uint256[]","name":"achievementIds","type":"uint256[]"}],"name":"claimBatch","outputs":[],"stateMutability":"nonpayable","type":"function"},{"inputs":[{"internalType":"address","name":"","type":"address"}],"name":"eligibleInvestor","outputs":[{"internalType":"bool","name":"","type":"bool"}],"stateMutability":"view","type":"function"},{"inputs":[{"internalType":"address","name":"holder","type":"address"}],"name":"hasMinted","outputs":[{"internalType":"bool","name":"","type":"bool"}],"stateMutability":"view","type":"function"},{"inputs":[{"internalType":"address","name":"","type":"address"},{"internalType":"uint8","name":"","type":"uint8"}],"name":"hasMintedBadge","outputs":[{"internalType":"bool","name":"","type":"bool"}],"stateMutability":"view","type":"function"},{"inputs":[{"internalType":"address","name":"holder","type":"address"},{"internalType":"uint8","name":"badgeType","type":"uint8"}],"name":"hasMintedTask","outputs":[{"internalType":"bool","name":"","type":"bool"}],"stateMutability":"view","type":"function"},{"inputs":[{"internalType":"address","name":"","type":"address"}],"name":"hasSubmittedScore","outputs":[{"internalType":"bool","name":"","type":"bool"}],"stateMutability":"view","type":"function"},{"inputs":[{"internalType":"address","name":"holder","type":"address"},{"internalType":"uint8","name":"taskId","type":"uint8"}],"name":"hasWealthTask","outputs":[{"internalType":"bool","name":"","type":"bool"}],"stateMutability":"view","type":"function"},{"inputs":[{"internalType":"address","name":"account","type":"address"},{"internalType":"address","name":"operator","type":"address"}],"name":"isApprovedForAll","outputs":[{"internalType":"bool","name":"","type":"bool"}],"stateMutability":"view","type":"function"},{"inputs":[],"name":"lastAttestedAt","outputs":[{"internalType":"uint256","name":"","type":"uint256"}],"stateMutability":"view","type":"function"},{"inputs":[],"name":"latestAttestationRoot","outputs":[{"internalType":"bytes32","name":"","type":"bytes32"}],"stateMutability":"view","type":"function"},{"inputs":[{"internalType":"uint8","name":"taskId","type":"uint8"}],"name":"markWealthTask","outputs":[],"stateMutability":"nonpayable","type":"function"},{"inputs":[],"name":"minSubscription","outputs":[{"internalType":"uint256","name":"","type":"uint256"}],"stateMutability":"view","type":"function"},{"inputs":[{"internalType":"uint8","name":"badgeType","type":"uint8"},{"internalType":"address","name":"to","type":"address"}],"name":"mintBadge","outputs":[{"internalType":"uint256","name":"tokenId","type":"uint256"}],"stateMutability":"nonpayable","type":"function"},{"inputs":[{"internalType":"address","name":"to","type":"address"}],"name":"mintWelcomeBadge","outputs":[{"internalType":"uint256","name":"tokenId","type":"uint256"}],"stateMutability":"nonpayable","type":"function"},{"inputs":[],"name":"navBps","outputs":[{"internalType":"uint256","name":"","type":"uint256"}],"stateMutability":"view","type":"function"},{"inputs":[],"name":"nextHomeTokenId","outputs":[{"internalType":"uint256","name":"","type":"uint256"}],"stateMutability":"view","type":"function"},{"inputs":[],"name":"owner","outputs":[{"internalType":"address","name":"","type":"address"}],"stateMutability":"view","type":"function"},{"inputs":[{"internalType":"uint256","name":"shareAmount","type":"uint256"}],"name":"previewAssets","outputs":[{"internalType":"uint256","name":"","type":"uint256"}],"stateMutability":"view","type":"function"},{"inputs":[{"internalType":"uint256","name":"assetAmount","type":"uint256"}],"name":"previewShares","outputs":[{"internalType":"uint256","name":"","type":"uint256"}],"stateMutability":"view","type":"function"},{"inputs":[{"internalType":"uint16","name":"","type":"uint16"}],"name":"productReceiptLabel","outputs":[{"internalType":"string","name":"","type":"string"}],"stateMutability":"view","type":"function"},{"inputs":[{"internalType":"uint16","name":"productId","type":"uint16"}],"name":"receiptTokenId","outputs":[{"internalType":"uint256","name":"","type":"uint256"}],"stateMutability":"pure","type":"function"},{"inputs":[{"internalType":"bytes32","name":"assetHash","type":"bytes32"},{"internalType":"bool","name":"passed","type":"bool"},{"internalType":"string","name":"note","type":"string"}],"name":"recordUnderlyingReview","outputs":[],"stateMutability":"nonpayable","type":"function"},{"inputs":[{"internalType":"uint256","name":"shareAmount","type":"uint256"}],"name":"redeem","outputs":[{"internalType":"uint256","name":"assetAmount","type":"uint256"}],"stateMutability":"nonpayable","type":"function"},{"inputs":[{"internalType":"uint16","name":"productId","type":"uint16"},{"internalType":"uint256","name":"shareAmount","type":"uint256"}],"name":"redeemProduct","outputs":[{"internalType":"uint256","name":"assetAmount","type":"uint256"}],"stateMutability":"nonpayable","type":"function"},{"inputs":[],"name":"renounceOwnership","outputs":[],"stateMutability":"nonpayable","type":"function"},{"inputs":[{"internalType":"address","name":"","type":"address"}],"name":"replayScoreOf","outputs":[{"internalType":"int256","name":"bestNetPnl","type":"int256"},{"internalType":"uint256","name":"bestAccountValue","type":"uint256"},{"internalType":"uint256","name":"bestTradeCount","type":"uint256"},{"internalType":"uint256","name":"lastSubmittedAt","type":"uint256"},{"internalType":"uint256","name":"submissionCount","type":"uint256"},{"internalType":"uint256","name":"submissionDay","type":"uint256"},{"internalType":"uint256","name":"submissionsToday","type":"uint256"}],"stateMutability":"view","type":"function"},{"inputs":[{"internalType":"address","name":"","type":"address"}],"name":"riskTier","outputs":[{"internalType":"uint8","name":"","type":"uint8"}],"stateMutability":"view","type":"function"},{"inputs":[{"internalType":"address","name":"from","type":"address"},{"internalType":"address","name":"to","type":"address"},{"internalType":"uint256[]","name":"ids","type":"uint256[]"},{"internalType":"uint256[]","name":"amounts","type":"uint256[]"},{"internalType":"bytes","name":"data","type":"bytes"}],"name":"safeBatchTransferFrom","outputs":[],"stateMutability":"nonpayable","type":"function"},{"inputs":[{"internalType":"address","name":"from","type":"address"},{"internalType":"address","name":"to","type":"address"},{"internalType":"uint256","name":"id","type":"uint256"},{"internalType":"uint256","name":"amount","type":"uint256"},{"internalType":"bytes","name":"data","type":"bytes"}],"name":"safeTransferFrom","outputs":[],"stateMutability":"nonpayable","type":"function"},{"inputs":[{"internalType":"uint256","name":"index","type":"uint256"}],"name":"scoreAccountAt","outputs":[{"internalType":"address","name":"","type":"address"}],"stateMutability":"view","type":"function"},{"inputs":[],"name":"scoreAccountCount","outputs":[{"internalType":"uint256","name":"","type":"uint256"}],"stateMutability":"view","type":"function"},{"inputs":[{"internalType":"address","name":"operator","type":"address"},{"internalType":"bool","name":"approved","type":"bool"}],"name":"setApprovalForAll","outputs":[],"stateMutability":"nonpayable","type":"function"},{"inputs":[{"internalType":"string","name":"nextUri","type":"string"}],"name":"setBaseUri","outputs":[],"stateMutability":"nonpayable","type":"function"},{"inputs":[{"internalType":"address","name":"investor","type":"address"},{"internalType":"bool","name":"allowed","type":"bool"},{"internalType":"uint8","name":"tier","type":"uint8"}],"name":"setInvestorEligibility","outputs":[],"stateMutability":"nonpayable","type":"function"},{"inputs":[{"internalType":"uint256","name":"nextMinSubscription","type":"uint256"}],"name":"setMinSubscription","outputs":[],"stateMutability":"nonpayable","type":"function"},{"inputs":[{"internalType":"uint256","name":"nextNavBps","type":"uint256"}],"name":"setNavBps","outputs":[],"stateMutability":"nonpayable","type":"function"},{"inputs":[{"internalType":"uint16","name":"productId","type":"uint16"},{"internalType":"string","name":"label","type":"string"}],"name":"setProductReceiptLabel","outputs":[],"stateMutability":"nonpayable","type":"function"},{"inputs":[{"internalType":"string","name":"nextStatus","type":"string"}],"name":"setStrategyStatus","outputs":[],"stateMutability":"nonpayable","type":"function"},{"inputs":[{"internalType":"bool","name":"paused","type":"bool"}],"name":"setSubscriptionsPaused","outputs":[],"stateMutability":"nonpayable","type":"function"},{"inputs":[{"internalType":"uint16","name":"fromProductId","type":"uint16"},{"internalType":"uint16","name":"toProductId","type":"uint16"},{"internalType":"uint256","name":"burnAmount","type":"uint256"},{"internalType":"uint256","name":"mintAmount","type":"uint256"}],"name":"settleProduct","outputs":[{"internalType":"uint256","name":"assetAmount","type":"uint256"},{"internalType":"uint256","name":"mintedAmount","type":"uint256"}],"stateMutability":"nonpayable","type":"function"},{"inputs":[],"name":"strategyStatus","outputs":[{"internalType":"string","name":"","type":"string"}],"stateMutability":"view","type":"function"},{"inputs":[{"internalType":"int256","name":"netPnl","type":"int256"},{"internalType":"uint256","name":"accountValue","type":"uint256"},{"internalType":"uint256","name":"tradeCount","type":"uint256"}],"name":"submitScore","outputs":[],"stateMutability":"nonpayable","type":"function"},{"inputs":[{"internalType":"uint256","name":"assetAmount","type":"uint256"}],"name":"subscribe","outputs":[{"internalType":"uint256","name":"shareAmount","type":"uint256"}],"stateMutability":"nonpayable","type":"function"},{"inputs":[{"internalType":"uint16","name":"productId","type":"uint16"},{"internalType":"uint256","name":"assetAmount","type":"uint256"}],"name":"subscribeProduct","outputs":[{"internalType":"uint256","name":"shareAmount","type":"uint256"}],"stateMutability":"nonpayable","type":"function"},{"inputs":[],"name":"subscriptionsPaused","outputs":[{"internalType":"bool","name":"","type":"bool"}],"stateMutability":"view","type":"function"},{"inputs":[{"internalType":"bytes4","name":"interfaceId","type":"bytes4"}],"name":"supportsInterface","outputs":[{"internalType":"bool","name":"","type":"bool"}],"stateMutability":"view","type":"function"},{"inputs":[{"internalType":"uint256","name":"","type":"uint256"}],"name":"tokenBadgeType","outputs":[{"internalType":"uint8","name":"","type":"uint8"}],"stateMutability":"view","type":"function"},{"inputs":[{"internalType":"address","name":"newOwner","type":"address"}],"name":"transferOwnership","outputs":[],"stateMutability":"nonpayable","type":"function"},{"inputs":[{"internalType":"bytes32","name":"nextAttestationRoot","type":"bytes32"}],"name":"updateAttestation","outputs":[],"stateMutability":"nonpayable","type":"function"},{"inputs":[{"internalType":"uint256","name":"tokenId","type":"uint256"}],"name":"uri","outputs":[{"internalType":"string","name":"","type":"string"}],"stateMutability":"view","type":"function"},{"inputs":[],"name":"vaultLabel","outputs":[{"internalType":"string","name":"","type":"string"}],"stateMutability":"view","type":"function"},{"inputs":[{"internalType":"address","name":"","type":"address"},{"internalType":"uint16","name":"","type":"uint16"}],"name":"wealthReceiptShares","outputs":[{"internalType":"uint256","name":"","type":"uint256"}],"stateMutability":"view","type":"function"},{"inputs":[{"internalType":"address","name":"","type":"address"},{"internalType":"uint8","name":"","type":"uint8"}],"name":"wealthTaskCompleted","outputs":[{"internalType":"bool","name":"","type":"bool"}],"stateMutability":"view","type":"function"}],"evm":{"bytecode":{"linkReferences":{},"object":"6080604052346200034857620061c0803803806200001d816200034c565b9283398101906020918282820312620003485781516001600160401b039283821162000348570191601f9180838501121562000348578351938285116200032057601f199462000073858201871688016200034c565b92818452878284010111620003485786915f5b82811062000334575050905f918301015280519182116200032057620000ae60025462000372565b838111620002e4575b508493838311600114620002815750928192935f9262000275575b50508160011b915f199060031b1c1916176002555b60038054336001600160a01b0319821681179092556001600160a01b03167f8be0079c531659141344cd1fd0a4f28419497f9722a3daafe3b4186f6b6457e05f80a36001600455612710600555631dcd650060065562000149600b5462000372565b81811162000253575b507f5269736b4c656e7320556e69666965642044656d6f205661756c740000000036600b55600c54620001859062000372565b81811162000231575b50600461141560f21b01600c55600a54620001a99062000372565b908082116200020f575b7f44656d6f20726561647900000000000000000000000000000000000000000014600a557f326aeea7abf8a20d2ae5c71811b6e16c6ad80e0128362081ef8dd5af3774b9c060095542600755604051615dfa9081620003c68239f35b6200022892600a5f525f20910160051c810190620003ad565b5f8080620001b3565b6200024c90600c5f5282845f20910160051c810190620003ad565b5f6200018e565b6200026e90600b5f5282845f20910160051c810190620003ad565b5f62000152565b015190505f80620000d2565b82169360025f52855f20915f5b87878210620002cd575050836001959610620002b4575b505050811b01600255620000e7565b01515f1960f88460031b161c191690555f8080620002a5565b60018495829395850151815501940192016200028e565b6200030f9060025f52865f208580860160051c82019289871062000316575b0160051c0190620003ad565b5f620000b7565b9250819262000303565b634e487b7160e01b5f52604160045260245ffd5b818101840151858201850152830162000086565b5f80fd5b6040519190601f01601f191682016001600160401b038111838210176200032057604052565b90600182811c92168015620003a2575b60208310146200038e57565b634e487b7160e01b5f52602260045260245ffd5b91607f169162000382565b818110620003b9575050565b5f8155600101620003ad56fe604060808152600480361015610013575f80fd5b5f3560e01c9081629b27af14613798578162fdd58e1461377057816301b4597d1461371f57816301ffc9a7146136b357816302cea26b146136635781630e89341c14612e385781630f574ba714612bb7578163176de7a814612b08578163176f1cdd14612a59578163179649ad146129b95781631a2e9996146129065781631de3083d146128eb578163218900b4146128cd578163249d39e9146128b15781632baa75211461288c5781632e6f6b1f1461286e5781632eb2c2d6146125d45781632f85874a146125b65781632fb4e0f9146124d5578163325116ee146124ba578163379607f51461244d57816338e21cce1461240857816341be5f64146123ea5781634973fd9a146123be5781634adb4cc8146123a05781634d7c10a7146123645781634e1273f4146121f85781635216333714611f3e57816355cc026114611d5b57816357997aa214611d4057816360062cd114610970578163619a1d2914611d1757816362abebce14611a855781636961fd46146118dc5781636b3ce2f1146118805781636ea17abd14611865578163715018a61461180a5781637206abbd1461164f57816374b3322c146116055781637cea070a146115ea5781638385f14a146115ce5781638530a3bf146115a45781638909e506146112cc5781638d00bbe5146112795781638da5cb5b146112515781638f631d541461123657816399b49e25146111dd5781639a2aaca114611155578163a0bcfc7f14610fd1578163a22cb46514610ef0578163aec45d8014610e8f578163b363935c14610413578163b5884e2014610df2578163b7d120d014610da7578163b84d93d414610d6d578163c4ebe02414610734578163c8a3c3b514610cf7578163cad471921461040e578163cb33bcdb14610ca6578163cf22928d14610c83578163d28c390a14610c39578163d4b0521b14610bbe578163d92fa2c614610b8e578163db006a7514610975578163dcb2125b14610970578163e985e9c514610922578163eda7c56e1461074f578163eeaa817714610734578163f242432a146104f9578163f2fde38b1461042e578163f4db898414610413578163f5952d121461040e578163f68e55c3146103ae57508063f766dee4146103935763f956967314610354575f80fd5b3461038f57602036600319011261038f576020906001600160a01b036103786137dd565b165f526014825260ff815f20541690519015158152f35b5f80fd5b503461038f575f36600319011261038f5760209051600a8152f35b90503461038f57602036600319011261038f578035916103cc613e99565b82156103d9576006839055005b906020606492519162461bcd60e51b8352820152600f60248201526e496e76616c6964206d696e696d756d60881b6044820152fd5b613b5b565b823461038f575f36600319011261038f576020905160068152f35b90503461038f57602036600319011261038f576104496137dd565b90610452613e99565b6001600160a01b039182169283156104a7575050600354826bffffffffffffffffffffffff60a01b821617600355167f8be0079c531659141344cd1fd0a4f28419497f9722a3daafe3b4186f6b6457e05f80a3005b906020608492519162461bcd60e51b8352820152602660248201527f4f776e61626c653a206e6577206f776e657220697320746865207a65726f206160448201526564647265737360d01b6064820152fd5b90503461038f5760a036600319011261038f576105146137dd565b9161051d6137f3565b9260443590606435906084356001600160401b03811161038f576105449036908701613af2565b916001600160a01b03918216913383148015610711575b61056490613d14565b8716610571811515614eb0565b61057a85615d7f565b5061058482615d7f565b50845f526020975f8952865f20845f52895282875f20546105a782821015614f0a565b875f525f8b52885f20865f528b5203875f2055855f525f8952865f20825f528952865f206105d6848254613cd4565b905581848851888152858c8201525f80516020615da58339815191528a3392a43b6105fd57005b86945f899461063f89519788968795869463f23a6e6160e01b9c8d8752339087015260248601526044850152606484015260a0608484015260a483019061384a565b03925af15f91816106e2575b506106b357505061065a615c7b565b6308c379a014610682575b5162461bcd60e51b81529150819061067e908201615d03565b0390fd5b61068a615c96565b806106955750610665565b61067e915193849362461bcd60e51b8552840152602483019061384a565b9193506001600160e01b0319909116036106c957005b905162461bcd60e51b815290819061067e908201615c32565b610703919250863d881161070a575b6106fb818361390c565b810190615c12565b905f61064b565b503d6106f1565b50825f526001602052855f20335f5260205261056460ff875f205416905061055b565b823461038f575f36600319011261038f576020905160038152f35b90503461038f578160031936011261038f576107696139fc565b6001600160401b03916024359183831161038f5761078d61ffff93369084016139cf565b939091610798613e99565b16936107a5851515613c96565b845f5260209260168452865f2091851161090f57506107c4815461386f565b601f81116108cc575b505f601f85116001146108445795610834929161082286807f866aab14c7f7439fa866f885f22e8a9fce19f006d3956137b07f4284346bac9c999a5f91610839575b508160011b915f199060031b1c19161790565b90555b51938385948552840191613bf6565b0390a2005b90508501355f61080f565b601f19851690825f52845f20915f5b8181106108b5575091610834949391877f866aab14c7f7439fa866f885f22e8a9fce19f006d3956137b07f4284346bac9c999a941061089c575b5050600186811b019055610825565b8401355f19600389901b60f8161c191690555f8061088d565b919286600181928689013581550194019201610853565b815f52835f20601f860160051c810191858710610905575b601f0160051c01905b8181106108fa57506107cd565b5f81556001016108ed565b90915081906108e4565b604190634e487b7160e01b5f525260245ffd5b823461038f578060031936011261038f5760209061093e6137dd565b6109466137f3565b9060018060a01b038091165f5260018452825f2091165f52825260ff815f20541690519015158152f35b613b40565b90503461038f576020918260031936011261038f5781359161099883151561491d565b3315610b41578151906109aa826138d6565b6001825284820191853684375115610b2e576103e98092526109cb84615d7f565b505f83516109d8816138a7565b52815f525f8552825f20335f528552825f205490848210610adf57508390825f525f8652835f20335f52865203825f20555f8251828152848682015233905f80516020615da5833981519152853392a45f8251610a34816138a7565b52335f908152601585528281206001825285528290205483818110610ad15750505f5b335f5260158552825f2060015f528552825f2055815183815283858201527ff3a670cd3af7d64b488926880889d08a8585a138ff455227af6737339a1ec262833392a26001825184815284868201527f7c7917c3334372c8a1ab0009b4314b5fa722b2ae8bb2603b7195279aeb45a37a843392a451908152f35b610ada91615144565b610a57565b835162461bcd60e51b81529081018690526024808201527f455243313135353a206275726e20616d6f756e7420657863656564732062616c604482015263616e636560e01b6064820152608490fd5b603290634e487b7160e01b5f525260245ffd5b83608492519162461bcd60e51b8352820152602360248201527f455243313135353a206275726e2066726f6d20746865207a65726f206164647260448201526265737360e81b6064820152fd5b823461038f578060031936011261038f57602090610bb7610bad6139fc565b6024359033615151565b9051908152f35b90503461038f57602036600319011261038f57803590601754821015610c0057602083610bea84613e23565b905491519160018060a01b039160031b1c168152f35b606490602084519162461bcd60e51b83528201526013602482015272496e646578206f7574206f6620626f756e647360681b6044820152fd5b90503461038f57602036600319011261038f57600554813581810292918115918404141715610c7057506127106020925191048152f35b601190634e487b7160e01b5f525260245ffd5b823461038f575f36600319011261038f5760209060ff6008541690519015158152f35b823461038f578060031936011261038f57602090610cc26137dd565b610cca613809565b6001600160a01b039091165f908152600f845282812060ff92831682528452829020549151911615158152f35b823461038f57602036600319011261038f5760e0916001600160a01b03610d1c6137dd565b165f526013602052815f208054926001820154926002830154600384015491840154926006600586015495015495815197885260208801528601526060850152608084015260a083015260c0820152f35b823461038f57602036600319011261038f576020906001600160a01b03610d926137dd565b165f526011825260ff815f2054169051908152f35b823461038f57602036600319011261038f57610dee9061ffff610dc86139fc565b165f526016602052610ddb815f2061392d565b905191829160208352602083019061384a565b0390f35b823461038f57606036600319011261038f57610e0c6137dd565b90610e156137ce565b6044359260ff841680940361038f577fa0aa2b85df88566521daa2ac1eb0694994372f9f1e64a41307f9d06a571f921291602091610e51613e99565b6001600160a01b03165f81815260108452859020805460ff191660ff841515161790559360118352805f208660ff19825416179055519015158152a3005b823461038f578060031936011261038f57602090610eab6137dd565b610eb3613809565b90610ec5610ec083614c17565b613c16565b6001600160a01b03165f908152600f845282812060ff92831682528452829020549151911615158152f35b823461038f578060031936011261038f57610f096137dd565b90610f126137ce565b6001600160a01b0390921692338414610f7d5750335f526001602052805f20835f52602052610f4f82825f209060ff801983541691151516179055565b5190151581527f17307eab39ab6107e8899845ad3d59bd9653f200f220920489ca2b5937696c3160203392a3005b6020608492519162461bcd60e51b8352820152602960248201527f455243313135353a2073657474696e6720617070726f76616c20737461747573604482015268103337b91039b2b63360b91b6064820152fd5b3461038f5760208060031936011261038f576001600160401b0390823582811161038f5761100561101491369086016139cf565b61100d613e99565b3691613abc565b92835192831161090f575061102a60025461386f565b601f81116110f2575b50602090601f831160011461107457508190611064935f92611069575b50508160011b915f199060031b1c19161790565b600255005b015190508380611050565b90601f1983169360025f527f405787fa12a823e0f2b7631cc41b3ba8828b3321ca811111fa75cd3aa3bb5ace925f905b8682106110da57505083600195106110c2575b505050811b01600255005b01515f1960f88460031b161c191690558280806110b7565b806001859682949686015181550195019301906110a4565b60025f527f405787fa12a823e0f2b7631cc41b3ba8828b3321ca811111fa75cd3aa3bb5ace601f840160051c8101916020851061114b575b601f0160051c01905b8181106111405750611033565b5f8155600101611133565b909150819061112a565b823461038f57602036600319011261038f578135611171613e99565b80156111ac577f1e1223c1f6274c6d64fdb08c485e192bd2896c9abf70e840e199ac1f54d6d1d59250806005558151908152426020820152a1005b815162461bcd60e51b8152602081850152600b60248201526a24b73b30b634b2102720ab60a91b6044820152606490fd5b823461038f57602036600319011261038f576020906001600160a01b036112026137dd565b165f526010825260ff815f205416908161121f575b519015158152f35b905060118252600260ff825f205416101590611217565b90503461038f575f36600319011261038f5760209151908152f35b823461038f575f36600319011261038f5760035490516001600160a01b039091168152602090f35b823461038f57602036600319011261038f577f181f92f68826a8d2b5b97d27f9e18d05a337290356fabf5b717154077dbea93391356112b6613e99565b80600955426007558151908152426020820152a1005b90503461038f57608036600319011261038f576112e76139fc565b906112f0613a0d565b5f9190604435606435611304828733615151565b9561ffff91828516948515158061159b575b611586575b50335f52602095600f8752895f2060025f528752895f20600160ff1982541617905533156115305760ca5f525f8752895f20335f528752895f205415611397575b5088519384528584015216907f031b66f6d8a6a3252233defe3a4204c77215f4ddd23783ce33b9b3d9a86b6ac6873392a48351928352820152f35b89516113a2816138a7565b5f81528a516113b0816138d6565b600181528881019089368337511561151d5760ca90526113ce615d58565b5060ca5f525f88528a5f20335f5288528a5f208054906001820180921161150a57558a5f815160ca815260018b8201525f80516020615da583398151915233933392a4333b611447575b50506002337fbd1ae2c6d13c1a8dc9dbe03823192cb9ab92b45e5b9264dd65b2794c526e6f9f5f80a35f61135c565b90611493888c9a989796959493839c9a9d518093819263f23a6e6160e01b9687845233908401525f602484015260ca60448401526001606484015260a0608484015260a483019061384a565b03815f335af15f91816114eb575b506114b1578b8b8b61065a615c7b565b63ffffffff60e09c999b9394959697989a9c1b16036114d257505f80611418565b895162461bcd60e51b815290819061067e908201615c32565b6115039192508d803d1061070a576106fb818361390c565b905f6114a1565b601184634e487b7160e01b5f525260245ffd5b603283634e487b7160e01b5f525260245ffd5b895162461bcd60e51b8152908101879052602a60248201527f455243313135353a2061646472657373207a65726f206973206e6f742061207660448201526930b634b21037bbb732b960b11b6064820152608490fd5b819750906115949133614957565b955f61131b565b50811515611316565b823461038f57602036600319011261038f57602091355f52600e825260ff815f2054169051908152f35b823461038f575f36600319011261038f57602091549051908152f35b823461038f575f36600319011261038f576020905160018152f35b823461038f578060031936011261038f576020906116216137dd565b611629613a0d565b9060018060a01b03165f526015835261ffff825f2091165f528252805f20549051908152f35b90503461038f578160031936011261038f57611669613819565b916116726137f3565b9261168461167f82615119565b613e58565b6001600160a01b03841680156117d35780330361179f57805f52602094600d865260ff845f20931692835f52865260ff845f2054166117655784549460018601808711611752578155825f52600d8752845f20845f528752845f2060ff1990600182825416179055865f52600e885284865f2091825416179055836064019081606411610c7057508593929161172891865191611720836138a7565b5f8352614ffc565b7f4c7380f1d23a71f74fa1303f23b7100826e4a89a4e47b2985e5c708e47a19b3a5f80a451908152f35b601182634e487b7160e01b5f525260245ffd5b835162461bcd60e51b8152808601879052601460248201527310985919d948185b1c9958591e481b5a5b9d195960621b6044820152606490fd5b825162461bcd60e51b8152602081860152600e60248201526d13db9b1e481cd95b19881b5a5b9d60921b6044820152606490fd5b825162461bcd60e51b81526020818601526011602482015270125b9d985b1a59081c9958da5c1a595b9d607a1b6044820152606490fd5b3461038f575f36600319011261038f57611822613e99565b600380546001600160a01b031981169091555f906001600160a01b03167f8be0079c531659141344cd1fd0a4f28419497f9722a3daafe3b4186f6b6457e08280a3005b823461038f575f36600319011261038f576020905160078152f35b823461038f578060031936011261038f5760209061189c6137dd565b6118a4613809565b906118b161167f83615119565b6001600160a01b03165f908152600d845282812060ff92831682528452829020549151911615158152f35b90503461038f57606036600319011261038f5780359160243560443592335f526013602052825f20906201518042046014602052845f20805460ff811615611a22575b50506005830181815403611a14575b5050600682019081549260038410156119d1578082915489136119bd575b42600382015501805490600182018092116119aa575560018301809311610c70575055815193845260208401528201524260608201527ff6d69723c1e13a6e751ff8839d394f04ffffc588fdd13a7cfd1fdfc1bf87ebe160803392a2005b601183634e487b7160e01b5f525260245ffd5b88815585600182015587600282015561194c565b855162461bcd60e51b8152602081840152601960248201527f4461696c792073636f7265206c696d69742072656163686564000000000000006044820152606490fd5b555f60068301555f8061192e565b60ff1916600117905560175468010000000000000000811015611a7257806001611a4f9201601755613e23565b81546001600160a01b0360039290921b91821b19163390911b1790555f8061191f565b604183634e487b7160e01b5f525260245ffd5b823461038f5760209160031991838336011261038f578135936001600160401b0380861161038f573660238701121561038f578584013590811161038f576024860195602436918360051b01011161038f57611ae081613db9565b905f5b818110611cd35750611af6368289613a35565b94845196611b03886138a7565b5f8852611b11331515614fa6565b611b1e8751855114614e53565b5f5b8751811015611b655780611b3660019287613deb565b51611b41828b613deb565b515f525f8852885f20335f528852611b5d895f20918254613cd4565b905501611b20565b5090949395919684515f33917f4a39dc06d4c0dbc64b70af90fd698a233a518aa5d07e595d983b8c0526c8f7fb339180611ba08a8a83614f69565b0390a4333b611bf6575b505050505050505f5b818110611bbc57005b80611bca6001928486613e13565b35337f04844d30b922ffc2b845400eb2a15cdd62742176c723e09d7cc9703e83645e4b5f80a301611bb3565b8597949698959392611c588a93611c3993611c498b51978896879663bc197c8160e01b9b8c895233908901525f602489015260a0604489015260a4880190613b0d565b9084878303016064880152613b0d565b9184830301608485015261384a565b03815f335af15f9181611cb4575b50611c77575050505061065a615c7b565b929550909392916001600160e01b03191603611c9b57505082808080808080611baa565b5162461bcd60e51b81529150819061067e908201615c32565b611ccc919250883d8a1161070a576106fb818361390c565b9088611c66565b80611d05611cff611ce7600194868d613e13565b35611cf9611cf482614f8e565b613d77565b33613b76565b15613c58565b81611d108286613deb565b5201611ae3565b823461038f578060031936011261038f57602090610bb7611d366139fc565b6024359033614957565b823461038f575f36600319011261038f576020905160088152f35b90503461038f5760208060031936011261038f576001600160401b0390823582811161038f57611d8e90369085016139cf565b939092611d99613e99565b841161090f5750611dab600a5461386f565b601f8111611edb575b505f90601f8411600114611e3257507f09fb0a9f79f07cf16c95b92623175f408d609663d7868ae62581439d923470bd9391611e088480611e1c945f91611e2757508160011b915f199060031b1c19161790565b600a555b8251938385948552840191613bf6565b4260208301520390a1005b90508301355f61080f565b90601f198416600a5f527fc65a7bb8d6351c1cf70c95a316cc6a92839c986682d98bc35f958f4883f9d2a8925f905b828210611ec3575050917f09fb0a9f79f07cf16c95b92623175f408d609663d7868ae62581439d923470bd95939185611e1c9410611eaa575b5050600184811b01600a55611e0c565b8201355f19600387901b60f8161c191690555f80611e9a565b80600185968294968901358155019501930190611e61565b600a5f527fc65a7bb8d6351c1cf70c95a316cc6a92839c986682d98bc35f958f4883f9d2a8601f850160051c81019160208610611f34575b601f0160051c01905b818110611f295750611db4565b5f8155600101611f1c565b9091508190611f13565b90503461038f576020918260031936011261038f57611f5b6137dd565b916001600160a01b03831680156121c25780330361218f57805f52600d8552825f2091600192835f52865260ff845f205416612155578054948386018087116119aa578255825f52600d8752845f20845f528752845f2060ff19908582825416179055865f52600e885284865f2091825416179055845190611fdc826138a7565b5f82528551611fea816138d6565b858152888101908936833751156121425760659052612007615d58565b5060655f525f8852855f20845f528852855f2080549086820180921161212f5755835f875160658152878b8201525f80516020615da5833981519152893392a43b61207c575b50509083917f4c7380f1d23a71f74fa1303f23b7100826e4a89a4e47b2985e5c708e47a19b3a5f80a451908152f35b849593929195518781806120be63f23a6e6160e01b95868352338c8401525f60248401526065604484015288606484015260a0608484015260a483019061384a565b03815f875af15f9181612110575b506120dc5787878761065a615c7b565b63ffffffff60e097939495971b16036120f75750835f61204d565b835162461bcd60e51b815290819061067e908201615c32565b612128919250893d8b1161070a576106fb818361390c565b905f6120cc565b601185634e487b7160e01b5f525260245ffd5b603284634e487b7160e01b5f525260245ffd5b835162461bcd60e51b8152908101869052601460248201527310985919d948185b1c9958591e481b5a5b9d195960621b6044820152606490fd5b5083606492519162461bcd60e51b8352820152600e60248201526d13db9b1e481cd95b19881b5a5b9d60921b6044820152fd5b5083606492519162461bcd60e51b83528201526011602482015270125b9d985b1a59081c9958da5c1a595b9d607a1b6044820152fd5b823461038f578060031936011261038f576001600160401b0391803583811161038f573660238201121561038f57808201359361223485613a1e565b916122418551938461390c565b85835260209560248785019160051b8301019136831161038f57602401905b8282106123455750505060243590811161038f576122819036908401613a83565b9181518351036122f057506122968151613db9565b935f5b82518110156122de576001906122cd6001600160a01b036122ba8387613deb565b51166122c68388613deb565b5190613b76565b6122d78289613deb565b5201612299565b845182815280610dee81850189613b0d565b835162461bcd60e51b8152908101859052602960248201527f455243313135353a206163636f756e747320616e6420696473206c656e677468604482015268040dad2e6dac2e8c6d60bb1b6064820152608490fd5b81356001600160a01b038116810361038f578152908701908701612260565b823461038f57602036600319011261038f576020906001600160a01b036123896137dd565b165f526010825260ff815f20541690519015158152f35b823461038f575f36600319011261038f576020906007549051908152f35b823461038f57602036600319011261038f57602091355f526012825260ff815f20541690519015158152f35b823461038f575f36600319011261038f576020906006549051908152f35b823461038f57602036600319011261038f576020906001600160a01b0361242d6137dd565b165f52600d8252805f2060015f52825260ff815f20541690519015158152f35b90503461038f57602036600319011261038f57612493903591612472611cf484614f8e565b61247f611cff8433613b76565b51612489816138a7565b5f81528233614ffc565b337f04844d30b922ffc2b845400eb2a15cdd62742176c723e09d7cc9703e83645e4b5f80a3005b823461038f575f36600319011261038f576020905160098152f35b823461038f575f36600319011261038f578051600b549091825f6124f88461386f565b808352602094600190866001821691825f14612594575050600114612539575b5050610dee929161252a91038561390c565b5192828493845283019061384a565b90859250600b5f527f0175b7a638427703f0dbe7bb9bbf987a2551717b34e79f33b5b1008d1fa01db9915f925b82841061257c575050508201018161252a612518565b8054848a018601528895508794909301928101612566565b60ff19168682015292151560051b8501909201925083915061252a9050612518565b823461038f575f36600319011261038f576020906017549051908152f35b90503461038f576003199060a03683011261038f576125f16137dd565b916125fa6137f3565b926001600160401b039260443584811161038f5761261b9036908301613a83565b9060643585811161038f576126339036908301613a83565b9460843590811161038f5761264b9036908301613af2565b936001600160a01b0393841693338514801561284b575b61266b90613d14565b6126788451885114614e53565b871694612686861515614eb0565b5f5b8451811015612704578061269e60019287613deb565b516126a9828b613deb565b5190805f526020905f82528d5f208a5f5282528d83815f20546126ce82821015614f0a565b835f525f8552825f208d5f52855203905f20555f525f81528c5f20908a5f52526126fc8c5f20918254613cd4565b905501612688565b509094939592919684878a517f4a39dc06d4c0dbc64b70af90fd698a233a518aa5d07e595d983b8c0526c8f7fb33918061273f8a8a83614f69565b0390a43b61274957005b8751948593849363bc197c8160e01b98898652338b87015260248601526044850160a0905260a4850161277b91613b0d565b8285820301606486015261278e91613b0d565b908382030160848401526127a19161384a565b03815a6020945f91f15f918161282a575b506128195750506127c1615c7b565b6308c379a0146127e5575b905162461bcd60e51b815290819061067e908201615d03565b6127ed615c96565b806127f857506127cc565b61067e906020935193849362461bcd60e51b8552840152602483019061384a565b6001600160e01b031916036106c957005b61284491925060203d60201161070a576106fb818361390c565b905f6127b2565b50845f526001602052885f20335f5260205261266b60ff8a5f2054169050612662565b823461038f575f36600319011261038f576020906009549051908152f35b823461038f57602036600319011261038f57602090610bb76128ac6139fc565b613cf5565b823461038f575f36600319011261038f57602090516127108152f35b823461038f575f36600319011261038f576020906005549051908152f35b823461038f575f36600319011261038f576020905160058152f35b823461038f57602036600319011261038f57612920613819565b9061292d610ec083614c17565b61293c611cff611cf984614c31565b335f52600f602052612969815f209260ff811693845f52602052825f20600160ff19825416179055614c31565b6129738133613b76565b1561297a57005b612992915190612989826138a7565b5f825233614ffc565b337fbd1ae2c6d13c1a8dc9dbe03823192cb9ab92b45e5b9264dd65b2794c526e6f9f5f80a3005b90503461038f57606036600319011261038f578035916129d76137ce565b604435926001600160401b03841161038f57612a1a610834917f5cd61427930ab89a7ffdd8646dd284f02d4ec213a21d6dcaab300350e8006611953691016139cf565b612a22613e99565b865f526012602052612a4284865f209060ff801983541691151516179055565b845194859415158552806020860152840191613bf6565b823461038f575f36600319011261038f578051600a549091825f612a7c8461386f565b808352602094600190866001821691825f14612594575050600114612aad575050610dee929161252a91038561390c565b90859250600a5f527fc65a7bb8d6351c1cf70c95a316cc6a92839c986682d98bc35f958f4883f9d2a8915f925b828410612af0575050508201018161252a612518565b8054848a018601528895508794909301928101612ada565b823461038f575f36600319011261038f578051600c549091825f612b2b8461386f565b808352602094600190866001821691825f14612594575050600114612b5c575050610dee929161252a91038561390c565b90859250600c5f527fdf6966c971051c3d54ec59162606531493a51404a002842f56009d7e5cf4a8c7915f925b828410612b9f575050508201018161252a612518565b8054848a018601528895508794909301928101612b89565b90503461038f576020918260031936011261038f5781359160ff60085416612e00576006548310612dcf57612bed83151561491d565b815190612bf9826138a7565b5f8252612c07331515614fa6565b825191612c13836138d6565b6001835285830192863685375115612dbc576103e9809352612c3485615d7f565b50825f525f8652835f20335f528652835f20612c51868254613cd4565b9055835183815285878201525f33915f80516020615da5833981519152873392a4333b612d0a575b5050335f5260158452815f2060015f528452815f20612c99848254613cd4565b9055612ca433614c42565b815183815283858201527ff94991dcbea6e8ac439cbc93bd9c62a4d39f04e0ad656df9a703f13552c2787f833392a26001825184815284868201527f1ce38089da937ff378b753cbad5b85ebccefe73af87b074d88b881b11bccc86a843392a451908152f35b839492919451868180612d4a63f23a6e6160e01b95868352338b8401525f602484015287604484015288606484015260a0608484015260a483019061384a565b03815f335af15f9181612d9d575b50612d69575050505061065a615c7b565b929491926001600160e01b03191603612d8457505f80612c79565b825162461bcd60e51b815290819061067e908201615c32565b612db5919250883d8a1161070a576106fb818361390c565b905f612d58565b603282634e487b7160e01b5f525260245ffd5b83606492519162461bcd60e51b8352820152600d60248201526c42656c6f77206d696e696d756d60981b6044820152fd5b83606492519162461bcd60e51b8352820152601460248201527314dd589cd8dc9a5c1d1a5bdb9cc81c185d5cd95960621b6044820152fd5b90503461038f576020908160031936011261038f5735612e5781613f2a565b612e608261430e565b91612e6a816153be565b85612e74836153be565b91612e7e846153be565b612e8785615535565b91612e9186615639565b612e9a876156c7565b612ea3886159d5565b948b612eae8a615afd565b94612eb88b6147db565b89517f3c73766720786d6c6e733d22687474703a2f2f7777772e77332e6f72672f3230848201527f30302f737667222076696577426f783d223020302036303020363030223e3c649a81019a909a527f6566733e3c6c696e6561724772616469656e742069643d2267222078313d223360608b01527f36222079313d223232222078323d22353630222079323d22353738223e3c737460808b01527f6f702073746f702d636f6c6f723d2223313232323141222f3e3c73746f70206f60a08b01527f66667365743d222e3535222073746f702d636f6c6f723d22233131313832372260c08b01527f2f3e3c73746f70206f66667365743d2231222073746f702d636f6c6f723d222360e08b01527f313233333341222f3e3c2f6c696e6561724772616469656e743e3c2f646566736101008b01527f3e3c726563742077696474683d2236303022206865696768743d2236303022206101208b01527f72783d223434222066696c6c3d2223304231313143222f3e3c7265637420783d6101408b01527f2232382220793d223238222077696474683d2235343422206865696768743d226101608b01527f353434222072783d223334222066696c6c3d2275726c2823672922207374726f6101808b01526335b29e9160e11b6101a08b01528151999a8b9a91986101a4939092906130b6908290868f01908801613829565b8b019283017f22207374726f6b652d77696474683d2232222f3e3c636972636c652063783d2290526101c483017f3932222063793d2239322220723d223138222066696c6c3d220000000000000090526101dd92815191828686840192019161311e92613829565b019182017f222f3e3c7465787420783d223132362220793d22313031222066696c6c3d220090526101fc91815191828585840192019161315d92613829565b019081017f2220666f6e742d73697a653d2231382220666f6e742d7765696768743d223830905261021c81017f302220666f6e742d66616d696c793d22417269616c223e000000000000000000905261023392805180938584019201916131c392613829565b019081017f3c2f746578743e3c7465787420783d2235382220793d22323834222066696c6c90527f3d22234636463846422220666f6e742d73697a653d2234382220666f6e742d77806102538301528c7f65696768743d223930302220666f6e742d66616d696c793d22417269616c223e9283610273820152610293958051809388840192019161325392613829565b019384017f3c2f746578743e3c7465787420783d2235382220793d22333434222066696c6c90526102b38401526102d38301526102f391815191828d85840192019161329e92613829565b019081017f3c2f746578743e3c7465787420783d2235382220793d22343130222066696c6c90527f3d22234141423843372220666f6e742d73697a653d2232302220666f6e742d66806103138301528a6d30b6b4b63c9e9120b934b0b6111f60911b9283610333820152610341968051809389840192019161331f92613829565b019485017f3c2f746578743e3c7465787420783d2235382220793d22343430222066696c6c905261036185015261038184015261038f92815191828b86840192019161336a92613829565b7f3c2f746578743e3c7465787420783d2235382220793d22353230222066696c6c9101928301527f3d22233646383039352220666f6e742d73697a653d2231382220666f6e742d776103af8301527f65696768743d223730302220666f6e742d66616d696c793d22417269616c223e6103cf83015266544f4b454e202360c81b6103ef83015280516103f6929091613409908390858401908c01613829565b019081016c1e17ba32bc3a1f1e17b9bb339f60991b9052036103e38101825261040301613436908261390c565b61343f90614567565b90613449816146c0565b90613453906147db565b918651948594683d913730b6b2911d1160b91b8887015280519081896029890192019161347f92613829565b8501701116113232b9b1b934b83a34b7b7111d1160791b60298201528151918289603a84019201916134b092613829565b01603a81017f222c22696d616765223a22646174613a696d6167652f7376672b786d6c3b62619052605a8101641cd94d8d0b60da1b90528151918288605f84019201916134fc92613829565b01605f81017f222c2261747472696275746573223a5b7b2274726169745f74797065223a22539052703ab93330b1b29116113b30b63ab2911d1160791b607f82015281519182876090840192019161355392613829565b01609081017f227d2c7b2274726169745f74797065223a224e6574776f726b222c2276616c75905260b081017f65223a225365706f6c6961227d2c7b2274726169745f74797065223a22546f6b90526f32b71024a21116113b30b63ab2911d1160811b60d0820152815191828660e084019201916135d092613829565b0163227d5d7d60e01b60e08201520360c48101825260e4016135f2908261390c565b6135fb90614567565b91805180938382017f646174613a6170706c69636174696f6e2f6a736f6e3b6261736536342c00000090528051908185603d850192019161363b92613829565b810103601d81018452603d01613651908461390c565b519181839283528201610dee9161384a565b823461038f57602036600319011261038f576127108235818102929181159184041417156119aa576005549081156136a057602093505191048152f35b601284634e487b7160e01b5f525260245ffd5b90503461038f57602036600319011261038f573563ffffffff60e01b811680910361038f57602091636cdb3d1360e11b821491821561370e575b82156136fd575b50519015158152f35b6301ffc9a760e01b1491505f6136f4565b6303a24d0760e21b811492506136ed565b823461038f578060031936011261038f5760209061373b6137dd565b613743613809565b6001600160a01b039091165f908152600d845282812060ff92831682528452829020549151911615158152f35b823461038f578060031936011261038f57602090610bb761378f6137dd565b60243590613b76565b3461038f57602036600319011261038f573580151580910361038f576137bc613e99565b60ff8019600854169116176008555f80f35b60243590811515820361038f57565b600435906001600160a01b038216820361038f57565b602435906001600160a01b038216820361038f57565b6024359060ff8216820361038f57565b6004359060ff8216820361038f57565b5f5b83811061383a5750505f910152565b818101518382015260200161382b565b9060209161386381518092818552858086019101613829565b601f01601f1916010190565b90600182811c9216801561389d575b602083101461388957565b634e487b7160e01b5f52602260045260245ffd5b91607f169161387e565b602081019081106001600160401b038211176138c257604052565b634e487b7160e01b5f52604160045260245ffd5b604081019081106001600160401b038211176138c257604052565b606081019081106001600160401b038211176138c257604052565b90601f801991011681019081106001600160401b038211176138c257604052565b9060405191825f825461393f8161386f565b908184526020946001916001811690815f146139ad575060011461396f575b50505061396d9250038361390c565b565b5f90815285812095935091905b81831061399557505061396d93508201015f808061395e565b8554888401850152948501948794509183019161397c565b9250505061396d94925060ff191682840152151560051b8201015f808061395e565b9181601f8401121561038f578235916001600160401b03831161038f576020838186019501011161038f57565b6004359061ffff8216820361038f57565b6024359061ffff8216820361038f57565b6001600160401b0381116138c25760051b60200190565b9291613a4082613a1e565b91613a4e604051938461390c565b829481845260208094019160051b810192831161038f57905b828210613a745750505050565b81358152908301908301613a67565b9080601f8301121561038f57816020613a9e93359101613a35565b90565b6001600160401b0381116138c257601f01601f191660200190565b929192613ac882613aa1565b91613ad6604051938461390c565b82948184528183011161038f578281602093845f960137010152565b9080601f8301121561038f57816020613a9e93359101613abc565b9081518082526020808093019301915f5b828110613b2c575050505090565b835185529381019392810192600101613b1e565b3461038f575f36600319011261038f57602060405160018152f35b3461038f575f36600319011261038f57602060405160028152f35b6001600160a01b0316908115613b9e575f525f60205260405f20905f5260205260405f205490565b60405162461bcd60e51b815260206004820152602a60248201527f455243313135353a2061646472657373207a65726f206973206e6f742061207660448201526930b634b21037bbb732b960b11b6064820152608490fd5b908060209392818452848401375f828201840152601f01601f1916010190565b15613c1d57565b60405162461bcd60e51b8152602060048201526013602482015272496e76616c6964207765616c7468207461736b60681b6044820152606490fd5b15613c5f57565b60405162461bcd60e51b815260206004820152600f60248201526e105b1c9958591e4818db185a5b5959608a1b6044820152606490fd5b15613c9d57565b60405162461bcd60e51b815260206004820152600f60248201526e125b9d985b1a59081c1c9bd91d58dd608a1b6044820152606490fd5b91908201809211613ce157565b634e487b7160e01b5f52601160045260245ffd5b61ffff16613d04811515613c96565b6103e8908101809111613ce15790565b15613d1b57565b60405162461bcd60e51b815260206004820152602e60248201527f455243313135353a2063616c6c6572206973206e6f7420746f6b656e206f776e60448201526d195c881bdc88185c1c1c9bdd995960921b6064820152608490fd5b15613d7e57565b60405162461bcd60e51b8152602060048201526013602482015272125b9d985b1a59081858da1a595d995b595b9d606a1b6044820152606490fd5b90613dc382613a1e565b613dd0604051918261390c565b8281528092613de1601f1991613a1e565b0190602036910137565b8051821015613dff5760209160051b010190565b634e487b7160e01b5f52603260045260245ffd5b9190811015613dff5760051b0190565b601754811015613dff5760175f527fc624b66cc0138b8fabc209247f72d758e1cf3343756d543badbf24212bed8c1501905f90565b15613e5f57565b60405162461bcd60e51b8152602060048201526012602482015271496e76616c696420686f6d6520626164676560701b6044820152606490fd5b6003546001600160a01b03163303613ead57565b606460405162461bcd60e51b815260206004820152602060248201527f4f776e61626c653a2063616c6c6572206973206e6f7420746865206f776e65726044820152fd5b60405190613efe826138d6565b601b82527f5269736b4c656e732057616c6c657420436f6c6c65637469626c6500000000006020830152565b6064811180614303575b6141d15760c88111806141c6575b61413e57613f4f81614f8e565b614011576103e8811180614004575b613f9c5750604051613f6f816138d6565b601981527f5269736b4c656e732044656d6f20436f6c6c65637469626c6500000000000000602082015290565b61ffff613fab613fb192615134565b1661534b565b613a9e603a60405180937f5269736b4c656e73205765616c74682052656365697074202d200000000000006020830152613ff48151809260208686019101613829565b810103601a81018452018261390c565b50620103e7811115613f5e565b6006811461410457600781146140ca576008811461409b576009146140695760405161403c816138d6565b601981527f5269736b4c656e732050726f7465637469766520486564676500000000000000602082015290565b604051614075816138d6565b60168152755269736b4c656e732050657270204c6576657261676560501b602082015290565b506040516140a8816138d6565b601281527105269736b4c656e732053706f74204c6f6f760741b602082015290565b506040516140d7816138d6565b601a81527f5269736b4c656e73205061706572204c6561646572626f617264000000000000602082015290565b50604051614111816138d6565b601981527f5269736b4c656e73205061706572204261736520436865636b00000000000000602082015290565b60c7198101908111613ce15760ff1660011461418d57604051614160816138d6565b601f81527f5269736b4c656e73205765616c7468204c6966656379636c6520426164676500602082015290565b604051614199816138d6565b601d81527f5269736b4c656e73205765616c74682052656365697074204261646765000000602082015290565b5060ca811115613f42565b6063198101908111613ce15760ff16600181146142c957600281146142c05760038114614286576004146142435760405161420b816138f1565b602281527f5269736b4c656e73205061706572205072657669657720436f6c6c65637469626020820152616c6560f01b604082015290565b60405161424f816138f1565b602181527f5269736b4c656e732050726f64756374205175697a20436f6c6c65637469626c6020820152606560f81b604082015290565b50604051614293816138d6565b602081527f5269736b4c656e73205269736b2052657669657720436f6c6c65637469626c65602082015290565b50613a9e613ef1565b506040516142d6816138d6565b601c81527f5269736b4c656e732057656c636f6d6520436f6c6c65637469626c6500000000602082015290565b506069811115613f34565b6103e8811180614532575b6144985761432681614f8e565b6144465760c881118061443b575b6143f4576064811190816143e8575b5061439a57604051614354816138f1565b603081527f41205365706f6c696120636f6c6c65637469626c6520666f722074686520526960208201526f39b5a632b739903232b6b790343ab11760811b604082015290565b6040516143a6816138f1565b602c81527f5365706f6c6961206f6e626f617264696e6720636f6c6c65637469626c65206660208201526b37b9102934b9b5a632b7399760a11b604082015290565b6069915011155f614343565b50604051614401816138f1565b602481527f5365706f6c6961205765616c746820776f726b666c6f7720636f6c6c656374696020820152633136329760e11b604082015290565b5060ca811115614334565b50604051614453816138f1565b602f81527f5365706f6c69612070617065722d74726164696e6720616368696576656d656e60208201526e3a103337b9102934b9b5a632b7399760891b604082015290565b61ffff613fab6144a792615134565b613a9e606360405180937f5365706f6c6961205765616c7468207265636569707420666f7220000000000060208301526144eb815180926020603b86019101613829565b81017f2e20536574746c65206f722072656465656d206275726e73206d61746368696e603b8201526733903ab734ba399760c11b605b82015203604381018452018261390c565b50620103e7811115614319565b9061454982613aa1565b614556604051918261390c565b8281528092613de1601f1991613aa1565b908151156146ac576040519161457c836138f1565b604083527f4142434445464748494a4b4c4d4e4f505152535455565758595a61626364656660208401527f6768696a6b6c6d6e6f707172737475767778797a303132333435363738392b2f604084015280519260029160028501809511613ce1576003948590046001600160fe1b0381168103613ce1576146029060029694961b61453f565b9260208401928291835184019760208901928351945f85525b8a811061465f5750505050600393949596505251068060011461464d57600214614643575090565b603d905f19015390565b50603d90815f19820153600119015390565b836004919b989b019a8b51600190603f9082828260121c16870101518453828282600c1c16870101518385015382828260061c16870101518785015316840101518582015301969961461b565b90506040516146ba816138a7565b5f815290565b60648111806147d0575b6147af5760c88111806147a4575b61477c576146e581614f8e565b614752576103e881119081614744575b5061471a57604051614706816138d6565b600481526344656d6f60e01b602082015290565b604051614726816138d6565b600e81526d15d9585b1d1a08149958d95a5c1d60921b602082015290565b620103e7915011155f6146f5565b5060405161475f816138d6565b600d81526c50617065722054726164696e6760981b602082015290565b50604051614789816138d6565b600b81526a5765616c7468205461736b60a81b602082015290565b5060ca8111156146d8565b506040516147bc816138d6565b6004815263486f6d6560e01b602082015290565b5060698111156146ca565b805f917a184f03e93ff9f4daa797ed6e38ed64bf6a1f0100000000000000008082101561490f575b506d04ee2d6d415b85acef810000000080831015614900575b50662386f26fc10000808310156148f1575b506305f5e100808310156148e2575b50612710808310156148d3575b5060648210156148c3575b600a809210156148b9575b6001908160216148726001870161453f565b95860101905b614884575b5050505090565b5f19019083906f181899199a1a9b1b9c1cb0b131b232b360811b8282061a8353049182156148b457919082614878565b61487d565b9160010191614860565b9190606460029104910191614855565b6004919392049101915f61484a565b6008919392049101915f61483d565b6010919392049101915f61482e565b6020919392049101915f61481c565b60409350810491505f614803565b1561492457565b60405162461bcd60e51b815260206004820152600b60248201526a5a65726f2073686172657360a81b6044820152606490fd5b9291909260ff60085416614bdb5761ffff841690614976821515613c96565b6006548310614ba65761498f83956128ac85151561491d565b9260409081519061499f826138a7565b5f82526001600160a01b038416936149b8851515614fa6565b6149c187615d7f565b506149cb82615d7f565b50865f526020925f8452845f20865f528452845f206149eb848254613cd4565b9055855f86518a815285878201525f80516020615da5833981519152883392a4813b614a99575b5090614a5f7f1ce38089da937ff378b753cbad5b85ebccefe73af87b074d88b881b11bccc86a949392865f5260158452845f20885f528452845f20614a58848254613cd4565b9055614c42565b847ff94991dcbea6e8ac439cbc93bd9c62a4d39f04e0ad656df9a703f13552c2787f8480518481528486820152a2825191818352820152a4565b849997959398969451898180614add63f23a6e6160e01b958683523360048401525f60248401528b604484015288606484015260a0608484015260a483019061384a565b03815f895af15f9181614b87575b50614b51578a8a614afa615c7b565b6308c379a014614b1d575b505162461bcd60e51b81528061067e60048201615d03565b614b25615c96565b9081614b315750614b05565b61067e835192839262461bcd60e51b84526004840152602483019061384a565b63ffffffff60e09b96989a9597999b1b1603614b6f57614a5f614a12565b835162461bcd60e51b81528061067e60048201615c32565b614b9f9192508b3d8d1161070a576106fb818361390c565b905f614aeb565b60405162461bcd60e51b815260206004820152600d60248201526c42656c6f77206d696e696d756d60981b6044820152606490fd5b60405162461bcd60e51b815260206004820152601460248201527314dd589cd8dc9a5c1d1a5bdb9cc81c185d5cd95960621b6044820152606490fd5b60ff1660018114908115614c29575090565b600291501490565b60ff1660c8018060c811613ce15790565b6001600160a01b0381165f818152600f60209081526040808320600180855290835292819020805460ff19168417905591938315614dfd5760c95f525f8252825f20845f528252825f205415614c9a575b5050505050565b825190614ca6826138a7565b5f82528351614cb4816138d6565b86815283810190843683375115613dff5760c99052614cd1615d58565b5060c95f525f8352835f20855f528352835f20805490878201809211613ce15755845f855160c9815288868201525f80516020615da5833981519152873392a43b614d48575b5050507fbd1ae2c6d13c1a8dc9dbe03823192cb9ab92b45e5b9264dd65b2794c526e6f9f5f80a35f80808080614c93565b82959391949251858180614d8b63f23a6e6160e01b958683523360048401525f602484015260c9604484015288606484015260a0608484015260a483019061384a565b03815f875af15f9181614dde575b50614da8578686614afa615c7b565b939592945090926001600160e01b03191603614dc757505f8080614d17565b5162461bcd60e51b81528061067e60048201615c32565b614df6919250873d891161070a576106fb818361390c565b905f614d99565b50608491519062461bcd60e51b82526004820152602a60248201527f455243313135353a2061646472657373207a65726f206973206e6f742061207660448201526930b634b21037bbb732b960b11b6064820152fd5b15614e5a57565b60405162461bcd60e51b815260206004820152602860248201527f455243313135353a2069647320616e6420616d6f756e7473206c656e677468206044820152670dad2e6dac2e8c6d60c31b6064820152608490fd5b15614eb757565b60405162461bcd60e51b815260206004820152602560248201527f455243313135353a207472616e7366657220746f20746865207a65726f206164604482015264647265737360d81b6064820152608490fd5b15614f1157565b60405162461bcd60e51b815260206004820152602a60248201527f455243313135353a20696e73756666696369656e742062616c616e636520666f60448201526939103a3930b739b332b960b11b6064820152608490fd5b9091614f80613a9e93604084526040840190613b0d565b916020818403910152613b0d565b60068110159081614f9d575090565b600a9150111590565b15614fad57565b60405162461bcd60e51b815260206004820152602160248201527f455243313135353a206d696e7420746f20746865207a65726f206164647265736044820152607360f81b6064820152608490fd5b91906001600160a01b038316615013811515614fa6565b61501c82615d7f565b50615025615d58565b50815f526020925f8452604094855f20835f528552855f2080549060018201809211613ce15755825f87518681526001888201525f80516020615da5833981519152893392a43b615077575050505050565b926150be5f9286979583975194858094819363f23a6e6160e01b998a845233600485015284602485015260448401526001606484015260a0608484015260a483019061384a565b03925af15f91816150fa575b506150da57505050614afa615c7b565b919392506001600160e01b031990911603614dc757505f80808080614c93565b615112919250853d871161070a576106fb818361390c565b905f6150ca565b60ff166001811015908161512b575090565b60059150111590565b6103e719810191908211613ce157565b91908203918211613ce157565b90929161ffff841690615165821515613c96565b61517081151561491d565b61517a8195613cf5565b926001600160a01b03169081156152fa5761519484615d7f565b5061519e81615d7f565b506040905f82516151ae816138a7565b52845f526020905f8252825f20845f528252825f20548181106152aa5790807f7c7917c3334372c8a1ab0009b4314b5fa722b2ae8bb2603b7195279aeb45a37a949392885f525f8452845f20875f52845203835f20555f85845189815283858201525f80516020615da5833981519152863392a45f835161522e816138a7565b525f858152601583528381208782528352839020548181811061529c5750505f5b855f5260158352835f20875f528352835f2055847ff3a670cd3af7d64b488926880889d08a8585a138ff455227af6737339a1ec2628480518481528486820152a2825191818352820152a4565b6152a591615144565b61524f565b835162461bcd60e51b8152600481018490526024808201527f455243313135353a206275726e20616d6f756e7420657863656564732062616c604482015263616e636560e01b6064820152608490fd5b60405162461bcd60e51b815260206004820152602360248201527f455243313135353a206275726e2066726f6d20746865207a65726f206164647260448201526265737360e81b6064820152608490fd5b61ffff16805f52601660205261536360405f2061392d565b9081516153ba5761537491506147db565b613a9e603060405180936f5765616c74682050726f64756374202360801b60208301526153aa8151809260208686019101613829565b810103601081018452018261390c565b5090565b6103e8811180615528575b6155045760c88111806154f9575b6154d5576153e481614f8e565b6154b1576064811190816154a5575b818061548d575b615468578161544f575b5061542c57604051615415816138d6565b60078152662342364646343360c81b602082015290565b604051615438816138d6565b600781526611a32322189b1b60c91b602082015290565b606319810191508111613ce15760ff166003145f615404565b5050604051615476816138d6565b600781526611a32321199b2160c91b602082015290565b506063198101818111613ce15760ff166004146153fa565b606981111591506153f3565b506040516154be816138d6565b6007815266119b9b209ca32360c91b602082015290565b506040516154e2816138d6565b600781526608cd0e510d90cd60ca1b602082015290565b5060ca8111156153d7565b50604051615511816138d6565b600781526611a19c23231b2160c91b602082015290565b50620103e78111156153c9565b6103e881118061560a575b6155d05760c88111806155c5575b6155995761555b90614f8e565b61556757613a9e613ef1565b604051615573816138d6565b60168152755269736b4c656e732050617065722054726164696e6760501b602082015290565b506040516155a6816138d6565b600f81526e0a4d2e6d698cadce640aecac2d8e8d608b1b602082015290565b5060ca81111561554e565b506040516155dd816138d6565b601781527f5269736b4c656e73205765616c74682052656365697074000000000000000000602082015290565b50620103e7811115615540565b60405190615624826138d6565b60068252650ae8a8298a8960d31b6020830152565b6103e88111806156ba575b6156a65760c88111806156af575b6156a65761565f90614f8e565b6156855760405161566f816138d6565b600681526515d05313115560d21b602082015290565b604051615691816138d6565b60058152642820a822a960d91b602082015290565b50613a9e615617565b5060ca811115615652565b50620103e7811115615644565b6103e88111806159c8575b61596f5760c8811180615964575b6158fa576156ed81614f8e565b615821576064811180615816575b615727575060405161570c816138d6565b600b81526a434f4c4c45435449424c4560a81b602082015290565b6063198101908111613ce15760ff16600181146157f257600281146157ce57600381146157a65760041461577e57604051615761816138d6565b600d81526c5041504552205052455649455760981b602082015290565b60405161578a816138d6565b600c81526b282927a22aa1aa1028aaa4ad60a11b602082015290565b506040516157b3816138d6565b600b81526a5249534b2052455649455760a81b602082015290565b506040516157db816138d6565b600781526610d3d3939150d560ca1b602082015290565b506040516157ff816138d6565b600781526657454c434f4d4560c81b602082015290565b5060698111156156fb565b600681146158d357600781146158ab5760088114615885576009146158615760405161584c816138d6565b6005815264484544474560d81b602082015290565b60405161586d816138d6565b60088152674c4556455241474560c01b602082015290565b50604051615892816138d6565b6009815268053504f54204c4f4f560bc1b602082015290565b506040516158b8816138d6565b600b81526a1311505111549093d0549160aa1b602082015290565b506040516158e0816138d6565b600a8152694241534520434845434b60b01b602082015290565b60c7198101908111613ce15760ff166001036159395760405161591c816138d6565b600d81526c5245434549505420424144474560981b602082015290565b604051615945816138d6565b600f81526e4c4946454359434c4520424144474560881b602082015290565b5060ca8111156156e0565b6103e7198101908111613ce15761ffff61598991166147db565b613a9e602960405180936852454345495054202360b81b60208301526159b88151809260208686019101613829565b810103600981018452018261390c565b50620103e78111156156d2565b6103e8811180615af0575b615ab65760c8811180615aab575b615a71576159fb90614f8e565b615a3857604051615a0b816138d6565b601d81527f4f6e626f617264696e67206d696c6573746f6e65207265636f72646564000000602082015290565b604051615a44816138d6565b601b81527f5265706c617920616368696576656d656e74207265636f726465640000000000602082015290565b50604051615a7e816138d6565b601b81527f576f726b666c6f77206d696c6573746f6e65207265636f726465640000000000602082015290565b5060ca8111156159ee565b50604051615ac3816138d6565b602081527f537562736372697074696f6e207265636569707420736861726573206c697665602082015290565b50620103e78111156159e0565b6103e8811180615c05575b615bcb5760c8811180615bc0575b615b9057615b2390614f8e565b615b5757604051615b33816138d6565b60148152733337b9103a3432902934b9b5a632b73990343ab160611b602082015290565b604051615b63816138d6565b601981527f666f72207468652073696d756c6174696f6e2077616c6c657400000000000000602082015290565b50604051615b9d816138d6565b6013815272666f7220746865205765616c746820666c6f7760681b602082015290565b5060ca811115615b16565b50604051615bd8816138d6565b601781527f696e2074686520636f6e6e65637465642077616c6c6574000000000000000000602082015290565b50620103e7811115615b08565b9081602091031261038f57516001600160e01b03198116810361038f5790565b60809060208152602860208201527f455243313135353a204552433131353552656365697665722072656a656374656040820152676420746f6b656e7360c01b60608201520190565b5f9060033d11615c8757565b905060045f803e5f5160e01c90565b5f60443d10613a9e57604051600319913d83016004833e81516001600160401b03918282113d602484011117615cf257818401948551938411615cfa573d85010160208487010111615cf25750613a9e9291016020019061390c565b949350505050565b50949350505050565b60809060208152603460208201527f455243313135353a207472616e7366657220746f206e6f6e2d455243313135356040820152732932b1b2b4bb32b91034b6b83632b6b2b73a32b960611b60608201520190565b604051615d64816138d6565b60018152602081016020368237815115613dff576001905290565b60405190615d8c826138d6565b60018252602082016020368237825115613dff57529056fec3d58168c5ae7397731d063d5bbf3d657854427343f4c083240f7aacaa2d0f62a2646970667358221220b7477f4e8116280692552c5ca1d8d15ebaf8015d1bfd338628053778da621cf464736f6c63430008180033","opcodes":"PUSH1 0x80 PUSH1 0x40 MSTORE CALLVALUE PUSH3 0x348 JUMPI PUSH3 0x61C0 DUP1 CODESIZE SUB DUP1 PUSH3 0x1D DUP2 PUSH3 0x34C JUMP JUMPDEST SWAP3 DUP4 CODECOPY DUP2 ADD SWAP1 PUSH1 0x20 SWAP2 DUP3 DUP3 DUP3 SUB SLT PUSH3 0x348 JUMPI DUP2 MLOAD PUSH1 0x1 PUSH1 0x1 PUSH1 0x40 SHL SUB SWAP3 DUP4 DUP3 GT PUSH3 0x348 JUMPI ADD SWAP2 PUSH1 0x1F SWAP2 DUP1 DUP4 DUP6 ADD SLT ISZERO PUSH3 0x348 JUMPI DUP4 MLOAD SWAP4 DUP3 DUP6 GT PUSH3 0x320 JUMPI PUSH1 0x1F NOT SWAP5 PUSH3 0x73 DUP6 DUP3 ADD DUP8 AND DUP9 ADD PUSH3 0x34C JUMP JUMPDEST SWAP3 DUP2 DUP5 MSTORE DUP8 DUP3 DUP5 ADD ADD GT PUSH3 0x348 JUMPI DUP7 SWAP2 PUSH0 JUMPDEST DUP3 DUP2 LT PUSH3 0x334 JUMPI POP POP SWAP1 PUSH0 SWAP2 DUP4 ADD ADD MSTORE DUP1 MLOAD SWAP2 DUP3 GT PUSH3 0x320 JUMPI PUSH3 0xAE PUSH1 0x2 SLOAD PUSH3 0x372 JUMP JUMPDEST DUP4 DUP2 GT PUSH3 0x2E4 JUMPI JUMPDEST POP DUP5 SWAP4 DUP4 DUP4 GT PUSH1 0x1 EQ PUSH3 0x281 JUMPI POP SWAP3 DUP2 SWAP3 SWAP4 PUSH0 SWAP3 PUSH3 0x275 JUMPI JUMPDEST POP POP DUP2 PUSH1 0x1 SHL SWAP2 PUSH0 NOT SWAP1 PUSH1 0x3 SHL SHR NOT AND OR PUSH1 0x2 SSTORE JUMPDEST PUSH1 0x3 DUP1 SLOAD CALLER PUSH1 0x1 PUSH1 0x1 PUSH1 0xA0 SHL SUB NOT DUP3 AND DUP2 OR SWAP1 SWAP3 SSTORE PUSH1 0x1 PUSH1 0x1 PUSH1 0xA0 SHL SUB AND PUSH32 0x8BE0079C531659141344CD1FD0A4F28419497F9722A3DAAFE3B4186F6B6457E0 PUSH0 DUP1 LOG3 PUSH1 0x1 PUSH1 0x4 SSTORE PUSH2 0x2710 PUSH1 0x5 SSTORE PUSH4 0x1DCD6500 PUSH1 0x6 SSTORE PUSH3 0x149 PUSH1 0xB SLOAD PUSH3 0x372 JUMP JUMPDEST DUP2 DUP2 GT PUSH3 0x253 JUMPI JUMPDEST POP PUSH32 0x5269736B4C656E7320556E69666965642044656D6F205661756C740000000036 PUSH1 0xB SSTORE PUSH1 0xC SLOAD PUSH3 0x185 SWAP1 PUSH3 0x372 JUMP JUMPDEST DUP2 DUP2 GT PUSH3 0x231 JUMPI JUMPDEST POP PUSH1 0x4 PUSH2 0x1415 PUSH1 0xF2 SHL ADD PUSH1 0xC SSTORE PUSH1 0xA SLOAD PUSH3 0x1A9 SWAP1 PUSH3 0x372 JUMP JUMPDEST SWAP1 DUP1 DUP3 GT PUSH3 0x20F JUMPI JUMPDEST PUSH32 0x44656D6F20726561647900000000000000000000000000000000000000000014 PUSH1 0xA SSTORE PUSH32 0x326AEEA7ABF8A20D2AE5C71811B6E16C6AD80E0128362081EF8DD5AF3774B9C0 PUSH1 0x9 SSTORE TIMESTAMP PUSH1 0x7 SSTORE PUSH1 0x40 MLOAD PUSH2 0x5DFA SWAP1 DUP2 PUSH3 0x3C6 DUP3 CODECOPY RETURN JUMPDEST PUSH3 0x228 SWAP3 PUSH1 0xA PUSH0 MSTORE PUSH0 KECCAK256 SWAP2 ADD PUSH1 0x5 SHR DUP2 ADD SWAP1 PUSH3 0x3AD JUMP JUMPDEST PUSH0 DUP1 DUP1 PUSH3 0x1B3 JUMP JUMPDEST PUSH3 0x24C SWAP1 PUSH1 0xC PUSH0 MSTORE DUP3 DUP5 PUSH0 KECCAK256 SWAP2 ADD PUSH1 0x5 SHR DUP2 ADD SWAP1 PUSH3 0x3AD JUMP JUMPDEST PUSH0 PUSH3 0x18E JUMP JUMPDEST PUSH3 0x26E SWAP1 PUSH1 0xB PUSH0 MSTORE DUP3 DUP5 PUSH0 KECCAK256 SWAP2 ADD PUSH1 0x5 SHR DUP2 ADD SWAP1 PUSH3 0x3AD JUMP JUMPDEST PUSH0 PUSH3 0x152 JUMP JUMPDEST ADD MLOAD SWAP1 POP PUSH0 DUP1 PUSH3 0xD2 JUMP JUMPDEST DUP3 AND SWAP4 PUSH1 0x2 PUSH0 MSTORE DUP6 PUSH0 KECCAK256 SWAP2 PUSH0 JUMPDEST DUP8 DUP8 DUP3 LT PUSH3 0x2CD JUMPI POP POP DUP4 PUSH1 0x1 SWAP6 SWAP7 LT PUSH3 0x2B4 JUMPI JUMPDEST POP POP POP DUP2 SHL ADD PUSH1 0x2 SSTORE PUSH3 0xE7 JUMP JUMPDEST ADD MLOAD PUSH0 NOT PUSH1 0xF8 DUP5 PUSH1 0x3 SHL AND SHR NOT AND SWAP1 SSTORE PUSH0 DUP1 DUP1 PUSH3 0x2A5 JUMP JUMPDEST PUSH1 0x1 DUP5 SWAP6 DUP3 SWAP4 SWAP6 DUP6 ADD MLOAD DUP2 SSTORE ADD SWAP5 ADD SWAP3 ADD PUSH3 0x28E JUMP JUMPDEST PUSH3 0x30F SWAP1 PUSH1 0x2 PUSH0 MSTORE DUP7 PUSH0 KECCAK256 DUP6 DUP1 DUP7 ADD PUSH1 0x5 SHR DUP3 ADD SWAP3 DUP10 DUP8 LT PUSH3 0x316 JUMPI JUMPDEST ADD PUSH1 0x5 SHR ADD SWAP1 PUSH3 0x3AD JUMP JUMPDEST PUSH0 PUSH3 0xB7 JUMP JUMPDEST SWAP3 POP DUP2 SWAP3 PUSH3 0x303 JUMP JUMPDEST PUSH4 0x4E487B71 PUSH1 0xE0 SHL PUSH0 MSTORE PUSH1 0x41 PUSH1 0x4 MSTORE PUSH1 0x24 PUSH0 REVERT JUMPDEST DUP2 DUP2 ADD DUP5 ADD MLOAD DUP6 DUP3 ADD DUP6 ADD MSTORE DUP4 ADD PUSH3 0x86 JUMP JUMPDEST PUSH0 DUP1 REVERT JUMPDEST PUSH1 0x40 MLOAD SWAP2 SWAP1 PUSH1 0x1F ADD PUSH1 0x1F NOT AND DUP3 ADD PUSH1 0x1 PUSH1 0x1 PUSH1 0x40 SHL SUB DUP2 GT DUP4 DUP3 LT OR PUSH3 0x320 JUMPI PUSH1 0x40 MSTORE JUMP JUMPDEST SWAP1 PUSH1 0x1 DUP3 DUP2 SHR SWAP3 AND DUP1 ISZERO PUSH3 0x3A2 JUMPI JUMPDEST PUSH1 0x20 DUP4 LT EQ PUSH3 0x38E JUMPI JUMP JUMPDEST PUSH4 0x4E487B71 PUSH1 0xE0 SHL PUSH0 MSTORE PUSH1 0x22 PUSH1 0x4 MSTORE PUSH1 0x24 PUSH0 REVERT JUMPDEST SWAP2 PUSH1 0x7F AND SWAP2 PUSH3 0x382 JUMP JUMPDEST DUP2 DUP2 LT PUSH3 0x3B9 JUMPI POP POP JUMP JUMPDEST PUSH0 DUP2 SSTORE PUSH1 0x1 ADD PUSH3 0x3AD JUMP INVALID PUSH1 0x40 PUSH1 0x80 DUP2 MSTORE PUSH1 0x4 DUP1 CALLDATASIZE LT ISZERO PUSH2 0x13 JUMPI PUSH0 DUP1 REVERT JUMPDEST PUSH0 CALLDATALOAD PUSH1 0xE0 SHR SWAP1 DUP2 PUSH3 0x9B27AF EQ PUSH2 0x3798 JUMPI DUP2 PUSH3 0xFDD58E EQ PUSH2 0x3770 JUMPI DUP2 PUSH4 0x1B4597D EQ PUSH2 0x371F JUMPI DUP2 PUSH4 0x1FFC9A7 EQ PUSH2 0x36B3 JUMPI DUP2 PUSH4 0x2CEA26B EQ PUSH2 0x3663 JUMPI DUP2 PUSH4 0xE89341C EQ PUSH2 0x2E38 JUMPI DUP2 PUSH4 0xF574BA7 EQ PUSH2 0x2BB7 JUMPI DUP2 PUSH4 0x176DE7A8 EQ PUSH2 0x2B08 JUMPI DUP2 PUSH4 0x176F1CDD EQ PUSH2 0x2A59 JUMPI DUP2 PUSH4 0x179649AD EQ PUSH2 0x29B9 JUMPI DUP2 PUSH4 0x1A2E9996 EQ PUSH2 0x2906 JUMPI DUP2 PUSH4 0x1DE3083D EQ PUSH2 0x28EB JUMPI DUP2 PUSH4 0x218900B4 EQ PUSH2 0x28CD JUMPI DUP2 PUSH4 0x249D39E9 EQ PUSH2 0x28B1 JUMPI DUP2 PUSH4 0x2BAA7521 EQ PUSH2 0x288C JUMPI DUP2 PUSH4 0x2E6F6B1F EQ PUSH2 0x286E JUMPI DUP2 PUSH4 0x2EB2C2D6 EQ PUSH2 0x25D4 JUMPI DUP2 PUSH4 0x2F85874A EQ PUSH2 0x25B6 JUMPI DUP2 PUSH4 0x2FB4E0F9 EQ PUSH2 0x24D5 JUMPI DUP2 PUSH4 0x325116EE EQ PUSH2 0x24BA JUMPI DUP2 PUSH4 0x379607F5 EQ PUSH2 0x244D JUMPI DUP2 PUSH4 0x38E21CCE EQ PUSH2 0x2408 JUMPI DUP2 PUSH4 0x41BE5F64 EQ PUSH2 0x23EA JUMPI DUP2 PUSH4 0x4973FD9A EQ PUSH2 0x23BE JUMPI DUP2 PUSH4 0x4ADB4CC8 EQ PUSH2 0x23A0 JUMPI DUP2 PUSH4 0x4D7C10A7 EQ PUSH2 0x2364 JUMPI DUP2 PUSH4 0x4E1273F4 EQ PUSH2 0x21F8 JUMPI DUP2 PUSH4 0x52163337 EQ PUSH2 0x1F3E JUMPI DUP2 PUSH4 0x55CC0261 EQ PUSH2 0x1D5B JUMPI DUP2 PUSH4 0x57997AA2 EQ PUSH2 0x1D40 JUMPI DUP2 PUSH4 0x60062CD1 EQ PUSH2 0x970 JUMPI DUP2 PUSH4 0x619A1D29 EQ PUSH2 0x1D17 JUMPI DUP2 PUSH4 0x62ABEBCE EQ PUSH2 0x1A85 JUMPI DUP2 PUSH4 0x6961FD46 EQ PUSH2 0x18DC JUMPI DUP2 PUSH4 0x6B3CE2F1 EQ PUSH2 0x1880 JUMPI DUP2 PUSH4 0x6EA17ABD EQ PUSH2 0x1865 JUMPI DUP2 PUSH4 0x715018A6 EQ PUSH2 0x180A JUMPI DUP2 PUSH4 0x7206ABBD EQ PUSH2 0x164F JUMPI DUP2 PUSH4 0x74B3322C EQ PUSH2 0x1605 JUMPI DUP2 PUSH4 0x7CEA070A EQ PUSH2 0x15EA JUMPI DUP2 PUSH4 0x8385F14A EQ PUSH2 0x15CE JUMPI DUP2 PUSH4 0x8530A3BF EQ PUSH2 0x15A4 JUMPI DUP2 PUSH4 0x8909E506 EQ PUSH2 0x12CC JUMPI DUP2 PUSH4 0x8D00BBE5 EQ PUSH2 0x1279 JUMPI DUP2 PUSH4 0x8DA5CB5B EQ PUSH2 0x1251 JUMPI DUP2 PUSH4 0x8F631D54 EQ PUSH2 0x1236 JUMPI DUP2 PUSH4 0x99B49E25 EQ PUSH2 0x11DD JUMPI DUP2 PUSH4 0x9A2AACA1 EQ PUSH2 0x1155 JUMPI DUP2 PUSH4 0xA0BCFC7F EQ PUSH2 0xFD1 JUMPI DUP2 PUSH4 0xA22CB465 EQ PUSH2 0xEF0 JUMPI DUP2 PUSH4 0xAEC45D80 EQ PUSH2 0xE8F JUMPI DUP2 PUSH4 0xB363935C EQ PUSH2 0x413 JUMPI DUP2 PUSH4 0xB5884E20 EQ PUSH2 0xDF2 JUMPI DUP2 PUSH4 0xB7D120D0 EQ PUSH2 0xDA7 JUMPI DUP2 PUSH4 0xB84D93D4 EQ PUSH2 0xD6D JUMPI DUP2 PUSH4 0xC4EBE024 EQ PUSH2 0x734 JUMPI DUP2 PUSH4 0xC8A3C3B5 EQ PUSH2 0xCF7 JUMPI DUP2 PUSH4 0xCAD47192 EQ PUSH2 0x40E JUMPI DUP2 PUSH4 0xCB33BCDB EQ PUSH2 0xCA6 JUMPI DUP2 PUSH4 0xCF22928D EQ PUSH2 0xC83 JUMPI DUP2 PUSH4 0xD28C390A EQ PUSH2 0xC39 JUMPI DUP2 PUSH4 0xD4B0521B EQ PUSH2 0xBBE JUMPI DUP2 PUSH4 0xD92FA2C6 EQ PUSH2 0xB8E JUMPI DUP2 PUSH4 0xDB006A75 EQ PUSH2 0x975 JUMPI DUP2 PUSH4 0xDCB2125B EQ PUSH2 0x970 JUMPI DUP2 PUSH4 0xE985E9C5 EQ PUSH2 0x922 JUMPI DUP2 PUSH4 0xEDA7C56E EQ PUSH2 0x74F JUMPI DUP2 PUSH4 0xEEAA8177 EQ PUSH2 0x734 JUMPI DUP2 PUSH4 0xF242432A EQ PUSH2 0x4F9 JUMPI DUP2 PUSH4 0xF2FDE38B EQ PUSH2 0x42E JUMPI DUP2 PUSH4 0xF4DB8984 EQ PUSH2 0x413 JUMPI DUP2 PUSH4 0xF5952D12 EQ PUSH2 0x40E JUMPI DUP2 PUSH4 0xF68E55C3 EQ PUSH2 0x3AE JUMPI POP DUP1 PUSH4 0xF766DEE4 EQ PUSH2 0x393 JUMPI PUSH4 0xF9569673 EQ PUSH2 0x354 JUMPI PUSH0 DUP1 REVERT JUMPDEST CALLVALUE PUSH2 0x38F JUMPI PUSH1 0x20 CALLDATASIZE PUSH1 0x3 NOT ADD SLT PUSH2 0x38F JUMPI PUSH1 0x20 SWAP1 PUSH1 0x1 PUSH1 0x1 PUSH1 0xA0 SHL SUB PUSH2 0x378 PUSH2 0x37DD JUMP JUMPDEST AND PUSH0 MSTORE PUSH1 0x14 DUP3 MSTORE PUSH1 0xFF DUP2 PUSH0 KECCAK256 SLOAD AND SWAP1 MLOAD SWAP1 ISZERO ISZERO DUP2 MSTORE RETURN JUMPDEST PUSH0 DUP1 REVERT JUMPDEST POP CALLVALUE PUSH2 0x38F JUMPI PUSH0 CALLDATASIZE PUSH1 0x3 NOT ADD SLT PUSH2 0x38F JUMPI PUSH1 0x20 SWAP1 MLOAD PUSH1 0xA DUP2 MSTORE RETURN JUMPDEST SWAP1 POP CALLVALUE PUSH2 0x38F JUMPI PUSH1 0x20 CALLDATASIZE PUSH1 0x3 NOT ADD SLT PUSH2 0x38F JUMPI DUP1 CALLDATALOAD SWAP2 PUSH2 0x3CC PUSH2 0x3E99 JUMP JUMPDEST DUP3 ISZERO PUSH2 0x3D9 JUMPI PUSH1 0x6 DUP4 SWAP1 SSTORE STOP JUMPDEST SWAP1 PUSH1 0x20 PUSH1 0x64 SWAP3 MLOAD SWAP2 PUSH3 0x461BCD PUSH1 0xE5 SHL DUP4 MSTORE DUP3 ADD MSTORE PUSH1 0xF PUSH1 0x24 DUP3 ADD MSTORE PUSH15 0x496E76616C6964206D696E696D756D PUSH1 0x88 SHL PUSH1 0x44 DUP3 ADD MSTORE REVERT JUMPDEST PUSH2 0x3B5B JUMP JUMPDEST DUP3 CALLVALUE PUSH2 0x38F JUMPI PUSH0 CALLDATASIZE PUSH1 0x3 NOT ADD SLT PUSH2 0x38F JUMPI PUSH1 0x20 SWAP1 MLOAD PUSH1 0x6 DUP2 MSTORE RETURN JUMPDEST SWAP1 POP CALLVALUE PUSH2 0x38F JUMPI PUSH1 0x20 CALLDATASIZE PUSH1 0x3 NOT ADD SLT PUSH2 0x38F JUMPI PUSH2 0x449 PUSH2 0x37DD JUMP JUMPDEST SWAP1 PUSH2 0x452 PUSH2 0x3E99 JUMP JUMPDEST PUSH1 0x1 PUSH1 0x1 PUSH1 0xA0 SHL SUB SWAP2 DUP3 AND SWAP3 DUP4 ISZERO PUSH2 0x4A7 JUMPI POP POP PUSH1 0x3 SLOAD DUP3 PUSH12 0xFFFFFFFFFFFFFFFFFFFFFFFF PUSH1 0xA0 SHL DUP3 AND OR PUSH1 0x3 SSTORE AND PUSH32 0x8BE0079C531659141344CD1FD0A4F28419497F9722A3DAAFE3B4186F6B6457E0 PUSH0 DUP1 LOG3 STOP JUMPDEST SWAP1 PUSH1 0x20 PUSH1 0x84 SWAP3 MLOAD SWAP2 PUSH3 0x461BCD PUSH1 0xE5 SHL DUP4 MSTORE DUP3 ADD MSTORE PUSH1 0x26 PUSH1 0x24 DUP3 ADD MSTORE PUSH32 0x4F776E61626C653A206E6577206F776E657220697320746865207A65726F2061 PUSH1 0x44 DUP3 ADD MSTORE PUSH6 0x646472657373 PUSH1 0xD0 SHL PUSH1 0x64 DUP3 ADD MSTORE REVERT JUMPDEST SWAP1 POP CALLVALUE PUSH2 0x38F JUMPI PUSH1 0xA0 CALLDATASIZE PUSH1 0x3 NOT ADD SLT PUSH2 0x38F JUMPI PUSH2 0x514 PUSH2 0x37DD JUMP JUMPDEST SWAP2 PUSH2 0x51D PUSH2 0x37F3 JUMP JUMPDEST SWAP3 PUSH1 0x44 CALLDATALOAD SWAP1 PUSH1 0x64 CALLDATALOAD SWAP1 PUSH1 0x84 CALLDATALOAD PUSH1 0x1 PUSH1 0x1 PUSH1 0x40 SHL SUB DUP2 GT PUSH2 0x38F JUMPI PUSH2 0x544 SWAP1 CALLDATASIZE SWAP1 DUP8 ADD PUSH2 0x3AF2 JUMP JUMPDEST SWAP2 PUSH1 0x1 PUSH1 0x1 PUSH1 0xA0 SHL SUB SWAP2 DUP3 AND SWAP2 CALLER DUP4 EQ DUP1 ISZERO PUSH2 0x711 JUMPI JUMPDEST PUSH2 0x564 SWAP1 PUSH2 0x3D14 JUMP JUMPDEST DUP8 AND PUSH2 0x571 DUP2 ISZERO ISZERO PUSH2 0x4EB0 JUMP JUMPDEST PUSH2 0x57A DUP6 PUSH2 0x5D7F JUMP JUMPDEST POP PUSH2 0x584 DUP3 PUSH2 0x5D7F JUMP JUMPDEST POP DUP5 PUSH0 MSTORE PUSH1 0x20 SWAP8 PUSH0 DUP10 MSTORE DUP7 PUSH0 KECCAK256 DUP5 PUSH0 MSTORE DUP10 MSTORE DUP3 DUP8 PUSH0 KECCAK256 SLOAD PUSH2 0x5A7 DUP3 DUP3 LT ISZERO PUSH2 0x4F0A JUMP JUMPDEST DUP8 PUSH0 MSTORE PUSH0 DUP12 MSTORE DUP9 PUSH0 KECCAK256 DUP7 PUSH0 MSTORE DUP12 MSTORE SUB DUP8 PUSH0 KECCAK256 SSTORE DUP6 PUSH0 MSTORE PUSH0 DUP10 MSTORE DUP7 PUSH0 KECCAK256 DUP3 PUSH0 MSTORE DUP10 MSTORE DUP7 PUSH0 KECCAK256 PUSH2 0x5D6 DUP5 DUP3 SLOAD PUSH2 0x3CD4 JUMP JUMPDEST SWAP1 SSTORE DUP2 DUP5 DUP9 MLOAD DUP9 DUP2 MSTORE DUP6 DUP13 DUP3 ADD MSTORE PUSH0 DUP1 MLOAD PUSH1 0x20 PUSH2 0x5DA5 DUP4 CODECOPY DUP2 MLOAD SWAP2 MSTORE DUP11 CALLER SWAP3 LOG4 EXTCODESIZE PUSH2 0x5FD JUMPI STOP JUMPDEST DUP7 SWAP5 PUSH0 DUP10 SWAP5 PUSH2 0x63F DUP10 MLOAD SWAP8 DUP9 SWAP7 DUP8 SWAP6 DUP7 SWAP5 PUSH4 0xF23A6E61 PUSH1 0xE0 SHL SWAP13 DUP14 DUP8 MSTORE CALLER SWAP1 DUP8 ADD MSTORE PUSH1 0x24 DUP7 ADD MSTORE PUSH1 0x44 DUP6 ADD MSTORE PUSH1 0x64 DUP5 ADD MSTORE PUSH1 0xA0 PUSH1 0x84 DUP5 ADD MSTORE PUSH1 0xA4 DUP4 ADD SWAP1 PUSH2 0x384A JUMP JUMPDEST SUB SWAP3 GAS CALL PUSH0 SWAP2 DUP2 PUSH2 0x6E2 JUMPI JUMPDEST POP PUSH2 0x6B3 JUMPI POP POP PUSH2 0x65A PUSH2 0x5C7B JUMP JUMPDEST PUSH4 0x8C379A0 EQ PUSH2 0x682 JUMPI JUMPDEST MLOAD PUSH3 0x461BCD PUSH1 0xE5 SHL DUP2 MSTORE SWAP2 POP DUP2 SWAP1 PUSH2 0x67E SWAP1 DUP3 ADD PUSH2 0x5D03 JUMP JUMPDEST SUB SWAP1 REVERT JUMPDEST PUSH2 0x68A PUSH2 0x5C96 JUMP JUMPDEST DUP1 PUSH2 0x695 JUMPI POP PUSH2 0x665 JUMP JUMPDEST PUSH2 0x67E SWAP2 MLOAD SWAP4 DUP5 SWAP4 PUSH3 0x461BCD PUSH1 0xE5 SHL DUP6 MSTORE DUP5 ADD MSTORE PUSH1 0x24 DUP4 ADD SWAP1 PUSH2 0x384A JUMP JUMPDEST SWAP2 SWAP4 POP PUSH1 0x1 PUSH1 0x1 PUSH1 0xE0 SHL SUB NOT SWAP1 SWAP2 AND SUB PUSH2 0x6C9 JUMPI STOP JUMPDEST SWAP1 MLOAD PUSH3 0x461BCD PUSH1 0xE5 SHL DUP2 MSTORE SWAP1 DUP2 SWAP1 PUSH2 0x67E SWAP1 DUP3 ADD PUSH2 0x5C32 JUMP JUMPDEST PUSH2 0x703 SWAP2 SWAP3 POP DUP7 RETURNDATASIZE DUP9 GT PUSH2 0x70A JUMPI JUMPDEST PUSH2 0x6FB DUP2 DUP4 PUSH2 0x390C JUMP JUMPDEST DUP2 ADD SWAP1 PUSH2 0x5C12 JUMP JUMPDEST SWAP1 PUSH0 PUSH2 0x64B JUMP JUMPDEST POP RETURNDATASIZE PUSH2 0x6F1 JUMP JUMPDEST POP DUP3 PUSH0 MSTORE PUSH1 0x1 PUSH1 0x20 MSTORE DUP6 PUSH0 KECCAK256 CALLER PUSH0 MSTORE PUSH1 0x20 MSTORE PUSH2 0x564 PUSH1 0xFF DUP8 PUSH0 KECCAK256 SLOAD AND SWAP1 POP PUSH2 0x55B JUMP JUMPDEST DUP3 CALLVALUE PUSH2 0x38F JUMPI PUSH0 CALLDATASIZE PUSH1 0x3 NOT ADD SLT PUSH2 0x38F JUMPI PUSH1 0x20 SWAP1 MLOAD PUSH1 0x3 DUP2 MSTORE RETURN JUMPDEST SWAP1 POP CALLVALUE PUSH2 0x38F JUMPI DUP2 PUSH1 0x3 NOT CALLDATASIZE ADD SLT PUSH2 0x38F JUMPI PUSH2 0x769 PUSH2 0x39FC JUMP JUMPDEST PUSH1 0x1 PUSH1 0x1 PUSH1 0x40 SHL SUB SWAP2 PUSH1 0x24 CALLDATALOAD SWAP2 DUP4 DUP4 GT PUSH2 0x38F JUMPI PUSH2 0x78D PUSH2 0xFFFF SWAP4 CALLDATASIZE SWAP1 DUP5 ADD PUSH2 0x39CF JUMP JUMPDEST SWAP4 SWAP1 SWAP2 PUSH2 0x798 PUSH2 0x3E99 JUMP JUMPDEST AND SWAP4 PUSH2 0x7A5 DUP6 ISZERO ISZERO PUSH2 0x3C96 JUMP JUMPDEST DUP5 PUSH0 MSTORE PUSH1 0x20 SWAP3 PUSH1 0x16 DUP5 MSTORE DUP7 PUSH0 KECCAK256 SWAP2 DUP6 GT PUSH2 0x90F JUMPI POP PUSH2 0x7C4 DUP2 SLOAD PUSH2 0x386F JUMP JUMPDEST PUSH1 0x1F DUP2 GT PUSH2 0x8CC JUMPI JUMPDEST POP PUSH0 PUSH1 0x1F DUP6 GT PUSH1 0x1 EQ PUSH2 0x844 JUMPI SWAP6 PUSH2 0x834 SWAP3 SWAP2 PUSH2 0x822 DUP7 DUP1 PUSH32 0x866AAB14C7F7439FA866F885F22E8A9FCE19F006D3956137B07F4284346BAC9C SWAP10 SWAP11 PUSH0 SWAP2 PUSH2 0x839 JUMPI JUMPDEST POP DUP2 PUSH1 0x1 SHL SWAP2 PUSH0 NOT SWAP1 PUSH1 0x3 SHL SHR NOT AND OR SWAP1 JUMP JUMPDEST SWAP1 SSTORE JUMPDEST MLOAD SWAP4 DUP4 DUP6 SWAP5 DUP6 MSTORE DUP5 ADD SWAP2 PUSH2 0x3BF6 JUMP JUMPDEST SUB SWAP1 LOG2 STOP JUMPDEST SWAP1 POP DUP6 ADD CALLDATALOAD PUSH0 PUSH2 0x80F JUMP JUMPDEST PUSH1 0x1F NOT DUP6 AND SWAP1 DUP3 PUSH0 MSTORE DUP5 PUSH0 KECCAK256 SWAP2 PUSH0 JUMPDEST DUP2 DUP2 LT PUSH2 0x8B5 JUMPI POP SWAP2 PUSH2 0x834 SWAP5 SWAP4 SWAP2 DUP8 PUSH32 0x866AAB14C7F7439FA866F885F22E8A9FCE19F006D3956137B07F4284346BAC9C SWAP10 SWAP11 SWAP5 LT PUSH2 0x89C JUMPI JUMPDEST POP POP PUSH1 0x1 DUP7 DUP2 SHL ADD SWAP1 SSTORE PUSH2 0x825 JUMP JUMPDEST DUP5 ADD CALLDATALOAD PUSH0 NOT PUSH1 0x3 DUP10 SWAP1 SHL PUSH1 0xF8 AND SHR NOT AND SWAP1 SSTORE PUSH0 DUP1 PUSH2 0x88D JUMP JUMPDEST SWAP2 SWAP3 DUP7 PUSH1 0x1 DUP2 SWAP3 DUP7 DUP10 ADD CALLDATALOAD DUP2 SSTORE ADD SWAP5 ADD SWAP3 ADD PUSH2 0x853 JUMP JUMPDEST DUP2 PUSH0 MSTORE DUP4 PUSH0 KECCAK256 PUSH1 0x1F DUP7 ADD PUSH1 0x5 SHR DUP2 ADD SWAP2 DUP6 DUP8 LT PUSH2 0x905 JUMPI JUMPDEST PUSH1 0x1F ADD PUSH1 0x5 SHR ADD SWAP1 JUMPDEST DUP2 DUP2 LT PUSH2 0x8FA JUMPI POP PUSH2 0x7CD JUMP JUMPDEST PUSH0 DUP2 SSTORE PUSH1 0x1 ADD PUSH2 0x8ED JUMP JUMPDEST SWAP1 SWAP2 POP DUP2 SWAP1 PUSH2 0x8E4 JUMP JUMPDEST PUSH1 0x41 SWAP1 PUSH4 0x4E487B71 PUSH1 0xE0 SHL PUSH0 MSTORE MSTORE PUSH1 0x24 PUSH0 REVERT JUMPDEST DUP3 CALLVALUE PUSH2 0x38F JUMPI DUP1 PUSH1 0x3 NOT CALLDATASIZE ADD SLT PUSH2 0x38F JUMPI PUSH1 0x20 SWAP1 PUSH2 0x93E PUSH2 0x37DD JUMP JUMPDEST PUSH2 0x946 PUSH2 0x37F3 JUMP JUMPDEST SWAP1 PUSH1 0x1 DUP1 PUSH1 0xA0 SHL SUB DUP1 SWAP2 AND PUSH0 MSTORE PUSH1 0x1 DUP5 MSTORE DUP3 PUSH0 KECCAK256 SWAP2 AND PUSH0 MSTORE DUP3 MSTORE PUSH1 0xFF DUP2 PUSH0 KECCAK256 SLOAD AND SWAP1 MLOAD SWAP1 ISZERO ISZERO DUP2 MSTORE RETURN JUMPDEST PUSH2 0x3B40 JUMP JUMPDEST SWAP1 POP CALLVALUE PUSH2 0x38F JUMPI PUSH1 0x20 SWAP2 DUP3 PUSH1 0x3 NOT CALLDATASIZE ADD SLT PUSH2 0x38F JUMPI DUP2 CALLDATALOAD SWAP2 PUSH2 0x998 DUP4 ISZERO ISZERO PUSH2 0x491D JUMP JUMPDEST CALLER ISZERO PUSH2 0xB41 JUMPI DUP2 MLOAD SWAP1 PUSH2 0x9AA DUP3 PUSH2 0x38D6 JUMP JUMPDEST PUSH1 0x1 DUP3 MSTORE DUP5 DUP3 ADD SWAP2 DUP6 CALLDATASIZE DUP5 CALLDATACOPY MLOAD ISZERO PUSH2 0xB2E JUMPI PUSH2 0x3E9 DUP1 SWAP3 MSTORE PUSH2 0x9CB DUP5 PUSH2 0x5D7F JUMP JUMPDEST POP PUSH0 DUP4 MLOAD PUSH2 0x9D8 DUP2 PUSH2 0x38A7 JUMP JUMPDEST MSTORE DUP2 PUSH0 MSTORE PUSH0 DUP6 MSTORE DUP3 PUSH0 KECCAK256 CALLER PUSH0 MSTORE DUP6 MSTORE DUP3 PUSH0 KECCAK256 SLOAD SWAP1 DUP5 DUP3 LT PUSH2 0xADF JUMPI POP DUP4 SWAP1 DUP3 PUSH0 MSTORE PUSH0 DUP7 MSTORE DUP4 PUSH0 KECCAK256 CALLER PUSH0 MSTORE DUP7 MSTORE SUB DUP3 PUSH0 KECCAK256 SSTORE PUSH0 DUP3 MLOAD DUP3 DUP2 MSTORE DUP5 DUP7 DUP3 ADD MSTORE CALLER SWAP1 PUSH0 DUP1 MLOAD PUSH1 0x20 PUSH2 0x5DA5 DUP4 CODECOPY DUP2 MLOAD SWAP2 MSTORE DUP6 CALLER SWAP3 LOG4 PUSH0 DUP3 MLOAD PUSH2 0xA34 DUP2 PUSH2 0x38A7 JUMP JUMPDEST MSTORE CALLER PUSH0 SWAP1 DUP2 MSTORE PUSH1 0x15 DUP6 MSTORE DUP3 DUP2 KECCAK256 PUSH1 0x1 DUP3 MSTORE DUP6 MSTORE DUP3 SWAP1 KECCAK256 SLOAD DUP4 DUP2 DUP2 LT PUSH2 0xAD1 JUMPI POP POP PUSH0 JUMPDEST CALLER PUSH0 MSTORE PUSH1 0x15 DUP6 MSTORE DUP3 PUSH0 KECCAK256 PUSH1 0x1 PUSH0 MSTORE DUP6 MSTORE DUP3 PUSH0 KECCAK256 SSTORE DUP2 MLOAD DUP4 DUP2 MSTORE DUP4 DUP6 DUP3 ADD MSTORE PUSH32 0xF3A670CD3AF7D64B488926880889D08A8585A138FF455227AF6737339A1EC262 DUP4 CALLER SWAP3 LOG2 PUSH1 0x1 DUP3 MLOAD DUP5 DUP2 MSTORE DUP5 DUP7 DUP3 ADD MSTORE PUSH32 0x7C7917C3334372C8A1AB0009B4314B5FA722B2AE8BB2603B7195279AEB45A37A DUP5 CALLER SWAP3 LOG4 MLOAD SWAP1 DUP2 MSTORE RETURN JUMPDEST PUSH2 0xADA SWAP2 PUSH2 0x5144 JUMP JUMPDEST PUSH2 0xA57 JUMP JUMPDEST DUP4 MLOAD PUSH3 0x461BCD PUSH1 0xE5 SHL DUP2 MSTORE SWAP1 DUP2 ADD DUP7 SWAP1 MSTORE PUSH1 0x24 DUP1 DUP3 ADD MSTORE PUSH32 0x455243313135353A206275726E20616D6F756E7420657863656564732062616C PUSH1 0x44 DUP3 ADD MSTORE PUSH4 0x616E6365 PUSH1 0xE0 SHL PUSH1 0x64 DUP3 ADD MSTORE PUSH1 0x84 SWAP1 REVERT JUMPDEST PUSH1 0x32 SWAP1 PUSH4 0x4E487B71 PUSH1 0xE0 SHL PUSH0 MSTORE MSTORE PUSH1 0x24 PUSH0 REVERT JUMPDEST DUP4 PUSH1 0x84 SWAP3 MLOAD SWAP2 PUSH3 0x461BCD PUSH1 0xE5 SHL DUP4 MSTORE DUP3 ADD MSTORE PUSH1 0x23 PUSH1 0x24 DUP3 ADD MSTORE PUSH32 0x455243313135353A206275726E2066726F6D20746865207A65726F2061646472 PUSH1 0x44 DUP3 ADD MSTORE PUSH3 0x657373 PUSH1 0xE8 SHL PUSH1 0x64 DUP3 ADD MSTORE REVERT JUMPDEST DUP3 CALLVALUE PUSH2 0x38F JUMPI DUP1 PUSH1 0x3 NOT CALLDATASIZE ADD SLT PUSH2 0x38F JUMPI PUSH1 0x20 SWAP1 PUSH2 0xBB7 PUSH2 0xBAD PUSH2 0x39FC JUMP JUMPDEST PUSH1 0x24 CALLDATALOAD SWAP1 CALLER PUSH2 0x5151 JUMP JUMPDEST SWAP1 MLOAD SWAP1 DUP2 MSTORE RETURN JUMPDEST SWAP1 POP CALLVALUE PUSH2 0x38F JUMPI PUSH1 0x20 CALLDATASIZE PUSH1 0x3 NOT ADD SLT PUSH2 0x38F JUMPI DUP1 CALLDATALOAD SWAP1 PUSH1 0x17 SLOAD DUP3 LT ISZERO PUSH2 0xC00 JUMPI PUSH1 0x20 DUP4 PUSH2 0xBEA DUP5 PUSH2 0x3E23 JUMP JUMPDEST SWAP1 SLOAD SWAP2 MLOAD SWAP2 PUSH1 0x1 DUP1 PUSH1 0xA0 SHL SUB SWAP2 PUSH1 0x3 SHL SHR AND DUP2 MSTORE RETURN JUMPDEST PUSH1 0x64 SWAP1 PUSH1 0x20 DUP5 MLOAD SWAP2 PUSH3 0x461BCD PUSH1 0xE5 SHL DUP4 MSTORE DUP3 ADD MSTORE PUSH1 0x13 PUSH1 0x24 DUP3 ADD MSTORE PUSH19 0x496E646578206F7574206F6620626F756E6473 PUSH1 0x68 SHL PUSH1 0x44 DUP3 ADD MSTORE REVERT JUMPDEST SWAP1 POP CALLVALUE PUSH2 0x38F JUMPI PUSH1 0x20 CALLDATASIZE PUSH1 0x3 NOT ADD SLT PUSH2 0x38F JUMPI PUSH1 0x5 SLOAD DUP2 CALLDATALOAD DUP2 DUP2 MUL SWAP3 SWAP2 DUP2 ISZERO SWAP2 DUP5 DIV EQ OR ISZERO PUSH2 0xC70 JUMPI POP PUSH2 0x2710 PUSH1 0x20 SWAP3 MLOAD SWAP2 DIV DUP2 MSTORE RETURN JUMPDEST PUSH1 0x11 SWAP1 PUSH4 0x4E487B71 PUSH1 0xE0 SHL PUSH0 MSTORE MSTORE PUSH1 0x24 PUSH0 REVERT JUMPDEST DUP3 CALLVALUE PUSH2 0x38F JUMPI PUSH0 CALLDATASIZE PUSH1 0x3 NOT ADD SLT PUSH2 0x38F JUMPI PUSH1 0x20 SWAP1 PUSH1 0xFF PUSH1 0x8 SLOAD AND SWAP1 MLOAD SWAP1 ISZERO ISZERO DUP2 MSTORE RETURN JUMPDEST DUP3 CALLVALUE PUSH2 0x38F JUMPI DUP1 PUSH1 0x3 NOT CALLDATASIZE ADD SLT PUSH2 0x38F JUMPI PUSH1 0x20 SWAP1 PUSH2 0xCC2 PUSH2 0x37DD JUMP JUMPDEST PUSH2 0xCCA PUSH2 0x3809 JUMP JUMPDEST PUSH1 0x1 PUSH1 0x1 PUSH1 0xA0 SHL SUB SWAP1 SWAP2 AND PUSH0 SWAP1 DUP2 MSTORE PUSH1 0xF DUP5 MSTORE DUP3 DUP2 KECCAK256 PUSH1 0xFF SWAP3 DUP4 AND DUP3 MSTORE DUP5 MSTORE DUP3 SWAP1 KECCAK256 SLOAD SWAP2 MLOAD SWAP2 AND ISZERO ISZERO DUP2 MSTORE RETURN JUMPDEST DUP3 CALLVALUE PUSH2 0x38F JUMPI PUSH1 0x20 CALLDATASIZE PUSH1 0x3 NOT ADD SLT PUSH2 0x38F JUMPI PUSH1 0xE0 SWAP2 PUSH1 0x1 PUSH1 0x1 PUSH1 0xA0 SHL SUB PUSH2 0xD1C PUSH2 0x37DD JUMP JUMPDEST AND PUSH0 MSTORE PUSH1 0x13 PUSH1 0x20 MSTORE DUP2 PUSH0 KECCAK256 DUP1 SLOAD SWAP3 PUSH1 0x1 DUP3 ADD SLOAD SWAP3 PUSH1 0x2 DUP4 ADD SLOAD PUSH1 0x3 DUP5 ADD SLOAD SWAP2 DUP5 ADD SLOAD SWAP3 PUSH1 0x6 PUSH1 0x5 DUP7 ADD SLOAD SWAP6 ADD SLOAD SWAP6 DUP2 MLOAD SWAP8 DUP9 MSTORE PUSH1 0x20 DUP9 ADD MSTORE DUP7 ADD MSTORE PUSH1 0x60 DUP6 ADD MSTORE PUSH1 0x80 DUP5 ADD MSTORE PUSH1 0xA0 DUP4 ADD MSTORE PUSH1 0xC0 DUP3 ADD MSTORE RETURN JUMPDEST DUP3 CALLVALUE PUSH2 0x38F JUMPI PUSH1 0x20 CALLDATASIZE PUSH1 0x3 NOT ADD SLT PUSH2 0x38F JUMPI PUSH1 0x20 SWAP1 PUSH1 0x1 PUSH1 0x1 PUSH1 0xA0 SHL SUB PUSH2 0xD92 PUSH2 0x37DD JUMP JUMPDEST AND PUSH0 MSTORE PUSH1 0x11 DUP3 MSTORE PUSH1 0xFF DUP2 PUSH0 KECCAK256 SLOAD AND SWAP1 MLOAD SWAP1 DUP2 MSTORE RETURN JUMPDEST DUP3 CALLVALUE PUSH2 0x38F JUMPI PUSH1 0x20 CALLDATASIZE PUSH1 0x3 NOT ADD SLT PUSH2 0x38F JUMPI PUSH2 0xDEE SWAP1 PUSH2 0xFFFF PUSH2 0xDC8 PUSH2 0x39FC JUMP JUMPDEST AND PUSH0 MSTORE PUSH1 0x16 PUSH1 0x20 MSTORE PUSH2 0xDDB DUP2 PUSH0 KECCAK256 PUSH2 0x392D JUMP JUMPDEST SWAP1 MLOAD SWAP2 DUP3 SWAP2 PUSH1 0x20 DUP4 MSTORE PUSH1 0x20 DUP4 ADD SWAP1 PUSH2 0x384A JUMP JUMPDEST SUB SWAP1 RETURN JUMPDEST DUP3 CALLVALUE PUSH2 0x38F JUMPI PUSH1 0x60 CALLDATASIZE PUSH1 0x3 NOT ADD SLT PUSH2 0x38F JUMPI PUSH2 0xE0C PUSH2 0x37DD JUMP JUMPDEST SWAP1 PUSH2 0xE15 PUSH2 0x37CE JUMP JUMPDEST PUSH1 0x44 CALLDATALOAD SWAP3 PUSH1 0xFF DUP5 AND DUP1 SWAP5 SUB PUSH2 0x38F JUMPI PUSH32 0xA0AA2B85DF88566521DAA2AC1EB0694994372F9F1E64A41307F9D06A571F9212 SWAP2 PUSH1 0x20 SWAP2 PUSH2 0xE51 PUSH2 0x3E99 JUMP JUMPDEST PUSH1 0x1 PUSH1 0x1 PUSH1 0xA0 SHL SUB AND PUSH0 DUP2 DUP2 MSTORE PUSH1 0x10 DUP5 MSTORE DUP6 SWAP1 KECCAK256 DUP1 SLOAD PUSH1 0xFF NOT AND PUSH1 0xFF DUP5 ISZERO ISZERO AND OR SWAP1 SSTORE SWAP4 PUSH1 0x11 DUP4 MSTORE DUP1 PUSH0 KECCAK256 DUP7 PUSH1 0xFF NOT DUP3 SLOAD AND OR SWAP1 SSTORE MLOAD SWAP1 ISZERO ISZERO DUP2 MSTORE LOG3 STOP JUMPDEST DUP3 CALLVALUE PUSH2 0x38F JUMPI DUP1 PUSH1 0x3 NOT CALLDATASIZE ADD SLT PUSH2 0x38F JUMPI PUSH1 0x20 SWAP1 PUSH2 0xEAB PUSH2 0x37DD JUMP JUMPDEST PUSH2 0xEB3 PUSH2 0x3809 JUMP JUMPDEST SWAP1 PUSH2 0xEC5 PUSH2 0xEC0 DUP4 PUSH2 0x4C17 JUMP JUMPDEST PUSH2 0x3C16 JUMP JUMPDEST PUSH1 0x1 PUSH1 0x1 PUSH1 0xA0 SHL SUB AND PUSH0 SWAP1 DUP2 MSTORE PUSH1 0xF DUP5 MSTORE DUP3 DUP2 KECCAK256 PUSH1 0xFF SWAP3 DUP4 AND DUP3 MSTORE DUP5 MSTORE DUP3 SWAP1 KECCAK256 SLOAD SWAP2 MLOAD SWAP2 AND ISZERO ISZERO DUP2 MSTORE RETURN JUMPDEST DUP3 CALLVALUE PUSH2 0x38F JUMPI DUP1 PUSH1 0x3 NOT CALLDATASIZE ADD SLT PUSH2 0x38F JUMPI PUSH2 0xF09 PUSH2 0x37DD JUMP JUMPDEST SWAP1 PUSH2 0xF12 PUSH2 0x37CE JUMP JUMPDEST PUSH1 0x1 PUSH1 0x1 PUSH1 0xA0 SHL SUB SWAP1 SWAP3 AND SWAP3 CALLER DUP5 EQ PUSH2 0xF7D JUMPI POP CALLER PUSH0 MSTORE PUSH1 0x1 PUSH1 0x20 MSTORE DUP1 PUSH0 KECCAK256 DUP4 PUSH0 MSTORE PUSH1 0x20 MSTORE PUSH2 0xF4F DUP3 DUP3 PUSH0 KECCAK256 SWAP1 PUSH1 0xFF DUP1 NOT DUP4 SLOAD AND SWAP2 ISZERO ISZERO AND OR SWAP1 SSTORE JUMP JUMPDEST MLOAD SWAP1 ISZERO ISZERO DUP2 MSTORE PUSH32 0x17307EAB39AB6107E8899845AD3D59BD9653F200F220920489CA2B5937696C31 PUSH1 0x20 CALLER SWAP3 LOG3 STOP JUMPDEST PUSH1 0x20 PUSH1 0x84 SWAP3 MLOAD SWAP2 PUSH3 0x461BCD PUSH1 0xE5 SHL DUP4 MSTORE DUP3 ADD MSTORE PUSH1 0x29 PUSH1 0x24 DUP3 ADD MSTORE PUSH32 0x455243313135353A2073657474696E6720617070726F76616C20737461747573 PUSH1 0x44 DUP3 ADD MSTORE PUSH9 0x103337B91039B2B633 PUSH1 0xB9 SHL PUSH1 0x64 DUP3 ADD MSTORE REVERT JUMPDEST CALLVALUE PUSH2 0x38F JUMPI PUSH1 0x20 DUP1 PUSH1 0x3 NOT CALLDATASIZE ADD SLT PUSH2 0x38F JUMPI PUSH1 0x1 PUSH1 0x1 PUSH1 0x40 SHL SUB SWAP1 DUP3 CALLDATALOAD DUP3 DUP2 GT PUSH2 0x38F JUMPI PUSH2 0x1005 PUSH2 0x1014 SWAP2 CALLDATASIZE SWAP1 DUP7 ADD PUSH2 0x39CF JUMP JUMPDEST PUSH2 0x100D PUSH2 0x3E99 JUMP JUMPDEST CALLDATASIZE SWAP2 PUSH2 0x3ABC JUMP JUMPDEST SWAP3 DUP4 MLOAD SWAP3 DUP4 GT PUSH2 0x90F JUMPI POP PUSH2 0x102A PUSH1 0x2 SLOAD PUSH2 0x386F JUMP JUMPDEST PUSH1 0x1F DUP2 GT PUSH2 0x10F2 JUMPI JUMPDEST POP PUSH1 0x20 SWAP1 PUSH1 0x1F DUP4 GT PUSH1 0x1 EQ PUSH2 0x1074 JUMPI POP DUP2 SWAP1 PUSH2 0x1064 SWAP4 PUSH0 SWAP3 PUSH2 0x1069 JUMPI JUMPDEST POP POP DUP2 PUSH1 0x1 SHL SWAP2 PUSH0 NOT SWAP1 PUSH1 0x3 SHL SHR NOT AND OR SWAP1 JUMP JUMPDEST PUSH1 0x2 SSTORE STOP JUMPDEST ADD MLOAD SWAP1 POP DUP4 DUP1 PUSH2 0x1050 JUMP JUMPDEST SWAP1 PUSH1 0x1F NOT DUP4 AND SWAP4 PUSH1 0x2 PUSH0 MSTORE PUSH32 0x405787FA12A823E0F2B7631CC41B3BA8828B3321CA811111FA75CD3AA3BB5ACE SWAP3 PUSH0 SWAP1 JUMPDEST DUP7 DUP3 LT PUSH2 0x10DA JUMPI POP POP DUP4 PUSH1 0x1 SWAP6 LT PUSH2 0x10C2 JUMPI JUMPDEST POP POP POP DUP2 SHL ADD PUSH1 0x2 SSTORE STOP JUMPDEST ADD MLOAD PUSH0 NOT PUSH1 0xF8 DUP5 PUSH1 0x3 SHL AND SHR NOT AND SWAP1 SSTORE DUP3 DUP1 DUP1 PUSH2 0x10B7 JUMP JUMPDEST DUP1 PUSH1 0x1 DUP6 SWAP7 DUP3 SWAP5 SWAP7 DUP7 ADD MLOAD DUP2 SSTORE ADD SWAP6 ADD SWAP4 ADD SWAP1 PUSH2 0x10A4 JUMP JUMPDEST PUSH1 0x2 PUSH0 MSTORE PUSH32 0x405787FA12A823E0F2B7631CC41B3BA8828B3321CA811111FA75CD3AA3BB5ACE PUSH1 0x1F DUP5 ADD PUSH1 0x5 SHR DUP2 ADD SWAP2 PUSH1 0x20 DUP6 LT PUSH2 0x114B JUMPI JUMPDEST PUSH1 0x1F ADD PUSH1 0x5 SHR ADD SWAP1 JUMPDEST DUP2 DUP2 LT PUSH2 0x1140 JUMPI POP PUSH2 0x1033 JUMP JUMPDEST PUSH0 DUP2 SSTORE PUSH1 0x1 ADD PUSH2 0x1133 JUMP JUMPDEST SWAP1 SWAP2 POP DUP2 SWAP1 PUSH2 0x112A JUMP JUMPDEST DUP3 CALLVALUE PUSH2 0x38F JUMPI PUSH1 0x20 CALLDATASIZE PUSH1 0x3 NOT ADD SLT PUSH2 0x38F JUMPI DUP2 CALLDATALOAD PUSH2 0x1171 PUSH2 0x3E99 JUMP JUMPDEST DUP1 ISZERO PUSH2 0x11AC JUMPI PUSH32 0x1E1223C1F6274C6D64FDB08C485E192BD2896C9ABF70E840E199AC1F54D6D1D5 SWAP3 POP DUP1 PUSH1 0x5 SSTORE DUP2 MLOAD SWAP1 DUP2 MSTORE TIMESTAMP PUSH1 0x20 DUP3 ADD MSTORE LOG1 STOP JUMPDEST DUP2 MLOAD PUSH3 0x461BCD PUSH1 0xE5 SHL DUP2 MSTORE PUSH1 0x20 DUP2 DUP6 ADD MSTORE PUSH1 0xB PUSH1 0x24 DUP3 ADD MSTORE PUSH11 0x24B73B30B634B2102720AB PUSH1 0xA9 SHL PUSH1 0x44 DUP3 ADD MSTORE PUSH1 0x64 SWAP1 REVERT JUMPDEST DUP3 CALLVALUE PUSH2 0x38F JUMPI PUSH1 0x20 CALLDATASIZE PUSH1 0x3 NOT ADD SLT PUSH2 0x38F JUMPI PUSH1 0x20 SWAP1 PUSH1 0x1 PUSH1 0x1 PUSH1 0xA0 SHL SUB PUSH2 0x1202 PUSH2 0x37DD JUMP JUMPDEST AND PUSH0 MSTORE PUSH1 0x10 DUP3 MSTORE PUSH1 0xFF DUP2 PUSH0 KECCAK256 SLOAD AND SWAP1 DUP2 PUSH2 0x121F JUMPI JUMPDEST MLOAD SWAP1 ISZERO ISZERO DUP2 MSTORE RETURN JUMPDEST SWAP1 POP PUSH1 0x11 DUP3 MSTORE PUSH1 0x2 PUSH1 0xFF DUP3 PUSH0 KECCAK256 SLOAD AND LT ISZERO SWAP1 PUSH2 0x1217 JUMP JUMPDEST SWAP1 POP CALLVALUE PUSH2 0x38F JUMPI PUSH0 CALLDATASIZE PUSH1 0x3 NOT ADD SLT PUSH2 0x38F JUMPI PUSH1 0x20 SWAP2 MLOAD SWAP1 DUP2 MSTORE RETURN JUMPDEST DUP3 CALLVALUE PUSH2 0x38F JUMPI PUSH0 CALLDATASIZE PUSH1 0x3 NOT ADD SLT PUSH2 0x38F JUMPI PUSH1 0x3 SLOAD SWAP1 MLOAD PUSH1 0x1 PUSH1 0x1 PUSH1 0xA0 SHL SUB SWAP1 SWAP2 AND DUP2 MSTORE PUSH1 0x20 SWAP1 RETURN JUMPDEST DUP3 CALLVALUE PUSH2 0x38F JUMPI PUSH1 0x20 CALLDATASIZE PUSH1 0x3 NOT ADD SLT PUSH2 0x38F JUMPI PUSH32 0x181F92F68826A8D2B5B97D27F9E18D05A337290356FABF5B717154077DBEA933 SWAP2 CALLDATALOAD PUSH2 0x12B6 PUSH2 0x3E99 JUMP JUMPDEST DUP1 PUSH1 0x9 SSTORE TIMESTAMP PUSH1 0x7 SSTORE DUP2 MLOAD SWAP1 DUP2 MSTORE TIMESTAMP PUSH1 0x20 DUP3 ADD MSTORE LOG1 STOP JUMPDEST SWAP1 POP CALLVALUE PUSH2 0x38F JUMPI PUSH1 0x80 CALLDATASIZE PUSH1 0x3 NOT ADD SLT PUSH2 0x38F JUMPI PUSH2 0x12E7 PUSH2 0x39FC JUMP JUMPDEST SWAP1 PUSH2 0x12F0 PUSH2 0x3A0D JUMP JUMPDEST PUSH0 SWAP2 SWAP1 PUSH1 0x44 CALLDATALOAD PUSH1 0x64 CALLDATALOAD PUSH2 0x1304 DUP3 DUP8 CALLER PUSH2 0x5151 JUMP JUMPDEST SWAP6 PUSH2 0xFFFF SWAP2 DUP3 DUP6 AND SWAP5 DUP6 ISZERO ISZERO DUP1 PUSH2 0x159B JUMPI JUMPDEST PUSH2 0x1586 JUMPI JUMPDEST POP CALLER PUSH0 MSTORE PUSH1 0x20 SWAP6 PUSH1 0xF DUP8 MSTORE DUP10 PUSH0 KECCAK256 PUSH1 0x2 PUSH0 MSTORE DUP8 MSTORE DUP10 PUSH0 KECCAK256 PUSH1 0x1 PUSH1 0xFF NOT DUP3 SLOAD AND OR SWAP1 SSTORE CALLER ISZERO PUSH2 0x1530 JUMPI PUSH1 0xCA PUSH0 MSTORE PUSH0 DUP8 MSTORE DUP10 PUSH0 KECCAK256 CALLER PUSH0 MSTORE DUP8 MSTORE DUP10 PUSH0 KECCAK256 SLOAD ISZERO PUSH2 0x1397 JUMPI JUMPDEST POP DUP9 MLOAD SWAP4 DUP5 MSTORE DUP6 DUP5 ADD MSTORE AND SWAP1 PUSH32 0x31B66F6D8A6A3252233DEFE3A4204C77215F4DDD23783CE33B9B3D9A86B6AC6 DUP8 CALLER SWAP3 LOG4 DUP4 MLOAD SWAP3 DUP4 MSTORE DUP3 ADD MSTORE RETURN JUMPDEST DUP10 MLOAD PUSH2 0x13A2 DUP2 PUSH2 0x38A7 JUMP JUMPDEST PUSH0 DUP2 MSTORE DUP11 MLOAD PUSH2 0x13B0 DUP2 PUSH2 0x38D6 JUMP JUMPDEST PUSH1 0x1 DUP2 MSTORE DUP9 DUP2 ADD SWAP1 DUP10 CALLDATASIZE DUP4 CALLDATACOPY MLOAD ISZERO PUSH2 0x151D JUMPI PUSH1 0xCA SWAP1 MSTORE PUSH2 0x13CE PUSH2 0x5D58 JUMP JUMPDEST POP PUSH1 0xCA PUSH0 MSTORE PUSH0 DUP9 MSTORE DUP11 PUSH0 KECCAK256 CALLER PUSH0 MSTORE DUP9 MSTORE DUP11 PUSH0 KECCAK256 DUP1 SLOAD SWAP1 PUSH1 0x1 DUP3 ADD DUP1 SWAP3 GT PUSH2 0x150A JUMPI SSTORE DUP11 PUSH0 DUP2 MLOAD PUSH1 0xCA DUP2 MSTORE PUSH1 0x1 DUP12 DUP3 ADD MSTORE PUSH0 DUP1 MLOAD PUSH1 0x20 PUSH2 0x5DA5 DUP4 CODECOPY DUP2 MLOAD SWAP2 MSTORE CALLER SWAP4 CALLER SWAP3 LOG4 CALLER EXTCODESIZE PUSH2 0x1447 JUMPI JUMPDEST POP POP PUSH1 0x2 CALLER PUSH32 0xBD1AE2C6D13C1A8DC9DBE03823192CB9AB92B45E5B9264DD65B2794C526E6F9F PUSH0 DUP1 LOG3 PUSH0 PUSH2 0x135C JUMP JUMPDEST SWAP1 PUSH2 0x1493 DUP9 DUP13 SWAP11 SWAP9 SWAP8 SWAP7 SWAP6 SWAP5 SWAP4 DUP4 SWAP13 SWAP11 SWAP14 MLOAD DUP1 SWAP4 DUP2 SWAP3 PUSH4 0xF23A6E61 PUSH1 0xE0 SHL SWAP7 DUP8 DUP5 MSTORE CALLER SWAP1 DUP5 ADD MSTORE PUSH0 PUSH1 0x24 DUP5 ADD MSTORE PUSH1 0xCA PUSH1 0x44 DUP5 ADD MSTORE PUSH1 0x1 PUSH1 0x64 DUP5 ADD MSTORE PUSH1 0xA0 PUSH1 0x84 DUP5 ADD MSTORE PUSH1 0xA4 DUP4 ADD SWAP1 PUSH2 0x384A JUMP JUMPDEST SUB DUP2 PUSH0 CALLER GAS CALL PUSH0 SWAP2 DUP2 PUSH2 0x14EB JUMPI JUMPDEST POP PUSH2 0x14B1 JUMPI DUP12 DUP12 DUP12 PUSH2 0x65A PUSH2 0x5C7B JUMP JUMPDEST PUSH4 0xFFFFFFFF PUSH1 0xE0 SWAP13 SWAP10 SWAP12 SWAP4 SWAP5 SWAP6 SWAP7 SWAP8 SWAP9 SWAP11 SWAP13 SHL AND SUB PUSH2 0x14D2 JUMPI POP PUSH0 DUP1 PUSH2 0x1418 JUMP JUMPDEST DUP10 MLOAD PUSH3 0x461BCD PUSH1 0xE5 SHL DUP2 MSTORE SWAP1 DUP2 SWAP1 PUSH2 0x67E SWAP1 DUP3 ADD PUSH2 0x5C32 JUMP JUMPDEST PUSH2 0x1503 SWAP2 SWAP3 POP DUP14 DUP1 RETURNDATASIZE LT PUSH2 0x70A JUMPI PUSH2 0x6FB DUP2 DUP4 PUSH2 0x390C JUMP JUMPDEST SWAP1 PUSH0 PUSH2 0x14A1 JUMP JUMPDEST PUSH1 0x11 DUP5 PUSH4 0x4E487B71 PUSH1 0xE0 SHL PUSH0 MSTORE MSTORE PUSH1 0x24 PUSH0 REVERT JUMPDEST PUSH1 0x32 DUP4 PUSH4 0x4E487B71 PUSH1 0xE0 SHL PUSH0 MSTORE MSTORE PUSH1 0x24 PUSH0 REVERT JUMPDEST DUP10 MLOAD PUSH3 0x461BCD PUSH1 0xE5 SHL DUP2 MSTORE SWAP1 DUP2 ADD DUP8 SWAP1 MSTORE PUSH1 0x2A PUSH1 0x24 DUP3 ADD MSTORE PUSH32 0x455243313135353A2061646472657373207A65726F206973206E6F7420612076 PUSH1 0x44 DUP3 ADD MSTORE PUSH10 0x30B634B21037BBB732B9 PUSH1 0xB1 SHL PUSH1 0x64 DUP3 ADD MSTORE PUSH1 0x84 SWAP1 REVERT JUMPDEST DUP2 SWAP8 POP SWAP1 PUSH2 0x1594 SWAP2 CALLER PUSH2 0x4957 JUMP JUMPDEST SWAP6 PUSH0 PUSH2 0x131B JUMP JUMPDEST POP DUP2 ISZERO ISZERO PUSH2 0x1316 JUMP JUMPDEST DUP3 CALLVALUE PUSH2 0x38F JUMPI PUSH1 0x20 CALLDATASIZE PUSH1 0x3 NOT ADD SLT PUSH2 0x38F JUMPI PUSH1 0x20 SWAP2 CALLDATALOAD PUSH0 MSTORE PUSH1 0xE DUP3 MSTORE PUSH1 0xFF DUP2 PUSH0 KECCAK256 SLOAD AND SWAP1 MLOAD SWAP1 DUP2 MSTORE RETURN JUMPDEST DUP3 CALLVALUE PUSH2 0x38F JUMPI PUSH0 CALLDATASIZE PUSH1 0x3 NOT ADD SLT PUSH2 0x38F JUMPI PUSH1 0x20 SWAP2 SLOAD SWAP1 MLOAD SWAP1 DUP2 MSTORE RETURN JUMPDEST DUP3 CALLVALUE PUSH2 0x38F JUMPI PUSH0 CALLDATASIZE PUSH1 0x3 NOT ADD SLT PUSH2 0x38F JUMPI PUSH1 0x20 SWAP1 MLOAD PUSH1 0x1 DUP2 MSTORE RETURN JUMPDEST DUP3 CALLVALUE PUSH2 0x38F JUMPI DUP1 PUSH1 0x3 NOT CALLDATASIZE ADD SLT PUSH2 0x38F JUMPI PUSH1 0x20 SWAP1 PUSH2 0x1621 PUSH2 0x37DD JUMP JUMPDEST PUSH2 0x1629 PUSH2 0x3A0D JUMP JUMPDEST SWAP1 PUSH1 0x1 DUP1 PUSH1 0xA0 SHL SUB AND PUSH0 MSTORE PUSH1 0x15 DUP4 MSTORE PUSH2 0xFFFF DUP3 PUSH0 KECCAK256 SWAP2 AND PUSH0 MSTORE DUP3 MSTORE DUP1 PUSH0 KECCAK256 SLOAD SWAP1 MLOAD SWAP1 DUP2 MSTORE RETURN JUMPDEST SWAP1 POP CALLVALUE PUSH2 0x38F JUMPI DUP2 PUSH1 0x3 NOT CALLDATASIZE ADD SLT PUSH2 0x38F JUMPI PUSH2 0x1669 PUSH2 0x3819 JUMP JUMPDEST SWAP2 PUSH2 0x1672 PUSH2 0x37F3 JUMP JUMPDEST SWAP3 PUSH2 0x1684 PUSH2 0x167F DUP3 PUSH2 0x5119 JUMP JUMPDEST PUSH2 0x3E58 JUMP JUMPDEST PUSH1 0x1 PUSH1 0x1 PUSH1 0xA0 SHL SUB DUP5 AND DUP1 ISZERO PUSH2 0x17D3 JUMPI DUP1 CALLER SUB PUSH2 0x179F JUMPI DUP1 PUSH0 MSTORE PUSH1 0x20 SWAP5 PUSH1 0xD DUP7 MSTORE PUSH1 0xFF DUP5 PUSH0 KECCAK256 SWAP4 AND SWAP3 DUP4 PUSH0 MSTORE DUP7 MSTORE PUSH1 0xFF DUP5 PUSH0 KECCAK256 SLOAD AND PUSH2 0x1765 JUMPI DUP5 SLOAD SWAP5 PUSH1 0x1 DUP7 ADD DUP1 DUP8 GT PUSH2 0x1752 JUMPI DUP2 SSTORE DUP3 PUSH0 MSTORE PUSH1 0xD DUP8 MSTORE DUP5 PUSH0 KECCAK256 DUP5 PUSH0 MSTORE DUP8 MSTORE DUP5 PUSH0 KECCAK256 PUSH1 0xFF NOT SWAP1 PUSH1 0x1 DUP3 DUP3 SLOAD AND OR SWAP1 SSTORE DUP7 PUSH0 MSTORE PUSH1 0xE DUP9 MSTORE DUP5 DUP7 PUSH0 KECCAK256 SWAP2 DUP3 SLOAD AND OR SWAP1 SSTORE DUP4 PUSH1 0x64 ADD SWAP1 DUP2 PUSH1 0x64 GT PUSH2 0xC70 JUMPI POP DUP6 SWAP4 SWAP3 SWAP2 PUSH2 0x1728 SWAP2 DUP7 MLOAD SWAP2 PUSH2 0x1720 DUP4 PUSH2 0x38A7 JUMP JUMPDEST PUSH0 DUP4 MSTORE PUSH2 0x4FFC JUMP JUMPDEST PUSH32 0x4C7380F1D23A71F74FA1303F23B7100826E4A89A4E47B2985E5C708E47A19B3A PUSH0 DUP1 LOG4 MLOAD SWAP1 DUP2 MSTORE RETURN JUMPDEST PUSH1 0x11 DUP3 PUSH4 0x4E487B71 PUSH1 0xE0 SHL PUSH0 MSTORE MSTORE PUSH1 0x24 PUSH0 REVERT JUMPDEST DUP4 MLOAD PUSH3 0x461BCD PUSH1 0xE5 SHL DUP2 MSTORE DUP1 DUP7 ADD DUP8 SWAP1 MSTORE PUSH1 0x14 PUSH1 0x24 DUP3 ADD MSTORE PUSH20 0x10985919D948185B1C9958591E481B5A5B9D1959 PUSH1 0x62 SHL PUSH1 0x44 DUP3 ADD MSTORE PUSH1 0x64 SWAP1 REVERT JUMPDEST DUP3 MLOAD PUSH3 0x461BCD PUSH1 0xE5 SHL DUP2 MSTORE PUSH1 0x20 DUP2 DUP7 ADD MSTORE PUSH1 0xE PUSH1 0x24 DUP3 ADD MSTORE PUSH14 0x13DB9B1E481CD95B19881B5A5B9D PUSH1 0x92 SHL PUSH1 0x44 DUP3 ADD MSTORE PUSH1 0x64 SWAP1 REVERT JUMPDEST DUP3 MLOAD PUSH3 0x461BCD PUSH1 0xE5 SHL DUP2 MSTORE PUSH1 0x20 DUP2 DUP7 ADD MSTORE PUSH1 0x11 PUSH1 0x24 DUP3 ADD MSTORE PUSH17 0x125B9D985B1A59081C9958DA5C1A595B9D PUSH1 0x7A SHL PUSH1 0x44 DUP3 ADD MSTORE PUSH1 0x64 SWAP1 REVERT JUMPDEST CALLVALUE PUSH2 0x38F JUMPI PUSH0 CALLDATASIZE PUSH1 0x3 NOT ADD SLT PUSH2 0x38F JUMPI PUSH2 0x1822 PUSH2 0x3E99 JUMP JUMPDEST PUSH1 0x3 DUP1 SLOAD PUSH1 0x1 PUSH1 0x1 PUSH1 0xA0 SHL SUB NOT DUP2 AND SWAP1 SWAP2 SSTORE PUSH0 SWAP1 PUSH1 0x1 PUSH1 0x1 PUSH1 0xA0 SHL SUB AND PUSH32 0x8BE0079C531659141344CD1FD0A4F28419497F9722A3DAAFE3B4186F6B6457E0 DUP3 DUP1 LOG3 STOP JUMPDEST DUP3 CALLVALUE PUSH2 0x38F JUMPI PUSH0 CALLDATASIZE PUSH1 0x3 NOT ADD SLT PUSH2 0x38F JUMPI PUSH1 0x20 SWAP1 MLOAD PUSH1 0x7 DUP2 MSTORE RETURN JUMPDEST DUP3 CALLVALUE PUSH2 0x38F JUMPI DUP1 PUSH1 0x3 NOT CALLDATASIZE ADD SLT PUSH2 0x38F JUMPI PUSH1 0x20 SWAP1 PUSH2 0x189C PUSH2 0x37DD JUMP JUMPDEST PUSH2 0x18A4 PUSH2 0x3809 JUMP JUMPDEST SWAP1 PUSH2 0x18B1 PUSH2 0x167F DUP4 PUSH2 0x5119 JUMP JUMPDEST PUSH1 0x1 PUSH1 0x1 PUSH1 0xA0 SHL SUB AND PUSH0 SWAP1 DUP2 MSTORE PUSH1 0xD DUP5 MSTORE DUP3 DUP2 KECCAK256 PUSH1 0xFF SWAP3 DUP4 AND DUP3 MSTORE DUP5 MSTORE DUP3 SWAP1 KECCAK256 SLOAD SWAP2 MLOAD SWAP2 AND ISZERO ISZERO DUP2 MSTORE RETURN JUMPDEST SWAP1 POP CALLVALUE PUSH2 0x38F JUMPI PUSH1 0x60 CALLDATASIZE PUSH1 0x3 NOT ADD SLT PUSH2 0x38F JUMPI DUP1 CALLDATALOAD SWAP2 PUSH1 0x24 CALLDATALOAD PUSH1 0x44 CALLDATALOAD SWAP3 CALLER PUSH0 MSTORE PUSH1 0x13 PUSH1 0x20 MSTORE DUP3 PUSH0 KECCAK256 SWAP1 PUSH3 0x15180 TIMESTAMP DIV PUSH1 0x14 PUSH1 0x20 MSTORE DUP5 PUSH0 KECCAK256 DUP1 SLOAD PUSH1 0xFF DUP2 AND ISZERO PUSH2 0x1A22 JUMPI JUMPDEST POP POP PUSH1 0x5 DUP4 ADD DUP2 DUP2 SLOAD SUB PUSH2 0x1A14 JUMPI JUMPDEST POP POP PUSH1 0x6 DUP3 ADD SWAP1 DUP2 SLOAD SWAP3 PUSH1 0x3 DUP5 LT ISZERO PUSH2 0x19D1 JUMPI DUP1 DUP3 SWAP2 SLOAD DUP10 SGT PUSH2 0x19BD JUMPI JUMPDEST TIMESTAMP PUSH1 0x3 DUP3 ADD SSTORE ADD DUP1 SLOAD SWAP1 PUSH1 0x1 DUP3 ADD DUP1 SWAP3 GT PUSH2 0x19AA JUMPI SSTORE PUSH1 0x1 DUP4 ADD DUP1 SWAP4 GT PUSH2 0xC70 JUMPI POP SSTORE DUP2 MLOAD SWAP4 DUP5 MSTORE PUSH1 0x20 DUP5 ADD MSTORE DUP3 ADD MSTORE TIMESTAMP PUSH1 0x60 DUP3 ADD MSTORE PUSH32 0xF6D69723C1E13A6E751FF8839D394F04FFFFC588FDD13A7CFD1FDFC1BF87EBE1 PUSH1 0x80 CALLER SWAP3 LOG2 STOP JUMPDEST PUSH1 0x11 DUP4 PUSH4 0x4E487B71 PUSH1 0xE0 SHL PUSH0 MSTORE MSTORE PUSH1 0x24 PUSH0 REVERT JUMPDEST DUP9 DUP2 SSTORE DUP6 PUSH1 0x1 DUP3 ADD SSTORE DUP8 PUSH1 0x2 DUP3 ADD SSTORE PUSH2 0x194C JUMP JUMPDEST DUP6 MLOAD PUSH3 0x461BCD PUSH1 0xE5 SHL DUP2 MSTORE PUSH1 0x20 DUP2 DUP5 ADD MSTORE PUSH1 0x19 PUSH1 0x24 DUP3 ADD MSTORE PUSH32 0x4461696C792073636F7265206C696D6974207265616368656400000000000000 PUSH1 0x44 DUP3 ADD MSTORE PUSH1 0x64 SWAP1 REVERT JUMPDEST SSTORE PUSH0 PUSH1 0x6 DUP4 ADD SSTORE PUSH0 DUP1 PUSH2 0x192E JUMP JUMPDEST PUSH1 0xFF NOT AND PUSH1 0x1 OR SWAP1 SSTORE PUSH1 0x17 SLOAD PUSH9 0x10000000000000000 DUP2 LT ISZERO PUSH2 0x1A72 JUMPI DUP1 PUSH1 0x1 PUSH2 0x1A4F SWAP3 ADD PUSH1 0x17 SSTORE PUSH2 0x3E23 JUMP JUMPDEST DUP2 SLOAD PUSH1 0x1 PUSH1 0x1 PUSH1 0xA0 SHL SUB PUSH1 0x3 SWAP3 SWAP1 SWAP3 SHL SWAP2 DUP3 SHL NOT AND CALLER SWAP1 SWAP2 SHL OR SWAP1 SSTORE PUSH0 DUP1 PUSH2 0x191F JUMP JUMPDEST PUSH1 0x41 DUP4 PUSH4 0x4E487B71 PUSH1 0xE0 SHL PUSH0 MSTORE MSTORE PUSH1 0x24 PUSH0 REVERT JUMPDEST DUP3 CALLVALUE PUSH2 0x38F JUMPI PUSH1 0x20 SWAP2 PUSH1 0x3 NOT SWAP2 DUP4 DUP4 CALLDATASIZE ADD SLT PUSH2 0x38F JUMPI DUP2 CALLDATALOAD SWAP4 PUSH1 0x1 PUSH1 0x1 PUSH1 0x40 SHL SUB DUP1 DUP7 GT PUSH2 0x38F JUMPI CALLDATASIZE PUSH1 0x23 DUP8 ADD SLT ISZERO PUSH2 0x38F JUMPI DUP6 DUP5 ADD CALLDATALOAD SWAP1 DUP2 GT PUSH2 0x38F JUMPI PUSH1 0x24 DUP7 ADD SWAP6 PUSH1 0x24 CALLDATASIZE SWAP2 DUP4 PUSH1 0x5 SHL ADD ADD GT PUSH2 0x38F JUMPI PUSH2 0x1AE0 DUP2 PUSH2 0x3DB9 JUMP JUMPDEST SWAP1 PUSH0 JUMPDEST DUP2 DUP2 LT PUSH2 0x1CD3 JUMPI POP PUSH2 0x1AF6 CALLDATASIZE DUP3 DUP10 PUSH2 0x3A35 JUMP JUMPDEST SWAP5 DUP5 MLOAD SWAP7 PUSH2 0x1B03 DUP9 PUSH2 0x38A7 JUMP JUMPDEST PUSH0 DUP9 MSTORE PUSH2 0x1B11 CALLER ISZERO ISZERO PUSH2 0x4FA6 JUMP JUMPDEST PUSH2 0x1B1E DUP8 MLOAD DUP6 MLOAD EQ PUSH2 0x4E53 JUMP JUMPDEST PUSH0 JUMPDEST DUP8 MLOAD DUP2 LT ISZERO PUSH2 0x1B65 JUMPI DUP1 PUSH2 0x1B36 PUSH1 0x1 SWAP3 DUP8 PUSH2 0x3DEB JUMP JUMPDEST MLOAD PUSH2 0x1B41 DUP3 DUP12 PUSH2 0x3DEB JUMP JUMPDEST MLOAD PUSH0 MSTORE PUSH0 DUP9 MSTORE DUP9 PUSH0 KECCAK256 CALLER PUSH0 MSTORE DUP9 MSTORE PUSH2 0x1B5D DUP10 PUSH0 KECCAK256 SWAP2 DUP3 SLOAD PUSH2 0x3CD4 JUMP JUMPDEST SWAP1 SSTORE ADD PUSH2 0x1B20 JUMP JUMPDEST POP SWAP1 SWAP5 SWAP4 SWAP6 SWAP2 SWAP7 DUP5 MLOAD PUSH0 CALLER SWAP2 PUSH32 0x4A39DC06D4C0DBC64B70AF90FD698A233A518AA5D07E595D983B8C0526C8F7FB CALLER SWAP2 DUP1 PUSH2 0x1BA0 DUP11 DUP11 DUP4 PUSH2 0x4F69 JUMP JUMPDEST SUB SWAP1 LOG4 CALLER EXTCODESIZE PUSH2 0x1BF6 JUMPI JUMPDEST POP POP POP POP POP POP POP PUSH0 JUMPDEST DUP2 DUP2 LT PUSH2 0x1BBC JUMPI STOP JUMPDEST DUP1 PUSH2 0x1BCA PUSH1 0x1 SWAP3 DUP5 DUP7 PUSH2 0x3E13 JUMP JUMPDEST CALLDATALOAD CALLER PUSH32 0x4844D30B922FFC2B845400EB2A15CDD62742176C723E09D7CC9703E83645E4B PUSH0 DUP1 LOG3 ADD PUSH2 0x1BB3 JUMP JUMPDEST DUP6 SWAP8 SWAP5 SWAP7 SWAP9 SWAP6 SWAP4 SWAP3 PUSH2 0x1C58 DUP11 SWAP4 PUSH2 0x1C39 SWAP4 PUSH2 0x1C49 DUP12 MLOAD SWAP8 DUP9 SWAP7 DUP8 SWAP7 PUSH4 0xBC197C81 PUSH1 0xE0 SHL SWAP12 DUP13 DUP10 MSTORE CALLER SWAP1 DUP10 ADD MSTORE PUSH0 PUSH1 0x24 DUP10 ADD MSTORE PUSH1 0xA0 PUSH1 0x44 DUP10 ADD MSTORE PUSH1 0xA4 DUP9 ADD SWAP1 PUSH2 0x3B0D JUMP JUMPDEST SWAP1 DUP5 DUP8 DUP4 SUB ADD PUSH1 0x64 DUP9 ADD MSTORE PUSH2 0x3B0D JUMP JUMPDEST SWAP2 DUP5 DUP4 SUB ADD PUSH1 0x84 DUP6 ADD MSTORE PUSH2 0x384A JUMP JUMPDEST SUB DUP2 PUSH0 CALLER GAS CALL PUSH0 SWAP2 DUP2 PUSH2 0x1CB4 JUMPI JUMPDEST POP PUSH2 0x1C77 JUMPI POP POP POP POP PUSH2 0x65A PUSH2 0x5C7B JUMP JUMPDEST SWAP3 SWAP6 POP SWAP1 SWAP4 SWAP3 SWAP2 PUSH1 0x1 PUSH1 0x1 PUSH1 0xE0 SHL SUB NOT AND SUB PUSH2 0x1C9B JUMPI POP POP DUP3 DUP1 DUP1 DUP1 DUP1 DUP1 DUP1 PUSH2 0x1BAA JUMP JUMPDEST MLOAD PUSH3 0x461BCD PUSH1 0xE5 SHL DUP2 MSTORE SWAP2 POP DUP2 SWAP1 PUSH2 0x67E SWAP1 DUP3 ADD PUSH2 0x5C32 JUMP JUMPDEST PUSH2 0x1CCC SWAP2 SWAP3 POP DUP9 RETURNDATASIZE DUP11 GT PUSH2 0x70A JUMPI PUSH2 0x6FB DUP2 DUP4 PUSH2 0x390C JUMP JUMPDEST SWAP1 DUP9 PUSH2 0x1C66 JUMP JUMPDEST DUP1 PUSH2 0x1D05 PUSH2 0x1CFF PUSH2 0x1CE7 PUSH1 0x1 SWAP5 DUP7 DUP14 PUSH2 0x3E13 JUMP JUMPDEST CALLDATALOAD PUSH2 0x1CF9 PUSH2 0x1CF4 DUP3 PUSH2 0x4F8E JUMP JUMPDEST PUSH2 0x3D77 JUMP JUMPDEST CALLER PUSH2 0x3B76 JUMP JUMPDEST ISZERO PUSH2 0x3C58 JUMP JUMPDEST DUP2 PUSH2 0x1D10 DUP3 DUP7 PUSH2 0x3DEB JUMP JUMPDEST MSTORE ADD PUSH2 0x1AE3 JUMP JUMPDEST DUP3 CALLVALUE PUSH2 0x38F JUMPI DUP1 PUSH1 0x3 NOT CALLDATASIZE ADD SLT PUSH2 0x38F JUMPI PUSH1 0x20 SWAP1 PUSH2 0xBB7 PUSH2 0x1D36 PUSH2 0x39FC JUMP JUMPDEST PUSH1 0x24 CALLDATALOAD SWAP1 CALLER PUSH2 0x4957 JUMP JUMPDEST DUP3 CALLVALUE PUSH2 0x38F JUMPI PUSH0 CALLDATASIZE PUSH1 0x3 NOT ADD SLT PUSH2 0x38F JUMPI PUSH1 0x20 SWAP1 MLOAD PUSH1 0x8 DUP2 MSTORE RETURN JUMPDEST SWAP1 POP CALLVALUE PUSH2 0x38F JUMPI PUSH1 0x20 DUP1 PUSH1 0x3 NOT CALLDATASIZE ADD SLT PUSH2 0x38F JUMPI PUSH1 0x1 PUSH1 0x1 PUSH1 0x40 SHL SUB SWAP1 DUP3 CALLDATALOAD DUP3 DUP2 GT PUSH2 0x38F JUMPI PUSH2 0x1D8E SWAP1 CALLDATASIZE SWAP1 DUP6 ADD PUSH2 0x39CF JUMP JUMPDEST SWAP4 SWAP1 SWAP3 PUSH2 0x1D99 PUSH2 0x3E99 JUMP JUMPDEST DUP5 GT PUSH2 0x90F JUMPI POP PUSH2 0x1DAB PUSH1 0xA SLOAD PUSH2 0x386F JUMP JUMPDEST PUSH1 0x1F DUP2 GT PUSH2 0x1EDB JUMPI JUMPDEST POP PUSH0 SWAP1 PUSH1 0x1F DUP5 GT PUSH1 0x1 EQ PUSH2 0x1E32 JUMPI POP PUSH32 0x9FB0A9F79F07CF16C95B92623175F408D609663D7868AE62581439D923470BD SWAP4 SWAP2 PUSH2 0x1E08 DUP5 DUP1 PUSH2 0x1E1C SWAP5 PUSH0 SWAP2 PUSH2 0x1E27 JUMPI POP DUP2 PUSH1 0x1 SHL SWAP2 PUSH0 NOT SWAP1 PUSH1 0x3 SHL SHR NOT AND OR SWAP1 JUMP JUMPDEST PUSH1 0xA SSTORE JUMPDEST DUP3 MLOAD SWAP4 DUP4 DUP6 SWAP5 DUP6 MSTORE DUP5 ADD SWAP2 PUSH2 0x3BF6 JUMP JUMPDEST TIMESTAMP PUSH1 0x20 DUP4 ADD MSTORE SUB SWAP1 LOG1 STOP JUMPDEST SWAP1 POP DUP4 ADD CALLDATALOAD PUSH0 PUSH2 0x80F JUMP JUMPDEST SWAP1 PUSH1 0x1F NOT DUP5 AND PUSH1 0xA PUSH0 MSTORE PUSH32 0xC65A7BB8D6351C1CF70C95A316CC6A92839C986682D98BC35F958F4883F9D2A8 SWAP3 PUSH0 SWAP1 JUMPDEST DUP3 DUP3 LT PUSH2 0x1EC3 JUMPI POP POP SWAP2 PUSH32 0x9FB0A9F79F07CF16C95B92623175F408D609663D7868AE62581439D923470BD SWAP6 SWAP4 SWAP2 DUP6 PUSH2 0x1E1C SWAP5 LT PUSH2 0x1EAA JUMPI JUMPDEST POP POP PUSH1 0x1 DUP5 DUP2 SHL ADD PUSH1 0xA SSTORE PUSH2 0x1E0C JUMP JUMPDEST DUP3 ADD CALLDATALOAD PUSH0 NOT PUSH1 0x3 DUP8 SWAP1 SHL PUSH1 0xF8 AND SHR NOT AND SWAP1 SSTORE PUSH0 DUP1 PUSH2 0x1E9A JUMP JUMPDEST DUP1 PUSH1 0x1 DUP6 SWAP7 DUP3 SWAP5 SWAP7 DUP10 ADD CALLDATALOAD DUP2 SSTORE ADD SWAP6 ADD SWAP4 ADD SWAP1 PUSH2 0x1E61 JUMP JUMPDEST PUSH1 0xA PUSH0 MSTORE PUSH32 0xC65A7BB8D6351C1CF70C95A316CC6A92839C986682D98BC35F958F4883F9D2A8 PUSH1 0x1F DUP6 ADD PUSH1 0x5 SHR DUP2 ADD SWAP2 PUSH1 0x20 DUP7 LT PUSH2 0x1F34 JUMPI JUMPDEST PUSH1 0x1F ADD PUSH1 0x5 SHR ADD SWAP1 JUMPDEST DUP2 DUP2 LT PUSH2 0x1F29 JUMPI POP PUSH2 0x1DB4 JUMP JUMPDEST PUSH0 DUP2 SSTORE PUSH1 0x1 ADD PUSH2 0x1F1C JUMP JUMPDEST SWAP1 SWAP2 POP DUP2 SWAP1 PUSH2 0x1F13 JUMP JUMPDEST SWAP1 POP CALLVALUE PUSH2 0x38F JUMPI PUSH1 0x20 SWAP2 DUP3 PUSH1 0x3 NOT CALLDATASIZE ADD SLT PUSH2 0x38F JUMPI PUSH2 0x1F5B PUSH2 0x37DD JUMP JUMPDEST SWAP2 PUSH1 0x1 PUSH1 0x1 PUSH1 0xA0 SHL SUB DUP4 AND DUP1 ISZERO PUSH2 0x21C2 JUMPI DUP1 CALLER SUB PUSH2 0x218F JUMPI DUP1 PUSH0 MSTORE PUSH1 0xD DUP6 MSTORE DUP3 PUSH0 KECCAK256 SWAP2 PUSH1 0x1 SWAP3 DUP4 PUSH0 MSTORE DUP7 MSTORE PUSH1 0xFF DUP5 PUSH0 KECCAK256 SLOAD AND PUSH2 0x2155 JUMPI DUP1 SLOAD SWAP5 DUP4 DUP7 ADD DUP1 DUP8 GT PUSH2 0x19AA JUMPI DUP3 SSTORE DUP3 PUSH0 MSTORE PUSH1 0xD DUP8 MSTORE DUP5 PUSH0 KECCAK256 DUP5 PUSH0 MSTORE DUP8 MSTORE DUP5 PUSH0 KECCAK256 PUSH1 0xFF NOT SWAP1 DUP6 DUP3 DUP3 SLOAD AND OR SWAP1 SSTORE DUP7 PUSH0 MSTORE PUSH1 0xE DUP9 MSTORE DUP5 DUP7 PUSH0 KECCAK256 SWAP2 DUP3 SLOAD AND OR SWAP1 SSTORE DUP5 MLOAD SWAP1 PUSH2 0x1FDC DUP3 PUSH2 0x38A7 JUMP JUMPDEST PUSH0 DUP3 MSTORE DUP6 MLOAD PUSH2 0x1FEA DUP2 PUSH2 0x38D6 JUMP JUMPDEST DUP6 DUP2 MSTORE DUP9 DUP2 ADD SWAP1 DUP10 CALLDATASIZE DUP4 CALLDATACOPY MLOAD ISZERO PUSH2 0x2142 JUMPI PUSH1 0x65 SWAP1 MSTORE PUSH2 0x2007 PUSH2 0x5D58 JUMP JUMPDEST POP PUSH1 0x65 PUSH0 MSTORE PUSH0 DUP9 MSTORE DUP6 PUSH0 KECCAK256 DUP5 PUSH0 MSTORE DUP9 MSTORE DUP6 PUSH0 KECCAK256 DUP1 SLOAD SWAP1 DUP7 DUP3 ADD DUP1 SWAP3 GT PUSH2 0x212F JUMPI SSTORE DUP4 PUSH0 DUP8 MLOAD PUSH1 0x65 DUP2 MSTORE DUP8 DUP12 DUP3 ADD MSTORE PUSH0 DUP1 MLOAD PUSH1 0x20 PUSH2 0x5DA5 DUP4 CODECOPY DUP2 MLOAD SWAP2 MSTORE DUP10 CALLER SWAP3 LOG4 EXTCODESIZE PUSH2 0x207C JUMPI JUMPDEST POP POP SWAP1 DUP4 SWAP2 PUSH32 0x4C7380F1D23A71F74FA1303F23B7100826E4A89A4E47B2985E5C708E47A19B3A PUSH0 DUP1 LOG4 MLOAD SWAP1 DUP2 MSTORE RETURN JUMPDEST DUP5 SWAP6 SWAP4 SWAP3 SWAP2 SWAP6 MLOAD DUP8 DUP2 DUP1 PUSH2 0x20BE PUSH4 0xF23A6E61 PUSH1 0xE0 SHL SWAP6 DUP7 DUP4 MSTORE CALLER DUP13 DUP5 ADD MSTORE PUSH0 PUSH1 0x24 DUP5 ADD MSTORE PUSH1 0x65 PUSH1 0x44 DUP5 ADD MSTORE DUP9 PUSH1 0x64 DUP5 ADD MSTORE PUSH1 0xA0 PUSH1 0x84 DUP5 ADD MSTORE PUSH1 0xA4 DUP4 ADD SWAP1 PUSH2 0x384A JUMP JUMPDEST SUB DUP2 PUSH0 DUP8 GAS CALL PUSH0 SWAP2 DUP2 PUSH2 0x2110 JUMPI JUMPDEST POP PUSH2 0x20DC JUMPI DUP8 DUP8 DUP8 PUSH2 0x65A PUSH2 0x5C7B JUMP JUMPDEST PUSH4 0xFFFFFFFF PUSH1 0xE0 SWAP8 SWAP4 SWAP5 SWAP6 SWAP8 SHL AND SUB PUSH2 0x20F7 JUMPI POP DUP4 PUSH0 PUSH2 0x204D JUMP JUMPDEST DUP4 MLOAD PUSH3 0x461BCD PUSH1 0xE5 SHL DUP2 MSTORE SWAP1 DUP2 SWAP1 PUSH2 0x67E SWAP1 DUP3 ADD PUSH2 0x5C32 JUMP JUMPDEST PUSH2 0x2128 SWAP2 SWAP3 POP DUP10 RETURNDATASIZE DUP12 GT PUSH2 0x70A JUMPI PUSH2 0x6FB DUP2 DUP4 PUSH2 0x390C JUMP JUMPDEST SWAP1 PUSH0 PUSH2 0x20CC JUMP JUMPDEST PUSH1 0x11 DUP6 PUSH4 0x4E487B71 PUSH1 0xE0 SHL PUSH0 MSTORE MSTORE PUSH1 0x24 PUSH0 REVERT JUMPDEST PUSH1 0x32 DUP5 PUSH4 0x4E487B71 PUSH1 0xE0 SHL PUSH0 MSTORE MSTORE PUSH1 0x24 PUSH0 REVERT JUMPDEST DUP4 MLOAD PUSH3 0x461BCD PUSH1 0xE5 SHL DUP2 MSTORE SWAP1 DUP2 ADD DUP7 SWAP1 MSTORE PUSH1 0x14 PUSH1 0x24 DUP3 ADD MSTORE PUSH20 0x10985919D948185B1C9958591E481B5A5B9D1959 PUSH1 0x62 SHL PUSH1 0x44 DUP3 ADD MSTORE PUSH1 0x64 SWAP1 REVERT JUMPDEST POP DUP4 PUSH1 0x64 SWAP3 MLOAD SWAP2 PUSH3 0x461BCD PUSH1 0xE5 SHL DUP4 MSTORE DUP3 ADD MSTORE PUSH1 0xE PUSH1 0x24 DUP3 ADD MSTORE PUSH14 0x13DB9B1E481CD95B19881B5A5B9D PUSH1 0x92 SHL PUSH1 0x44 DUP3 ADD MSTORE REVERT JUMPDEST POP DUP4 PUSH1 0x64 SWAP3 MLOAD SWAP2 PUSH3 0x461BCD PUSH1 0xE5 SHL DUP4 MSTORE DUP3 ADD MSTORE PUSH1 0x11 PUSH1 0x24 DUP3 ADD MSTORE PUSH17 0x125B9D985B1A59081C9958DA5C1A595B9D PUSH1 0x7A SHL PUSH1 0x44 DUP3 ADD MSTORE REVERT JUMPDEST DUP3 CALLVALUE PUSH2 0x38F JUMPI DUP1 PUSH1 0x3 NOT CALLDATASIZE ADD SLT PUSH2 0x38F JUMPI PUSH1 0x1 PUSH1 0x1 PUSH1 0x40 SHL SUB SWAP2 DUP1 CALLDATALOAD DUP4 DUP2 GT PUSH2 0x38F JUMPI CALLDATASIZE PUSH1 0x23 DUP3 ADD SLT ISZERO PUSH2 0x38F JUMPI DUP1 DUP3 ADD CALLDATALOAD SWAP4 PUSH2 0x2234 DUP6 PUSH2 0x3A1E JUMP JUMPDEST SWAP2 PUSH2 0x2241 DUP6 MLOAD SWAP4 DUP5 PUSH2 0x390C JUMP JUMPDEST DUP6 DUP4 MSTORE PUSH1 0x20 SWAP6 PUSH1 0x24 DUP8 DUP6 ADD SWAP2 PUSH1 0x5 SHL DUP4 ADD ADD SWAP2 CALLDATASIZE DUP4 GT PUSH2 0x38F JUMPI PUSH1 0x24 ADD SWAP1 JUMPDEST DUP3 DUP3 LT PUSH2 0x2345 JUMPI POP POP POP PUSH1 0x24 CALLDATALOAD SWAP1 DUP2 GT PUSH2 0x38F JUMPI PUSH2 0x2281 SWAP1 CALLDATASIZE SWAP1 DUP5 ADD PUSH2 0x3A83 JUMP JUMPDEST SWAP2 DUP2 MLOAD DUP4 MLOAD SUB PUSH2 0x22F0 JUMPI POP PUSH2 0x2296 DUP2 MLOAD PUSH2 0x3DB9 JUMP JUMPDEST SWAP4 PUSH0 JUMPDEST DUP3 MLOAD DUP2 LT ISZERO PUSH2 0x22DE JUMPI PUSH1 0x1 SWAP1 PUSH2 0x22CD PUSH1 0x1 PUSH1 0x1 PUSH1 0xA0 SHL SUB PUSH2 0x22BA DUP4 DUP8 PUSH2 0x3DEB JUMP JUMPDEST MLOAD AND PUSH2 0x22C6 DUP4 DUP9 PUSH2 0x3DEB JUMP JUMPDEST MLOAD SWAP1 PUSH2 0x3B76 JUMP JUMPDEST PUSH2 0x22D7 DUP3 DUP10 PUSH2 0x3DEB JUMP JUMPDEST MSTORE ADD PUSH2 0x2299 JUMP JUMPDEST DUP5 MLOAD DUP3 DUP2 MSTORE DUP1 PUSH2 0xDEE DUP2 DUP6 ADD DUP10 PUSH2 0x3B0D JUMP JUMPDEST DUP4 MLOAD PUSH3 0x461BCD PUSH1 0xE5 SHL DUP2 MSTORE SWAP1 DUP2 ADD DUP6 SWAP1 MSTORE PUSH1 0x29 PUSH1 0x24 DUP3 ADD MSTORE PUSH32 0x455243313135353A206163636F756E747320616E6420696473206C656E677468 PUSH1 0x44 DUP3 ADD MSTORE PUSH9 0x40DAD2E6DAC2E8C6D PUSH1 0xBB SHL PUSH1 0x64 DUP3 ADD MSTORE PUSH1 0x84 SWAP1 REVERT JUMPDEST DUP2 CALLDATALOAD PUSH1 0x1 PUSH1 0x1 PUSH1 0xA0 SHL SUB DUP2 AND DUP2 SUB PUSH2 0x38F JUMPI DUP2 MSTORE SWAP1 DUP8 ADD SWAP1 DUP8 ADD PUSH2 0x2260 JUMP JUMPDEST DUP3 CALLVALUE PUSH2 0x38F JUMPI PUSH1 0x20 CALLDATASIZE PUSH1 0x3 NOT ADD SLT PUSH2 0x38F JUMPI PUSH1 0x20 SWAP1 PUSH1 0x1 PUSH1 0x1 PUSH1 0xA0 SHL SUB PUSH2 0x2389 PUSH2 0x37DD JUMP JUMPDEST AND PUSH0 MSTORE PUSH1 0x10 DUP3 MSTORE PUSH1 0xFF DUP2 PUSH0 KECCAK256 SLOAD AND SWAP1 MLOAD SWAP1 ISZERO ISZERO DUP2 MSTORE RETURN JUMPDEST DUP3 CALLVALUE PUSH2 0x38F JUMPI PUSH0 CALLDATASIZE PUSH1 0x3 NOT ADD SLT PUSH2 0x38F JUMPI PUSH1 0x20 SWAP1 PUSH1 0x7 SLOAD SWAP1 MLOAD SWAP1 DUP2 MSTORE RETURN JUMPDEST DUP3 CALLVALUE PUSH2 0x38F JUMPI PUSH1 0x20 CALLDATASIZE PUSH1 0x3 NOT ADD SLT PUSH2 0x38F JUMPI PUSH1 0x20 SWAP2 CALLDATALOAD PUSH0 MSTORE PUSH1 0x12 DUP3 MSTORE PUSH1 0xFF DUP2 PUSH0 KECCAK256 SLOAD AND SWAP1 MLOAD SWAP1 ISZERO ISZERO DUP2 MSTORE RETURN JUMPDEST DUP3 CALLVALUE PUSH2 0x38F JUMPI PUSH0 CALLDATASIZE PUSH1 0x3 NOT ADD SLT PUSH2 0x38F JUMPI PUSH1 0x20 SWAP1 PUSH1 0x6 SLOAD SWAP1 MLOAD SWAP1 DUP2 MSTORE RETURN JUMPDEST DUP3 CALLVALUE PUSH2 0x38F JUMPI PUSH1 0x20 CALLDATASIZE PUSH1 0x3 NOT ADD SLT PUSH2 0x38F JUMPI PUSH1 0x20 SWAP1 PUSH1 0x1 PUSH1 0x1 PUSH1 0xA0 SHL SUB PUSH2 0x242D PUSH2 0x37DD JUMP JUMPDEST AND PUSH0 MSTORE PUSH1 0xD DUP3 MSTORE DUP1 PUSH0 KECCAK256 PUSH1 0x1 PUSH0 MSTORE DUP3 MSTORE PUSH1 0xFF DUP2 PUSH0 KECCAK256 SLOAD AND SWAP1 MLOAD SWAP1 ISZERO ISZERO DUP2 MSTORE RETURN JUMPDEST SWAP1 POP CALLVALUE PUSH2 0x38F JUMPI PUSH1 0x20 CALLDATASIZE PUSH1 0x3 NOT ADD SLT PUSH2 0x38F JUMPI PUSH2 0x2493 SWAP1 CALLDATALOAD SWAP2 PUSH2 0x2472 PUSH2 0x1CF4 DUP5 PUSH2 0x4F8E JUMP JUMPDEST PUSH2 0x247F PUSH2 0x1CFF DUP5 CALLER PUSH2 0x3B76 JUMP JUMPDEST MLOAD PUSH2 0x2489 DUP2 PUSH2 0x38A7 JUMP JUMPDEST PUSH0 DUP2 MSTORE DUP3 CALLER PUSH2 0x4FFC JUMP JUMPDEST CALLER PUSH32 0x4844D30B922FFC2B845400EB2A15CDD62742176C723E09D7CC9703E83645E4B PUSH0 DUP1 LOG3 STOP JUMPDEST DUP3 CALLVALUE PUSH2 0x38F JUMPI PUSH0 CALLDATASIZE PUSH1 0x3 NOT ADD SLT PUSH2 0x38F JUMPI PUSH1 0x20 SWAP1 MLOAD PUSH1 0x9 DUP2 MSTORE RETURN JUMPDEST DUP3 CALLVALUE PUSH2 0x38F JUMPI PUSH0 CALLDATASIZE PUSH1 0x3 NOT ADD SLT PUSH2 0x38F JUMPI DUP1 MLOAD PUSH1 0xB SLOAD SWAP1 SWAP2 DUP3 PUSH0 PUSH2 0x24F8 DUP5 PUSH2 0x386F JUMP JUMPDEST DUP1 DUP4 MSTORE PUSH1 0x20 SWAP5 PUSH1 0x1 SWAP1 DUP7 PUSH1 0x1 DUP3 AND SWAP2 DUP3 PUSH0 EQ PUSH2 0x2594 JUMPI POP POP PUSH1 0x1 EQ PUSH2 0x2539 JUMPI JUMPDEST POP POP PUSH2 0xDEE SWAP3 SWAP2 PUSH2 0x252A SWAP2 SUB DUP6 PUSH2 0x390C JUMP JUMPDEST MLOAD SWAP3 DUP3 DUP5 SWAP4 DUP5 MSTORE DUP4 ADD SWAP1 PUSH2 0x384A JUMP JUMPDEST SWAP1 DUP6 SWAP3 POP PUSH1 0xB PUSH0 MSTORE PUSH32 0x175B7A638427703F0DBE7BB9BBF987A2551717B34E79F33B5B1008D1FA01DB9 SWAP2 PUSH0 SWAP3 JUMPDEST DUP3 DUP5 LT PUSH2 0x257C JUMPI POP POP POP DUP3 ADD ADD DUP2 PUSH2 0x252A PUSH2 0x2518 JUMP JUMPDEST DUP1 SLOAD DUP5 DUP11 ADD DUP7 ADD MSTORE DUP9 SWAP6 POP DUP8 SWAP5 SWAP1 SWAP4 ADD SWAP3 DUP2 ADD PUSH2 0x2566 JUMP JUMPDEST PUSH1 0xFF NOT AND DUP7 DUP3 ADD MSTORE SWAP3 ISZERO ISZERO PUSH1 0x5 SHL DUP6 ADD SWAP1 SWAP3 ADD SWAP3 POP DUP4 SWAP2 POP PUSH2 0x252A SWAP1 POP PUSH2 0x2518 JUMP JUMPDEST DUP3 CALLVALUE PUSH2 0x38F JUMPI PUSH0 CALLDATASIZE PUSH1 0x3 NOT ADD SLT PUSH2 0x38F JUMPI PUSH1 0x20 SWAP1 PUSH1 0x17 SLOAD SWAP1 MLOAD SWAP1 DUP2 MSTORE RETURN JUMPDEST SWAP1 POP CALLVALUE PUSH2 0x38F JUMPI PUSH1 0x3 NOT SWAP1 PUSH1 0xA0 CALLDATASIZE DUP4 ADD SLT PUSH2 0x38F JUMPI PUSH2 0x25F1 PUSH2 0x37DD JUMP JUMPDEST SWAP2 PUSH2 0x25FA PUSH2 0x37F3 JUMP JUMPDEST SWAP3 PUSH1 0x1 PUSH1 0x1 PUSH1 0x40 SHL SUB SWAP3 PUSH1 0x44 CALLDATALOAD DUP5 DUP2 GT PUSH2 0x38F JUMPI PUSH2 0x261B SWAP1 CALLDATASIZE SWAP1 DUP4 ADD PUSH2 0x3A83 JUMP JUMPDEST SWAP1 PUSH1 0x64 CALLDATALOAD DUP6 DUP2 GT PUSH2 0x38F JUMPI PUSH2 0x2633 SWAP1 CALLDATASIZE SWAP1 DUP4 ADD PUSH2 0x3A83 JUMP JUMPDEST SWAP5 PUSH1 0x84 CALLDATALOAD SWAP1 DUP2 GT PUSH2 0x38F JUMPI PUSH2 0x264B SWAP1 CALLDATASIZE SWAP1 DUP4 ADD PUSH2 0x3AF2 JUMP JUMPDEST SWAP4 PUSH1 0x1 PUSH1 0x1 PUSH1 0xA0 SHL SUB SWAP4 DUP5 AND SWAP4 CALLER DUP6 EQ DUP1 ISZERO PUSH2 0x284B JUMPI JUMPDEST PUSH2 0x266B SWAP1 PUSH2 0x3D14 JUMP JUMPDEST PUSH2 0x2678 DUP5 MLOAD DUP9 MLOAD EQ PUSH2 0x4E53 JUMP JUMPDEST DUP8 AND SWAP5 PUSH2 0x2686 DUP7 ISZERO ISZERO PUSH2 0x4EB0 JUMP JUMPDEST PUSH0 JUMPDEST DUP5 MLOAD DUP2 LT ISZERO PUSH2 0x2704 JUMPI DUP1 PUSH2 0x269E PUSH1 0x1 SWAP3 DUP8 PUSH2 0x3DEB JUMP JUMPDEST MLOAD PUSH2 0x26A9 DUP3 DUP12 PUSH2 0x3DEB JUMP JUMPDEST MLOAD SWAP1 DUP1 PUSH0 MSTORE PUSH1 0x20 SWAP1 PUSH0 DUP3 MSTORE DUP14 PUSH0 KECCAK256 DUP11 PUSH0 MSTORE DUP3 MSTORE DUP14 DUP4 DUP2 PUSH0 KECCAK256 SLOAD PUSH2 0x26CE DUP3 DUP3 LT ISZERO PUSH2 0x4F0A JUMP JUMPDEST DUP4 PUSH0 MSTORE PUSH0 DUP6 MSTORE DUP3 PUSH0 KECCAK256 DUP14 PUSH0 MSTORE DUP6 MSTORE SUB SWAP1 PUSH0 KECCAK256 SSTORE PUSH0 MSTORE PUSH0 DUP2 MSTORE DUP13 PUSH0 KECCAK256 SWAP1 DUP11 PUSH0 MSTORE MSTORE PUSH2 0x26FC DUP13 PUSH0 KECCAK256 SWAP2 DUP3 SLOAD PUSH2 0x3CD4 JUMP JUMPDEST SWAP1 SSTORE ADD PUSH2 0x2688 JUMP JUMPDEST POP SWAP1 SWAP5 SWAP4 SWAP6 SWAP3 SWAP2 SWAP7 DUP5 DUP8 DUP11 MLOAD PUSH32 0x4A39DC06D4C0DBC64B70AF90FD698A233A518AA5D07E595D983B8C0526C8F7FB CALLER SWAP2 DUP1 PUSH2 0x273F DUP11 DUP11 DUP4 PUSH2 0x4F69 JUMP JUMPDEST SUB SWAP1 LOG4 EXTCODESIZE PUSH2 0x2749 JUMPI STOP JUMPDEST DUP8 MLOAD SWAP5 DUP6 SWAP4 DUP5 SWAP4 PUSH4 0xBC197C81 PUSH1 0xE0 SHL SWAP9 DUP10 DUP7 MSTORE CALLER DUP12 DUP8 ADD MSTORE PUSH1 0x24 DUP7 ADD MSTORE PUSH1 0x44 DUP6 ADD PUSH1 0xA0 SWAP1 MSTORE PUSH1 0xA4 DUP6 ADD PUSH2 0x277B SWAP2 PUSH2 0x3B0D JUMP JUMPDEST DUP3 DUP6 DUP3 SUB ADD PUSH1 0x64 DUP7 ADD MSTORE PUSH2 0x278E SWAP2 PUSH2 0x3B0D JUMP JUMPDEST SWAP1 DUP4 DUP3 SUB ADD PUSH1 0x84 DUP5 ADD MSTORE PUSH2 0x27A1 SWAP2 PUSH2 0x384A JUMP JUMPDEST SUB DUP2 GAS PUSH1 0x20 SWAP5 PUSH0 SWAP2 CALL PUSH0 SWAP2 DUP2 PUSH2 0x282A JUMPI JUMPDEST POP PUSH2 0x2819 JUMPI POP POP PUSH2 0x27C1 PUSH2 0x5C7B JUMP JUMPDEST PUSH4 0x8C379A0 EQ PUSH2 0x27E5 JUMPI JUMPDEST SWAP1 MLOAD PUSH3 0x461BCD PUSH1 0xE5 SHL DUP2 MSTORE SWAP1 DUP2 SWAP1 PUSH2 0x67E SWAP1 DUP3 ADD PUSH2 0x5D03 JUMP JUMPDEST PUSH2 0x27ED PUSH2 0x5C96 JUMP JUMPDEST DUP1 PUSH2 0x27F8 JUMPI POP PUSH2 0x27CC JUMP JUMPDEST PUSH2 0x67E SWAP1 PUSH1 0x20 SWAP4 MLOAD SWAP4 DUP5 SWAP4 PUSH3 0x461BCD PUSH1 0xE5 SHL DUP6 MSTORE DUP5 ADD MSTORE PUSH1 0x24 DUP4 ADD SWAP1 PUSH2 0x384A JUMP JUMPDEST PUSH1 0x1 PUSH1 0x1 PUSH1 0xE0 SHL SUB NOT AND SUB PUSH2 0x6C9 JUMPI STOP JUMPDEST PUSH2 0x2844 SWAP2 SWAP3 POP PUSH1 0x20 RETURNDATASIZE PUSH1 0x20 GT PUSH2 0x70A JUMPI PUSH2 0x6FB DUP2 DUP4 PUSH2 0x390C JUMP JUMPDEST SWAP1 PUSH0 PUSH2 0x27B2 JUMP JUMPDEST POP DUP5 PUSH0 MSTORE PUSH1 0x1 PUSH1 0x20 MSTORE DUP9 PUSH0 KECCAK256 CALLER PUSH0 MSTORE PUSH1 0x20 MSTORE PUSH2 0x266B PUSH1 0xFF DUP11 PUSH0 KECCAK256 SLOAD AND SWAP1 POP PUSH2 0x2662 JUMP JUMPDEST DUP3 CALLVALUE PUSH2 0x38F JUMPI PUSH0 CALLDATASIZE PUSH1 0x3 NOT ADD SLT PUSH2 0x38F JUMPI PUSH1 0x20 SWAP1 PUSH1 0x9 SLOAD SWAP1 MLOAD SWAP1 DUP2 MSTORE RETURN JUMPDEST DUP3 CALLVALUE PUSH2 0x38F JUMPI PUSH1 0x20 CALLDATASIZE PUSH1 0x3 NOT ADD SLT PUSH2 0x38F JUMPI PUSH1 0x20 SWAP1 PUSH2 0xBB7 PUSH2 0x28AC PUSH2 0x39FC JUMP JUMPDEST PUSH2 0x3CF5 JUMP JUMPDEST DUP3 CALLVALUE PUSH2 0x38F JUMPI PUSH0 CALLDATASIZE PUSH1 0x3 NOT ADD SLT PUSH2 0x38F JUMPI PUSH1 0x20 SWAP1 MLOAD PUSH2 0x2710 DUP2 MSTORE RETURN JUMPDEST DUP3 CALLVALUE PUSH2 0x38F JUMPI PUSH0 CALLDATASIZE PUSH1 0x3 NOT ADD SLT PUSH2 0x38F JUMPI PUSH1 0x20 SWAP1 PUSH1 0x5 SLOAD SWAP1 MLOAD SWAP1 DUP2 MSTORE RETURN JUMPDEST DUP3 CALLVALUE PUSH2 0x38F JUMPI PUSH0 CALLDATASIZE PUSH1 0x3 NOT ADD SLT PUSH2 0x38F JUMPI PUSH1 0x20 SWAP1 MLOAD PUSH1 0x5 DUP2 MSTORE RETURN JUMPDEST DUP3 CALLVALUE PUSH2 0x38F JUMPI PUSH1 0x20 CALLDATASIZE PUSH1 0x3 NOT ADD SLT PUSH2 0x38F JUMPI PUSH2 0x2920 PUSH2 0x3819 JUMP JUMPDEST SWAP1 PUSH2 0x292D PUSH2 0xEC0 DUP4 PUSH2 0x4C17 JUMP JUMPDEST PUSH2 0x293C PUSH2 0x1CFF PUSH2 0x1CF9 DUP5 PUSH2 0x4C31 JUMP JUMPDEST CALLER PUSH0 MSTORE PUSH1 0xF PUSH1 0x20 MSTORE PUSH2 0x2969 DUP2 PUSH0 KECCAK256 SWAP3 PUSH1 0xFF DUP2 AND SWAP4 DUP5 PUSH0 MSTORE PUSH1 0x20 MSTORE DUP3 PUSH0 KECCAK256 PUSH1 0x1 PUSH1 0xFF NOT DUP3 SLOAD AND OR SWAP1 SSTORE PUSH2 0x4C31 JUMP JUMPDEST PUSH2 0x2973 DUP2 CALLER PUSH2 0x3B76 JUMP JUMPDEST ISZERO PUSH2 0x297A JUMPI STOP JUMPDEST PUSH2 0x2992 SWAP2 MLOAD SWAP1 PUSH2 0x2989 DUP3 PUSH2 0x38A7 JUMP JUMPDEST PUSH0 DUP3 MSTORE CALLER PUSH2 0x4FFC JUMP JUMPDEST CALLER PUSH32 0xBD1AE2C6D13C1A8DC9DBE03823192CB9AB92B45E5B9264DD65B2794C526E6F9F PUSH0 DUP1 LOG3 STOP JUMPDEST SWAP1 POP CALLVALUE PUSH2 0x38F JUMPI PUSH1 0x60 CALLDATASIZE PUSH1 0x3 NOT ADD SLT PUSH2 0x38F JUMPI DUP1 CALLDATALOAD SWAP2 PUSH2 0x29D7 PUSH2 0x37CE JUMP JUMPDEST PUSH1 0x44 CALLDATALOAD SWAP3 PUSH1 0x1 PUSH1 0x1 PUSH1 0x40 SHL SUB DUP5 GT PUSH2 0x38F JUMPI PUSH2 0x2A1A PUSH2 0x834 SWAP2 PUSH32 0x5CD61427930AB89A7FFDD8646DD284F02D4EC213A21D6DCAAB300350E8006611 SWAP6 CALLDATASIZE SWAP2 ADD PUSH2 0x39CF JUMP JUMPDEST PUSH2 0x2A22 PUSH2 0x3E99 JUMP JUMPDEST DUP7 PUSH0 MSTORE PUSH1 0x12 PUSH1 0x20 MSTORE PUSH2 0x2A42 DUP5 DUP7 PUSH0 KECCAK256 SWAP1 PUSH1 0xFF DUP1 NOT DUP4 SLOAD AND SWAP2 ISZERO ISZERO AND OR SWAP1 SSTORE JUMP JUMPDEST DUP5 MLOAD SWAP5 DUP6 SWAP5 ISZERO ISZERO DUP6 MSTORE DUP1 PUSH1 0x20 DUP7 ADD MSTORE DUP5 ADD SWAP2 PUSH2 0x3BF6 JUMP JUMPDEST DUP3 CALLVALUE PUSH2 0x38F JUMPI PUSH0 CALLDATASIZE PUSH1 0x3 NOT ADD SLT PUSH2 0x38F JUMPI DUP1 MLOAD PUSH1 0xA SLOAD SWAP1 SWAP2 DUP3 PUSH0 PUSH2 0x2A7C DUP5 PUSH2 0x386F JUMP JUMPDEST DUP1 DUP4 MSTORE PUSH1 0x20 SWAP5 PUSH1 0x1 SWAP1 DUP7 PUSH1 0x1 DUP3 AND SWAP2 DUP3 PUSH0 EQ PUSH2 0x2594 JUMPI POP POP PUSH1 0x1 EQ PUSH2 0x2AAD JUMPI POP POP PUSH2 0xDEE SWAP3 SWAP2 PUSH2 0x252A SWAP2 SUB DUP6 PUSH2 0x390C JUMP JUMPDEST SWAP1 DUP6 SWAP3 POP PUSH1 0xA PUSH0 MSTORE PUSH32 0xC65A7BB8D6351C1CF70C95A316CC6A92839C986682D98BC35F958F4883F9D2A8 SWAP2 PUSH0 SWAP3 JUMPDEST DUP3 DUP5 LT PUSH2 0x2AF0 JUMPI POP POP POP DUP3 ADD ADD DUP2 PUSH2 0x252A PUSH2 0x2518 JUMP JUMPDEST DUP1 SLOAD DUP5 DUP11 ADD DUP7 ADD MSTORE DUP9 SWAP6 POP DUP8 SWAP5 SWAP1 SWAP4 ADD SWAP3 DUP2 ADD PUSH2 0x2ADA JUMP JUMPDEST DUP3 CALLVALUE PUSH2 0x38F JUMPI PUSH0 CALLDATASIZE PUSH1 0x3 NOT ADD SLT PUSH2 0x38F JUMPI DUP1 MLOAD PUSH1 0xC SLOAD SWAP1 SWAP2 DUP3 PUSH0 PUSH2 0x2B2B DUP5 PUSH2 0x386F JUMP JUMPDEST DUP1 DUP4 MSTORE PUSH1 0x20 SWAP5 PUSH1 0x1 SWAP1 DUP7 PUSH1 0x1 DUP3 AND SWAP2 DUP3 PUSH0 EQ PUSH2 0x2594 JUMPI POP POP PUSH1 0x1 EQ PUSH2 0x2B5C JUMPI POP POP PUSH2 0xDEE SWAP3 SWAP2 PUSH2 0x252A SWAP2 SUB DUP6 PUSH2 0x390C JUMP JUMPDEST SWAP1 DUP6 SWAP3 POP PUSH1 0xC PUSH0 MSTORE PUSH32 0xDF6966C971051C3D54EC59162606531493A51404A002842F56009D7E5CF4A8C7 SWAP2 PUSH0 SWAP3 JUMPDEST DUP3 DUP5 LT PUSH2 0x2B9F JUMPI POP POP POP DUP3 ADD ADD DUP2 PUSH2 0x252A PUSH2 0x2518 JUMP JUMPDEST DUP1 SLOAD DUP5 DUP11 ADD DUP7 ADD MSTORE DUP9 SWAP6 POP DUP8 SWAP5 SWAP1 SWAP4 ADD SWAP3 DUP2 ADD PUSH2 0x2B89 JUMP JUMPDEST SWAP1 POP CALLVALUE PUSH2 0x38F JUMPI PUSH1 0x20 SWAP2 DUP3 PUSH1 0x3 NOT CALLDATASIZE ADD SLT PUSH2 0x38F JUMPI DUP2 CALLDATALOAD SWAP2 PUSH1 0xFF PUSH1 0x8 SLOAD AND PUSH2 0x2E00 JUMPI PUSH1 0x6 SLOAD DUP4 LT PUSH2 0x2DCF JUMPI PUSH2 0x2BED DUP4 ISZERO ISZERO PUSH2 0x491D JUMP JUMPDEST DUP2 MLOAD SWAP1 PUSH2 0x2BF9 DUP3 PUSH2 0x38A7 JUMP JUMPDEST PUSH0 DUP3 MSTORE PUSH2 0x2C07 CALLER ISZERO ISZERO PUSH2 0x4FA6 JUMP JUMPDEST DUP3 MLOAD SWAP2 PUSH2 0x2C13 DUP4 PUSH2 0x38D6 JUMP JUMPDEST PUSH1 0x1 DUP4 MSTORE DUP6 DUP4 ADD SWAP3 DUP7 CALLDATASIZE DUP6 CALLDATACOPY MLOAD ISZERO PUSH2 0x2DBC JUMPI PUSH2 0x3E9 DUP1 SWAP4 MSTORE PUSH2 0x2C34 DUP6 PUSH2 0x5D7F JUMP JUMPDEST POP DUP3 PUSH0 MSTORE PUSH0 DUP7 MSTORE DUP4 PUSH0 KECCAK256 CALLER PUSH0 MSTORE DUP7 MSTORE DUP4 PUSH0 KECCAK256 PUSH2 0x2C51 DUP7 DUP3 SLOAD PUSH2 0x3CD4 JUMP JUMPDEST SWAP1 SSTORE DUP4 MLOAD DUP4 DUP2 MSTORE DUP6 DUP8 DUP3 ADD MSTORE PUSH0 CALLER SWAP2 PUSH0 DUP1 MLOAD PUSH1 0x20 PUSH2 0x5DA5 DUP4 CODECOPY DUP2 MLOAD SWAP2 MSTORE DUP8 CALLER SWAP3 LOG4 CALLER EXTCODESIZE PUSH2 0x2D0A JUMPI JUMPDEST POP POP CALLER PUSH0 MSTORE PUSH1 0x15 DUP5 MSTORE DUP2 PUSH0 KECCAK256 PUSH1 0x1 PUSH0 MSTORE DUP5 MSTORE DUP2 PUSH0 KECCAK256 PUSH2 0x2C99 DUP5 DUP3 SLOAD PUSH2 0x3CD4 JUMP JUMPDEST SWAP1 SSTORE PUSH2 0x2CA4 CALLER PUSH2 0x4C42 JUMP JUMPDEST DUP2 MLOAD DUP4 DUP2 MSTORE DUP4 DUP6 DUP3 ADD MSTORE PUSH32 0xF94991DCBEA6E8AC439CBC93BD9C62A4D39F04E0AD656DF9A703F13552C2787F DUP4 CALLER SWAP3 LOG2 PUSH1 0x1 DUP3 MLOAD DUP5 DUP2 MSTORE DUP5 DUP7 DUP3 ADD MSTORE PUSH32 0x1CE38089DA937FF378B753CBAD5B85EBCCEFE73AF87B074D88B881B11BCCC86A DUP5 CALLER SWAP3 LOG4 MLOAD SWAP1 DUP2 MSTORE RETURN JUMPDEST DUP4 SWAP5 SWAP3 SWAP2 SWAP5 MLOAD DUP7 DUP2 DUP1 PUSH2 0x2D4A PUSH4 0xF23A6E61 PUSH1 0xE0 SHL SWAP6 DUP7 DUP4 MSTORE CALLER DUP12 DUP5 ADD MSTORE PUSH0 PUSH1 0x24 DUP5 ADD MSTORE DUP8 PUSH1 0x44 DUP5 ADD MSTORE DUP9 PUSH1 0x64 DUP5 ADD MSTORE PUSH1 0xA0 PUSH1 0x84 DUP5 ADD MSTORE PUSH1 0xA4 DUP4 ADD SWAP1 PUSH2 0x384A JUMP JUMPDEST SUB DUP2 PUSH0 CALLER GAS CALL PUSH0 SWAP2 DUP2 PUSH2 0x2D9D JUMPI JUMPDEST POP PUSH2 0x2D69 JUMPI POP POP POP POP PUSH2 0x65A PUSH2 0x5C7B JUMP JUMPDEST SWAP3 SWAP5 SWAP2 SWAP3 PUSH1 0x1 PUSH1 0x1 PUSH1 0xE0 SHL SUB NOT AND SUB PUSH2 0x2D84 JUMPI POP PUSH0 DUP1 PUSH2 0x2C79 JUMP JUMPDEST DUP3 MLOAD PUSH3 0x461BCD PUSH1 0xE5 SHL DUP2 MSTORE SWAP1 DUP2 SWAP1 PUSH2 0x67E SWAP1 DUP3 ADD PUSH2 0x5C32 JUMP JUMPDEST PUSH2 0x2DB5 SWAP2 SWAP3 POP DUP9 RETURNDATASIZE DUP11 GT PUSH2 0x70A JUMPI PUSH2 0x6FB DUP2 DUP4 PUSH2 0x390C JUMP JUMPDEST SWAP1 PUSH0 PUSH2 0x2D58 JUMP JUMPDEST PUSH1 0x32 DUP3 PUSH4 0x4E487B71 PUSH1 0xE0 SHL PUSH0 MSTORE MSTORE PUSH1 0x24 PUSH0 REVERT JUMPDEST DUP4 PUSH1 0x64 SWAP3 MLOAD SWAP2 PUSH3 0x461BCD PUSH1 0xE5 SHL DUP4 MSTORE DUP3 ADD MSTORE PUSH1 0xD PUSH1 0x24 DUP3 ADD MSTORE PUSH13 0x42656C6F77206D696E696D756D PUSH1 0x98 SHL PUSH1 0x44 DUP3 ADD MSTORE REVERT JUMPDEST DUP4 PUSH1 0x64 SWAP3 MLOAD SWAP2 PUSH3 0x461BCD PUSH1 0xE5 SHL DUP4 MSTORE DUP3 ADD MSTORE PUSH1 0x14 PUSH1 0x24 DUP3 ADD MSTORE PUSH20 0x14DD589CD8DC9A5C1D1A5BDB9CC81C185D5CD959 PUSH1 0x62 SHL PUSH1 0x44 DUP3 ADD MSTORE REVERT JUMPDEST SWAP1 POP CALLVALUE PUSH2 0x38F JUMPI PUSH1 0x20 SWAP1 DUP2 PUSH1 0x3 NOT CALLDATASIZE ADD SLT PUSH2 0x38F JUMPI CALLDATALOAD PUSH2 0x2E57 DUP2 PUSH2 0x3F2A JUMP JUMPDEST PUSH2 0x2E60 DUP3 PUSH2 0x430E JUMP JUMPDEST SWAP2 PUSH2 0x2E6A DUP2 PUSH2 0x53BE JUMP JUMPDEST DUP6 PUSH2 0x2E74 DUP4 PUSH2 0x53BE JUMP JUMPDEST SWAP2 PUSH2 0x2E7E DUP5 PUSH2 0x53BE JUMP JUMPDEST PUSH2 0x2E87 DUP6 PUSH2 0x5535 JUMP JUMPDEST SWAP2 PUSH2 0x2E91 DUP7 PUSH2 0x5639 JUMP JUMPDEST PUSH2 0x2E9A DUP8 PUSH2 0x56C7 JUMP JUMPDEST PUSH2 0x2EA3 DUP9 PUSH2 0x59D5 JUMP JUMPDEST SWAP5 DUP12 PUSH2 0x2EAE DUP11 PUSH2 0x5AFD JUMP JUMPDEST SWAP5 PUSH2 0x2EB8 DUP12 PUSH2 0x47DB JUMP JUMPDEST DUP10 MLOAD PUSH32 0x3C73766720786D6C6E733D22687474703A2F2F7777772E77332E6F72672F3230 DUP5 DUP3 ADD MSTORE PUSH32 0x30302F737667222076696577426F783D223020302036303020363030223E3C64 SWAP11 DUP2 ADD SWAP11 SWAP1 SWAP11 MSTORE PUSH32 0x6566733E3C6C696E6561724772616469656E742069643D2267222078313D2233 PUSH1 0x60 DUP12 ADD MSTORE PUSH32 0x36222079313D223232222078323D22353630222079323D22353738223E3C7374 PUSH1 0x80 DUP12 ADD MSTORE PUSH32 0x6F702073746F702D636F6C6F723D2223313232323141222F3E3C73746F70206F PUSH1 0xA0 DUP12 ADD MSTORE PUSH32 0x66667365743D222E3535222073746F702D636F6C6F723D222331313138323722 PUSH1 0xC0 DUP12 ADD MSTORE PUSH32 0x2F3E3C73746F70206F66667365743D2231222073746F702D636F6C6F723D2223 PUSH1 0xE0 DUP12 ADD MSTORE PUSH32 0x313233333341222F3E3C2F6C696E6561724772616469656E743E3C2F64656673 PUSH2 0x100 DUP12 ADD MSTORE PUSH32 0x3E3C726563742077696474683D2236303022206865696768743D223630302220 PUSH2 0x120 DUP12 ADD MSTORE PUSH32 0x72783D223434222066696C6C3D2223304231313143222F3E3C7265637420783D PUSH2 0x140 DUP12 ADD MSTORE PUSH32 0x2232382220793D223238222077696474683D2235343422206865696768743D22 PUSH2 0x160 DUP12 ADD MSTORE PUSH32 0x353434222072783D223334222066696C6C3D2275726C2823672922207374726F PUSH2 0x180 DUP12 ADD MSTORE PUSH4 0x35B29E91 PUSH1 0xE1 SHL PUSH2 0x1A0 DUP12 ADD MSTORE DUP2 MLOAD SWAP10 SWAP11 DUP12 SWAP11 SWAP2 SWAP9 PUSH2 0x1A4 SWAP4 SWAP1 SWAP3 SWAP1 PUSH2 0x30B6 SWAP1 DUP3 SWAP1 DUP7 DUP16 ADD SWAP1 DUP9 ADD PUSH2 0x3829 JUMP JUMPDEST DUP12 ADD SWAP3 DUP4 ADD PUSH32 0x22207374726F6B652D77696474683D2232222F3E3C636972636C652063783D22 SWAP1 MSTORE PUSH2 0x1C4 DUP4 ADD PUSH32 0x3932222063793D2239322220723D223138222066696C6C3D2200000000000000 SWAP1 MSTORE PUSH2 0x1DD SWAP3 DUP2 MLOAD SWAP2 DUP3 DUP7 DUP7 DUP5 ADD SWAP3 ADD SWAP2 PUSH2 0x311E SWAP3 PUSH2 0x3829 JUMP JUMPDEST ADD SWAP2 DUP3 ADD PUSH32 0x222F3E3C7465787420783D223132362220793D22313031222066696C6C3D2200 SWAP1 MSTORE PUSH2 0x1FC SWAP2 DUP2 MLOAD SWAP2 DUP3 DUP6 DUP6 DUP5 ADD SWAP3 ADD SWAP2 PUSH2 0x315D SWAP3 PUSH2 0x3829 JUMP JUMPDEST ADD SWAP1 DUP2 ADD PUSH32 0x2220666F6E742D73697A653D2231382220666F6E742D7765696768743D223830 SWAP1 MSTORE PUSH2 0x21C DUP2 ADD PUSH32 0x302220666F6E742D66616D696C793D22417269616C223E000000000000000000 SWAP1 MSTORE PUSH2 0x233 SWAP3 DUP1 MLOAD DUP1 SWAP4 DUP6 DUP5 ADD SWAP3 ADD SWAP2 PUSH2 0x31C3 SWAP3 PUSH2 0x3829 JUMP JUMPDEST ADD SWAP1 DUP2 ADD PUSH32 0x3C2F746578743E3C7465787420783D2235382220793D22323834222066696C6C SWAP1 MSTORE PUSH32 0x3D22234636463846422220666F6E742D73697A653D2234382220666F6E742D77 DUP1 PUSH2 0x253 DUP4 ADD MSTORE DUP13 PUSH32 0x65696768743D223930302220666F6E742D66616D696C793D22417269616C223E SWAP3 DUP4 PUSH2 0x273 DUP3 ADD MSTORE PUSH2 0x293 SWAP6 DUP1 MLOAD DUP1 SWAP4 DUP9 DUP5 ADD SWAP3 ADD SWAP2 PUSH2 0x3253 SWAP3 PUSH2 0x3829 JUMP JUMPDEST ADD SWAP4 DUP5 ADD PUSH32 0x3C2F746578743E3C7465787420783D2235382220793D22333434222066696C6C SWAP1 MSTORE PUSH2 0x2B3 DUP5 ADD MSTORE PUSH2 0x2D3 DUP4 ADD MSTORE PUSH2 0x2F3 SWAP2 DUP2 MLOAD SWAP2 DUP3 DUP14 DUP6 DUP5 ADD SWAP3 ADD SWAP2 PUSH2 0x329E SWAP3 PUSH2 0x3829 JUMP JUMPDEST ADD SWAP1 DUP2 ADD PUSH32 0x3C2F746578743E3C7465787420783D2235382220793D22343130222066696C6C SWAP1 MSTORE PUSH32 0x3D22234141423843372220666F6E742D73697A653D2232302220666F6E742D66 DUP1 PUSH2 0x313 DUP4 ADD MSTORE DUP11 PUSH14 0x30B6B4B63C9E9120B934B0B6111F PUSH1 0x91 SHL SWAP3 DUP4 PUSH2 0x333 DUP3 ADD MSTORE PUSH2 0x341 SWAP7 DUP1 MLOAD DUP1 SWAP4 DUP10 DUP5 ADD SWAP3 ADD SWAP2 PUSH2 0x331F SWAP3 PUSH2 0x3829 JUMP JUMPDEST ADD SWAP5 DUP6 ADD PUSH32 0x3C2F746578743E3C7465787420783D2235382220793D22343430222066696C6C SWAP1 MSTORE PUSH2 0x361 DUP6 ADD MSTORE PUSH2 0x381 DUP5 ADD MSTORE PUSH2 0x38F SWAP3 DUP2 MLOAD SWAP2 DUP3 DUP12 DUP7 DUP5 ADD SWAP3 ADD SWAP2 PUSH2 0x336A SWAP3 PUSH2 0x3829 JUMP JUMPDEST PUSH32 0x3C2F746578743E3C7465787420783D2235382220793D22353230222066696C6C SWAP2 ADD SWAP3 DUP4 ADD MSTORE PUSH32 0x3D22233646383039352220666F6E742D73697A653D2231382220666F6E742D77 PUSH2 0x3AF DUP4 ADD MSTORE PUSH32 0x65696768743D223730302220666F6E742D66616D696C793D22417269616C223E PUSH2 0x3CF DUP4 ADD MSTORE PUSH7 0x544F4B454E2023 PUSH1 0xC8 SHL PUSH2 0x3EF DUP4 ADD MSTORE DUP1 MLOAD PUSH2 0x3F6 SWAP3 SWAP1 SWAP2 PUSH2 0x3409 SWAP1 DUP4 SWAP1 DUP6 DUP5 ADD SWAP1 DUP13 ADD PUSH2 0x3829 JUMP JUMPDEST ADD SWAP1 DUP2 ADD PUSH13 0x1E17BA32BC3A1F1E17B9BB339F PUSH1 0x99 SHL SWAP1 MSTORE SUB PUSH2 0x3E3 DUP2 ADD DUP3 MSTORE PUSH2 0x403 ADD PUSH2 0x3436 SWAP1 DUP3 PUSH2 0x390C JUMP JUMPDEST PUSH2 0x343F SWAP1 PUSH2 0x4567 JUMP JUMPDEST SWAP1 PUSH2 0x3449 DUP2 PUSH2 0x46C0 JUMP JUMPDEST SWAP1 PUSH2 0x3453 SWAP1 PUSH2 0x47DB JUMP JUMPDEST SWAP2 DUP7 MLOAD SWAP5 DUP6 SWAP5 PUSH9 0x3D913730B6B2911D11 PUSH1 0xB9 SHL DUP9 DUP8 ADD MSTORE DUP1 MLOAD SWAP1 DUP2 DUP10 PUSH1 0x29 DUP10 ADD SWAP3 ADD SWAP2 PUSH2 0x347F SWAP3 PUSH2 0x3829 JUMP JUMPDEST DUP6 ADD PUSH17 0x1116113232B9B1B934B83A34B7B7111D11 PUSH1 0x79 SHL PUSH1 0x29 DUP3 ADD MSTORE DUP2 MLOAD SWAP2 DUP3 DUP10 PUSH1 0x3A DUP5 ADD SWAP3 ADD SWAP2 PUSH2 0x34B0 SWAP3 PUSH2 0x3829 JUMP JUMPDEST ADD PUSH1 0x3A DUP2 ADD PUSH32 0x222C22696D616765223A22646174613A696D6167652F7376672B786D6C3B6261 SWAP1 MSTORE PUSH1 0x5A DUP2 ADD PUSH5 0x1CD94D8D0B PUSH1 0xDA SHL SWAP1 MSTORE DUP2 MLOAD SWAP2 DUP3 DUP9 PUSH1 0x5F DUP5 ADD SWAP3 ADD SWAP2 PUSH2 0x34FC SWAP3 PUSH2 0x3829 JUMP JUMPDEST ADD PUSH1 0x5F DUP2 ADD PUSH32 0x222C2261747472696275746573223A5B7B2274726169745F74797065223A2253 SWAP1 MSTORE PUSH17 0x3AB93330B1B29116113B30B63AB2911D11 PUSH1 0x79 SHL PUSH1 0x7F DUP3 ADD MSTORE DUP2 MLOAD SWAP2 DUP3 DUP8 PUSH1 0x90 DUP5 ADD SWAP3 ADD SWAP2 PUSH2 0x3553 SWAP3 PUSH2 0x3829 JUMP JUMPDEST ADD PUSH1 0x90 DUP2 ADD PUSH32 0x227D2C7B2274726169745F74797065223A224E6574776F726B222C2276616C75 SWAP1 MSTORE PUSH1 0xB0 DUP2 ADD PUSH32 0x65223A225365706F6C6961227D2C7B2274726169745F74797065223A22546F6B SWAP1 MSTORE PUSH16 0x32B71024A21116113B30B63AB2911D11 PUSH1 0x81 SHL PUSH1 0xD0 DUP3 ADD MSTORE DUP2 MLOAD SWAP2 DUP3 DUP7 PUSH1 0xE0 DUP5 ADD SWAP3 ADD SWAP2 PUSH2 0x35D0 SWAP3 PUSH2 0x3829 JUMP JUMPDEST ADD PUSH4 0x227D5D7D PUSH1 0xE0 SHL PUSH1 0xE0 DUP3 ADD MSTORE SUB PUSH1 0xC4 DUP2 ADD DUP3 MSTORE PUSH1 0xE4 ADD PUSH2 0x35F2 SWAP1 DUP3 PUSH2 0x390C JUMP JUMPDEST PUSH2 0x35FB SWAP1 PUSH2 0x4567 JUMP JUMPDEST SWAP2 DUP1 MLOAD DUP1 SWAP4 DUP4 DUP3 ADD PUSH32 0x646174613A6170706C69636174696F6E2F6A736F6E3B6261736536342C000000 SWAP1 MSTORE DUP1 MLOAD SWAP1 DUP2 DUP6 PUSH1 0x3D DUP6 ADD SWAP3 ADD SWAP2 PUSH2 0x363B SWAP3 PUSH2 0x3829 JUMP JUMPDEST DUP2 ADD SUB PUSH1 0x1D DUP2 ADD DUP5 MSTORE PUSH1 0x3D ADD PUSH2 0x3651 SWAP1 DUP5 PUSH2 0x390C JUMP JUMPDEST MLOAD SWAP2 DUP2 DUP4 SWAP3 DUP4 MSTORE DUP3 ADD PUSH2 0xDEE SWAP2 PUSH2 0x384A JUMP JUMPDEST DUP3 CALLVALUE PUSH2 0x38F JUMPI PUSH1 0x20 CALLDATASIZE PUSH1 0x3 NOT ADD SLT PUSH2 0x38F JUMPI PUSH2 0x2710 DUP3 CALLDATALOAD DUP2 DUP2 MUL SWAP3 SWAP2 DUP2 ISZERO SWAP2 DUP5 DIV EQ OR ISZERO PUSH2 0x19AA JUMPI PUSH1 0x5 SLOAD SWAP1 DUP2 ISZERO PUSH2 0x36A0 JUMPI PUSH1 0x20 SWAP4 POP MLOAD SWAP2 DIV DUP2 MSTORE RETURN JUMPDEST PUSH1 0x12 DUP5 PUSH4 0x4E487B71 PUSH1 0xE0 SHL PUSH0 MSTORE MSTORE PUSH1 0x24 PUSH0 REVERT JUMPDEST SWAP1 POP CALLVALUE PUSH2 0x38F JUMPI PUSH1 0x20 CALLDATASIZE PUSH1 0x3 NOT ADD SLT PUSH2 0x38F JUMPI CALLDATALOAD PUSH4 0xFFFFFFFF PUSH1 0xE0 SHL DUP2 AND DUP1 SWAP2 SUB PUSH2 0x38F JUMPI PUSH1 0x20 SWAP2 PUSH4 0x6CDB3D13 PUSH1 0xE1 SHL DUP3 EQ SWAP2 DUP3 ISZERO PUSH2 0x370E JUMPI JUMPDEST DUP3 ISZERO PUSH2 0x36FD JUMPI JUMPDEST POP MLOAD SWAP1 ISZERO ISZERO DUP2 MSTORE RETURN JUMPDEST PUSH4 0x1FFC9A7 PUSH1 0xE0 SHL EQ SWAP2 POP PUSH0 PUSH2 0x36F4 JUMP JUMPDEST PUSH4 0x3A24D07 PUSH1 0xE2 SHL DUP2 EQ SWAP3 POP PUSH2 0x36ED JUMP JUMPDEST DUP3 CALLVALUE PUSH2 0x38F JUMPI DUP1 PUSH1 0x3 NOT CALLDATASIZE ADD SLT PUSH2 0x38F JUMPI PUSH1 0x20 SWAP1 PUSH2 0x373B PUSH2 0x37DD JUMP JUMPDEST PUSH2 0x3743 PUSH2 0x3809 JUMP JUMPDEST PUSH1 0x1 PUSH1 0x1 PUSH1 0xA0 SHL SUB SWAP1 SWAP2 AND PUSH0 SWAP1 DUP2 MSTORE PUSH1 0xD DUP5 MSTORE DUP3 DUP2 KECCAK256 PUSH1 0xFF SWAP3 DUP4 AND DUP3 MSTORE DUP5 MSTORE DUP3 SWAP1 KECCAK256 SLOAD SWAP2 MLOAD SWAP2 AND ISZERO ISZERO DUP2 MSTORE RETURN JUMPDEST DUP3 CALLVALUE PUSH2 0x38F JUMPI DUP1 PUSH1 0x3 NOT CALLDATASIZE ADD SLT PUSH2 0x38F JUMPI PUSH1 0x20 SWAP1 PUSH2 0xBB7 PUSH2 0x378F PUSH2 0x37DD JUMP JUMPDEST PUSH1 0x24 CALLDATALOAD SWAP1 PUSH2 0x3B76 JUMP JUMPDEST CALLVALUE PUSH2 0x38F JUMPI PUSH1 0x20 CALLDATASIZE PUSH1 0x3 NOT ADD SLT PUSH2 0x38F JUMPI CALLDATALOAD DUP1 ISZERO ISZERO DUP1 SWAP2 SUB PUSH2 0x38F JUMPI PUSH2 0x37BC PUSH2 0x3E99 JUMP JUMPDEST PUSH1 0xFF DUP1 NOT PUSH1 0x8 SLOAD AND SWAP2 AND OR PUSH1 0x8 SSTORE PUSH0 DUP1 RETURN JUMPDEST PUSH1 0x24 CALLDATALOAD SWAP1 DUP2 ISZERO ISZERO DUP3 SUB PUSH2 0x38F JUMPI JUMP JUMPDEST PUSH1 0x4 CALLDATALOAD SWAP1 PUSH1 0x1 PUSH1 0x1 PUSH1 0xA0 SHL SUB DUP3 AND DUP3 SUB PUSH2 0x38F JUMPI JUMP JUMPDEST PUSH1 0x24 CALLDATALOAD SWAP1 PUSH1 0x1 PUSH1 0x1 PUSH1 0xA0 SHL SUB DUP3 AND DUP3 SUB PUSH2 0x38F JUMPI JUMP JUMPDEST PUSH1 0x24 CALLDATALOAD SWAP1 PUSH1 0xFF DUP3 AND DUP3 SUB PUSH2 0x38F JUMPI JUMP JUMPDEST PUSH1 0x4 CALLDATALOAD SWAP1 PUSH1 0xFF DUP3 AND DUP3 SUB PUSH2 0x38F JUMPI JUMP JUMPDEST PUSH0 JUMPDEST DUP4 DUP2 LT PUSH2 0x383A JUMPI POP POP PUSH0 SWAP2 ADD MSTORE JUMP JUMPDEST DUP2 DUP2 ADD MLOAD DUP4 DUP3 ADD MSTORE PUSH1 0x20 ADD PUSH2 0x382B JUMP JUMPDEST SWAP1 PUSH1 0x20 SWAP2 PUSH2 0x3863 DUP2 MLOAD DUP1 SWAP3 DUP2 DUP6 MSTORE DUP6 DUP1 DUP7 ADD SWAP2 ADD PUSH2 0x3829 JUMP JUMPDEST PUSH1 0x1F ADD PUSH1 0x1F NOT AND ADD ADD SWAP1 JUMP JUMPDEST SWAP1 PUSH1 0x1 DUP3 DUP2 SHR SWAP3 AND DUP1 ISZERO PUSH2 0x389D JUMPI JUMPDEST PUSH1 0x20 DUP4 LT EQ PUSH2 0x3889 JUMPI JUMP JUMPDEST PUSH4 0x4E487B71 PUSH1 0xE0 SHL PUSH0 MSTORE PUSH1 0x22 PUSH1 0x4 MSTORE PUSH1 0x24 PUSH0 REVERT JUMPDEST SWAP2 PUSH1 0x7F AND SWAP2 PUSH2 0x387E JUMP JUMPDEST PUSH1 0x20 DUP2 ADD SWAP1 DUP2 LT PUSH1 0x1 PUSH1 0x1 PUSH1 0x40 SHL SUB DUP3 GT OR PUSH2 0x38C2 JUMPI PUSH1 0x40 MSTORE JUMP JUMPDEST PUSH4 0x4E487B71 PUSH1 0xE0 SHL PUSH0 MSTORE PUSH1 0x41 PUSH1 0x4 MSTORE PUSH1 0x24 PUSH0 REVERT JUMPDEST PUSH1 0x40 DUP2 ADD SWAP1 DUP2 LT PUSH1 0x1 PUSH1 0x1 PUSH1 0x40 SHL SUB DUP3 GT OR PUSH2 0x38C2 JUMPI PUSH1 0x40 MSTORE JUMP JUMPDEST PUSH1 0x60 DUP2 ADD SWAP1 DUP2 LT PUSH1 0x1 PUSH1 0x1 PUSH1 0x40 SHL SUB DUP3 GT OR PUSH2 0x38C2 JUMPI PUSH1 0x40 MSTORE JUMP JUMPDEST SWAP1 PUSH1 0x1F DUP1 NOT SWAP2 ADD AND DUP2 ADD SWAP1 DUP2 LT PUSH1 0x1 PUSH1 0x1 PUSH1 0x40 SHL SUB DUP3 GT OR PUSH2 0x38C2 JUMPI PUSH1 0x40 MSTORE JUMP JUMPDEST SWAP1 PUSH1 0x40 MLOAD SWAP2 DUP3 PUSH0 DUP3 SLOAD PUSH2 0x393F DUP2 PUSH2 0x386F JUMP JUMPDEST SWAP1 DUP2 DUP5 MSTORE PUSH1 0x20 SWAP5 PUSH1 0x1 SWAP2 PUSH1 0x1 DUP2 AND SWAP1 DUP2 PUSH0 EQ PUSH2 0x39AD JUMPI POP PUSH1 0x1 EQ PUSH2 0x396F JUMPI JUMPDEST POP POP POP PUSH2 0x396D SWAP3 POP SUB DUP4 PUSH2 0x390C JUMP JUMPDEST JUMP JUMPDEST PUSH0 SWAP1 DUP2 MSTORE DUP6 DUP2 KECCAK256 SWAP6 SWAP4 POP SWAP2 SWAP1 JUMPDEST DUP2 DUP4 LT PUSH2 0x3995 JUMPI POP POP PUSH2 0x396D SWAP4 POP DUP3 ADD ADD PUSH0 DUP1 DUP1 PUSH2 0x395E JUMP JUMPDEST DUP6 SLOAD DUP9 DUP5 ADD DUP6 ADD MSTORE SWAP5 DUP6 ADD SWAP5 DUP8 SWAP5 POP SWAP2 DUP4 ADD SWAP2 PUSH2 0x397C JUMP JUMPDEST SWAP3 POP POP POP PUSH2 0x396D SWAP5 SWAP3 POP PUSH1 0xFF NOT AND DUP3 DUP5 ADD MSTORE ISZERO ISZERO PUSH1 0x5 SHL DUP3 ADD ADD PUSH0 DUP1 DUP1 PUSH2 0x395E JUMP JUMPDEST SWAP2 DUP2 PUSH1 0x1F DUP5 ADD SLT ISZERO PUSH2 0x38F JUMPI DUP3 CALLDATALOAD SWAP2 PUSH1 0x1 PUSH1 0x1 PUSH1 0x40 SHL SUB DUP4 GT PUSH2 0x38F JUMPI PUSH1 0x20 DUP4 DUP2 DUP7 ADD SWAP6 ADD ADD GT PUSH2 0x38F JUMPI JUMP JUMPDEST PUSH1 0x4 CALLDATALOAD SWAP1 PUSH2 0xFFFF DUP3 AND DUP3 SUB PUSH2 0x38F JUMPI JUMP JUMPDEST PUSH1 0x24 CALLDATALOAD SWAP1 PUSH2 0xFFFF DUP3 AND DUP3 SUB PUSH2 0x38F JUMPI JUMP JUMPDEST PUSH1 0x1 PUSH1 0x1 PUSH1 0x40 SHL SUB DUP2 GT PUSH2 0x38C2 JUMPI PUSH1 0x5 SHL PUSH1 0x20 ADD SWAP1 JUMP JUMPDEST SWAP3 SWAP2 PUSH2 0x3A40 DUP3 PUSH2 0x3A1E JUMP JUMPDEST SWAP2 PUSH2 0x3A4E PUSH1 0x40 MLOAD SWAP4 DUP5 PUSH2 0x390C JUMP JUMPDEST DUP3 SWAP5 DUP2 DUP5 MSTORE PUSH1 0x20 DUP1 SWAP5 ADD SWAP2 PUSH1 0x5 SHL DUP2 ADD SWAP3 DUP4 GT PUSH2 0x38F JUMPI SWAP1 JUMPDEST DUP3 DUP3 LT PUSH2 0x3A74 JUMPI POP POP POP POP JUMP JUMPDEST DUP2 CALLDATALOAD DUP2 MSTORE SWAP1 DUP4 ADD SWAP1 DUP4 ADD PUSH2 0x3A67 JUMP JUMPDEST SWAP1 DUP1 PUSH1 0x1F DUP4 ADD SLT ISZERO PUSH2 0x38F JUMPI DUP2 PUSH1 0x20 PUSH2 0x3A9E SWAP4 CALLDATALOAD SWAP2 ADD PUSH2 0x3A35 JUMP JUMPDEST SWAP1 JUMP JUMPDEST PUSH1 0x1 PUSH1 0x1 PUSH1 0x40 SHL SUB DUP2 GT PUSH2 0x38C2 JUMPI PUSH1 0x1F ADD PUSH1 0x1F NOT AND PUSH1 0x20 ADD SWAP1 JUMP JUMPDEST SWAP3 SWAP2 SWAP3 PUSH2 0x3AC8 DUP3 PUSH2 0x3AA1 JUMP JUMPDEST SWAP2 PUSH2 0x3AD6 PUSH1 0x40 MLOAD SWAP4 DUP5 PUSH2 0x390C JUMP JUMPDEST DUP3 SWAP5 DUP2 DUP5 MSTORE DUP2 DUP4 ADD GT PUSH2 0x38F JUMPI DUP3 DUP2 PUSH1 0x20 SWAP4 DUP5 PUSH0 SWAP7 ADD CALLDATACOPY ADD ADD MSTORE JUMP JUMPDEST SWAP1 DUP1 PUSH1 0x1F DUP4 ADD SLT ISZERO PUSH2 0x38F JUMPI DUP2 PUSH1 0x20 PUSH2 0x3A9E SWAP4 CALLDATALOAD SWAP2 ADD PUSH2 0x3ABC JUMP JUMPDEST SWAP1 DUP2 MLOAD DUP1 DUP3 MSTORE PUSH1 0x20 DUP1 DUP1 SWAP4 ADD SWAP4 ADD SWAP2 PUSH0 JUMPDEST DUP3 DUP2 LT PUSH2 0x3B2C JUMPI POP POP POP POP SWAP1 JUMP JUMPDEST DUP4 MLOAD DUP6 MSTORE SWAP4 DUP2 ADD SWAP4 SWAP3 DUP2 ADD SWAP3 PUSH1 0x1 ADD PUSH2 0x3B1E JUMP JUMPDEST CALLVALUE PUSH2 0x38F JUMPI PUSH0 CALLDATASIZE PUSH1 0x3 NOT ADD SLT PUSH2 0x38F JUMPI PUSH1 0x20 PUSH1 0x40 MLOAD PUSH1 0x1 DUP2 MSTORE RETURN JUMPDEST CALLVALUE PUSH2 0x38F JUMPI PUSH0 CALLDATASIZE PUSH1 0x3 NOT ADD SLT PUSH2 0x38F JUMPI PUSH1 0x20 PUSH1 0x40 MLOAD PUSH1 0x2 DUP2 MSTORE RETURN JUMPDEST PUSH1 0x1 PUSH1 0x1 PUSH1 0xA0 SHL SUB AND SWAP1 DUP2 ISZERO PUSH2 0x3B9E JUMPI PUSH0 MSTORE PUSH0 PUSH1 0x20 MSTORE PUSH1 0x40 PUSH0 KECCAK256 SWAP1 PUSH0 MSTORE PUSH1 0x20 MSTORE PUSH1 0x40 PUSH0 KECCAK256 SLOAD SWAP1 JUMP JUMPDEST PUSH1 0x40 MLOAD PUSH3 0x461BCD PUSH1 0xE5 SHL DUP2 MSTORE PUSH1 0x20 PUSH1 0x4 DUP3 ADD MSTORE PUSH1 0x2A PUSH1 0x24 DUP3 ADD MSTORE PUSH32 0x455243313135353A2061646472657373207A65726F206973206E6F7420612076 PUSH1 0x44 DUP3 ADD MSTORE PUSH10 0x30B634B21037BBB732B9 PUSH1 0xB1 SHL PUSH1 0x64 DUP3 ADD MSTORE PUSH1 0x84 SWAP1 REVERT JUMPDEST SWAP1 DUP1 PUSH1 0x20 SWAP4 SWAP3 DUP2 DUP5 MSTORE DUP5 DUP5 ADD CALLDATACOPY PUSH0 DUP3 DUP3 ADD DUP5 ADD MSTORE PUSH1 0x1F ADD PUSH1 0x1F NOT AND ADD ADD SWAP1 JUMP JUMPDEST ISZERO PUSH2 0x3C1D JUMPI JUMP JUMPDEST PUSH1 0x40 MLOAD PUSH3 0x461BCD PUSH1 0xE5 SHL DUP2 MSTORE PUSH1 0x20 PUSH1 0x4 DUP3 ADD MSTORE PUSH1 0x13 PUSH1 0x24 DUP3 ADD MSTORE PUSH19 0x496E76616C6964207765616C7468207461736B PUSH1 0x68 SHL PUSH1 0x44 DUP3 ADD MSTORE PUSH1 0x64 SWAP1 REVERT JUMPDEST ISZERO PUSH2 0x3C5F JUMPI JUMP JUMPDEST PUSH1 0x40 MLOAD PUSH3 0x461BCD PUSH1 0xE5 SHL DUP2 MSTORE PUSH1 0x20 PUSH1 0x4 DUP3 ADD MSTORE PUSH1 0xF PUSH1 0x24 DUP3 ADD MSTORE PUSH15 0x105B1C9958591E4818DB185A5B5959 PUSH1 0x8A SHL PUSH1 0x44 DUP3 ADD MSTORE PUSH1 0x64 SWAP1 REVERT JUMPDEST ISZERO PUSH2 0x3C9D JUMPI JUMP JUMPDEST PUSH1 0x40 MLOAD PUSH3 0x461BCD PUSH1 0xE5 SHL DUP2 MSTORE PUSH1 0x20 PUSH1 0x4 DUP3 ADD MSTORE PUSH1 0xF PUSH1 0x24 DUP3 ADD MSTORE PUSH15 0x125B9D985B1A59081C1C9BD91D58DD PUSH1 0x8A SHL PUSH1 0x44 DUP3 ADD MSTORE PUSH1 0x64 SWAP1 REVERT JUMPDEST SWAP2 SWAP1 DUP3 ADD DUP1 SWAP3 GT PUSH2 0x3CE1 JUMPI JUMP JUMPDEST PUSH4 0x4E487B71 PUSH1 0xE0 SHL PUSH0 MSTORE PUSH1 0x11 PUSH1 0x4 MSTORE PUSH1 0x24 PUSH0 REVERT JUMPDEST PUSH2 0xFFFF AND PUSH2 0x3D04 DUP2 ISZERO ISZERO PUSH2 0x3C96 JUMP JUMPDEST PUSH2 0x3E8 SWAP1 DUP2 ADD DUP1 SWAP2 GT PUSH2 0x3CE1 JUMPI SWAP1 JUMP JUMPDEST ISZERO PUSH2 0x3D1B JUMPI JUMP JUMPDEST PUSH1 0x40 MLOAD PUSH3 0x461BCD PUSH1 0xE5 SHL DUP2 MSTORE PUSH1 0x20 PUSH1 0x4 DUP3 ADD MSTORE PUSH1 0x2E PUSH1 0x24 DUP3 ADD MSTORE PUSH32 0x455243313135353A2063616C6C6572206973206E6F7420746F6B656E206F776E PUSH1 0x44 DUP3 ADD MSTORE PUSH14 0x195C881BDC88185C1C1C9BDD9959 PUSH1 0x92 SHL PUSH1 0x64 DUP3 ADD MSTORE PUSH1 0x84 SWAP1 REVERT JUMPDEST ISZERO PUSH2 0x3D7E JUMPI JUMP JUMPDEST PUSH1 0x40 MLOAD PUSH3 0x461BCD PUSH1 0xE5 SHL DUP2 MSTORE PUSH1 0x20 PUSH1 0x4 DUP3 ADD MSTORE PUSH1 0x13 PUSH1 0x24 DUP3 ADD MSTORE PUSH19 0x125B9D985B1A59081858DA1A595D995B595B9D PUSH1 0x6A SHL PUSH1 0x44 DUP3 ADD MSTORE PUSH1 0x64 SWAP1 REVERT JUMPDEST SWAP1 PUSH2 0x3DC3 DUP3 PUSH2 0x3A1E JUMP JUMPDEST PUSH2 0x3DD0 PUSH1 0x40 MLOAD SWAP2 DUP3 PUSH2 0x390C JUMP JUMPDEST DUP3 DUP2 MSTORE DUP1 SWAP3 PUSH2 0x3DE1 PUSH1 0x1F NOT SWAP2 PUSH2 0x3A1E JUMP JUMPDEST ADD SWAP1 PUSH1 0x20 CALLDATASIZE SWAP2 ADD CALLDATACOPY JUMP JUMPDEST DUP1 MLOAD DUP3 LT ISZERO PUSH2 0x3DFF JUMPI PUSH1 0x20 SWAP2 PUSH1 0x5 SHL ADD ADD SWAP1 JUMP JUMPDEST PUSH4 0x4E487B71 PUSH1 0xE0 SHL PUSH0 MSTORE PUSH1 0x32 PUSH1 0x4 MSTORE PUSH1 0x24 PUSH0 REVERT JUMPDEST SWAP2 SWAP1 DUP2 LT ISZERO PUSH2 0x3DFF JUMPI PUSH1 0x5 SHL ADD SWAP1 JUMP JUMPDEST PUSH1 0x17 SLOAD DUP2 LT ISZERO PUSH2 0x3DFF JUMPI PUSH1 0x17 PUSH0 MSTORE PUSH32 0xC624B66CC0138B8FABC209247F72D758E1CF3343756D543BADBF24212BED8C15 ADD SWAP1 PUSH0 SWAP1 JUMP JUMPDEST ISZERO PUSH2 0x3E5F JUMPI JUMP JUMPDEST PUSH1 0x40 MLOAD PUSH3 0x461BCD PUSH1 0xE5 SHL DUP2 MSTORE PUSH1 0x20 PUSH1 0x4 DUP3 ADD MSTORE PUSH1 0x12 PUSH1 0x24 DUP3 ADD MSTORE PUSH18 0x496E76616C696420686F6D65206261646765 PUSH1 0x70 SHL PUSH1 0x44 DUP3 ADD MSTORE PUSH1 0x64 SWAP1 REVERT JUMPDEST PUSH1 0x3 SLOAD PUSH1 0x1 PUSH1 0x1 PUSH1 0xA0 SHL SUB AND CALLER SUB PUSH2 0x3EAD JUMPI JUMP JUMPDEST PUSH1 0x64 PUSH1 0x40 MLOAD PUSH3 0x461BCD PUSH1 0xE5 SHL DUP2 MSTORE PUSH1 0x20 PUSH1 0x4 DUP3 ADD MSTORE PUSH1 0x20 PUSH1 0x24 DUP3 ADD MSTORE PUSH32 0x4F776E61626C653A2063616C6C6572206973206E6F7420746865206F776E6572 PUSH1 0x44 DUP3 ADD MSTORE REVERT JUMPDEST PUSH1 0x40 MLOAD SWAP1 PUSH2 0x3EFE DUP3 PUSH2 0x38D6 JUMP JUMPDEST PUSH1 0x1B DUP3 MSTORE PUSH32 0x5269736B4C656E732057616C6C657420436F6C6C65637469626C650000000000 PUSH1 0x20 DUP4 ADD MSTORE JUMP JUMPDEST PUSH1 0x64 DUP2 GT DUP1 PUSH2 0x4303 JUMPI JUMPDEST PUSH2 0x41D1 JUMPI PUSH1 0xC8 DUP2 GT DUP1 PUSH2 0x41C6 JUMPI JUMPDEST PUSH2 0x413E JUMPI PUSH2 0x3F4F DUP2 PUSH2 0x4F8E JUMP JUMPDEST PUSH2 0x4011 JUMPI PUSH2 0x3E8 DUP2 GT DUP1 PUSH2 0x4004 JUMPI JUMPDEST PUSH2 0x3F9C JUMPI POP PUSH1 0x40 MLOAD PUSH2 0x3F6F DUP2 PUSH2 0x38D6 JUMP JUMPDEST PUSH1 0x19 DUP2 MSTORE PUSH32 0x5269736B4C656E732044656D6F20436F6C6C65637469626C6500000000000000 PUSH1 0x20 DUP3 ADD MSTORE SWAP1 JUMP JUMPDEST PUSH2 0xFFFF PUSH2 0x3FAB PUSH2 0x3FB1 SWAP3 PUSH2 0x5134 JUMP JUMPDEST AND PUSH2 0x534B JUMP JUMPDEST PUSH2 0x3A9E PUSH1 0x3A PUSH1 0x40 MLOAD DUP1 SWAP4 PUSH32 0x5269736B4C656E73205765616C74682052656365697074202D20000000000000 PUSH1 0x20 DUP4 ADD MSTORE PUSH2 0x3FF4 DUP2 MLOAD DUP1 SWAP3 PUSH1 0x20 DUP7 DUP7 ADD SWAP2 ADD PUSH2 0x3829 JUMP JUMPDEST DUP2 ADD SUB PUSH1 0x1A DUP2 ADD DUP5 MSTORE ADD DUP3 PUSH2 0x390C JUMP JUMPDEST POP PUSH3 0x103E7 DUP2 GT ISZERO PUSH2 0x3F5E JUMP JUMPDEST PUSH1 0x6 DUP2 EQ PUSH2 0x4104 JUMPI PUSH1 0x7 DUP2 EQ PUSH2 0x40CA JUMPI PUSH1 0x8 DUP2 EQ PUSH2 0x409B JUMPI PUSH1 0x9 EQ PUSH2 0x4069 JUMPI PUSH1 0x40 MLOAD PUSH2 0x403C DUP2 PUSH2 0x38D6 JUMP JUMPDEST PUSH1 0x19 DUP2 MSTORE PUSH32 0x5269736B4C656E732050726F7465637469766520486564676500000000000000 PUSH1 0x20 DUP3 ADD MSTORE SWAP1 JUMP JUMPDEST PUSH1 0x40 MLOAD PUSH2 0x4075 DUP2 PUSH2 0x38D6 JUMP JUMPDEST PUSH1 0x16 DUP2 MSTORE PUSH22 0x5269736B4C656E732050657270204C65766572616765 PUSH1 0x50 SHL PUSH1 0x20 DUP3 ADD MSTORE SWAP1 JUMP JUMPDEST POP PUSH1 0x40 MLOAD PUSH2 0x40A8 DUP2 PUSH2 0x38D6 JUMP JUMPDEST PUSH1 0x12 DUP2 MSTORE PUSH18 0x5269736B4C656E732053706F74204C6F6F7 PUSH1 0x74 SHL PUSH1 0x20 DUP3 ADD MSTORE SWAP1 JUMP JUMPDEST POP PUSH1 0x40 MLOAD PUSH2 0x40D7 DUP2 PUSH2 0x38D6 JUMP JUMPDEST PUSH1 0x1A DUP2 MSTORE PUSH32 0x5269736B4C656E73205061706572204C6561646572626F617264000000000000 PUSH1 0x20 DUP3 ADD MSTORE SWAP1 JUMP JUMPDEST POP PUSH1 0x40 MLOAD PUSH2 0x4111 DUP2 PUSH2 0x38D6 JUMP JUMPDEST PUSH1 0x19 DUP2 MSTORE PUSH32 0x5269736B4C656E73205061706572204261736520436865636B00000000000000 PUSH1 0x20 DUP3 ADD MSTORE SWAP1 JUMP JUMPDEST PUSH1 0xC7 NOT DUP2 ADD SWAP1 DUP2 GT PUSH2 0x3CE1 JUMPI PUSH1 0xFF AND PUSH1 0x1 EQ PUSH2 0x418D JUMPI PUSH1 0x40 MLOAD PUSH2 0x4160 DUP2 PUSH2 0x38D6 JUMP JUMPDEST PUSH1 0x1F DUP2 MSTORE PUSH32 0x5269736B4C656E73205765616C7468204C6966656379636C6520426164676500 PUSH1 0x20 DUP3 ADD MSTORE SWAP1 JUMP JUMPDEST PUSH1 0x40 MLOAD PUSH2 0x4199 DUP2 PUSH2 0x38D6 JUMP JUMPDEST PUSH1 0x1D DUP2 MSTORE PUSH32 0x5269736B4C656E73205765616C74682052656365697074204261646765000000 PUSH1 0x20 DUP3 ADD MSTORE SWAP1 JUMP JUMPDEST POP PUSH1 0xCA DUP2 GT ISZERO PUSH2 0x3F42 JUMP JUMPDEST PUSH1 0x63 NOT DUP2 ADD SWAP1 DUP2 GT PUSH2 0x3CE1 JUMPI PUSH1 0xFF AND PUSH1 0x1 DUP2 EQ PUSH2 0x42C9 JUMPI PUSH1 0x2 DUP2 EQ PUSH2 0x42C0 JUMPI PUSH1 0x3 DUP2 EQ PUSH2 0x4286 JUMPI PUSH1 0x4 EQ PUSH2 0x4243 JUMPI PUSH1 0x40 MLOAD PUSH2 0x420B DUP2 PUSH2 0x38F1 JUMP JUMPDEST PUSH1 0x22 DUP2 MSTORE PUSH32 0x5269736B4C656E73205061706572205072657669657720436F6C6C6563746962 PUSH1 0x20 DUP3 ADD MSTORE PUSH2 0x6C65 PUSH1 0xF0 SHL PUSH1 0x40 DUP3 ADD MSTORE SWAP1 JUMP JUMPDEST PUSH1 0x40 MLOAD PUSH2 0x424F DUP2 PUSH2 0x38F1 JUMP JUMPDEST PUSH1 0x21 DUP2 MSTORE PUSH32 0x5269736B4C656E732050726F64756374205175697A20436F6C6C65637469626C PUSH1 0x20 DUP3 ADD MSTORE PUSH1 0x65 PUSH1 0xF8 SHL PUSH1 0x40 DUP3 ADD MSTORE SWAP1 JUMP JUMPDEST POP PUSH1 0x40 MLOAD PUSH2 0x4293 DUP2 PUSH2 0x38D6 JUMP JUMPDEST PUSH1 0x20 DUP2 MSTORE PUSH32 0x5269736B4C656E73205269736B2052657669657720436F6C6C65637469626C65 PUSH1 0x20 DUP3 ADD MSTORE SWAP1 JUMP JUMPDEST POP PUSH2 0x3A9E PUSH2 0x3EF1 JUMP JUMPDEST POP PUSH1 0x40 MLOAD PUSH2 0x42D6 DUP2 PUSH2 0x38D6 JUMP JUMPDEST PUSH1 0x1C DUP2 MSTORE PUSH32 0x5269736B4C656E732057656C636F6D6520436F6C6C65637469626C6500000000 PUSH1 0x20 DUP3 ADD MSTORE SWAP1 JUMP JUMPDEST POP PUSH1 0x69 DUP2 GT ISZERO PUSH2 0x3F34 JUMP JUMPDEST PUSH2 0x3E8 DUP2 GT DUP1 PUSH2 0x4532 JUMPI JUMPDEST PUSH2 0x4498 JUMPI PUSH2 0x4326 DUP2 PUSH2 0x4F8E JUMP JUMPDEST PUSH2 0x4446 JUMPI PUSH1 0xC8 DUP2 GT DUP1 PUSH2 0x443B JUMPI JUMPDEST PUSH2 0x43F4 JUMPI PUSH1 0x64 DUP2 GT SWAP1 DUP2 PUSH2 0x43E8 JUMPI JUMPDEST POP PUSH2 0x439A JUMPI PUSH1 0x40 MLOAD PUSH2 0x4354 DUP2 PUSH2 0x38F1 JUMP JUMPDEST PUSH1 0x30 DUP2 MSTORE PUSH32 0x41205365706F6C696120636F6C6C65637469626C6520666F7220746865205269 PUSH1 0x20 DUP3 ADD MSTORE PUSH16 0x39B5A632B739903232B6B790343AB117 PUSH1 0x81 SHL PUSH1 0x40 DUP3 ADD MSTORE SWAP1 JUMP JUMPDEST PUSH1 0x40 MLOAD PUSH2 0x43A6 DUP2 PUSH2 0x38F1 JUMP JUMPDEST PUSH1 0x2C DUP2 MSTORE PUSH32 0x5365706F6C6961206F6E626F617264696E6720636F6C6C65637469626C652066 PUSH1 0x20 DUP3 ADD MSTORE PUSH12 0x37B9102934B9B5A632B73997 PUSH1 0xA1 SHL PUSH1 0x40 DUP3 ADD MSTORE SWAP1 JUMP JUMPDEST PUSH1 0x69 SWAP2 POP GT ISZERO PUSH0 PUSH2 0x4343 JUMP JUMPDEST POP PUSH1 0x40 MLOAD PUSH2 0x4401 DUP2 PUSH2 0x38F1 JUMP JUMPDEST PUSH1 0x24 DUP2 MSTORE PUSH32 0x5365706F6C6961205765616C746820776F726B666C6F7720636F6C6C65637469 PUSH1 0x20 DUP3 ADD MSTORE PUSH4 0x31363297 PUSH1 0xE1 SHL PUSH1 0x40 DUP3 ADD MSTORE SWAP1 JUMP JUMPDEST POP PUSH1 0xCA DUP2 GT ISZERO PUSH2 0x4334 JUMP JUMPDEST POP PUSH1 0x40 MLOAD PUSH2 0x4453 DUP2 PUSH2 0x38F1 JUMP JUMPDEST PUSH1 0x2F DUP2 MSTORE PUSH32 0x5365706F6C69612070617065722D74726164696E6720616368696576656D656E PUSH1 0x20 DUP3 ADD MSTORE PUSH15 0x3A103337B9102934B9B5A632B73997 PUSH1 0x89 SHL PUSH1 0x40 DUP3 ADD MSTORE SWAP1 JUMP JUMPDEST PUSH2 0xFFFF PUSH2 0x3FAB PUSH2 0x44A7 SWAP3 PUSH2 0x5134 JUMP JUMPDEST PUSH2 0x3A9E PUSH1 0x63 PUSH1 0x40 MLOAD DUP1 SWAP4 PUSH32 0x5365706F6C6961205765616C7468207265636569707420666F72200000000000 PUSH1 0x20 DUP4 ADD MSTORE PUSH2 0x44EB DUP2 MLOAD DUP1 SWAP3 PUSH1 0x20 PUSH1 0x3B DUP7 ADD SWAP2 ADD PUSH2 0x3829 JUMP JUMPDEST DUP2 ADD PUSH32 0x2E20536574746C65206F722072656465656D206275726E73206D61746368696E PUSH1 0x3B DUP3 ADD MSTORE PUSH8 0x33903AB734BA3997 PUSH1 0xC1 SHL PUSH1 0x5B DUP3 ADD MSTORE SUB PUSH1 0x43 DUP2 ADD DUP5 MSTORE ADD DUP3 PUSH2 0x390C JUMP JUMPDEST POP PUSH3 0x103E7 DUP2 GT ISZERO PUSH2 0x4319 JUMP JUMPDEST SWAP1 PUSH2 0x4549 DUP3 PUSH2 0x3AA1 JUMP JUMPDEST PUSH2 0x4556 PUSH1 0x40 MLOAD SWAP2 DUP3 PUSH2 0x390C JUMP JUMPDEST DUP3 DUP2 MSTORE DUP1 SWAP3 PUSH2 0x3DE1 PUSH1 0x1F NOT SWAP2 PUSH2 0x3AA1 JUMP JUMPDEST SWAP1 DUP2 MLOAD ISZERO PUSH2 0x46AC JUMPI PUSH1 0x40 MLOAD SWAP2 PUSH2 0x457C DUP4 PUSH2 0x38F1 JUMP JUMPDEST PUSH1 0x40 DUP4 MSTORE PUSH32 0x4142434445464748494A4B4C4D4E4F505152535455565758595A616263646566 PUSH1 0x20 DUP5 ADD MSTORE PUSH32 0x6768696A6B6C6D6E6F707172737475767778797A303132333435363738392B2F PUSH1 0x40 DUP5 ADD MSTORE DUP1 MLOAD SWAP3 PUSH1 0x2 SWAP2 PUSH1 0x2 DUP6 ADD DUP1 SWAP6 GT PUSH2 0x3CE1 JUMPI PUSH1 0x3 SWAP5 DUP6 SWAP1 DIV PUSH1 0x1 PUSH1 0x1 PUSH1 0xFE SHL SUB DUP2 AND DUP2 SUB PUSH2 0x3CE1 JUMPI PUSH2 0x4602 SWAP1 PUSH1 0x2 SWAP7 SWAP5 SWAP7 SHL PUSH2 0x453F JUMP JUMPDEST SWAP3 PUSH1 0x20 DUP5 ADD SWAP3 DUP3 SWAP2 DUP4 MLOAD DUP5 ADD SWAP8 PUSH1 0x20 DUP10 ADD SWAP3 DUP4 MLOAD SWAP5 PUSH0 DUP6 MSTORE JUMPDEST DUP11 DUP2 LT PUSH2 0x465F JUMPI POP POP POP POP PUSH1 0x3 SWAP4 SWAP5 SWAP6 SWAP7 POP MSTORE MLOAD MOD DUP1 PUSH1 0x1 EQ PUSH2 0x464D JUMPI PUSH1 0x2 EQ PUSH2 0x4643 JUMPI POP SWAP1 JUMP JUMPDEST PUSH1 0x3D SWAP1 PUSH0 NOT ADD MSTORE8 SWAP1 JUMP JUMPDEST POP PUSH1 0x3D SWAP1 DUP2 PUSH0 NOT DUP3 ADD MSTORE8 PUSH1 0x1 NOT ADD MSTORE8 SWAP1 JUMP JUMPDEST DUP4 PUSH1 0x4 SWAP2 SWAP12 SWAP9 SWAP12 ADD SWAP11 DUP12 MLOAD PUSH1 0x1 SWAP1 PUSH1 0x3F SWAP1 DUP3 DUP3 DUP3 PUSH1 0x12 SHR AND DUP8 ADD ADD MLOAD DUP5 MSTORE8 DUP3 DUP3 DUP3 PUSH1 0xC SHR AND DUP8 ADD ADD MLOAD DUP4 DUP6 ADD MSTORE8 DUP3 DUP3 DUP3 PUSH1 0x6 SHR AND DUP8 ADD ADD MLOAD DUP8 DUP6 ADD MSTORE8 AND DUP5 ADD ADD MLOAD DUP6 DUP3 ADD MSTORE8 ADD SWAP7 SWAP10 PUSH2 0x461B JUMP JUMPDEST SWAP1 POP PUSH1 0x40 MLOAD PUSH2 0x46BA DUP2 PUSH2 0x38A7 JUMP JUMPDEST PUSH0 DUP2 MSTORE SWAP1 JUMP JUMPDEST PUSH1 0x64 DUP2 GT DUP1 PUSH2 0x47D0 JUMPI JUMPDEST PUSH2 0x47AF JUMPI PUSH1 0xC8 DUP2 GT DUP1 PUSH2 0x47A4 JUMPI JUMPDEST PUSH2 0x477C JUMPI PUSH2 0x46E5 DUP2 PUSH2 0x4F8E JUMP JUMPDEST PUSH2 0x4752 JUMPI PUSH2 0x3E8 DUP2 GT SWAP1 DUP2 PUSH2 0x4744 JUMPI JUMPDEST POP PUSH2 0x471A JUMPI PUSH1 0x40 MLOAD PUSH2 0x4706 DUP2 PUSH2 0x38D6 JUMP JUMPDEST PUSH1 0x4 DUP2 MSTORE PUSH4 0x44656D6F PUSH1 0xE0 SHL PUSH1 0x20 DUP3 ADD MSTORE SWAP1 JUMP JUMPDEST PUSH1 0x40 MLOAD PUSH2 0x4726 DUP2 PUSH2 0x38D6 JUMP JUMPDEST PUSH1 0xE DUP2 MSTORE PUSH14 0x15D9585B1D1A08149958D95A5C1D PUSH1 0x92 SHL PUSH1 0x20 DUP3 ADD MSTORE SWAP1 JUMP JUMPDEST PUSH3 0x103E7 SWAP2 POP GT ISZERO PUSH0 PUSH2 0x46F5 JUMP JUMPDEST POP PUSH1 0x40 MLOAD PUSH2 0x475F DUP2 PUSH2 0x38D6 JUMP JUMPDEST PUSH1 0xD DUP2 MSTORE PUSH13 0x50617065722054726164696E67 PUSH1 0x98 SHL PUSH1 0x20 DUP3 ADD MSTORE SWAP1 JUMP JUMPDEST POP PUSH1 0x40 MLOAD PUSH2 0x4789 DUP2 PUSH2 0x38D6 JUMP JUMPDEST PUSH1 0xB DUP2 MSTORE PUSH11 0x5765616C7468205461736B PUSH1 0xA8 SHL PUSH1 0x20 DUP3 ADD MSTORE SWAP1 JUMP JUMPDEST POP PUSH1 0xCA DUP2 GT ISZERO PUSH2 0x46D8 JUMP JUMPDEST POP PUSH1 0x40 MLOAD PUSH2 0x47BC DUP2 PUSH2 0x38D6 JUMP JUMPDEST PUSH1 0x4 DUP2 MSTORE PUSH4 0x486F6D65 PUSH1 0xE0 SHL PUSH1 0x20 DUP3 ADD MSTORE SWAP1 JUMP JUMPDEST POP PUSH1 0x69 DUP2 GT ISZERO PUSH2 0x46CA JUMP JUMPDEST DUP1 PUSH0 SWAP2 PUSH27 0x184F03E93FF9F4DAA797ED6E38ED64BF6A1F010000000000000000 DUP1 DUP3 LT ISZERO PUSH2 0x490F JUMPI JUMPDEST POP PUSH14 0x4EE2D6D415B85ACEF8100000000 DUP1 DUP4 LT ISZERO PUSH2 0x4900 JUMPI JUMPDEST POP PUSH7 0x2386F26FC10000 DUP1 DUP4 LT ISZERO PUSH2 0x48F1 JUMPI JUMPDEST POP PUSH4 0x5F5E100 DUP1 DUP4 LT ISZERO PUSH2 0x48E2 JUMPI JUMPDEST POP PUSH2 0x2710 DUP1 DUP4 LT ISZERO PUSH2 0x48D3 JUMPI JUMPDEST POP PUSH1 0x64 DUP3 LT ISZERO PUSH2 0x48C3 JUMPI JUMPDEST PUSH1 0xA DUP1 SWAP3 LT ISZERO PUSH2 0x48B9 JUMPI JUMPDEST PUSH1 0x1 SWAP1 DUP2 PUSH1 0x21 PUSH2 0x4872 PUSH1 0x1 DUP8 ADD PUSH2 0x453F JUMP JUMPDEST SWAP6 DUP7 ADD ADD SWAP1 JUMPDEST PUSH2 0x4884 JUMPI JUMPDEST POP POP POP POP SWAP1 JUMP JUMPDEST PUSH0 NOT ADD SWAP1 DUP4 SWAP1 PUSH16 0x181899199A1A9B1B9C1CB0B131B232B3 PUSH1 0x81 SHL DUP3 DUP3 MOD BYTE DUP4 MSTORE8 DIV SWAP2 DUP3 ISZERO PUSH2 0x48B4 JUMPI SWAP2 SWAP1 DUP3 PUSH2 0x4878 JUMP JUMPDEST PUSH2 0x487D JUMP JUMPDEST SWAP2 PUSH1 0x1 ADD SWAP2 PUSH2 0x4860 JUMP JUMPDEST SWAP2 SWAP1 PUSH1 0x64 PUSH1 0x2 SWAP2 DIV SWAP2 ADD SWAP2 PUSH2 0x4855 JUMP JUMPDEST PUSH1 0x4 SWAP2 SWAP4 SWAP3 DIV SWAP2 ADD SWAP2 PUSH0 PUSH2 0x484A JUMP JUMPDEST PUSH1 0x8 SWAP2 SWAP4 SWAP3 DIV SWAP2 ADD SWAP2 PUSH0 PUSH2 0x483D JUMP JUMPDEST PUSH1 0x10 SWAP2 SWAP4 SWAP3 DIV SWAP2 ADD SWAP2 PUSH0 PUSH2 0x482E JUMP JUMPDEST PUSH1 0x20 SWAP2 SWAP4 SWAP3 DIV SWAP2 ADD SWAP2 PUSH0 PUSH2 0x481C JUMP JUMPDEST PUSH1 0x40 SWAP4 POP DUP2 DIV SWAP2 POP PUSH0 PUSH2 0x4803 JUMP JUMPDEST ISZERO PUSH2 0x4924 JUMPI JUMP JUMPDEST PUSH1 0x40 MLOAD PUSH3 0x461BCD PUSH1 0xE5 SHL DUP2 MSTORE PUSH1 0x20 PUSH1 0x4 DUP3 ADD MSTORE PUSH1 0xB PUSH1 0x24 DUP3 ADD MSTORE PUSH11 0x5A65726F20736861726573 PUSH1 0xA8 SHL PUSH1 0x44 DUP3 ADD MSTORE PUSH1 0x64 SWAP1 REVERT JUMPDEST SWAP3 SWAP2 SWAP1 SWAP3 PUSH1 0xFF PUSH1 0x8 SLOAD AND PUSH2 0x4BDB JUMPI PUSH2 0xFFFF DUP5 AND SWAP1 PUSH2 0x4976 DUP3 ISZERO ISZERO PUSH2 0x3C96 JUMP JUMPDEST PUSH1 0x6 SLOAD DUP4 LT PUSH2 0x4BA6 JUMPI PUSH2 0x498F DUP4 SWAP6 PUSH2 0x28AC DUP6 ISZERO ISZERO PUSH2 0x491D JUMP JUMPDEST SWAP3 PUSH1 0x40 SWAP1 DUP2 MLOAD SWAP1 PUSH2 0x499F DUP3 PUSH2 0x38A7 JUMP JUMPDEST PUSH0 DUP3 MSTORE PUSH1 0x1 PUSH1 0x1 PUSH1 0xA0 SHL SUB DUP5 AND SWAP4 PUSH2 0x49B8 DUP6 ISZERO ISZERO PUSH2 0x4FA6 JUMP JUMPDEST PUSH2 0x49C1 DUP8 PUSH2 0x5D7F JUMP JUMPDEST POP PUSH2 0x49CB DUP3 PUSH2 0x5D7F JUMP JUMPDEST POP DUP7 PUSH0 MSTORE PUSH1 0x20 SWAP3 PUSH0 DUP5 MSTORE DUP5 PUSH0 KECCAK256 DUP7 PUSH0 MSTORE DUP5 MSTORE DUP5 PUSH0 KECCAK256 PUSH2 0x49EB DUP5 DUP3 SLOAD PUSH2 0x3CD4 JUMP JUMPDEST SWAP1 SSTORE DUP6 PUSH0 DUP7 MLOAD DUP11 DUP2 MSTORE DUP6 DUP8 DUP3 ADD MSTORE PUSH0 DUP1 MLOAD PUSH1 0x20 PUSH2 0x5DA5 DUP4 CODECOPY DUP2 MLOAD SWAP2 MSTORE DUP9 CALLER SWAP3 LOG4 DUP2 EXTCODESIZE PUSH2 0x4A99 JUMPI JUMPDEST POP SWAP1 PUSH2 0x4A5F PUSH32 0x1CE38089DA937FF378B753CBAD5B85EBCCEFE73AF87B074D88B881B11BCCC86A SWAP5 SWAP4 SWAP3 DUP7 PUSH0 MSTORE PUSH1 0x15 DUP5 MSTORE DUP5 PUSH0 KECCAK256 DUP9 PUSH0 MSTORE DUP5 MSTORE DUP5 PUSH0 KECCAK256 PUSH2 0x4A58 DUP5 DUP3 SLOAD PUSH2 0x3CD4 JUMP JUMPDEST SWAP1 SSTORE PUSH2 0x4C42 JUMP JUMPDEST DUP5 PUSH32 0xF94991DCBEA6E8AC439CBC93BD9C62A4D39F04E0AD656DF9A703F13552C2787F DUP5 DUP1 MLOAD DUP5 DUP2 MSTORE DUP5 DUP7 DUP3 ADD MSTORE LOG2 DUP3 MLOAD SWAP2 DUP2 DUP4 MSTORE DUP3 ADD MSTORE LOG4 JUMP JUMPDEST DUP5 SWAP10 SWAP8 SWAP6 SWAP4 SWAP9 SWAP7 SWAP5 MLOAD DUP10 DUP2 DUP1 PUSH2 0x4ADD PUSH4 0xF23A6E61 PUSH1 0xE0 SHL SWAP6 DUP7 DUP4 MSTORE CALLER PUSH1 0x4 DUP5 ADD MSTORE PUSH0 PUSH1 0x24 DUP5 ADD MSTORE DUP12 PUSH1 0x44 DUP5 ADD MSTORE DUP9 PUSH1 0x64 DUP5 ADD MSTORE PUSH1 0xA0 PUSH1 0x84 DUP5 ADD MSTORE PUSH1 0xA4 DUP4 ADD SWAP1 PUSH2 0x384A JUMP JUMPDEST SUB DUP2 PUSH0 DUP10 GAS CALL PUSH0 SWAP2 DUP2 PUSH2 0x4B87 JUMPI JUMPDEST POP PUSH2 0x4B51 JUMPI DUP11 DUP11 PUSH2 0x4AFA PUSH2 0x5C7B JUMP JUMPDEST PUSH4 0x8C379A0 EQ PUSH2 0x4B1D JUMPI JUMPDEST POP MLOAD PUSH3 0x461BCD PUSH1 0xE5 SHL DUP2 MSTORE DUP1 PUSH2 0x67E PUSH1 0x4 DUP3 ADD PUSH2 0x5D03 JUMP JUMPDEST PUSH2 0x4B25 PUSH2 0x5C96 JUMP JUMPDEST SWAP1 DUP2 PUSH2 0x4B31 JUMPI POP PUSH2 0x4B05 JUMP JUMPDEST PUSH2 0x67E DUP4 MLOAD SWAP3 DUP4 SWAP3 PUSH3 0x461BCD PUSH1 0xE5 SHL DUP5 MSTORE PUSH1 0x4 DUP5 ADD MSTORE PUSH1 0x24 DUP4 ADD SWAP1 PUSH2 0x384A JUMP JUMPDEST PUSH4 0xFFFFFFFF PUSH1 0xE0 SWAP12 SWAP7 SWAP9 SWAP11 SWAP6 SWAP8 SWAP10 SWAP12 SHL AND SUB PUSH2 0x4B6F JUMPI PUSH2 0x4A5F PUSH2 0x4A12 JUMP JUMPDEST DUP4 MLOAD PUSH3 0x461BCD PUSH1 0xE5 SHL DUP2 MSTORE DUP1 PUSH2 0x67E PUSH1 0x4 DUP3 ADD PUSH2 0x5C32 JUMP JUMPDEST PUSH2 0x4B9F SWAP2 SWAP3 POP DUP12 RETURNDATASIZE DUP14 GT PUSH2 0x70A JUMPI PUSH2 0x6FB DUP2 DUP4 PUSH2 0x390C JUMP JUMPDEST SWAP1 PUSH0 PUSH2 0x4AEB JUMP JUMPDEST PUSH1 0x40 MLOAD PUSH3 0x461BCD PUSH1 0xE5 SHL DUP2 MSTORE PUSH1 0x20 PUSH1 0x4 DUP3 ADD MSTORE PUSH1 0xD PUSH1 0x24 DUP3 ADD MSTORE PUSH13 0x42656C6F77206D696E696D756D PUSH1 0x98 SHL PUSH1 0x44 DUP3 ADD MSTORE PUSH1 0x64 SWAP1 REVERT JUMPDEST PUSH1 0x40 MLOAD PUSH3 0x461BCD PUSH1 0xE5 SHL DUP2 MSTORE PUSH1 0x20 PUSH1 0x4 DUP3 ADD MSTORE PUSH1 0x14 PUSH1 0x24 DUP3 ADD MSTORE PUSH20 0x14DD589CD8DC9A5C1D1A5BDB9CC81C185D5CD959 PUSH1 0x62 SHL PUSH1 0x44 DUP3 ADD MSTORE PUSH1 0x64 SWAP1 REVERT JUMPDEST PUSH1 0xFF AND PUSH1 0x1 DUP2 EQ SWAP1 DUP2 ISZERO PUSH2 0x4C29 JUMPI POP SWAP1 JUMP JUMPDEST PUSH1 0x2 SWAP2 POP EQ SWAP1 JUMP JUMPDEST PUSH1 0xFF AND PUSH1 0xC8 ADD DUP1 PUSH1 0xC8 GT PUSH2 0x3CE1 JUMPI SWAP1 JUMP JUMPDEST PUSH1 0x1 PUSH1 0x1 PUSH1 0xA0 SHL SUB DUP2 AND PUSH0 DUP2 DUP2 MSTORE PUSH1 0xF PUSH1 0x20 SWAP1 DUP2 MSTORE PUSH1 0x40 DUP1 DUP4 KECCAK256 PUSH1 0x1 DUP1 DUP6 MSTORE SWAP1 DUP4 MSTORE SWAP3 DUP2 SWAP1 KECCAK256 DUP1 SLOAD PUSH1 0xFF NOT AND DUP5 OR SWAP1 SSTORE SWAP2 SWAP4 DUP4 ISZERO PUSH2 0x4DFD JUMPI PUSH1 0xC9 PUSH0 MSTORE PUSH0 DUP3 MSTORE DUP3 PUSH0 KECCAK256 DUP5 PUSH0 MSTORE DUP3 MSTORE DUP3 PUSH0 KECCAK256 SLOAD ISZERO PUSH2 0x4C9A JUMPI JUMPDEST POP POP POP POP POP JUMP JUMPDEST DUP3 MLOAD SWAP1 PUSH2 0x4CA6 DUP3 PUSH2 0x38A7 JUMP JUMPDEST PUSH0 DUP3 MSTORE DUP4 MLOAD PUSH2 0x4CB4 DUP2 PUSH2 0x38D6 JUMP JUMPDEST DUP7 DUP2 MSTORE DUP4 DUP2 ADD SWAP1 DUP5 CALLDATASIZE DUP4 CALLDATACOPY MLOAD ISZERO PUSH2 0x3DFF JUMPI PUSH1 0xC9 SWAP1 MSTORE PUSH2 0x4CD1 PUSH2 0x5D58 JUMP JUMPDEST POP PUSH1 0xC9 PUSH0 MSTORE PUSH0 DUP4 MSTORE DUP4 PUSH0 KECCAK256 DUP6 PUSH0 MSTORE DUP4 MSTORE DUP4 PUSH0 KECCAK256 DUP1 SLOAD SWAP1 DUP8 DUP3 ADD DUP1 SWAP3 GT PUSH2 0x3CE1 JUMPI SSTORE DUP5 PUSH0 DUP6 MLOAD PUSH1 0xC9 DUP2 MSTORE DUP9 DUP7 DUP3 ADD MSTORE PUSH0 DUP1 MLOAD PUSH1 0x20 PUSH2 0x5DA5 DUP4 CODECOPY DUP2 MLOAD SWAP2 MSTORE DUP8 CALLER SWAP3 LOG4 EXTCODESIZE PUSH2 0x4D48 JUMPI JUMPDEST POP POP POP PUSH32 0xBD1AE2C6D13C1A8DC9DBE03823192CB9AB92B45E5B9264DD65B2794C526E6F9F PUSH0 DUP1 LOG3 PUSH0 DUP1 DUP1 DUP1 DUP1 PUSH2 0x4C93 JUMP JUMPDEST DUP3 SWAP6 SWAP4 SWAP2 SWAP5 SWAP3 MLOAD DUP6 DUP2 DUP1 PUSH2 0x4D8B PUSH4 0xF23A6E61 PUSH1 0xE0 SHL SWAP6 DUP7 DUP4 MSTORE CALLER PUSH1 0x4 DUP5 ADD MSTORE PUSH0 PUSH1 0x24 DUP5 ADD MSTORE PUSH1 0xC9 PUSH1 0x44 DUP5 ADD MSTORE DUP9 PUSH1 0x64 DUP5 ADD MSTORE PUSH1 0xA0 PUSH1 0x84 DUP5 ADD MSTORE PUSH1 0xA4 DUP4 ADD SWAP1 PUSH2 0x384A JUMP JUMPDEST SUB DUP2 PUSH0 DUP8 GAS CALL PUSH0 SWAP2 DUP2 PUSH2 0x4DDE JUMPI JUMPDEST POP PUSH2 0x4DA8 JUMPI DUP7 DUP7 PUSH2 0x4AFA PUSH2 0x5C7B JUMP JUMPDEST SWAP4 SWAP6 SWAP3 SWAP5 POP SWAP1 SWAP3 PUSH1 0x1 PUSH1 0x1 PUSH1 0xE0 SHL SUB NOT AND SUB PUSH2 0x4DC7 JUMPI POP PUSH0 DUP1 DUP1 PUSH2 0x4D17 JUMP JUMPDEST MLOAD PUSH3 0x461BCD PUSH1 0xE5 SHL DUP2 MSTORE DUP1 PUSH2 0x67E PUSH1 0x4 DUP3 ADD PUSH2 0x5C32 JUMP JUMPDEST PUSH2 0x4DF6 SWAP2 SWAP3 POP DUP8 RETURNDATASIZE DUP10 GT PUSH2 0x70A JUMPI PUSH2 0x6FB DUP2 DUP4 PUSH2 0x390C JUMP JUMPDEST SWAP1 PUSH0 PUSH2 0x4D99 JUMP JUMPDEST POP PUSH1 0x84 SWAP2 MLOAD SWAP1 PUSH3 0x461BCD PUSH1 0xE5 SHL DUP3 MSTORE PUSH1 0x4 DUP3 ADD MSTORE PUSH1 0x2A PUSH1 0x24 DUP3 ADD MSTORE PUSH32 0x455243313135353A2061646472657373207A65726F206973206E6F7420612076 PUSH1 0x44 DUP3 ADD MSTORE PUSH10 0x30B634B21037BBB732B9 PUSH1 0xB1 SHL PUSH1 0x64 DUP3 ADD MSTORE REVERT JUMPDEST ISZERO PUSH2 0x4E5A JUMPI JUMP JUMPDEST PUSH1 0x40 MLOAD PUSH3 0x461BCD PUSH1 0xE5 SHL DUP2 MSTORE PUSH1 0x20 PUSH1 0x4 DUP3 ADD MSTORE PUSH1 0x28 PUSH1 0x24 DUP3 ADD MSTORE PUSH32 0x455243313135353A2069647320616E6420616D6F756E7473206C656E67746820 PUSH1 0x44 DUP3 ADD MSTORE PUSH8 0xDAD2E6DAC2E8C6D PUSH1 0xC3 SHL PUSH1 0x64 DUP3 ADD MSTORE PUSH1 0x84 SWAP1 REVERT JUMPDEST ISZERO PUSH2 0x4EB7 JUMPI JUMP JUMPDEST PUSH1 0x40 MLOAD PUSH3 0x461BCD PUSH1 0xE5 SHL DUP2 MSTORE PUSH1 0x20 PUSH1 0x4 DUP3 ADD MSTORE PUSH1 0x25 PUSH1 0x24 DUP3 ADD MSTORE PUSH32 0x455243313135353A207472616E7366657220746F20746865207A65726F206164 PUSH1 0x44 DUP3 ADD MSTORE PUSH5 0x6472657373 PUSH1 0xD8 SHL PUSH1 0x64 DUP3 ADD MSTORE PUSH1 0x84 SWAP1 REVERT JUMPDEST ISZERO PUSH2 0x4F11 JUMPI JUMP JUMPDEST PUSH1 0x40 MLOAD PUSH3 0x461BCD PUSH1 0xE5 SHL DUP2 MSTORE PUSH1 0x20 PUSH1 0x4 DUP3 ADD MSTORE PUSH1 0x2A PUSH1 0x24 DUP3 ADD MSTORE PUSH32 0x455243313135353A20696E73756666696369656E742062616C616E636520666F PUSH1 0x44 DUP3 ADD MSTORE PUSH10 0x39103A3930B739B332B9 PUSH1 0xB1 SHL PUSH1 0x64 DUP3 ADD MSTORE PUSH1 0x84 SWAP1 REVERT JUMPDEST SWAP1 SWAP2 PUSH2 0x4F80 PUSH2 0x3A9E SWAP4 PUSH1 0x40 DUP5 MSTORE PUSH1 0x40 DUP5 ADD SWAP1 PUSH2 0x3B0D JUMP JUMPDEST SWAP2 PUSH1 0x20 DUP2 DUP5 SUB SWAP2 ADD MSTORE PUSH2 0x3B0D JUMP JUMPDEST PUSH1 0x6 DUP2 LT ISZERO SWAP1 DUP2 PUSH2 0x4F9D JUMPI POP SWAP1 JUMP JUMPDEST PUSH1 0xA SWAP2 POP GT ISZERO SWAP1 JUMP JUMPDEST ISZERO PUSH2 0x4FAD JUMPI JUMP JUMPDEST PUSH1 0x40 MLOAD PUSH3 0x461BCD PUSH1 0xE5 SHL DUP2 MSTORE PUSH1 0x20 PUSH1 0x4 DUP3 ADD MSTORE PUSH1 0x21 PUSH1 0x24 DUP3 ADD MSTORE PUSH32 0x455243313135353A206D696E7420746F20746865207A65726F20616464726573 PUSH1 0x44 DUP3 ADD MSTORE PUSH1 0x73 PUSH1 0xF8 SHL PUSH1 0x64 DUP3 ADD MSTORE PUSH1 0x84 SWAP1 REVERT JUMPDEST SWAP2 SWAP1 PUSH1 0x1 PUSH1 0x1 PUSH1 0xA0 SHL SUB DUP4 AND PUSH2 0x5013 DUP2 ISZERO ISZERO PUSH2 0x4FA6 JUMP JUMPDEST PUSH2 0x501C DUP3 PUSH2 0x5D7F JUMP JUMPDEST POP PUSH2 0x5025 PUSH2 0x5D58 JUMP JUMPDEST POP DUP2 PUSH0 MSTORE PUSH1 0x20 SWAP3 PUSH0 DUP5 MSTORE PUSH1 0x40 SWAP5 DUP6 PUSH0 KECCAK256 DUP4 PUSH0 MSTORE DUP6 MSTORE DUP6 PUSH0 KECCAK256 DUP1 SLOAD SWAP1 PUSH1 0x1 DUP3 ADD DUP1 SWAP3 GT PUSH2 0x3CE1 JUMPI SSTORE DUP3 PUSH0 DUP8 MLOAD DUP7 DUP2 MSTORE PUSH1 0x1 DUP9 DUP3 ADD MSTORE PUSH0 DUP1 MLOAD PUSH1 0x20 PUSH2 0x5DA5 DUP4 CODECOPY DUP2 MLOAD SWAP2 MSTORE DUP10 CALLER SWAP3 LOG4 EXTCODESIZE PUSH2 0x5077 JUMPI POP POP POP POP POP JUMP JUMPDEST SWAP3 PUSH2 0x50BE PUSH0 SWAP3 DUP7 SWAP8 SWAP6 DUP4 SWAP8 MLOAD SWAP5 DUP6 DUP1 SWAP5 DUP2 SWAP4 PUSH4 0xF23A6E61 PUSH1 0xE0 SHL SWAP10 DUP11 DUP5 MSTORE CALLER PUSH1 0x4 DUP6 ADD MSTORE DUP5 PUSH1 0x24 DUP6 ADD MSTORE PUSH1 0x44 DUP5 ADD MSTORE PUSH1 0x1 PUSH1 0x64 DUP5 ADD MSTORE PUSH1 0xA0 PUSH1 0x84 DUP5 ADD MSTORE PUSH1 0xA4 DUP4 ADD SWAP1 PUSH2 0x384A JUMP JUMPDEST SUB SWAP3 GAS CALL PUSH0 SWAP2 DUP2 PUSH2 0x50FA JUMPI JUMPDEST POP PUSH2 0x50DA JUMPI POP POP POP PUSH2 0x4AFA PUSH2 0x5C7B JUMP JUMPDEST SWAP2 SWAP4 SWAP3 POP PUSH1 0x1 PUSH1 0x1 PUSH1 0xE0 SHL SUB NOT SWAP1 SWAP2 AND SUB PUSH2 0x4DC7 JUMPI POP PUSH0 DUP1 DUP1 DUP1 DUP1 PUSH2 0x4C93 JUMP JUMPDEST PUSH2 0x5112 SWAP2 SWAP3 POP DUP6 RETURNDATASIZE DUP8 GT PUSH2 0x70A JUMPI PUSH2 0x6FB DUP2 DUP4 PUSH2 0x390C JUMP JUMPDEST SWAP1 PUSH0 PUSH2 0x50CA JUMP JUMPDEST PUSH1 0xFF AND PUSH1 0x1 DUP2 LT ISZERO SWAP1 DUP2 PUSH2 0x512B JUMPI POP SWAP1 JUMP JUMPDEST PUSH1 0x5 SWAP2 POP GT ISZERO SWAP1 JUMP JUMPDEST PUSH2 0x3E7 NOT DUP2 ADD SWAP2 SWAP1 DUP3 GT PUSH2 0x3CE1 JUMPI JUMP JUMPDEST SWAP2 SWAP1 DUP3 SUB SWAP2 DUP3 GT PUSH2 0x3CE1 JUMPI JUMP JUMPDEST SWAP1 SWAP3 SWAP2 PUSH2 0xFFFF DUP5 AND SWAP1 PUSH2 0x5165 DUP3 ISZERO ISZERO PUSH2 0x3C96 JUMP JUMPDEST PUSH2 0x5170 DUP2 ISZERO ISZERO PUSH2 0x491D JUMP JUMPDEST PUSH2 0x517A DUP2 SWAP6 PUSH2 0x3CF5 JUMP JUMPDEST SWAP3 PUSH1 0x1 PUSH1 0x1 PUSH1 0xA0 SHL SUB AND SWAP1 DUP2 ISZERO PUSH2 0x52FA JUMPI PUSH2 0x5194 DUP5 PUSH2 0x5D7F JUMP JUMPDEST POP PUSH2 0x519E DUP2 PUSH2 0x5D7F JUMP JUMPDEST POP PUSH1 0x40 SWAP1 PUSH0 DUP3 MLOAD PUSH2 0x51AE DUP2 PUSH2 0x38A7 JUMP JUMPDEST MSTORE DUP5 PUSH0 MSTORE PUSH1 0x20 SWAP1 PUSH0 DUP3 MSTORE DUP3 PUSH0 KECCAK256 DUP5 PUSH0 MSTORE DUP3 MSTORE DUP3 PUSH0 KECCAK256 SLOAD DUP2 DUP2 LT PUSH2 0x52AA JUMPI SWAP1 DUP1 PUSH32 0x7C7917C3334372C8A1AB0009B4314B5FA722B2AE8BB2603B7195279AEB45A37A SWAP5 SWAP4 SWAP3 DUP9 PUSH0 MSTORE PUSH0 DUP5 MSTORE DUP5 PUSH0 KECCAK256 DUP8 PUSH0 MSTORE DUP5 MSTORE SUB DUP4 PUSH0 KECCAK256 SSTORE PUSH0 DUP6 DUP5 MLOAD DUP10 DUP2 MSTORE DUP4 DUP6 DUP3 ADD MSTORE PUSH0 DUP1 MLOAD PUSH1 0x20 PUSH2 0x5DA5 DUP4 CODECOPY DUP2 MLOAD SWAP2 MSTORE DUP7 CALLER SWAP3 LOG4 PUSH0 DUP4 MLOAD PUSH2 0x522E DUP2 PUSH2 0x38A7 JUMP JUMPDEST MSTORE PUSH0 DUP6 DUP2 MSTORE PUSH1 0x15 DUP4 MSTORE DUP4 DUP2 KECCAK256 DUP8 DUP3 MSTORE DUP4 MSTORE DUP4 SWAP1 KECCAK256 SLOAD DUP2 DUP2 DUP2 LT PUSH2 0x529C JUMPI POP POP PUSH0 JUMPDEST DUP6 PUSH0 MSTORE PUSH1 0x15 DUP4 MSTORE DUP4 PUSH0 KECCAK256 DUP8 PUSH0 MSTORE DUP4 MSTORE DUP4 PUSH0 KECCAK256 SSTORE DUP5 PUSH32 0xF3A670CD3AF7D64B488926880889D08A8585A138FF455227AF6737339A1EC262 DUP5 DUP1 MLOAD DUP5 DUP2 MSTORE DUP5 DUP7 DUP3 ADD MSTORE LOG2 DUP3 MLOAD SWAP2 DUP2 DUP4 MSTORE DUP3 ADD MSTORE LOG4 JUMP JUMPDEST PUSH2 0x52A5 SWAP2 PUSH2 0x5144 JUMP JUMPDEST PUSH2 0x524F JUMP JUMPDEST DUP4 MLOAD PUSH3 0x461BCD PUSH1 0xE5 SHL DUP2 MSTORE PUSH1 0x4 DUP2 ADD DUP5 SWAP1 MSTORE PUSH1 0x24 DUP1 DUP3 ADD MSTORE PUSH32 0x455243313135353A206275726E20616D6F756E7420657863656564732062616C PUSH1 0x44 DUP3 ADD MSTORE PUSH4 0x616E6365 PUSH1 0xE0 SHL PUSH1 0x64 DUP3 ADD MSTORE PUSH1 0x84 SWAP1 REVERT JUMPDEST PUSH1 0x40 MLOAD PUSH3 0x461BCD PUSH1 0xE5 SHL DUP2 MSTORE PUSH1 0x20 PUSH1 0x4 DUP3 ADD MSTORE PUSH1 0x23 PUSH1 0x24 DUP3 ADD MSTORE PUSH32 0x455243313135353A206275726E2066726F6D20746865207A65726F2061646472 PUSH1 0x44 DUP3 ADD MSTORE PUSH3 0x657373 PUSH1 0xE8 SHL PUSH1 0x64 DUP3 ADD MSTORE PUSH1 0x84 SWAP1 REVERT JUMPDEST PUSH2 0xFFFF AND DUP1 PUSH0 MSTORE PUSH1 0x16 PUSH1 0x20 MSTORE PUSH2 0x5363 PUSH1 0x40 PUSH0 KECCAK256 PUSH2 0x392D JUMP JUMPDEST SWAP1 DUP2 MLOAD PUSH2 0x53BA JUMPI PUSH2 0x5374 SWAP2 POP PUSH2 0x47DB JUMP JUMPDEST PUSH2 0x3A9E PUSH1 0x30 PUSH1 0x40 MLOAD DUP1 SWAP4 PUSH16 0x5765616C74682050726F647563742023 PUSH1 0x80 SHL PUSH1 0x20 DUP4 ADD MSTORE PUSH2 0x53AA DUP2 MLOAD DUP1 SWAP3 PUSH1 0x20 DUP7 DUP7 ADD SWAP2 ADD PUSH2 0x3829 JUMP JUMPDEST DUP2 ADD SUB PUSH1 0x10 DUP2 ADD DUP5 MSTORE ADD DUP3 PUSH2 0x390C JUMP JUMPDEST POP SWAP1 JUMP JUMPDEST PUSH2 0x3E8 DUP2 GT DUP1 PUSH2 0x5528 JUMPI JUMPDEST PUSH2 0x5504 JUMPI PUSH1 0xC8 DUP2 GT DUP1 PUSH2 0x54F9 JUMPI JUMPDEST PUSH2 0x54D5 JUMPI PUSH2 0x53E4 DUP2 PUSH2 0x4F8E JUMP JUMPDEST PUSH2 0x54B1 JUMPI PUSH1 0x64 DUP2 GT SWAP1 DUP2 PUSH2 0x54A5 JUMPI JUMPDEST DUP2 DUP1 PUSH2 0x548D JUMPI JUMPDEST PUSH2 0x5468 JUMPI DUP2 PUSH2 0x544F JUMPI JUMPDEST POP PUSH2 0x542C JUMPI PUSH1 0x40 MLOAD PUSH2 0x5415 DUP2 PUSH2 0x38D6 JUMP JUMPDEST PUSH1 0x7 DUP2 MSTORE PUSH7 0x23423646463433 PUSH1 0xC8 SHL PUSH1 0x20 DUP3 ADD MSTORE SWAP1 JUMP JUMPDEST PUSH1 0x40 MLOAD PUSH2 0x5438 DUP2 PUSH2 0x38D6 JUMP JUMPDEST PUSH1 0x7 DUP2 MSTORE PUSH7 0x11A32322189B1B PUSH1 0xC9 SHL PUSH1 0x20 DUP3 ADD MSTORE SWAP1 JUMP JUMPDEST PUSH1 0x63 NOT DUP2 ADD SWAP2 POP DUP2 GT PUSH2 0x3CE1 JUMPI PUSH1 0xFF AND PUSH1 0x3 EQ PUSH0 PUSH2 0x5404 JUMP JUMPDEST POP POP PUSH1 0x40 MLOAD PUSH2 0x5476 DUP2 PUSH2 0x38D6 JUMP JUMPDEST PUSH1 0x7 DUP2 MSTORE PUSH7 0x11A32321199B21 PUSH1 0xC9 SHL PUSH1 0x20 DUP3 ADD MSTORE SWAP1 JUMP JUMPDEST POP PUSH1 0x63 NOT DUP2 ADD DUP2 DUP2 GT PUSH2 0x3CE1 JUMPI PUSH1 0xFF AND PUSH1 0x4 EQ PUSH2 0x53FA JUMP JUMPDEST PUSH1 0x69 DUP2 GT ISZERO SWAP2 POP PUSH2 0x53F3 JUMP JUMPDEST POP PUSH1 0x40 MLOAD PUSH2 0x54BE DUP2 PUSH2 0x38D6 JUMP JUMPDEST PUSH1 0x7 DUP2 MSTORE PUSH7 0x119B9B209CA323 PUSH1 0xC9 SHL PUSH1 0x20 DUP3 ADD MSTORE SWAP1 JUMP JUMPDEST POP PUSH1 0x40 MLOAD PUSH2 0x54E2 DUP2 PUSH2 0x38D6 JUMP JUMPDEST PUSH1 0x7 DUP2 MSTORE PUSH7 0x8CD0E510D90CD PUSH1 0xCA SHL PUSH1 0x20 DUP3 ADD MSTORE SWAP1 JUMP JUMPDEST POP PUSH1 0xCA DUP2 GT ISZERO PUSH2 0x53D7 JUMP JUMPDEST POP PUSH1 0x40 MLOAD PUSH2 0x5511 DUP2 PUSH2 0x38D6 JUMP JUMPDEST PUSH1 0x7 DUP2 MSTORE PUSH7 0x11A19C23231B21 PUSH1 0xC9 SHL PUSH1 0x20 DUP3 ADD MSTORE SWAP1 JUMP JUMPDEST POP PUSH3 0x103E7 DUP2 GT ISZERO PUSH2 0x53C9 JUMP JUMPDEST PUSH2 0x3E8 DUP2 GT DUP1 PUSH2 0x560A JUMPI JUMPDEST PUSH2 0x55D0 JUMPI PUSH1 0xC8 DUP2 GT DUP1 PUSH2 0x55C5 JUMPI JUMPDEST PUSH2 0x5599 JUMPI PUSH2 0x555B SWAP1 PUSH2 0x4F8E JUMP JUMPDEST PUSH2 0x5567 JUMPI PUSH2 0x3A9E PUSH2 0x3EF1 JUMP JUMPDEST PUSH1 0x40 MLOAD PUSH2 0x5573 DUP2 PUSH2 0x38D6 JUMP JUMPDEST PUSH1 0x16 DUP2 MSTORE PUSH22 0x5269736B4C656E732050617065722054726164696E67 PUSH1 0x50 SHL PUSH1 0x20 DUP3 ADD MSTORE SWAP1 JUMP JUMPDEST POP PUSH1 0x40 MLOAD PUSH2 0x55A6 DUP2 PUSH2 0x38D6 JUMP JUMPDEST PUSH1 0xF DUP2 MSTORE PUSH15 0xA4D2E6D698CADCE640AECAC2D8E8D PUSH1 0x8B SHL PUSH1 0x20 DUP3 ADD MSTORE SWAP1 JUMP JUMPDEST POP PUSH1 0xCA DUP2 GT ISZERO PUSH2 0x554E JUMP JUMPDEST POP PUSH1 0x40 MLOAD PUSH2 0x55DD DUP2 PUSH2 0x38D6 JUMP JUMPDEST PUSH1 0x17 DUP2 MSTORE PUSH32 0x5269736B4C656E73205765616C74682052656365697074000000000000000000 PUSH1 0x20 DUP3 ADD MSTORE SWAP1 JUMP JUMPDEST POP PUSH3 0x103E7 DUP2 GT ISZERO PUSH2 0x5540 JUMP JUMPDEST PUSH1 0x40 MLOAD SWAP1 PUSH2 0x5624 DUP3 PUSH2 0x38D6 JUMP JUMPDEST PUSH1 0x6 DUP3 MSTORE PUSH6 0xAE8A8298A89 PUSH1 0xD3 SHL PUSH1 0x20 DUP4 ADD MSTORE JUMP JUMPDEST PUSH2 0x3E8 DUP2 GT DUP1 PUSH2 0x56BA JUMPI JUMPDEST PUSH2 0x56A6 JUMPI PUSH1 0xC8 DUP2 GT DUP1 PUSH2 0x56AF JUMPI JUMPDEST PUSH2 0x56A6 JUMPI PUSH2 0x565F SWAP1 PUSH2 0x4F8E JUMP JUMPDEST PUSH2 0x5685 JUMPI PUSH1 0x40 MLOAD PUSH2 0x566F DUP2 PUSH2 0x38D6 JUMP JUMPDEST PUSH1 0x6 DUP2 MSTORE PUSH6 0x15D053131155 PUSH1 0xD2 SHL PUSH1 0x20 DUP3 ADD MSTORE SWAP1 JUMP JUMPDEST PUSH1 0x40 MLOAD PUSH2 0x5691 DUP2 PUSH2 0x38D6 JUMP JUMPDEST PUSH1 0x5 DUP2 MSTORE PUSH5 0x2820A822A9 PUSH1 0xD9 SHL PUSH1 0x20 DUP3 ADD MSTORE SWAP1 JUMP JUMPDEST POP PUSH2 0x3A9E PUSH2 0x5617 JUMP JUMPDEST POP PUSH1 0xCA DUP2 GT ISZERO PUSH2 0x5652 JUMP JUMPDEST POP PUSH3 0x103E7 DUP2 GT ISZERO PUSH2 0x5644 JUMP JUMPDEST PUSH2 0x3E8 DUP2 GT DUP1 PUSH2 0x59C8 JUMPI JUMPDEST PUSH2 0x596F JUMPI PUSH1 0xC8 DUP2 GT DUP1 PUSH2 0x5964 JUMPI JUMPDEST PUSH2 0x58FA JUMPI PUSH2 0x56ED DUP2 PUSH2 0x4F8E JUMP JUMPDEST PUSH2 0x5821 JUMPI PUSH1 0x64 DUP2 GT DUP1 PUSH2 0x5816 JUMPI JUMPDEST PUSH2 0x5727 JUMPI POP PUSH1 0x40 MLOAD PUSH2 0x570C DUP2 PUSH2 0x38D6 JUMP JUMPDEST PUSH1 0xB DUP2 MSTORE PUSH11 0x434F4C4C45435449424C45 PUSH1 0xA8 SHL PUSH1 0x20 DUP3 ADD MSTORE SWAP1 JUMP JUMPDEST PUSH1 0x63 NOT DUP2 ADD SWAP1 DUP2 GT PUSH2 0x3CE1 JUMPI PUSH1 0xFF AND PUSH1 0x1 DUP2 EQ PUSH2 0x57F2 JUMPI PUSH1 0x2 DUP2 EQ PUSH2 0x57CE JUMPI PUSH1 0x3 DUP2 EQ PUSH2 0x57A6 JUMPI PUSH1 0x4 EQ PUSH2 0x577E JUMPI PUSH1 0x40 MLOAD PUSH2 0x5761 DUP2 PUSH2 0x38D6 JUMP JUMPDEST PUSH1 0xD DUP2 MSTORE PUSH13 0x50415045522050524556494557 PUSH1 0x98 SHL PUSH1 0x20 DUP3 ADD MSTORE SWAP1 JUMP JUMPDEST PUSH1 0x40 MLOAD PUSH2 0x578A DUP2 PUSH2 0x38D6 JUMP JUMPDEST PUSH1 0xC DUP2 MSTORE PUSH12 0x282927A22AA1AA1028AAA4AD PUSH1 0xA1 SHL PUSH1 0x20 DUP3 ADD MSTORE SWAP1 JUMP JUMPDEST POP PUSH1 0x40 MLOAD PUSH2 0x57B3 DUP2 PUSH2 0x38D6 JUMP JUMPDEST PUSH1 0xB DUP2 MSTORE PUSH11 0x5249534B20524556494557 PUSH1 0xA8 SHL PUSH1 0x20 DUP3 ADD MSTORE SWAP1 JUMP JUMPDEST POP PUSH1 0x40 MLOAD PUSH2 0x57DB DUP2 PUSH2 0x38D6 JUMP JUMPDEST PUSH1 0x7 DUP2 MSTORE PUSH7 0x10D3D3939150D5 PUSH1 0xCA SHL PUSH1 0x20 DUP3 ADD MSTORE SWAP1 JUMP JUMPDEST POP PUSH1 0x40 MLOAD PUSH2 0x57FF DUP2 PUSH2 0x38D6 JUMP JUMPDEST PUSH1 0x7 DUP2 MSTORE PUSH7 0x57454C434F4D45 PUSH1 0xC8 SHL PUSH1 0x20 DUP3 ADD MSTORE SWAP1 JUMP JUMPDEST POP PUSH1 0x69 DUP2 GT ISZERO PUSH2 0x56FB JUMP JUMPDEST PUSH1 0x6 DUP2 EQ PUSH2 0x58D3 JUMPI PUSH1 0x7 DUP2 EQ PUSH2 0x58AB JUMPI PUSH1 0x8 DUP2 EQ PUSH2 0x5885 JUMPI PUSH1 0x9 EQ PUSH2 0x5861 JUMPI PUSH1 0x40 MLOAD PUSH2 0x584C DUP2 PUSH2 0x38D6 JUMP JUMPDEST PUSH1 0x5 DUP2 MSTORE PUSH5 0x4845444745 PUSH1 0xD8 SHL PUSH1 0x20 DUP3 ADD MSTORE SWAP1 JUMP JUMPDEST PUSH1 0x40 MLOAD PUSH2 0x586D DUP2 PUSH2 0x38D6 JUMP JUMPDEST PUSH1 0x8 DUP2 MSTORE PUSH8 0x4C45564552414745 PUSH1 0xC0 SHL PUSH1 0x20 DUP3 ADD MSTORE SWAP1 JUMP JUMPDEST POP PUSH1 0x40 MLOAD PUSH2 0x5892 DUP2 PUSH2 0x38D6 JUMP JUMPDEST PUSH1 0x9 DUP2 MSTORE PUSH9 0x53504F54204C4F4F5 PUSH1 0xBC SHL PUSH1 0x20 DUP3 ADD MSTORE SWAP1 JUMP JUMPDEST POP PUSH1 0x40 MLOAD PUSH2 0x58B8 DUP2 PUSH2 0x38D6 JUMP JUMPDEST PUSH1 0xB DUP2 MSTORE PUSH11 0x1311505111549093D05491 PUSH1 0xAA SHL PUSH1 0x20 DUP3 ADD MSTORE SWAP1 JUMP JUMPDEST POP PUSH1 0x40 MLOAD PUSH2 0x58E0 DUP2 PUSH2 0x38D6 JUMP JUMPDEST PUSH1 0xA DUP2 MSTORE PUSH10 0x4241534520434845434B PUSH1 0xB0 SHL PUSH1 0x20 DUP3 ADD MSTORE SWAP1 JUMP JUMPDEST PUSH1 0xC7 NOT DUP2 ADD SWAP1 DUP2 GT PUSH2 0x3CE1 JUMPI PUSH1 0xFF AND PUSH1 0x1 SUB PUSH2 0x5939 JUMPI PUSH1 0x40 MLOAD PUSH2 0x591C DUP2 PUSH2 0x38D6 JUMP JUMPDEST PUSH1 0xD DUP2 MSTORE PUSH13 0x52454345495054204241444745 PUSH1 0x98 SHL PUSH1 0x20 DUP3 ADD MSTORE SWAP1 JUMP JUMPDEST PUSH1 0x40 MLOAD PUSH2 0x5945 DUP2 PUSH2 0x38D6 JUMP JUMPDEST PUSH1 0xF DUP2 MSTORE PUSH15 0x4C4946454359434C45204241444745 PUSH1 0x88 SHL PUSH1 0x20 DUP3 ADD MSTORE SWAP1 JUMP JUMPDEST POP PUSH1 0xCA DUP2 GT ISZERO PUSH2 0x56E0 JUMP JUMPDEST PUSH2 0x3E7 NOT DUP2 ADD SWAP1 DUP2 GT PUSH2 0x3CE1 JUMPI PUSH2 0xFFFF PUSH2 0x5989 SWAP2 AND PUSH2 0x47DB JUMP JUMPDEST PUSH2 0x3A9E PUSH1 0x29 PUSH1 0x40 MLOAD DUP1 SWAP4 PUSH9 0x524543454950542023 PUSH1 0xB8 SHL PUSH1 0x20 DUP4 ADD MSTORE PUSH2 0x59B8 DUP2 MLOAD DUP1 SWAP3 PUSH1 0x20 DUP7 DUP7 ADD SWAP2 ADD PUSH2 0x3829 JUMP JUMPDEST DUP2 ADD SUB PUSH1 0x9 DUP2 ADD DUP5 MSTORE ADD DUP3 PUSH2 0x390C JUMP JUMPDEST POP PUSH3 0x103E7 DUP2 GT ISZERO PUSH2 0x56D2 JUMP JUMPDEST PUSH2 0x3E8 DUP2 GT DUP1 PUSH2 0x5AF0 JUMPI JUMPDEST PUSH2 0x5AB6 JUMPI PUSH1 0xC8 DUP2 GT DUP1 PUSH2 0x5AAB JUMPI JUMPDEST PUSH2 0x5A71 JUMPI PUSH2 0x59FB SWAP1 PUSH2 0x4F8E JUMP JUMPDEST PUSH2 0x5A38 JUMPI PUSH1 0x40 MLOAD PUSH2 0x5A0B DUP2 PUSH2 0x38D6 JUMP JUMPDEST PUSH1 0x1D DUP2 MSTORE PUSH32 0x4F6E626F617264696E67206D696C6573746F6E65207265636F72646564000000 PUSH1 0x20 DUP3 ADD MSTORE SWAP1 JUMP JUMPDEST PUSH1 0x40 MLOAD PUSH2 0x5A44 DUP2 PUSH2 0x38D6 JUMP JUMPDEST PUSH1 0x1B DUP2 MSTORE PUSH32 0x5265706C617920616368696576656D656E74207265636F726465640000000000 PUSH1 0x20 DUP3 ADD MSTORE SWAP1 JUMP JUMPDEST POP PUSH1 0x40 MLOAD PUSH2 0x5A7E DUP2 PUSH2 0x38D6 JUMP JUMPDEST PUSH1 0x1B DUP2 MSTORE PUSH32 0x576F726B666C6F77206D696C6573746F6E65207265636F726465640000000000 PUSH1 0x20 DUP3 ADD MSTORE SWAP1 JUMP JUMPDEST POP PUSH1 0xCA DUP2 GT ISZERO PUSH2 0x59EE JUMP JUMPDEST POP PUSH1 0x40 MLOAD PUSH2 0x5AC3 DUP2 PUSH2 0x38D6 JUMP JUMPDEST PUSH1 0x20 DUP2 MSTORE PUSH32 0x537562736372697074696F6E207265636569707420736861726573206C697665 PUSH1 0x20 DUP3 ADD MSTORE SWAP1 JUMP JUMPDEST POP PUSH3 0x103E7 DUP2 GT ISZERO PUSH2 0x59E0 JUMP JUMPDEST PUSH2 0x3E8 DUP2 GT DUP1 PUSH2 0x5C05 JUMPI JUMPDEST PUSH2 0x5BCB JUMPI PUSH1 0xC8 DUP2 GT DUP1 PUSH2 0x5BC0 JUMPI JUMPDEST PUSH2 0x5B90 JUMPI PUSH2 0x5B23 SWAP1 PUSH2 0x4F8E JUMP JUMPDEST PUSH2 0x5B57 JUMPI PUSH1 0x40 MLOAD PUSH2 0x5B33 DUP2 PUSH2 0x38D6 JUMP JUMPDEST PUSH1 0x14 DUP2 MSTORE PUSH20 0x3337B9103A3432902934B9B5A632B73990343AB1 PUSH1 0x61 SHL PUSH1 0x20 DUP3 ADD MSTORE SWAP1 JUMP JUMPDEST PUSH1 0x40 MLOAD PUSH2 0x5B63 DUP2 PUSH2 0x38D6 JUMP JUMPDEST PUSH1 0x19 DUP2 MSTORE PUSH32 0x666F72207468652073696D756C6174696F6E2077616C6C657400000000000000 PUSH1 0x20 DUP3 ADD MSTORE SWAP1 JUMP JUMPDEST POP PUSH1 0x40 MLOAD PUSH2 0x5B9D DUP2 PUSH2 0x38D6 JUMP JUMPDEST PUSH1 0x13 DUP2 MSTORE PUSH19 0x666F7220746865205765616C746820666C6F77 PUSH1 0x68 SHL PUSH1 0x20 DUP3 ADD MSTORE SWAP1 JUMP JUMPDEST POP PUSH1 0xCA DUP2 GT ISZERO PUSH2 0x5B16 JUMP JUMPDEST POP PUSH1 0x40 MLOAD PUSH2 0x5BD8 DUP2 PUSH2 0x38D6 JUMP JUMPDEST PUSH1 0x17 DUP2 MSTORE PUSH32 0x696E2074686520636F6E6E65637465642077616C6C6574000000000000000000 PUSH1 0x20 DUP3 ADD MSTORE SWAP1 JUMP JUMPDEST POP PUSH3 0x103E7 DUP2 GT ISZERO PUSH2 0x5B08 JUMP JUMPDEST SWAP1 DUP2 PUSH1 0x20 SWAP2 SUB SLT PUSH2 0x38F JUMPI MLOAD PUSH1 0x1 PUSH1 0x1 PUSH1 0xE0 SHL SUB NOT DUP2 AND DUP2 SUB PUSH2 0x38F JUMPI SWAP1 JUMP JUMPDEST PUSH1 0x80 SWAP1 PUSH1 0x20 DUP2 MSTORE PUSH1 0x28 PUSH1 0x20 DUP3 ADD MSTORE PUSH32 0x455243313135353A204552433131353552656365697665722072656A65637465 PUSH1 0x40 DUP3 ADD MSTORE PUSH8 0x6420746F6B656E73 PUSH1 0xC0 SHL PUSH1 0x60 DUP3 ADD MSTORE ADD SWAP1 JUMP JUMPDEST PUSH0 SWAP1 PUSH1 0x3 RETURNDATASIZE GT PUSH2 0x5C87 JUMPI JUMP JUMPDEST SWAP1 POP PUSH1 0x4 PUSH0 DUP1 RETURNDATACOPY PUSH0 MLOAD PUSH1 0xE0 SHR SWAP1 JUMP JUMPDEST PUSH0 PUSH1 0x44 RETURNDATASIZE LT PUSH2 0x3A9E JUMPI PUSH1 0x40 MLOAD PUSH1 0x3 NOT SWAP2 RETURNDATASIZE DUP4 ADD PUSH1 0x4 DUP4 RETURNDATACOPY DUP2 MLOAD PUSH1 0x1 PUSH1 0x1 PUSH1 0x40 SHL SUB SWAP2 DUP3 DUP3 GT RETURNDATASIZE PUSH1 0x24 DUP5 ADD GT OR PUSH2 0x5CF2 JUMPI DUP2 DUP5 ADD SWAP5 DUP6 MLOAD SWAP4 DUP5 GT PUSH2 0x5CFA JUMPI RETURNDATASIZE DUP6 ADD ADD PUSH1 0x20 DUP5 DUP8 ADD ADD GT PUSH2 0x5CF2 JUMPI POP PUSH2 0x3A9E SWAP3 SWAP2 ADD PUSH1 0x20 ADD SWAP1 PUSH2 0x390C JUMP JUMPDEST SWAP5 SWAP4 POP POP POP POP JUMP JUMPDEST POP SWAP5 SWAP4 POP POP POP POP JUMP JUMPDEST PUSH1 0x80 SWAP1 PUSH1 0x20 DUP2 MSTORE PUSH1 0x34 PUSH1 0x20 DUP3 ADD MSTORE PUSH32 0x455243313135353A207472616E7366657220746F206E6F6E2D45524331313535 PUSH1 0x40 DUP3 ADD MSTORE PUSH20 0x2932B1B2B4BB32B91034B6B83632B6B2B73A32B9 PUSH1 0x61 SHL PUSH1 0x60 DUP3 ADD MSTORE ADD SWAP1 JUMP JUMPDEST PUSH1 0x40 MLOAD PUSH2 0x5D64 DUP2 PUSH2 0x38D6 JUMP JUMPDEST PUSH1 0x1 DUP2 MSTORE PUSH1 0x20 DUP2 ADD PUSH1 0x20 CALLDATASIZE DUP3 CALLDATACOPY DUP2 MLOAD ISZERO PUSH2 0x3DFF JUMPI PUSH1 0x1 SWAP1 MSTORE SWAP1 JUMP JUMPDEST PUSH1 0x40 MLOAD SWAP1 PUSH2 0x5D8C DUP3 PUSH2 0x38D6 JUMP JUMPDEST PUSH1 0x1 DUP3 MSTORE PUSH1 0x20 DUP3 ADD PUSH1 0x20 CALLDATASIZE DUP3 CALLDATACOPY DUP3 MLOAD ISZERO PUSH2 0x3DFF JUMPI MSTORE SWAP1 JUMP INVALID 0xC3 0xD5 DUP2 PUSH9 0xC5AE7397731D063D5B 0xBF RETURNDATASIZE PUSH6 0x7854427343F4 0xC0 DUP4 0x24 0xF PUSH27 0xACAA2D0F62A2646970667358221220B7477F4E8116280692552C5C LOG1 0xD8 0xD1 MCOPY 0xBA 0xF8 ADD TSTORE SHL REVERT CALLER DUP7 0x28 SDIV CALLDATACOPY PUSH25 0xDA621CF464736F6C6343000818003300000000000000000000 "},"methodIdentifiers":{"ASSET_DECIMALS()":"f4db8984","BPS()":"249d39e9","DEFAULT_WEALTH_PRODUCT_ID()":"7cea070a","HOME_PAPER()":"1de3083d","HOME_QUIZ()":"8f631d54","HOME_RISK()":"eeaa8177","HOME_WALLET()":"cad47192","HOME_WELCOME()":"dcb2125b","MAX_SCORE_SUBMISSIONS_PER_DAY()":"c4ebe024","PAPER_BASE_CHECK()":"b363935c","PAPER_LEADERBOARD()":"6ea17abd","PAPER_PERP_LEVERAGE()":"325116ee","PAPER_PROTECTIVE_HEDGE()":"f766dee4","PAPER_SPOT_LOOP()":"57997aa2","WEALTH_BUY_RECEIPT()":"60062cd1","WEALTH_SETTLE_OR_PLEDGE()":"f5952d12","approvedUnderlyingHash(bytes32)":"4973fd9a","assetSymbol()":"176de7a8","balanceOf(address,uint256)":"00fdd58e","balanceOfBatch(address[],uint256[])":"4e1273f4","canAccessAdvancedShelf(address)":"99b49e25","claim(uint256)":"379607f5","claimBatch(uint256[])":"62abebce","eligibleInvestor(address)":"4d7c10a7","hasMinted(address)":"38e21cce","hasMintedBadge(address,uint8)":"01b4597d","hasMintedTask(address,uint8)":"6b3ce2f1","hasSubmittedScore(address)":"f9569673","hasWealthTask(address,uint8)":"aec45d80","isApprovedForAll(address,address)":"e985e9c5","lastAttestedAt()":"4adb4cc8","latestAttestationRoot()":"2e6f6b1f","markWealthTask(uint8)":"1a2e9996","minSubscription()":"41be5f64","mintBadge(uint8,address)":"7206abbd","mintWelcomeBadge(address)":"52163337","navBps()":"218900b4","nextHomeTokenId()":"8385f14a","owner()":"8da5cb5b","previewAssets(uint256)":"d28c390a","previewShares(uint256)":"02cea26b","productReceiptLabel(uint16)":"b7d120d0","receiptTokenId(uint16)":"2baa7521","recordUnderlyingReview(bytes32,bool,string)":"179649ad","redeem(uint256)":"db006a75","redeemProduct(uint16,uint256)":"d92fa2c6","renounceOwnership()":"715018a6","replayScoreOf(address)":"c8a3c3b5","riskTier(address)":"b84d93d4","safeBatchTransferFrom(address,address,uint256[],uint256[],bytes)":"2eb2c2d6","safeTransferFrom(address,address,uint256,uint256,bytes)":"f242432a","scoreAccountAt(uint256)":"d4b0521b","scoreAccountCount()":"2f85874a","setApprovalForAll(address,bool)":"a22cb465","setBaseUri(string)":"a0bcfc7f","setInvestorEligibility(address,bool,uint8)":"b5884e20","setMinSubscription(uint256)":"f68e55c3","setNavBps(uint256)":"9a2aaca1","setProductReceiptLabel(uint16,string)":"eda7c56e","setStrategyStatus(string)":"55cc0261","setSubscriptionsPaused(bool)":"009b27af","settleProduct(uint16,uint16,uint256,uint256)":"8909e506","strategyStatus()":"176f1cdd","submitScore(int256,uint256,uint256)":"6961fd46","subscribe(uint256)":"0f574ba7","subscribeProduct(uint16,uint256)":"619a1d29","subscriptionsPaused()":"cf22928d","supportsInterface(bytes4)":"01ffc9a7","tokenBadgeType(uint256)":"8530a3bf","transferOwnership(address)":"f2fde38b","updateAttestation(bytes32)":"8d00bbe5","uri(uint256)":"0e89341c","vaultLabel()":"2fb4e0f9","wealthReceiptShares(address,uint16)":"74b3322c","wealthTaskCompleted(address,uint8)":"cb33bcdb"}}}}}