{"project/contracts/MSXWealthReceiptVault.sol":{"MSXWealthReceiptVault":{"abi":[{"inputs":[{"internalType":"string","name":"name_","type":"string"},{"internalType":"string","name":"symbol_","type":"string"},{"internalType":"string","name":"vaultLabel_","type":"string"},{"internalType":"string","name":"assetSymbol_","type":"string"}],"stateMutability":"nonpayable","type":"constructor"},{"anonymous":false,"inputs":[{"indexed":true,"internalType":"address","name":"owner","type":"address"},{"indexed":true,"internalType":"address","name":"spender","type":"address"},{"indexed":false,"internalType":"uint256","name":"value","type":"uint256"}],"name":"Approval","type":"event"},{"anonymous":false,"inputs":[{"indexed":false,"internalType":"bytes32","name":"attestationRoot","type":"bytes32"},{"indexed":false,"internalType":"uint256","name":"timestamp","type":"uint256"}],"name":"AttestationUpdated","type":"event"},{"anonymous":false,"inputs":[{"indexed":true,"internalType":"address","name":"investor","type":"address"},{"indexed":false,"internalType":"bool","name":"allowed","type":"bool"},{"indexed":true,"internalType":"uint8","name":"tier","type":"uint8"}],"name":"InvestorEligibilityUpdated","type":"event"},{"anonymous":false,"inputs":[{"indexed":false,"internalType":"uint256","name":"navBps","type":"uint256"},{"indexed":false,"internalType":"uint256","name":"timestamp","type":"uint256"}],"name":"NavUpdated","type":"event"},{"anonymous":false,"inputs":[{"indexed":true,"internalType":"address","name":"previousOwner","type":"address"},{"indexed":true,"internalType":"address","name":"newOwner","type":"address"}],"name":"OwnershipTransferred","type":"event"},{"anonymous":false,"inputs":[{"indexed":true,"internalType":"address","name":"investor","type":"address"},{"indexed":false,"internalType":"uint256","name":"shareAmount","type":"uint256"},{"indexed":false,"internalType":"uint256","name":"assetAmount","type":"uint256"}],"name":"Redeemed","type":"event"},{"anonymous":false,"inputs":[{"indexed":false,"internalType":"string","name":"status","type":"string"},{"indexed":false,"internalType":"uint256","name":"timestamp","type":"uint256"}],"name":"StrategyStatusUpdated","type":"event"},{"anonymous":false,"inputs":[{"indexed":true,"internalType":"address","name":"investor","type":"address"},{"indexed":false,"internalType":"uint256","name":"assetAmount","type":"uint256"},{"indexed":false,"internalType":"uint256","name":"shareAmount","type":"uint256"}],"name":"Subscribed","type":"event"},{"anonymous":false,"inputs":[{"indexed":true,"internalType":"address","name":"from","type":"address"},{"indexed":true,"internalType":"address","name":"to","type":"address"},{"indexed":false,"internalType":"uint256","name":"value","type":"uint256"}],"name":"Transfer","type":"event"},{"anonymous":false,"inputs":[{"indexed":true,"internalType":"bytes32","name":"assetHash","type":"bytes32"},{"indexed":false,"internalType":"bool","name":"passed","type":"bool"},{"indexed":false,"internalType":"string","name":"note","type":"string"}],"name":"UnderlyingReviewRecorded","type":"event"},{"inputs":[],"name":"ASSET_DECIMALS","outputs":[{"internalType":"uint8","name":"","type":"uint8"}],"stateMutability":"view","type":"function"},{"inputs":[],"name":"BPS","outputs":[{"internalType":"uint256","name":"","type":"uint256"}],"stateMutability":"view","type":"function"},{"inputs":[{"internalType":"address","name":"owner","type":"address"},{"internalType":"address","name":"spender","type":"address"}],"name":"allowance","outputs":[{"internalType":"uint256","name":"","type":"uint256"}],"stateMutability":"view","type":"function"},{"inputs":[{"internalType":"address","name":"spender","type":"address"},{"internalType":"uint256","name":"amount","type":"uint256"}],"name":"approve","outputs":[{"internalType":"bool","name":"","type":"bool"}],"stateMutability":"nonpayable","type":"function"},{"inputs":[{"internalType":"bytes32","name":"","type":"bytes32"}],"name":"approvedUnderlyingHash","outputs":[{"internalType":"bool","name":"","type":"bool"}],"stateMutability":"view","type":"function"},{"inputs":[],"name":"assetSymbol","outputs":[{"internalType":"string","name":"","type":"string"}],"stateMutability":"view","type":"function"},{"inputs":[{"internalType":"address","name":"account","type":"address"}],"name":"balanceOf","outputs":[{"internalType":"uint256","name":"","type":"uint256"}],"stateMutability":"view","type":"function"},{"inputs":[{"internalType":"address","name":"investor","type":"address"}],"name":"canAccessAdvancedShelf","outputs":[{"internalType":"bool","name":"","type":"bool"}],"stateMutability":"view","type":"function"},{"inputs":[],"name":"decimals","outputs":[{"internalType":"uint8","name":"","type":"uint8"}],"stateMutability":"view","type":"function"},{"inputs":[{"internalType":"address","name":"spender","type":"address"},{"internalType":"uint256","name":"subtractedValue","type":"uint256"}],"name":"decreaseAllowance","outputs":[{"internalType":"bool","name":"","type":"bool"}],"stateMutability":"nonpayable","type":"function"},{"inputs":[{"internalType":"address","name":"","type":"address"}],"name":"eligibleInvestor","outputs":[{"internalType":"bool","name":"","type":"bool"}],"stateMutability":"view","type":"function"},{"inputs":[{"internalType":"address","name":"spender","type":"address"},{"internalType":"uint256","name":"addedValue","type":"uint256"}],"name":"increaseAllowance","outputs":[{"internalType":"bool","name":"","type":"bool"}],"stateMutability":"nonpayable","type":"function"},{"inputs":[],"name":"lastAttestedAt","outputs":[{"internalType":"uint256","name":"","type":"uint256"}],"stateMutability":"view","type":"function"},{"inputs":[],"name":"latestAttestationRoot","outputs":[{"internalType":"bytes32","name":"","type":"bytes32"}],"stateMutability":"view","type":"function"},{"inputs":[],"name":"minSubscription","outputs":[{"internalType":"uint256","name":"","type":"uint256"}],"stateMutability":"view","type":"function"},{"inputs":[],"name":"name","outputs":[{"internalType":"string","name":"","type":"string"}],"stateMutability":"view","type":"function"},{"inputs":[],"name":"navBps","outputs":[{"internalType":"uint256","name":"","type":"uint256"}],"stateMutability":"view","type":"function"},{"inputs":[],"name":"owner","outputs":[{"internalType":"address","name":"","type":"address"}],"stateMutability":"view","type":"function"},{"inputs":[{"internalType":"uint256","name":"shareAmount","type":"uint256"}],"name":"previewAssets","outputs":[{"internalType":"uint256","name":"","type":"uint256"}],"stateMutability":"view","type":"function"},{"inputs":[{"internalType":"uint256","name":"assetAmount","type":"uint256"}],"name":"previewShares","outputs":[{"internalType":"uint256","name":"","type":"uint256"}],"stateMutability":"view","type":"function"},{"inputs":[{"internalType":"bytes32","name":"assetHash","type":"bytes32"},{"internalType":"bool","name":"passed","type":"bool"},{"internalType":"string","name":"note","type":"string"}],"name":"recordUnderlyingReview","outputs":[],"stateMutability":"nonpayable","type":"function"},{"inputs":[{"internalType":"uint256","name":"shareAmount","type":"uint256"}],"name":"redeem","outputs":[{"internalType":"uint256","name":"assetAmount","type":"uint256"}],"stateMutability":"nonpayable","type":"function"},{"inputs":[],"name":"renounceOwnership","outputs":[],"stateMutability":"nonpayable","type":"function"},{"inputs":[{"internalType":"address","name":"","type":"address"}],"name":"riskTier","outputs":[{"internalType":"uint8","name":"","type":"uint8"}],"stateMutability":"view","type":"function"},{"inputs":[{"internalType":"address","name":"investor","type":"address"},{"internalType":"bool","name":"allowed","type":"bool"},{"internalType":"uint8","name":"tier","type":"uint8"}],"name":"setInvestorEligibility","outputs":[],"stateMutability":"nonpayable","type":"function"},{"inputs":[{"internalType":"uint256","name":"nextMinSubscription","type":"uint256"}],"name":"setMinSubscription","outputs":[],"stateMutability":"nonpayable","type":"function"},{"inputs":[{"internalType":"uint256","name":"nextNavBps","type":"uint256"}],"name":"setNavBps","outputs":[],"stateMutability":"nonpayable","type":"function"},{"inputs":[{"internalType":"string","name":"nextStatus","type":"string"}],"name":"setStrategyStatus","outputs":[],"stateMutability":"nonpayable","type":"function"},{"inputs":[{"internalType":"bool","name":"paused","type":"bool"}],"name":"setSubscriptionsPaused","outputs":[],"stateMutability":"nonpayable","type":"function"},{"inputs":[],"name":"strategyStatus","outputs":[{"internalType":"string","name":"","type":"string"}],"stateMutability":"view","type":"function"},{"inputs":[{"internalType":"uint256","name":"assetAmount","type":"uint256"}],"name":"subscribe","outputs":[{"internalType":"uint256","name":"shareAmount","type":"uint256"}],"stateMutability":"nonpayable","type":"function"},{"inputs":[],"name":"subscriptionsPaused","outputs":[{"internalType":"bool","name":"","type":"bool"}],"stateMutability":"view","type":"function"},{"inputs":[],"name":"symbol","outputs":[{"internalType":"string","name":"","type":"string"}],"stateMutability":"view","type":"function"},{"inputs":[],"name":"totalSupply","outputs":[{"internalType":"uint256","name":"","type":"uint256"}],"stateMutability":"view","type":"function"},{"inputs":[{"internalType":"address","name":"to","type":"address"},{"internalType":"uint256","name":"amount","type":"uint256"}],"name":"transfer","outputs":[{"internalType":"bool","name":"","type":"bool"}],"stateMutability":"nonpayable","type":"function"},{"inputs":[{"internalType":"address","name":"from","type":"address"},{"internalType":"address","name":"to","type":"address"},{"internalType":"uint256","name":"amount","type":"uint256"}],"name":"transferFrom","outputs":[{"internalType":"bool","name":"","type":"bool"}],"stateMutability":"nonpayable","type":"function"},{"inputs":[{"internalType":"address","name":"newOwner","type":"address"}],"name":"transferOwnership","outputs":[],"stateMutability":"nonpayable","type":"function"},{"inputs":[{"internalType":"bytes32","name":"nextAttestationRoot","type":"bytes32"}],"name":"updateAttestation","outputs":[],"stateMutability":"nonpayable","type":"function"},{"inputs":[],"name":"vaultLabel","outputs":[{"internalType":"string","name":"","type":"string"}],"stateMutability":"view","type":"function"}],"evm":{"bytecode":{"linkReferences":{},"object":"608060405234620005925762001f23803803806200001d8162000596565b928339810190608081830312620005925780516001600160401b03929083811162000592578162000050918401620005bc565b90602093848401518181116200059257826200006e918601620005bc565b9360408101518281116200059257836200008a918301620005bc565b9260608201518381116200059257620000a49201620005bc565b93835190828211620004da5760039180620000c084546200062c565b96601f978a89821162000561575b50508990888311600114620004fa575f92620004ee575b50508160011b915f1990851b1c19161782555b8051838111620004da57806004926200011284546200062c565b8a8982116200049e575b5050899088831160011462000437575f926200042b575b50508160011b915f1990851b1c19161781555b60058054336001600160a01b0319821681178355919591906001600160a01b03167f8be0079c531659141344cd1fd0a4f28419497f9722a3daafe3b4186f6b6457e05f80a3612710600855631dcd650060095580519084821162000418578190620001b36006546200062c565b8a898211620003dd575b5050899088831160011462000373575f9262000367575b50508160011b915f1990851b1c1916176006555b8551928311620003545750620002006007546200062c565b8481116200031a575b508594848311600114620002b05794829394955f93620002a4575b50508260011b925f19911b1c1916176007555b62000244600d546200062c565b9180831162000282575b7f426f6f74737472617070696e670000000000000000000000000000000000001a600d556040516118a39081620006808239f35b6200029a93600d5f525f209201901c81019062000667565b5f8080806200024e565b015191505f8062000224565b90601f1983169560075f52875f20925f5b898982106200030357505084600196979810620002e9575b50505050811b0160075562000237565b01519060f8845f19921b161c191690555f808080620002d9565b6001849682939585015181550195019201620002c1565b620003439060075f52875f2086808601871c8201928a87106200034a575b01861c019062000667565b5f62000209565b9250819262000338565b604190634e487b7160e01b5f525260245ffd5b015190505f80620001d4565b60065f9081528b81209350601f198516905b8c828210620003c6575050908460019594939210620003ae575b505050811b01600655620001e8565b01515f1983871b60f8161c191690555f80806200039f565b600185968293968601518155019501930162000385565b620004069160065f528a825f20918187018c1c83019387106200040e575b018a1c019062000667565b5f8a620001bd565b92508192620003fb565b604183634e487b7160e01b5f525260245ffd5b015190505f8062000133565b5f8581528b81209350601f198516905b8c828210620004875750509084600195949392106200046f575b505050811b01815562000146565b01515f1983871b60f8161c191690555f808062000461565b600185968293968601518155019501930162000447565b620004c891865f528a825f209181870160051c8301938710620004d0575b0160051c019062000667565b5f8a6200011c565b92508192620004bc565b634e487b7160e01b5f52604160045260245ffd5b015190505f80620000e5565b5f8681528b81209350601f198516905b8c8282106200054a57505090846001959493921062000532575b505050811b018255620000f8565b01515f1983871b60f8161c191690555f808062000524565b60018596829396860151815501950193016200050a565b6200058a91875f528a825f209181870160051c8301938710620004d0570160051c019062000667565b5f8a620000ce565b5f80fd5b6040519190601f01601f191682016001600160401b03811183821017620004da57604052565b919080601f84011215620005925782516001600160401b038111620004da57602090620005f2601f8201601f1916830162000596565b9281845282828701011162000592575f5b818110620006185750825f9394955001015290565b858101830151848201840152820162000603565b90600182811c921680156200065c575b60208310146200064857565b634e487b7160e01b5f52602260045260245ffd5b91607f16916200063c565b81811062000673575050565b5f81556001016200066756fe604060808152600480361015610013575f80fd5b5f3560e01c80629b27af1461137857806302cea26b1461135957806306fdde0314611292578063095ea7b3146112695780630f574ba7146110ab578063176de7a814610fe4578063176f1cdd14610f1d578063179649ad14610e7857806318160ddd14610e5a578063218900b414610e3c57806323b872dd14610d74578063249d39e914610d585780632e6f6b1f14610d3a5780632fb4e0f914610c73578063313ce56714610c585780633950935114610c0c57806341be5f6414610bee5780634973fd9a14610bc15780634adb4cc814610ba35780634d7c10a714610b6757806355cc02611461098a57806370a0823114610954578063715018a6146108f95780638d00bbe5146108a55780638da5cb5b1461087d57806395d89b411461078157806399b49e25146107285780639a2aaca11461069f578063a457c2d7146105fb578063a9059cbb146105cb578063b5884e201461052e578063b84d93d4146104f4578063cf22928d146104d1578063d28c390a146104ab578063db006a7514610357578063dd62ed3e1461030e578063f2fde38b14610244578063f4db8984146102295763f68e55c3146101c7575f80fd5b34610225576020366003190112610225578035916101e36115aa565b82156101f0576009839055005b906020606492519162461bcd60e51b8352820152600f60248201526e496e76616c6964206d696e696d756d60881b6044820152fd5b5f80fd5b8234610225575f366003190112610225576020905160068152f35b50346102255760203660031901126102255761025e611405565b906102676115aa565b6001600160a01b039182169283156102bc575050600554826bffffffffffffffffffffffff60a01b821617600555167f8be0079c531659141344cd1fd0a4f28419497f9722a3daafe3b4186f6b6457e05f80a3005b906020608492519162461bcd60e51b8352820152602660248201527f4f776e61626c653a206e6577206f776e657220697320746865207a65726f206160448201526564647265737360d01b6064820152fd5b823461022557806003193601126102255760209061032a611405565b61033261141b565b9060018060a01b038091165f5260018452825f2091165f528252805f20549051908152f35b50346102255760209182600319360112610225578135610378811515611508565b6103818161156f565b92331561045e57335f525f8552825f20549082821061041057508190335f525f865203825f205580600254036002555f82518281527fddf252ad1be2c89b69c2b068fc378daa952ba7f163c4a11628f55a4df523b3ef863392a3815190815282848201527ff3a670cd3af7d64b488926880889d08a8585a138ff455227af6737339a1ec262823392a251908152f35b835162461bcd60e51b8152908101869052602260248201527f45524332303a206275726e20616d6f756e7420657863656564732062616c616e604482015261636560f01b6064820152608490fd5b825162461bcd60e51b8152908101859052602160248201527f45524332303a206275726e2066726f6d20746865207a65726f206164647265736044820152607360f81b6064820152608490fd5b509034610225576020366003190112610225576104ca6020923561156f565b9051908152f35b8234610225575f3660031901126102255760209060ff600b541690519015158152f35b8234610225576020366003190112610225576020906001600160a01b03610519611405565b165f52600f825260ff815f2054169051908152f35b823461022557606036600319011261022557610548611405565b906105516113af565b6044359260ff8416809403610225577fa0aa2b85df88566521daa2ac1eb0694994372f9f1e64a41307f9d06a571f92129160209161058d6115aa565b6001600160a01b03165f818152600e8452859020805460ff191660ff8415151617905593600f8352805f208660ff19825416179055519015158152a3005b82346102255780600319360112610225576020906105f46105ea611405565b6024359033611700565b5160018152f35b5034610225578160031936011261022557610614611405565b9060243590335f526001602052835f2060018060a01b0384165f52602052835f20549082821061064e576020856105f48585038733611602565b608490602086519162461bcd60e51b8352820152602560248201527f45524332303a2064656372656173656420616c6c6f77616e63652062656c6f77604482015264207a65726f60d81b6064820152fd5b5090346102255760203660031901126102255781356106bc6115aa565b80156106f7577f1e1223c1f6274c6d64fdb08c485e192bd2896c9abf70e840e199ac1f54d6d1d59250806008558151908152426020820152a1005b815162461bcd60e51b8152602081850152600b60248201526a24b73b30b634b2102720ab60a91b6044820152606490fd5b8234610225576020366003190112610225576020906001600160a01b0361074d611405565b165f52600e825260ff815f205416908161076a575b519015158152f35b9050600f8252600260ff825f205416101590610762565b509034610225575f366003190112610225578051905f83546107a281611431565b8085529060209060019081811690811561085d5750600114610808575b505050829003601f01601f191682019267ffffffffffffffff8411838510176107f557508291826107f19252826113be565b0390f35b604190634e487b7160e01b5f525260245ffd5b5f8781529293507f8a35acfbc15ff81a39ae7d344fd709f28e8600b4aa8c65c6b64bfe7fe36bd19b5b84841061084a57505050602091508301015f80806107bf565b8054878501840152928201928101610831565b925050506020925060ff191682850152151560051b8301015f80806107bf565b8234610225575f3660031901126102255760055490516001600160a01b039091168152602090f35b509034610225576020366003190112610225577f181f92f68826a8d2b5b97d27f9e18d05a337290356fabf5b717154077dbea93391356108e36115aa565b80600c5542600a558151908152426020820152a1005b34610225575f366003190112610225576109116115aa565b600580546001600160a01b031981169091555f906001600160a01b03167f8be0079c531659141344cd1fd0a4f28419497f9722a3daafe3b4186f6b6457e08280a3005b8234610225576020366003190112610225576020906001600160a01b03610979611405565b165f525f8252805f20549051908152f35b5034610225576020806003193601126102255767ffffffffffffffff908235828111610225576109bd9036908501611469565b9390926109c86115aa565b84116107f557506109da600d54611431565b601f8111610b04575b505f90601f8411600114610a5b57507f09fb0a9f79f07cf16c95b92623175f408d609663d7868ae62581439d923470bd939183610a45925f91610a50575b508460011b905f198660031b1c191617600d555b8251938385948552840191611542565b4260208301520390a1005b90508101355f610a21565b90601f198416600d5f527fd7b6990105719101dabeb77144f2a3385c8033acd3af97e9423a695e81ad1eb5925f905b828210610aec575050917f09fb0a9f79f07cf16c95b92623175f408d609663d7868ae62581439d923470bd95939185610a459410610ad3575b5050600184811b01600d55610a35565b8201355f19600387901b60f8161c191690555f80610ac3565b80600185968294968901358155019501930190610a8a565b600d5f527fd7b6990105719101dabeb77144f2a3385c8033acd3af97e9423a695e81ad1eb5601f850160051c81019160208610610b5d575b601f0160051c01905b818110610b5257506109e3565b5f8155600101610b45565b9091508190610b3c565b8234610225576020366003190112610225576020906001600160a01b03610b8c611405565b165f52600e825260ff815f20541690519015158152f35b8234610225575f36600319011261022557602090600a549051908152f35b50903461022557602036600319011261022557602091355f526010825260ff815f20541690519015158152f35b8234610225575f366003190112610225576020906009549051908152f35b82346102255780600319360112610225576020906105f4610c2b611405565b335f5260018452825f2060018060a01b0382165f528452610c51602435845f2054611562565b9033611602565b8234610225575f366003190112610225576020905160128152f35b509034610225575f366003190112610225578051905f600654610c9581611431565b8085529060209060019081811690811561085d5750600114610ce357505050829003601f01601f191682019267ffffffffffffffff8411838510176107f557508291826107f19252826113be565b60065f9081529293507ff652222313e28459528d920b65115c16c04f3efc82aaedc97be59f3f377c0d3f5b848410610d2757505050602091508301015f80806107bf565b8054878501840152928201928101610d0e565b8234610225575f36600319011261022557602090600c549051908152f35b8234610225575f36600319011261022557602090516127108152f35b503461022557606036600319011261022557610d8e611405565b610d9661141b565b906044359260018060a01b0382165f526001602052845f20335f52602052845f2054905f198203610dd0575b6020866105f4878787611700565b848210610df95750918391610dee602096956105f495033383611602565b919394819350610dc2565b606490602087519162461bcd60e51b8352820152601d60248201527f45524332303a20696e73756666696369656e7420616c6c6f77616e63650000006044820152fd5b8234610225575f366003190112610225576020906008549051908152f35b8234610225575f366003190112610225576020906002549051908152f35b503461022557606036600319011261022557803591610e956113af565b6044359267ffffffffffffffff841161022557610ed9610f18917f5cd61427930ab89a7ffdd8646dd284f02d4ec213a21d6dcaab300350e800661195369101611469565b610ee16115aa565b865f526010602052610f0184865f209060ff801983541691151516179055565b845194859415158552806020860152840191611542565b0390a2005b509034610225575f366003190112610225578051905f600d54610f3f81611431565b8085529060209060019081811690811561085d5750600114610f8d57505050829003601f01601f191682019267ffffffffffffffff8411838510176107f557508291826107f19252826113be565b600d5f9081529293507fd7b6990105719101dabeb77144f2a3385c8033acd3af97e9423a695e81ad1eb55b848410610fd157505050602091508301015f80806107bf565b8054878501840152928201928101610fb8565b509034610225575f366003190112610225578051905f60075461100681611431565b8085529060209060019081811690811561085d575060011461105457505050829003601f01601f191682019267ffffffffffffffff8411838510176107f557508291826107f19252826113be565b60075f9081529293507fa66cc928b5edb82af9bd49922954155ab7b0942694bea4ce44661d9a8736c6885b84841061109857505050602091508301015f80806107bf565b805487850184015292820192810161107f565b5034610225576020918260031936011261022557813560ff600b541661123057335f52600e845260ff825f205416156111f65760095481106111c4576110f081611497565b926110fc841515611508565b3315611181575061110f83600254611562565b600255335f525f8452815f2083815401905581518381525f7fddf252ad1be2c89b69c2b068fc378daa952ba7f163c4a11628f55a4df523b3ef863393a3815190815282848201527ff94991dcbea6e8ac439cbc93bd9c62a4d39f04e0ad656df9a703f13552c2787f823392a251908152f35b825162461bcd60e51b8152908101859052601f60248201527f45524332303a206d696e7420746f20746865207a65726f2061646472657373006044820152606490fd5b5091606492519162461bcd60e51b8352820152600d60248201526c42656c6f77206d696e696d756d60981b6044820152fd5b5091606492519162461bcd60e51b83528201526015602482015274496e766573746f72206e6f7420656c696769626c6560581b6044820152fd5b5091606492519162461bcd60e51b8352820152601460248201527314dd589cd8dc9a5c1d1a5bdb9cc81c185d5cd95960621b6044820152fd5b82346102255780600319360112610225576020906105f4611288611405565b6024359033611602565b509034610225575f366003190112610225578051905f6003546112b481611431565b8085529060209060019081811690811561085d575060011461130257505050829003601f01601f191682019267ffffffffffffffff8411838510176107f557508291826107f19252826113be565b60035f9081529293507fc2575a0e9e593c00f959f8c92f12db2869c3395a3b0502d05e2516446f71f85b5b84841061134657505050602091508301015f80806107bf565b805487850184015292820192810161132d565b509034610225576020366003190112610225576104ca60209235611497565b503461022557602036600319011261022557358015158091036102255761139d6115aa565b60ff8019600b5416911617600b555f80f35b60243590811515820361022557565b602080825282518183018190529093925f5b8281106113f157505060409293505f838284010152601f8019910116010190565b8181018601518482016040015285016113d0565b600435906001600160a01b038216820361022557565b602435906001600160a01b038216820361022557565b90600182811c9216801561145f575b602083101461144b57565b634e487b7160e01b5f52602260045260245ffd5b91607f1691611440565b9181601f840112156102255782359167ffffffffffffffff8311610225576020838186019501011161022557565b670de0b6b3a7640000908181029181830414811517156114f45769021e19e0c9bab2400000029080820461271014901517156114f45760085480156114e057620f424091040490565b634e487b7160e01b5f52601260045260245ffd5b634e487b7160e01b5f52601160045260245ffd5b1561150f57565b60405162461bcd60e51b815260206004820152600b60248201526a5a65726f2073686172657360a81b6044820152606490fd5b908060209392818452848401375f828201840152601f01601f1916010190565b919082018092116114f457565b600854908181029181830414901517156114f457620f4240908181029181830414901517156114f457612710670de0b6b3a764000091040490565b6005546001600160a01b031633036115be57565b606460405162461bcd60e51b815260206004820152602060248201527f4f776e61626c653a2063616c6c6572206973206e6f7420746865206f776e65726044820152fd5b6001600160a01b039081169182156116af571691821561165f5760207f8c5be1e5ebec7d5bd14f71427d1e84f3dd0314c0f7b2291e5b200ac8c7c3b92591835f526001825260405f20855f5282528060405f2055604051908152a3565b60405162461bcd60e51b815260206004820152602260248201527f45524332303a20617070726f766520746f20746865207a65726f206164647265604482015261737360f01b6064820152608490fd5b60405162461bcd60e51b8152602060048201526024808201527f45524332303a20617070726f76652066726f6d20746865207a65726f206164646044820152637265737360e01b6064820152608490fd5b6001600160a01b0390811691821561181a57169182156117c957815f525f60205260405f205481811061177557817fddf252ad1be2c89b69c2b068fc378daa952ba7f163c4a11628f55a4df523b3ef92602092855f525f84520360405f2055845f5260405f20818154019055604051908152a3565b60405162461bcd60e51b815260206004820152602660248201527f45524332303a207472616e7366657220616d6f756e7420657863656564732062604482015265616c616e636560d01b6064820152608490fd5b60405162461bcd60e51b815260206004820152602360248201527f45524332303a207472616e7366657220746f20746865207a65726f206164647260448201526265737360e81b6064820152608490fd5b60405162461bcd60e51b815260206004820152602560248201527f45524332303a207472616e736665722066726f6d20746865207a65726f206164604482015264647265737360d81b6064820152608490fdfea2646970667358221220e5bb510f58ed4124f322e82c40106cb492184de11143c573603480d50b80fee764736f6c63430008180033","opcodes":"PUSH1 0x80 PUSH1 0x40 MSTORE CALLVALUE PUSH3 0x592 JUMPI PUSH3 0x1F23 DUP1 CODESIZE SUB DUP1 PUSH3 0x1D DUP2 PUSH3 0x596 JUMP JUMPDEST SWAP3 DUP4 CODECOPY DUP2 ADD SWAP1 PUSH1 0x80 DUP2 DUP4 SUB SLT PUSH3 0x592 JUMPI DUP1 MLOAD PUSH1 0x1 PUSH1 0x1 PUSH1 0x40 SHL SUB SWAP3 SWAP1 DUP4 DUP2 GT PUSH3 0x592 JUMPI DUP2 PUSH3 0x50 SWAP2 DUP5 ADD PUSH3 0x5BC JUMP JUMPDEST SWAP1 PUSH1 0x20 SWAP4 DUP5 DUP5 ADD MLOAD DUP2 DUP2 GT PUSH3 0x592 JUMPI DUP3 PUSH3 0x6E SWAP2 DUP7 ADD PUSH3 0x5BC JUMP JUMPDEST SWAP4 PUSH1 0x40 DUP2 ADD MLOAD DUP3 DUP2 GT PUSH3 0x592 JUMPI DUP4 PUSH3 0x8A SWAP2 DUP4 ADD PUSH3 0x5BC JUMP JUMPDEST SWAP3 PUSH1 0x60 DUP3 ADD MLOAD DUP4 DUP2 GT PUSH3 0x592 JUMPI PUSH3 0xA4 SWAP3 ADD PUSH3 0x5BC JUMP JUMPDEST SWAP4 DUP4 MLOAD SWAP1 DUP3 DUP3 GT PUSH3 0x4DA JUMPI PUSH1 0x3 SWAP2 DUP1 PUSH3 0xC0 DUP5 SLOAD PUSH3 0x62C JUMP JUMPDEST SWAP7 PUSH1 0x1F SWAP8 DUP11 DUP10 DUP3 GT PUSH3 0x561 JUMPI JUMPDEST POP POP DUP10 SWAP1 DUP9 DUP4 GT PUSH1 0x1 EQ PUSH3 0x4FA JUMPI PUSH0 SWAP3 PUSH3 0x4EE JUMPI JUMPDEST POP POP DUP2 PUSH1 0x1 SHL SWAP2 PUSH0 NOT SWAP1 DUP6 SHL SHR NOT AND OR DUP3 SSTORE JUMPDEST DUP1 MLOAD DUP4 DUP2 GT PUSH3 0x4DA JUMPI DUP1 PUSH1 0x4 SWAP3 PUSH3 0x112 DUP5 SLOAD PUSH3 0x62C JUMP JUMPDEST DUP11 DUP10 DUP3 GT PUSH3 0x49E JUMPI JUMPDEST POP POP DUP10 SWAP1 DUP9 DUP4 GT PUSH1 0x1 EQ PUSH3 0x437 JUMPI PUSH0 SWAP3 PUSH3 0x42B JUMPI JUMPDEST POP POP DUP2 PUSH1 0x1 SHL SWAP2 PUSH0 NOT SWAP1 DUP6 SHL SHR NOT AND OR DUP2 SSTORE JUMPDEST PUSH1 0x5 DUP1 SLOAD CALLER PUSH1 0x1 PUSH1 0x1 PUSH1 0xA0 SHL SUB NOT DUP3 AND DUP2 OR DUP4 SSTORE SWAP2 SWAP6 SWAP2 SWAP1 PUSH1 0x1 PUSH1 0x1 PUSH1 0xA0 SHL SUB AND PUSH32 0x8BE0079C531659141344CD1FD0A4F28419497F9722A3DAAFE3B4186F6B6457E0 PUSH0 DUP1 LOG3 PUSH2 0x2710 PUSH1 0x8 SSTORE PUSH4 0x1DCD6500 PUSH1 0x9 SSTORE DUP1 MLOAD SWAP1 DUP5 DUP3 GT PUSH3 0x418 JUMPI DUP2 SWAP1 PUSH3 0x1B3 PUSH1 0x6 SLOAD PUSH3 0x62C JUMP JUMPDEST DUP11 DUP10 DUP3 GT PUSH3 0x3DD JUMPI JUMPDEST POP POP DUP10 SWAP1 DUP9 DUP4 GT PUSH1 0x1 EQ PUSH3 0x373 JUMPI PUSH0 SWAP3 PUSH3 0x367 JUMPI JUMPDEST POP POP DUP2 PUSH1 0x1 SHL SWAP2 PUSH0 NOT SWAP1 DUP6 SHL SHR NOT AND OR PUSH1 0x6 SSTORE JUMPDEST DUP6 MLOAD SWAP3 DUP4 GT PUSH3 0x354 JUMPI POP PUSH3 0x200 PUSH1 0x7 SLOAD PUSH3 0x62C JUMP JUMPDEST DUP5 DUP2 GT PUSH3 0x31A JUMPI JUMPDEST POP DUP6 SWAP5 DUP5 DUP4 GT PUSH1 0x1 EQ PUSH3 0x2B0 JUMPI SWAP5 DUP3 SWAP4 SWAP5 SWAP6 PUSH0 SWAP4 PUSH3 0x2A4 JUMPI JUMPDEST POP POP DUP3 PUSH1 0x1 SHL SWAP3 PUSH0 NOT SWAP2 SHL SHR NOT AND OR PUSH1 0x7 SSTORE JUMPDEST PUSH3 0x244 PUSH1 0xD SLOAD PUSH3 0x62C JUMP JUMPDEST SWAP2 DUP1 DUP4 GT PUSH3 0x282 JUMPI JUMPDEST PUSH32 0x426F6F74737472617070696E670000000000000000000000000000000000001A PUSH1 0xD SSTORE PUSH1 0x40 MLOAD PUSH2 0x18A3 SWAP1 DUP2 PUSH3 0x680 DUP3 CODECOPY RETURN JUMPDEST PUSH3 0x29A SWAP4 PUSH1 0xD PUSH0 MSTORE PUSH0 KECCAK256 SWAP3 ADD SWAP1 SHR DUP2 ADD SWAP1 PUSH3 0x667 JUMP JUMPDEST PUSH0 DUP1 DUP1 DUP1 PUSH3 0x24E JUMP JUMPDEST ADD MLOAD SWAP2 POP PUSH0 DUP1 PUSH3 0x224 JUMP JUMPDEST SWAP1 PUSH1 0x1F NOT DUP4 AND SWAP6 PUSH1 0x7 PUSH0 MSTORE DUP8 PUSH0 KECCAK256 SWAP3 PUSH0 JUMPDEST DUP10 DUP10 DUP3 LT PUSH3 0x303 JUMPI POP POP DUP5 PUSH1 0x1 SWAP7 SWAP8 SWAP9 LT PUSH3 0x2E9 JUMPI JUMPDEST POP POP POP POP DUP2 SHL ADD PUSH1 0x7 SSTORE PUSH3 0x237 JUMP JUMPDEST ADD MLOAD SWAP1 PUSH1 0xF8 DUP5 PUSH0 NOT SWAP3 SHL AND SHR NOT AND SWAP1 SSTORE PUSH0 DUP1 DUP1 DUP1 PUSH3 0x2D9 JUMP JUMPDEST PUSH1 0x1 DUP5 SWAP7 DUP3 SWAP4 SWAP6 DUP6 ADD MLOAD DUP2 SSTORE ADD SWAP6 ADD SWAP3 ADD PUSH3 0x2C1 JUMP JUMPDEST PUSH3 0x343 SWAP1 PUSH1 0x7 PUSH0 MSTORE DUP8 PUSH0 KECCAK256 DUP7 DUP1 DUP7 ADD DUP8 SHR DUP3 ADD SWAP3 DUP11 DUP8 LT PUSH3 0x34A JUMPI JUMPDEST ADD DUP7 SHR ADD SWAP1 PUSH3 0x667 JUMP JUMPDEST PUSH0 PUSH3 0x209 JUMP JUMPDEST SWAP3 POP DUP2 SWAP3 PUSH3 0x338 JUMP JUMPDEST PUSH1 0x41 SWAP1 PUSH4 0x4E487B71 PUSH1 0xE0 SHL PUSH0 MSTORE MSTORE PUSH1 0x24 PUSH0 REVERT JUMPDEST ADD MLOAD SWAP1 POP PUSH0 DUP1 PUSH3 0x1D4 JUMP JUMPDEST PUSH1 0x6 PUSH0 SWAP1 DUP2 MSTORE DUP12 DUP2 KECCAK256 SWAP4 POP PUSH1 0x1F NOT DUP6 AND SWAP1 JUMPDEST DUP13 DUP3 DUP3 LT PUSH3 0x3C6 JUMPI POP POP SWAP1 DUP5 PUSH1 0x1 SWAP6 SWAP5 SWAP4 SWAP3 LT PUSH3 0x3AE JUMPI JUMPDEST POP POP POP DUP2 SHL ADD PUSH1 0x6 SSTORE PUSH3 0x1E8 JUMP JUMPDEST ADD MLOAD PUSH0 NOT DUP4 DUP8 SHL PUSH1 0xF8 AND SHR NOT AND SWAP1 SSTORE PUSH0 DUP1 DUP1 PUSH3 0x39F JUMP JUMPDEST PUSH1 0x1 DUP6 SWAP7 DUP3 SWAP4 SWAP7 DUP7 ADD MLOAD DUP2 SSTORE ADD SWAP6 ADD SWAP4 ADD PUSH3 0x385 JUMP JUMPDEST PUSH3 0x406 SWAP2 PUSH1 0x6 PUSH0 MSTORE DUP11 DUP3 PUSH0 KECCAK256 SWAP2 DUP2 DUP8 ADD DUP13 SHR DUP4 ADD SWAP4 DUP8 LT PUSH3 0x40E JUMPI JUMPDEST ADD DUP11 SHR ADD SWAP1 PUSH3 0x667 JUMP JUMPDEST PUSH0 DUP11 PUSH3 0x1BD JUMP JUMPDEST SWAP3 POP DUP2 SWAP3 PUSH3 0x3FB JUMP JUMPDEST PUSH1 0x41 DUP4 PUSH4 0x4E487B71 PUSH1 0xE0 SHL PUSH0 MSTORE MSTORE PUSH1 0x24 PUSH0 REVERT JUMPDEST ADD MLOAD SWAP1 POP PUSH0 DUP1 PUSH3 0x133 JUMP JUMPDEST PUSH0 DUP6 DUP2 MSTORE DUP12 DUP2 KECCAK256 SWAP4 POP PUSH1 0x1F NOT DUP6 AND SWAP1 JUMPDEST DUP13 DUP3 DUP3 LT PUSH3 0x487 JUMPI POP POP SWAP1 DUP5 PUSH1 0x1 SWAP6 SWAP5 SWAP4 SWAP3 LT PUSH3 0x46F JUMPI JUMPDEST POP POP POP DUP2 SHL ADD DUP2 SSTORE PUSH3 0x146 JUMP JUMPDEST ADD MLOAD PUSH0 NOT DUP4 DUP8 SHL PUSH1 0xF8 AND SHR NOT AND SWAP1 SSTORE PUSH0 DUP1 DUP1 PUSH3 0x461 JUMP JUMPDEST PUSH1 0x1 DUP6 SWAP7 DUP3 SWAP4 SWAP7 DUP7 ADD MLOAD DUP2 SSTORE ADD SWAP6 ADD SWAP4 ADD PUSH3 0x447 JUMP JUMPDEST PUSH3 0x4C8 SWAP2 DUP7 PUSH0 MSTORE DUP11 DUP3 PUSH0 KECCAK256 SWAP2 DUP2 DUP8 ADD PUSH1 0x5 SHR DUP4 ADD SWAP4 DUP8 LT PUSH3 0x4D0 JUMPI JUMPDEST ADD PUSH1 0x5 SHR ADD SWAP1 PUSH3 0x667 JUMP JUMPDEST PUSH0 DUP11 PUSH3 0x11C JUMP JUMPDEST SWAP3 POP DUP2 SWAP3 PUSH3 0x4BC JUMP JUMPDEST PUSH4 0x4E487B71 PUSH1 0xE0 SHL PUSH0 MSTORE PUSH1 0x41 PUSH1 0x4 MSTORE PUSH1 0x24 PUSH0 REVERT JUMPDEST ADD MLOAD SWAP1 POP PUSH0 DUP1 PUSH3 0xE5 JUMP JUMPDEST PUSH0 DUP7 DUP2 MSTORE DUP12 DUP2 KECCAK256 SWAP4 POP PUSH1 0x1F NOT DUP6 AND SWAP1 JUMPDEST DUP13 DUP3 DUP3 LT PUSH3 0x54A JUMPI POP POP SWAP1 DUP5 PUSH1 0x1 SWAP6 SWAP5 SWAP4 SWAP3 LT PUSH3 0x532 JUMPI JUMPDEST POP POP POP DUP2 SHL ADD DUP3 SSTORE PUSH3 0xF8 JUMP JUMPDEST ADD MLOAD PUSH0 NOT DUP4 DUP8 SHL PUSH1 0xF8 AND SHR NOT AND SWAP1 SSTORE PUSH0 DUP1 DUP1 PUSH3 0x524 JUMP JUMPDEST PUSH1 0x1 DUP6 SWAP7 DUP3 SWAP4 SWAP7 DUP7 ADD MLOAD DUP2 SSTORE ADD SWAP6 ADD SWAP4 ADD PUSH3 0x50A JUMP JUMPDEST PUSH3 0x58A SWAP2 DUP8 PUSH0 MSTORE DUP11 DUP3 PUSH0 KECCAK256 SWAP2 DUP2 DUP8 ADD PUSH1 0x5 SHR DUP4 ADD SWAP4 DUP8 LT PUSH3 0x4D0 JUMPI ADD PUSH1 0x5 SHR ADD SWAP1 PUSH3 0x667 JUMP JUMPDEST PUSH0 DUP11 PUSH3 0xCE JUMP JUMPDEST PUSH0 DUP1 REVERT JUMPDEST PUSH1 0x40 MLOAD SWAP2 SWAP1 PUSH1 0x1F ADD PUSH1 0x1F NOT AND DUP3 ADD PUSH1 0x1 PUSH1 0x1 PUSH1 0x40 SHL SUB DUP2 GT DUP4 DUP3 LT OR PUSH3 0x4DA JUMPI PUSH1 0x40 MSTORE JUMP JUMPDEST SWAP2 SWAP1 DUP1 PUSH1 0x1F DUP5 ADD SLT ISZERO PUSH3 0x592 JUMPI DUP3 MLOAD PUSH1 0x1 PUSH1 0x1 PUSH1 0x40 SHL SUB DUP2 GT PUSH3 0x4DA JUMPI PUSH1 0x20 SWAP1 PUSH3 0x5F2 PUSH1 0x1F DUP3 ADD PUSH1 0x1F NOT AND DUP4 ADD PUSH3 0x596 JUMP JUMPDEST SWAP3 DUP2 DUP5 MSTORE DUP3 DUP3 DUP8 ADD ADD GT PUSH3 0x592 JUMPI PUSH0 JUMPDEST DUP2 DUP2 LT PUSH3 0x618 JUMPI POP DUP3 PUSH0 SWAP4 SWAP5 SWAP6 POP ADD ADD MSTORE SWAP1 JUMP JUMPDEST DUP6 DUP2 ADD DUP4 ADD MLOAD DUP5 DUP3 ADD DUP5 ADD MSTORE DUP3 ADD PUSH3 0x603 JUMP JUMPDEST SWAP1 PUSH1 0x1 DUP3 DUP2 SHR SWAP3 AND DUP1 ISZERO PUSH3 0x65C JUMPI JUMPDEST PUSH1 0x20 DUP4 LT EQ PUSH3 0x648 JUMPI JUMP JUMPDEST PUSH4 0x4E487B71 PUSH1 0xE0 SHL PUSH0 MSTORE PUSH1 0x22 PUSH1 0x4 MSTORE PUSH1 0x24 PUSH0 REVERT JUMPDEST SWAP2 PUSH1 0x7F AND SWAP2 PUSH3 0x63C JUMP JUMPDEST DUP2 DUP2 LT PUSH3 0x673 JUMPI POP POP JUMP JUMPDEST PUSH0 DUP2 SSTORE PUSH1 0x1 ADD PUSH3 0x667 JUMP INVALID PUSH1 0x40 PUSH1 0x80 DUP2 MSTORE PUSH1 0x4 DUP1 CALLDATASIZE LT ISZERO PUSH2 0x13 JUMPI PUSH0 DUP1 REVERT JUMPDEST PUSH0 CALLDATALOAD PUSH1 0xE0 SHR DUP1 PUSH3 0x9B27AF EQ PUSH2 0x1378 JUMPI DUP1 PUSH4 0x2CEA26B EQ PUSH2 0x1359 JUMPI DUP1 PUSH4 0x6FDDE03 EQ PUSH2 0x1292 JUMPI DUP1 PUSH4 0x95EA7B3 EQ PUSH2 0x1269 JUMPI DUP1 PUSH4 0xF574BA7 EQ PUSH2 0x10AB JUMPI DUP1 PUSH4 0x176DE7A8 EQ PUSH2 0xFE4 JUMPI DUP1 PUSH4 0x176F1CDD EQ PUSH2 0xF1D JUMPI DUP1 PUSH4 0x179649AD EQ PUSH2 0xE78 JUMPI DUP1 PUSH4 0x18160DDD EQ PUSH2 0xE5A JUMPI DUP1 PUSH4 0x218900B4 EQ PUSH2 0xE3C JUMPI DUP1 PUSH4 0x23B872DD EQ PUSH2 0xD74 JUMPI DUP1 PUSH4 0x249D39E9 EQ PUSH2 0xD58 JUMPI DUP1 PUSH4 0x2E6F6B1F EQ PUSH2 0xD3A JUMPI DUP1 PUSH4 0x2FB4E0F9 EQ PUSH2 0xC73 JUMPI DUP1 PUSH4 0x313CE567 EQ PUSH2 0xC58 JUMPI DUP1 PUSH4 0x39509351 EQ PUSH2 0xC0C JUMPI DUP1 PUSH4 0x41BE5F64 EQ PUSH2 0xBEE JUMPI DUP1 PUSH4 0x4973FD9A EQ PUSH2 0xBC1 JUMPI DUP1 PUSH4 0x4ADB4CC8 EQ PUSH2 0xBA3 JUMPI DUP1 PUSH4 0x4D7C10A7 EQ PUSH2 0xB67 JUMPI DUP1 PUSH4 0x55CC0261 EQ PUSH2 0x98A JUMPI DUP1 PUSH4 0x70A08231 EQ PUSH2 0x954 JUMPI DUP1 PUSH4 0x715018A6 EQ PUSH2 0x8F9 JUMPI DUP1 PUSH4 0x8D00BBE5 EQ PUSH2 0x8A5 JUMPI DUP1 PUSH4 0x8DA5CB5B EQ PUSH2 0x87D JUMPI DUP1 PUSH4 0x95D89B41 EQ PUSH2 0x781 JUMPI DUP1 PUSH4 0x99B49E25 EQ PUSH2 0x728 JUMPI DUP1 PUSH4 0x9A2AACA1 EQ PUSH2 0x69F JUMPI DUP1 PUSH4 0xA457C2D7 EQ PUSH2 0x5FB JUMPI DUP1 PUSH4 0xA9059CBB EQ PUSH2 0x5CB JUMPI DUP1 PUSH4 0xB5884E20 EQ PUSH2 0x52E JUMPI DUP1 PUSH4 0xB84D93D4 EQ PUSH2 0x4F4 JUMPI DUP1 PUSH4 0xCF22928D EQ PUSH2 0x4D1 JUMPI DUP1 PUSH4 0xD28C390A EQ PUSH2 0x4AB JUMPI DUP1 PUSH4 0xDB006A75 EQ PUSH2 0x357 JUMPI DUP1 PUSH4 0xDD62ED3E EQ PUSH2 0x30E JUMPI DUP1 PUSH4 0xF2FDE38B EQ PUSH2 0x244 JUMPI DUP1 PUSH4 0xF4DB8984 EQ PUSH2 0x229 JUMPI PUSH4 0xF68E55C3 EQ PUSH2 0x1C7 JUMPI PUSH0 DUP1 REVERT JUMPDEST CALLVALUE PUSH2 0x225 JUMPI PUSH1 0x20 CALLDATASIZE PUSH1 0x3 NOT ADD SLT PUSH2 0x225 JUMPI DUP1 CALLDATALOAD SWAP2 PUSH2 0x1E3 PUSH2 0x15AA JUMP JUMPDEST DUP3 ISZERO PUSH2 0x1F0 JUMPI PUSH1 0x9 DUP4 SWAP1 SSTORE STOP JUMPDEST SWAP1 PUSH1 0x20 PUSH1 0x64 SWAP3 MLOAD SWAP2 PUSH3 0x461BCD PUSH1 0xE5 SHL DUP4 MSTORE DUP3 ADD MSTORE PUSH1 0xF PUSH1 0x24 DUP3 ADD MSTORE PUSH15 0x496E76616C6964206D696E696D756D PUSH1 0x88 SHL PUSH1 0x44 DUP3 ADD MSTORE REVERT JUMPDEST PUSH0 DUP1 REVERT JUMPDEST DUP3 CALLVALUE PUSH2 0x225 JUMPI PUSH0 CALLDATASIZE PUSH1 0x3 NOT ADD SLT PUSH2 0x225 JUMPI PUSH1 0x20 SWAP1 MLOAD PUSH1 0x6 DUP2 MSTORE RETURN JUMPDEST POP CALLVALUE PUSH2 0x225 JUMPI PUSH1 0x20 CALLDATASIZE PUSH1 0x3 NOT ADD SLT PUSH2 0x225 JUMPI PUSH2 0x25E PUSH2 0x1405 JUMP JUMPDEST SWAP1 PUSH2 0x267 PUSH2 0x15AA JUMP JUMPDEST PUSH1 0x1 PUSH1 0x1 PUSH1 0xA0 SHL SUB SWAP2 DUP3 AND SWAP3 DUP4 ISZERO PUSH2 0x2BC JUMPI POP POP PUSH1 0x5 SLOAD DUP3 PUSH12 0xFFFFFFFFFFFFFFFFFFFFFFFF PUSH1 0xA0 SHL DUP3 AND OR PUSH1 0x5 SSTORE AND PUSH32 0x8BE0079C531659141344CD1FD0A4F28419497F9722A3DAAFE3B4186F6B6457E0 PUSH0 DUP1 LOG3 STOP JUMPDEST SWAP1 PUSH1 0x20 PUSH1 0x84 SWAP3 MLOAD SWAP2 PUSH3 0x461BCD PUSH1 0xE5 SHL DUP4 MSTORE DUP3 ADD MSTORE PUSH1 0x26 PUSH1 0x24 DUP3 ADD MSTORE PUSH32 0x4F776E61626C653A206E6577206F776E657220697320746865207A65726F2061 PUSH1 0x44 DUP3 ADD MSTORE PUSH6 0x646472657373 PUSH1 0xD0 SHL PUSH1 0x64 DUP3 ADD MSTORE REVERT JUMPDEST DUP3 CALLVALUE PUSH2 0x225 JUMPI DUP1 PUSH1 0x3 NOT CALLDATASIZE ADD SLT PUSH2 0x225 JUMPI PUSH1 0x20 SWAP1 PUSH2 0x32A PUSH2 0x1405 JUMP JUMPDEST PUSH2 0x332 PUSH2 0x141B JUMP JUMPDEST SWAP1 PUSH1 0x1 DUP1 PUSH1 0xA0 SHL SUB DUP1 SWAP2 AND PUSH0 MSTORE PUSH1 0x1 DUP5 MSTORE DUP3 PUSH0 KECCAK256 SWAP2 AND PUSH0 MSTORE DUP3 MSTORE DUP1 PUSH0 KECCAK256 SLOAD SWAP1 MLOAD SWAP1 DUP2 MSTORE RETURN JUMPDEST POP CALLVALUE PUSH2 0x225 JUMPI PUSH1 0x20 SWAP2 DUP3 PUSH1 0x3 NOT CALLDATASIZE ADD SLT PUSH2 0x225 JUMPI DUP2 CALLDATALOAD PUSH2 0x378 DUP2 ISZERO ISZERO PUSH2 0x1508 JUMP JUMPDEST PUSH2 0x381 DUP2 PUSH2 0x156F JUMP JUMPDEST SWAP3 CALLER ISZERO PUSH2 0x45E JUMPI CALLER PUSH0 MSTORE PUSH0 DUP6 MSTORE DUP3 PUSH0 KECCAK256 SLOAD SWAP1 DUP3 DUP3 LT PUSH2 0x410 JUMPI POP DUP2 SWAP1 CALLER PUSH0 MSTORE PUSH0 DUP7 MSTORE SUB DUP3 PUSH0 KECCAK256 SSTORE DUP1 PUSH1 0x2 SLOAD SUB PUSH1 0x2 SSTORE PUSH0 DUP3 MLOAD DUP3 DUP2 MSTORE PUSH32 0xDDF252AD1BE2C89B69C2B068FC378DAA952BA7F163C4A11628F55A4DF523B3EF DUP7 CALLER SWAP3 LOG3 DUP2 MLOAD SWAP1 DUP2 MSTORE DUP3 DUP5 DUP3 ADD MSTORE PUSH32 0xF3A670CD3AF7D64B488926880889D08A8585A138FF455227AF6737339A1EC262 DUP3 CALLER SWAP3 LOG2 MLOAD SWAP1 DUP2 MSTORE RETURN JUMPDEST DUP4 MLOAD PUSH3 0x461BCD PUSH1 0xE5 SHL DUP2 MSTORE SWAP1 DUP2 ADD DUP7 SWAP1 MSTORE PUSH1 0x22 PUSH1 0x24 DUP3 ADD MSTORE PUSH32 0x45524332303A206275726E20616D6F756E7420657863656564732062616C616E PUSH1 0x44 DUP3 ADD MSTORE PUSH2 0x6365 PUSH1 0xF0 SHL PUSH1 0x64 DUP3 ADD MSTORE PUSH1 0x84 SWAP1 REVERT JUMPDEST DUP3 MLOAD PUSH3 0x461BCD PUSH1 0xE5 SHL DUP2 MSTORE SWAP1 DUP2 ADD DUP6 SWAP1 MSTORE PUSH1 0x21 PUSH1 0x24 DUP3 ADD MSTORE PUSH32 0x45524332303A206275726E2066726F6D20746865207A65726F20616464726573 PUSH1 0x44 DUP3 ADD MSTORE PUSH1 0x73 PUSH1 0xF8 SHL PUSH1 0x64 DUP3 ADD MSTORE PUSH1 0x84 SWAP1 REVERT JUMPDEST POP SWAP1 CALLVALUE PUSH2 0x225 JUMPI PUSH1 0x20 CALLDATASIZE PUSH1 0x3 NOT ADD SLT PUSH2 0x225 JUMPI PUSH2 0x4CA PUSH1 0x20 SWAP3 CALLDATALOAD PUSH2 0x156F JUMP JUMPDEST SWAP1 MLOAD SWAP1 DUP2 MSTORE RETURN JUMPDEST DUP3 CALLVALUE PUSH2 0x225 JUMPI PUSH0 CALLDATASIZE PUSH1 0x3 NOT ADD SLT PUSH2 0x225 JUMPI PUSH1 0x20 SWAP1 PUSH1 0xFF PUSH1 0xB SLOAD AND SWAP1 MLOAD SWAP1 ISZERO ISZERO DUP2 MSTORE RETURN JUMPDEST DUP3 CALLVALUE PUSH2 0x225 JUMPI PUSH1 0x20 CALLDATASIZE PUSH1 0x3 NOT ADD SLT PUSH2 0x225 JUMPI PUSH1 0x20 SWAP1 PUSH1 0x1 PUSH1 0x1 PUSH1 0xA0 SHL SUB PUSH2 0x519 PUSH2 0x1405 JUMP JUMPDEST AND PUSH0 MSTORE PUSH1 0xF DUP3 MSTORE PUSH1 0xFF DUP2 PUSH0 KECCAK256 SLOAD AND SWAP1 MLOAD SWAP1 DUP2 MSTORE RETURN JUMPDEST DUP3 CALLVALUE PUSH2 0x225 JUMPI PUSH1 0x60 CALLDATASIZE PUSH1 0x3 NOT ADD SLT PUSH2 0x225 JUMPI PUSH2 0x548 PUSH2 0x1405 JUMP JUMPDEST SWAP1 PUSH2 0x551 PUSH2 0x13AF JUMP JUMPDEST PUSH1 0x44 CALLDATALOAD SWAP3 PUSH1 0xFF DUP5 AND DUP1 SWAP5 SUB PUSH2 0x225 JUMPI PUSH32 0xA0AA2B85DF88566521DAA2AC1EB0694994372F9F1E64A41307F9D06A571F9212 SWAP2 PUSH1 0x20 SWAP2 PUSH2 0x58D PUSH2 0x15AA JUMP JUMPDEST PUSH1 0x1 PUSH1 0x1 PUSH1 0xA0 SHL SUB AND PUSH0 DUP2 DUP2 MSTORE PUSH1 0xE DUP5 MSTORE DUP6 SWAP1 KECCAK256 DUP1 SLOAD PUSH1 0xFF NOT AND PUSH1 0xFF DUP5 ISZERO ISZERO AND OR SWAP1 SSTORE SWAP4 PUSH1 0xF DUP4 MSTORE DUP1 PUSH0 KECCAK256 DUP7 PUSH1 0xFF NOT DUP3 SLOAD AND OR SWAP1 SSTORE MLOAD SWAP1 ISZERO ISZERO DUP2 MSTORE LOG3 STOP JUMPDEST DUP3 CALLVALUE PUSH2 0x225 JUMPI DUP1 PUSH1 0x3 NOT CALLDATASIZE ADD SLT PUSH2 0x225 JUMPI PUSH1 0x20 SWAP1 PUSH2 0x5F4 PUSH2 0x5EA PUSH2 0x1405 JUMP JUMPDEST PUSH1 0x24 CALLDATALOAD SWAP1 CALLER PUSH2 0x1700 JUMP JUMPDEST MLOAD PUSH1 0x1 DUP2 MSTORE RETURN JUMPDEST POP CALLVALUE PUSH2 0x225 JUMPI DUP2 PUSH1 0x3 NOT CALLDATASIZE ADD SLT PUSH2 0x225 JUMPI PUSH2 0x614 PUSH2 0x1405 JUMP JUMPDEST SWAP1 PUSH1 0x24 CALLDATALOAD SWAP1 CALLER PUSH0 MSTORE PUSH1 0x1 PUSH1 0x20 MSTORE DUP4 PUSH0 KECCAK256 PUSH1 0x1 DUP1 PUSH1 0xA0 SHL SUB DUP5 AND PUSH0 MSTORE PUSH1 0x20 MSTORE DUP4 PUSH0 KECCAK256 SLOAD SWAP1 DUP3 DUP3 LT PUSH2 0x64E JUMPI PUSH1 0x20 DUP6 PUSH2 0x5F4 DUP6 DUP6 SUB DUP8 CALLER PUSH2 0x1602 JUMP JUMPDEST PUSH1 0x84 SWAP1 PUSH1 0x20 DUP7 MLOAD SWAP2 PUSH3 0x461BCD PUSH1 0xE5 SHL DUP4 MSTORE DUP3 ADD MSTORE PUSH1 0x25 PUSH1 0x24 DUP3 ADD MSTORE PUSH32 0x45524332303A2064656372656173656420616C6C6F77616E63652062656C6F77 PUSH1 0x44 DUP3 ADD MSTORE PUSH5 0x207A65726F PUSH1 0xD8 SHL PUSH1 0x64 DUP3 ADD MSTORE REVERT JUMPDEST POP SWAP1 CALLVALUE PUSH2 0x225 JUMPI PUSH1 0x20 CALLDATASIZE PUSH1 0x3 NOT ADD SLT PUSH2 0x225 JUMPI DUP2 CALLDATALOAD PUSH2 0x6BC PUSH2 0x15AA JUMP JUMPDEST DUP1 ISZERO PUSH2 0x6F7 JUMPI PUSH32 0x1E1223C1F6274C6D64FDB08C485E192BD2896C9ABF70E840E199AC1F54D6D1D5 SWAP3 POP DUP1 PUSH1 0x8 SSTORE DUP2 MLOAD SWAP1 DUP2 MSTORE TIMESTAMP PUSH1 0x20 DUP3 ADD MSTORE LOG1 STOP JUMPDEST DUP2 MLOAD PUSH3 0x461BCD PUSH1 0xE5 SHL DUP2 MSTORE PUSH1 0x20 DUP2 DUP6 ADD MSTORE PUSH1 0xB PUSH1 0x24 DUP3 ADD MSTORE PUSH11 0x24B73B30B634B2102720AB PUSH1 0xA9 SHL PUSH1 0x44 DUP3 ADD MSTORE PUSH1 0x64 SWAP1 REVERT JUMPDEST DUP3 CALLVALUE PUSH2 0x225 JUMPI PUSH1 0x20 CALLDATASIZE PUSH1 0x3 NOT ADD SLT PUSH2 0x225 JUMPI PUSH1 0x20 SWAP1 PUSH1 0x1 PUSH1 0x1 PUSH1 0xA0 SHL SUB PUSH2 0x74D PUSH2 0x1405 JUMP JUMPDEST AND PUSH0 MSTORE PUSH1 0xE DUP3 MSTORE PUSH1 0xFF DUP2 PUSH0 KECCAK256 SLOAD AND SWAP1 DUP2 PUSH2 0x76A JUMPI JUMPDEST MLOAD SWAP1 ISZERO ISZERO DUP2 MSTORE RETURN JUMPDEST SWAP1 POP PUSH1 0xF DUP3 MSTORE PUSH1 0x2 PUSH1 0xFF DUP3 PUSH0 KECCAK256 SLOAD AND LT ISZERO SWAP1 PUSH2 0x762 JUMP JUMPDEST POP SWAP1 CALLVALUE PUSH2 0x225 JUMPI PUSH0 CALLDATASIZE PUSH1 0x3 NOT ADD SLT PUSH2 0x225 JUMPI DUP1 MLOAD SWAP1 PUSH0 DUP4 SLOAD PUSH2 0x7A2 DUP2 PUSH2 0x1431 JUMP JUMPDEST DUP1 DUP6 MSTORE SWAP1 PUSH1 0x20 SWAP1 PUSH1 0x1 SWAP1 DUP2 DUP2 AND SWAP1 DUP2 ISZERO PUSH2 0x85D JUMPI POP PUSH1 0x1 EQ PUSH2 0x808 JUMPI JUMPDEST POP POP POP DUP3 SWAP1 SUB PUSH1 0x1F ADD PUSH1 0x1F NOT AND DUP3 ADD SWAP3 PUSH8 0xFFFFFFFFFFFFFFFF DUP5 GT DUP4 DUP6 LT OR PUSH2 0x7F5 JUMPI POP DUP3 SWAP2 DUP3 PUSH2 0x7F1 SWAP3 MSTORE DUP3 PUSH2 0x13BE JUMP JUMPDEST SUB SWAP1 RETURN JUMPDEST PUSH1 0x41 SWAP1 PUSH4 0x4E487B71 PUSH1 0xE0 SHL PUSH0 MSTORE MSTORE PUSH1 0x24 PUSH0 REVERT JUMPDEST PUSH0 DUP8 DUP2 MSTORE SWAP3 SWAP4 POP PUSH32 0x8A35ACFBC15FF81A39AE7D344FD709F28E8600B4AA8C65C6B64BFE7FE36BD19B JUMPDEST DUP5 DUP5 LT PUSH2 0x84A JUMPI POP POP POP PUSH1 0x20 SWAP2 POP DUP4 ADD ADD PUSH0 DUP1 DUP1 PUSH2 0x7BF JUMP JUMPDEST DUP1 SLOAD DUP8 DUP6 ADD DUP5 ADD MSTORE SWAP3 DUP3 ADD SWAP3 DUP2 ADD PUSH2 0x831 JUMP JUMPDEST SWAP3 POP POP POP PUSH1 0x20 SWAP3 POP PUSH1 0xFF NOT AND DUP3 DUP6 ADD MSTORE ISZERO ISZERO PUSH1 0x5 SHL DUP4 ADD ADD PUSH0 DUP1 DUP1 PUSH2 0x7BF JUMP JUMPDEST DUP3 CALLVALUE PUSH2 0x225 JUMPI PUSH0 CALLDATASIZE PUSH1 0x3 NOT ADD SLT PUSH2 0x225 JUMPI PUSH1 0x5 SLOAD SWAP1 MLOAD PUSH1 0x1 PUSH1 0x1 PUSH1 0xA0 SHL SUB SWAP1 SWAP2 AND DUP2 MSTORE PUSH1 0x20 SWAP1 RETURN JUMPDEST POP SWAP1 CALLVALUE PUSH2 0x225 JUMPI PUSH1 0x20 CALLDATASIZE PUSH1 0x3 NOT ADD SLT PUSH2 0x225 JUMPI PUSH32 0x181F92F68826A8D2B5B97D27F9E18D05A337290356FABF5B717154077DBEA933 SWAP2 CALLDATALOAD PUSH2 0x8E3 PUSH2 0x15AA JUMP JUMPDEST DUP1 PUSH1 0xC SSTORE TIMESTAMP PUSH1 0xA SSTORE DUP2 MLOAD SWAP1 DUP2 MSTORE TIMESTAMP PUSH1 0x20 DUP3 ADD MSTORE LOG1 STOP JUMPDEST CALLVALUE PUSH2 0x225 JUMPI PUSH0 CALLDATASIZE PUSH1 0x3 NOT ADD SLT PUSH2 0x225 JUMPI PUSH2 0x911 PUSH2 0x15AA JUMP JUMPDEST PUSH1 0x5 DUP1 SLOAD PUSH1 0x1 PUSH1 0x1 PUSH1 0xA0 SHL SUB NOT DUP2 AND SWAP1 SWAP2 SSTORE PUSH0 SWAP1 PUSH1 0x1 PUSH1 0x1 PUSH1 0xA0 SHL SUB AND PUSH32 0x8BE0079C531659141344CD1FD0A4F28419497F9722A3DAAFE3B4186F6B6457E0 DUP3 DUP1 LOG3 STOP JUMPDEST DUP3 CALLVALUE PUSH2 0x225 JUMPI PUSH1 0x20 CALLDATASIZE PUSH1 0x3 NOT ADD SLT PUSH2 0x225 JUMPI PUSH1 0x20 SWAP1 PUSH1 0x1 PUSH1 0x1 PUSH1 0xA0 SHL SUB PUSH2 0x979 PUSH2 0x1405 JUMP JUMPDEST AND PUSH0 MSTORE PUSH0 DUP3 MSTORE DUP1 PUSH0 KECCAK256 SLOAD SWAP1 MLOAD SWAP1 DUP2 MSTORE RETURN JUMPDEST POP CALLVALUE PUSH2 0x225 JUMPI PUSH1 0x20 DUP1 PUSH1 0x3 NOT CALLDATASIZE ADD SLT PUSH2 0x225 JUMPI PUSH8 0xFFFFFFFFFFFFFFFF SWAP1 DUP3 CALLDATALOAD DUP3 DUP2 GT PUSH2 0x225 JUMPI PUSH2 0x9BD SWAP1 CALLDATASIZE SWAP1 DUP6 ADD PUSH2 0x1469 JUMP JUMPDEST SWAP4 SWAP1 SWAP3 PUSH2 0x9C8 PUSH2 0x15AA JUMP JUMPDEST DUP5 GT PUSH2 0x7F5 JUMPI POP PUSH2 0x9DA PUSH1 0xD SLOAD PUSH2 0x1431 JUMP JUMPDEST PUSH1 0x1F DUP2 GT PUSH2 0xB04 JUMPI JUMPDEST POP PUSH0 SWAP1 PUSH1 0x1F DUP5 GT PUSH1 0x1 EQ PUSH2 0xA5B JUMPI POP PUSH32 0x9FB0A9F79F07CF16C95B92623175F408D609663D7868AE62581439D923470BD SWAP4 SWAP2 DUP4 PUSH2 0xA45 SWAP3 PUSH0 SWAP2 PUSH2 0xA50 JUMPI JUMPDEST POP DUP5 PUSH1 0x1 SHL SWAP1 PUSH0 NOT DUP7 PUSH1 0x3 SHL SHR NOT AND OR PUSH1 0xD SSTORE JUMPDEST DUP3 MLOAD SWAP4 DUP4 DUP6 SWAP5 DUP6 MSTORE DUP5 ADD SWAP2 PUSH2 0x1542 JUMP JUMPDEST TIMESTAMP PUSH1 0x20 DUP4 ADD MSTORE SUB SWAP1 LOG1 STOP JUMPDEST SWAP1 POP DUP2 ADD CALLDATALOAD PUSH0 PUSH2 0xA21 JUMP JUMPDEST SWAP1 PUSH1 0x1F NOT DUP5 AND PUSH1 0xD PUSH0 MSTORE PUSH32 0xD7B6990105719101DABEB77144F2A3385C8033ACD3AF97E9423A695E81AD1EB5 SWAP3 PUSH0 SWAP1 JUMPDEST DUP3 DUP3 LT PUSH2 0xAEC JUMPI POP POP SWAP2 PUSH32 0x9FB0A9F79F07CF16C95B92623175F408D609663D7868AE62581439D923470BD SWAP6 SWAP4 SWAP2 DUP6 PUSH2 0xA45 SWAP5 LT PUSH2 0xAD3 JUMPI JUMPDEST POP POP PUSH1 0x1 DUP5 DUP2 SHL ADD PUSH1 0xD SSTORE PUSH2 0xA35 JUMP JUMPDEST DUP3 ADD CALLDATALOAD PUSH0 NOT PUSH1 0x3 DUP8 SWAP1 SHL PUSH1 0xF8 AND SHR NOT AND SWAP1 SSTORE PUSH0 DUP1 PUSH2 0xAC3 JUMP JUMPDEST DUP1 PUSH1 0x1 DUP6 SWAP7 DUP3 SWAP5 SWAP7 DUP10 ADD CALLDATALOAD DUP2 SSTORE ADD SWAP6 ADD SWAP4 ADD SWAP1 PUSH2 0xA8A JUMP JUMPDEST PUSH1 0xD PUSH0 MSTORE PUSH32 0xD7B6990105719101DABEB77144F2A3385C8033ACD3AF97E9423A695E81AD1EB5 PUSH1 0x1F DUP6 ADD PUSH1 0x5 SHR DUP2 ADD SWAP2 PUSH1 0x20 DUP7 LT PUSH2 0xB5D JUMPI JUMPDEST PUSH1 0x1F ADD PUSH1 0x5 SHR ADD SWAP1 JUMPDEST DUP2 DUP2 LT PUSH2 0xB52 JUMPI POP PUSH2 0x9E3 JUMP JUMPDEST PUSH0 DUP2 SSTORE PUSH1 0x1 ADD PUSH2 0xB45 JUMP JUMPDEST SWAP1 SWAP2 POP DUP2 SWAP1 PUSH2 0xB3C JUMP JUMPDEST DUP3 CALLVALUE PUSH2 0x225 JUMPI PUSH1 0x20 CALLDATASIZE PUSH1 0x3 NOT ADD SLT PUSH2 0x225 JUMPI PUSH1 0x20 SWAP1 PUSH1 0x1 PUSH1 0x1 PUSH1 0xA0 SHL SUB PUSH2 0xB8C PUSH2 0x1405 JUMP JUMPDEST AND PUSH0 MSTORE PUSH1 0xE DUP3 MSTORE PUSH1 0xFF DUP2 PUSH0 KECCAK256 SLOAD AND SWAP1 MLOAD SWAP1 ISZERO ISZERO DUP2 MSTORE RETURN JUMPDEST DUP3 CALLVALUE PUSH2 0x225 JUMPI PUSH0 CALLDATASIZE PUSH1 0x3 NOT ADD SLT PUSH2 0x225 JUMPI PUSH1 0x20 SWAP1 PUSH1 0xA SLOAD SWAP1 MLOAD SWAP1 DUP2 MSTORE RETURN JUMPDEST POP SWAP1 CALLVALUE PUSH2 0x225 JUMPI PUSH1 0x20 CALLDATASIZE PUSH1 0x3 NOT ADD SLT PUSH2 0x225 JUMPI PUSH1 0x20 SWAP2 CALLDATALOAD PUSH0 MSTORE PUSH1 0x10 DUP3 MSTORE PUSH1 0xFF DUP2 PUSH0 KECCAK256 SLOAD AND SWAP1 MLOAD SWAP1 ISZERO ISZERO DUP2 MSTORE RETURN JUMPDEST DUP3 CALLVALUE PUSH2 0x225 JUMPI PUSH0 CALLDATASIZE PUSH1 0x3 NOT ADD SLT PUSH2 0x225 JUMPI PUSH1 0x20 SWAP1 PUSH1 0x9 SLOAD SWAP1 MLOAD SWAP1 DUP2 MSTORE RETURN JUMPDEST DUP3 CALLVALUE PUSH2 0x225 JUMPI DUP1 PUSH1 0x3 NOT CALLDATASIZE ADD SLT PUSH2 0x225 JUMPI PUSH1 0x20 SWAP1 PUSH2 0x5F4 PUSH2 0xC2B PUSH2 0x1405 JUMP JUMPDEST CALLER PUSH0 MSTORE PUSH1 0x1 DUP5 MSTORE DUP3 PUSH0 KECCAK256 PUSH1 0x1 DUP1 PUSH1 0xA0 SHL SUB DUP3 AND PUSH0 MSTORE DUP5 MSTORE PUSH2 0xC51 PUSH1 0x24 CALLDATALOAD DUP5 PUSH0 KECCAK256 SLOAD PUSH2 0x1562 JUMP JUMPDEST SWAP1 CALLER PUSH2 0x1602 JUMP JUMPDEST DUP3 CALLVALUE PUSH2 0x225 JUMPI PUSH0 CALLDATASIZE PUSH1 0x3 NOT ADD SLT PUSH2 0x225 JUMPI PUSH1 0x20 SWAP1 MLOAD PUSH1 0x12 DUP2 MSTORE RETURN JUMPDEST POP SWAP1 CALLVALUE PUSH2 0x225 JUMPI PUSH0 CALLDATASIZE PUSH1 0x3 NOT ADD SLT PUSH2 0x225 JUMPI DUP1 MLOAD SWAP1 PUSH0 PUSH1 0x6 SLOAD PUSH2 0xC95 DUP2 PUSH2 0x1431 JUMP JUMPDEST DUP1 DUP6 MSTORE SWAP1 PUSH1 0x20 SWAP1 PUSH1 0x1 SWAP1 DUP2 DUP2 AND SWAP1 DUP2 ISZERO PUSH2 0x85D JUMPI POP PUSH1 0x1 EQ PUSH2 0xCE3 JUMPI POP POP POP DUP3 SWAP1 SUB PUSH1 0x1F ADD PUSH1 0x1F NOT AND DUP3 ADD SWAP3 PUSH8 0xFFFFFFFFFFFFFFFF DUP5 GT DUP4 DUP6 LT OR PUSH2 0x7F5 JUMPI POP DUP3 SWAP2 DUP3 PUSH2 0x7F1 SWAP3 MSTORE DUP3 PUSH2 0x13BE JUMP JUMPDEST PUSH1 0x6 PUSH0 SWAP1 DUP2 MSTORE SWAP3 SWAP4 POP PUSH32 0xF652222313E28459528D920B65115C16C04F3EFC82AAEDC97BE59F3F377C0D3F JUMPDEST DUP5 DUP5 LT PUSH2 0xD27 JUMPI POP POP POP PUSH1 0x20 SWAP2 POP DUP4 ADD ADD PUSH0 DUP1 DUP1 PUSH2 0x7BF JUMP JUMPDEST DUP1 SLOAD DUP8 DUP6 ADD DUP5 ADD MSTORE SWAP3 DUP3 ADD SWAP3 DUP2 ADD PUSH2 0xD0E JUMP JUMPDEST DUP3 CALLVALUE PUSH2 0x225 JUMPI PUSH0 CALLDATASIZE PUSH1 0x3 NOT ADD SLT PUSH2 0x225 JUMPI PUSH1 0x20 SWAP1 PUSH1 0xC SLOAD SWAP1 MLOAD SWAP1 DUP2 MSTORE RETURN JUMPDEST DUP3 CALLVALUE PUSH2 0x225 JUMPI PUSH0 CALLDATASIZE PUSH1 0x3 NOT ADD SLT PUSH2 0x225 JUMPI PUSH1 0x20 SWAP1 MLOAD PUSH2 0x2710 DUP2 MSTORE RETURN JUMPDEST POP CALLVALUE PUSH2 0x225 JUMPI PUSH1 0x60 CALLDATASIZE PUSH1 0x3 NOT ADD SLT PUSH2 0x225 JUMPI PUSH2 0xD8E PUSH2 0x1405 JUMP JUMPDEST PUSH2 0xD96 PUSH2 0x141B JUMP JUMPDEST SWAP1 PUSH1 0x44 CALLDATALOAD SWAP3 PUSH1 0x1 DUP1 PUSH1 0xA0 SHL SUB DUP3 AND PUSH0 MSTORE PUSH1 0x1 PUSH1 0x20 MSTORE DUP5 PUSH0 KECCAK256 CALLER PUSH0 MSTORE PUSH1 0x20 MSTORE DUP5 PUSH0 KECCAK256 SLOAD SWAP1 PUSH0 NOT DUP3 SUB PUSH2 0xDD0 JUMPI JUMPDEST PUSH1 0x20 DUP7 PUSH2 0x5F4 DUP8 DUP8 DUP8 PUSH2 0x1700 JUMP JUMPDEST DUP5 DUP3 LT PUSH2 0xDF9 JUMPI POP SWAP2 DUP4 SWAP2 PUSH2 0xDEE PUSH1 0x20 SWAP7 SWAP6 PUSH2 0x5F4 SWAP6 SUB CALLER DUP4 PUSH2 0x1602 JUMP JUMPDEST SWAP2 SWAP4 SWAP5 DUP2 SWAP4 POP PUSH2 0xDC2 JUMP JUMPDEST PUSH1 0x64 SWAP1 PUSH1 0x20 DUP8 MLOAD SWAP2 PUSH3 0x461BCD PUSH1 0xE5 SHL DUP4 MSTORE DUP3 ADD MSTORE PUSH1 0x1D PUSH1 0x24 DUP3 ADD MSTORE PUSH32 0x45524332303A20696E73756666696369656E7420616C6C6F77616E6365000000 PUSH1 0x44 DUP3 ADD MSTORE REVERT JUMPDEST DUP3 CALLVALUE PUSH2 0x225 JUMPI PUSH0 CALLDATASIZE PUSH1 0x3 NOT ADD SLT PUSH2 0x225 JUMPI PUSH1 0x20 SWAP1 PUSH1 0x8 SLOAD SWAP1 MLOAD SWAP1 DUP2 MSTORE RETURN JUMPDEST DUP3 CALLVALUE PUSH2 0x225 JUMPI PUSH0 CALLDATASIZE PUSH1 0x3 NOT ADD SLT PUSH2 0x225 JUMPI PUSH1 0x20 SWAP1 PUSH1 0x2 SLOAD SWAP1 MLOAD SWAP1 DUP2 MSTORE RETURN JUMPDEST POP CALLVALUE PUSH2 0x225 JUMPI PUSH1 0x60 CALLDATASIZE PUSH1 0x3 NOT ADD SLT PUSH2 0x225 JUMPI DUP1 CALLDATALOAD SWAP2 PUSH2 0xE95 PUSH2 0x13AF JUMP JUMPDEST PUSH1 0x44 CALLDATALOAD SWAP3 PUSH8 0xFFFFFFFFFFFFFFFF DUP5 GT PUSH2 0x225 JUMPI PUSH2 0xED9 PUSH2 0xF18 SWAP2 PUSH32 0x5CD61427930AB89A7FFDD8646DD284F02D4EC213A21D6DCAAB300350E8006611 SWAP6 CALLDATASIZE SWAP2 ADD PUSH2 0x1469 JUMP JUMPDEST PUSH2 0xEE1 PUSH2 0x15AA JUMP JUMPDEST DUP7 PUSH0 MSTORE PUSH1 0x10 PUSH1 0x20 MSTORE PUSH2 0xF01 DUP5 DUP7 PUSH0 KECCAK256 SWAP1 PUSH1 0xFF DUP1 NOT DUP4 SLOAD AND SWAP2 ISZERO ISZERO AND OR SWAP1 SSTORE JUMP JUMPDEST DUP5 MLOAD SWAP5 DUP6 SWAP5 ISZERO ISZERO DUP6 MSTORE DUP1 PUSH1 0x20 DUP7 ADD MSTORE DUP5 ADD SWAP2 PUSH2 0x1542 JUMP JUMPDEST SUB SWAP1 LOG2 STOP JUMPDEST POP SWAP1 CALLVALUE PUSH2 0x225 JUMPI PUSH0 CALLDATASIZE PUSH1 0x3 NOT ADD SLT PUSH2 0x225 JUMPI DUP1 MLOAD SWAP1 PUSH0 PUSH1 0xD SLOAD PUSH2 0xF3F DUP2 PUSH2 0x1431 JUMP JUMPDEST DUP1 DUP6 MSTORE SWAP1 PUSH1 0x20 SWAP1 PUSH1 0x1 SWAP1 DUP2 DUP2 AND SWAP1 DUP2 ISZERO PUSH2 0x85D JUMPI POP PUSH1 0x1 EQ PUSH2 0xF8D JUMPI POP POP POP DUP3 SWAP1 SUB PUSH1 0x1F ADD PUSH1 0x1F NOT AND DUP3 ADD SWAP3 PUSH8 0xFFFFFFFFFFFFFFFF DUP5 GT DUP4 DUP6 LT OR PUSH2 0x7F5 JUMPI POP DUP3 SWAP2 DUP3 PUSH2 0x7F1 SWAP3 MSTORE DUP3 PUSH2 0x13BE JUMP JUMPDEST PUSH1 0xD PUSH0 SWAP1 DUP2 MSTORE SWAP3 SWAP4 POP PUSH32 0xD7B6990105719101DABEB77144F2A3385C8033ACD3AF97E9423A695E81AD1EB5 JUMPDEST DUP5 DUP5 LT PUSH2 0xFD1 JUMPI POP POP POP PUSH1 0x20 SWAP2 POP DUP4 ADD ADD PUSH0 DUP1 DUP1 PUSH2 0x7BF JUMP JUMPDEST DUP1 SLOAD DUP8 DUP6 ADD DUP5 ADD MSTORE SWAP3 DUP3 ADD SWAP3 DUP2 ADD PUSH2 0xFB8 JUMP JUMPDEST POP SWAP1 CALLVALUE PUSH2 0x225 JUMPI PUSH0 CALLDATASIZE PUSH1 0x3 NOT ADD SLT PUSH2 0x225 JUMPI DUP1 MLOAD SWAP1 PUSH0 PUSH1 0x7 SLOAD PUSH2 0x1006 DUP2 PUSH2 0x1431 JUMP JUMPDEST DUP1 DUP6 MSTORE SWAP1 PUSH1 0x20 SWAP1 PUSH1 0x1 SWAP1 DUP2 DUP2 AND SWAP1 DUP2 ISZERO PUSH2 0x85D JUMPI POP PUSH1 0x1 EQ PUSH2 0x1054 JUMPI POP POP POP DUP3 SWAP1 SUB PUSH1 0x1F ADD PUSH1 0x1F NOT AND DUP3 ADD SWAP3 PUSH8 0xFFFFFFFFFFFFFFFF DUP5 GT DUP4 DUP6 LT OR PUSH2 0x7F5 JUMPI POP DUP3 SWAP2 DUP3 PUSH2 0x7F1 SWAP3 MSTORE DUP3 PUSH2 0x13BE JUMP JUMPDEST PUSH1 0x7 PUSH0 SWAP1 DUP2 MSTORE SWAP3 SWAP4 POP PUSH32 0xA66CC928B5EDB82AF9BD49922954155AB7B0942694BEA4CE44661D9A8736C688 JUMPDEST DUP5 DUP5 LT PUSH2 0x1098 JUMPI POP POP POP PUSH1 0x20 SWAP2 POP DUP4 ADD ADD PUSH0 DUP1 DUP1 PUSH2 0x7BF JUMP JUMPDEST DUP1 SLOAD DUP8 DUP6 ADD DUP5 ADD MSTORE SWAP3 DUP3 ADD SWAP3 DUP2 ADD PUSH2 0x107F JUMP JUMPDEST POP CALLVALUE PUSH2 0x225 JUMPI PUSH1 0x20 SWAP2 DUP3 PUSH1 0x3 NOT CALLDATASIZE ADD SLT PUSH2 0x225 JUMPI DUP2 CALLDATALOAD PUSH1 0xFF PUSH1 0xB SLOAD AND PUSH2 0x1230 JUMPI CALLER PUSH0 MSTORE PUSH1 0xE DUP5 MSTORE PUSH1 0xFF DUP3 PUSH0 KECCAK256 SLOAD AND ISZERO PUSH2 0x11F6 JUMPI PUSH1 0x9 SLOAD DUP2 LT PUSH2 0x11C4 JUMPI PUSH2 0x10F0 DUP2 PUSH2 0x1497 JUMP JUMPDEST SWAP3 PUSH2 0x10FC DUP5 ISZERO ISZERO PUSH2 0x1508 JUMP JUMPDEST CALLER ISZERO PUSH2 0x1181 JUMPI POP PUSH2 0x110F DUP4 PUSH1 0x2 SLOAD PUSH2 0x1562 JUMP JUMPDEST PUSH1 0x2 SSTORE CALLER PUSH0 MSTORE PUSH0 DUP5 MSTORE DUP2 PUSH0 KECCAK256 DUP4 DUP2 SLOAD ADD SWAP1 SSTORE DUP2 MLOAD DUP4 DUP2 MSTORE PUSH0 PUSH32 0xDDF252AD1BE2C89B69C2B068FC378DAA952BA7F163C4A11628F55A4DF523B3EF DUP7 CALLER SWAP4 LOG3 DUP2 MLOAD SWAP1 DUP2 MSTORE DUP3 DUP5 DUP3 ADD MSTORE PUSH32 0xF94991DCBEA6E8AC439CBC93BD9C62A4D39F04E0AD656DF9A703F13552C2787F DUP3 CALLER SWAP3 LOG2 MLOAD SWAP1 DUP2 MSTORE RETURN JUMPDEST DUP3 MLOAD PUSH3 0x461BCD PUSH1 0xE5 SHL DUP2 MSTORE SWAP1 DUP2 ADD DUP6 SWAP1 MSTORE PUSH1 0x1F PUSH1 0x24 DUP3 ADD MSTORE PUSH32 0x45524332303A206D696E7420746F20746865207A65726F206164647265737300 PUSH1 0x44 DUP3 ADD MSTORE PUSH1 0x64 SWAP1 REVERT JUMPDEST POP SWAP2 PUSH1 0x64 SWAP3 MLOAD SWAP2 PUSH3 0x461BCD PUSH1 0xE5 SHL DUP4 MSTORE DUP3 ADD MSTORE PUSH1 0xD PUSH1 0x24 DUP3 ADD MSTORE PUSH13 0x42656C6F77206D696E696D756D PUSH1 0x98 SHL PUSH1 0x44 DUP3 ADD MSTORE REVERT JUMPDEST POP SWAP2 PUSH1 0x64 SWAP3 MLOAD SWAP2 PUSH3 0x461BCD PUSH1 0xE5 SHL DUP4 MSTORE DUP3 ADD MSTORE PUSH1 0x15 PUSH1 0x24 DUP3 ADD MSTORE PUSH21 0x496E766573746F72206E6F7420656C696769626C65 PUSH1 0x58 SHL PUSH1 0x44 DUP3 ADD MSTORE REVERT JUMPDEST POP SWAP2 PUSH1 0x64 SWAP3 MLOAD SWAP2 PUSH3 0x461BCD PUSH1 0xE5 SHL DUP4 MSTORE DUP3 ADD MSTORE PUSH1 0x14 PUSH1 0x24 DUP3 ADD MSTORE PUSH20 0x14DD589CD8DC9A5C1D1A5BDB9CC81C185D5CD959 PUSH1 0x62 SHL PUSH1 0x44 DUP3 ADD MSTORE REVERT JUMPDEST DUP3 CALLVALUE PUSH2 0x225 JUMPI DUP1 PUSH1 0x3 NOT CALLDATASIZE ADD SLT PUSH2 0x225 JUMPI PUSH1 0x20 SWAP1 PUSH2 0x5F4 PUSH2 0x1288 PUSH2 0x1405 JUMP JUMPDEST PUSH1 0x24 CALLDATALOAD SWAP1 CALLER PUSH2 0x1602 JUMP JUMPDEST POP SWAP1 CALLVALUE PUSH2 0x225 JUMPI PUSH0 CALLDATASIZE PUSH1 0x3 NOT ADD SLT PUSH2 0x225 JUMPI DUP1 MLOAD SWAP1 PUSH0 PUSH1 0x3 SLOAD PUSH2 0x12B4 DUP2 PUSH2 0x1431 JUMP JUMPDEST DUP1 DUP6 MSTORE SWAP1 PUSH1 0x20 SWAP1 PUSH1 0x1 SWAP1 DUP2 DUP2 AND SWAP1 DUP2 ISZERO PUSH2 0x85D JUMPI POP PUSH1 0x1 EQ PUSH2 0x1302 JUMPI POP POP POP DUP3 SWAP1 SUB PUSH1 0x1F ADD PUSH1 0x1F NOT AND DUP3 ADD SWAP3 PUSH8 0xFFFFFFFFFFFFFFFF DUP5 GT DUP4 DUP6 LT OR PUSH2 0x7F5 JUMPI POP DUP3 SWAP2 DUP3 PUSH2 0x7F1 SWAP3 MSTORE DUP3 PUSH2 0x13BE JUMP JUMPDEST PUSH1 0x3 PUSH0 SWAP1 DUP2 MSTORE SWAP3 SWAP4 POP PUSH32 0xC2575A0E9E593C00F959F8C92F12DB2869C3395A3B0502D05E2516446F71F85B JUMPDEST DUP5 DUP5 LT PUSH2 0x1346 JUMPI POP POP POP PUSH1 0x20 SWAP2 POP DUP4 ADD ADD PUSH0 DUP1 DUP1 PUSH2 0x7BF JUMP JUMPDEST DUP1 SLOAD DUP8 DUP6 ADD DUP5 ADD MSTORE SWAP3 DUP3 ADD SWAP3 DUP2 ADD PUSH2 0x132D JUMP JUMPDEST POP SWAP1 CALLVALUE PUSH2 0x225 JUMPI PUSH1 0x20 CALLDATASIZE PUSH1 0x3 NOT ADD SLT PUSH2 0x225 JUMPI PUSH2 0x4CA PUSH1 0x20 SWAP3 CALLDATALOAD PUSH2 0x1497 JUMP JUMPDEST POP CALLVALUE PUSH2 0x225 JUMPI PUSH1 0x20 CALLDATASIZE PUSH1 0x3 NOT ADD SLT PUSH2 0x225 JUMPI CALLDATALOAD DUP1 ISZERO ISZERO DUP1 SWAP2 SUB PUSH2 0x225 JUMPI PUSH2 0x139D PUSH2 0x15AA JUMP JUMPDEST PUSH1 0xFF DUP1 NOT PUSH1 0xB SLOAD AND SWAP2 AND OR PUSH1 0xB SSTORE PUSH0 DUP1 RETURN JUMPDEST PUSH1 0x24 CALLDATALOAD SWAP1 DUP2 ISZERO ISZERO DUP3 SUB PUSH2 0x225 JUMPI JUMP JUMPDEST PUSH1 0x20 DUP1 DUP3 MSTORE DUP3 MLOAD DUP2 DUP4 ADD DUP2 SWAP1 MSTORE SWAP1 SWAP4 SWAP3 PUSH0 JUMPDEST DUP3 DUP2 LT PUSH2 0x13F1 JUMPI POP POP PUSH1 0x40 SWAP3 SWAP4 POP PUSH0 DUP4 DUP3 DUP5 ADD ADD MSTORE PUSH1 0x1F DUP1 NOT SWAP2 ADD AND ADD ADD SWAP1 JUMP JUMPDEST DUP2 DUP2 ADD DUP7 ADD MLOAD DUP5 DUP3 ADD PUSH1 0x40 ADD MSTORE DUP6 ADD PUSH2 0x13D0 JUMP JUMPDEST PUSH1 0x4 CALLDATALOAD SWAP1 PUSH1 0x1 PUSH1 0x1 PUSH1 0xA0 SHL SUB DUP3 AND DUP3 SUB PUSH2 0x225 JUMPI JUMP JUMPDEST PUSH1 0x24 CALLDATALOAD SWAP1 PUSH1 0x1 PUSH1 0x1 PUSH1 0xA0 SHL SUB DUP3 AND DUP3 SUB PUSH2 0x225 JUMPI JUMP JUMPDEST SWAP1 PUSH1 0x1 DUP3 DUP2 SHR SWAP3 AND DUP1 ISZERO PUSH2 0x145F JUMPI JUMPDEST PUSH1 0x20 DUP4 LT EQ PUSH2 0x144B JUMPI JUMP JUMPDEST PUSH4 0x4E487B71 PUSH1 0xE0 SHL PUSH0 MSTORE PUSH1 0x22 PUSH1 0x4 MSTORE PUSH1 0x24 PUSH0 REVERT JUMPDEST SWAP2 PUSH1 0x7F AND SWAP2 PUSH2 0x1440 JUMP JUMPDEST SWAP2 DUP2 PUSH1 0x1F DUP5 ADD SLT ISZERO PUSH2 0x225 JUMPI DUP3 CALLDATALOAD SWAP2 PUSH8 0xFFFFFFFFFFFFFFFF DUP4 GT PUSH2 0x225 JUMPI PUSH1 0x20 DUP4 DUP2 DUP7 ADD SWAP6 ADD ADD GT PUSH2 0x225 JUMPI JUMP JUMPDEST PUSH8 0xDE0B6B3A7640000 SWAP1 DUP2 DUP2 MUL SWAP2 DUP2 DUP4 DIV EQ DUP2 ISZERO OR ISZERO PUSH2 0x14F4 JUMPI PUSH10 0x21E19E0C9BAB2400000 MUL SWAP1 DUP1 DUP3 DIV PUSH2 0x2710 EQ SWAP1 ISZERO OR ISZERO PUSH2 0x14F4 JUMPI PUSH1 0x8 SLOAD DUP1 ISZERO PUSH2 0x14E0 JUMPI PUSH3 0xF4240 SWAP2 DIV DIV SWAP1 JUMP JUMPDEST PUSH4 0x4E487B71 PUSH1 0xE0 SHL PUSH0 MSTORE PUSH1 0x12 PUSH1 0x4 MSTORE PUSH1 0x24 PUSH0 REVERT JUMPDEST PUSH4 0x4E487B71 PUSH1 0xE0 SHL PUSH0 MSTORE PUSH1 0x11 PUSH1 0x4 MSTORE PUSH1 0x24 PUSH0 REVERT JUMPDEST ISZERO PUSH2 0x150F JUMPI JUMP JUMPDEST PUSH1 0x40 MLOAD PUSH3 0x461BCD PUSH1 0xE5 SHL DUP2 MSTORE PUSH1 0x20 PUSH1 0x4 DUP3 ADD MSTORE PUSH1 0xB PUSH1 0x24 DUP3 ADD MSTORE PUSH11 0x5A65726F20736861726573 PUSH1 0xA8 SHL PUSH1 0x44 DUP3 ADD MSTORE PUSH1 0x64 SWAP1 REVERT JUMPDEST SWAP1 DUP1 PUSH1 0x20 SWAP4 SWAP3 DUP2 DUP5 MSTORE DUP5 DUP5 ADD CALLDATACOPY PUSH0 DUP3 DUP3 ADD DUP5 ADD MSTORE PUSH1 0x1F ADD PUSH1 0x1F NOT AND ADD ADD SWAP1 JUMP JUMPDEST SWAP2 SWAP1 DUP3 ADD DUP1 SWAP3 GT PUSH2 0x14F4 JUMPI JUMP JUMPDEST PUSH1 0x8 SLOAD SWAP1 DUP2 DUP2 MUL SWAP2 DUP2 DUP4 DIV EQ SWAP1 ISZERO OR ISZERO PUSH2 0x14F4 JUMPI PUSH3 0xF4240 SWAP1 DUP2 DUP2 MUL SWAP2 DUP2 DUP4 DIV EQ SWAP1 ISZERO OR ISZERO PUSH2 0x14F4 JUMPI PUSH2 0x2710 PUSH8 0xDE0B6B3A7640000 SWAP2 DIV DIV SWAP1 JUMP JUMPDEST PUSH1 0x5 SLOAD PUSH1 0x1 PUSH1 0x1 PUSH1 0xA0 SHL SUB AND CALLER SUB PUSH2 0x15BE JUMPI JUMP JUMPDEST PUSH1 0x64 PUSH1 0x40 MLOAD PUSH3 0x461BCD PUSH1 0xE5 SHL DUP2 MSTORE PUSH1 0x20 PUSH1 0x4 DUP3 ADD MSTORE PUSH1 0x20 PUSH1 0x24 DUP3 ADD MSTORE PUSH32 0x4F776E61626C653A2063616C6C6572206973206E6F7420746865206F776E6572 PUSH1 0x44 DUP3 ADD MSTORE REVERT JUMPDEST PUSH1 0x1 PUSH1 0x1 PUSH1 0xA0 SHL SUB SWAP1 DUP2 AND SWAP2 DUP3 ISZERO PUSH2 0x16AF JUMPI AND SWAP2 DUP3 ISZERO PUSH2 0x165F JUMPI PUSH1 0x20 PUSH32 0x8C5BE1E5EBEC7D5BD14F71427D1E84F3DD0314C0F7B2291E5B200AC8C7C3B925 SWAP2 DUP4 PUSH0 MSTORE PUSH1 0x1 DUP3 MSTORE PUSH1 0x40 PUSH0 KECCAK256 DUP6 PUSH0 MSTORE DUP3 MSTORE DUP1 PUSH1 0x40 PUSH0 KECCAK256 SSTORE PUSH1 0x40 MLOAD SWAP1 DUP2 MSTORE LOG3 JUMP JUMPDEST PUSH1 0x40 MLOAD PUSH3 0x461BCD PUSH1 0xE5 SHL DUP2 MSTORE PUSH1 0x20 PUSH1 0x4 DUP3 ADD MSTORE PUSH1 0x22 PUSH1 0x24 DUP3 ADD MSTORE PUSH32 0x45524332303A20617070726F766520746F20746865207A65726F206164647265 PUSH1 0x44 DUP3 ADD MSTORE PUSH2 0x7373 PUSH1 0xF0 SHL PUSH1 0x64 DUP3 ADD MSTORE PUSH1 0x84 SWAP1 REVERT JUMPDEST PUSH1 0x40 MLOAD PUSH3 0x461BCD PUSH1 0xE5 SHL DUP2 MSTORE PUSH1 0x20 PUSH1 0x4 DUP3 ADD MSTORE PUSH1 0x24 DUP1 DUP3 ADD MSTORE PUSH32 0x45524332303A20617070726F76652066726F6D20746865207A65726F20616464 PUSH1 0x44 DUP3 ADD MSTORE PUSH4 0x72657373 PUSH1 0xE0 SHL PUSH1 0x64 DUP3 ADD MSTORE PUSH1 0x84 SWAP1 REVERT JUMPDEST PUSH1 0x1 PUSH1 0x1 PUSH1 0xA0 SHL SUB SWAP1 DUP2 AND SWAP2 DUP3 ISZERO PUSH2 0x181A JUMPI AND SWAP2 DUP3 ISZERO PUSH2 0x17C9 JUMPI DUP2 PUSH0 MSTORE PUSH0 PUSH1 0x20 MSTORE PUSH1 0x40 PUSH0 KECCAK256 SLOAD DUP2 DUP2 LT PUSH2 0x1775 JUMPI DUP2 PUSH32 0xDDF252AD1BE2C89B69C2B068FC378DAA952BA7F163C4A11628F55A4DF523B3EF SWAP3 PUSH1 0x20 SWAP3 DUP6 PUSH0 MSTORE PUSH0 DUP5 MSTORE SUB PUSH1 0x40 PUSH0 KECCAK256 SSTORE DUP5 PUSH0 MSTORE PUSH1 0x40 PUSH0 KECCAK256 DUP2 DUP2 SLOAD ADD SWAP1 SSTORE PUSH1 0x40 MLOAD SWAP1 DUP2 MSTORE LOG3 JUMP JUMPDEST PUSH1 0x40 MLOAD PUSH3 0x461BCD PUSH1 0xE5 SHL DUP2 MSTORE PUSH1 0x20 PUSH1 0x4 DUP3 ADD MSTORE PUSH1 0x26 PUSH1 0x24 DUP3 ADD MSTORE PUSH32 0x45524332303A207472616E7366657220616D6F756E7420657863656564732062 PUSH1 0x44 DUP3 ADD MSTORE PUSH6 0x616C616E6365 PUSH1 0xD0 SHL PUSH1 0x64 DUP3 ADD MSTORE PUSH1 0x84 SWAP1 REVERT JUMPDEST PUSH1 0x40 MLOAD PUSH3 0x461BCD PUSH1 0xE5 SHL DUP2 MSTORE PUSH1 0x20 PUSH1 0x4 DUP3 ADD MSTORE PUSH1 0x23 PUSH1 0x24 DUP3 ADD MSTORE PUSH32 0x45524332303A207472616E7366657220746F20746865207A65726F2061646472 PUSH1 0x44 DUP3 ADD MSTORE PUSH3 0x657373 PUSH1 0xE8 SHL PUSH1 0x64 DUP3 ADD MSTORE PUSH1 0x84 SWAP1 REVERT JUMPDEST PUSH1 0x40 MLOAD PUSH3 0x461BCD PUSH1 0xE5 SHL DUP2 MSTORE PUSH1 0x20 PUSH1 0x4 DUP3 ADD MSTORE PUSH1 0x25 PUSH1 0x24 DUP3 ADD MSTORE PUSH32 0x45524332303A207472616E736665722066726F6D20746865207A65726F206164 PUSH1 0x44 DUP3 ADD MSTORE PUSH5 0x6472657373 PUSH1 0xD8 SHL PUSH1 0x64 DUP3 ADD MSTORE PUSH1 0x84 SWAP1 REVERT INVALID LOG2 PUSH5 0x6970667358 0x22 SLT KECCAK256 0xE5 0xBB MLOAD 0xF PC 0xED COINBASE 0x24 RETURN 0x22 0xE8 0x2C BLOCKHASH LT PUSH13 0xB492184DE11143C573603480D5 SIGNEXTEND DUP1 INVALID 0xE7 PUSH5 0x736F6C6343 STOP ADDMOD XOR STOP CALLER "},"methodIdentifiers":{"ASSET_DECIMALS()":"f4db8984","BPS()":"249d39e9","allowance(address,address)":"dd62ed3e","approve(address,uint256)":"095ea7b3","approvedUnderlyingHash(bytes32)":"4973fd9a","assetSymbol()":"176de7a8","balanceOf(address)":"70a08231","canAccessAdvancedShelf(address)":"99b49e25","decimals()":"313ce567","decreaseAllowance(address,uint256)":"a457c2d7","eligibleInvestor(address)":"4d7c10a7","increaseAllowance(address,uint256)":"39509351","lastAttestedAt()":"4adb4cc8","latestAttestationRoot()":"2e6f6b1f","minSubscription()":"41be5f64","name()":"06fdde03","navBps()":"218900b4","owner()":"8da5cb5b","previewAssets(uint256)":"d28c390a","previewShares(uint256)":"02cea26b","recordUnderlyingReview(bytes32,bool,string)":"179649ad","redeem(uint256)":"db006a75","renounceOwnership()":"715018a6","riskTier(address)":"b84d93d4","setInvestorEligibility(address,bool,uint8)":"b5884e20","setMinSubscription(uint256)":"f68e55c3","setNavBps(uint256)":"9a2aaca1","setStrategyStatus(string)":"55cc0261","setSubscriptionsPaused(bool)":"009b27af","strategyStatus()":"176f1cdd","subscribe(uint256)":"0f574ba7","subscriptionsPaused()":"cf22928d","symbol()":"95d89b41","totalSupply()":"18160ddd","transfer(address,uint256)":"a9059cbb","transferFrom(address,address,uint256)":"23b872dd","transferOwnership(address)":"f2fde38b","updateAttestation(bytes32)":"8d00bbe5","vaultLabel()":"2fb4e0f9"}}}}}