{"project/contracts/MSXCollectibleRenderer.sol":{"MSXCollectibleRenderer":{"abi":[{"inputs":[{"internalType":"address","name":"hubAddress","type":"address"}],"stateMutability":"nonpayable","type":"constructor"},{"inputs":[],"name":"hub","outputs":[{"internalType":"contract IMSXUnifiedDemoHubMetadataSource","name":"","type":"address"}],"stateMutability":"view","type":"function"},{"inputs":[{"internalType":"uint256","name":"tokenId","type":"uint256"}],"name":"uri","outputs":[{"internalType":"string","name":"","type":"string"}],"stateMutability":"view","type":"function"}],"evm":{"bytecode":{"linkReferences":{},"object":"60a0346200018b57601f6200459538819003918201601f19168301916001600160401b038311848410176200018f578084926020946040528339810103126200018b57516001600160a01b038116908190036200018b57801562000158576080526040516143f19081620001a48239608051818181604301528181610ef701528181610fd8015281816110ae01528181611846015281816119a201528181611b1f01528181612183015281816122e90152818161246801528181612e4b0152818161303f0152818161309b015281816131170152818161334701528181613403015281816134bf015281816136ff0152818161378a015281816137e6015281816138bb0152818161397101528181613a1501528181613b1d01528181613bc901528181613c8f01528181613e3301528181613f0f01528181613f8b01528181614005015281816141b90152818161425d01526143030152f35b60405162461bcd60e51b815260206004820152600b60248201526a26b4b9b9b4b73390343ab160a91b6044820152606490fd5b5f80fd5b634e487b7160e01b5f52604160045260245ffdfe6040608081526004361015610012575f80fd5b5f3560e01c80630e89341c146100765763365a86fc14610030575f80fd5b34610072575f36600319011261007257517f00000000000000000000000000000000000000000000000000000000000000006001600160a01b03168152602090f35b5f80fd5b5034610072576020908160031936011261007257600435610096816126ef565b61009f826126ef565b906100a9836126ef565b6100b284612873565b906100bc856129f8565b856100c681612ad9565b936100d082612ed8565b946100da836131f9565b908b8b6100e68661355d565b966100f08761386f565b956100fa88613aaa565b9761010490611ebb565b83517f3c73766720786d6c6e733d22687474703a2f2f7777772e77332e6f72672f3230868201527f30302f737667222076696577426f783d223020302036303020363030223e3c64948101949094527f6566733e3c6c696e6561724772616469656e742069643d2267222078313d223360608501527f36222079313d223232222078323d22353630222079323d22353738223e3c737460808501527f6f702073746f702d636f6c6f723d2223313232323141222f3e3c73746f70206f60a08501527f66667365743d222e3535222073746f702d636f6c6f723d22233131313832372260c08501527f2f3e3c73746f70206f66667365743d2231222073746f702d636f6c6f723d222360e08501527f313233333341222f3e3c2f6c696e6561724772616469656e743e3c2f646566736101008501527f3e3c726563742077696474683d2236303022206865696768743d2236303022206101208501527f72783d223434222066696c6c3d2223304231313143222f3e3c7265637420783d6101408501527f2232382220793d223238222077696474683d2235343422206865696768743d226101608501527f353434222072783d223334222066696c6c3d2275726c2823672922207374726f6101808501526335b29e9160e11b6101a08501528c51939d8e9d919b6101a49590928f90610303908390898401908b01610a51565b7f22207374726f6b652d77696474683d2232222f3e3c636972636c652063783d22910195860152781c99111031bc9e911c991110391e91189c11103334b6361e9160391b6101c486015280516101dd959091610366908390888401908a01610a51565b019384017f222f3e3c7465787420783d223132362220793d22313031222066696c6c3d220090526101fc9381519182878784019201916103a592610a51565b7f2220666f6e742d73697a653d2231382220666f6e742d7765696768743d223830910193840152761811103337b73a16b330b6b4b63c9e9120b934b0b6111f60491b61021c8401528051610233939091610406908390868401908801610a51565b019182017f3c2f746578743e3c7465787420783d2235382220793d22323834222066696c6c90527f3d22234636463846422220666f6e742d73697a653d2234382220666f6e742d77806102538401527f65696768743d223930302220666f6e742d66616d696c793d22417269616c223e918261027385015261029393815191828787840192019161049692610a51565b019283017f3c2f746578743e3c7465787420783d2235382220793d22333434222066696c6c90526102b38301526102d38201526102f392805180938584019201916104e092610a51565b019081017f3c2f746578743e3c7465787420783d2235382220793d22343130222066696c6c90527f3d22234141423843372220666f6e742d73697a653d2232302220666f6e742d66806103138301528c6d30b6b4b63c9e9120b934b0b6111f60911b928361033382015261034199805180938c840192019161056192610a51565b019788017f3c2f746578743e3c7465787420783d2235382220793d22343430222066696c6c905261036188015261038187015261038f95815191828d8984019201916105ac92610a51565b019485017f3c2f746578743e3c7465787420783d2235382220793d22343836222066696c6c90526103af85017f3d22234439453445462220666f6e742d73697a653d2231382220666f6e742d7790527f65696768743d223730302220666f6e742d66616d696c793d22417269616c223e92836103cf8701526103ef95815191828d89840192019161063c92610a51565b019485017f3c2f746578743e3c7465787420783d2235382220793d22353134222066696c6c90527f3d22233846413142362220666f6e742d73697a653d2231372220666f6e742d77908161040f8701528361042f87015261044f95815191828d8984019201916106ab92610a51565b019485017f3c2f746578743e3c7465787420783d2235382220793d22353432222066696c6c905261046f8501528161048f8501526104af93815191828b8784019201916106f792610a51565b7f3c2f746578743e3c7465787420783d2235382220793d22353638222066696c6c9101938401527f3d22233646383039352220666f6e742d73697a653d2231362220666f6e742d776104cf8401526104ef83015266544f4b454e202360c81b61050f8301528051610516929091610775908390858401908b01610a51565b019081016c1e17ba32bc3a1f1e17b9bb339f60991b90520361050381018252610523016107a29082610ad7565b6107ab90610b47565b90825180858101937919185d184e9a5b5859d94bdcdd99cade1b5b0ed8985cd94d8d0b60321b85528051908188603a85019201916107e892610a51565b810103601a81018252603a016107fe9082610ad7565b61080782610e46565b9161081181611518565b9361081b82611cd5565b9061082583611ebb565b9261082f9061202b565b938751968796683d913730b6b2911d1160b91b8b890152805190818c60298b0192019161085b92610a51565b8701701116113232b9b1b934b83a34b7b7111d1160791b6029820152815191828c603a840192019161088c92610a51565b01906a11161134b6b0b3b2911d1160a91b603a830152519182604583016108b292610a51565b01604581017f222c2261747472696275746573223a5b7b2274726169745f74797065223a22539052703ab93330b1b29116113b30b63ab2911d1160791b606582015281519182896076840192019161090992610a51565b01607681017f227d2c7b2274726169745f74797065223a224e6574776f726b222c2276616c759052609681017f65223a225365706f6c6961227d2c7b2274726169745f74797065223a22546f6b90526f32b71024a21116113b30b63ab2911d1160811b60b6820152815191828860c6840192019161098692610a51565b0161227d60f01b60c6820152815191828760c884019201916109a792610a51565b0160c88101615d7d60f01b90520360aa8101825260ca016109c89082610ad7565b6109d190610b47565b9181519081818101947f646174613a6170706c69636174696f6e2f6a736f6e3b6261736536342c00000086528051908184603d8501920191610a1292610a51565b810103601d81018352603d01610a289083610ad7565b825193849282845251809284015281848401610a4392610a51565b601f01601f19168101030190f35b5f5b838110610a625750505f910152565b8181015183820152602001610a53565b602081019081106001600160401b03821117610a8d57604052565b634e487b7160e01b5f52604160045260245ffd5b606081019081106001600160401b03821117610a8d57604052565b604081019081106001600160401b03821117610a8d57604052565b601f909101601f19168101906001600160401b03821190821017610a8d57604052565b6001600160401b038111610a8d57601f01601f191660200190565b90610b1f82610afa565b610b2c6040519182610ad7565b8281528092610b3d601f1991610afa565b0190602036910137565b90815115610ca05760405191610b5c83610aa1565b604083527f4142434445464748494a4b4c4d4e4f505152535455565758595a61626364656660208401527f6768696a6b6c6d6e6f707172737475767778797a303132333435363738392b2f604084015280519260029160028501809511610c8c576003948590046001600160fe1b0381168103610c8c57610be29060029694961b610b15565b9260208401928291835184019760208901928351945f85525b8a8110610c3f57505050506003939495965052510680600114610c2d57600214610c23575090565b603d905f19015390565b50603d90815f19820153600119015390565b836004919b989b019a8b51600190603f9082828260121c16870101518453828282600c1c16870101518385015382828260061c168701015187850153168401015185820153019699610bfb565b634e487b7160e01b5f52601160045260245ffd5b9050604051610cae81610a72565b5f815290565b60405190610cc182610abc565b601b82527a5269736b4c656e732057616c6c657420436f6c6c65637469626c6560281b6020830152565b51906001600160a01b038216820361007257565b81601f82011215610072578051610d1581610afa565b92610d236040519485610ad7565b8184526020828401011161007257610d419160208085019101610a51565b90565b60c08183031261007257610d5781610ceb565b60208201519093906001600160401b03908181116100725784610d7b918501610cff565b93604084015191821161007257610d93918401610cff565b9160608101519160a0608083015192015190565b519061ffff8216820361007257565b91909160a08184031261007257610dcc81610ceb565b92610dd960208301610da7565b92604083015192606081015192608082015160018060401b03811161007257610d419201610cff565b9060808282031261007257610e1682610ceb565b92610e2360208401610da7565b92604081015192606082015160018060401b03811161007257610d419201610cff565b606481118061150d575b6113df5760c88111806113d4575b6112f557610e6b81613dd4565b6111d3576103e88111806111c6575b61116157610e8781613eea565b61109257610e9481613f66565b610fbc57610ea181613fe0565b610edb5750604051610eb281610abc565b60198152785269736b4c656e732044656d6f20436f6c6c65637469626c6560381b602082015290565b604051630cb7714960e21b815260048101919091525f816024817f00000000000000000000000000000000000000000000000000000000000000006001600160a01b03165afa8015610fb157610f38915f91610f8b575b50613e11565b610d41603d60405180937f5269736b4c656e7320506c656467652043726564656e7469616c202d200000006020830152610f7b8151809260208686019101610a51565b810103601d810184520182610ad7565b610fa791503d805f833e610f9f8183610ad7565b810190610e02565b505090505f610f32565b6040513d5f823e3d90fd5b60405163cc272b1160e01b815260048101919091525f816024817f00000000000000000000000000000000000000000000000000000000000000006001600160a01b03165afa8015610fb157611018915f9161106b5750613e11565b610d41603e60405180937f5269736b4c656e7320526563656970742043726564656e7469616c202d200000602083015261105b8151809260208686019101610a51565b810103601e810184520182610ad7565b61108791503d805f833e61107f8183610ad7565b810190610db6565b50505090505f610f32565b60405163018bc41f60e71b815260048101919091525f816024817f00000000000000000000000000000000000000000000000000000000000000006001600160a01b03165afa908115610fb1575f91611139575b50610d41603c60405180937b02934b9b5a632b739902830b832b91021b932b232b73a34b0b61016960251b60208301526111298151809260208686019101610a51565b810103601c810184520182610ad7565b61115591503d805f833e61114d8183610ad7565b810190610d44565b5050505090505f6110e6565b61ffff61117061117692613dc4565b16613e11565b610d41603a60405180937902934b9b5a632b739902bb2b0b63a34102932b1b2b4b83a1016960351b60208301526111b68151809260208686019101610a51565b810103601a810184520182610ad7565b50620103e7811115610e7a565b600681146112bf5760078114611288576008811461125957600914611227576040516111fe81610abc565b60198152785269736b4c656e732050726f7465637469766520486564676560381b602082015290565b60405161123381610abc565b60168152755269736b4c656e732050657270204c6576657261676560501b602082015290565b5060405161126681610abc565b601281527105269736b4c656e732053706f74204c6f6f760741b602082015290565b5060405161129581610abc565b601a815279149a5cdad3195b9cc814185c195c8813195859195c989bd85c9960321b602082015290565b506040516112cc81610abc565b60198152785269736b4c656e73205061706572204261736520436865636b60381b602082015290565b61130060ff91613db5565b166001811461138b576002146113535760405161131c81610aa1565b602181527f5269736b4c656e73205765616c7468204475616c2050726f66697420426164676020820152606560f81b604082015290565b60405161135f81610abc565b601c81527b5269736b4c656e73205765616c746820506c6564676520426164676560201b602082015290565b5060405161139881610aa1565b602681527f5269736b4c656e73205765616c74682050726f66697461626c6520547261646560208201526520426164676560d01b604082015290565b5060cb811115610e5e565b6113ea60ff91613da6565b16600181146114d457600281146114cb57600381146114915760041461144e5760405161141681610aa1565b602281527f5269736b4c656e73205061706572205072657669657720436f6c6c65637469626020820152616c6560f01b604082015290565b60405161145a81610aa1565b602181527f5269736b4c656e732050726f64756374205175697a20436f6c6c65637469626c6020820152606560f81b604082015290565b5060405161149e81610abc565b602081527f5269736b4c656e73205269736b2052657669657720436f6c6c65637469626c65602082015290565b50610d41610cb4565b506040516114e181610abc565b601c81527b5269736b4c656e732057656c636f6d6520436f6c6c65637469626c6560201b602082015290565b506069811115610e50565b61152181613eea565b611b035761152e81613f66565b6119865761153b81613fe0565b61182a576103e881118061181d575b6116c95761155781613dd4565b6116775760c881118061166c575b61162557606481119081611619575b506115cb5760405161158581610aa1565b603081527f41205365706f6c696120636f6c6c65637469626c6520666f722074686520526960208201526f39b5a632b739903232b6b790343ab11760811b604082015290565b6040516115d781610aa1565b602c81527f5365706f6c6961206f6e626f617264696e6720636f6c6c65637469626c65206660208201526b37b9102934b9b5a632b7399760a11b604082015290565b6069915011155f611574565b5060405161163281610aa1565b602481527f5365706f6c6961205765616c746820776f726b666c6f7720636f6c6c656374696020820152633136329760e11b604082015290565b5060cb811115611565565b5060405161168481610aa1565b602f81527f5365706f6c69612070617065722d74726164696e6720616368696576656d656e60208201526e3a103337b9102934b9b5a632b7399760891b604082015290565b6116d561ffff91613dc4565b16610d4160a06116e483613e11565b6116ed846142e3565b936117006116fa82614199565b9161423d565b906040519586937a029b2b837b634b0902bb2b0b63a34103932b1b2b4b83a103337b91602d1b602086015261173f815180926020603b89019101610a51565b84017101710283937b23ab1ba103232ba30b4b61d160751b603b820152611770825180936020604d85019101610a51565b016f01710283937b23ab1ba103a3cb8329d160851b604d82015261179e825180936020605d85019101610a51565b016b0171026b0ba3ab934ba3c9d160a51b605d8201526117c8825180936020606985019101610a51565b017f2e205075726368617365206461746520697320656d697474656420627920507260698201527637b23ab1ba2932b1b2b4b83a29bab139b1b934b132b21760491b6089820152036080810184520182610ad7565b50620103e781111561154a565b604051630cb7714960e21b815260048101919091525f816024817f00000000000000000000000000000000000000000000000000000000000000006001600160a01b03165afa8015610fb1575f805f92611953575b610d419293509061189a611894606193613e11565b91611ebb565b6040519485927f57616c6c657420706c656467652063726564656e7469616c20666f722000000060208501526118da815180926020603d88019101610a51565b83016901710283632b233b2b2160b51b603d820152611903825180936020604785019101610a51565b01640103337b9160dd1b6047820152611926825180936020604c85019101610a51565b017410282a1037b3103937baba329039bab83837b93a1760591b604c820152036041810184520182610ad7565b505050610d41606161189a611974611894943d805f833e610f9f8183610ad7565b919650909450925084915061187f9050565b60405163cc272b1160e01b815260048101919091525f816024817f00000000000000000000000000000000000000000000000000000000000000006001600160a01b03165afa8015610fb1575f915f91611ada575b506067610d41916119eb84613e11565b906119fe6119f886614199565b9561423d565b6040519586937f57616c6c657420726563656970742063726564656e7469616c20666f722000006020860152611a3e815180926020603e89019101610a51565b84016f01710283937b23ab1ba103a3cb8329d160851b603e820152611a6d825180936020604e85019101610a51565b016b0171026b0ba3ab934ba3c9d160a51b604e820152611a97825180936020605a85019101610a51565b016b01710283ab931b430b9b2b2160a51b605a820152611ac1825180936020606685019101610a51565b01601760f91b6066820152036047810184520182610ad7565b60679250610d419150611af6903d805f833e61107f8183610ad7565b95935050509291506119db565b60405163018bc41f60e71b815260048101919091525f816024817f00000000000000000000000000000000000000000000000000000000000000006001600160a01b03165afa8015610fb1575f805f915f925f94611c96575b610d4194955090611c7d611b85611b7f611b79607c979695614059565b956140dd565b976140dd565b6040519788956020947f5061706572206c6561646572626f617264207375626d697373696f6e20637265868901526b03232b73a34b0b6103337b9160a51b6040890152611bdb8151809288604c8c019101610a51565b870168017102932ba3ab937160bd1b604c820152611c028251809388605585019101610a51565b016a016103bb4b7103930ba32960ad1b6055820152611c2a8251809387606085019101610a51565b016e0161036b0bc10323930bbb237bbb71608d1b6060820152611c568251809386606f85019101610a51565b01916b0171029bab136b4ba3a32b2160a51b606f8401528351938491607b85019101610a51565b01601760f91b607b82015203605c810184520182610ad7565b5050505050610d41607c611c7d611b7f611b79611cbf611b85963d805f833e61114d8183610ad7565b919a50909850965094509250869150611b5c9050565b611cde81613eea565b611e8257611ceb81613f66565b611e4c57611cf881613fe0565b611e17576064811180611e0c575b611deb5760c8811180611de0575b611db857611d2181613dd4565b611d8e576103e881119081611d80575b50611d5657604051611d4281610abc565b600481526344656d6f60e01b602082015290565b604051611d6281610abc565b600e81526d15d9585b1d1a08149958d95a5c1d60921b602082015290565b620103e7915011155f611d31565b50604051611d9b81610abc565b600d81526c50617065722054726164696e6760981b602082015290565b50604051611dc581610abc565b600b81526a5765616c7468205461736b60a81b602082015290565b5060cb811115611d14565b50604051611df881610abc565b6004815263486f6d6560e01b602082015290565b506069811115611d06565b50604051611e2481610abc565b601881527715d9585b1d1a08141b195919d94810dc9959195b9d1a585b60421b602082015290565b50604051611e5981610abc565b601981527815d9585b1d1a08149958d95a5c1d0810dc9959195b9d1a585b603a1b602082015290565b50604051611e8f81610abc565b601c81527b14185c195c8813195859195c989bd85c990810dc9959195b9d1a585b60221b602082015290565b5f908072184f03e93ff9f4daa797ed6e38ed64bf6a1f0160401b80821015611fe9575b506904ee2d6d415b85acef8160201b80831015611fda575b50662386f26fc1000080831015611fcb575b506305f5e10080831015611fbc575b5061271080831015611fad575b506064821015611f9d575b600a80921015611f93575b600190816021611f4c60018701610b15565b95860101905b611f5e575b5050505090565b5f19019083906f181899199a1a9b1b9c1cb0b131b232b360811b8282061a835304918215611f8e57919082611f52565b611f57565b9160010191611f3a565b9190606460029104910191611f2f565b6004919392049101915f611f24565b6008919392049101915f611f17565b6010919392049101915f611f08565b6020919392049101915f611ef6565b60409350810491505f611ede565b7f2c7b2274726169745f74797065223a2250726f64756374222c2276616c7565228152611d1160f11b602082015260220190565b61203481613eea565b61244c5761204181613f66565b6122cd5761204e81613fe0565b612167576103e881118061215a575b61206e5750604051610cae81610a72565b610d41600261ffff612081602094613dc4565b168361208c82613e11565b916121426120c1836120a66120a085614199565b9461423d565b9361210a6120c16040519b8c996120ce6120c1838d01611ff7565b9182815194859201610a51565b017f227d2c7b2274726169745f74797065223a2250726f647563742074797065222c815268113b30b63ab2911d1160b91b602082015260290190565b017f227d2c7b2274726169745f74797065223a224d61747572697479222c2276616c8152643ab2911d1160d91b602082015260250190565b0161227d60f01b815203601d19810184520182610ad7565b50620103e781111561205d565b604051630cb7714960e21b815260048101919091525f816024817f00000000000000000000000000000000000000000000000000000000000000006001600160a01b03165afa908115610fb1576057610d41916020935f80925f926122a3575b506121d46121da91613e11565b92611ebb565b906040519586936121ef6120c1838701611ff7565b017f227d2c7b2274726169745f74797065223a22506c656467652064617465222c228152673b30b63ab2911d1160c11b6020820152612238825180936020602885019101610a51565b017f227d2c7b2274726169745f74797065223a22526f75746520737570706f72742260288201526916113b30b63ab2911d1160b11b6048820152612286825180936020605285019101610a51565b0164205054227d60d81b6052820152036037810184520182610ad7565b6121da93506121d492506122c191503d805f833e610f9f8183610ad7565b909450929091506121c7565b60405163cc272b1160e01b815260048101919091525f816024817f00000000000000000000000000000000000000000000000000000000000000006001600160a01b03165afa8015610fb1576052610d41916120c1935f915f915f91612428575b5061240b61233b84613e11565b916120ce61235a61235461234e88614199565b9761423d565b95611ebb565b9461237e6120c16040519b8c9961210a6120c18c60209b8c998a9687809401611ff7565b017f227d2c7b2274726169745f74797065223a22507572636861736520646174652281526916113b30b63ab2911d1160b11b848201526123c78251809386602a85019101610a51565b01917f227d2c7b2274726169745f74797065223a22416d6f756e74222c2276616c7565602a84015262111d1160e91b604a8401528351938491604d85019101610a51565b0164205054227d60d81b604d820152036032810184520182610ad7565b91505061243f91503d805f833e61107f8183610ad7565b929193505091905f61232e565b60405163018bc41f60e71b815260048101919091525f816024817f00000000000000000000000000000000000000000000000000000000000000006001600160a01b03165afa8015610fb1575f805f905f8094612646575b610d419495509061262c6124c7611b7f6124c160df9796956140dd565b94614059565b926040519788956020927f2c7b2274726169745f74797065223a2243617465676f7279222c2276616c75658489015262111d1160e91b918260408a0152612517815180928760438d019101610a51565b8801957f227d2c7b2274726169745f74797065223a225375626d6974746564206f6e222c604388015268113b30b63ab2911d1160b91b968760638201526125678251809388606c85019101610a51565b017f227d2c7b2274726169745f74797065223a2257696e2072617465222c2276616c606c820152643ab2911d1160d91b608c8201526125af8251809387609185019101610a51565b01907f227d2c7b2274726169745f74797065223a2252657475726e222c2276616c7565609183015260b18201526125ef825180938560b485019101610a51565b01927f227d2c7b2274726169745f74797065223a224d61782064726177646f776e222c60b485015260d4840152835193849160dd85019101610a51565b0161227d60f01b60dd8201520360bf810184520182610ad7565b5050505050610d4160df611b7f6124c76124c161266f61262c963d805f833e61114d8183610ad7565b909a50985091965090945092508691506124a49050565b6040519061269382610abc565b6007825266119b9b209ca32360c91b6020830152565b604051906126b682610abc565b600782526611a19c23231b2160c91b6020830152565b604051906126d982610abc565b600782526611a32322189b1b60c91b6020830152565b6126f881613eea565b6127e95761270581613f66565b6128215761271281613fe0565b612837576103e881118061282a575b6128215760c8811180612816575b6127f25761273c81613dd4565b6127e9576064811190816127dd575b81806127c8575b6127a3578161278c575b506127845760405161276d81610abc565b60078152662342364646343360c81b602082015290565b610d416126cc565b6003915061279b60ff91613da6565b16145f61275c565b50506040516127b181610abc565b600781526611a32321199b2160c91b602082015290565b50600460ff6127d683613da6565b1614612752565b6069811115915061274b565b50610d41612686565b506040516127ff81610abc565b600781526608cd0e510d90cd60ca1b602082015290565b5060cb81111561272f565b50610d416126a9565b50620103e7811115612721565b50610d416126cc565b6040519061284d82610abc565b6017825276149a5cdad3195b9cc815d9585b1d1a08149958d95a5c1d604a1b6020830152565b61287c81613eea565b61297e5761288981613f66565b6129355761289681613fe0565b61294b576103e881118061293e575b6129355760c881118061292a575b6128fe576128c090613dd4565b6128cc57610d41610cb4565b6040516128d881610abc565b60168152755269736b4c656e732050617065722054726164696e6760501b602082015290565b5060405161290b81610abc565b600f81526e0a4d2e6d698cadce640aecac2d8e8d608b1b602082015290565b5060cb8111156128b3565b50610d41612840565b50620103e78111156128a5565b5060405161295881610abc565b60168152755269736b4c656e73205765616c746820506c6564676560501b602082015290565b5060405161298b81610abc565b6014815273149a5cdad3195b9cc813195859195c989bd85c9960621b602082015290565b604051906129bc82610abc565b600b82526a1311505111549093d0549160aa1b6020830152565b604051906129e382610abc565b60068252650ae8a8298a8960d31b6020830152565b612a0181613eea565b612ad057612a0e81613f66565b612a8c57612a1b81613fe0565b612aad576103e8811180612aa0575b612a8c5760c8811180612a95575b612a8c57612a4590613dd4565b612a6b57604051612a5581610abc565b600681526515d05313115560d21b602082015290565b604051612a7781610abc565b60058152642820a822a960d91b602082015290565b50610d416129d6565b5060cb811115612a38565b50620103e7811115612a2a565b50604051612aba81610abc565b6006815265504c4544474560d01b602082015290565b50610d416129af565b612ae281613eea565b612eb157612aef81613f66565b612e2f57612afc81613fe0565b612e06576103e8811180612df9575b612da55760c8811180612d9a575b612d0857612b2681613dd4565b612c57576064811180612c4c575b612b605750604051612b4581610abc565b600b81526a434f4c4c45435449424c4560a81b602082015290565b612b6b60ff91613da6565b1660018114612c285760028114612c045760038114612bdc57600414612bb457604051612b9781610abc565b600d81526c5041504552205052455649455760981b602082015290565b604051612bc081610abc565b600c81526b282927a22aa1aa1028aaa4ad60a11b602082015290565b50604051612be981610abc565b600b81526a5249534b2052455649455760a81b602082015290565b50604051612c1181610abc565b600781526610d3d3939150d560ca1b602082015290565b50604051612c3581610abc565b600781526657454c434f4d4560c81b602082015290565b506069811115612b34565b60068114612ce15760078114612ad05760088114612cbb57600914612c9757604051612c8281610abc565b6005815264484544474560d81b602082015290565b604051612ca381610abc565b60088152674c4556455241474560c01b602082015290565b50604051612cc881610abc565b6009815268053504f54204c4f4f560bc1b602082015290565b50604051612cee81610abc565b600a8152694241534520434845434b60b01b602082015290565b612d1360ff91613db5565b1660018114612d7157600214612d4957604051612d2f81610abc565b600a8152694455414c20424144474560b01b602082015290565b604051612d5581610abc565b600c81526b504c4544474520424144474560a01b602082015290565b50604051612d7e81610abc565b600c81526b50524f46495420424144474560a01b602082015290565b5060cb811115612b19565b61ffff612db4612dba92613dc4565b16611ebb565b610d41602960405180936852454345495054202360b81b6020830152612de98151809260208686019101610a51565b8101036009810184520182610ad7565b50620103e7811115612b0b565b50604051612e1381610abc565b600c81526b535550504f5254204c494e4560a01b602082015290565b60405163cc272b1160e01b815260048101919091525f816024817f00000000000000000000000000000000000000000000000000000000000000006001600160a01b03165afa908115610fb157612dba9161ffff915f91612e92575b5016611ebb565b612ea691503d805f833e61107f8183610ad7565b50505090505f612e8b565b50604051612ebe81610abc565b600a81526910d4915111539512505360b21b602082015290565b612ee181613eea565b6130fb57612eee81613f66565b61307f57612efb81613fe0565b613023576103e8811180613016575b612fdc5760c8811180612fd1575b612f9957612f2590613dd4565b612f6257604051612f3581610abc565b601d81527f4f6e626f617264696e67206d696c6573746f6e65207265636f72646564000000602082015290565b604051612f6e81610abc565b601b81527a14995c1b185e481858da1a595d995b595b9d081c9958dbdc991959602a1b602082015290565b50604051612fa681610abc565b601b81527a15dbdc9ad99b1bddc81b5a5b195cdd1bdb99481c9958dbdc991959602a1b602082015290565b5060cb811115612f18565b50604051612fe981610abc565b602081527f537562736372697074696f6e207265636569707420736861726573206c697665602082015290565b50620103e7811115612f0a565b604051630cb7714960e21b815260048101919091525f816024817f00000000000000000000000000000000000000000000000000000000000000006001600160a01b03165afa8015610fb157610d41915f91610f8b5750613e11565b60405163cc272b1160e01b815260048101919091525f816024817f00000000000000000000000000000000000000000000000000000000000000006001600160a01b03165afa8015610fb157610d41915f916130dc575b50614199565b6130f091503d805f833e61107f8183610ad7565b50505090505f6130d6565b60405163018bc41f60e71b815260048101919091525f816024817f00000000000000000000000000000000000000000000000000000000000000006001600160a01b03165afa8015610fb1575f915f916131c7575b50602e613168613162610d41936140dd565b93614059565b926040519381613182869351809260208087019101610a51565b8201660103bb4b71017960cd1b60208201526131a8825180936020602785019101610a51565b0166103932ba3ab93760c91b602782015203600e810184520182610ad7565b6131629250610d4191506131686131e9602e923d805f833e61114d8183610ad7565b5090975095506131509350505050565b61320281613eea565b6134a35761320f81613f66565b6133e75761321c81613fe0565b61332b576103e881118061331e575b6132ea5760c88111806132df575b6132af5761324690613dd4565b61327a5760405161325681610abc565b60148152733337b9103a3432902934b9b5a632b73990343ab160611b602082015290565b60405161328681610abc565b6019815278199bdc881d1a19481cda5b5d5b185d1a5bdb881dd85b1b195d603a1b602082015290565b506040516132bc81610abc565b6013815272666f7220746865205765616c746820666c6f7760681b602082015290565b5060cb811115613239565b506040516132f781610abc565b60178152761a5b881d1a194818dbdb9b9958dd1959081dd85b1b195d604a1b602082015290565b50620103e781111561322b565b604051630cb7714960e21b815260048101919091525f816024817f00000000000000000000000000000000000000000000000000000000000000006001600160a01b03165afa8015610fb157613388915f916133c9575b50611ebb565b610d41602b604051836133a5829551809260208086019101610a51565b81016a081415081cdd5c1c1bdc9d60aa1b602082015203600b810184520182610ad7565b6133dd91503d805f833e610f9f8183610ad7565b509150505f613382565b60405163cc272b1160e01b815260048101919091525f816024817f00000000000000000000000000000000000000000000000000000000000000006001600160a01b03165afa8015610fb157613444915f91613484575b5061423d565b610d41602a604051809369026b0ba3ab934ba3c9d160b51b60208301526134748151809260208686019101610a51565b810103600a810184520182610ad7565b61349891503d805f833e61107f8183610ad7565b50505090505f61343e565b60405163018bc41f60e71b815260048101919091525f816024817f00000000000000000000000000000000000000000000000000000000000000006001600160a01b03165afa8015610fb157613500915f9161353d575b506140dd565b610d4160276040518361351d829551809260208086019101610a51565b810166081b585e08111160ca1b6020820152036007810184520182610ad7565b61355191503d805f833e61114d8183610ad7565b9450505050505f6134fa565b61356681613eea565b6137ca5761357381613f66565b61376e5761358081613fe0565b6136e3576103e88111806136d6575b6136685761359c81613dd4565b61362e5760c881119081613622575b506135e9576040516135bc81610abc565b602081527f5461736b20626164676520666f722077616c6c6574206f6e626f617264696e67602082015290565b6040516135f581610abc565b601e81527f5461736b20626164676520666f72205765616c746820776f726b666c6f770000602082015290565b60cb915011155f6135ab565b5060405161363b81610abc565b601e81527f5461736b20626164676520666f72207265706c6179206c6561726e696e670000602082015290565b61367461ffff91613dc4565b16610d41602361368c61368684614199565b9361423d565b9260405193816136a6869351809260208087019101610a51565b82016201017960ed1b60208201526136c78251809360208785019101610a51565b01036003810184520182610ad7565b50620103e781111561358f565b604051630cb7714960e21b815260048101919091525f816024817f00000000000000000000000000000000000000000000000000000000000000006001600160a01b03165afa8015610fb15761373f915f91610f8b5750613e11565b610d4160296040518093680283937b23ab1ba1d160bd1b6020830152612de98151809260208686019101610a51565b60405163cc272b1160e01b815260048101919091525f816024817f00000000000000000000000000000000000000000000000000000000000000006001600160a01b03165afa8015610fb15761373f915f9161106b5750613e11565b60405163018bc41f60e71b815260048101919091525f816024817f00000000000000000000000000000000000000000000000000000000000000006001600160a01b03165afa908115610fb1575f9161384f575b50610d41602a604051809369021b0ba32b3b7b93c9d160b51b60208301526134748151809260208686019101610a51565b61386391503d805f833e61114d8183610ad7565b5050505090505f61381e565b61387881613eea565b6139f95761388581613f66565b6139555761389281613fe0565b61389f57610d4190611cd5565b604051630cb7714960e21b815260048101919091525f816024817f00000000000000000000000000000000000000000000000000000000000000006001600160a01b03165afa908115610fb1575f91613937575b50610d41602d60405180936c0283632b233b2903230ba329d1609d1b60208301526139278151809260208686019101610a51565b810103600d810184520182610ad7565b61394b91503d805f833e610f9f8183610ad7565b925050505f6138f3565b60405163cc272b1160e01b815260048101919091525f816024817f00000000000000000000000000000000000000000000000000000000000000006001600160a01b03165afa908115610fb1575f916139da575b50610d41602a6040518093690283ab931b430b9b29d160b51b60208301526134748151809260208686019101610a51565b6139ee91503d805f833e61107f8183610ad7565b93505050505f6139a9565b60405163018bc41f60e71b815260048101919091525f816024817f00000000000000000000000000000000000000000000000000000000000000006001600160a01b03165afa908115610fb1575f91613a8a575b50610d41602660405180936502230ba329d160d51b6020830152613a7a8151809260208686019101610a51565b8101036006810184520182610ad7565b613a9e91503d805f833e61114d8183610ad7565b5050509150505f613a4d565b613ab381613eea565b613c7357613ac081613f66565b613bad57613acd81613fe0565b613b015750604051613ade81610abc565b60138152725365706f6c696120636f6c6c65637469626c6560681b602082015290565b604051630cb7714960e21b815260048101919091525f816024817f00000000000000000000000000000000000000000000000000000000000000006001600160a01b03165afa8015610fb157613b5d915f916133c95750611ebb565b610d41603060405180936c0283632b233b2b21037baba1d1609d1b6020830152613b91815180926020602d86019101610a51565b81016208141560ea1b602d820152036010810184520182610ad7565b60405163cc272b1160e01b815260048101919091525f816024817f00000000000000000000000000000000000000000000000000000000000000006001600160a01b03165afa8015610fb157613c09915f91613c545750611ebb565b610d41602b604051809367020b6b7bab73a1d160c51b6020830152613c38815180926020602886019101610a51565b81016208141560ea1b602882015203600b810184520182610ad7565b613c6891503d805f833e61107f8183610ad7565b50509150505f613382565b60405163018bc41f60e71b815260048101919091525f816024817f00000000000000000000000000000000000000000000000000000000000000006001600160a01b03165afa8015610fb1575f805f92613d6e575b610d4192935090613cec613ce6613ce06034946140dd565b92614059565b946140dd565b6040519485926302bb4b7160e51b6020850152613d13815180926020602488019101610a51565b83016901017902932ba3ab937160b51b6024820152613d3c825180936020602e85019101610a51565b016501017902222160d51b602e820152613d5f8251809360208785019101610a51565b01036014810184520182610ad7565b505050610d416034613ce0613cec613d92613ce6953d805f833e61114d8183610ad7565b90995097509550879450613cc89350505050565b606319810191908211610c8c57565b60c719810191908211610c8c57565b6103e719810191908211610c8c57565b60068110159081613de3575090565b600a9150111590565b906020828203126100725781516001600160401b03811161007257610d419201610cff565b604051630b7d120d60e41b815261ffff91909116600482018190525f826024817f00000000000000000000000000000000000000000000000000000000000000006001600160a01b03165afa918215610fb1575f92613ec6575b508151613ec257613e7c9150611ebb565b610d41603060405180936f5765616c74682050726f64756374202360801b6020830152613eb28151809260208686019101610a51565b8101036010810184520182610ad7565b5090565b613ee39192503d805f833e613edb8183610ad7565b810190613dec565b905f613e6b565b60405163018bc41f60e71b815260048101919091526001600160a01b03905f816024817f000000000000000000000000000000000000000000000000000000000000000086165afa908115610fb1575f91613f47575b5016151590565b613f5b91503d805f833e61114d8183610ad7565b50505050505f613f40565b60405163cc272b1160e01b815260048101919091526001600160a01b03905f816024817f000000000000000000000000000000000000000000000000000000000000000086165afa908115610fb1575f91613fc2575016151590565b613fd691503d805f833e61107f8183610ad7565b505050505f613f40565b604051630cb7714960e21b815260048101919091526001600160a01b03905f816024817f000000000000000000000000000000000000000000000000000000000000000086165afa908115610fb1575f9161403c575016151590565b61405091503d805f833e610f9f8183610ad7565b5050505f613f40565b5f81126140a057614069906140dd565b610d4160216040518093602b60f81b60208301526140908151809260208686019101610a51565b8101036001810184520182610ad7565b600160ff1b8114610c8c576140b6905f036140dd565b610d4160216040518093602d60f81b60208301526140908151809260208686019101610a51565b600a60648083049206049081156141585760226141056140ff610d4193611ebb565b93611ebb565b92604051938161411f869351809260208087019101610a51565b8201601760f91b602082015261413f825180936020602185019101610a51565b01602560f81b6021820152036002810184520182610ad7565b6141629150611ebb565b610d4160216040518361417f829551809260208086019101610a51565b8101602560f81b6020820152036001810184520182610ad7565b604051635acc900960e01b815261ffff9190911660048201525f816024817f00000000000000000000000000000000000000000000000000000000000000006001600160a01b03165afa908115610fb1575f91614223575b508051610d41575060405161420581610abc565b600e81526d15d9585b1d1a081c9958d95a5c1d60921b602082015290565b61423791503d805f833e613edb8183610ad7565b5f6141f1565b60405163444e880160e11b815261ffff9190911660048201525f816024817f00000000000000000000000000000000000000000000000000000000000000006001600160a01b03165afa908115610fb1575f916142c9575b508051610d4157506040516142a981610abc565b601081526f50726f647563742d737065636966696360801b602082015290565b6142dd91503d805f833e613edb8183610ad7565b5f614295565b6040516301d96d2d60e21b815261ffff9190911660048201525f816024817f00000000000000000000000000000000000000000000000000000000000000006001600160a01b03165afa908115610fb1575f916143a1575b508051610d41575060405161434f81610aa1565b603c81527f536574746c656d656e74207465726d73207265636f7264656420696e2074686560208201527b205269736b4c656e73205765616c74682064657461696c207061676560201b604082015290565b6143b591503d805f833e613edb8183610ad7565b5f61433b56fea2646970667358221220ef0a7a8ed785ca38b22daa820f20975048d85772aa4c7cd224007ae7f794b94664736f6c63430008180033","opcodes":"PUSH1 0xA0 CALLVALUE PUSH3 0x18B JUMPI PUSH1 0x1F PUSH3 0x4595 CODESIZE DUP2 SWAP1 SUB SWAP2 DUP3 ADD PUSH1 0x1F NOT AND DUP4 ADD SWAP2 PUSH1 0x1 PUSH1 0x1 PUSH1 0x40 SHL SUB DUP4 GT DUP5 DUP5 LT OR PUSH3 0x18F JUMPI DUP1 DUP5 SWAP3 PUSH1 0x20 SWAP5 PUSH1 0x40 MSTORE DUP4 CODECOPY DUP2 ADD SUB SLT PUSH3 0x18B JUMPI MLOAD PUSH1 0x1 PUSH1 0x1 PUSH1 0xA0 SHL SUB DUP2 AND SWAP1 DUP2 SWAP1 SUB PUSH3 0x18B JUMPI DUP1 ISZERO PUSH3 0x158 JUMPI PUSH1 0x80 MSTORE PUSH1 0x40 MLOAD PUSH2 0x43F1 SWAP1 DUP2 PUSH3 0x1A4 DUP3 CODECOPY PUSH1 0x80 MLOAD DUP2 DUP2 DUP2 PUSH1 0x43 ADD MSTORE DUP2 DUP2 PUSH2 0xEF7 ADD MSTORE DUP2 DUP2 PUSH2 0xFD8 ADD MSTORE DUP2 DUP2 PUSH2 0x10AE ADD MSTORE DUP2 DUP2 PUSH2 0x1846 ADD MSTORE DUP2 DUP2 PUSH2 0x19A2 ADD MSTORE DUP2 DUP2 PUSH2 0x1B1F ADD MSTORE DUP2 DUP2 PUSH2 0x2183 ADD MSTORE DUP2 DUP2 PUSH2 0x22E9 ADD MSTORE DUP2 DUP2 PUSH2 0x2468 ADD MSTORE DUP2 DUP2 PUSH2 0x2E4B ADD MSTORE DUP2 DUP2 PUSH2 0x303F ADD MSTORE DUP2 DUP2 PUSH2 0x309B ADD MSTORE DUP2 DUP2 PUSH2 0x3117 ADD MSTORE DUP2 DUP2 PUSH2 0x3347 ADD MSTORE DUP2 DUP2 PUSH2 0x3403 ADD MSTORE DUP2 DUP2 PUSH2 0x34BF ADD MSTORE DUP2 DUP2 PUSH2 0x36FF ADD MSTORE DUP2 DUP2 PUSH2 0x378A ADD MSTORE DUP2 DUP2 PUSH2 0x37E6 ADD MSTORE DUP2 DUP2 PUSH2 0x38BB ADD MSTORE DUP2 DUP2 PUSH2 0x3971 ADD MSTORE DUP2 DUP2 PUSH2 0x3A15 ADD MSTORE DUP2 DUP2 PUSH2 0x3B1D ADD MSTORE DUP2 DUP2 PUSH2 0x3BC9 ADD MSTORE DUP2 DUP2 PUSH2 0x3C8F ADD MSTORE DUP2 DUP2 PUSH2 0x3E33 ADD MSTORE DUP2 DUP2 PUSH2 0x3F0F ADD MSTORE DUP2 DUP2 PUSH2 0x3F8B ADD MSTORE DUP2 DUP2 PUSH2 0x4005 ADD MSTORE DUP2 DUP2 PUSH2 0x41B9 ADD MSTORE DUP2 DUP2 PUSH2 0x425D ADD MSTORE PUSH2 0x4303 ADD MSTORE RETURN JUMPDEST PUSH1 0x40 MLOAD PUSH3 0x461BCD PUSH1 0xE5 SHL DUP2 MSTORE PUSH1 0x20 PUSH1 0x4 DUP3 ADD MSTORE PUSH1 0xB PUSH1 0x24 DUP3 ADD MSTORE PUSH11 0x26B4B9B9B4B73390343AB1 PUSH1 0xA9 SHL PUSH1 0x44 DUP3 ADD MSTORE PUSH1 0x64 SWAP1 REVERT JUMPDEST PUSH0 DUP1 REVERT JUMPDEST PUSH4 0x4E487B71 PUSH1 0xE0 SHL PUSH0 MSTORE PUSH1 0x41 PUSH1 0x4 MSTORE PUSH1 0x24 PUSH0 REVERT INVALID PUSH1 0x40 PUSH1 0x80 DUP2 MSTORE PUSH1 0x4 CALLDATASIZE LT ISZERO PUSH2 0x12 JUMPI PUSH0 DUP1 REVERT JUMPDEST PUSH0 CALLDATALOAD PUSH1 0xE0 SHR DUP1 PUSH4 0xE89341C EQ PUSH2 0x76 JUMPI PUSH4 0x365A86FC EQ PUSH2 0x30 JUMPI PUSH0 DUP1 REVERT JUMPDEST CALLVALUE PUSH2 0x72 JUMPI PUSH0 CALLDATASIZE PUSH1 0x3 NOT ADD SLT PUSH2 0x72 JUMPI MLOAD PUSH32 0x0 PUSH1 0x1 PUSH1 0x1 PUSH1 0xA0 SHL SUB AND DUP2 MSTORE PUSH1 0x20 SWAP1 RETURN JUMPDEST PUSH0 DUP1 REVERT JUMPDEST POP CALLVALUE PUSH2 0x72 JUMPI PUSH1 0x20 SWAP1 DUP2 PUSH1 0x3 NOT CALLDATASIZE ADD SLT PUSH2 0x72 JUMPI PUSH1 0x4 CALLDATALOAD PUSH2 0x96 DUP2 PUSH2 0x26EF JUMP JUMPDEST PUSH2 0x9F DUP3 PUSH2 0x26EF JUMP JUMPDEST SWAP1 PUSH2 0xA9 DUP4 PUSH2 0x26EF JUMP JUMPDEST PUSH2 0xB2 DUP5 PUSH2 0x2873 JUMP JUMPDEST SWAP1 PUSH2 0xBC DUP6 PUSH2 0x29F8 JUMP JUMPDEST DUP6 PUSH2 0xC6 DUP2 PUSH2 0x2AD9 JUMP JUMPDEST SWAP4 PUSH2 0xD0 DUP3 PUSH2 0x2ED8 JUMP JUMPDEST SWAP5 PUSH2 0xDA DUP4 PUSH2 0x31F9 JUMP JUMPDEST SWAP1 DUP12 DUP12 PUSH2 0xE6 DUP7 PUSH2 0x355D JUMP JUMPDEST SWAP7 PUSH2 0xF0 DUP8 PUSH2 0x386F JUMP JUMPDEST SWAP6 PUSH2 0xFA DUP9 PUSH2 0x3AAA JUMP JUMPDEST SWAP8 PUSH2 0x104 SWAP1 PUSH2 0x1EBB JUMP JUMPDEST DUP4 MLOAD PUSH32 0x3C73766720786D6C6E733D22687474703A2F2F7777772E77332E6F72672F3230 DUP7 DUP3 ADD MSTORE PUSH32 0x30302F737667222076696577426F783D223020302036303020363030223E3C64 SWAP5 DUP2 ADD SWAP5 SWAP1 SWAP5 MSTORE PUSH32 0x6566733E3C6C696E6561724772616469656E742069643D2267222078313D2233 PUSH1 0x60 DUP6 ADD MSTORE PUSH32 0x36222079313D223232222078323D22353630222079323D22353738223E3C7374 PUSH1 0x80 DUP6 ADD MSTORE PUSH32 0x6F702073746F702D636F6C6F723D2223313232323141222F3E3C73746F70206F PUSH1 0xA0 DUP6 ADD MSTORE PUSH32 0x66667365743D222E3535222073746F702D636F6C6F723D222331313138323722 PUSH1 0xC0 DUP6 ADD MSTORE PUSH32 0x2F3E3C73746F70206F66667365743D2231222073746F702D636F6C6F723D2223 PUSH1 0xE0 DUP6 ADD MSTORE PUSH32 0x313233333341222F3E3C2F6C696E6561724772616469656E743E3C2F64656673 PUSH2 0x100 DUP6 ADD MSTORE PUSH32 0x3E3C726563742077696474683D2236303022206865696768743D223630302220 PUSH2 0x120 DUP6 ADD MSTORE PUSH32 0x72783D223434222066696C6C3D2223304231313143222F3E3C7265637420783D PUSH2 0x140 DUP6 ADD MSTORE PUSH32 0x2232382220793D223238222077696474683D2235343422206865696768743D22 PUSH2 0x160 DUP6 ADD MSTORE PUSH32 0x353434222072783D223334222066696C6C3D2275726C2823672922207374726F PUSH2 0x180 DUP6 ADD MSTORE PUSH4 0x35B29E91 PUSH1 0xE1 SHL PUSH2 0x1A0 DUP6 ADD MSTORE DUP13 MLOAD SWAP4 SWAP14 DUP15 SWAP14 SWAP2 SWAP12 PUSH2 0x1A4 SWAP6 SWAP1 SWAP3 DUP16 SWAP1 PUSH2 0x303 SWAP1 DUP4 SWAP1 DUP10 DUP5 ADD SWAP1 DUP12 ADD PUSH2 0xA51 JUMP JUMPDEST PUSH32 0x22207374726F6B652D77696474683D2232222F3E3C636972636C652063783D22 SWAP2 ADD SWAP6 DUP7 ADD MSTORE PUSH25 0x1C99111031BC9E911C991110391E91189C11103334B6361E91 PUSH1 0x39 SHL PUSH2 0x1C4 DUP7 ADD MSTORE DUP1 MLOAD PUSH2 0x1DD SWAP6 SWAP1 SWAP2 PUSH2 0x366 SWAP1 DUP4 SWAP1 DUP9 DUP5 ADD SWAP1 DUP11 ADD PUSH2 0xA51 JUMP JUMPDEST ADD SWAP4 DUP5 ADD PUSH32 0x222F3E3C7465787420783D223132362220793D22313031222066696C6C3D2200 SWAP1 MSTORE PUSH2 0x1FC SWAP4 DUP2 MLOAD SWAP2 DUP3 DUP8 DUP8 DUP5 ADD SWAP3 ADD SWAP2 PUSH2 0x3A5 SWAP3 PUSH2 0xA51 JUMP JUMPDEST PUSH32 0x2220666F6E742D73697A653D2231382220666F6E742D7765696768743D223830 SWAP2 ADD SWAP4 DUP5 ADD MSTORE PUSH23 0x1811103337B73A16B330B6B4B63C9E9120B934B0B6111F PUSH1 0x49 SHL PUSH2 0x21C DUP5 ADD MSTORE DUP1 MLOAD PUSH2 0x233 SWAP4 SWAP1 SWAP2 PUSH2 0x406 SWAP1 DUP4 SWAP1 DUP7 DUP5 ADD SWAP1 DUP9 ADD PUSH2 0xA51 JUMP JUMPDEST ADD SWAP2 DUP3 ADD PUSH32 0x3C2F746578743E3C7465787420783D2235382220793D22323834222066696C6C SWAP1 MSTORE PUSH32 0x3D22234636463846422220666F6E742D73697A653D2234382220666F6E742D77 DUP1 PUSH2 0x253 DUP5 ADD MSTORE PUSH32 0x65696768743D223930302220666F6E742D66616D696C793D22417269616C223E SWAP2 DUP3 PUSH2 0x273 DUP6 ADD MSTORE PUSH2 0x293 SWAP4 DUP2 MLOAD SWAP2 DUP3 DUP8 DUP8 DUP5 ADD SWAP3 ADD SWAP2 PUSH2 0x496 SWAP3 PUSH2 0xA51 JUMP JUMPDEST ADD SWAP3 DUP4 ADD PUSH32 0x3C2F746578743E3C7465787420783D2235382220793D22333434222066696C6C SWAP1 MSTORE PUSH2 0x2B3 DUP4 ADD MSTORE PUSH2 0x2D3 DUP3 ADD MSTORE PUSH2 0x2F3 SWAP3 DUP1 MLOAD DUP1 SWAP4 DUP6 DUP5 ADD SWAP3 ADD SWAP2 PUSH2 0x4E0 SWAP3 PUSH2 0xA51 JUMP JUMPDEST ADD SWAP1 DUP2 ADD PUSH32 0x3C2F746578743E3C7465787420783D2235382220793D22343130222066696C6C SWAP1 MSTORE PUSH32 0x3D22234141423843372220666F6E742D73697A653D2232302220666F6E742D66 DUP1 PUSH2 0x313 DUP4 ADD MSTORE DUP13 PUSH14 0x30B6B4B63C9E9120B934B0B6111F PUSH1 0x91 SHL SWAP3 DUP4 PUSH2 0x333 DUP3 ADD MSTORE PUSH2 0x341 SWAP10 DUP1 MLOAD DUP1 SWAP4 DUP13 DUP5 ADD SWAP3 ADD SWAP2 PUSH2 0x561 SWAP3 PUSH2 0xA51 JUMP JUMPDEST ADD SWAP8 DUP9 ADD PUSH32 0x3C2F746578743E3C7465787420783D2235382220793D22343430222066696C6C SWAP1 MSTORE PUSH2 0x361 DUP9 ADD MSTORE PUSH2 0x381 DUP8 ADD MSTORE PUSH2 0x38F SWAP6 DUP2 MLOAD SWAP2 DUP3 DUP14 DUP10 DUP5 ADD SWAP3 ADD SWAP2 PUSH2 0x5AC SWAP3 PUSH2 0xA51 JUMP JUMPDEST ADD SWAP5 DUP6 ADD PUSH32 0x3C2F746578743E3C7465787420783D2235382220793D22343836222066696C6C SWAP1 MSTORE PUSH2 0x3AF DUP6 ADD PUSH32 0x3D22234439453445462220666F6E742D73697A653D2231382220666F6E742D77 SWAP1 MSTORE PUSH32 0x65696768743D223730302220666F6E742D66616D696C793D22417269616C223E SWAP3 DUP4 PUSH2 0x3CF DUP8 ADD MSTORE PUSH2 0x3EF SWAP6 DUP2 MLOAD SWAP2 DUP3 DUP14 DUP10 DUP5 ADD SWAP3 ADD SWAP2 PUSH2 0x63C SWAP3 PUSH2 0xA51 JUMP JUMPDEST ADD SWAP5 DUP6 ADD PUSH32 0x3C2F746578743E3C7465787420783D2235382220793D22353134222066696C6C SWAP1 MSTORE PUSH32 0x3D22233846413142362220666F6E742D73697A653D2231372220666F6E742D77 SWAP1 DUP2 PUSH2 0x40F DUP8 ADD MSTORE DUP4 PUSH2 0x42F DUP8 ADD MSTORE PUSH2 0x44F SWAP6 DUP2 MLOAD SWAP2 DUP3 DUP14 DUP10 DUP5 ADD SWAP3 ADD SWAP2 PUSH2 0x6AB SWAP3 PUSH2 0xA51 JUMP JUMPDEST ADD SWAP5 DUP6 ADD PUSH32 0x3C2F746578743E3C7465787420783D2235382220793D22353432222066696C6C SWAP1 MSTORE PUSH2 0x46F DUP6 ADD MSTORE DUP2 PUSH2 0x48F DUP6 ADD MSTORE PUSH2 0x4AF SWAP4 DUP2 MLOAD SWAP2 DUP3 DUP12 DUP8 DUP5 ADD SWAP3 ADD SWAP2 PUSH2 0x6F7 SWAP3 PUSH2 0xA51 JUMP JUMPDEST PUSH32 0x3C2F746578743E3C7465787420783D2235382220793D22353638222066696C6C SWAP2 ADD SWAP4 DUP5 ADD MSTORE PUSH32 0x3D22233646383039352220666F6E742D73697A653D2231362220666F6E742D77 PUSH2 0x4CF DUP5 ADD MSTORE PUSH2 0x4EF DUP4 ADD MSTORE PUSH7 0x544F4B454E2023 PUSH1 0xC8 SHL PUSH2 0x50F DUP4 ADD MSTORE DUP1 MLOAD PUSH2 0x516 SWAP3 SWAP1 SWAP2 PUSH2 0x775 SWAP1 DUP4 SWAP1 DUP6 DUP5 ADD SWAP1 DUP12 ADD PUSH2 0xA51 JUMP JUMPDEST ADD SWAP1 DUP2 ADD PUSH13 0x1E17BA32BC3A1F1E17B9BB339F PUSH1 0x99 SHL SWAP1 MSTORE SUB PUSH2 0x503 DUP2 ADD DUP3 MSTORE PUSH2 0x523 ADD PUSH2 0x7A2 SWAP1 DUP3 PUSH2 0xAD7 JUMP JUMPDEST PUSH2 0x7AB SWAP1 PUSH2 0xB47 JUMP JUMPDEST SWAP1 DUP3 MLOAD DUP1 DUP6 DUP2 ADD SWAP4 PUSH26 0x19185D184E9A5B5859D94BDCDD99CADE1B5B0ED8985CD94D8D0B PUSH1 0x32 SHL DUP6 MSTORE DUP1 MLOAD SWAP1 DUP2 DUP9 PUSH1 0x3A DUP6 ADD SWAP3 ADD SWAP2 PUSH2 0x7E8 SWAP3 PUSH2 0xA51 JUMP JUMPDEST DUP2 ADD SUB PUSH1 0x1A DUP2 ADD DUP3 MSTORE PUSH1 0x3A ADD PUSH2 0x7FE SWAP1 DUP3 PUSH2 0xAD7 JUMP JUMPDEST PUSH2 0x807 DUP3 PUSH2 0xE46 JUMP JUMPDEST SWAP2 PUSH2 0x811 DUP2 PUSH2 0x1518 JUMP JUMPDEST SWAP4 PUSH2 0x81B DUP3 PUSH2 0x1CD5 JUMP JUMPDEST SWAP1 PUSH2 0x825 DUP4 PUSH2 0x1EBB JUMP JUMPDEST SWAP3 PUSH2 0x82F SWAP1 PUSH2 0x202B JUMP JUMPDEST SWAP4 DUP8 MLOAD SWAP7 DUP8 SWAP7 PUSH9 0x3D913730B6B2911D11 PUSH1 0xB9 SHL DUP12 DUP10 ADD MSTORE DUP1 MLOAD SWAP1 DUP2 DUP13 PUSH1 0x29 DUP12 ADD SWAP3 ADD SWAP2 PUSH2 0x85B SWAP3 PUSH2 0xA51 JUMP JUMPDEST DUP8 ADD PUSH17 0x1116113232B9B1B934B83A34B7B7111D11 PUSH1 0x79 SHL PUSH1 0x29 DUP3 ADD MSTORE DUP2 MLOAD SWAP2 DUP3 DUP13 PUSH1 0x3A DUP5 ADD SWAP3 ADD SWAP2 PUSH2 0x88C SWAP3 PUSH2 0xA51 JUMP JUMPDEST ADD SWAP1 PUSH11 0x11161134B6B0B3B2911D11 PUSH1 0xA9 SHL PUSH1 0x3A DUP4 ADD MSTORE MLOAD SWAP2 DUP3 PUSH1 0x45 DUP4 ADD PUSH2 0x8B2 SWAP3 PUSH2 0xA51 JUMP JUMPDEST ADD PUSH1 0x45 DUP2 ADD PUSH32 0x222C2261747472696275746573223A5B7B2274726169745F74797065223A2253 SWAP1 MSTORE PUSH17 0x3AB93330B1B29116113B30B63AB2911D11 PUSH1 0x79 SHL PUSH1 0x65 DUP3 ADD MSTORE DUP2 MLOAD SWAP2 DUP3 DUP10 PUSH1 0x76 DUP5 ADD SWAP3 ADD SWAP2 PUSH2 0x909 SWAP3 PUSH2 0xA51 JUMP JUMPDEST ADD PUSH1 0x76 DUP2 ADD PUSH32 0x227D2C7B2274726169745F74797065223A224E6574776F726B222C2276616C75 SWAP1 MSTORE PUSH1 0x96 DUP2 ADD PUSH32 0x65223A225365706F6C6961227D2C7B2274726169745F74797065223A22546F6B SWAP1 MSTORE PUSH16 0x32B71024A21116113B30B63AB2911D11 PUSH1 0x81 SHL PUSH1 0xB6 DUP3 ADD MSTORE DUP2 MLOAD SWAP2 DUP3 DUP9 PUSH1 0xC6 DUP5 ADD SWAP3 ADD SWAP2 PUSH2 0x986 SWAP3 PUSH2 0xA51 JUMP JUMPDEST ADD PUSH2 0x227D PUSH1 0xF0 SHL PUSH1 0xC6 DUP3 ADD MSTORE DUP2 MLOAD SWAP2 DUP3 DUP8 PUSH1 0xC8 DUP5 ADD SWAP3 ADD SWAP2 PUSH2 0x9A7 SWAP3 PUSH2 0xA51 JUMP JUMPDEST ADD PUSH1 0xC8 DUP2 ADD PUSH2 0x5D7D PUSH1 0xF0 SHL SWAP1 MSTORE SUB PUSH1 0xAA DUP2 ADD DUP3 MSTORE PUSH1 0xCA ADD PUSH2 0x9C8 SWAP1 DUP3 PUSH2 0xAD7 JUMP JUMPDEST PUSH2 0x9D1 SWAP1 PUSH2 0xB47 JUMP JUMPDEST SWAP2 DUP2 MLOAD SWAP1 DUP2 DUP2 DUP2 ADD SWAP5 PUSH32 0x646174613A6170706C69636174696F6E2F6A736F6E3B6261736536342C000000 DUP7 MSTORE DUP1 MLOAD SWAP1 DUP2 DUP5 PUSH1 0x3D DUP6 ADD SWAP3 ADD SWAP2 PUSH2 0xA12 SWAP3 PUSH2 0xA51 JUMP JUMPDEST DUP2 ADD SUB PUSH1 0x1D DUP2 ADD DUP4 MSTORE PUSH1 0x3D ADD PUSH2 0xA28 SWAP1 DUP4 PUSH2 0xAD7 JUMP JUMPDEST DUP3 MLOAD SWAP4 DUP5 SWAP3 DUP3 DUP5 MSTORE MLOAD DUP1 SWAP3 DUP5 ADD MSTORE DUP2 DUP5 DUP5 ADD PUSH2 0xA43 SWAP3 PUSH2 0xA51 JUMP JUMPDEST PUSH1 0x1F ADD PUSH1 0x1F NOT AND DUP2 ADD SUB ADD SWAP1 RETURN JUMPDEST PUSH0 JUMPDEST DUP4 DUP2 LT PUSH2 0xA62 JUMPI POP POP PUSH0 SWAP2 ADD MSTORE JUMP JUMPDEST DUP2 DUP2 ADD MLOAD DUP4 DUP3 ADD MSTORE PUSH1 0x20 ADD PUSH2 0xA53 JUMP JUMPDEST PUSH1 0x20 DUP2 ADD SWAP1 DUP2 LT PUSH1 0x1 PUSH1 0x1 PUSH1 0x40 SHL SUB DUP3 GT OR PUSH2 0xA8D JUMPI PUSH1 0x40 MSTORE JUMP JUMPDEST PUSH4 0x4E487B71 PUSH1 0xE0 SHL PUSH0 MSTORE PUSH1 0x41 PUSH1 0x4 MSTORE PUSH1 0x24 PUSH0 REVERT JUMPDEST PUSH1 0x60 DUP2 ADD SWAP1 DUP2 LT PUSH1 0x1 PUSH1 0x1 PUSH1 0x40 SHL SUB DUP3 GT OR PUSH2 0xA8D JUMPI PUSH1 0x40 MSTORE JUMP JUMPDEST PUSH1 0x40 DUP2 ADD SWAP1 DUP2 LT PUSH1 0x1 PUSH1 0x1 PUSH1 0x40 SHL SUB DUP3 GT OR PUSH2 0xA8D JUMPI PUSH1 0x40 MSTORE JUMP JUMPDEST PUSH1 0x1F SWAP1 SWAP2 ADD PUSH1 0x1F NOT AND DUP2 ADD SWAP1 PUSH1 0x1 PUSH1 0x1 PUSH1 0x40 SHL SUB DUP3 GT SWAP1 DUP3 LT OR PUSH2 0xA8D JUMPI PUSH1 0x40 MSTORE JUMP JUMPDEST PUSH1 0x1 PUSH1 0x1 PUSH1 0x40 SHL SUB DUP2 GT PUSH2 0xA8D JUMPI PUSH1 0x1F ADD PUSH1 0x1F NOT AND PUSH1 0x20 ADD SWAP1 JUMP JUMPDEST SWAP1 PUSH2 0xB1F DUP3 PUSH2 0xAFA JUMP JUMPDEST PUSH2 0xB2C PUSH1 0x40 MLOAD SWAP2 DUP3 PUSH2 0xAD7 JUMP JUMPDEST DUP3 DUP2 MSTORE DUP1 SWAP3 PUSH2 0xB3D PUSH1 0x1F NOT SWAP2 PUSH2 0xAFA JUMP JUMPDEST ADD SWAP1 PUSH1 0x20 CALLDATASIZE SWAP2 ADD CALLDATACOPY JUMP JUMPDEST SWAP1 DUP2 MLOAD ISZERO PUSH2 0xCA0 JUMPI PUSH1 0x40 MLOAD SWAP2 PUSH2 0xB5C DUP4 PUSH2 0xAA1 JUMP JUMPDEST PUSH1 0x40 DUP4 MSTORE PUSH32 0x4142434445464748494A4B4C4D4E4F505152535455565758595A616263646566 PUSH1 0x20 DUP5 ADD MSTORE PUSH32 0x6768696A6B6C6D6E6F707172737475767778797A303132333435363738392B2F PUSH1 0x40 DUP5 ADD MSTORE DUP1 MLOAD SWAP3 PUSH1 0x2 SWAP2 PUSH1 0x2 DUP6 ADD DUP1 SWAP6 GT PUSH2 0xC8C JUMPI PUSH1 0x3 SWAP5 DUP6 SWAP1 DIV PUSH1 0x1 PUSH1 0x1 PUSH1 0xFE SHL SUB DUP2 AND DUP2 SUB PUSH2 0xC8C JUMPI PUSH2 0xBE2 SWAP1 PUSH1 0x2 SWAP7 SWAP5 SWAP7 SHL PUSH2 0xB15 JUMP JUMPDEST SWAP3 PUSH1 0x20 DUP5 ADD SWAP3 DUP3 SWAP2 DUP4 MLOAD DUP5 ADD SWAP8 PUSH1 0x20 DUP10 ADD SWAP3 DUP4 MLOAD SWAP5 PUSH0 DUP6 MSTORE JUMPDEST DUP11 DUP2 LT PUSH2 0xC3F JUMPI POP POP POP POP PUSH1 0x3 SWAP4 SWAP5 SWAP6 SWAP7 POP MSTORE MLOAD MOD DUP1 PUSH1 0x1 EQ PUSH2 0xC2D JUMPI PUSH1 0x2 EQ PUSH2 0xC23 JUMPI POP SWAP1 JUMP JUMPDEST PUSH1 0x3D SWAP1 PUSH0 NOT ADD MSTORE8 SWAP1 JUMP JUMPDEST POP PUSH1 0x3D SWAP1 DUP2 PUSH0 NOT DUP3 ADD MSTORE8 PUSH1 0x1 NOT ADD MSTORE8 SWAP1 JUMP JUMPDEST DUP4 PUSH1 0x4 SWAP2 SWAP12 SWAP9 SWAP12 ADD SWAP11 DUP12 MLOAD PUSH1 0x1 SWAP1 PUSH1 0x3F SWAP1 DUP3 DUP3 DUP3 PUSH1 0x12 SHR AND DUP8 ADD ADD MLOAD DUP5 MSTORE8 DUP3 DUP3 DUP3 PUSH1 0xC SHR AND DUP8 ADD ADD MLOAD DUP4 DUP6 ADD MSTORE8 DUP3 DUP3 DUP3 PUSH1 0x6 SHR AND DUP8 ADD ADD MLOAD DUP8 DUP6 ADD MSTORE8 AND DUP5 ADD ADD MLOAD DUP6 DUP3 ADD MSTORE8 ADD SWAP7 SWAP10 PUSH2 0xBFB JUMP JUMPDEST PUSH4 0x4E487B71 PUSH1 0xE0 SHL PUSH0 MSTORE PUSH1 0x11 PUSH1 0x4 MSTORE PUSH1 0x24 PUSH0 REVERT JUMPDEST SWAP1 POP PUSH1 0x40 MLOAD PUSH2 0xCAE DUP2 PUSH2 0xA72 JUMP JUMPDEST PUSH0 DUP2 MSTORE SWAP1 JUMP JUMPDEST PUSH1 0x40 MLOAD SWAP1 PUSH2 0xCC1 DUP3 PUSH2 0xABC JUMP JUMPDEST PUSH1 0x1B DUP3 MSTORE PUSH27 0x5269736B4C656E732057616C6C657420436F6C6C65637469626C65 PUSH1 0x28 SHL PUSH1 0x20 DUP4 ADD MSTORE JUMP JUMPDEST MLOAD SWAP1 PUSH1 0x1 PUSH1 0x1 PUSH1 0xA0 SHL SUB DUP3 AND DUP3 SUB PUSH2 0x72 JUMPI JUMP JUMPDEST DUP2 PUSH1 0x1F DUP3 ADD SLT ISZERO PUSH2 0x72 JUMPI DUP1 MLOAD PUSH2 0xD15 DUP2 PUSH2 0xAFA JUMP JUMPDEST SWAP3 PUSH2 0xD23 PUSH1 0x40 MLOAD SWAP5 DUP6 PUSH2 0xAD7 JUMP JUMPDEST DUP2 DUP5 MSTORE PUSH1 0x20 DUP3 DUP5 ADD ADD GT PUSH2 0x72 JUMPI PUSH2 0xD41 SWAP2 PUSH1 0x20 DUP1 DUP6 ADD SWAP2 ADD PUSH2 0xA51 JUMP JUMPDEST SWAP1 JUMP JUMPDEST PUSH1 0xC0 DUP2 DUP4 SUB SLT PUSH2 0x72 JUMPI PUSH2 0xD57 DUP2 PUSH2 0xCEB JUMP JUMPDEST PUSH1 0x20 DUP3 ADD MLOAD SWAP1 SWAP4 SWAP1 PUSH1 0x1 PUSH1 0x1 PUSH1 0x40 SHL SUB SWAP1 DUP2 DUP2 GT PUSH2 0x72 JUMPI DUP5 PUSH2 0xD7B SWAP2 DUP6 ADD PUSH2 0xCFF JUMP JUMPDEST SWAP4 PUSH1 0x40 DUP5 ADD MLOAD SWAP2 DUP3 GT PUSH2 0x72 JUMPI PUSH2 0xD93 SWAP2 DUP5 ADD PUSH2 0xCFF JUMP JUMPDEST SWAP2 PUSH1 0x60 DUP2 ADD MLOAD SWAP2 PUSH1 0xA0 PUSH1 0x80 DUP4 ADD MLOAD SWAP3 ADD MLOAD SWAP1 JUMP JUMPDEST MLOAD SWAP1 PUSH2 0xFFFF DUP3 AND DUP3 SUB PUSH2 0x72 JUMPI JUMP JUMPDEST SWAP2 SWAP1 SWAP2 PUSH1 0xA0 DUP2 DUP5 SUB SLT PUSH2 0x72 JUMPI PUSH2 0xDCC DUP2 PUSH2 0xCEB JUMP JUMPDEST SWAP3 PUSH2 0xDD9 PUSH1 0x20 DUP4 ADD PUSH2 0xDA7 JUMP JUMPDEST SWAP3 PUSH1 0x40 DUP4 ADD MLOAD SWAP3 PUSH1 0x60 DUP2 ADD MLOAD SWAP3 PUSH1 0x80 DUP3 ADD MLOAD PUSH1 0x1 DUP1 PUSH1 0x40 SHL SUB DUP2 GT PUSH2 0x72 JUMPI PUSH2 0xD41 SWAP3 ADD PUSH2 0xCFF JUMP JUMPDEST SWAP1 PUSH1 0x80 DUP3 DUP3 SUB SLT PUSH2 0x72 JUMPI PUSH2 0xE16 DUP3 PUSH2 0xCEB JUMP JUMPDEST SWAP3 PUSH2 0xE23 PUSH1 0x20 DUP5 ADD PUSH2 0xDA7 JUMP JUMPDEST SWAP3 PUSH1 0x40 DUP2 ADD MLOAD SWAP3 PUSH1 0x60 DUP3 ADD MLOAD PUSH1 0x1 DUP1 PUSH1 0x40 SHL SUB DUP2 GT PUSH2 0x72 JUMPI PUSH2 0xD41 SWAP3 ADD PUSH2 0xCFF JUMP JUMPDEST PUSH1 0x64 DUP2 GT DUP1 PUSH2 0x150D JUMPI JUMPDEST PUSH2 0x13DF JUMPI PUSH1 0xC8 DUP2 GT DUP1 PUSH2 0x13D4 JUMPI JUMPDEST PUSH2 0x12F5 JUMPI PUSH2 0xE6B DUP2 PUSH2 0x3DD4 JUMP JUMPDEST PUSH2 0x11D3 JUMPI PUSH2 0x3E8 DUP2 GT DUP1 PUSH2 0x11C6 JUMPI JUMPDEST PUSH2 0x1161 JUMPI PUSH2 0xE87 DUP2 PUSH2 0x3EEA JUMP JUMPDEST PUSH2 0x1092 JUMPI PUSH2 0xE94 DUP2 PUSH2 0x3F66 JUMP JUMPDEST PUSH2 0xFBC JUMPI PUSH2 0xEA1 DUP2 PUSH2 0x3FE0 JUMP JUMPDEST PUSH2 0xEDB JUMPI POP PUSH1 0x40 MLOAD PUSH2 0xEB2 DUP2 PUSH2 0xABC JUMP JUMPDEST PUSH1 0x19 DUP2 MSTORE PUSH25 0x5269736B4C656E732044656D6F20436F6C6C65637469626C65 PUSH1 0x38 SHL PUSH1 0x20 DUP3 ADD MSTORE SWAP1 JUMP JUMPDEST PUSH1 0x40 MLOAD PUSH4 0xCB77149 PUSH1 0xE2 SHL DUP2 MSTORE PUSH1 0x4 DUP2 ADD SWAP2 SWAP1 SWAP2 MSTORE PUSH0 DUP2 PUSH1 0x24 DUP2 PUSH32 0x0 PUSH1 0x1 PUSH1 0x1 PUSH1 0xA0 SHL SUB AND GAS STATICCALL DUP1 ISZERO PUSH2 0xFB1 JUMPI PUSH2 0xF38 SWAP2 PUSH0 SWAP2 PUSH2 0xF8B JUMPI JUMPDEST POP PUSH2 0x3E11 JUMP JUMPDEST PUSH2 0xD41 PUSH1 0x3D PUSH1 0x40 MLOAD DUP1 SWAP4 PUSH32 0x5269736B4C656E7320506C656467652043726564656E7469616C202D20000000 PUSH1 0x20 DUP4 ADD MSTORE PUSH2 0xF7B DUP2 MLOAD DUP1 SWAP3 PUSH1 0x20 DUP7 DUP7 ADD SWAP2 ADD PUSH2 0xA51 JUMP JUMPDEST DUP2 ADD SUB PUSH1 0x1D DUP2 ADD DUP5 MSTORE ADD DUP3 PUSH2 0xAD7 JUMP JUMPDEST PUSH2 0xFA7 SWAP2 POP RETURNDATASIZE DUP1 PUSH0 DUP4 RETURNDATACOPY PUSH2 0xF9F DUP2 DUP4 PUSH2 0xAD7 JUMP JUMPDEST DUP2 ADD SWAP1 PUSH2 0xE02 JUMP JUMPDEST POP POP SWAP1 POP PUSH0 PUSH2 0xF32 JUMP JUMPDEST PUSH1 0x40 MLOAD RETURNDATASIZE PUSH0 DUP3 RETURNDATACOPY RETURNDATASIZE SWAP1 REVERT JUMPDEST PUSH1 0x40 MLOAD PUSH4 0xCC272B11 PUSH1 0xE0 SHL DUP2 MSTORE PUSH1 0x4 DUP2 ADD SWAP2 SWAP1 SWAP2 MSTORE PUSH0 DUP2 PUSH1 0x24 DUP2 PUSH32 0x0 PUSH1 0x1 PUSH1 0x1 PUSH1 0xA0 SHL SUB AND GAS STATICCALL DUP1 ISZERO PUSH2 0xFB1 JUMPI PUSH2 0x1018 SWAP2 PUSH0 SWAP2 PUSH2 0x106B JUMPI POP PUSH2 0x3E11 JUMP JUMPDEST PUSH2 0xD41 PUSH1 0x3E PUSH1 0x40 MLOAD DUP1 SWAP4 PUSH32 0x5269736B4C656E7320526563656970742043726564656E7469616C202D200000 PUSH1 0x20 DUP4 ADD MSTORE PUSH2 0x105B DUP2 MLOAD DUP1 SWAP3 PUSH1 0x20 DUP7 DUP7 ADD SWAP2 ADD PUSH2 0xA51 JUMP JUMPDEST DUP2 ADD SUB PUSH1 0x1E DUP2 ADD DUP5 MSTORE ADD DUP3 PUSH2 0xAD7 JUMP JUMPDEST PUSH2 0x1087 SWAP2 POP RETURNDATASIZE DUP1 PUSH0 DUP4 RETURNDATACOPY PUSH2 0x107F DUP2 DUP4 PUSH2 0xAD7 JUMP JUMPDEST DUP2 ADD SWAP1 PUSH2 0xDB6 JUMP JUMPDEST POP POP POP SWAP1 POP PUSH0 PUSH2 0xF32 JUMP JUMPDEST PUSH1 0x40 MLOAD PUSH4 0x18BC41F PUSH1 0xE7 SHL DUP2 MSTORE PUSH1 0x4 DUP2 ADD SWAP2 SWAP1 SWAP2 MSTORE PUSH0 DUP2 PUSH1 0x24 DUP2 PUSH32 0x0 PUSH1 0x1 PUSH1 0x1 PUSH1 0xA0 SHL SUB AND GAS STATICCALL SWAP1 DUP2 ISZERO PUSH2 0xFB1 JUMPI PUSH0 SWAP2 PUSH2 0x1139 JUMPI JUMPDEST POP PUSH2 0xD41 PUSH1 0x3C PUSH1 0x40 MLOAD DUP1 SWAP4 PUSH28 0x2934B9B5A632B739902830B832B91021B932B232B73A34B0B610169 PUSH1 0x25 SHL PUSH1 0x20 DUP4 ADD MSTORE PUSH2 0x1129 DUP2 MLOAD DUP1 SWAP3 PUSH1 0x20 DUP7 DUP7 ADD SWAP2 ADD PUSH2 0xA51 JUMP JUMPDEST DUP2 ADD SUB PUSH1 0x1C DUP2 ADD DUP5 MSTORE ADD DUP3 PUSH2 0xAD7 JUMP JUMPDEST PUSH2 0x1155 SWAP2 POP RETURNDATASIZE DUP1 PUSH0 DUP4 RETURNDATACOPY PUSH2 0x114D DUP2 DUP4 PUSH2 0xAD7 JUMP JUMPDEST DUP2 ADD SWAP1 PUSH2 0xD44 JUMP JUMPDEST POP POP POP POP SWAP1 POP PUSH0 PUSH2 0x10E6 JUMP JUMPDEST PUSH2 0xFFFF PUSH2 0x1170 PUSH2 0x1176 SWAP3 PUSH2 0x3DC4 JUMP JUMPDEST AND PUSH2 0x3E11 JUMP JUMPDEST PUSH2 0xD41 PUSH1 0x3A PUSH1 0x40 MLOAD DUP1 SWAP4 PUSH26 0x2934B9B5A632B739902BB2B0B63A34102932B1B2B4B83A10169 PUSH1 0x35 SHL PUSH1 0x20 DUP4 ADD MSTORE PUSH2 0x11B6 DUP2 MLOAD DUP1 SWAP3 PUSH1 0x20 DUP7 DUP7 ADD SWAP2 ADD PUSH2 0xA51 JUMP JUMPDEST DUP2 ADD SUB PUSH1 0x1A DUP2 ADD DUP5 MSTORE ADD DUP3 PUSH2 0xAD7 JUMP JUMPDEST POP PUSH3 0x103E7 DUP2 GT ISZERO PUSH2 0xE7A JUMP JUMPDEST PUSH1 0x6 DUP2 EQ PUSH2 0x12BF JUMPI PUSH1 0x7 DUP2 EQ PUSH2 0x1288 JUMPI PUSH1 0x8 DUP2 EQ PUSH2 0x1259 JUMPI PUSH1 0x9 EQ PUSH2 0x1227 JUMPI PUSH1 0x40 MLOAD PUSH2 0x11FE DUP2 PUSH2 0xABC JUMP JUMPDEST PUSH1 0x19 DUP2 MSTORE PUSH25 0x5269736B4C656E732050726F74656374697665204865646765 PUSH1 0x38 SHL PUSH1 0x20 DUP3 ADD MSTORE SWAP1 JUMP JUMPDEST PUSH1 0x40 MLOAD PUSH2 0x1233 DUP2 PUSH2 0xABC JUMP JUMPDEST PUSH1 0x16 DUP2 MSTORE PUSH22 0x5269736B4C656E732050657270204C65766572616765 PUSH1 0x50 SHL PUSH1 0x20 DUP3 ADD MSTORE SWAP1 JUMP JUMPDEST POP PUSH1 0x40 MLOAD PUSH2 0x1266 DUP2 PUSH2 0xABC JUMP JUMPDEST PUSH1 0x12 DUP2 MSTORE PUSH18 0x5269736B4C656E732053706F74204C6F6F7 PUSH1 0x74 SHL PUSH1 0x20 DUP3 ADD MSTORE SWAP1 JUMP JUMPDEST POP PUSH1 0x40 MLOAD PUSH2 0x1295 DUP2 PUSH2 0xABC JUMP JUMPDEST PUSH1 0x1A DUP2 MSTORE PUSH26 0x149A5CDAD3195B9CC814185C195C8813195859195C989BD85C99 PUSH1 0x32 SHL PUSH1 0x20 DUP3 ADD MSTORE SWAP1 JUMP JUMPDEST POP PUSH1 0x40 MLOAD PUSH2 0x12CC DUP2 PUSH2 0xABC JUMP JUMPDEST PUSH1 0x19 DUP2 MSTORE PUSH25 0x5269736B4C656E73205061706572204261736520436865636B PUSH1 0x38 SHL PUSH1 0x20 DUP3 ADD MSTORE SWAP1 JUMP JUMPDEST PUSH2 0x1300 PUSH1 0xFF SWAP2 PUSH2 0x3DB5 JUMP JUMPDEST AND PUSH1 0x1 DUP2 EQ PUSH2 0x138B JUMPI PUSH1 0x2 EQ PUSH2 0x1353 JUMPI PUSH1 0x40 MLOAD PUSH2 0x131C DUP2 PUSH2 0xAA1 JUMP JUMPDEST PUSH1 0x21 DUP2 MSTORE PUSH32 0x5269736B4C656E73205765616C7468204475616C2050726F6669742042616467 PUSH1 0x20 DUP3 ADD MSTORE PUSH1 0x65 PUSH1 0xF8 SHL PUSH1 0x40 DUP3 ADD MSTORE SWAP1 JUMP JUMPDEST PUSH1 0x40 MLOAD PUSH2 0x135F DUP2 PUSH2 0xABC JUMP JUMPDEST PUSH1 0x1C DUP2 MSTORE PUSH28 0x5269736B4C656E73205765616C746820506C65646765204261646765 PUSH1 0x20 SHL PUSH1 0x20 DUP3 ADD MSTORE SWAP1 JUMP JUMPDEST POP PUSH1 0x40 MLOAD PUSH2 0x1398 DUP2 PUSH2 0xAA1 JUMP JUMPDEST PUSH1 0x26 DUP2 MSTORE PUSH32 0x5269736B4C656E73205765616C74682050726F66697461626C65205472616465 PUSH1 0x20 DUP3 ADD MSTORE PUSH6 0x204261646765 PUSH1 0xD0 SHL PUSH1 0x40 DUP3 ADD MSTORE SWAP1 JUMP JUMPDEST POP PUSH1 0xCB DUP2 GT ISZERO PUSH2 0xE5E JUMP JUMPDEST PUSH2 0x13EA PUSH1 0xFF SWAP2 PUSH2 0x3DA6 JUMP JUMPDEST AND PUSH1 0x1 DUP2 EQ PUSH2 0x14D4 JUMPI PUSH1 0x2 DUP2 EQ PUSH2 0x14CB JUMPI PUSH1 0x3 DUP2 EQ PUSH2 0x1491 JUMPI PUSH1 0x4 EQ PUSH2 0x144E JUMPI PUSH1 0x40 MLOAD PUSH2 0x1416 DUP2 PUSH2 0xAA1 JUMP JUMPDEST PUSH1 0x22 DUP2 MSTORE PUSH32 0x5269736B4C656E73205061706572205072657669657720436F6C6C6563746962 PUSH1 0x20 DUP3 ADD MSTORE PUSH2 0x6C65 PUSH1 0xF0 SHL PUSH1 0x40 DUP3 ADD MSTORE SWAP1 JUMP JUMPDEST PUSH1 0x40 MLOAD PUSH2 0x145A DUP2 PUSH2 0xAA1 JUMP JUMPDEST PUSH1 0x21 DUP2 MSTORE PUSH32 0x5269736B4C656E732050726F64756374205175697A20436F6C6C65637469626C PUSH1 0x20 DUP3 ADD MSTORE PUSH1 0x65 PUSH1 0xF8 SHL PUSH1 0x40 DUP3 ADD MSTORE SWAP1 JUMP JUMPDEST POP PUSH1 0x40 MLOAD PUSH2 0x149E DUP2 PUSH2 0xABC JUMP JUMPDEST PUSH1 0x20 DUP2 MSTORE PUSH32 0x5269736B4C656E73205269736B2052657669657720436F6C6C65637469626C65 PUSH1 0x20 DUP3 ADD MSTORE SWAP1 JUMP JUMPDEST POP PUSH2 0xD41 PUSH2 0xCB4 JUMP JUMPDEST POP PUSH1 0x40 MLOAD PUSH2 0x14E1 DUP2 PUSH2 0xABC JUMP JUMPDEST PUSH1 0x1C DUP2 MSTORE PUSH28 0x5269736B4C656E732057656C636F6D6520436F6C6C65637469626C65 PUSH1 0x20 SHL PUSH1 0x20 DUP3 ADD MSTORE SWAP1 JUMP JUMPDEST POP PUSH1 0x69 DUP2 GT ISZERO PUSH2 0xE50 JUMP JUMPDEST PUSH2 0x1521 DUP2 PUSH2 0x3EEA JUMP JUMPDEST PUSH2 0x1B03 JUMPI PUSH2 0x152E DUP2 PUSH2 0x3F66 JUMP JUMPDEST PUSH2 0x1986 JUMPI PUSH2 0x153B DUP2 PUSH2 0x3FE0 JUMP JUMPDEST PUSH2 0x182A JUMPI PUSH2 0x3E8 DUP2 GT DUP1 PUSH2 0x181D JUMPI JUMPDEST PUSH2 0x16C9 JUMPI PUSH2 0x1557 DUP2 PUSH2 0x3DD4 JUMP JUMPDEST PUSH2 0x1677 JUMPI PUSH1 0xC8 DUP2 GT DUP1 PUSH2 0x166C JUMPI JUMPDEST PUSH2 0x1625 JUMPI PUSH1 0x64 DUP2 GT SWAP1 DUP2 PUSH2 0x1619 JUMPI JUMPDEST POP PUSH2 0x15CB JUMPI PUSH1 0x40 MLOAD PUSH2 0x1585 DUP2 PUSH2 0xAA1 JUMP JUMPDEST PUSH1 0x30 DUP2 MSTORE PUSH32 0x41205365706F6C696120636F6C6C65637469626C6520666F7220746865205269 PUSH1 0x20 DUP3 ADD MSTORE PUSH16 0x39B5A632B739903232B6B790343AB117 PUSH1 0x81 SHL PUSH1 0x40 DUP3 ADD MSTORE SWAP1 JUMP JUMPDEST PUSH1 0x40 MLOAD PUSH2 0x15D7 DUP2 PUSH2 0xAA1 JUMP JUMPDEST PUSH1 0x2C DUP2 MSTORE PUSH32 0x5365706F6C6961206F6E626F617264696E6720636F6C6C65637469626C652066 PUSH1 0x20 DUP3 ADD MSTORE PUSH12 0x37B9102934B9B5A632B73997 PUSH1 0xA1 SHL PUSH1 0x40 DUP3 ADD MSTORE SWAP1 JUMP JUMPDEST PUSH1 0x69 SWAP2 POP GT ISZERO PUSH0 PUSH2 0x1574 JUMP JUMPDEST POP PUSH1 0x40 MLOAD PUSH2 0x1632 DUP2 PUSH2 0xAA1 JUMP JUMPDEST PUSH1 0x24 DUP2 MSTORE PUSH32 0x5365706F6C6961205765616C746820776F726B666C6F7720636F6C6C65637469 PUSH1 0x20 DUP3 ADD MSTORE PUSH4 0x31363297 PUSH1 0xE1 SHL PUSH1 0x40 DUP3 ADD MSTORE SWAP1 JUMP JUMPDEST POP PUSH1 0xCB DUP2 GT ISZERO PUSH2 0x1565 JUMP JUMPDEST POP PUSH1 0x40 MLOAD PUSH2 0x1684 DUP2 PUSH2 0xAA1 JUMP JUMPDEST PUSH1 0x2F DUP2 MSTORE PUSH32 0x5365706F6C69612070617065722D74726164696E6720616368696576656D656E PUSH1 0x20 DUP3 ADD MSTORE PUSH15 0x3A103337B9102934B9B5A632B73997 PUSH1 0x89 SHL PUSH1 0x40 DUP3 ADD MSTORE SWAP1 JUMP JUMPDEST PUSH2 0x16D5 PUSH2 0xFFFF SWAP2 PUSH2 0x3DC4 JUMP JUMPDEST AND PUSH2 0xD41 PUSH1 0xA0 PUSH2 0x16E4 DUP4 PUSH2 0x3E11 JUMP JUMPDEST PUSH2 0x16ED DUP5 PUSH2 0x42E3 JUMP JUMPDEST SWAP4 PUSH2 0x1700 PUSH2 0x16FA DUP3 PUSH2 0x4199 JUMP JUMPDEST SWAP2 PUSH2 0x423D JUMP JUMPDEST SWAP1 PUSH1 0x40 MLOAD SWAP6 DUP7 SWAP4 PUSH27 0x29B2B837B634B0902BB2B0B63A34103932B1B2B4B83A103337B91 PUSH1 0x2D SHL PUSH1 0x20 DUP7 ADD MSTORE PUSH2 0x173F DUP2 MLOAD DUP1 SWAP3 PUSH1 0x20 PUSH1 0x3B DUP10 ADD SWAP2 ADD PUSH2 0xA51 JUMP JUMPDEST DUP5 ADD PUSH18 0x1710283937B23AB1BA103232BA30B4B61D1 PUSH1 0x75 SHL PUSH1 0x3B DUP3 ADD MSTORE PUSH2 0x1770 DUP3 MLOAD DUP1 SWAP4 PUSH1 0x20 PUSH1 0x4D DUP6 ADD SWAP2 ADD PUSH2 0xA51 JUMP JUMPDEST ADD PUSH16 0x1710283937B23AB1BA103A3CB8329D1 PUSH1 0x85 SHL PUSH1 0x4D DUP3 ADD MSTORE PUSH2 0x179E DUP3 MLOAD DUP1 SWAP4 PUSH1 0x20 PUSH1 0x5D DUP6 ADD SWAP2 ADD PUSH2 0xA51 JUMP JUMPDEST ADD PUSH12 0x171026B0BA3AB934BA3C9D1 PUSH1 0xA5 SHL PUSH1 0x5D DUP3 ADD MSTORE PUSH2 0x17C8 DUP3 MLOAD DUP1 SWAP4 PUSH1 0x20 PUSH1 0x69 DUP6 ADD SWAP2 ADD PUSH2 0xA51 JUMP JUMPDEST ADD PUSH32 0x2E205075726368617365206461746520697320656D6974746564206279205072 PUSH1 0x69 DUP3 ADD MSTORE PUSH23 0x37B23AB1BA2932B1B2B4B83A29BAB139B1B934B132B217 PUSH1 0x49 SHL PUSH1 0x89 DUP3 ADD MSTORE SUB PUSH1 0x80 DUP2 ADD DUP5 MSTORE ADD DUP3 PUSH2 0xAD7 JUMP JUMPDEST POP PUSH3 0x103E7 DUP2 GT ISZERO PUSH2 0x154A JUMP JUMPDEST PUSH1 0x40 MLOAD PUSH4 0xCB77149 PUSH1 0xE2 SHL DUP2 MSTORE PUSH1 0x4 DUP2 ADD SWAP2 SWAP1 SWAP2 MSTORE PUSH0 DUP2 PUSH1 0x24 DUP2 PUSH32 0x0 PUSH1 0x1 PUSH1 0x1 PUSH1 0xA0 SHL SUB AND GAS STATICCALL DUP1 ISZERO PUSH2 0xFB1 JUMPI PUSH0 DUP1 PUSH0 SWAP3 PUSH2 0x1953 JUMPI JUMPDEST PUSH2 0xD41 SWAP3 SWAP4 POP SWAP1 PUSH2 0x189A PUSH2 0x1894 PUSH1 0x61 SWAP4 PUSH2 0x3E11 JUMP JUMPDEST SWAP2 PUSH2 0x1EBB JUMP JUMPDEST PUSH1 0x40 MLOAD SWAP5 DUP6 SWAP3 PUSH32 0x57616C6C657420706C656467652063726564656E7469616C20666F7220000000 PUSH1 0x20 DUP6 ADD MSTORE PUSH2 0x18DA DUP2 MLOAD DUP1 SWAP3 PUSH1 0x20 PUSH1 0x3D DUP9 ADD SWAP2 ADD PUSH2 0xA51 JUMP JUMPDEST DUP4 ADD PUSH10 0x1710283632B233B2B21 PUSH1 0xB5 SHL PUSH1 0x3D DUP3 ADD MSTORE PUSH2 0x1903 DUP3 MLOAD DUP1 SWAP4 PUSH1 0x20 PUSH1 0x47 DUP6 ADD SWAP2 ADD PUSH2 0xA51 JUMP JUMPDEST ADD PUSH5 0x103337B91 PUSH1 0xDD SHL PUSH1 0x47 DUP3 ADD MSTORE PUSH2 0x1926 DUP3 MLOAD DUP1 SWAP4 PUSH1 0x20 PUSH1 0x4C DUP6 ADD SWAP2 ADD PUSH2 0xA51 JUMP JUMPDEST ADD PUSH21 0x10282A1037B3103937BABA329039BAB83837B93A17 PUSH1 0x59 SHL PUSH1 0x4C DUP3 ADD MSTORE SUB PUSH1 0x41 DUP2 ADD DUP5 MSTORE ADD DUP3 PUSH2 0xAD7 JUMP JUMPDEST POP POP POP PUSH2 0xD41 PUSH1 0x61 PUSH2 0x189A PUSH2 0x1974 PUSH2 0x1894 SWAP5 RETURNDATASIZE DUP1 PUSH0 DUP4 RETURNDATACOPY PUSH2 0xF9F DUP2 DUP4 PUSH2 0xAD7 JUMP JUMPDEST SWAP2 SWAP7 POP SWAP1 SWAP5 POP SWAP3 POP DUP5 SWAP2 POP PUSH2 0x187F SWAP1 POP JUMP JUMPDEST PUSH1 0x40 MLOAD PUSH4 0xCC272B11 PUSH1 0xE0 SHL DUP2 MSTORE PUSH1 0x4 DUP2 ADD SWAP2 SWAP1 SWAP2 MSTORE PUSH0 DUP2 PUSH1 0x24 DUP2 PUSH32 0x0 PUSH1 0x1 PUSH1 0x1 PUSH1 0xA0 SHL SUB AND GAS STATICCALL DUP1 ISZERO PUSH2 0xFB1 JUMPI PUSH0 SWAP2 PUSH0 SWAP2 PUSH2 0x1ADA JUMPI JUMPDEST POP PUSH1 0x67 PUSH2 0xD41 SWAP2 PUSH2 0x19EB DUP5 PUSH2 0x3E11 JUMP JUMPDEST SWAP1 PUSH2 0x19FE PUSH2 0x19F8 DUP7 PUSH2 0x4199 JUMP JUMPDEST SWAP6 PUSH2 0x423D JUMP JUMPDEST PUSH1 0x40 MLOAD SWAP6 DUP7 SWAP4 PUSH32 0x57616C6C657420726563656970742063726564656E7469616C20666F72200000 PUSH1 0x20 DUP7 ADD MSTORE PUSH2 0x1A3E DUP2 MLOAD DUP1 SWAP3 PUSH1 0x20 PUSH1 0x3E DUP10 ADD SWAP2 ADD PUSH2 0xA51 JUMP JUMPDEST DUP5 ADD PUSH16 0x1710283937B23AB1BA103A3CB8329D1 PUSH1 0x85 SHL PUSH1 0x3E DUP3 ADD MSTORE PUSH2 0x1A6D DUP3 MLOAD DUP1 SWAP4 PUSH1 0x20 PUSH1 0x4E DUP6 ADD SWAP2 ADD PUSH2 0xA51 JUMP JUMPDEST ADD PUSH12 0x171026B0BA3AB934BA3C9D1 PUSH1 0xA5 SHL PUSH1 0x4E DUP3 ADD MSTORE PUSH2 0x1A97 DUP3 MLOAD DUP1 SWAP4 PUSH1 0x20 PUSH1 0x5A DUP6 ADD SWAP2 ADD PUSH2 0xA51 JUMP JUMPDEST ADD PUSH12 0x1710283AB931B430B9B2B21 PUSH1 0xA5 SHL PUSH1 0x5A DUP3 ADD MSTORE PUSH2 0x1AC1 DUP3 MLOAD DUP1 SWAP4 PUSH1 0x20 PUSH1 0x66 DUP6 ADD SWAP2 ADD PUSH2 0xA51 JUMP JUMPDEST ADD PUSH1 0x17 PUSH1 0xF9 SHL PUSH1 0x66 DUP3 ADD MSTORE SUB PUSH1 0x47 DUP2 ADD DUP5 MSTORE ADD DUP3 PUSH2 0xAD7 JUMP JUMPDEST PUSH1 0x67 SWAP3 POP PUSH2 0xD41 SWAP2 POP PUSH2 0x1AF6 SWAP1 RETURNDATASIZE DUP1 PUSH0 DUP4 RETURNDATACOPY PUSH2 0x107F DUP2 DUP4 PUSH2 0xAD7 JUMP JUMPDEST SWAP6 SWAP4 POP POP POP SWAP3 SWAP2 POP PUSH2 0x19DB JUMP JUMPDEST PUSH1 0x40 MLOAD PUSH4 0x18BC41F PUSH1 0xE7 SHL DUP2 MSTORE PUSH1 0x4 DUP2 ADD SWAP2 SWAP1 SWAP2 MSTORE PUSH0 DUP2 PUSH1 0x24 DUP2 PUSH32 0x0 PUSH1 0x1 PUSH1 0x1 PUSH1 0xA0 SHL SUB AND GAS STATICCALL DUP1 ISZERO PUSH2 0xFB1 JUMPI PUSH0 DUP1 PUSH0 SWAP2 PUSH0 SWAP3 PUSH0 SWAP5 PUSH2 0x1C96 JUMPI JUMPDEST PUSH2 0xD41 SWAP5 SWAP6 POP SWAP1 PUSH2 0x1C7D PUSH2 0x1B85 PUSH2 0x1B7F PUSH2 0x1B79 PUSH1 0x7C SWAP8 SWAP7 SWAP6 PUSH2 0x4059 JUMP JUMPDEST SWAP6 PUSH2 0x40DD JUMP JUMPDEST SWAP8 PUSH2 0x40DD JUMP JUMPDEST PUSH1 0x40 MLOAD SWAP8 DUP9 SWAP6 PUSH1 0x20 SWAP5 PUSH32 0x5061706572206C6561646572626F617264207375626D697373696F6E20637265 DUP7 DUP10 ADD MSTORE PUSH12 0x3232B73A34B0B6103337B91 PUSH1 0xA5 SHL PUSH1 0x40 DUP10 ADD MSTORE PUSH2 0x1BDB DUP2 MLOAD DUP1 SWAP3 DUP9 PUSH1 0x4C DUP13 ADD SWAP2 ADD PUSH2 0xA51 JUMP JUMPDEST DUP8 ADD PUSH9 0x17102932BA3AB9371 PUSH1 0xBD SHL PUSH1 0x4C DUP3 ADD MSTORE PUSH2 0x1C02 DUP3 MLOAD DUP1 SWAP4 DUP9 PUSH1 0x55 DUP6 ADD SWAP2 ADD PUSH2 0xA51 JUMP JUMPDEST ADD PUSH11 0x16103BB4B7103930BA329 PUSH1 0xAD SHL PUSH1 0x55 DUP3 ADD MSTORE PUSH2 0x1C2A DUP3 MLOAD DUP1 SWAP4 DUP8 PUSH1 0x60 DUP6 ADD SWAP2 ADD PUSH2 0xA51 JUMP JUMPDEST ADD PUSH15 0x161036B0BC10323930BBB237BBB71 PUSH1 0x8D SHL PUSH1 0x60 DUP3 ADD MSTORE PUSH2 0x1C56 DUP3 MLOAD DUP1 SWAP4 DUP7 PUSH1 0x6F DUP6 ADD SWAP2 ADD PUSH2 0xA51 JUMP JUMPDEST ADD SWAP2 PUSH12 0x171029BAB136B4BA3A32B21 PUSH1 0xA5 SHL PUSH1 0x6F DUP5 ADD MSTORE DUP4 MLOAD SWAP4 DUP5 SWAP2 PUSH1 0x7B DUP6 ADD SWAP2 ADD PUSH2 0xA51 JUMP JUMPDEST ADD PUSH1 0x17 PUSH1 0xF9 SHL PUSH1 0x7B DUP3 ADD MSTORE SUB PUSH1 0x5C DUP2 ADD DUP5 MSTORE ADD DUP3 PUSH2 0xAD7 JUMP JUMPDEST POP POP POP POP POP PUSH2 0xD41 PUSH1 0x7C PUSH2 0x1C7D PUSH2 0x1B7F PUSH2 0x1B79 PUSH2 0x1CBF PUSH2 0x1B85 SWAP7 RETURNDATASIZE DUP1 PUSH0 DUP4 RETURNDATACOPY PUSH2 0x114D DUP2 DUP4 PUSH2 0xAD7 JUMP JUMPDEST SWAP2 SWAP11 POP SWAP1 SWAP9 POP SWAP7 POP SWAP5 POP SWAP3 POP DUP7 SWAP2 POP PUSH2 0x1B5C SWAP1 POP JUMP JUMPDEST PUSH2 0x1CDE DUP2 PUSH2 0x3EEA JUMP JUMPDEST PUSH2 0x1E82 JUMPI PUSH2 0x1CEB DUP2 PUSH2 0x3F66 JUMP JUMPDEST PUSH2 0x1E4C JUMPI PUSH2 0x1CF8 DUP2 PUSH2 0x3FE0 JUMP JUMPDEST PUSH2 0x1E17 JUMPI PUSH1 0x64 DUP2 GT DUP1 PUSH2 0x1E0C JUMPI JUMPDEST PUSH2 0x1DEB JUMPI PUSH1 0xC8 DUP2 GT DUP1 PUSH2 0x1DE0 JUMPI JUMPDEST PUSH2 0x1DB8 JUMPI PUSH2 0x1D21 DUP2 PUSH2 0x3DD4 JUMP JUMPDEST PUSH2 0x1D8E JUMPI PUSH2 0x3E8 DUP2 GT SWAP1 DUP2 PUSH2 0x1D80 JUMPI JUMPDEST POP PUSH2 0x1D56 JUMPI PUSH1 0x40 MLOAD PUSH2 0x1D42 DUP2 PUSH2 0xABC JUMP JUMPDEST PUSH1 0x4 DUP2 MSTORE PUSH4 0x44656D6F PUSH1 0xE0 SHL PUSH1 0x20 DUP3 ADD MSTORE SWAP1 JUMP JUMPDEST PUSH1 0x40 MLOAD PUSH2 0x1D62 DUP2 PUSH2 0xABC JUMP JUMPDEST PUSH1 0xE DUP2 MSTORE PUSH14 0x15D9585B1D1A08149958D95A5C1D PUSH1 0x92 SHL PUSH1 0x20 DUP3 ADD MSTORE SWAP1 JUMP JUMPDEST PUSH3 0x103E7 SWAP2 POP GT ISZERO PUSH0 PUSH2 0x1D31 JUMP JUMPDEST POP PUSH1 0x40 MLOAD PUSH2 0x1D9B DUP2 PUSH2 0xABC JUMP JUMPDEST PUSH1 0xD DUP2 MSTORE PUSH13 0x50617065722054726164696E67 PUSH1 0x98 SHL PUSH1 0x20 DUP3 ADD MSTORE SWAP1 JUMP JUMPDEST POP PUSH1 0x40 MLOAD PUSH2 0x1DC5 DUP2 PUSH2 0xABC JUMP JUMPDEST PUSH1 0xB DUP2 MSTORE PUSH11 0x5765616C7468205461736B PUSH1 0xA8 SHL PUSH1 0x20 DUP3 ADD MSTORE SWAP1 JUMP JUMPDEST POP PUSH1 0xCB DUP2 GT ISZERO PUSH2 0x1D14 JUMP JUMPDEST POP PUSH1 0x40 MLOAD PUSH2 0x1DF8 DUP2 PUSH2 0xABC JUMP JUMPDEST PUSH1 0x4 DUP2 MSTORE PUSH4 0x486F6D65 PUSH1 0xE0 SHL PUSH1 0x20 DUP3 ADD MSTORE SWAP1 JUMP JUMPDEST POP PUSH1 0x69 DUP2 GT ISZERO PUSH2 0x1D06 JUMP JUMPDEST POP PUSH1 0x40 MLOAD PUSH2 0x1E24 DUP2 PUSH2 0xABC JUMP JUMPDEST PUSH1 0x18 DUP2 MSTORE PUSH24 0x15D9585B1D1A08141B195919D94810DC9959195B9D1A585B PUSH1 0x42 SHL PUSH1 0x20 DUP3 ADD MSTORE SWAP1 JUMP JUMPDEST POP PUSH1 0x40 MLOAD PUSH2 0x1E59 DUP2 PUSH2 0xABC JUMP JUMPDEST PUSH1 0x19 DUP2 MSTORE PUSH25 0x15D9585B1D1A08149958D95A5C1D0810DC9959195B9D1A585B PUSH1 0x3A SHL PUSH1 0x20 DUP3 ADD MSTORE SWAP1 JUMP JUMPDEST POP PUSH1 0x40 MLOAD PUSH2 0x1E8F DUP2 PUSH2 0xABC JUMP JUMPDEST PUSH1 0x1C DUP2 MSTORE PUSH28 0x14185C195C8813195859195C989BD85C990810DC9959195B9D1A585B PUSH1 0x22 SHL PUSH1 0x20 DUP3 ADD MSTORE SWAP1 JUMP JUMPDEST PUSH0 SWAP1 DUP1 PUSH19 0x184F03E93FF9F4DAA797ED6E38ED64BF6A1F01 PUSH1 0x40 SHL DUP1 DUP3 LT ISZERO PUSH2 0x1FE9 JUMPI JUMPDEST POP PUSH10 0x4EE2D6D415B85ACEF81 PUSH1 0x20 SHL DUP1 DUP4 LT ISZERO PUSH2 0x1FDA JUMPI JUMPDEST POP PUSH7 0x2386F26FC10000 DUP1 DUP4 LT ISZERO PUSH2 0x1FCB JUMPI JUMPDEST POP PUSH4 0x5F5E100 DUP1 DUP4 LT ISZERO PUSH2 0x1FBC JUMPI JUMPDEST POP PUSH2 0x2710 DUP1 DUP4 LT ISZERO PUSH2 0x1FAD JUMPI JUMPDEST POP PUSH1 0x64 DUP3 LT ISZERO PUSH2 0x1F9D JUMPI JUMPDEST PUSH1 0xA DUP1 SWAP3 LT ISZERO PUSH2 0x1F93 JUMPI JUMPDEST PUSH1 0x1 SWAP1 DUP2 PUSH1 0x21 PUSH2 0x1F4C PUSH1 0x1 DUP8 ADD PUSH2 0xB15 JUMP JUMPDEST SWAP6 DUP7 ADD ADD SWAP1 JUMPDEST PUSH2 0x1F5E JUMPI JUMPDEST POP POP POP POP SWAP1 JUMP JUMPDEST PUSH0 NOT ADD SWAP1 DUP4 SWAP1 PUSH16 0x181899199A1A9B1B9C1CB0B131B232B3 PUSH1 0x81 SHL DUP3 DUP3 MOD BYTE DUP4 MSTORE8 DIV SWAP2 DUP3 ISZERO PUSH2 0x1F8E JUMPI SWAP2 SWAP1 DUP3 PUSH2 0x1F52 JUMP JUMPDEST PUSH2 0x1F57 JUMP JUMPDEST SWAP2 PUSH1 0x1 ADD SWAP2 PUSH2 0x1F3A JUMP JUMPDEST SWAP2 SWAP1 PUSH1 0x64 PUSH1 0x2 SWAP2 DIV SWAP2 ADD SWAP2 PUSH2 0x1F2F JUMP JUMPDEST PUSH1 0x4 SWAP2 SWAP4 SWAP3 DIV SWAP2 ADD SWAP2 PUSH0 PUSH2 0x1F24 JUMP JUMPDEST PUSH1 0x8 SWAP2 SWAP4 SWAP3 DIV SWAP2 ADD SWAP2 PUSH0 PUSH2 0x1F17 JUMP JUMPDEST PUSH1 0x10 SWAP2 SWAP4 SWAP3 DIV SWAP2 ADD SWAP2 PUSH0 PUSH2 0x1F08 JUMP JUMPDEST PUSH1 0x20 SWAP2 SWAP4 SWAP3 DIV SWAP2 ADD SWAP2 PUSH0 PUSH2 0x1EF6 JUMP JUMPDEST PUSH1 0x40 SWAP4 POP DUP2 DIV SWAP2 POP PUSH0 PUSH2 0x1EDE JUMP JUMPDEST PUSH32 0x2C7B2274726169745F74797065223A2250726F64756374222C2276616C756522 DUP2 MSTORE PUSH2 0x1D11 PUSH1 0xF1 SHL PUSH1 0x20 DUP3 ADD MSTORE PUSH1 0x22 ADD SWAP1 JUMP JUMPDEST PUSH2 0x2034 DUP2 PUSH2 0x3EEA JUMP JUMPDEST PUSH2 0x244C JUMPI PUSH2 0x2041 DUP2 PUSH2 0x3F66 JUMP JUMPDEST PUSH2 0x22CD JUMPI PUSH2 0x204E DUP2 PUSH2 0x3FE0 JUMP JUMPDEST PUSH2 0x2167 JUMPI PUSH2 0x3E8 DUP2 GT DUP1 PUSH2 0x215A JUMPI JUMPDEST PUSH2 0x206E JUMPI POP PUSH1 0x40 MLOAD PUSH2 0xCAE DUP2 PUSH2 0xA72 JUMP JUMPDEST PUSH2 0xD41 PUSH1 0x2 PUSH2 0xFFFF PUSH2 0x2081 PUSH1 0x20 SWAP5 PUSH2 0x3DC4 JUMP JUMPDEST AND DUP4 PUSH2 0x208C DUP3 PUSH2 0x3E11 JUMP JUMPDEST SWAP2 PUSH2 0x2142 PUSH2 0x20C1 DUP4 PUSH2 0x20A6 PUSH2 0x20A0 DUP6 PUSH2 0x4199 JUMP JUMPDEST SWAP5 PUSH2 0x423D JUMP JUMPDEST SWAP4 PUSH2 0x210A PUSH2 0x20C1 PUSH1 0x40 MLOAD SWAP12 DUP13 SWAP10 PUSH2 0x20CE PUSH2 0x20C1 DUP4 DUP14 ADD PUSH2 0x1FF7 JUMP JUMPDEST SWAP2 DUP3 DUP2 MLOAD SWAP5 DUP6 SWAP3 ADD PUSH2 0xA51 JUMP JUMPDEST ADD PUSH32 0x227D2C7B2274726169745F74797065223A2250726F647563742074797065222C DUP2 MSTORE PUSH9 0x113B30B63AB2911D11 PUSH1 0xB9 SHL PUSH1 0x20 DUP3 ADD MSTORE PUSH1 0x29 ADD SWAP1 JUMP JUMPDEST ADD PUSH32 0x227D2C7B2274726169745F74797065223A224D61747572697479222C2276616C DUP2 MSTORE PUSH5 0x3AB2911D11 PUSH1 0xD9 SHL PUSH1 0x20 DUP3 ADD MSTORE PUSH1 0x25 ADD SWAP1 JUMP JUMPDEST ADD PUSH2 0x227D PUSH1 0xF0 SHL DUP2 MSTORE SUB PUSH1 0x1D NOT DUP2 ADD DUP5 MSTORE ADD DUP3 PUSH2 0xAD7 JUMP JUMPDEST POP PUSH3 0x103E7 DUP2 GT ISZERO PUSH2 0x205D JUMP JUMPDEST PUSH1 0x40 MLOAD PUSH4 0xCB77149 PUSH1 0xE2 SHL DUP2 MSTORE PUSH1 0x4 DUP2 ADD SWAP2 SWAP1 SWAP2 MSTORE PUSH0 DUP2 PUSH1 0x24 DUP2 PUSH32 0x0 PUSH1 0x1 PUSH1 0x1 PUSH1 0xA0 SHL SUB AND GAS STATICCALL SWAP1 DUP2 ISZERO PUSH2 0xFB1 JUMPI PUSH1 0x57 PUSH2 0xD41 SWAP2 PUSH1 0x20 SWAP4 PUSH0 DUP1 SWAP3 PUSH0 SWAP3 PUSH2 0x22A3 JUMPI JUMPDEST POP PUSH2 0x21D4 PUSH2 0x21DA SWAP2 PUSH2 0x3E11 JUMP JUMPDEST SWAP3 PUSH2 0x1EBB JUMP JUMPDEST SWAP1 PUSH1 0x40 MLOAD SWAP6 DUP7 SWAP4 PUSH2 0x21EF PUSH2 0x20C1 DUP4 DUP8 ADD PUSH2 0x1FF7 JUMP JUMPDEST ADD PUSH32 0x227D2C7B2274726169745F74797065223A22506C656467652064617465222C22 DUP2 MSTORE PUSH8 0x3B30B63AB2911D11 PUSH1 0xC1 SHL PUSH1 0x20 DUP3 ADD MSTORE PUSH2 0x2238 DUP3 MLOAD DUP1 SWAP4 PUSH1 0x20 PUSH1 0x28 DUP6 ADD SWAP2 ADD PUSH2 0xA51 JUMP JUMPDEST ADD PUSH32 0x227D2C7B2274726169745F74797065223A22526F75746520737570706F727422 PUSH1 0x28 DUP3 ADD MSTORE PUSH10 0x16113B30B63AB2911D11 PUSH1 0xB1 SHL PUSH1 0x48 DUP3 ADD MSTORE PUSH2 0x2286 DUP3 MLOAD DUP1 SWAP4 PUSH1 0x20 PUSH1 0x52 DUP6 ADD SWAP2 ADD PUSH2 0xA51 JUMP JUMPDEST ADD PUSH5 0x205054227D PUSH1 0xD8 SHL PUSH1 0x52 DUP3 ADD MSTORE SUB PUSH1 0x37 DUP2 ADD DUP5 MSTORE ADD DUP3 PUSH2 0xAD7 JUMP JUMPDEST PUSH2 0x21DA SWAP4 POP PUSH2 0x21D4 SWAP3 POP PUSH2 0x22C1 SWAP2 POP RETURNDATASIZE DUP1 PUSH0 DUP4 RETURNDATACOPY PUSH2 0xF9F DUP2 DUP4 PUSH2 0xAD7 JUMP JUMPDEST SWAP1 SWAP5 POP SWAP3 SWAP1 SWAP2 POP PUSH2 0x21C7 JUMP JUMPDEST PUSH1 0x40 MLOAD PUSH4 0xCC272B11 PUSH1 0xE0 SHL DUP2 MSTORE PUSH1 0x4 DUP2 ADD SWAP2 SWAP1 SWAP2 MSTORE PUSH0 DUP2 PUSH1 0x24 DUP2 PUSH32 0x0 PUSH1 0x1 PUSH1 0x1 PUSH1 0xA0 SHL SUB AND GAS STATICCALL DUP1 ISZERO PUSH2 0xFB1 JUMPI PUSH1 0x52 PUSH2 0xD41 SWAP2 PUSH2 0x20C1 SWAP4 PUSH0 SWAP2 PUSH0 SWAP2 PUSH0 SWAP2 PUSH2 0x2428 JUMPI JUMPDEST POP PUSH2 0x240B PUSH2 0x233B DUP5 PUSH2 0x3E11 JUMP JUMPDEST SWAP2 PUSH2 0x20CE PUSH2 0x235A PUSH2 0x2354 PUSH2 0x234E DUP9 PUSH2 0x4199 JUMP JUMPDEST SWAP8 PUSH2 0x423D JUMP JUMPDEST SWAP6 PUSH2 0x1EBB JUMP JUMPDEST SWAP5 PUSH2 0x237E PUSH2 0x20C1 PUSH1 0x40 MLOAD SWAP12 DUP13 SWAP10 PUSH2 0x210A PUSH2 0x20C1 DUP13 PUSH1 0x20 SWAP12 DUP13 SWAP10 DUP11 SWAP7 DUP8 DUP1 SWAP5 ADD PUSH2 0x1FF7 JUMP JUMPDEST ADD PUSH32 0x227D2C7B2274726169745F74797065223A225075726368617365206461746522 DUP2 MSTORE PUSH10 0x16113B30B63AB2911D11 PUSH1 0xB1 SHL DUP5 DUP3 ADD MSTORE PUSH2 0x23C7 DUP3 MLOAD DUP1 SWAP4 DUP7 PUSH1 0x2A DUP6 ADD SWAP2 ADD PUSH2 0xA51 JUMP JUMPDEST ADD SWAP2 PUSH32 0x227D2C7B2274726169745F74797065223A22416D6F756E74222C2276616C7565 PUSH1 0x2A DUP5 ADD MSTORE PUSH3 0x111D11 PUSH1 0xE9 SHL PUSH1 0x4A DUP5 ADD MSTORE DUP4 MLOAD SWAP4 DUP5 SWAP2 PUSH1 0x4D DUP6 ADD SWAP2 ADD PUSH2 0xA51 JUMP JUMPDEST ADD PUSH5 0x205054227D PUSH1 0xD8 SHL PUSH1 0x4D DUP3 ADD MSTORE SUB PUSH1 0x32 DUP2 ADD DUP5 MSTORE ADD DUP3 PUSH2 0xAD7 JUMP JUMPDEST SWAP2 POP POP PUSH2 0x243F SWAP2 POP RETURNDATASIZE DUP1 PUSH0 DUP4 RETURNDATACOPY PUSH2 0x107F DUP2 DUP4 PUSH2 0xAD7 JUMP JUMPDEST SWAP3 SWAP2 SWAP4 POP POP SWAP2 SWAP1 PUSH0 PUSH2 0x232E JUMP JUMPDEST PUSH1 0x40 MLOAD PUSH4 0x18BC41F PUSH1 0xE7 SHL DUP2 MSTORE PUSH1 0x4 DUP2 ADD SWAP2 SWAP1 SWAP2 MSTORE PUSH0 DUP2 PUSH1 0x24 DUP2 PUSH32 0x0 PUSH1 0x1 PUSH1 0x1 PUSH1 0xA0 SHL SUB AND GAS STATICCALL DUP1 ISZERO PUSH2 0xFB1 JUMPI PUSH0 DUP1 PUSH0 SWAP1 PUSH0 DUP1 SWAP5 PUSH2 0x2646 JUMPI JUMPDEST PUSH2 0xD41 SWAP5 SWAP6 POP SWAP1 PUSH2 0x262C PUSH2 0x24C7 PUSH2 0x1B7F PUSH2 0x24C1 PUSH1 0xDF SWAP8 SWAP7 SWAP6 PUSH2 0x40DD JUMP JUMPDEST SWAP5 PUSH2 0x4059 JUMP JUMPDEST SWAP3 PUSH1 0x40 MLOAD SWAP8 DUP9 SWAP6 PUSH1 0x20 SWAP3 PUSH32 0x2C7B2274726169745F74797065223A2243617465676F7279222C2276616C7565 DUP5 DUP10 ADD MSTORE PUSH3 0x111D11 PUSH1 0xE9 SHL SWAP2 DUP3 PUSH1 0x40 DUP11 ADD MSTORE PUSH2 0x2517 DUP2 MLOAD DUP1 SWAP3 DUP8 PUSH1 0x43 DUP14 ADD SWAP2 ADD PUSH2 0xA51 JUMP JUMPDEST DUP9 ADD SWAP6 PUSH32 0x227D2C7B2274726169745F74797065223A225375626D6974746564206F6E222C PUSH1 0x43 DUP9 ADD MSTORE PUSH9 0x113B30B63AB2911D11 PUSH1 0xB9 SHL SWAP7 DUP8 PUSH1 0x63 DUP3 ADD MSTORE PUSH2 0x2567 DUP3 MLOAD DUP1 SWAP4 DUP9 PUSH1 0x6C DUP6 ADD SWAP2 ADD PUSH2 0xA51 JUMP JUMPDEST ADD PUSH32 0x227D2C7B2274726169745F74797065223A2257696E2072617465222C2276616C PUSH1 0x6C DUP3 ADD MSTORE PUSH5 0x3AB2911D11 PUSH1 0xD9 SHL PUSH1 0x8C DUP3 ADD MSTORE PUSH2 0x25AF DUP3 MLOAD DUP1 SWAP4 DUP8 PUSH1 0x91 DUP6 ADD SWAP2 ADD PUSH2 0xA51 JUMP JUMPDEST ADD SWAP1 PUSH32 0x227D2C7B2274726169745F74797065223A2252657475726E222C2276616C7565 PUSH1 0x91 DUP4 ADD MSTORE PUSH1 0xB1 DUP3 ADD MSTORE PUSH2 0x25EF DUP3 MLOAD DUP1 SWAP4 DUP6 PUSH1 0xB4 DUP6 ADD SWAP2 ADD PUSH2 0xA51 JUMP JUMPDEST ADD SWAP3 PUSH32 0x227D2C7B2274726169745F74797065223A224D61782064726177646F776E222C PUSH1 0xB4 DUP6 ADD MSTORE PUSH1 0xD4 DUP5 ADD MSTORE DUP4 MLOAD SWAP4 DUP5 SWAP2 PUSH1 0xDD DUP6 ADD SWAP2 ADD PUSH2 0xA51 JUMP JUMPDEST ADD PUSH2 0x227D PUSH1 0xF0 SHL PUSH1 0xDD DUP3 ADD MSTORE SUB PUSH1 0xBF DUP2 ADD DUP5 MSTORE ADD DUP3 PUSH2 0xAD7 JUMP JUMPDEST POP POP POP POP POP PUSH2 0xD41 PUSH1 0xDF PUSH2 0x1B7F PUSH2 0x24C7 PUSH2 0x24C1 PUSH2 0x266F PUSH2 0x262C SWAP7 RETURNDATASIZE DUP1 PUSH0 DUP4 RETURNDATACOPY PUSH2 0x114D DUP2 DUP4 PUSH2 0xAD7 JUMP JUMPDEST SWAP1 SWAP11 POP SWAP9 POP SWAP2 SWAP7 POP SWAP1 SWAP5 POP SWAP3 POP DUP7 SWAP2 POP PUSH2 0x24A4 SWAP1 POP JUMP JUMPDEST PUSH1 0x40 MLOAD SWAP1 PUSH2 0x2693 DUP3 PUSH2 0xABC JUMP JUMPDEST PUSH1 0x7 DUP3 MSTORE PUSH7 0x119B9B209CA323 PUSH1 0xC9 SHL PUSH1 0x20 DUP4 ADD MSTORE JUMP JUMPDEST PUSH1 0x40 MLOAD SWAP1 PUSH2 0x26B6 DUP3 PUSH2 0xABC JUMP JUMPDEST PUSH1 0x7 DUP3 MSTORE PUSH7 0x11A19C23231B21 PUSH1 0xC9 SHL PUSH1 0x20 DUP4 ADD MSTORE JUMP JUMPDEST PUSH1 0x40 MLOAD SWAP1 PUSH2 0x26D9 DUP3 PUSH2 0xABC JUMP JUMPDEST PUSH1 0x7 DUP3 MSTORE PUSH7 0x11A32322189B1B PUSH1 0xC9 SHL PUSH1 0x20 DUP4 ADD MSTORE JUMP JUMPDEST PUSH2 0x26F8 DUP2 PUSH2 0x3EEA JUMP JUMPDEST PUSH2 0x27E9 JUMPI PUSH2 0x2705 DUP2 PUSH2 0x3F66 JUMP JUMPDEST PUSH2 0x2821 JUMPI PUSH2 0x2712 DUP2 PUSH2 0x3FE0 JUMP JUMPDEST PUSH2 0x2837 JUMPI PUSH2 0x3E8 DUP2 GT DUP1 PUSH2 0x282A JUMPI JUMPDEST PUSH2 0x2821 JUMPI PUSH1 0xC8 DUP2 GT DUP1 PUSH2 0x2816 JUMPI JUMPDEST PUSH2 0x27F2 JUMPI PUSH2 0x273C DUP2 PUSH2 0x3DD4 JUMP JUMPDEST PUSH2 0x27E9 JUMPI PUSH1 0x64 DUP2 GT SWAP1 DUP2 PUSH2 0x27DD JUMPI JUMPDEST DUP2 DUP1 PUSH2 0x27C8 JUMPI JUMPDEST PUSH2 0x27A3 JUMPI DUP2 PUSH2 0x278C JUMPI JUMPDEST POP PUSH2 0x2784 JUMPI PUSH1 0x40 MLOAD PUSH2 0x276D DUP2 PUSH2 0xABC JUMP JUMPDEST PUSH1 0x7 DUP2 MSTORE PUSH7 0x23423646463433 PUSH1 0xC8 SHL PUSH1 0x20 DUP3 ADD MSTORE SWAP1 JUMP JUMPDEST PUSH2 0xD41 PUSH2 0x26CC JUMP JUMPDEST PUSH1 0x3 SWAP2 POP PUSH2 0x279B PUSH1 0xFF SWAP2 PUSH2 0x3DA6 JUMP JUMPDEST AND EQ PUSH0 PUSH2 0x275C JUMP JUMPDEST POP POP PUSH1 0x40 MLOAD PUSH2 0x27B1 DUP2 PUSH2 0xABC JUMP JUMPDEST PUSH1 0x7 DUP2 MSTORE PUSH7 0x11A32321199B21 PUSH1 0xC9 SHL PUSH1 0x20 DUP3 ADD MSTORE SWAP1 JUMP JUMPDEST POP PUSH1 0x4 PUSH1 0xFF PUSH2 0x27D6 DUP4 PUSH2 0x3DA6 JUMP JUMPDEST AND EQ PUSH2 0x2752 JUMP JUMPDEST PUSH1 0x69 DUP2 GT ISZERO SWAP2 POP PUSH2 0x274B JUMP JUMPDEST POP PUSH2 0xD41 PUSH2 0x2686 JUMP JUMPDEST POP PUSH1 0x40 MLOAD PUSH2 0x27FF DUP2 PUSH2 0xABC JUMP JUMPDEST PUSH1 0x7 DUP2 MSTORE PUSH7 0x8CD0E510D90CD PUSH1 0xCA SHL PUSH1 0x20 DUP3 ADD MSTORE SWAP1 JUMP JUMPDEST POP PUSH1 0xCB DUP2 GT ISZERO PUSH2 0x272F JUMP JUMPDEST POP PUSH2 0xD41 PUSH2 0x26A9 JUMP JUMPDEST POP PUSH3 0x103E7 DUP2 GT ISZERO PUSH2 0x2721 JUMP JUMPDEST POP PUSH2 0xD41 PUSH2 0x26CC JUMP JUMPDEST PUSH1 0x40 MLOAD SWAP1 PUSH2 0x284D DUP3 PUSH2 0xABC JUMP JUMPDEST PUSH1 0x17 DUP3 MSTORE PUSH23 0x149A5CDAD3195B9CC815D9585B1D1A08149958D95A5C1D PUSH1 0x4A SHL PUSH1 0x20 DUP4 ADD MSTORE JUMP JUMPDEST PUSH2 0x287C DUP2 PUSH2 0x3EEA JUMP JUMPDEST PUSH2 0x297E JUMPI PUSH2 0x2889 DUP2 PUSH2 0x3F66 JUMP JUMPDEST PUSH2 0x2935 JUMPI PUSH2 0x2896 DUP2 PUSH2 0x3FE0 JUMP JUMPDEST PUSH2 0x294B JUMPI PUSH2 0x3E8 DUP2 GT DUP1 PUSH2 0x293E JUMPI JUMPDEST PUSH2 0x2935 JUMPI PUSH1 0xC8 DUP2 GT DUP1 PUSH2 0x292A JUMPI JUMPDEST PUSH2 0x28FE JUMPI PUSH2 0x28C0 SWAP1 PUSH2 0x3DD4 JUMP JUMPDEST PUSH2 0x28CC JUMPI PUSH2 0xD41 PUSH2 0xCB4 JUMP JUMPDEST PUSH1 0x40 MLOAD PUSH2 0x28D8 DUP2 PUSH2 0xABC JUMP JUMPDEST PUSH1 0x16 DUP2 MSTORE PUSH22 0x5269736B4C656E732050617065722054726164696E67 PUSH1 0x50 SHL PUSH1 0x20 DUP3 ADD MSTORE SWAP1 JUMP JUMPDEST POP PUSH1 0x40 MLOAD PUSH2 0x290B DUP2 PUSH2 0xABC JUMP JUMPDEST PUSH1 0xF DUP2 MSTORE PUSH15 0xA4D2E6D698CADCE640AECAC2D8E8D PUSH1 0x8B SHL PUSH1 0x20 DUP3 ADD MSTORE SWAP1 JUMP JUMPDEST POP PUSH1 0xCB DUP2 GT ISZERO PUSH2 0x28B3 JUMP JUMPDEST POP PUSH2 0xD41 PUSH2 0x2840 JUMP JUMPDEST POP PUSH3 0x103E7 DUP2 GT ISZERO PUSH2 0x28A5 JUMP JUMPDEST POP PUSH1 0x40 MLOAD PUSH2 0x2958 DUP2 PUSH2 0xABC JUMP JUMPDEST PUSH1 0x16 DUP2 MSTORE PUSH22 0x5269736B4C656E73205765616C746820506C65646765 PUSH1 0x50 SHL PUSH1 0x20 DUP3 ADD MSTORE SWAP1 JUMP JUMPDEST POP PUSH1 0x40 MLOAD PUSH2 0x298B DUP2 PUSH2 0xABC JUMP JUMPDEST PUSH1 0x14 DUP2 MSTORE PUSH20 0x149A5CDAD3195B9CC813195859195C989BD85C99 PUSH1 0x62 SHL PUSH1 0x20 DUP3 ADD MSTORE SWAP1 JUMP JUMPDEST PUSH1 0x40 MLOAD SWAP1 PUSH2 0x29BC DUP3 PUSH2 0xABC JUMP JUMPDEST PUSH1 0xB DUP3 MSTORE PUSH11 0x1311505111549093D05491 PUSH1 0xAA SHL PUSH1 0x20 DUP4 ADD MSTORE JUMP JUMPDEST PUSH1 0x40 MLOAD SWAP1 PUSH2 0x29E3 DUP3 PUSH2 0xABC JUMP JUMPDEST PUSH1 0x6 DUP3 MSTORE PUSH6 0xAE8A8298A89 PUSH1 0xD3 SHL PUSH1 0x20 DUP4 ADD MSTORE JUMP JUMPDEST PUSH2 0x2A01 DUP2 PUSH2 0x3EEA JUMP JUMPDEST PUSH2 0x2AD0 JUMPI PUSH2 0x2A0E DUP2 PUSH2 0x3F66 JUMP JUMPDEST PUSH2 0x2A8C JUMPI PUSH2 0x2A1B DUP2 PUSH2 0x3FE0 JUMP JUMPDEST PUSH2 0x2AAD JUMPI PUSH2 0x3E8 DUP2 GT DUP1 PUSH2 0x2AA0 JUMPI JUMPDEST PUSH2 0x2A8C JUMPI PUSH1 0xC8 DUP2 GT DUP1 PUSH2 0x2A95 JUMPI JUMPDEST PUSH2 0x2A8C JUMPI PUSH2 0x2A45 SWAP1 PUSH2 0x3DD4 JUMP JUMPDEST PUSH2 0x2A6B JUMPI PUSH1 0x40 MLOAD PUSH2 0x2A55 DUP2 PUSH2 0xABC JUMP JUMPDEST PUSH1 0x6 DUP2 MSTORE PUSH6 0x15D053131155 PUSH1 0xD2 SHL PUSH1 0x20 DUP3 ADD MSTORE SWAP1 JUMP JUMPDEST PUSH1 0x40 MLOAD PUSH2 0x2A77 DUP2 PUSH2 0xABC JUMP JUMPDEST PUSH1 0x5 DUP2 MSTORE PUSH5 0x2820A822A9 PUSH1 0xD9 SHL PUSH1 0x20 DUP3 ADD MSTORE SWAP1 JUMP JUMPDEST POP PUSH2 0xD41 PUSH2 0x29D6 JUMP JUMPDEST POP PUSH1 0xCB DUP2 GT ISZERO PUSH2 0x2A38 JUMP JUMPDEST POP PUSH3 0x103E7 DUP2 GT ISZERO PUSH2 0x2A2A JUMP JUMPDEST POP PUSH1 0x40 MLOAD PUSH2 0x2ABA DUP2 PUSH2 0xABC JUMP JUMPDEST PUSH1 0x6 DUP2 MSTORE PUSH6 0x504C45444745 PUSH1 0xD0 SHL PUSH1 0x20 DUP3 ADD MSTORE SWAP1 JUMP JUMPDEST POP PUSH2 0xD41 PUSH2 0x29AF JUMP JUMPDEST PUSH2 0x2AE2 DUP2 PUSH2 0x3EEA JUMP JUMPDEST PUSH2 0x2EB1 JUMPI PUSH2 0x2AEF DUP2 PUSH2 0x3F66 JUMP JUMPDEST PUSH2 0x2E2F JUMPI PUSH2 0x2AFC DUP2 PUSH2 0x3FE0 JUMP JUMPDEST PUSH2 0x2E06 JUMPI PUSH2 0x3E8 DUP2 GT DUP1 PUSH2 0x2DF9 JUMPI JUMPDEST PUSH2 0x2DA5 JUMPI PUSH1 0xC8 DUP2 GT DUP1 PUSH2 0x2D9A JUMPI JUMPDEST PUSH2 0x2D08 JUMPI PUSH2 0x2B26 DUP2 PUSH2 0x3DD4 JUMP JUMPDEST PUSH2 0x2C57 JUMPI PUSH1 0x64 DUP2 GT DUP1 PUSH2 0x2C4C JUMPI JUMPDEST PUSH2 0x2B60 JUMPI POP PUSH1 0x40 MLOAD PUSH2 0x2B45 DUP2 PUSH2 0xABC JUMP JUMPDEST PUSH1 0xB DUP2 MSTORE PUSH11 0x434F4C4C45435449424C45 PUSH1 0xA8 SHL PUSH1 0x20 DUP3 ADD MSTORE SWAP1 JUMP JUMPDEST PUSH2 0x2B6B PUSH1 0xFF SWAP2 PUSH2 0x3DA6 JUMP JUMPDEST AND PUSH1 0x1 DUP2 EQ PUSH2 0x2C28 JUMPI PUSH1 0x2 DUP2 EQ PUSH2 0x2C04 JUMPI PUSH1 0x3 DUP2 EQ PUSH2 0x2BDC JUMPI PUSH1 0x4 EQ PUSH2 0x2BB4 JUMPI PUSH1 0x40 MLOAD PUSH2 0x2B97 DUP2 PUSH2 0xABC JUMP JUMPDEST PUSH1 0xD DUP2 MSTORE PUSH13 0x50415045522050524556494557 PUSH1 0x98 SHL PUSH1 0x20 DUP3 ADD MSTORE SWAP1 JUMP JUMPDEST PUSH1 0x40 MLOAD PUSH2 0x2BC0 DUP2 PUSH2 0xABC JUMP JUMPDEST PUSH1 0xC DUP2 MSTORE PUSH12 0x282927A22AA1AA1028AAA4AD PUSH1 0xA1 SHL PUSH1 0x20 DUP3 ADD MSTORE SWAP1 JUMP JUMPDEST POP PUSH1 0x40 MLOAD PUSH2 0x2BE9 DUP2 PUSH2 0xABC JUMP JUMPDEST PUSH1 0xB DUP2 MSTORE PUSH11 0x5249534B20524556494557 PUSH1 0xA8 SHL PUSH1 0x20 DUP3 ADD MSTORE SWAP1 JUMP JUMPDEST POP PUSH1 0x40 MLOAD PUSH2 0x2C11 DUP2 PUSH2 0xABC JUMP JUMPDEST PUSH1 0x7 DUP2 MSTORE PUSH7 0x10D3D3939150D5 PUSH1 0xCA SHL PUSH1 0x20 DUP3 ADD MSTORE SWAP1 JUMP JUMPDEST POP PUSH1 0x40 MLOAD PUSH2 0x2C35 DUP2 PUSH2 0xABC JUMP JUMPDEST PUSH1 0x7 DUP2 MSTORE PUSH7 0x57454C434F4D45 PUSH1 0xC8 SHL PUSH1 0x20 DUP3 ADD MSTORE SWAP1 JUMP JUMPDEST POP PUSH1 0x69 DUP2 GT ISZERO PUSH2 0x2B34 JUMP JUMPDEST PUSH1 0x6 DUP2 EQ PUSH2 0x2CE1 JUMPI PUSH1 0x7 DUP2 EQ PUSH2 0x2AD0 JUMPI PUSH1 0x8 DUP2 EQ PUSH2 0x2CBB JUMPI PUSH1 0x9 EQ PUSH2 0x2C97 JUMPI PUSH1 0x40 MLOAD PUSH2 0x2C82 DUP2 PUSH2 0xABC JUMP JUMPDEST PUSH1 0x5 DUP2 MSTORE PUSH5 0x4845444745 PUSH1 0xD8 SHL PUSH1 0x20 DUP3 ADD MSTORE SWAP1 JUMP JUMPDEST PUSH1 0x40 MLOAD PUSH2 0x2CA3 DUP2 PUSH2 0xABC JUMP JUMPDEST PUSH1 0x8 DUP2 MSTORE PUSH8 0x4C45564552414745 PUSH1 0xC0 SHL PUSH1 0x20 DUP3 ADD MSTORE SWAP1 JUMP JUMPDEST POP PUSH1 0x40 MLOAD PUSH2 0x2CC8 DUP2 PUSH2 0xABC JUMP JUMPDEST PUSH1 0x9 DUP2 MSTORE PUSH9 0x53504F54204C4F4F5 PUSH1 0xBC SHL PUSH1 0x20 DUP3 ADD MSTORE SWAP1 JUMP JUMPDEST POP PUSH1 0x40 MLOAD PUSH2 0x2CEE DUP2 PUSH2 0xABC JUMP JUMPDEST PUSH1 0xA DUP2 MSTORE PUSH10 0x4241534520434845434B PUSH1 0xB0 SHL PUSH1 0x20 DUP3 ADD MSTORE SWAP1 JUMP JUMPDEST PUSH2 0x2D13 PUSH1 0xFF SWAP2 PUSH2 0x3DB5 JUMP JUMPDEST AND PUSH1 0x1 DUP2 EQ PUSH2 0x2D71 JUMPI PUSH1 0x2 EQ PUSH2 0x2D49 JUMPI PUSH1 0x40 MLOAD PUSH2 0x2D2F DUP2 PUSH2 0xABC JUMP JUMPDEST PUSH1 0xA DUP2 MSTORE PUSH10 0x4455414C204241444745 PUSH1 0xB0 SHL PUSH1 0x20 DUP3 ADD MSTORE SWAP1 JUMP JUMPDEST PUSH1 0x40 MLOAD PUSH2 0x2D55 DUP2 PUSH2 0xABC JUMP JUMPDEST PUSH1 0xC DUP2 MSTORE PUSH12 0x504C45444745204241444745 PUSH1 0xA0 SHL PUSH1 0x20 DUP3 ADD MSTORE SWAP1 JUMP JUMPDEST POP PUSH1 0x40 MLOAD PUSH2 0x2D7E DUP2 PUSH2 0xABC JUMP JUMPDEST PUSH1 0xC DUP2 MSTORE PUSH12 0x50524F464954204241444745 PUSH1 0xA0 SHL PUSH1 0x20 DUP3 ADD MSTORE SWAP1 JUMP JUMPDEST POP PUSH1 0xCB DUP2 GT ISZERO PUSH2 0x2B19 JUMP JUMPDEST PUSH2 0xFFFF PUSH2 0x2DB4 PUSH2 0x2DBA SWAP3 PUSH2 0x3DC4 JUMP JUMPDEST AND PUSH2 0x1EBB JUMP JUMPDEST PUSH2 0xD41 PUSH1 0x29 PUSH1 0x40 MLOAD DUP1 SWAP4 PUSH9 0x524543454950542023 PUSH1 0xB8 SHL PUSH1 0x20 DUP4 ADD MSTORE PUSH2 0x2DE9 DUP2 MLOAD DUP1 SWAP3 PUSH1 0x20 DUP7 DUP7 ADD SWAP2 ADD PUSH2 0xA51 JUMP JUMPDEST DUP2 ADD SUB PUSH1 0x9 DUP2 ADD DUP5 MSTORE ADD DUP3 PUSH2 0xAD7 JUMP JUMPDEST POP PUSH3 0x103E7 DUP2 GT ISZERO PUSH2 0x2B0B JUMP JUMPDEST POP PUSH1 0x40 MLOAD PUSH2 0x2E13 DUP2 PUSH2 0xABC JUMP JUMPDEST PUSH1 0xC DUP2 MSTORE PUSH12 0x535550504F5254204C494E45 PUSH1 0xA0 SHL PUSH1 0x20 DUP3 ADD MSTORE SWAP1 JUMP JUMPDEST PUSH1 0x40 MLOAD PUSH4 0xCC272B11 PUSH1 0xE0 SHL DUP2 MSTORE PUSH1 0x4 DUP2 ADD SWAP2 SWAP1 SWAP2 MSTORE PUSH0 DUP2 PUSH1 0x24 DUP2 PUSH32 0x0 PUSH1 0x1 PUSH1 0x1 PUSH1 0xA0 SHL SUB AND GAS STATICCALL SWAP1 DUP2 ISZERO PUSH2 0xFB1 JUMPI PUSH2 0x2DBA SWAP2 PUSH2 0xFFFF SWAP2 PUSH0 SWAP2 PUSH2 0x2E92 JUMPI JUMPDEST POP AND PUSH2 0x1EBB JUMP JUMPDEST PUSH2 0x2EA6 SWAP2 POP RETURNDATASIZE DUP1 PUSH0 DUP4 RETURNDATACOPY PUSH2 0x107F DUP2 DUP4 PUSH2 0xAD7 JUMP JUMPDEST POP POP POP SWAP1 POP PUSH0 PUSH2 0x2E8B JUMP JUMPDEST POP PUSH1 0x40 MLOAD PUSH2 0x2EBE DUP2 PUSH2 0xABC JUMP JUMPDEST PUSH1 0xA DUP2 MSTORE PUSH10 0x10D49151115395125053 PUSH1 0xB2 SHL PUSH1 0x20 DUP3 ADD MSTORE SWAP1 JUMP JUMPDEST PUSH2 0x2EE1 DUP2 PUSH2 0x3EEA JUMP JUMPDEST PUSH2 0x30FB JUMPI PUSH2 0x2EEE DUP2 PUSH2 0x3F66 JUMP JUMPDEST PUSH2 0x307F JUMPI PUSH2 0x2EFB DUP2 PUSH2 0x3FE0 JUMP JUMPDEST PUSH2 0x3023 JUMPI PUSH2 0x3E8 DUP2 GT DUP1 PUSH2 0x3016 JUMPI JUMPDEST PUSH2 0x2FDC JUMPI PUSH1 0xC8 DUP2 GT DUP1 PUSH2 0x2FD1 JUMPI JUMPDEST PUSH2 0x2F99 JUMPI PUSH2 0x2F25 SWAP1 PUSH2 0x3DD4 JUMP JUMPDEST PUSH2 0x2F62 JUMPI PUSH1 0x40 MLOAD PUSH2 0x2F35 DUP2 PUSH2 0xABC JUMP JUMPDEST PUSH1 0x1D DUP2 MSTORE PUSH32 0x4F6E626F617264696E67206D696C6573746F6E65207265636F72646564000000 PUSH1 0x20 DUP3 ADD MSTORE SWAP1 JUMP JUMPDEST PUSH1 0x40 MLOAD PUSH2 0x2F6E DUP2 PUSH2 0xABC JUMP JUMPDEST PUSH1 0x1B DUP2 MSTORE PUSH27 0x14995C1B185E481858DA1A595D995B595B9D081C9958DBDC991959 PUSH1 0x2A SHL PUSH1 0x20 DUP3 ADD MSTORE SWAP1 JUMP JUMPDEST POP PUSH1 0x40 MLOAD PUSH2 0x2FA6 DUP2 PUSH2 0xABC JUMP JUMPDEST PUSH1 0x1B DUP2 MSTORE PUSH27 0x15DBDC9AD99B1BDDC81B5A5B195CDD1BDB99481C9958DBDC991959 PUSH1 0x2A SHL PUSH1 0x20 DUP3 ADD MSTORE SWAP1 JUMP JUMPDEST POP PUSH1 0xCB DUP2 GT ISZERO PUSH2 0x2F18 JUMP JUMPDEST POP PUSH1 0x40 MLOAD PUSH2 0x2FE9 DUP2 PUSH2 0xABC JUMP JUMPDEST PUSH1 0x20 DUP2 MSTORE PUSH32 0x537562736372697074696F6E207265636569707420736861726573206C697665 PUSH1 0x20 DUP3 ADD MSTORE SWAP1 JUMP JUMPDEST POP PUSH3 0x103E7 DUP2 GT ISZERO PUSH2 0x2F0A JUMP JUMPDEST PUSH1 0x40 MLOAD PUSH4 0xCB77149 PUSH1 0xE2 SHL DUP2 MSTORE PUSH1 0x4 DUP2 ADD SWAP2 SWAP1 SWAP2 MSTORE PUSH0 DUP2 PUSH1 0x24 DUP2 PUSH32 0x0 PUSH1 0x1 PUSH1 0x1 PUSH1 0xA0 SHL SUB AND GAS STATICCALL DUP1 ISZERO PUSH2 0xFB1 JUMPI PUSH2 0xD41 SWAP2 PUSH0 SWAP2 PUSH2 0xF8B JUMPI POP PUSH2 0x3E11 JUMP JUMPDEST PUSH1 0x40 MLOAD PUSH4 0xCC272B11 PUSH1 0xE0 SHL DUP2 MSTORE PUSH1 0x4 DUP2 ADD SWAP2 SWAP1 SWAP2 MSTORE PUSH0 DUP2 PUSH1 0x24 DUP2 PUSH32 0x0 PUSH1 0x1 PUSH1 0x1 PUSH1 0xA0 SHL SUB AND GAS STATICCALL DUP1 ISZERO PUSH2 0xFB1 JUMPI PUSH2 0xD41 SWAP2 PUSH0 SWAP2 PUSH2 0x30DC JUMPI JUMPDEST POP PUSH2 0x4199 JUMP JUMPDEST PUSH2 0x30F0 SWAP2 POP RETURNDATASIZE DUP1 PUSH0 DUP4 RETURNDATACOPY PUSH2 0x107F DUP2 DUP4 PUSH2 0xAD7 JUMP JUMPDEST POP POP POP SWAP1 POP PUSH0 PUSH2 0x30D6 JUMP JUMPDEST PUSH1 0x40 MLOAD PUSH4 0x18BC41F PUSH1 0xE7 SHL DUP2 MSTORE PUSH1 0x4 DUP2 ADD SWAP2 SWAP1 SWAP2 MSTORE PUSH0 DUP2 PUSH1 0x24 DUP2 PUSH32 0x0 PUSH1 0x1 PUSH1 0x1 PUSH1 0xA0 SHL SUB AND GAS STATICCALL DUP1 ISZERO PUSH2 0xFB1 JUMPI PUSH0 SWAP2 PUSH0 SWAP2 PUSH2 0x31C7 JUMPI JUMPDEST POP PUSH1 0x2E PUSH2 0x3168 PUSH2 0x3162 PUSH2 0xD41 SWAP4 PUSH2 0x40DD JUMP JUMPDEST SWAP4 PUSH2 0x4059 JUMP JUMPDEST SWAP3 PUSH1 0x40 MLOAD SWAP4 DUP2 PUSH2 0x3182 DUP7 SWAP4 MLOAD DUP1 SWAP3 PUSH1 0x20 DUP1 DUP8 ADD SWAP2 ADD PUSH2 0xA51 JUMP JUMPDEST DUP3 ADD PUSH7 0x103BB4B710179 PUSH1 0xCD SHL PUSH1 0x20 DUP3 ADD MSTORE PUSH2 0x31A8 DUP3 MLOAD DUP1 SWAP4 PUSH1 0x20 PUSH1 0x27 DUP6 ADD SWAP2 ADD PUSH2 0xA51 JUMP JUMPDEST ADD PUSH7 0x103932BA3AB937 PUSH1 0xC9 SHL PUSH1 0x27 DUP3 ADD MSTORE SUB PUSH1 0xE DUP2 ADD DUP5 MSTORE ADD DUP3 PUSH2 0xAD7 JUMP JUMPDEST PUSH2 0x3162 SWAP3 POP PUSH2 0xD41 SWAP2 POP PUSH2 0x3168 PUSH2 0x31E9 PUSH1 0x2E SWAP3 RETURNDATASIZE DUP1 PUSH0 DUP4 RETURNDATACOPY PUSH2 0x114D DUP2 DUP4 PUSH2 0xAD7 JUMP JUMPDEST POP SWAP1 SWAP8 POP SWAP6 POP PUSH2 0x3150 SWAP4 POP POP POP POP JUMP JUMPDEST PUSH2 0x3202 DUP2 PUSH2 0x3EEA JUMP JUMPDEST PUSH2 0x34A3 JUMPI PUSH2 0x320F DUP2 PUSH2 0x3F66 JUMP JUMPDEST PUSH2 0x33E7 JUMPI PUSH2 0x321C DUP2 PUSH2 0x3FE0 JUMP JUMPDEST PUSH2 0x332B JUMPI PUSH2 0x3E8 DUP2 GT DUP1 PUSH2 0x331E JUMPI JUMPDEST PUSH2 0x32EA JUMPI PUSH1 0xC8 DUP2 GT DUP1 PUSH2 0x32DF JUMPI JUMPDEST PUSH2 0x32AF JUMPI PUSH2 0x3246 SWAP1 PUSH2 0x3DD4 JUMP JUMPDEST PUSH2 0x327A JUMPI PUSH1 0x40 MLOAD PUSH2 0x3256 DUP2 PUSH2 0xABC JUMP JUMPDEST PUSH1 0x14 DUP2 MSTORE PUSH20 0x3337B9103A3432902934B9B5A632B73990343AB1 PUSH1 0x61 SHL PUSH1 0x20 DUP3 ADD MSTORE SWAP1 JUMP JUMPDEST PUSH1 0x40 MLOAD PUSH2 0x3286 DUP2 PUSH2 0xABC JUMP JUMPDEST PUSH1 0x19 DUP2 MSTORE PUSH25 0x199BDC881D1A19481CDA5B5D5B185D1A5BDB881DD85B1B195D PUSH1 0x3A SHL PUSH1 0x20 DUP3 ADD MSTORE SWAP1 JUMP JUMPDEST POP PUSH1 0x40 MLOAD PUSH2 0x32BC DUP2 PUSH2 0xABC JUMP JUMPDEST PUSH1 0x13 DUP2 MSTORE PUSH19 0x666F7220746865205765616C746820666C6F77 PUSH1 0x68 SHL PUSH1 0x20 DUP3 ADD MSTORE SWAP1 JUMP JUMPDEST POP PUSH1 0xCB DUP2 GT ISZERO PUSH2 0x3239 JUMP JUMPDEST POP PUSH1 0x40 MLOAD PUSH2 0x32F7 DUP2 PUSH2 0xABC JUMP JUMPDEST PUSH1 0x17 DUP2 MSTORE PUSH23 0x1A5B881D1A194818DBDB9B9958DD1959081DD85B1B195D PUSH1 0x4A SHL PUSH1 0x20 DUP3 ADD MSTORE SWAP1 JUMP JUMPDEST POP PUSH3 0x103E7 DUP2 GT ISZERO PUSH2 0x322B JUMP JUMPDEST PUSH1 0x40 MLOAD PUSH4 0xCB77149 PUSH1 0xE2 SHL DUP2 MSTORE PUSH1 0x4 DUP2 ADD SWAP2 SWAP1 SWAP2 MSTORE PUSH0 DUP2 PUSH1 0x24 DUP2 PUSH32 0x0 PUSH1 0x1 PUSH1 0x1 PUSH1 0xA0 SHL SUB AND GAS STATICCALL DUP1 ISZERO PUSH2 0xFB1 JUMPI PUSH2 0x3388 SWAP2 PUSH0 SWAP2 PUSH2 0x33C9 JUMPI JUMPDEST POP PUSH2 0x1EBB JUMP JUMPDEST PUSH2 0xD41 PUSH1 0x2B PUSH1 0x40 MLOAD DUP4 PUSH2 0x33A5 DUP3 SWAP6 MLOAD DUP1 SWAP3 PUSH1 0x20 DUP1 DUP7 ADD SWAP2 ADD PUSH2 0xA51 JUMP JUMPDEST DUP2 ADD PUSH11 0x81415081CDD5C1C1BDC9D PUSH1 0xAA SHL PUSH1 0x20 DUP3 ADD MSTORE SUB PUSH1 0xB DUP2 ADD DUP5 MSTORE ADD DUP3 PUSH2 0xAD7 JUMP JUMPDEST PUSH2 0x33DD SWAP2 POP RETURNDATASIZE DUP1 PUSH0 DUP4 RETURNDATACOPY PUSH2 0xF9F DUP2 DUP4 PUSH2 0xAD7 JUMP JUMPDEST POP SWAP2 POP POP PUSH0 PUSH2 0x3382 JUMP JUMPDEST PUSH1 0x40 MLOAD PUSH4 0xCC272B11 PUSH1 0xE0 SHL DUP2 MSTORE PUSH1 0x4 DUP2 ADD SWAP2 SWAP1 SWAP2 MSTORE PUSH0 DUP2 PUSH1 0x24 DUP2 PUSH32 0x0 PUSH1 0x1 PUSH1 0x1 PUSH1 0xA0 SHL SUB AND GAS STATICCALL DUP1 ISZERO PUSH2 0xFB1 JUMPI PUSH2 0x3444 SWAP2 PUSH0 SWAP2 PUSH2 0x3484 JUMPI JUMPDEST POP PUSH2 0x423D JUMP JUMPDEST PUSH2 0xD41 PUSH1 0x2A PUSH1 0x40 MLOAD DUP1 SWAP4 PUSH10 0x26B0BA3AB934BA3C9D1 PUSH1 0xB5 SHL PUSH1 0x20 DUP4 ADD MSTORE PUSH2 0x3474 DUP2 MLOAD DUP1 SWAP3 PUSH1 0x20 DUP7 DUP7 ADD SWAP2 ADD PUSH2 0xA51 JUMP JUMPDEST DUP2 ADD SUB PUSH1 0xA DUP2 ADD DUP5 MSTORE ADD DUP3 PUSH2 0xAD7 JUMP JUMPDEST PUSH2 0x3498 SWAP2 POP RETURNDATASIZE DUP1 PUSH0 DUP4 RETURNDATACOPY PUSH2 0x107F DUP2 DUP4 PUSH2 0xAD7 JUMP JUMPDEST POP POP POP SWAP1 POP PUSH0 PUSH2 0x343E JUMP JUMPDEST PUSH1 0x40 MLOAD PUSH4 0x18BC41F PUSH1 0xE7 SHL DUP2 MSTORE PUSH1 0x4 DUP2 ADD SWAP2 SWAP1 SWAP2 MSTORE PUSH0 DUP2 PUSH1 0x24 DUP2 PUSH32 0x0 PUSH1 0x1 PUSH1 0x1 PUSH1 0xA0 SHL SUB AND GAS STATICCALL DUP1 ISZERO PUSH2 0xFB1 JUMPI PUSH2 0x3500 SWAP2 PUSH0 SWAP2 PUSH2 0x353D JUMPI JUMPDEST POP PUSH2 0x40DD JUMP JUMPDEST PUSH2 0xD41 PUSH1 0x27 PUSH1 0x40 MLOAD DUP4 PUSH2 0x351D DUP3 SWAP6 MLOAD DUP1 SWAP3 PUSH1 0x20 DUP1 DUP7 ADD SWAP2 ADD PUSH2 0xA51 JUMP JUMPDEST DUP2 ADD PUSH7 0x81B585E081111 PUSH1 0xCA SHL PUSH1 0x20 DUP3 ADD MSTORE SUB PUSH1 0x7 DUP2 ADD DUP5 MSTORE ADD DUP3 PUSH2 0xAD7 JUMP JUMPDEST PUSH2 0x3551 SWAP2 POP RETURNDATASIZE DUP1 PUSH0 DUP4 RETURNDATACOPY PUSH2 0x114D DUP2 DUP4 PUSH2 0xAD7 JUMP JUMPDEST SWAP5 POP POP POP POP POP PUSH0 PUSH2 0x34FA JUMP JUMPDEST PUSH2 0x3566 DUP2 PUSH2 0x3EEA JUMP JUMPDEST PUSH2 0x37CA JUMPI PUSH2 0x3573 DUP2 PUSH2 0x3F66 JUMP JUMPDEST PUSH2 0x376E JUMPI PUSH2 0x3580 DUP2 PUSH2 0x3FE0 JUMP JUMPDEST PUSH2 0x36E3 JUMPI PUSH2 0x3E8 DUP2 GT DUP1 PUSH2 0x36D6 JUMPI JUMPDEST PUSH2 0x3668 JUMPI PUSH2 0x359C DUP2 PUSH2 0x3DD4 JUMP JUMPDEST PUSH2 0x362E JUMPI PUSH1 0xC8 DUP2 GT SWAP1 DUP2 PUSH2 0x3622 JUMPI JUMPDEST POP PUSH2 0x35E9 JUMPI PUSH1 0x40 MLOAD PUSH2 0x35BC DUP2 PUSH2 0xABC JUMP JUMPDEST PUSH1 0x20 DUP2 MSTORE PUSH32 0x5461736B20626164676520666F722077616C6C6574206F6E626F617264696E67 PUSH1 0x20 DUP3 ADD MSTORE SWAP1 JUMP JUMPDEST PUSH1 0x40 MLOAD PUSH2 0x35F5 DUP2 PUSH2 0xABC JUMP JUMPDEST PUSH1 0x1E DUP2 MSTORE PUSH32 0x5461736B20626164676520666F72205765616C746820776F726B666C6F770000 PUSH1 0x20 DUP3 ADD MSTORE SWAP1 JUMP JUMPDEST PUSH1 0xCB SWAP2 POP GT ISZERO PUSH0 PUSH2 0x35AB JUMP JUMPDEST POP PUSH1 0x40 MLOAD PUSH2 0x363B DUP2 PUSH2 0xABC JUMP JUMPDEST PUSH1 0x1E DUP2 MSTORE PUSH32 0x5461736B20626164676520666F72207265706C6179206C6561726E696E670000 PUSH1 0x20 DUP3 ADD MSTORE SWAP1 JUMP JUMPDEST PUSH2 0x3674 PUSH2 0xFFFF SWAP2 PUSH2 0x3DC4 JUMP JUMPDEST AND PUSH2 0xD41 PUSH1 0x23 PUSH2 0x368C PUSH2 0x3686 DUP5 PUSH2 0x4199 JUMP JUMPDEST SWAP4 PUSH2 0x423D JUMP JUMPDEST SWAP3 PUSH1 0x40 MLOAD SWAP4 DUP2 PUSH2 0x36A6 DUP7 SWAP4 MLOAD DUP1 SWAP3 PUSH1 0x20 DUP1 DUP8 ADD SWAP2 ADD PUSH2 0xA51 JUMP JUMPDEST DUP3 ADD PUSH3 0x10179 PUSH1 0xED SHL PUSH1 0x20 DUP3 ADD MSTORE PUSH2 0x36C7 DUP3 MLOAD DUP1 SWAP4 PUSH1 0x20 DUP8 DUP6 ADD SWAP2 ADD PUSH2 0xA51 JUMP JUMPDEST ADD SUB PUSH1 0x3 DUP2 ADD DUP5 MSTORE ADD DUP3 PUSH2 0xAD7 JUMP JUMPDEST POP PUSH3 0x103E7 DUP2 GT ISZERO PUSH2 0x358F JUMP JUMPDEST PUSH1 0x40 MLOAD PUSH4 0xCB77149 PUSH1 0xE2 SHL DUP2 MSTORE PUSH1 0x4 DUP2 ADD SWAP2 SWAP1 SWAP2 MSTORE PUSH0 DUP2 PUSH1 0x24 DUP2 PUSH32 0x0 PUSH1 0x1 PUSH1 0x1 PUSH1 0xA0 SHL SUB AND GAS STATICCALL DUP1 ISZERO PUSH2 0xFB1 JUMPI PUSH2 0x373F SWAP2 PUSH0 SWAP2 PUSH2 0xF8B JUMPI POP PUSH2 0x3E11 JUMP JUMPDEST PUSH2 0xD41 PUSH1 0x29 PUSH1 0x40 MLOAD DUP1 SWAP4 PUSH9 0x283937B23AB1BA1D1 PUSH1 0xBD SHL PUSH1 0x20 DUP4 ADD MSTORE PUSH2 0x2DE9 DUP2 MLOAD DUP1 SWAP3 PUSH1 0x20 DUP7 DUP7 ADD SWAP2 ADD PUSH2 0xA51 JUMP JUMPDEST PUSH1 0x40 MLOAD PUSH4 0xCC272B11 PUSH1 0xE0 SHL DUP2 MSTORE PUSH1 0x4 DUP2 ADD SWAP2 SWAP1 SWAP2 MSTORE PUSH0 DUP2 PUSH1 0x24 DUP2 PUSH32 0x0 PUSH1 0x1 PUSH1 0x1 PUSH1 0xA0 SHL SUB AND GAS STATICCALL DUP1 ISZERO PUSH2 0xFB1 JUMPI PUSH2 0x373F SWAP2 PUSH0 SWAP2 PUSH2 0x106B JUMPI POP PUSH2 0x3E11 JUMP JUMPDEST PUSH1 0x40 MLOAD PUSH4 0x18BC41F PUSH1 0xE7 SHL DUP2 MSTORE PUSH1 0x4 DUP2 ADD SWAP2 SWAP1 SWAP2 MSTORE PUSH0 DUP2 PUSH1 0x24 DUP2 PUSH32 0x0 PUSH1 0x1 PUSH1 0x1 PUSH1 0xA0 SHL SUB AND GAS STATICCALL SWAP1 DUP2 ISZERO PUSH2 0xFB1 JUMPI PUSH0 SWAP2 PUSH2 0x384F JUMPI JUMPDEST POP PUSH2 0xD41 PUSH1 0x2A PUSH1 0x40 MLOAD DUP1 SWAP4 PUSH10 0x21B0BA32B3B7B93C9D1 PUSH1 0xB5 SHL PUSH1 0x20 DUP4 ADD MSTORE PUSH2 0x3474 DUP2 MLOAD DUP1 SWAP3 PUSH1 0x20 DUP7 DUP7 ADD SWAP2 ADD PUSH2 0xA51 JUMP JUMPDEST PUSH2 0x3863 SWAP2 POP RETURNDATASIZE DUP1 PUSH0 DUP4 RETURNDATACOPY PUSH2 0x114D DUP2 DUP4 PUSH2 0xAD7 JUMP JUMPDEST POP POP POP POP SWAP1 POP PUSH0 PUSH2 0x381E JUMP JUMPDEST PUSH2 0x3878 DUP2 PUSH2 0x3EEA JUMP JUMPDEST PUSH2 0x39F9 JUMPI PUSH2 0x3885 DUP2 PUSH2 0x3F66 JUMP JUMPDEST PUSH2 0x3955 JUMPI PUSH2 0x3892 DUP2 PUSH2 0x3FE0 JUMP JUMPDEST PUSH2 0x389F JUMPI PUSH2 0xD41 SWAP1 PUSH2 0x1CD5 JUMP JUMPDEST PUSH1 0x40 MLOAD PUSH4 0xCB77149 PUSH1 0xE2 SHL DUP2 MSTORE PUSH1 0x4 DUP2 ADD SWAP2 SWAP1 SWAP2 MSTORE PUSH0 DUP2 PUSH1 0x24 DUP2 PUSH32 0x0 PUSH1 0x1 PUSH1 0x1 PUSH1 0xA0 SHL SUB AND GAS STATICCALL SWAP1 DUP2 ISZERO PUSH2 0xFB1 JUMPI PUSH0 SWAP2 PUSH2 0x3937 JUMPI JUMPDEST POP PUSH2 0xD41 PUSH1 0x2D PUSH1 0x40 MLOAD DUP1 SWAP4 PUSH13 0x283632B233B2903230BA329D1 PUSH1 0x9D SHL PUSH1 0x20 DUP4 ADD MSTORE PUSH2 0x3927 DUP2 MLOAD DUP1 SWAP3 PUSH1 0x20 DUP7 DUP7 ADD SWAP2 ADD PUSH2 0xA51 JUMP JUMPDEST DUP2 ADD SUB PUSH1 0xD DUP2 ADD DUP5 MSTORE ADD DUP3 PUSH2 0xAD7 JUMP JUMPDEST PUSH2 0x394B SWAP2 POP RETURNDATASIZE DUP1 PUSH0 DUP4 RETURNDATACOPY PUSH2 0xF9F DUP2 DUP4 PUSH2 0xAD7 JUMP JUMPDEST SWAP3 POP POP POP PUSH0 PUSH2 0x38F3 JUMP JUMPDEST PUSH1 0x40 MLOAD PUSH4 0xCC272B11 PUSH1 0xE0 SHL DUP2 MSTORE PUSH1 0x4 DUP2 ADD SWAP2 SWAP1 SWAP2 MSTORE PUSH0 DUP2 PUSH1 0x24 DUP2 PUSH32 0x0 PUSH1 0x1 PUSH1 0x1 PUSH1 0xA0 SHL SUB AND GAS STATICCALL SWAP1 DUP2 ISZERO PUSH2 0xFB1 JUMPI PUSH0 SWAP2 PUSH2 0x39DA JUMPI JUMPDEST POP PUSH2 0xD41 PUSH1 0x2A PUSH1 0x40 MLOAD DUP1 SWAP4 PUSH10 0x283AB931B430B9B29D1 PUSH1 0xB5 SHL PUSH1 0x20 DUP4 ADD MSTORE PUSH2 0x3474 DUP2 MLOAD DUP1 SWAP3 PUSH1 0x20 DUP7 DUP7 ADD SWAP2 ADD PUSH2 0xA51 JUMP JUMPDEST PUSH2 0x39EE SWAP2 POP RETURNDATASIZE DUP1 PUSH0 DUP4 RETURNDATACOPY PUSH2 0x107F DUP2 DUP4 PUSH2 0xAD7 JUMP JUMPDEST SWAP4 POP POP POP POP PUSH0 PUSH2 0x39A9 JUMP JUMPDEST PUSH1 0x40 MLOAD PUSH4 0x18BC41F PUSH1 0xE7 SHL DUP2 MSTORE PUSH1 0x4 DUP2 ADD SWAP2 SWAP1 SWAP2 MSTORE PUSH0 DUP2 PUSH1 0x24 DUP2 PUSH32 0x0 PUSH1 0x1 PUSH1 0x1 PUSH1 0xA0 SHL SUB AND GAS STATICCALL SWAP1 DUP2 ISZERO PUSH2 0xFB1 JUMPI PUSH0 SWAP2 PUSH2 0x3A8A JUMPI JUMPDEST POP PUSH2 0xD41 PUSH1 0x26 PUSH1 0x40 MLOAD DUP1 SWAP4 PUSH6 0x2230BA329D1 PUSH1 0xD5 SHL PUSH1 0x20 DUP4 ADD MSTORE PUSH2 0x3A7A DUP2 MLOAD DUP1 SWAP3 PUSH1 0x20 DUP7 DUP7 ADD SWAP2 ADD PUSH2 0xA51 JUMP JUMPDEST DUP2 ADD SUB PUSH1 0x6 DUP2 ADD DUP5 MSTORE ADD DUP3 PUSH2 0xAD7 JUMP JUMPDEST PUSH2 0x3A9E SWAP2 POP RETURNDATASIZE DUP1 PUSH0 DUP4 RETURNDATACOPY PUSH2 0x114D DUP2 DUP4 PUSH2 0xAD7 JUMP JUMPDEST POP POP POP SWAP2 POP POP PUSH0 PUSH2 0x3A4D JUMP JUMPDEST PUSH2 0x3AB3 DUP2 PUSH2 0x3EEA JUMP JUMPDEST PUSH2 0x3C73 JUMPI PUSH2 0x3AC0 DUP2 PUSH2 0x3F66 JUMP JUMPDEST PUSH2 0x3BAD JUMPI PUSH2 0x3ACD DUP2 PUSH2 0x3FE0 JUMP JUMPDEST PUSH2 0x3B01 JUMPI POP PUSH1 0x40 MLOAD PUSH2 0x3ADE DUP2 PUSH2 0xABC JUMP JUMPDEST PUSH1 0x13 DUP2 MSTORE PUSH19 0x5365706F6C696120636F6C6C65637469626C65 PUSH1 0x68 SHL PUSH1 0x20 DUP3 ADD MSTORE SWAP1 JUMP JUMPDEST PUSH1 0x40 MLOAD PUSH4 0xCB77149 PUSH1 0xE2 SHL DUP2 MSTORE PUSH1 0x4 DUP2 ADD SWAP2 SWAP1 SWAP2 MSTORE PUSH0 DUP2 PUSH1 0x24 DUP2 PUSH32 0x0 PUSH1 0x1 PUSH1 0x1 PUSH1 0xA0 SHL SUB AND GAS STATICCALL DUP1 ISZERO PUSH2 0xFB1 JUMPI PUSH2 0x3B5D SWAP2 PUSH0 SWAP2 PUSH2 0x33C9 JUMPI POP PUSH2 0x1EBB JUMP JUMPDEST PUSH2 0xD41 PUSH1 0x30 PUSH1 0x40 MLOAD DUP1 SWAP4 PUSH13 0x283632B233B2B21037BABA1D1 PUSH1 0x9D SHL PUSH1 0x20 DUP4 ADD MSTORE PUSH2 0x3B91 DUP2 MLOAD DUP1 SWAP3 PUSH1 0x20 PUSH1 0x2D DUP7 ADD SWAP2 ADD PUSH2 0xA51 JUMP JUMPDEST DUP2 ADD PUSH3 0x81415 PUSH1 0xEA SHL PUSH1 0x2D DUP3 ADD MSTORE SUB PUSH1 0x10 DUP2 ADD DUP5 MSTORE ADD DUP3 PUSH2 0xAD7 JUMP JUMPDEST PUSH1 0x40 MLOAD PUSH4 0xCC272B11 PUSH1 0xE0 SHL DUP2 MSTORE PUSH1 0x4 DUP2 ADD SWAP2 SWAP1 SWAP2 MSTORE PUSH0 DUP2 PUSH1 0x24 DUP2 PUSH32 0x0 PUSH1 0x1 PUSH1 0x1 PUSH1 0xA0 SHL SUB AND GAS STATICCALL DUP1 ISZERO PUSH2 0xFB1 JUMPI PUSH2 0x3C09 SWAP2 PUSH0 SWAP2 PUSH2 0x3C54 JUMPI POP PUSH2 0x1EBB JUMP JUMPDEST PUSH2 0xD41 PUSH1 0x2B PUSH1 0x40 MLOAD DUP1 SWAP4 PUSH8 0x20B6B7BAB73A1D1 PUSH1 0xC5 SHL PUSH1 0x20 DUP4 ADD MSTORE PUSH2 0x3C38 DUP2 MLOAD DUP1 SWAP3 PUSH1 0x20 PUSH1 0x28 DUP7 ADD SWAP2 ADD PUSH2 0xA51 JUMP JUMPDEST DUP2 ADD PUSH3 0x81415 PUSH1 0xEA SHL PUSH1 0x28 DUP3 ADD MSTORE SUB PUSH1 0xB DUP2 ADD DUP5 MSTORE ADD DUP3 PUSH2 0xAD7 JUMP JUMPDEST PUSH2 0x3C68 SWAP2 POP RETURNDATASIZE DUP1 PUSH0 DUP4 RETURNDATACOPY PUSH2 0x107F DUP2 DUP4 PUSH2 0xAD7 JUMP JUMPDEST POP POP SWAP2 POP POP PUSH0 PUSH2 0x3382 JUMP JUMPDEST PUSH1 0x40 MLOAD PUSH4 0x18BC41F PUSH1 0xE7 SHL DUP2 MSTORE PUSH1 0x4 DUP2 ADD SWAP2 SWAP1 SWAP2 MSTORE PUSH0 DUP2 PUSH1 0x24 DUP2 PUSH32 0x0 PUSH1 0x1 PUSH1 0x1 PUSH1 0xA0 SHL SUB AND GAS STATICCALL DUP1 ISZERO PUSH2 0xFB1 JUMPI PUSH0 DUP1 PUSH0 SWAP3 PUSH2 0x3D6E JUMPI JUMPDEST PUSH2 0xD41 SWAP3 SWAP4 POP SWAP1 PUSH2 0x3CEC PUSH2 0x3CE6 PUSH2 0x3CE0 PUSH1 0x34 SWAP5 PUSH2 0x40DD JUMP JUMPDEST SWAP3 PUSH2 0x4059 JUMP JUMPDEST SWAP5 PUSH2 0x40DD JUMP JUMPDEST PUSH1 0x40 MLOAD SWAP5 DUP6 SWAP3 PUSH4 0x2BB4B71 PUSH1 0xE5 SHL PUSH1 0x20 DUP6 ADD MSTORE PUSH2 0x3D13 DUP2 MLOAD DUP1 SWAP3 PUSH1 0x20 PUSH1 0x24 DUP9 ADD SWAP2 ADD PUSH2 0xA51 JUMP JUMPDEST DUP4 ADD PUSH10 0x1017902932BA3AB9371 PUSH1 0xB5 SHL PUSH1 0x24 DUP3 ADD MSTORE PUSH2 0x3D3C DUP3 MLOAD DUP1 SWAP4 PUSH1 0x20 PUSH1 0x2E DUP6 ADD SWAP2 ADD PUSH2 0xA51 JUMP JUMPDEST ADD PUSH6 0x10179022221 PUSH1 0xD5 SHL PUSH1 0x2E DUP3 ADD MSTORE PUSH2 0x3D5F DUP3 MLOAD DUP1 SWAP4 PUSH1 0x20 DUP8 DUP6 ADD SWAP2 ADD PUSH2 0xA51 JUMP JUMPDEST ADD SUB PUSH1 0x14 DUP2 ADD DUP5 MSTORE ADD DUP3 PUSH2 0xAD7 JUMP JUMPDEST POP POP POP PUSH2 0xD41 PUSH1 0x34 PUSH2 0x3CE0 PUSH2 0x3CEC PUSH2 0x3D92 PUSH2 0x3CE6 SWAP6 RETURNDATASIZE DUP1 PUSH0 DUP4 RETURNDATACOPY PUSH2 0x114D DUP2 DUP4 PUSH2 0xAD7 JUMP JUMPDEST SWAP1 SWAP10 POP SWAP8 POP SWAP6 POP DUP8 SWAP5 POP PUSH2 0x3CC8 SWAP4 POP POP POP POP JUMP JUMPDEST PUSH1 0x63 NOT DUP2 ADD SWAP2 SWAP1 DUP3 GT PUSH2 0xC8C JUMPI JUMP JUMPDEST PUSH1 0xC7 NOT DUP2 ADD SWAP2 SWAP1 DUP3 GT PUSH2 0xC8C JUMPI JUMP JUMPDEST PUSH2 0x3E7 NOT DUP2 ADD SWAP2 SWAP1 DUP3 GT PUSH2 0xC8C JUMPI JUMP JUMPDEST PUSH1 0x6 DUP2 LT ISZERO SWAP1 DUP2 PUSH2 0x3DE3 JUMPI POP SWAP1 JUMP JUMPDEST PUSH1 0xA SWAP2 POP GT ISZERO SWAP1 JUMP JUMPDEST SWAP1 PUSH1 0x20 DUP3 DUP3 SUB SLT PUSH2 0x72 JUMPI DUP2 MLOAD PUSH1 0x1 PUSH1 0x1 PUSH1 0x40 SHL SUB DUP2 GT PUSH2 0x72 JUMPI PUSH2 0xD41 SWAP3 ADD PUSH2 0xCFF JUMP JUMPDEST PUSH1 0x40 MLOAD PUSH4 0xB7D120D PUSH1 0xE4 SHL DUP2 MSTORE PUSH2 0xFFFF SWAP2 SWAP1 SWAP2 AND PUSH1 0x4 DUP3 ADD DUP2 SWAP1 MSTORE PUSH0 DUP3 PUSH1 0x24 DUP2 PUSH32 0x0 PUSH1 0x1 PUSH1 0x1 PUSH1 0xA0 SHL SUB AND GAS STATICCALL SWAP2 DUP3 ISZERO PUSH2 0xFB1 JUMPI PUSH0 SWAP3 PUSH2 0x3EC6 JUMPI JUMPDEST POP DUP2 MLOAD PUSH2 0x3EC2 JUMPI PUSH2 0x3E7C SWAP2 POP PUSH2 0x1EBB JUMP JUMPDEST PUSH2 0xD41 PUSH1 0x30 PUSH1 0x40 MLOAD DUP1 SWAP4 PUSH16 0x5765616C74682050726F647563742023 PUSH1 0x80 SHL PUSH1 0x20 DUP4 ADD MSTORE PUSH2 0x3EB2 DUP2 MLOAD DUP1 SWAP3 PUSH1 0x20 DUP7 DUP7 ADD SWAP2 ADD PUSH2 0xA51 JUMP JUMPDEST DUP2 ADD SUB PUSH1 0x10 DUP2 ADD DUP5 MSTORE ADD DUP3 PUSH2 0xAD7 JUMP JUMPDEST POP SWAP1 JUMP JUMPDEST PUSH2 0x3EE3 SWAP2 SWAP3 POP RETURNDATASIZE DUP1 PUSH0 DUP4 RETURNDATACOPY PUSH2 0x3EDB DUP2 DUP4 PUSH2 0xAD7 JUMP JUMPDEST DUP2 ADD SWAP1 PUSH2 0x3DEC JUMP JUMPDEST SWAP1 PUSH0 PUSH2 0x3E6B JUMP JUMPDEST PUSH1 0x40 MLOAD PUSH4 0x18BC41F PUSH1 0xE7 SHL DUP2 MSTORE PUSH1 0x4 DUP2 ADD SWAP2 SWAP1 SWAP2 MSTORE PUSH1 0x1 PUSH1 0x1 PUSH1 0xA0 SHL SUB SWAP1 PUSH0 DUP2 PUSH1 0x24 DUP2 PUSH32 0x0 DUP7 AND GAS STATICCALL SWAP1 DUP2 ISZERO PUSH2 0xFB1 JUMPI PUSH0 SWAP2 PUSH2 0x3F47 JUMPI JUMPDEST POP AND ISZERO ISZERO SWAP1 JUMP JUMPDEST PUSH2 0x3F5B SWAP2 POP RETURNDATASIZE DUP1 PUSH0 DUP4 RETURNDATACOPY PUSH2 0x114D DUP2 DUP4 PUSH2 0xAD7 JUMP JUMPDEST POP POP POP POP POP PUSH0 PUSH2 0x3F40 JUMP JUMPDEST PUSH1 0x40 MLOAD PUSH4 0xCC272B11 PUSH1 0xE0 SHL DUP2 MSTORE PUSH1 0x4 DUP2 ADD SWAP2 SWAP1 SWAP2 MSTORE PUSH1 0x1 PUSH1 0x1 PUSH1 0xA0 SHL SUB SWAP1 PUSH0 DUP2 PUSH1 0x24 DUP2 PUSH32 0x0 DUP7 AND GAS STATICCALL SWAP1 DUP2 ISZERO PUSH2 0xFB1 JUMPI PUSH0 SWAP2 PUSH2 0x3FC2 JUMPI POP AND ISZERO ISZERO SWAP1 JUMP JUMPDEST PUSH2 0x3FD6 SWAP2 POP RETURNDATASIZE DUP1 PUSH0 DUP4 RETURNDATACOPY PUSH2 0x107F DUP2 DUP4 PUSH2 0xAD7 JUMP JUMPDEST POP POP POP POP PUSH0 PUSH2 0x3F40 JUMP JUMPDEST PUSH1 0x40 MLOAD PUSH4 0xCB77149 PUSH1 0xE2 SHL DUP2 MSTORE PUSH1 0x4 DUP2 ADD SWAP2 SWAP1 SWAP2 MSTORE PUSH1 0x1 PUSH1 0x1 PUSH1 0xA0 SHL SUB SWAP1 PUSH0 DUP2 PUSH1 0x24 DUP2 PUSH32 0x0 DUP7 AND GAS STATICCALL SWAP1 DUP2 ISZERO PUSH2 0xFB1 JUMPI PUSH0 SWAP2 PUSH2 0x403C JUMPI POP AND ISZERO ISZERO SWAP1 JUMP JUMPDEST PUSH2 0x4050 SWAP2 POP RETURNDATASIZE DUP1 PUSH0 DUP4 RETURNDATACOPY PUSH2 0xF9F DUP2 DUP4 PUSH2 0xAD7 JUMP JUMPDEST POP POP POP PUSH0 PUSH2 0x3F40 JUMP JUMPDEST PUSH0 DUP2 SLT PUSH2 0x40A0 JUMPI PUSH2 0x4069 SWAP1 PUSH2 0x40DD JUMP JUMPDEST PUSH2 0xD41 PUSH1 0x21 PUSH1 0x40 MLOAD DUP1 SWAP4 PUSH1 0x2B PUSH1 0xF8 SHL PUSH1 0x20 DUP4 ADD MSTORE PUSH2 0x4090 DUP2 MLOAD DUP1 SWAP3 PUSH1 0x20 DUP7 DUP7 ADD SWAP2 ADD PUSH2 0xA51 JUMP JUMPDEST DUP2 ADD SUB PUSH1 0x1 DUP2 ADD DUP5 MSTORE ADD DUP3 PUSH2 0xAD7 JUMP JUMPDEST PUSH1 0x1 PUSH1 0xFF SHL DUP2 EQ PUSH2 0xC8C JUMPI PUSH2 0x40B6 SWAP1 PUSH0 SUB PUSH2 0x40DD JUMP JUMPDEST PUSH2 0xD41 PUSH1 0x21 PUSH1 0x40 MLOAD DUP1 SWAP4 PUSH1 0x2D PUSH1 0xF8 SHL PUSH1 0x20 DUP4 ADD MSTORE PUSH2 0x4090 DUP2 MLOAD DUP1 SWAP3 PUSH1 0x20 DUP7 DUP7 ADD SWAP2 ADD PUSH2 0xA51 JUMP JUMPDEST PUSH1 0xA PUSH1 0x64 DUP1 DUP4 DIV SWAP3 MOD DIV SWAP1 DUP2 ISZERO PUSH2 0x4158 JUMPI PUSH1 0x22 PUSH2 0x4105 PUSH2 0x40FF PUSH2 0xD41 SWAP4 PUSH2 0x1EBB JUMP JUMPDEST SWAP4 PUSH2 0x1EBB JUMP JUMPDEST SWAP3 PUSH1 0x40 MLOAD SWAP4 DUP2 PUSH2 0x411F DUP7 SWAP4 MLOAD DUP1 SWAP3 PUSH1 0x20 DUP1 DUP8 ADD SWAP2 ADD PUSH2 0xA51 JUMP JUMPDEST DUP3 ADD PUSH1 0x17 PUSH1 0xF9 SHL PUSH1 0x20 DUP3 ADD MSTORE PUSH2 0x413F DUP3 MLOAD DUP1 SWAP4 PUSH1 0x20 PUSH1 0x21 DUP6 ADD SWAP2 ADD PUSH2 0xA51 JUMP JUMPDEST ADD PUSH1 0x25 PUSH1 0xF8 SHL PUSH1 0x21 DUP3 ADD MSTORE SUB PUSH1 0x2 DUP2 ADD DUP5 MSTORE ADD DUP3 PUSH2 0xAD7 JUMP JUMPDEST PUSH2 0x4162 SWAP2 POP PUSH2 0x1EBB JUMP JUMPDEST PUSH2 0xD41 PUSH1 0x21 PUSH1 0x40 MLOAD DUP4 PUSH2 0x417F DUP3 SWAP6 MLOAD DUP1 SWAP3 PUSH1 0x20 DUP1 DUP7 ADD SWAP2 ADD PUSH2 0xA51 JUMP JUMPDEST DUP2 ADD PUSH1 0x25 PUSH1 0xF8 SHL PUSH1 0x20 DUP3 ADD MSTORE SUB PUSH1 0x1 DUP2 ADD DUP5 MSTORE ADD DUP3 PUSH2 0xAD7 JUMP JUMPDEST PUSH1 0x40 MLOAD PUSH4 0x5ACC9009 PUSH1 0xE0 SHL DUP2 MSTORE PUSH2 0xFFFF SWAP2 SWAP1 SWAP2 AND PUSH1 0x4 DUP3 ADD MSTORE PUSH0 DUP2 PUSH1 0x24 DUP2 PUSH32 0x0 PUSH1 0x1 PUSH1 0x1 PUSH1 0xA0 SHL SUB AND GAS STATICCALL SWAP1 DUP2 ISZERO PUSH2 0xFB1 JUMPI PUSH0 SWAP2 PUSH2 0x4223 JUMPI JUMPDEST POP DUP1 MLOAD PUSH2 0xD41 JUMPI POP PUSH1 0x40 MLOAD PUSH2 0x4205 DUP2 PUSH2 0xABC JUMP JUMPDEST PUSH1 0xE DUP2 MSTORE PUSH14 0x15D9585B1D1A081C9958D95A5C1D PUSH1 0x92 SHL PUSH1 0x20 DUP3 ADD MSTORE SWAP1 JUMP JUMPDEST PUSH2 0x4237 SWAP2 POP RETURNDATASIZE DUP1 PUSH0 DUP4 RETURNDATACOPY PUSH2 0x3EDB DUP2 DUP4 PUSH2 0xAD7 JUMP JUMPDEST PUSH0 PUSH2 0x41F1 JUMP JUMPDEST PUSH1 0x40 MLOAD PUSH4 0x444E8801 PUSH1 0xE1 SHL DUP2 MSTORE PUSH2 0xFFFF SWAP2 SWAP1 SWAP2 AND PUSH1 0x4 DUP3 ADD MSTORE PUSH0 DUP2 PUSH1 0x24 DUP2 PUSH32 0x0 PUSH1 0x1 PUSH1 0x1 PUSH1 0xA0 SHL SUB AND GAS STATICCALL SWAP1 DUP2 ISZERO PUSH2 0xFB1 JUMPI PUSH0 SWAP2 PUSH2 0x42C9 JUMPI JUMPDEST POP DUP1 MLOAD PUSH2 0xD41 JUMPI POP PUSH1 0x40 MLOAD PUSH2 0x42A9 DUP2 PUSH2 0xABC JUMP JUMPDEST PUSH1 0x10 DUP2 MSTORE PUSH16 0x50726F647563742D7370656369666963 PUSH1 0x80 SHL PUSH1 0x20 DUP3 ADD MSTORE SWAP1 JUMP JUMPDEST PUSH2 0x42DD SWAP2 POP RETURNDATASIZE DUP1 PUSH0 DUP4 RETURNDATACOPY PUSH2 0x3EDB DUP2 DUP4 PUSH2 0xAD7 JUMP JUMPDEST PUSH0 PUSH2 0x4295 JUMP JUMPDEST PUSH1 0x40 MLOAD PUSH4 0x1D96D2D PUSH1 0xE2 SHL DUP2 MSTORE PUSH2 0xFFFF SWAP2 SWAP1 SWAP2 AND PUSH1 0x4 DUP3 ADD MSTORE PUSH0 DUP2 PUSH1 0x24 DUP2 PUSH32 0x0 PUSH1 0x1 PUSH1 0x1 PUSH1 0xA0 SHL SUB AND GAS STATICCALL SWAP1 DUP2 ISZERO PUSH2 0xFB1 JUMPI PUSH0 SWAP2 PUSH2 0x43A1 JUMPI JUMPDEST POP DUP1 MLOAD PUSH2 0xD41 JUMPI POP PUSH1 0x40 MLOAD PUSH2 0x434F DUP2 PUSH2 0xAA1 JUMP JUMPDEST PUSH1 0x3C DUP2 MSTORE PUSH32 0x536574746C656D656E74207465726D73207265636F7264656420696E20746865 PUSH1 0x20 DUP3 ADD MSTORE PUSH28 0x205269736B4C656E73205765616C74682064657461696C2070616765 PUSH1 0x20 SHL PUSH1 0x40 DUP3 ADD MSTORE SWAP1 JUMP JUMPDEST PUSH2 0x43B5 SWAP2 POP RETURNDATASIZE DUP1 PUSH0 DUP4 RETURNDATACOPY PUSH2 0x3EDB DUP2 DUP4 PUSH2 0xAD7 JUMP JUMPDEST PUSH0 PUSH2 0x433B JUMP INVALID LOG2 PUSH5 0x6970667358 0x22 SLT KECCAK256 0xEF EXP PUSH27 0x8ED785CA38B22DAA820F20975048D85772AA4C7CD224007AE7F794 0xB9 CHAINID PUSH5 0x736F6C6343 STOP ADDMOD XOR STOP CALLER "},"methodIdentifiers":{"hub()":"365a86fc","uri(uint256)":"0e89341c"}}}}}