{"project/contracts/MSXReplayAchievementBadge.sol":{"MSXReplayAchievementBadge":{"abi":[{"inputs":[{"internalType":"string","name":"baseUri","type":"string"}],"stateMutability":"nonpayable","type":"constructor"},{"anonymous":false,"inputs":[{"indexed":true,"internalType":"address","name":"account","type":"address"},{"indexed":true,"internalType":"uint256","name":"achievementId","type":"uint256"}],"name":"AchievementClaimed","type":"event"},{"anonymous":false,"inputs":[{"indexed":true,"internalType":"uint256","name":"achievementId","type":"uint256"},{"indexed":false,"internalType":"string","name":"label","type":"string"}],"name":"AchievementLabelUpdated","type":"event"},{"anonymous":false,"inputs":[{"indexed":true,"internalType":"address","name":"account","type":"address"},{"indexed":true,"internalType":"address","name":"operator","type":"address"},{"indexed":false,"internalType":"bool","name":"approved","type":"bool"}],"name":"ApprovalForAll","type":"event"},{"anonymous":false,"inputs":[{"indexed":true,"internalType":"address","name":"account","type":"address"},{"indexed":true,"internalType":"uint256","name":"achievementId","type":"uint256"},{"indexed":false,"internalType":"bool","name":"approved","type":"bool"}],"name":"ClaimApprovalUpdated","type":"event"},{"anonymous":false,"inputs":[{"indexed":true,"internalType":"address","name":"previousOwner","type":"address"},{"indexed":true,"internalType":"address","name":"newOwner","type":"address"}],"name":"OwnershipTransferred","type":"event"},{"anonymous":false,"inputs":[{"indexed":true,"internalType":"address","name":"account","type":"address"},{"indexed":false,"internalType":"int256","name":"netPnl","type":"int256"},{"indexed":false,"internalType":"uint256","name":"accountValue","type":"uint256"},{"indexed":false,"internalType":"uint256","name":"tradeCount","type":"uint256"},{"indexed":false,"internalType":"uint256","name":"submittedAt","type":"uint256"}],"name":"ReplayScoreSubmitted","type":"event"},{"anonymous":false,"inputs":[{"indexed":true,"internalType":"address","name":"operator","type":"address"},{"indexed":true,"internalType":"address","name":"from","type":"address"},{"indexed":true,"internalType":"address","name":"to","type":"address"},{"indexed":false,"internalType":"uint256[]","name":"ids","type":"uint256[]"},{"indexed":false,"internalType":"uint256[]","name":"values","type":"uint256[]"}],"name":"TransferBatch","type":"event"},{"anonymous":false,"inputs":[{"indexed":true,"internalType":"address","name":"operator","type":"address"},{"indexed":true,"internalType":"address","name":"from","type":"address"},{"indexed":true,"internalType":"address","name":"to","type":"address"},{"indexed":false,"internalType":"uint256","name":"id","type":"uint256"},{"indexed":false,"internalType":"uint256","name":"value","type":"uint256"}],"name":"TransferSingle","type":"event"},{"anonymous":false,"inputs":[{"indexed":false,"internalType":"string","name":"value","type":"string"},{"indexed":true,"internalType":"uint256","name":"id","type":"uint256"}],"name":"URI","type":"event"},{"inputs":[],"name":"BASE_CHECK","outputs":[{"internalType":"uint256","name":"","type":"uint256"}],"stateMutability":"view","type":"function"},{"inputs":[],"name":"LEADERBOARD","outputs":[{"internalType":"uint256","name":"","type":"uint256"}],"stateMutability":"view","type":"function"},{"inputs":[],"name":"MAX_SCORE_SUBMISSIONS_PER_DAY","outputs":[{"internalType":"uint256","name":"","type":"uint256"}],"stateMutability":"view","type":"function"},{"inputs":[],"name":"PERP_LEVERAGE","outputs":[{"internalType":"uint256","name":"","type":"uint256"}],"stateMutability":"view","type":"function"},{"inputs":[],"name":"PROTECTIVE_HEDGE","outputs":[{"internalType":"uint256","name":"","type":"uint256"}],"stateMutability":"view","type":"function"},{"inputs":[],"name":"SPOT_LOOP","outputs":[{"internalType":"uint256","name":"","type":"uint256"}],"stateMutability":"view","type":"function"},{"inputs":[{"internalType":"uint256","name":"","type":"uint256"}],"name":"achievementLabel","outputs":[{"internalType":"string","name":"","type":"string"}],"stateMutability":"view","type":"function"},{"inputs":[{"internalType":"address","name":"account","type":"address"},{"internalType":"uint256[]","name":"achievementIds","type":"uint256[]"},{"internalType":"bool","name":"approved","type":"bool"}],"name":"approveBatchClaims","outputs":[],"stateMutability":"nonpayable","type":"function"},{"inputs":[{"internalType":"address","name":"account","type":"address"},{"internalType":"uint256","name":"achievementId","type":"uint256"},{"internalType":"bool","name":"approved","type":"bool"}],"name":"approveClaim","outputs":[],"stateMutability":"nonpayable","type":"function"},{"inputs":[{"internalType":"address","name":"account","type":"address"},{"internalType":"uint256","name":"id","type":"uint256"}],"name":"balanceOf","outputs":[{"internalType":"uint256","name":"","type":"uint256"}],"stateMutability":"view","type":"function"},{"inputs":[{"internalType":"address[]","name":"accounts","type":"address[]"},{"internalType":"uint256[]","name":"ids","type":"uint256[]"}],"name":"balanceOfBatch","outputs":[{"internalType":"uint256[]","name":"","type":"uint256[]"}],"stateMutability":"view","type":"function"},{"inputs":[{"internalType":"uint256","name":"achievementId","type":"uint256"}],"name":"claim","outputs":[],"stateMutability":"nonpayable","type":"function"},{"inputs":[{"internalType":"address","name":"","type":"address"},{"internalType":"uint256","name":"","type":"uint256"}],"name":"claimApproved","outputs":[{"internalType":"bool","name":"","type":"bool"}],"stateMutability":"view","type":"function"},{"inputs":[{"internalType":"uint256[]","name":"achievementIds","type":"uint256[]"}],"name":"claimBatch","outputs":[],"stateMutability":"nonpayable","type":"function"},{"inputs":[{"internalType":"address","name":"","type":"address"}],"name":"hasSubmittedScore","outputs":[{"internalType":"bool","name":"","type":"bool"}],"stateMutability":"view","type":"function"},{"inputs":[{"internalType":"address","name":"account","type":"address"},{"internalType":"address","name":"operator","type":"address"}],"name":"isApprovedForAll","outputs":[{"internalType":"bool","name":"","type":"bool"}],"stateMutability":"view","type":"function"},{"inputs":[],"name":"owner","outputs":[{"internalType":"address","name":"","type":"address"}],"stateMutability":"view","type":"function"},{"inputs":[],"name":"renounceOwnership","outputs":[],"stateMutability":"nonpayable","type":"function"},{"inputs":[{"internalType":"address","name":"","type":"address"}],"name":"replayScoreOf","outputs":[{"internalType":"int256","name":"bestNetPnl","type":"int256"},{"internalType":"uint256","name":"bestAccountValue","type":"uint256"},{"internalType":"uint256","name":"bestTradeCount","type":"uint256"},{"internalType":"uint256","name":"lastSubmittedAt","type":"uint256"},{"internalType":"uint256","name":"submissionCount","type":"uint256"},{"internalType":"uint256","name":"submissionDay","type":"uint256"},{"internalType":"uint256","name":"submissionsToday","type":"uint256"}],"stateMutability":"view","type":"function"},{"inputs":[{"internalType":"address","name":"from","type":"address"},{"internalType":"address","name":"to","type":"address"},{"internalType":"uint256[]","name":"ids","type":"uint256[]"},{"internalType":"uint256[]","name":"amounts","type":"uint256[]"},{"internalType":"bytes","name":"data","type":"bytes"}],"name":"safeBatchTransferFrom","outputs":[],"stateMutability":"nonpayable","type":"function"},{"inputs":[{"internalType":"address","name":"from","type":"address"},{"internalType":"address","name":"to","type":"address"},{"internalType":"uint256","name":"id","type":"uint256"},{"internalType":"uint256","name":"amount","type":"uint256"},{"internalType":"bytes","name":"data","type":"bytes"}],"name":"safeTransferFrom","outputs":[],"stateMutability":"nonpayable","type":"function"},{"inputs":[{"internalType":"uint256","name":"index","type":"uint256"}],"name":"scoreAccountAt","outputs":[{"internalType":"address","name":"","type":"address"}],"stateMutability":"view","type":"function"},{"inputs":[],"name":"scoreAccountCount","outputs":[{"internalType":"uint256","name":"","type":"uint256"}],"stateMutability":"view","type":"function"},{"inputs":[{"internalType":"uint256","name":"achievementId","type":"uint256"},{"internalType":"string","name":"label","type":"string"}],"name":"setAchievementLabel","outputs":[],"stateMutability":"nonpayable","type":"function"},{"inputs":[{"internalType":"address","name":"operator","type":"address"},{"internalType":"bool","name":"approved","type":"bool"}],"name":"setApprovalForAll","outputs":[],"stateMutability":"nonpayable","type":"function"},{"inputs":[{"internalType":"string","name":"nextUri","type":"string"}],"name":"setBaseUri","outputs":[],"stateMutability":"nonpayable","type":"function"},{"inputs":[{"internalType":"int256","name":"netPnl","type":"int256"},{"internalType":"uint256","name":"accountValue","type":"uint256"},{"internalType":"uint256","name":"tradeCount","type":"uint256"}],"name":"submitScore","outputs":[],"stateMutability":"nonpayable","type":"function"},{"inputs":[{"internalType":"bytes4","name":"interfaceId","type":"bytes4"}],"name":"supportsInterface","outputs":[{"internalType":"bool","name":"","type":"bool"}],"stateMutability":"view","type":"function"},{"inputs":[{"internalType":"address","name":"newOwner","type":"address"}],"name":"transferOwnership","outputs":[],"stateMutability":"nonpayable","type":"function"},{"inputs":[{"internalType":"uint256","name":"","type":"uint256"}],"name":"uri","outputs":[{"internalType":"string","name":"","type":"string"}],"stateMutability":"view","type":"function"}],"evm":{"bytecode":{"linkReferences":{},"object":"6040608081523462000306576200250c90813803806200001f816200030a565b9384398201916020908181850312620003065780516001600160401b0391828211620003065701601f9085828201121562000306578051838111620002dd57601f199162000073828501841687016200030a565b97828952868383010111620003065785905f5b838110620002f15750505f91880101528551928311620002dd57620000ad60025462000330565b828111620002a1575b50839183116001146200023d5750819293945f9262000231575b50508160011b915f199060031b1c1916176002555b60038054336001600160a01b0319821681179092556001600160a01b03167f8be0079c531659141344cd1fd0a4f28419497f9722a3daafe3b4186f6b6457e05f80a360065f5260058152815f206200014962000142825462000330565b8262000383565b6014694261736520436865636b60b01b01905560075f5260058152815f206200017762000142825462000330565b60166a13195859195c989bd85c9960aa1b01905560085f5260058152815f20620001a662000142825462000330565b601268053706f74204c6f6f760bc1b01905560095f5260058152815f20620001d362000142825462000330565b601a6c50657270204c6576657261676560981b019055600a5f5260058152815f20906200020c62000205835462000330565b8362000383565b6f50726f7465637469766520486564676560801b0190555161215d9081620003af8239f35b015190505f80620000d0565b82169060025f52835f20915f5b818110620002895750958360019596971062000270575b505050811b01600255620000e5565b01515f1960f88460031b161c191690555f808062000261565b91928560018192868b0151815501940192016200024a565b620002cc9060025f52855f208480870160051c820192888810620002d3575b0160051c01906200036b565b5f620000b6565b92508192620002c0565b634e487b7160e01b5f52604160045260245ffd5b8181018301518a820184015287920162000086565b5f80fd5b6040519190601f01601f191682016001600160401b03811183821017620002dd57604052565b90600182811c9216801562000360575b60208310146200034c57565b634e487b7160e01b5f52602260045260245ffd5b91607f169162000340565b81811062000377575050565b5f81556001016200036b565b90601f811162000391575050565b620003ac915f52601f60205f20910160051c8101906200036b565b56fe604060808152600480361015610013575f80fd5b5f3560e01c908162fdd58e1461189857816301ffc9a71461182c5781630e89341c1461175b57816310674933146115a457816316d26e6d146114cc5781631d4c1868146114b15781632eb2c2d6146112175781632f85874a146111f9578163379607f51461103b5781634e1273f414610ecb5781634ef64c0514610dfc5781635af02de714610de157816362abebce14610bed578163681d0d6114610baa5781636961fd46146109ee578163715018a6146109935781637865cd0f146109785781638da5cb5b14610950578163a0bcfc7f146107b9578163a22cb465146106d5578163ac4d7298146106ba578163c4ebe0241461069f578163c8a3c3b514610629578163d4b0521b146105ae578163df54d23e14610593578163e985e9c514610545578163ed539364146104be578163f242432a14610270578163f2fde38b146101a5575063f956967314610166575f80fd5b346101a15760203660031901126101a1576020906001600160a01b0361018a6118c7565b165f526007825260ff815f20541690519015158152f35b5f80fd5b9050346101a15760203660031901126101a1576101c06118c7565b906101c9611d86565b6001600160a01b0391821692831561021e575050600354826bffffffffffffffffffffffff60a01b821617600355167f8be0079c531659141344cd1fd0a4f28419497f9722a3daafe3b4186f6b6457e05f80a3005b906020608492519162461bcd60e51b8352820152602660248201527f4f776e61626c653a206e6577206f776e657220697320746865207a65726f206160448201526564647265737360d01b6064820152fd5b9050346101a15760a03660031901126101a15761028b6118c7565b916102946118dd565b9260443590606435906084356001600160401b0381116101a1576102bb9036908701611ac9565b916001600160a01b0391821691338314801561049b575b6102db90611bd6565b87166102e8811515611e3b565b6102f185612102565b506102fb82612102565b50845f526020975f8952865f20845f52895282875f205461031e82821015611e95565b875f525f8b52885f20865f528b5203875f2055855f525f8952865f20825f528952865f2061034d848254611d65565b905581848851888152858c8201527fc3d58168c5ae7397731d063d5bbf3d657854427343f4c083240f7aacaa2d0f628a3392a43b61038757005b86945f89946103c989519788968795869463f23a6e6160e01b9c8d8752339087015260248601526044850152606484015260a0608484015260a48301906118f3565b03925af15f918161046c575b5061043d5750506103e4612025565b6308c379a01461040c575b5162461bcd60e51b8152915081906104089082016120ad565b0390fd5b610414612040565b8061041f57506103ef565b610408915193849362461bcd60e51b855284015260248301906118f3565b9193506001600160e01b03199091160361045357005b905162461bcd60e51b8152908190610408908201611fdc565b61048d919250863d8811610494575b61048581836119e0565b810190611fbc565b905f6103d5565b503d61047b565b50825f526001602052855f20335f526020526102db60ff875f20541690506102d2565b9050346101a15760603660031901126101a1577f9a91707d0ffd2febd948eb104af3b951795e9395cc97d50ab19776a94f0136dd60206104fc6118c7565b60243594610508611b47565b91610511611d86565b6001600160a01b03165f818152958452818620878752845294819020805460ff191660ff84151516179055519015158152a3005b82346101a157806003193601126101a1576020906105616118c7565b6105696118dd565b9060018060a01b038091165f5260018452825f2091165f52825260ff815f20541690519015158152f35b82346101a1575f3660031901126101a1576020905160068152f35b9050346101a15760203660031901126101a1578035906008548210156105f0576020836105da84611d30565b905491519160018060a01b039160031b1c168152f35b606490602084519162461bcd60e51b83528201526013602482015272496e646578206f7574206f6620626f756e647360681b6044820152fd5b82346101a15760203660031901126101a15760e0916001600160a01b0361064e6118c7565b165f526006602052815f208054926001820154926002830154600384015491840154926006600586015495015495815197885260208801528601526060850152608084015260a083015260c0820152f35b82346101a1575f3660031901126101a1576020905160038152f35b82346101a1575f3660031901126101a15760209051600a8152f35b82346101a157806003193601126101a1576106ee6118c7565b90602435801515928382036101a1576001600160a01b031693338514610764575061073890335f526001602052825f20855f52602052825f209060ff801983541691151516179055565b519081527f17307eab39ab6107e8899845ad3d59bd9653f200f220920489ca2b5937696c3160203392a3005b608490602084519162461bcd60e51b8352820152602960248201527f455243313135353a2073657474696e6720617070726f76616c20737461747573604482015268103337b91039b2b63360b91b6064820152fd5b346101a1576020806003193601126101a1576001600160401b039082358281116101a1576107ed6107fc9136908601611931565b6107f5611d86565b3691611a84565b92835192831161093d575061081260025461195e565b601f81116108da575b50602090601f831160011461085c5750819061084c935f92610851575b50508160011b915f199060031b1c19161790565b600255005b015190508380610838565b90601f1983169360025f527f405787fa12a823e0f2b7631cc41b3ba8828b3321ca811111fa75cd3aa3bb5ace925f905b8682106108c257505083600195106108aa575b505050811b01600255005b01515f1960f88460031b161c1916905582808061089f565b8060018596829496860151815501950193019061088c565b60025f527f405787fa12a823e0f2b7631cc41b3ba8828b3321ca811111fa75cd3aa3bb5ace601f840160051c81019160208510610933575b601f0160051c01905b818110610928575061081b565b5f815560010161091b565b9091508190610912565b604190634e487b7160e01b5f525260245ffd5b82346101a1575f3660031901126101a15760035490516001600160a01b039091168152602090f35b82346101a1575f3660031901126101a1576020905160088152f35b346101a1575f3660031901126101a1576109ab611d86565b600380546001600160a01b031981169091555f906001600160a01b03167f8be0079c531659141344cd1fd0a4f28419497f9722a3daafe3b4186f6b6457e08280a3005b9050346101a15760603660031901126101a15780359160243560443592335f526006602052825f20906201518042046007602052845f20805460ff811615610b47575b50506005830181815403610b39575b505060068201908154926003841015610af657808291548913610ae2575b4260038201550180549060018201809211610acf575560018301809311610abc575055815193845260208401528201524260608201527ff6d69723c1e13a6e751ff8839d394f04ffffc588fdd13a7cfd1fdfc1bf87ebe160803392a2005b601190634e487b7160e01b5f525260245ffd5b601183634e487b7160e01b5f525260245ffd5b888155856001820155876002820155610a5e565b855162461bcd60e51b8152602081840152601960248201527f4461696c792073636f7265206c696d69742072656163686564000000000000006044820152606490fd5b555f60068301555f80610a40565b60ff1916600117905560085468010000000000000000811015610b9757806001610b749201600855611d30565b81546001600160a01b0360039290921b91821b19163390911b1790555f80610a31565b604183634e487b7160e01b5f525260245ffd5b82346101a157806003193601126101a1576020916001600160a01b03610bce6118c7565b165f528252805f206024355f52825260ff815f20541690519015158152f35b82346101a1576020916003199183833601126101a15781356001600160401b0381116101a157610c209036908401611b17565b905f5b828110610da95750610c3482611cb9565b915f5b818110610d94575090610c4b913691611a18565b928251610c5781611996565b5f8152610c65331515611f66565b610c728551845114611dde565b5f5b8551811015610cb95780610c8a60019286611d0c565b51610c958289611d0c565b515f525f8a52865f20335f528a52610cb1875f20918254611d65565b905501610c74565b50909391869584515f33917f4a39dc06d4c0dbc64b70af90fd698a233a518aa5d07e595d983b8c0526c8f7fb339180610cf3888b83611ef4565b0390a4333b610cfe57005b8691610d59610d4a9287519586948594610d3a63bc197c8160e01b9a8b88528d33908901525f602489015260a0604489015260a4880190611ae4565b9084878303016064880152611ae4565b918483030160848501526118f3565b03815f335af15f9181610d75575061043d5750506103e4612025565b610d8d919250863d88116104945761048581836119e0565b90866103d5565b806001610da2819387611d0c565b5201610c37565b80610ddb610dd5610dbd6001948787611d20565b35610dcf610dca82611f19565b611c39565b33611b56565b15611c7b565b01610c23565b82346101a1575f3660031901126101a1576020905160098152f35b9050346101a15760603660031901126101a157610e176118c7565b906024356001600160401b0381116101a15790610e38849236908301611b17565b610e43949194611b47565b92610e4c611d86565b6001600160a01b03909216918315155f5b838110610e6657005b80610e74600192868b611d20565b35865f52867f9a91707d0ffd2febd948eb104af3b951795e9395cc97d50ab19776a94f0136dd60208781528b5f20845f528152610ebf8b8d5f209060ff801983541691151516179055565b8b51878152a301610e5d565b82346101a157806003193601126101a1576001600160401b039180358381116101a157366023820112156101a1578082013593610f0785611a01565b91610f14855193846119e0565b85835260209560248785019160051b830101913683116101a157602401905b82821061101c575050506024359081116101a157610f549036908401611a66565b918151835103610fc75750610f698151611cb9565b935f5b8251811015610fb157600190610fa06001600160a01b03610f8d8387611d0c565b5116610f998388611d0c565b5190611b56565b610faa8289611d0c565b5201610f6c565b845182815280610fc381850189611ae4565b0390f35b835162461bcd60e51b8152908101859052602960248201527f455243313135353a206163636f756e747320616e6420696473206c656e677468604482015268040dad2e6dac2e8c6d60bb1b6064820152608490fd5b81356001600160a01b03811681036101a1578152908701908701610f33565b9050346101a157602090816003193601126101a15780359261105f610dca85611f19565b61106c610dd58533611b56565b805161107781611996565b5f8152611085331515611f66565b61108e85612102565b5060016110ad835161109f816119c5565b828152863681830137611ceb565b52845f525f8452815f20335f528452815f20805490600182018092116111e6575581518581526001858201525f33917fc3d58168c5ae7397731d063d5bbf3d657854427343f4c083240f7aacaa2d0f62853392a4333b611130575b84337f04844d30b922ffc2b845400eb2a15cdd62742176c723e09d7cc9703e83645e4b5f80a3005b81929394915185818061117163f23a6e6160e01b95868352338a8401525f60248401528760448401526001606484015260a0608484015260a48301906118f3565b03815f335af15f91816111c7575b5061118f575050506103e4612025565b9194506001600160e01b0319909116036111ae5750505f808080611108565b5162461bcd60e51b815291508190610408908201611fdc565b6111df919250873d89116104945761048581836119e0565b905f61117f565b601185634e487b7160e01b5f525260245ffd5b82346101a1575f3660031901126101a1576020906008549051908152f35b9050346101a1576003199060a0368301126101a1576112346118c7565b9161123d6118dd565b926001600160401b03926044358481116101a15761125e9036908301611a66565b906064358581116101a1576112769036908301611a66565b946084359081116101a15761128e9036908301611ac9565b936001600160a01b0393841693338514801561148e575b6112ae90611bd6565b6112bb8451885114611dde565b8716946112c9861515611e3b565b5f5b845181101561134757806112e160019287611d0c565b516112ec828b611d0c565b5190805f526020905f82528d5f208a5f5282528d83815f205461131182821015611e95565b835f525f8552825f208d5f52855203905f20555f525f81528c5f20908a5f525261133f8c5f20918254611d65565b9055016112cb565b509094939592919684878a517f4a39dc06d4c0dbc64b70af90fd698a233a518aa5d07e595d983b8c0526c8f7fb3391806113828a8a83611ef4565b0390a43b61138c57005b8751948593849363bc197c8160e01b98898652338b87015260248601526044850160a0905260a485016113be91611ae4565b828582030160648601526113d191611ae4565b908382030160848401526113e4916118f3565b03815a6020945f91f15f918161146d575b5061145c575050611404612025565b6308c379a014611428575b905162461bcd60e51b81529081906104089082016120ad565b611430612040565b8061143b575061140f565b610408906020935193849362461bcd60e51b855284015260248301906118f3565b6001600160e01b0319160361045357005b61148791925060203d6020116104945761048581836119e0565b905f6113f5565b50845f526001602052885f20335f526020526112ae60ff8a5f20541690506112a5565b82346101a1575f3660031901126101a1576020905160078152f35b9050346101a157602090816003193601126101a157355f5260058152815f2091805180935f9080546114fd8161195e565b91828552600191876001821691825f1461157d57505060011461153d575b505050610fc3929161152e9103856119e0565b519282849384528301906118f3565b8693505f92919252825f20915f925b828410611565575050508201018161152e610fc361151b565b8054848a01860152889550879490930192810161154c565b60ff19168782015293151560051b8601909301935084925061152e9150610fc3905061151b565b82346101a157806003193601126101a1578135906001600160401b03906024358281116101a1576115d89036908601611931565b926115e1611d86565b845f5260209560058752835f2091851161093d5750611600815461195e565b601f8111611718575b505f601f8511600114611690577f0f1c7b1b56d5d626af1e77abead63b7d49ace9e5819ee9a93ff02e02d9da3271959692859261165d848080955f91611685575b508160011b915f199060031b1c19161790565b90555b8451958487958652850152848401375f828201840152601f01601f19168101030190a2005b90508401358c61164a565b601f19851690825f52875f20915f5b8181106117015750928693927f0f1c7b1b56d5d626af1e77abead63b7d49ace9e5819ee9a93ff02e02d9da327198999592858095106116e8575b5050600183811b019055611660565b8301355f19600386901b60f8161c1916905589806116d9565b91928960018192868901358155019401920161169f565b815f52865f20601f860160051c810191888710611751575b601f0160051c01905b8181106117465750611609565b5f8155600101611739565b9091508190611730565b82346101a1576020806003193601126101a157815191825f60025461177f8161195e565b90818452600190866001821691825f1461180a5750506001146117af575b5050610fc3929161152e9103856119e0565b9085925060025f527f405787fa12a823e0f2b7631cc41b3ba8828b3321ca811111fa75cd3aa3bb5ace915f925b8284106117f2575050508201018161152e61179d565b8054848a0186015288955087949093019281016117dc565b60ff19168682015292151560051b8501909201925083915061152e905061179d565b9050346101a15760203660031901126101a1573563ffffffff60e01b81168091036101a157602091636cdb3d1360e11b8214918215611887575b8215611876575b50519015158152f35b6301ffc9a760e01b1491505f61186d565b6303a24d0760e21b81149250611866565b82346101a157806003193601126101a1576020906118c06118b76118c7565b60243590611b56565b9051908152f35b600435906001600160a01b03821682036101a157565b602435906001600160a01b03821682036101a157565b91908251928382525f5b84811061191d575050825f602080949584010152601f8019910116010190565b6020818301810151848301820152016118fd565b9181601f840112156101a1578235916001600160401b0383116101a157602083818601950101116101a157565b90600182811c9216801561198c575b602083101461197857565b634e487b7160e01b5f52602260045260245ffd5b91607f169161196d565b602081019081106001600160401b038211176119b157604052565b634e487b7160e01b5f52604160045260245ffd5b604081019081106001600160401b038211176119b157604052565b90601f801991011681019081106001600160401b038211176119b157604052565b6001600160401b0381116119b15760051b60200190565b9291611a2382611a01565b91611a3160405193846119e0565b829481845260208094019160051b81019283116101a157905b828210611a575750505050565b81358152908301908301611a4a565b9080601f830112156101a157816020611a8193359101611a18565b90565b9291926001600160401b0382116119b15760405191611aad601f8201601f1916602001846119e0565b8294818452818301116101a1578281602093845f960137010152565b9080601f830112156101a157816020611a8193359101611a84565b9081518082526020808093019301915f5b828110611b03575050505090565b835185529381019392810192600101611af5565b9181601f840112156101a1578235916001600160401b0383116101a1576020808501948460051b0101116101a157565b6044359081151582036101a157565b6001600160a01b0316908115611b7e575f525f60205260405f20905f5260205260405f205490565b60405162461bcd60e51b815260206004820152602a60248201527f455243313135353a2061646472657373207a65726f206973206e6f742061207660448201526930b634b21037bbb732b960b11b6064820152608490fd5b15611bdd57565b60405162461bcd60e51b815260206004820152602e60248201527f455243313135353a2063616c6c6572206973206e6f7420746f6b656e206f776e60448201526d195c881bdc88185c1c1c9bdd995960921b6064820152608490fd5b15611c4057565b60405162461bcd60e51b8152602060048201526013602482015272125b9d985b1a59081858da1a595d995b595b9d606a1b6044820152606490fd5b15611c8257565b60405162461bcd60e51b815260206004820152600f60248201526e105b1c9958591e4818db185a5b5959608a1b6044820152606490fd5b90611cc382611a01565b611cd060405191826119e0565b8281528092611ce1601f1991611a01565b0190602036910137565b805115611cf85760200190565b634e487b7160e01b5f52603260045260245ffd5b8051821015611cf85760209160051b010190565b9190811015611cf85760051b0190565b600854811015611cf85760085f527ff3f7a9fe364faab93b216da50a3214154f22a0a2b415b23a84c8169e8b636ee301905f90565b91908201809211611d7257565b634e487b7160e01b5f52601160045260245ffd5b6003546001600160a01b03163303611d9a57565b606460405162461bcd60e51b815260206004820152602060248201527f4f776e61626c653a2063616c6c6572206973206e6f7420746865206f776e65726044820152fd5b15611de557565b60405162461bcd60e51b815260206004820152602860248201527f455243313135353a2069647320616e6420616d6f756e7473206c656e677468206044820152670dad2e6dac2e8c6d60c31b6064820152608490fd5b15611e4257565b60405162461bcd60e51b815260206004820152602560248201527f455243313135353a207472616e7366657220746f20746865207a65726f206164604482015264647265737360d81b6064820152608490fd5b15611e9c57565b60405162461bcd60e51b815260206004820152602a60248201527f455243313135353a20696e73756666696369656e742062616c616e636520666f60448201526939103a3930b739b332b960b11b6064820152608490fd5b9091611f0b611a8193604084526040840190611ae4565b916020818403910152611ae4565b60068114908115611f5b575b8115611f50575b8115611f45575b8115611f3d575090565b600a91501490565b600981149150611f33565b600881149150611f2c565b600781149150611f25565b15611f6d57565b60405162461bcd60e51b815260206004820152602160248201527f455243313135353a206d696e7420746f20746865207a65726f206164647265736044820152607360f81b6064820152608490fd5b908160209103126101a157516001600160e01b0319811681036101a15790565b60809060208152602860208201527f455243313135353a204552433131353552656365697665722072656a656374656040820152676420746f6b656e7360c01b60608201520190565b5f9060033d1161203157565b905060045f803e5f5160e01c90565b5f60443d10611a8157604051600319913d83016004833e81516001600160401b03918282113d60248401111761209c578184019485519384116120a4573d8501016020848701011161209c5750611a81929101602001906119e0565b949350505050565b50949350505050565b60809060208152603460208201527f455243313135353a207472616e7366657220746f206e6f6e2d455243313135356040820152732932b1b2b4bb32b91034b6b83632b6b2b73a32b960611b60608201520190565b6040519061210f826119c5565b600182526020368184013761212382611ceb565b529056fea2646970667358221220cf14e2748383715bec4a3464d1b08104b2fe31557907cecadac65dea1441815c64736f6c63430008180033","opcodes":"PUSH1 0x40 PUSH1 0x80 DUP2 MSTORE CALLVALUE PUSH3 0x306 JUMPI PUSH3 0x250C SWAP1 DUP2 CODESIZE SUB DUP1 PUSH3 0x1F DUP2 PUSH3 0x30A JUMP JUMPDEST SWAP4 DUP5 CODECOPY DUP3 ADD SWAP2 PUSH1 0x20 SWAP1 DUP2 DUP2 DUP6 SUB SLT PUSH3 0x306 JUMPI DUP1 MLOAD PUSH1 0x1 PUSH1 0x1 PUSH1 0x40 SHL SUB SWAP2 DUP3 DUP3 GT PUSH3 0x306 JUMPI ADD PUSH1 0x1F SWAP1 DUP6 DUP3 DUP3 ADD SLT ISZERO PUSH3 0x306 JUMPI DUP1 MLOAD DUP4 DUP2 GT PUSH3 0x2DD JUMPI PUSH1 0x1F NOT SWAP2 PUSH3 0x73 DUP3 DUP6 ADD DUP5 AND DUP8 ADD PUSH3 0x30A JUMP JUMPDEST SWAP8 DUP3 DUP10 MSTORE DUP7 DUP4 DUP4 ADD ADD GT PUSH3 0x306 JUMPI DUP6 SWAP1 PUSH0 JUMPDEST DUP4 DUP2 LT PUSH3 0x2F1 JUMPI POP POP PUSH0 SWAP2 DUP9 ADD ADD MSTORE DUP6 MLOAD SWAP3 DUP4 GT PUSH3 0x2DD JUMPI PUSH3 0xAD PUSH1 0x2 SLOAD PUSH3 0x330 JUMP JUMPDEST DUP3 DUP2 GT PUSH3 0x2A1 JUMPI JUMPDEST POP DUP4 SWAP2 DUP4 GT PUSH1 0x1 EQ PUSH3 0x23D JUMPI POP DUP2 SWAP3 SWAP4 SWAP5 PUSH0 SWAP3 PUSH3 0x231 JUMPI JUMPDEST POP POP DUP2 PUSH1 0x1 SHL SWAP2 PUSH0 NOT SWAP1 PUSH1 0x3 SHL SHR NOT AND OR PUSH1 0x2 SSTORE JUMPDEST PUSH1 0x3 DUP1 SLOAD CALLER PUSH1 0x1 PUSH1 0x1 PUSH1 0xA0 SHL SUB NOT DUP3 AND DUP2 OR SWAP1 SWAP3 SSTORE PUSH1 0x1 PUSH1 0x1 PUSH1 0xA0 SHL SUB AND PUSH32 0x8BE0079C531659141344CD1FD0A4F28419497F9722A3DAAFE3B4186F6B6457E0 PUSH0 DUP1 LOG3 PUSH1 0x6 PUSH0 MSTORE PUSH1 0x5 DUP2 MSTORE DUP2 PUSH0 KECCAK256 PUSH3 0x149 PUSH3 0x142 DUP3 SLOAD PUSH3 0x330 JUMP JUMPDEST DUP3 PUSH3 0x383 JUMP JUMPDEST PUSH1 0x14 PUSH10 0x4261736520436865636B PUSH1 0xB0 SHL ADD SWAP1 SSTORE PUSH1 0x7 PUSH0 MSTORE PUSH1 0x5 DUP2 MSTORE DUP2 PUSH0 KECCAK256 PUSH3 0x177 PUSH3 0x142 DUP3 SLOAD PUSH3 0x330 JUMP JUMPDEST PUSH1 0x16 PUSH11 0x13195859195C989BD85C99 PUSH1 0xAA SHL ADD SWAP1 SSTORE PUSH1 0x8 PUSH0 MSTORE PUSH1 0x5 DUP2 MSTORE DUP2 PUSH0 KECCAK256 PUSH3 0x1A6 PUSH3 0x142 DUP3 SLOAD PUSH3 0x330 JUMP JUMPDEST PUSH1 0x12 PUSH9 0x53706F74204C6F6F7 PUSH1 0xBC SHL ADD SWAP1 SSTORE PUSH1 0x9 PUSH0 MSTORE PUSH1 0x5 DUP2 MSTORE DUP2 PUSH0 KECCAK256 PUSH3 0x1D3 PUSH3 0x142 DUP3 SLOAD PUSH3 0x330 JUMP JUMPDEST PUSH1 0x1A PUSH13 0x50657270204C65766572616765 PUSH1 0x98 SHL ADD SWAP1 SSTORE PUSH1 0xA PUSH0 MSTORE PUSH1 0x5 DUP2 MSTORE DUP2 PUSH0 KECCAK256 SWAP1 PUSH3 0x20C PUSH3 0x205 DUP4 SLOAD PUSH3 0x330 JUMP JUMPDEST DUP4 PUSH3 0x383 JUMP JUMPDEST PUSH16 0x50726F74656374697665204865646765 PUSH1 0x80 SHL ADD SWAP1 SSTORE MLOAD PUSH2 0x215D SWAP1 DUP2 PUSH3 0x3AF DUP3 CODECOPY RETURN JUMPDEST ADD MLOAD SWAP1 POP PUSH0 DUP1 PUSH3 0xD0 JUMP JUMPDEST DUP3 AND SWAP1 PUSH1 0x2 PUSH0 MSTORE DUP4 PUSH0 KECCAK256 SWAP2 PUSH0 JUMPDEST DUP2 DUP2 LT PUSH3 0x289 JUMPI POP SWAP6 DUP4 PUSH1 0x1 SWAP6 SWAP7 SWAP8 LT PUSH3 0x270 JUMPI JUMPDEST POP POP POP DUP2 SHL ADD PUSH1 0x2 SSTORE PUSH3 0xE5 JUMP JUMPDEST ADD MLOAD PUSH0 NOT PUSH1 0xF8 DUP5 PUSH1 0x3 SHL AND SHR NOT AND SWAP1 SSTORE PUSH0 DUP1 DUP1 PUSH3 0x261 JUMP JUMPDEST SWAP2 SWAP3 DUP6 PUSH1 0x1 DUP2 SWAP3 DUP7 DUP12 ADD MLOAD DUP2 SSTORE ADD SWAP5 ADD SWAP3 ADD PUSH3 0x24A JUMP JUMPDEST PUSH3 0x2CC SWAP1 PUSH1 0x2 PUSH0 MSTORE DUP6 PUSH0 KECCAK256 DUP5 DUP1 DUP8 ADD PUSH1 0x5 SHR DUP3 ADD SWAP3 DUP9 DUP9 LT PUSH3 0x2D3 JUMPI JUMPDEST ADD PUSH1 0x5 SHR ADD SWAP1 PUSH3 0x36B JUMP JUMPDEST PUSH0 PUSH3 0xB6 JUMP JUMPDEST SWAP3 POP DUP2 SWAP3 PUSH3 0x2C0 JUMP JUMPDEST PUSH4 0x4E487B71 PUSH1 0xE0 SHL PUSH0 MSTORE PUSH1 0x41 PUSH1 0x4 MSTORE PUSH1 0x24 PUSH0 REVERT JUMPDEST DUP2 DUP2 ADD DUP4 ADD MLOAD DUP11 DUP3 ADD DUP5 ADD MSTORE DUP8 SWAP3 ADD PUSH3 0x86 JUMP JUMPDEST PUSH0 DUP1 REVERT JUMPDEST PUSH1 0x40 MLOAD SWAP2 SWAP1 PUSH1 0x1F ADD PUSH1 0x1F NOT AND DUP3 ADD PUSH1 0x1 PUSH1 0x1 PUSH1 0x40 SHL SUB DUP2 GT DUP4 DUP3 LT OR PUSH3 0x2DD JUMPI PUSH1 0x40 MSTORE JUMP JUMPDEST SWAP1 PUSH1 0x1 DUP3 DUP2 SHR SWAP3 AND DUP1 ISZERO PUSH3 0x360 JUMPI JUMPDEST PUSH1 0x20 DUP4 LT EQ PUSH3 0x34C JUMPI JUMP JUMPDEST PUSH4 0x4E487B71 PUSH1 0xE0 SHL PUSH0 MSTORE PUSH1 0x22 PUSH1 0x4 MSTORE PUSH1 0x24 PUSH0 REVERT JUMPDEST SWAP2 PUSH1 0x7F AND SWAP2 PUSH3 0x340 JUMP JUMPDEST DUP2 DUP2 LT PUSH3 0x377 JUMPI POP POP JUMP JUMPDEST PUSH0 DUP2 SSTORE PUSH1 0x1 ADD PUSH3 0x36B JUMP JUMPDEST SWAP1 PUSH1 0x1F DUP2 GT PUSH3 0x391 JUMPI POP POP JUMP JUMPDEST PUSH3 0x3AC SWAP2 PUSH0 MSTORE PUSH1 0x1F PUSH1 0x20 PUSH0 KECCAK256 SWAP2 ADD PUSH1 0x5 SHR DUP2 ADD SWAP1 PUSH3 0x36B JUMP JUMPDEST JUMP INVALID PUSH1 0x40 PUSH1 0x80 DUP2 MSTORE PUSH1 0x4 DUP1 CALLDATASIZE LT ISZERO PUSH2 0x13 JUMPI PUSH0 DUP1 REVERT JUMPDEST PUSH0 CALLDATALOAD PUSH1 0xE0 SHR SWAP1 DUP2 PUSH3 0xFDD58E EQ PUSH2 0x1898 JUMPI DUP2 PUSH4 0x1FFC9A7 EQ PUSH2 0x182C JUMPI DUP2 PUSH4 0xE89341C EQ PUSH2 0x175B JUMPI DUP2 PUSH4 0x10674933 EQ PUSH2 0x15A4 JUMPI DUP2 PUSH4 0x16D26E6D EQ PUSH2 0x14CC JUMPI DUP2 PUSH4 0x1D4C1868 EQ PUSH2 0x14B1 JUMPI DUP2 PUSH4 0x2EB2C2D6 EQ PUSH2 0x1217 JUMPI DUP2 PUSH4 0x2F85874A EQ PUSH2 0x11F9 JUMPI DUP2 PUSH4 0x379607F5 EQ PUSH2 0x103B JUMPI DUP2 PUSH4 0x4E1273F4 EQ PUSH2 0xECB JUMPI DUP2 PUSH4 0x4EF64C05 EQ PUSH2 0xDFC JUMPI DUP2 PUSH4 0x5AF02DE7 EQ PUSH2 0xDE1 JUMPI DUP2 PUSH4 0x62ABEBCE EQ PUSH2 0xBED JUMPI DUP2 PUSH4 0x681D0D61 EQ PUSH2 0xBAA JUMPI DUP2 PUSH4 0x6961FD46 EQ PUSH2 0x9EE JUMPI DUP2 PUSH4 0x715018A6 EQ PUSH2 0x993 JUMPI DUP2 PUSH4 0x7865CD0F EQ PUSH2 0x978 JUMPI DUP2 PUSH4 0x8DA5CB5B EQ PUSH2 0x950 JUMPI DUP2 PUSH4 0xA0BCFC7F EQ PUSH2 0x7B9 JUMPI DUP2 PUSH4 0xA22CB465 EQ PUSH2 0x6D5 JUMPI DUP2 PUSH4 0xAC4D7298 EQ PUSH2 0x6BA JUMPI DUP2 PUSH4 0xC4EBE024 EQ PUSH2 0x69F JUMPI DUP2 PUSH4 0xC8A3C3B5 EQ PUSH2 0x629 JUMPI DUP2 PUSH4 0xD4B0521B EQ PUSH2 0x5AE JUMPI DUP2 PUSH4 0xDF54D23E EQ PUSH2 0x593 JUMPI DUP2 PUSH4 0xE985E9C5 EQ PUSH2 0x545 JUMPI DUP2 PUSH4 0xED539364 EQ PUSH2 0x4BE JUMPI DUP2 PUSH4 0xF242432A EQ PUSH2 0x270 JUMPI DUP2 PUSH4 0xF2FDE38B EQ PUSH2 0x1A5 JUMPI POP PUSH4 0xF9569673 EQ PUSH2 0x166 JUMPI PUSH0 DUP1 REVERT JUMPDEST CALLVALUE PUSH2 0x1A1 JUMPI PUSH1 0x20 CALLDATASIZE PUSH1 0x3 NOT ADD SLT PUSH2 0x1A1 JUMPI PUSH1 0x20 SWAP1 PUSH1 0x1 PUSH1 0x1 PUSH1 0xA0 SHL SUB PUSH2 0x18A PUSH2 0x18C7 JUMP JUMPDEST AND PUSH0 MSTORE PUSH1 0x7 DUP3 MSTORE PUSH1 0xFF DUP2 PUSH0 KECCAK256 SLOAD AND SWAP1 MLOAD SWAP1 ISZERO ISZERO DUP2 MSTORE RETURN JUMPDEST PUSH0 DUP1 REVERT JUMPDEST SWAP1 POP CALLVALUE PUSH2 0x1A1 JUMPI PUSH1 0x20 CALLDATASIZE PUSH1 0x3 NOT ADD SLT PUSH2 0x1A1 JUMPI PUSH2 0x1C0 PUSH2 0x18C7 JUMP JUMPDEST SWAP1 PUSH2 0x1C9 PUSH2 0x1D86 JUMP JUMPDEST PUSH1 0x1 PUSH1 0x1 PUSH1 0xA0 SHL SUB SWAP2 DUP3 AND SWAP3 DUP4 ISZERO PUSH2 0x21E JUMPI POP POP PUSH1 0x3 SLOAD DUP3 PUSH12 0xFFFFFFFFFFFFFFFFFFFFFFFF PUSH1 0xA0 SHL DUP3 AND OR PUSH1 0x3 SSTORE AND PUSH32 0x8BE0079C531659141344CD1FD0A4F28419497F9722A3DAAFE3B4186F6B6457E0 PUSH0 DUP1 LOG3 STOP JUMPDEST SWAP1 PUSH1 0x20 PUSH1 0x84 SWAP3 MLOAD SWAP2 PUSH3 0x461BCD PUSH1 0xE5 SHL DUP4 MSTORE DUP3 ADD MSTORE PUSH1 0x26 PUSH1 0x24 DUP3 ADD MSTORE PUSH32 0x4F776E61626C653A206E6577206F776E657220697320746865207A65726F2061 PUSH1 0x44 DUP3 ADD MSTORE PUSH6 0x646472657373 PUSH1 0xD0 SHL PUSH1 0x64 DUP3 ADD MSTORE REVERT JUMPDEST SWAP1 POP CALLVALUE PUSH2 0x1A1 JUMPI PUSH1 0xA0 CALLDATASIZE PUSH1 0x3 NOT ADD SLT PUSH2 0x1A1 JUMPI PUSH2 0x28B PUSH2 0x18C7 JUMP JUMPDEST SWAP2 PUSH2 0x294 PUSH2 0x18DD JUMP JUMPDEST SWAP3 PUSH1 0x44 CALLDATALOAD SWAP1 PUSH1 0x64 CALLDATALOAD SWAP1 PUSH1 0x84 CALLDATALOAD PUSH1 0x1 PUSH1 0x1 PUSH1 0x40 SHL SUB DUP2 GT PUSH2 0x1A1 JUMPI PUSH2 0x2BB SWAP1 CALLDATASIZE SWAP1 DUP8 ADD PUSH2 0x1AC9 JUMP JUMPDEST SWAP2 PUSH1 0x1 PUSH1 0x1 PUSH1 0xA0 SHL SUB SWAP2 DUP3 AND SWAP2 CALLER DUP4 EQ DUP1 ISZERO PUSH2 0x49B JUMPI JUMPDEST PUSH2 0x2DB SWAP1 PUSH2 0x1BD6 JUMP JUMPDEST DUP8 AND PUSH2 0x2E8 DUP2 ISZERO ISZERO PUSH2 0x1E3B JUMP JUMPDEST PUSH2 0x2F1 DUP6 PUSH2 0x2102 JUMP JUMPDEST POP PUSH2 0x2FB DUP3 PUSH2 0x2102 JUMP JUMPDEST POP DUP5 PUSH0 MSTORE PUSH1 0x20 SWAP8 PUSH0 DUP10 MSTORE DUP7 PUSH0 KECCAK256 DUP5 PUSH0 MSTORE DUP10 MSTORE DUP3 DUP8 PUSH0 KECCAK256 SLOAD PUSH2 0x31E DUP3 DUP3 LT ISZERO PUSH2 0x1E95 JUMP JUMPDEST DUP8 PUSH0 MSTORE PUSH0 DUP12 MSTORE DUP9 PUSH0 KECCAK256 DUP7 PUSH0 MSTORE DUP12 MSTORE SUB DUP8 PUSH0 KECCAK256 SSTORE DUP6 PUSH0 MSTORE PUSH0 DUP10 MSTORE DUP7 PUSH0 KECCAK256 DUP3 PUSH0 MSTORE DUP10 MSTORE DUP7 PUSH0 KECCAK256 PUSH2 0x34D DUP5 DUP3 SLOAD PUSH2 0x1D65 JUMP JUMPDEST SWAP1 SSTORE DUP2 DUP5 DUP9 MLOAD DUP9 DUP2 MSTORE DUP6 DUP13 DUP3 ADD MSTORE PUSH32 0xC3D58168C5AE7397731D063D5BBF3D657854427343F4C083240F7AACAA2D0F62 DUP11 CALLER SWAP3 LOG4 EXTCODESIZE PUSH2 0x387 JUMPI STOP JUMPDEST DUP7 SWAP5 PUSH0 DUP10 SWAP5 PUSH2 0x3C9 DUP10 MLOAD SWAP8 DUP9 SWAP7 DUP8 SWAP6 DUP7 SWAP5 PUSH4 0xF23A6E61 PUSH1 0xE0 SHL SWAP13 DUP14 DUP8 MSTORE CALLER SWAP1 DUP8 ADD MSTORE PUSH1 0x24 DUP7 ADD MSTORE PUSH1 0x44 DUP6 ADD MSTORE PUSH1 0x64 DUP5 ADD MSTORE PUSH1 0xA0 PUSH1 0x84 DUP5 ADD MSTORE PUSH1 0xA4 DUP4 ADD SWAP1 PUSH2 0x18F3 JUMP JUMPDEST SUB SWAP3 GAS CALL PUSH0 SWAP2 DUP2 PUSH2 0x46C JUMPI JUMPDEST POP PUSH2 0x43D JUMPI POP POP PUSH2 0x3E4 PUSH2 0x2025 JUMP JUMPDEST PUSH4 0x8C379A0 EQ PUSH2 0x40C JUMPI JUMPDEST MLOAD PUSH3 0x461BCD PUSH1 0xE5 SHL DUP2 MSTORE SWAP2 POP DUP2 SWAP1 PUSH2 0x408 SWAP1 DUP3 ADD PUSH2 0x20AD JUMP JUMPDEST SUB SWAP1 REVERT JUMPDEST PUSH2 0x414 PUSH2 0x2040 JUMP JUMPDEST DUP1 PUSH2 0x41F JUMPI POP PUSH2 0x3EF JUMP JUMPDEST PUSH2 0x408 SWAP2 MLOAD SWAP4 DUP5 SWAP4 PUSH3 0x461BCD PUSH1 0xE5 SHL DUP6 MSTORE DUP5 ADD MSTORE PUSH1 0x24 DUP4 ADD SWAP1 PUSH2 0x18F3 JUMP JUMPDEST SWAP2 SWAP4 POP PUSH1 0x1 PUSH1 0x1 PUSH1 0xE0 SHL SUB NOT SWAP1 SWAP2 AND SUB PUSH2 0x453 JUMPI STOP JUMPDEST SWAP1 MLOAD PUSH3 0x461BCD PUSH1 0xE5 SHL DUP2 MSTORE SWAP1 DUP2 SWAP1 PUSH2 0x408 SWAP1 DUP3 ADD PUSH2 0x1FDC JUMP JUMPDEST PUSH2 0x48D SWAP2 SWAP3 POP DUP7 RETURNDATASIZE DUP9 GT PUSH2 0x494 JUMPI JUMPDEST PUSH2 0x485 DUP2 DUP4 PUSH2 0x19E0 JUMP JUMPDEST DUP2 ADD SWAP1 PUSH2 0x1FBC JUMP JUMPDEST SWAP1 PUSH0 PUSH2 0x3D5 JUMP JUMPDEST POP RETURNDATASIZE PUSH2 0x47B JUMP JUMPDEST POP DUP3 PUSH0 MSTORE PUSH1 0x1 PUSH1 0x20 MSTORE DUP6 PUSH0 KECCAK256 CALLER PUSH0 MSTORE PUSH1 0x20 MSTORE PUSH2 0x2DB PUSH1 0xFF DUP8 PUSH0 KECCAK256 SLOAD AND SWAP1 POP PUSH2 0x2D2 JUMP JUMPDEST SWAP1 POP CALLVALUE PUSH2 0x1A1 JUMPI PUSH1 0x60 CALLDATASIZE PUSH1 0x3 NOT ADD SLT PUSH2 0x1A1 JUMPI PUSH32 0x9A91707D0FFD2FEBD948EB104AF3B951795E9395CC97D50AB19776A94F0136DD PUSH1 0x20 PUSH2 0x4FC PUSH2 0x18C7 JUMP JUMPDEST PUSH1 0x24 CALLDATALOAD SWAP5 PUSH2 0x508 PUSH2 0x1B47 JUMP JUMPDEST SWAP2 PUSH2 0x511 PUSH2 0x1D86 JUMP JUMPDEST PUSH1 0x1 PUSH1 0x1 PUSH1 0xA0 SHL SUB AND PUSH0 DUP2 DUP2 MSTORE SWAP6 DUP5 MSTORE DUP2 DUP7 KECCAK256 DUP8 DUP8 MSTORE DUP5 MSTORE SWAP5 DUP2 SWAP1 KECCAK256 DUP1 SLOAD PUSH1 0xFF NOT AND PUSH1 0xFF DUP5 ISZERO ISZERO AND OR SWAP1 SSTORE MLOAD SWAP1 ISZERO ISZERO DUP2 MSTORE LOG3 STOP JUMPDEST DUP3 CALLVALUE PUSH2 0x1A1 JUMPI DUP1 PUSH1 0x3 NOT CALLDATASIZE ADD SLT PUSH2 0x1A1 JUMPI PUSH1 0x20 SWAP1 PUSH2 0x561 PUSH2 0x18C7 JUMP JUMPDEST PUSH2 0x569 PUSH2 0x18DD JUMP JUMPDEST SWAP1 PUSH1 0x1 DUP1 PUSH1 0xA0 SHL SUB DUP1 SWAP2 AND PUSH0 MSTORE PUSH1 0x1 DUP5 MSTORE DUP3 PUSH0 KECCAK256 SWAP2 AND PUSH0 MSTORE DUP3 MSTORE PUSH1 0xFF DUP2 PUSH0 KECCAK256 SLOAD AND SWAP1 MLOAD SWAP1 ISZERO ISZERO DUP2 MSTORE RETURN JUMPDEST DUP3 CALLVALUE PUSH2 0x1A1 JUMPI PUSH0 CALLDATASIZE PUSH1 0x3 NOT ADD SLT PUSH2 0x1A1 JUMPI PUSH1 0x20 SWAP1 MLOAD PUSH1 0x6 DUP2 MSTORE RETURN JUMPDEST SWAP1 POP CALLVALUE PUSH2 0x1A1 JUMPI PUSH1 0x20 CALLDATASIZE PUSH1 0x3 NOT ADD SLT PUSH2 0x1A1 JUMPI DUP1 CALLDATALOAD SWAP1 PUSH1 0x8 SLOAD DUP3 LT ISZERO PUSH2 0x5F0 JUMPI PUSH1 0x20 DUP4 PUSH2 0x5DA DUP5 PUSH2 0x1D30 JUMP JUMPDEST SWAP1 SLOAD SWAP2 MLOAD SWAP2 PUSH1 0x1 DUP1 PUSH1 0xA0 SHL SUB SWAP2 PUSH1 0x3 SHL SHR AND DUP2 MSTORE RETURN JUMPDEST PUSH1 0x64 SWAP1 PUSH1 0x20 DUP5 MLOAD SWAP2 PUSH3 0x461BCD PUSH1 0xE5 SHL DUP4 MSTORE DUP3 ADD MSTORE PUSH1 0x13 PUSH1 0x24 DUP3 ADD MSTORE PUSH19 0x496E646578206F7574206F6620626F756E6473 PUSH1 0x68 SHL PUSH1 0x44 DUP3 ADD MSTORE REVERT JUMPDEST DUP3 CALLVALUE PUSH2 0x1A1 JUMPI PUSH1 0x20 CALLDATASIZE PUSH1 0x3 NOT ADD SLT PUSH2 0x1A1 JUMPI PUSH1 0xE0 SWAP2 PUSH1 0x1 PUSH1 0x1 PUSH1 0xA0 SHL SUB PUSH2 0x64E PUSH2 0x18C7 JUMP JUMPDEST AND PUSH0 MSTORE PUSH1 0x6 PUSH1 0x20 MSTORE DUP2 PUSH0 KECCAK256 DUP1 SLOAD SWAP3 PUSH1 0x1 DUP3 ADD SLOAD SWAP3 PUSH1 0x2 DUP4 ADD SLOAD PUSH1 0x3 DUP5 ADD SLOAD SWAP2 DUP5 ADD SLOAD SWAP3 PUSH1 0x6 PUSH1 0x5 DUP7 ADD SLOAD SWAP6 ADD SLOAD SWAP6 DUP2 MLOAD SWAP8 DUP9 MSTORE PUSH1 0x20 DUP9 ADD MSTORE DUP7 ADD MSTORE PUSH1 0x60 DUP6 ADD MSTORE PUSH1 0x80 DUP5 ADD MSTORE PUSH1 0xA0 DUP4 ADD MSTORE PUSH1 0xC0 DUP3 ADD MSTORE RETURN JUMPDEST DUP3 CALLVALUE PUSH2 0x1A1 JUMPI PUSH0 CALLDATASIZE PUSH1 0x3 NOT ADD SLT PUSH2 0x1A1 JUMPI PUSH1 0x20 SWAP1 MLOAD PUSH1 0x3 DUP2 MSTORE RETURN JUMPDEST DUP3 CALLVALUE PUSH2 0x1A1 JUMPI PUSH0 CALLDATASIZE PUSH1 0x3 NOT ADD SLT PUSH2 0x1A1 JUMPI PUSH1 0x20 SWAP1 MLOAD PUSH1 0xA DUP2 MSTORE RETURN JUMPDEST DUP3 CALLVALUE PUSH2 0x1A1 JUMPI DUP1 PUSH1 0x3 NOT CALLDATASIZE ADD SLT PUSH2 0x1A1 JUMPI PUSH2 0x6EE PUSH2 0x18C7 JUMP JUMPDEST SWAP1 PUSH1 0x24 CALLDATALOAD DUP1 ISZERO ISZERO SWAP3 DUP4 DUP3 SUB PUSH2 0x1A1 JUMPI PUSH1 0x1 PUSH1 0x1 PUSH1 0xA0 SHL SUB AND SWAP4 CALLER DUP6 EQ PUSH2 0x764 JUMPI POP PUSH2 0x738 SWAP1 CALLER PUSH0 MSTORE PUSH1 0x1 PUSH1 0x20 MSTORE DUP3 PUSH0 KECCAK256 DUP6 PUSH0 MSTORE PUSH1 0x20 MSTORE DUP3 PUSH0 KECCAK256 SWAP1 PUSH1 0xFF DUP1 NOT DUP4 SLOAD AND SWAP2 ISZERO ISZERO AND OR SWAP1 SSTORE JUMP JUMPDEST MLOAD SWAP1 DUP2 MSTORE PUSH32 0x17307EAB39AB6107E8899845AD3D59BD9653F200F220920489CA2B5937696C31 PUSH1 0x20 CALLER SWAP3 LOG3 STOP JUMPDEST PUSH1 0x84 SWAP1 PUSH1 0x20 DUP5 MLOAD SWAP2 PUSH3 0x461BCD PUSH1 0xE5 SHL DUP4 MSTORE DUP3 ADD MSTORE PUSH1 0x29 PUSH1 0x24 DUP3 ADD MSTORE PUSH32 0x455243313135353A2073657474696E6720617070726F76616C20737461747573 PUSH1 0x44 DUP3 ADD MSTORE PUSH9 0x103337B91039B2B633 PUSH1 0xB9 SHL PUSH1 0x64 DUP3 ADD MSTORE REVERT JUMPDEST CALLVALUE PUSH2 0x1A1 JUMPI PUSH1 0x20 DUP1 PUSH1 0x3 NOT CALLDATASIZE ADD SLT PUSH2 0x1A1 JUMPI PUSH1 0x1 PUSH1 0x1 PUSH1 0x40 SHL SUB SWAP1 DUP3 CALLDATALOAD DUP3 DUP2 GT PUSH2 0x1A1 JUMPI PUSH2 0x7ED PUSH2 0x7FC SWAP2 CALLDATASIZE SWAP1 DUP7 ADD PUSH2 0x1931 JUMP JUMPDEST PUSH2 0x7F5 PUSH2 0x1D86 JUMP JUMPDEST CALLDATASIZE SWAP2 PUSH2 0x1A84 JUMP JUMPDEST SWAP3 DUP4 MLOAD SWAP3 DUP4 GT PUSH2 0x93D JUMPI POP PUSH2 0x812 PUSH1 0x2 SLOAD PUSH2 0x195E JUMP JUMPDEST PUSH1 0x1F DUP2 GT PUSH2 0x8DA JUMPI JUMPDEST POP PUSH1 0x20 SWAP1 PUSH1 0x1F DUP4 GT PUSH1 0x1 EQ PUSH2 0x85C JUMPI POP DUP2 SWAP1 PUSH2 0x84C SWAP4 PUSH0 SWAP3 PUSH2 0x851 JUMPI JUMPDEST POP POP DUP2 PUSH1 0x1 SHL SWAP2 PUSH0 NOT SWAP1 PUSH1 0x3 SHL SHR NOT AND OR SWAP1 JUMP JUMPDEST PUSH1 0x2 SSTORE STOP JUMPDEST ADD MLOAD SWAP1 POP DUP4 DUP1 PUSH2 0x838 JUMP JUMPDEST SWAP1 PUSH1 0x1F NOT DUP4 AND SWAP4 PUSH1 0x2 PUSH0 MSTORE PUSH32 0x405787FA12A823E0F2B7631CC41B3BA8828B3321CA811111FA75CD3AA3BB5ACE SWAP3 PUSH0 SWAP1 JUMPDEST DUP7 DUP3 LT PUSH2 0x8C2 JUMPI POP POP DUP4 PUSH1 0x1 SWAP6 LT PUSH2 0x8AA JUMPI JUMPDEST POP POP POP DUP2 SHL ADD PUSH1 0x2 SSTORE STOP JUMPDEST ADD MLOAD PUSH0 NOT PUSH1 0xF8 DUP5 PUSH1 0x3 SHL AND SHR NOT AND SWAP1 SSTORE DUP3 DUP1 DUP1 PUSH2 0x89F JUMP JUMPDEST DUP1 PUSH1 0x1 DUP6 SWAP7 DUP3 SWAP5 SWAP7 DUP7 ADD MLOAD DUP2 SSTORE ADD SWAP6 ADD SWAP4 ADD SWAP1 PUSH2 0x88C JUMP JUMPDEST PUSH1 0x2 PUSH0 MSTORE PUSH32 0x405787FA12A823E0F2B7631CC41B3BA8828B3321CA811111FA75CD3AA3BB5ACE PUSH1 0x1F DUP5 ADD PUSH1 0x5 SHR DUP2 ADD SWAP2 PUSH1 0x20 DUP6 LT PUSH2 0x933 JUMPI JUMPDEST PUSH1 0x1F ADD PUSH1 0x5 SHR ADD SWAP1 JUMPDEST DUP2 DUP2 LT PUSH2 0x928 JUMPI POP PUSH2 0x81B JUMP JUMPDEST PUSH0 DUP2 SSTORE PUSH1 0x1 ADD PUSH2 0x91B JUMP JUMPDEST SWAP1 SWAP2 POP DUP2 SWAP1 PUSH2 0x912 JUMP JUMPDEST PUSH1 0x41 SWAP1 PUSH4 0x4E487B71 PUSH1 0xE0 SHL PUSH0 MSTORE MSTORE PUSH1 0x24 PUSH0 REVERT JUMPDEST DUP3 CALLVALUE PUSH2 0x1A1 JUMPI PUSH0 CALLDATASIZE PUSH1 0x3 NOT ADD SLT PUSH2 0x1A1 JUMPI PUSH1 0x3 SLOAD SWAP1 MLOAD PUSH1 0x1 PUSH1 0x1 PUSH1 0xA0 SHL SUB SWAP1 SWAP2 AND DUP2 MSTORE PUSH1 0x20 SWAP1 RETURN JUMPDEST DUP3 CALLVALUE PUSH2 0x1A1 JUMPI PUSH0 CALLDATASIZE PUSH1 0x3 NOT ADD SLT PUSH2 0x1A1 JUMPI PUSH1 0x20 SWAP1 MLOAD PUSH1 0x8 DUP2 MSTORE RETURN JUMPDEST CALLVALUE PUSH2 0x1A1 JUMPI PUSH0 CALLDATASIZE PUSH1 0x3 NOT ADD SLT PUSH2 0x1A1 JUMPI PUSH2 0x9AB PUSH2 0x1D86 JUMP JUMPDEST PUSH1 0x3 DUP1 SLOAD PUSH1 0x1 PUSH1 0x1 PUSH1 0xA0 SHL SUB NOT DUP2 AND SWAP1 SWAP2 SSTORE PUSH0 SWAP1 PUSH1 0x1 PUSH1 0x1 PUSH1 0xA0 SHL SUB AND PUSH32 0x8BE0079C531659141344CD1FD0A4F28419497F9722A3DAAFE3B4186F6B6457E0 DUP3 DUP1 LOG3 STOP JUMPDEST SWAP1 POP CALLVALUE PUSH2 0x1A1 JUMPI PUSH1 0x60 CALLDATASIZE PUSH1 0x3 NOT ADD SLT PUSH2 0x1A1 JUMPI DUP1 CALLDATALOAD SWAP2 PUSH1 0x24 CALLDATALOAD PUSH1 0x44 CALLDATALOAD SWAP3 CALLER PUSH0 MSTORE PUSH1 0x6 PUSH1 0x20 MSTORE DUP3 PUSH0 KECCAK256 SWAP1 PUSH3 0x15180 TIMESTAMP DIV PUSH1 0x7 PUSH1 0x20 MSTORE DUP5 PUSH0 KECCAK256 DUP1 SLOAD PUSH1 0xFF DUP2 AND ISZERO PUSH2 0xB47 JUMPI JUMPDEST POP POP PUSH1 0x5 DUP4 ADD DUP2 DUP2 SLOAD SUB PUSH2 0xB39 JUMPI JUMPDEST POP POP PUSH1 0x6 DUP3 ADD SWAP1 DUP2 SLOAD SWAP3 PUSH1 0x3 DUP5 LT ISZERO PUSH2 0xAF6 JUMPI DUP1 DUP3 SWAP2 SLOAD DUP10 SGT PUSH2 0xAE2 JUMPI JUMPDEST TIMESTAMP PUSH1 0x3 DUP3 ADD SSTORE ADD DUP1 SLOAD SWAP1 PUSH1 0x1 DUP3 ADD DUP1 SWAP3 GT PUSH2 0xACF JUMPI SSTORE PUSH1 0x1 DUP4 ADD DUP1 SWAP4 GT PUSH2 0xABC JUMPI POP SSTORE DUP2 MLOAD SWAP4 DUP5 MSTORE PUSH1 0x20 DUP5 ADD MSTORE DUP3 ADD MSTORE TIMESTAMP PUSH1 0x60 DUP3 ADD MSTORE PUSH32 0xF6D69723C1E13A6E751FF8839D394F04FFFFC588FDD13A7CFD1FDFC1BF87EBE1 PUSH1 0x80 CALLER SWAP3 LOG2 STOP JUMPDEST PUSH1 0x11 SWAP1 PUSH4 0x4E487B71 PUSH1 0xE0 SHL PUSH0 MSTORE MSTORE PUSH1 0x24 PUSH0 REVERT JUMPDEST PUSH1 0x11 DUP4 PUSH4 0x4E487B71 PUSH1 0xE0 SHL PUSH0 MSTORE MSTORE PUSH1 0x24 PUSH0 REVERT JUMPDEST DUP9 DUP2 SSTORE DUP6 PUSH1 0x1 DUP3 ADD SSTORE DUP8 PUSH1 0x2 DUP3 ADD SSTORE PUSH2 0xA5E JUMP JUMPDEST DUP6 MLOAD PUSH3 0x461BCD PUSH1 0xE5 SHL DUP2 MSTORE PUSH1 0x20 DUP2 DUP5 ADD MSTORE PUSH1 0x19 PUSH1 0x24 DUP3 ADD MSTORE PUSH32 0x4461696C792073636F7265206C696D6974207265616368656400000000000000 PUSH1 0x44 DUP3 ADD MSTORE PUSH1 0x64 SWAP1 REVERT JUMPDEST SSTORE PUSH0 PUSH1 0x6 DUP4 ADD SSTORE PUSH0 DUP1 PUSH2 0xA40 JUMP JUMPDEST PUSH1 0xFF NOT AND PUSH1 0x1 OR SWAP1 SSTORE PUSH1 0x8 SLOAD PUSH9 0x10000000000000000 DUP2 LT ISZERO PUSH2 0xB97 JUMPI DUP1 PUSH1 0x1 PUSH2 0xB74 SWAP3 ADD PUSH1 0x8 SSTORE PUSH2 0x1D30 JUMP JUMPDEST DUP2 SLOAD PUSH1 0x1 PUSH1 0x1 PUSH1 0xA0 SHL SUB PUSH1 0x3 SWAP3 SWAP1 SWAP3 SHL SWAP2 DUP3 SHL NOT AND CALLER SWAP1 SWAP2 SHL OR SWAP1 SSTORE PUSH0 DUP1 PUSH2 0xA31 JUMP JUMPDEST PUSH1 0x41 DUP4 PUSH4 0x4E487B71 PUSH1 0xE0 SHL PUSH0 MSTORE MSTORE PUSH1 0x24 PUSH0 REVERT JUMPDEST DUP3 CALLVALUE PUSH2 0x1A1 JUMPI DUP1 PUSH1 0x3 NOT CALLDATASIZE ADD SLT PUSH2 0x1A1 JUMPI PUSH1 0x20 SWAP2 PUSH1 0x1 PUSH1 0x1 PUSH1 0xA0 SHL SUB PUSH2 0xBCE PUSH2 0x18C7 JUMP JUMPDEST AND PUSH0 MSTORE DUP3 MSTORE DUP1 PUSH0 KECCAK256 PUSH1 0x24 CALLDATALOAD PUSH0 MSTORE DUP3 MSTORE PUSH1 0xFF DUP2 PUSH0 KECCAK256 SLOAD AND SWAP1 MLOAD SWAP1 ISZERO ISZERO DUP2 MSTORE RETURN JUMPDEST DUP3 CALLVALUE PUSH2 0x1A1 JUMPI PUSH1 0x20 SWAP2 PUSH1 0x3 NOT SWAP2 DUP4 DUP4 CALLDATASIZE ADD SLT PUSH2 0x1A1 JUMPI DUP2 CALLDATALOAD PUSH1 0x1 PUSH1 0x1 PUSH1 0x40 SHL SUB DUP2 GT PUSH2 0x1A1 JUMPI PUSH2 0xC20 SWAP1 CALLDATASIZE SWAP1 DUP5 ADD PUSH2 0x1B17 JUMP JUMPDEST SWAP1 PUSH0 JUMPDEST DUP3 DUP2 LT PUSH2 0xDA9 JUMPI POP PUSH2 0xC34 DUP3 PUSH2 0x1CB9 JUMP JUMPDEST SWAP2 PUSH0 JUMPDEST DUP2 DUP2 LT PUSH2 0xD94 JUMPI POP SWAP1 PUSH2 0xC4B SWAP2 CALLDATASIZE SWAP2 PUSH2 0x1A18 JUMP JUMPDEST SWAP3 DUP3 MLOAD PUSH2 0xC57 DUP2 PUSH2 0x1996 JUMP JUMPDEST PUSH0 DUP2 MSTORE PUSH2 0xC65 CALLER ISZERO ISZERO PUSH2 0x1F66 JUMP JUMPDEST PUSH2 0xC72 DUP6 MLOAD DUP5 MLOAD EQ PUSH2 0x1DDE JUMP JUMPDEST PUSH0 JUMPDEST DUP6 MLOAD DUP2 LT ISZERO PUSH2 0xCB9 JUMPI DUP1 PUSH2 0xC8A PUSH1 0x1 SWAP3 DUP7 PUSH2 0x1D0C JUMP JUMPDEST MLOAD PUSH2 0xC95 DUP3 DUP10 PUSH2 0x1D0C JUMP JUMPDEST MLOAD PUSH0 MSTORE PUSH0 DUP11 MSTORE DUP7 PUSH0 KECCAK256 CALLER PUSH0 MSTORE DUP11 MSTORE PUSH2 0xCB1 DUP8 PUSH0 KECCAK256 SWAP2 DUP3 SLOAD PUSH2 0x1D65 JUMP JUMPDEST SWAP1 SSTORE ADD PUSH2 0xC74 JUMP JUMPDEST POP SWAP1 SWAP4 SWAP2 DUP7 SWAP6 DUP5 MLOAD PUSH0 CALLER SWAP2 PUSH32 0x4A39DC06D4C0DBC64B70AF90FD698A233A518AA5D07E595D983B8C0526C8F7FB CALLER SWAP2 DUP1 PUSH2 0xCF3 DUP9 DUP12 DUP4 PUSH2 0x1EF4 JUMP JUMPDEST SUB SWAP1 LOG4 CALLER EXTCODESIZE PUSH2 0xCFE JUMPI STOP JUMPDEST DUP7 SWAP2 PUSH2 0xD59 PUSH2 0xD4A SWAP3 DUP8 MLOAD SWAP6 DUP7 SWAP5 DUP6 SWAP5 PUSH2 0xD3A PUSH4 0xBC197C81 PUSH1 0xE0 SHL SWAP11 DUP12 DUP9 MSTORE DUP14 CALLER SWAP1 DUP10 ADD MSTORE PUSH0 PUSH1 0x24 DUP10 ADD MSTORE PUSH1 0xA0 PUSH1 0x44 DUP10 ADD MSTORE PUSH1 0xA4 DUP9 ADD SWAP1 PUSH2 0x1AE4 JUMP JUMPDEST SWAP1 DUP5 DUP8 DUP4 SUB ADD PUSH1 0x64 DUP9 ADD MSTORE PUSH2 0x1AE4 JUMP JUMPDEST SWAP2 DUP5 DUP4 SUB ADD PUSH1 0x84 DUP6 ADD MSTORE PUSH2 0x18F3 JUMP JUMPDEST SUB DUP2 PUSH0 CALLER GAS CALL PUSH0 SWAP2 DUP2 PUSH2 0xD75 JUMPI POP PUSH2 0x43D JUMPI POP POP PUSH2 0x3E4 PUSH2 0x2025 JUMP JUMPDEST PUSH2 0xD8D SWAP2 SWAP3 POP DUP7 RETURNDATASIZE DUP9 GT PUSH2 0x494 JUMPI PUSH2 0x485 DUP2 DUP4 PUSH2 0x19E0 JUMP JUMPDEST SWAP1 DUP7 PUSH2 0x3D5 JUMP JUMPDEST DUP1 PUSH1 0x1 PUSH2 0xDA2 DUP2 SWAP4 DUP8 PUSH2 0x1D0C JUMP JUMPDEST MSTORE ADD PUSH2 0xC37 JUMP JUMPDEST DUP1 PUSH2 0xDDB PUSH2 0xDD5 PUSH2 0xDBD PUSH1 0x1 SWAP5 DUP8 DUP8 PUSH2 0x1D20 JUMP JUMPDEST CALLDATALOAD PUSH2 0xDCF PUSH2 0xDCA DUP3 PUSH2 0x1F19 JUMP JUMPDEST PUSH2 0x1C39 JUMP JUMPDEST CALLER PUSH2 0x1B56 JUMP JUMPDEST ISZERO PUSH2 0x1C7B JUMP JUMPDEST ADD PUSH2 0xC23 JUMP JUMPDEST DUP3 CALLVALUE PUSH2 0x1A1 JUMPI PUSH0 CALLDATASIZE PUSH1 0x3 NOT ADD SLT PUSH2 0x1A1 JUMPI PUSH1 0x20 SWAP1 MLOAD PUSH1 0x9 DUP2 MSTORE RETURN JUMPDEST SWAP1 POP CALLVALUE PUSH2 0x1A1 JUMPI PUSH1 0x60 CALLDATASIZE PUSH1 0x3 NOT ADD SLT PUSH2 0x1A1 JUMPI PUSH2 0xE17 PUSH2 0x18C7 JUMP JUMPDEST SWAP1 PUSH1 0x24 CALLDATALOAD PUSH1 0x1 PUSH1 0x1 PUSH1 0x40 SHL SUB DUP2 GT PUSH2 0x1A1 JUMPI SWAP1 PUSH2 0xE38 DUP5 SWAP3 CALLDATASIZE SWAP1 DUP4 ADD PUSH2 0x1B17 JUMP JUMPDEST PUSH2 0xE43 SWAP5 SWAP2 SWAP5 PUSH2 0x1B47 JUMP JUMPDEST SWAP3 PUSH2 0xE4C PUSH2 0x1D86 JUMP JUMPDEST PUSH1 0x1 PUSH1 0x1 PUSH1 0xA0 SHL SUB SWAP1 SWAP3 AND SWAP2 DUP4 ISZERO ISZERO PUSH0 JUMPDEST DUP4 DUP2 LT PUSH2 0xE66 JUMPI STOP JUMPDEST DUP1 PUSH2 0xE74 PUSH1 0x1 SWAP3 DUP7 DUP12 PUSH2 0x1D20 JUMP JUMPDEST CALLDATALOAD DUP7 PUSH0 MSTORE DUP7 PUSH32 0x9A91707D0FFD2FEBD948EB104AF3B951795E9395CC97D50AB19776A94F0136DD PUSH1 0x20 DUP8 DUP2 MSTORE DUP12 PUSH0 KECCAK256 DUP5 PUSH0 MSTORE DUP2 MSTORE PUSH2 0xEBF DUP12 DUP14 PUSH0 KECCAK256 SWAP1 PUSH1 0xFF DUP1 NOT DUP4 SLOAD AND SWAP2 ISZERO ISZERO AND OR SWAP1 SSTORE JUMP JUMPDEST DUP12 MLOAD DUP8 DUP2 MSTORE LOG3 ADD PUSH2 0xE5D JUMP JUMPDEST DUP3 CALLVALUE PUSH2 0x1A1 JUMPI DUP1 PUSH1 0x3 NOT CALLDATASIZE ADD SLT PUSH2 0x1A1 JUMPI PUSH1 0x1 PUSH1 0x1 PUSH1 0x40 SHL SUB SWAP2 DUP1 CALLDATALOAD DUP4 DUP2 GT PUSH2 0x1A1 JUMPI CALLDATASIZE PUSH1 0x23 DUP3 ADD SLT ISZERO PUSH2 0x1A1 JUMPI DUP1 DUP3 ADD CALLDATALOAD SWAP4 PUSH2 0xF07 DUP6 PUSH2 0x1A01 JUMP JUMPDEST SWAP2 PUSH2 0xF14 DUP6 MLOAD SWAP4 DUP5 PUSH2 0x19E0 JUMP JUMPDEST DUP6 DUP4 MSTORE PUSH1 0x20 SWAP6 PUSH1 0x24 DUP8 DUP6 ADD SWAP2 PUSH1 0x5 SHL DUP4 ADD ADD SWAP2 CALLDATASIZE DUP4 GT PUSH2 0x1A1 JUMPI PUSH1 0x24 ADD SWAP1 JUMPDEST DUP3 DUP3 LT PUSH2 0x101C JUMPI POP POP POP PUSH1 0x24 CALLDATALOAD SWAP1 DUP2 GT PUSH2 0x1A1 JUMPI PUSH2 0xF54 SWAP1 CALLDATASIZE SWAP1 DUP5 ADD PUSH2 0x1A66 JUMP JUMPDEST SWAP2 DUP2 MLOAD DUP4 MLOAD SUB PUSH2 0xFC7 JUMPI POP PUSH2 0xF69 DUP2 MLOAD PUSH2 0x1CB9 JUMP JUMPDEST SWAP4 PUSH0 JUMPDEST DUP3 MLOAD DUP2 LT ISZERO PUSH2 0xFB1 JUMPI PUSH1 0x1 SWAP1 PUSH2 0xFA0 PUSH1 0x1 PUSH1 0x1 PUSH1 0xA0 SHL SUB PUSH2 0xF8D DUP4 DUP8 PUSH2 0x1D0C JUMP JUMPDEST MLOAD AND PUSH2 0xF99 DUP4 DUP9 PUSH2 0x1D0C JUMP JUMPDEST MLOAD SWAP1 PUSH2 0x1B56 JUMP JUMPDEST PUSH2 0xFAA DUP3 DUP10 PUSH2 0x1D0C JUMP JUMPDEST MSTORE ADD PUSH2 0xF6C JUMP JUMPDEST DUP5 MLOAD DUP3 DUP2 MSTORE DUP1 PUSH2 0xFC3 DUP2 DUP6 ADD DUP10 PUSH2 0x1AE4 JUMP JUMPDEST SUB SWAP1 RETURN JUMPDEST DUP4 MLOAD PUSH3 0x461BCD PUSH1 0xE5 SHL DUP2 MSTORE SWAP1 DUP2 ADD DUP6 SWAP1 MSTORE PUSH1 0x29 PUSH1 0x24 DUP3 ADD MSTORE PUSH32 0x455243313135353A206163636F756E747320616E6420696473206C656E677468 PUSH1 0x44 DUP3 ADD MSTORE PUSH9 0x40DAD2E6DAC2E8C6D PUSH1 0xBB SHL PUSH1 0x64 DUP3 ADD MSTORE PUSH1 0x84 SWAP1 REVERT JUMPDEST DUP2 CALLDATALOAD PUSH1 0x1 PUSH1 0x1 PUSH1 0xA0 SHL SUB DUP2 AND DUP2 SUB PUSH2 0x1A1 JUMPI DUP2 MSTORE SWAP1 DUP8 ADD SWAP1 DUP8 ADD PUSH2 0xF33 JUMP JUMPDEST SWAP1 POP CALLVALUE PUSH2 0x1A1 JUMPI PUSH1 0x20 SWAP1 DUP2 PUSH1 0x3 NOT CALLDATASIZE ADD SLT PUSH2 0x1A1 JUMPI DUP1 CALLDATALOAD SWAP3 PUSH2 0x105F PUSH2 0xDCA DUP6 PUSH2 0x1F19 JUMP JUMPDEST PUSH2 0x106C PUSH2 0xDD5 DUP6 CALLER PUSH2 0x1B56 JUMP JUMPDEST DUP1 MLOAD PUSH2 0x1077 DUP2 PUSH2 0x1996 JUMP JUMPDEST PUSH0 DUP2 MSTORE PUSH2 0x1085 CALLER ISZERO ISZERO PUSH2 0x1F66 JUMP JUMPDEST PUSH2 0x108E DUP6 PUSH2 0x2102 JUMP JUMPDEST POP PUSH1 0x1 PUSH2 0x10AD DUP4 MLOAD PUSH2 0x109F DUP2 PUSH2 0x19C5 JUMP JUMPDEST DUP3 DUP2 MSTORE DUP7 CALLDATASIZE DUP2 DUP4 ADD CALLDATACOPY PUSH2 0x1CEB JUMP JUMPDEST MSTORE DUP5 PUSH0 MSTORE PUSH0 DUP5 MSTORE DUP2 PUSH0 KECCAK256 CALLER PUSH0 MSTORE DUP5 MSTORE DUP2 PUSH0 KECCAK256 DUP1 SLOAD SWAP1 PUSH1 0x1 DUP3 ADD DUP1 SWAP3 GT PUSH2 0x11E6 JUMPI SSTORE DUP2 MLOAD DUP6 DUP2 MSTORE PUSH1 0x1 DUP6 DUP3 ADD MSTORE PUSH0 CALLER SWAP2 PUSH32 0xC3D58168C5AE7397731D063D5BBF3D657854427343F4C083240F7AACAA2D0F62 DUP6 CALLER SWAP3 LOG4 CALLER EXTCODESIZE PUSH2 0x1130 JUMPI JUMPDEST DUP5 CALLER PUSH32 0x4844D30B922FFC2B845400EB2A15CDD62742176C723E09D7CC9703E83645E4B PUSH0 DUP1 LOG3 STOP JUMPDEST DUP2 SWAP3 SWAP4 SWAP5 SWAP2 MLOAD DUP6 DUP2 DUP1 PUSH2 0x1171 PUSH4 0xF23A6E61 PUSH1 0xE0 SHL SWAP6 DUP7 DUP4 MSTORE CALLER DUP11 DUP5 ADD MSTORE PUSH0 PUSH1 0x24 DUP5 ADD MSTORE DUP8 PUSH1 0x44 DUP5 ADD MSTORE PUSH1 0x1 PUSH1 0x64 DUP5 ADD MSTORE PUSH1 0xA0 PUSH1 0x84 DUP5 ADD MSTORE PUSH1 0xA4 DUP4 ADD SWAP1 PUSH2 0x18F3 JUMP JUMPDEST SUB DUP2 PUSH0 CALLER GAS CALL PUSH0 SWAP2 DUP2 PUSH2 0x11C7 JUMPI JUMPDEST POP PUSH2 0x118F JUMPI POP POP POP PUSH2 0x3E4 PUSH2 0x2025 JUMP JUMPDEST SWAP2 SWAP5 POP PUSH1 0x1 PUSH1 0x1 PUSH1 0xE0 SHL SUB NOT SWAP1 SWAP2 AND SUB PUSH2 0x11AE JUMPI POP POP PUSH0 DUP1 DUP1 DUP1 PUSH2 0x1108 JUMP JUMPDEST MLOAD PUSH3 0x461BCD PUSH1 0xE5 SHL DUP2 MSTORE SWAP2 POP DUP2 SWAP1 PUSH2 0x408 SWAP1 DUP3 ADD PUSH2 0x1FDC JUMP JUMPDEST PUSH2 0x11DF SWAP2 SWAP3 POP DUP8 RETURNDATASIZE DUP10 GT PUSH2 0x494 JUMPI PUSH2 0x485 DUP2 DUP4 PUSH2 0x19E0 JUMP JUMPDEST SWAP1 PUSH0 PUSH2 0x117F JUMP JUMPDEST PUSH1 0x11 DUP6 PUSH4 0x4E487B71 PUSH1 0xE0 SHL PUSH0 MSTORE MSTORE PUSH1 0x24 PUSH0 REVERT JUMPDEST DUP3 CALLVALUE PUSH2 0x1A1 JUMPI PUSH0 CALLDATASIZE PUSH1 0x3 NOT ADD SLT PUSH2 0x1A1 JUMPI PUSH1 0x20 SWAP1 PUSH1 0x8 SLOAD SWAP1 MLOAD SWAP1 DUP2 MSTORE RETURN JUMPDEST SWAP1 POP CALLVALUE PUSH2 0x1A1 JUMPI PUSH1 0x3 NOT SWAP1 PUSH1 0xA0 CALLDATASIZE DUP4 ADD SLT PUSH2 0x1A1 JUMPI PUSH2 0x1234 PUSH2 0x18C7 JUMP JUMPDEST SWAP2 PUSH2 0x123D PUSH2 0x18DD JUMP JUMPDEST SWAP3 PUSH1 0x1 PUSH1 0x1 PUSH1 0x40 SHL SUB SWAP3 PUSH1 0x44 CALLDATALOAD DUP5 DUP2 GT PUSH2 0x1A1 JUMPI PUSH2 0x125E SWAP1 CALLDATASIZE SWAP1 DUP4 ADD PUSH2 0x1A66 JUMP JUMPDEST SWAP1 PUSH1 0x64 CALLDATALOAD DUP6 DUP2 GT PUSH2 0x1A1 JUMPI PUSH2 0x1276 SWAP1 CALLDATASIZE SWAP1 DUP4 ADD PUSH2 0x1A66 JUMP JUMPDEST SWAP5 PUSH1 0x84 CALLDATALOAD SWAP1 DUP2 GT PUSH2 0x1A1 JUMPI PUSH2 0x128E SWAP1 CALLDATASIZE SWAP1 DUP4 ADD PUSH2 0x1AC9 JUMP JUMPDEST SWAP4 PUSH1 0x1 PUSH1 0x1 PUSH1 0xA0 SHL SUB SWAP4 DUP5 AND SWAP4 CALLER DUP6 EQ DUP1 ISZERO PUSH2 0x148E JUMPI JUMPDEST PUSH2 0x12AE SWAP1 PUSH2 0x1BD6 JUMP JUMPDEST PUSH2 0x12BB DUP5 MLOAD DUP9 MLOAD EQ PUSH2 0x1DDE JUMP JUMPDEST DUP8 AND SWAP5 PUSH2 0x12C9 DUP7 ISZERO ISZERO PUSH2 0x1E3B JUMP JUMPDEST PUSH0 JUMPDEST DUP5 MLOAD DUP2 LT ISZERO PUSH2 0x1347 JUMPI DUP1 PUSH2 0x12E1 PUSH1 0x1 SWAP3 DUP8 PUSH2 0x1D0C JUMP JUMPDEST MLOAD PUSH2 0x12EC DUP3 DUP12 PUSH2 0x1D0C JUMP JUMPDEST MLOAD SWAP1 DUP1 PUSH0 MSTORE PUSH1 0x20 SWAP1 PUSH0 DUP3 MSTORE DUP14 PUSH0 KECCAK256 DUP11 PUSH0 MSTORE DUP3 MSTORE DUP14 DUP4 DUP2 PUSH0 KECCAK256 SLOAD PUSH2 0x1311 DUP3 DUP3 LT ISZERO PUSH2 0x1E95 JUMP JUMPDEST DUP4 PUSH0 MSTORE PUSH0 DUP6 MSTORE DUP3 PUSH0 KECCAK256 DUP14 PUSH0 MSTORE DUP6 MSTORE SUB SWAP1 PUSH0 KECCAK256 SSTORE PUSH0 MSTORE PUSH0 DUP2 MSTORE DUP13 PUSH0 KECCAK256 SWAP1 DUP11 PUSH0 MSTORE MSTORE PUSH2 0x133F DUP13 PUSH0 KECCAK256 SWAP2 DUP3 SLOAD PUSH2 0x1D65 JUMP JUMPDEST SWAP1 SSTORE ADD PUSH2 0x12CB JUMP JUMPDEST POP SWAP1 SWAP5 SWAP4 SWAP6 SWAP3 SWAP2 SWAP7 DUP5 DUP8 DUP11 MLOAD PUSH32 0x4A39DC06D4C0DBC64B70AF90FD698A233A518AA5D07E595D983B8C0526C8F7FB CALLER SWAP2 DUP1 PUSH2 0x1382 DUP11 DUP11 DUP4 PUSH2 0x1EF4 JUMP JUMPDEST SUB SWAP1 LOG4 EXTCODESIZE PUSH2 0x138C JUMPI STOP JUMPDEST DUP8 MLOAD SWAP5 DUP6 SWAP4 DUP5 SWAP4 PUSH4 0xBC197C81 PUSH1 0xE0 SHL SWAP9 DUP10 DUP7 MSTORE CALLER DUP12 DUP8 ADD MSTORE PUSH1 0x24 DUP7 ADD MSTORE PUSH1 0x44 DUP6 ADD PUSH1 0xA0 SWAP1 MSTORE PUSH1 0xA4 DUP6 ADD PUSH2 0x13BE SWAP2 PUSH2 0x1AE4 JUMP JUMPDEST DUP3 DUP6 DUP3 SUB ADD PUSH1 0x64 DUP7 ADD MSTORE PUSH2 0x13D1 SWAP2 PUSH2 0x1AE4 JUMP JUMPDEST SWAP1 DUP4 DUP3 SUB ADD PUSH1 0x84 DUP5 ADD MSTORE PUSH2 0x13E4 SWAP2 PUSH2 0x18F3 JUMP JUMPDEST SUB DUP2 GAS PUSH1 0x20 SWAP5 PUSH0 SWAP2 CALL PUSH0 SWAP2 DUP2 PUSH2 0x146D JUMPI JUMPDEST POP PUSH2 0x145C JUMPI POP POP PUSH2 0x1404 PUSH2 0x2025 JUMP JUMPDEST PUSH4 0x8C379A0 EQ PUSH2 0x1428 JUMPI JUMPDEST SWAP1 MLOAD PUSH3 0x461BCD PUSH1 0xE5 SHL DUP2 MSTORE SWAP1 DUP2 SWAP1 PUSH2 0x408 SWAP1 DUP3 ADD PUSH2 0x20AD JUMP JUMPDEST PUSH2 0x1430 PUSH2 0x2040 JUMP JUMPDEST DUP1 PUSH2 0x143B JUMPI POP PUSH2 0x140F JUMP JUMPDEST PUSH2 0x408 SWAP1 PUSH1 0x20 SWAP4 MLOAD SWAP4 DUP5 SWAP4 PUSH3 0x461BCD PUSH1 0xE5 SHL DUP6 MSTORE DUP5 ADD MSTORE PUSH1 0x24 DUP4 ADD SWAP1 PUSH2 0x18F3 JUMP JUMPDEST PUSH1 0x1 PUSH1 0x1 PUSH1 0xE0 SHL SUB NOT AND SUB PUSH2 0x453 JUMPI STOP JUMPDEST PUSH2 0x1487 SWAP2 SWAP3 POP PUSH1 0x20 RETURNDATASIZE PUSH1 0x20 GT PUSH2 0x494 JUMPI PUSH2 0x485 DUP2 DUP4 PUSH2 0x19E0 JUMP JUMPDEST SWAP1 PUSH0 PUSH2 0x13F5 JUMP JUMPDEST POP DUP5 PUSH0 MSTORE PUSH1 0x1 PUSH1 0x20 MSTORE DUP9 PUSH0 KECCAK256 CALLER PUSH0 MSTORE PUSH1 0x20 MSTORE PUSH2 0x12AE PUSH1 0xFF DUP11 PUSH0 KECCAK256 SLOAD AND SWAP1 POP PUSH2 0x12A5 JUMP JUMPDEST DUP3 CALLVALUE PUSH2 0x1A1 JUMPI PUSH0 CALLDATASIZE PUSH1 0x3 NOT ADD SLT PUSH2 0x1A1 JUMPI PUSH1 0x20 SWAP1 MLOAD PUSH1 0x7 DUP2 MSTORE RETURN JUMPDEST SWAP1 POP CALLVALUE PUSH2 0x1A1 JUMPI PUSH1 0x20 SWAP1 DUP2 PUSH1 0x3 NOT CALLDATASIZE ADD SLT PUSH2 0x1A1 JUMPI CALLDATALOAD PUSH0 MSTORE PUSH1 0x5 DUP2 MSTORE DUP2 PUSH0 KECCAK256 SWAP2 DUP1 MLOAD DUP1 SWAP4 PUSH0 SWAP1 DUP1 SLOAD PUSH2 0x14FD DUP2 PUSH2 0x195E JUMP JUMPDEST SWAP2 DUP3 DUP6 MSTORE PUSH1 0x1 SWAP2 DUP8 PUSH1 0x1 DUP3 AND SWAP2 DUP3 PUSH0 EQ PUSH2 0x157D JUMPI POP POP PUSH1 0x1 EQ PUSH2 0x153D JUMPI JUMPDEST POP POP POP PUSH2 0xFC3 SWAP3 SWAP2 PUSH2 0x152E SWAP2 SUB DUP6 PUSH2 0x19E0 JUMP JUMPDEST MLOAD SWAP3 DUP3 DUP5 SWAP4 DUP5 MSTORE DUP4 ADD SWAP1 PUSH2 0x18F3 JUMP JUMPDEST DUP7 SWAP4 POP PUSH0 SWAP3 SWAP2 SWAP3 MSTORE DUP3 PUSH0 KECCAK256 SWAP2 PUSH0 SWAP3 JUMPDEST DUP3 DUP5 LT PUSH2 0x1565 JUMPI POP POP POP DUP3 ADD ADD DUP2 PUSH2 0x152E PUSH2 0xFC3 PUSH2 0x151B JUMP JUMPDEST DUP1 SLOAD DUP5 DUP11 ADD DUP7 ADD MSTORE DUP9 SWAP6 POP DUP8 SWAP5 SWAP1 SWAP4 ADD SWAP3 DUP2 ADD PUSH2 0x154C JUMP JUMPDEST PUSH1 0xFF NOT AND DUP8 DUP3 ADD MSTORE SWAP4 ISZERO ISZERO PUSH1 0x5 SHL DUP7 ADD SWAP1 SWAP4 ADD SWAP4 POP DUP5 SWAP3 POP PUSH2 0x152E SWAP2 POP PUSH2 0xFC3 SWAP1 POP PUSH2 0x151B JUMP JUMPDEST DUP3 CALLVALUE PUSH2 0x1A1 JUMPI DUP1 PUSH1 0x3 NOT CALLDATASIZE ADD SLT PUSH2 0x1A1 JUMPI DUP2 CALLDATALOAD SWAP1 PUSH1 0x1 PUSH1 0x1 PUSH1 0x40 SHL SUB SWAP1 PUSH1 0x24 CALLDATALOAD DUP3 DUP2 GT PUSH2 0x1A1 JUMPI PUSH2 0x15D8 SWAP1 CALLDATASIZE SWAP1 DUP7 ADD PUSH2 0x1931 JUMP JUMPDEST SWAP3 PUSH2 0x15E1 PUSH2 0x1D86 JUMP JUMPDEST DUP5 PUSH0 MSTORE PUSH1 0x20 SWAP6 PUSH1 0x5 DUP8 MSTORE DUP4 PUSH0 KECCAK256 SWAP2 DUP6 GT PUSH2 0x93D JUMPI POP PUSH2 0x1600 DUP2 SLOAD PUSH2 0x195E JUMP JUMPDEST PUSH1 0x1F DUP2 GT PUSH2 0x1718 JUMPI JUMPDEST POP PUSH0 PUSH1 0x1F DUP6 GT PUSH1 0x1 EQ PUSH2 0x1690 JUMPI PUSH32 0xF1C7B1B56D5D626AF1E77ABEAD63B7D49ACE9E5819EE9A93FF02E02D9DA3271 SWAP6 SWAP7 SWAP3 DUP6 SWAP3 PUSH2 0x165D DUP5 DUP1 DUP1 SWAP6 PUSH0 SWAP2 PUSH2 0x1685 JUMPI JUMPDEST POP DUP2 PUSH1 0x1 SHL SWAP2 PUSH0 NOT SWAP1 PUSH1 0x3 SHL SHR NOT AND OR SWAP1 JUMP JUMPDEST SWAP1 SSTORE JUMPDEST DUP5 MLOAD SWAP6 DUP5 DUP8 SWAP6 DUP7 MSTORE DUP6 ADD MSTORE DUP5 DUP5 ADD CALLDATACOPY PUSH0 DUP3 DUP3 ADD DUP5 ADD MSTORE PUSH1 0x1F ADD PUSH1 0x1F NOT AND DUP2 ADD SUB ADD SWAP1 LOG2 STOP JUMPDEST SWAP1 POP DUP5 ADD CALLDATALOAD DUP13 PUSH2 0x164A JUMP JUMPDEST PUSH1 0x1F NOT DUP6 AND SWAP1 DUP3 PUSH0 MSTORE DUP8 PUSH0 KECCAK256 SWAP2 PUSH0 JUMPDEST DUP2 DUP2 LT PUSH2 0x1701 JUMPI POP SWAP3 DUP7 SWAP4 SWAP3 PUSH32 0xF1C7B1B56D5D626AF1E77ABEAD63B7D49ACE9E5819EE9A93FF02E02D9DA3271 SWAP9 SWAP10 SWAP6 SWAP3 DUP6 DUP1 SWAP6 LT PUSH2 0x16E8 JUMPI JUMPDEST POP POP PUSH1 0x1 DUP4 DUP2 SHL ADD SWAP1 SSTORE PUSH2 0x1660 JUMP JUMPDEST DUP4 ADD CALLDATALOAD PUSH0 NOT PUSH1 0x3 DUP7 SWAP1 SHL PUSH1 0xF8 AND SHR NOT AND SWAP1 SSTORE DUP10 DUP1 PUSH2 0x16D9 JUMP JUMPDEST SWAP2 SWAP3 DUP10 PUSH1 0x1 DUP2 SWAP3 DUP7 DUP10 ADD CALLDATALOAD DUP2 SSTORE ADD SWAP5 ADD SWAP3 ADD PUSH2 0x169F JUMP JUMPDEST DUP2 PUSH0 MSTORE DUP7 PUSH0 KECCAK256 PUSH1 0x1F DUP7 ADD PUSH1 0x5 SHR DUP2 ADD SWAP2 DUP9 DUP8 LT PUSH2 0x1751 JUMPI JUMPDEST PUSH1 0x1F ADD PUSH1 0x5 SHR ADD SWAP1 JUMPDEST DUP2 DUP2 LT PUSH2 0x1746 JUMPI POP PUSH2 0x1609 JUMP JUMPDEST PUSH0 DUP2 SSTORE PUSH1 0x1 ADD PUSH2 0x1739 JUMP JUMPDEST SWAP1 SWAP2 POP DUP2 SWAP1 PUSH2 0x1730 JUMP JUMPDEST DUP3 CALLVALUE PUSH2 0x1A1 JUMPI PUSH1 0x20 DUP1 PUSH1 0x3 NOT CALLDATASIZE ADD SLT PUSH2 0x1A1 JUMPI DUP2 MLOAD SWAP2 DUP3 PUSH0 PUSH1 0x2 SLOAD PUSH2 0x177F DUP2 PUSH2 0x195E JUMP JUMPDEST SWAP1 DUP2 DUP5 MSTORE PUSH1 0x1 SWAP1 DUP7 PUSH1 0x1 DUP3 AND SWAP2 DUP3 PUSH0 EQ PUSH2 0x180A JUMPI POP POP PUSH1 0x1 EQ PUSH2 0x17AF JUMPI JUMPDEST POP POP PUSH2 0xFC3 SWAP3 SWAP2 PUSH2 0x152E SWAP2 SUB DUP6 PUSH2 0x19E0 JUMP JUMPDEST SWAP1 DUP6 SWAP3 POP PUSH1 0x2 PUSH0 MSTORE PUSH32 0x405787FA12A823E0F2B7631CC41B3BA8828B3321CA811111FA75CD3AA3BB5ACE SWAP2 PUSH0 SWAP3 JUMPDEST DUP3 DUP5 LT PUSH2 0x17F2 JUMPI POP POP POP DUP3 ADD ADD DUP2 PUSH2 0x152E PUSH2 0x179D JUMP JUMPDEST DUP1 SLOAD DUP5 DUP11 ADD DUP7 ADD MSTORE DUP9 SWAP6 POP DUP8 SWAP5 SWAP1 SWAP4 ADD SWAP3 DUP2 ADD PUSH2 0x17DC JUMP JUMPDEST PUSH1 0xFF NOT AND DUP7 DUP3 ADD MSTORE SWAP3 ISZERO ISZERO PUSH1 0x5 SHL DUP6 ADD SWAP1 SWAP3 ADD SWAP3 POP DUP4 SWAP2 POP PUSH2 0x152E SWAP1 POP PUSH2 0x179D JUMP JUMPDEST SWAP1 POP CALLVALUE PUSH2 0x1A1 JUMPI PUSH1 0x20 CALLDATASIZE PUSH1 0x3 NOT ADD SLT PUSH2 0x1A1 JUMPI CALLDATALOAD PUSH4 0xFFFFFFFF PUSH1 0xE0 SHL DUP2 AND DUP1 SWAP2 SUB PUSH2 0x1A1 JUMPI PUSH1 0x20 SWAP2 PUSH4 0x6CDB3D13 PUSH1 0xE1 SHL DUP3 EQ SWAP2 DUP3 ISZERO PUSH2 0x1887 JUMPI JUMPDEST DUP3 ISZERO PUSH2 0x1876 JUMPI JUMPDEST POP MLOAD SWAP1 ISZERO ISZERO DUP2 MSTORE RETURN JUMPDEST PUSH4 0x1FFC9A7 PUSH1 0xE0 SHL EQ SWAP2 POP PUSH0 PUSH2 0x186D JUMP JUMPDEST PUSH4 0x3A24D07 PUSH1 0xE2 SHL DUP2 EQ SWAP3 POP PUSH2 0x1866 JUMP JUMPDEST DUP3 CALLVALUE PUSH2 0x1A1 JUMPI DUP1 PUSH1 0x3 NOT CALLDATASIZE ADD SLT PUSH2 0x1A1 JUMPI PUSH1 0x20 SWAP1 PUSH2 0x18C0 PUSH2 0x18B7 PUSH2 0x18C7 JUMP JUMPDEST PUSH1 0x24 CALLDATALOAD SWAP1 PUSH2 0x1B56 JUMP JUMPDEST SWAP1 MLOAD SWAP1 DUP2 MSTORE RETURN JUMPDEST PUSH1 0x4 CALLDATALOAD SWAP1 PUSH1 0x1 PUSH1 0x1 PUSH1 0xA0 SHL SUB DUP3 AND DUP3 SUB PUSH2 0x1A1 JUMPI JUMP JUMPDEST PUSH1 0x24 CALLDATALOAD SWAP1 PUSH1 0x1 PUSH1 0x1 PUSH1 0xA0 SHL SUB DUP3 AND DUP3 SUB PUSH2 0x1A1 JUMPI JUMP JUMPDEST SWAP2 SWAP1 DUP3 MLOAD SWAP3 DUP4 DUP3 MSTORE PUSH0 JUMPDEST DUP5 DUP2 LT PUSH2 0x191D JUMPI POP POP DUP3 PUSH0 PUSH1 0x20 DUP1 SWAP5 SWAP6 DUP5 ADD ADD MSTORE PUSH1 0x1F DUP1 NOT SWAP2 ADD AND ADD ADD SWAP1 JUMP JUMPDEST PUSH1 0x20 DUP2 DUP4 ADD DUP2 ADD MLOAD DUP5 DUP4 ADD DUP3 ADD MSTORE ADD PUSH2 0x18FD JUMP JUMPDEST SWAP2 DUP2 PUSH1 0x1F DUP5 ADD SLT ISZERO PUSH2 0x1A1 JUMPI DUP3 CALLDATALOAD SWAP2 PUSH1 0x1 PUSH1 0x1 PUSH1 0x40 SHL SUB DUP4 GT PUSH2 0x1A1 JUMPI PUSH1 0x20 DUP4 DUP2 DUP7 ADD SWAP6 ADD ADD GT PUSH2 0x1A1 JUMPI JUMP JUMPDEST SWAP1 PUSH1 0x1 DUP3 DUP2 SHR SWAP3 AND DUP1 ISZERO PUSH2 0x198C JUMPI JUMPDEST PUSH1 0x20 DUP4 LT EQ PUSH2 0x1978 JUMPI JUMP JUMPDEST PUSH4 0x4E487B71 PUSH1 0xE0 SHL PUSH0 MSTORE PUSH1 0x22 PUSH1 0x4 MSTORE PUSH1 0x24 PUSH0 REVERT JUMPDEST SWAP2 PUSH1 0x7F AND SWAP2 PUSH2 0x196D JUMP JUMPDEST PUSH1 0x20 DUP2 ADD SWAP1 DUP2 LT PUSH1 0x1 PUSH1 0x1 PUSH1 0x40 SHL SUB DUP3 GT OR PUSH2 0x19B1 JUMPI PUSH1 0x40 MSTORE JUMP JUMPDEST PUSH4 0x4E487B71 PUSH1 0xE0 SHL PUSH0 MSTORE PUSH1 0x41 PUSH1 0x4 MSTORE PUSH1 0x24 PUSH0 REVERT JUMPDEST PUSH1 0x40 DUP2 ADD SWAP1 DUP2 LT PUSH1 0x1 PUSH1 0x1 PUSH1 0x40 SHL SUB DUP3 GT OR PUSH2 0x19B1 JUMPI PUSH1 0x40 MSTORE JUMP JUMPDEST SWAP1 PUSH1 0x1F DUP1 NOT SWAP2 ADD AND DUP2 ADD SWAP1 DUP2 LT PUSH1 0x1 PUSH1 0x1 PUSH1 0x40 SHL SUB DUP3 GT OR PUSH2 0x19B1 JUMPI PUSH1 0x40 MSTORE JUMP JUMPDEST PUSH1 0x1 PUSH1 0x1 PUSH1 0x40 SHL SUB DUP2 GT PUSH2 0x19B1 JUMPI PUSH1 0x5 SHL PUSH1 0x20 ADD SWAP1 JUMP JUMPDEST SWAP3 SWAP2 PUSH2 0x1A23 DUP3 PUSH2 0x1A01 JUMP JUMPDEST SWAP2 PUSH2 0x1A31 PUSH1 0x40 MLOAD SWAP4 DUP5 PUSH2 0x19E0 JUMP JUMPDEST DUP3 SWAP5 DUP2 DUP5 MSTORE PUSH1 0x20 DUP1 SWAP5 ADD SWAP2 PUSH1 0x5 SHL DUP2 ADD SWAP3 DUP4 GT PUSH2 0x1A1 JUMPI SWAP1 JUMPDEST DUP3 DUP3 LT PUSH2 0x1A57 JUMPI POP POP POP POP JUMP JUMPDEST DUP2 CALLDATALOAD DUP2 MSTORE SWAP1 DUP4 ADD SWAP1 DUP4 ADD PUSH2 0x1A4A JUMP JUMPDEST SWAP1 DUP1 PUSH1 0x1F DUP4 ADD SLT ISZERO PUSH2 0x1A1 JUMPI DUP2 PUSH1 0x20 PUSH2 0x1A81 SWAP4 CALLDATALOAD SWAP2 ADD PUSH2 0x1A18 JUMP JUMPDEST SWAP1 JUMP JUMPDEST SWAP3 SWAP2 SWAP3 PUSH1 0x1 PUSH1 0x1 PUSH1 0x40 SHL SUB DUP3 GT PUSH2 0x19B1 JUMPI PUSH1 0x40 MLOAD SWAP2 PUSH2 0x1AAD PUSH1 0x1F DUP3 ADD PUSH1 0x1F NOT AND PUSH1 0x20 ADD DUP5 PUSH2 0x19E0 JUMP JUMPDEST DUP3 SWAP5 DUP2 DUP5 MSTORE DUP2 DUP4 ADD GT PUSH2 0x1A1 JUMPI DUP3 DUP2 PUSH1 0x20 SWAP4 DUP5 PUSH0 SWAP7 ADD CALLDATACOPY ADD ADD MSTORE JUMP JUMPDEST SWAP1 DUP1 PUSH1 0x1F DUP4 ADD SLT ISZERO PUSH2 0x1A1 JUMPI DUP2 PUSH1 0x20 PUSH2 0x1A81 SWAP4 CALLDATALOAD SWAP2 ADD PUSH2 0x1A84 JUMP JUMPDEST SWAP1 DUP2 MLOAD DUP1 DUP3 MSTORE PUSH1 0x20 DUP1 DUP1 SWAP4 ADD SWAP4 ADD SWAP2 PUSH0 JUMPDEST DUP3 DUP2 LT PUSH2 0x1B03 JUMPI POP POP POP POP SWAP1 JUMP JUMPDEST DUP4 MLOAD DUP6 MSTORE SWAP4 DUP2 ADD SWAP4 SWAP3 DUP2 ADD SWAP3 PUSH1 0x1 ADD PUSH2 0x1AF5 JUMP JUMPDEST SWAP2 DUP2 PUSH1 0x1F DUP5 ADD SLT ISZERO PUSH2 0x1A1 JUMPI DUP3 CALLDATALOAD SWAP2 PUSH1 0x1 PUSH1 0x1 PUSH1 0x40 SHL SUB DUP4 GT PUSH2 0x1A1 JUMPI PUSH1 0x20 DUP1 DUP6 ADD SWAP5 DUP5 PUSH1 0x5 SHL ADD ADD GT PUSH2 0x1A1 JUMPI JUMP JUMPDEST PUSH1 0x44 CALLDATALOAD SWAP1 DUP2 ISZERO ISZERO DUP3 SUB PUSH2 0x1A1 JUMPI JUMP JUMPDEST PUSH1 0x1 PUSH1 0x1 PUSH1 0xA0 SHL SUB AND SWAP1 DUP2 ISZERO PUSH2 0x1B7E JUMPI PUSH0 MSTORE PUSH0 PUSH1 0x20 MSTORE PUSH1 0x40 PUSH0 KECCAK256 SWAP1 PUSH0 MSTORE PUSH1 0x20 MSTORE PUSH1 0x40 PUSH0 KECCAK256 SLOAD SWAP1 JUMP JUMPDEST PUSH1 0x40 MLOAD PUSH3 0x461BCD PUSH1 0xE5 SHL DUP2 MSTORE PUSH1 0x20 PUSH1 0x4 DUP3 ADD MSTORE PUSH1 0x2A PUSH1 0x24 DUP3 ADD MSTORE PUSH32 0x455243313135353A2061646472657373207A65726F206973206E6F7420612076 PUSH1 0x44 DUP3 ADD MSTORE PUSH10 0x30B634B21037BBB732B9 PUSH1 0xB1 SHL PUSH1 0x64 DUP3 ADD MSTORE PUSH1 0x84 SWAP1 REVERT JUMPDEST ISZERO PUSH2 0x1BDD JUMPI JUMP JUMPDEST PUSH1 0x40 MLOAD PUSH3 0x461BCD PUSH1 0xE5 SHL DUP2 MSTORE PUSH1 0x20 PUSH1 0x4 DUP3 ADD MSTORE PUSH1 0x2E PUSH1 0x24 DUP3 ADD MSTORE PUSH32 0x455243313135353A2063616C6C6572206973206E6F7420746F6B656E206F776E PUSH1 0x44 DUP3 ADD MSTORE PUSH14 0x195C881BDC88185C1C1C9BDD9959 PUSH1 0x92 SHL PUSH1 0x64 DUP3 ADD MSTORE PUSH1 0x84 SWAP1 REVERT JUMPDEST ISZERO PUSH2 0x1C40 JUMPI JUMP JUMPDEST PUSH1 0x40 MLOAD PUSH3 0x461BCD PUSH1 0xE5 SHL DUP2 MSTORE PUSH1 0x20 PUSH1 0x4 DUP3 ADD MSTORE PUSH1 0x13 PUSH1 0x24 DUP3 ADD MSTORE PUSH19 0x125B9D985B1A59081858DA1A595D995B595B9D PUSH1 0x6A SHL PUSH1 0x44 DUP3 ADD MSTORE PUSH1 0x64 SWAP1 REVERT JUMPDEST ISZERO PUSH2 0x1C82 JUMPI JUMP JUMPDEST PUSH1 0x40 MLOAD PUSH3 0x461BCD PUSH1 0xE5 SHL DUP2 MSTORE PUSH1 0x20 PUSH1 0x4 DUP3 ADD MSTORE PUSH1 0xF PUSH1 0x24 DUP3 ADD MSTORE PUSH15 0x105B1C9958591E4818DB185A5B5959 PUSH1 0x8A SHL PUSH1 0x44 DUP3 ADD MSTORE PUSH1 0x64 SWAP1 REVERT JUMPDEST SWAP1 PUSH2 0x1CC3 DUP3 PUSH2 0x1A01 JUMP JUMPDEST PUSH2 0x1CD0 PUSH1 0x40 MLOAD SWAP2 DUP3 PUSH2 0x19E0 JUMP JUMPDEST DUP3 DUP2 MSTORE DUP1 SWAP3 PUSH2 0x1CE1 PUSH1 0x1F NOT SWAP2 PUSH2 0x1A01 JUMP JUMPDEST ADD SWAP1 PUSH1 0x20 CALLDATASIZE SWAP2 ADD CALLDATACOPY JUMP JUMPDEST DUP1 MLOAD ISZERO PUSH2 0x1CF8 JUMPI PUSH1 0x20 ADD SWAP1 JUMP JUMPDEST PUSH4 0x4E487B71 PUSH1 0xE0 SHL PUSH0 MSTORE PUSH1 0x32 PUSH1 0x4 MSTORE PUSH1 0x24 PUSH0 REVERT JUMPDEST DUP1 MLOAD DUP3 LT ISZERO PUSH2 0x1CF8 JUMPI PUSH1 0x20 SWAP2 PUSH1 0x5 SHL ADD ADD SWAP1 JUMP JUMPDEST SWAP2 SWAP1 DUP2 LT ISZERO PUSH2 0x1CF8 JUMPI PUSH1 0x5 SHL ADD SWAP1 JUMP JUMPDEST PUSH1 0x8 SLOAD DUP2 LT ISZERO PUSH2 0x1CF8 JUMPI PUSH1 0x8 PUSH0 MSTORE PUSH32 0xF3F7A9FE364FAAB93B216DA50A3214154F22A0A2B415B23A84C8169E8B636EE3 ADD SWAP1 PUSH0 SWAP1 JUMP JUMPDEST SWAP2 SWAP1 DUP3 ADD DUP1 SWAP3 GT PUSH2 0x1D72 JUMPI JUMP JUMPDEST PUSH4 0x4E487B71 PUSH1 0xE0 SHL PUSH0 MSTORE PUSH1 0x11 PUSH1 0x4 MSTORE PUSH1 0x24 PUSH0 REVERT JUMPDEST PUSH1 0x3 SLOAD PUSH1 0x1 PUSH1 0x1 PUSH1 0xA0 SHL SUB AND CALLER SUB PUSH2 0x1D9A JUMPI JUMP JUMPDEST PUSH1 0x64 PUSH1 0x40 MLOAD PUSH3 0x461BCD PUSH1 0xE5 SHL DUP2 MSTORE PUSH1 0x20 PUSH1 0x4 DUP3 ADD MSTORE PUSH1 0x20 PUSH1 0x24 DUP3 ADD MSTORE PUSH32 0x4F776E61626C653A2063616C6C6572206973206E6F7420746865206F776E6572 PUSH1 0x44 DUP3 ADD MSTORE REVERT JUMPDEST ISZERO PUSH2 0x1DE5 JUMPI JUMP JUMPDEST PUSH1 0x40 MLOAD PUSH3 0x461BCD PUSH1 0xE5 SHL DUP2 MSTORE PUSH1 0x20 PUSH1 0x4 DUP3 ADD MSTORE PUSH1 0x28 PUSH1 0x24 DUP3 ADD MSTORE PUSH32 0x455243313135353A2069647320616E6420616D6F756E7473206C656E67746820 PUSH1 0x44 DUP3 ADD MSTORE PUSH8 0xDAD2E6DAC2E8C6D PUSH1 0xC3 SHL PUSH1 0x64 DUP3 ADD MSTORE PUSH1 0x84 SWAP1 REVERT JUMPDEST ISZERO PUSH2 0x1E42 JUMPI JUMP JUMPDEST PUSH1 0x40 MLOAD PUSH3 0x461BCD PUSH1 0xE5 SHL DUP2 MSTORE PUSH1 0x20 PUSH1 0x4 DUP3 ADD MSTORE PUSH1 0x25 PUSH1 0x24 DUP3 ADD MSTORE PUSH32 0x455243313135353A207472616E7366657220746F20746865207A65726F206164 PUSH1 0x44 DUP3 ADD MSTORE PUSH5 0x6472657373 PUSH1 0xD8 SHL PUSH1 0x64 DUP3 ADD MSTORE PUSH1 0x84 SWAP1 REVERT JUMPDEST ISZERO PUSH2 0x1E9C JUMPI JUMP JUMPDEST PUSH1 0x40 MLOAD PUSH3 0x461BCD PUSH1 0xE5 SHL DUP2 MSTORE PUSH1 0x20 PUSH1 0x4 DUP3 ADD MSTORE PUSH1 0x2A PUSH1 0x24 DUP3 ADD MSTORE PUSH32 0x455243313135353A20696E73756666696369656E742062616C616E636520666F PUSH1 0x44 DUP3 ADD MSTORE PUSH10 0x39103A3930B739B332B9 PUSH1 0xB1 SHL PUSH1 0x64 DUP3 ADD MSTORE PUSH1 0x84 SWAP1 REVERT JUMPDEST SWAP1 SWAP2 PUSH2 0x1F0B PUSH2 0x1A81 SWAP4 PUSH1 0x40 DUP5 MSTORE PUSH1 0x40 DUP5 ADD SWAP1 PUSH2 0x1AE4 JUMP JUMPDEST SWAP2 PUSH1 0x20 DUP2 DUP5 SUB SWAP2 ADD MSTORE PUSH2 0x1AE4 JUMP JUMPDEST PUSH1 0x6 DUP2 EQ SWAP1 DUP2 ISZERO PUSH2 0x1F5B JUMPI JUMPDEST DUP2 ISZERO PUSH2 0x1F50 JUMPI JUMPDEST DUP2 ISZERO PUSH2 0x1F45 JUMPI JUMPDEST DUP2 ISZERO PUSH2 0x1F3D JUMPI POP SWAP1 JUMP JUMPDEST PUSH1 0xA SWAP2 POP EQ SWAP1 JUMP JUMPDEST PUSH1 0x9 DUP2 EQ SWAP2 POP PUSH2 0x1F33 JUMP JUMPDEST PUSH1 0x8 DUP2 EQ SWAP2 POP PUSH2 0x1F2C JUMP JUMPDEST PUSH1 0x7 DUP2 EQ SWAP2 POP PUSH2 0x1F25 JUMP JUMPDEST ISZERO PUSH2 0x1F6D JUMPI JUMP JUMPDEST PUSH1 0x40 MLOAD PUSH3 0x461BCD PUSH1 0xE5 SHL DUP2 MSTORE PUSH1 0x20 PUSH1 0x4 DUP3 ADD MSTORE PUSH1 0x21 PUSH1 0x24 DUP3 ADD MSTORE PUSH32 0x455243313135353A206D696E7420746F20746865207A65726F20616464726573 PUSH1 0x44 DUP3 ADD MSTORE PUSH1 0x73 PUSH1 0xF8 SHL PUSH1 0x64 DUP3 ADD MSTORE PUSH1 0x84 SWAP1 REVERT JUMPDEST SWAP1 DUP2 PUSH1 0x20 SWAP2 SUB SLT PUSH2 0x1A1 JUMPI MLOAD PUSH1 0x1 PUSH1 0x1 PUSH1 0xE0 SHL SUB NOT DUP2 AND DUP2 SUB PUSH2 0x1A1 JUMPI SWAP1 JUMP JUMPDEST PUSH1 0x80 SWAP1 PUSH1 0x20 DUP2 MSTORE PUSH1 0x28 PUSH1 0x20 DUP3 ADD MSTORE PUSH32 0x455243313135353A204552433131353552656365697665722072656A65637465 PUSH1 0x40 DUP3 ADD MSTORE PUSH8 0x6420746F6B656E73 PUSH1 0xC0 SHL PUSH1 0x60 DUP3 ADD MSTORE ADD SWAP1 JUMP JUMPDEST PUSH0 SWAP1 PUSH1 0x3 RETURNDATASIZE GT PUSH2 0x2031 JUMPI JUMP JUMPDEST SWAP1 POP PUSH1 0x4 PUSH0 DUP1 RETURNDATACOPY PUSH0 MLOAD PUSH1 0xE0 SHR SWAP1 JUMP JUMPDEST PUSH0 PUSH1 0x44 RETURNDATASIZE LT PUSH2 0x1A81 JUMPI PUSH1 0x40 MLOAD PUSH1 0x3 NOT SWAP2 RETURNDATASIZE DUP4 ADD PUSH1 0x4 DUP4 RETURNDATACOPY DUP2 MLOAD PUSH1 0x1 PUSH1 0x1 PUSH1 0x40 SHL SUB SWAP2 DUP3 DUP3 GT RETURNDATASIZE PUSH1 0x24 DUP5 ADD GT OR PUSH2 0x209C JUMPI DUP2 DUP5 ADD SWAP5 DUP6 MLOAD SWAP4 DUP5 GT PUSH2 0x20A4 JUMPI RETURNDATASIZE DUP6 ADD ADD PUSH1 0x20 DUP5 DUP8 ADD ADD GT PUSH2 0x209C JUMPI POP PUSH2 0x1A81 SWAP3 SWAP2 ADD PUSH1 0x20 ADD SWAP1 PUSH2 0x19E0 JUMP JUMPDEST SWAP5 SWAP4 POP POP POP POP JUMP JUMPDEST POP SWAP5 SWAP4 POP POP POP POP JUMP JUMPDEST PUSH1 0x80 SWAP1 PUSH1 0x20 DUP2 MSTORE PUSH1 0x34 PUSH1 0x20 DUP3 ADD MSTORE PUSH32 0x455243313135353A207472616E7366657220746F206E6F6E2D45524331313535 PUSH1 0x40 DUP3 ADD MSTORE PUSH20 0x2932B1B2B4BB32B91034B6B83632B6B2B73A32B9 PUSH1 0x61 SHL PUSH1 0x60 DUP3 ADD MSTORE ADD SWAP1 JUMP JUMPDEST PUSH1 0x40 MLOAD SWAP1 PUSH2 0x210F DUP3 PUSH2 0x19C5 JUMP JUMPDEST PUSH1 0x1 DUP3 MSTORE PUSH1 0x20 CALLDATASIZE DUP2 DUP5 ADD CALLDATACOPY PUSH2 0x2123 DUP3 PUSH2 0x1CEB JUMP JUMPDEST MSTORE SWAP1 JUMP INVALID LOG2 PUSH5 0x6970667358 0x22 SLT KECCAK256 0xCF EQ 0xE2 PUSH21 0x8383715BEC4A3464D1B08104B2FE31557907CECADA 0xC6 TSTORE 0xEA EQ COINBASE DUP2 TLOAD PUSH5 0x736F6C6343 STOP ADDMOD XOR STOP CALLER "},"methodIdentifiers":{"BASE_CHECK()":"df54d23e","LEADERBOARD()":"1d4c1868","MAX_SCORE_SUBMISSIONS_PER_DAY()":"c4ebe024","PERP_LEVERAGE()":"5af02de7","PROTECTIVE_HEDGE()":"ac4d7298","SPOT_LOOP()":"7865cd0f","achievementLabel(uint256)":"16d26e6d","approveBatchClaims(address,uint256[],bool)":"4ef64c05","approveClaim(address,uint256,bool)":"ed539364","balanceOf(address,uint256)":"00fdd58e","balanceOfBatch(address[],uint256[])":"4e1273f4","claim(uint256)":"379607f5","claimApproved(address,uint256)":"681d0d61","claimBatch(uint256[])":"62abebce","hasSubmittedScore(address)":"f9569673","isApprovedForAll(address,address)":"e985e9c5","owner()":"8da5cb5b","renounceOwnership()":"715018a6","replayScoreOf(address)":"c8a3c3b5","safeBatchTransferFrom(address,address,uint256[],uint256[],bytes)":"2eb2c2d6","safeTransferFrom(address,address,uint256,uint256,bytes)":"f242432a","scoreAccountAt(uint256)":"d4b0521b","scoreAccountCount()":"2f85874a","setAchievementLabel(uint256,string)":"10674933","setApprovalForAll(address,bool)":"a22cb465","setBaseUri(string)":"a0bcfc7f","submitScore(int256,uint256,uint256)":"6961fd46","supportsInterface(bytes4)":"01ffc9a7","transferOwnership(address)":"f2fde38b","uri(uint256)":"0e89341c"}}}}}