{"project/contracts/MSXQuestBadge.sol":{"MSXQuestBadge":{"abi":[{"inputs":[],"stateMutability":"nonpayable","type":"constructor"},{"anonymous":false,"inputs":[{"indexed":true,"internalType":"address","name":"owner","type":"address"},{"indexed":true,"internalType":"address","name":"approved","type":"address"},{"indexed":true,"internalType":"uint256","name":"tokenId","type":"uint256"}],"name":"Approval","type":"event"},{"anonymous":false,"inputs":[{"indexed":true,"internalType":"address","name":"owner","type":"address"},{"indexed":true,"internalType":"address","name":"operator","type":"address"},{"indexed":false,"internalType":"bool","name":"approved","type":"bool"}],"name":"ApprovalForAll","type":"event"},{"anonymous":false,"inputs":[{"indexed":true,"internalType":"address","name":"previousOwner","type":"address"},{"indexed":true,"internalType":"address","name":"newOwner","type":"address"}],"name":"OwnershipTransferred","type":"event"},{"anonymous":false,"inputs":[{"indexed":true,"internalType":"address","name":"recipient","type":"address"},{"indexed":true,"internalType":"uint8","name":"badgeType","type":"uint8"},{"indexed":true,"internalType":"uint256","name":"tokenId","type":"uint256"}],"name":"TaskBadgeMinted","type":"event"},{"anonymous":false,"inputs":[{"indexed":true,"internalType":"address","name":"from","type":"address"},{"indexed":true,"internalType":"address","name":"to","type":"address"},{"indexed":true,"internalType":"uint256","name":"tokenId","type":"uint256"}],"name":"Transfer","type":"event"},{"inputs":[],"name":"BADGE_COUNT","outputs":[{"internalType":"uint8","name":"","type":"uint8"}],"stateMutability":"view","type":"function"},{"inputs":[],"name":"BADGE_PAPER","outputs":[{"internalType":"uint8","name":"","type":"uint8"}],"stateMutability":"view","type":"function"},{"inputs":[],"name":"BADGE_QUIZ","outputs":[{"internalType":"uint8","name":"","type":"uint8"}],"stateMutability":"view","type":"function"},{"inputs":[],"name":"BADGE_RISK","outputs":[{"internalType":"uint8","name":"","type":"uint8"}],"stateMutability":"view","type":"function"},{"inputs":[],"name":"BADGE_WALLET","outputs":[{"internalType":"uint8","name":"","type":"uint8"}],"stateMutability":"view","type":"function"},{"inputs":[],"name":"BADGE_WELCOME","outputs":[{"internalType":"uint8","name":"","type":"uint8"}],"stateMutability":"view","type":"function"},{"inputs":[{"internalType":"address","name":"to","type":"address"},{"internalType":"uint256","name":"tokenId","type":"uint256"}],"name":"approve","outputs":[],"stateMutability":"nonpayable","type":"function"},{"inputs":[{"internalType":"address","name":"owner","type":"address"}],"name":"balanceOf","outputs":[{"internalType":"uint256","name":"","type":"uint256"}],"stateMutability":"view","type":"function"},{"inputs":[{"internalType":"uint256","name":"tokenId","type":"uint256"}],"name":"getApproved","outputs":[{"internalType":"address","name":"","type":"address"}],"stateMutability":"view","type":"function"},{"inputs":[{"internalType":"address","name":"holder","type":"address"}],"name":"hasMinted","outputs":[{"internalType":"bool","name":"","type":"bool"}],"stateMutability":"view","type":"function"},{"inputs":[{"internalType":"address","name":"","type":"address"},{"internalType":"uint8","name":"","type":"uint8"}],"name":"hasMintedBadge","outputs":[{"internalType":"bool","name":"","type":"bool"}],"stateMutability":"view","type":"function"},{"inputs":[{"internalType":"address","name":"holder","type":"address"},{"internalType":"uint8","name":"badgeType","type":"uint8"}],"name":"hasMintedTask","outputs":[{"internalType":"bool","name":"","type":"bool"}],"stateMutability":"view","type":"function"},{"inputs":[{"internalType":"address","name":"owner","type":"address"},{"internalType":"address","name":"operator","type":"address"}],"name":"isApprovedForAll","outputs":[{"internalType":"bool","name":"","type":"bool"}],"stateMutability":"view","type":"function"},{"inputs":[{"internalType":"uint8","name":"badgeType","type":"uint8"},{"internalType":"address","name":"to","type":"address"}],"name":"mintBadge","outputs":[{"internalType":"uint256","name":"tokenId","type":"uint256"}],"stateMutability":"nonpayable","type":"function"},{"inputs":[{"internalType":"address","name":"to","type":"address"}],"name":"mintWelcomeBadge","outputs":[{"internalType":"uint256","name":"tokenId","type":"uint256"}],"stateMutability":"nonpayable","type":"function"},{"inputs":[],"name":"name","outputs":[{"internalType":"string","name":"","type":"string"}],"stateMutability":"view","type":"function"},{"inputs":[],"name":"nextTokenId","outputs":[{"internalType":"uint256","name":"","type":"uint256"}],"stateMutability":"view","type":"function"},{"inputs":[],"name":"owner","outputs":[{"internalType":"address","name":"","type":"address"}],"stateMutability":"view","type":"function"},{"inputs":[{"internalType":"uint256","name":"tokenId","type":"uint256"}],"name":"ownerOf","outputs":[{"internalType":"address","name":"","type":"address"}],"stateMutability":"view","type":"function"},{"inputs":[],"name":"renounceOwnership","outputs":[],"stateMutability":"nonpayable","type":"function"},{"inputs":[{"internalType":"address","name":"from","type":"address"},{"internalType":"address","name":"to","type":"address"},{"internalType":"uint256","name":"tokenId","type":"uint256"}],"name":"safeTransferFrom","outputs":[],"stateMutability":"nonpayable","type":"function"},{"inputs":[{"internalType":"address","name":"from","type":"address"},{"internalType":"address","name":"to","type":"address"},{"internalType":"uint256","name":"tokenId","type":"uint256"},{"internalType":"bytes","name":"data","type":"bytes"}],"name":"safeTransferFrom","outputs":[],"stateMutability":"nonpayable","type":"function"},{"inputs":[{"internalType":"address","name":"operator","type":"address"},{"internalType":"bool","name":"approved","type":"bool"}],"name":"setApprovalForAll","outputs":[],"stateMutability":"nonpayable","type":"function"},{"inputs":[{"internalType":"bytes4","name":"interfaceId","type":"bytes4"}],"name":"supportsInterface","outputs":[{"internalType":"bool","name":"","type":"bool"}],"stateMutability":"view","type":"function"},{"inputs":[],"name":"symbol","outputs":[{"internalType":"string","name":"","type":"string"}],"stateMutability":"view","type":"function"},{"inputs":[{"internalType":"uint256","name":"","type":"uint256"}],"name":"tokenBadgeType","outputs":[{"internalType":"uint8","name":"","type":"uint8"}],"stateMutability":"view","type":"function"},{"inputs":[{"internalType":"uint256","name":"tokenId","type":"uint256"}],"name":"tokenURI","outputs":[{"internalType":"string","name":"","type":"string"}],"stateMutability":"view","type":"function"},{"inputs":[{"internalType":"address","name":"from","type":"address"},{"internalType":"address","name":"to","type":"address"},{"internalType":"uint256","name":"tokenId","type":"uint256"}],"name":"transferFrom","outputs":[],"stateMutability":"nonpayable","type":"function"},{"inputs":[{"internalType":"address","name":"newOwner","type":"address"}],"name":"transferOwnership","outputs":[],"stateMutability":"nonpayable","type":"function"}],"evm":{"bytecode":{"linkReferences":{},"object":"6080604052600160075534801562000015575f80fd5b506040518060400160405280600f81526020017f4d535820517565737420426164676500000000000000000000000000000000008152506040518060400160405280600581526020017f4d53585142000000000000000000000000000000000000000000000000000000815250815f9081620000929190620003fb565b508060019081620000a49190620003fb565b505050620000c7620000bb620000cd60201b60201c565b620000d460201b60201c565b620004df565b5f33905090565b5f60065f9054906101000a900473ffffffffffffffffffffffffffffffffffffffff1690508160065f6101000a81548173ffffffffffffffffffffffffffffffffffffffff021916908373ffffffffffffffffffffffffffffffffffffffff1602179055508173ffffffffffffffffffffffffffffffffffffffff168173ffffffffffffffffffffffffffffffffffffffff167f8be0079c531659141344cd1fd0a4f28419497f9722a3daafe3b4186f6b6457e060405160405180910390a35050565b5f81519050919050565b7f4e487b71000000000000000000000000000000000000000000000000000000005f52604160045260245ffd5b7f4e487b71000000000000000000000000000000000000000000000000000000005f52602260045260245ffd5b5f60028204905060018216806200021357607f821691505b602082108103620002295762000228620001ce565b5b50919050565b5f819050815f5260205f209050919050565b5f6020601f8301049050919050565b5f82821b905092915050565b5f600883026200028d7fffffffffffffffffffffffffffffffffffffffffffffffffffffffffffffffff8262000250565b62000299868362000250565b95508019841693508086168417925050509392505050565b5f819050919050565b5f819050919050565b5f620002e3620002dd620002d784620002b1565b620002ba565b620002b1565b9050919050565b5f819050919050565b620002fe83620002c3565b620003166200030d82620002ea565b8484546200025c565b825550505050565b5f90565b6200032c6200031e565b62000339818484620002f3565b505050565b5b818110156200036057620003545f8262000322565b6001810190506200033f565b5050565b601f821115620003af5762000379816200022f565b620003848462000241565b8101602085101562000394578190505b620003ac620003a38562000241565b8301826200033e565b50505b505050565b5f82821c905092915050565b5f620003d15f1984600802620003b4565b1980831691505092915050565b5f620003eb8383620003c0565b9150826002028217905092915050565b620004068262000197565b67ffffffffffffffff811115620004225762000421620001a1565b5b6200042e8254620001fb565b6200043b82828562000364565b5f60209050601f83116001811462000471575f84156200045c578287015190505b620004688582620003de565b865550620004d7565b601f19841662000481866200022f565b5f5b82811015620004aa5784890151825560018201915060208501945060208101905062000483565b86831015620004ca5784890151620004c6601f891682620003c0565b8355505b6001600288020188555050505b505050505050565b61584180620004ed5f395ff3fe608060405234801561000f575f80fd5b50600436106101cd575f3560e01c80636b3ce2f11161010257806395d89b41116100a0578063bf68f8481161006f578063bf68f84814610555578063c87b56dd14610573578063e985e9c5146105a3578063f2fde38b146105d3576101cd565b806395d89b41146104e15780639ef94994146104ff578063a22cb4651461051d578063b88d4fde14610539576101cd565b80637206abbd116100dc5780637206abbd1461044557806375794a3c146104755780638530a3bf146104935780638da5cb5b146104c3576101cd565b80636b3ce2f1146103db57806370a082311461040b578063715018a61461043b576101cd565b806323b872dd1161016f5780634304f9a6116101495780634304f9a61461033f578063521633371461035d57806359e0c9be1461038d5780636352211e146103ab576101cd565b806323b872dd146102d757806338e21cce146102f357806342842e0e14610323576101cd565b8063081812fc116101ab578063081812fc1461024f578063095ea7b31461027f5780630ce1a02f1461029b5780631cc6a906146102b9576101cd565b806301b4597d146101d157806301ffc9a71461020157806306fdde0314610231575b5f80fd5b6101eb60048036038101906101e6919061313c565b6105ef565b6040516101f89190613194565b60405180910390f35b61021b60048036038101906102169190613202565b610619565b6040516102289190613194565b60405180910390f35b6102396106fa565b60405161024691906132b7565b60405180910390f35b6102696004803603810190610264919061330a565b610789565b6040516102769190613344565b60405180910390f35b6102996004803603810190610294919061335d565b6107cb565b005b6102a36108e1565b6040516102b091906133aa565b60405180910390f35b6102c16108e6565b6040516102ce91906133aa565b60405180910390f35b6102f160048036038101906102ec91906133c3565b6108eb565b005b61030d60048036038101906103089190613413565b61094b565b60405161031a9190613194565b60405180910390f35b61033d600480360381019061033891906133c3565b6109b2565b005b6103476109d1565b60405161035491906133aa565b60405180910390f35b61037760048036038101906103729190613413565b6109d6565b604051610384919061344d565b60405180910390f35b6103956109e8565b6040516103a291906133aa565b60405180910390f35b6103c560048036038101906103c0919061330a565b6109ed565b6040516103d29190613344565b60405180910390f35b6103f560048036038101906103f0919061313c565b610a71565b6040516104029190613194565b60405180910390f35b61042560048036038101906104209190613413565b610b22565b604051610432919061344d565b60405180910390f35b610443610bd6565b005b61045f600480360381019061045a9190613466565b610be9565b60405161046c919061344d565b60405180910390f35b61047d610eb7565b60405161048a919061344d565b60405180910390f35b6104ad60048036038101906104a8919061330a565b610ebd565b6040516104ba91906133aa565b60405180910390f35b6104cb610eda565b6040516104d89190613344565b60405180910390f35b6104e9610f02565b6040516104f691906132b7565b60405180910390f35b610507610f92565b60405161051491906133aa565b60405180910390f35b610537600480360381019061053291906134ce565b610f97565b005b610553600480360381019061054e9190613638565b610fad565b005b61055d61100f565b60405161056a91906133aa565b60405180910390f35b61058d6004803603810190610588919061330a565b611013565b60405161059a91906132b7565b60405180910390f35b6105bd60048036038101906105b891906136b8565b61116b565b6040516105ca9190613194565b60405180910390f35b6105ed60048036038101906105e89190613413565b6111f9565b005b6008602052815f5260405f20602052805f5260405f205f915091509054906101000a900460ff1681565b5f7f80ac58cd000000000000000000000000000000000000000000000000000000007bffffffffffffffffffffffffffffffffffffffffffffffffffffffff1916827bffffffffffffffffffffffffffffffffffffffffffffffffffffffff191614806106e357507f5b5e139f000000000000000000000000000000000000000000000000000000007bffffffffffffffffffffffffffffffffffffffffffffffffffffffff1916827bffffffffffffffffffffffffffffffffffffffffffffffffffffffff1916145b806106f357506106f28261127b565b5b9050919050565b60605f805461070890613723565b80601f016020809104026020016040519081016040528092919081815260200182805461073490613723565b801561077f5780601f106107565761010080835404028352916020019161077f565b820191905f5260205f20905b81548152906001019060200180831161076257829003601f168201915b5050505050905090565b5f610793826112e4565b60045f8381526020019081526020015f205f9054906101000a900473ffffffffffffffffffffffffffffffffffffffff169050919050565b5f6107d5826109ed565b90508073ffffffffffffffffffffffffffffffffffffffff168373ffffffffffffffffffffffffffffffffffffffff1603610845576040517f08c379a000000000000000000000000000000000000000000000000000000000815260040161083c906137c3565b60405180910390fd5b8073ffffffffffffffffffffffffffffffffffffffff1661086461132f565b73ffffffffffffffffffffffffffffffffffffffff16148061089357506108928161088d61132f565b61116b565b5b6108d2576040517f08c379a00000000000000000000000000000000000000000000000000000000081526004016108c990613851565b60405180910390fd5b6108dc8383611336565b505050565b600381565b600481565b6108fc6108f661132f565b826113ec565b61093b576040517f08c379a0000000000000000000000000000000000000000000000000000000008152600401610932906138df565b60405180910390fd5b610946838383611480565b505050565b5f60085f8373ffffffffffffffffffffffffffffffffffffffff1673ffffffffffffffffffffffffffffffffffffffff1681526020019081526020015f205f8060ff1660ff1681526020019081526020015f205f9054906101000a900460ff169050919050565b6109cc83838360405180602001604052805f815250610fad565b505050565b600581565b5f6109e15f83610be9565b9050919050565b600281565b5f806109f88361176c565b90505f73ffffffffffffffffffffffffffffffffffffffff168173ffffffffffffffffffffffffffffffffffffffff1603610a68576040517f08c379a0000000000000000000000000000000000000000000000000000000008152600401610a5f90613947565b60405180910390fd5b80915050919050565b5f600560ff168260ff1610610abb576040517f08c379a0000000000000000000000000000000000000000000000000000000008152600401610ab2906139af565b60405180910390fd5b60085f8473ffffffffffffffffffffffffffffffffffffffff1673ffffffffffffffffffffffffffffffffffffffff1681526020019081526020015f205f8360ff1660ff1681526020019081526020015f205f9054906101000a900460ff16905092915050565b5f8073ffffffffffffffffffffffffffffffffffffffff168273ffffffffffffffffffffffffffffffffffffffff1603610b91576040517f08c379a0000000000000000000000000000000000000000000000000000000008152600401610b8890613a3d565b60405180910390fd5b60035f8373ffffffffffffffffffffffffffffffffffffffff1673ffffffffffffffffffffffffffffffffffffffff1681526020019081526020015f20549050919050565b610bde6117a5565b610be75f611823565b565b5f600560ff168360ff1610610c33576040517f08c379a0000000000000000000000000000000000000000000000000000000008152600401610c2a906139af565b60405180910390fd5b5f73ffffffffffffffffffffffffffffffffffffffff168273ffffffffffffffffffffffffffffffffffffffff1603610ca1576040517f08c379a0000000000000000000000000000000000000000000000000000000008152600401610c9890613aa5565b60405180910390fd5b8173ffffffffffffffffffffffffffffffffffffffff163373ffffffffffffffffffffffffffffffffffffffff1614610d0f576040517f08c379a0000000000000000000000000000000000000000000000000000000008152600401610d0690613b0d565b60405180910390fd5b60085f8373ffffffffffffffffffffffffffffffffffffffff1673ffffffffffffffffffffffffffffffffffffffff1681526020019081526020015f205f8460ff1660ff1681526020019081526020015f205f9054906101000a900460ff1615610dae576040517f08c379a0000000000000000000000000000000000000000000000000000000008152600401610da590613b75565b60405180910390fd5b6007549050600160075f828254610dc59190613bc0565b92505081905550600160085f8473ffffffffffffffffffffffffffffffffffffffff1673ffffffffffffffffffffffffffffffffffffffff1681526020019081526020015f205f8560ff1660ff1681526020019081526020015f205f6101000a81548160ff0219169083151502179055508260095f8381526020019081526020015f205f6101000a81548160ff021916908360ff160217905550610e6982826118e6565b808360ff168373ffffffffffffffffffffffffffffffffffffffff167f4c7380f1d23a71f74fa1303f23b7100826e4a89a4e47b2985e5c708e47a19b3a60405160405180910390a492915050565b60075481565b6009602052805f5260405f205f915054906101000a900460ff1681565b5f60065f9054906101000a900473ffffffffffffffffffffffffffffffffffffffff16905090565b606060018054610f1190613723565b80601f0160208091040260200160405190810160405280929190818152602001828054610f3d90613723565b8015610f885780601f10610f5f57610100808354040283529160200191610f88565b820191905f5260205f20905b815481529060010190602001808311610f6b57829003601f168201915b5050505050905090565b600181565b610fa9610fa261132f565b8383611903565b5050565b610fbe610fb861132f565b836113ec565b610ffd576040517f08c379a0000000000000000000000000000000000000000000000000000000008152600401610ff4906138df565b60405180910390fd5b61100984848484611a6a565b50505050565b5f81565b60605f73ffffffffffffffffffffffffffffffffffffffff166110358361176c565b73ffffffffffffffffffffffffffffffffffffffff160361108b576040517f08c379a000000000000000000000000000000000000000000000000000000000815260040161108290613947565b60405180910390fd5b5f60095f8481526020019081526020015f205f9054906101000a900460ff1690505f6110b682611ac6565b90505f6110c283611c31565b90505f6110ce84611d9c565b90505f6110e26110dd86611e76565b611f0b565b6040516020016110f29190613c77565b60405160208183030381529060405290505f838383876111118c612078565b604051602001611125959493929190613f38565b604051602081830303815290604052905061113f81611f0b565b60405160200161114f919061400e565b6040516020818303038152906040529650505050505050919050565b5f60055f8473ffffffffffffffffffffffffffffffffffffffff1673ffffffffffffffffffffffffffffffffffffffff1681526020019081526020015f205f8373ffffffffffffffffffffffffffffffffffffffff1673ffffffffffffffffffffffffffffffffffffffff1681526020019081526020015f205f9054906101000a900460ff16905092915050565b6112016117a5565b5f73ffffffffffffffffffffffffffffffffffffffff168173ffffffffffffffffffffffffffffffffffffffff160361126f576040517f08c379a00000000000000000000000000000000000000000000000000000000081526004016112669061409f565b60405180910390fd5b61127881611823565b50565b5f7f01ffc9a7000000000000000000000000000000000000000000000000000000007bffffffffffffffffffffffffffffffffffffffffffffffffffffffff1916827bffffffffffffffffffffffffffffffffffffffffffffffffffffffff1916149050919050565b6112ed81612142565b61132c576040517f08c379a000000000000000000000000000000000000000000000000000000000815260040161132390613947565b60405180910390fd5b50565b5f33905090565b8160045f8381526020019081526020015f205f6101000a81548173ffffffffffffffffffffffffffffffffffffffff021916908373ffffffffffffffffffffffffffffffffffffffff160217905550808273ffffffffffffffffffffffffffffffffffffffff166113a6836109ed565b73ffffffffffffffffffffffffffffffffffffffff167f8c5be1e5ebec7d5bd14f71427d1e84f3dd0314c0f7b2291e5b200ac8c7c3b92560405160405180910390a45050565b5f806113f7836109ed565b90508073ffffffffffffffffffffffffffffffffffffffff168473ffffffffffffffffffffffffffffffffffffffff1614806114395750611438818561116b565b5b8061147757508373ffffffffffffffffffffffffffffffffffffffff1661145f84610789565b73ffffffffffffffffffffffffffffffffffffffff16145b91505092915050565b8273ffffffffffffffffffffffffffffffffffffffff166114a0826109ed565b73ffffffffffffffffffffffffffffffffffffffff16146114f6576040517f08c379a00000000000000000000000000000000000000000000000000000000081526004016114ed9061412d565b60405180910390fd5b5f73ffffffffffffffffffffffffffffffffffffffff168273ffffffffffffffffffffffffffffffffffffffff1603611564576040517f08c379a000000000000000000000000000000000000000000000000000000000815260040161155b906141bb565b60405180910390fd5b6115718383836001612182565b8273ffffffffffffffffffffffffffffffffffffffff16611591826109ed565b73ffffffffffffffffffffffffffffffffffffffff16146115e7576040517f08c379a00000000000000000000000000000000000000000000000000000000081526004016115de9061412d565b60405180910390fd5b60045f8281526020019081526020015f205f6101000a81549073ffffffffffffffffffffffffffffffffffffffff0219169055600160035f8573ffffffffffffffffffffffffffffffffffffffff1673ffffffffffffffffffffffffffffffffffffffff1681526020019081526020015f205f8282540392505081905550600160035f8473ffffffffffffffffffffffffffffffffffffffff1673ffffffffffffffffffffffffffffffffffffffff1681526020019081526020015f205f82825401925050819055508160025f8381526020019081526020015f205f6101000a81548173ffffffffffffffffffffffffffffffffffffffff021916908373ffffffffffffffffffffffffffffffffffffffff160217905550808273ffffffffffffffffffffffffffffffffffffffff168473ffffffffffffffffffffffffffffffffffffffff167fddf252ad1be2c89b69c2b068fc378daa952ba7f163c4a11628f55a4df523b3ef60405160405180910390a46117678383836001612188565b505050565b5f60025f8381526020019081526020015f205f9054906101000a900473ffffffffffffffffffffffffffffffffffffffff169050919050565b6117ad61132f565b73ffffffffffffffffffffffffffffffffffffffff166117cb610eda565b73ffffffffffffffffffffffffffffffffffffffff1614611821576040517f08c379a000000000000000000000000000000000000000000000000000000000815260040161181890614223565b60405180910390fd5b565b5f60065f9054906101000a900473ffffffffffffffffffffffffffffffffffffffff1690508160065f6101000a81548173ffffffffffffffffffffffffffffffffffffffff021916908373ffffffffffffffffffffffffffffffffffffffff1602179055508173ffffffffffffffffffffffffffffffffffffffff168173ffffffffffffffffffffffffffffffffffffffff167f8be0079c531659141344cd1fd0a4f28419497f9722a3daafe3b4186f6b6457e060405160405180910390a35050565b6118ff828260405180602001604052805f81525061218e565b5050565b8173ffffffffffffffffffffffffffffffffffffffff168373ffffffffffffffffffffffffffffffffffffffff1603611971576040517f08c379a00000000000000000000000000000000000000000000000000000000081526004016119689061428b565b60405180910390fd5b8060055f8573ffffffffffffffffffffffffffffffffffffffff1673ffffffffffffffffffffffffffffffffffffffff1681526020019081526020015f205f8473ffffffffffffffffffffffffffffffffffffffff1673ffffffffffffffffffffffffffffffffffffffff1681526020019081526020015f205f6101000a81548160ff0219169083151502179055508173ffffffffffffffffffffffffffffffffffffffff168373ffffffffffffffffffffffffffffffffffffffff167f17307eab39ab6107e8899845ad3d59bd9653f200f220920489ca2b5937696c3183604051611a5d9190613194565b60405180910390a3505050565b611a75848484611480565b611a81848484846121e8565b611ac0576040517f08c379a0000000000000000000000000000000000000000000000000000000008152600401611ab790614319565b60405180910390fd5b50505050565b60605f60ff168260ff1603611b12576040518060400160405280600781526020017f77656c636f6d65000000000000000000000000000000000000000000000000008152509050611c2c565b600160ff168260ff1603611b5d576040518060400160405280600681526020017f77616c6c657400000000000000000000000000000000000000000000000000008152509050611c2c565b600260ff168260ff1603611ba8576040518060400160405280600481526020017f7269736b000000000000000000000000000000000000000000000000000000008152509050611c2c565b600360ff168260ff1603611bf3576040518060400160405280600481526020017f7175697a000000000000000000000000000000000000000000000000000000008152509050611c2c565b6040518060400160405280600581526020017f706170657200000000000000000000000000000000000000000000000000000081525090505b919050565b60605f60ff168260ff1603611c7d576040518060400160405280601181526020017f4d53582057656c636f6d652042616467650000000000000000000000000000008152509050611d97565b600160ff168260ff1603611cc8576040518060400160405280601581526020017f4d53582057616c6c6574205461736b20426164676500000000000000000000008152509050611d97565b600260ff168260ff1603611d13576040518060400160405280601581526020017f4d5358205269736b2052657669657720426164676500000000000000000000008152509050611d97565b600360ff168260ff1603611d5e576040518060400160405280601681526020017f4d53582050726f64756374205175697a204261646765000000000000000000008152509050611d97565b6040518060400160405280601781526020017f4d53582050617065722054726164696e6720426164676500000000000000000081525090505b919050565b60605f60ff168260ff1603611dcb576040518060800160405280604f81526020016157bd604f91399050611e71565b600160ff168260ff1603611df9576040518060600160405280603c81526020016156c3603c91399050611e71565b600260ff168260ff1603611e275760405180608001604052806041815260200161577c604191399050611e71565b600360ff168260ff1603611e55576040518060600160405280603d81526020016156ff603d91399050611e71565b60405180608001604052806048815260200161567b6048913990505b919050565b6060611e818261236a565b611e8a8361236a565b611e938461248b565b611e9c85612561565b611ea58661248b565b611eae8761248b565b611eb7886125fe565b611ec089612769565b611ec98a6128d4565b611ed28b612a3f565b611edb8c612baa565b604051602001611ef59b9a99989796959493929190615286565b6040516020818303038152906040529050919050565b60605f825103611f2b5760405180602001604052805f8152509050612073565b5f60405180606001604052806040815260200161573c6040913990505f600360028551611f589190613bc0565b611f62919061545e565b6004611f6e919061548e565b67ffffffffffffffff811115611f8757611f86613514565b5b6040519080825280601f01601f191660200182016040528015611fb95781602001600182028036833780820191505090505b509050600182016020820185865187016020810180515f82525b8284101561202e576003840193508351603f8160121c168701518653600186019550603f81600c1c168701518653600186019550603f8160061c168701518653600186019550603f8116870151865360018601955050611fd3565b80825260038a51066001811461204b576002811461205e57612066565b603d6001870353603d6002870353612066565b603d60018703535b5050505050505080925050505b919050565b60605f600161208684612d15565b0190505f8167ffffffffffffffff8111156120a4576120a3613514565b5b6040519080825280601f01601f1916602001820160405280156120d65781602001600182028036833780820191505090505b5090505f82602001820190505b600115612137578080600190039150507f3031323334353637383961626364656600000000000000000000000000000000600a86061a8153600a858161212c5761212b615431565b5b0494505f85036120e3575b819350505050919050565b5f8073ffffffffffffffffffffffffffffffffffffffff166121638361176c565b73ffffffffffffffffffffffffffffffffffffffff1614159050919050565b50505050565b50505050565b6121988383612e66565b6121a45f8484846121e8565b6121e3576040517f08c379a00000000000000000000000000000000000000000000000000000000081526004016121da90614319565b60405180910390fd5b505050565b5f6122088473ffffffffffffffffffffffffffffffffffffffff16613079565b1561235d578373ffffffffffffffffffffffffffffffffffffffff1663150b7a0261223161132f565b8786866040518563ffffffff1660e01b81526004016122539493929190615521565b6020604051808303815f875af192505050801561228e57506040513d601f19601f8201168201806040525081019061228b919061557f565b60015b61230d573d805f81146122bc576040519150601f19603f3d011682016040523d82523d5f602084013e6122c1565b606091505b505f815103612305576040517f08c379a00000000000000000000000000000000000000000000000000000000081526004016122fc90614319565b60405180910390fd5b805181602001fd5b63150b7a0260e01b7bffffffffffffffffffffffffffffffffffffffffffffffffffffffff1916817bffffffffffffffffffffffffffffffffffffffffffffffffffffffff191614915050612362565b600190505b949350505050565b6060600160ff168260ff16036123b7576040518060400160405280600781526020017f23364641354646000000000000000000000000000000000000000000000000008152509050612486565b600260ff168260ff1603612402576040518060400160405280600781526020017f23464644313636000000000000000000000000000000000000000000000000008152509050612486565b600360ff168260ff160361244d576040518060400160405280600781526020017f23464639463645000000000000000000000000000000000000000000000000008152509050612486565b6040518060400160405280600781526020017f234236464634330000000000000000000000000000000000000000000000000081525090505b919050565b6060600260ff168260ff16036124d8576040518060400160405280600781526020017f2346464431363600000000000000000000000000000000000000000000000000815250905061255c565b600360ff168260ff1603612523576040518060400160405280600781526020017f2346463946364500000000000000000000000000000000000000000000000000815250905061255c565b6040518060400160405280600781526020017f234236464634330000000000000000000000000000000000000000000000000081525090505b919050565b6060600160ff168260ff16148061257e5750600460ff168260ff16145b156125c0576040518060400160405280600781526020017f233646413546460000000000000000000000000000000000000000000000000081525090506125f9565b6040518060400160405280600781526020017f233439443643340000000000000000000000000000000000000000000000000081525090505b919050565b60605f60ff168260ff160361264a576040518060400160405280601181526020017f4d53582057656c636f6d652042616467650000000000000000000000000000008152509050612764565b600160ff168260ff1603612695576040518060400160405280601181526020017f4d535820436f6e6e6563742051756573740000000000000000000000000000008152509050612764565b600260ff168260ff16036126e0576040518060400160405280601181526020017f4d535820537461727465722047756964650000000000000000000000000000008152509050612764565b600360ff168260ff160361272b576040518060400160405280601081526020017f4d53582050726f64756374205175697a000000000000000000000000000000008152509050612764565b6040518060400160405280601581526020017f4d53582053696d756c6174696f6e20416363657373000000000000000000000081525090505b919050565b60605f60ff168260ff16036127b5576040518060400160405280600d81526020017f57454c434f4d452042414447450000000000000000000000000000000000000081525090506128cf565b600160ff168260ff1603612800576040518060400160405280600b81526020017f57414c4c4554205441534b00000000000000000000000000000000000000000081525090506128cf565b600260ff168260ff160361284b576040518060400160405280600981526020017f5249534b205441534b000000000000000000000000000000000000000000000081525090506128cf565b600360ff168260ff1603612896576040518060400160405280600981526020017f5155495a205441534b000000000000000000000000000000000000000000000081525090506128cf565b6040518060400160405280600a81526020017f5041504552204d4f44450000000000000000000000000000000000000000000081525090505b919050565b60605f60ff168260ff1603612920576040518060400160405280600681526020017f4d494e54454400000000000000000000000000000000000000000000000000008152509050612a3a565b600160ff168260ff160361296b576040518060400160405280600681526020017f4d494e54454400000000000000000000000000000000000000000000000000008152509050612a3a565b600260ff168260ff16036129b6576040518060400160405280600681526020017f4d494e54454400000000000000000000000000000000000000000000000000008152509050612a3a565b600360ff168260ff1603612a01576040518060400160405280600681526020017f4d494e54454400000000000000000000000000000000000000000000000000008152509050612a3a565b6040518060400160405280600881526020017f554e4c4f434b454400000000000000000000000000000000000000000000000081525090505b919050565b60605f60ff168260ff1603612a8b576040518060400160405280601b81526020017f5365706f6c696120636f6c6c65637469626c6520666f722074686500000000008152509050612ba5565b600160ff168260ff1603612ad6576040518060400160405280601a81526020017f57616c6c65742061636365737320617070726f76656420666f720000000000008152509050612ba5565b600260ff168260ff1603612b21576040518060400160405280601981526020017f5269736b2072657669657720636f6d706c6574656420666f72000000000000008152509050612ba5565b600360ff168260ff1603612b6c576040518060400160405280601681526020017f4f776e65727368697020616e6420646f776e73696465000000000000000000008152509050612ba5565b6040518060400160405280601a81526020017f507261637469636520666c6f77206f70656e656420616674657200000000000081525090505b919050565b60605f60ff168260ff1603612bf6576040518060400160405280601681526020017f677569646564206f6e626f617264696e6720666c6f77000000000000000000008152509050612d10565b600160ff168260ff1603612c41576040518060400160405280601481526020017f746865204d53582077656c636f6d6520666c6f770000000000000000000000008152509050612d10565b600260ff168260ff1603612c8c576040518060400160405280601a81526020017f74686520677569646564206f6e626f617264696e6720666c6f770000000000008152509050612d10565b600360ff168260ff1603612cd7576040518060400160405280601181526020017f6672616d696e6720636f6e6669726d65640000000000000000000000000000008152509050612d10565b6040518060400160405280601a81526020017f77616c6c6574207475746f7269616c20636f6d706c6574696f6e00000000000081525090505b919050565b5f805f90507a184f03e93ff9f4daa797ed6e38ed64bf6a1f0100000000000000008310612d71577a184f03e93ff9f4daa797ed6e38ed64bf6a1f0100000000000000008381612d6757612d66615431565b5b0492506040810190505b6d04ee2d6d415b85acef81000000008310612dae576d04ee2d6d415b85acef81000000008381612da457612da3615431565b5b0492506020810190505b662386f26fc100008310612ddd57662386f26fc100008381612dd357612dd2615431565b5b0492506010810190505b6305f5e1008310612e06576305f5e1008381612dfc57612dfb615431565b5b0492506008810190505b6127108310612e2b576127108381612e2157612e20615431565b5b0492506004810190505b60648310612e4e5760648381612e4457612e43615431565b5b0492506002810190505b600a8310612e5d576001810190505b80915050919050565b5f73ffffffffffffffffffffffffffffffffffffffff168273ffffffffffffffffffffffffffffffffffffffff1603612ed4576040517f08c379a0000000000000000000000000000000000000000000000000000000008152600401612ecb906155f4565b60405180910390fd5b612edd81612142565b15612f1d576040517f08c379a0000000000000000000000000000000000000000000000000000000008152600401612f149061565c565b60405180910390fd5b612f2a5f83836001612182565b612f3381612142565b15612f73576040517f08c379a0000000000000000000000000000000000000000000000000000000008152600401612f6a9061565c565b60405180910390fd5b600160035f8473ffffffffffffffffffffffffffffffffffffffff1673ffffffffffffffffffffffffffffffffffffffff1681526020019081526020015f205f82825401925050819055508160025f8381526020019081526020015f205f6101000a81548173ffffffffffffffffffffffffffffffffffffffff021916908373ffffffffffffffffffffffffffffffffffffffff160217905550808273ffffffffffffffffffffffffffffffffffffffff165f73ffffffffffffffffffffffffffffffffffffffff167fddf252ad1be2c89b69c2b068fc378daa952ba7f163c4a11628f55a4df523b3ef60405160405180910390a46130755f83836001612188565b5050565b5f808273ffffffffffffffffffffffffffffffffffffffff163b119050919050565b5f604051905090565b5f80fd5b5f80fd5b5f73ffffffffffffffffffffffffffffffffffffffff82169050919050565b5f6130d5826130ac565b9050919050565b6130e5816130cb565b81146130ef575f80fd5b50565b5f81359050613100816130dc565b92915050565b5f60ff82169050919050565b61311b81613106565b8114613125575f80fd5b50565b5f8135905061313681613112565b92915050565b5f8060408385031215613152576131516130a4565b5b5f61315f858286016130f2565b925050602061317085828601613128565b9150509250929050565b5f8115159050919050565b61318e8161317a565b82525050565b5f6020820190506131a75f830184613185565b92915050565b5f7fffffffff0000000000000000000000000000000000000000000000000000000082169050919050565b6131e1816131ad565b81146131eb575f80fd5b50565b5f813590506131fc816131d8565b92915050565b5f60208284031215613217576132166130a4565b5b5f613224848285016131ee565b91505092915050565b5f81519050919050565b5f82825260208201905092915050565b5f5b83811015613264578082015181840152602081019050613249565b5f8484015250505050565b5f601f19601f8301169050919050565b5f6132898261322d565b6132938185613237565b93506132a3818560208601613247565b6132ac8161326f565b840191505092915050565b5f6020820190508181035f8301526132cf818461327f565b905092915050565b5f819050919050565b6132e9816132d7565b81146132f3575f80fd5b50565b5f81359050613304816132e0565b92915050565b5f6020828403121561331f5761331e6130a4565b5b5f61332c848285016132f6565b91505092915050565b61333e816130cb565b82525050565b5f6020820190506133575f830184613335565b92915050565b5f8060408385031215613373576133726130a4565b5b5f613380858286016130f2565b9250506020613391858286016132f6565b9150509250929050565b6133a481613106565b82525050565b5f6020820190506133bd5f83018461339b565b92915050565b5f805f606084860312156133da576133d96130a4565b5b5f6133e7868287016130f2565b93505060206133f8868287016130f2565b9250506040613409868287016132f6565b9150509250925092565b5f60208284031215613428576134276130a4565b5b5f613435848285016130f2565b91505092915050565b613447816132d7565b82525050565b5f6020820190506134605f83018461343e565b92915050565b5f806040838503121561347c5761347b6130a4565b5b5f61348985828601613128565b925050602061349a858286016130f2565b9150509250929050565b6134ad8161317a565b81146134b7575f80fd5b50565b5f813590506134c8816134a4565b92915050565b5f80604083850312156134e4576134e36130a4565b5b5f6134f1858286016130f2565b9250506020613502858286016134ba565b9150509250929050565b5f80fd5b5f80fd5b7f4e487b71000000000000000000000000000000000000000000000000000000005f52604160045260245ffd5b61354a8261326f565b810181811067ffffffffffffffff8211171561356957613568613514565b5b80604052505050565b5f61357b61309b565b90506135878282613541565b919050565b5f67ffffffffffffffff8211156135a6576135a5613514565b5b6135af8261326f565b9050602081019050919050565b828183375f83830152505050565b5f6135dc6135d78461358c565b613572565b9050828152602081018484840111156135f8576135f7613510565b5b6136038482856135bc565b509392505050565b5f82601f83011261361f5761361e61350c565b5b813561362f8482602086016135ca565b91505092915050565b5f805f80608085870312156136505761364f6130a4565b5b5f61365d878288016130f2565b945050602061366e878288016130f2565b935050604061367f878288016132f6565b925050606085013567ffffffffffffffff8111156136a05761369f6130a8565b5b6136ac8782880161360b565b91505092959194509250565b5f80604083850312156136ce576136cd6130a4565b5b5f6136db858286016130f2565b92505060206136ec858286016130f2565b9150509250929050565b7f4e487b71000000000000000000000000000000000000000000000000000000005f52602260045260245ffd5b5f600282049050600182168061373a57607f821691505b60208210810361374d5761374c6136f6565b5b50919050565b7f4552433732313a20617070726f76616c20746f2063757272656e74206f776e655f8201527f7200000000000000000000000000000000000000000000000000000000000000602082015250565b5f6137ad602183613237565b91506137b882613753565b604082019050919050565b5f6020820190508181035f8301526137da816137a1565b9050919050565b7f4552433732313a20617070726f76652063616c6c6572206973206e6f7420746f5f8201527f6b656e206f776e6572206f7220617070726f76656420666f7220616c6c000000602082015250565b5f61383b603d83613237565b9150613846826137e1565b604082019050919050565b5f6020820190508181035f8301526138688161382f565b9050919050565b7f4552433732313a2063616c6c6572206973206e6f7420746f6b656e206f776e655f8201527f72206f7220617070726f76656400000000000000000000000000000000000000602082015250565b5f6138c9602d83613237565b91506138d48261386f565b604082019050919050565b5f6020820190508181035f8301526138f6816138bd565b9050919050565b7f4552433732313a20696e76616c696420746f6b656e20494400000000000000005f82015250565b5f613931601883613237565b915061393c826138fd565b602082019050919050565b5f6020820190508181035f83015261395e81613925565b9050919050565b7f496e76616c6964206261646765207479706500000000000000000000000000005f82015250565b5f613999601283613237565b91506139a482613965565b602082019050919050565b5f6020820190508181035f8301526139c68161398d565b9050919050565b7f4552433732313a2061646472657373207a65726f206973206e6f7420612076615f8201527f6c6964206f776e65720000000000000000000000000000000000000000000000602082015250565b5f613a27602983613237565b9150613a32826139cd565b604082019050919050565b5f6020820190508181035f830152613a5481613a1b565b9050919050565b7f496e76616c696420726563697069656e740000000000000000000000000000005f82015250565b5f613a8f601183613237565b9150613a9a82613a5b565b602082019050919050565b5f6020820190508181035f830152613abc81613a83565b9050919050565b7f4f6e6c792073656c66206d696e740000000000000000000000000000000000005f82015250565b5f613af7600e83613237565b9150613b0282613ac3565b602082019050919050565b5f6020820190508181035f830152613b2481613aeb565b9050919050565b7f426164676520616c7265616479206d696e7465640000000000000000000000005f82015250565b5f613b5f601483613237565b9150613b6a82613b2b565b602082019050919050565b5f6020820190508181035f830152613b8c81613b53565b9050919050565b7f4e487b71000000000000000000000000000000000000000000000000000000005f52601160045260245ffd5b5f613bca826132d7565b9150613bd5836132d7565b9250828201905080821115613bed57613bec613b93565b5b92915050565b5f81905092915050565b7f646174613a696d6167652f7376672b786d6c3b6261736536342c0000000000005f82015250565b5f613c31601a83613bf3565b9150613c3c82613bfd565b601a82019050919050565b5f613c518261322d565b613c5b8185613bf3565b9350613c6b818560208601613247565b80840191505092915050565b5f613c8182613c25565b9150613c8d8284613c47565b915081905092915050565b7f7b226e616d65223a2200000000000000000000000000000000000000000000005f82015250565b5f613ccc600983613bf3565b9150613cd782613c98565b600982019050919050565b7f222c226465736372697074696f6e223a220000000000000000000000000000005f82015250565b5f613d16601183613bf3565b9150613d2182613ce2565b601182019050919050565b7f222c22696d616765223a220000000000000000000000000000000000000000005f82015250565b5f613d60600b83613bf3565b9150613d6b82613d2c565b600b82019050919050565b7f222c2261747472696275746573223a5b7b2274726169745f74797065223a22435f8201527f616d706169676e222c2276616c7565223a224d53582047756964656420496e7660208201527f657374696e6720487562227d2c7b2274726169745f74797065223a224e65747760408201527f6f726b222c2276616c7565223a225365706f6c6961227d2c7b2274726169745f60608201527f74797065223a2242616467652054797065222c2276616c7565223a2200000000608082015250565b5f613e42609c83613bf3565b9150613e4d82613d76565b609c82019050919050565b7f227d2c7b2274726169745f74797065223a22537461747573222c2276616c75655f8201527f223a22556e6c6f636b6564227d2c7b2274726169745f74797065223a22546f6b60208201527f656e204944222c2276616c7565223a2200000000000000000000000000000000604082015250565b5f613ed8605083613bf3565b9150613ee382613e58565b605082019050919050565b7f227d5d7d000000000000000000000000000000000000000000000000000000005f82015250565b5f613f22600483613bf3565b9150613f2d82613eee565b600482019050919050565b5f613f4282613cc0565b9150613f4e8288613c47565b9150613f5982613d0a565b9150613f658287613c47565b9150613f7082613d54565b9150613f7c8286613c47565b9150613f8782613e36565b9150613f938285613c47565b9150613f9e82613ecc565b9150613faa8284613c47565b9150613fb582613f16565b91508190509695505050505050565b7f646174613a6170706c69636174696f6e2f6a736f6e3b6261736536342c0000005f82015250565b5f613ff8601d83613bf3565b915061400382613fc4565b601d82019050919050565b5f61401882613fec565b91506140248284613c47565b915081905092915050565b7f4f776e61626c653a206e6577206f776e657220697320746865207a65726f20615f8201527f6464726573730000000000000000000000000000000000000000000000000000602082015250565b5f614089602683613237565b91506140948261402f565b604082019050919050565b5f6020820190508181035f8301526140b68161407d565b9050919050565b7f4552433732313a207472616e736665722066726f6d20696e636f7272656374205f8201527f6f776e6572000000000000000000000000000000000000000000000000000000602082015250565b5f614117602583613237565b9150614122826140bd565b604082019050919050565b5f6020820190508181035f8301526141448161410b565b9050919050565b7f4552433732313a207472616e7366657220746f20746865207a65726f206164645f8201527f7265737300000000000000000000000000000000000000000000000000000000602082015250565b5f6141a5602483613237565b91506141b08261414b565b604082019050919050565b5f6020820190508181035f8301526141d281614199565b9050919050565b7f4f776e61626c653a2063616c6c6572206973206e6f7420746865206f776e65725f82015250565b5f61420d602083613237565b9150614218826141d9565b602082019050919050565b5f6020820190508181035f83015261423a81614201565b9050919050565b7f4552433732313a20617070726f766520746f2063616c6c6572000000000000005f82015250565b5f614275601983613237565b915061428082614241565b602082019050919050565b5f6020820190508181035f8301526142a281614269565b9050919050565b7f4552433732313a207472616e7366657220746f206e6f6e2045524337323152655f8201527f63656976657220696d706c656d656e7465720000000000000000000000000000602082015250565b5f614303603283613237565b915061430e826142a9565b604082019050919050565b5f6020820190508181035f830152614330816142f7565b9050919050565b7f3c7376672077696474683d223132303022206865696768743d223132303022205f8201527f76696577426f783d2230203020313230302031323030222066696c6c3d226e6f60208201527f6e652220786d6c6e733d22687474703a2f2f7777772e77332e6f72672f32303060408201527f302f737667223e00000000000000000000000000000000000000000000000000606082015250565b5f6143dd606783613bf3565b91506143e882614337565b606782019050919050565b7f3c646566733e3c6c696e6561724772616469656e742069643d226267222078315f8201527f3d223634222079313d223430222078323d2231313034222079323d223131343660208201527f22206772616469656e74556e6974733d227573657253706163654f6e5573652260408201527f3e3c73746f702073746f702d636f6c6f723d2223324134333145222f3e3c737460608201527f6f70206f66667365743d22302e3335222073746f702d636f6c6f723d2223304560808201527f31373232222f3e3c73746f70206f66667365743d2231222073746f702d636f6c60a08201527f6f723d2223313733413346222f3e3c2f6c696e6561724772616469656e743e0060c082015250565b5f61450b60df83613bf3565b9150614516826143f3565b60df82019050919050565b7f3c72616469616c4772616469656e742069643d22676c6f77222063783d2230225f8201527f2063793d22302220723d223122206772616469656e74556e6974733d2275736560208201527f7253706163654f6e55736522206772616469656e745472616e73666f726d3d2260408201527f7472616e736c61746528323230203231302920726f746174652834372920736360608201527f616c65283336302033363029223e3c73746f702073746f702d636f6c6f723d22608082015250565b5f6145ed60a083613bf3565b91506145f882614521565b60a082019050919050565b7f222073746f702d6f7061636974793d22302e35222f3e3c73746f70206f6666735f8201527f65743d2231222073746f702d636f6c6f723d2200000000000000000000000000602082015250565b5f61465d603383613bf3565b915061466882614603565b603382019050919050565b7f222073746f702d6f7061636974793d2230222f3e3c2f72616469616c477261645f8201527f69656e743e000000000000000000000000000000000000000000000000000000602082015250565b5f6146cd602583613bf3565b91506146d882614673565b602582019050919050565b7f3c6c696e6561724772616469656e742069643d2265646765222078313d2239365f8201527f222079313d223936222078323d2231313034222079323d22313130342220677260208201527f616469656e74556e6974733d227573657253706163654f6e557365223e3c737460408201527f6f702073746f702d636f6c6f723d220000000000000000000000000000000000606082015250565b5f614789606f83613bf3565b9150614794826146e3565b606f82019050919050565b7f222073746f702d6f7061636974793d22302e3238222f3e3c73746f70206f66665f8201527f7365743d2231222073746f702d636f6c6f723d22000000000000000000000000602082015250565b5f6147f9603483613bf3565b91506148048261479f565b603482019050919050565b7f222073746f702d6f7061636974793d22302e3136222f3e3c2f6c696e656172475f8201527f72616469656e743e3c2f646566733e0000000000000000000000000000000000602082015250565b5f614869602f83613bf3565b91506148748261480f565b602f82019050919050565b7f3c726563742077696474683d223132303022206865696768743d2231323030225f8201527f2072783d223732222066696c6c3d2223304331333230222f3e3c72656374207860208201527f3d2235322220793d223532222077696474683d2231303936222068656967687460408201527f3d2231303936222072783d223438222066696c6c3d2275726c2823626729222060608201527f7374726f6b653d2275726c2823656467652922207374726f6b652d776964746860808201527f3d2232222f3e000000000000000000000000000000000000000000000000000060a082015250565b5f61497160a683613bf3565b915061497c8261487f565b60a682019050919050565b7f3c636972636c652063783d22323230222063793d223231302220723d223332305f8201527f222066696c6c3d2275726c2823676c6f7729222f3e0000000000000000000000602082015250565b5f6149e1603583613bf3565b91506149ec82614987565b603582019050919050565b7f3c67206f7061636974793d22302e3122207374726f6b653d22233845413042375f8201527f223e3c7061746820643d224d31323020305631323030222f3e3c70617468206460208201527f3d224d32343020305631323030222f3e3c7061746820643d224d33363020305660408201527f31323030222f3e3c7061746820643d224d34383020305631323030222f3e3c7060608201527f61746820643d224d36303020305631323030222f3e3c7061746820643d224d3760808201527f323020305631323030222f3e3c7061746820643d224d3834302030563132303060a08201527f222f3e3c7061746820643d224d39363020305631323030222f3e3c706174682060c08201527f643d224d3130383020305631323030222f3e3c7061746820643d224d3020313260e08201527f304831323030222f3e3c7061746820643d224d30203234304831323030222f3e6101008201527f3c7061746820643d224d30203336304831323030222f3e3c7061746820643d226101208201527f4d30203438304831323030222f3e3c7061746820643d224d30203630304831326101408201527f3030222f3e3c7061746820643d224d30203732304831323030222f3e3c7061746101608201527f6820643d224d30203834304831323030222f3e3c7061746820643d224d3020396101808201527f36304831323030222f3e3c7061746820643d224d3020313038304831323030226101a08201527f2f3e3c2f673e00000000000000000000000000000000000000000000000000006101c082015250565b5f614c476101c683613bf3565b9150614c52826149f7565b6101c682019050919050565b7f3c636972636c652063783d22313232222063793d223132322220723d223136225f8201527f2066696c6c3d2200000000000000000000000000000000000000000000000000602082015250565b5f614cb8602783613bf3565b9150614cc382614c5e565b602782019050919050565b7f222f3e3c7465787420783d223135342220793d22313332222066696c6c3d22005f82015250565b5f614d02601f83613bf3565b9150614d0d82614cce565b601f82019050919050565b7f2220666f6e742d73697a653d2232342220666f6e742d7765696768743d2238305f8201527f302220666f6e742d66616d696c793d22417269616c2c2073616e732d7365726960208201527f6622206c65747465722d73706163696e673d2232223e00000000000000000000604082015250565b5f614d98605683613bf3565b9150614da382614d18565b605682019050919050565b7f3c2f746578743e000000000000000000000000000000000000000000000000005f82015250565b5f614de2600783613bf3565b9150614ded82614dae565b600782019050919050565b7f3c7465787420783d223131302220793d22343730222066696c6c3d22234634465f8201527f3746422220666f6e742d73697a653d2236382220666f6e742d7765696768743d60208201527f223930302220666f6e742d66616d696c793d22417269616c2c2073616e732d7360408201527f65726966223e0000000000000000000000000000000000000000000000000000606082015250565b5f614e9e606683613bf3565b9150614ea982614df8565b606682019050919050565b7f3c7465787420783d223131302220793d22353438222066696c6c3d22234634465f8201527f3746422220666f6e742d73697a653d2236382220666f6e742d7765696768743d60208201527f223930302220666f6e742d66616d696c793d22417269616c2c2073616e732d7360408201527f65726966223e0000000000000000000000000000000000000000000000000000606082015250565b5f614f5a606683613bf3565b9150614f6582614eb4565b606682019050919050565b7f3c7465787420783d223131302220793d22363534222066696c6c3d22233946425f8201527f3043342220666f6e742d73697a653d2232382220666f6e742d7765696768743d60208201527f223530302220666f6e742d66616d696c793d22417269616c2c2073616e732d7360408201527f65726966223e0000000000000000000000000000000000000000000000000000606082015250565b5f615016606683613bf3565b915061502182614f70565b606682019050919050565b7f3c7465787420783d223131302220793d22363936222066696c6c3d22233946425f8201527f3043342220666f6e742d73697a653d2232382220666f6e742d7765696768743d60208201527f223530302220666f6e742d66616d696c793d22417269616c2c2073616e732d7360408201527f65726966223e0000000000000000000000000000000000000000000000000000606082015250565b5f6150d2606683613bf3565b91506150dd8261502c565b606682019050919050565b7f3c7265637420783d223131302220793d22383436222077696474683d223138385f8201527f22206865696768743d223538222072783d223239222066696c6c3d227267626160208201527f2831302c31382c32382c302e36322922207374726f6b653d227267626128323560408201527f352c3235352c3235352c302e313229222f3e3c7465787420783d22313432222060608201527f793d22383833222066696c6c3d22234634463746422220666f6e742d73697a6560808201527f3d2232322220666f6e742d7765696768743d223730302220666f6e742d66616d60a08201527f696c793d22417269616c2c2073616e732d7365726966223e5365706f6c69612060c08201527f51756573743c2f746578743e000000000000000000000000000000000000000060e082015250565b5f61522660ec83613bf3565b9150615231826150e8565b60ec82019050919050565b7f3c2f7376673e00000000000000000000000000000000000000000000000000005f82015250565b5f615270600683613bf3565b915061527b8261523c565b600682019050919050565b5f615290826143d1565b915061529b826144ff565b91506152a6826145e1565b91506152b2828e613c47565b91506152bd82614651565b91506152c9828d613c47565b91506152d4826146c1565b91506152df8261477d565b91506152eb828c613c47565b91506152f6826147ed565b9150615302828b613c47565b915061530d8261485d565b915061531882614965565b9150615323826149d5565b915061532e82614c3a565b915061533982614cac565b9150615345828a613c47565b915061535082614cf6565b915061535c8289613c47565b915061536782614d8c565b91506153738288613c47565b915061537e82614dd6565b915061538982614e92565b91506153958287613c47565b91506153a082614dd6565b91506153ab82614f4e565b91506153b78286613c47565b91506153c282614dd6565b91506153cd8261500a565b91506153d98285613c47565b91506153e482614dd6565b91506153ef826150c6565b91506153fb8284613c47565b915061540682614dd6565b91506154118261521a565b915061541c82615264565b91508190509c9b505050505050505050505050565b7f4e487b71000000000000000000000000000000000000000000000000000000005f52601260045260245ffd5b5f615468826132d7565b9150615473836132d7565b92508261548357615482615431565b5b828204905092915050565b5f615498826132d7565b91506154a3836132d7565b92508282026154b1816132d7565b915082820484148315176154c8576154c7613b93565b5b5092915050565b5f81519050919050565b5f82825260208201905092915050565b5f6154f3826154cf565b6154fd81856154d9565b935061550d818560208601613247565b6155168161326f565b840191505092915050565b5f6080820190506155345f830187613335565b6155416020830186613335565b61554e604083018561343e565b818103606083015261556081846154e9565b905095945050505050565b5f81519050615579816131d8565b92915050565b5f60208284031215615594576155936130a4565b5b5f6155a18482850161556b565b91505092915050565b7f4552433732313a206d696e7420746f20746865207a65726f20616464726573735f82015250565b5f6155de602083613237565b91506155e9826155aa565b602082019050919050565b5f6020820190508181035f83015261560b816155d2565b9050919050565b7f4552433732313a20746f6b656e20616c7265616479206d696e746564000000005f82015250565b5f615646601c83613237565b915061565182615612565b602082019050919050565b5f6020820190508181035f8301526156738161563a565b905091905056fe412070617065722d74726164696e67206d696c6573746f6e6520636f6c6c65637469626c6520666f7220746865204d53582067756964656420696e76657374696e6720666c6f772e412077616c6c65742d636f6e6e656374696f6e20636f6c6c65637469626c6520666f7220746865204d5358206f6e626f617264696e6720666c6f772e412070726f647563742d7175697a20636f6c6c65637469626c6520666f7220746865204d53582067756964656420696e76657374696e6720666c6f772e4142434445464748494a4b4c4d4e4f505152535455565758595a6162636465666768696a6b6c6d6e6f707172737475767778797a303132333435363738392b2f41207269736b2d636172642072657669657720636f6c6c65637469626c6520666f7220746865204d53582067756964656420696e76657374696e6720666c6f772e41205365706f6c69612077656c636f6d6520636f6c6c65637469626c6520666f7220746865204d53582047756964656420496e76657374696e6720487562206f6e626f617264696e6720666c6f772ea2646970667358221220446888a15328f1b3f0f191b5232a9c838a2c2cb0e8ecb8f150556735653b675964736f6c63430008180033","opcodes":"PUSH1 0x80 PUSH1 0x40 MSTORE PUSH1 0x1 PUSH1 0x7 SSTORE CALLVALUE DUP1 ISZERO PUSH3 0x15 JUMPI PUSH0 DUP1 REVERT JUMPDEST POP PUSH1 0x40 MLOAD DUP1 PUSH1 0x40 ADD PUSH1 0x40 MSTORE DUP1 PUSH1 0xF DUP2 MSTORE PUSH1 0x20 ADD PUSH32 0x4D53582051756573742042616467650000000000000000000000000000000000 DUP2 MSTORE POP PUSH1 0x40 MLOAD DUP1 PUSH1 0x40 ADD PUSH1 0x40 MSTORE DUP1 PUSH1 0x5 DUP2 MSTORE PUSH1 0x20 ADD PUSH32 0x4D53585142000000000000000000000000000000000000000000000000000000 DUP2 MSTORE POP DUP2 PUSH0 SWAP1 DUP2 PUSH3 0x92 SWAP2 SWAP1 PUSH3 0x3FB JUMP JUMPDEST POP DUP1 PUSH1 0x1 SWAP1 DUP2 PUSH3 0xA4 SWAP2 SWAP1 PUSH3 0x3FB JUMP JUMPDEST POP POP POP PUSH3 0xC7 PUSH3 0xBB PUSH3 0xCD PUSH1 0x20 SHL PUSH1 0x20 SHR JUMP JUMPDEST PUSH3 0xD4 PUSH1 0x20 SHL PUSH1 0x20 SHR JUMP JUMPDEST PUSH3 0x4DF JUMP JUMPDEST PUSH0 CALLER SWAP1 POP SWAP1 JUMP JUMPDEST PUSH0 PUSH1 0x6 PUSH0 SWAP1 SLOAD SWAP1 PUSH2 0x100 EXP SWAP1 DIV PUSH20 0xFFFFFFFFFFFFFFFFFFFFFFFFFFFFFFFFFFFFFFFF AND SWAP1 POP DUP2 PUSH1 0x6 PUSH0 PUSH2 0x100 EXP DUP2 SLOAD DUP2 PUSH20 0xFFFFFFFFFFFFFFFFFFFFFFFFFFFFFFFFFFFFFFFF MUL NOT AND SWAP1 DUP4 PUSH20 0xFFFFFFFFFFFFFFFFFFFFFFFFFFFFFFFFFFFFFFFF AND MUL OR SWAP1 SSTORE POP DUP2 PUSH20 0xFFFFFFFFFFFFFFFFFFFFFFFFFFFFFFFFFFFFFFFF AND DUP2 PUSH20 0xFFFFFFFFFFFFFFFFFFFFFFFFFFFFFFFFFFFFFFFF AND PUSH32 0x8BE0079C531659141344CD1FD0A4F28419497F9722A3DAAFE3B4186F6B6457E0 PUSH1 0x40 MLOAD PUSH1 0x40 MLOAD DUP1 SWAP2 SUB SWAP1 LOG3 POP POP JUMP JUMPDEST PUSH0 DUP2 MLOAD SWAP1 POP SWAP2 SWAP1 POP JUMP JUMPDEST PUSH32 0x4E487B7100000000000000000000000000000000000000000000000000000000 PUSH0 MSTORE PUSH1 0x41 PUSH1 0x4 MSTORE PUSH1 0x24 PUSH0 REVERT JUMPDEST PUSH32 0x4E487B7100000000000000000000000000000000000000000000000000000000 PUSH0 MSTORE PUSH1 0x22 PUSH1 0x4 MSTORE PUSH1 0x24 PUSH0 REVERT JUMPDEST PUSH0 PUSH1 0x2 DUP3 DIV SWAP1 POP PUSH1 0x1 DUP3 AND DUP1 PUSH3 0x213 JUMPI PUSH1 0x7F DUP3 AND SWAP2 POP JUMPDEST PUSH1 0x20 DUP3 LT DUP2 SUB PUSH3 0x229 JUMPI PUSH3 0x228 PUSH3 0x1CE JUMP JUMPDEST JUMPDEST POP SWAP2 SWAP1 POP JUMP JUMPDEST PUSH0 DUP2 SWAP1 POP DUP2 PUSH0 MSTORE PUSH1 0x20 PUSH0 KECCAK256 SWAP1 POP SWAP2 SWAP1 POP JUMP JUMPDEST PUSH0 PUSH1 0x20 PUSH1 0x1F DUP4 ADD DIV SWAP1 POP SWAP2 SWAP1 POP JUMP JUMPDEST PUSH0 DUP3 DUP3 SHL SWAP1 POP SWAP3 SWAP2 POP POP JUMP JUMPDEST PUSH0 PUSH1 0x8 DUP4 MUL PUSH3 0x28D PUSH32 0xFFFFFFFFFFFFFFFFFFFFFFFFFFFFFFFFFFFFFFFFFFFFFFFFFFFFFFFFFFFFFFFF DUP3 PUSH3 0x250 JUMP JUMPDEST PUSH3 0x299 DUP7 DUP4 PUSH3 0x250 JUMP JUMPDEST SWAP6 POP DUP1 NOT DUP5 AND SWAP4 POP DUP1 DUP7 AND DUP5 OR SWAP3 POP POP POP SWAP4 SWAP3 POP POP POP JUMP JUMPDEST PUSH0 DUP2 SWAP1 POP SWAP2 SWAP1 POP JUMP JUMPDEST PUSH0 DUP2 SWAP1 POP SWAP2 SWAP1 POP JUMP JUMPDEST PUSH0 PUSH3 0x2E3 PUSH3 0x2DD PUSH3 0x2D7 DUP5 PUSH3 0x2B1 JUMP JUMPDEST PUSH3 0x2BA JUMP JUMPDEST PUSH3 0x2B1 JUMP JUMPDEST SWAP1 POP SWAP2 SWAP1 POP JUMP JUMPDEST PUSH0 DUP2 SWAP1 POP SWAP2 SWAP1 POP JUMP JUMPDEST PUSH3 0x2FE DUP4 PUSH3 0x2C3 JUMP JUMPDEST PUSH3 0x316 PUSH3 0x30D DUP3 PUSH3 0x2EA JUMP JUMPDEST DUP5 DUP5 SLOAD PUSH3 0x25C JUMP JUMPDEST DUP3 SSTORE POP POP POP POP JUMP JUMPDEST PUSH0 SWAP1 JUMP JUMPDEST PUSH3 0x32C PUSH3 0x31E JUMP JUMPDEST PUSH3 0x339 DUP2 DUP5 DUP5 PUSH3 0x2F3 JUMP JUMPDEST POP POP POP JUMP JUMPDEST JUMPDEST DUP2 DUP2 LT ISZERO PUSH3 0x360 JUMPI PUSH3 0x354 PUSH0 DUP3 PUSH3 0x322 JUMP JUMPDEST PUSH1 0x1 DUP2 ADD SWAP1 POP PUSH3 0x33F JUMP JUMPDEST POP POP JUMP JUMPDEST PUSH1 0x1F DUP3 GT ISZERO PUSH3 0x3AF JUMPI PUSH3 0x379 DUP2 PUSH3 0x22F JUMP JUMPDEST PUSH3 0x384 DUP5 PUSH3 0x241 JUMP JUMPDEST DUP2 ADD PUSH1 0x20 DUP6 LT ISZERO PUSH3 0x394 JUMPI DUP2 SWAP1 POP JUMPDEST PUSH3 0x3AC PUSH3 0x3A3 DUP6 PUSH3 0x241 JUMP JUMPDEST DUP4 ADD DUP3 PUSH3 0x33E JUMP JUMPDEST POP POP JUMPDEST POP POP POP JUMP JUMPDEST PUSH0 DUP3 DUP3 SHR SWAP1 POP SWAP3 SWAP2 POP POP JUMP JUMPDEST PUSH0 PUSH3 0x3D1 PUSH0 NOT DUP5 PUSH1 0x8 MUL PUSH3 0x3B4 JUMP JUMPDEST NOT DUP1 DUP4 AND SWAP2 POP POP SWAP3 SWAP2 POP POP JUMP JUMPDEST PUSH0 PUSH3 0x3EB DUP4 DUP4 PUSH3 0x3C0 JUMP JUMPDEST SWAP2 POP DUP3 PUSH1 0x2 MUL DUP3 OR SWAP1 POP SWAP3 SWAP2 POP POP JUMP JUMPDEST PUSH3 0x406 DUP3 PUSH3 0x197 JUMP JUMPDEST PUSH8 0xFFFFFFFFFFFFFFFF DUP2 GT ISZERO PUSH3 0x422 JUMPI PUSH3 0x421 PUSH3 0x1A1 JUMP JUMPDEST JUMPDEST PUSH3 0x42E DUP3 SLOAD PUSH3 0x1FB JUMP JUMPDEST PUSH3 0x43B DUP3 DUP3 DUP6 PUSH3 0x364 JUMP JUMPDEST PUSH0 PUSH1 0x20 SWAP1 POP PUSH1 0x1F DUP4 GT PUSH1 0x1 DUP2 EQ PUSH3 0x471 JUMPI PUSH0 DUP5 ISZERO PUSH3 0x45C JUMPI DUP3 DUP8 ADD MLOAD SWAP1 POP JUMPDEST PUSH3 0x468 DUP6 DUP3 PUSH3 0x3DE JUMP JUMPDEST DUP7 SSTORE POP PUSH3 0x4D7 JUMP JUMPDEST PUSH1 0x1F NOT DUP5 AND PUSH3 0x481 DUP7 PUSH3 0x22F JUMP JUMPDEST PUSH0 JUMPDEST DUP3 DUP2 LT ISZERO PUSH3 0x4AA JUMPI DUP5 DUP10 ADD MLOAD DUP3 SSTORE PUSH1 0x1 DUP3 ADD SWAP2 POP PUSH1 0x20 DUP6 ADD SWAP5 POP PUSH1 0x20 DUP2 ADD SWAP1 POP PUSH3 0x483 JUMP JUMPDEST DUP7 DUP4 LT ISZERO PUSH3 0x4CA JUMPI DUP5 DUP10 ADD MLOAD PUSH3 0x4C6 PUSH1 0x1F DUP10 AND DUP3 PUSH3 0x3C0 JUMP JUMPDEST DUP4 SSTORE POP JUMPDEST PUSH1 0x1 PUSH1 0x2 DUP9 MUL ADD DUP9 SSTORE POP POP POP JUMPDEST POP POP POP POP POP POP JUMP JUMPDEST PUSH2 0x5841 DUP1 PUSH3 0x4ED PUSH0 CODECOPY PUSH0 RETURN INVALID PUSH1 0x80 PUSH1 0x40 MSTORE CALLVALUE DUP1 ISZERO PUSH2 0xF JUMPI PUSH0 DUP1 REVERT JUMPDEST POP PUSH1 0x4 CALLDATASIZE LT PUSH2 0x1CD JUMPI PUSH0 CALLDATALOAD PUSH1 0xE0 SHR DUP1 PUSH4 0x6B3CE2F1 GT PUSH2 0x102 JUMPI DUP1 PUSH4 0x95D89B41 GT PUSH2 0xA0 JUMPI DUP1 PUSH4 0xBF68F848 GT PUSH2 0x6F JUMPI DUP1 PUSH4 0xBF68F848 EQ PUSH2 0x555 JUMPI DUP1 PUSH4 0xC87B56DD EQ PUSH2 0x573 JUMPI DUP1 PUSH4 0xE985E9C5 EQ PUSH2 0x5A3 JUMPI DUP1 PUSH4 0xF2FDE38B EQ PUSH2 0x5D3 JUMPI PUSH2 0x1CD JUMP JUMPDEST DUP1 PUSH4 0x95D89B41 EQ PUSH2 0x4E1 JUMPI DUP1 PUSH4 0x9EF94994 EQ PUSH2 0x4FF JUMPI DUP1 PUSH4 0xA22CB465 EQ PUSH2 0x51D JUMPI DUP1 PUSH4 0xB88D4FDE EQ PUSH2 0x539 JUMPI PUSH2 0x1CD JUMP JUMPDEST DUP1 PUSH4 0x7206ABBD GT PUSH2 0xDC JUMPI DUP1 PUSH4 0x7206ABBD EQ PUSH2 0x445 JUMPI DUP1 PUSH4 0x75794A3C EQ PUSH2 0x475 JUMPI DUP1 PUSH4 0x8530A3BF EQ PUSH2 0x493 JUMPI DUP1 PUSH4 0x8DA5CB5B EQ PUSH2 0x4C3 JUMPI PUSH2 0x1CD JUMP JUMPDEST DUP1 PUSH4 0x6B3CE2F1 EQ PUSH2 0x3DB JUMPI DUP1 PUSH4 0x70A08231 EQ PUSH2 0x40B JUMPI DUP1 PUSH4 0x715018A6 EQ PUSH2 0x43B JUMPI PUSH2 0x1CD JUMP JUMPDEST DUP1 PUSH4 0x23B872DD GT PUSH2 0x16F JUMPI DUP1 PUSH4 0x4304F9A6 GT PUSH2 0x149 JUMPI DUP1 PUSH4 0x4304F9A6 EQ PUSH2 0x33F JUMPI DUP1 PUSH4 0x52163337 EQ PUSH2 0x35D JUMPI DUP1 PUSH4 0x59E0C9BE EQ PUSH2 0x38D JUMPI DUP1 PUSH4 0x6352211E EQ PUSH2 0x3AB JUMPI PUSH2 0x1CD JUMP JUMPDEST DUP1 PUSH4 0x23B872DD EQ PUSH2 0x2D7 JUMPI DUP1 PUSH4 0x38E21CCE EQ PUSH2 0x2F3 JUMPI DUP1 PUSH4 0x42842E0E EQ PUSH2 0x323 JUMPI PUSH2 0x1CD JUMP JUMPDEST DUP1 PUSH4 0x81812FC GT PUSH2 0x1AB JUMPI DUP1 PUSH4 0x81812FC EQ PUSH2 0x24F JUMPI DUP1 PUSH4 0x95EA7B3 EQ PUSH2 0x27F JUMPI DUP1 PUSH4 0xCE1A02F EQ PUSH2 0x29B JUMPI DUP1 PUSH4 0x1CC6A906 EQ PUSH2 0x2B9 JUMPI PUSH2 0x1CD JUMP JUMPDEST DUP1 PUSH4 0x1B4597D EQ PUSH2 0x1D1 JUMPI DUP1 PUSH4 0x1FFC9A7 EQ PUSH2 0x201 JUMPI DUP1 PUSH4 0x6FDDE03 EQ PUSH2 0x231 JUMPI JUMPDEST PUSH0 DUP1 REVERT JUMPDEST PUSH2 0x1EB PUSH1 0x4 DUP1 CALLDATASIZE SUB DUP2 ADD SWAP1 PUSH2 0x1E6 SWAP2 SWAP1 PUSH2 0x313C JUMP JUMPDEST PUSH2 0x5EF JUMP JUMPDEST PUSH1 0x40 MLOAD PUSH2 0x1F8 SWAP2 SWAP1 PUSH2 0x3194 JUMP JUMPDEST PUSH1 0x40 MLOAD DUP1 SWAP2 SUB SWAP1 RETURN JUMPDEST PUSH2 0x21B PUSH1 0x4 DUP1 CALLDATASIZE SUB DUP2 ADD SWAP1 PUSH2 0x216 SWAP2 SWAP1 PUSH2 0x3202 JUMP JUMPDEST PUSH2 0x619 JUMP JUMPDEST PUSH1 0x40 MLOAD PUSH2 0x228 SWAP2 SWAP1 PUSH2 0x3194 JUMP JUMPDEST PUSH1 0x40 MLOAD DUP1 SWAP2 SUB SWAP1 RETURN JUMPDEST PUSH2 0x239 PUSH2 0x6FA JUMP JUMPDEST PUSH1 0x40 MLOAD PUSH2 0x246 SWAP2 SWAP1 PUSH2 0x32B7 JUMP JUMPDEST PUSH1 0x40 MLOAD DUP1 SWAP2 SUB SWAP1 RETURN JUMPDEST PUSH2 0x269 PUSH1 0x4 DUP1 CALLDATASIZE SUB DUP2 ADD SWAP1 PUSH2 0x264 SWAP2 SWAP1 PUSH2 0x330A JUMP JUMPDEST PUSH2 0x789 JUMP JUMPDEST PUSH1 0x40 MLOAD PUSH2 0x276 SWAP2 SWAP1 PUSH2 0x3344 JUMP JUMPDEST PUSH1 0x40 MLOAD DUP1 SWAP2 SUB SWAP1 RETURN JUMPDEST PUSH2 0x299 PUSH1 0x4 DUP1 CALLDATASIZE SUB DUP2 ADD SWAP1 PUSH2 0x294 SWAP2 SWAP1 PUSH2 0x335D JUMP JUMPDEST PUSH2 0x7CB JUMP JUMPDEST STOP JUMPDEST PUSH2 0x2A3 PUSH2 0x8E1 JUMP JUMPDEST PUSH1 0x40 MLOAD PUSH2 0x2B0 SWAP2 SWAP1 PUSH2 0x33AA JUMP JUMPDEST PUSH1 0x40 MLOAD DUP1 SWAP2 SUB SWAP1 RETURN JUMPDEST PUSH2 0x2C1 PUSH2 0x8E6 JUMP JUMPDEST PUSH1 0x40 MLOAD PUSH2 0x2CE SWAP2 SWAP1 PUSH2 0x33AA JUMP JUMPDEST PUSH1 0x40 MLOAD DUP1 SWAP2 SUB SWAP1 RETURN JUMPDEST PUSH2 0x2F1 PUSH1 0x4 DUP1 CALLDATASIZE SUB DUP2 ADD SWAP1 PUSH2 0x2EC SWAP2 SWAP1 PUSH2 0x33C3 JUMP JUMPDEST PUSH2 0x8EB JUMP JUMPDEST STOP JUMPDEST PUSH2 0x30D PUSH1 0x4 DUP1 CALLDATASIZE SUB DUP2 ADD SWAP1 PUSH2 0x308 SWAP2 SWAP1 PUSH2 0x3413 JUMP JUMPDEST PUSH2 0x94B JUMP JUMPDEST PUSH1 0x40 MLOAD PUSH2 0x31A SWAP2 SWAP1 PUSH2 0x3194 JUMP JUMPDEST PUSH1 0x40 MLOAD DUP1 SWAP2 SUB SWAP1 RETURN JUMPDEST PUSH2 0x33D PUSH1 0x4 DUP1 CALLDATASIZE SUB DUP2 ADD SWAP1 PUSH2 0x338 SWAP2 SWAP1 PUSH2 0x33C3 JUMP JUMPDEST PUSH2 0x9B2 JUMP JUMPDEST STOP JUMPDEST PUSH2 0x347 PUSH2 0x9D1 JUMP JUMPDEST PUSH1 0x40 MLOAD PUSH2 0x354 SWAP2 SWAP1 PUSH2 0x33AA JUMP JUMPDEST PUSH1 0x40 MLOAD DUP1 SWAP2 SUB SWAP1 RETURN JUMPDEST PUSH2 0x377 PUSH1 0x4 DUP1 CALLDATASIZE SUB DUP2 ADD SWAP1 PUSH2 0x372 SWAP2 SWAP1 PUSH2 0x3413 JUMP JUMPDEST PUSH2 0x9D6 JUMP JUMPDEST PUSH1 0x40 MLOAD PUSH2 0x384 SWAP2 SWAP1 PUSH2 0x344D JUMP JUMPDEST PUSH1 0x40 MLOAD DUP1 SWAP2 SUB SWAP1 RETURN JUMPDEST PUSH2 0x395 PUSH2 0x9E8 JUMP JUMPDEST PUSH1 0x40 MLOAD PUSH2 0x3A2 SWAP2 SWAP1 PUSH2 0x33AA JUMP JUMPDEST PUSH1 0x40 MLOAD DUP1 SWAP2 SUB SWAP1 RETURN JUMPDEST PUSH2 0x3C5 PUSH1 0x4 DUP1 CALLDATASIZE SUB DUP2 ADD SWAP1 PUSH2 0x3C0 SWAP2 SWAP1 PUSH2 0x330A JUMP JUMPDEST PUSH2 0x9ED JUMP JUMPDEST PUSH1 0x40 MLOAD PUSH2 0x3D2 SWAP2 SWAP1 PUSH2 0x3344 JUMP JUMPDEST PUSH1 0x40 MLOAD DUP1 SWAP2 SUB SWAP1 RETURN JUMPDEST PUSH2 0x3F5 PUSH1 0x4 DUP1 CALLDATASIZE SUB DUP2 ADD SWAP1 PUSH2 0x3F0 SWAP2 SWAP1 PUSH2 0x313C JUMP JUMPDEST PUSH2 0xA71 JUMP JUMPDEST PUSH1 0x40 MLOAD PUSH2 0x402 SWAP2 SWAP1 PUSH2 0x3194 JUMP JUMPDEST PUSH1 0x40 MLOAD DUP1 SWAP2 SUB SWAP1 RETURN JUMPDEST PUSH2 0x425 PUSH1 0x4 DUP1 CALLDATASIZE SUB DUP2 ADD SWAP1 PUSH2 0x420 SWAP2 SWAP1 PUSH2 0x3413 JUMP JUMPDEST PUSH2 0xB22 JUMP JUMPDEST PUSH1 0x40 MLOAD PUSH2 0x432 SWAP2 SWAP1 PUSH2 0x344D JUMP JUMPDEST PUSH1 0x40 MLOAD DUP1 SWAP2 SUB SWAP1 RETURN JUMPDEST PUSH2 0x443 PUSH2 0xBD6 JUMP JUMPDEST STOP JUMPDEST PUSH2 0x45F PUSH1 0x4 DUP1 CALLDATASIZE SUB DUP2 ADD SWAP1 PUSH2 0x45A SWAP2 SWAP1 PUSH2 0x3466 JUMP JUMPDEST PUSH2 0xBE9 JUMP JUMPDEST PUSH1 0x40 MLOAD PUSH2 0x46C SWAP2 SWAP1 PUSH2 0x344D JUMP JUMPDEST PUSH1 0x40 MLOAD DUP1 SWAP2 SUB SWAP1 RETURN JUMPDEST PUSH2 0x47D PUSH2 0xEB7 JUMP JUMPDEST PUSH1 0x40 MLOAD PUSH2 0x48A SWAP2 SWAP1 PUSH2 0x344D JUMP JUMPDEST PUSH1 0x40 MLOAD DUP1 SWAP2 SUB SWAP1 RETURN JUMPDEST PUSH2 0x4AD PUSH1 0x4 DUP1 CALLDATASIZE SUB DUP2 ADD SWAP1 PUSH2 0x4A8 SWAP2 SWAP1 PUSH2 0x330A JUMP JUMPDEST PUSH2 0xEBD JUMP JUMPDEST PUSH1 0x40 MLOAD PUSH2 0x4BA SWAP2 SWAP1 PUSH2 0x33AA JUMP JUMPDEST PUSH1 0x40 MLOAD DUP1 SWAP2 SUB SWAP1 RETURN JUMPDEST PUSH2 0x4CB PUSH2 0xEDA JUMP JUMPDEST PUSH1 0x40 MLOAD PUSH2 0x4D8 SWAP2 SWAP1 PUSH2 0x3344 JUMP JUMPDEST PUSH1 0x40 MLOAD DUP1 SWAP2 SUB SWAP1 RETURN JUMPDEST PUSH2 0x4E9 PUSH2 0xF02 JUMP JUMPDEST PUSH1 0x40 MLOAD PUSH2 0x4F6 SWAP2 SWAP1 PUSH2 0x32B7 JUMP JUMPDEST PUSH1 0x40 MLOAD DUP1 SWAP2 SUB SWAP1 RETURN JUMPDEST PUSH2 0x507 PUSH2 0xF92 JUMP JUMPDEST PUSH1 0x40 MLOAD PUSH2 0x514 SWAP2 SWAP1 PUSH2 0x33AA JUMP JUMPDEST PUSH1 0x40 MLOAD DUP1 SWAP2 SUB SWAP1 RETURN JUMPDEST PUSH2 0x537 PUSH1 0x4 DUP1 CALLDATASIZE SUB DUP2 ADD SWAP1 PUSH2 0x532 SWAP2 SWAP1 PUSH2 0x34CE JUMP JUMPDEST PUSH2 0xF97 JUMP JUMPDEST STOP JUMPDEST PUSH2 0x553 PUSH1 0x4 DUP1 CALLDATASIZE SUB DUP2 ADD SWAP1 PUSH2 0x54E SWAP2 SWAP1 PUSH2 0x3638 JUMP JUMPDEST PUSH2 0xFAD JUMP JUMPDEST STOP JUMPDEST PUSH2 0x55D PUSH2 0x100F JUMP JUMPDEST PUSH1 0x40 MLOAD PUSH2 0x56A SWAP2 SWAP1 PUSH2 0x33AA JUMP JUMPDEST PUSH1 0x40 MLOAD DUP1 SWAP2 SUB SWAP1 RETURN JUMPDEST PUSH2 0x58D PUSH1 0x4 DUP1 CALLDATASIZE SUB DUP2 ADD SWAP1 PUSH2 0x588 SWAP2 SWAP1 PUSH2 0x330A JUMP JUMPDEST PUSH2 0x1013 JUMP JUMPDEST PUSH1 0x40 MLOAD PUSH2 0x59A SWAP2 SWAP1 PUSH2 0x32B7 JUMP JUMPDEST PUSH1 0x40 MLOAD DUP1 SWAP2 SUB SWAP1 RETURN JUMPDEST PUSH2 0x5BD PUSH1 0x4 DUP1 CALLDATASIZE SUB DUP2 ADD SWAP1 PUSH2 0x5B8 SWAP2 SWAP1 PUSH2 0x36B8 JUMP JUMPDEST PUSH2 0x116B JUMP JUMPDEST PUSH1 0x40 MLOAD PUSH2 0x5CA SWAP2 SWAP1 PUSH2 0x3194 JUMP JUMPDEST PUSH1 0x40 MLOAD DUP1 SWAP2 SUB SWAP1 RETURN JUMPDEST PUSH2 0x5ED PUSH1 0x4 DUP1 CALLDATASIZE SUB DUP2 ADD SWAP1 PUSH2 0x5E8 SWAP2 SWAP1 PUSH2 0x3413 JUMP JUMPDEST PUSH2 0x11F9 JUMP JUMPDEST STOP JUMPDEST PUSH1 0x8 PUSH1 0x20 MSTORE DUP2 PUSH0 MSTORE PUSH1 0x40 PUSH0 KECCAK256 PUSH1 0x20 MSTORE DUP1 PUSH0 MSTORE PUSH1 0x40 PUSH0 KECCAK256 PUSH0 SWAP2 POP SWAP2 POP SWAP1 SLOAD SWAP1 PUSH2 0x100 EXP SWAP1 DIV PUSH1 0xFF AND DUP2 JUMP JUMPDEST PUSH0 PUSH32 0x80AC58CD00000000000000000000000000000000000000000000000000000000 PUSH28 0xFFFFFFFFFFFFFFFFFFFFFFFFFFFFFFFFFFFFFFFFFFFFFFFFFFFFFFFF NOT AND DUP3 PUSH28 0xFFFFFFFFFFFFFFFFFFFFFFFFFFFFFFFFFFFFFFFFFFFFFFFFFFFFFFFF NOT AND EQ DUP1 PUSH2 0x6E3 JUMPI POP PUSH32 0x5B5E139F00000000000000000000000000000000000000000000000000000000 PUSH28 0xFFFFFFFFFFFFFFFFFFFFFFFFFFFFFFFFFFFFFFFFFFFFFFFFFFFFFFFF NOT AND DUP3 PUSH28 0xFFFFFFFFFFFFFFFFFFFFFFFFFFFFFFFFFFFFFFFFFFFFFFFFFFFFFFFF NOT AND EQ JUMPDEST DUP1 PUSH2 0x6F3 JUMPI POP PUSH2 0x6F2 DUP3 PUSH2 0x127B JUMP JUMPDEST JUMPDEST SWAP1 POP SWAP2 SWAP1 POP JUMP JUMPDEST PUSH1 0x60 PUSH0 DUP1 SLOAD PUSH2 0x708 SWAP1 PUSH2 0x3723 JUMP JUMPDEST DUP1 PUSH1 0x1F ADD PUSH1 0x20 DUP1 SWAP2 DIV MUL PUSH1 0x20 ADD PUSH1 0x40 MLOAD SWAP1 DUP2 ADD PUSH1 0x40 MSTORE DUP1 SWAP3 SWAP2 SWAP1 DUP2 DUP2 MSTORE PUSH1 0x20 ADD DUP3 DUP1 SLOAD PUSH2 0x734 SWAP1 PUSH2 0x3723 JUMP JUMPDEST DUP1 ISZERO PUSH2 0x77F JUMPI DUP1 PUSH1 0x1F LT PUSH2 0x756 JUMPI PUSH2 0x100 DUP1 DUP4 SLOAD DIV MUL DUP4 MSTORE SWAP2 PUSH1 0x20 ADD SWAP2 PUSH2 0x77F JUMP JUMPDEST DUP3 ADD SWAP2 SWAP1 PUSH0 MSTORE PUSH1 0x20 PUSH0 KECCAK256 SWAP1 JUMPDEST DUP2 SLOAD DUP2 MSTORE SWAP1 PUSH1 0x1 ADD SWAP1 PUSH1 0x20 ADD DUP1 DUP4 GT PUSH2 0x762 JUMPI DUP3 SWAP1 SUB PUSH1 0x1F AND DUP3 ADD SWAP2 JUMPDEST POP POP POP POP POP SWAP1 POP SWAP1 JUMP JUMPDEST PUSH0 PUSH2 0x793 DUP3 PUSH2 0x12E4 JUMP JUMPDEST PUSH1 0x4 PUSH0 DUP4 DUP2 MSTORE PUSH1 0x20 ADD SWAP1 DUP2 MSTORE PUSH1 0x20 ADD PUSH0 KECCAK256 PUSH0 SWAP1 SLOAD SWAP1 PUSH2 0x100 EXP SWAP1 DIV PUSH20 0xFFFFFFFFFFFFFFFFFFFFFFFFFFFFFFFFFFFFFFFF AND SWAP1 POP SWAP2 SWAP1 POP JUMP JUMPDEST PUSH0 PUSH2 0x7D5 DUP3 PUSH2 0x9ED JUMP JUMPDEST SWAP1 POP DUP1 PUSH20 0xFFFFFFFFFFFFFFFFFFFFFFFFFFFFFFFFFFFFFFFF AND DUP4 PUSH20 0xFFFFFFFFFFFFFFFFFFFFFFFFFFFFFFFFFFFFFFFF AND SUB PUSH2 0x845 JUMPI PUSH1 0x40 MLOAD PUSH32 0x8C379A000000000000000000000000000000000000000000000000000000000 DUP2 MSTORE PUSH1 0x4 ADD PUSH2 0x83C SWAP1 PUSH2 0x37C3 JUMP JUMPDEST PUSH1 0x40 MLOAD DUP1 SWAP2 SUB SWAP1 REVERT JUMPDEST DUP1 PUSH20 0xFFFFFFFFFFFFFFFFFFFFFFFFFFFFFFFFFFFFFFFF AND PUSH2 0x864 PUSH2 0x132F JUMP JUMPDEST PUSH20 0xFFFFFFFFFFFFFFFFFFFFFFFFFFFFFFFFFFFFFFFF AND EQ DUP1 PUSH2 0x893 JUMPI POP PUSH2 0x892 DUP2 PUSH2 0x88D PUSH2 0x132F JUMP JUMPDEST PUSH2 0x116B JUMP JUMPDEST JUMPDEST PUSH2 0x8D2 JUMPI PUSH1 0x40 MLOAD PUSH32 0x8C379A000000000000000000000000000000000000000000000000000000000 DUP2 MSTORE PUSH1 0x4 ADD PUSH2 0x8C9 SWAP1 PUSH2 0x3851 JUMP JUMPDEST PUSH1 0x40 MLOAD DUP1 SWAP2 SUB SWAP1 REVERT JUMPDEST PUSH2 0x8DC DUP4 DUP4 PUSH2 0x1336 JUMP JUMPDEST POP POP POP JUMP JUMPDEST PUSH1 0x3 DUP2 JUMP JUMPDEST PUSH1 0x4 DUP2 JUMP JUMPDEST PUSH2 0x8FC PUSH2 0x8F6 PUSH2 0x132F JUMP JUMPDEST DUP3 PUSH2 0x13EC JUMP JUMPDEST PUSH2 0x93B JUMPI PUSH1 0x40 MLOAD PUSH32 0x8C379A000000000000000000000000000000000000000000000000000000000 DUP2 MSTORE PUSH1 0x4 ADD PUSH2 0x932 SWAP1 PUSH2 0x38DF JUMP JUMPDEST PUSH1 0x40 MLOAD DUP1 SWAP2 SUB SWAP1 REVERT JUMPDEST PUSH2 0x946 DUP4 DUP4 DUP4 PUSH2 0x1480 JUMP JUMPDEST POP POP POP JUMP JUMPDEST PUSH0 PUSH1 0x8 PUSH0 DUP4 PUSH20 0xFFFFFFFFFFFFFFFFFFFFFFFFFFFFFFFFFFFFFFFF AND PUSH20 0xFFFFFFFFFFFFFFFFFFFFFFFFFFFFFFFFFFFFFFFF AND DUP2 MSTORE PUSH1 0x20 ADD SWAP1 DUP2 MSTORE PUSH1 0x20 ADD PUSH0 KECCAK256 PUSH0 DUP1 PUSH1 0xFF AND PUSH1 0xFF AND DUP2 MSTORE PUSH1 0x20 ADD SWAP1 DUP2 MSTORE PUSH1 0x20 ADD PUSH0 KECCAK256 PUSH0 SWAP1 SLOAD SWAP1 PUSH2 0x100 EXP SWAP1 DIV PUSH1 0xFF AND SWAP1 POP SWAP2 SWAP1 POP JUMP JUMPDEST PUSH2 0x9CC DUP4 DUP4 DUP4 PUSH1 0x40 MLOAD DUP1 PUSH1 0x20 ADD PUSH1 0x40 MSTORE DUP1 PUSH0 DUP2 MSTORE POP PUSH2 0xFAD JUMP JUMPDEST POP POP POP JUMP JUMPDEST PUSH1 0x5 DUP2 JUMP JUMPDEST PUSH0 PUSH2 0x9E1 PUSH0 DUP4 PUSH2 0xBE9 JUMP JUMPDEST SWAP1 POP SWAP2 SWAP1 POP JUMP JUMPDEST PUSH1 0x2 DUP2 JUMP JUMPDEST PUSH0 DUP1 PUSH2 0x9F8 DUP4 PUSH2 0x176C JUMP JUMPDEST SWAP1 POP PUSH0 PUSH20 0xFFFFFFFFFFFFFFFFFFFFFFFFFFFFFFFFFFFFFFFF AND DUP2 PUSH20 0xFFFFFFFFFFFFFFFFFFFFFFFFFFFFFFFFFFFFFFFF AND SUB PUSH2 0xA68 JUMPI PUSH1 0x40 MLOAD PUSH32 0x8C379A000000000000000000000000000000000000000000000000000000000 DUP2 MSTORE PUSH1 0x4 ADD PUSH2 0xA5F SWAP1 PUSH2 0x3947 JUMP JUMPDEST PUSH1 0x40 MLOAD DUP1 SWAP2 SUB SWAP1 REVERT JUMPDEST DUP1 SWAP2 POP POP SWAP2 SWAP1 POP JUMP JUMPDEST PUSH0 PUSH1 0x5 PUSH1 0xFF AND DUP3 PUSH1 0xFF AND LT PUSH2 0xABB JUMPI PUSH1 0x40 MLOAD PUSH32 0x8C379A000000000000000000000000000000000000000000000000000000000 DUP2 MSTORE PUSH1 0x4 ADD PUSH2 0xAB2 SWAP1 PUSH2 0x39AF JUMP JUMPDEST PUSH1 0x40 MLOAD DUP1 SWAP2 SUB SWAP1 REVERT JUMPDEST PUSH1 0x8 PUSH0 DUP5 PUSH20 0xFFFFFFFFFFFFFFFFFFFFFFFFFFFFFFFFFFFFFFFF AND PUSH20 0xFFFFFFFFFFFFFFFFFFFFFFFFFFFFFFFFFFFFFFFF AND DUP2 MSTORE PUSH1 0x20 ADD SWAP1 DUP2 MSTORE PUSH1 0x20 ADD PUSH0 KECCAK256 PUSH0 DUP4 PUSH1 0xFF AND PUSH1 0xFF AND DUP2 MSTORE PUSH1 0x20 ADD SWAP1 DUP2 MSTORE PUSH1 0x20 ADD PUSH0 KECCAK256 PUSH0 SWAP1 SLOAD SWAP1 PUSH2 0x100 EXP SWAP1 DIV PUSH1 0xFF AND SWAP1 POP SWAP3 SWAP2 POP POP JUMP JUMPDEST PUSH0 DUP1 PUSH20 0xFFFFFFFFFFFFFFFFFFFFFFFFFFFFFFFFFFFFFFFF AND DUP3 PUSH20 0xFFFFFFFFFFFFFFFFFFFFFFFFFFFFFFFFFFFFFFFF AND SUB PUSH2 0xB91 JUMPI PUSH1 0x40 MLOAD PUSH32 0x8C379A000000000000000000000000000000000000000000000000000000000 DUP2 MSTORE PUSH1 0x4 ADD PUSH2 0xB88 SWAP1 PUSH2 0x3A3D JUMP JUMPDEST PUSH1 0x40 MLOAD DUP1 SWAP2 SUB SWAP1 REVERT JUMPDEST PUSH1 0x3 PUSH0 DUP4 PUSH20 0xFFFFFFFFFFFFFFFFFFFFFFFFFFFFFFFFFFFFFFFF AND PUSH20 0xFFFFFFFFFFFFFFFFFFFFFFFFFFFFFFFFFFFFFFFF AND DUP2 MSTORE PUSH1 0x20 ADD SWAP1 DUP2 MSTORE PUSH1 0x20 ADD PUSH0 KECCAK256 SLOAD SWAP1 POP SWAP2 SWAP1 POP JUMP JUMPDEST PUSH2 0xBDE PUSH2 0x17A5 JUMP JUMPDEST PUSH2 0xBE7 PUSH0 PUSH2 0x1823 JUMP JUMPDEST JUMP JUMPDEST PUSH0 PUSH1 0x5 PUSH1 0xFF AND DUP4 PUSH1 0xFF AND LT PUSH2 0xC33 JUMPI PUSH1 0x40 MLOAD PUSH32 0x8C379A000000000000000000000000000000000000000000000000000000000 DUP2 MSTORE PUSH1 0x4 ADD PUSH2 0xC2A SWAP1 PUSH2 0x39AF JUMP JUMPDEST PUSH1 0x40 MLOAD DUP1 SWAP2 SUB SWAP1 REVERT JUMPDEST PUSH0 PUSH20 0xFFFFFFFFFFFFFFFFFFFFFFFFFFFFFFFFFFFFFFFF AND DUP3 PUSH20 0xFFFFFFFFFFFFFFFFFFFFFFFFFFFFFFFFFFFFFFFF AND SUB PUSH2 0xCA1 JUMPI PUSH1 0x40 MLOAD PUSH32 0x8C379A000000000000000000000000000000000000000000000000000000000 DUP2 MSTORE PUSH1 0x4 ADD PUSH2 0xC98 SWAP1 PUSH2 0x3AA5 JUMP JUMPDEST PUSH1 0x40 MLOAD DUP1 SWAP2 SUB SWAP1 REVERT JUMPDEST DUP2 PUSH20 0xFFFFFFFFFFFFFFFFFFFFFFFFFFFFFFFFFFFFFFFF AND CALLER PUSH20 0xFFFFFFFFFFFFFFFFFFFFFFFFFFFFFFFFFFFFFFFF AND EQ PUSH2 0xD0F JUMPI PUSH1 0x40 MLOAD PUSH32 0x8C379A000000000000000000000000000000000000000000000000000000000 DUP2 MSTORE PUSH1 0x4 ADD PUSH2 0xD06 SWAP1 PUSH2 0x3B0D JUMP JUMPDEST PUSH1 0x40 MLOAD DUP1 SWAP2 SUB SWAP1 REVERT JUMPDEST PUSH1 0x8 PUSH0 DUP4 PUSH20 0xFFFFFFFFFFFFFFFFFFFFFFFFFFFFFFFFFFFFFFFF AND PUSH20 0xFFFFFFFFFFFFFFFFFFFFFFFFFFFFFFFFFFFFFFFF AND DUP2 MSTORE PUSH1 0x20 ADD SWAP1 DUP2 MSTORE PUSH1 0x20 ADD PUSH0 KECCAK256 PUSH0 DUP5 PUSH1 0xFF AND PUSH1 0xFF AND DUP2 MSTORE PUSH1 0x20 ADD SWAP1 DUP2 MSTORE PUSH1 0x20 ADD PUSH0 KECCAK256 PUSH0 SWAP1 SLOAD SWAP1 PUSH2 0x100 EXP SWAP1 DIV PUSH1 0xFF AND ISZERO PUSH2 0xDAE JUMPI PUSH1 0x40 MLOAD PUSH32 0x8C379A000000000000000000000000000000000000000000000000000000000 DUP2 MSTORE PUSH1 0x4 ADD PUSH2 0xDA5 SWAP1 PUSH2 0x3B75 JUMP JUMPDEST PUSH1 0x40 MLOAD DUP1 SWAP2 SUB SWAP1 REVERT JUMPDEST PUSH1 0x7 SLOAD SWAP1 POP PUSH1 0x1 PUSH1 0x7 PUSH0 DUP3 DUP3 SLOAD PUSH2 0xDC5 SWAP2 SWAP1 PUSH2 0x3BC0 JUMP JUMPDEST SWAP3 POP POP DUP2 SWAP1 SSTORE POP PUSH1 0x1 PUSH1 0x8 PUSH0 DUP5 PUSH20 0xFFFFFFFFFFFFFFFFFFFFFFFFFFFFFFFFFFFFFFFF AND PUSH20 0xFFFFFFFFFFFFFFFFFFFFFFFFFFFFFFFFFFFFFFFF AND DUP2 MSTORE PUSH1 0x20 ADD SWAP1 DUP2 MSTORE PUSH1 0x20 ADD PUSH0 KECCAK256 PUSH0 DUP6 PUSH1 0xFF AND PUSH1 0xFF AND DUP2 MSTORE PUSH1 0x20 ADD SWAP1 DUP2 MSTORE PUSH1 0x20 ADD PUSH0 KECCAK256 PUSH0 PUSH2 0x100 EXP DUP2 SLOAD DUP2 PUSH1 0xFF MUL NOT AND SWAP1 DUP4 ISZERO ISZERO MUL OR SWAP1 SSTORE POP DUP3 PUSH1 0x9 PUSH0 DUP4 DUP2 MSTORE PUSH1 0x20 ADD SWAP1 DUP2 MSTORE PUSH1 0x20 ADD PUSH0 KECCAK256 PUSH0 PUSH2 0x100 EXP DUP2 SLOAD DUP2 PUSH1 0xFF MUL NOT AND SWAP1 DUP4 PUSH1 0xFF AND MUL OR SWAP1 SSTORE POP PUSH2 0xE69 DUP3 DUP3 PUSH2 0x18E6 JUMP JUMPDEST DUP1 DUP4 PUSH1 0xFF AND DUP4 PUSH20 0xFFFFFFFFFFFFFFFFFFFFFFFFFFFFFFFFFFFFFFFF AND PUSH32 0x4C7380F1D23A71F74FA1303F23B7100826E4A89A4E47B2985E5C708E47A19B3A PUSH1 0x40 MLOAD PUSH1 0x40 MLOAD DUP1 SWAP2 SUB SWAP1 LOG4 SWAP3 SWAP2 POP POP JUMP JUMPDEST PUSH1 0x7 SLOAD DUP2 JUMP JUMPDEST PUSH1 0x9 PUSH1 0x20 MSTORE DUP1 PUSH0 MSTORE PUSH1 0x40 PUSH0 KECCAK256 PUSH0 SWAP2 POP SLOAD SWAP1 PUSH2 0x100 EXP SWAP1 DIV PUSH1 0xFF AND DUP2 JUMP JUMPDEST PUSH0 PUSH1 0x6 PUSH0 SWAP1 SLOAD SWAP1 PUSH2 0x100 EXP SWAP1 DIV PUSH20 0xFFFFFFFFFFFFFFFFFFFFFFFFFFFFFFFFFFFFFFFF AND SWAP1 POP SWAP1 JUMP JUMPDEST PUSH1 0x60 PUSH1 0x1 DUP1 SLOAD PUSH2 0xF11 SWAP1 PUSH2 0x3723 JUMP JUMPDEST DUP1 PUSH1 0x1F ADD PUSH1 0x20 DUP1 SWAP2 DIV MUL PUSH1 0x20 ADD PUSH1 0x40 MLOAD SWAP1 DUP2 ADD PUSH1 0x40 MSTORE DUP1 SWAP3 SWAP2 SWAP1 DUP2 DUP2 MSTORE PUSH1 0x20 ADD DUP3 DUP1 SLOAD PUSH2 0xF3D SWAP1 PUSH2 0x3723 JUMP JUMPDEST DUP1 ISZERO PUSH2 0xF88 JUMPI DUP1 PUSH1 0x1F LT PUSH2 0xF5F JUMPI PUSH2 0x100 DUP1 DUP4 SLOAD DIV MUL DUP4 MSTORE SWAP2 PUSH1 0x20 ADD SWAP2 PUSH2 0xF88 JUMP JUMPDEST DUP3 ADD SWAP2 SWAP1 PUSH0 MSTORE PUSH1 0x20 PUSH0 KECCAK256 SWAP1 JUMPDEST DUP2 SLOAD DUP2 MSTORE SWAP1 PUSH1 0x1 ADD SWAP1 PUSH1 0x20 ADD DUP1 DUP4 GT PUSH2 0xF6B JUMPI DUP3 SWAP1 SUB PUSH1 0x1F AND DUP3 ADD SWAP2 JUMPDEST POP POP POP POP POP SWAP1 POP SWAP1 JUMP JUMPDEST PUSH1 0x1 DUP2 JUMP JUMPDEST PUSH2 0xFA9 PUSH2 0xFA2 PUSH2 0x132F JUMP JUMPDEST DUP4 DUP4 PUSH2 0x1903 JUMP JUMPDEST POP POP JUMP JUMPDEST PUSH2 0xFBE PUSH2 0xFB8 PUSH2 0x132F JUMP JUMPDEST DUP4 PUSH2 0x13EC JUMP JUMPDEST PUSH2 0xFFD JUMPI PUSH1 0x40 MLOAD PUSH32 0x8C379A000000000000000000000000000000000000000000000000000000000 DUP2 MSTORE PUSH1 0x4 ADD PUSH2 0xFF4 SWAP1 PUSH2 0x38DF JUMP JUMPDEST PUSH1 0x40 MLOAD DUP1 SWAP2 SUB SWAP1 REVERT JUMPDEST PUSH2 0x1009 DUP5 DUP5 DUP5 DUP5 PUSH2 0x1A6A JUMP JUMPDEST POP POP POP POP JUMP JUMPDEST PUSH0 DUP2 JUMP JUMPDEST PUSH1 0x60 PUSH0 PUSH20 0xFFFFFFFFFFFFFFFFFFFFFFFFFFFFFFFFFFFFFFFF AND PUSH2 0x1035 DUP4 PUSH2 0x176C JUMP JUMPDEST PUSH20 0xFFFFFFFFFFFFFFFFFFFFFFFFFFFFFFFFFFFFFFFF AND SUB PUSH2 0x108B JUMPI PUSH1 0x40 MLOAD PUSH32 0x8C379A000000000000000000000000000000000000000000000000000000000 DUP2 MSTORE PUSH1 0x4 ADD PUSH2 0x1082 SWAP1 PUSH2 0x3947 JUMP JUMPDEST PUSH1 0x40 MLOAD DUP1 SWAP2 SUB SWAP1 REVERT JUMPDEST PUSH0 PUSH1 0x9 PUSH0 DUP5 DUP2 MSTORE PUSH1 0x20 ADD SWAP1 DUP2 MSTORE PUSH1 0x20 ADD PUSH0 KECCAK256 PUSH0 SWAP1 SLOAD SWAP1 PUSH2 0x100 EXP SWAP1 DIV PUSH1 0xFF AND SWAP1 POP PUSH0 PUSH2 0x10B6 DUP3 PUSH2 0x1AC6 JUMP JUMPDEST SWAP1 POP PUSH0 PUSH2 0x10C2 DUP4 PUSH2 0x1C31 JUMP JUMPDEST SWAP1 POP PUSH0 PUSH2 0x10CE DUP5 PUSH2 0x1D9C JUMP JUMPDEST SWAP1 POP PUSH0 PUSH2 0x10E2 PUSH2 0x10DD DUP7 PUSH2 0x1E76 JUMP JUMPDEST PUSH2 0x1F0B JUMP JUMPDEST PUSH1 0x40 MLOAD PUSH1 0x20 ADD PUSH2 0x10F2 SWAP2 SWAP1 PUSH2 0x3C77 JUMP JUMPDEST PUSH1 0x40 MLOAD PUSH1 0x20 DUP2 DUP4 SUB SUB DUP2 MSTORE SWAP1 PUSH1 0x40 MSTORE SWAP1 POP PUSH0 DUP4 DUP4 DUP4 DUP8 PUSH2 0x1111 DUP13 PUSH2 0x2078 JUMP JUMPDEST PUSH1 0x40 MLOAD PUSH1 0x20 ADD PUSH2 0x1125 SWAP6 SWAP5 SWAP4 SWAP3 SWAP2 SWAP1 PUSH2 0x3F38 JUMP JUMPDEST PUSH1 0x40 MLOAD PUSH1 0x20 DUP2 DUP4 SUB SUB DUP2 MSTORE SWAP1 PUSH1 0x40 MSTORE SWAP1 POP PUSH2 0x113F DUP2 PUSH2 0x1F0B JUMP JUMPDEST PUSH1 0x40 MLOAD PUSH1 0x20 ADD PUSH2 0x114F SWAP2 SWAP1 PUSH2 0x400E JUMP JUMPDEST PUSH1 0x40 MLOAD PUSH1 0x20 DUP2 DUP4 SUB SUB DUP2 MSTORE SWAP1 PUSH1 0x40 MSTORE SWAP7 POP POP POP POP POP POP POP SWAP2 SWAP1 POP JUMP JUMPDEST PUSH0 PUSH1 0x5 PUSH0 DUP5 PUSH20 0xFFFFFFFFFFFFFFFFFFFFFFFFFFFFFFFFFFFFFFFF AND PUSH20 0xFFFFFFFFFFFFFFFFFFFFFFFFFFFFFFFFFFFFFFFF AND DUP2 MSTORE PUSH1 0x20 ADD SWAP1 DUP2 MSTORE PUSH1 0x20 ADD PUSH0 KECCAK256 PUSH0 DUP4 PUSH20 0xFFFFFFFFFFFFFFFFFFFFFFFFFFFFFFFFFFFFFFFF AND PUSH20 0xFFFFFFFFFFFFFFFFFFFFFFFFFFFFFFFFFFFFFFFF AND DUP2 MSTORE PUSH1 0x20 ADD SWAP1 DUP2 MSTORE PUSH1 0x20 ADD PUSH0 KECCAK256 PUSH0 SWAP1 SLOAD SWAP1 PUSH2 0x100 EXP SWAP1 DIV PUSH1 0xFF AND SWAP1 POP SWAP3 SWAP2 POP POP JUMP JUMPDEST PUSH2 0x1201 PUSH2 0x17A5 JUMP JUMPDEST PUSH0 PUSH20 0xFFFFFFFFFFFFFFFFFFFFFFFFFFFFFFFFFFFFFFFF AND DUP2 PUSH20 0xFFFFFFFFFFFFFFFFFFFFFFFFFFFFFFFFFFFFFFFF AND SUB PUSH2 0x126F JUMPI PUSH1 0x40 MLOAD PUSH32 0x8C379A000000000000000000000000000000000000000000000000000000000 DUP2 MSTORE PUSH1 0x4 ADD PUSH2 0x1266 SWAP1 PUSH2 0x409F JUMP JUMPDEST PUSH1 0x40 MLOAD DUP1 SWAP2 SUB SWAP1 REVERT JUMPDEST PUSH2 0x1278 DUP2 PUSH2 0x1823 JUMP JUMPDEST POP JUMP JUMPDEST PUSH0 PUSH32 0x1FFC9A700000000000000000000000000000000000000000000000000000000 PUSH28 0xFFFFFFFFFFFFFFFFFFFFFFFFFFFFFFFFFFFFFFFFFFFFFFFFFFFFFFFF NOT AND DUP3 PUSH28 0xFFFFFFFFFFFFFFFFFFFFFFFFFFFFFFFFFFFFFFFFFFFFFFFFFFFFFFFF NOT AND EQ SWAP1 POP SWAP2 SWAP1 POP JUMP JUMPDEST PUSH2 0x12ED DUP2 PUSH2 0x2142 JUMP JUMPDEST PUSH2 0x132C JUMPI PUSH1 0x40 MLOAD PUSH32 0x8C379A000000000000000000000000000000000000000000000000000000000 DUP2 MSTORE PUSH1 0x4 ADD PUSH2 0x1323 SWAP1 PUSH2 0x3947 JUMP JUMPDEST PUSH1 0x40 MLOAD DUP1 SWAP2 SUB SWAP1 REVERT JUMPDEST POP JUMP JUMPDEST PUSH0 CALLER SWAP1 POP SWAP1 JUMP JUMPDEST DUP2 PUSH1 0x4 PUSH0 DUP4 DUP2 MSTORE PUSH1 0x20 ADD SWAP1 DUP2 MSTORE PUSH1 0x20 ADD PUSH0 KECCAK256 PUSH0 PUSH2 0x100 EXP DUP2 SLOAD DUP2 PUSH20 0xFFFFFFFFFFFFFFFFFFFFFFFFFFFFFFFFFFFFFFFF MUL NOT AND SWAP1 DUP4 PUSH20 0xFFFFFFFFFFFFFFFFFFFFFFFFFFFFFFFFFFFFFFFF AND MUL OR SWAP1 SSTORE POP DUP1 DUP3 PUSH20 0xFFFFFFFFFFFFFFFFFFFFFFFFFFFFFFFFFFFFFFFF AND PUSH2 0x13A6 DUP4 PUSH2 0x9ED JUMP JUMPDEST PUSH20 0xFFFFFFFFFFFFFFFFFFFFFFFFFFFFFFFFFFFFFFFF AND PUSH32 0x8C5BE1E5EBEC7D5BD14F71427D1E84F3DD0314C0F7B2291E5B200AC8C7C3B925 PUSH1 0x40 MLOAD PUSH1 0x40 MLOAD DUP1 SWAP2 SUB SWAP1 LOG4 POP POP JUMP JUMPDEST PUSH0 DUP1 PUSH2 0x13F7 DUP4 PUSH2 0x9ED JUMP JUMPDEST SWAP1 POP DUP1 PUSH20 0xFFFFFFFFFFFFFFFFFFFFFFFFFFFFFFFFFFFFFFFF AND DUP5 PUSH20 0xFFFFFFFFFFFFFFFFFFFFFFFFFFFFFFFFFFFFFFFF AND EQ DUP1 PUSH2 0x1439 JUMPI POP PUSH2 0x1438 DUP2 DUP6 PUSH2 0x116B JUMP JUMPDEST JUMPDEST DUP1 PUSH2 0x1477 JUMPI POP DUP4 PUSH20 0xFFFFFFFFFFFFFFFFFFFFFFFFFFFFFFFFFFFFFFFF AND PUSH2 0x145F DUP5 PUSH2 0x789 JUMP JUMPDEST PUSH20 0xFFFFFFFFFFFFFFFFFFFFFFFFFFFFFFFFFFFFFFFF AND EQ JUMPDEST SWAP2 POP POP SWAP3 SWAP2 POP POP JUMP JUMPDEST DUP3 PUSH20 0xFFFFFFFFFFFFFFFFFFFFFFFFFFFFFFFFFFFFFFFF AND PUSH2 0x14A0 DUP3 PUSH2 0x9ED JUMP JUMPDEST PUSH20 0xFFFFFFFFFFFFFFFFFFFFFFFFFFFFFFFFFFFFFFFF AND EQ PUSH2 0x14F6 JUMPI PUSH1 0x40 MLOAD PUSH32 0x8C379A000000000000000000000000000000000000000000000000000000000 DUP2 MSTORE PUSH1 0x4 ADD PUSH2 0x14ED SWAP1 PUSH2 0x412D JUMP JUMPDEST PUSH1 0x40 MLOAD DUP1 SWAP2 SUB SWAP1 REVERT JUMPDEST PUSH0 PUSH20 0xFFFFFFFFFFFFFFFFFFFFFFFFFFFFFFFFFFFFFFFF AND DUP3 PUSH20 0xFFFFFFFFFFFFFFFFFFFFFFFFFFFFFFFFFFFFFFFF AND SUB PUSH2 0x1564 JUMPI PUSH1 0x40 MLOAD PUSH32 0x8C379A000000000000000000000000000000000000000000000000000000000 DUP2 MSTORE PUSH1 0x4 ADD PUSH2 0x155B SWAP1 PUSH2 0x41BB JUMP JUMPDEST PUSH1 0x40 MLOAD DUP1 SWAP2 SUB SWAP1 REVERT JUMPDEST PUSH2 0x1571 DUP4 DUP4 DUP4 PUSH1 0x1 PUSH2 0x2182 JUMP JUMPDEST DUP3 PUSH20 0xFFFFFFFFFFFFFFFFFFFFFFFFFFFFFFFFFFFFFFFF AND PUSH2 0x1591 DUP3 PUSH2 0x9ED JUMP JUMPDEST PUSH20 0xFFFFFFFFFFFFFFFFFFFFFFFFFFFFFFFFFFFFFFFF AND EQ PUSH2 0x15E7 JUMPI PUSH1 0x40 MLOAD PUSH32 0x8C379A000000000000000000000000000000000000000000000000000000000 DUP2 MSTORE PUSH1 0x4 ADD PUSH2 0x15DE SWAP1 PUSH2 0x412D JUMP JUMPDEST PUSH1 0x40 MLOAD DUP1 SWAP2 SUB SWAP1 REVERT JUMPDEST PUSH1 0x4 PUSH0 DUP3 DUP2 MSTORE PUSH1 0x20 ADD SWAP1 DUP2 MSTORE PUSH1 0x20 ADD PUSH0 KECCAK256 PUSH0 PUSH2 0x100 EXP DUP2 SLOAD SWAP1 PUSH20 0xFFFFFFFFFFFFFFFFFFFFFFFFFFFFFFFFFFFFFFFF MUL NOT AND SWAP1 SSTORE PUSH1 0x1 PUSH1 0x3 PUSH0 DUP6 PUSH20 0xFFFFFFFFFFFFFFFFFFFFFFFFFFFFFFFFFFFFFFFF AND PUSH20 0xFFFFFFFFFFFFFFFFFFFFFFFFFFFFFFFFFFFFFFFF AND DUP2 MSTORE PUSH1 0x20 ADD SWAP1 DUP2 MSTORE PUSH1 0x20 ADD PUSH0 KECCAK256 PUSH0 DUP3 DUP3 SLOAD SUB SWAP3 POP POP DUP2 SWAP1 SSTORE POP PUSH1 0x1 PUSH1 0x3 PUSH0 DUP5 PUSH20 0xFFFFFFFFFFFFFFFFFFFFFFFFFFFFFFFFFFFFFFFF AND PUSH20 0xFFFFFFFFFFFFFFFFFFFFFFFFFFFFFFFFFFFFFFFF AND DUP2 MSTORE PUSH1 0x20 ADD SWAP1 DUP2 MSTORE PUSH1 0x20 ADD PUSH0 KECCAK256 PUSH0 DUP3 DUP3 SLOAD ADD SWAP3 POP POP DUP2 SWAP1 SSTORE POP DUP2 PUSH1 0x2 PUSH0 DUP4 DUP2 MSTORE PUSH1 0x20 ADD SWAP1 DUP2 MSTORE PUSH1 0x20 ADD PUSH0 KECCAK256 PUSH0 PUSH2 0x100 EXP DUP2 SLOAD DUP2 PUSH20 0xFFFFFFFFFFFFFFFFFFFFFFFFFFFFFFFFFFFFFFFF MUL NOT AND SWAP1 DUP4 PUSH20 0xFFFFFFFFFFFFFFFFFFFFFFFFFFFFFFFFFFFFFFFF AND MUL OR SWAP1 SSTORE POP DUP1 DUP3 PUSH20 0xFFFFFFFFFFFFFFFFFFFFFFFFFFFFFFFFFFFFFFFF AND DUP5 PUSH20 0xFFFFFFFFFFFFFFFFFFFFFFFFFFFFFFFFFFFFFFFF AND PUSH32 0xDDF252AD1BE2C89B69C2B068FC378DAA952BA7F163C4A11628F55A4DF523B3EF PUSH1 0x40 MLOAD PUSH1 0x40 MLOAD DUP1 SWAP2 SUB SWAP1 LOG4 PUSH2 0x1767 DUP4 DUP4 DUP4 PUSH1 0x1 PUSH2 0x2188 JUMP JUMPDEST POP POP POP JUMP JUMPDEST PUSH0 PUSH1 0x2 PUSH0 DUP4 DUP2 MSTORE PUSH1 0x20 ADD SWAP1 DUP2 MSTORE PUSH1 0x20 ADD PUSH0 KECCAK256 PUSH0 SWAP1 SLOAD SWAP1 PUSH2 0x100 EXP SWAP1 DIV PUSH20 0xFFFFFFFFFFFFFFFFFFFFFFFFFFFFFFFFFFFFFFFF AND SWAP1 POP SWAP2 SWAP1 POP JUMP JUMPDEST PUSH2 0x17AD PUSH2 0x132F JUMP JUMPDEST PUSH20 0xFFFFFFFFFFFFFFFFFFFFFFFFFFFFFFFFFFFFFFFF AND PUSH2 0x17CB PUSH2 0xEDA JUMP JUMPDEST PUSH20 0xFFFFFFFFFFFFFFFFFFFFFFFFFFFFFFFFFFFFFFFF AND EQ PUSH2 0x1821 JUMPI PUSH1 0x40 MLOAD PUSH32 0x8C379A000000000000000000000000000000000000000000000000000000000 DUP2 MSTORE PUSH1 0x4 ADD PUSH2 0x1818 SWAP1 PUSH2 0x4223 JUMP JUMPDEST PUSH1 0x40 MLOAD DUP1 SWAP2 SUB SWAP1 REVERT JUMPDEST JUMP JUMPDEST PUSH0 PUSH1 0x6 PUSH0 SWAP1 SLOAD SWAP1 PUSH2 0x100 EXP SWAP1 DIV PUSH20 0xFFFFFFFFFFFFFFFFFFFFFFFFFFFFFFFFFFFFFFFF AND SWAP1 POP DUP2 PUSH1 0x6 PUSH0 PUSH2 0x100 EXP DUP2 SLOAD DUP2 PUSH20 0xFFFFFFFFFFFFFFFFFFFFFFFFFFFFFFFFFFFFFFFF MUL NOT AND SWAP1 DUP4 PUSH20 0xFFFFFFFFFFFFFFFFFFFFFFFFFFFFFFFFFFFFFFFF AND MUL OR SWAP1 SSTORE POP DUP2 PUSH20 0xFFFFFFFFFFFFFFFFFFFFFFFFFFFFFFFFFFFFFFFF AND DUP2 PUSH20 0xFFFFFFFFFFFFFFFFFFFFFFFFFFFFFFFFFFFFFFFF AND PUSH32 0x8BE0079C531659141344CD1FD0A4F28419497F9722A3DAAFE3B4186F6B6457E0 PUSH1 0x40 MLOAD PUSH1 0x40 MLOAD DUP1 SWAP2 SUB SWAP1 LOG3 POP POP JUMP JUMPDEST PUSH2 0x18FF DUP3 DUP3 PUSH1 0x40 MLOAD DUP1 PUSH1 0x20 ADD PUSH1 0x40 MSTORE DUP1 PUSH0 DUP2 MSTORE POP PUSH2 0x218E JUMP JUMPDEST POP POP JUMP JUMPDEST DUP2 PUSH20 0xFFFFFFFFFFFFFFFFFFFFFFFFFFFFFFFFFFFFFFFF AND DUP4 PUSH20 0xFFFFFFFFFFFFFFFFFFFFFFFFFFFFFFFFFFFFFFFF AND SUB PUSH2 0x1971 JUMPI PUSH1 0x40 MLOAD PUSH32 0x8C379A000000000000000000000000000000000000000000000000000000000 DUP2 MSTORE PUSH1 0x4 ADD PUSH2 0x1968 SWAP1 PUSH2 0x428B JUMP JUMPDEST PUSH1 0x40 MLOAD DUP1 SWAP2 SUB SWAP1 REVERT JUMPDEST DUP1 PUSH1 0x5 PUSH0 DUP6 PUSH20 0xFFFFFFFFFFFFFFFFFFFFFFFFFFFFFFFFFFFFFFFF AND PUSH20 0xFFFFFFFFFFFFFFFFFFFFFFFFFFFFFFFFFFFFFFFF AND DUP2 MSTORE PUSH1 0x20 ADD SWAP1 DUP2 MSTORE PUSH1 0x20 ADD PUSH0 KECCAK256 PUSH0 DUP5 PUSH20 0xFFFFFFFFFFFFFFFFFFFFFFFFFFFFFFFFFFFFFFFF AND PUSH20 0xFFFFFFFFFFFFFFFFFFFFFFFFFFFFFFFFFFFFFFFF AND DUP2 MSTORE PUSH1 0x20 ADD SWAP1 DUP2 MSTORE PUSH1 0x20 ADD PUSH0 KECCAK256 PUSH0 PUSH2 0x100 EXP DUP2 SLOAD DUP2 PUSH1 0xFF MUL NOT AND SWAP1 DUP4 ISZERO ISZERO MUL OR SWAP1 SSTORE POP DUP2 PUSH20 0xFFFFFFFFFFFFFFFFFFFFFFFFFFFFFFFFFFFFFFFF AND DUP4 PUSH20 0xFFFFFFFFFFFFFFFFFFFFFFFFFFFFFFFFFFFFFFFF AND PUSH32 0x17307EAB39AB6107E8899845AD3D59BD9653F200F220920489CA2B5937696C31 DUP4 PUSH1 0x40 MLOAD PUSH2 0x1A5D SWAP2 SWAP1 PUSH2 0x3194 JUMP JUMPDEST PUSH1 0x40 MLOAD DUP1 SWAP2 SUB SWAP1 LOG3 POP POP POP JUMP JUMPDEST PUSH2 0x1A75 DUP5 DUP5 DUP5 PUSH2 0x1480 JUMP JUMPDEST PUSH2 0x1A81 DUP5 DUP5 DUP5 DUP5 PUSH2 0x21E8 JUMP JUMPDEST PUSH2 0x1AC0 JUMPI PUSH1 0x40 MLOAD PUSH32 0x8C379A000000000000000000000000000000000000000000000000000000000 DUP2 MSTORE PUSH1 0x4 ADD PUSH2 0x1AB7 SWAP1 PUSH2 0x4319 JUMP JUMPDEST PUSH1 0x40 MLOAD DUP1 SWAP2 SUB SWAP1 REVERT JUMPDEST POP POP POP POP JUMP JUMPDEST PUSH1 0x60 PUSH0 PUSH1 0xFF AND DUP3 PUSH1 0xFF AND SUB PUSH2 0x1B12 JUMPI PUSH1 0x40 MLOAD DUP1 PUSH1 0x40 ADD PUSH1 0x40 MSTORE DUP1 PUSH1 0x7 DUP2 MSTORE PUSH1 0x20 ADD PUSH32 0x77656C636F6D6500000000000000000000000000000000000000000000000000 DUP2 MSTORE POP SWAP1 POP PUSH2 0x1C2C JUMP JUMPDEST PUSH1 0x1 PUSH1 0xFF AND DUP3 PUSH1 0xFF AND SUB PUSH2 0x1B5D JUMPI PUSH1 0x40 MLOAD DUP1 PUSH1 0x40 ADD PUSH1 0x40 MSTORE DUP1 PUSH1 0x6 DUP2 MSTORE PUSH1 0x20 ADD PUSH32 0x77616C6C65740000000000000000000000000000000000000000000000000000 DUP2 MSTORE POP SWAP1 POP PUSH2 0x1C2C JUMP JUMPDEST PUSH1 0x2 PUSH1 0xFF AND DUP3 PUSH1 0xFF AND SUB PUSH2 0x1BA8 JUMPI PUSH1 0x40 MLOAD DUP1 PUSH1 0x40 ADD PUSH1 0x40 MSTORE DUP1 PUSH1 0x4 DUP2 MSTORE PUSH1 0x20 ADD PUSH32 0x7269736B00000000000000000000000000000000000000000000000000000000 DUP2 MSTORE POP SWAP1 POP PUSH2 0x1C2C JUMP JUMPDEST PUSH1 0x3 PUSH1 0xFF AND DUP3 PUSH1 0xFF AND SUB PUSH2 0x1BF3 JUMPI PUSH1 0x40 MLOAD DUP1 PUSH1 0x40 ADD PUSH1 0x40 MSTORE DUP1 PUSH1 0x4 DUP2 MSTORE PUSH1 0x20 ADD PUSH32 0x7175697A00000000000000000000000000000000000000000000000000000000 DUP2 MSTORE POP SWAP1 POP PUSH2 0x1C2C JUMP JUMPDEST PUSH1 0x40 MLOAD DUP1 PUSH1 0x40 ADD PUSH1 0x40 MSTORE DUP1 PUSH1 0x5 DUP2 MSTORE PUSH1 0x20 ADD PUSH32 0x7061706572000000000000000000000000000000000000000000000000000000 DUP2 MSTORE POP SWAP1 POP JUMPDEST SWAP2 SWAP1 POP JUMP JUMPDEST PUSH1 0x60 PUSH0 PUSH1 0xFF AND DUP3 PUSH1 0xFF AND SUB PUSH2 0x1C7D JUMPI PUSH1 0x40 MLOAD DUP1 PUSH1 0x40 ADD PUSH1 0x40 MSTORE DUP1 PUSH1 0x11 DUP2 MSTORE PUSH1 0x20 ADD PUSH32 0x4D53582057656C636F6D65204261646765000000000000000000000000000000 DUP2 MSTORE POP SWAP1 POP PUSH2 0x1D97 JUMP JUMPDEST PUSH1 0x1 PUSH1 0xFF AND DUP3 PUSH1 0xFF AND SUB PUSH2 0x1CC8 JUMPI PUSH1 0x40 MLOAD DUP1 PUSH1 0x40 ADD PUSH1 0x40 MSTORE DUP1 PUSH1 0x15 DUP2 MSTORE PUSH1 0x20 ADD PUSH32 0x4D53582057616C6C6574205461736B2042616467650000000000000000000000 DUP2 MSTORE POP SWAP1 POP PUSH2 0x1D97 JUMP JUMPDEST PUSH1 0x2 PUSH1 0xFF AND DUP3 PUSH1 0xFF AND SUB PUSH2 0x1D13 JUMPI PUSH1 0x40 MLOAD DUP1 PUSH1 0x40 ADD PUSH1 0x40 MSTORE DUP1 PUSH1 0x15 DUP2 MSTORE PUSH1 0x20 ADD PUSH32 0x4D5358205269736B205265766965772042616467650000000000000000000000 DUP2 MSTORE POP SWAP1 POP PUSH2 0x1D97 JUMP JUMPDEST PUSH1 0x3 PUSH1 0xFF AND DUP3 PUSH1 0xFF AND SUB PUSH2 0x1D5E JUMPI PUSH1 0x40 MLOAD DUP1 PUSH1 0x40 ADD PUSH1 0x40 MSTORE DUP1 PUSH1 0x16 DUP2 MSTORE PUSH1 0x20 ADD PUSH32 0x4D53582050726F64756374205175697A20426164676500000000000000000000 DUP2 MSTORE POP SWAP1 POP PUSH2 0x1D97 JUMP JUMPDEST PUSH1 0x40 MLOAD DUP1 PUSH1 0x40 ADD PUSH1 0x40 MSTORE DUP1 PUSH1 0x17 DUP2 MSTORE PUSH1 0x20 ADD PUSH32 0x4D53582050617065722054726164696E67204261646765000000000000000000 DUP2 MSTORE POP SWAP1 POP JUMPDEST SWAP2 SWAP1 POP JUMP JUMPDEST PUSH1 0x60 PUSH0 PUSH1 0xFF AND DUP3 PUSH1 0xFF AND SUB PUSH2 0x1DCB JUMPI PUSH1 0x40 MLOAD DUP1 PUSH1 0x80 ADD PUSH1 0x40 MSTORE DUP1 PUSH1 0x4F DUP2 MSTORE PUSH1 0x20 ADD PUSH2 0x57BD PUSH1 0x4F SWAP2 CODECOPY SWAP1 POP PUSH2 0x1E71 JUMP JUMPDEST PUSH1 0x1 PUSH1 0xFF AND DUP3 PUSH1 0xFF AND SUB PUSH2 0x1DF9 JUMPI PUSH1 0x40 MLOAD DUP1 PUSH1 0x60 ADD PUSH1 0x40 MSTORE DUP1 PUSH1 0x3C DUP2 MSTORE PUSH1 0x20 ADD PUSH2 0x56C3 PUSH1 0x3C SWAP2 CODECOPY SWAP1 POP PUSH2 0x1E71 JUMP JUMPDEST PUSH1 0x2 PUSH1 0xFF AND DUP3 PUSH1 0xFF AND SUB PUSH2 0x1E27 JUMPI PUSH1 0x40 MLOAD DUP1 PUSH1 0x80 ADD PUSH1 0x40 MSTORE DUP1 PUSH1 0x41 DUP2 MSTORE PUSH1 0x20 ADD PUSH2 0x577C PUSH1 0x41 SWAP2 CODECOPY SWAP1 POP PUSH2 0x1E71 JUMP JUMPDEST PUSH1 0x3 PUSH1 0xFF AND DUP3 PUSH1 0xFF AND SUB PUSH2 0x1E55 JUMPI PUSH1 0x40 MLOAD DUP1 PUSH1 0x60 ADD PUSH1 0x40 MSTORE DUP1 PUSH1 0x3D DUP2 MSTORE PUSH1 0x20 ADD PUSH2 0x56FF PUSH1 0x3D SWAP2 CODECOPY SWAP1 POP PUSH2 0x1E71 JUMP JUMPDEST PUSH1 0x40 MLOAD DUP1 PUSH1 0x80 ADD PUSH1 0x40 MSTORE DUP1 PUSH1 0x48 DUP2 MSTORE PUSH1 0x20 ADD PUSH2 0x567B PUSH1 0x48 SWAP2 CODECOPY SWAP1 POP JUMPDEST SWAP2 SWAP1 POP JUMP JUMPDEST PUSH1 0x60 PUSH2 0x1E81 DUP3 PUSH2 0x236A JUMP JUMPDEST PUSH2 0x1E8A DUP4 PUSH2 0x236A JUMP JUMPDEST PUSH2 0x1E93 DUP5 PUSH2 0x248B JUMP JUMPDEST PUSH2 0x1E9C DUP6 PUSH2 0x2561 JUMP JUMPDEST PUSH2 0x1EA5 DUP7 PUSH2 0x248B JUMP JUMPDEST PUSH2 0x1EAE DUP8 PUSH2 0x248B JUMP JUMPDEST PUSH2 0x1EB7 DUP9 PUSH2 0x25FE JUMP JUMPDEST PUSH2 0x1EC0 DUP10 PUSH2 0x2769 JUMP JUMPDEST PUSH2 0x1EC9 DUP11 PUSH2 0x28D4 JUMP JUMPDEST PUSH2 0x1ED2 DUP12 PUSH2 0x2A3F JUMP JUMPDEST PUSH2 0x1EDB DUP13 PUSH2 0x2BAA JUMP JUMPDEST PUSH1 0x40 MLOAD PUSH1 0x20 ADD PUSH2 0x1EF5 SWAP12 SWAP11 SWAP10 SWAP9 SWAP8 SWAP7 SWAP6 SWAP5 SWAP4 SWAP3 SWAP2 SWAP1 PUSH2 0x5286 JUMP JUMPDEST PUSH1 0x40 MLOAD PUSH1 0x20 DUP2 DUP4 SUB SUB DUP2 MSTORE SWAP1 PUSH1 0x40 MSTORE SWAP1 POP SWAP2 SWAP1 POP JUMP JUMPDEST PUSH1 0x60 PUSH0 DUP3 MLOAD SUB PUSH2 0x1F2B JUMPI PUSH1 0x40 MLOAD DUP1 PUSH1 0x20 ADD PUSH1 0x40 MSTORE DUP1 PUSH0 DUP2 MSTORE POP SWAP1 POP PUSH2 0x2073 JUMP JUMPDEST PUSH0 PUSH1 0x40 MLOAD DUP1 PUSH1 0x60 ADD PUSH1 0x40 MSTORE DUP1 PUSH1 0x40 DUP2 MSTORE PUSH1 0x20 ADD PUSH2 0x573C PUSH1 0x40 SWAP2 CODECOPY SWAP1 POP PUSH0 PUSH1 0x3 PUSH1 0x2 DUP6 MLOAD PUSH2 0x1F58 SWAP2 SWAP1 PUSH2 0x3BC0 JUMP JUMPDEST PUSH2 0x1F62 SWAP2 SWAP1 PUSH2 0x545E JUMP JUMPDEST PUSH1 0x4 PUSH2 0x1F6E SWAP2 SWAP1 PUSH2 0x548E JUMP JUMPDEST PUSH8 0xFFFFFFFFFFFFFFFF DUP2 GT ISZERO PUSH2 0x1F87 JUMPI PUSH2 0x1F86 PUSH2 0x3514 JUMP JUMPDEST JUMPDEST PUSH1 0x40 MLOAD SWAP1 DUP1 DUP3 MSTORE DUP1 PUSH1 0x1F ADD PUSH1 0x1F NOT AND PUSH1 0x20 ADD DUP3 ADD PUSH1 0x40 MSTORE DUP1 ISZERO PUSH2 0x1FB9 JUMPI DUP2 PUSH1 0x20 ADD PUSH1 0x1 DUP3 MUL DUP1 CALLDATASIZE DUP4 CALLDATACOPY DUP1 DUP3 ADD SWAP2 POP POP SWAP1 POP JUMPDEST POP SWAP1 POP PUSH1 0x1 DUP3 ADD PUSH1 0x20 DUP3 ADD DUP6 DUP7 MLOAD DUP8 ADD PUSH1 0x20 DUP2 ADD DUP1 MLOAD PUSH0 DUP3 MSTORE JUMPDEST DUP3 DUP5 LT ISZERO PUSH2 0x202E JUMPI PUSH1 0x3 DUP5 ADD SWAP4 POP DUP4 MLOAD PUSH1 0x3F DUP2 PUSH1 0x12 SHR AND DUP8 ADD MLOAD DUP7 MSTORE8 PUSH1 0x1 DUP7 ADD SWAP6 POP PUSH1 0x3F DUP2 PUSH1 0xC SHR AND DUP8 ADD MLOAD DUP7 MSTORE8 PUSH1 0x1 DUP7 ADD SWAP6 POP PUSH1 0x3F DUP2 PUSH1 0x6 SHR AND DUP8 ADD MLOAD DUP7 MSTORE8 PUSH1 0x1 DUP7 ADD SWAP6 POP PUSH1 0x3F DUP2 AND DUP8 ADD MLOAD DUP7 MSTORE8 PUSH1 0x1 DUP7 ADD SWAP6 POP POP PUSH2 0x1FD3 JUMP JUMPDEST DUP1 DUP3 MSTORE PUSH1 0x3 DUP11 MLOAD MOD PUSH1 0x1 DUP2 EQ PUSH2 0x204B JUMPI PUSH1 0x2 DUP2 EQ PUSH2 0x205E JUMPI PUSH2 0x2066 JUMP JUMPDEST PUSH1 0x3D PUSH1 0x1 DUP8 SUB MSTORE8 PUSH1 0x3D PUSH1 0x2 DUP8 SUB MSTORE8 PUSH2 0x2066 JUMP JUMPDEST PUSH1 0x3D PUSH1 0x1 DUP8 SUB MSTORE8 JUMPDEST POP POP POP POP POP POP POP DUP1 SWAP3 POP POP POP JUMPDEST SWAP2 SWAP1 POP JUMP JUMPDEST PUSH1 0x60 PUSH0 PUSH1 0x1 PUSH2 0x2086 DUP5 PUSH2 0x2D15 JUMP JUMPDEST ADD SWAP1 POP PUSH0 DUP2 PUSH8 0xFFFFFFFFFFFFFFFF DUP2 GT ISZERO PUSH2 0x20A4 JUMPI PUSH2 0x20A3 PUSH2 0x3514 JUMP JUMPDEST JUMPDEST PUSH1 0x40 MLOAD SWAP1 DUP1 DUP3 MSTORE DUP1 PUSH1 0x1F ADD PUSH1 0x1F NOT AND PUSH1 0x20 ADD DUP3 ADD PUSH1 0x40 MSTORE DUP1 ISZERO PUSH2 0x20D6 JUMPI DUP2 PUSH1 0x20 ADD PUSH1 0x1 DUP3 MUL DUP1 CALLDATASIZE DUP4 CALLDATACOPY DUP1 DUP3 ADD SWAP2 POP POP SWAP1 POP JUMPDEST POP SWAP1 POP PUSH0 DUP3 PUSH1 0x20 ADD DUP3 ADD SWAP1 POP JUMPDEST PUSH1 0x1 ISZERO PUSH2 0x2137 JUMPI DUP1 DUP1 PUSH1 0x1 SWAP1 SUB SWAP2 POP POP PUSH32 0x3031323334353637383961626364656600000000000000000000000000000000 PUSH1 0xA DUP7 MOD BYTE DUP2 MSTORE8 PUSH1 0xA DUP6 DUP2 PUSH2 0x212C JUMPI PUSH2 0x212B PUSH2 0x5431 JUMP JUMPDEST JUMPDEST DIV SWAP5 POP PUSH0 DUP6 SUB PUSH2 0x20E3 JUMPI JUMPDEST DUP2 SWAP4 POP POP POP POP SWAP2 SWAP1 POP JUMP JUMPDEST PUSH0 DUP1 PUSH20 0xFFFFFFFFFFFFFFFFFFFFFFFFFFFFFFFFFFFFFFFF AND PUSH2 0x2163 DUP4 PUSH2 0x176C JUMP JUMPDEST PUSH20 0xFFFFFFFFFFFFFFFFFFFFFFFFFFFFFFFFFFFFFFFF AND EQ ISZERO SWAP1 POP SWAP2 SWAP1 POP JUMP JUMPDEST POP POP POP POP JUMP JUMPDEST POP POP POP POP JUMP JUMPDEST PUSH2 0x2198 DUP4 DUP4 PUSH2 0x2E66 JUMP JUMPDEST PUSH2 0x21A4 PUSH0 DUP5 DUP5 DUP5 PUSH2 0x21E8 JUMP JUMPDEST PUSH2 0x21E3 JUMPI PUSH1 0x40 MLOAD PUSH32 0x8C379A000000000000000000000000000000000000000000000000000000000 DUP2 MSTORE PUSH1 0x4 ADD PUSH2 0x21DA SWAP1 PUSH2 0x4319 JUMP JUMPDEST PUSH1 0x40 MLOAD DUP1 SWAP2 SUB SWAP1 REVERT JUMPDEST POP POP POP JUMP JUMPDEST PUSH0 PUSH2 0x2208 DUP5 PUSH20 0xFFFFFFFFFFFFFFFFFFFFFFFFFFFFFFFFFFFFFFFF AND PUSH2 0x3079 JUMP JUMPDEST ISZERO PUSH2 0x235D JUMPI DUP4 PUSH20 0xFFFFFFFFFFFFFFFFFFFFFFFFFFFFFFFFFFFFFFFF AND PUSH4 0x150B7A02 PUSH2 0x2231 PUSH2 0x132F JUMP JUMPDEST DUP8 DUP7 DUP7 PUSH1 0x40 MLOAD DUP6 PUSH4 0xFFFFFFFF AND PUSH1 0xE0 SHL DUP2 MSTORE PUSH1 0x4 ADD PUSH2 0x2253 SWAP5 SWAP4 SWAP3 SWAP2 SWAP1 PUSH2 0x5521 JUMP JUMPDEST PUSH1 0x20 PUSH1 0x40 MLOAD DUP1 DUP4 SUB DUP2 PUSH0 DUP8 GAS CALL SWAP3 POP POP POP DUP1 ISZERO PUSH2 0x228E JUMPI POP PUSH1 0x40 MLOAD RETURNDATASIZE PUSH1 0x1F NOT PUSH1 0x1F DUP3 ADD AND DUP3 ADD DUP1 PUSH1 0x40 MSTORE POP DUP2 ADD SWAP1 PUSH2 0x228B SWAP2 SWAP1 PUSH2 0x557F JUMP JUMPDEST PUSH1 0x1 JUMPDEST PUSH2 0x230D JUMPI RETURNDATASIZE DUP1 PUSH0 DUP2 EQ PUSH2 0x22BC JUMPI PUSH1 0x40 MLOAD SWAP2 POP PUSH1 0x1F NOT PUSH1 0x3F RETURNDATASIZE ADD AND DUP3 ADD PUSH1 0x40 MSTORE RETURNDATASIZE DUP3 MSTORE RETURNDATASIZE PUSH0 PUSH1 0x20 DUP5 ADD RETURNDATACOPY PUSH2 0x22C1 JUMP JUMPDEST PUSH1 0x60 SWAP2 POP JUMPDEST POP PUSH0 DUP2 MLOAD SUB PUSH2 0x2305 JUMPI PUSH1 0x40 MLOAD PUSH32 0x8C379A000000000000000000000000000000000000000000000000000000000 DUP2 MSTORE PUSH1 0x4 ADD PUSH2 0x22FC SWAP1 PUSH2 0x4319 JUMP JUMPDEST PUSH1 0x40 MLOAD DUP1 SWAP2 SUB SWAP1 REVERT JUMPDEST DUP1 MLOAD DUP2 PUSH1 0x20 ADD REVERT JUMPDEST PUSH4 0x150B7A02 PUSH1 0xE0 SHL PUSH28 0xFFFFFFFFFFFFFFFFFFFFFFFFFFFFFFFFFFFFFFFFFFFFFFFFFFFFFFFF NOT AND DUP2 PUSH28 0xFFFFFFFFFFFFFFFFFFFFFFFFFFFFFFFFFFFFFFFFFFFFFFFFFFFFFFFF NOT AND EQ SWAP2 POP POP PUSH2 0x2362 JUMP JUMPDEST PUSH1 0x1 SWAP1 POP JUMPDEST SWAP5 SWAP4 POP POP POP POP JUMP JUMPDEST PUSH1 0x60 PUSH1 0x1 PUSH1 0xFF AND DUP3 PUSH1 0xFF AND SUB PUSH2 0x23B7 JUMPI PUSH1 0x40 MLOAD DUP1 PUSH1 0x40 ADD PUSH1 0x40 MSTORE DUP1 PUSH1 0x7 DUP2 MSTORE PUSH1 0x20 ADD PUSH32 0x2336464135464600000000000000000000000000000000000000000000000000 DUP2 MSTORE POP SWAP1 POP PUSH2 0x2486 JUMP JUMPDEST PUSH1 0x2 PUSH1 0xFF AND DUP3 PUSH1 0xFF AND SUB PUSH2 0x2402 JUMPI PUSH1 0x40 MLOAD DUP1 PUSH1 0x40 ADD PUSH1 0x40 MSTORE DUP1 PUSH1 0x7 DUP2 MSTORE PUSH1 0x20 ADD PUSH32 0x2346464431363600000000000000000000000000000000000000000000000000 DUP2 MSTORE POP SWAP1 POP PUSH2 0x2486 JUMP JUMPDEST PUSH1 0x3 PUSH1 0xFF AND DUP3 PUSH1 0xFF AND SUB PUSH2 0x244D JUMPI PUSH1 0x40 MLOAD DUP1 PUSH1 0x40 ADD PUSH1 0x40 MSTORE DUP1 PUSH1 0x7 DUP2 MSTORE PUSH1 0x20 ADD PUSH32 0x2346463946364500000000000000000000000000000000000000000000000000 DUP2 MSTORE POP SWAP1 POP PUSH2 0x2486 JUMP JUMPDEST PUSH1 0x40 MLOAD DUP1 PUSH1 0x40 ADD PUSH1 0x40 MSTORE DUP1 PUSH1 0x7 DUP2 MSTORE PUSH1 0x20 ADD PUSH32 0x2342364646343300000000000000000000000000000000000000000000000000 DUP2 MSTORE POP SWAP1 POP JUMPDEST SWAP2 SWAP1 POP JUMP JUMPDEST PUSH1 0x60 PUSH1 0x2 PUSH1 0xFF AND DUP3 PUSH1 0xFF AND SUB PUSH2 0x24D8 JUMPI PUSH1 0x40 MLOAD DUP1 PUSH1 0x40 ADD PUSH1 0x40 MSTORE DUP1 PUSH1 0x7 DUP2 MSTORE PUSH1 0x20 ADD PUSH32 0x2346464431363600000000000000000000000000000000000000000000000000 DUP2 MSTORE POP SWAP1 POP PUSH2 0x255C JUMP JUMPDEST PUSH1 0x3 PUSH1 0xFF AND DUP3 PUSH1 0xFF AND SUB PUSH2 0x2523 JUMPI PUSH1 0x40 MLOAD DUP1 PUSH1 0x40 ADD PUSH1 0x40 MSTORE DUP1 PUSH1 0x7 DUP2 MSTORE PUSH1 0x20 ADD PUSH32 0x2346463946364500000000000000000000000000000000000000000000000000 DUP2 MSTORE POP SWAP1 POP PUSH2 0x255C JUMP JUMPDEST PUSH1 0x40 MLOAD DUP1 PUSH1 0x40 ADD PUSH1 0x40 MSTORE DUP1 PUSH1 0x7 DUP2 MSTORE PUSH1 0x20 ADD PUSH32 0x2342364646343300000000000000000000000000000000000000000000000000 DUP2 MSTORE POP SWAP1 POP JUMPDEST SWAP2 SWAP1 POP JUMP JUMPDEST PUSH1 0x60 PUSH1 0x1 PUSH1 0xFF AND DUP3 PUSH1 0xFF AND EQ DUP1 PUSH2 0x257E JUMPI POP PUSH1 0x4 PUSH1 0xFF AND DUP3 PUSH1 0xFF AND EQ JUMPDEST ISZERO PUSH2 0x25C0 JUMPI PUSH1 0x40 MLOAD DUP1 PUSH1 0x40 ADD PUSH1 0x40 MSTORE DUP1 PUSH1 0x7 DUP2 MSTORE PUSH1 0x20 ADD PUSH32 0x2336464135464600000000000000000000000000000000000000000000000000 DUP2 MSTORE POP SWAP1 POP PUSH2 0x25F9 JUMP JUMPDEST PUSH1 0x40 MLOAD DUP1 PUSH1 0x40 ADD PUSH1 0x40 MSTORE DUP1 PUSH1 0x7 DUP2 MSTORE PUSH1 0x20 ADD PUSH32 0x2334394436433400000000000000000000000000000000000000000000000000 DUP2 MSTORE POP SWAP1 POP JUMPDEST SWAP2 SWAP1 POP JUMP JUMPDEST PUSH1 0x60 PUSH0 PUSH1 0xFF AND DUP3 PUSH1 0xFF AND SUB PUSH2 0x264A JUMPI PUSH1 0x40 MLOAD DUP1 PUSH1 0x40 ADD PUSH1 0x40 MSTORE DUP1 PUSH1 0x11 DUP2 MSTORE PUSH1 0x20 ADD PUSH32 0x4D53582057656C636F6D65204261646765000000000000000000000000000000 DUP2 MSTORE POP SWAP1 POP PUSH2 0x2764 JUMP JUMPDEST PUSH1 0x1 PUSH1 0xFF AND DUP3 PUSH1 0xFF AND SUB PUSH2 0x2695 JUMPI PUSH1 0x40 MLOAD DUP1 PUSH1 0x40 ADD PUSH1 0x40 MSTORE DUP1 PUSH1 0x11 DUP2 MSTORE PUSH1 0x20 ADD PUSH32 0x4D535820436F6E6E656374205175657374000000000000000000000000000000 DUP2 MSTORE POP SWAP1 POP PUSH2 0x2764 JUMP JUMPDEST PUSH1 0x2 PUSH1 0xFF AND DUP3 PUSH1 0xFF AND SUB PUSH2 0x26E0 JUMPI PUSH1 0x40 MLOAD DUP1 PUSH1 0x40 ADD PUSH1 0x40 MSTORE DUP1 PUSH1 0x11 DUP2 MSTORE PUSH1 0x20 ADD PUSH32 0x4D53582053746172746572204775696465000000000000000000000000000000 DUP2 MSTORE POP SWAP1 POP PUSH2 0x2764 JUMP JUMPDEST PUSH1 0x3 PUSH1 0xFF AND DUP3 PUSH1 0xFF AND SUB PUSH2 0x272B JUMPI PUSH1 0x40 MLOAD DUP1 PUSH1 0x40 ADD PUSH1 0x40 MSTORE DUP1 PUSH1 0x10 DUP2 MSTORE PUSH1 0x20 ADD PUSH32 0x4D53582050726F64756374205175697A00000000000000000000000000000000 DUP2 MSTORE POP SWAP1 POP PUSH2 0x2764 JUMP JUMPDEST PUSH1 0x40 MLOAD DUP1 PUSH1 0x40 ADD PUSH1 0x40 MSTORE DUP1 PUSH1 0x15 DUP2 MSTORE PUSH1 0x20 ADD PUSH32 0x4D53582053696D756C6174696F6E204163636573730000000000000000000000 DUP2 MSTORE POP SWAP1 POP JUMPDEST SWAP2 SWAP1 POP JUMP JUMPDEST PUSH1 0x60 PUSH0 PUSH1 0xFF AND DUP3 PUSH1 0xFF AND SUB PUSH2 0x27B5 JUMPI PUSH1 0x40 MLOAD DUP1 PUSH1 0x40 ADD PUSH1 0x40 MSTORE DUP1 PUSH1 0xD DUP2 MSTORE PUSH1 0x20 ADD PUSH32 0x57454C434F4D4520424144474500000000000000000000000000000000000000 DUP2 MSTORE POP SWAP1 POP PUSH2 0x28CF JUMP JUMPDEST PUSH1 0x1 PUSH1 0xFF AND DUP3 PUSH1 0xFF AND SUB PUSH2 0x2800 JUMPI PUSH1 0x40 MLOAD DUP1 PUSH1 0x40 ADD PUSH1 0x40 MSTORE DUP1 PUSH1 0xB DUP2 MSTORE PUSH1 0x20 ADD PUSH32 0x57414C4C4554205441534B000000000000000000000000000000000000000000 DUP2 MSTORE POP SWAP1 POP PUSH2 0x28CF JUMP JUMPDEST PUSH1 0x2 PUSH1 0xFF AND DUP3 PUSH1 0xFF AND SUB PUSH2 0x284B JUMPI PUSH1 0x40 MLOAD DUP1 PUSH1 0x40 ADD PUSH1 0x40 MSTORE DUP1 PUSH1 0x9 DUP2 MSTORE PUSH1 0x20 ADD PUSH32 0x5249534B205441534B0000000000000000000000000000000000000000000000 DUP2 MSTORE POP SWAP1 POP PUSH2 0x28CF JUMP JUMPDEST PUSH1 0x3 PUSH1 0xFF AND DUP3 PUSH1 0xFF AND SUB PUSH2 0x2896 JUMPI PUSH1 0x40 MLOAD DUP1 PUSH1 0x40 ADD PUSH1 0x40 MSTORE DUP1 PUSH1 0x9 DUP2 MSTORE PUSH1 0x20 ADD PUSH32 0x5155495A205441534B0000000000000000000000000000000000000000000000 DUP2 MSTORE POP SWAP1 POP PUSH2 0x28CF JUMP JUMPDEST PUSH1 0x40 MLOAD DUP1 PUSH1 0x40 ADD PUSH1 0x40 MSTORE DUP1 PUSH1 0xA DUP2 MSTORE PUSH1 0x20 ADD PUSH32 0x5041504552204D4F444500000000000000000000000000000000000000000000 DUP2 MSTORE POP SWAP1 POP JUMPDEST SWAP2 SWAP1 POP JUMP JUMPDEST PUSH1 0x60 PUSH0 PUSH1 0xFF AND DUP3 PUSH1 0xFF AND SUB PUSH2 0x2920 JUMPI PUSH1 0x40 MLOAD DUP1 PUSH1 0x40 ADD PUSH1 0x40 MSTORE DUP1 PUSH1 0x6 DUP2 MSTORE PUSH1 0x20 ADD PUSH32 0x4D494E5445440000000000000000000000000000000000000000000000000000 DUP2 MSTORE POP SWAP1 POP PUSH2 0x2A3A JUMP JUMPDEST PUSH1 0x1 PUSH1 0xFF AND DUP3 PUSH1 0xFF AND SUB PUSH2 0x296B JUMPI PUSH1 0x40 MLOAD DUP1 PUSH1 0x40 ADD PUSH1 0x40 MSTORE DUP1 PUSH1 0x6 DUP2 MSTORE PUSH1 0x20 ADD PUSH32 0x4D494E5445440000000000000000000000000000000000000000000000000000 DUP2 MSTORE POP SWAP1 POP PUSH2 0x2A3A JUMP JUMPDEST PUSH1 0x2 PUSH1 0xFF AND DUP3 PUSH1 0xFF AND SUB PUSH2 0x29B6 JUMPI PUSH1 0x40 MLOAD DUP1 PUSH1 0x40 ADD PUSH1 0x40 MSTORE DUP1 PUSH1 0x6 DUP2 MSTORE PUSH1 0x20 ADD PUSH32 0x4D494E5445440000000000000000000000000000000000000000000000000000 DUP2 MSTORE POP SWAP1 POP PUSH2 0x2A3A JUMP JUMPDEST PUSH1 0x3 PUSH1 0xFF AND DUP3 PUSH1 0xFF AND SUB PUSH2 0x2A01 JUMPI PUSH1 0x40 MLOAD DUP1 PUSH1 0x40 ADD PUSH1 0x40 MSTORE DUP1 PUSH1 0x6 DUP2 MSTORE PUSH1 0x20 ADD PUSH32 0x4D494E5445440000000000000000000000000000000000000000000000000000 DUP2 MSTORE POP SWAP1 POP PUSH2 0x2A3A JUMP JUMPDEST PUSH1 0x40 MLOAD DUP1 PUSH1 0x40 ADD PUSH1 0x40 MSTORE DUP1 PUSH1 0x8 DUP2 MSTORE PUSH1 0x20 ADD PUSH32 0x554E4C4F434B4544000000000000000000000000000000000000000000000000 DUP2 MSTORE POP SWAP1 POP JUMPDEST SWAP2 SWAP1 POP JUMP JUMPDEST PUSH1 0x60 PUSH0 PUSH1 0xFF AND DUP3 PUSH1 0xFF AND SUB PUSH2 0x2A8B JUMPI PUSH1 0x40 MLOAD DUP1 PUSH1 0x40 ADD PUSH1 0x40 MSTORE DUP1 PUSH1 0x1B DUP2 MSTORE PUSH1 0x20 ADD PUSH32 0x5365706F6C696120636F6C6C65637469626C6520666F72207468650000000000 DUP2 MSTORE POP SWAP1 POP PUSH2 0x2BA5 JUMP JUMPDEST PUSH1 0x1 PUSH1 0xFF AND DUP3 PUSH1 0xFF AND SUB PUSH2 0x2AD6 JUMPI PUSH1 0x40 MLOAD DUP1 PUSH1 0x40 ADD PUSH1 0x40 MSTORE DUP1 PUSH1 0x1A DUP2 MSTORE PUSH1 0x20 ADD PUSH32 0x57616C6C65742061636365737320617070726F76656420666F72000000000000 DUP2 MSTORE POP SWAP1 POP PUSH2 0x2BA5 JUMP JUMPDEST PUSH1 0x2 PUSH1 0xFF AND DUP3 PUSH1 0xFF AND SUB PUSH2 0x2B21 JUMPI PUSH1 0x40 MLOAD DUP1 PUSH1 0x40 ADD PUSH1 0x40 MSTORE DUP1 PUSH1 0x19 DUP2 MSTORE PUSH1 0x20 ADD PUSH32 0x5269736B2072657669657720636F6D706C6574656420666F7200000000000000 DUP2 MSTORE POP SWAP1 POP PUSH2 0x2BA5 JUMP JUMPDEST PUSH1 0x3 PUSH1 0xFF AND DUP3 PUSH1 0xFF AND SUB PUSH2 0x2B6C JUMPI PUSH1 0x40 MLOAD DUP1 PUSH1 0x40 ADD PUSH1 0x40 MSTORE DUP1 PUSH1 0x16 DUP2 MSTORE PUSH1 0x20 ADD PUSH32 0x4F776E65727368697020616E6420646F776E7369646500000000000000000000 DUP2 MSTORE POP SWAP1 POP PUSH2 0x2BA5 JUMP JUMPDEST PUSH1 0x40 MLOAD DUP1 PUSH1 0x40 ADD PUSH1 0x40 MSTORE DUP1 PUSH1 0x1A DUP2 MSTORE PUSH1 0x20 ADD PUSH32 0x507261637469636520666C6F77206F70656E6564206166746572000000000000 DUP2 MSTORE POP SWAP1 POP JUMPDEST SWAP2 SWAP1 POP JUMP JUMPDEST PUSH1 0x60 PUSH0 PUSH1 0xFF AND DUP3 PUSH1 0xFF AND SUB PUSH2 0x2BF6 JUMPI PUSH1 0x40 MLOAD DUP1 PUSH1 0x40 ADD PUSH1 0x40 MSTORE DUP1 PUSH1 0x16 DUP2 MSTORE PUSH1 0x20 ADD PUSH32 0x677569646564206F6E626F617264696E6720666C6F7700000000000000000000 DUP2 MSTORE POP SWAP1 POP PUSH2 0x2D10 JUMP JUMPDEST PUSH1 0x1 PUSH1 0xFF AND DUP3 PUSH1 0xFF AND SUB PUSH2 0x2C41 JUMPI PUSH1 0x40 MLOAD DUP1 PUSH1 0x40 ADD PUSH1 0x40 MSTORE DUP1 PUSH1 0x14 DUP2 MSTORE PUSH1 0x20 ADD PUSH32 0x746865204D53582077656C636F6D6520666C6F77000000000000000000000000 DUP2 MSTORE POP SWAP1 POP PUSH2 0x2D10 JUMP JUMPDEST PUSH1 0x2 PUSH1 0xFF AND DUP3 PUSH1 0xFF AND SUB PUSH2 0x2C8C JUMPI PUSH1 0x40 MLOAD DUP1 PUSH1 0x40 ADD PUSH1 0x40 MSTORE DUP1 PUSH1 0x1A DUP2 MSTORE PUSH1 0x20 ADD PUSH32 0x74686520677569646564206F6E626F617264696E6720666C6F77000000000000 DUP2 MSTORE POP SWAP1 POP PUSH2 0x2D10 JUMP JUMPDEST PUSH1 0x3 PUSH1 0xFF AND DUP3 PUSH1 0xFF AND SUB PUSH2 0x2CD7 JUMPI PUSH1 0x40 MLOAD DUP1 PUSH1 0x40 ADD PUSH1 0x40 MSTORE DUP1 PUSH1 0x11 DUP2 MSTORE PUSH1 0x20 ADD PUSH32 0x6672616D696E6720636F6E6669726D6564000000000000000000000000000000 DUP2 MSTORE POP SWAP1 POP PUSH2 0x2D10 JUMP JUMPDEST PUSH1 0x40 MLOAD DUP1 PUSH1 0x40 ADD PUSH1 0x40 MSTORE DUP1 PUSH1 0x1A DUP2 MSTORE PUSH1 0x20 ADD PUSH32 0x77616C6C6574207475746F7269616C20636F6D706C6574696F6E000000000000 DUP2 MSTORE POP SWAP1 POP JUMPDEST SWAP2 SWAP1 POP JUMP JUMPDEST PUSH0 DUP1 PUSH0 SWAP1 POP PUSH27 0x184F03E93FF9F4DAA797ED6E38ED64BF6A1F010000000000000000 DUP4 LT PUSH2 0x2D71 JUMPI PUSH27 0x184F03E93FF9F4DAA797ED6E38ED64BF6A1F010000000000000000 DUP4 DUP2 PUSH2 0x2D67 JUMPI PUSH2 0x2D66 PUSH2 0x5431 JUMP JUMPDEST JUMPDEST DIV SWAP3 POP PUSH1 0x40 DUP2 ADD SWAP1 POP JUMPDEST PUSH14 0x4EE2D6D415B85ACEF8100000000 DUP4 LT PUSH2 0x2DAE JUMPI PUSH14 0x4EE2D6D415B85ACEF8100000000 DUP4 DUP2 PUSH2 0x2DA4 JUMPI PUSH2 0x2DA3 PUSH2 0x5431 JUMP JUMPDEST JUMPDEST DIV SWAP3 POP PUSH1 0x20 DUP2 ADD SWAP1 POP JUMPDEST PUSH7 0x2386F26FC10000 DUP4 LT PUSH2 0x2DDD JUMPI PUSH7 0x2386F26FC10000 DUP4 DUP2 PUSH2 0x2DD3 JUMPI PUSH2 0x2DD2 PUSH2 0x5431 JUMP JUMPDEST JUMPDEST DIV SWAP3 POP PUSH1 0x10 DUP2 ADD SWAP1 POP JUMPDEST PUSH4 0x5F5E100 DUP4 LT PUSH2 0x2E06 JUMPI PUSH4 0x5F5E100 DUP4 DUP2 PUSH2 0x2DFC JUMPI PUSH2 0x2DFB PUSH2 0x5431 JUMP JUMPDEST JUMPDEST DIV SWAP3 POP PUSH1 0x8 DUP2 ADD SWAP1 POP JUMPDEST PUSH2 0x2710 DUP4 LT PUSH2 0x2E2B JUMPI PUSH2 0x2710 DUP4 DUP2 PUSH2 0x2E21 JUMPI PUSH2 0x2E20 PUSH2 0x5431 JUMP JUMPDEST JUMPDEST DIV SWAP3 POP PUSH1 0x4 DUP2 ADD SWAP1 POP JUMPDEST PUSH1 0x64 DUP4 LT PUSH2 0x2E4E JUMPI PUSH1 0x64 DUP4 DUP2 PUSH2 0x2E44 JUMPI PUSH2 0x2E43 PUSH2 0x5431 JUMP JUMPDEST JUMPDEST DIV SWAP3 POP PUSH1 0x2 DUP2 ADD SWAP1 POP JUMPDEST PUSH1 0xA DUP4 LT PUSH2 0x2E5D JUMPI PUSH1 0x1 DUP2 ADD SWAP1 POP JUMPDEST DUP1 SWAP2 POP POP SWAP2 SWAP1 POP JUMP JUMPDEST PUSH0 PUSH20 0xFFFFFFFFFFFFFFFFFFFFFFFFFFFFFFFFFFFFFFFF AND DUP3 PUSH20 0xFFFFFFFFFFFFFFFFFFFFFFFFFFFFFFFFFFFFFFFF AND SUB PUSH2 0x2ED4 JUMPI PUSH1 0x40 MLOAD PUSH32 0x8C379A000000000000000000000000000000000000000000000000000000000 DUP2 MSTORE PUSH1 0x4 ADD PUSH2 0x2ECB SWAP1 PUSH2 0x55F4 JUMP JUMPDEST PUSH1 0x40 MLOAD DUP1 SWAP2 SUB SWAP1 REVERT JUMPDEST PUSH2 0x2EDD DUP2 PUSH2 0x2142 JUMP JUMPDEST ISZERO PUSH2 0x2F1D JUMPI PUSH1 0x40 MLOAD PUSH32 0x8C379A000000000000000000000000000000000000000000000000000000000 DUP2 MSTORE PUSH1 0x4 ADD PUSH2 0x2F14 SWAP1 PUSH2 0x565C JUMP JUMPDEST PUSH1 0x40 MLOAD DUP1 SWAP2 SUB SWAP1 REVERT JUMPDEST PUSH2 0x2F2A PUSH0 DUP4 DUP4 PUSH1 0x1 PUSH2 0x2182 JUMP JUMPDEST PUSH2 0x2F33 DUP2 PUSH2 0x2142 JUMP JUMPDEST ISZERO PUSH2 0x2F73 JUMPI PUSH1 0x40 MLOAD PUSH32 0x8C379A000000000000000000000000000000000000000000000000000000000 DUP2 MSTORE PUSH1 0x4 ADD PUSH2 0x2F6A SWAP1 PUSH2 0x565C JUMP JUMPDEST PUSH1 0x40 MLOAD DUP1 SWAP2 SUB SWAP1 REVERT JUMPDEST PUSH1 0x1 PUSH1 0x3 PUSH0 DUP5 PUSH20 0xFFFFFFFFFFFFFFFFFFFFFFFFFFFFFFFFFFFFFFFF AND PUSH20 0xFFFFFFFFFFFFFFFFFFFFFFFFFFFFFFFFFFFFFFFF AND DUP2 MSTORE PUSH1 0x20 ADD SWAP1 DUP2 MSTORE PUSH1 0x20 ADD PUSH0 KECCAK256 PUSH0 DUP3 DUP3 SLOAD ADD SWAP3 POP POP DUP2 SWAP1 SSTORE POP DUP2 PUSH1 0x2 PUSH0 DUP4 DUP2 MSTORE PUSH1 0x20 ADD SWAP1 DUP2 MSTORE PUSH1 0x20 ADD PUSH0 KECCAK256 PUSH0 PUSH2 0x100 EXP DUP2 SLOAD DUP2 PUSH20 0xFFFFFFFFFFFFFFFFFFFFFFFFFFFFFFFFFFFFFFFF MUL NOT AND SWAP1 DUP4 PUSH20 0xFFFFFFFFFFFFFFFFFFFFFFFFFFFFFFFFFFFFFFFF AND MUL OR SWAP1 SSTORE POP DUP1 DUP3 PUSH20 0xFFFFFFFFFFFFFFFFFFFFFFFFFFFFFFFFFFFFFFFF AND PUSH0 PUSH20 0xFFFFFFFFFFFFFFFFFFFFFFFFFFFFFFFFFFFFFFFF AND PUSH32 0xDDF252AD1BE2C89B69C2B068FC378DAA952BA7F163C4A11628F55A4DF523B3EF PUSH1 0x40 MLOAD PUSH1 0x40 MLOAD DUP1 SWAP2 SUB SWAP1 LOG4 PUSH2 0x3075 PUSH0 DUP4 DUP4 PUSH1 0x1 PUSH2 0x2188 JUMP JUMPDEST POP POP JUMP JUMPDEST PUSH0 DUP1 DUP3 PUSH20 0xFFFFFFFFFFFFFFFFFFFFFFFFFFFFFFFFFFFFFFFF AND EXTCODESIZE GT SWAP1 POP SWAP2 SWAP1 POP JUMP JUMPDEST PUSH0 PUSH1 0x40 MLOAD SWAP1 POP SWAP1 JUMP JUMPDEST PUSH0 DUP1 REVERT JUMPDEST PUSH0 DUP1 REVERT JUMPDEST PUSH0 PUSH20 0xFFFFFFFFFFFFFFFFFFFFFFFFFFFFFFFFFFFFFFFF DUP3 AND SWAP1 POP SWAP2 SWAP1 POP JUMP JUMPDEST PUSH0 PUSH2 0x30D5 DUP3 PUSH2 0x30AC JUMP JUMPDEST SWAP1 POP SWAP2 SWAP1 POP JUMP JUMPDEST PUSH2 0x30E5 DUP2 PUSH2 0x30CB JUMP JUMPDEST DUP2 EQ PUSH2 0x30EF JUMPI PUSH0 DUP1 REVERT JUMPDEST POP JUMP JUMPDEST PUSH0 DUP2 CALLDATALOAD SWAP1 POP PUSH2 0x3100 DUP2 PUSH2 0x30DC JUMP JUMPDEST SWAP3 SWAP2 POP POP JUMP JUMPDEST PUSH0 PUSH1 0xFF DUP3 AND SWAP1 POP SWAP2 SWAP1 POP JUMP JUMPDEST PUSH2 0x311B DUP2 PUSH2 0x3106 JUMP JUMPDEST DUP2 EQ PUSH2 0x3125 JUMPI PUSH0 DUP1 REVERT JUMPDEST POP JUMP JUMPDEST PUSH0 DUP2 CALLDATALOAD SWAP1 POP PUSH2 0x3136 DUP2 PUSH2 0x3112 JUMP JUMPDEST SWAP3 SWAP2 POP POP JUMP JUMPDEST PUSH0 DUP1 PUSH1 0x40 DUP4 DUP6 SUB SLT ISZERO PUSH2 0x3152 JUMPI PUSH2 0x3151 PUSH2 0x30A4 JUMP JUMPDEST JUMPDEST PUSH0 PUSH2 0x315F DUP6 DUP3 DUP7 ADD PUSH2 0x30F2 JUMP JUMPDEST SWAP3 POP POP PUSH1 0x20 PUSH2 0x3170 DUP6 DUP3 DUP7 ADD PUSH2 0x3128 JUMP JUMPDEST SWAP2 POP POP SWAP3 POP SWAP3 SWAP1 POP JUMP JUMPDEST PUSH0 DUP2 ISZERO ISZERO SWAP1 POP SWAP2 SWAP1 POP JUMP JUMPDEST PUSH2 0x318E DUP2 PUSH2 0x317A JUMP JUMPDEST DUP3 MSTORE POP POP JUMP JUMPDEST PUSH0 PUSH1 0x20 DUP3 ADD SWAP1 POP PUSH2 0x31A7 PUSH0 DUP4 ADD DUP5 PUSH2 0x3185 JUMP JUMPDEST SWAP3 SWAP2 POP POP JUMP JUMPDEST PUSH0 PUSH32 0xFFFFFFFF00000000000000000000000000000000000000000000000000000000 DUP3 AND SWAP1 POP SWAP2 SWAP1 POP JUMP JUMPDEST PUSH2 0x31E1 DUP2 PUSH2 0x31AD JUMP JUMPDEST DUP2 EQ PUSH2 0x31EB JUMPI PUSH0 DUP1 REVERT JUMPDEST POP JUMP JUMPDEST PUSH0 DUP2 CALLDATALOAD SWAP1 POP PUSH2 0x31FC DUP2 PUSH2 0x31D8 JUMP JUMPDEST SWAP3 SWAP2 POP POP JUMP JUMPDEST PUSH0 PUSH1 0x20 DUP3 DUP5 SUB SLT ISZERO PUSH2 0x3217 JUMPI PUSH2 0x3216 PUSH2 0x30A4 JUMP JUMPDEST JUMPDEST PUSH0 PUSH2 0x3224 DUP5 DUP3 DUP6 ADD PUSH2 0x31EE JUMP JUMPDEST SWAP2 POP POP SWAP3 SWAP2 POP POP JUMP JUMPDEST PUSH0 DUP2 MLOAD SWAP1 POP SWAP2 SWAP1 POP JUMP JUMPDEST PUSH0 DUP3 DUP3 MSTORE PUSH1 0x20 DUP3 ADD SWAP1 POP SWAP3 SWAP2 POP POP JUMP JUMPDEST PUSH0 JUMPDEST DUP4 DUP2 LT ISZERO PUSH2 0x3264 JUMPI DUP1 DUP3 ADD MLOAD DUP2 DUP5 ADD MSTORE PUSH1 0x20 DUP2 ADD SWAP1 POP PUSH2 0x3249 JUMP JUMPDEST PUSH0 DUP5 DUP5 ADD MSTORE POP POP POP POP JUMP JUMPDEST PUSH0 PUSH1 0x1F NOT PUSH1 0x1F DUP4 ADD AND SWAP1 POP SWAP2 SWAP1 POP JUMP JUMPDEST PUSH0 PUSH2 0x3289 DUP3 PUSH2 0x322D JUMP JUMPDEST PUSH2 0x3293 DUP2 DUP6 PUSH2 0x3237 JUMP JUMPDEST SWAP4 POP PUSH2 0x32A3 DUP2 DUP6 PUSH1 0x20 DUP7 ADD PUSH2 0x3247 JUMP JUMPDEST PUSH2 0x32AC DUP2 PUSH2 0x326F JUMP JUMPDEST DUP5 ADD SWAP2 POP POP SWAP3 SWAP2 POP POP JUMP JUMPDEST PUSH0 PUSH1 0x20 DUP3 ADD SWAP1 POP DUP2 DUP2 SUB PUSH0 DUP4 ADD MSTORE PUSH2 0x32CF DUP2 DUP5 PUSH2 0x327F JUMP JUMPDEST SWAP1 POP SWAP3 SWAP2 POP POP JUMP JUMPDEST PUSH0 DUP2 SWAP1 POP SWAP2 SWAP1 POP JUMP JUMPDEST PUSH2 0x32E9 DUP2 PUSH2 0x32D7 JUMP JUMPDEST DUP2 EQ PUSH2 0x32F3 JUMPI PUSH0 DUP1 REVERT JUMPDEST POP JUMP JUMPDEST PUSH0 DUP2 CALLDATALOAD SWAP1 POP PUSH2 0x3304 DUP2 PUSH2 0x32E0 JUMP JUMPDEST SWAP3 SWAP2 POP POP JUMP JUMPDEST PUSH0 PUSH1 0x20 DUP3 DUP5 SUB SLT ISZERO PUSH2 0x331F JUMPI PUSH2 0x331E PUSH2 0x30A4 JUMP JUMPDEST JUMPDEST PUSH0 PUSH2 0x332C DUP5 DUP3 DUP6 ADD PUSH2 0x32F6 JUMP JUMPDEST SWAP2 POP POP SWAP3 SWAP2 POP POP JUMP JUMPDEST PUSH2 0x333E DUP2 PUSH2 0x30CB JUMP JUMPDEST DUP3 MSTORE POP POP JUMP JUMPDEST PUSH0 PUSH1 0x20 DUP3 ADD SWAP1 POP PUSH2 0x3357 PUSH0 DUP4 ADD DUP5 PUSH2 0x3335 JUMP JUMPDEST SWAP3 SWAP2 POP POP JUMP JUMPDEST PUSH0 DUP1 PUSH1 0x40 DUP4 DUP6 SUB SLT ISZERO PUSH2 0x3373 JUMPI PUSH2 0x3372 PUSH2 0x30A4 JUMP JUMPDEST JUMPDEST PUSH0 PUSH2 0x3380 DUP6 DUP3 DUP7 ADD PUSH2 0x30F2 JUMP JUMPDEST SWAP3 POP POP PUSH1 0x20 PUSH2 0x3391 DUP6 DUP3 DUP7 ADD PUSH2 0x32F6 JUMP JUMPDEST SWAP2 POP POP SWAP3 POP SWAP3 SWAP1 POP JUMP JUMPDEST PUSH2 0x33A4 DUP2 PUSH2 0x3106 JUMP JUMPDEST DUP3 MSTORE POP POP JUMP JUMPDEST PUSH0 PUSH1 0x20 DUP3 ADD SWAP1 POP PUSH2 0x33BD PUSH0 DUP4 ADD DUP5 PUSH2 0x339B JUMP JUMPDEST SWAP3 SWAP2 POP POP JUMP JUMPDEST PUSH0 DUP1 PUSH0 PUSH1 0x60 DUP5 DUP7 SUB SLT ISZERO PUSH2 0x33DA JUMPI PUSH2 0x33D9 PUSH2 0x30A4 JUMP JUMPDEST JUMPDEST PUSH0 PUSH2 0x33E7 DUP7 DUP3 DUP8 ADD PUSH2 0x30F2 JUMP JUMPDEST SWAP4 POP POP PUSH1 0x20 PUSH2 0x33F8 DUP7 DUP3 DUP8 ADD PUSH2 0x30F2 JUMP JUMPDEST SWAP3 POP POP PUSH1 0x40 PUSH2 0x3409 DUP7 DUP3 DUP8 ADD PUSH2 0x32F6 JUMP JUMPDEST SWAP2 POP POP SWAP3 POP SWAP3 POP SWAP3 JUMP JUMPDEST PUSH0 PUSH1 0x20 DUP3 DUP5 SUB SLT ISZERO PUSH2 0x3428 JUMPI PUSH2 0x3427 PUSH2 0x30A4 JUMP JUMPDEST JUMPDEST PUSH0 PUSH2 0x3435 DUP5 DUP3 DUP6 ADD PUSH2 0x30F2 JUMP JUMPDEST SWAP2 POP POP SWAP3 SWAP2 POP POP JUMP JUMPDEST PUSH2 0x3447 DUP2 PUSH2 0x32D7 JUMP JUMPDEST DUP3 MSTORE POP POP JUMP JUMPDEST PUSH0 PUSH1 0x20 DUP3 ADD SWAP1 POP PUSH2 0x3460 PUSH0 DUP4 ADD DUP5 PUSH2 0x343E JUMP JUMPDEST SWAP3 SWAP2 POP POP JUMP JUMPDEST PUSH0 DUP1 PUSH1 0x40 DUP4 DUP6 SUB SLT ISZERO PUSH2 0x347C JUMPI PUSH2 0x347B PUSH2 0x30A4 JUMP JUMPDEST JUMPDEST PUSH0 PUSH2 0x3489 DUP6 DUP3 DUP7 ADD PUSH2 0x3128 JUMP JUMPDEST SWAP3 POP POP PUSH1 0x20 PUSH2 0x349A DUP6 DUP3 DUP7 ADD PUSH2 0x30F2 JUMP JUMPDEST SWAP2 POP POP SWAP3 POP SWAP3 SWAP1 POP JUMP JUMPDEST PUSH2 0x34AD DUP2 PUSH2 0x317A JUMP JUMPDEST DUP2 EQ PUSH2 0x34B7 JUMPI PUSH0 DUP1 REVERT JUMPDEST POP JUMP JUMPDEST PUSH0 DUP2 CALLDATALOAD SWAP1 POP PUSH2 0x34C8 DUP2 PUSH2 0x34A4 JUMP JUMPDEST SWAP3 SWAP2 POP POP JUMP JUMPDEST PUSH0 DUP1 PUSH1 0x40 DUP4 DUP6 SUB SLT ISZERO PUSH2 0x34E4 JUMPI PUSH2 0x34E3 PUSH2 0x30A4 JUMP JUMPDEST JUMPDEST PUSH0 PUSH2 0x34F1 DUP6 DUP3 DUP7 ADD PUSH2 0x30F2 JUMP JUMPDEST SWAP3 POP POP PUSH1 0x20 PUSH2 0x3502 DUP6 DUP3 DUP7 ADD PUSH2 0x34BA JUMP JUMPDEST SWAP2 POP POP SWAP3 POP SWAP3 SWAP1 POP JUMP JUMPDEST PUSH0 DUP1 REVERT JUMPDEST PUSH0 DUP1 REVERT JUMPDEST PUSH32 0x4E487B7100000000000000000000000000000000000000000000000000000000 PUSH0 MSTORE PUSH1 0x41 PUSH1 0x4 MSTORE PUSH1 0x24 PUSH0 REVERT JUMPDEST PUSH2 0x354A DUP3 PUSH2 0x326F JUMP JUMPDEST DUP2 ADD DUP2 DUP2 LT PUSH8 0xFFFFFFFFFFFFFFFF DUP3 GT OR ISZERO PUSH2 0x3569 JUMPI PUSH2 0x3568 PUSH2 0x3514 JUMP JUMPDEST JUMPDEST DUP1 PUSH1 0x40 MSTORE POP POP POP JUMP JUMPDEST PUSH0 PUSH2 0x357B PUSH2 0x309B JUMP JUMPDEST SWAP1 POP PUSH2 0x3587 DUP3 DUP3 PUSH2 0x3541 JUMP JUMPDEST SWAP2 SWAP1 POP JUMP JUMPDEST PUSH0 PUSH8 0xFFFFFFFFFFFFFFFF DUP3 GT ISZERO PUSH2 0x35A6 JUMPI PUSH2 0x35A5 PUSH2 0x3514 JUMP JUMPDEST JUMPDEST PUSH2 0x35AF DUP3 PUSH2 0x326F JUMP JUMPDEST SWAP1 POP PUSH1 0x20 DUP2 ADD SWAP1 POP SWAP2 SWAP1 POP JUMP JUMPDEST DUP3 DUP2 DUP4 CALLDATACOPY PUSH0 DUP4 DUP4 ADD MSTORE POP POP POP JUMP JUMPDEST PUSH0 PUSH2 0x35DC PUSH2 0x35D7 DUP5 PUSH2 0x358C JUMP JUMPDEST PUSH2 0x3572 JUMP JUMPDEST SWAP1 POP DUP3 DUP2 MSTORE PUSH1 0x20 DUP2 ADD DUP5 DUP5 DUP5 ADD GT ISZERO PUSH2 0x35F8 JUMPI PUSH2 0x35F7 PUSH2 0x3510 JUMP JUMPDEST JUMPDEST PUSH2 0x3603 DUP5 DUP3 DUP6 PUSH2 0x35BC JUMP JUMPDEST POP SWAP4 SWAP3 POP POP POP JUMP JUMPDEST PUSH0 DUP3 PUSH1 0x1F DUP4 ADD SLT PUSH2 0x361F JUMPI PUSH2 0x361E PUSH2 0x350C JUMP JUMPDEST JUMPDEST DUP2 CALLDATALOAD PUSH2 0x362F DUP5 DUP3 PUSH1 0x20 DUP7 ADD PUSH2 0x35CA JUMP JUMPDEST SWAP2 POP POP SWAP3 SWAP2 POP POP JUMP JUMPDEST PUSH0 DUP1 PUSH0 DUP1 PUSH1 0x80 DUP6 DUP8 SUB SLT ISZERO PUSH2 0x3650 JUMPI PUSH2 0x364F PUSH2 0x30A4 JUMP JUMPDEST JUMPDEST PUSH0 PUSH2 0x365D DUP8 DUP3 DUP9 ADD PUSH2 0x30F2 JUMP JUMPDEST SWAP5 POP POP PUSH1 0x20 PUSH2 0x366E DUP8 DUP3 DUP9 ADD PUSH2 0x30F2 JUMP JUMPDEST SWAP4 POP POP PUSH1 0x40 PUSH2 0x367F DUP8 DUP3 DUP9 ADD PUSH2 0x32F6 JUMP JUMPDEST SWAP3 POP POP PUSH1 0x60 DUP6 ADD CALLDATALOAD PUSH8 0xFFFFFFFFFFFFFFFF DUP2 GT ISZERO PUSH2 0x36A0 JUMPI PUSH2 0x369F PUSH2 0x30A8 JUMP JUMPDEST JUMPDEST PUSH2 0x36AC DUP8 DUP3 DUP9 ADD PUSH2 0x360B JUMP JUMPDEST SWAP2 POP POP SWAP3 SWAP6 SWAP2 SWAP5 POP SWAP3 POP JUMP JUMPDEST PUSH0 DUP1 PUSH1 0x40 DUP4 DUP6 SUB SLT ISZERO PUSH2 0x36CE JUMPI PUSH2 0x36CD PUSH2 0x30A4 JUMP JUMPDEST JUMPDEST PUSH0 PUSH2 0x36DB DUP6 DUP3 DUP7 ADD PUSH2 0x30F2 JUMP JUMPDEST SWAP3 POP POP PUSH1 0x20 PUSH2 0x36EC DUP6 DUP3 DUP7 ADD PUSH2 0x30F2 JUMP JUMPDEST SWAP2 POP POP SWAP3 POP SWAP3 SWAP1 POP JUMP JUMPDEST PUSH32 0x4E487B7100000000000000000000000000000000000000000000000000000000 PUSH0 MSTORE PUSH1 0x22 PUSH1 0x4 MSTORE PUSH1 0x24 PUSH0 REVERT JUMPDEST PUSH0 PUSH1 0x2 DUP3 DIV SWAP1 POP PUSH1 0x1 DUP3 AND DUP1 PUSH2 0x373A JUMPI PUSH1 0x7F DUP3 AND SWAP2 POP JUMPDEST PUSH1 0x20 DUP3 LT DUP2 SUB PUSH2 0x374D JUMPI PUSH2 0x374C PUSH2 0x36F6 JUMP JUMPDEST JUMPDEST POP SWAP2 SWAP1 POP JUMP JUMPDEST PUSH32 0x4552433732313A20617070726F76616C20746F2063757272656E74206F776E65 PUSH0 DUP3 ADD MSTORE PUSH32 0x7200000000000000000000000000000000000000000000000000000000000000 PUSH1 0x20 DUP3 ADD MSTORE POP JUMP JUMPDEST PUSH0 PUSH2 0x37AD PUSH1 0x21 DUP4 PUSH2 0x3237 JUMP JUMPDEST SWAP2 POP PUSH2 0x37B8 DUP3 PUSH2 0x3753 JUMP JUMPDEST PUSH1 0x40 DUP3 ADD SWAP1 POP SWAP2 SWAP1 POP JUMP JUMPDEST PUSH0 PUSH1 0x20 DUP3 ADD SWAP1 POP DUP2 DUP2 SUB PUSH0 DUP4 ADD MSTORE PUSH2 0x37DA DUP2 PUSH2 0x37A1 JUMP JUMPDEST SWAP1 POP SWAP2 SWAP1 POP JUMP JUMPDEST PUSH32 0x4552433732313A20617070726F76652063616C6C6572206973206E6F7420746F PUSH0 DUP3 ADD MSTORE PUSH32 0x6B656E206F776E6572206F7220617070726F76656420666F7220616C6C000000 PUSH1 0x20 DUP3 ADD MSTORE POP JUMP JUMPDEST PUSH0 PUSH2 0x383B PUSH1 0x3D DUP4 PUSH2 0x3237 JUMP JUMPDEST SWAP2 POP PUSH2 0x3846 DUP3 PUSH2 0x37E1 JUMP JUMPDEST PUSH1 0x40 DUP3 ADD SWAP1 POP SWAP2 SWAP1 POP JUMP JUMPDEST PUSH0 PUSH1 0x20 DUP3 ADD SWAP1 POP DUP2 DUP2 SUB PUSH0 DUP4 ADD MSTORE PUSH2 0x3868 DUP2 PUSH2 0x382F JUMP JUMPDEST SWAP1 POP SWAP2 SWAP1 POP JUMP JUMPDEST PUSH32 0x4552433732313A2063616C6C6572206973206E6F7420746F6B656E206F776E65 PUSH0 DUP3 ADD MSTORE PUSH32 0x72206F7220617070726F76656400000000000000000000000000000000000000 PUSH1 0x20 DUP3 ADD MSTORE POP JUMP JUMPDEST PUSH0 PUSH2 0x38C9 PUSH1 0x2D DUP4 PUSH2 0x3237 JUMP JUMPDEST SWAP2 POP PUSH2 0x38D4 DUP3 PUSH2 0x386F JUMP JUMPDEST PUSH1 0x40 DUP3 ADD SWAP1 POP SWAP2 SWAP1 POP JUMP JUMPDEST PUSH0 PUSH1 0x20 DUP3 ADD SWAP1 POP DUP2 DUP2 SUB PUSH0 DUP4 ADD MSTORE PUSH2 0x38F6 DUP2 PUSH2 0x38BD JUMP JUMPDEST SWAP1 POP SWAP2 SWAP1 POP JUMP JUMPDEST PUSH32 0x4552433732313A20696E76616C696420746F6B656E2049440000000000000000 PUSH0 DUP3 ADD MSTORE POP JUMP JUMPDEST PUSH0 PUSH2 0x3931 PUSH1 0x18 DUP4 PUSH2 0x3237 JUMP JUMPDEST SWAP2 POP PUSH2 0x393C DUP3 PUSH2 0x38FD JUMP JUMPDEST PUSH1 0x20 DUP3 ADD SWAP1 POP SWAP2 SWAP1 POP JUMP JUMPDEST PUSH0 PUSH1 0x20 DUP3 ADD SWAP1 POP DUP2 DUP2 SUB PUSH0 DUP4 ADD MSTORE PUSH2 0x395E DUP2 PUSH2 0x3925 JUMP JUMPDEST SWAP1 POP SWAP2 SWAP1 POP JUMP JUMPDEST PUSH32 0x496E76616C696420626164676520747970650000000000000000000000000000 PUSH0 DUP3 ADD MSTORE POP JUMP JUMPDEST PUSH0 PUSH2 0x3999 PUSH1 0x12 DUP4 PUSH2 0x3237 JUMP JUMPDEST SWAP2 POP PUSH2 0x39A4 DUP3 PUSH2 0x3965 JUMP JUMPDEST PUSH1 0x20 DUP3 ADD SWAP1 POP SWAP2 SWAP1 POP JUMP JUMPDEST PUSH0 PUSH1 0x20 DUP3 ADD SWAP1 POP DUP2 DUP2 SUB PUSH0 DUP4 ADD MSTORE PUSH2 0x39C6 DUP2 PUSH2 0x398D JUMP JUMPDEST SWAP1 POP SWAP2 SWAP1 POP JUMP JUMPDEST PUSH32 0x4552433732313A2061646472657373207A65726F206973206E6F742061207661 PUSH0 DUP3 ADD MSTORE PUSH32 0x6C6964206F776E65720000000000000000000000000000000000000000000000 PUSH1 0x20 DUP3 ADD MSTORE POP JUMP JUMPDEST PUSH0 PUSH2 0x3A27 PUSH1 0x29 DUP4 PUSH2 0x3237 JUMP JUMPDEST SWAP2 POP PUSH2 0x3A32 DUP3 PUSH2 0x39CD JUMP JUMPDEST PUSH1 0x40 DUP3 ADD SWAP1 POP SWAP2 SWAP1 POP JUMP JUMPDEST PUSH0 PUSH1 0x20 DUP3 ADD SWAP1 POP DUP2 DUP2 SUB PUSH0 DUP4 ADD MSTORE PUSH2 0x3A54 DUP2 PUSH2 0x3A1B JUMP JUMPDEST SWAP1 POP SWAP2 SWAP1 POP JUMP JUMPDEST PUSH32 0x496E76616C696420726563697069656E74000000000000000000000000000000 PUSH0 DUP3 ADD MSTORE POP JUMP JUMPDEST PUSH0 PUSH2 0x3A8F PUSH1 0x11 DUP4 PUSH2 0x3237 JUMP JUMPDEST SWAP2 POP PUSH2 0x3A9A DUP3 PUSH2 0x3A5B JUMP JUMPDEST PUSH1 0x20 DUP3 ADD SWAP1 POP SWAP2 SWAP1 POP JUMP JUMPDEST PUSH0 PUSH1 0x20 DUP3 ADD SWAP1 POP DUP2 DUP2 SUB PUSH0 DUP4 ADD MSTORE PUSH2 0x3ABC DUP2 PUSH2 0x3A83 JUMP JUMPDEST SWAP1 POP SWAP2 SWAP1 POP JUMP JUMPDEST PUSH32 0x4F6E6C792073656C66206D696E74000000000000000000000000000000000000 PUSH0 DUP3 ADD MSTORE POP JUMP JUMPDEST PUSH0 PUSH2 0x3AF7 PUSH1 0xE DUP4 PUSH2 0x3237 JUMP JUMPDEST SWAP2 POP PUSH2 0x3B02 DUP3 PUSH2 0x3AC3 JUMP JUMPDEST PUSH1 0x20 DUP3 ADD SWAP1 POP SWAP2 SWAP1 POP JUMP JUMPDEST PUSH0 PUSH1 0x20 DUP3 ADD SWAP1 POP DUP2 DUP2 SUB PUSH0 DUP4 ADD MSTORE PUSH2 0x3B24 DUP2 PUSH2 0x3AEB JUMP JUMPDEST SWAP1 POP SWAP2 SWAP1 POP JUMP JUMPDEST PUSH32 0x426164676520616C7265616479206D696E746564000000000000000000000000 PUSH0 DUP3 ADD MSTORE POP JUMP JUMPDEST PUSH0 PUSH2 0x3B5F PUSH1 0x14 DUP4 PUSH2 0x3237 JUMP JUMPDEST SWAP2 POP PUSH2 0x3B6A DUP3 PUSH2 0x3B2B JUMP JUMPDEST PUSH1 0x20 DUP3 ADD SWAP1 POP SWAP2 SWAP1 POP JUMP JUMPDEST PUSH0 PUSH1 0x20 DUP3 ADD SWAP1 POP DUP2 DUP2 SUB PUSH0 DUP4 ADD MSTORE PUSH2 0x3B8C DUP2 PUSH2 0x3B53 JUMP JUMPDEST SWAP1 POP SWAP2 SWAP1 POP JUMP JUMPDEST PUSH32 0x4E487B7100000000000000000000000000000000000000000000000000000000 PUSH0 MSTORE PUSH1 0x11 PUSH1 0x4 MSTORE PUSH1 0x24 PUSH0 REVERT JUMPDEST PUSH0 PUSH2 0x3BCA DUP3 PUSH2 0x32D7 JUMP JUMPDEST SWAP2 POP PUSH2 0x3BD5 DUP4 PUSH2 0x32D7 JUMP JUMPDEST SWAP3 POP DUP3 DUP3 ADD SWAP1 POP DUP1 DUP3 GT ISZERO PUSH2 0x3BED JUMPI PUSH2 0x3BEC PUSH2 0x3B93 JUMP JUMPDEST JUMPDEST SWAP3 SWAP2 POP POP JUMP JUMPDEST PUSH0 DUP2 SWAP1 POP SWAP3 SWAP2 POP POP JUMP JUMPDEST PUSH32 0x646174613A696D6167652F7376672B786D6C3B6261736536342C000000000000 PUSH0 DUP3 ADD MSTORE POP JUMP JUMPDEST PUSH0 PUSH2 0x3C31 PUSH1 0x1A DUP4 PUSH2 0x3BF3 JUMP JUMPDEST SWAP2 POP PUSH2 0x3C3C DUP3 PUSH2 0x3BFD JUMP JUMPDEST PUSH1 0x1A DUP3 ADD SWAP1 POP SWAP2 SWAP1 POP JUMP JUMPDEST PUSH0 PUSH2 0x3C51 DUP3 PUSH2 0x322D JUMP JUMPDEST PUSH2 0x3C5B DUP2 DUP6 PUSH2 0x3BF3 JUMP JUMPDEST SWAP4 POP PUSH2 0x3C6B DUP2 DUP6 PUSH1 0x20 DUP7 ADD PUSH2 0x3247 JUMP JUMPDEST DUP1 DUP5 ADD SWAP2 POP POP SWAP3 SWAP2 POP POP JUMP JUMPDEST PUSH0 PUSH2 0x3C81 DUP3 PUSH2 0x3C25 JUMP JUMPDEST SWAP2 POP PUSH2 0x3C8D DUP3 DUP5 PUSH2 0x3C47 JUMP JUMPDEST SWAP2 POP DUP2 SWAP1 POP SWAP3 SWAP2 POP POP JUMP JUMPDEST PUSH32 0x7B226E616D65223A220000000000000000000000000000000000000000000000 PUSH0 DUP3 ADD MSTORE POP JUMP JUMPDEST PUSH0 PUSH2 0x3CCC PUSH1 0x9 DUP4 PUSH2 0x3BF3 JUMP JUMPDEST SWAP2 POP PUSH2 0x3CD7 DUP3 PUSH2 0x3C98 JUMP JUMPDEST PUSH1 0x9 DUP3 ADD SWAP1 POP SWAP2 SWAP1 POP JUMP JUMPDEST PUSH32 0x222C226465736372697074696F6E223A22000000000000000000000000000000 PUSH0 DUP3 ADD MSTORE POP JUMP JUMPDEST PUSH0 PUSH2 0x3D16 PUSH1 0x11 DUP4 PUSH2 0x3BF3 JUMP JUMPDEST SWAP2 POP PUSH2 0x3D21 DUP3 PUSH2 0x3CE2 JUMP JUMPDEST PUSH1 0x11 DUP3 ADD SWAP1 POP SWAP2 SWAP1 POP JUMP JUMPDEST PUSH32 0x222C22696D616765223A22000000000000000000000000000000000000000000 PUSH0 DUP3 ADD MSTORE POP JUMP JUMPDEST PUSH0 PUSH2 0x3D60 PUSH1 0xB DUP4 PUSH2 0x3BF3 JUMP JUMPDEST SWAP2 POP PUSH2 0x3D6B DUP3 PUSH2 0x3D2C JUMP JUMPDEST PUSH1 0xB DUP3 ADD SWAP1 POP SWAP2 SWAP1 POP JUMP JUMPDEST PUSH32 0x222C2261747472696275746573223A5B7B2274726169745F74797065223A2243 PUSH0 DUP3 ADD MSTORE PUSH32 0x616D706169676E222C2276616C7565223A224D53582047756964656420496E76 PUSH1 0x20 DUP3 ADD MSTORE PUSH32 0x657374696E6720487562227D2C7B2274726169745F74797065223A224E657477 PUSH1 0x40 DUP3 ADD MSTORE PUSH32 0x6F726B222C2276616C7565223A225365706F6C6961227D2C7B2274726169745F PUSH1 0x60 DUP3 ADD MSTORE PUSH32 0x74797065223A2242616467652054797065222C2276616C7565223A2200000000 PUSH1 0x80 DUP3 ADD MSTORE POP JUMP JUMPDEST PUSH0 PUSH2 0x3E42 PUSH1 0x9C DUP4 PUSH2 0x3BF3 JUMP JUMPDEST SWAP2 POP PUSH2 0x3E4D DUP3 PUSH2 0x3D76 JUMP JUMPDEST PUSH1 0x9C DUP3 ADD SWAP1 POP SWAP2 SWAP1 POP JUMP JUMPDEST PUSH32 0x227D2C7B2274726169745F74797065223A22537461747573222C2276616C7565 PUSH0 DUP3 ADD MSTORE PUSH32 0x223A22556E6C6F636B6564227D2C7B2274726169745F74797065223A22546F6B PUSH1 0x20 DUP3 ADD MSTORE PUSH32 0x656E204944222C2276616C7565223A2200000000000000000000000000000000 PUSH1 0x40 DUP3 ADD MSTORE POP JUMP JUMPDEST PUSH0 PUSH2 0x3ED8 PUSH1 0x50 DUP4 PUSH2 0x3BF3 JUMP JUMPDEST SWAP2 POP PUSH2 0x3EE3 DUP3 PUSH2 0x3E58 JUMP JUMPDEST PUSH1 0x50 DUP3 ADD SWAP1 POP SWAP2 SWAP1 POP JUMP JUMPDEST PUSH32 0x227D5D7D00000000000000000000000000000000000000000000000000000000 PUSH0 DUP3 ADD MSTORE POP JUMP JUMPDEST PUSH0 PUSH2 0x3F22 PUSH1 0x4 DUP4 PUSH2 0x3BF3 JUMP JUMPDEST SWAP2 POP PUSH2 0x3F2D DUP3 PUSH2 0x3EEE JUMP JUMPDEST PUSH1 0x4 DUP3 ADD SWAP1 POP SWAP2 SWAP1 POP JUMP JUMPDEST PUSH0 PUSH2 0x3F42 DUP3 PUSH2 0x3CC0 JUMP JUMPDEST SWAP2 POP PUSH2 0x3F4E DUP3 DUP9 PUSH2 0x3C47 JUMP JUMPDEST SWAP2 POP PUSH2 0x3F59 DUP3 PUSH2 0x3D0A JUMP JUMPDEST SWAP2 POP PUSH2 0x3F65 DUP3 DUP8 PUSH2 0x3C47 JUMP JUMPDEST SWAP2 POP PUSH2 0x3F70 DUP3 PUSH2 0x3D54 JUMP JUMPDEST SWAP2 POP PUSH2 0x3F7C DUP3 DUP7 PUSH2 0x3C47 JUMP JUMPDEST SWAP2 POP PUSH2 0x3F87 DUP3 PUSH2 0x3E36 JUMP JUMPDEST SWAP2 POP PUSH2 0x3F93 DUP3 DUP6 PUSH2 0x3C47 JUMP JUMPDEST SWAP2 POP PUSH2 0x3F9E DUP3 PUSH2 0x3ECC JUMP JUMPDEST SWAP2 POP PUSH2 0x3FAA DUP3 DUP5 PUSH2 0x3C47 JUMP JUMPDEST SWAP2 POP PUSH2 0x3FB5 DUP3 PUSH2 0x3F16 JUMP JUMPDEST SWAP2 POP DUP2 SWAP1 POP SWAP7 SWAP6 POP POP POP POP POP POP JUMP JUMPDEST PUSH32 0x646174613A6170706C69636174696F6E2F6A736F6E3B6261736536342C000000 PUSH0 DUP3 ADD MSTORE POP JUMP JUMPDEST PUSH0 PUSH2 0x3FF8 PUSH1 0x1D DUP4 PUSH2 0x3BF3 JUMP JUMPDEST SWAP2 POP PUSH2 0x4003 DUP3 PUSH2 0x3FC4 JUMP JUMPDEST PUSH1 0x1D DUP3 ADD SWAP1 POP SWAP2 SWAP1 POP JUMP JUMPDEST PUSH0 PUSH2 0x4018 DUP3 PUSH2 0x3FEC JUMP JUMPDEST SWAP2 POP PUSH2 0x4024 DUP3 DUP5 PUSH2 0x3C47 JUMP JUMPDEST SWAP2 POP DUP2 SWAP1 POP SWAP3 SWAP2 POP POP JUMP JUMPDEST PUSH32 0x4F776E61626C653A206E6577206F776E657220697320746865207A65726F2061 PUSH0 DUP3 ADD MSTORE PUSH32 0x6464726573730000000000000000000000000000000000000000000000000000 PUSH1 0x20 DUP3 ADD MSTORE POP JUMP JUMPDEST PUSH0 PUSH2 0x4089 PUSH1 0x26 DUP4 PUSH2 0x3237 JUMP JUMPDEST SWAP2 POP PUSH2 0x4094 DUP3 PUSH2 0x402F JUMP JUMPDEST PUSH1 0x40 DUP3 ADD SWAP1 POP SWAP2 SWAP1 POP JUMP JUMPDEST PUSH0 PUSH1 0x20 DUP3 ADD SWAP1 POP DUP2 DUP2 SUB PUSH0 DUP4 ADD MSTORE PUSH2 0x40B6 DUP2 PUSH2 0x407D JUMP JUMPDEST SWAP1 POP SWAP2 SWAP1 POP JUMP JUMPDEST PUSH32 0x4552433732313A207472616E736665722066726F6D20696E636F727265637420 PUSH0 DUP3 ADD MSTORE PUSH32 0x6F776E6572000000000000000000000000000000000000000000000000000000 PUSH1 0x20 DUP3 ADD MSTORE POP JUMP JUMPDEST PUSH0 PUSH2 0x4117 PUSH1 0x25 DUP4 PUSH2 0x3237 JUMP JUMPDEST SWAP2 POP PUSH2 0x4122 DUP3 PUSH2 0x40BD JUMP JUMPDEST PUSH1 0x40 DUP3 ADD SWAP1 POP SWAP2 SWAP1 POP JUMP JUMPDEST PUSH0 PUSH1 0x20 DUP3 ADD SWAP1 POP DUP2 DUP2 SUB PUSH0 DUP4 ADD MSTORE PUSH2 0x4144 DUP2 PUSH2 0x410B JUMP JUMPDEST SWAP1 POP SWAP2 SWAP1 POP JUMP JUMPDEST PUSH32 0x4552433732313A207472616E7366657220746F20746865207A65726F20616464 PUSH0 DUP3 ADD MSTORE PUSH32 0x7265737300000000000000000000000000000000000000000000000000000000 PUSH1 0x20 DUP3 ADD MSTORE POP JUMP JUMPDEST PUSH0 PUSH2 0x41A5 PUSH1 0x24 DUP4 PUSH2 0x3237 JUMP JUMPDEST SWAP2 POP PUSH2 0x41B0 DUP3 PUSH2 0x414B JUMP JUMPDEST PUSH1 0x40 DUP3 ADD SWAP1 POP SWAP2 SWAP1 POP JUMP JUMPDEST PUSH0 PUSH1 0x20 DUP3 ADD SWAP1 POP DUP2 DUP2 SUB PUSH0 DUP4 ADD MSTORE PUSH2 0x41D2 DUP2 PUSH2 0x4199 JUMP JUMPDEST SWAP1 POP SWAP2 SWAP1 POP JUMP JUMPDEST PUSH32 0x4F776E61626C653A2063616C6C6572206973206E6F7420746865206F776E6572 PUSH0 DUP3 ADD MSTORE POP JUMP JUMPDEST PUSH0 PUSH2 0x420D PUSH1 0x20 DUP4 PUSH2 0x3237 JUMP JUMPDEST SWAP2 POP PUSH2 0x4218 DUP3 PUSH2 0x41D9 JUMP JUMPDEST PUSH1 0x20 DUP3 ADD SWAP1 POP SWAP2 SWAP1 POP JUMP JUMPDEST PUSH0 PUSH1 0x20 DUP3 ADD SWAP1 POP DUP2 DUP2 SUB PUSH0 DUP4 ADD MSTORE PUSH2 0x423A DUP2 PUSH2 0x4201 JUMP JUMPDEST SWAP1 POP SWAP2 SWAP1 POP JUMP JUMPDEST PUSH32 0x4552433732313A20617070726F766520746F2063616C6C657200000000000000 PUSH0 DUP3 ADD MSTORE POP JUMP JUMPDEST PUSH0 PUSH2 0x4275 PUSH1 0x19 DUP4 PUSH2 0x3237 JUMP JUMPDEST SWAP2 POP PUSH2 0x4280 DUP3 PUSH2 0x4241 JUMP JUMPDEST PUSH1 0x20 DUP3 ADD SWAP1 POP SWAP2 SWAP1 POP JUMP JUMPDEST PUSH0 PUSH1 0x20 DUP3 ADD SWAP1 POP DUP2 DUP2 SUB PUSH0 DUP4 ADD MSTORE PUSH2 0x42A2 DUP2 PUSH2 0x4269 JUMP JUMPDEST SWAP1 POP SWAP2 SWAP1 POP JUMP JUMPDEST PUSH32 0x4552433732313A207472616E7366657220746F206E6F6E204552433732315265 PUSH0 DUP3 ADD MSTORE PUSH32 0x63656976657220696D706C656D656E7465720000000000000000000000000000 PUSH1 0x20 DUP3 ADD MSTORE POP JUMP JUMPDEST PUSH0 PUSH2 0x4303 PUSH1 0x32 DUP4 PUSH2 0x3237 JUMP JUMPDEST SWAP2 POP PUSH2 0x430E DUP3 PUSH2 0x42A9 JUMP JUMPDEST PUSH1 0x40 DUP3 ADD SWAP1 POP SWAP2 SWAP1 POP JUMP JUMPDEST PUSH0 PUSH1 0x20 DUP3 ADD SWAP1 POP DUP2 DUP2 SUB PUSH0 DUP4 ADD MSTORE PUSH2 0x4330 DUP2 PUSH2 0x42F7 JUMP JUMPDEST SWAP1 POP SWAP2 SWAP1 POP JUMP JUMPDEST PUSH32 0x3C7376672077696474683D223132303022206865696768743D22313230302220 PUSH0 DUP3 ADD MSTORE PUSH32 0x76696577426F783D2230203020313230302031323030222066696C6C3D226E6F PUSH1 0x20 DUP3 ADD MSTORE PUSH32 0x6E652220786D6C6E733D22687474703A2F2F7777772E77332E6F72672F323030 PUSH1 0x40 DUP3 ADD MSTORE PUSH32 0x302F737667223E00000000000000000000000000000000000000000000000000 PUSH1 0x60 DUP3 ADD MSTORE POP JUMP JUMPDEST PUSH0 PUSH2 0x43DD PUSH1 0x67 DUP4 PUSH2 0x3BF3 JUMP JUMPDEST SWAP2 POP PUSH2 0x43E8 DUP3 PUSH2 0x4337 JUMP JUMPDEST PUSH1 0x67 DUP3 ADD SWAP1 POP SWAP2 SWAP1 POP JUMP JUMPDEST PUSH32 0x3C646566733E3C6C696E6561724772616469656E742069643D22626722207831 PUSH0 DUP3 ADD MSTORE PUSH32 0x3D223634222079313D223430222078323D2231313034222079323D2231313436 PUSH1 0x20 DUP3 ADD MSTORE PUSH32 0x22206772616469656E74556E6974733D227573657253706163654F6E55736522 PUSH1 0x40 DUP3 ADD MSTORE PUSH32 0x3E3C73746F702073746F702D636F6C6F723D2223324134333145222F3E3C7374 PUSH1 0x60 DUP3 ADD MSTORE PUSH32 0x6F70206F66667365743D22302E3335222073746F702D636F6C6F723D22233045 PUSH1 0x80 DUP3 ADD MSTORE PUSH32 0x31373232222F3E3C73746F70206F66667365743D2231222073746F702D636F6C PUSH1 0xA0 DUP3 ADD MSTORE PUSH32 0x6F723D2223313733413346222F3E3C2F6C696E6561724772616469656E743E00 PUSH1 0xC0 DUP3 ADD MSTORE POP JUMP JUMPDEST PUSH0 PUSH2 0x450B PUSH1 0xDF DUP4 PUSH2 0x3BF3 JUMP JUMPDEST SWAP2 POP PUSH2 0x4516 DUP3 PUSH2 0x43F3 JUMP JUMPDEST PUSH1 0xDF DUP3 ADD SWAP1 POP SWAP2 SWAP1 POP JUMP JUMPDEST PUSH32 0x3C72616469616C4772616469656E742069643D22676C6F77222063783D223022 PUSH0 DUP3 ADD MSTORE PUSH32 0x2063793D22302220723D223122206772616469656E74556E6974733D22757365 PUSH1 0x20 DUP3 ADD MSTORE PUSH32 0x7253706163654F6E55736522206772616469656E745472616E73666F726D3D22 PUSH1 0x40 DUP3 ADD MSTORE PUSH32 0x7472616E736C61746528323230203231302920726F7461746528343729207363 PUSH1 0x60 DUP3 ADD MSTORE PUSH32 0x616C65283336302033363029223E3C73746F702073746F702D636F6C6F723D22 PUSH1 0x80 DUP3 ADD MSTORE POP JUMP JUMPDEST PUSH0 PUSH2 0x45ED PUSH1 0xA0 DUP4 PUSH2 0x3BF3 JUMP JUMPDEST SWAP2 POP PUSH2 0x45F8 DUP3 PUSH2 0x4521 JUMP JUMPDEST PUSH1 0xA0 DUP3 ADD SWAP1 POP SWAP2 SWAP1 POP JUMP JUMPDEST PUSH32 0x222073746F702D6F7061636974793D22302E35222F3E3C73746F70206F666673 PUSH0 DUP3 ADD MSTORE PUSH32 0x65743D2231222073746F702D636F6C6F723D2200000000000000000000000000 PUSH1 0x20 DUP3 ADD MSTORE POP JUMP JUMPDEST PUSH0 PUSH2 0x465D PUSH1 0x33 DUP4 PUSH2 0x3BF3 JUMP JUMPDEST SWAP2 POP PUSH2 0x4668 DUP3 PUSH2 0x4603 JUMP JUMPDEST PUSH1 0x33 DUP3 ADD SWAP1 POP SWAP2 SWAP1 POP JUMP JUMPDEST PUSH32 0x222073746F702D6F7061636974793D2230222F3E3C2F72616469616C47726164 PUSH0 DUP3 ADD MSTORE PUSH32 0x69656E743E000000000000000000000000000000000000000000000000000000 PUSH1 0x20 DUP3 ADD MSTORE POP JUMP JUMPDEST PUSH0 PUSH2 0x46CD PUSH1 0x25 DUP4 PUSH2 0x3BF3 JUMP JUMPDEST SWAP2 POP PUSH2 0x46D8 DUP3 PUSH2 0x4673 JUMP JUMPDEST PUSH1 0x25 DUP3 ADD SWAP1 POP SWAP2 SWAP1 POP JUMP JUMPDEST PUSH32 0x3C6C696E6561724772616469656E742069643D2265646765222078313D223936 PUSH0 DUP3 ADD MSTORE PUSH32 0x222079313D223936222078323D2231313034222079323D223131303422206772 PUSH1 0x20 DUP3 ADD MSTORE PUSH32 0x616469656E74556E6974733D227573657253706163654F6E557365223E3C7374 PUSH1 0x40 DUP3 ADD MSTORE PUSH32 0x6F702073746F702D636F6C6F723D220000000000000000000000000000000000 PUSH1 0x60 DUP3 ADD MSTORE POP JUMP JUMPDEST PUSH0 PUSH2 0x4789 PUSH1 0x6F DUP4 PUSH2 0x3BF3 JUMP JUMPDEST SWAP2 POP PUSH2 0x4794 DUP3 PUSH2 0x46E3 JUMP JUMPDEST PUSH1 0x6F DUP3 ADD SWAP1 POP SWAP2 SWAP1 POP JUMP JUMPDEST PUSH32 0x222073746F702D6F7061636974793D22302E3238222F3E3C73746F70206F6666 PUSH0 DUP3 ADD MSTORE PUSH32 0x7365743D2231222073746F702D636F6C6F723D22000000000000000000000000 PUSH1 0x20 DUP3 ADD MSTORE POP JUMP JUMPDEST PUSH0 PUSH2 0x47F9 PUSH1 0x34 DUP4 PUSH2 0x3BF3 JUMP JUMPDEST SWAP2 POP PUSH2 0x4804 DUP3 PUSH2 0x479F JUMP JUMPDEST PUSH1 0x34 DUP3 ADD SWAP1 POP SWAP2 SWAP1 POP JUMP JUMPDEST PUSH32 0x222073746F702D6F7061636974793D22302E3136222F3E3C2F6C696E65617247 PUSH0 DUP3 ADD MSTORE PUSH32 0x72616469656E743E3C2F646566733E0000000000000000000000000000000000 PUSH1 0x20 DUP3 ADD MSTORE POP JUMP JUMPDEST PUSH0 PUSH2 0x4869 PUSH1 0x2F DUP4 PUSH2 0x3BF3 JUMP JUMPDEST SWAP2 POP PUSH2 0x4874 DUP3 PUSH2 0x480F JUMP JUMPDEST PUSH1 0x2F DUP3 ADD SWAP1 POP SWAP2 SWAP1 POP JUMP JUMPDEST PUSH32 0x3C726563742077696474683D223132303022206865696768743D223132303022 PUSH0 DUP3 ADD MSTORE PUSH32 0x2072783D223732222066696C6C3D2223304331333230222F3E3C726563742078 PUSH1 0x20 DUP3 ADD MSTORE PUSH32 0x3D2235322220793D223532222077696474683D22313039362220686569676874 PUSH1 0x40 DUP3 ADD MSTORE PUSH32 0x3D2231303936222072783D223438222066696C6C3D2275726C28236267292220 PUSH1 0x60 DUP3 ADD MSTORE PUSH32 0x7374726F6B653D2275726C2823656467652922207374726F6B652D7769647468 PUSH1 0x80 DUP3 ADD MSTORE PUSH32 0x3D2232222F3E0000000000000000000000000000000000000000000000000000 PUSH1 0xA0 DUP3 ADD MSTORE POP JUMP JUMPDEST PUSH0 PUSH2 0x4971 PUSH1 0xA6 DUP4 PUSH2 0x3BF3 JUMP JUMPDEST SWAP2 POP PUSH2 0x497C DUP3 PUSH2 0x487F JUMP JUMPDEST PUSH1 0xA6 DUP3 ADD SWAP1 POP SWAP2 SWAP1 POP JUMP JUMPDEST PUSH32 0x3C636972636C652063783D22323230222063793D223231302220723D22333230 PUSH0 DUP3 ADD MSTORE PUSH32 0x222066696C6C3D2275726C2823676C6F7729222F3E0000000000000000000000 PUSH1 0x20 DUP3 ADD MSTORE POP JUMP JUMPDEST PUSH0 PUSH2 0x49E1 PUSH1 0x35 DUP4 PUSH2 0x3BF3 JUMP JUMPDEST SWAP2 POP PUSH2 0x49EC DUP3 PUSH2 0x4987 JUMP JUMPDEST PUSH1 0x35 DUP3 ADD SWAP1 POP SWAP2 SWAP1 POP JUMP JUMPDEST PUSH32 0x3C67206F7061636974793D22302E3122207374726F6B653D2223384541304237 PUSH0 DUP3 ADD MSTORE PUSH32 0x223E3C7061746820643D224D31323020305631323030222F3E3C706174682064 PUSH1 0x20 DUP3 ADD MSTORE PUSH32 0x3D224D32343020305631323030222F3E3C7061746820643D224D333630203056 PUSH1 0x40 DUP3 ADD MSTORE PUSH32 0x31323030222F3E3C7061746820643D224D34383020305631323030222F3E3C70 PUSH1 0x60 DUP3 ADD MSTORE PUSH32 0x61746820643D224D36303020305631323030222F3E3C7061746820643D224D37 PUSH1 0x80 DUP3 ADD MSTORE PUSH32 0x323020305631323030222F3E3C7061746820643D224D38343020305631323030 PUSH1 0xA0 DUP3 ADD MSTORE PUSH32 0x222F3E3C7061746820643D224D39363020305631323030222F3E3C7061746820 PUSH1 0xC0 DUP3 ADD MSTORE PUSH32 0x643D224D3130383020305631323030222F3E3C7061746820643D224D30203132 PUSH1 0xE0 DUP3 ADD MSTORE PUSH32 0x304831323030222F3E3C7061746820643D224D30203234304831323030222F3E PUSH2 0x100 DUP3 ADD MSTORE PUSH32 0x3C7061746820643D224D30203336304831323030222F3E3C7061746820643D22 PUSH2 0x120 DUP3 ADD MSTORE PUSH32 0x4D30203438304831323030222F3E3C7061746820643D224D3020363030483132 PUSH2 0x140 DUP3 ADD MSTORE PUSH32 0x3030222F3E3C7061746820643D224D30203732304831323030222F3E3C706174 PUSH2 0x160 DUP3 ADD MSTORE PUSH32 0x6820643D224D30203834304831323030222F3E3C7061746820643D224D302039 PUSH2 0x180 DUP3 ADD MSTORE PUSH32 0x36304831323030222F3E3C7061746820643D224D302031303830483132303022 PUSH2 0x1A0 DUP3 ADD MSTORE PUSH32 0x2F3E3C2F673E0000000000000000000000000000000000000000000000000000 PUSH2 0x1C0 DUP3 ADD MSTORE POP JUMP JUMPDEST PUSH0 PUSH2 0x4C47 PUSH2 0x1C6 DUP4 PUSH2 0x3BF3 JUMP JUMPDEST SWAP2 POP PUSH2 0x4C52 DUP3 PUSH2 0x49F7 JUMP JUMPDEST PUSH2 0x1C6 DUP3 ADD SWAP1 POP SWAP2 SWAP1 POP JUMP JUMPDEST PUSH32 0x3C636972636C652063783D22313232222063793D223132322220723D22313622 PUSH0 DUP3 ADD MSTORE PUSH32 0x2066696C6C3D2200000000000000000000000000000000000000000000000000 PUSH1 0x20 DUP3 ADD MSTORE POP JUMP JUMPDEST PUSH0 PUSH2 0x4CB8 PUSH1 0x27 DUP4 PUSH2 0x3BF3 JUMP JUMPDEST SWAP2 POP PUSH2 0x4CC3 DUP3 PUSH2 0x4C5E JUMP JUMPDEST PUSH1 0x27 DUP3 ADD SWAP1 POP SWAP2 SWAP1 POP JUMP JUMPDEST PUSH32 0x222F3E3C7465787420783D223135342220793D22313332222066696C6C3D2200 PUSH0 DUP3 ADD MSTORE POP JUMP JUMPDEST PUSH0 PUSH2 0x4D02 PUSH1 0x1F DUP4 PUSH2 0x3BF3 JUMP JUMPDEST SWAP2 POP PUSH2 0x4D0D DUP3 PUSH2 0x4CCE JUMP JUMPDEST PUSH1 0x1F DUP3 ADD SWAP1 POP SWAP2 SWAP1 POP JUMP JUMPDEST PUSH32 0x2220666F6E742D73697A653D2232342220666F6E742D7765696768743D223830 PUSH0 DUP3 ADD MSTORE PUSH32 0x302220666F6E742D66616D696C793D22417269616C2C2073616E732D73657269 PUSH1 0x20 DUP3 ADD MSTORE PUSH32 0x6622206C65747465722D73706163696E673D2232223E00000000000000000000 PUSH1 0x40 DUP3 ADD MSTORE POP JUMP JUMPDEST PUSH0 PUSH2 0x4D98 PUSH1 0x56 DUP4 PUSH2 0x3BF3 JUMP JUMPDEST SWAP2 POP PUSH2 0x4DA3 DUP3 PUSH2 0x4D18 JUMP JUMPDEST PUSH1 0x56 DUP3 ADD SWAP1 POP SWAP2 SWAP1 POP JUMP JUMPDEST PUSH32 0x3C2F746578743E00000000000000000000000000000000000000000000000000 PUSH0 DUP3 ADD MSTORE POP JUMP JUMPDEST PUSH0 PUSH2 0x4DE2 PUSH1 0x7 DUP4 PUSH2 0x3BF3 JUMP JUMPDEST SWAP2 POP PUSH2 0x4DED DUP3 PUSH2 0x4DAE JUMP JUMPDEST PUSH1 0x7 DUP3 ADD SWAP1 POP SWAP2 SWAP1 POP JUMP JUMPDEST PUSH32 0x3C7465787420783D223131302220793D22343730222066696C6C3D2223463446 PUSH0 DUP3 ADD MSTORE PUSH32 0x3746422220666F6E742D73697A653D2236382220666F6E742D7765696768743D PUSH1 0x20 DUP3 ADD MSTORE PUSH32 0x223930302220666F6E742D66616D696C793D22417269616C2C2073616E732D73 PUSH1 0x40 DUP3 ADD MSTORE PUSH32 0x65726966223E0000000000000000000000000000000000000000000000000000 PUSH1 0x60 DUP3 ADD MSTORE POP JUMP JUMPDEST PUSH0 PUSH2 0x4E9E PUSH1 0x66 DUP4 PUSH2 0x3BF3 JUMP JUMPDEST SWAP2 POP PUSH2 0x4EA9 DUP3 PUSH2 0x4DF8 JUMP JUMPDEST PUSH1 0x66 DUP3 ADD SWAP1 POP SWAP2 SWAP1 POP JUMP JUMPDEST PUSH32 0x3C7465787420783D223131302220793D22353438222066696C6C3D2223463446 PUSH0 DUP3 ADD MSTORE PUSH32 0x3746422220666F6E742D73697A653D2236382220666F6E742D7765696768743D PUSH1 0x20 DUP3 ADD MSTORE PUSH32 0x223930302220666F6E742D66616D696C793D22417269616C2C2073616E732D73 PUSH1 0x40 DUP3 ADD MSTORE PUSH32 0x65726966223E0000000000000000000000000000000000000000000000000000 PUSH1 0x60 DUP3 ADD MSTORE POP JUMP JUMPDEST PUSH0 PUSH2 0x4F5A PUSH1 0x66 DUP4 PUSH2 0x3BF3 JUMP JUMPDEST SWAP2 POP PUSH2 0x4F65 DUP3 PUSH2 0x4EB4 JUMP JUMPDEST PUSH1 0x66 DUP3 ADD SWAP1 POP SWAP2 SWAP1 POP JUMP JUMPDEST PUSH32 0x3C7465787420783D223131302220793D22363534222066696C6C3D2223394642 PUSH0 DUP3 ADD MSTORE PUSH32 0x3043342220666F6E742D73697A653D2232382220666F6E742D7765696768743D PUSH1 0x20 DUP3 ADD MSTORE PUSH32 0x223530302220666F6E742D66616D696C793D22417269616C2C2073616E732D73 PUSH1 0x40 DUP3 ADD MSTORE PUSH32 0x65726966223E0000000000000000000000000000000000000000000000000000 PUSH1 0x60 DUP3 ADD MSTORE POP JUMP JUMPDEST PUSH0 PUSH2 0x5016 PUSH1 0x66 DUP4 PUSH2 0x3BF3 JUMP JUMPDEST SWAP2 POP PUSH2 0x5021 DUP3 PUSH2 0x4F70 JUMP JUMPDEST PUSH1 0x66 DUP3 ADD SWAP1 POP SWAP2 SWAP1 POP JUMP JUMPDEST PUSH32 0x3C7465787420783D223131302220793D22363936222066696C6C3D2223394642 PUSH0 DUP3 ADD MSTORE PUSH32 0x3043342220666F6E742D73697A653D2232382220666F6E742D7765696768743D PUSH1 0x20 DUP3 ADD MSTORE PUSH32 0x223530302220666F6E742D66616D696C793D22417269616C2C2073616E732D73 PUSH1 0x40 DUP3 ADD MSTORE PUSH32 0x65726966223E0000000000000000000000000000000000000000000000000000 PUSH1 0x60 DUP3 ADD MSTORE POP JUMP JUMPDEST PUSH0 PUSH2 0x50D2 PUSH1 0x66 DUP4 PUSH2 0x3BF3 JUMP JUMPDEST SWAP2 POP PUSH2 0x50DD DUP3 PUSH2 0x502C JUMP JUMPDEST PUSH1 0x66 DUP3 ADD SWAP1 POP SWAP2 SWAP1 POP JUMP JUMPDEST PUSH32 0x3C7265637420783D223131302220793D22383436222077696474683D22313838 PUSH0 DUP3 ADD MSTORE PUSH32 0x22206865696768743D223538222072783D223239222066696C6C3D2272676261 PUSH1 0x20 DUP3 ADD MSTORE PUSH32 0x2831302C31382C32382C302E36322922207374726F6B653D2272676261283235 PUSH1 0x40 DUP3 ADD MSTORE PUSH32 0x352C3235352C3235352C302E313229222F3E3C7465787420783D223134322220 PUSH1 0x60 DUP3 ADD MSTORE PUSH32 0x793D22383833222066696C6C3D22234634463746422220666F6E742D73697A65 PUSH1 0x80 DUP3 ADD MSTORE PUSH32 0x3D2232322220666F6E742D7765696768743D223730302220666F6E742D66616D PUSH1 0xA0 DUP3 ADD MSTORE PUSH32 0x696C793D22417269616C2C2073616E732D7365726966223E5365706F6C696120 PUSH1 0xC0 DUP3 ADD MSTORE PUSH32 0x51756573743C2F746578743E0000000000000000000000000000000000000000 PUSH1 0xE0 DUP3 ADD MSTORE POP JUMP JUMPDEST PUSH0 PUSH2 0x5226 PUSH1 0xEC DUP4 PUSH2 0x3BF3 JUMP JUMPDEST SWAP2 POP PUSH2 0x5231 DUP3 PUSH2 0x50E8 JUMP JUMPDEST PUSH1 0xEC DUP3 ADD SWAP1 POP SWAP2 SWAP1 POP JUMP JUMPDEST PUSH32 0x3C2F7376673E0000000000000000000000000000000000000000000000000000 PUSH0 DUP3 ADD MSTORE POP JUMP JUMPDEST PUSH0 PUSH2 0x5270 PUSH1 0x6 DUP4 PUSH2 0x3BF3 JUMP JUMPDEST SWAP2 POP PUSH2 0x527B DUP3 PUSH2 0x523C JUMP JUMPDEST PUSH1 0x6 DUP3 ADD SWAP1 POP SWAP2 SWAP1 POP JUMP JUMPDEST PUSH0 PUSH2 0x5290 DUP3 PUSH2 0x43D1 JUMP JUMPDEST SWAP2 POP PUSH2 0x529B DUP3 PUSH2 0x44FF JUMP JUMPDEST SWAP2 POP PUSH2 0x52A6 DUP3 PUSH2 0x45E1 JUMP JUMPDEST SWAP2 POP PUSH2 0x52B2 DUP3 DUP15 PUSH2 0x3C47 JUMP JUMPDEST SWAP2 POP PUSH2 0x52BD DUP3 PUSH2 0x4651 JUMP JUMPDEST SWAP2 POP PUSH2 0x52C9 DUP3 DUP14 PUSH2 0x3C47 JUMP JUMPDEST SWAP2 POP PUSH2 0x52D4 DUP3 PUSH2 0x46C1 JUMP JUMPDEST SWAP2 POP PUSH2 0x52DF DUP3 PUSH2 0x477D JUMP JUMPDEST SWAP2 POP PUSH2 0x52EB DUP3 DUP13 PUSH2 0x3C47 JUMP JUMPDEST SWAP2 POP PUSH2 0x52F6 DUP3 PUSH2 0x47ED JUMP JUMPDEST SWAP2 POP PUSH2 0x5302 DUP3 DUP12 PUSH2 0x3C47 JUMP JUMPDEST SWAP2 POP PUSH2 0x530D DUP3 PUSH2 0x485D JUMP JUMPDEST SWAP2 POP PUSH2 0x5318 DUP3 PUSH2 0x4965 JUMP JUMPDEST SWAP2 POP PUSH2 0x5323 DUP3 PUSH2 0x49D5 JUMP JUMPDEST SWAP2 POP PUSH2 0x532E DUP3 PUSH2 0x4C3A JUMP JUMPDEST SWAP2 POP PUSH2 0x5339 DUP3 PUSH2 0x4CAC JUMP JUMPDEST SWAP2 POP PUSH2 0x5345 DUP3 DUP11 PUSH2 0x3C47 JUMP JUMPDEST SWAP2 POP PUSH2 0x5350 DUP3 PUSH2 0x4CF6 JUMP JUMPDEST SWAP2 POP PUSH2 0x535C DUP3 DUP10 PUSH2 0x3C47 JUMP JUMPDEST SWAP2 POP PUSH2 0x5367 DUP3 PUSH2 0x4D8C JUMP JUMPDEST SWAP2 POP PUSH2 0x5373 DUP3 DUP9 PUSH2 0x3C47 JUMP JUMPDEST SWAP2 POP PUSH2 0x537E DUP3 PUSH2 0x4DD6 JUMP JUMPDEST SWAP2 POP PUSH2 0x5389 DUP3 PUSH2 0x4E92 JUMP JUMPDEST SWAP2 POP PUSH2 0x5395 DUP3 DUP8 PUSH2 0x3C47 JUMP JUMPDEST SWAP2 POP PUSH2 0x53A0 DUP3 PUSH2 0x4DD6 JUMP JUMPDEST SWAP2 POP PUSH2 0x53AB DUP3 PUSH2 0x4F4E JUMP JUMPDEST SWAP2 POP PUSH2 0x53B7 DUP3 DUP7 PUSH2 0x3C47 JUMP JUMPDEST SWAP2 POP PUSH2 0x53C2 DUP3 PUSH2 0x4DD6 JUMP JUMPDEST SWAP2 POP PUSH2 0x53CD DUP3 PUSH2 0x500A JUMP JUMPDEST SWAP2 POP PUSH2 0x53D9 DUP3 DUP6 PUSH2 0x3C47 JUMP JUMPDEST SWAP2 POP PUSH2 0x53E4 DUP3 PUSH2 0x4DD6 JUMP JUMPDEST SWAP2 POP PUSH2 0x53EF DUP3 PUSH2 0x50C6 JUMP JUMPDEST SWAP2 POP PUSH2 0x53FB DUP3 DUP5 PUSH2 0x3C47 JUMP JUMPDEST SWAP2 POP PUSH2 0x5406 DUP3 PUSH2 0x4DD6 JUMP JUMPDEST SWAP2 POP PUSH2 0x5411 DUP3 PUSH2 0x521A JUMP JUMPDEST SWAP2 POP PUSH2 0x541C DUP3 PUSH2 0x5264 JUMP JUMPDEST SWAP2 POP DUP2 SWAP1 POP SWAP13 SWAP12 POP POP POP POP POP POP POP POP POP POP POP POP JUMP JUMPDEST PUSH32 0x4E487B7100000000000000000000000000000000000000000000000000000000 PUSH0 MSTORE PUSH1 0x12 PUSH1 0x4 MSTORE PUSH1 0x24 PUSH0 REVERT JUMPDEST PUSH0 PUSH2 0x5468 DUP3 PUSH2 0x32D7 JUMP JUMPDEST SWAP2 POP PUSH2 0x5473 DUP4 PUSH2 0x32D7 JUMP JUMPDEST SWAP3 POP DUP3 PUSH2 0x5483 JUMPI PUSH2 0x5482 PUSH2 0x5431 JUMP JUMPDEST JUMPDEST DUP3 DUP3 DIV SWAP1 POP SWAP3 SWAP2 POP POP JUMP JUMPDEST PUSH0 PUSH2 0x5498 DUP3 PUSH2 0x32D7 JUMP JUMPDEST SWAP2 POP PUSH2 0x54A3 DUP4 PUSH2 0x32D7 JUMP JUMPDEST SWAP3 POP DUP3 DUP3 MUL PUSH2 0x54B1 DUP2 PUSH2 0x32D7 JUMP JUMPDEST SWAP2 POP DUP3 DUP3 DIV DUP5 EQ DUP4 ISZERO OR PUSH2 0x54C8 JUMPI PUSH2 0x54C7 PUSH2 0x3B93 JUMP JUMPDEST JUMPDEST POP SWAP3 SWAP2 POP POP JUMP JUMPDEST PUSH0 DUP2 MLOAD SWAP1 POP SWAP2 SWAP1 POP JUMP JUMPDEST PUSH0 DUP3 DUP3 MSTORE PUSH1 0x20 DUP3 ADD SWAP1 POP SWAP3 SWAP2 POP POP JUMP JUMPDEST PUSH0 PUSH2 0x54F3 DUP3 PUSH2 0x54CF JUMP JUMPDEST PUSH2 0x54FD DUP2 DUP6 PUSH2 0x54D9 JUMP JUMPDEST SWAP4 POP PUSH2 0x550D DUP2 DUP6 PUSH1 0x20 DUP7 ADD PUSH2 0x3247 JUMP JUMPDEST PUSH2 0x5516 DUP2 PUSH2 0x326F JUMP JUMPDEST DUP5 ADD SWAP2 POP POP SWAP3 SWAP2 POP POP JUMP JUMPDEST PUSH0 PUSH1 0x80 DUP3 ADD SWAP1 POP PUSH2 0x5534 PUSH0 DUP4 ADD DUP8 PUSH2 0x3335 JUMP JUMPDEST PUSH2 0x5541 PUSH1 0x20 DUP4 ADD DUP7 PUSH2 0x3335 JUMP JUMPDEST PUSH2 0x554E PUSH1 0x40 DUP4 ADD DUP6 PUSH2 0x343E JUMP JUMPDEST DUP2 DUP2 SUB PUSH1 0x60 DUP4 ADD MSTORE PUSH2 0x5560 DUP2 DUP5 PUSH2 0x54E9 JUMP JUMPDEST SWAP1 POP SWAP6 SWAP5 POP POP POP POP POP JUMP JUMPDEST PUSH0 DUP2 MLOAD SWAP1 POP PUSH2 0x5579 DUP2 PUSH2 0x31D8 JUMP JUMPDEST SWAP3 SWAP2 POP POP JUMP JUMPDEST PUSH0 PUSH1 0x20 DUP3 DUP5 SUB SLT ISZERO PUSH2 0x5594 JUMPI PUSH2 0x5593 PUSH2 0x30A4 JUMP JUMPDEST JUMPDEST PUSH0 PUSH2 0x55A1 DUP5 DUP3 DUP6 ADD PUSH2 0x556B JUMP JUMPDEST SWAP2 POP POP SWAP3 SWAP2 POP POP JUMP JUMPDEST PUSH32 0x4552433732313A206D696E7420746F20746865207A65726F2061646472657373 PUSH0 DUP3 ADD MSTORE POP JUMP JUMPDEST PUSH0 PUSH2 0x55DE PUSH1 0x20 DUP4 PUSH2 0x3237 JUMP JUMPDEST SWAP2 POP PUSH2 0x55E9 DUP3 PUSH2 0x55AA JUMP JUMPDEST PUSH1 0x20 DUP3 ADD SWAP1 POP SWAP2 SWAP1 POP JUMP JUMPDEST PUSH0 PUSH1 0x20 DUP3 ADD SWAP1 POP DUP2 DUP2 SUB PUSH0 DUP4 ADD MSTORE PUSH2 0x560B DUP2 PUSH2 0x55D2 JUMP JUMPDEST SWAP1 POP SWAP2 SWAP1 POP JUMP JUMPDEST PUSH32 0x4552433732313A20746F6B656E20616C7265616479206D696E74656400000000 PUSH0 DUP3 ADD MSTORE POP JUMP JUMPDEST PUSH0 PUSH2 0x5646 PUSH1 0x1C DUP4 PUSH2 0x3237 JUMP JUMPDEST SWAP2 POP PUSH2 0x5651 DUP3 PUSH2 0x5612 JUMP JUMPDEST PUSH1 0x20 DUP3 ADD SWAP1 POP SWAP2 SWAP1 POP JUMP JUMPDEST PUSH0 PUSH1 0x20 DUP3 ADD SWAP1 POP DUP2 DUP2 SUB PUSH0 DUP4 ADD MSTORE PUSH2 0x5673 DUP2 PUSH2 0x563A JUMP JUMPDEST SWAP1 POP SWAP2 SWAP1 POP JUMP INVALID COINBASE KECCAK256 PUSH17 0x617065722D74726164696E67206D696C65 PUSH20 0x746F6E6520636F6C6C65637469626C6520666F72 KECCAK256 PUSH21 0x6865204D53582067756964656420696E7665737469 PUSH15 0x6720666C6F772E412077616C6C6574 0x2D PUSH4 0x6F6E6E65 PUSH4 0x74696F6E KECCAK256 PUSH4 0x6F6C6C65 PUSH4 0x7469626C PUSH6 0x20666F722074 PUSH9 0x65204D5358206F6E62 PUSH16 0x617264696E6720666C6F772E41207072 PUSH16 0x647563742D7175697A20636F6C6C6563 PUSH21 0x69626C6520666F7220746865204D53582067756964 PUSH6 0x6420696E7665 PUSH20 0x74696E6720666C6F772E4142434445464748494A 0x4B 0x4C 0x4D 0x4E 0x4F POP MLOAD MSTORE MSTORE8 SLOAD SSTORE JUMP JUMPI PC MSIZE GAS PUSH2 0x6263 PUSH5 0x6566676869 PUSH11 0x6B6C6D6E6F707172737475 PUSH23 0x7778797A303132333435363738392B2F41207269736B2D PUSH4 0x61726420 PUSH19 0x657669657720636F6C6C65637469626C652066 PUSH16 0x7220746865204D535820677569646564 KECCAK256 PUSH10 0x6E76657374696E672066 PUSH13 0x6F772E41205365706F6C696120 PUSH24 0x656C636F6D6520636F6C6C65637469626C6520666F722074 PUSH9 0x65204D535820477569 PUSH5 0x656420496E PUSH23 0x657374696E6720487562206F6E626F617264696E672066 PUSH13 0x6F772EA2646970667358221220 PREVRANDAO PUSH9 0x88A15328F1B3F0F191 0xB5 0x23 0x2A SWAP13 DUP4 DUP11 0x2C 0x2C 0xB0 0xE8 0xEC 0xB8 CALL POP SSTORE PUSH8 0x35653B675964736F PUSH13 0x63430008180033000000000000 "},"methodIdentifiers":{"BADGE_COUNT()":"4304f9a6","BADGE_PAPER()":"1cc6a906","BADGE_QUIZ()":"0ce1a02f","BADGE_RISK()":"59e0c9be","BADGE_WALLET()":"9ef94994","BADGE_WELCOME()":"bf68f848","approve(address,uint256)":"095ea7b3","balanceOf(address)":"70a08231","getApproved(uint256)":"081812fc","hasMinted(address)":"38e21cce","hasMintedBadge(address,uint8)":"01b4597d","hasMintedTask(address,uint8)":"6b3ce2f1","isApprovedForAll(address,address)":"e985e9c5","mintBadge(uint8,address)":"7206abbd","mintWelcomeBadge(address)":"52163337","name()":"06fdde03","nextTokenId()":"75794a3c","owner()":"8da5cb5b","ownerOf(uint256)":"6352211e","renounceOwnership()":"715018a6","safeTransferFrom(address,address,uint256)":"42842e0e","safeTransferFrom(address,address,uint256,bytes)":"b88d4fde","setApprovalForAll(address,bool)":"a22cb465","supportsInterface(bytes4)":"01ffc9a7","symbol()":"95d89b41","tokenBadgeType(uint256)":"8530a3bf","tokenURI(uint256)":"c87b56dd","transferFrom(address,address,uint256)":"23b872dd","transferOwnership(address)":"f2fde38b"}}}}}