{"project/contracts/MSXUnifiedDemoHub.sol":{"MSXUnifiedDemoHub":{"abi":[{"inputs":[{"internalType":"string","name":"baseUri","type":"string"}],"stateMutability":"nonpayable","type":"constructor"},{"anonymous":false,"inputs":[{"indexed":true,"internalType":"address","name":"account","type":"address"},{"indexed":true,"internalType":"uint256","name":"achievementId","type":"uint256"}],"name":"AchievementClaimed","type":"event"},{"anonymous":false,"inputs":[{"indexed":true,"internalType":"address","name":"account","type":"address"},{"indexed":true,"internalType":"address","name":"operator","type":"address"},{"indexed":false,"internalType":"bool","name":"approved","type":"bool"}],"name":"ApprovalForAll","type":"event"},{"anonymous":false,"inputs":[{"indexed":false,"internalType":"bytes32","name":"attestationRoot","type":"bytes32"},{"indexed":false,"internalType":"uint256","name":"timestamp","type":"uint256"}],"name":"AttestationUpdated","type":"event"},{"anonymous":false,"inputs":[{"indexed":true,"internalType":"address","name":"investor","type":"address"},{"indexed":false,"internalType":"bool","name":"allowed","type":"bool"},{"indexed":true,"internalType":"uint8","name":"tier","type":"uint8"}],"name":"InvestorEligibilityUpdated","type":"event"},{"anonymous":false,"inputs":[{"indexed":true,"internalType":"address","name":"renderer","type":"address"}],"name":"MetadataRendererUpdated","type":"event"},{"anonymous":false,"inputs":[{"indexed":false,"internalType":"uint256","name":"navBps","type":"uint256"},{"indexed":false,"internalType":"uint256","name":"timestamp","type":"uint256"}],"name":"NavUpdated","type":"event"},{"anonymous":false,"inputs":[{"indexed":true,"internalType":"address","name":"previousOwner","type":"address"},{"indexed":true,"internalType":"address","name":"newOwner","type":"address"}],"name":"OwnershipTransferred","type":"event"},{"anonymous":false,"inputs":[{"indexed":true,"internalType":"address","name":"account","type":"address"},{"indexed":true,"internalType":"uint256","name":"tokenId","type":"uint256"},{"indexed":false,"internalType":"string","name":"category","type":"string"},{"indexed":false,"internalType":"string","name":"submittedOn","type":"string"},{"indexed":false,"internalType":"int256","name":"returnBps","type":"int256"},{"indexed":false,"internalType":"uint256","name":"winRateBps","type":"uint256"},{"indexed":false,"internalType":"uint256","name":"maxDrawdownBps","type":"uint256"}],"name":"PaperLeaderboardCredentialMinted","type":"event"},{"anonymous":false,"inputs":[{"indexed":true,"internalType":"uint16","name":"productId","type":"uint16"},{"indexed":false,"internalType":"string","name":"detail","type":"string"}],"name":"ProductReceiptDetailUpdated","type":"event"},{"anonymous":false,"inputs":[{"indexed":true,"internalType":"uint16","name":"productId","type":"uint16"},{"indexed":false,"internalType":"string","name":"label","type":"string"}],"name":"ProductReceiptLabelUpdated","type":"event"},{"anonymous":false,"inputs":[{"indexed":true,"internalType":"uint16","name":"productId","type":"uint16"},{"indexed":false,"internalType":"string","name":"productType","type":"string"},{"indexed":false,"internalType":"string","name":"maturity","type":"string"}],"name":"ProductReceiptMetadataUpdated","type":"event"},{"anonymous":false,"inputs":[{"indexed":true,"internalType":"address","name":"investor","type":"address"},{"indexed":true,"internalType":"uint16","name":"productId","type":"uint16"},{"indexed":true,"internalType":"uint256","name":"tokenId","type":"uint256"},{"indexed":false,"internalType":"uint256","name":"shareAmount","type":"uint256"},{"indexed":false,"internalType":"uint256","name":"assetAmount","type":"uint256"}],"name":"ProductReceiptRedeemed","type":"event"},{"anonymous":false,"inputs":[{"indexed":true,"internalType":"address","name":"investor","type":"address"},{"indexed":true,"internalType":"uint16","name":"fromProductId","type":"uint16"},{"indexed":true,"internalType":"uint16","name":"toProductId","type":"uint16"},{"indexed":false,"internalType":"uint256","name":"burnAmount","type":"uint256"},{"indexed":false,"internalType":"uint256","name":"mintAmount","type":"uint256"}],"name":"ProductReceiptSettled","type":"event"},{"anonymous":false,"inputs":[{"indexed":true,"internalType":"address","name":"investor","type":"address"},{"indexed":true,"internalType":"uint16","name":"productId","type":"uint16"},{"indexed":true,"internalType":"uint256","name":"tokenId","type":"uint256"},{"indexed":false,"internalType":"uint256","name":"assetAmount","type":"uint256"},{"indexed":false,"internalType":"uint256","name":"shareAmount","type":"uint256"},{"indexed":false,"internalType":"uint256","name":"purchasedAt","type":"uint256"},{"indexed":false,"internalType":"string","name":"productDetail","type":"string"}],"name":"ProductReceiptSubscribed","type":"event"},{"anonymous":false,"inputs":[{"indexed":true,"internalType":"address","name":"investor","type":"address"},{"indexed":false,"internalType":"uint256","name":"shareAmount","type":"uint256"},{"indexed":false,"internalType":"uint256","name":"assetAmount","type":"uint256"}],"name":"Redeemed","type":"event"},{"anonymous":false,"inputs":[{"indexed":true,"internalType":"address","name":"account","type":"address"},{"indexed":false,"internalType":"int256","name":"netPnl","type":"int256"},{"indexed":false,"internalType":"uint256","name":"accountValue","type":"uint256"},{"indexed":false,"internalType":"uint256","name":"tradeCount","type":"uint256"},{"indexed":false,"internalType":"uint256","name":"submittedAt","type":"uint256"}],"name":"ReplayScoreSubmitted","type":"event"},{"anonymous":false,"inputs":[{"indexed":false,"internalType":"string","name":"status","type":"string"},{"indexed":false,"internalType":"uint256","name":"timestamp","type":"uint256"}],"name":"StrategyStatusUpdated","type":"event"},{"anonymous":false,"inputs":[{"indexed":true,"internalType":"address","name":"investor","type":"address"},{"indexed":false,"internalType":"uint256","name":"assetAmount","type":"uint256"},{"indexed":false,"internalType":"uint256","name":"shareAmount","type":"uint256"}],"name":"Subscribed","type":"event"},{"anonymous":false,"inputs":[{"indexed":true,"internalType":"address","name":"recipient","type":"address"},{"indexed":true,"internalType":"uint8","name":"badgeType","type":"uint8"},{"indexed":true,"internalType":"uint256","name":"tokenId","type":"uint256"}],"name":"TaskBadgeMinted","type":"event"},{"anonymous":false,"inputs":[{"indexed":true,"internalType":"address","name":"operator","type":"address"},{"indexed":true,"internalType":"address","name":"from","type":"address"},{"indexed":true,"internalType":"address","name":"to","type":"address"},{"indexed":false,"internalType":"uint256[]","name":"ids","type":"uint256[]"},{"indexed":false,"internalType":"uint256[]","name":"values","type":"uint256[]"}],"name":"TransferBatch","type":"event"},{"anonymous":false,"inputs":[{"indexed":true,"internalType":"address","name":"operator","type":"address"},{"indexed":true,"internalType":"address","name":"from","type":"address"},{"indexed":true,"internalType":"address","name":"to","type":"address"},{"indexed":false,"internalType":"uint256","name":"id","type":"uint256"},{"indexed":false,"internalType":"uint256","name":"value","type":"uint256"}],"name":"TransferSingle","type":"event"},{"anonymous":false,"inputs":[{"indexed":false,"internalType":"string","name":"value","type":"string"},{"indexed":true,"internalType":"uint256","name":"id","type":"uint256"}],"name":"URI","type":"event"},{"anonymous":false,"inputs":[{"indexed":true,"internalType":"bytes32","name":"assetHash","type":"bytes32"},{"indexed":false,"internalType":"bool","name":"passed","type":"bool"},{"indexed":false,"internalType":"string","name":"note","type":"string"}],"name":"UnderlyingReviewRecorded","type":"event"},{"anonymous":false,"inputs":[{"indexed":true,"internalType":"address","name":"account","type":"address"},{"indexed":true,"internalType":"uint16","name":"productId","type":"uint16"},{"indexed":true,"internalType":"uint256","name":"tokenId","type":"uint256"},{"indexed":false,"internalType":"uint256","name":"supportAmount","type":"uint256"},{"indexed":false,"internalType":"string","name":"pledgedOn","type":"string"}],"name":"WealthPledgeCredentialMinted","type":"event"},{"anonymous":false,"inputs":[{"indexed":true,"internalType":"address","name":"account","type":"address"},{"indexed":true,"internalType":"uint8","name":"taskId","type":"uint8"}],"name":"WealthTaskCompleted","type":"event"},{"anonymous":false,"inputs":[{"indexed":true,"internalType":"address","name":"account","type":"address"},{"indexed":true,"internalType":"uint8","name":"taskId","type":"uint8"},{"indexed":false,"internalType":"int256","name":"realizedPnl","type":"int256"},{"indexed":false,"internalType":"bytes32","name":"evidenceHash","type":"bytes32"}],"name":"WealthTaskEvidenceRecorded","type":"event"},{"inputs":[],"name":"ASSET_DECIMALS","outputs":[{"internalType":"uint8","name":"","type":"uint8"}],"stateMutability":"view","type":"function"},{"inputs":[],"name":"BPS","outputs":[{"internalType":"uint256","name":"","type":"uint256"}],"stateMutability":"view","type":"function"},{"inputs":[],"name":"DEFAULT_WEALTH_PRODUCT_ID","outputs":[{"internalType":"uint16","name":"","type":"uint16"}],"stateMutability":"view","type":"function"},{"inputs":[],"name":"HOME_PAPER","outputs":[{"internalType":"uint8","name":"","type":"uint8"}],"stateMutability":"view","type":"function"},{"inputs":[],"name":"HOME_QUIZ","outputs":[{"internalType":"uint8","name":"","type":"uint8"}],"stateMutability":"view","type":"function"},{"inputs":[],"name":"HOME_RISK","outputs":[{"internalType":"uint8","name":"","type":"uint8"}],"stateMutability":"view","type":"function"},{"inputs":[],"name":"HOME_WALLET","outputs":[{"internalType":"uint8","name":"","type":"uint8"}],"stateMutability":"view","type":"function"},{"inputs":[],"name":"HOME_WELCOME","outputs":[{"internalType":"uint8","name":"","type":"uint8"}],"stateMutability":"view","type":"function"},{"inputs":[],"name":"MAX_SCORE_SUBMISSIONS_PER_DAY","outputs":[{"internalType":"uint256","name":"","type":"uint256"}],"stateMutability":"view","type":"function"},{"inputs":[],"name":"PAPER_BASE_CHECK","outputs":[{"internalType":"uint256","name":"","type":"uint256"}],"stateMutability":"view","type":"function"},{"inputs":[],"name":"PAPER_LEADERBOARD","outputs":[{"internalType":"uint256","name":"","type":"uint256"}],"stateMutability":"view","type":"function"},{"inputs":[],"name":"PAPER_PERP_LEVERAGE","outputs":[{"internalType":"uint256","name":"","type":"uint256"}],"stateMutability":"view","type":"function"},{"inputs":[],"name":"PAPER_PROTECTIVE_HEDGE","outputs":[{"internalType":"uint256","name":"","type":"uint256"}],"stateMutability":"view","type":"function"},{"inputs":[],"name":"PAPER_SPOT_LOOP","outputs":[{"internalType":"uint256","name":"","type":"uint256"}],"stateMutability":"view","type":"function"},{"inputs":[],"name":"WEALTH_DUAL_PROFIT","outputs":[{"internalType":"uint8","name":"","type":"uint8"}],"stateMutability":"view","type":"function"},{"inputs":[],"name":"WEALTH_PLEDGE","outputs":[{"internalType":"uint8","name":"","type":"uint8"}],"stateMutability":"view","type":"function"},{"inputs":[],"name":"WEALTH_PROFITABLE_TRADE","outputs":[{"internalType":"uint8","name":"","type":"uint8"}],"stateMutability":"view","type":"function"},{"inputs":[{"internalType":"bytes32","name":"","type":"bytes32"}],"name":"approvedUnderlyingHash","outputs":[{"internalType":"bool","name":"","type":"bool"}],"stateMutability":"view","type":"function"},{"inputs":[],"name":"assetSymbol","outputs":[{"internalType":"string","name":"","type":"string"}],"stateMutability":"view","type":"function"},{"inputs":[{"internalType":"address","name":"account","type":"address"},{"internalType":"uint256","name":"id","type":"uint256"}],"name":"balanceOf","outputs":[{"internalType":"uint256","name":"","type":"uint256"}],"stateMutability":"view","type":"function"},{"inputs":[{"internalType":"address[]","name":"accounts","type":"address[]"},{"internalType":"uint256[]","name":"ids","type":"uint256[]"}],"name":"balanceOfBatch","outputs":[{"internalType":"uint256[]","name":"","type":"uint256[]"}],"stateMutability":"view","type":"function"},{"inputs":[{"internalType":"address","name":"investor","type":"address"}],"name":"canAccessAdvancedShelf","outputs":[{"internalType":"bool","name":"","type":"bool"}],"stateMutability":"view","type":"function"},{"inputs":[{"internalType":"uint256","name":"achievementId","type":"uint256"}],"name":"claim","outputs":[],"stateMutability":"nonpayable","type":"function"},{"inputs":[{"internalType":"uint256[]","name":"achievementIds","type":"uint256[]"}],"name":"claimBatch","outputs":[],"stateMutability":"nonpayable","type":"function"},{"inputs":[{"internalType":"address","name":"","type":"address"}],"name":"eligibleInvestor","outputs":[{"internalType":"bool","name":"","type":"bool"}],"stateMutability":"view","type":"function"},{"inputs":[{"internalType":"address","name":"holder","type":"address"}],"name":"hasMinted","outputs":[{"internalType":"bool","name":"","type":"bool"}],"stateMutability":"view","type":"function"},{"inputs":[{"internalType":"address","name":"","type":"address"},{"internalType":"uint8","name":"","type":"uint8"}],"name":"hasMintedBadge","outputs":[{"internalType":"bool","name":"","type":"bool"}],"stateMutability":"view","type":"function"},{"inputs":[{"internalType":"address","name":"holder","type":"address"},{"internalType":"uint8","name":"badgeType","type":"uint8"}],"name":"hasMintedTask","outputs":[{"internalType":"bool","name":"","type":"bool"}],"stateMutability":"view","type":"function"},{"inputs":[{"internalType":"address","name":"","type":"address"}],"name":"hasSubmittedScore","outputs":[{"internalType":"bool","name":"","type":"bool"}],"stateMutability":"view","type":"function"},{"inputs":[{"internalType":"address","name":"holder","type":"address"},{"internalType":"uint8","name":"taskId","type":"uint8"}],"name":"hasWealthTask","outputs":[{"internalType":"bool","name":"","type":"bool"}],"stateMutability":"view","type":"function"},{"inputs":[{"internalType":"address","name":"account","type":"address"},{"internalType":"address","name":"operator","type":"address"}],"name":"isApprovedForAll","outputs":[{"internalType":"bool","name":"","type":"bool"}],"stateMutability":"view","type":"function"},{"inputs":[],"name":"lastAttestedAt","outputs":[{"internalType":"uint256","name":"","type":"uint256"}],"stateMutability":"view","type":"function"},{"inputs":[],"name":"latestAttestationRoot","outputs":[{"internalType":"bytes32","name":"","type":"bytes32"}],"stateMutability":"view","type":"function"},{"inputs":[{"internalType":"uint16","name":"productId","type":"uint16"},{"internalType":"uint256","name":"supportAmount","type":"uint256"},{"internalType":"string","name":"pledgedOn","type":"string"},{"internalType":"bytes32","name":"evidenceHash","type":"bytes32"}],"name":"markWealthPledgeWithEvidence","outputs":[{"internalType":"uint256","name":"tokenId","type":"uint256"}],"stateMutability":"nonpayable","type":"function"},{"inputs":[{"internalType":"uint8","name":"taskId","type":"uint8"}],"name":"markWealthTask","outputs":[],"stateMutability":"nonpayable","type":"function"},{"inputs":[{"internalType":"uint8","name":"taskId","type":"uint8"},{"internalType":"int256","name":"realizedPnl","type":"int256"},{"internalType":"bytes32","name":"evidenceHash","type":"bytes32"}],"name":"markWealthTaskWithEvidence","outputs":[],"stateMutability":"nonpayable","type":"function"},{"inputs":[],"name":"metadataRenderer","outputs":[{"internalType":"address","name":"","type":"address"}],"stateMutability":"view","type":"function"},{"inputs":[],"name":"minSubscription","outputs":[{"internalType":"uint256","name":"","type":"uint256"}],"stateMutability":"view","type":"function"},{"inputs":[{"internalType":"uint8","name":"badgeType","type":"uint8"},{"internalType":"address","name":"to","type":"address"}],"name":"mintBadge","outputs":[{"internalType":"uint256","name":"tokenId","type":"uint256"}],"stateMutability":"nonpayable","type":"function"},{"inputs":[{"internalType":"string","name":"category","type":"string"},{"internalType":"string","name":"submittedOn","type":"string"},{"internalType":"int256","name":"returnBps","type":"int256"},{"internalType":"uint256","name":"winRateBps","type":"uint256"},{"internalType":"uint256","name":"maxDrawdownBps","type":"uint256"}],"name":"mintPaperLeaderboardCredential","outputs":[{"internalType":"uint256","name":"tokenId","type":"uint256"}],"stateMutability":"nonpayable","type":"function"},{"inputs":[{"internalType":"address","name":"to","type":"address"}],"name":"mintWelcomeBadge","outputs":[{"internalType":"uint256","name":"tokenId","type":"uint256"}],"stateMutability":"nonpayable","type":"function"},{"inputs":[],"name":"navBps","outputs":[{"internalType":"uint256","name":"","type":"uint256"}],"stateMutability":"view","type":"function"},{"inputs":[],"name":"nextHomeTokenId","outputs":[{"internalType":"uint256","name":"","type":"uint256"}],"stateMutability":"view","type":"function"},{"inputs":[],"name":"nextPaperLeaderboardCredentialTokenId","outputs":[{"internalType":"uint256","name":"","type":"uint256"}],"stateMutability":"view","type":"function"},{"inputs":[],"name":"nextWealthPledgeCredentialTokenId","outputs":[{"internalType":"uint256","name":"","type":"uint256"}],"stateMutability":"view","type":"function"},{"inputs":[],"name":"owner","outputs":[{"internalType":"address","name":"","type":"address"}],"stateMutability":"view","type":"function"},{"inputs":[{"internalType":"address","name":"","type":"address"},{"internalType":"uint256","name":"","type":"uint256"}],"name":"paperLeaderboardCredentialMintsByDay","outputs":[{"internalType":"uint256","name":"","type":"uint256"}],"stateMutability":"view","type":"function"},{"inputs":[{"internalType":"uint256","name":"","type":"uint256"}],"name":"paperLeaderboardCredentialOf","outputs":[{"internalType":"address","name":"account","type":"address"},{"internalType":"string","name":"category","type":"string"},{"internalType":"string","name":"submittedOn","type":"string"},{"internalType":"int256","name":"returnBps","type":"int256"},{"internalType":"uint256","name":"winRateBps","type":"uint256"},{"internalType":"uint256","name":"maxDrawdownBps","type":"uint256"}],"stateMutability":"view","type":"function"},{"inputs":[{"internalType":"uint256","name":"shareAmount","type":"uint256"}],"name":"previewAssets","outputs":[{"internalType":"uint256","name":"","type":"uint256"}],"stateMutability":"view","type":"function"},{"inputs":[{"internalType":"uint256","name":"assetAmount","type":"uint256"}],"name":"previewShares","outputs":[{"internalType":"uint256","name":"","type":"uint256"}],"stateMutability":"view","type":"function"},{"inputs":[{"internalType":"uint16","name":"","type":"uint16"}],"name":"productReceiptDetail","outputs":[{"internalType":"string","name":"","type":"string"}],"stateMutability":"view","type":"function"},{"inputs":[{"internalType":"uint16","name":"","type":"uint16"}],"name":"productReceiptLabel","outputs":[{"internalType":"string","name":"","type":"string"}],"stateMutability":"view","type":"function"},{"inputs":[{"internalType":"uint16","name":"","type":"uint16"}],"name":"productReceiptMaturity","outputs":[{"internalType":"string","name":"","type":"string"}],"stateMutability":"view","type":"function"},{"inputs":[{"internalType":"uint16","name":"","type":"uint16"}],"name":"productReceiptType","outputs":[{"internalType":"string","name":"","type":"string"}],"stateMutability":"view","type":"function"},{"inputs":[{"internalType":"uint16","name":"productId","type":"uint16"}],"name":"receiptTokenId","outputs":[{"internalType":"uint256","name":"","type":"uint256"}],"stateMutability":"pure","type":"function"},{"inputs":[{"internalType":"bytes32","name":"assetHash","type":"bytes32"},{"internalType":"bool","name":"passed","type":"bool"},{"internalType":"string","name":"note","type":"string"}],"name":"recordUnderlyingReview","outputs":[],"stateMutability":"nonpayable","type":"function"},{"inputs":[{"internalType":"uint256","name":"shareAmount","type":"uint256"}],"name":"redeem","outputs":[{"internalType":"uint256","name":"assetAmount","type":"uint256"}],"stateMutability":"nonpayable","type":"function"},{"inputs":[{"internalType":"uint16","name":"productId","type":"uint16"},{"internalType":"uint256","name":"shareAmount","type":"uint256"}],"name":"redeemProduct","outputs":[{"internalType":"uint256","name":"assetAmount","type":"uint256"}],"stateMutability":"nonpayable","type":"function"},{"inputs":[],"name":"renounceOwnership","outputs":[],"stateMutability":"nonpayable","type":"function"},{"inputs":[{"internalType":"address","name":"","type":"address"}],"name":"replayScoreOf","outputs":[{"internalType":"int256","name":"bestNetPnl","type":"int256"},{"internalType":"uint256","name":"bestAccountValue","type":"uint256"},{"internalType":"uint256","name":"bestTradeCount","type":"uint256"},{"internalType":"uint256","name":"lastSubmittedAt","type":"uint256"},{"internalType":"uint256","name":"submissionCount","type":"uint256"},{"internalType":"uint256","name":"submissionDay","type":"uint256"},{"internalType":"uint256","name":"submissionsToday","type":"uint256"}],"stateMutability":"view","type":"function"},{"inputs":[{"internalType":"address","name":"","type":"address"}],"name":"riskTier","outputs":[{"internalType":"uint8","name":"","type":"uint8"}],"stateMutability":"view","type":"function"},{"inputs":[{"internalType":"address","name":"from","type":"address"},{"internalType":"address","name":"to","type":"address"},{"internalType":"uint256[]","name":"ids","type":"uint256[]"},{"internalType":"uint256[]","name":"amounts","type":"uint256[]"},{"internalType":"bytes","name":"data","type":"bytes"}],"name":"safeBatchTransferFrom","outputs":[],"stateMutability":"nonpayable","type":"function"},{"inputs":[{"internalType":"address","name":"from","type":"address"},{"internalType":"address","name":"to","type":"address"},{"internalType":"uint256","name":"id","type":"uint256"},{"internalType":"uint256","name":"amount","type":"uint256"},{"internalType":"bytes","name":"data","type":"bytes"}],"name":"safeTransferFrom","outputs":[],"stateMutability":"nonpayable","type":"function"},{"inputs":[{"internalType":"uint256","name":"index","type":"uint256"}],"name":"scoreAccountAt","outputs":[{"internalType":"address","name":"","type":"address"}],"stateMutability":"view","type":"function"},{"inputs":[],"name":"scoreAccountCount","outputs":[{"internalType":"uint256","name":"","type":"uint256"}],"stateMutability":"view","type":"function"},{"inputs":[{"internalType":"address","name":"operator","type":"address"},{"internalType":"bool","name":"approved","type":"bool"}],"name":"setApprovalForAll","outputs":[],"stateMutability":"nonpayable","type":"function"},{"inputs":[{"internalType":"string","name":"nextUri","type":"string"}],"name":"setBaseUri","outputs":[],"stateMutability":"nonpayable","type":"function"},{"inputs":[{"internalType":"address","name":"investor","type":"address"},{"internalType":"bool","name":"allowed","type":"bool"},{"internalType":"uint8","name":"tier","type":"uint8"}],"name":"setInvestorEligibility","outputs":[],"stateMutability":"nonpayable","type":"function"},{"inputs":[{"internalType":"address","name":"renderer","type":"address"}],"name":"setMetadataRenderer","outputs":[],"stateMutability":"nonpayable","type":"function"},{"inputs":[{"internalType":"uint256","name":"nextMinSubscription","type":"uint256"}],"name":"setMinSubscription","outputs":[],"stateMutability":"nonpayable","type":"function"},{"inputs":[{"internalType":"uint256","name":"nextNavBps","type":"uint256"}],"name":"setNavBps","outputs":[],"stateMutability":"nonpayable","type":"function"},{"inputs":[{"internalType":"uint16","name":"productId","type":"uint16"},{"internalType":"string","name":"detail","type":"string"}],"name":"setProductReceiptDetail","outputs":[],"stateMutability":"nonpayable","type":"function"},{"inputs":[{"internalType":"uint16","name":"productId","type":"uint16"},{"internalType":"string","name":"label","type":"string"}],"name":"setProductReceiptLabel","outputs":[],"stateMutability":"nonpayable","type":"function"},{"inputs":[{"internalType":"uint16","name":"productId","type":"uint16"},{"internalType":"string","name":"productType","type":"string"},{"internalType":"string","name":"maturity","type":"string"}],"name":"setProductReceiptMetadata","outputs":[],"stateMutability":"nonpayable","type":"function"},{"inputs":[{"internalType":"string","name":"nextStatus","type":"string"}],"name":"setStrategyStatus","outputs":[],"stateMutability":"nonpayable","type":"function"},{"inputs":[{"internalType":"bool","name":"paused","type":"bool"}],"name":"setSubscriptionsPaused","outputs":[],"stateMutability":"nonpayable","type":"function"},{"inputs":[{"internalType":"uint16","name":"fromProductId","type":"uint16"},{"internalType":"uint16","name":"toProductId","type":"uint16"},{"internalType":"uint256","name":"burnAmount","type":"uint256"},{"internalType":"uint256","name":"mintAmount","type":"uint256"}],"name":"settleProduct","outputs":[{"internalType":"uint256","name":"assetAmount","type":"uint256"},{"internalType":"uint256","name":"mintedAmount","type":"uint256"}],"stateMutability":"nonpayable","type":"function"},{"inputs":[],"name":"strategyStatus","outputs":[{"internalType":"string","name":"","type":"string"}],"stateMutability":"view","type":"function"},{"inputs":[{"internalType":"int256","name":"netPnl","type":"int256"},{"internalType":"uint256","name":"accountValue","type":"uint256"},{"internalType":"uint256","name":"tradeCount","type":"uint256"}],"name":"submitScore","outputs":[],"stateMutability":"nonpayable","type":"function"},{"inputs":[{"internalType":"uint256","name":"assetAmount","type":"uint256"}],"name":"subscribe","outputs":[{"internalType":"uint256","name":"shareAmount","type":"uint256"}],"stateMutability":"nonpayable","type":"function"},{"inputs":[{"internalType":"uint16","name":"productId","type":"uint16"},{"internalType":"uint256","name":"assetAmount","type":"uint256"}],"name":"subscribeProduct","outputs":[{"internalType":"uint256","name":"shareAmount","type":"uint256"}],"stateMutability":"nonpayable","type":"function"},{"inputs":[{"internalType":"uint16","name":"productId","type":"uint16"},{"internalType":"uint256","name":"assetAmount","type":"uint256"},{"internalType":"string","name":"purchasedOn","type":"string"}],"name":"subscribeProductWithMetadata","outputs":[{"internalType":"uint256","name":"shareAmount","type":"uint256"}],"stateMutability":"nonpayable","type":"function"},{"inputs":[],"name":"subscriptionsPaused","outputs":[{"internalType":"bool","name":"","type":"bool"}],"stateMutability":"view","type":"function"},{"inputs":[{"internalType":"bytes4","name":"interfaceId","type":"bytes4"}],"name":"supportsInterface","outputs":[{"internalType":"bool","name":"","type":"bool"}],"stateMutability":"view","type":"function"},{"inputs":[{"internalType":"uint256","name":"","type":"uint256"}],"name":"tokenBadgeType","outputs":[{"internalType":"uint8","name":"","type":"uint8"}],"stateMutability":"view","type":"function"},{"inputs":[{"internalType":"address","name":"newOwner","type":"address"}],"name":"transferOwnership","outputs":[],"stateMutability":"nonpayable","type":"function"},{"inputs":[{"internalType":"bytes32","name":"nextAttestationRoot","type":"bytes32"}],"name":"updateAttestation","outputs":[],"stateMutability":"nonpayable","type":"function"},{"inputs":[{"internalType":"uint256","name":"tokenId","type":"uint256"}],"name":"uri","outputs":[{"internalType":"string","name":"","type":"string"}],"stateMutability":"view","type":"function"},{"inputs":[],"name":"vaultLabel","outputs":[{"internalType":"string","name":"","type":"string"}],"stateMutability":"view","type":"function"},{"inputs":[{"internalType":"uint256","name":"","type":"uint256"}],"name":"wealthPledgeCredentialOf","outputs":[{"internalType":"address","name":"account","type":"address"},{"internalType":"uint16","name":"productId","type":"uint16"},{"internalType":"uint256","name":"supportAmount","type":"uint256"},{"internalType":"string","name":"pledgedOn","type":"string"}],"stateMutability":"view","type":"function"},{"inputs":[{"internalType":"address","name":"","type":"address"},{"internalType":"uint16","name":"","type":"uint16"}],"name":"wealthReceiptProofOf","outputs":[{"internalType":"uint256","name":"lastAssetAmount","type":"uint256"},{"internalType":"uint256","name":"lastShareAmount","type":"uint256"},{"internalType":"uint256","name":"purchasedAt","type":"uint256"},{"internalType":"string","name":"productDetail","type":"string"}],"stateMutability":"view","type":"function"},{"inputs":[{"internalType":"address","name":"","type":"address"},{"internalType":"uint16","name":"","type":"uint16"}],"name":"wealthReceiptShares","outputs":[{"internalType":"uint256","name":"","type":"uint256"}],"stateMutability":"view","type":"function"},{"inputs":[{"internalType":"address","name":"","type":"address"},{"internalType":"uint8","name":"","type":"uint8"}],"name":"wealthTaskCompleted","outputs":[{"internalType":"bool","name":"","type":"bool"}],"stateMutability":"view","type":"function"},{"inputs":[{"internalType":"address","name":"","type":"address"},{"internalType":"uint8","name":"","type":"uint8"}],"name":"wealthTaskEvidenceHash","outputs":[{"internalType":"bytes32","name":"","type":"bytes32"}],"stateMutability":"view","type":"function"},{"inputs":[{"internalType":"address","name":"","type":"address"},{"internalType":"uint8","name":"","type":"uint8"}],"name":"wealthTaskRealizedPnl","outputs":[{"internalType":"int256","name":"","type":"int256"}],"stateMutability":"view","type":"function"}],"evm":{"bytecode":{"linkReferences":{},"object":"608060405234620003545762005b5f803803806200001d8162000358565b9283398101906020918282820312620003545781516001600160401b039283821162000354570191601f9180838501121562000354578351938285116200032c57601f1994620000738582018716880162000358565b92818452878284010111620003545786915f5b82811062000340575050905f918301015280519182116200032c57620000ae6002546200037e565b838111620002f0575b5084938383116001146200028d5750928192935f9262000281575b50508160011b915f199060031b1c1916176002555b60038054336001600160a01b0319821681179092556001600160a01b03167f8be0079c531659141344cd1fd0a4f28419497f9722a3daafe3b4186f6b6457e05f80a36001600455620186a1600555620493e16006556127106007556101f460085562000155600d546200037e565b8181116200025f575b507f5269736b4c656e7320556e69666965642044656d6f205661756c740000000036600d55600e5462000191906200037e565b8181116200023d575b50600461141560f21b01600e55600c54620001b5906200037e565b908082116200021b575b7f44656d6f20726561647900000000000000000000000000000000000000000014600c557f326aeea7abf8a20d2ae5c71811b6e16c6ad80e0128362081ef8dd5af3774b9c0600b554260095560405161578d9081620003d28239f35b6200023492600c5f525f20910160051c810190620003b9565b5f8080620001bf565b6200025890600e5f5282845f20910160051c810190620003b9565b5f6200019a565b6200027a90600d5f5282845f20910160051c810190620003b9565b5f6200015e565b015190505f80620000d2565b82169360025f52855f20915f5b87878210620002d9575050836001959610620002c0575b505050811b01600255620000e7565b01515f1960f88460031b161c191690555f8080620002b1565b60018495829395850151815501940192016200029a565b6200031b9060025f52865f208580860160051c82019289871062000322575b0160051c0190620003b9565b5f620000b7565b925081926200030f565b634e487b7160e01b5f52604160045260245ffd5b818101840151858201850152830162000086565b5f80fd5b6040519190601f01601f191682016001600160401b038111838210176200032c57604052565b90600182811c92168015620003ae575b60208310146200039a57565b634e487b7160e01b5f52602260045260245ffd5b91607f16916200038e565b818110620003c5575050565b5f8155600101620003b956fe60806040526004361015610011575f80fd5b5f3560e01c80629b27af14613de4578062fdd58e14613dbd57806301b4597d14613d6b57806301ffc9a714613cfd57806302cea26b14613cac5780630765b4b414613c795780630e89341c14613c5a5780630f574ba71461392a578063176de7a81461389f578063176f1cdd14613814578063179649ad1461377a5780631a2e9996146136975780631b6c218e1461347d5780631de3083d14613462578063218900b414613445578063249d39e91461342957806327dac9e2146133dc57806327e80368146133bf5780632a0ee0851461337b5780632baa7521146133585780632e6f6b1f1461333b5780632eb2c2d6146130c75780632f85874a146130aa5780632fb4e0f914612fea578063325116ee14612fcf57806332ddc52414612f65578063379607f514612f0b57806338e21cce14612ec357806341be5f6414612ea65780634973fd9a14612e775780634adb4cc814612e5a5780634d7c10a714612e1d5780634e1273f414612ca9578063513f840114612b50578063521633371461291a57806355cc0261146127b357806357997aa2146127985780635acc9009146127655780635ad32a3c146126fa578063619a1d29146126d257806362abebce14612491578063663c39d2146123b05780636961fd46146122335780636b3ce2f1146121d55780636ea17abd146121ba5780637031997014612192578063715018a61461214a5780637206abbd14611fab57806374b3322c14611f5d5780637cea070a14611f425780638385f14a14611f255780638530a3bf14611ef8578063889d100214611ec55780638909e50614611e1c5780638d00bbe514611dc75780638da5cb5b14611d9f5780638f631d5414611d8457806393b9e5ae14611d3757806399b49e2514611cd85780639a2aaca114611c4d578063a0bcfc7f14611b16578063a22cb46514611a3c578063aec45d80146119d9578063b363935c14610551578063b5884e2014611943578063b7d120d0146118f8578063b84d93d4146118bd578063bce48991146113db578063c056e1e31461085c578063c1d150e41461134f578063c4ebe02414611334578063c5e20f801461129d578063c8a3c3b514611224578063cad471921461054c578063cb33bcdb146111d2578063ceb0f6d814610ebc578063cf22928d146111b0578063d28c390a1461117a578063d4b0521b146110fd578063d5c21baa146110e0578063d92fa2c6146110b0578063db006a7514610ec1578063dcb2125b14610ebc578063e5a89945146109ed578063e985e9c51461099b578063eda7c56e14610861578063eeaa81771461085c578063f242432a1461061b578063f2fde38b1461056c578063f4db898414610551578063f64bfa591461054c578063f68e55c3146104ee578063f766dee4146104d3578063f9569673146104965763fd4fe8a81461042c575f80fd5b3461049257602036600319011261049257610445613e2b565b61044d61496b565b600f80546001600160a01b0319166001600160a01b039290921691821790557f60a886c8dc324af9c6d6a1bf7369ffe7557ef345eb5717bceffb59beac879a0a5f80a2005b5f80fd5b34610492576020366003190112610492576001600160a01b036104b7613e2b565b165f526017602052602060ff60405f2054166040519015158152f35b34610492575f366003190112610492576020604051600a8152f35b346104925760203660031901126104925760043561050a61496b565b801561051557600855005b60405162461bcd60e51b815260206004820152600f60248201526e496e76616c6964206d696e696d756d60881b6044820152606490fd5b6141f8565b34610492575f36600319011261049257602060405160068152f35b3461049257602036600319011261049257610585613e2b565b61058d61496b565b6001600160a01b039081169081156105c757600380546001600160a01b031981168417909155165f805160206156388339815191525f80a3005b60405162461bcd60e51b815260206004820152602660248201527f4f776e61626c653a206e6577206f776e657220697320746865207a65726f206160448201526564647265737360d01b6064820152608490fd5b346104925760a036600319011261049257610634613e2b565b61063c613e41565b906064356044356084356001600160401b03811161049257610662903690600401614149565b6001600160a01b03938416933385148015610837575b610681906147d8565b851661068e811515614e63565b610697836154d2565b506106a1846154d2565b50825f526020955f875260405f20865f5287528460405f20546106c682821015614ebd565b855f525f895260405f20885f5289520360405f2055835f525f875260405f20825f52875260405f206106f98682546147ac565b90558186604051868152878a8201525f8051602061553883398151915260403392a43b61072257005b610765935f87946040519687958694859363f23a6e6160e01b9b8c865233600487015260248601526044850152606484015260a0608484015260a4830190614023565b03925af15f9181610808575b506107dc578261077f6153ce565b6308c379a0146107a7575b60405162461bcd60e51b8152806107a360048201615456565b0390fd5b6107af6153e9565b90816107bb575061078a565b6107a360405192839262461bcd60e51b845260048401526024830190614023565b6001600160e01b0319160390506107ef57005b60405162461bcd60e51b8152806107a360048201615385565b610829919250843d8611610830575b6108218183613f3d565b810190615365565b9084610771565b503d610817565b50845f52600160205260405f20335f5260205261068160ff60405f2054169050610678565b611334565b346104925761ffff610872366141ba565b9161087e93919361496b565b169161088b83151561470d565b825f526020906019825260405f2060018060401b038411610987576108ba846108b48354613e99565b8361474b565b5f601f85116001146109125791610902916108ee86805f805160206155188339815191529897965f91610907575b5061479a565b90555b60405193838594855284019161466d565b0390a2005b90508401358a6108e8565b601f19851690825f52845f20915f5b8181106109705750916109029391875f805160206155188339815191529897969410610957575b5050600185811b0190556108f1565b8301355f19600388901b60f8161c191690558780610948565b919286600181928689013581550194019201610921565b634e487b7160e01b5f52604160045260245ffd5b34610492576040366003190112610492576109b4613e2b565b6109bc613e41565b9060018060a01b038091165f52600160205260405f2091165f52602052602060ff60405f2054166040519015158152f35b346104925760a0366003190112610492576004356001600160401b03811161049257610a1d903690600401614048565b6024356001600160401b03811161049257610a3c903690600401614048565b90916044906064938115610e86578315610e545761271080863511610e1e5760843511610de857620151804204335f52602260205260405f20815f52602052600360405f20541015610da557335f52602260205260405f20905f5260205260405f2080549060018201809211610d9157556005549360018501808611610d91576005556040519660c088016001600160401b0381118982101761098757604052338852610aea368583614113565b60208901908152610afc368486614113565b60408a810191909152863560608b0152883560808b015260843560a08b01525f888152602160205220895181546001600160a01b0319166001600160a01b039190911617815590518051906001600160401b03821161098757610b6f82610b666001860154613e99565b6001860161474b565b602090601f8311600114610d2757610b9192915f9183610d1c575b505061479a565b60018201555b604089015180519099906001600160401b0381116109875760209a610bcc82610bc36002870154613e99565b6002870161474b565b8b90601f8311600114610c925793600560a08c9d9895610c0d86610c5797610c649b975f805160206155988339815191529f9e9b5f92610c8757505061479a565b60028501555b60608101516003850155608081015160048501550151910155610c45604051610c3b81613eec565b5f81528b33614faf565b6040519660a0885260a088019161466d565b918583038b87015261466d565b9335604083015235606082015260843560808201528033930390a3604051908152f35b015190505f80610b8a565b90600285015f528c5f20915f5b601f1985168110610d05575060a08c9d9895600186610c649a965f805160206155988339815191529e9d9a96600596610c579a601f19811610610ced575b505050811b016002850155610c13565b01515f1960f88460031b161c191690555f8080610cdd565b91928e600181928685015181550194019201610c9f565b015190508c80610b8a565b90601f19831691600185015f5260205f20925f5b818110610d795750908460019594939210610d61575b505050811b016001820155610b97565b01515f1960f88460031b161c191690558b8080610d51565b92936020600181928786015181550195019301610d3b565b634e487b7160e01b5f52601160045260245ffd5b60405162461bcd60e51b815260206004820152601e60248201527f4461696c792063726564656e7469616c206c696d697420726561636865640000818601528690fd5b60405162461bcd60e51b815260206004820152601060248201526f24b73b30b634b210323930bbb237bbb760811b818501528590fd5b60405162461bcd60e51b815260206004820152601060248201526f496e76616c69642077696e207261746560801b818601528690fd5b60405162461bcd60e51b815260206004820152600c60248201526b4d697373696e67206461746560a01b818501528590fd5b60405162461bcd60e51b815260206004820152601060248201526f4d697373696e672063617465676f727960801b818501528590fd5b611f42565b346104925760208060031936011261049257600435610ee18115156149c3565b331561107257604051610ef381613f22565b600181528281019083368337511561105e576103e9809152610f14826154d2565b505f604051610f2281613eec565b52805f525f835260405f20335f52835260405f2054828110611020578290825f525f855260405f20335f5285520360405f20555f604051828152838582015233905f8051602061553883398151915260403392a45f604051610f8381613eec565b52335f90815260188452604080822060018352855290205480831061100157505f5b335f526018845260405f2060015f52845260405f205560405182815282848201525f8051602061571883398151915260403392a2600160405183815283858201525f8051602061567883398151915260403392a4604051908152f35b82810390811115610fa557634e487b7160e01b5f52601160045260245ffd5b60405162461bcd60e51b8152600481018590526024808201525f80516020615618833981519152604482015263616e636560e01b6064820152608490fd5b634e487b7160e01b5f52603260045260245ffd5b60405162461bcd60e51b815260048101839052602360248201525f8051602061557883398151915260448201526265737360e81b6064820152608490fd5b346104925760403660031901126104925760206110d86110ce613e77565b60243590336150ff565b604051908152f35b34610492575f366003190112610492576020600554604051908152f35b3461049257602036600319011261049257600435601f5481101561113f57611126602091614912565b905460405160039290921b1c6001600160a01b03168152f35b60405162461bcd60e51b8152602060048201526013602482015272496e646578206f7574206f6620626f756e647360681b6044820152606490fd5b3461049257602036600319011261049257600754600435818102918115918304141715610d915760209061271060405191048152f35b34610492575f36600319011261049257602060ff600a54166040519015158152f35b34610492576040366003190112610492576111eb613e2b565b6111f3613e57565b9060018060a01b03165f52601260205260ff60405f2091165f52602052602060ff60405f2054166040519015158152f35b34610492576020366003190112610492576001600160a01b03611245613e2b565b165f52601660205260e060405f20805490600181015490600281015460038201546004830154916006600585015494015494604051968752602087015260408601526060850152608084015260a083015260c0820152f35b34610492576020366003190112610492576004355f90815260216020526040902080546001600160a01b03166112d560018301613f60565b916112e260028201613f60565b6003820154916113206005600483015492015492611312604051978897885260c0602089015260c0880190614023565b908682036040880152614023565b926060850152608084015260a08301520390f35b34610492575f36600319011261049257602060405160038152f35b3461049257606036600319011261049257611368613e77565b6044356001600160401b03811161049257611387903690600401614048565b90501561139e576110d860209160243590336149fd565b60405162461bcd60e51b81526020600482015260156024820152744d697373696e67207075726368617365206461746560581b6044820152606490fd5b34610492576080366003190112610492576113f4613e77565b6001600160401b039060249060443583811161049257611418903690600401614048565b61ffff60649492943593169161142f83151561470d565b80351561188757811561184d576114478415156148c3565b61145961145333614224565b156146cf565b335f526020956012875260405f2090600291825f52885260405f20956001968760ff19825416179055335f52601e895260405f20835f5289525f6040812055335f52601d895260405f20835f5289528060405f20556114b733614224565b1561166b575b506006549580870180881161165857600655604051926114dc84613ed1565b3384528984019387855260408101863581526114f936898d614113565b95606083019687528a5f5260238d5260405f209260018060a01b0390511683549161ffff60a01b905160a01b169160018060b01b031916171782555183820155019251805192831161164557611559836115538654613e99565b8661474b565b8991601f84116001146115d25750825f805160206157388339815191529593899a959361158d935f92610d1c57505061479a565b90555b6115a960405161159f81613eec565b5f81528733614faf565b6115c760405192839235835260408a8401523395604084019161466d565b0390a4604051908152f35b9291601f19831691855f528b5f20925f5b8d828210611631575050915f8051602061573883398151915297959391858c9d98969410611619575b505050811b019055611590565b01515f1960f88460031b161c191690558b808061160c565b8385015186559487019493840193016115e3565b84634e487b7160e01b5f5260416004525ffd5b84634e487b7160e01b5f5260116004525ffd5b60405161167781613eec565b5f8152611685331515614f59565b60405161169181613f22565b8881528a8101908b368337511561183a5760ca90526116ae6154ab565b5060ca5f525f8a5260405f20335f528a5260405f20805490898201809211611827575560405160ca8152888b8201525f33915f8051602061553883398151915260403392a4333b611733575b50604051839182335f805160206155f88339815191525f80a35f82528a8201525f805160206156d883398151915260403392a3886114bd565b9361177a8a829b9a99989796604051809381925f63f23a6e6160e01b9788855233600486015284015260ca60448401528c606484015260a0608484015260a4830190614023565b03815f335af15f9181611808575b506117ed578a8a6117976153ce565b6308c379a0146117ba5760405162461bcd60e51b8152806107a360048201615456565b6117c26153e9565b806117cd575061078a565b6107a39060405193849362461bcd60e51b85526004850152830190614023565b63ffffffff60e09b969798999a9b1b16036107ef57826116fa565b6118209192508b3d8d11610830576108218183613f3d565b908c611788565b86634e487b7160e01b5f5260116004525ffd5b85634e487b7160e01b5f5260326004525ffd5b60649060136040519162461bcd60e51b835260206004840152820152724d697373696e6720706c65646765206461746560681b6044820152fd5b606490600f6040519162461bcd60e51b8352602060048401528201526e125b9d985b1a59081cdd5c1c1bdc9d608a1b6044820152fd5b34610492576020366003190112610492576001600160a01b036118de613e2b565b165f526014602052602060ff60405f205416604051908152f35b346104925760203660031901126104925761ffff611914613e77565b165f52601960205261193f61192b60405f20613f60565b604051918291602083526020830190614023565b0390f35b346104925760603660031901126104925761195c613e2b565b611964613e1c565b6044359160ff83168093036104925760207fa0aa2b85df88566521daa2ac1eb0694994372f9f1e64a41307f9d06a571f92129161199f61496b565b60018060a01b031692835f52601382526119bc8160405f20614213565b6014825260405f208560ff198254161790556040519015158152a3005b34610492576040366003190112610492576119f2613e2b565b6119fa613e57565b90611a0c611a0783614dda565b61468d565b60018060a01b03165f52601260205260ff60405f2091165f52602052602060ff60405f2054166040519015158152f35b3461049257604036600319011261049257611a55613e2b565b611a5d613e1c565b6001600160a01b0390911690338214611abf57335f52600160205260405f20825f52602052611a8f8160405f20614213565b60405190151581527f17307eab39ab6107e8899845ad3d59bd9653f200f220920489ca2b5937696c3160203392a3005b60405162461bcd60e51b815260206004820152602960248201527f455243313135353a2073657474696e6720617070726f76616c20737461747573604482015268103337b91039b2b63360b91b6064820152608490fd5b3461049257602080600319360112610492576001600160401b0360043581811161049257611b4b611b5a913690600401614048565b611b5361496b565b3691614113565b91825191821161098757611b6f600254613e99565b601f8111611c09575b5080601f8311600114611ba957508190611b99935f92611b9e57505061479a565b600255005b015190508380610b8a565b90601f1983169360025f52825f20925f905b868210611bf15750508360019510611bd9575b505050811b01600255005b01515f1960f88460031b161c19169055828080611bce565b80600185968294968601518155019501930190611bbb565b60025f52815f20601f840160051c810191838510611c43575b601f0160051c01905b818110611c385750611b78565b5f8155600101611c2b565b9091508190611c22565b3461049257602036600319011261049257600435611c6961496b565b8015611ca5576040817f1e1223c1f6274c6d64fdb08c485e192bd2896c9abf70e840e199ac1f54d6d1d5926007558151908152426020820152a1005b60405162461bcd60e51b815260206004820152600b60248201526a24b73b30b634b2102720ab60a91b6044820152606490fd5b34610492576020366003190112610492576001600160a01b03611cf9613e2b565b165f52601360205260ff60405f20541680611d1c575b6020906040519015158152f35b5060146020526020600260ff60405f20541610159050611d0f565b3461049257604036600319011261049257611d50613e2b565b611d58613e57565b9060018060a01b03165f52601e60205260ff60405f2091165f52602052602060405f2054604051908152f35b34610492575f36600319011261049257602060405160048152f35b34610492575f366003190112610492576003546040516001600160a01b039091168152602090f35b34610492576020366003190112610492577f181f92f68826a8d2b5b97d27f9e18d05a337290356fabf5b717154077dbea9336040600435611e0661496b565b80600b55426009558151908152426020820152a1005b34610492576080366003190112610492576040611e37613e77565b611e3f613e88565b5f90604435606435611e528286336150ff565b9461ffff918285169485151580611ebc575b611ea7575b508751938452602084015216907f031b66f6d8a6a3252233defe3a4204c77215f4ddd23783ce33b9b3d9a86b6ac6863392a482519182526020820152f35b81965090611eb591336149fd565b9488611e69565b50811515611e64565b346104925760203660031901126104925761ffff611ee1613e77565b165f52601c60205261193f61192b60405f20613f60565b34610492576020366003190112610492576004355f526011602052602060ff60405f205416604051908152f35b34610492575f366003190112610492576020600454604051908152f35b34610492575f36600319011261049257602060405160018152f35b3461049257604036600319011261049257611f76613e2b565b611f7e613e88565b9060018060a01b03165f52601860205261ffff60405f2091165f52602052602060405f2054604051908152f35b3461049257604036600319011261049257611fc4613e67565b611fcc613e41565b611fdd611fd8836150e4565b61492a565b6001600160a01b038116908115612111578133036120db57815f526020926010845260ff60405f20911690815f52845260ff60405f20541661209f576004549260018401808511610d9157600455805f526010855260405f20825f52855260405f2060ff1990600182825416179055845f52601186528260405f20918254161790558160640180606411610d91578493612086916040519161207e83613eec565b5f8352614faf565b5f805160206156f88339815191525f80a4604051908152f35b60405162461bcd60e51b815260048101859052601460248201527310985919d948185b1c9958591e481b5a5b9d195960621b6044820152606490fd5b60405162461bcd60e51b815260206004820152600e60248201526d13db9b1e481cd95b19881b5a5b9d60921b6044820152606490fd5b60405162461bcd60e51b8152602060048201526011602482015270125b9d985b1a59081c9958da5c1a595b9d607a1b6044820152606490fd5b34610492575f3660031901126104925761216261496b565b600380546001600160a01b031981169091555f906001600160a01b03165f805160206156388339815191528280a3005b34610492575f36600319011261049257600f546040516001600160a01b039091168152602090f35b34610492575f36600319011261049257602060405160078152f35b34610492576040366003190112610492576121ee613e2b565b6121f6613e57565b90612203611fd8836150e4565b60018060a01b03165f52601060205260ff60405f2091165f52602052602060ff60405f2054166040519015158152f35b346104925760603660031901126104925760043560243560443590335f52601660205260405f20620151804204601760205260405f20805460ff811615612365575b50506005820181815403612357575b50506006810180549160038310156123165780600491548713612302575b4260038201550180549060018201809211610d91575560018201809211610d915755604051928352602083015260408201524260608201527ff6d69723c1e13a6e751ff8839d394f04ffffc588fdd13a7cfd1fdfc1bf87ebe160803392a2005b8681558460018201558560028201556122a2565b60405162461bcd60e51b815260206004820152601960248201527811185a5b1e481cd8dbdc99481b1a5b5a5d081c995858da1959603a1b6044820152606490fd5b555f60068201558480612284565b60ff19166001179055601f54600160401b8110156109875780600161238d9201601f55614912565b81546001600160a01b0360039290921b91821b19163390911b1790558580612275565b346104925761ffff6123c1366141ba565b916123cd93919361496b565b16916123da83151561470d565b825f52602090601a825260405f2060018060401b03841161098757612403846108b48354613e99565b5f601f85116001146124365791610902916108ee86805f805160206155b88339815191529897965f91610907575061479a565b601f19851690825f52845f20915f5b81811061247a5750916109029391875f805160206155b88339815191529897969410610957575050600185811b0190556108f1565b919286600181928689013581550194019201612445565b346104925760031960203682018113610492576001600160401b0390600435908282116104925736602383011215610492578160040135928311610492576024820191602436918560051b010111610492576124ec8361487d565b5f5b848110612694575061250136858561408c565b926040519461250f86613eec565b5f865261251d331515614f59565b61252a8551845114614e06565b5f5b85518110156125735780612542600192866148af565b5161254d82896148af565b515f525f875260405f20335f52875261256b60405f209182546147ac565b90550161252c565b5084868594896040515f33915f805160206154f883398151915233918061259b888b83614f1c565b0390a4333b6125de575b505050509091505f5b8181106125b757005b806125c56001928486614902565b35335f805160206155d88339815191525f80a3016125ae565b869161263a61262b92604051958694859461261b63bc197c8160e01b9a8b88523360048901525f602489015260a0604489015260a4880190614164565b9084878303016064880152614164565b91848303016084850152614023565b03815f335af15f9181612675575b50612656578461077f6153ce565b92935090916001600160e01b031916036107ef578190838080806125a5565b61268d919250863d8811610830576108218183613f3d565b9086612648565b806126c06114536126a86001948989614902565b356126ba6126b582614f41565b61483b565b336142bb565b816126cb82856148af565b52016124ee565b346104925760403660031901126104925760206110d86126f0613e77565b60243590336149fd565b3461049257604036600319011261049257612713613e2b565b61271b613e88565b9060018060a01b03165f526020805261ffff60405f2091165f5260205260405f20805461193f600183015492612758600360028301549201613f60565b9060405194859485614197565b346104925760203660031901126104925761ffff612781613e77565b165f52601b60205261193f61192b60405f20613f60565b34610492575f36600319011261049257602060405160088152f35b3461049257602080600319360112610492576001600160401b03600435818111610492576127e5903690600401614048565b90916127ef61496b565b811161098757612800600c54613e99565b601f81116128d6575b505f92601f82116001146128685761283782805f805160206156b8833981519152965f9161285d575061479a565b600c555b61285260405193849360408552604085019161466d565b9042908301520390a1005b9050850135876108e8565b601f19821693600c5f52815f20905f5b8681106128bf5750835f805160206156b883398151915296106128a6575b5050600182811b01600c5561283b565b8401355f19600385901b60f8161c191690558480612896565b909183600181928589013581550193019101612878565b600c5f52835f20601f830160051c810191858410612910575b601f0160051c01905b8181106129055750612809565b5f81556001016128f8565b90915081906128ef565b346104925760208060031936011261049257612934613e2b565b6001600160a01b038116908115612b1757813303612ae157815f526010835260405f20600190815f52845260ff60405f20541661209f5760045492818401808511610d9157600455805f526010855260405f20825f52855260405f2060ff19908382825416179055845f52601186528260405f20918254161790556040516129bb81613eec565b5f81526040516129ca81613f22565b8381528681019087368337511561105e57606590526129e76154ab565b5060655f525f865260405f20825f52865260405f20938454848101809111610d9157869555825f60405160658152868a8201525f8051602061553883398151915260403392a43b612a4d575b505f805160206156f88339815191525f80a4604051908152f35b909250604051858180612a8f63f23a6e6160e01b958683523360048401525f60248401526065604484015287606484015260a0608484015260a4830190614023565b03815f885af15f9181612ac2575b50612aab578561077f6153ce565b6001600160e01b031916036107ef57829185612a33565b612ada919250873d8911610830576108218183613f3d565b9087612a9d565b60405162461bcd60e51b815260048101849052600e60248201526d13db9b1e481cd95b19881b5a5b9d60921b6044820152606490fd5b60405162461bcd60e51b8152600481018490526011602482015270125b9d985b1a59081c9958da5c1a595b9d607a1b6044820152606490fd5b3461049257606036600319011261049257612b69613e67565b602435604435612b7b611a0784614dda565b612b8a6114536126ba85614df5565b612b958115156148c3565b60ff831692600184148015612c9f575b612c5b575b335f52612c006020916012835260405f20865f52835260405f20600160ff19825416179055335f52601e835260405f20865f5283528460405f2055335f52601d835260405f20865f5283528360405f2055614df5565b612c0a81336142bb565b15612c1157005b604051612c2a91612c2182613eec565b5f825233614faf565b6040519284335f805160206155f88339815191525f80a383528201525f805160206156d883398151915260403392a3005b5f8313612baa5760405162461bcd60e51b8152602060048201526015602482015274141bdcda5d1a5d9948141b93081c995c5d5a5c9959605a1b6044820152606490fd5b5060038414612ba5565b34610492576040366003190112610492576004356001600160401b03808211610492573660238301121561049257816004013590612ce682614075565b92612cf46040519485613f3d565b82845260209260248486019160051b8301019136831161049257602401905b828210612dfe5750505060243590811161049257612d359036906004016140da565b8251815103612da757612d48835161487d565b925f5b8151811015612d9057600190612d7f6001600160a01b03612d6c83866148af565b5116612d7883876148af565b51906142bb565b612d8982886148af565b5201612d4b565b50505061193f604051928284938452830190614164565b60405162461bcd60e51b815260048101839052602960248201527f455243313135353a206163636f756e747320616e6420696473206c656e677468604482015268040dad2e6dac2e8c6d60bb1b6064820152608490fd5b81356001600160a01b0381168103610492578152908401908401612d13565b34610492576020366003190112610492576001600160a01b03612e3e613e2b565b165f526013602052602060ff60405f2054166040519015158152f35b34610492575f366003190112610492576020600954604051908152f35b34610492576020366003190112610492576004355f526015602052602060ff60405f2054166040519015158152f35b34610492575f366003190112610492576020600854604051908152f35b34610492576020366003190112610492576001600160a01b03612ee4613e2b565b165f52601060205260405f2060015f52602052602060ff60405f2054166040519015158152f35b3461049257602036600319011261049257600435612f2b6126b582614f41565b612f3861145382336142bb565b612f51604051612f4781613eec565b5f81528233614faf565b335f805160206155d88339815191525f80a3005b34610492576020366003190112610492576004355f52602360205261ffff60405f2061193f815491612f9e600260018301549201613f60565b9060405194859460018060a01b038116865260a01c1660208501526040840152608060608401526080830190614023565b34610492575f36600319011261049257602060405160098152f35b34610492575f36600319011261049257604051600d545f8261300b83613e99565b91828252602093600190856001821691825f1461308a57505060011461304d575b5061303992500383613f3d565b61193f604051928284938452830190614023565b849150600d5f52815f20905f915b85831061307257505061303993508201018561302c565b8054838901850152879450869390920191810161305b565b60ff19168582015261303995151560051b850101925087915061302c9050565b34610492575f366003190112610492576020601f54604051908152f35b346104925760031960a036820112610492576130e1613e2b565b906130ea613e41565b906001600160401b03906044358281116104925761310c9036906004016140da565b606435838111610492576131249036906004016140da565b926084359081116104925761313d903690600401614149565b6001600160a01b03958616959092903387148015613316575b61315f906147d8565b61316c8351865114614e06565b85169261317a841515614e63565b5f5b83518110156131fe5780613192600192866148af565b5161319d82896148af565b5190805f526020905f825260405f208c5f5282528260405f20546131c382821015614ebd565b825f525f84528d60405f20905f5284520360405f20555f525f815260405f2090885f52526131f660405f209182546147ac565b90550161317c565b5090949392919382876040515f805160206154f88339815191523391806132268a8c83614f1c565b0390a43b61323057005b5f60209461327161262b9761261b94604051998a988997889663bc197c8160e01b9e8f89523360048a0152602489015260a0604489015260a4880190614164565b03925af15f91816132f5575b506132e45761328a6153ce565b6308c379a0146132ad5760405162461bcd60e51b8152806107a360048201615456565b6132b56153e9565b806132c0575061078a565b60405162461bcd60e51b8152602060048201529081906107a3906024830190614023565b6001600160e01b031916036107ef57005b61330f91925060203d602011610830576108218183613f3d565b908361327d565b50865f52600160205260405f20335f5260205261315f60ff60405f2054169050613156565b34610492575f366003190112610492576020600b54604051908152f35b346104925760203660031901126104925760206110d8613376613e77565b6147b9565b34610492576040366003190112610492576001600160a01b0361339c613e2b565b165f52602260205260405f206024355f52602052602060405f2054604051908152f35b34610492575f366003190112610492576020600654604051908152f35b34610492576040366003190112610492576133f5613e2b565b6133fd613e57565b9060018060a01b03165f52601d60205260ff60405f2091165f52602052602060405f2054604051908152f35b34610492575f3660031901126104925760206040516127108152f35b34610492575f366003190112610492576020600754604051908152f35b34610492575f36600319011261049257602060405160058152f35b3461049257606036600319011261049257613496613e77565b6001600160401b0390602435828111610492576134b7903690600401614048565b604435848111610492576134d261ffff913690600401614048565b9190946134dd61496b565b16936134ea85151561470d565b845f52602095601b875260405f208185116109875761350d856108b48354613e99565b5f85601f8111600114613635578061352b925f9161362a575061479a565b90555b855f52601c875260405f209083116109875761354e836108b48354613e99565b5f601f84116001146135b45791839161358283610902965f805160206155588339815191529a9b965f916135a9575061479a565b90555b61359c60405196879660408852604088019161466d565b928584039086015261466d565b90508401358c6108e8565b601f19841690825f52885f20915f5b818110613613575091859391610902965f805160206155588339815191529a9b9694106135fa575b5050600183811b019055613585565b8301355f19600386901b60f8161c1916905589806135eb565b91928a6001819286890135815501940192016135c3565b90508801358b6108e8565b50601f19861690825f52868a5f20925f5b8c82821061367e57505010613665575b5050600185811b01905561352e565b8701355f19600388901b60f8161c191690558880613656565b8b8501358655600190950194938401938a935001613646565b3461049257602080600319360112610492576136b1613e67565b906136be611a0783614dda565b6136cd6114536126ba84614df5565b335f526012815261372660405f209260ff811693845f52835260405f20600160ff19825416179055335f52601e835260405f20845f5283525f6040812055335f52601d835260405f20845f5283525f6040812055614df5565b61373081336142bb565b1561373757005b60405161374791612c2182613eec565b5f6040519183335f805160206155f88339815191528480a38183528201525f805160206156d883398151915260403392a3005b3461049257606036600319011261049257600435613796613e1c565b6044356001600160401b038111610492577f5cd61427930ab89a7ffdd8646dd284f02d4ec213a21d6dcaab300350e8006611916137da610902923690600401614048565b92906137e461496b565b855f5260156020526137f98360405f20614213565b6040519384931515845260406020850152604084019161466d565b34610492575f36600319011261049257604051600c545f8261383583613e99565b91828252602093600190856001821691825f1461308a575050600114613862575061303992500383613f3d565b849150600c5f52815f20905f915b85831061388757505061303993508201018561302c565b80548389018501528794508693909201918101613870565b34610492575f36600319011261049257604051600e545f826138c083613e99565b91828252602093600190856001821691825f1461308a5750506001146138ed575061303992500383613f3d565b849150600e5f52815f20905f915b85831061391257505061303993508201018561302c565b805483890185015287945086939092019181016138fb565b34610492576020806003193601126104925760043560ff600a5416613c1e576008548110613be95761395d8115156149c3565b60405161396981613eec565b5f8152613977331515614f59565b6040519061398482613f22565b6001908183528483019285368537511561105e576103e98093526139a7846154d2565b50825f525f855260405f20335f52855260405f206139c68582546147ac565b905560405183815284868201525f33915f8051602061553883398151915260403392a4333b613b5b575b50335f526018845260405f20815f52845260405f20613a108482546147ac565b9055613a1a6152b7565b6003604051613a2881613ed1565b858152868101868152604082019042825260608301948552335f5288805260405f20865f52895260405f2092518355518583015551600282015501905180519060018060401b03821161098757613a8982613a838554613e99565b8561474b565b8690601f8311600114613afd57613aa992915f9183613af257505061479a565b90555b60405183815283858201525f8051602061569883398151915260403392a2613ad26152b7565b5f80516020615658833981519152604051806115c7339442898085614197565b015190508880610b8a565b849291601f19831691855f52895f20925f5b8b828210613b455750508411613b2d575b505050811b019055613aac565b01515f1960f88460031b161c19169055878080613b20565b8385015186558997909501949384019301613b0f565b604051858180613b9963f23a6e6160e01b958683523360048401525f602484015288604484015289606484015260a0608484015260a4830190614023565b03815f335af15f9181613bca575b50613bb5578561077f6153ce565b6001600160e01b031916036107ef57846139f0565b613be2919250873d8911610830576108218183613f3d565b9087613ba7565b60405162461bcd60e51b815260048101839052600d60248201526c42656c6f77206d696e696d756d60981b6044820152606490fd5b60405162461bcd60e51b815260048101839052601460248201527314dd589cd8dc9a5c1d1a5bdb9cc81c185d5cd95960621b6044820152606490fd5b346104925760203660031901126104925761193f61192b6004356142e3565b346104925760203660031901126104925761ffff613c95613e77565b165f52601a60205261193f61192b60405f20613f60565b3461049257602036600319011261049257612710600435818102918115918304141715610d9157600754908115613ce95760209160405191048152f35b634e487b7160e01b5f52601260045260245ffd5b346104925760203660031901126104925760043563ffffffff60e01b811680910361049257602090636cdb3d1360e11b8114908115613d5a575b8115613d49575b506040519015158152f35b6301ffc9a760e01b14905082613d3e565b6303a24d0760e21b81149150613d37565b3461049257604036600319011261049257613d84613e2b565b613d8c613e57565b9060018060a01b03165f52601060205260ff60405f2091165f52602052602060ff60405f2054166040519015158152f35b346104925760403660031901126104925760206110d8613ddb613e2b565b602435906142bb565b346104925760203660031901126104925760043580151580910361049257613e0a61496b565b60ff8019600a5416911617600a555f80f35b60243590811515820361049257565b600435906001600160a01b038216820361049257565b602435906001600160a01b038216820361049257565b6024359060ff8216820361049257565b6004359060ff8216820361049257565b6004359061ffff8216820361049257565b6024359061ffff8216820361049257565b90600182811c92168015613ec7575b6020831014613eb357565b634e487b7160e01b5f52602260045260245ffd5b91607f1691613ea8565b608081019081106001600160401b0382111761098757604052565b602081019081106001600160401b0382111761098757604052565b606081019081106001600160401b0382111761098757604052565b604081019081106001600160401b0382111761098757604052565b601f909101601f19168101906001600160401b0382119082101761098757604052565b9060405191825f8254613f7281613e99565b908184526020946001916001811690815f14613fe05750600114613fa2575b505050613fa092500383613f3d565b565b5f90815285812095935091905b818310613fc8575050613fa093508201015f8080613f91565b85548884018501529485019487945091830191613faf565b92505050613fa094925060ff191682840152151560051b8201015f8080613f91565b5f5b8381106140135750505f910152565b8181015183820152602001614004565b9060209161403c81518092818552858086019101614002565b601f01601f1916010190565b9181601f84011215610492578235916001600160401b038311610492576020838186019501011161049257565b6001600160401b0381116109875760051b60200190565b929161409782614075565b916140a56040519384613f3d565b829481845260208094019160051b810192831161049257905b8282106140cb5750505050565b813581529083019083016140be565b9080601f83011215610492578160206140f59335910161408c565b90565b6001600160401b03811161098757601f01601f191660200190565b92919261411f826140f8565b9161412d6040519384613f3d565b829481845281830111610492578281602093845f960137010152565b9080601f83011215610492578160206140f593359101614113565b9081518082526020808093019301915f5b828110614183575050505090565b835185529381019392810192600101614175565b90926080926140f595948352602083015260408201528160608201520190614023565b9060406003198301126104925760043561ffff811681036104925791602435906001600160401b038211610492576141f491600401614048565b9091565b34610492575f36600319011261049257602060405160028152f35b9060ff801983541691151516179055565b6001600160a01b03168015614263575f9081527f8768e3ed19a5d00be410e8d8ad51c65c3aa78049339b9ad4303f61914e359db3602052604090205490565b60405162461bcd60e51b815260206004820152602a60248201527f455243313135353a2061646472657373207a65726f206973206e6f742061207660448201526930b634b21037bbb732b960b11b6064820152608490fd5b6001600160a01b0316908115614263575f525f60205260405f20905f5260205260405f205490565b600f546001600160a01b0316806145c3575b505f8172184f03e93ff9f4daa797ed6e38ed64bf6a1f0160401b81818110156145b5575b506904ee2d6d415b85acef8160201b9050808210156145a8575b50662386f26fc100008082101561459b575b506305f5e1008082101561458e575b5061271080821015614581575b506064811015614573575b600a80911015614569575b6001808301938160216143a261438c886140f8565b9761439a604051998a613f3d565b8089526140f8565b602088019690601f1901368837870101905b614534575b505050506101206140f5916040519384917a19185d184e985c1c1b1a58d85d1a5bdb8bda9cdbdb8edd5d198e0b602a1b60208401527f7b226e616d65223a225269736b4c656e732044656d6f20436f6c6c6563746962603b8401527f6c65222c226465736372697074696f6e223a225269736b4c656e73205365706f605b8401527f6c696120636f6c6c65637469626c652e20436f6e66696775726520746865206d607b8401527f657461646174612072656e646572657220666f722066756c6c20636f76657220609b8401527f6172742e222c2261747472696275746573223a5b7b2274726169745f7479706560bb8401527f223a224e6574776f726b222c2276616c7565223a225365706f6c6961227d2c7b60db8401527f2274726169745f74797065223a22546f6b656e204944222c2276616c7565223a60fb840152601160f91b61011b84015261451661011c9251809284860190614002565b82019063227d5d7d60e01b9082015203610100810184520182613f3d565b5f19019083906f181899199a1a9b1b9c1cb0b131b232b360811b8282061a835304918215614564579190826143b4565b6143b9565b9060010190614377565b60646002910491019061436c565b600491049101905f614361565b600891049101905f614354565b601091049101905f614345565b602091049101905f614333565b604093500490505f80614319565b5f602491604051928380926303a24d0760e21b82528660048301525afa5f91816145f3575b50156142f557905090565b9091503d805f833e6146058183613f3d565b810190602081830312610492578051906001600160401b038211610492570181601f8201121561049257805161463a816140f8565b926146486040519485613f3d565b81845260208284010111610492576146669160208085019101614002565b905f6145e8565b908060209392818452848401375f828201840152601f01601f1916010190565b1561469457565b60405162461bcd60e51b8152602060048201526013602482015272496e76616c6964207765616c7468207461736b60681b6044820152606490fd5b156146d657565b60405162461bcd60e51b815260206004820152600f60248201526e105b1c9958591e4818db185a5b5959608a1b6044820152606490fd5b1561471457565b60405162461bcd60e51b815260206004820152600f60248201526e125b9d985b1a59081c1c9bd91d58dd608a1b6044820152606490fd5b601f821161475857505050565b5f5260205f20906020601f840160051c83019310614790575b601f0160051c01905b818110614785575050565b5f815560010161477a565b9091508190614771565b8160011b915f199060031b1c19161790565b91908201809211610d9157565b61ffff166147c881151561470d565b6103e8908101809111610d915790565b156147df57565b60405162461bcd60e51b815260206004820152602e60248201527f455243313135353a2063616c6c6572206973206e6f7420746f6b656e206f776e60448201526d195c881bdc88185c1c1c9bdd995960921b6064820152608490fd5b1561484257565b60405162461bcd60e51b8152602060048201526013602482015272125b9d985b1a59081858da1a595d995b595b9d606a1b6044820152606490fd5b9061488782614075565b6148946040519182613f3d565b82815280926148a5601f1991614075565b0190602036910137565b805182101561105e5760209160051b010190565b156148ca57565b60405162461bcd60e51b815260206004820152601060248201526f4d697373696e672065766964656e636560801b6044820152606490fd5b919081101561105e5760051b0190565b601f5481101561105e57601f5f5260205f2001905f90565b1561493157565b60405162461bcd60e51b8152602060048201526012602482015271496e76616c696420686f6d6520626164676560701b6044820152606490fd5b6003546001600160a01b0316330361497f57565b606460405162461bcd60e51b815260206004820152602060248201527f4f776e61626c653a2063616c6c6572206973206e6f7420746865206f776e65726044820152fd5b156149ca57565b60405162461bcd60e51b815260206004820152600b60248201526a5a65726f2073686172657360a81b6044820152606490fd5b9291909260ff600a5416614d9e5761ffff841690614a1c82151561470d565b6008548310614d69578294614a328415156149c3565b614a3b816147b9565b93604091825193614a4b85613eec565b5f85526001600160a01b03811694614a64861515614f59565b614a6d886154d2565b50614a77846154d2565b50875f526020915f8352855f20875f528352855f20614a978682546147ac565b9055865f87518b815287868201525f80516020615538833981519152893392a43b614c5a575b50845f5260188152835f20865f528152835f20614adb8482546147ac565b9055614ae68261534e565b90845191614af383613ed1565b84835260038284019386855287810142815260608201938452895f52848052885f208b5f528552885f20915182556001955160018301555160028201550190519283519060018060401b038211610987578894614b54836115538654613e99565b8491601f8411600114614bc5575097614bb29481989794614b9f85614bc099965f80516020615698833981519152965f805160206156588339815191529e5f92610c8757505061479a565b90555b87825191818352820152a261534e565b925192839242908085614197565b0390a4565b989796959493929190601f198316845f52855f209a5f905b828210614c40575050936001845f805160206156588339815191529c8c95614bc09b99955f8051602061569883398151915298614bb29c9a10614c28575b505050811b019055614ba2565b01515f1960f88460031b161c191690555f8080614c1b565b848401518d559b8c019b8d98509387019390870190614bdd565b8499979593929198969451898180614ca063f23a6e6160e01b958683523360048401525f60248401528b604484015288606484015260a0608484015260a4830190614023565b03815f895af15f9181614d4a575b50614d14578a8a614cbd6153ce565b6308c379a014614ce0575b505162461bcd60e51b8152806107a360048201615456565b614ce86153e9565b9081614cf45750614cc8565b6107a3835192839262461bcd60e51b845260048401526024830190614023565b63ffffffff60e09b96989a93949597999b1b1603614d32575f614abd565b835162461bcd60e51b8152806107a360048201615385565b614d629192508b3d8d11610830576108218183613f3d565b905f614cae565b60405162461bcd60e51b815260206004820152600d60248201526c42656c6f77206d696e696d756d60981b6044820152606490fd5b60405162461bcd60e51b815260206004820152601460248201527314dd589cd8dc9a5c1d1a5bdb9cc81c185d5cd95960621b6044820152606490fd5b60ff1660018110159081614dec575090565b60039150111590565b60ff1660c8018060c811610d915790565b15614e0d57565b60405162461bcd60e51b815260206004820152602860248201527f455243313135353a2069647320616e6420616d6f756e7473206c656e677468206044820152670dad2e6dac2e8c6d60c31b6064820152608490fd5b15614e6a57565b60405162461bcd60e51b815260206004820152602560248201527f455243313135353a207472616e7366657220746f20746865207a65726f206164604482015264647265737360d81b6064820152608490fd5b15614ec457565b60405162461bcd60e51b815260206004820152602a60248201527f455243313135353a20696e73756666696369656e742062616c616e636520666f60448201526939103a3930b739b332b960b11b6064820152608490fd5b9091614f336140f593604084526040840190614164565b916020818403910152614164565b60068110159081614f50575090565b600a9150111590565b15614f6057565b60405162461bcd60e51b815260206004820152602160248201527f455243313135353a206d696e7420746f20746865207a65726f206164647265736044820152607360f81b6064820152608490fd5b91906001600160a01b038316614fc6811515614f59565b614fcf826154d2565b50614fd86154ab565b50815f526020925f8452604094855f20835f528552855f2080549060018201809211610d915755825f87518681526001888201525f80516020615538833981519152893392a43b61502b575b5050505050565b926150725f9286979583975194858094819363f23a6e6160e01b998a845233600485015284602485015260448401526001606484015260a0608484015260a4830190614023565b03925af15f91816150c5575b5061508e57505050614cbd6153ce565b919392506001600160e01b0319909116036150ae57505f80808080615024565b5162461bcd60e51b8152806107a360048201615385565b6150dd919250853d8711610830576108218183613f3d565b905f61507e565b60ff16600181101590816150f6575090565b60059150111590565b90929161ffff84169061511382151561470d565b61511e8115156149c3565b61512881956147b9565b926001600160a01b031690811561527957615142846154d2565b5061514c816154d2565b5060405f815161515b81613eec565b52845f5260205f8152815f20845f528152815f205483811061523d578390875f525f8352835f20865f52835203825f20555f84835188815285848201525f80516020615538833981519152853392a45f82516151b681613eec565b525f848152601882528281208682528252829020549283811061521f575f8051602061567883398151915293505f5b855f5260188352835f20875f528352835f2055845f805160206157188339815191528480518481528486820152a2825191818352820152a4565b808403938411610d91575f80516020615678833981519152936151e5565b50608491519062461bcd60e51b825260048201526024808201525f80516020615618833981519152604482015263616e636560e01b6064820152fd5b60405162461bcd60e51b815260206004820152602360248201525f8051602061557883398151915260448201526265737360e81b6064820152608490fd5b60015f52601a6020526152e97ff88cd8d612926ebb404e40725c01084b6e9b3ce0344cde068570342cbd448c61613f60565b80516140f557506040516152fc81613f07565b603c81527f536574746c656d656e74207465726d73207265636f7264656420696e2074686560208201527b205269736b4c656e73205765616c74682064657461696c207061676560201b604082015290565b61ffff165f52601a6020526152e960405f20613f60565b9081602091031261049257516001600160e01b0319811681036104925790565b60809060208152602860208201527f455243313135353a204552433131353552656365697665722072656a656374656040820152676420746f6b656e7360c01b60608201520190565b5f9060033d116153da57565b905060045f803e5f5160e01c90565b5f60443d106140f557604051600319913d83016004833e81516001600160401b03918282113d6024840111176154455781840194855193841161544d573d8501016020848701011161544557506140f592910160200190613f3d565b949350505050565b50949350505050565b60809060208152603460208201527f455243313135353a207472616e7366657220746f206e6f6e2d455243313135356040820152732932b1b2b4bb32b91034b6b83632b6b2b73a32b960611b60608201520190565b6040516154b781613f22565b6001815260208101602036823781511561105e576001905290565b604051906154df82613f22565b6001825260208201602036823782511561105e57529056fe4a39dc06d4c0dbc64b70af90fd698a233a518aa5d07e595d983b8c0526c8f7fb866aab14c7f7439fa866f885f22e8a9fce19f006d3956137b07f4284346bac9cc3d58168c5ae7397731d063d5bbf3d657854427343f4c083240f7aacaa2d0f62309eb5725bc0fcc8192e7491a4adaaf2ebbfb008e6f1062f264953c0976e27b7455243313135353a206275726e2066726f6d20746865207a65726f2061646472ee734f4dc9367a19993b3dd18a799f252c2874ef9d7388163aa9c16cb0011100b16cf5b05c6e7e92f2299a1d0894bbf220a63a7b1ccc786436c3d89d18df7bbe04844d30b922ffc2b845400eb2a15cdd62742176c723e09d7cc9703e83645e4bbd1ae2c6d13c1a8dc9dbe03823192cb9ab92b45e5b9264dd65b2794c526e6f9f455243313135353a206275726e20616d6f756e7420657863656564732062616c8be0079c531659141344cd1fd0a4f28419497f9722a3daafe3b4186f6b6457e09ec85e292a34c98a43e8ffe45de1c625bdfe7e8efc23f4a9da12895a70b358157c7917c3334372c8a1ab0009b4314b5fa722b2ae8bb2603b7195279aeb45a37af94991dcbea6e8ac439cbc93bd9c62a4d39f04e0ad656df9a703f13552c2787f09fb0a9f79f07cf16c95b92623175f408d609663d7868ae62581439d923470bdcfdb31fa548aa2c58dcf9c124e888cfd6afefe9fe228a5cc829205ab69b69e0c4c7380f1d23a71f74fa1303f23b7100826e4a89a4e47b2985e5c708e47a19b3af3a670cd3af7d64b488926880889d08a8585a138ff455227af6737339a1ec262683c55aed4ead4746321e8659fb2c565dd8e202a7a594f73a71e3f57607e1bd0a264697066735822122000a780a73a541a93ce69e1ef6fc4f32aae1abc5e672cacabe1991951fdbb7b4a64736f6c63430008180033","opcodes":"PUSH1 0x80 PUSH1 0x40 MSTORE CALLVALUE PUSH3 0x354 JUMPI PUSH3 0x5B5F DUP1 CODESIZE SUB DUP1 PUSH3 0x1D DUP2 PUSH3 0x358 JUMP JUMPDEST SWAP3 DUP4 CODECOPY DUP2 ADD SWAP1 PUSH1 0x20 SWAP2 DUP3 DUP3 DUP3 SUB SLT PUSH3 0x354 JUMPI DUP2 MLOAD PUSH1 0x1 PUSH1 0x1 PUSH1 0x40 SHL SUB SWAP3 DUP4 DUP3 GT PUSH3 0x354 JUMPI ADD SWAP2 PUSH1 0x1F SWAP2 DUP1 DUP4 DUP6 ADD SLT ISZERO PUSH3 0x354 JUMPI DUP4 MLOAD SWAP4 DUP3 DUP6 GT PUSH3 0x32C JUMPI PUSH1 0x1F NOT SWAP5 PUSH3 0x73 DUP6 DUP3 ADD DUP8 AND DUP9 ADD PUSH3 0x358 JUMP JUMPDEST SWAP3 DUP2 DUP5 MSTORE DUP8 DUP3 DUP5 ADD ADD GT PUSH3 0x354 JUMPI DUP7 SWAP2 PUSH0 JUMPDEST DUP3 DUP2 LT PUSH3 0x340 JUMPI POP POP SWAP1 PUSH0 SWAP2 DUP4 ADD ADD MSTORE DUP1 MLOAD SWAP2 DUP3 GT PUSH3 0x32C JUMPI PUSH3 0xAE PUSH1 0x2 SLOAD PUSH3 0x37E JUMP JUMPDEST DUP4 DUP2 GT PUSH3 0x2F0 JUMPI JUMPDEST POP DUP5 SWAP4 DUP4 DUP4 GT PUSH1 0x1 EQ PUSH3 0x28D JUMPI POP SWAP3 DUP2 SWAP3 SWAP4 PUSH0 SWAP3 PUSH3 0x281 JUMPI JUMPDEST POP POP DUP2 PUSH1 0x1 SHL SWAP2 PUSH0 NOT SWAP1 PUSH1 0x3 SHL SHR NOT AND OR PUSH1 0x2 SSTORE JUMPDEST PUSH1 0x3 DUP1 SLOAD CALLER PUSH1 0x1 PUSH1 0x1 PUSH1 0xA0 SHL SUB NOT DUP3 AND DUP2 OR SWAP1 SWAP3 SSTORE PUSH1 0x1 PUSH1 0x1 PUSH1 0xA0 SHL SUB AND PUSH32 0x8BE0079C531659141344CD1FD0A4F28419497F9722A3DAAFE3B4186F6B6457E0 PUSH0 DUP1 LOG3 PUSH1 0x1 PUSH1 0x4 SSTORE PUSH3 0x186A1 PUSH1 0x5 SSTORE PUSH3 0x493E1 PUSH1 0x6 SSTORE PUSH2 0x2710 PUSH1 0x7 SSTORE PUSH2 0x1F4 PUSH1 0x8 SSTORE PUSH3 0x155 PUSH1 0xD SLOAD PUSH3 0x37E JUMP JUMPDEST DUP2 DUP2 GT PUSH3 0x25F JUMPI JUMPDEST POP PUSH32 0x5269736B4C656E7320556E69666965642044656D6F205661756C740000000036 PUSH1 0xD SSTORE PUSH1 0xE SLOAD PUSH3 0x191 SWAP1 PUSH3 0x37E JUMP JUMPDEST DUP2 DUP2 GT PUSH3 0x23D JUMPI JUMPDEST POP PUSH1 0x4 PUSH2 0x1415 PUSH1 0xF2 SHL ADD PUSH1 0xE SSTORE PUSH1 0xC SLOAD PUSH3 0x1B5 SWAP1 PUSH3 0x37E JUMP JUMPDEST SWAP1 DUP1 DUP3 GT PUSH3 0x21B JUMPI JUMPDEST PUSH32 0x44656D6F20726561647900000000000000000000000000000000000000000014 PUSH1 0xC SSTORE PUSH32 0x326AEEA7ABF8A20D2AE5C71811B6E16C6AD80E0128362081EF8DD5AF3774B9C0 PUSH1 0xB SSTORE TIMESTAMP PUSH1 0x9 SSTORE PUSH1 0x40 MLOAD PUSH2 0x578D SWAP1 DUP2 PUSH3 0x3D2 DUP3 CODECOPY RETURN JUMPDEST PUSH3 0x234 SWAP3 PUSH1 0xC PUSH0 MSTORE PUSH0 KECCAK256 SWAP2 ADD PUSH1 0x5 SHR DUP2 ADD SWAP1 PUSH3 0x3B9 JUMP JUMPDEST PUSH0 DUP1 DUP1 PUSH3 0x1BF JUMP JUMPDEST PUSH3 0x258 SWAP1 PUSH1 0xE PUSH0 MSTORE DUP3 DUP5 PUSH0 KECCAK256 SWAP2 ADD PUSH1 0x5 SHR DUP2 ADD SWAP1 PUSH3 0x3B9 JUMP JUMPDEST PUSH0 PUSH3 0x19A JUMP JUMPDEST PUSH3 0x27A SWAP1 PUSH1 0xD PUSH0 MSTORE DUP3 DUP5 PUSH0 KECCAK256 SWAP2 ADD PUSH1 0x5 SHR DUP2 ADD SWAP1 PUSH3 0x3B9 JUMP JUMPDEST PUSH0 PUSH3 0x15E JUMP JUMPDEST ADD MLOAD SWAP1 POP PUSH0 DUP1 PUSH3 0xD2 JUMP JUMPDEST DUP3 AND SWAP4 PUSH1 0x2 PUSH0 MSTORE DUP6 PUSH0 KECCAK256 SWAP2 PUSH0 JUMPDEST DUP8 DUP8 DUP3 LT PUSH3 0x2D9 JUMPI POP POP DUP4 PUSH1 0x1 SWAP6 SWAP7 LT PUSH3 0x2C0 JUMPI JUMPDEST POP POP POP DUP2 SHL ADD PUSH1 0x2 SSTORE PUSH3 0xE7 JUMP JUMPDEST ADD MLOAD PUSH0 NOT PUSH1 0xF8 DUP5 PUSH1 0x3 SHL AND SHR NOT AND SWAP1 SSTORE PUSH0 DUP1 DUP1 PUSH3 0x2B1 JUMP JUMPDEST PUSH1 0x1 DUP5 SWAP6 DUP3 SWAP4 SWAP6 DUP6 ADD MLOAD DUP2 SSTORE ADD SWAP5 ADD SWAP3 ADD PUSH3 0x29A JUMP JUMPDEST PUSH3 0x31B SWAP1 PUSH1 0x2 PUSH0 MSTORE DUP7 PUSH0 KECCAK256 DUP6 DUP1 DUP7 ADD PUSH1 0x5 SHR DUP3 ADD SWAP3 DUP10 DUP8 LT PUSH3 0x322 JUMPI JUMPDEST ADD PUSH1 0x5 SHR ADD SWAP1 PUSH3 0x3B9 JUMP JUMPDEST PUSH0 PUSH3 0xB7 JUMP JUMPDEST SWAP3 POP DUP2 SWAP3 PUSH3 0x30F JUMP JUMPDEST PUSH4 0x4E487B71 PUSH1 0xE0 SHL PUSH0 MSTORE PUSH1 0x41 PUSH1 0x4 MSTORE PUSH1 0x24 PUSH0 REVERT JUMPDEST DUP2 DUP2 ADD DUP5 ADD MLOAD DUP6 DUP3 ADD DUP6 ADD MSTORE DUP4 ADD PUSH3 0x86 JUMP JUMPDEST PUSH0 DUP1 REVERT JUMPDEST PUSH1 0x40 MLOAD SWAP2 SWAP1 PUSH1 0x1F ADD PUSH1 0x1F NOT AND DUP3 ADD PUSH1 0x1 PUSH1 0x1 PUSH1 0x40 SHL SUB DUP2 GT DUP4 DUP3 LT OR PUSH3 0x32C JUMPI PUSH1 0x40 MSTORE JUMP JUMPDEST SWAP1 PUSH1 0x1 DUP3 DUP2 SHR SWAP3 AND DUP1 ISZERO PUSH3 0x3AE JUMPI JUMPDEST PUSH1 0x20 DUP4 LT EQ PUSH3 0x39A JUMPI JUMP JUMPDEST PUSH4 0x4E487B71 PUSH1 0xE0 SHL PUSH0 MSTORE PUSH1 0x22 PUSH1 0x4 MSTORE PUSH1 0x24 PUSH0 REVERT JUMPDEST SWAP2 PUSH1 0x7F AND SWAP2 PUSH3 0x38E JUMP JUMPDEST DUP2 DUP2 LT PUSH3 0x3C5 JUMPI POP POP JUMP JUMPDEST PUSH0 DUP2 SSTORE PUSH1 0x1 ADD PUSH3 0x3B9 JUMP INVALID PUSH1 0x80 PUSH1 0x40 MSTORE PUSH1 0x4 CALLDATASIZE LT ISZERO PUSH2 0x11 JUMPI PUSH0 DUP1 REVERT JUMPDEST PUSH0 CALLDATALOAD PUSH1 0xE0 SHR DUP1 PUSH3 0x9B27AF EQ PUSH2 0x3DE4 JUMPI DUP1 PUSH3 0xFDD58E EQ PUSH2 0x3DBD JUMPI DUP1 PUSH4 0x1B4597D EQ PUSH2 0x3D6B JUMPI DUP1 PUSH4 0x1FFC9A7 EQ PUSH2 0x3CFD JUMPI DUP1 PUSH4 0x2CEA26B EQ PUSH2 0x3CAC JUMPI DUP1 PUSH4 0x765B4B4 EQ PUSH2 0x3C79 JUMPI DUP1 PUSH4 0xE89341C EQ PUSH2 0x3C5A JUMPI DUP1 PUSH4 0xF574BA7 EQ PUSH2 0x392A JUMPI DUP1 PUSH4 0x176DE7A8 EQ PUSH2 0x389F JUMPI DUP1 PUSH4 0x176F1CDD EQ PUSH2 0x3814 JUMPI DUP1 PUSH4 0x179649AD EQ PUSH2 0x377A JUMPI DUP1 PUSH4 0x1A2E9996 EQ PUSH2 0x3697 JUMPI DUP1 PUSH4 0x1B6C218E EQ PUSH2 0x347D JUMPI DUP1 PUSH4 0x1DE3083D EQ PUSH2 0x3462 JUMPI DUP1 PUSH4 0x218900B4 EQ PUSH2 0x3445 JUMPI DUP1 PUSH4 0x249D39E9 EQ PUSH2 0x3429 JUMPI DUP1 PUSH4 0x27DAC9E2 EQ PUSH2 0x33DC JUMPI DUP1 PUSH4 0x27E80368 EQ PUSH2 0x33BF JUMPI DUP1 PUSH4 0x2A0EE085 EQ PUSH2 0x337B JUMPI DUP1 PUSH4 0x2BAA7521 EQ PUSH2 0x3358 JUMPI DUP1 PUSH4 0x2E6F6B1F EQ PUSH2 0x333B JUMPI DUP1 PUSH4 0x2EB2C2D6 EQ PUSH2 0x30C7 JUMPI DUP1 PUSH4 0x2F85874A EQ PUSH2 0x30AA JUMPI DUP1 PUSH4 0x2FB4E0F9 EQ PUSH2 0x2FEA JUMPI DUP1 PUSH4 0x325116EE EQ PUSH2 0x2FCF JUMPI DUP1 PUSH4 0x32DDC524 EQ PUSH2 0x2F65 JUMPI DUP1 PUSH4 0x379607F5 EQ PUSH2 0x2F0B JUMPI DUP1 PUSH4 0x38E21CCE EQ PUSH2 0x2EC3 JUMPI DUP1 PUSH4 0x41BE5F64 EQ PUSH2 0x2EA6 JUMPI DUP1 PUSH4 0x4973FD9A EQ PUSH2 0x2E77 JUMPI DUP1 PUSH4 0x4ADB4CC8 EQ PUSH2 0x2E5A JUMPI DUP1 PUSH4 0x4D7C10A7 EQ PUSH2 0x2E1D JUMPI DUP1 PUSH4 0x4E1273F4 EQ PUSH2 0x2CA9 JUMPI DUP1 PUSH4 0x513F8401 EQ PUSH2 0x2B50 JUMPI DUP1 PUSH4 0x52163337 EQ PUSH2 0x291A JUMPI DUP1 PUSH4 0x55CC0261 EQ PUSH2 0x27B3 JUMPI DUP1 PUSH4 0x57997AA2 EQ PUSH2 0x2798 JUMPI DUP1 PUSH4 0x5ACC9009 EQ PUSH2 0x2765 JUMPI DUP1 PUSH4 0x5AD32A3C EQ PUSH2 0x26FA JUMPI DUP1 PUSH4 0x619A1D29 EQ PUSH2 0x26D2 JUMPI DUP1 PUSH4 0x62ABEBCE EQ PUSH2 0x2491 JUMPI DUP1 PUSH4 0x663C39D2 EQ PUSH2 0x23B0 JUMPI DUP1 PUSH4 0x6961FD46 EQ PUSH2 0x2233 JUMPI DUP1 PUSH4 0x6B3CE2F1 EQ PUSH2 0x21D5 JUMPI DUP1 PUSH4 0x6EA17ABD EQ PUSH2 0x21BA JUMPI DUP1 PUSH4 0x70319970 EQ PUSH2 0x2192 JUMPI DUP1 PUSH4 0x715018A6 EQ PUSH2 0x214A JUMPI DUP1 PUSH4 0x7206ABBD EQ PUSH2 0x1FAB JUMPI DUP1 PUSH4 0x74B3322C EQ PUSH2 0x1F5D JUMPI DUP1 PUSH4 0x7CEA070A EQ PUSH2 0x1F42 JUMPI DUP1 PUSH4 0x8385F14A EQ PUSH2 0x1F25 JUMPI DUP1 PUSH4 0x8530A3BF EQ PUSH2 0x1EF8 JUMPI DUP1 PUSH4 0x889D1002 EQ PUSH2 0x1EC5 JUMPI DUP1 PUSH4 0x8909E506 EQ PUSH2 0x1E1C JUMPI DUP1 PUSH4 0x8D00BBE5 EQ PUSH2 0x1DC7 JUMPI DUP1 PUSH4 0x8DA5CB5B EQ PUSH2 0x1D9F JUMPI DUP1 PUSH4 0x8F631D54 EQ PUSH2 0x1D84 JUMPI DUP1 PUSH4 0x93B9E5AE EQ PUSH2 0x1D37 JUMPI DUP1 PUSH4 0x99B49E25 EQ PUSH2 0x1CD8 JUMPI DUP1 PUSH4 0x9A2AACA1 EQ PUSH2 0x1C4D JUMPI DUP1 PUSH4 0xA0BCFC7F EQ PUSH2 0x1B16 JUMPI DUP1 PUSH4 0xA22CB465 EQ PUSH2 0x1A3C JUMPI DUP1 PUSH4 0xAEC45D80 EQ PUSH2 0x19D9 JUMPI DUP1 PUSH4 0xB363935C EQ PUSH2 0x551 JUMPI DUP1 PUSH4 0xB5884E20 EQ PUSH2 0x1943 JUMPI DUP1 PUSH4 0xB7D120D0 EQ PUSH2 0x18F8 JUMPI DUP1 PUSH4 0xB84D93D4 EQ PUSH2 0x18BD JUMPI DUP1 PUSH4 0xBCE48991 EQ PUSH2 0x13DB JUMPI DUP1 PUSH4 0xC056E1E3 EQ PUSH2 0x85C JUMPI DUP1 PUSH4 0xC1D150E4 EQ PUSH2 0x134F JUMPI DUP1 PUSH4 0xC4EBE024 EQ PUSH2 0x1334 JUMPI DUP1 PUSH4 0xC5E20F80 EQ PUSH2 0x129D JUMPI DUP1 PUSH4 0xC8A3C3B5 EQ PUSH2 0x1224 JUMPI DUP1 PUSH4 0xCAD47192 EQ PUSH2 0x54C JUMPI DUP1 PUSH4 0xCB33BCDB EQ PUSH2 0x11D2 JUMPI DUP1 PUSH4 0xCEB0F6D8 EQ PUSH2 0xEBC JUMPI DUP1 PUSH4 0xCF22928D EQ PUSH2 0x11B0 JUMPI DUP1 PUSH4 0xD28C390A EQ PUSH2 0x117A JUMPI DUP1 PUSH4 0xD4B0521B EQ PUSH2 0x10FD JUMPI DUP1 PUSH4 0xD5C21BAA EQ PUSH2 0x10E0 JUMPI DUP1 PUSH4 0xD92FA2C6 EQ PUSH2 0x10B0 JUMPI DUP1 PUSH4 0xDB006A75 EQ PUSH2 0xEC1 JUMPI DUP1 PUSH4 0xDCB2125B EQ PUSH2 0xEBC JUMPI DUP1 PUSH4 0xE5A89945 EQ PUSH2 0x9ED JUMPI DUP1 PUSH4 0xE985E9C5 EQ PUSH2 0x99B JUMPI DUP1 PUSH4 0xEDA7C56E EQ PUSH2 0x861 JUMPI DUP1 PUSH4 0xEEAA8177 EQ PUSH2 0x85C JUMPI DUP1 PUSH4 0xF242432A EQ PUSH2 0x61B JUMPI DUP1 PUSH4 0xF2FDE38B EQ PUSH2 0x56C JUMPI DUP1 PUSH4 0xF4DB8984 EQ PUSH2 0x551 JUMPI DUP1 PUSH4 0xF64BFA59 EQ PUSH2 0x54C JUMPI DUP1 PUSH4 0xF68E55C3 EQ PUSH2 0x4EE JUMPI DUP1 PUSH4 0xF766DEE4 EQ PUSH2 0x4D3 JUMPI DUP1 PUSH4 0xF9569673 EQ PUSH2 0x496 JUMPI PUSH4 0xFD4FE8A8 EQ PUSH2 0x42C JUMPI PUSH0 DUP1 REVERT JUMPDEST CALLVALUE PUSH2 0x492 JUMPI PUSH1 0x20 CALLDATASIZE PUSH1 0x3 NOT ADD SLT PUSH2 0x492 JUMPI PUSH2 0x445 PUSH2 0x3E2B JUMP JUMPDEST PUSH2 0x44D PUSH2 0x496B JUMP JUMPDEST PUSH1 0xF DUP1 SLOAD PUSH1 0x1 PUSH1 0x1 PUSH1 0xA0 SHL SUB NOT AND PUSH1 0x1 PUSH1 0x1 PUSH1 0xA0 SHL SUB SWAP3 SWAP1 SWAP3 AND SWAP2 DUP3 OR SWAP1 SSTORE PUSH32 0x60A886C8DC324AF9C6D6A1BF7369FFE7557EF345EB5717BCEFFB59BEAC879A0A PUSH0 DUP1 LOG2 STOP JUMPDEST PUSH0 DUP1 REVERT JUMPDEST CALLVALUE PUSH2 0x492 JUMPI PUSH1 0x20 CALLDATASIZE PUSH1 0x3 NOT ADD SLT PUSH2 0x492 JUMPI PUSH1 0x1 PUSH1 0x1 PUSH1 0xA0 SHL SUB PUSH2 0x4B7 PUSH2 0x3E2B JUMP JUMPDEST AND PUSH0 MSTORE PUSH1 0x17 PUSH1 0x20 MSTORE PUSH1 0x20 PUSH1 0xFF PUSH1 0x40 PUSH0 KECCAK256 SLOAD AND PUSH1 0x40 MLOAD SWAP1 ISZERO ISZERO DUP2 MSTORE RETURN JUMPDEST CALLVALUE PUSH2 0x492 JUMPI PUSH0 CALLDATASIZE PUSH1 0x3 NOT ADD SLT PUSH2 0x492 JUMPI PUSH1 0x20 PUSH1 0x40 MLOAD PUSH1 0xA DUP2 MSTORE RETURN JUMPDEST CALLVALUE PUSH2 0x492 JUMPI PUSH1 0x20 CALLDATASIZE PUSH1 0x3 NOT ADD SLT PUSH2 0x492 JUMPI PUSH1 0x4 CALLDATALOAD PUSH2 0x50A PUSH2 0x496B JUMP JUMPDEST DUP1 ISZERO PUSH2 0x515 JUMPI PUSH1 0x8 SSTORE STOP JUMPDEST PUSH1 0x40 MLOAD PUSH3 0x461BCD PUSH1 0xE5 SHL DUP2 MSTORE PUSH1 0x20 PUSH1 0x4 DUP3 ADD MSTORE PUSH1 0xF PUSH1 0x24 DUP3 ADD MSTORE PUSH15 0x496E76616C6964206D696E696D756D PUSH1 0x88 SHL PUSH1 0x44 DUP3 ADD MSTORE PUSH1 0x64 SWAP1 REVERT JUMPDEST PUSH2 0x41F8 JUMP JUMPDEST CALLVALUE PUSH2 0x492 JUMPI PUSH0 CALLDATASIZE PUSH1 0x3 NOT ADD SLT PUSH2 0x492 JUMPI PUSH1 0x20 PUSH1 0x40 MLOAD PUSH1 0x6 DUP2 MSTORE RETURN JUMPDEST CALLVALUE PUSH2 0x492 JUMPI PUSH1 0x20 CALLDATASIZE PUSH1 0x3 NOT ADD SLT PUSH2 0x492 JUMPI PUSH2 0x585 PUSH2 0x3E2B JUMP JUMPDEST PUSH2 0x58D PUSH2 0x496B JUMP JUMPDEST PUSH1 0x1 PUSH1 0x1 PUSH1 0xA0 SHL SUB SWAP1 DUP2 AND SWAP1 DUP2 ISZERO PUSH2 0x5C7 JUMPI PUSH1 0x3 DUP1 SLOAD PUSH1 0x1 PUSH1 0x1 PUSH1 0xA0 SHL SUB NOT DUP2 AND DUP5 OR SWAP1 SWAP2 SSTORE AND PUSH0 DUP1 MLOAD PUSH1 0x20 PUSH2 0x5638 DUP4 CODECOPY DUP2 MLOAD SWAP2 MSTORE PUSH0 DUP1 LOG3 STOP JUMPDEST PUSH1 0x40 MLOAD PUSH3 0x461BCD PUSH1 0xE5 SHL DUP2 MSTORE PUSH1 0x20 PUSH1 0x4 DUP3 ADD MSTORE PUSH1 0x26 PUSH1 0x24 DUP3 ADD MSTORE PUSH32 0x4F776E61626C653A206E6577206F776E657220697320746865207A65726F2061 PUSH1 0x44 DUP3 ADD MSTORE PUSH6 0x646472657373 PUSH1 0xD0 SHL PUSH1 0x64 DUP3 ADD MSTORE PUSH1 0x84 SWAP1 REVERT JUMPDEST CALLVALUE PUSH2 0x492 JUMPI PUSH1 0xA0 CALLDATASIZE PUSH1 0x3 NOT ADD SLT PUSH2 0x492 JUMPI PUSH2 0x634 PUSH2 0x3E2B JUMP JUMPDEST PUSH2 0x63C PUSH2 0x3E41 JUMP JUMPDEST SWAP1 PUSH1 0x64 CALLDATALOAD PUSH1 0x44 CALLDATALOAD PUSH1 0x84 CALLDATALOAD PUSH1 0x1 PUSH1 0x1 PUSH1 0x40 SHL SUB DUP2 GT PUSH2 0x492 JUMPI PUSH2 0x662 SWAP1 CALLDATASIZE SWAP1 PUSH1 0x4 ADD PUSH2 0x4149 JUMP JUMPDEST PUSH1 0x1 PUSH1 0x1 PUSH1 0xA0 SHL SUB SWAP4 DUP5 AND SWAP4 CALLER DUP6 EQ DUP1 ISZERO PUSH2 0x837 JUMPI JUMPDEST PUSH2 0x681 SWAP1 PUSH2 0x47D8 JUMP JUMPDEST DUP6 AND PUSH2 0x68E DUP2 ISZERO ISZERO PUSH2 0x4E63 JUMP JUMPDEST PUSH2 0x697 DUP4 PUSH2 0x54D2 JUMP JUMPDEST POP PUSH2 0x6A1 DUP5 PUSH2 0x54D2 JUMP JUMPDEST POP DUP3 PUSH0 MSTORE PUSH1 0x20 SWAP6 PUSH0 DUP8 MSTORE PUSH1 0x40 PUSH0 KECCAK256 DUP7 PUSH0 MSTORE DUP8 MSTORE DUP5 PUSH1 0x40 PUSH0 KECCAK256 SLOAD PUSH2 0x6C6 DUP3 DUP3 LT ISZERO PUSH2 0x4EBD JUMP JUMPDEST DUP6 PUSH0 MSTORE PUSH0 DUP10 MSTORE PUSH1 0x40 PUSH0 KECCAK256 DUP9 PUSH0 MSTORE DUP10 MSTORE SUB PUSH1 0x40 PUSH0 KECCAK256 SSTORE DUP4 PUSH0 MSTORE PUSH0 DUP8 MSTORE PUSH1 0x40 PUSH0 KECCAK256 DUP3 PUSH0 MSTORE DUP8 MSTORE PUSH1 0x40 PUSH0 KECCAK256 PUSH2 0x6F9 DUP7 DUP3 SLOAD PUSH2 0x47AC JUMP JUMPDEST SWAP1 SSTORE DUP2 DUP7 PUSH1 0x40 MLOAD DUP7 DUP2 MSTORE DUP8 DUP11 DUP3 ADD MSTORE PUSH0 DUP1 MLOAD PUSH1 0x20 PUSH2 0x5538 DUP4 CODECOPY DUP2 MLOAD SWAP2 MSTORE PUSH1 0x40 CALLER SWAP3 LOG4 EXTCODESIZE PUSH2 0x722 JUMPI STOP JUMPDEST PUSH2 0x765 SWAP4 PUSH0 DUP8 SWAP5 PUSH1 0x40 MLOAD SWAP7 DUP8 SWAP6 DUP7 SWAP5 DUP6 SWAP4 PUSH4 0xF23A6E61 PUSH1 0xE0 SHL SWAP12 DUP13 DUP7 MSTORE CALLER PUSH1 0x4 DUP8 ADD MSTORE PUSH1 0x24 DUP7 ADD MSTORE PUSH1 0x44 DUP6 ADD MSTORE PUSH1 0x64 DUP5 ADD MSTORE PUSH1 0xA0 PUSH1 0x84 DUP5 ADD MSTORE PUSH1 0xA4 DUP4 ADD SWAP1 PUSH2 0x4023 JUMP JUMPDEST SUB SWAP3 GAS CALL PUSH0 SWAP2 DUP2 PUSH2 0x808 JUMPI JUMPDEST POP PUSH2 0x7DC JUMPI DUP3 PUSH2 0x77F PUSH2 0x53CE JUMP JUMPDEST PUSH4 0x8C379A0 EQ PUSH2 0x7A7 JUMPI JUMPDEST PUSH1 0x40 MLOAD PUSH3 0x461BCD PUSH1 0xE5 SHL DUP2 MSTORE DUP1 PUSH2 0x7A3 PUSH1 0x4 DUP3 ADD PUSH2 0x5456 JUMP JUMPDEST SUB SWAP1 REVERT JUMPDEST PUSH2 0x7AF PUSH2 0x53E9 JUMP JUMPDEST SWAP1 DUP2 PUSH2 0x7BB JUMPI POP PUSH2 0x78A JUMP JUMPDEST PUSH2 0x7A3 PUSH1 0x40 MLOAD SWAP3 DUP4 SWAP3 PUSH3 0x461BCD PUSH1 0xE5 SHL DUP5 MSTORE PUSH1 0x4 DUP5 ADD MSTORE PUSH1 0x24 DUP4 ADD SWAP1 PUSH2 0x4023 JUMP JUMPDEST PUSH1 0x1 PUSH1 0x1 PUSH1 0xE0 SHL SUB NOT AND SUB SWAP1 POP PUSH2 0x7EF JUMPI STOP JUMPDEST PUSH1 0x40 MLOAD PUSH3 0x461BCD PUSH1 0xE5 SHL DUP2 MSTORE DUP1 PUSH2 0x7A3 PUSH1 0x4 DUP3 ADD PUSH2 0x5385 JUMP JUMPDEST PUSH2 0x829 SWAP2 SWAP3 POP DUP5 RETURNDATASIZE DUP7 GT PUSH2 0x830 JUMPI JUMPDEST PUSH2 0x821 DUP2 DUP4 PUSH2 0x3F3D JUMP JUMPDEST DUP2 ADD SWAP1 PUSH2 0x5365 JUMP JUMPDEST SWAP1 DUP5 PUSH2 0x771 JUMP JUMPDEST POP RETURNDATASIZE PUSH2 0x817 JUMP JUMPDEST POP DUP5 PUSH0 MSTORE PUSH1 0x1 PUSH1 0x20 MSTORE PUSH1 0x40 PUSH0 KECCAK256 CALLER PUSH0 MSTORE PUSH1 0x20 MSTORE PUSH2 0x681 PUSH1 0xFF PUSH1 0x40 PUSH0 KECCAK256 SLOAD AND SWAP1 POP PUSH2 0x678 JUMP JUMPDEST PUSH2 0x1334 JUMP JUMPDEST CALLVALUE PUSH2 0x492 JUMPI PUSH2 0xFFFF PUSH2 0x872 CALLDATASIZE PUSH2 0x41BA JUMP JUMPDEST SWAP2 PUSH2 0x87E SWAP4 SWAP2 SWAP4 PUSH2 0x496B JUMP JUMPDEST AND SWAP2 PUSH2 0x88B DUP4 ISZERO ISZERO PUSH2 0x470D JUMP JUMPDEST DUP3 PUSH0 MSTORE PUSH1 0x20 SWAP1 PUSH1 0x19 DUP3 MSTORE PUSH1 0x40 PUSH0 KECCAK256 PUSH1 0x1 DUP1 PUSH1 0x40 SHL SUB DUP5 GT PUSH2 0x987 JUMPI PUSH2 0x8BA DUP5 PUSH2 0x8B4 DUP4 SLOAD PUSH2 0x3E99 JUMP JUMPDEST DUP4 PUSH2 0x474B JUMP JUMPDEST PUSH0 PUSH1 0x1F DUP6 GT PUSH1 0x1 EQ PUSH2 0x912 JUMPI SWAP2 PUSH2 0x902 SWAP2 PUSH2 0x8EE DUP7 DUP1 PUSH0 DUP1 MLOAD PUSH1 0x20 PUSH2 0x5518 DUP4 CODECOPY DUP2 MLOAD SWAP2 MSTORE SWAP9 SWAP8 SWAP7 PUSH0 SWAP2 PUSH2 0x907 JUMPI JUMPDEST POP PUSH2 0x479A JUMP JUMPDEST SWAP1 SSTORE JUMPDEST PUSH1 0x40 MLOAD SWAP4 DUP4 DUP6 SWAP5 DUP6 MSTORE DUP5 ADD SWAP2 PUSH2 0x466D JUMP JUMPDEST SUB SWAP1 LOG2 STOP JUMPDEST SWAP1 POP DUP5 ADD CALLDATALOAD DUP11 PUSH2 0x8E8 JUMP JUMPDEST PUSH1 0x1F NOT DUP6 AND SWAP1 DUP3 PUSH0 MSTORE DUP5 PUSH0 KECCAK256 SWAP2 PUSH0 JUMPDEST DUP2 DUP2 LT PUSH2 0x970 JUMPI POP SWAP2 PUSH2 0x902 SWAP4 SWAP2 DUP8 PUSH0 DUP1 MLOAD PUSH1 0x20 PUSH2 0x5518 DUP4 CODECOPY DUP2 MLOAD SWAP2 MSTORE SWAP9 SWAP8 SWAP7 SWAP5 LT PUSH2 0x957 JUMPI JUMPDEST POP POP PUSH1 0x1 DUP6 DUP2 SHL ADD SWAP1 SSTORE PUSH2 0x8F1 JUMP JUMPDEST DUP4 ADD CALLDATALOAD PUSH0 NOT PUSH1 0x3 DUP9 SWAP1 SHL PUSH1 0xF8 AND SHR NOT AND SWAP1 SSTORE DUP8 DUP1 PUSH2 0x948 JUMP JUMPDEST SWAP2 SWAP3 DUP7 PUSH1 0x1 DUP2 SWAP3 DUP7 DUP10 ADD CALLDATALOAD DUP2 SSTORE ADD SWAP5 ADD SWAP3 ADD PUSH2 0x921 JUMP JUMPDEST PUSH4 0x4E487B71 PUSH1 0xE0 SHL PUSH0 MSTORE PUSH1 0x41 PUSH1 0x4 MSTORE PUSH1 0x24 PUSH0 REVERT JUMPDEST CALLVALUE PUSH2 0x492 JUMPI PUSH1 0x40 CALLDATASIZE PUSH1 0x3 NOT ADD SLT PUSH2 0x492 JUMPI PUSH2 0x9B4 PUSH2 0x3E2B JUMP JUMPDEST PUSH2 0x9BC PUSH2 0x3E41 JUMP JUMPDEST SWAP1 PUSH1 0x1 DUP1 PUSH1 0xA0 SHL SUB DUP1 SWAP2 AND PUSH0 MSTORE PUSH1 0x1 PUSH1 0x20 MSTORE PUSH1 0x40 PUSH0 KECCAK256 SWAP2 AND PUSH0 MSTORE PUSH1 0x20 MSTORE PUSH1 0x20 PUSH1 0xFF PUSH1 0x40 PUSH0 KECCAK256 SLOAD AND PUSH1 0x40 MLOAD SWAP1 ISZERO ISZERO DUP2 MSTORE RETURN JUMPDEST CALLVALUE PUSH2 0x492 JUMPI PUSH1 0xA0 CALLDATASIZE PUSH1 0x3 NOT ADD SLT PUSH2 0x492 JUMPI PUSH1 0x4 CALLDATALOAD PUSH1 0x1 PUSH1 0x1 PUSH1 0x40 SHL SUB DUP2 GT PUSH2 0x492 JUMPI PUSH2 0xA1D SWAP1 CALLDATASIZE SWAP1 PUSH1 0x4 ADD PUSH2 0x4048 JUMP JUMPDEST PUSH1 0x24 CALLDATALOAD PUSH1 0x1 PUSH1 0x1 PUSH1 0x40 SHL SUB DUP2 GT PUSH2 0x492 JUMPI PUSH2 0xA3C SWAP1 CALLDATASIZE SWAP1 PUSH1 0x4 ADD PUSH2 0x4048 JUMP JUMPDEST SWAP1 SWAP2 PUSH1 0x44 SWAP1 PUSH1 0x64 SWAP4 DUP2 ISZERO PUSH2 0xE86 JUMPI DUP4 ISZERO PUSH2 0xE54 JUMPI PUSH2 0x2710 DUP1 DUP7 CALLDATALOAD GT PUSH2 0xE1E JUMPI PUSH1 0x84 CALLDATALOAD GT PUSH2 0xDE8 JUMPI PUSH3 0x15180 TIMESTAMP DIV CALLER PUSH0 MSTORE PUSH1 0x22 PUSH1 0x20 MSTORE PUSH1 0x40 PUSH0 KECCAK256 DUP2 PUSH0 MSTORE PUSH1 0x20 MSTORE PUSH1 0x3 PUSH1 0x40 PUSH0 KECCAK256 SLOAD LT ISZERO PUSH2 0xDA5 JUMPI CALLER PUSH0 MSTORE PUSH1 0x22 PUSH1 0x20 MSTORE PUSH1 0x40 PUSH0 KECCAK256 SWAP1 PUSH0 MSTORE PUSH1 0x20 MSTORE PUSH1 0x40 PUSH0 KECCAK256 DUP1 SLOAD SWAP1 PUSH1 0x1 DUP3 ADD DUP1 SWAP3 GT PUSH2 0xD91 JUMPI SSTORE PUSH1 0x5 SLOAD SWAP4 PUSH1 0x1 DUP6 ADD DUP1 DUP7 GT PUSH2 0xD91 JUMPI PUSH1 0x5 SSTORE PUSH1 0x40 MLOAD SWAP7 PUSH1 0xC0 DUP9 ADD PUSH1 0x1 PUSH1 0x1 PUSH1 0x40 SHL SUB DUP2 GT DUP10 DUP3 LT OR PUSH2 0x987 JUMPI PUSH1 0x40 MSTORE CALLER DUP9 MSTORE PUSH2 0xAEA CALLDATASIZE DUP6 DUP4 PUSH2 0x4113 JUMP JUMPDEST PUSH1 0x20 DUP10 ADD SWAP1 DUP2 MSTORE PUSH2 0xAFC CALLDATASIZE DUP5 DUP7 PUSH2 0x4113 JUMP JUMPDEST PUSH1 0x40 DUP11 DUP2 ADD SWAP2 SWAP1 SWAP2 MSTORE DUP7 CALLDATALOAD PUSH1 0x60 DUP12 ADD MSTORE DUP9 CALLDATALOAD PUSH1 0x80 DUP12 ADD MSTORE PUSH1 0x84 CALLDATALOAD PUSH1 0xA0 DUP12 ADD MSTORE PUSH0 DUP9 DUP2 MSTORE PUSH1 0x21 PUSH1 0x20 MSTORE KECCAK256 DUP10 MLOAD DUP2 SLOAD PUSH1 0x1 PUSH1 0x1 PUSH1 0xA0 SHL SUB NOT AND PUSH1 0x1 PUSH1 0x1 PUSH1 0xA0 SHL SUB SWAP2 SWAP1 SWAP2 AND OR DUP2 SSTORE SWAP1 MLOAD DUP1 MLOAD SWAP1 PUSH1 0x1 PUSH1 0x1 PUSH1 0x40 SHL SUB DUP3 GT PUSH2 0x987 JUMPI PUSH2 0xB6F DUP3 PUSH2 0xB66 PUSH1 0x1 DUP7 ADD SLOAD PUSH2 0x3E99 JUMP JUMPDEST PUSH1 0x1 DUP7 ADD PUSH2 0x474B JUMP JUMPDEST PUSH1 0x20 SWAP1 PUSH1 0x1F DUP4 GT PUSH1 0x1 EQ PUSH2 0xD27 JUMPI PUSH2 0xB91 SWAP3 SWAP2 PUSH0 SWAP2 DUP4 PUSH2 0xD1C JUMPI JUMPDEST POP POP PUSH2 0x479A JUMP JUMPDEST PUSH1 0x1 DUP3 ADD SSTORE JUMPDEST PUSH1 0x40 DUP10 ADD MLOAD DUP1 MLOAD SWAP1 SWAP10 SWAP1 PUSH1 0x1 PUSH1 0x1 PUSH1 0x40 SHL SUB DUP2 GT PUSH2 0x987 JUMPI PUSH1 0x20 SWAP11 PUSH2 0xBCC DUP3 PUSH2 0xBC3 PUSH1 0x2 DUP8 ADD SLOAD PUSH2 0x3E99 JUMP JUMPDEST PUSH1 0x2 DUP8 ADD PUSH2 0x474B JUMP JUMPDEST DUP12 SWAP1 PUSH1 0x1F DUP4 GT PUSH1 0x1 EQ PUSH2 0xC92 JUMPI SWAP4 PUSH1 0x5 PUSH1 0xA0 DUP13 SWAP14 SWAP9 SWAP6 PUSH2 0xC0D DUP7 PUSH2 0xC57 SWAP8 PUSH2 0xC64 SWAP12 SWAP8 PUSH0 DUP1 MLOAD PUSH1 0x20 PUSH2 0x5598 DUP4 CODECOPY DUP2 MLOAD SWAP2 MSTORE SWAP16 SWAP15 SWAP12 PUSH0 SWAP3 PUSH2 0xC87 JUMPI POP POP PUSH2 0x479A JUMP JUMPDEST PUSH1 0x2 DUP6 ADD SSTORE JUMPDEST PUSH1 0x60 DUP2 ADD MLOAD PUSH1 0x3 DUP6 ADD SSTORE PUSH1 0x80 DUP2 ADD MLOAD PUSH1 0x4 DUP6 ADD SSTORE ADD MLOAD SWAP2 ADD SSTORE PUSH2 0xC45 PUSH1 0x40 MLOAD PUSH2 0xC3B DUP2 PUSH2 0x3EEC JUMP JUMPDEST PUSH0 DUP2 MSTORE DUP12 CALLER PUSH2 0x4FAF JUMP JUMPDEST PUSH1 0x40 MLOAD SWAP7 PUSH1 0xA0 DUP9 MSTORE PUSH1 0xA0 DUP9 ADD SWAP2 PUSH2 0x466D JUMP JUMPDEST SWAP2 DUP6 DUP4 SUB DUP12 DUP8 ADD MSTORE PUSH2 0x466D JUMP JUMPDEST SWAP4 CALLDATALOAD PUSH1 0x40 DUP4 ADD MSTORE CALLDATALOAD PUSH1 0x60 DUP3 ADD MSTORE PUSH1 0x84 CALLDATALOAD PUSH1 0x80 DUP3 ADD MSTORE DUP1 CALLER SWAP4 SUB SWAP1 LOG3 PUSH1 0x40 MLOAD SWAP1 DUP2 MSTORE RETURN JUMPDEST ADD MLOAD SWAP1 POP PUSH0 DUP1 PUSH2 0xB8A JUMP JUMPDEST SWAP1 PUSH1 0x2 DUP6 ADD PUSH0 MSTORE DUP13 PUSH0 KECCAK256 SWAP2 PUSH0 JUMPDEST PUSH1 0x1F NOT DUP6 AND DUP2 LT PUSH2 0xD05 JUMPI POP PUSH1 0xA0 DUP13 SWAP14 SWAP9 SWAP6 PUSH1 0x1 DUP7 PUSH2 0xC64 SWAP11 SWAP7 PUSH0 DUP1 MLOAD PUSH1 0x20 PUSH2 0x5598 DUP4 CODECOPY DUP2 MLOAD SWAP2 MSTORE SWAP15 SWAP14 SWAP11 SWAP7 PUSH1 0x5 SWAP7 PUSH2 0xC57 SWAP11 PUSH1 0x1F NOT DUP2 AND LT PUSH2 0xCED JUMPI JUMPDEST POP POP POP DUP2 SHL ADD PUSH1 0x2 DUP6 ADD SSTORE PUSH2 0xC13 JUMP JUMPDEST ADD MLOAD PUSH0 NOT PUSH1 0xF8 DUP5 PUSH1 0x3 SHL AND SHR NOT AND SWAP1 SSTORE PUSH0 DUP1 DUP1 PUSH2 0xCDD JUMP JUMPDEST SWAP2 SWAP3 DUP15 PUSH1 0x1 DUP2 SWAP3 DUP7 DUP6 ADD MLOAD DUP2 SSTORE ADD SWAP5 ADD SWAP3 ADD PUSH2 0xC9F JUMP JUMPDEST ADD MLOAD SWAP1 POP DUP13 DUP1 PUSH2 0xB8A JUMP JUMPDEST SWAP1 PUSH1 0x1F NOT DUP4 AND SWAP2 PUSH1 0x1 DUP6 ADD PUSH0 MSTORE PUSH1 0x20 PUSH0 KECCAK256 SWAP3 PUSH0 JUMPDEST DUP2 DUP2 LT PUSH2 0xD79 JUMPI POP SWAP1 DUP5 PUSH1 0x1 SWAP6 SWAP5 SWAP4 SWAP3 LT PUSH2 0xD61 JUMPI JUMPDEST POP POP POP DUP2 SHL ADD PUSH1 0x1 DUP3 ADD SSTORE PUSH2 0xB97 JUMP JUMPDEST ADD MLOAD PUSH0 NOT PUSH1 0xF8 DUP5 PUSH1 0x3 SHL AND SHR NOT AND SWAP1 SSTORE DUP12 DUP1 DUP1 PUSH2 0xD51 JUMP JUMPDEST SWAP3 SWAP4 PUSH1 0x20 PUSH1 0x1 DUP2 SWAP3 DUP8 DUP7 ADD MLOAD DUP2 SSTORE ADD SWAP6 ADD SWAP4 ADD PUSH2 0xD3B JUMP JUMPDEST PUSH4 0x4E487B71 PUSH1 0xE0 SHL PUSH0 MSTORE PUSH1 0x11 PUSH1 0x4 MSTORE PUSH1 0x24 PUSH0 REVERT JUMPDEST PUSH1 0x40 MLOAD PUSH3 0x461BCD PUSH1 0xE5 SHL DUP2 MSTORE PUSH1 0x20 PUSH1 0x4 DUP3 ADD MSTORE PUSH1 0x1E PUSH1 0x24 DUP3 ADD MSTORE PUSH32 0x4461696C792063726564656E7469616C206C696D697420726561636865640000 DUP2 DUP7 ADD MSTORE DUP7 SWAP1 REVERT JUMPDEST PUSH1 0x40 MLOAD PUSH3 0x461BCD PUSH1 0xE5 SHL DUP2 MSTORE PUSH1 0x20 PUSH1 0x4 DUP3 ADD MSTORE PUSH1 0x10 PUSH1 0x24 DUP3 ADD MSTORE PUSH16 0x24B73B30B634B210323930BBB237BBB7 PUSH1 0x81 SHL DUP2 DUP6 ADD MSTORE DUP6 SWAP1 REVERT JUMPDEST PUSH1 0x40 MLOAD PUSH3 0x461BCD PUSH1 0xE5 SHL DUP2 MSTORE PUSH1 0x20 PUSH1 0x4 DUP3 ADD MSTORE PUSH1 0x10 PUSH1 0x24 DUP3 ADD MSTORE PUSH16 0x496E76616C69642077696E2072617465 PUSH1 0x80 SHL DUP2 DUP7 ADD MSTORE DUP7 SWAP1 REVERT JUMPDEST PUSH1 0x40 MLOAD PUSH3 0x461BCD PUSH1 0xE5 SHL DUP2 MSTORE PUSH1 0x20 PUSH1 0x4 DUP3 ADD MSTORE PUSH1 0xC PUSH1 0x24 DUP3 ADD MSTORE PUSH12 0x4D697373696E672064617465 PUSH1 0xA0 SHL DUP2 DUP6 ADD MSTORE DUP6 SWAP1 REVERT JUMPDEST PUSH1 0x40 MLOAD PUSH3 0x461BCD PUSH1 0xE5 SHL DUP2 MSTORE PUSH1 0x20 PUSH1 0x4 DUP3 ADD MSTORE PUSH1 0x10 PUSH1 0x24 DUP3 ADD MSTORE PUSH16 0x4D697373696E672063617465676F7279 PUSH1 0x80 SHL DUP2 DUP6 ADD MSTORE DUP6 SWAP1 REVERT JUMPDEST PUSH2 0x1F42 JUMP JUMPDEST CALLVALUE PUSH2 0x492 JUMPI PUSH1 0x20 DUP1 PUSH1 0x3 NOT CALLDATASIZE ADD SLT PUSH2 0x492 JUMPI PUSH1 0x4 CALLDATALOAD PUSH2 0xEE1 DUP2 ISZERO ISZERO PUSH2 0x49C3 JUMP JUMPDEST CALLER ISZERO PUSH2 0x1072 JUMPI PUSH1 0x40 MLOAD PUSH2 0xEF3 DUP2 PUSH2 0x3F22 JUMP JUMPDEST PUSH1 0x1 DUP2 MSTORE DUP3 DUP2 ADD SWAP1 DUP4 CALLDATASIZE DUP4 CALLDATACOPY MLOAD ISZERO PUSH2 0x105E JUMPI PUSH2 0x3E9 DUP1 SWAP2 MSTORE PUSH2 0xF14 DUP3 PUSH2 0x54D2 JUMP JUMPDEST POP PUSH0 PUSH1 0x40 MLOAD PUSH2 0xF22 DUP2 PUSH2 0x3EEC JUMP JUMPDEST MSTORE DUP1 PUSH0 MSTORE PUSH0 DUP4 MSTORE PUSH1 0x40 PUSH0 KECCAK256 CALLER PUSH0 MSTORE DUP4 MSTORE PUSH1 0x40 PUSH0 KECCAK256 SLOAD DUP3 DUP2 LT PUSH2 0x1020 JUMPI DUP3 SWAP1 DUP3 PUSH0 MSTORE PUSH0 DUP6 MSTORE PUSH1 0x40 PUSH0 KECCAK256 CALLER PUSH0 MSTORE DUP6 MSTORE SUB PUSH1 0x40 PUSH0 KECCAK256 SSTORE PUSH0 PUSH1 0x40 MLOAD DUP3 DUP2 MSTORE DUP4 DUP6 DUP3 ADD MSTORE CALLER SWAP1 PUSH0 DUP1 MLOAD PUSH1 0x20 PUSH2 0x5538 DUP4 CODECOPY DUP2 MLOAD SWAP2 MSTORE PUSH1 0x40 CALLER SWAP3 LOG4 PUSH0 PUSH1 0x40 MLOAD PUSH2 0xF83 DUP2 PUSH2 0x3EEC JUMP JUMPDEST MSTORE CALLER PUSH0 SWAP1 DUP2 MSTORE PUSH1 0x18 DUP5 MSTORE PUSH1 0x40 DUP1 DUP3 KECCAK256 PUSH1 0x1 DUP4 MSTORE DUP6 MSTORE SWAP1 KECCAK256 SLOAD DUP1 DUP4 LT PUSH2 0x1001 JUMPI POP PUSH0 JUMPDEST CALLER PUSH0 MSTORE PUSH1 0x18 DUP5 MSTORE PUSH1 0x40 PUSH0 KECCAK256 PUSH1 0x1 PUSH0 MSTORE DUP5 MSTORE PUSH1 0x40 PUSH0 KECCAK256 SSTORE PUSH1 0x40 MLOAD DUP3 DUP2 MSTORE DUP3 DUP5 DUP3 ADD MSTORE PUSH0 DUP1 MLOAD PUSH1 0x20 PUSH2 0x5718 DUP4 CODECOPY DUP2 MLOAD SWAP2 MSTORE PUSH1 0x40 CALLER SWAP3 LOG2 PUSH1 0x1 PUSH1 0x40 MLOAD DUP4 DUP2 MSTORE DUP4 DUP6 DUP3 ADD MSTORE PUSH0 DUP1 MLOAD PUSH1 0x20 PUSH2 0x5678 DUP4 CODECOPY DUP2 MLOAD SWAP2 MSTORE PUSH1 0x40 CALLER SWAP3 LOG4 PUSH1 0x40 MLOAD SWAP1 DUP2 MSTORE RETURN JUMPDEST DUP3 DUP2 SUB SWAP1 DUP2 GT ISZERO PUSH2 0xFA5 JUMPI PUSH4 0x4E487B71 PUSH1 0xE0 SHL PUSH0 MSTORE PUSH1 0x11 PUSH1 0x4 MSTORE PUSH1 0x24 PUSH0 REVERT JUMPDEST PUSH1 0x40 MLOAD PUSH3 0x461BCD PUSH1 0xE5 SHL DUP2 MSTORE PUSH1 0x4 DUP2 ADD DUP6 SWAP1 MSTORE PUSH1 0x24 DUP1 DUP3 ADD MSTORE PUSH0 DUP1 MLOAD PUSH1 0x20 PUSH2 0x5618 DUP4 CODECOPY DUP2 MLOAD SWAP2 MSTORE PUSH1 0x44 DUP3 ADD MSTORE PUSH4 0x616E6365 PUSH1 0xE0 SHL PUSH1 0x64 DUP3 ADD MSTORE PUSH1 0x84 SWAP1 REVERT JUMPDEST PUSH4 0x4E487B71 PUSH1 0xE0 SHL PUSH0 MSTORE PUSH1 0x32 PUSH1 0x4 MSTORE PUSH1 0x24 PUSH0 REVERT JUMPDEST PUSH1 0x40 MLOAD PUSH3 0x461BCD PUSH1 0xE5 SHL DUP2 MSTORE PUSH1 0x4 DUP2 ADD DUP4 SWAP1 MSTORE PUSH1 0x23 PUSH1 0x24 DUP3 ADD MSTORE PUSH0 DUP1 MLOAD PUSH1 0x20 PUSH2 0x5578 DUP4 CODECOPY DUP2 MLOAD SWAP2 MSTORE PUSH1 0x44 DUP3 ADD MSTORE PUSH3 0x657373 PUSH1 0xE8 SHL PUSH1 0x64 DUP3 ADD MSTORE PUSH1 0x84 SWAP1 REVERT JUMPDEST CALLVALUE PUSH2 0x492 JUMPI PUSH1 0x40 CALLDATASIZE PUSH1 0x3 NOT ADD SLT PUSH2 0x492 JUMPI PUSH1 0x20 PUSH2 0x10D8 PUSH2 0x10CE PUSH2 0x3E77 JUMP JUMPDEST PUSH1 0x24 CALLDATALOAD SWAP1 CALLER PUSH2 0x50FF JUMP JUMPDEST PUSH1 0x40 MLOAD SWAP1 DUP2 MSTORE RETURN JUMPDEST CALLVALUE PUSH2 0x492 JUMPI PUSH0 CALLDATASIZE PUSH1 0x3 NOT ADD SLT PUSH2 0x492 JUMPI PUSH1 0x20 PUSH1 0x5 SLOAD PUSH1 0x40 MLOAD SWAP1 DUP2 MSTORE RETURN JUMPDEST CALLVALUE PUSH2 0x492 JUMPI PUSH1 0x20 CALLDATASIZE PUSH1 0x3 NOT ADD SLT PUSH2 0x492 JUMPI PUSH1 0x4 CALLDATALOAD PUSH1 0x1F SLOAD DUP2 LT ISZERO PUSH2 0x113F JUMPI PUSH2 0x1126 PUSH1 0x20 SWAP2 PUSH2 0x4912 JUMP JUMPDEST SWAP1 SLOAD PUSH1 0x40 MLOAD PUSH1 0x3 SWAP3 SWAP1 SWAP3 SHL SHR PUSH1 0x1 PUSH1 0x1 PUSH1 0xA0 SHL SUB AND DUP2 MSTORE RETURN JUMPDEST PUSH1 0x40 MLOAD PUSH3 0x461BCD PUSH1 0xE5 SHL DUP2 MSTORE PUSH1 0x20 PUSH1 0x4 DUP3 ADD MSTORE PUSH1 0x13 PUSH1 0x24 DUP3 ADD MSTORE PUSH19 0x496E646578206F7574206F6620626F756E6473 PUSH1 0x68 SHL PUSH1 0x44 DUP3 ADD MSTORE PUSH1 0x64 SWAP1 REVERT JUMPDEST CALLVALUE PUSH2 0x492 JUMPI PUSH1 0x20 CALLDATASIZE PUSH1 0x3 NOT ADD SLT PUSH2 0x492 JUMPI PUSH1 0x7 SLOAD PUSH1 0x4 CALLDATALOAD DUP2 DUP2 MUL SWAP2 DUP2 ISZERO SWAP2 DUP4 DIV EQ OR ISZERO PUSH2 0xD91 JUMPI PUSH1 0x20 SWAP1 PUSH2 0x2710 PUSH1 0x40 MLOAD SWAP2 DIV DUP2 MSTORE RETURN JUMPDEST CALLVALUE PUSH2 0x492 JUMPI PUSH0 CALLDATASIZE PUSH1 0x3 NOT ADD SLT PUSH2 0x492 JUMPI PUSH1 0x20 PUSH1 0xFF PUSH1 0xA SLOAD AND PUSH1 0x40 MLOAD SWAP1 ISZERO ISZERO DUP2 MSTORE RETURN JUMPDEST CALLVALUE PUSH2 0x492 JUMPI PUSH1 0x40 CALLDATASIZE PUSH1 0x3 NOT ADD SLT PUSH2 0x492 JUMPI PUSH2 0x11EB PUSH2 0x3E2B JUMP JUMPDEST PUSH2 0x11F3 PUSH2 0x3E57 JUMP JUMPDEST SWAP1 PUSH1 0x1 DUP1 PUSH1 0xA0 SHL SUB AND PUSH0 MSTORE PUSH1 0x12 PUSH1 0x20 MSTORE PUSH1 0xFF PUSH1 0x40 PUSH0 KECCAK256 SWAP2 AND PUSH0 MSTORE PUSH1 0x20 MSTORE PUSH1 0x20 PUSH1 0xFF PUSH1 0x40 PUSH0 KECCAK256 SLOAD AND PUSH1 0x40 MLOAD SWAP1 ISZERO ISZERO DUP2 MSTORE RETURN JUMPDEST CALLVALUE PUSH2 0x492 JUMPI PUSH1 0x20 CALLDATASIZE PUSH1 0x3 NOT ADD SLT PUSH2 0x492 JUMPI PUSH1 0x1 PUSH1 0x1 PUSH1 0xA0 SHL SUB PUSH2 0x1245 PUSH2 0x3E2B JUMP JUMPDEST AND PUSH0 MSTORE PUSH1 0x16 PUSH1 0x20 MSTORE PUSH1 0xE0 PUSH1 0x40 PUSH0 KECCAK256 DUP1 SLOAD SWAP1 PUSH1 0x1 DUP2 ADD SLOAD SWAP1 PUSH1 0x2 DUP2 ADD SLOAD PUSH1 0x3 DUP3 ADD SLOAD PUSH1 0x4 DUP4 ADD SLOAD SWAP2 PUSH1 0x6 PUSH1 0x5 DUP6 ADD SLOAD SWAP5 ADD SLOAD SWAP5 PUSH1 0x40 MLOAD SWAP7 DUP8 MSTORE PUSH1 0x20 DUP8 ADD MSTORE PUSH1 0x40 DUP7 ADD MSTORE PUSH1 0x60 DUP6 ADD MSTORE PUSH1 0x80 DUP5 ADD MSTORE PUSH1 0xA0 DUP4 ADD MSTORE PUSH1 0xC0 DUP3 ADD MSTORE RETURN JUMPDEST CALLVALUE PUSH2 0x492 JUMPI PUSH1 0x20 CALLDATASIZE PUSH1 0x3 NOT ADD SLT PUSH2 0x492 JUMPI PUSH1 0x4 CALLDATALOAD PUSH0 SWAP1 DUP2 MSTORE PUSH1 0x21 PUSH1 0x20 MSTORE PUSH1 0x40 SWAP1 KECCAK256 DUP1 SLOAD PUSH1 0x1 PUSH1 0x1 PUSH1 0xA0 SHL SUB AND PUSH2 0x12D5 PUSH1 0x1 DUP4 ADD PUSH2 0x3F60 JUMP JUMPDEST SWAP2 PUSH2 0x12E2 PUSH1 0x2 DUP3 ADD PUSH2 0x3F60 JUMP JUMPDEST PUSH1 0x3 DUP3 ADD SLOAD SWAP2 PUSH2 0x1320 PUSH1 0x5 PUSH1 0x4 DUP4 ADD SLOAD SWAP3 ADD SLOAD SWAP3 PUSH2 0x1312 PUSH1 0x40 MLOAD SWAP8 DUP9 SWAP8 DUP9 MSTORE PUSH1 0xC0 PUSH1 0x20 DUP10 ADD MSTORE PUSH1 0xC0 DUP9 ADD SWAP1 PUSH2 0x4023 JUMP JUMPDEST SWAP1 DUP7 DUP3 SUB PUSH1 0x40 DUP9 ADD MSTORE PUSH2 0x4023 JUMP JUMPDEST SWAP3 PUSH1 0x60 DUP6 ADD MSTORE PUSH1 0x80 DUP5 ADD MSTORE PUSH1 0xA0 DUP4 ADD MSTORE SUB SWAP1 RETURN JUMPDEST CALLVALUE PUSH2 0x492 JUMPI PUSH0 CALLDATASIZE PUSH1 0x3 NOT ADD SLT PUSH2 0x492 JUMPI PUSH1 0x20 PUSH1 0x40 MLOAD PUSH1 0x3 DUP2 MSTORE RETURN JUMPDEST CALLVALUE PUSH2 0x492 JUMPI PUSH1 0x60 CALLDATASIZE PUSH1 0x3 NOT ADD SLT PUSH2 0x492 JUMPI PUSH2 0x1368 PUSH2 0x3E77 JUMP JUMPDEST PUSH1 0x44 CALLDATALOAD PUSH1 0x1 PUSH1 0x1 PUSH1 0x40 SHL SUB DUP2 GT PUSH2 0x492 JUMPI PUSH2 0x1387 SWAP1 CALLDATASIZE SWAP1 PUSH1 0x4 ADD PUSH2 0x4048 JUMP JUMPDEST SWAP1 POP ISZERO PUSH2 0x139E JUMPI PUSH2 0x10D8 PUSH1 0x20 SWAP2 PUSH1 0x24 CALLDATALOAD SWAP1 CALLER PUSH2 0x49FD JUMP JUMPDEST PUSH1 0x40 MLOAD PUSH3 0x461BCD PUSH1 0xE5 SHL DUP2 MSTORE PUSH1 0x20 PUSH1 0x4 DUP3 ADD MSTORE PUSH1 0x15 PUSH1 0x24 DUP3 ADD MSTORE PUSH21 0x4D697373696E672070757263686173652064617465 PUSH1 0x58 SHL PUSH1 0x44 DUP3 ADD MSTORE PUSH1 0x64 SWAP1 REVERT JUMPDEST CALLVALUE PUSH2 0x492 JUMPI PUSH1 0x80 CALLDATASIZE PUSH1 0x3 NOT ADD SLT PUSH2 0x492 JUMPI PUSH2 0x13F4 PUSH2 0x3E77 JUMP JUMPDEST PUSH1 0x1 PUSH1 0x1 PUSH1 0x40 SHL SUB SWAP1 PUSH1 0x24 SWAP1 PUSH1 0x44 CALLDATALOAD DUP4 DUP2 GT PUSH2 0x492 JUMPI PUSH2 0x1418 SWAP1 CALLDATASIZE SWAP1 PUSH1 0x4 ADD PUSH2 0x4048 JUMP JUMPDEST PUSH2 0xFFFF PUSH1 0x64 SWAP5 SWAP3 SWAP5 CALLDATALOAD SWAP4 AND SWAP2 PUSH2 0x142F DUP4 ISZERO ISZERO PUSH2 0x470D JUMP JUMPDEST DUP1 CALLDATALOAD ISZERO PUSH2 0x1887 JUMPI DUP2 ISZERO PUSH2 0x184D JUMPI PUSH2 0x1447 DUP5 ISZERO ISZERO PUSH2 0x48C3 JUMP JUMPDEST PUSH2 0x1459 PUSH2 0x1453 CALLER PUSH2 0x4224 JUMP JUMPDEST ISZERO PUSH2 0x46CF JUMP JUMPDEST CALLER PUSH0 MSTORE PUSH1 0x20 SWAP6 PUSH1 0x12 DUP8 MSTORE PUSH1 0x40 PUSH0 KECCAK256 SWAP1 PUSH1 0x2 SWAP2 DUP3 PUSH0 MSTORE DUP9 MSTORE PUSH1 0x40 PUSH0 KECCAK256 SWAP6 PUSH1 0x1 SWAP7 DUP8 PUSH1 0xFF NOT DUP3 SLOAD AND OR SWAP1 SSTORE CALLER PUSH0 MSTORE PUSH1 0x1E DUP10 MSTORE PUSH1 0x40 PUSH0 KECCAK256 DUP4 PUSH0 MSTORE DUP10 MSTORE PUSH0 PUSH1 0x40 DUP2 KECCAK256 SSTORE CALLER PUSH0 MSTORE PUSH1 0x1D DUP10 MSTORE PUSH1 0x40 PUSH0 KECCAK256 DUP4 PUSH0 MSTORE DUP10 MSTORE DUP1 PUSH1 0x40 PUSH0 KECCAK256 SSTORE PUSH2 0x14B7 CALLER PUSH2 0x4224 JUMP JUMPDEST ISZERO PUSH2 0x166B JUMPI JUMPDEST POP PUSH1 0x6 SLOAD SWAP6 DUP1 DUP8 ADD DUP1 DUP9 GT PUSH2 0x1658 JUMPI PUSH1 0x6 SSTORE PUSH1 0x40 MLOAD SWAP3 PUSH2 0x14DC DUP5 PUSH2 0x3ED1 JUMP JUMPDEST CALLER DUP5 MSTORE DUP10 DUP5 ADD SWAP4 DUP8 DUP6 MSTORE PUSH1 0x40 DUP2 ADD DUP7 CALLDATALOAD DUP2 MSTORE PUSH2 0x14F9 CALLDATASIZE DUP10 DUP14 PUSH2 0x4113 JUMP JUMPDEST SWAP6 PUSH1 0x60 DUP4 ADD SWAP7 DUP8 MSTORE DUP11 PUSH0 MSTORE PUSH1 0x23 DUP14 MSTORE PUSH1 0x40 PUSH0 KECCAK256 SWAP3 PUSH1 0x1 DUP1 PUSH1 0xA0 SHL SUB SWAP1 MLOAD AND DUP4 SLOAD SWAP2 PUSH2 0xFFFF PUSH1 0xA0 SHL SWAP1 MLOAD PUSH1 0xA0 SHL AND SWAP2 PUSH1 0x1 DUP1 PUSH1 0xB0 SHL SUB NOT AND OR OR DUP3 SSTORE MLOAD DUP4 DUP3 ADD SSTORE ADD SWAP3 MLOAD DUP1 MLOAD SWAP3 DUP4 GT PUSH2 0x1645 JUMPI PUSH2 0x1559 DUP4 PUSH2 0x1553 DUP7 SLOAD PUSH2 0x3E99 JUMP JUMPDEST DUP7 PUSH2 0x474B JUMP JUMPDEST DUP10 SWAP2 PUSH1 0x1F DUP5 GT PUSH1 0x1 EQ PUSH2 0x15D2 JUMPI POP DUP3 PUSH0 DUP1 MLOAD PUSH1 0x20 PUSH2 0x5738 DUP4 CODECOPY DUP2 MLOAD SWAP2 MSTORE SWAP6 SWAP4 DUP10 SWAP11 SWAP6 SWAP4 PUSH2 0x158D SWAP4 PUSH0 SWAP3 PUSH2 0xD1C JUMPI POP POP PUSH2 0x479A JUMP JUMPDEST SWAP1 SSTORE JUMPDEST PUSH2 0x15A9 PUSH1 0x40 MLOAD PUSH2 0x159F DUP2 PUSH2 0x3EEC JUMP JUMPDEST PUSH0 DUP2 MSTORE DUP8 CALLER PUSH2 0x4FAF JUMP JUMPDEST PUSH2 0x15C7 PUSH1 0x40 MLOAD SWAP3 DUP4 SWAP3 CALLDATALOAD DUP4 MSTORE PUSH1 0x40 DUP11 DUP5 ADD MSTORE CALLER SWAP6 PUSH1 0x40 DUP5 ADD SWAP2 PUSH2 0x466D JUMP JUMPDEST SUB SWAP1 LOG4 PUSH1 0x40 MLOAD SWAP1 DUP2 MSTORE RETURN JUMPDEST SWAP3 SWAP2 PUSH1 0x1F NOT DUP4 AND SWAP2 DUP6 PUSH0 MSTORE DUP12 PUSH0 KECCAK256 SWAP3 PUSH0 JUMPDEST DUP14 DUP3 DUP3 LT PUSH2 0x1631 JUMPI POP POP SWAP2 PUSH0 DUP1 MLOAD PUSH1 0x20 PUSH2 0x5738 DUP4 CODECOPY DUP2 MLOAD SWAP2 MSTORE SWAP8 SWAP6 SWAP4 SWAP2 DUP6 DUP13 SWAP14 SWAP9 SWAP7 SWAP5 LT PUSH2 0x1619 JUMPI JUMPDEST POP POP POP DUP2 SHL ADD SWAP1 SSTORE PUSH2 0x1590 JUMP JUMPDEST ADD MLOAD PUSH0 NOT PUSH1 0xF8 DUP5 PUSH1 0x3 SHL AND SHR NOT AND SWAP1 SSTORE DUP12 DUP1 DUP1 PUSH2 0x160C JUMP JUMPDEST DUP4 DUP6 ADD MLOAD DUP7 SSTORE SWAP5 DUP8 ADD SWAP5 SWAP4 DUP5 ADD SWAP4 ADD PUSH2 0x15E3 JUMP JUMPDEST DUP5 PUSH4 0x4E487B71 PUSH1 0xE0 SHL PUSH0 MSTORE PUSH1 0x41 PUSH1 0x4 MSTORE PUSH0 REVERT JUMPDEST DUP5 PUSH4 0x4E487B71 PUSH1 0xE0 SHL PUSH0 MSTORE PUSH1 0x11 PUSH1 0x4 MSTORE PUSH0 REVERT JUMPDEST PUSH1 0x40 MLOAD PUSH2 0x1677 DUP2 PUSH2 0x3EEC JUMP JUMPDEST PUSH0 DUP2 MSTORE PUSH2 0x1685 CALLER ISZERO ISZERO PUSH2 0x4F59 JUMP JUMPDEST PUSH1 0x40 MLOAD PUSH2 0x1691 DUP2 PUSH2 0x3F22 JUMP JUMPDEST DUP9 DUP2 MSTORE DUP11 DUP2 ADD SWAP1 DUP12 CALLDATASIZE DUP4 CALLDATACOPY MLOAD ISZERO PUSH2 0x183A JUMPI PUSH1 0xCA SWAP1 MSTORE PUSH2 0x16AE PUSH2 0x54AB JUMP JUMPDEST POP PUSH1 0xCA PUSH0 MSTORE PUSH0 DUP11 MSTORE PUSH1 0x40 PUSH0 KECCAK256 CALLER PUSH0 MSTORE DUP11 MSTORE PUSH1 0x40 PUSH0 KECCAK256 DUP1 SLOAD SWAP1 DUP10 DUP3 ADD DUP1 SWAP3 GT PUSH2 0x1827 JUMPI SSTORE PUSH1 0x40 MLOAD PUSH1 0xCA DUP2 MSTORE DUP9 DUP12 DUP3 ADD MSTORE PUSH0 CALLER SWAP2 PUSH0 DUP1 MLOAD PUSH1 0x20 PUSH2 0x5538 DUP4 CODECOPY DUP2 MLOAD SWAP2 MSTORE PUSH1 0x40 CALLER SWAP3 LOG4 CALLER EXTCODESIZE PUSH2 0x1733 JUMPI JUMPDEST POP PUSH1 0x40 MLOAD DUP4 SWAP2 DUP3 CALLER PUSH0 DUP1 MLOAD PUSH1 0x20 PUSH2 0x55F8 DUP4 CODECOPY DUP2 MLOAD SWAP2 MSTORE PUSH0 DUP1 LOG3 PUSH0 DUP3 MSTORE DUP11 DUP3 ADD MSTORE PUSH0 DUP1 MLOAD PUSH1 0x20 PUSH2 0x56D8 DUP4 CODECOPY DUP2 MLOAD SWAP2 MSTORE PUSH1 0x40 CALLER SWAP3 LOG3 DUP9 PUSH2 0x14BD JUMP JUMPDEST SWAP4 PUSH2 0x177A DUP11 DUP3 SWAP12 SWAP11 SWAP10 SWAP9 SWAP8 SWAP7 PUSH1 0x40 MLOAD DUP1 SWAP4 DUP2 SWAP3 PUSH0 PUSH4 0xF23A6E61 PUSH1 0xE0 SHL SWAP8 DUP9 DUP6 MSTORE CALLER PUSH1 0x4 DUP7 ADD MSTORE DUP5 ADD MSTORE PUSH1 0xCA PUSH1 0x44 DUP5 ADD MSTORE DUP13 PUSH1 0x64 DUP5 ADD MSTORE PUSH1 0xA0 PUSH1 0x84 DUP5 ADD MSTORE PUSH1 0xA4 DUP4 ADD SWAP1 PUSH2 0x4023 JUMP JUMPDEST SUB DUP2 PUSH0 CALLER GAS CALL PUSH0 SWAP2 DUP2 PUSH2 0x1808 JUMPI JUMPDEST POP PUSH2 0x17ED JUMPI DUP11 DUP11 PUSH2 0x1797 PUSH2 0x53CE JUMP JUMPDEST PUSH4 0x8C379A0 EQ PUSH2 0x17BA JUMPI PUSH1 0x40 MLOAD PUSH3 0x461BCD PUSH1 0xE5 SHL DUP2 MSTORE DUP1 PUSH2 0x7A3 PUSH1 0x4 DUP3 ADD PUSH2 0x5456 JUMP JUMPDEST PUSH2 0x17C2 PUSH2 0x53E9 JUMP JUMPDEST DUP1 PUSH2 0x17CD JUMPI POP PUSH2 0x78A JUMP JUMPDEST PUSH2 0x7A3 SWAP1 PUSH1 0x40 MLOAD SWAP4 DUP5 SWAP4 PUSH3 0x461BCD PUSH1 0xE5 SHL DUP6 MSTORE PUSH1 0x4 DUP6 ADD MSTORE DUP4 ADD SWAP1 PUSH2 0x4023 JUMP JUMPDEST PUSH4 0xFFFFFFFF PUSH1 0xE0 SWAP12 SWAP7 SWAP8 SWAP9 SWAP10 SWAP11 SWAP12 SHL AND SUB PUSH2 0x7EF JUMPI DUP3 PUSH2 0x16FA JUMP JUMPDEST PUSH2 0x1820 SWAP2 SWAP3 POP DUP12 RETURNDATASIZE DUP14 GT PUSH2 0x830 JUMPI PUSH2 0x821 DUP2 DUP4 PUSH2 0x3F3D JUMP JUMPDEST SWAP1 DUP13 PUSH2 0x1788 JUMP JUMPDEST DUP7 PUSH4 0x4E487B71 PUSH1 0xE0 SHL PUSH0 MSTORE PUSH1 0x11 PUSH1 0x4 MSTORE PUSH0 REVERT JUMPDEST DUP6 PUSH4 0x4E487B71 PUSH1 0xE0 SHL PUSH0 MSTORE PUSH1 0x32 PUSH1 0x4 MSTORE PUSH0 REVERT JUMPDEST PUSH1 0x64 SWAP1 PUSH1 0x13 PUSH1 0x40 MLOAD SWAP2 PUSH3 0x461BCD PUSH1 0xE5 SHL DUP4 MSTORE PUSH1 0x20 PUSH1 0x4 DUP5 ADD MSTORE DUP3 ADD MSTORE PUSH19 0x4D697373696E6720706C656467652064617465 PUSH1 0x68 SHL PUSH1 0x44 DUP3 ADD MSTORE REVERT JUMPDEST PUSH1 0x64 SWAP1 PUSH1 0xF PUSH1 0x40 MLOAD SWAP2 PUSH3 0x461BCD PUSH1 0xE5 SHL DUP4 MSTORE PUSH1 0x20 PUSH1 0x4 DUP5 ADD MSTORE DUP3 ADD MSTORE PUSH15 0x125B9D985B1A59081CDD5C1C1BDC9D PUSH1 0x8A SHL PUSH1 0x44 DUP3 ADD MSTORE REVERT JUMPDEST CALLVALUE PUSH2 0x492 JUMPI PUSH1 0x20 CALLDATASIZE PUSH1 0x3 NOT ADD SLT PUSH2 0x492 JUMPI PUSH1 0x1 PUSH1 0x1 PUSH1 0xA0 SHL SUB PUSH2 0x18DE PUSH2 0x3E2B JUMP JUMPDEST AND PUSH0 MSTORE PUSH1 0x14 PUSH1 0x20 MSTORE PUSH1 0x20 PUSH1 0xFF PUSH1 0x40 PUSH0 KECCAK256 SLOAD AND PUSH1 0x40 MLOAD SWAP1 DUP2 MSTORE RETURN JUMPDEST CALLVALUE PUSH2 0x492 JUMPI PUSH1 0x20 CALLDATASIZE PUSH1 0x3 NOT ADD SLT PUSH2 0x492 JUMPI PUSH2 0xFFFF PUSH2 0x1914 PUSH2 0x3E77 JUMP JUMPDEST AND PUSH0 MSTORE PUSH1 0x19 PUSH1 0x20 MSTORE PUSH2 0x193F PUSH2 0x192B PUSH1 0x40 PUSH0 KECCAK256 PUSH2 0x3F60 JUMP JUMPDEST PUSH1 0x40 MLOAD SWAP2 DUP3 SWAP2 PUSH1 0x20 DUP4 MSTORE PUSH1 0x20 DUP4 ADD SWAP1 PUSH2 0x4023 JUMP JUMPDEST SUB SWAP1 RETURN JUMPDEST CALLVALUE PUSH2 0x492 JUMPI PUSH1 0x60 CALLDATASIZE PUSH1 0x3 NOT ADD SLT PUSH2 0x492 JUMPI PUSH2 0x195C PUSH2 0x3E2B JUMP JUMPDEST PUSH2 0x1964 PUSH2 0x3E1C JUMP JUMPDEST PUSH1 0x44 CALLDATALOAD SWAP2 PUSH1 0xFF DUP4 AND DUP1 SWAP4 SUB PUSH2 0x492 JUMPI PUSH1 0x20 PUSH32 0xA0AA2B85DF88566521DAA2AC1EB0694994372F9F1E64A41307F9D06A571F9212 SWAP2 PUSH2 0x199F PUSH2 0x496B JUMP JUMPDEST PUSH1 0x1 DUP1 PUSH1 0xA0 SHL SUB AND SWAP3 DUP4 PUSH0 MSTORE PUSH1 0x13 DUP3 MSTORE PUSH2 0x19BC DUP2 PUSH1 0x40 PUSH0 KECCAK256 PUSH2 0x4213 JUMP JUMPDEST PUSH1 0x14 DUP3 MSTORE PUSH1 0x40 PUSH0 KECCAK256 DUP6 PUSH1 0xFF NOT DUP3 SLOAD AND OR SWAP1 SSTORE PUSH1 0x40 MLOAD SWAP1 ISZERO ISZERO DUP2 MSTORE LOG3 STOP JUMPDEST CALLVALUE PUSH2 0x492 JUMPI PUSH1 0x40 CALLDATASIZE PUSH1 0x3 NOT ADD SLT PUSH2 0x492 JUMPI PUSH2 0x19F2 PUSH2 0x3E2B JUMP JUMPDEST PUSH2 0x19FA PUSH2 0x3E57 JUMP JUMPDEST SWAP1 PUSH2 0x1A0C PUSH2 0x1A07 DUP4 PUSH2 0x4DDA JUMP JUMPDEST PUSH2 0x468D JUMP JUMPDEST PUSH1 0x1 DUP1 PUSH1 0xA0 SHL SUB AND PUSH0 MSTORE PUSH1 0x12 PUSH1 0x20 MSTORE PUSH1 0xFF PUSH1 0x40 PUSH0 KECCAK256 SWAP2 AND PUSH0 MSTORE PUSH1 0x20 MSTORE PUSH1 0x20 PUSH1 0xFF PUSH1 0x40 PUSH0 KECCAK256 SLOAD AND PUSH1 0x40 MLOAD SWAP1 ISZERO ISZERO DUP2 MSTORE RETURN JUMPDEST CALLVALUE PUSH2 0x492 JUMPI PUSH1 0x40 CALLDATASIZE PUSH1 0x3 NOT ADD SLT PUSH2 0x492 JUMPI PUSH2 0x1A55 PUSH2 0x3E2B JUMP JUMPDEST PUSH2 0x1A5D PUSH2 0x3E1C JUMP JUMPDEST PUSH1 0x1 PUSH1 0x1 PUSH1 0xA0 SHL SUB SWAP1 SWAP2 AND SWAP1 CALLER DUP3 EQ PUSH2 0x1ABF JUMPI CALLER PUSH0 MSTORE PUSH1 0x1 PUSH1 0x20 MSTORE PUSH1 0x40 PUSH0 KECCAK256 DUP3 PUSH0 MSTORE PUSH1 0x20 MSTORE PUSH2 0x1A8F DUP2 PUSH1 0x40 PUSH0 KECCAK256 PUSH2 0x4213 JUMP JUMPDEST PUSH1 0x40 MLOAD SWAP1 ISZERO ISZERO DUP2 MSTORE PUSH32 0x17307EAB39AB6107E8899845AD3D59BD9653F200F220920489CA2B5937696C31 PUSH1 0x20 CALLER SWAP3 LOG3 STOP JUMPDEST PUSH1 0x40 MLOAD PUSH3 0x461BCD PUSH1 0xE5 SHL DUP2 MSTORE PUSH1 0x20 PUSH1 0x4 DUP3 ADD MSTORE PUSH1 0x29 PUSH1 0x24 DUP3 ADD MSTORE PUSH32 0x455243313135353A2073657474696E6720617070726F76616C20737461747573 PUSH1 0x44 DUP3 ADD MSTORE PUSH9 0x103337B91039B2B633 PUSH1 0xB9 SHL PUSH1 0x64 DUP3 ADD MSTORE PUSH1 0x84 SWAP1 REVERT JUMPDEST CALLVALUE PUSH2 0x492 JUMPI PUSH1 0x20 DUP1 PUSH1 0x3 NOT CALLDATASIZE ADD SLT PUSH2 0x492 JUMPI PUSH1 0x1 PUSH1 0x1 PUSH1 0x40 SHL SUB PUSH1 0x4 CALLDATALOAD DUP2 DUP2 GT PUSH2 0x492 JUMPI PUSH2 0x1B4B PUSH2 0x1B5A SWAP2 CALLDATASIZE SWAP1 PUSH1 0x4 ADD PUSH2 0x4048 JUMP JUMPDEST PUSH2 0x1B53 PUSH2 0x496B JUMP JUMPDEST CALLDATASIZE SWAP2 PUSH2 0x4113 JUMP JUMPDEST SWAP2 DUP3 MLOAD SWAP2 DUP3 GT PUSH2 0x987 JUMPI PUSH2 0x1B6F PUSH1 0x2 SLOAD PUSH2 0x3E99 JUMP JUMPDEST PUSH1 0x1F DUP2 GT PUSH2 0x1C09 JUMPI JUMPDEST POP DUP1 PUSH1 0x1F DUP4 GT PUSH1 0x1 EQ PUSH2 0x1BA9 JUMPI POP DUP2 SWAP1 PUSH2 0x1B99 SWAP4 PUSH0 SWAP3 PUSH2 0x1B9E JUMPI POP POP PUSH2 0x479A JUMP JUMPDEST PUSH1 0x2 SSTORE STOP JUMPDEST ADD MLOAD SWAP1 POP DUP4 DUP1 PUSH2 0xB8A JUMP JUMPDEST SWAP1 PUSH1 0x1F NOT DUP4 AND SWAP4 PUSH1 0x2 PUSH0 MSTORE DUP3 PUSH0 KECCAK256 SWAP3 PUSH0 SWAP1 JUMPDEST DUP7 DUP3 LT PUSH2 0x1BF1 JUMPI POP POP DUP4 PUSH1 0x1 SWAP6 LT PUSH2 0x1BD9 JUMPI JUMPDEST POP POP POP DUP2 SHL ADD PUSH1 0x2 SSTORE STOP JUMPDEST ADD MLOAD PUSH0 NOT PUSH1 0xF8 DUP5 PUSH1 0x3 SHL AND SHR NOT AND SWAP1 SSTORE DUP3 DUP1 DUP1 PUSH2 0x1BCE JUMP JUMPDEST DUP1 PUSH1 0x1 DUP6 SWAP7 DUP3 SWAP5 SWAP7 DUP7 ADD MLOAD DUP2 SSTORE ADD SWAP6 ADD SWAP4 ADD SWAP1 PUSH2 0x1BBB JUMP JUMPDEST PUSH1 0x2 PUSH0 MSTORE DUP2 PUSH0 KECCAK256 PUSH1 0x1F DUP5 ADD PUSH1 0x5 SHR DUP2 ADD SWAP2 DUP4 DUP6 LT PUSH2 0x1C43 JUMPI JUMPDEST PUSH1 0x1F ADD PUSH1 0x5 SHR ADD SWAP1 JUMPDEST DUP2 DUP2 LT PUSH2 0x1C38 JUMPI POP PUSH2 0x1B78 JUMP JUMPDEST PUSH0 DUP2 SSTORE PUSH1 0x1 ADD PUSH2 0x1C2B JUMP JUMPDEST SWAP1 SWAP2 POP DUP2 SWAP1 PUSH2 0x1C22 JUMP JUMPDEST CALLVALUE PUSH2 0x492 JUMPI PUSH1 0x20 CALLDATASIZE PUSH1 0x3 NOT ADD SLT PUSH2 0x492 JUMPI PUSH1 0x4 CALLDATALOAD PUSH2 0x1C69 PUSH2 0x496B JUMP JUMPDEST DUP1 ISZERO PUSH2 0x1CA5 JUMPI PUSH1 0x40 DUP2 PUSH32 0x1E1223C1F6274C6D64FDB08C485E192BD2896C9ABF70E840E199AC1F54D6D1D5 SWAP3 PUSH1 0x7 SSTORE DUP2 MLOAD SWAP1 DUP2 MSTORE TIMESTAMP PUSH1 0x20 DUP3 ADD MSTORE LOG1 STOP JUMPDEST PUSH1 0x40 MLOAD PUSH3 0x461BCD PUSH1 0xE5 SHL DUP2 MSTORE PUSH1 0x20 PUSH1 0x4 DUP3 ADD MSTORE PUSH1 0xB PUSH1 0x24 DUP3 ADD MSTORE PUSH11 0x24B73B30B634B2102720AB PUSH1 0xA9 SHL PUSH1 0x44 DUP3 ADD MSTORE PUSH1 0x64 SWAP1 REVERT JUMPDEST CALLVALUE PUSH2 0x492 JUMPI PUSH1 0x20 CALLDATASIZE PUSH1 0x3 NOT ADD SLT PUSH2 0x492 JUMPI PUSH1 0x1 PUSH1 0x1 PUSH1 0xA0 SHL SUB PUSH2 0x1CF9 PUSH2 0x3E2B JUMP JUMPDEST AND PUSH0 MSTORE PUSH1 0x13 PUSH1 0x20 MSTORE PUSH1 0xFF PUSH1 0x40 PUSH0 KECCAK256 SLOAD AND DUP1 PUSH2 0x1D1C JUMPI JUMPDEST PUSH1 0x20 SWAP1 PUSH1 0x40 MLOAD SWAP1 ISZERO ISZERO DUP2 MSTORE RETURN JUMPDEST POP PUSH1 0x14 PUSH1 0x20 MSTORE PUSH1 0x20 PUSH1 0x2 PUSH1 0xFF PUSH1 0x40 PUSH0 KECCAK256 SLOAD AND LT ISZERO SWAP1 POP PUSH2 0x1D0F JUMP JUMPDEST CALLVALUE PUSH2 0x492 JUMPI PUSH1 0x40 CALLDATASIZE PUSH1 0x3 NOT ADD SLT PUSH2 0x492 JUMPI PUSH2 0x1D50 PUSH2 0x3E2B JUMP JUMPDEST PUSH2 0x1D58 PUSH2 0x3E57 JUMP JUMPDEST SWAP1 PUSH1 0x1 DUP1 PUSH1 0xA0 SHL SUB AND PUSH0 MSTORE PUSH1 0x1E PUSH1 0x20 MSTORE PUSH1 0xFF PUSH1 0x40 PUSH0 KECCAK256 SWAP2 AND PUSH0 MSTORE PUSH1 0x20 MSTORE PUSH1 0x20 PUSH1 0x40 PUSH0 KECCAK256 SLOAD PUSH1 0x40 MLOAD SWAP1 DUP2 MSTORE RETURN JUMPDEST CALLVALUE PUSH2 0x492 JUMPI PUSH0 CALLDATASIZE PUSH1 0x3 NOT ADD SLT PUSH2 0x492 JUMPI PUSH1 0x20 PUSH1 0x40 MLOAD PUSH1 0x4 DUP2 MSTORE RETURN JUMPDEST CALLVALUE PUSH2 0x492 JUMPI PUSH0 CALLDATASIZE PUSH1 0x3 NOT ADD SLT PUSH2 0x492 JUMPI PUSH1 0x3 SLOAD PUSH1 0x40 MLOAD PUSH1 0x1 PUSH1 0x1 PUSH1 0xA0 SHL SUB SWAP1 SWAP2 AND DUP2 MSTORE PUSH1 0x20 SWAP1 RETURN JUMPDEST CALLVALUE PUSH2 0x492 JUMPI PUSH1 0x20 CALLDATASIZE PUSH1 0x3 NOT ADD SLT PUSH2 0x492 JUMPI PUSH32 0x181F92F68826A8D2B5B97D27F9E18D05A337290356FABF5B717154077DBEA933 PUSH1 0x40 PUSH1 0x4 CALLDATALOAD PUSH2 0x1E06 PUSH2 0x496B JUMP JUMPDEST DUP1 PUSH1 0xB SSTORE TIMESTAMP PUSH1 0x9 SSTORE DUP2 MLOAD SWAP1 DUP2 MSTORE TIMESTAMP PUSH1 0x20 DUP3 ADD MSTORE LOG1 STOP JUMPDEST CALLVALUE PUSH2 0x492 JUMPI PUSH1 0x80 CALLDATASIZE PUSH1 0x3 NOT ADD SLT PUSH2 0x492 JUMPI PUSH1 0x40 PUSH2 0x1E37 PUSH2 0x3E77 JUMP JUMPDEST PUSH2 0x1E3F PUSH2 0x3E88 JUMP JUMPDEST PUSH0 SWAP1 PUSH1 0x44 CALLDATALOAD PUSH1 0x64 CALLDATALOAD PUSH2 0x1E52 DUP3 DUP7 CALLER PUSH2 0x50FF JUMP JUMPDEST SWAP5 PUSH2 0xFFFF SWAP2 DUP3 DUP6 AND SWAP5 DUP6 ISZERO ISZERO DUP1 PUSH2 0x1EBC JUMPI JUMPDEST PUSH2 0x1EA7 JUMPI JUMPDEST POP DUP8 MLOAD SWAP4 DUP5 MSTORE PUSH1 0x20 DUP5 ADD MSTORE AND SWAP1 PUSH32 0x31B66F6D8A6A3252233DEFE3A4204C77215F4DDD23783CE33B9B3D9A86B6AC6 DUP7 CALLER SWAP3 LOG4 DUP3 MLOAD SWAP2 DUP3 MSTORE PUSH1 0x20 DUP3 ADD MSTORE RETURN JUMPDEST DUP2 SWAP7 POP SWAP1 PUSH2 0x1EB5 SWAP2 CALLER PUSH2 0x49FD JUMP JUMPDEST SWAP5 DUP9 PUSH2 0x1E69 JUMP JUMPDEST POP DUP2 ISZERO ISZERO PUSH2 0x1E64 JUMP JUMPDEST CALLVALUE PUSH2 0x492 JUMPI PUSH1 0x20 CALLDATASIZE PUSH1 0x3 NOT ADD SLT PUSH2 0x492 JUMPI PUSH2 0xFFFF PUSH2 0x1EE1 PUSH2 0x3E77 JUMP JUMPDEST AND PUSH0 MSTORE PUSH1 0x1C PUSH1 0x20 MSTORE PUSH2 0x193F PUSH2 0x192B PUSH1 0x40 PUSH0 KECCAK256 PUSH2 0x3F60 JUMP JUMPDEST CALLVALUE PUSH2 0x492 JUMPI PUSH1 0x20 CALLDATASIZE PUSH1 0x3 NOT ADD SLT PUSH2 0x492 JUMPI PUSH1 0x4 CALLDATALOAD PUSH0 MSTORE PUSH1 0x11 PUSH1 0x20 MSTORE PUSH1 0x20 PUSH1 0xFF PUSH1 0x40 PUSH0 KECCAK256 SLOAD AND PUSH1 0x40 MLOAD SWAP1 DUP2 MSTORE RETURN JUMPDEST CALLVALUE PUSH2 0x492 JUMPI PUSH0 CALLDATASIZE PUSH1 0x3 NOT ADD SLT PUSH2 0x492 JUMPI PUSH1 0x20 PUSH1 0x4 SLOAD PUSH1 0x40 MLOAD SWAP1 DUP2 MSTORE RETURN JUMPDEST CALLVALUE PUSH2 0x492 JUMPI PUSH0 CALLDATASIZE PUSH1 0x3 NOT ADD SLT PUSH2 0x492 JUMPI PUSH1 0x20 PUSH1 0x40 MLOAD PUSH1 0x1 DUP2 MSTORE RETURN JUMPDEST CALLVALUE PUSH2 0x492 JUMPI PUSH1 0x40 CALLDATASIZE PUSH1 0x3 NOT ADD SLT PUSH2 0x492 JUMPI PUSH2 0x1F76 PUSH2 0x3E2B JUMP JUMPDEST PUSH2 0x1F7E PUSH2 0x3E88 JUMP JUMPDEST SWAP1 PUSH1 0x1 DUP1 PUSH1 0xA0 SHL SUB AND PUSH0 MSTORE PUSH1 0x18 PUSH1 0x20 MSTORE PUSH2 0xFFFF PUSH1 0x40 PUSH0 KECCAK256 SWAP2 AND PUSH0 MSTORE PUSH1 0x20 MSTORE PUSH1 0x20 PUSH1 0x40 PUSH0 KECCAK256 SLOAD PUSH1 0x40 MLOAD SWAP1 DUP2 MSTORE RETURN JUMPDEST CALLVALUE PUSH2 0x492 JUMPI PUSH1 0x40 CALLDATASIZE PUSH1 0x3 NOT ADD SLT PUSH2 0x492 JUMPI PUSH2 0x1FC4 PUSH2 0x3E67 JUMP JUMPDEST PUSH2 0x1FCC PUSH2 0x3E41 JUMP JUMPDEST PUSH2 0x1FDD PUSH2 0x1FD8 DUP4 PUSH2 0x50E4 JUMP JUMPDEST PUSH2 0x492A JUMP JUMPDEST PUSH1 0x1 PUSH1 0x1 PUSH1 0xA0 SHL SUB DUP2 AND SWAP1 DUP2 ISZERO PUSH2 0x2111 JUMPI DUP2 CALLER SUB PUSH2 0x20DB JUMPI DUP2 PUSH0 MSTORE PUSH1 0x20 SWAP3 PUSH1 0x10 DUP5 MSTORE PUSH1 0xFF PUSH1 0x40 PUSH0 KECCAK256 SWAP2 AND SWAP1 DUP2 PUSH0 MSTORE DUP5 MSTORE PUSH1 0xFF PUSH1 0x40 PUSH0 KECCAK256 SLOAD AND PUSH2 0x209F JUMPI PUSH1 0x4 SLOAD SWAP3 PUSH1 0x1 DUP5 ADD DUP1 DUP6 GT PUSH2 0xD91 JUMPI PUSH1 0x4 SSTORE DUP1 PUSH0 MSTORE PUSH1 0x10 DUP6 MSTORE PUSH1 0x40 PUSH0 KECCAK256 DUP3 PUSH0 MSTORE DUP6 MSTORE PUSH1 0x40 PUSH0 KECCAK256 PUSH1 0xFF NOT SWAP1 PUSH1 0x1 DUP3 DUP3 SLOAD AND OR SWAP1 SSTORE DUP5 PUSH0 MSTORE PUSH1 0x11 DUP7 MSTORE DUP3 PUSH1 0x40 PUSH0 KECCAK256 SWAP2 DUP3 SLOAD AND OR SWAP1 SSTORE DUP2 PUSH1 0x64 ADD DUP1 PUSH1 0x64 GT PUSH2 0xD91 JUMPI DUP5 SWAP4 PUSH2 0x2086 SWAP2 PUSH1 0x40 MLOAD SWAP2 PUSH2 0x207E DUP4 PUSH2 0x3EEC JUMP JUMPDEST PUSH0 DUP4 MSTORE PUSH2 0x4FAF JUMP JUMPDEST PUSH0 DUP1 MLOAD PUSH1 0x20 PUSH2 0x56F8 DUP4 CODECOPY DUP2 MLOAD SWAP2 MSTORE PUSH0 DUP1 LOG4 PUSH1 0x40 MLOAD SWAP1 DUP2 MSTORE RETURN JUMPDEST PUSH1 0x40 MLOAD PUSH3 0x461BCD PUSH1 0xE5 SHL DUP2 MSTORE PUSH1 0x4 DUP2 ADD DUP6 SWAP1 MSTORE PUSH1 0x14 PUSH1 0x24 DUP3 ADD MSTORE PUSH20 0x10985919D948185B1C9958591E481B5A5B9D1959 PUSH1 0x62 SHL PUSH1 0x44 DUP3 ADD MSTORE PUSH1 0x64 SWAP1 REVERT JUMPDEST PUSH1 0x40 MLOAD PUSH3 0x461BCD PUSH1 0xE5 SHL DUP2 MSTORE PUSH1 0x20 PUSH1 0x4 DUP3 ADD MSTORE PUSH1 0xE PUSH1 0x24 DUP3 ADD MSTORE PUSH14 0x13DB9B1E481CD95B19881B5A5B9D PUSH1 0x92 SHL PUSH1 0x44 DUP3 ADD MSTORE PUSH1 0x64 SWAP1 REVERT JUMPDEST PUSH1 0x40 MLOAD PUSH3 0x461BCD PUSH1 0xE5 SHL DUP2 MSTORE PUSH1 0x20 PUSH1 0x4 DUP3 ADD MSTORE PUSH1 0x11 PUSH1 0x24 DUP3 ADD MSTORE PUSH17 0x125B9D985B1A59081C9958DA5C1A595B9D PUSH1 0x7A SHL PUSH1 0x44 DUP3 ADD MSTORE PUSH1 0x64 SWAP1 REVERT JUMPDEST CALLVALUE PUSH2 0x492 JUMPI PUSH0 CALLDATASIZE PUSH1 0x3 NOT ADD SLT PUSH2 0x492 JUMPI PUSH2 0x2162 PUSH2 0x496B JUMP JUMPDEST PUSH1 0x3 DUP1 SLOAD PUSH1 0x1 PUSH1 0x1 PUSH1 0xA0 SHL SUB NOT DUP2 AND SWAP1 SWAP2 SSTORE PUSH0 SWAP1 PUSH1 0x1 PUSH1 0x1 PUSH1 0xA0 SHL SUB AND PUSH0 DUP1 MLOAD PUSH1 0x20 PUSH2 0x5638 DUP4 CODECOPY DUP2 MLOAD SWAP2 MSTORE DUP3 DUP1 LOG3 STOP JUMPDEST CALLVALUE PUSH2 0x492 JUMPI PUSH0 CALLDATASIZE PUSH1 0x3 NOT ADD SLT PUSH2 0x492 JUMPI PUSH1 0xF SLOAD PUSH1 0x40 MLOAD PUSH1 0x1 PUSH1 0x1 PUSH1 0xA0 SHL SUB SWAP1 SWAP2 AND DUP2 MSTORE PUSH1 0x20 SWAP1 RETURN JUMPDEST CALLVALUE PUSH2 0x492 JUMPI PUSH0 CALLDATASIZE PUSH1 0x3 NOT ADD SLT PUSH2 0x492 JUMPI PUSH1 0x20 PUSH1 0x40 MLOAD PUSH1 0x7 DUP2 MSTORE RETURN JUMPDEST CALLVALUE PUSH2 0x492 JUMPI PUSH1 0x40 CALLDATASIZE PUSH1 0x3 NOT ADD SLT PUSH2 0x492 JUMPI PUSH2 0x21EE PUSH2 0x3E2B JUMP JUMPDEST PUSH2 0x21F6 PUSH2 0x3E57 JUMP JUMPDEST SWAP1 PUSH2 0x2203 PUSH2 0x1FD8 DUP4 PUSH2 0x50E4 JUMP JUMPDEST PUSH1 0x1 DUP1 PUSH1 0xA0 SHL SUB AND PUSH0 MSTORE PUSH1 0x10 PUSH1 0x20 MSTORE PUSH1 0xFF PUSH1 0x40 PUSH0 KECCAK256 SWAP2 AND PUSH0 MSTORE PUSH1 0x20 MSTORE PUSH1 0x20 PUSH1 0xFF PUSH1 0x40 PUSH0 KECCAK256 SLOAD AND PUSH1 0x40 MLOAD SWAP1 ISZERO ISZERO DUP2 MSTORE RETURN JUMPDEST CALLVALUE PUSH2 0x492 JUMPI PUSH1 0x60 CALLDATASIZE PUSH1 0x3 NOT ADD SLT PUSH2 0x492 JUMPI PUSH1 0x4 CALLDATALOAD PUSH1 0x24 CALLDATALOAD PUSH1 0x44 CALLDATALOAD SWAP1 CALLER PUSH0 MSTORE PUSH1 0x16 PUSH1 0x20 MSTORE PUSH1 0x40 PUSH0 KECCAK256 PUSH3 0x15180 TIMESTAMP DIV PUSH1 0x17 PUSH1 0x20 MSTORE PUSH1 0x40 PUSH0 KECCAK256 DUP1 SLOAD PUSH1 0xFF DUP2 AND ISZERO PUSH2 0x2365 JUMPI JUMPDEST POP POP PUSH1 0x5 DUP3 ADD DUP2 DUP2 SLOAD SUB PUSH2 0x2357 JUMPI JUMPDEST POP POP PUSH1 0x6 DUP2 ADD DUP1 SLOAD SWAP2 PUSH1 0x3 DUP4 LT ISZERO PUSH2 0x2316 JUMPI DUP1 PUSH1 0x4 SWAP2 SLOAD DUP8 SGT PUSH2 0x2302 JUMPI JUMPDEST TIMESTAMP PUSH1 0x3 DUP3 ADD SSTORE ADD DUP1 SLOAD SWAP1 PUSH1 0x1 DUP3 ADD DUP1 SWAP3 GT PUSH2 0xD91 JUMPI SSTORE PUSH1 0x1 DUP3 ADD DUP1 SWAP3 GT PUSH2 0xD91 JUMPI SSTORE PUSH1 0x40 MLOAD SWAP3 DUP4 MSTORE PUSH1 0x20 DUP4 ADD MSTORE PUSH1 0x40 DUP3 ADD MSTORE TIMESTAMP PUSH1 0x60 DUP3 ADD MSTORE PUSH32 0xF6D69723C1E13A6E751FF8839D394F04FFFFC588FDD13A7CFD1FDFC1BF87EBE1 PUSH1 0x80 CALLER SWAP3 LOG2 STOP JUMPDEST DUP7 DUP2 SSTORE DUP5 PUSH1 0x1 DUP3 ADD SSTORE DUP6 PUSH1 0x2 DUP3 ADD SSTORE PUSH2 0x22A2 JUMP JUMPDEST PUSH1 0x40 MLOAD PUSH3 0x461BCD PUSH1 0xE5 SHL DUP2 MSTORE PUSH1 0x20 PUSH1 0x4 DUP3 ADD MSTORE PUSH1 0x19 PUSH1 0x24 DUP3 ADD MSTORE PUSH25 0x11185A5B1E481CD8DBDC99481B1A5B5A5D081C995858DA1959 PUSH1 0x3A SHL PUSH1 0x44 DUP3 ADD MSTORE PUSH1 0x64 SWAP1 REVERT JUMPDEST SSTORE PUSH0 PUSH1 0x6 DUP3 ADD SSTORE DUP5 DUP1 PUSH2 0x2284 JUMP JUMPDEST PUSH1 0xFF NOT AND PUSH1 0x1 OR SWAP1 SSTORE PUSH1 0x1F SLOAD PUSH1 0x1 PUSH1 0x40 SHL DUP2 LT ISZERO PUSH2 0x987 JUMPI DUP1 PUSH1 0x1 PUSH2 0x238D SWAP3 ADD PUSH1 0x1F SSTORE PUSH2 0x4912 JUMP JUMPDEST DUP2 SLOAD PUSH1 0x1 PUSH1 0x1 PUSH1 0xA0 SHL SUB PUSH1 0x3 SWAP3 SWAP1 SWAP3 SHL SWAP2 DUP3 SHL NOT AND CALLER SWAP1 SWAP2 SHL OR SWAP1 SSTORE DUP6 DUP1 PUSH2 0x2275 JUMP JUMPDEST CALLVALUE PUSH2 0x492 JUMPI PUSH2 0xFFFF PUSH2 0x23C1 CALLDATASIZE PUSH2 0x41BA JUMP JUMPDEST SWAP2 PUSH2 0x23CD SWAP4 SWAP2 SWAP4 PUSH2 0x496B JUMP JUMPDEST AND SWAP2 PUSH2 0x23DA DUP4 ISZERO ISZERO PUSH2 0x470D JUMP JUMPDEST DUP3 PUSH0 MSTORE PUSH1 0x20 SWAP1 PUSH1 0x1A DUP3 MSTORE PUSH1 0x40 PUSH0 KECCAK256 PUSH1 0x1 DUP1 PUSH1 0x40 SHL SUB DUP5 GT PUSH2 0x987 JUMPI PUSH2 0x2403 DUP5 PUSH2 0x8B4 DUP4 SLOAD PUSH2 0x3E99 JUMP JUMPDEST PUSH0 PUSH1 0x1F DUP6 GT PUSH1 0x1 EQ PUSH2 0x2436 JUMPI SWAP2 PUSH2 0x902 SWAP2 PUSH2 0x8EE DUP7 DUP1 PUSH0 DUP1 MLOAD PUSH1 0x20 PUSH2 0x55B8 DUP4 CODECOPY DUP2 MLOAD SWAP2 MSTORE SWAP9 SWAP8 SWAP7 PUSH0 SWAP2 PUSH2 0x907 JUMPI POP PUSH2 0x479A JUMP JUMPDEST PUSH1 0x1F NOT DUP6 AND SWAP1 DUP3 PUSH0 MSTORE DUP5 PUSH0 KECCAK256 SWAP2 PUSH0 JUMPDEST DUP2 DUP2 LT PUSH2 0x247A JUMPI POP SWAP2 PUSH2 0x902 SWAP4 SWAP2 DUP8 PUSH0 DUP1 MLOAD PUSH1 0x20 PUSH2 0x55B8 DUP4 CODECOPY DUP2 MLOAD SWAP2 MSTORE SWAP9 SWAP8 SWAP7 SWAP5 LT PUSH2 0x957 JUMPI POP POP PUSH1 0x1 DUP6 DUP2 SHL ADD SWAP1 SSTORE PUSH2 0x8F1 JUMP JUMPDEST SWAP2 SWAP3 DUP7 PUSH1 0x1 DUP2 SWAP3 DUP7 DUP10 ADD CALLDATALOAD DUP2 SSTORE ADD SWAP5 ADD SWAP3 ADD PUSH2 0x2445 JUMP JUMPDEST CALLVALUE PUSH2 0x492 JUMPI PUSH1 0x3 NOT PUSH1 0x20 CALLDATASIZE DUP3 ADD DUP2 SGT PUSH2 0x492 JUMPI PUSH1 0x1 PUSH1 0x1 PUSH1 0x40 SHL SUB SWAP1 PUSH1 0x4 CALLDATALOAD SWAP1 DUP3 DUP3 GT PUSH2 0x492 JUMPI CALLDATASIZE PUSH1 0x23 DUP4 ADD SLT ISZERO PUSH2 0x492 JUMPI DUP2 PUSH1 0x4 ADD CALLDATALOAD SWAP3 DUP4 GT PUSH2 0x492 JUMPI PUSH1 0x24 DUP3 ADD SWAP2 PUSH1 0x24 CALLDATASIZE SWAP2 DUP6 PUSH1 0x5 SHL ADD ADD GT PUSH2 0x492 JUMPI PUSH2 0x24EC DUP4 PUSH2 0x487D JUMP JUMPDEST PUSH0 JUMPDEST DUP5 DUP2 LT PUSH2 0x2694 JUMPI POP PUSH2 0x2501 CALLDATASIZE DUP6 DUP6 PUSH2 0x408C JUMP JUMPDEST SWAP3 PUSH1 0x40 MLOAD SWAP5 PUSH2 0x250F DUP7 PUSH2 0x3EEC JUMP JUMPDEST PUSH0 DUP7 MSTORE PUSH2 0x251D CALLER ISZERO ISZERO PUSH2 0x4F59 JUMP JUMPDEST PUSH2 0x252A DUP6 MLOAD DUP5 MLOAD EQ PUSH2 0x4E06 JUMP JUMPDEST PUSH0 JUMPDEST DUP6 MLOAD DUP2 LT ISZERO PUSH2 0x2573 JUMPI DUP1 PUSH2 0x2542 PUSH1 0x1 SWAP3 DUP7 PUSH2 0x48AF JUMP JUMPDEST MLOAD PUSH2 0x254D DUP3 DUP10 PUSH2 0x48AF JUMP JUMPDEST MLOAD PUSH0 MSTORE PUSH0 DUP8 MSTORE PUSH1 0x40 PUSH0 KECCAK256 CALLER PUSH0 MSTORE DUP8 MSTORE PUSH2 0x256B PUSH1 0x40 PUSH0 KECCAK256 SWAP2 DUP3 SLOAD PUSH2 0x47AC JUMP JUMPDEST SWAP1 SSTORE ADD PUSH2 0x252C JUMP JUMPDEST POP DUP5 DUP7 DUP6 SWAP5 DUP10 PUSH1 0x40 MLOAD PUSH0 CALLER SWAP2 PUSH0 DUP1 MLOAD PUSH1 0x20 PUSH2 0x54F8 DUP4 CODECOPY DUP2 MLOAD SWAP2 MSTORE CALLER SWAP2 DUP1 PUSH2 0x259B DUP9 DUP12 DUP4 PUSH2 0x4F1C JUMP JUMPDEST SUB SWAP1 LOG4 CALLER EXTCODESIZE PUSH2 0x25DE JUMPI JUMPDEST POP POP POP POP SWAP1 SWAP2 POP PUSH0 JUMPDEST DUP2 DUP2 LT PUSH2 0x25B7 JUMPI STOP JUMPDEST DUP1 PUSH2 0x25C5 PUSH1 0x1 SWAP3 DUP5 DUP7 PUSH2 0x4902 JUMP JUMPDEST CALLDATALOAD CALLER PUSH0 DUP1 MLOAD PUSH1 0x20 PUSH2 0x55D8 DUP4 CODECOPY DUP2 MLOAD SWAP2 MSTORE PUSH0 DUP1 LOG3 ADD PUSH2 0x25AE JUMP JUMPDEST DUP7 SWAP2 PUSH2 0x263A PUSH2 0x262B SWAP3 PUSH1 0x40 MLOAD SWAP6 DUP7 SWAP5 DUP6 SWAP5 PUSH2 0x261B PUSH4 0xBC197C81 PUSH1 0xE0 SHL SWAP11 DUP12 DUP9 MSTORE CALLER PUSH1 0x4 DUP10 ADD MSTORE PUSH0 PUSH1 0x24 DUP10 ADD MSTORE PUSH1 0xA0 PUSH1 0x44 DUP10 ADD MSTORE PUSH1 0xA4 DUP9 ADD SWAP1 PUSH2 0x4164 JUMP JUMPDEST SWAP1 DUP5 DUP8 DUP4 SUB ADD PUSH1 0x64 DUP9 ADD MSTORE PUSH2 0x4164 JUMP JUMPDEST SWAP2 DUP5 DUP4 SUB ADD PUSH1 0x84 DUP6 ADD MSTORE PUSH2 0x4023 JUMP JUMPDEST SUB DUP2 PUSH0 CALLER GAS CALL PUSH0 SWAP2 DUP2 PUSH2 0x2675 JUMPI JUMPDEST POP PUSH2 0x2656 JUMPI DUP5 PUSH2 0x77F PUSH2 0x53CE JUMP JUMPDEST SWAP3 SWAP4 POP SWAP1 SWAP2 PUSH1 0x1 PUSH1 0x1 PUSH1 0xE0 SHL SUB NOT AND SUB PUSH2 0x7EF JUMPI DUP2 SWAP1 DUP4 DUP1 DUP1 DUP1 PUSH2 0x25A5 JUMP JUMPDEST PUSH2 0x268D SWAP2 SWAP3 POP DUP7 RETURNDATASIZE DUP9 GT PUSH2 0x830 JUMPI PUSH2 0x821 DUP2 DUP4 PUSH2 0x3F3D JUMP JUMPDEST SWAP1 DUP7 PUSH2 0x2648 JUMP JUMPDEST DUP1 PUSH2 0x26C0 PUSH2 0x1453 PUSH2 0x26A8 PUSH1 0x1 SWAP5 DUP10 DUP10 PUSH2 0x4902 JUMP JUMPDEST CALLDATALOAD PUSH2 0x26BA PUSH2 0x26B5 DUP3 PUSH2 0x4F41 JUMP JUMPDEST PUSH2 0x483B JUMP JUMPDEST CALLER PUSH2 0x42BB JUMP JUMPDEST DUP2 PUSH2 0x26CB DUP3 DUP6 PUSH2 0x48AF JUMP JUMPDEST MSTORE ADD PUSH2 0x24EE JUMP JUMPDEST CALLVALUE PUSH2 0x492 JUMPI PUSH1 0x40 CALLDATASIZE PUSH1 0x3 NOT ADD SLT PUSH2 0x492 JUMPI PUSH1 0x20 PUSH2 0x10D8 PUSH2 0x26F0 PUSH2 0x3E77 JUMP JUMPDEST PUSH1 0x24 CALLDATALOAD SWAP1 CALLER PUSH2 0x49FD JUMP JUMPDEST CALLVALUE PUSH2 0x492 JUMPI PUSH1 0x40 CALLDATASIZE PUSH1 0x3 NOT ADD SLT PUSH2 0x492 JUMPI PUSH2 0x2713 PUSH2 0x3E2B JUMP JUMPDEST PUSH2 0x271B PUSH2 0x3E88 JUMP JUMPDEST SWAP1 PUSH1 0x1 DUP1 PUSH1 0xA0 SHL SUB AND PUSH0 MSTORE PUSH1 0x20 DUP1 MSTORE PUSH2 0xFFFF PUSH1 0x40 PUSH0 KECCAK256 SWAP2 AND PUSH0 MSTORE PUSH1 0x20 MSTORE PUSH1 0x40 PUSH0 KECCAK256 DUP1 SLOAD PUSH2 0x193F PUSH1 0x1 DUP4 ADD SLOAD SWAP3 PUSH2 0x2758 PUSH1 0x3 PUSH1 0x2 DUP4 ADD SLOAD SWAP3 ADD PUSH2 0x3F60 JUMP JUMPDEST SWAP1 PUSH1 0x40 MLOAD SWAP5 DUP6 SWAP5 DUP6 PUSH2 0x4197 JUMP JUMPDEST CALLVALUE PUSH2 0x492 JUMPI PUSH1 0x20 CALLDATASIZE PUSH1 0x3 NOT ADD SLT PUSH2 0x492 JUMPI PUSH2 0xFFFF PUSH2 0x2781 PUSH2 0x3E77 JUMP JUMPDEST AND PUSH0 MSTORE PUSH1 0x1B PUSH1 0x20 MSTORE PUSH2 0x193F PUSH2 0x192B PUSH1 0x40 PUSH0 KECCAK256 PUSH2 0x3F60 JUMP JUMPDEST CALLVALUE PUSH2 0x492 JUMPI PUSH0 CALLDATASIZE PUSH1 0x3 NOT ADD SLT PUSH2 0x492 JUMPI PUSH1 0x20 PUSH1 0x40 MLOAD PUSH1 0x8 DUP2 MSTORE RETURN JUMPDEST CALLVALUE PUSH2 0x492 JUMPI PUSH1 0x20 DUP1 PUSH1 0x3 NOT CALLDATASIZE ADD SLT PUSH2 0x492 JUMPI PUSH1 0x1 PUSH1 0x1 PUSH1 0x40 SHL SUB PUSH1 0x4 CALLDATALOAD DUP2 DUP2 GT PUSH2 0x492 JUMPI PUSH2 0x27E5 SWAP1 CALLDATASIZE SWAP1 PUSH1 0x4 ADD PUSH2 0x4048 JUMP JUMPDEST SWAP1 SWAP2 PUSH2 0x27EF PUSH2 0x496B JUMP JUMPDEST DUP2 GT PUSH2 0x987 JUMPI PUSH2 0x2800 PUSH1 0xC SLOAD PUSH2 0x3E99 JUMP JUMPDEST PUSH1 0x1F DUP2 GT PUSH2 0x28D6 JUMPI JUMPDEST POP PUSH0 SWAP3 PUSH1 0x1F DUP3 GT PUSH1 0x1 EQ PUSH2 0x2868 JUMPI PUSH2 0x2837 DUP3 DUP1 PUSH0 DUP1 MLOAD PUSH1 0x20 PUSH2 0x56B8 DUP4 CODECOPY DUP2 MLOAD SWAP2 MSTORE SWAP7 PUSH0 SWAP2 PUSH2 0x285D JUMPI POP PUSH2 0x479A JUMP JUMPDEST PUSH1 0xC SSTORE JUMPDEST PUSH2 0x2852 PUSH1 0x40 MLOAD SWAP4 DUP5 SWAP4 PUSH1 0x40 DUP6 MSTORE PUSH1 0x40 DUP6 ADD SWAP2 PUSH2 0x466D JUMP JUMPDEST SWAP1 TIMESTAMP SWAP1 DUP4 ADD MSTORE SUB SWAP1 LOG1 STOP JUMPDEST SWAP1 POP DUP6 ADD CALLDATALOAD DUP8 PUSH2 0x8E8 JUMP JUMPDEST PUSH1 0x1F NOT DUP3 AND SWAP4 PUSH1 0xC PUSH0 MSTORE DUP2 PUSH0 KECCAK256 SWAP1 PUSH0 JUMPDEST DUP7 DUP2 LT PUSH2 0x28BF JUMPI POP DUP4 PUSH0 DUP1 MLOAD PUSH1 0x20 PUSH2 0x56B8 DUP4 CODECOPY DUP2 MLOAD SWAP2 MSTORE SWAP7 LT PUSH2 0x28A6 JUMPI JUMPDEST POP POP PUSH1 0x1 DUP3 DUP2 SHL ADD PUSH1 0xC SSTORE PUSH2 0x283B JUMP JUMPDEST DUP5 ADD CALLDATALOAD PUSH0 NOT PUSH1 0x3 DUP6 SWAP1 SHL PUSH1 0xF8 AND SHR NOT AND SWAP1 SSTORE DUP5 DUP1 PUSH2 0x2896 JUMP JUMPDEST SWAP1 SWAP2 DUP4 PUSH1 0x1 DUP2 SWAP3 DUP6 DUP10 ADD CALLDATALOAD DUP2 SSTORE ADD SWAP4 ADD SWAP2 ADD PUSH2 0x2878 JUMP JUMPDEST PUSH1 0xC PUSH0 MSTORE DUP4 PUSH0 KECCAK256 PUSH1 0x1F DUP4 ADD PUSH1 0x5 SHR DUP2 ADD SWAP2 DUP6 DUP5 LT PUSH2 0x2910 JUMPI JUMPDEST PUSH1 0x1F ADD PUSH1 0x5 SHR ADD SWAP1 JUMPDEST DUP2 DUP2 LT PUSH2 0x2905 JUMPI POP PUSH2 0x2809 JUMP JUMPDEST PUSH0 DUP2 SSTORE PUSH1 0x1 ADD PUSH2 0x28F8 JUMP JUMPDEST SWAP1 SWAP2 POP DUP2 SWAP1 PUSH2 0x28EF JUMP JUMPDEST CALLVALUE PUSH2 0x492 JUMPI PUSH1 0x20 DUP1 PUSH1 0x3 NOT CALLDATASIZE ADD SLT PUSH2 0x492 JUMPI PUSH2 0x2934 PUSH2 0x3E2B JUMP JUMPDEST PUSH1 0x1 PUSH1 0x1 PUSH1 0xA0 SHL SUB DUP2 AND SWAP1 DUP2 ISZERO PUSH2 0x2B17 JUMPI DUP2 CALLER SUB PUSH2 0x2AE1 JUMPI DUP2 PUSH0 MSTORE PUSH1 0x10 DUP4 MSTORE PUSH1 0x40 PUSH0 KECCAK256 PUSH1 0x1 SWAP1 DUP2 PUSH0 MSTORE DUP5 MSTORE PUSH1 0xFF PUSH1 0x40 PUSH0 KECCAK256 SLOAD AND PUSH2 0x209F JUMPI PUSH1 0x4 SLOAD SWAP3 DUP2 DUP5 ADD DUP1 DUP6 GT PUSH2 0xD91 JUMPI PUSH1 0x4 SSTORE DUP1 PUSH0 MSTORE PUSH1 0x10 DUP6 MSTORE PUSH1 0x40 PUSH0 KECCAK256 DUP3 PUSH0 MSTORE DUP6 MSTORE PUSH1 0x40 PUSH0 KECCAK256 PUSH1 0xFF NOT SWAP1 DUP4 DUP3 DUP3 SLOAD AND OR SWAP1 SSTORE DUP5 PUSH0 MSTORE PUSH1 0x11 DUP7 MSTORE DUP3 PUSH1 0x40 PUSH0 KECCAK256 SWAP2 DUP3 SLOAD AND OR SWAP1 SSTORE PUSH1 0x40 MLOAD PUSH2 0x29BB DUP2 PUSH2 0x3EEC JUMP JUMPDEST PUSH0 DUP2 MSTORE PUSH1 0x40 MLOAD PUSH2 0x29CA DUP2 PUSH2 0x3F22 JUMP JUMPDEST DUP4 DUP2 MSTORE DUP7 DUP2 ADD SWAP1 DUP8 CALLDATASIZE DUP4 CALLDATACOPY MLOAD ISZERO PUSH2 0x105E JUMPI PUSH1 0x65 SWAP1 MSTORE PUSH2 0x29E7 PUSH2 0x54AB JUMP JUMPDEST POP PUSH1 0x65 PUSH0 MSTORE PUSH0 DUP7 MSTORE PUSH1 0x40 PUSH0 KECCAK256 DUP3 PUSH0 MSTORE DUP7 MSTORE PUSH1 0x40 PUSH0 KECCAK256 SWAP4 DUP5 SLOAD DUP5 DUP2 ADD DUP1 SWAP2 GT PUSH2 0xD91 JUMPI DUP7 SWAP6 SSTORE DUP3 PUSH0 PUSH1 0x40 MLOAD PUSH1 0x65 DUP2 MSTORE DUP7 DUP11 DUP3 ADD MSTORE PUSH0 DUP1 MLOAD PUSH1 0x20 PUSH2 0x5538 DUP4 CODECOPY DUP2 MLOAD SWAP2 MSTORE PUSH1 0x40 CALLER SWAP3 LOG4 EXTCODESIZE PUSH2 0x2A4D JUMPI JUMPDEST POP PUSH0 DUP1 MLOAD PUSH1 0x20 PUSH2 0x56F8 DUP4 CODECOPY DUP2 MLOAD SWAP2 MSTORE PUSH0 DUP1 LOG4 PUSH1 0x40 MLOAD SWAP1 DUP2 MSTORE RETURN JUMPDEST SWAP1 SWAP3 POP PUSH1 0x40 MLOAD DUP6 DUP2 DUP1 PUSH2 0x2A8F PUSH4 0xF23A6E61 PUSH1 0xE0 SHL SWAP6 DUP7 DUP4 MSTORE CALLER PUSH1 0x4 DUP5 ADD MSTORE PUSH0 PUSH1 0x24 DUP5 ADD MSTORE PUSH1 0x65 PUSH1 0x44 DUP5 ADD MSTORE DUP8 PUSH1 0x64 DUP5 ADD MSTORE PUSH1 0xA0 PUSH1 0x84 DUP5 ADD MSTORE PUSH1 0xA4 DUP4 ADD SWAP1 PUSH2 0x4023 JUMP JUMPDEST SUB DUP2 PUSH0 DUP9 GAS CALL PUSH0 SWAP2 DUP2 PUSH2 0x2AC2 JUMPI JUMPDEST POP PUSH2 0x2AAB JUMPI DUP6 PUSH2 0x77F PUSH2 0x53CE JUMP JUMPDEST PUSH1 0x1 PUSH1 0x1 PUSH1 0xE0 SHL SUB NOT AND SUB PUSH2 0x7EF JUMPI DUP3 SWAP2 DUP6 PUSH2 0x2A33 JUMP JUMPDEST PUSH2 0x2ADA SWAP2 SWAP3 POP DUP8 RETURNDATASIZE DUP10 GT PUSH2 0x830 JUMPI PUSH2 0x821 DUP2 DUP4 PUSH2 0x3F3D JUMP JUMPDEST SWAP1 DUP8 PUSH2 0x2A9D JUMP JUMPDEST PUSH1 0x40 MLOAD PUSH3 0x461BCD PUSH1 0xE5 SHL DUP2 MSTORE PUSH1 0x4 DUP2 ADD DUP5 SWAP1 MSTORE PUSH1 0xE PUSH1 0x24 DUP3 ADD MSTORE PUSH14 0x13DB9B1E481CD95B19881B5A5B9D PUSH1 0x92 SHL PUSH1 0x44 DUP3 ADD MSTORE PUSH1 0x64 SWAP1 REVERT JUMPDEST PUSH1 0x40 MLOAD PUSH3 0x461BCD PUSH1 0xE5 SHL DUP2 MSTORE PUSH1 0x4 DUP2 ADD DUP5 SWAP1 MSTORE PUSH1 0x11 PUSH1 0x24 DUP3 ADD MSTORE PUSH17 0x125B9D985B1A59081C9958DA5C1A595B9D PUSH1 0x7A SHL PUSH1 0x44 DUP3 ADD MSTORE PUSH1 0x64 SWAP1 REVERT JUMPDEST CALLVALUE PUSH2 0x492 JUMPI PUSH1 0x60 CALLDATASIZE PUSH1 0x3 NOT ADD SLT PUSH2 0x492 JUMPI PUSH2 0x2B69 PUSH2 0x3E67 JUMP JUMPDEST PUSH1 0x24 CALLDATALOAD PUSH1 0x44 CALLDATALOAD PUSH2 0x2B7B PUSH2 0x1A07 DUP5 PUSH2 0x4DDA JUMP JUMPDEST PUSH2 0x2B8A PUSH2 0x1453 PUSH2 0x26BA DUP6 PUSH2 0x4DF5 JUMP JUMPDEST PUSH2 0x2B95 DUP2 ISZERO ISZERO PUSH2 0x48C3 JUMP JUMPDEST PUSH1 0xFF DUP4 AND SWAP3 PUSH1 0x1 DUP5 EQ DUP1 ISZERO PUSH2 0x2C9F JUMPI JUMPDEST PUSH2 0x2C5B JUMPI JUMPDEST CALLER PUSH0 MSTORE PUSH2 0x2C00 PUSH1 0x20 SWAP2 PUSH1 0x12 DUP4 MSTORE PUSH1 0x40 PUSH0 KECCAK256 DUP7 PUSH0 MSTORE DUP4 MSTORE PUSH1 0x40 PUSH0 KECCAK256 PUSH1 0x1 PUSH1 0xFF NOT DUP3 SLOAD AND OR SWAP1 SSTORE CALLER PUSH0 MSTORE PUSH1 0x1E DUP4 MSTORE PUSH1 0x40 PUSH0 KECCAK256 DUP7 PUSH0 MSTORE DUP4 MSTORE DUP5 PUSH1 0x40 PUSH0 KECCAK256 SSTORE CALLER PUSH0 MSTORE PUSH1 0x1D DUP4 MSTORE PUSH1 0x40 PUSH0 KECCAK256 DUP7 PUSH0 MSTORE DUP4 MSTORE DUP4 PUSH1 0x40 PUSH0 KECCAK256 SSTORE PUSH2 0x4DF5 JUMP JUMPDEST PUSH2 0x2C0A DUP2 CALLER PUSH2 0x42BB JUMP JUMPDEST ISZERO PUSH2 0x2C11 JUMPI STOP JUMPDEST PUSH1 0x40 MLOAD PUSH2 0x2C2A SWAP2 PUSH2 0x2C21 DUP3 PUSH2 0x3EEC JUMP JUMPDEST PUSH0 DUP3 MSTORE CALLER PUSH2 0x4FAF JUMP JUMPDEST PUSH1 0x40 MLOAD SWAP3 DUP5 CALLER PUSH0 DUP1 MLOAD PUSH1 0x20 PUSH2 0x55F8 DUP4 CODECOPY DUP2 MLOAD SWAP2 MSTORE PUSH0 DUP1 LOG3 DUP4 MSTORE DUP3 ADD MSTORE PUSH0 DUP1 MLOAD PUSH1 0x20 PUSH2 0x56D8 DUP4 CODECOPY DUP2 MLOAD SWAP2 MSTORE PUSH1 0x40 CALLER SWAP3 LOG3 STOP JUMPDEST PUSH0 DUP4 SGT PUSH2 0x2BAA JUMPI PUSH1 0x40 MLOAD PUSH3 0x461BCD PUSH1 0xE5 SHL DUP2 MSTORE PUSH1 0x20 PUSH1 0x4 DUP3 ADD MSTORE PUSH1 0x15 PUSH1 0x24 DUP3 ADD MSTORE PUSH21 0x141BDCDA5D1A5D9948141B93081C995C5D5A5C9959 PUSH1 0x5A SHL PUSH1 0x44 DUP3 ADD MSTORE PUSH1 0x64 SWAP1 REVERT JUMPDEST POP PUSH1 0x3 DUP5 EQ PUSH2 0x2BA5 JUMP JUMPDEST CALLVALUE PUSH2 0x492 JUMPI PUSH1 0x40 CALLDATASIZE PUSH1 0x3 NOT ADD SLT PUSH2 0x492 JUMPI PUSH1 0x4 CALLDATALOAD PUSH1 0x1 PUSH1 0x1 PUSH1 0x40 SHL SUB DUP1 DUP3 GT PUSH2 0x492 JUMPI CALLDATASIZE PUSH1 0x23 DUP4 ADD SLT ISZERO PUSH2 0x492 JUMPI DUP2 PUSH1 0x4 ADD CALLDATALOAD SWAP1 PUSH2 0x2CE6 DUP3 PUSH2 0x4075 JUMP JUMPDEST SWAP3 PUSH2 0x2CF4 PUSH1 0x40 MLOAD SWAP5 DUP6 PUSH2 0x3F3D JUMP JUMPDEST DUP3 DUP5 MSTORE PUSH1 0x20 SWAP3 PUSH1 0x24 DUP5 DUP7 ADD SWAP2 PUSH1 0x5 SHL DUP4 ADD ADD SWAP2 CALLDATASIZE DUP4 GT PUSH2 0x492 JUMPI PUSH1 0x24 ADD SWAP1 JUMPDEST DUP3 DUP3 LT PUSH2 0x2DFE JUMPI POP POP POP PUSH1 0x24 CALLDATALOAD SWAP1 DUP2 GT PUSH2 0x492 JUMPI PUSH2 0x2D35 SWAP1 CALLDATASIZE SWAP1 PUSH1 0x4 ADD PUSH2 0x40DA JUMP JUMPDEST DUP3 MLOAD DUP2 MLOAD SUB PUSH2 0x2DA7 JUMPI PUSH2 0x2D48 DUP4 MLOAD PUSH2 0x487D JUMP JUMPDEST SWAP3 PUSH0 JUMPDEST DUP2 MLOAD DUP2 LT ISZERO PUSH2 0x2D90 JUMPI PUSH1 0x1 SWAP1 PUSH2 0x2D7F PUSH1 0x1 PUSH1 0x1 PUSH1 0xA0 SHL SUB PUSH2 0x2D6C DUP4 DUP7 PUSH2 0x48AF JUMP JUMPDEST MLOAD AND PUSH2 0x2D78 DUP4 DUP8 PUSH2 0x48AF JUMP JUMPDEST MLOAD SWAP1 PUSH2 0x42BB JUMP JUMPDEST PUSH2 0x2D89 DUP3 DUP9 PUSH2 0x48AF JUMP JUMPDEST MSTORE ADD PUSH2 0x2D4B JUMP JUMPDEST POP POP POP PUSH2 0x193F PUSH1 0x40 MLOAD SWAP3 DUP3 DUP5 SWAP4 DUP5 MSTORE DUP4 ADD SWAP1 PUSH2 0x4164 JUMP JUMPDEST PUSH1 0x40 MLOAD PUSH3 0x461BCD PUSH1 0xE5 SHL DUP2 MSTORE PUSH1 0x4 DUP2 ADD DUP4 SWAP1 MSTORE PUSH1 0x29 PUSH1 0x24 DUP3 ADD MSTORE PUSH32 0x455243313135353A206163636F756E747320616E6420696473206C656E677468 PUSH1 0x44 DUP3 ADD MSTORE PUSH9 0x40DAD2E6DAC2E8C6D PUSH1 0xBB SHL PUSH1 0x64 DUP3 ADD MSTORE PUSH1 0x84 SWAP1 REVERT JUMPDEST DUP2 CALLDATALOAD PUSH1 0x1 PUSH1 0x1 PUSH1 0xA0 SHL SUB DUP2 AND DUP2 SUB PUSH2 0x492 JUMPI DUP2 MSTORE SWAP1 DUP5 ADD SWAP1 DUP5 ADD PUSH2 0x2D13 JUMP JUMPDEST CALLVALUE PUSH2 0x492 JUMPI PUSH1 0x20 CALLDATASIZE PUSH1 0x3 NOT ADD SLT PUSH2 0x492 JUMPI PUSH1 0x1 PUSH1 0x1 PUSH1 0xA0 SHL SUB PUSH2 0x2E3E PUSH2 0x3E2B JUMP JUMPDEST AND PUSH0 MSTORE PUSH1 0x13 PUSH1 0x20 MSTORE PUSH1 0x20 PUSH1 0xFF PUSH1 0x40 PUSH0 KECCAK256 SLOAD AND PUSH1 0x40 MLOAD SWAP1 ISZERO ISZERO DUP2 MSTORE RETURN JUMPDEST CALLVALUE PUSH2 0x492 JUMPI PUSH0 CALLDATASIZE PUSH1 0x3 NOT ADD SLT PUSH2 0x492 JUMPI PUSH1 0x20 PUSH1 0x9 SLOAD PUSH1 0x40 MLOAD SWAP1 DUP2 MSTORE RETURN JUMPDEST CALLVALUE PUSH2 0x492 JUMPI PUSH1 0x20 CALLDATASIZE PUSH1 0x3 NOT ADD SLT PUSH2 0x492 JUMPI PUSH1 0x4 CALLDATALOAD PUSH0 MSTORE PUSH1 0x15 PUSH1 0x20 MSTORE PUSH1 0x20 PUSH1 0xFF PUSH1 0x40 PUSH0 KECCAK256 SLOAD AND PUSH1 0x40 MLOAD SWAP1 ISZERO ISZERO DUP2 MSTORE RETURN JUMPDEST CALLVALUE PUSH2 0x492 JUMPI PUSH0 CALLDATASIZE PUSH1 0x3 NOT ADD SLT PUSH2 0x492 JUMPI PUSH1 0x20 PUSH1 0x8 SLOAD PUSH1 0x40 MLOAD SWAP1 DUP2 MSTORE RETURN JUMPDEST CALLVALUE PUSH2 0x492 JUMPI PUSH1 0x20 CALLDATASIZE PUSH1 0x3 NOT ADD SLT PUSH2 0x492 JUMPI PUSH1 0x1 PUSH1 0x1 PUSH1 0xA0 SHL SUB PUSH2 0x2EE4 PUSH2 0x3E2B JUMP JUMPDEST AND PUSH0 MSTORE PUSH1 0x10 PUSH1 0x20 MSTORE PUSH1 0x40 PUSH0 KECCAK256 PUSH1 0x1 PUSH0 MSTORE PUSH1 0x20 MSTORE PUSH1 0x20 PUSH1 0xFF PUSH1 0x40 PUSH0 KECCAK256 SLOAD AND PUSH1 0x40 MLOAD SWAP1 ISZERO ISZERO DUP2 MSTORE RETURN JUMPDEST CALLVALUE PUSH2 0x492 JUMPI PUSH1 0x20 CALLDATASIZE PUSH1 0x3 NOT ADD SLT PUSH2 0x492 JUMPI PUSH1 0x4 CALLDATALOAD PUSH2 0x2F2B PUSH2 0x26B5 DUP3 PUSH2 0x4F41 JUMP JUMPDEST PUSH2 0x2F38 PUSH2 0x1453 DUP3 CALLER PUSH2 0x42BB JUMP JUMPDEST PUSH2 0x2F51 PUSH1 0x40 MLOAD PUSH2 0x2F47 DUP2 PUSH2 0x3EEC JUMP JUMPDEST PUSH0 DUP2 MSTORE DUP3 CALLER PUSH2 0x4FAF JUMP JUMPDEST CALLER PUSH0 DUP1 MLOAD PUSH1 0x20 PUSH2 0x55D8 DUP4 CODECOPY DUP2 MLOAD SWAP2 MSTORE PUSH0 DUP1 LOG3 STOP JUMPDEST CALLVALUE PUSH2 0x492 JUMPI PUSH1 0x20 CALLDATASIZE PUSH1 0x3 NOT ADD SLT PUSH2 0x492 JUMPI PUSH1 0x4 CALLDATALOAD PUSH0 MSTORE PUSH1 0x23 PUSH1 0x20 MSTORE PUSH2 0xFFFF PUSH1 0x40 PUSH0 KECCAK256 PUSH2 0x193F DUP2 SLOAD SWAP2 PUSH2 0x2F9E PUSH1 0x2 PUSH1 0x1 DUP4 ADD SLOAD SWAP3 ADD PUSH2 0x3F60 JUMP JUMPDEST SWAP1 PUSH1 0x40 MLOAD SWAP5 DUP6 SWAP5 PUSH1 0x1 DUP1 PUSH1 0xA0 SHL SUB DUP2 AND DUP7 MSTORE PUSH1 0xA0 SHR AND PUSH1 0x20 DUP6 ADD MSTORE PUSH1 0x40 DUP5 ADD MSTORE PUSH1 0x80 PUSH1 0x60 DUP5 ADD MSTORE PUSH1 0x80 DUP4 ADD SWAP1 PUSH2 0x4023 JUMP JUMPDEST CALLVALUE PUSH2 0x492 JUMPI PUSH0 CALLDATASIZE PUSH1 0x3 NOT ADD SLT PUSH2 0x492 JUMPI PUSH1 0x20 PUSH1 0x40 MLOAD PUSH1 0x9 DUP2 MSTORE RETURN JUMPDEST CALLVALUE PUSH2 0x492 JUMPI PUSH0 CALLDATASIZE PUSH1 0x3 NOT ADD SLT PUSH2 0x492 JUMPI PUSH1 0x40 MLOAD PUSH1 0xD SLOAD PUSH0 DUP3 PUSH2 0x300B DUP4 PUSH2 0x3E99 JUMP JUMPDEST SWAP2 DUP3 DUP3 MSTORE PUSH1 0x20 SWAP4 PUSH1 0x1 SWAP1 DUP6 PUSH1 0x1 DUP3 AND SWAP2 DUP3 PUSH0 EQ PUSH2 0x308A JUMPI POP POP PUSH1 0x1 EQ PUSH2 0x304D JUMPI JUMPDEST POP PUSH2 0x3039 SWAP3 POP SUB DUP4 PUSH2 0x3F3D JUMP JUMPDEST PUSH2 0x193F PUSH1 0x40 MLOAD SWAP3 DUP3 DUP5 SWAP4 DUP5 MSTORE DUP4 ADD SWAP1 PUSH2 0x4023 JUMP JUMPDEST DUP5 SWAP2 POP PUSH1 0xD PUSH0 MSTORE DUP2 PUSH0 KECCAK256 SWAP1 PUSH0 SWAP2 JUMPDEST DUP6 DUP4 LT PUSH2 0x3072 JUMPI POP POP PUSH2 0x3039 SWAP4 POP DUP3 ADD ADD DUP6 PUSH2 0x302C JUMP JUMPDEST DUP1 SLOAD DUP4 DUP10 ADD DUP6 ADD MSTORE DUP8 SWAP5 POP DUP7 SWAP4 SWAP1 SWAP3 ADD SWAP2 DUP2 ADD PUSH2 0x305B JUMP JUMPDEST PUSH1 0xFF NOT AND DUP6 DUP3 ADD MSTORE PUSH2 0x3039 SWAP6 ISZERO ISZERO PUSH1 0x5 SHL DUP6 ADD ADD SWAP3 POP DUP8 SWAP2 POP PUSH2 0x302C SWAP1 POP JUMP JUMPDEST CALLVALUE PUSH2 0x492 JUMPI PUSH0 CALLDATASIZE PUSH1 0x3 NOT ADD SLT PUSH2 0x492 JUMPI PUSH1 0x20 PUSH1 0x1F SLOAD PUSH1 0x40 MLOAD SWAP1 DUP2 MSTORE RETURN JUMPDEST CALLVALUE PUSH2 0x492 JUMPI PUSH1 0x3 NOT PUSH1 0xA0 CALLDATASIZE DUP3 ADD SLT PUSH2 0x492 JUMPI PUSH2 0x30E1 PUSH2 0x3E2B JUMP JUMPDEST SWAP1 PUSH2 0x30EA PUSH2 0x3E41 JUMP JUMPDEST SWAP1 PUSH1 0x1 PUSH1 0x1 PUSH1 0x40 SHL SUB SWAP1 PUSH1 0x44 CALLDATALOAD DUP3 DUP2 GT PUSH2 0x492 JUMPI PUSH2 0x310C SWAP1 CALLDATASIZE SWAP1 PUSH1 0x4 ADD PUSH2 0x40DA JUMP JUMPDEST PUSH1 0x64 CALLDATALOAD DUP4 DUP2 GT PUSH2 0x492 JUMPI PUSH2 0x3124 SWAP1 CALLDATASIZE SWAP1 PUSH1 0x4 ADD PUSH2 0x40DA JUMP JUMPDEST SWAP3 PUSH1 0x84 CALLDATALOAD SWAP1 DUP2 GT PUSH2 0x492 JUMPI PUSH2 0x313D SWAP1 CALLDATASIZE SWAP1 PUSH1 0x4 ADD PUSH2 0x4149 JUMP JUMPDEST PUSH1 0x1 PUSH1 0x1 PUSH1 0xA0 SHL SUB SWAP6 DUP7 AND SWAP6 SWAP1 SWAP3 SWAP1 CALLER DUP8 EQ DUP1 ISZERO PUSH2 0x3316 JUMPI JUMPDEST PUSH2 0x315F SWAP1 PUSH2 0x47D8 JUMP JUMPDEST PUSH2 0x316C DUP4 MLOAD DUP7 MLOAD EQ PUSH2 0x4E06 JUMP JUMPDEST DUP6 AND SWAP3 PUSH2 0x317A DUP5 ISZERO ISZERO PUSH2 0x4E63 JUMP JUMPDEST PUSH0 JUMPDEST DUP4 MLOAD DUP2 LT ISZERO PUSH2 0x31FE JUMPI DUP1 PUSH2 0x3192 PUSH1 0x1 SWAP3 DUP7 PUSH2 0x48AF JUMP JUMPDEST MLOAD PUSH2 0x319D DUP3 DUP10 PUSH2 0x48AF JUMP JUMPDEST MLOAD SWAP1 DUP1 PUSH0 MSTORE PUSH1 0x20 SWAP1 PUSH0 DUP3 MSTORE PUSH1 0x40 PUSH0 KECCAK256 DUP13 PUSH0 MSTORE DUP3 MSTORE DUP3 PUSH1 0x40 PUSH0 KECCAK256 SLOAD PUSH2 0x31C3 DUP3 DUP3 LT ISZERO PUSH2 0x4EBD JUMP JUMPDEST DUP3 PUSH0 MSTORE PUSH0 DUP5 MSTORE DUP14 PUSH1 0x40 PUSH0 KECCAK256 SWAP1 PUSH0 MSTORE DUP5 MSTORE SUB PUSH1 0x40 PUSH0 KECCAK256 SSTORE PUSH0 MSTORE PUSH0 DUP2 MSTORE PUSH1 0x40 PUSH0 KECCAK256 SWAP1 DUP9 PUSH0 MSTORE MSTORE PUSH2 0x31F6 PUSH1 0x40 PUSH0 KECCAK256 SWAP2 DUP3 SLOAD PUSH2 0x47AC JUMP JUMPDEST SWAP1 SSTORE ADD PUSH2 0x317C JUMP JUMPDEST POP SWAP1 SWAP5 SWAP4 SWAP3 SWAP2 SWAP4 DUP3 DUP8 PUSH1 0x40 MLOAD PUSH0 DUP1 MLOAD PUSH1 0x20 PUSH2 0x54F8 DUP4 CODECOPY DUP2 MLOAD SWAP2 MSTORE CALLER SWAP2 DUP1 PUSH2 0x3226 DUP11 DUP13 DUP4 PUSH2 0x4F1C JUMP JUMPDEST SUB SWAP1 LOG4 EXTCODESIZE PUSH2 0x3230 JUMPI STOP JUMPDEST PUSH0 PUSH1 0x20 SWAP5 PUSH2 0x3271 PUSH2 0x262B SWAP8 PUSH2 0x261B SWAP5 PUSH1 0x40 MLOAD SWAP10 DUP11 SWAP9 DUP10 SWAP8 DUP9 SWAP7 PUSH4 0xBC197C81 PUSH1 0xE0 SHL SWAP15 DUP16 DUP10 MSTORE CALLER PUSH1 0x4 DUP11 ADD MSTORE PUSH1 0x24 DUP10 ADD MSTORE PUSH1 0xA0 PUSH1 0x44 DUP10 ADD MSTORE PUSH1 0xA4 DUP9 ADD SWAP1 PUSH2 0x4164 JUMP JUMPDEST SUB SWAP3 GAS CALL PUSH0 SWAP2 DUP2 PUSH2 0x32F5 JUMPI JUMPDEST POP PUSH2 0x32E4 JUMPI PUSH2 0x328A PUSH2 0x53CE JUMP JUMPDEST PUSH4 0x8C379A0 EQ PUSH2 0x32AD JUMPI PUSH1 0x40 MLOAD PUSH3 0x461BCD PUSH1 0xE5 SHL DUP2 MSTORE DUP1 PUSH2 0x7A3 PUSH1 0x4 DUP3 ADD PUSH2 0x5456 JUMP JUMPDEST PUSH2 0x32B5 PUSH2 0x53E9 JUMP JUMPDEST DUP1 PUSH2 0x32C0 JUMPI POP PUSH2 0x78A JUMP JUMPDEST PUSH1 0x40 MLOAD PUSH3 0x461BCD PUSH1 0xE5 SHL DUP2 MSTORE PUSH1 0x20 PUSH1 0x4 DUP3 ADD MSTORE SWAP1 DUP2 SWAP1 PUSH2 0x7A3 SWAP1 PUSH1 0x24 DUP4 ADD SWAP1 PUSH2 0x4023 JUMP JUMPDEST PUSH1 0x1 PUSH1 0x1 PUSH1 0xE0 SHL SUB NOT AND SUB PUSH2 0x7EF JUMPI STOP JUMPDEST PUSH2 0x330F SWAP2 SWAP3 POP PUSH1 0x20 RETURNDATASIZE PUSH1 0x20 GT PUSH2 0x830 JUMPI PUSH2 0x821 DUP2 DUP4 PUSH2 0x3F3D JUMP JUMPDEST SWAP1 DUP4 PUSH2 0x327D JUMP JUMPDEST POP DUP7 PUSH0 MSTORE PUSH1 0x1 PUSH1 0x20 MSTORE PUSH1 0x40 PUSH0 KECCAK256 CALLER PUSH0 MSTORE PUSH1 0x20 MSTORE PUSH2 0x315F PUSH1 0xFF PUSH1 0x40 PUSH0 KECCAK256 SLOAD AND SWAP1 POP PUSH2 0x3156 JUMP JUMPDEST CALLVALUE PUSH2 0x492 JUMPI PUSH0 CALLDATASIZE PUSH1 0x3 NOT ADD SLT PUSH2 0x492 JUMPI PUSH1 0x20 PUSH1 0xB SLOAD PUSH1 0x40 MLOAD SWAP1 DUP2 MSTORE RETURN JUMPDEST CALLVALUE PUSH2 0x492 JUMPI PUSH1 0x20 CALLDATASIZE PUSH1 0x3 NOT ADD SLT PUSH2 0x492 JUMPI PUSH1 0x20 PUSH2 0x10D8 PUSH2 0x3376 PUSH2 0x3E77 JUMP JUMPDEST PUSH2 0x47B9 JUMP JUMPDEST CALLVALUE PUSH2 0x492 JUMPI PUSH1 0x40 CALLDATASIZE PUSH1 0x3 NOT ADD SLT PUSH2 0x492 JUMPI PUSH1 0x1 PUSH1 0x1 PUSH1 0xA0 SHL SUB PUSH2 0x339C PUSH2 0x3E2B JUMP JUMPDEST AND PUSH0 MSTORE PUSH1 0x22 PUSH1 0x20 MSTORE PUSH1 0x40 PUSH0 KECCAK256 PUSH1 0x24 CALLDATALOAD PUSH0 MSTORE PUSH1 0x20 MSTORE PUSH1 0x20 PUSH1 0x40 PUSH0 KECCAK256 SLOAD PUSH1 0x40 MLOAD SWAP1 DUP2 MSTORE RETURN JUMPDEST CALLVALUE PUSH2 0x492 JUMPI PUSH0 CALLDATASIZE PUSH1 0x3 NOT ADD SLT PUSH2 0x492 JUMPI PUSH1 0x20 PUSH1 0x6 SLOAD PUSH1 0x40 MLOAD SWAP1 DUP2 MSTORE RETURN JUMPDEST CALLVALUE PUSH2 0x492 JUMPI PUSH1 0x40 CALLDATASIZE PUSH1 0x3 NOT ADD SLT PUSH2 0x492 JUMPI PUSH2 0x33F5 PUSH2 0x3E2B JUMP JUMPDEST PUSH2 0x33FD PUSH2 0x3E57 JUMP JUMPDEST SWAP1 PUSH1 0x1 DUP1 PUSH1 0xA0 SHL SUB AND PUSH0 MSTORE PUSH1 0x1D PUSH1 0x20 MSTORE PUSH1 0xFF PUSH1 0x40 PUSH0 KECCAK256 SWAP2 AND PUSH0 MSTORE PUSH1 0x20 MSTORE PUSH1 0x20 PUSH1 0x40 PUSH0 KECCAK256 SLOAD PUSH1 0x40 MLOAD SWAP1 DUP2 MSTORE RETURN JUMPDEST CALLVALUE PUSH2 0x492 JUMPI PUSH0 CALLDATASIZE PUSH1 0x3 NOT ADD SLT PUSH2 0x492 JUMPI PUSH1 0x20 PUSH1 0x40 MLOAD PUSH2 0x2710 DUP2 MSTORE RETURN JUMPDEST CALLVALUE PUSH2 0x492 JUMPI PUSH0 CALLDATASIZE PUSH1 0x3 NOT ADD SLT PUSH2 0x492 JUMPI PUSH1 0x20 PUSH1 0x7 SLOAD PUSH1 0x40 MLOAD SWAP1 DUP2 MSTORE RETURN JUMPDEST CALLVALUE PUSH2 0x492 JUMPI PUSH0 CALLDATASIZE PUSH1 0x3 NOT ADD SLT PUSH2 0x492 JUMPI PUSH1 0x20 PUSH1 0x40 MLOAD PUSH1 0x5 DUP2 MSTORE RETURN JUMPDEST CALLVALUE PUSH2 0x492 JUMPI PUSH1 0x60 CALLDATASIZE PUSH1 0x3 NOT ADD SLT PUSH2 0x492 JUMPI PUSH2 0x3496 PUSH2 0x3E77 JUMP JUMPDEST PUSH1 0x1 PUSH1 0x1 PUSH1 0x40 SHL SUB SWAP1 PUSH1 0x24 CALLDATALOAD DUP3 DUP2 GT PUSH2 0x492 JUMPI PUSH2 0x34B7 SWAP1 CALLDATASIZE SWAP1 PUSH1 0x4 ADD PUSH2 0x4048 JUMP JUMPDEST PUSH1 0x44 CALLDATALOAD DUP5 DUP2 GT PUSH2 0x492 JUMPI PUSH2 0x34D2 PUSH2 0xFFFF SWAP2 CALLDATASIZE SWAP1 PUSH1 0x4 ADD PUSH2 0x4048 JUMP JUMPDEST SWAP2 SWAP1 SWAP5 PUSH2 0x34DD PUSH2 0x496B JUMP JUMPDEST AND SWAP4 PUSH2 0x34EA DUP6 ISZERO ISZERO PUSH2 0x470D JUMP JUMPDEST DUP5 PUSH0 MSTORE PUSH1 0x20 SWAP6 PUSH1 0x1B DUP8 MSTORE PUSH1 0x40 PUSH0 KECCAK256 DUP2 DUP6 GT PUSH2 0x987 JUMPI PUSH2 0x350D DUP6 PUSH2 0x8B4 DUP4 SLOAD PUSH2 0x3E99 JUMP JUMPDEST PUSH0 DUP6 PUSH1 0x1F DUP2 GT PUSH1 0x1 EQ PUSH2 0x3635 JUMPI DUP1 PUSH2 0x352B SWAP3 PUSH0 SWAP2 PUSH2 0x362A JUMPI POP PUSH2 0x479A JUMP JUMPDEST SWAP1 SSTORE JUMPDEST DUP6 PUSH0 MSTORE PUSH1 0x1C DUP8 MSTORE PUSH1 0x40 PUSH0 KECCAK256 SWAP1 DUP4 GT PUSH2 0x987 JUMPI PUSH2 0x354E DUP4 PUSH2 0x8B4 DUP4 SLOAD PUSH2 0x3E99 JUMP JUMPDEST PUSH0 PUSH1 0x1F DUP5 GT PUSH1 0x1 EQ PUSH2 0x35B4 JUMPI SWAP2 DUP4 SWAP2 PUSH2 0x3582 DUP4 PUSH2 0x902 SWAP7 PUSH0 DUP1 MLOAD PUSH1 0x20 PUSH2 0x5558 DUP4 CODECOPY DUP2 MLOAD SWAP2 MSTORE SWAP11 SWAP12 SWAP7 PUSH0 SWAP2 PUSH2 0x35A9 JUMPI POP PUSH2 0x479A JUMP JUMPDEST SWAP1 SSTORE JUMPDEST PUSH2 0x359C PUSH1 0x40 MLOAD SWAP7 DUP8 SWAP7 PUSH1 0x40 DUP9 MSTORE PUSH1 0x40 DUP9 ADD SWAP2 PUSH2 0x466D JUMP JUMPDEST SWAP3 DUP6 DUP5 SUB SWAP1 DUP7 ADD MSTORE PUSH2 0x466D JUMP JUMPDEST SWAP1 POP DUP5 ADD CALLDATALOAD DUP13 PUSH2 0x8E8 JUMP JUMPDEST PUSH1 0x1F NOT DUP5 AND SWAP1 DUP3 PUSH0 MSTORE DUP9 PUSH0 KECCAK256 SWAP2 PUSH0 JUMPDEST DUP2 DUP2 LT PUSH2 0x3613 JUMPI POP SWAP2 DUP6 SWAP4 SWAP2 PUSH2 0x902 SWAP7 PUSH0 DUP1 MLOAD PUSH1 0x20 PUSH2 0x5558 DUP4 CODECOPY DUP2 MLOAD SWAP2 MSTORE SWAP11 SWAP12 SWAP7 SWAP5 LT PUSH2 0x35FA JUMPI JUMPDEST POP POP PUSH1 0x1 DUP4 DUP2 SHL ADD SWAP1 SSTORE PUSH2 0x3585 JUMP JUMPDEST DUP4 ADD CALLDATALOAD PUSH0 NOT PUSH1 0x3 DUP7 SWAP1 SHL PUSH1 0xF8 AND SHR NOT AND SWAP1 SSTORE DUP10 DUP1 PUSH2 0x35EB JUMP JUMPDEST SWAP2 SWAP3 DUP11 PUSH1 0x1 DUP2 SWAP3 DUP7 DUP10 ADD CALLDATALOAD DUP2 SSTORE ADD SWAP5 ADD SWAP3 ADD PUSH2 0x35C3 JUMP JUMPDEST SWAP1 POP DUP9 ADD CALLDATALOAD DUP12 PUSH2 0x8E8 JUMP JUMPDEST POP PUSH1 0x1F NOT DUP7 AND SWAP1 DUP3 PUSH0 MSTORE DUP7 DUP11 PUSH0 KECCAK256 SWAP3 PUSH0 JUMPDEST DUP13 DUP3 DUP3 LT PUSH2 0x367E JUMPI POP POP LT PUSH2 0x3665 JUMPI JUMPDEST POP POP PUSH1 0x1 DUP6 DUP2 SHL ADD SWAP1 SSTORE PUSH2 0x352E JUMP JUMPDEST DUP8 ADD CALLDATALOAD PUSH0 NOT PUSH1 0x3 DUP9 SWAP1 SHL PUSH1 0xF8 AND SHR NOT AND SWAP1 SSTORE DUP9 DUP1 PUSH2 0x3656 JUMP JUMPDEST DUP12 DUP6 ADD CALLDATALOAD DUP7 SSTORE PUSH1 0x1 SWAP1 SWAP6 ADD SWAP5 SWAP4 DUP5 ADD SWAP4 DUP11 SWAP4 POP ADD PUSH2 0x3646 JUMP JUMPDEST CALLVALUE PUSH2 0x492 JUMPI PUSH1 0x20 DUP1 PUSH1 0x3 NOT CALLDATASIZE ADD SLT PUSH2 0x492 JUMPI PUSH2 0x36B1 PUSH2 0x3E67 JUMP JUMPDEST SWAP1 PUSH2 0x36BE PUSH2 0x1A07 DUP4 PUSH2 0x4DDA JUMP JUMPDEST PUSH2 0x36CD PUSH2 0x1453 PUSH2 0x26BA DUP5 PUSH2 0x4DF5 JUMP JUMPDEST CALLER PUSH0 MSTORE PUSH1 0x12 DUP2 MSTORE PUSH2 0x3726 PUSH1 0x40 PUSH0 KECCAK256 SWAP3 PUSH1 0xFF DUP2 AND SWAP4 DUP5 PUSH0 MSTORE DUP4 MSTORE PUSH1 0x40 PUSH0 KECCAK256 PUSH1 0x1 PUSH1 0xFF NOT DUP3 SLOAD AND OR SWAP1 SSTORE CALLER PUSH0 MSTORE PUSH1 0x1E DUP4 MSTORE PUSH1 0x40 PUSH0 KECCAK256 DUP5 PUSH0 MSTORE DUP4 MSTORE PUSH0 PUSH1 0x40 DUP2 KECCAK256 SSTORE CALLER PUSH0 MSTORE PUSH1 0x1D DUP4 MSTORE PUSH1 0x40 PUSH0 KECCAK256 DUP5 PUSH0 MSTORE DUP4 MSTORE PUSH0 PUSH1 0x40 DUP2 KECCAK256 SSTORE PUSH2 0x4DF5 JUMP JUMPDEST PUSH2 0x3730 DUP2 CALLER PUSH2 0x42BB JUMP JUMPDEST ISZERO PUSH2 0x3737 JUMPI STOP JUMPDEST PUSH1 0x40 MLOAD PUSH2 0x3747 SWAP2 PUSH2 0x2C21 DUP3 PUSH2 0x3EEC JUMP JUMPDEST PUSH0 PUSH1 0x40 MLOAD SWAP2 DUP4 CALLER PUSH0 DUP1 MLOAD PUSH1 0x20 PUSH2 0x55F8 DUP4 CODECOPY DUP2 MLOAD SWAP2 MSTORE DUP5 DUP1 LOG3 DUP2 DUP4 MSTORE DUP3 ADD MSTORE PUSH0 DUP1 MLOAD PUSH1 0x20 PUSH2 0x56D8 DUP4 CODECOPY DUP2 MLOAD SWAP2 MSTORE PUSH1 0x40 CALLER SWAP3 LOG3 STOP JUMPDEST CALLVALUE PUSH2 0x492 JUMPI PUSH1 0x60 CALLDATASIZE PUSH1 0x3 NOT ADD SLT PUSH2 0x492 JUMPI PUSH1 0x4 CALLDATALOAD PUSH2 0x3796 PUSH2 0x3E1C JUMP JUMPDEST PUSH1 0x44 CALLDATALOAD PUSH1 0x1 PUSH1 0x1 PUSH1 0x40 SHL SUB DUP2 GT PUSH2 0x492 JUMPI PUSH32 0x5CD61427930AB89A7FFDD8646DD284F02D4EC213A21D6DCAAB300350E8006611 SWAP2 PUSH2 0x37DA PUSH2 0x902 SWAP3 CALLDATASIZE SWAP1 PUSH1 0x4 ADD PUSH2 0x4048 JUMP JUMPDEST SWAP3 SWAP1 PUSH2 0x37E4 PUSH2 0x496B JUMP JUMPDEST DUP6 PUSH0 MSTORE PUSH1 0x15 PUSH1 0x20 MSTORE PUSH2 0x37F9 DUP4 PUSH1 0x40 PUSH0 KECCAK256 PUSH2 0x4213 JUMP JUMPDEST PUSH1 0x40 MLOAD SWAP4 DUP5 SWAP4 ISZERO ISZERO DUP5 MSTORE PUSH1 0x40 PUSH1 0x20 DUP6 ADD MSTORE PUSH1 0x40 DUP5 ADD SWAP2 PUSH2 0x466D JUMP JUMPDEST CALLVALUE PUSH2 0x492 JUMPI PUSH0 CALLDATASIZE PUSH1 0x3 NOT ADD SLT PUSH2 0x492 JUMPI PUSH1 0x40 MLOAD PUSH1 0xC SLOAD PUSH0 DUP3 PUSH2 0x3835 DUP4 PUSH2 0x3E99 JUMP JUMPDEST SWAP2 DUP3 DUP3 MSTORE PUSH1 0x20 SWAP4 PUSH1 0x1 SWAP1 DUP6 PUSH1 0x1 DUP3 AND SWAP2 DUP3 PUSH0 EQ PUSH2 0x308A JUMPI POP POP PUSH1 0x1 EQ PUSH2 0x3862 JUMPI POP PUSH2 0x3039 SWAP3 POP SUB DUP4 PUSH2 0x3F3D JUMP JUMPDEST DUP5 SWAP2 POP PUSH1 0xC PUSH0 MSTORE DUP2 PUSH0 KECCAK256 SWAP1 PUSH0 SWAP2 JUMPDEST DUP6 DUP4 LT PUSH2 0x3887 JUMPI POP POP PUSH2 0x3039 SWAP4 POP DUP3 ADD ADD DUP6 PUSH2 0x302C JUMP JUMPDEST DUP1 SLOAD DUP4 DUP10 ADD DUP6 ADD MSTORE DUP8 SWAP5 POP DUP7 SWAP4 SWAP1 SWAP3 ADD SWAP2 DUP2 ADD PUSH2 0x3870 JUMP JUMPDEST CALLVALUE PUSH2 0x492 JUMPI PUSH0 CALLDATASIZE PUSH1 0x3 NOT ADD SLT PUSH2 0x492 JUMPI PUSH1 0x40 MLOAD PUSH1 0xE SLOAD PUSH0 DUP3 PUSH2 0x38C0 DUP4 PUSH2 0x3E99 JUMP JUMPDEST SWAP2 DUP3 DUP3 MSTORE PUSH1 0x20 SWAP4 PUSH1 0x1 SWAP1 DUP6 PUSH1 0x1 DUP3 AND SWAP2 DUP3 PUSH0 EQ PUSH2 0x308A JUMPI POP POP PUSH1 0x1 EQ PUSH2 0x38ED JUMPI POP PUSH2 0x3039 SWAP3 POP SUB DUP4 PUSH2 0x3F3D JUMP JUMPDEST DUP5 SWAP2 POP PUSH1 0xE PUSH0 MSTORE DUP2 PUSH0 KECCAK256 SWAP1 PUSH0 SWAP2 JUMPDEST DUP6 DUP4 LT PUSH2 0x3912 JUMPI POP POP PUSH2 0x3039 SWAP4 POP DUP3 ADD ADD DUP6 PUSH2 0x302C JUMP JUMPDEST DUP1 SLOAD DUP4 DUP10 ADD DUP6 ADD MSTORE DUP8 SWAP5 POP DUP7 SWAP4 SWAP1 SWAP3 ADD SWAP2 DUP2 ADD PUSH2 0x38FB JUMP JUMPDEST CALLVALUE PUSH2 0x492 JUMPI PUSH1 0x20 DUP1 PUSH1 0x3 NOT CALLDATASIZE ADD SLT PUSH2 0x492 JUMPI PUSH1 0x4 CALLDATALOAD PUSH1 0xFF PUSH1 0xA SLOAD AND PUSH2 0x3C1E JUMPI PUSH1 0x8 SLOAD DUP2 LT PUSH2 0x3BE9 JUMPI PUSH2 0x395D DUP2 ISZERO ISZERO PUSH2 0x49C3 JUMP JUMPDEST PUSH1 0x40 MLOAD PUSH2 0x3969 DUP2 PUSH2 0x3EEC JUMP JUMPDEST PUSH0 DUP2 MSTORE PUSH2 0x3977 CALLER ISZERO ISZERO PUSH2 0x4F59 JUMP JUMPDEST PUSH1 0x40 MLOAD SWAP1 PUSH2 0x3984 DUP3 PUSH2 0x3F22 JUMP JUMPDEST PUSH1 0x1 SWAP1 DUP2 DUP4 MSTORE DUP5 DUP4 ADD SWAP3 DUP6 CALLDATASIZE DUP6 CALLDATACOPY MLOAD ISZERO PUSH2 0x105E JUMPI PUSH2 0x3E9 DUP1 SWAP4 MSTORE PUSH2 0x39A7 DUP5 PUSH2 0x54D2 JUMP JUMPDEST POP DUP3 PUSH0 MSTORE PUSH0 DUP6 MSTORE PUSH1 0x40 PUSH0 KECCAK256 CALLER PUSH0 MSTORE DUP6 MSTORE PUSH1 0x40 PUSH0 KECCAK256 PUSH2 0x39C6 DUP6 DUP3 SLOAD PUSH2 0x47AC JUMP JUMPDEST SWAP1 SSTORE PUSH1 0x40 MLOAD DUP4 DUP2 MSTORE DUP5 DUP7 DUP3 ADD MSTORE PUSH0 CALLER SWAP2 PUSH0 DUP1 MLOAD PUSH1 0x20 PUSH2 0x5538 DUP4 CODECOPY DUP2 MLOAD SWAP2 MSTORE PUSH1 0x40 CALLER SWAP3 LOG4 CALLER EXTCODESIZE PUSH2 0x3B5B JUMPI JUMPDEST POP CALLER PUSH0 MSTORE PUSH1 0x18 DUP5 MSTORE PUSH1 0x40 PUSH0 KECCAK256 DUP2 PUSH0 MSTORE DUP5 MSTORE PUSH1 0x40 PUSH0 KECCAK256 PUSH2 0x3A10 DUP5 DUP3 SLOAD PUSH2 0x47AC JUMP JUMPDEST SWAP1 SSTORE PUSH2 0x3A1A PUSH2 0x52B7 JUMP JUMPDEST PUSH1 0x3 PUSH1 0x40 MLOAD PUSH2 0x3A28 DUP2 PUSH2 0x3ED1 JUMP JUMPDEST DUP6 DUP2 MSTORE DUP7 DUP2 ADD DUP7 DUP2 MSTORE PUSH1 0x40 DUP3 ADD SWAP1 TIMESTAMP DUP3 MSTORE PUSH1 0x60 DUP4 ADD SWAP5 DUP6 MSTORE CALLER PUSH0 MSTORE DUP9 DUP1 MSTORE PUSH1 0x40 PUSH0 KECCAK256 DUP7 PUSH0 MSTORE DUP10 MSTORE PUSH1 0x40 PUSH0 KECCAK256 SWAP3 MLOAD DUP4 SSTORE MLOAD DUP6 DUP4 ADD SSTORE MLOAD PUSH1 0x2 DUP3 ADD SSTORE ADD SWAP1 MLOAD DUP1 MLOAD SWAP1 PUSH1 0x1 DUP1 PUSH1 0x40 SHL SUB DUP3 GT PUSH2 0x987 JUMPI PUSH2 0x3A89 DUP3 PUSH2 0x3A83 DUP6 SLOAD PUSH2 0x3E99 JUMP JUMPDEST DUP6 PUSH2 0x474B JUMP JUMPDEST DUP7 SWAP1 PUSH1 0x1F DUP4 GT PUSH1 0x1 EQ PUSH2 0x3AFD JUMPI PUSH2 0x3AA9 SWAP3 SWAP2 PUSH0 SWAP2 DUP4 PUSH2 0x3AF2 JUMPI POP POP PUSH2 0x479A JUMP JUMPDEST SWAP1 SSTORE JUMPDEST PUSH1 0x40 MLOAD DUP4 DUP2 MSTORE DUP4 DUP6 DUP3 ADD MSTORE PUSH0 DUP1 MLOAD PUSH1 0x20 PUSH2 0x5698 DUP4 CODECOPY DUP2 MLOAD SWAP2 MSTORE PUSH1 0x40 CALLER SWAP3 LOG2 PUSH2 0x3AD2 PUSH2 0x52B7 JUMP JUMPDEST PUSH0 DUP1 MLOAD PUSH1 0x20 PUSH2 0x5658 DUP4 CODECOPY DUP2 MLOAD SWAP2 MSTORE PUSH1 0x40 MLOAD DUP1 PUSH2 0x15C7 CALLER SWAP5 TIMESTAMP DUP10 DUP1 DUP6 PUSH2 0x4197 JUMP JUMPDEST ADD MLOAD SWAP1 POP DUP9 DUP1 PUSH2 0xB8A JUMP JUMPDEST DUP5 SWAP3 SWAP2 PUSH1 0x1F NOT DUP4 AND SWAP2 DUP6 PUSH0 MSTORE DUP10 PUSH0 KECCAK256 SWAP3 PUSH0 JUMPDEST DUP12 DUP3 DUP3 LT PUSH2 0x3B45 JUMPI POP POP DUP5 GT PUSH2 0x3B2D JUMPI JUMPDEST POP POP POP DUP2 SHL ADD SWAP1 SSTORE PUSH2 0x3AAC JUMP JUMPDEST ADD MLOAD PUSH0 NOT PUSH1 0xF8 DUP5 PUSH1 0x3 SHL AND SHR NOT AND SWAP1 SSTORE DUP8 DUP1 DUP1 PUSH2 0x3B20 JUMP JUMPDEST DUP4 DUP6 ADD MLOAD DUP7 SSTORE DUP10 SWAP8 SWAP1 SWAP6 ADD SWAP5 SWAP4 DUP5 ADD SWAP4 ADD PUSH2 0x3B0F JUMP JUMPDEST PUSH1 0x40 MLOAD DUP6 DUP2 DUP1 PUSH2 0x3B99 PUSH4 0xF23A6E61 PUSH1 0xE0 SHL SWAP6 DUP7 DUP4 MSTORE CALLER PUSH1 0x4 DUP5 ADD MSTORE PUSH0 PUSH1 0x24 DUP5 ADD MSTORE DUP9 PUSH1 0x44 DUP5 ADD MSTORE DUP10 PUSH1 0x64 DUP5 ADD MSTORE PUSH1 0xA0 PUSH1 0x84 DUP5 ADD MSTORE PUSH1 0xA4 DUP4 ADD SWAP1 PUSH2 0x4023 JUMP JUMPDEST SUB DUP2 PUSH0 CALLER GAS CALL PUSH0 SWAP2 DUP2 PUSH2 0x3BCA JUMPI JUMPDEST POP PUSH2 0x3BB5 JUMPI DUP6 PUSH2 0x77F PUSH2 0x53CE JUMP JUMPDEST PUSH1 0x1 PUSH1 0x1 PUSH1 0xE0 SHL SUB NOT AND SUB PUSH2 0x7EF JUMPI DUP5 PUSH2 0x39F0 JUMP JUMPDEST PUSH2 0x3BE2 SWAP2 SWAP3 POP DUP8 RETURNDATASIZE DUP10 GT PUSH2 0x830 JUMPI PUSH2 0x821 DUP2 DUP4 PUSH2 0x3F3D JUMP JUMPDEST SWAP1 DUP8 PUSH2 0x3BA7 JUMP JUMPDEST PUSH1 0x40 MLOAD PUSH3 0x461BCD PUSH1 0xE5 SHL DUP2 MSTORE PUSH1 0x4 DUP2 ADD DUP4 SWAP1 MSTORE PUSH1 0xD PUSH1 0x24 DUP3 ADD MSTORE PUSH13 0x42656C6F77206D696E696D756D PUSH1 0x98 SHL PUSH1 0x44 DUP3 ADD MSTORE PUSH1 0x64 SWAP1 REVERT JUMPDEST PUSH1 0x40 MLOAD PUSH3 0x461BCD PUSH1 0xE5 SHL DUP2 MSTORE PUSH1 0x4 DUP2 ADD DUP4 SWAP1 MSTORE PUSH1 0x14 PUSH1 0x24 DUP3 ADD MSTORE PUSH20 0x14DD589CD8DC9A5C1D1A5BDB9CC81C185D5CD959 PUSH1 0x62 SHL PUSH1 0x44 DUP3 ADD MSTORE PUSH1 0x64 SWAP1 REVERT JUMPDEST CALLVALUE PUSH2 0x492 JUMPI PUSH1 0x20 CALLDATASIZE PUSH1 0x3 NOT ADD SLT PUSH2 0x492 JUMPI PUSH2 0x193F PUSH2 0x192B PUSH1 0x4 CALLDATALOAD PUSH2 0x42E3 JUMP JUMPDEST CALLVALUE PUSH2 0x492 JUMPI PUSH1 0x20 CALLDATASIZE PUSH1 0x3 NOT ADD SLT PUSH2 0x492 JUMPI PUSH2 0xFFFF PUSH2 0x3C95 PUSH2 0x3E77 JUMP JUMPDEST AND PUSH0 MSTORE PUSH1 0x1A PUSH1 0x20 MSTORE PUSH2 0x193F PUSH2 0x192B PUSH1 0x40 PUSH0 KECCAK256 PUSH2 0x3F60 JUMP JUMPDEST CALLVALUE PUSH2 0x492 JUMPI PUSH1 0x20 CALLDATASIZE PUSH1 0x3 NOT ADD SLT PUSH2 0x492 JUMPI PUSH2 0x2710 PUSH1 0x4 CALLDATALOAD DUP2 DUP2 MUL SWAP2 DUP2 ISZERO SWAP2 DUP4 DIV EQ OR ISZERO PUSH2 0xD91 JUMPI PUSH1 0x7 SLOAD SWAP1 DUP2 ISZERO PUSH2 0x3CE9 JUMPI PUSH1 0x20 SWAP2 PUSH1 0x40 MLOAD SWAP2 DIV DUP2 MSTORE RETURN JUMPDEST PUSH4 0x4E487B71 PUSH1 0xE0 SHL PUSH0 MSTORE PUSH1 0x12 PUSH1 0x4 MSTORE PUSH1 0x24 PUSH0 REVERT JUMPDEST CALLVALUE PUSH2 0x492 JUMPI PUSH1 0x20 CALLDATASIZE PUSH1 0x3 NOT ADD SLT PUSH2 0x492 JUMPI PUSH1 0x4 CALLDATALOAD PUSH4 0xFFFFFFFF PUSH1 0xE0 SHL DUP2 AND DUP1 SWAP2 SUB PUSH2 0x492 JUMPI PUSH1 0x20 SWAP1 PUSH4 0x6CDB3D13 PUSH1 0xE1 SHL DUP2 EQ SWAP1 DUP2 ISZERO PUSH2 0x3D5A JUMPI JUMPDEST DUP2 ISZERO PUSH2 0x3D49 JUMPI JUMPDEST POP PUSH1 0x40 MLOAD SWAP1 ISZERO ISZERO DUP2 MSTORE RETURN JUMPDEST PUSH4 0x1FFC9A7 PUSH1 0xE0 SHL EQ SWAP1 POP DUP3 PUSH2 0x3D3E JUMP JUMPDEST PUSH4 0x3A24D07 PUSH1 0xE2 SHL DUP2 EQ SWAP2 POP PUSH2 0x3D37 JUMP JUMPDEST CALLVALUE PUSH2 0x492 JUMPI PUSH1 0x40 CALLDATASIZE PUSH1 0x3 NOT ADD SLT PUSH2 0x492 JUMPI PUSH2 0x3D84 PUSH2 0x3E2B JUMP JUMPDEST PUSH2 0x3D8C PUSH2 0x3E57 JUMP JUMPDEST SWAP1 PUSH1 0x1 DUP1 PUSH1 0xA0 SHL SUB AND PUSH0 MSTORE PUSH1 0x10 PUSH1 0x20 MSTORE PUSH1 0xFF PUSH1 0x40 PUSH0 KECCAK256 SWAP2 AND PUSH0 MSTORE PUSH1 0x20 MSTORE PUSH1 0x20 PUSH1 0xFF PUSH1 0x40 PUSH0 KECCAK256 SLOAD AND PUSH1 0x40 MLOAD SWAP1 ISZERO ISZERO DUP2 MSTORE RETURN JUMPDEST CALLVALUE PUSH2 0x492 JUMPI PUSH1 0x40 CALLDATASIZE PUSH1 0x3 NOT ADD SLT PUSH2 0x492 JUMPI PUSH1 0x20 PUSH2 0x10D8 PUSH2 0x3DDB PUSH2 0x3E2B JUMP JUMPDEST PUSH1 0x24 CALLDATALOAD SWAP1 PUSH2 0x42BB JUMP JUMPDEST CALLVALUE PUSH2 0x492 JUMPI PUSH1 0x20 CALLDATASIZE PUSH1 0x3 NOT ADD SLT PUSH2 0x492 JUMPI PUSH1 0x4 CALLDATALOAD DUP1 ISZERO ISZERO DUP1 SWAP2 SUB PUSH2 0x492 JUMPI PUSH2 0x3E0A PUSH2 0x496B JUMP JUMPDEST PUSH1 0xFF DUP1 NOT PUSH1 0xA SLOAD AND SWAP2 AND OR PUSH1 0xA SSTORE PUSH0 DUP1 RETURN JUMPDEST PUSH1 0x24 CALLDATALOAD SWAP1 DUP2 ISZERO ISZERO DUP3 SUB PUSH2 0x492 JUMPI JUMP JUMPDEST PUSH1 0x4 CALLDATALOAD SWAP1 PUSH1 0x1 PUSH1 0x1 PUSH1 0xA0 SHL SUB DUP3 AND DUP3 SUB PUSH2 0x492 JUMPI JUMP JUMPDEST PUSH1 0x24 CALLDATALOAD SWAP1 PUSH1 0x1 PUSH1 0x1 PUSH1 0xA0 SHL SUB DUP3 AND DUP3 SUB PUSH2 0x492 JUMPI JUMP JUMPDEST PUSH1 0x24 CALLDATALOAD SWAP1 PUSH1 0xFF DUP3 AND DUP3 SUB PUSH2 0x492 JUMPI JUMP JUMPDEST PUSH1 0x4 CALLDATALOAD SWAP1 PUSH1 0xFF DUP3 AND DUP3 SUB PUSH2 0x492 JUMPI JUMP JUMPDEST PUSH1 0x4 CALLDATALOAD SWAP1 PUSH2 0xFFFF DUP3 AND DUP3 SUB PUSH2 0x492 JUMPI JUMP JUMPDEST PUSH1 0x24 CALLDATALOAD SWAP1 PUSH2 0xFFFF DUP3 AND DUP3 SUB PUSH2 0x492 JUMPI JUMP JUMPDEST SWAP1 PUSH1 0x1 DUP3 DUP2 SHR SWAP3 AND DUP1 ISZERO PUSH2 0x3EC7 JUMPI JUMPDEST PUSH1 0x20 DUP4 LT EQ PUSH2 0x3EB3 JUMPI JUMP JUMPDEST PUSH4 0x4E487B71 PUSH1 0xE0 SHL PUSH0 MSTORE PUSH1 0x22 PUSH1 0x4 MSTORE PUSH1 0x24 PUSH0 REVERT JUMPDEST SWAP2 PUSH1 0x7F AND SWAP2 PUSH2 0x3EA8 JUMP JUMPDEST PUSH1 0x80 DUP2 ADD SWAP1 DUP2 LT PUSH1 0x1 PUSH1 0x1 PUSH1 0x40 SHL SUB DUP3 GT OR PUSH2 0x987 JUMPI PUSH1 0x40 MSTORE JUMP JUMPDEST PUSH1 0x20 DUP2 ADD SWAP1 DUP2 LT PUSH1 0x1 PUSH1 0x1 PUSH1 0x40 SHL SUB DUP3 GT OR PUSH2 0x987 JUMPI PUSH1 0x40 MSTORE JUMP JUMPDEST PUSH1 0x60 DUP2 ADD SWAP1 DUP2 LT PUSH1 0x1 PUSH1 0x1 PUSH1 0x40 SHL SUB DUP3 GT OR PUSH2 0x987 JUMPI PUSH1 0x40 MSTORE JUMP JUMPDEST PUSH1 0x40 DUP2 ADD SWAP1 DUP2 LT PUSH1 0x1 PUSH1 0x1 PUSH1 0x40 SHL SUB DUP3 GT OR PUSH2 0x987 JUMPI PUSH1 0x40 MSTORE JUMP JUMPDEST PUSH1 0x1F SWAP1 SWAP2 ADD PUSH1 0x1F NOT AND DUP2 ADD SWAP1 PUSH1 0x1 PUSH1 0x1 PUSH1 0x40 SHL SUB DUP3 GT SWAP1 DUP3 LT OR PUSH2 0x987 JUMPI PUSH1 0x40 MSTORE JUMP JUMPDEST SWAP1 PUSH1 0x40 MLOAD SWAP2 DUP3 PUSH0 DUP3 SLOAD PUSH2 0x3F72 DUP2 PUSH2 0x3E99 JUMP JUMPDEST SWAP1 DUP2 DUP5 MSTORE PUSH1 0x20 SWAP5 PUSH1 0x1 SWAP2 PUSH1 0x1 DUP2 AND SWAP1 DUP2 PUSH0 EQ PUSH2 0x3FE0 JUMPI POP PUSH1 0x1 EQ PUSH2 0x3FA2 JUMPI JUMPDEST POP POP POP PUSH2 0x3FA0 SWAP3 POP SUB DUP4 PUSH2 0x3F3D JUMP JUMPDEST JUMP JUMPDEST PUSH0 SWAP1 DUP2 MSTORE DUP6 DUP2 KECCAK256 SWAP6 SWAP4 POP SWAP2 SWAP1 JUMPDEST DUP2 DUP4 LT PUSH2 0x3FC8 JUMPI POP POP PUSH2 0x3FA0 SWAP4 POP DUP3 ADD ADD PUSH0 DUP1 DUP1 PUSH2 0x3F91 JUMP JUMPDEST DUP6 SLOAD DUP9 DUP5 ADD DUP6 ADD MSTORE SWAP5 DUP6 ADD SWAP5 DUP8 SWAP5 POP SWAP2 DUP4 ADD SWAP2 PUSH2 0x3FAF JUMP JUMPDEST SWAP3 POP POP POP PUSH2 0x3FA0 SWAP5 SWAP3 POP PUSH1 0xFF NOT AND DUP3 DUP5 ADD MSTORE ISZERO ISZERO PUSH1 0x5 SHL DUP3 ADD ADD PUSH0 DUP1 DUP1 PUSH2 0x3F91 JUMP JUMPDEST PUSH0 JUMPDEST DUP4 DUP2 LT PUSH2 0x4013 JUMPI POP POP PUSH0 SWAP2 ADD MSTORE JUMP JUMPDEST DUP2 DUP2 ADD MLOAD DUP4 DUP3 ADD MSTORE PUSH1 0x20 ADD PUSH2 0x4004 JUMP JUMPDEST SWAP1 PUSH1 0x20 SWAP2 PUSH2 0x403C DUP2 MLOAD DUP1 SWAP3 DUP2 DUP6 MSTORE DUP6 DUP1 DUP7 ADD SWAP2 ADD PUSH2 0x4002 JUMP JUMPDEST PUSH1 0x1F ADD PUSH1 0x1F NOT AND ADD ADD SWAP1 JUMP JUMPDEST SWAP2 DUP2 PUSH1 0x1F DUP5 ADD SLT ISZERO PUSH2 0x492 JUMPI DUP3 CALLDATALOAD SWAP2 PUSH1 0x1 PUSH1 0x1 PUSH1 0x40 SHL SUB DUP4 GT PUSH2 0x492 JUMPI PUSH1 0x20 DUP4 DUP2 DUP7 ADD SWAP6 ADD ADD GT PUSH2 0x492 JUMPI JUMP JUMPDEST PUSH1 0x1 PUSH1 0x1 PUSH1 0x40 SHL SUB DUP2 GT PUSH2 0x987 JUMPI PUSH1 0x5 SHL PUSH1 0x20 ADD SWAP1 JUMP JUMPDEST SWAP3 SWAP2 PUSH2 0x4097 DUP3 PUSH2 0x4075 JUMP JUMPDEST SWAP2 PUSH2 0x40A5 PUSH1 0x40 MLOAD SWAP4 DUP5 PUSH2 0x3F3D JUMP JUMPDEST DUP3 SWAP5 DUP2 DUP5 MSTORE PUSH1 0x20 DUP1 SWAP5 ADD SWAP2 PUSH1 0x5 SHL DUP2 ADD SWAP3 DUP4 GT PUSH2 0x492 JUMPI SWAP1 JUMPDEST DUP3 DUP3 LT PUSH2 0x40CB JUMPI POP POP POP POP JUMP JUMPDEST DUP2 CALLDATALOAD DUP2 MSTORE SWAP1 DUP4 ADD SWAP1 DUP4 ADD PUSH2 0x40BE JUMP JUMPDEST SWAP1 DUP1 PUSH1 0x1F DUP4 ADD SLT ISZERO PUSH2 0x492 JUMPI DUP2 PUSH1 0x20 PUSH2 0x40F5 SWAP4 CALLDATALOAD SWAP2 ADD PUSH2 0x408C JUMP JUMPDEST SWAP1 JUMP JUMPDEST PUSH1 0x1 PUSH1 0x1 PUSH1 0x40 SHL SUB DUP2 GT PUSH2 0x987 JUMPI PUSH1 0x1F ADD PUSH1 0x1F NOT AND PUSH1 0x20 ADD SWAP1 JUMP JUMPDEST SWAP3 SWAP2 SWAP3 PUSH2 0x411F DUP3 PUSH2 0x40F8 JUMP JUMPDEST SWAP2 PUSH2 0x412D PUSH1 0x40 MLOAD SWAP4 DUP5 PUSH2 0x3F3D JUMP JUMPDEST DUP3 SWAP5 DUP2 DUP5 MSTORE DUP2 DUP4 ADD GT PUSH2 0x492 JUMPI DUP3 DUP2 PUSH1 0x20 SWAP4 DUP5 PUSH0 SWAP7 ADD CALLDATACOPY ADD ADD MSTORE JUMP JUMPDEST SWAP1 DUP1 PUSH1 0x1F DUP4 ADD SLT ISZERO PUSH2 0x492 JUMPI DUP2 PUSH1 0x20 PUSH2 0x40F5 SWAP4 CALLDATALOAD SWAP2 ADD PUSH2 0x4113 JUMP JUMPDEST SWAP1 DUP2 MLOAD DUP1 DUP3 MSTORE PUSH1 0x20 DUP1 DUP1 SWAP4 ADD SWAP4 ADD SWAP2 PUSH0 JUMPDEST DUP3 DUP2 LT PUSH2 0x4183 JUMPI POP POP POP POP SWAP1 JUMP JUMPDEST DUP4 MLOAD DUP6 MSTORE SWAP4 DUP2 ADD SWAP4 SWAP3 DUP2 ADD SWAP3 PUSH1 0x1 ADD PUSH2 0x4175 JUMP JUMPDEST SWAP1 SWAP3 PUSH1 0x80 SWAP3 PUSH2 0x40F5 SWAP6 SWAP5 DUP4 MSTORE PUSH1 0x20 DUP4 ADD MSTORE PUSH1 0x40 DUP3 ADD MSTORE DUP2 PUSH1 0x60 DUP3 ADD MSTORE ADD SWAP1 PUSH2 0x4023 JUMP JUMPDEST SWAP1 PUSH1 0x40 PUSH1 0x3 NOT DUP4 ADD SLT PUSH2 0x492 JUMPI PUSH1 0x4 CALLDATALOAD PUSH2 0xFFFF DUP2 AND DUP2 SUB PUSH2 0x492 JUMPI SWAP2 PUSH1 0x24 CALLDATALOAD SWAP1 PUSH1 0x1 PUSH1 0x1 PUSH1 0x40 SHL SUB DUP3 GT PUSH2 0x492 JUMPI PUSH2 0x41F4 SWAP2 PUSH1 0x4 ADD PUSH2 0x4048 JUMP JUMPDEST SWAP1 SWAP2 JUMP JUMPDEST CALLVALUE PUSH2 0x492 JUMPI PUSH0 CALLDATASIZE PUSH1 0x3 NOT ADD SLT PUSH2 0x492 JUMPI PUSH1 0x20 PUSH1 0x40 MLOAD PUSH1 0x2 DUP2 MSTORE RETURN JUMPDEST SWAP1 PUSH1 0xFF DUP1 NOT DUP4 SLOAD AND SWAP2 ISZERO ISZERO AND OR SWAP1 SSTORE JUMP JUMPDEST PUSH1 0x1 PUSH1 0x1 PUSH1 0xA0 SHL SUB AND DUP1 ISZERO PUSH2 0x4263 JUMPI PUSH0 SWAP1 DUP2 MSTORE PUSH32 0x8768E3ED19A5D00BE410E8D8AD51C65C3AA78049339B9AD4303F61914E359DB3 PUSH1 0x20 MSTORE PUSH1 0x40 SWAP1 KECCAK256 SLOAD SWAP1 JUMP JUMPDEST PUSH1 0x40 MLOAD PUSH3 0x461BCD PUSH1 0xE5 SHL DUP2 MSTORE PUSH1 0x20 PUSH1 0x4 DUP3 ADD MSTORE PUSH1 0x2A PUSH1 0x24 DUP3 ADD MSTORE PUSH32 0x455243313135353A2061646472657373207A65726F206973206E6F7420612076 PUSH1 0x44 DUP3 ADD MSTORE PUSH10 0x30B634B21037BBB732B9 PUSH1 0xB1 SHL PUSH1 0x64 DUP3 ADD MSTORE PUSH1 0x84 SWAP1 REVERT JUMPDEST PUSH1 0x1 PUSH1 0x1 PUSH1 0xA0 SHL SUB AND SWAP1 DUP2 ISZERO PUSH2 0x4263 JUMPI PUSH0 MSTORE PUSH0 PUSH1 0x20 MSTORE PUSH1 0x40 PUSH0 KECCAK256 SWAP1 PUSH0 MSTORE PUSH1 0x20 MSTORE PUSH1 0x40 PUSH0 KECCAK256 SLOAD SWAP1 JUMP JUMPDEST PUSH1 0xF SLOAD PUSH1 0x1 PUSH1 0x1 PUSH1 0xA0 SHL SUB AND DUP1 PUSH2 0x45C3 JUMPI JUMPDEST POP PUSH0 DUP2 PUSH19 0x184F03E93FF9F4DAA797ED6E38ED64BF6A1F01 PUSH1 0x40 SHL DUP2 DUP2 DUP2 LT ISZERO PUSH2 0x45B5 JUMPI JUMPDEST POP PUSH10 0x4EE2D6D415B85ACEF81 PUSH1 0x20 SHL SWAP1 POP DUP1 DUP3 LT ISZERO PUSH2 0x45A8 JUMPI JUMPDEST POP PUSH7 0x2386F26FC10000 DUP1 DUP3 LT ISZERO PUSH2 0x459B JUMPI JUMPDEST POP PUSH4 0x5F5E100 DUP1 DUP3 LT ISZERO PUSH2 0x458E JUMPI JUMPDEST POP PUSH2 0x2710 DUP1 DUP3 LT ISZERO PUSH2 0x4581 JUMPI JUMPDEST POP PUSH1 0x64 DUP2 LT ISZERO PUSH2 0x4573 JUMPI JUMPDEST PUSH1 0xA DUP1 SWAP2 LT ISZERO PUSH2 0x4569 JUMPI JUMPDEST PUSH1 0x1 DUP1 DUP4 ADD SWAP4 DUP2 PUSH1 0x21 PUSH2 0x43A2 PUSH2 0x438C DUP9 PUSH2 0x40F8 JUMP JUMPDEST SWAP8 PUSH2 0x439A PUSH1 0x40 MLOAD SWAP10 DUP11 PUSH2 0x3F3D JUMP JUMPDEST DUP1 DUP10 MSTORE PUSH2 0x40F8 JUMP JUMPDEST PUSH1 0x20 DUP9 ADD SWAP7 SWAP1 PUSH1 0x1F NOT ADD CALLDATASIZE DUP9 CALLDATACOPY DUP8 ADD ADD SWAP1 JUMPDEST PUSH2 0x4534 JUMPI JUMPDEST POP POP POP POP PUSH2 0x120 PUSH2 0x40F5 SWAP2 PUSH1 0x40 MLOAD SWAP4 DUP5 SWAP2 PUSH27 0x19185D184E985C1C1B1A58D85D1A5BDB8BDA9CDBDB8EDD5D198E0B PUSH1 0x2A SHL PUSH1 0x20 DUP5 ADD MSTORE PUSH32 0x7B226E616D65223A225269736B4C656E732044656D6F20436F6C6C6563746962 PUSH1 0x3B DUP5 ADD MSTORE PUSH32 0x6C65222C226465736372697074696F6E223A225269736B4C656E73205365706F PUSH1 0x5B DUP5 ADD MSTORE PUSH32 0x6C696120636F6C6C65637469626C652E20436F6E66696775726520746865206D PUSH1 0x7B DUP5 ADD MSTORE PUSH32 0x657461646174612072656E646572657220666F722066756C6C20636F76657220 PUSH1 0x9B DUP5 ADD MSTORE PUSH32 0x6172742E222C2261747472696275746573223A5B7B2274726169745F74797065 PUSH1 0xBB DUP5 ADD MSTORE PUSH32 0x223A224E6574776F726B222C2276616C7565223A225365706F6C6961227D2C7B PUSH1 0xDB DUP5 ADD MSTORE PUSH32 0x2274726169745F74797065223A22546F6B656E204944222C2276616C7565223A PUSH1 0xFB DUP5 ADD MSTORE PUSH1 0x11 PUSH1 0xF9 SHL PUSH2 0x11B DUP5 ADD MSTORE PUSH2 0x4516 PUSH2 0x11C SWAP3 MLOAD DUP1 SWAP3 DUP5 DUP7 ADD SWAP1 PUSH2 0x4002 JUMP JUMPDEST DUP3 ADD SWAP1 PUSH4 0x227D5D7D PUSH1 0xE0 SHL SWAP1 DUP3 ADD MSTORE SUB PUSH2 0x100 DUP2 ADD DUP5 MSTORE ADD DUP3 PUSH2 0x3F3D JUMP JUMPDEST PUSH0 NOT ADD SWAP1 DUP4 SWAP1 PUSH16 0x181899199A1A9B1B9C1CB0B131B232B3 PUSH1 0x81 SHL DUP3 DUP3 MOD BYTE DUP4 MSTORE8 DIV SWAP2 DUP3 ISZERO PUSH2 0x4564 JUMPI SWAP2 SWAP1 DUP3 PUSH2 0x43B4 JUMP JUMPDEST PUSH2 0x43B9 JUMP JUMPDEST SWAP1 PUSH1 0x1 ADD SWAP1 PUSH2 0x4377 JUMP JUMPDEST PUSH1 0x64 PUSH1 0x2 SWAP2 DIV SWAP2 ADD SWAP1 PUSH2 0x436C JUMP JUMPDEST PUSH1 0x4 SWAP2 DIV SWAP2 ADD SWAP1 PUSH0 PUSH2 0x4361 JUMP JUMPDEST PUSH1 0x8 SWAP2 DIV SWAP2 ADD SWAP1 PUSH0 PUSH2 0x4354 JUMP JUMPDEST PUSH1 0x10 SWAP2 DIV SWAP2 ADD SWAP1 PUSH0 PUSH2 0x4345 JUMP JUMPDEST PUSH1 0x20 SWAP2 DIV SWAP2 ADD SWAP1 PUSH0 PUSH2 0x4333 JUMP JUMPDEST PUSH1 0x40 SWAP4 POP DIV SWAP1 POP PUSH0 DUP1 PUSH2 0x4319 JUMP JUMPDEST PUSH0 PUSH1 0x24 SWAP2 PUSH1 0x40 MLOAD SWAP3 DUP4 DUP1 SWAP3 PUSH4 0x3A24D07 PUSH1 0xE2 SHL DUP3 MSTORE DUP7 PUSH1 0x4 DUP4 ADD MSTORE GAS STATICCALL PUSH0 SWAP2 DUP2 PUSH2 0x45F3 JUMPI JUMPDEST POP ISZERO PUSH2 0x42F5 JUMPI SWAP1 POP SWAP1 JUMP JUMPDEST SWAP1 SWAP2 POP RETURNDATASIZE DUP1 PUSH0 DUP4 RETURNDATACOPY PUSH2 0x4605 DUP2 DUP4 PUSH2 0x3F3D JUMP JUMPDEST DUP2 ADD SWAP1 PUSH1 0x20 DUP2 DUP4 SUB SLT PUSH2 0x492 JUMPI DUP1 MLOAD SWAP1 PUSH1 0x1 PUSH1 0x1 PUSH1 0x40 SHL SUB DUP3 GT PUSH2 0x492 JUMPI ADD DUP2 PUSH1 0x1F DUP3 ADD SLT ISZERO PUSH2 0x492 JUMPI DUP1 MLOAD PUSH2 0x463A DUP2 PUSH2 0x40F8 JUMP JUMPDEST SWAP3 PUSH2 0x4648 PUSH1 0x40 MLOAD SWAP5 DUP6 PUSH2 0x3F3D JUMP JUMPDEST DUP2 DUP5 MSTORE PUSH1 0x20 DUP3 DUP5 ADD ADD GT PUSH2 0x492 JUMPI PUSH2 0x4666 SWAP2 PUSH1 0x20 DUP1 DUP6 ADD SWAP2 ADD PUSH2 0x4002 JUMP JUMPDEST SWAP1 PUSH0 PUSH2 0x45E8 JUMP JUMPDEST SWAP1 DUP1 PUSH1 0x20 SWAP4 SWAP3 DUP2 DUP5 MSTORE DUP5 DUP5 ADD CALLDATACOPY PUSH0 DUP3 DUP3 ADD DUP5 ADD MSTORE PUSH1 0x1F ADD PUSH1 0x1F NOT AND ADD ADD SWAP1 JUMP JUMPDEST ISZERO PUSH2 0x4694 JUMPI JUMP JUMPDEST PUSH1 0x40 MLOAD PUSH3 0x461BCD PUSH1 0xE5 SHL DUP2 MSTORE PUSH1 0x20 PUSH1 0x4 DUP3 ADD MSTORE PUSH1 0x13 PUSH1 0x24 DUP3 ADD MSTORE PUSH19 0x496E76616C6964207765616C7468207461736B PUSH1 0x68 SHL PUSH1 0x44 DUP3 ADD MSTORE PUSH1 0x64 SWAP1 REVERT JUMPDEST ISZERO PUSH2 0x46D6 JUMPI JUMP JUMPDEST PUSH1 0x40 MLOAD PUSH3 0x461BCD PUSH1 0xE5 SHL DUP2 MSTORE PUSH1 0x20 PUSH1 0x4 DUP3 ADD MSTORE PUSH1 0xF PUSH1 0x24 DUP3 ADD MSTORE PUSH15 0x105B1C9958591E4818DB185A5B5959 PUSH1 0x8A SHL PUSH1 0x44 DUP3 ADD MSTORE PUSH1 0x64 SWAP1 REVERT JUMPDEST ISZERO PUSH2 0x4714 JUMPI JUMP JUMPDEST PUSH1 0x40 MLOAD PUSH3 0x461BCD PUSH1 0xE5 SHL DUP2 MSTORE PUSH1 0x20 PUSH1 0x4 DUP3 ADD MSTORE PUSH1 0xF PUSH1 0x24 DUP3 ADD MSTORE PUSH15 0x125B9D985B1A59081C1C9BD91D58DD PUSH1 0x8A SHL PUSH1 0x44 DUP3 ADD MSTORE PUSH1 0x64 SWAP1 REVERT JUMPDEST PUSH1 0x1F DUP3 GT PUSH2 0x4758 JUMPI POP POP POP JUMP JUMPDEST PUSH0 MSTORE PUSH1 0x20 PUSH0 KECCAK256 SWAP1 PUSH1 0x20 PUSH1 0x1F DUP5 ADD PUSH1 0x5 SHR DUP4 ADD SWAP4 LT PUSH2 0x4790 JUMPI JUMPDEST PUSH1 0x1F ADD PUSH1 0x5 SHR ADD SWAP1 JUMPDEST DUP2 DUP2 LT PUSH2 0x4785 JUMPI POP POP JUMP JUMPDEST PUSH0 DUP2 SSTORE PUSH1 0x1 ADD PUSH2 0x477A JUMP JUMPDEST SWAP1 SWAP2 POP DUP2 SWAP1 PUSH2 0x4771 JUMP JUMPDEST DUP2 PUSH1 0x1 SHL SWAP2 PUSH0 NOT SWAP1 PUSH1 0x3 SHL SHR NOT AND OR SWAP1 JUMP JUMPDEST SWAP2 SWAP1 DUP3 ADD DUP1 SWAP3 GT PUSH2 0xD91 JUMPI JUMP JUMPDEST PUSH2 0xFFFF AND PUSH2 0x47C8 DUP2 ISZERO ISZERO PUSH2 0x470D JUMP JUMPDEST PUSH2 0x3E8 SWAP1 DUP2 ADD DUP1 SWAP2 GT PUSH2 0xD91 JUMPI SWAP1 JUMP JUMPDEST ISZERO PUSH2 0x47DF JUMPI JUMP JUMPDEST PUSH1 0x40 MLOAD PUSH3 0x461BCD PUSH1 0xE5 SHL DUP2 MSTORE PUSH1 0x20 PUSH1 0x4 DUP3 ADD MSTORE PUSH1 0x2E PUSH1 0x24 DUP3 ADD MSTORE PUSH32 0x455243313135353A2063616C6C6572206973206E6F7420746F6B656E206F776E PUSH1 0x44 DUP3 ADD MSTORE PUSH14 0x195C881BDC88185C1C1C9BDD9959 PUSH1 0x92 SHL PUSH1 0x64 DUP3 ADD MSTORE PUSH1 0x84 SWAP1 REVERT JUMPDEST ISZERO PUSH2 0x4842 JUMPI JUMP JUMPDEST PUSH1 0x40 MLOAD PUSH3 0x461BCD PUSH1 0xE5 SHL DUP2 MSTORE PUSH1 0x20 PUSH1 0x4 DUP3 ADD MSTORE PUSH1 0x13 PUSH1 0x24 DUP3 ADD MSTORE PUSH19 0x125B9D985B1A59081858DA1A595D995B595B9D PUSH1 0x6A SHL PUSH1 0x44 DUP3 ADD MSTORE PUSH1 0x64 SWAP1 REVERT JUMPDEST SWAP1 PUSH2 0x4887 DUP3 PUSH2 0x4075 JUMP JUMPDEST PUSH2 0x4894 PUSH1 0x40 MLOAD SWAP2 DUP3 PUSH2 0x3F3D JUMP JUMPDEST DUP3 DUP2 MSTORE DUP1 SWAP3 PUSH2 0x48A5 PUSH1 0x1F NOT SWAP2 PUSH2 0x4075 JUMP JUMPDEST ADD SWAP1 PUSH1 0x20 CALLDATASIZE SWAP2 ADD CALLDATACOPY JUMP JUMPDEST DUP1 MLOAD DUP3 LT ISZERO PUSH2 0x105E JUMPI PUSH1 0x20 SWAP2 PUSH1 0x5 SHL ADD ADD SWAP1 JUMP JUMPDEST ISZERO PUSH2 0x48CA JUMPI JUMP JUMPDEST PUSH1 0x40 MLOAD PUSH3 0x461BCD PUSH1 0xE5 SHL DUP2 MSTORE PUSH1 0x20 PUSH1 0x4 DUP3 ADD MSTORE PUSH1 0x10 PUSH1 0x24 DUP3 ADD MSTORE PUSH16 0x4D697373696E672065766964656E6365 PUSH1 0x80 SHL PUSH1 0x44 DUP3 ADD MSTORE PUSH1 0x64 SWAP1 REVERT JUMPDEST SWAP2 SWAP1 DUP2 LT ISZERO PUSH2 0x105E JUMPI PUSH1 0x5 SHL ADD SWAP1 JUMP JUMPDEST PUSH1 0x1F SLOAD DUP2 LT ISZERO PUSH2 0x105E JUMPI PUSH1 0x1F PUSH0 MSTORE PUSH1 0x20 PUSH0 KECCAK256 ADD SWAP1 PUSH0 SWAP1 JUMP JUMPDEST ISZERO PUSH2 0x4931 JUMPI JUMP JUMPDEST PUSH1 0x40 MLOAD PUSH3 0x461BCD PUSH1 0xE5 SHL DUP2 MSTORE PUSH1 0x20 PUSH1 0x4 DUP3 ADD MSTORE PUSH1 0x12 PUSH1 0x24 DUP3 ADD MSTORE PUSH18 0x496E76616C696420686F6D65206261646765 PUSH1 0x70 SHL PUSH1 0x44 DUP3 ADD MSTORE PUSH1 0x64 SWAP1 REVERT JUMPDEST PUSH1 0x3 SLOAD PUSH1 0x1 PUSH1 0x1 PUSH1 0xA0 SHL SUB AND CALLER SUB PUSH2 0x497F JUMPI JUMP JUMPDEST PUSH1 0x64 PUSH1 0x40 MLOAD PUSH3 0x461BCD PUSH1 0xE5 SHL DUP2 MSTORE PUSH1 0x20 PUSH1 0x4 DUP3 ADD MSTORE PUSH1 0x20 PUSH1 0x24 DUP3 ADD MSTORE PUSH32 0x4F776E61626C653A2063616C6C6572206973206E6F7420746865206F776E6572 PUSH1 0x44 DUP3 ADD MSTORE REVERT JUMPDEST ISZERO PUSH2 0x49CA JUMPI JUMP JUMPDEST PUSH1 0x40 MLOAD PUSH3 0x461BCD PUSH1 0xE5 SHL DUP2 MSTORE PUSH1 0x20 PUSH1 0x4 DUP3 ADD MSTORE PUSH1 0xB PUSH1 0x24 DUP3 ADD MSTORE PUSH11 0x5A65726F20736861726573 PUSH1 0xA8 SHL PUSH1 0x44 DUP3 ADD MSTORE PUSH1 0x64 SWAP1 REVERT JUMPDEST SWAP3 SWAP2 SWAP1 SWAP3 PUSH1 0xFF PUSH1 0xA SLOAD AND PUSH2 0x4D9E JUMPI PUSH2 0xFFFF DUP5 AND SWAP1 PUSH2 0x4A1C DUP3 ISZERO ISZERO PUSH2 0x470D JUMP JUMPDEST PUSH1 0x8 SLOAD DUP4 LT PUSH2 0x4D69 JUMPI DUP3 SWAP5 PUSH2 0x4A32 DUP5 ISZERO ISZERO PUSH2 0x49C3 JUMP JUMPDEST PUSH2 0x4A3B DUP2 PUSH2 0x47B9 JUMP JUMPDEST SWAP4 PUSH1 0x40 SWAP2 DUP3 MLOAD SWAP4 PUSH2 0x4A4B DUP6 PUSH2 0x3EEC JUMP JUMPDEST PUSH0 DUP6 MSTORE PUSH1 0x1 PUSH1 0x1 PUSH1 0xA0 SHL SUB DUP2 AND SWAP5 PUSH2 0x4A64 DUP7 ISZERO ISZERO PUSH2 0x4F59 JUMP JUMPDEST PUSH2 0x4A6D DUP9 PUSH2 0x54D2 JUMP JUMPDEST POP PUSH2 0x4A77 DUP5 PUSH2 0x54D2 JUMP JUMPDEST POP DUP8 PUSH0 MSTORE PUSH1 0x20 SWAP2 PUSH0 DUP4 MSTORE DUP6 PUSH0 KECCAK256 DUP8 PUSH0 MSTORE DUP4 MSTORE DUP6 PUSH0 KECCAK256 PUSH2 0x4A97 DUP7 DUP3 SLOAD PUSH2 0x47AC JUMP JUMPDEST SWAP1 SSTORE DUP7 PUSH0 DUP8 MLOAD DUP12 DUP2 MSTORE DUP8 DUP7 DUP3 ADD MSTORE PUSH0 DUP1 MLOAD PUSH1 0x20 PUSH2 0x5538 DUP4 CODECOPY DUP2 MLOAD SWAP2 MSTORE DUP10 CALLER SWAP3 LOG4 EXTCODESIZE PUSH2 0x4C5A JUMPI JUMPDEST POP DUP5 PUSH0 MSTORE PUSH1 0x18 DUP2 MSTORE DUP4 PUSH0 KECCAK256 DUP7 PUSH0 MSTORE DUP2 MSTORE DUP4 PUSH0 KECCAK256 PUSH2 0x4ADB DUP5 DUP3 SLOAD PUSH2 0x47AC JUMP JUMPDEST SWAP1 SSTORE PUSH2 0x4AE6 DUP3 PUSH2 0x534E JUMP JUMPDEST SWAP1 DUP5 MLOAD SWAP2 PUSH2 0x4AF3 DUP4 PUSH2 0x3ED1 JUMP JUMPDEST DUP5 DUP4 MSTORE PUSH1 0x3 DUP3 DUP5 ADD SWAP4 DUP7 DUP6 MSTORE DUP8 DUP2 ADD TIMESTAMP DUP2 MSTORE PUSH1 0x60 DUP3 ADD SWAP4 DUP5 MSTORE DUP10 PUSH0 MSTORE DUP5 DUP1 MSTORE DUP9 PUSH0 KECCAK256 DUP12 PUSH0 MSTORE DUP6 MSTORE DUP9 PUSH0 KECCAK256 SWAP2 MLOAD DUP3 SSTORE PUSH1 0x1 SWAP6 MLOAD PUSH1 0x1 DUP4 ADD SSTORE MLOAD PUSH1 0x2 DUP3 ADD SSTORE ADD SWAP1 MLOAD SWAP3 DUP4 MLOAD SWAP1 PUSH1 0x1 DUP1 PUSH1 0x40 SHL SUB DUP3 GT PUSH2 0x987 JUMPI DUP9 SWAP5 PUSH2 0x4B54 DUP4 PUSH2 0x1553 DUP7 SLOAD PUSH2 0x3E99 JUMP JUMPDEST DUP5 SWAP2 PUSH1 0x1F DUP5 GT PUSH1 0x1 EQ PUSH2 0x4BC5 JUMPI POP SWAP8 PUSH2 0x4BB2 SWAP5 DUP2 SWAP9 SWAP8 SWAP5 PUSH2 0x4B9F DUP6 PUSH2 0x4BC0 SWAP10 SWAP7 PUSH0 DUP1 MLOAD PUSH1 0x20 PUSH2 0x5698 DUP4 CODECOPY DUP2 MLOAD SWAP2 MSTORE SWAP7 PUSH0 DUP1 MLOAD PUSH1 0x20 PUSH2 0x5658 DUP4 CODECOPY DUP2 MLOAD SWAP2 MSTORE SWAP15 PUSH0 SWAP3 PUSH2 0xC87 JUMPI POP POP PUSH2 0x479A JUMP JUMPDEST SWAP1 SSTORE JUMPDEST DUP8 DUP3 MLOAD SWAP2 DUP2 DUP4 MSTORE DUP3 ADD MSTORE LOG2 PUSH2 0x534E JUMP JUMPDEST SWAP3 MLOAD SWAP3 DUP4 SWAP3 TIMESTAMP SWAP1 DUP1 DUP6 PUSH2 0x4197 JUMP JUMPDEST SUB SWAP1 LOG4 JUMP JUMPDEST SWAP9 SWAP8 SWAP7 SWAP6 SWAP5 SWAP4 SWAP3 SWAP2 SWAP1 PUSH1 0x1F NOT DUP4 AND DUP5 PUSH0 MSTORE DUP6 PUSH0 KECCAK256 SWAP11 PUSH0 SWAP1 JUMPDEST DUP3 DUP3 LT PUSH2 0x4C40 JUMPI POP POP SWAP4 PUSH1 0x1 DUP5 PUSH0 DUP1 MLOAD PUSH1 0x20 PUSH2 0x5658 DUP4 CODECOPY DUP2 MLOAD SWAP2 MSTORE SWAP13 DUP13 SWAP6 PUSH2 0x4BC0 SWAP12 SWAP10 SWAP6 PUSH0 DUP1 MLOAD PUSH1 0x20 PUSH2 0x5698 DUP4 CODECOPY DUP2 MLOAD SWAP2 MSTORE SWAP9 PUSH2 0x4BB2 SWAP13 SWAP11 LT PUSH2 0x4C28 JUMPI JUMPDEST POP POP POP DUP2 SHL ADD SWAP1 SSTORE PUSH2 0x4BA2 JUMP JUMPDEST ADD MLOAD PUSH0 NOT PUSH1 0xF8 DUP5 PUSH1 0x3 SHL AND SHR NOT AND SWAP1 SSTORE PUSH0 DUP1 DUP1 PUSH2 0x4C1B JUMP JUMPDEST DUP5 DUP5 ADD MLOAD DUP14 SSTORE SWAP12 DUP13 ADD SWAP12 DUP14 SWAP9 POP SWAP4 DUP8 ADD SWAP4 SWAP1 DUP8 ADD SWAP1 PUSH2 0x4BDD JUMP JUMPDEST DUP5 SWAP10 SWAP8 SWAP6 SWAP4 SWAP3 SWAP2 SWAP9 SWAP7 SWAP5 MLOAD DUP10 DUP2 DUP1 PUSH2 0x4CA0 PUSH4 0xF23A6E61 PUSH1 0xE0 SHL SWAP6 DUP7 DUP4 MSTORE CALLER PUSH1 0x4 DUP5 ADD MSTORE PUSH0 PUSH1 0x24 DUP5 ADD MSTORE DUP12 PUSH1 0x44 DUP5 ADD MSTORE DUP9 PUSH1 0x64 DUP5 ADD MSTORE PUSH1 0xA0 PUSH1 0x84 DUP5 ADD MSTORE PUSH1 0xA4 DUP4 ADD SWAP1 PUSH2 0x4023 JUMP JUMPDEST SUB DUP2 PUSH0 DUP10 GAS CALL PUSH0 SWAP2 DUP2 PUSH2 0x4D4A JUMPI JUMPDEST POP PUSH2 0x4D14 JUMPI DUP11 DUP11 PUSH2 0x4CBD PUSH2 0x53CE JUMP JUMPDEST PUSH4 0x8C379A0 EQ PUSH2 0x4CE0 JUMPI JUMPDEST POP MLOAD PUSH3 0x461BCD PUSH1 0xE5 SHL DUP2 MSTORE DUP1 PUSH2 0x7A3 PUSH1 0x4 DUP3 ADD PUSH2 0x5456 JUMP JUMPDEST PUSH2 0x4CE8 PUSH2 0x53E9 JUMP JUMPDEST SWAP1 DUP2 PUSH2 0x4CF4 JUMPI POP PUSH2 0x4CC8 JUMP JUMPDEST PUSH2 0x7A3 DUP4 MLOAD SWAP3 DUP4 SWAP3 PUSH3 0x461BCD PUSH1 0xE5 SHL DUP5 MSTORE PUSH1 0x4 DUP5 ADD MSTORE PUSH1 0x24 DUP4 ADD SWAP1 PUSH2 0x4023 JUMP JUMPDEST PUSH4 0xFFFFFFFF PUSH1 0xE0 SWAP12 SWAP7 SWAP9 SWAP11 SWAP4 SWAP5 SWAP6 SWAP8 SWAP10 SWAP12 SHL AND SUB PUSH2 0x4D32 JUMPI PUSH0 PUSH2 0x4ABD JUMP JUMPDEST DUP4 MLOAD PUSH3 0x461BCD PUSH1 0xE5 SHL DUP2 MSTORE DUP1 PUSH2 0x7A3 PUSH1 0x4 DUP3 ADD PUSH2 0x5385 JUMP JUMPDEST PUSH2 0x4D62 SWAP2 SWAP3 POP DUP12 RETURNDATASIZE DUP14 GT PUSH2 0x830 JUMPI PUSH2 0x821 DUP2 DUP4 PUSH2 0x3F3D JUMP JUMPDEST SWAP1 PUSH0 PUSH2 0x4CAE JUMP JUMPDEST PUSH1 0x40 MLOAD PUSH3 0x461BCD PUSH1 0xE5 SHL DUP2 MSTORE PUSH1 0x20 PUSH1 0x4 DUP3 ADD MSTORE PUSH1 0xD PUSH1 0x24 DUP3 ADD MSTORE PUSH13 0x42656C6F77206D696E696D756D PUSH1 0x98 SHL PUSH1 0x44 DUP3 ADD MSTORE PUSH1 0x64 SWAP1 REVERT JUMPDEST PUSH1 0x40 MLOAD PUSH3 0x461BCD PUSH1 0xE5 SHL DUP2 MSTORE PUSH1 0x20 PUSH1 0x4 DUP3 ADD MSTORE PUSH1 0x14 PUSH1 0x24 DUP3 ADD MSTORE PUSH20 0x14DD589CD8DC9A5C1D1A5BDB9CC81C185D5CD959 PUSH1 0x62 SHL PUSH1 0x44 DUP3 ADD MSTORE PUSH1 0x64 SWAP1 REVERT JUMPDEST PUSH1 0xFF AND PUSH1 0x1 DUP2 LT ISZERO SWAP1 DUP2 PUSH2 0x4DEC JUMPI POP SWAP1 JUMP JUMPDEST PUSH1 0x3 SWAP2 POP GT ISZERO SWAP1 JUMP JUMPDEST PUSH1 0xFF AND PUSH1 0xC8 ADD DUP1 PUSH1 0xC8 GT PUSH2 0xD91 JUMPI SWAP1 JUMP JUMPDEST ISZERO PUSH2 0x4E0D JUMPI JUMP JUMPDEST PUSH1 0x40 MLOAD PUSH3 0x461BCD PUSH1 0xE5 SHL DUP2 MSTORE PUSH1 0x20 PUSH1 0x4 DUP3 ADD MSTORE PUSH1 0x28 PUSH1 0x24 DUP3 ADD MSTORE PUSH32 0x455243313135353A2069647320616E6420616D6F756E7473206C656E67746820 PUSH1 0x44 DUP3 ADD MSTORE PUSH8 0xDAD2E6DAC2E8C6D PUSH1 0xC3 SHL PUSH1 0x64 DUP3 ADD MSTORE PUSH1 0x84 SWAP1 REVERT JUMPDEST ISZERO PUSH2 0x4E6A JUMPI JUMP JUMPDEST PUSH1 0x40 MLOAD PUSH3 0x461BCD PUSH1 0xE5 SHL DUP2 MSTORE PUSH1 0x20 PUSH1 0x4 DUP3 ADD MSTORE PUSH1 0x25 PUSH1 0x24 DUP3 ADD MSTORE PUSH32 0x455243313135353A207472616E7366657220746F20746865207A65726F206164 PUSH1 0x44 DUP3 ADD MSTORE PUSH5 0x6472657373 PUSH1 0xD8 SHL PUSH1 0x64 DUP3 ADD MSTORE PUSH1 0x84 SWAP1 REVERT JUMPDEST ISZERO PUSH2 0x4EC4 JUMPI JUMP JUMPDEST PUSH1 0x40 MLOAD PUSH3 0x461BCD PUSH1 0xE5 SHL DUP2 MSTORE PUSH1 0x20 PUSH1 0x4 DUP3 ADD MSTORE PUSH1 0x2A PUSH1 0x24 DUP3 ADD MSTORE PUSH32 0x455243313135353A20696E73756666696369656E742062616C616E636520666F PUSH1 0x44 DUP3 ADD MSTORE PUSH10 0x39103A3930B739B332B9 PUSH1 0xB1 SHL PUSH1 0x64 DUP3 ADD MSTORE PUSH1 0x84 SWAP1 REVERT JUMPDEST SWAP1 SWAP2 PUSH2 0x4F33 PUSH2 0x40F5 SWAP4 PUSH1 0x40 DUP5 MSTORE PUSH1 0x40 DUP5 ADD SWAP1 PUSH2 0x4164 JUMP JUMPDEST SWAP2 PUSH1 0x20 DUP2 DUP5 SUB SWAP2 ADD MSTORE PUSH2 0x4164 JUMP JUMPDEST PUSH1 0x6 DUP2 LT ISZERO SWAP1 DUP2 PUSH2 0x4F50 JUMPI POP SWAP1 JUMP JUMPDEST PUSH1 0xA SWAP2 POP GT ISZERO SWAP1 JUMP JUMPDEST ISZERO PUSH2 0x4F60 JUMPI JUMP JUMPDEST PUSH1 0x40 MLOAD PUSH3 0x461BCD PUSH1 0xE5 SHL DUP2 MSTORE PUSH1 0x20 PUSH1 0x4 DUP3 ADD MSTORE PUSH1 0x21 PUSH1 0x24 DUP3 ADD MSTORE PUSH32 0x455243313135353A206D696E7420746F20746865207A65726F20616464726573 PUSH1 0x44 DUP3 ADD MSTORE PUSH1 0x73 PUSH1 0xF8 SHL PUSH1 0x64 DUP3 ADD MSTORE PUSH1 0x84 SWAP1 REVERT JUMPDEST SWAP2 SWAP1 PUSH1 0x1 PUSH1 0x1 PUSH1 0xA0 SHL SUB DUP4 AND PUSH2 0x4FC6 DUP2 ISZERO ISZERO PUSH2 0x4F59 JUMP JUMPDEST PUSH2 0x4FCF DUP3 PUSH2 0x54D2 JUMP JUMPDEST POP PUSH2 0x4FD8 PUSH2 0x54AB JUMP JUMPDEST POP DUP2 PUSH0 MSTORE PUSH1 0x20 SWAP3 PUSH0 DUP5 MSTORE PUSH1 0x40 SWAP5 DUP6 PUSH0 KECCAK256 DUP4 PUSH0 MSTORE DUP6 MSTORE DUP6 PUSH0 KECCAK256 DUP1 SLOAD SWAP1 PUSH1 0x1 DUP3 ADD DUP1 SWAP3 GT PUSH2 0xD91 JUMPI SSTORE DUP3 PUSH0 DUP8 MLOAD DUP7 DUP2 MSTORE PUSH1 0x1 DUP9 DUP3 ADD MSTORE PUSH0 DUP1 MLOAD PUSH1 0x20 PUSH2 0x5538 DUP4 CODECOPY DUP2 MLOAD SWAP2 MSTORE DUP10 CALLER SWAP3 LOG4 EXTCODESIZE PUSH2 0x502B JUMPI JUMPDEST POP POP POP POP POP JUMP JUMPDEST SWAP3 PUSH2 0x5072 PUSH0 SWAP3 DUP7 SWAP8 SWAP6 DUP4 SWAP8 MLOAD SWAP5 DUP6 DUP1 SWAP5 DUP2 SWAP4 PUSH4 0xF23A6E61 PUSH1 0xE0 SHL SWAP10 DUP11 DUP5 MSTORE CALLER PUSH1 0x4 DUP6 ADD MSTORE DUP5 PUSH1 0x24 DUP6 ADD MSTORE PUSH1 0x44 DUP5 ADD MSTORE PUSH1 0x1 PUSH1 0x64 DUP5 ADD MSTORE PUSH1 0xA0 PUSH1 0x84 DUP5 ADD MSTORE PUSH1 0xA4 DUP4 ADD SWAP1 PUSH2 0x4023 JUMP JUMPDEST SUB SWAP3 GAS CALL PUSH0 SWAP2 DUP2 PUSH2 0x50C5 JUMPI JUMPDEST POP PUSH2 0x508E JUMPI POP POP POP PUSH2 0x4CBD PUSH2 0x53CE JUMP JUMPDEST SWAP2 SWAP4 SWAP3 POP PUSH1 0x1 PUSH1 0x1 PUSH1 0xE0 SHL SUB NOT SWAP1 SWAP2 AND SUB PUSH2 0x50AE JUMPI POP PUSH0 DUP1 DUP1 DUP1 DUP1 PUSH2 0x5024 JUMP JUMPDEST MLOAD PUSH3 0x461BCD PUSH1 0xE5 SHL DUP2 MSTORE DUP1 PUSH2 0x7A3 PUSH1 0x4 DUP3 ADD PUSH2 0x5385 JUMP JUMPDEST PUSH2 0x50DD SWAP2 SWAP3 POP DUP6 RETURNDATASIZE DUP8 GT PUSH2 0x830 JUMPI PUSH2 0x821 DUP2 DUP4 PUSH2 0x3F3D JUMP JUMPDEST SWAP1 PUSH0 PUSH2 0x507E JUMP JUMPDEST PUSH1 0xFF AND PUSH1 0x1 DUP2 LT ISZERO SWAP1 DUP2 PUSH2 0x50F6 JUMPI POP SWAP1 JUMP JUMPDEST PUSH1 0x5 SWAP2 POP GT ISZERO SWAP1 JUMP JUMPDEST SWAP1 SWAP3 SWAP2 PUSH2 0xFFFF DUP5 AND SWAP1 PUSH2 0x5113 DUP3 ISZERO ISZERO PUSH2 0x470D JUMP JUMPDEST PUSH2 0x511E DUP2 ISZERO ISZERO PUSH2 0x49C3 JUMP JUMPDEST PUSH2 0x5128 DUP2 SWAP6 PUSH2 0x47B9 JUMP JUMPDEST SWAP3 PUSH1 0x1 PUSH1 0x1 PUSH1 0xA0 SHL SUB AND SWAP1 DUP2 ISZERO PUSH2 0x5279 JUMPI PUSH2 0x5142 DUP5 PUSH2 0x54D2 JUMP JUMPDEST POP PUSH2 0x514C DUP2 PUSH2 0x54D2 JUMP JUMPDEST POP PUSH1 0x40 PUSH0 DUP2 MLOAD PUSH2 0x515B DUP2 PUSH2 0x3EEC JUMP JUMPDEST MSTORE DUP5 PUSH0 MSTORE PUSH1 0x20 PUSH0 DUP2 MSTORE DUP2 PUSH0 KECCAK256 DUP5 PUSH0 MSTORE DUP2 MSTORE DUP2 PUSH0 KECCAK256 SLOAD DUP4 DUP2 LT PUSH2 0x523D JUMPI DUP4 SWAP1 DUP8 PUSH0 MSTORE PUSH0 DUP4 MSTORE DUP4 PUSH0 KECCAK256 DUP7 PUSH0 MSTORE DUP4 MSTORE SUB DUP3 PUSH0 KECCAK256 SSTORE PUSH0 DUP5 DUP4 MLOAD DUP9 DUP2 MSTORE DUP6 DUP5 DUP3 ADD MSTORE PUSH0 DUP1 MLOAD PUSH1 0x20 PUSH2 0x5538 DUP4 CODECOPY DUP2 MLOAD SWAP2 MSTORE DUP6 CALLER SWAP3 LOG4 PUSH0 DUP3 MLOAD PUSH2 0x51B6 DUP2 PUSH2 0x3EEC JUMP JUMPDEST MSTORE PUSH0 DUP5 DUP2 MSTORE PUSH1 0x18 DUP3 MSTORE DUP3 DUP2 KECCAK256 DUP7 DUP3 MSTORE DUP3 MSTORE DUP3 SWAP1 KECCAK256 SLOAD SWAP3 DUP4 DUP2 LT PUSH2 0x521F JUMPI PUSH0 DUP1 MLOAD PUSH1 0x20 PUSH2 0x5678 DUP4 CODECOPY DUP2 MLOAD SWAP2 MSTORE SWAP4 POP PUSH0 JUMPDEST DUP6 PUSH0 MSTORE PUSH1 0x18 DUP4 MSTORE DUP4 PUSH0 KECCAK256 DUP8 PUSH0 MSTORE DUP4 MSTORE DUP4 PUSH0 KECCAK256 SSTORE DUP5 PUSH0 DUP1 MLOAD PUSH1 0x20 PUSH2 0x5718 DUP4 CODECOPY DUP2 MLOAD SWAP2 MSTORE DUP5 DUP1 MLOAD DUP5 DUP2 MSTORE DUP5 DUP7 DUP3 ADD MSTORE LOG2 DUP3 MLOAD SWAP2 DUP2 DUP4 MSTORE DUP3 ADD MSTORE LOG4 JUMP JUMPDEST DUP1 DUP5 SUB SWAP4 DUP5 GT PUSH2 0xD91 JUMPI PUSH0 DUP1 MLOAD PUSH1 0x20 PUSH2 0x5678 DUP4 CODECOPY DUP2 MLOAD SWAP2 MSTORE SWAP4 PUSH2 0x51E5 JUMP JUMPDEST POP PUSH1 0x84 SWAP2 MLOAD SWAP1 PUSH3 0x461BCD PUSH1 0xE5 SHL DUP3 MSTORE PUSH1 0x4 DUP3 ADD MSTORE PUSH1 0x24 DUP1 DUP3 ADD MSTORE PUSH0 DUP1 MLOAD PUSH1 0x20 PUSH2 0x5618 DUP4 CODECOPY DUP2 MLOAD SWAP2 MSTORE PUSH1 0x44 DUP3 ADD MSTORE PUSH4 0x616E6365 PUSH1 0xE0 SHL PUSH1 0x64 DUP3 ADD MSTORE REVERT JUMPDEST PUSH1 0x40 MLOAD PUSH3 0x461BCD PUSH1 0xE5 SHL DUP2 MSTORE PUSH1 0x20 PUSH1 0x4 DUP3 ADD MSTORE PUSH1 0x23 PUSH1 0x24 DUP3 ADD MSTORE PUSH0 DUP1 MLOAD PUSH1 0x20 PUSH2 0x5578 DUP4 CODECOPY DUP2 MLOAD SWAP2 MSTORE PUSH1 0x44 DUP3 ADD MSTORE PUSH3 0x657373 PUSH1 0xE8 SHL PUSH1 0x64 DUP3 ADD MSTORE PUSH1 0x84 SWAP1 REVERT JUMPDEST PUSH1 0x1 PUSH0 MSTORE PUSH1 0x1A PUSH1 0x20 MSTORE PUSH2 0x52E9 PUSH32 0xF88CD8D612926EBB404E40725C01084B6E9B3CE0344CDE068570342CBD448C61 PUSH2 0x3F60 JUMP JUMPDEST DUP1 MLOAD PUSH2 0x40F5 JUMPI POP PUSH1 0x40 MLOAD PUSH2 0x52FC DUP2 PUSH2 0x3F07 JUMP JUMPDEST PUSH1 0x3C DUP2 MSTORE PUSH32 0x536574746C656D656E74207465726D73207265636F7264656420696E20746865 PUSH1 0x20 DUP3 ADD MSTORE PUSH28 0x205269736B4C656E73205765616C74682064657461696C2070616765 PUSH1 0x20 SHL PUSH1 0x40 DUP3 ADD MSTORE SWAP1 JUMP JUMPDEST PUSH2 0xFFFF AND PUSH0 MSTORE PUSH1 0x1A PUSH1 0x20 MSTORE PUSH2 0x52E9 PUSH1 0x40 PUSH0 KECCAK256 PUSH2 0x3F60 JUMP JUMPDEST SWAP1 DUP2 PUSH1 0x20 SWAP2 SUB SLT PUSH2 0x492 JUMPI MLOAD PUSH1 0x1 PUSH1 0x1 PUSH1 0xE0 SHL SUB NOT DUP2 AND DUP2 SUB PUSH2 0x492 JUMPI SWAP1 JUMP JUMPDEST PUSH1 0x80 SWAP1 PUSH1 0x20 DUP2 MSTORE PUSH1 0x28 PUSH1 0x20 DUP3 ADD MSTORE PUSH32 0x455243313135353A204552433131353552656365697665722072656A65637465 PUSH1 0x40 DUP3 ADD MSTORE PUSH8 0x6420746F6B656E73 PUSH1 0xC0 SHL PUSH1 0x60 DUP3 ADD MSTORE ADD SWAP1 JUMP JUMPDEST PUSH0 SWAP1 PUSH1 0x3 RETURNDATASIZE GT PUSH2 0x53DA JUMPI JUMP JUMPDEST SWAP1 POP PUSH1 0x4 PUSH0 DUP1 RETURNDATACOPY PUSH0 MLOAD PUSH1 0xE0 SHR SWAP1 JUMP JUMPDEST PUSH0 PUSH1 0x44 RETURNDATASIZE LT PUSH2 0x40F5 JUMPI PUSH1 0x40 MLOAD PUSH1 0x3 NOT SWAP2 RETURNDATASIZE DUP4 ADD PUSH1 0x4 DUP4 RETURNDATACOPY DUP2 MLOAD PUSH1 0x1 PUSH1 0x1 PUSH1 0x40 SHL SUB SWAP2 DUP3 DUP3 GT RETURNDATASIZE PUSH1 0x24 DUP5 ADD GT OR PUSH2 0x5445 JUMPI DUP2 DUP5 ADD SWAP5 DUP6 MLOAD SWAP4 DUP5 GT PUSH2 0x544D JUMPI RETURNDATASIZE DUP6 ADD ADD PUSH1 0x20 DUP5 DUP8 ADD ADD GT PUSH2 0x5445 JUMPI POP PUSH2 0x40F5 SWAP3 SWAP2 ADD PUSH1 0x20 ADD SWAP1 PUSH2 0x3F3D JUMP JUMPDEST SWAP5 SWAP4 POP POP POP POP JUMP JUMPDEST POP SWAP5 SWAP4 POP POP POP POP JUMP JUMPDEST PUSH1 0x80 SWAP1 PUSH1 0x20 DUP2 MSTORE PUSH1 0x34 PUSH1 0x20 DUP3 ADD MSTORE PUSH32 0x455243313135353A207472616E7366657220746F206E6F6E2D45524331313535 PUSH1 0x40 DUP3 ADD MSTORE PUSH20 0x2932B1B2B4BB32B91034B6B83632B6B2B73A32B9 PUSH1 0x61 SHL PUSH1 0x60 DUP3 ADD MSTORE ADD SWAP1 JUMP JUMPDEST PUSH1 0x40 MLOAD PUSH2 0x54B7 DUP2 PUSH2 0x3F22 JUMP JUMPDEST PUSH1 0x1 DUP2 MSTORE PUSH1 0x20 DUP2 ADD PUSH1 0x20 CALLDATASIZE DUP3 CALLDATACOPY DUP2 MLOAD ISZERO PUSH2 0x105E JUMPI PUSH1 0x1 SWAP1 MSTORE SWAP1 JUMP JUMPDEST PUSH1 0x40 MLOAD SWAP1 PUSH2 0x54DF DUP3 PUSH2 0x3F22 JUMP JUMPDEST PUSH1 0x1 DUP3 MSTORE PUSH1 0x20 DUP3 ADD PUSH1 0x20 CALLDATASIZE DUP3 CALLDATACOPY DUP3 MLOAD ISZERO PUSH2 0x105E JUMPI MSTORE SWAP1 JUMP INVALID BLOBBASEFEE CODECOPY 0xDC MOD 0xD4 0xC0 0xDB 0xC6 0x4B PUSH17 0xAF90FD698A233A518AA5D07E595D983B8C SDIV 0x26 0xC8 0xF7 0xFB DUP7 PUSH11 0xAB14C7F7439FA866F885F2 0x2E DUP11 SWAP16 0xCE NOT CREATE MOD 0xD3 SWAP6 PUSH2 0x37B0 PUSH32 0x4284346BAC9CC3D58168C5AE7397731D063D5BBF3D657854427343F4C083240F PUSH27 0xACAA2D0F62309EB5725BC0FCC8192E7491A4ADAAF2EBBFB008E6F1 MOD 0x2F 0x26 BLOBHASH MSTORE8 0xC0 SWAP8 PUSH15 0x27B7455243313135353A206275726E KECCAK256 PUSH7 0x726F6D20746865 KECCAK256 PUSH27 0x65726F2061646472EE734F4DC9367A19993B3DD18A799F252C2874 0xEF SWAP14 PUSH20 0x88163AA9C16CB0011100B16CF5B05C6E7E92F229 SWAP11 SAR ADDMOD SWAP5 0xBB CALLCODE KECCAK256 0xA6 GASPRICE PUSH28 0x1CCC786436C3D89D18DF7BBE04844D30B922FFC2B845400EB2A15CDD PUSH3 0x742176 0xC7 0x23 0xE0 SWAP14 PUSH29 0xC9703E83645E4BBD1AE2C6D13C1A8DC9DBE03823192CB9AB92B45E5B92 PUSH5 0xDD65B2794C MSTORE PUSH15 0x6F9F455243313135353A206275726E KECCAK256 PUSH2 0x6D6F PUSH22 0x6E7420657863656564732062616C8BE0079C53165914 SGT PREVRANDAO 0xCD 0x1F 0xD0 LOG4 CALLCODE DUP5 NOT BLOBHASH PUSH32 0x9722A3DAAFE3B4186F6B6457E09EC85E292A34C98A43E8FFE45DE1C625BDFE7E DUP15 0xFC 0x23 DELEGATECALL 0xA9 0xDA SLT DUP10 GAS PUSH17 0xB358157C7917C3334372C8A1AB0009B431 0x4B PUSH0 0xA7 0x22 0xB2 0xAE DUP12 0xB2 PUSH1 0x3B PUSH18 0x95279AEB45A37AF94991DCBEA6E8AC439CBC SWAP4 0xBD SWAP13 PUSH3 0xA4D39F DIV 0xE0 0xAD PUSH6 0x6DF9A703F135 MSTORE 0xC2 PUSH25 0x7F09FB0A9F79F07CF16C95B92623175F408D609663D7868AE6 0x25 DUP2 NUMBER SWAP14 SWAP3 CALLVALUE PUSH17 0xBDCFDB31FA548AA2C58DCF9C124E888CFD PUSH11 0xFEFE9FE228A5CC829205AB PUSH10 0xB69E0C4C7380F1D23A71 0xF7 0x4F LOG1 ADDRESS EXTCODEHASH 0x23 0xB7 LT ADDMOD 0x26 0xE4 0xA8 SWAP11 0x4E SELFBALANCE 0xB2 SWAP9 MCOPY TLOAD PUSH17 0x8E47A19B3AF3A670CD3AF7D64B48892688 ADDMOD DUP10 0xD0 DUP11 DUP6 DUP6 LOG1 CODESIZE SELFDESTRUCT GASLIMIT MSTORE 0x27 0xAF PUSH8 0x37339A1EC262683C SSTORE 0xAE 0xD4 0xEA 0xD4 PUSH21 0x6321E8659FB2C565DD8E202A7A594F73A71E3F5760 PUSH31 0x1BD0A264697066735822122000A780A73A541A93CE69E1EF6FC4F32AAE1ABC MCOPY PUSH8 0x2CACABE1991951FD 0xBB PUSH28 0x4A64736F6C6343000818003300000000000000000000000000000000 "},"methodIdentifiers":{"ASSET_DECIMALS()":"f4db8984","BPS()":"249d39e9","DEFAULT_WEALTH_PRODUCT_ID()":"7cea070a","HOME_PAPER()":"1de3083d","HOME_QUIZ()":"8f631d54","HOME_RISK()":"eeaa8177","HOME_WALLET()":"cad47192","HOME_WELCOME()":"dcb2125b","MAX_SCORE_SUBMISSIONS_PER_DAY()":"c4ebe024","PAPER_BASE_CHECK()":"b363935c","PAPER_LEADERBOARD()":"6ea17abd","PAPER_PERP_LEVERAGE()":"325116ee","PAPER_PROTECTIVE_HEDGE()":"f766dee4","PAPER_SPOT_LOOP()":"57997aa2","WEALTH_DUAL_PROFIT()":"c056e1e3","WEALTH_PLEDGE()":"f64bfa59","WEALTH_PROFITABLE_TRADE()":"ceb0f6d8","approvedUnderlyingHash(bytes32)":"4973fd9a","assetSymbol()":"176de7a8","balanceOf(address,uint256)":"00fdd58e","balanceOfBatch(address[],uint256[])":"4e1273f4","canAccessAdvancedShelf(address)":"99b49e25","claim(uint256)":"379607f5","claimBatch(uint256[])":"62abebce","eligibleInvestor(address)":"4d7c10a7","hasMinted(address)":"38e21cce","hasMintedBadge(address,uint8)":"01b4597d","hasMintedTask(address,uint8)":"6b3ce2f1","hasSubmittedScore(address)":"f9569673","hasWealthTask(address,uint8)":"aec45d80","isApprovedForAll(address,address)":"e985e9c5","lastAttestedAt()":"4adb4cc8","latestAttestationRoot()":"2e6f6b1f","markWealthPledgeWithEvidence(uint16,uint256,string,bytes32)":"bce48991","markWealthTask(uint8)":"1a2e9996","markWealthTaskWithEvidence(uint8,int256,bytes32)":"513f8401","metadataRenderer()":"70319970","minSubscription()":"41be5f64","mintBadge(uint8,address)":"7206abbd","mintPaperLeaderboardCredential(string,string,int256,uint256,uint256)":"e5a89945","mintWelcomeBadge(address)":"52163337","navBps()":"218900b4","nextHomeTokenId()":"8385f14a","nextPaperLeaderboardCredentialTokenId()":"d5c21baa","nextWealthPledgeCredentialTokenId()":"27e80368","owner()":"8da5cb5b","paperLeaderboardCredentialMintsByDay(address,uint256)":"2a0ee085","paperLeaderboardCredentialOf(uint256)":"c5e20f80","previewAssets(uint256)":"d28c390a","previewShares(uint256)":"02cea26b","productReceiptDetail(uint16)":"0765b4b4","productReceiptLabel(uint16)":"b7d120d0","productReceiptMaturity(uint16)":"889d1002","productReceiptType(uint16)":"5acc9009","receiptTokenId(uint16)":"2baa7521","recordUnderlyingReview(bytes32,bool,string)":"179649ad","redeem(uint256)":"db006a75","redeemProduct(uint16,uint256)":"d92fa2c6","renounceOwnership()":"715018a6","replayScoreOf(address)":"c8a3c3b5","riskTier(address)":"b84d93d4","safeBatchTransferFrom(address,address,uint256[],uint256[],bytes)":"2eb2c2d6","safeTransferFrom(address,address,uint256,uint256,bytes)":"f242432a","scoreAccountAt(uint256)":"d4b0521b","scoreAccountCount()":"2f85874a","setApprovalForAll(address,bool)":"a22cb465","setBaseUri(string)":"a0bcfc7f","setInvestorEligibility(address,bool,uint8)":"b5884e20","setMetadataRenderer(address)":"fd4fe8a8","setMinSubscription(uint256)":"f68e55c3","setNavBps(uint256)":"9a2aaca1","setProductReceiptDetail(uint16,string)":"663c39d2","setProductReceiptLabel(uint16,string)":"eda7c56e","setProductReceiptMetadata(uint16,string,string)":"1b6c218e","setStrategyStatus(string)":"55cc0261","setSubscriptionsPaused(bool)":"009b27af","settleProduct(uint16,uint16,uint256,uint256)":"8909e506","strategyStatus()":"176f1cdd","submitScore(int256,uint256,uint256)":"6961fd46","subscribe(uint256)":"0f574ba7","subscribeProduct(uint16,uint256)":"619a1d29","subscribeProductWithMetadata(uint16,uint256,string)":"c1d150e4","subscriptionsPaused()":"cf22928d","supportsInterface(bytes4)":"01ffc9a7","tokenBadgeType(uint256)":"8530a3bf","transferOwnership(address)":"f2fde38b","updateAttestation(bytes32)":"8d00bbe5","uri(uint256)":"0e89341c","vaultLabel()":"2fb4e0f9","wealthPledgeCredentialOf(uint256)":"32ddc524","wealthReceiptProofOf(address,uint16)":"5ad32a3c","wealthReceiptShares(address,uint16)":"74b3322c","wealthTaskCompleted(address,uint8)":"cb33bcdb","wealthTaskEvidenceHash(address,uint8)":"27dac9e2","wealthTaskRealizedPnl(address,uint8)":"93b9e5ae"}}}}}