{"project/contracts/MSXUnifiedDemoHub.sol":{"MSXUnifiedDemoHub":{"abi":[{"inputs":[{"internalType":"string","name":"baseUri","type":"string"}],"stateMutability":"nonpayable","type":"constructor"},{"anonymous":false,"inputs":[{"indexed":true,"internalType":"address","name":"account","type":"address"},{"indexed":true,"internalType":"uint256","name":"achievementId","type":"uint256"}],"name":"AchievementClaimed","type":"event"},{"anonymous":false,"inputs":[{"indexed":true,"internalType":"address","name":"account","type":"address"},{"indexed":true,"internalType":"address","name":"operator","type":"address"},{"indexed":false,"internalType":"bool","name":"approved","type":"bool"}],"name":"ApprovalForAll","type":"event"},{"anonymous":false,"inputs":[{"indexed":false,"internalType":"bytes32","name":"attestationRoot","type":"bytes32"},{"indexed":false,"internalType":"uint256","name":"timestamp","type":"uint256"}],"name":"AttestationUpdated","type":"event"},{"anonymous":false,"inputs":[{"indexed":true,"internalType":"address","name":"investor","type":"address"},{"indexed":false,"internalType":"bool","name":"allowed","type":"bool"},{"indexed":true,"internalType":"uint8","name":"tier","type":"uint8"}],"name":"InvestorEligibilityUpdated","type":"event"},{"anonymous":false,"inputs":[{"indexed":true,"internalType":"address","name":"renderer","type":"address"}],"name":"MetadataRendererUpdated","type":"event"},{"anonymous":false,"inputs":[{"indexed":false,"internalType":"uint256","name":"navBps","type":"uint256"},{"indexed":false,"internalType":"uint256","name":"timestamp","type":"uint256"}],"name":"NavUpdated","type":"event"},{"anonymous":false,"inputs":[{"indexed":true,"internalType":"address","name":"previousOwner","type":"address"},{"indexed":true,"internalType":"address","name":"newOwner","type":"address"}],"name":"OwnershipTransferred","type":"event"},{"anonymous":false,"inputs":[{"indexed":true,"internalType":"address","name":"account","type":"address"},{"indexed":true,"internalType":"uint256","name":"tokenId","type":"uint256"},{"indexed":false,"internalType":"string","name":"category","type":"string"},{"indexed":false,"internalType":"string","name":"submittedOn","type":"string"},{"indexed":false,"internalType":"int256","name":"returnBps","type":"int256"},{"indexed":false,"internalType":"uint256","name":"winRateBps","type":"uint256"},{"indexed":false,"internalType":"uint256","name":"maxDrawdownBps","type":"uint256"}],"name":"PaperLeaderboardCredentialMinted","type":"event"},{"anonymous":false,"inputs":[{"indexed":true,"internalType":"uint16","name":"productId","type":"uint16"},{"indexed":false,"internalType":"string","name":"detail","type":"string"}],"name":"ProductReceiptDetailUpdated","type":"event"},{"anonymous":false,"inputs":[{"indexed":true,"internalType":"uint16","name":"productId","type":"uint16"},{"indexed":false,"internalType":"string","name":"label","type":"string"}],"name":"ProductReceiptLabelUpdated","type":"event"},{"anonymous":false,"inputs":[{"indexed":true,"internalType":"uint16","name":"productId","type":"uint16"},{"indexed":false,"internalType":"string","name":"productType","type":"string"},{"indexed":false,"internalType":"string","name":"maturity","type":"string"}],"name":"ProductReceiptMetadataUpdated","type":"event"},{"anonymous":false,"inputs":[{"indexed":true,"internalType":"address","name":"investor","type":"address"},{"indexed":true,"internalType":"uint16","name":"productId","type":"uint16"},{"indexed":true,"internalType":"uint256","name":"tokenId","type":"uint256"},{"indexed":false,"internalType":"uint256","name":"shareAmount","type":"uint256"},{"indexed":false,"internalType":"uint256","name":"assetAmount","type":"uint256"}],"name":"ProductReceiptRedeemed","type":"event"},{"anonymous":false,"inputs":[{"indexed":true,"internalType":"address","name":"investor","type":"address"},{"indexed":true,"internalType":"uint16","name":"fromProductId","type":"uint16"},{"indexed":true,"internalType":"uint16","name":"toProductId","type":"uint16"},{"indexed":false,"internalType":"uint256","name":"burnAmount","type":"uint256"},{"indexed":false,"internalType":"uint256","name":"mintAmount","type":"uint256"}],"name":"ProductReceiptSettled","type":"event"},{"anonymous":false,"inputs":[{"indexed":true,"internalType":"address","name":"investor","type":"address"},{"indexed":true,"internalType":"uint16","name":"productId","type":"uint16"},{"indexed":true,"internalType":"uint256","name":"tokenId","type":"uint256"},{"indexed":false,"internalType":"uint256","name":"assetAmount","type":"uint256"},{"indexed":false,"internalType":"uint256","name":"shareAmount","type":"uint256"},{"indexed":false,"internalType":"uint256","name":"purchasedAt","type":"uint256"},{"indexed":false,"internalType":"string","name":"productDetail","type":"string"}],"name":"ProductReceiptSubscribed","type":"event"},{"anonymous":false,"inputs":[{"indexed":true,"internalType":"address","name":"investor","type":"address"},{"indexed":false,"internalType":"uint256","name":"shareAmount","type":"uint256"},{"indexed":false,"internalType":"uint256","name":"assetAmount","type":"uint256"}],"name":"Redeemed","type":"event"},{"anonymous":false,"inputs":[{"indexed":true,"internalType":"address","name":"account","type":"address"},{"indexed":false,"internalType":"int256","name":"netPnl","type":"int256"},{"indexed":false,"internalType":"uint256","name":"accountValue","type":"uint256"},{"indexed":false,"internalType":"uint256","name":"tradeCount","type":"uint256"},{"indexed":false,"internalType":"uint256","name":"submittedAt","type":"uint256"}],"name":"ReplayScoreSubmitted","type":"event"},{"anonymous":false,"inputs":[{"indexed":false,"internalType":"string","name":"status","type":"string"},{"indexed":false,"internalType":"uint256","name":"timestamp","type":"uint256"}],"name":"StrategyStatusUpdated","type":"event"},{"anonymous":false,"inputs":[{"indexed":true,"internalType":"address","name":"investor","type":"address"},{"indexed":false,"internalType":"uint256","name":"assetAmount","type":"uint256"},{"indexed":false,"internalType":"uint256","name":"shareAmount","type":"uint256"}],"name":"Subscribed","type":"event"},{"anonymous":false,"inputs":[{"indexed":true,"internalType":"address","name":"recipient","type":"address"},{"indexed":true,"internalType":"uint8","name":"badgeType","type":"uint8"},{"indexed":true,"internalType":"uint256","name":"tokenId","type":"uint256"}],"name":"TaskBadgeMinted","type":"event"},{"anonymous":false,"inputs":[{"indexed":true,"internalType":"address","name":"operator","type":"address"},{"indexed":true,"internalType":"address","name":"from","type":"address"},{"indexed":true,"internalType":"address","name":"to","type":"address"},{"indexed":false,"internalType":"uint256[]","name":"ids","type":"uint256[]"},{"indexed":false,"internalType":"uint256[]","name":"values","type":"uint256[]"}],"name":"TransferBatch","type":"event"},{"anonymous":false,"inputs":[{"indexed":true,"internalType":"address","name":"operator","type":"address"},{"indexed":true,"internalType":"address","name":"from","type":"address"},{"indexed":true,"internalType":"address","name":"to","type":"address"},{"indexed":false,"internalType":"uint256","name":"id","type":"uint256"},{"indexed":false,"internalType":"uint256","name":"value","type":"uint256"}],"name":"TransferSingle","type":"event"},{"anonymous":false,"inputs":[{"indexed":false,"internalType":"string","name":"value","type":"string"},{"indexed":true,"internalType":"uint256","name":"id","type":"uint256"}],"name":"URI","type":"event"},{"anonymous":false,"inputs":[{"indexed":true,"internalType":"bytes32","name":"assetHash","type":"bytes32"},{"indexed":false,"internalType":"bool","name":"passed","type":"bool"},{"indexed":false,"internalType":"string","name":"note","type":"string"}],"name":"UnderlyingReviewRecorded","type":"event"},{"anonymous":false,"inputs":[{"indexed":true,"internalType":"address","name":"account","type":"address"},{"indexed":true,"internalType":"uint16","name":"productId","type":"uint16"},{"indexed":true,"internalType":"uint256","name":"tokenId","type":"uint256"},{"indexed":false,"internalType":"uint256","name":"supportAmount","type":"uint256"},{"indexed":false,"internalType":"string","name":"pledgedOn","type":"string"}],"name":"WealthPledgeCredentialMinted","type":"event"},{"anonymous":false,"inputs":[{"indexed":true,"internalType":"address","name":"account","type":"address"},{"indexed":true,"internalType":"uint16","name":"productId","type":"uint16"},{"indexed":true,"internalType":"uint256","name":"tokenId","type":"uint256"},{"indexed":false,"internalType":"uint256","name":"assetAmount","type":"uint256"},{"indexed":false,"internalType":"string","name":"purchasedOn","type":"string"}],"name":"WealthReceiptCredentialMinted","type":"event"},{"anonymous":false,"inputs":[{"indexed":true,"internalType":"address","name":"account","type":"address"},{"indexed":true,"internalType":"uint8","name":"taskId","type":"uint8"}],"name":"WealthTaskCompleted","type":"event"},{"anonymous":false,"inputs":[{"indexed":true,"internalType":"address","name":"account","type":"address"},{"indexed":true,"internalType":"uint8","name":"taskId","type":"uint8"},{"indexed":false,"internalType":"int256","name":"realizedPnl","type":"int256"},{"indexed":false,"internalType":"bytes32","name":"evidenceHash","type":"bytes32"}],"name":"WealthTaskEvidenceRecorded","type":"event"},{"inputs":[],"name":"ASSET_DECIMALS","outputs":[{"internalType":"uint8","name":"","type":"uint8"}],"stateMutability":"view","type":"function"},{"inputs":[],"name":"BPS","outputs":[{"internalType":"uint256","name":"","type":"uint256"}],"stateMutability":"view","type":"function"},{"inputs":[],"name":"DEFAULT_WEALTH_PRODUCT_ID","outputs":[{"internalType":"uint16","name":"","type":"uint16"}],"stateMutability":"view","type":"function"},{"inputs":[],"name":"HOME_PAPER","outputs":[{"internalType":"uint8","name":"","type":"uint8"}],"stateMutability":"view","type":"function"},{"inputs":[],"name":"HOME_QUIZ","outputs":[{"internalType":"uint8","name":"","type":"uint8"}],"stateMutability":"view","type":"function"},{"inputs":[],"name":"HOME_RISK","outputs":[{"internalType":"uint8","name":"","type":"uint8"}],"stateMutability":"view","type":"function"},{"inputs":[],"name":"HOME_WALLET","outputs":[{"internalType":"uint8","name":"","type":"uint8"}],"stateMutability":"view","type":"function"},{"inputs":[],"name":"HOME_WELCOME","outputs":[{"internalType":"uint8","name":"","type":"uint8"}],"stateMutability":"view","type":"function"},{"inputs":[],"name":"MAX_SCORE_SUBMISSIONS_PER_DAY","outputs":[{"internalType":"uint256","name":"","type":"uint256"}],"stateMutability":"view","type":"function"},{"inputs":[],"name":"PAPER_BASE_CHECK","outputs":[{"internalType":"uint256","name":"","type":"uint256"}],"stateMutability":"view","type":"function"},{"inputs":[],"name":"PAPER_LEADERBOARD","outputs":[{"internalType":"uint256","name":"","type":"uint256"}],"stateMutability":"view","type":"function"},{"inputs":[],"name":"PAPER_PERP_LEVERAGE","outputs":[{"internalType":"uint256","name":"","type":"uint256"}],"stateMutability":"view","type":"function"},{"inputs":[],"name":"PAPER_PROTECTIVE_HEDGE","outputs":[{"internalType":"uint256","name":"","type":"uint256"}],"stateMutability":"view","type":"function"},{"inputs":[],"name":"PAPER_SPOT_LOOP","outputs":[{"internalType":"uint256","name":"","type":"uint256"}],"stateMutability":"view","type":"function"},{"inputs":[],"name":"WEALTH_DUAL_PROFIT","outputs":[{"internalType":"uint8","name":"","type":"uint8"}],"stateMutability":"view","type":"function"},{"inputs":[],"name":"WEALTH_PLEDGE","outputs":[{"internalType":"uint8","name":"","type":"uint8"}],"stateMutability":"view","type":"function"},{"inputs":[],"name":"WEALTH_PROFITABLE_TRADE","outputs":[{"internalType":"uint8","name":"","type":"uint8"}],"stateMutability":"view","type":"function"},{"inputs":[{"internalType":"bytes32","name":"","type":"bytes32"}],"name":"approvedUnderlyingHash","outputs":[{"internalType":"bool","name":"","type":"bool"}],"stateMutability":"view","type":"function"},{"inputs":[],"name":"assetSymbol","outputs":[{"internalType":"string","name":"","type":"string"}],"stateMutability":"view","type":"function"},{"inputs":[{"internalType":"address","name":"account","type":"address"},{"internalType":"uint256","name":"id","type":"uint256"}],"name":"balanceOf","outputs":[{"internalType":"uint256","name":"","type":"uint256"}],"stateMutability":"view","type":"function"},{"inputs":[{"internalType":"address[]","name":"accounts","type":"address[]"},{"internalType":"uint256[]","name":"ids","type":"uint256[]"}],"name":"balanceOfBatch","outputs":[{"internalType":"uint256[]","name":"","type":"uint256[]"}],"stateMutability":"view","type":"function"},{"inputs":[{"internalType":"address","name":"investor","type":"address"}],"name":"canAccessAdvancedShelf","outputs":[{"internalType":"bool","name":"","type":"bool"}],"stateMutability":"view","type":"function"},{"inputs":[{"internalType":"uint256","name":"achievementId","type":"uint256"}],"name":"claim","outputs":[],"stateMutability":"nonpayable","type":"function"},{"inputs":[{"internalType":"uint256[]","name":"achievementIds","type":"uint256[]"}],"name":"claimBatch","outputs":[],"stateMutability":"nonpayable","type":"function"},{"inputs":[{"internalType":"address","name":"","type":"address"}],"name":"eligibleInvestor","outputs":[{"internalType":"bool","name":"","type":"bool"}],"stateMutability":"view","type":"function"},{"inputs":[{"internalType":"address","name":"holder","type":"address"}],"name":"hasMinted","outputs":[{"internalType":"bool","name":"","type":"bool"}],"stateMutability":"view","type":"function"},{"inputs":[{"internalType":"address","name":"","type":"address"},{"internalType":"uint8","name":"","type":"uint8"}],"name":"hasMintedBadge","outputs":[{"internalType":"bool","name":"","type":"bool"}],"stateMutability":"view","type":"function"},{"inputs":[{"internalType":"address","name":"holder","type":"address"},{"internalType":"uint8","name":"badgeType","type":"uint8"}],"name":"hasMintedTask","outputs":[{"internalType":"bool","name":"","type":"bool"}],"stateMutability":"view","type":"function"},{"inputs":[{"internalType":"address","name":"","type":"address"}],"name":"hasSubmittedScore","outputs":[{"internalType":"bool","name":"","type":"bool"}],"stateMutability":"view","type":"function"},{"inputs":[{"internalType":"address","name":"holder","type":"address"},{"internalType":"uint8","name":"taskId","type":"uint8"}],"name":"hasWealthTask","outputs":[{"internalType":"bool","name":"","type":"bool"}],"stateMutability":"view","type":"function"},{"inputs":[{"internalType":"address","name":"account","type":"address"},{"internalType":"address","name":"operator","type":"address"}],"name":"isApprovedForAll","outputs":[{"internalType":"bool","name":"","type":"bool"}],"stateMutability":"view","type":"function"},{"inputs":[],"name":"lastAttestedAt","outputs":[{"internalType":"uint256","name":"","type":"uint256"}],"stateMutability":"view","type":"function"},{"inputs":[],"name":"latestAttestationRoot","outputs":[{"internalType":"bytes32","name":"","type":"bytes32"}],"stateMutability":"view","type":"function"},{"inputs":[{"internalType":"uint16","name":"productId","type":"uint16"},{"internalType":"uint256","name":"supportAmount","type":"uint256"},{"internalType":"string","name":"pledgedOn","type":"string"},{"internalType":"bytes32","name":"evidenceHash","type":"bytes32"}],"name":"markWealthPledgeWithEvidence","outputs":[{"internalType":"uint256","name":"tokenId","type":"uint256"}],"stateMutability":"nonpayable","type":"function"},{"inputs":[{"internalType":"uint8","name":"taskId","type":"uint8"}],"name":"markWealthTask","outputs":[],"stateMutability":"nonpayable","type":"function"},{"inputs":[{"internalType":"uint8","name":"taskId","type":"uint8"},{"internalType":"int256","name":"realizedPnl","type":"int256"},{"internalType":"bytes32","name":"evidenceHash","type":"bytes32"}],"name":"markWealthTaskWithEvidence","outputs":[],"stateMutability":"nonpayable","type":"function"},{"inputs":[],"name":"metadataRenderer","outputs":[{"internalType":"address","name":"","type":"address"}],"stateMutability":"view","type":"function"},{"inputs":[],"name":"minSubscription","outputs":[{"internalType":"uint256","name":"","type":"uint256"}],"stateMutability":"view","type":"function"},{"inputs":[{"internalType":"uint8","name":"badgeType","type":"uint8"},{"internalType":"address","name":"to","type":"address"}],"name":"mintBadge","outputs":[{"internalType":"uint256","name":"tokenId","type":"uint256"}],"stateMutability":"nonpayable","type":"function"},{"inputs":[{"internalType":"string","name":"category","type":"string"},{"internalType":"string","name":"submittedOn","type":"string"},{"internalType":"int256","name":"returnBps","type":"int256"},{"internalType":"uint256","name":"winRateBps","type":"uint256"},{"internalType":"uint256","name":"maxDrawdownBps","type":"uint256"}],"name":"mintPaperLeaderboardCredential","outputs":[{"internalType":"uint256","name":"tokenId","type":"uint256"}],"stateMutability":"nonpayable","type":"function"},{"inputs":[{"internalType":"address","name":"to","type":"address"}],"name":"mintWelcomeBadge","outputs":[{"internalType":"uint256","name":"tokenId","type":"uint256"}],"stateMutability":"nonpayable","type":"function"},{"inputs":[],"name":"navBps","outputs":[{"internalType":"uint256","name":"","type":"uint256"}],"stateMutability":"view","type":"function"},{"inputs":[],"name":"nextHomeTokenId","outputs":[{"internalType":"uint256","name":"","type":"uint256"}],"stateMutability":"view","type":"function"},{"inputs":[],"name":"nextPaperLeaderboardCredentialTokenId","outputs":[{"internalType":"uint256","name":"","type":"uint256"}],"stateMutability":"view","type":"function"},{"inputs":[],"name":"nextWealthPledgeCredentialTokenId","outputs":[{"internalType":"uint256","name":"","type":"uint256"}],"stateMutability":"view","type":"function"},{"inputs":[],"name":"nextWealthReceiptCredentialTokenId","outputs":[{"internalType":"uint256","name":"","type":"uint256"}],"stateMutability":"view","type":"function"},{"inputs":[],"name":"owner","outputs":[{"internalType":"address","name":"","type":"address"}],"stateMutability":"view","type":"function"},{"inputs":[{"internalType":"address","name":"","type":"address"},{"internalType":"uint256","name":"","type":"uint256"}],"name":"paperLeaderboardCredentialMintsByDay","outputs":[{"internalType":"uint256","name":"","type":"uint256"}],"stateMutability":"view","type":"function"},{"inputs":[{"internalType":"uint256","name":"","type":"uint256"}],"name":"paperLeaderboardCredentialOf","outputs":[{"internalType":"address","name":"account","type":"address"},{"internalType":"string","name":"category","type":"string"},{"internalType":"string","name":"submittedOn","type":"string"},{"internalType":"int256","name":"returnBps","type":"int256"},{"internalType":"uint256","name":"winRateBps","type":"uint256"},{"internalType":"uint256","name":"maxDrawdownBps","type":"uint256"}],"stateMutability":"view","type":"function"},{"inputs":[{"internalType":"uint256","name":"shareAmount","type":"uint256"}],"name":"previewAssets","outputs":[{"internalType":"uint256","name":"","type":"uint256"}],"stateMutability":"view","type":"function"},{"inputs":[{"internalType":"uint256","name":"assetAmount","type":"uint256"}],"name":"previewShares","outputs":[{"internalType":"uint256","name":"","type":"uint256"}],"stateMutability":"view","type":"function"},{"inputs":[{"internalType":"uint16","name":"","type":"uint16"}],"name":"productReceiptDetail","outputs":[{"internalType":"string","name":"","type":"string"}],"stateMutability":"view","type":"function"},{"inputs":[{"internalType":"uint16","name":"","type":"uint16"}],"name":"productReceiptLabel","outputs":[{"internalType":"string","name":"","type":"string"}],"stateMutability":"view","type":"function"},{"inputs":[{"internalType":"uint16","name":"","type":"uint16"}],"name":"productReceiptMaturity","outputs":[{"internalType":"string","name":"","type":"string"}],"stateMutability":"view","type":"function"},{"inputs":[{"internalType":"uint16","name":"","type":"uint16"}],"name":"productReceiptType","outputs":[{"internalType":"string","name":"","type":"string"}],"stateMutability":"view","type":"function"},{"inputs":[{"internalType":"uint16","name":"productId","type":"uint16"}],"name":"receiptTokenId","outputs":[{"internalType":"uint256","name":"","type":"uint256"}],"stateMutability":"pure","type":"function"},{"inputs":[{"internalType":"bytes32","name":"assetHash","type":"bytes32"},{"internalType":"bool","name":"passed","type":"bool"},{"internalType":"string","name":"note","type":"string"}],"name":"recordUnderlyingReview","outputs":[],"stateMutability":"nonpayable","type":"function"},{"inputs":[{"internalType":"uint256","name":"shareAmount","type":"uint256"}],"name":"redeem","outputs":[{"internalType":"uint256","name":"assetAmount","type":"uint256"}],"stateMutability":"nonpayable","type":"function"},{"inputs":[{"internalType":"uint16","name":"productId","type":"uint16"},{"internalType":"uint256","name":"shareAmount","type":"uint256"}],"name":"redeemProduct","outputs":[{"internalType":"uint256","name":"assetAmount","type":"uint256"}],"stateMutability":"nonpayable","type":"function"},{"inputs":[],"name":"renounceOwnership","outputs":[],"stateMutability":"nonpayable","type":"function"},{"inputs":[{"internalType":"address","name":"","type":"address"}],"name":"replayScoreOf","outputs":[{"internalType":"int256","name":"bestNetPnl","type":"int256"},{"internalType":"uint256","name":"bestAccountValue","type":"uint256"},{"internalType":"uint256","name":"bestTradeCount","type":"uint256"},{"internalType":"uint256","name":"lastSubmittedAt","type":"uint256"},{"internalType":"uint256","name":"submissionCount","type":"uint256"},{"internalType":"uint256","name":"submissionDay","type":"uint256"},{"internalType":"uint256","name":"submissionsToday","type":"uint256"}],"stateMutability":"view","type":"function"},{"inputs":[{"internalType":"address","name":"","type":"address"}],"name":"riskTier","outputs":[{"internalType":"uint8","name":"","type":"uint8"}],"stateMutability":"view","type":"function"},{"inputs":[{"internalType":"address","name":"from","type":"address"},{"internalType":"address","name":"to","type":"address"},{"internalType":"uint256[]","name":"ids","type":"uint256[]"},{"internalType":"uint256[]","name":"amounts","type":"uint256[]"},{"internalType":"bytes","name":"data","type":"bytes"}],"name":"safeBatchTransferFrom","outputs":[],"stateMutability":"nonpayable","type":"function"},{"inputs":[{"internalType":"address","name":"from","type":"address"},{"internalType":"address","name":"to","type":"address"},{"internalType":"uint256","name":"id","type":"uint256"},{"internalType":"uint256","name":"amount","type":"uint256"},{"internalType":"bytes","name":"data","type":"bytes"}],"name":"safeTransferFrom","outputs":[],"stateMutability":"nonpayable","type":"function"},{"inputs":[{"internalType":"uint256","name":"index","type":"uint256"}],"name":"scoreAccountAt","outputs":[{"internalType":"address","name":"","type":"address"}],"stateMutability":"view","type":"function"},{"inputs":[],"name":"scoreAccountCount","outputs":[{"internalType":"uint256","name":"","type":"uint256"}],"stateMutability":"view","type":"function"},{"inputs":[{"internalType":"address","name":"operator","type":"address"},{"internalType":"bool","name":"approved","type":"bool"}],"name":"setApprovalForAll","outputs":[],"stateMutability":"nonpayable","type":"function"},{"inputs":[{"internalType":"string","name":"nextUri","type":"string"}],"name":"setBaseUri","outputs":[],"stateMutability":"nonpayable","type":"function"},{"inputs":[{"internalType":"address","name":"investor","type":"address"},{"internalType":"bool","name":"allowed","type":"bool"},{"internalType":"uint8","name":"tier","type":"uint8"}],"name":"setInvestorEligibility","outputs":[],"stateMutability":"nonpayable","type":"function"},{"inputs":[{"internalType":"address","name":"renderer","type":"address"}],"name":"setMetadataRenderer","outputs":[],"stateMutability":"nonpayable","type":"function"},{"inputs":[{"internalType":"uint256","name":"nextMinSubscription","type":"uint256"}],"name":"setMinSubscription","outputs":[],"stateMutability":"nonpayable","type":"function"},{"inputs":[{"internalType":"uint256","name":"nextNavBps","type":"uint256"}],"name":"setNavBps","outputs":[],"stateMutability":"nonpayable","type":"function"},{"inputs":[{"internalType":"uint16","name":"productId","type":"uint16"},{"internalType":"string","name":"detail","type":"string"}],"name":"setProductReceiptDetail","outputs":[],"stateMutability":"nonpayable","type":"function"},{"inputs":[{"internalType":"uint16","name":"productId","type":"uint16"},{"internalType":"string","name":"label","type":"string"}],"name":"setProductReceiptLabel","outputs":[],"stateMutability":"nonpayable","type":"function"},{"inputs":[{"internalType":"uint16","name":"productId","type":"uint16"},{"internalType":"string","name":"productType","type":"string"},{"internalType":"string","name":"maturity","type":"string"}],"name":"setProductReceiptMetadata","outputs":[],"stateMutability":"nonpayable","type":"function"},{"inputs":[{"internalType":"string","name":"nextStatus","type":"string"}],"name":"setStrategyStatus","outputs":[],"stateMutability":"nonpayable","type":"function"},{"inputs":[{"internalType":"bool","name":"paused","type":"bool"}],"name":"setSubscriptionsPaused","outputs":[],"stateMutability":"nonpayable","type":"function"},{"inputs":[{"internalType":"uint16","name":"fromProductId","type":"uint16"},{"internalType":"uint16","name":"toProductId","type":"uint16"},{"internalType":"uint256","name":"burnAmount","type":"uint256"},{"internalType":"uint256","name":"mintAmount","type":"uint256"}],"name":"settleProduct","outputs":[{"internalType":"uint256","name":"assetAmount","type":"uint256"},{"internalType":"uint256","name":"mintedAmount","type":"uint256"}],"stateMutability":"nonpayable","type":"function"},{"inputs":[],"name":"strategyStatus","outputs":[{"internalType":"string","name":"","type":"string"}],"stateMutability":"view","type":"function"},{"inputs":[{"internalType":"int256","name":"netPnl","type":"int256"},{"internalType":"uint256","name":"accountValue","type":"uint256"},{"internalType":"uint256","name":"tradeCount","type":"uint256"}],"name":"submitScore","outputs":[],"stateMutability":"nonpayable","type":"function"},{"inputs":[{"internalType":"uint256","name":"assetAmount","type":"uint256"}],"name":"subscribe","outputs":[{"internalType":"uint256","name":"shareAmount","type":"uint256"}],"stateMutability":"nonpayable","type":"function"},{"inputs":[{"internalType":"uint16","name":"productId","type":"uint16"},{"internalType":"uint256","name":"assetAmount","type":"uint256"}],"name":"subscribeProduct","outputs":[{"internalType":"uint256","name":"shareAmount","type":"uint256"}],"stateMutability":"nonpayable","type":"function"},{"inputs":[{"internalType":"uint16","name":"productId","type":"uint16"},{"internalType":"uint256","name":"assetAmount","type":"uint256"},{"internalType":"string","name":"purchasedOn","type":"string"}],"name":"subscribeProductWithMetadata","outputs":[{"internalType":"uint256","name":"shareAmount","type":"uint256"}],"stateMutability":"nonpayable","type":"function"},{"inputs":[],"name":"subscriptionsPaused","outputs":[{"internalType":"bool","name":"","type":"bool"}],"stateMutability":"view","type":"function"},{"inputs":[{"internalType":"bytes4","name":"interfaceId","type":"bytes4"}],"name":"supportsInterface","outputs":[{"internalType":"bool","name":"","type":"bool"}],"stateMutability":"view","type":"function"},{"inputs":[{"internalType":"uint256","name":"","type":"uint256"}],"name":"tokenBadgeType","outputs":[{"internalType":"uint8","name":"","type":"uint8"}],"stateMutability":"view","type":"function"},{"inputs":[{"internalType":"address","name":"newOwner","type":"address"}],"name":"transferOwnership","outputs":[],"stateMutability":"nonpayable","type":"function"},{"inputs":[{"internalType":"bytes32","name":"nextAttestationRoot","type":"bytes32"}],"name":"updateAttestation","outputs":[],"stateMutability":"nonpayable","type":"function"},{"inputs":[{"internalType":"uint256","name":"tokenId","type":"uint256"}],"name":"uri","outputs":[{"internalType":"string","name":"","type":"string"}],"stateMutability":"view","type":"function"},{"inputs":[],"name":"vaultLabel","outputs":[{"internalType":"string","name":"","type":"string"}],"stateMutability":"view","type":"function"},{"inputs":[{"internalType":"uint256","name":"","type":"uint256"}],"name":"wealthPledgeCredentialOf","outputs":[{"internalType":"address","name":"account","type":"address"},{"internalType":"uint16","name":"productId","type":"uint16"},{"internalType":"uint256","name":"supportAmount","type":"uint256"},{"internalType":"string","name":"pledgedOn","type":"string"}],"stateMutability":"view","type":"function"},{"inputs":[{"internalType":"uint256","name":"","type":"uint256"}],"name":"wealthReceiptCredentialOf","outputs":[{"internalType":"address","name":"account","type":"address"},{"internalType":"uint16","name":"productId","type":"uint16"},{"internalType":"uint256","name":"assetAmount","type":"uint256"},{"internalType":"uint256","name":"shareAmount","type":"uint256"},{"internalType":"string","name":"purchasedOn","type":"string"}],"stateMutability":"view","type":"function"},{"inputs":[{"internalType":"address","name":"","type":"address"},{"internalType":"uint16","name":"","type":"uint16"}],"name":"wealthReceiptProofOf","outputs":[{"internalType":"uint256","name":"lastAssetAmount","type":"uint256"},{"internalType":"uint256","name":"lastShareAmount","type":"uint256"},{"internalType":"uint256","name":"purchasedAt","type":"uint256"},{"internalType":"string","name":"productDetail","type":"string"}],"stateMutability":"view","type":"function"},{"inputs":[{"internalType":"address","name":"","type":"address"},{"internalType":"uint16","name":"","type":"uint16"}],"name":"wealthReceiptShares","outputs":[{"internalType":"uint256","name":"","type":"uint256"}],"stateMutability":"view","type":"function"},{"inputs":[{"internalType":"address","name":"","type":"address"},{"internalType":"uint8","name":"","type":"uint8"}],"name":"wealthTaskCompleted","outputs":[{"internalType":"bool","name":"","type":"bool"}],"stateMutability":"view","type":"function"},{"inputs":[{"internalType":"address","name":"","type":"address"},{"internalType":"uint8","name":"","type":"uint8"}],"name":"wealthTaskEvidenceHash","outputs":[{"internalType":"bytes32","name":"","type":"bytes32"}],"stateMutability":"view","type":"function"},{"inputs":[{"internalType":"address","name":"","type":"address"},{"internalType":"uint8","name":"","type":"uint8"}],"name":"wealthTaskRealizedPnl","outputs":[{"internalType":"int256","name":"","type":"int256"}],"stateMutability":"view","type":"function"}],"evm":{"bytecode":{"linkReferences":{},"object":"6080604052346200035b5762005f69803803806200001d816200035f565b92833981019060209182828203126200035b5781516001600160401b03928382116200035b570191601f918083850112156200035b578351938285116200033357601f199462000073858201871688016200035f565b928184528782840101116200035b5786915f5b82811062000347575050905f918301015280519182116200033357620000ae60025462000385565b838111620002f7575b508493838311600114620002945750928192935f9262000288575b50508160011b915f199060031b1c1916176002555b60038054336001600160a01b0319821681179092556001600160a01b03167f8be0079c531659141344cd1fd0a4f28419497f9722a3daafe3b4186f6b6457e05f80a36001600455620186a160055562030d41600655620493e16007556127106008556101f46009556200015c600e5462000385565b81811162000266575b507f5269736b4c656e7320556e69666965642044656d6f205661756c740000000036600e55600f54620001989062000385565b81811162000244575b50600461141560f21b01600f55600d54620001bc9062000385565b9080821162000222575b7f44656d6f20726561647900000000000000000000000000000000000000000014600d557f326aeea7abf8a20d2ae5c71811b6e16c6ad80e0128362081ef8dd5af3774b9c0600c5542600a55604051615b909081620003d98239f35b6200023b92600d5f525f20910160051c810190620003c0565b5f8080620001c6565b6200025f90600f5f5282845f20910160051c810190620003c0565b5f620001a1565b6200028190600e5f5282845f20910160051c810190620003c0565b5f62000165565b015190505f80620000d2565b82169360025f52855f20915f5b87878210620002e0575050836001959610620002c7575b505050811b01600255620000e7565b01515f1960f88460031b161c191690555f8080620002b8565b6001849582939585015181550194019201620002a1565b620003229060025f52865f208580860160051c82019289871062000329575b0160051c0190620003c0565b5f620000b7565b9250819262000316565b634e487b7160e01b5f52604160045260245ffd5b818101840151858201850152830162000086565b5f80fd5b6040519190601f01601f191682016001600160401b038111838210176200033357604052565b90600182811c92168015620003b5575b6020831014620003a157565b634e487b7160e01b5f52602260045260245ffd5b91607f169162000395565b818110620003cc575050565b5f8155600101620003c056fe60806040526004361015610011575f80fd5b5f3560e01c80629b27af14614017578062fdd58e14613ff057806301b4597d14613f9e57806301ffc9a714613f3057806302cea26b14613edf5780630765b4b414613eac5780630e89341c14613e8d5780630f574ba7146139ef578063176de7a814613964578063176f1cdd146138d9578063179649ad1461383f5780631a2e99961461375c5780631b6c218e146135425780631de3083d14613527578063218900b41461350a578063249d39e9146134ee57806327dac9e2146134a157806327e80368146134845780632a0ee085146134405780632baa75211461341d5780632e6f6b1f146134005780632eb2c2d61461318c5780632f85874a146131705780632fb4e0f9146130b0578063325116ee1461309557806332ddc5241461302b578063379607f514612fd157806338e21cce14612f8957806341be5f6414612f6c5780634973fd9a14612f3d5780634adb4cc814612f205780634d7c10a714612ee35780634e1273f414612d6f578063513f840114612c1657806352163337146129e057806355cc02611461287957806357997aa21461285e5780635acc90091461282b5780635ad32a3c146127bf578063619a1d291461279857806362abebce14612557578063663c39d2146124765780636961fd46146122fd5780636b3ce2f11461229f5780636ea17abd14612284578063703199701461225c578063715018a6146122145780637206abbd1461207557806374b3322c146120275780637cea070a1461200c5780638385f14a14611fef5780638530a3bf14611fc2578063889d100214611f8f5780638909e50614611edd5780638d00bbe514611e885780638da5cb5b14611e605780638f631d5414611e4557806393b9e5ae14611df857806399b49e2514611d995780639a2aaca114611d0e578063a0bcfc7f14611bd7578063a22cb46514611afd578063aec45d8014611a9a578063b363935c14610567578063b5884e2014611a04578063b7d120d0146119bd578063b84d93d414611982578063bce4899114611493578063c056e1e314610872578063c1d150e4146113fb578063c4ebe024146113e0578063c5e20f8014611349578063c8a3c3b5146112d0578063cad4719214610562578063cb33bcdb1461127e578063cc272b1114611205578063ceb0f6d814610eef578063cf22928d146111e3578063d28c390a146111ad578063d4b0521b14611130578063d5c21baa14611113578063d92fa2c6146110e3578063db006a7514610ef4578063dcb2125b14610eef578063e5a8994514610a20578063e985e9c5146109ce578063ed2ff225146109b1578063eda7c56e14610877578063eeaa817714610872578063f242432a14610631578063f2fde38b14610582578063f4db898414610567578063f64bfa5914610562578063f68e55c314610504578063f766dee4146104e9578063f9569673146104ac5763fd4fe8a814610442575f80fd5b346104a85760203660031901126104a85761045b61405e565b610463614a8d565b601080546001600160a01b0319166001600160a01b039290921691821790557f60a886c8dc324af9c6d6a1bf7369ffe7557ef345eb5717bceffb59beac879a0a5f80a2005b5f80fd5b346104a85760203660031901126104a8576001600160a01b036104cd61405e565b165f526018602052602060ff60405f2054166040519015158152f35b346104a8575f3660031901126104a8576020604051600a8152f35b346104a85760203660031901126104a857600435610520614a8d565b801561052b57600955005b60405162461bcd60e51b815260206004820152600f60248201526e496e76616c6964206d696e696d756d60881b6044820152606490fd5b614446565b346104a8575f3660031901126104a857602060405160068152f35b346104a85760203660031901126104a85761059b61405e565b6105a3614a8d565b6001600160a01b039081169081156105dd57600380546001600160a01b031981168417909155165f80516020615a3b8339815191525f80a3005b60405162461bcd60e51b815260206004820152602660248201527f4f776e61626c653a206e6577206f776e657220697320746865207a65726f206160448201526564647265737360d01b6064820152608490fd5b346104a85760a03660031901126104a85761064a61405e565b610652614074565b906064356044356084356001600160401b0381116104a857610678903690600401614397565b6001600160a01b0393841693338514801561084d575b610697906148db565b85166106a4811515614ccf565b6106ad83615807565b506106b784615807565b50825f526020955f875260405f20865f5287528460405f20546106dc82821015614d29565b855f525f895260405f20885f5289520360405f2055835f525f875260405f20825f52875260405f2061070f8682546148af565b90558186604051868152878a8201525f8051602061591b83398151915260403392a43b61073857005b61077b935f87946040519687958694859363f23a6e6160e01b9b8c865233600487015260248601526044850152606484015260a0608484015260a4830190614271565b03925af15f918161081e575b506107f25782610795615703565b6308c379a0146107bd575b60405162461bcd60e51b8152806107b96004820161578b565b0390fd5b6107c561571e565b90816107d157506107a0565b6107b960405192839262461bcd60e51b845260048401526024830190614271565b6001600160e01b03191603905061080557005b60405162461bcd60e51b8152806107b9600482016156ba565b61083f919250843d8611610846575b610837818361418b565b81019061569a565b9084610787565b503d61082d565b50845f52600160205260405f20335f5260205261069760ff60405f205416905061068e565b6113e0565b346104a85761ffff61088836614408565b91610894939193614a8d565b16916108a1831515614810565b825f52602090601a825260405f2060018060401b03841161099d576108d0846108ca83546140cc565b8361484e565b5f601f851160011461092857916109189161090486805f805160206158fb8339815191529897965f9161091d575b5061489d565b90555b604051938385948552840191614770565b0390a2005b90508401358a6108fe565b601f19851690825f52845f20915f5b8181106109865750916109189391875f805160206158fb833981519152989796941061096d575b5050600185811b019055610907565b8301355f19600388901b60f8161c19169055878061095e565b919286600181928689013581550194019201610937565b634e487b7160e01b5f52604160045260245ffd5b346104a8575f3660031901126104a8576020600654604051908152f35b346104a85760403660031901126104a8576109e761405e565b6109ef614074565b9060018060a01b038091165f52600160205260405f2091165f52602052602060ff60405f2054166040519015158152f35b346104a85760a03660031901126104a8576004356001600160401b0381116104a857610a50903690600401614296565b6024356001600160401b0381116104a857610a6f903690600401614296565b90916044906064938115610eb9578315610e875761271080863511610e515760843511610e1b57620151804204335f52602360205260405f20815f52602052600360405f20541015610dd857335f52602360205260405f20905f5260205260405f2080549060018201809211610dc457556005549360018501808611610dc4576005556040519660c088016001600160401b0381118982101761099d57604052338852610b1d368583614361565b60208901908152610b2f368486614361565b60408a810191909152863560608b0152883560808b015260843560a08b01525f888152602260205220895181546001600160a01b0319166001600160a01b039190911617815590518051906001600160401b03821161099d57610ba282610b9960018601546140cc565b6001860161484e565b602090601f8311600114610d5a57610bc492915f9183610d4f575b505061489d565b60018201555b604089015180519099906001600160401b03811161099d5760209a610bff82610bf660028701546140cc565b6002870161484e565b8b90601f8311600114610cc55793600560a08c9d9895610c4086610c8a97610c979b975f8051602061599b8339815191529f9e9b5f92610cba57505061489d565b60028501555b60608101516003850155608081015160048501550151910155610c78604051610c6e8161413a565b5f81528b33614e1b565b6040519660a0885260a0880191614770565b918583038b870152614770565b9335604083015235606082015260843560808201528033930390a3604051908152f35b015190505f80610bbd565b90600285015f528c5f20915f5b601f1985168110610d38575060a08c9d9895600186610c979a965f8051602061599b8339815191529e9d9a96600596610c8a9a601f19811610610d20575b505050811b016002850155610c46565b01515f1960f88460031b161c191690555f8080610d10565b91928e600181928685015181550194019201610cd2565b015190508c80610bbd565b90601f19831691600185015f5260205f20925f5b818110610dac5750908460019594939210610d94575b505050811b016001820155610bca565b01515f1960f88460031b161c191690558b8080610d84565b92936020600181928786015181550195019301610d6e565b634e487b7160e01b5f52601160045260245ffd5b60405162461bcd60e51b815260206004820152601e60248201527f4461696c792063726564656e7469616c206c696d697420726561636865640000818601528690fd5b60405162461bcd60e51b815260206004820152601060248201526f24b73b30b634b210323930bbb237bbb760811b818501528590fd5b60405162461bcd60e51b815260206004820152601060248201526f496e76616c69642077696e207261746560801b818601528690fd5b60405162461bcd60e51b815260206004820152600c60248201526b4d697373696e67206461746560a01b818501528590fd5b60405162461bcd60e51b815260206004820152601060248201526f4d697373696e672063617465676f727960801b818501528590fd5b61200c565b346104a8576020806003193601126104a857600435610f14811515614fc2565b33156110a557604051610f2681614155565b6001815282810190833683375115611091576103e9809152610f4782615807565b505f604051610f558161413a565b52805f525f835260405f20335f52835260405f2054828110611053578290825f525f855260405f20335f5285520360405f20555f604051828152838582015233905f8051602061591b83398151915260403392a45f604051610fb68161413a565b52335f90815260198452604080822060018352855290205480831061103457505f5b335f526019845260405f2060015f52845260405f205560405182815282848201525f80516020615b1b83398151915260403392a2600160405183815283858201525f80516020615a7b83398151915260403392a4604051908152f35b82810390811115610fd857634e487b7160e01b5f52601160045260245ffd5b60405162461bcd60e51b8152600481018590526024808201525f80516020615a1b833981519152604482015263616e636560e01b6064820152608490fd5b634e487b7160e01b5f52603260045260245ffd5b60405162461bcd60e51b815260048101839052602360248201525f8051602061597b83398151915260448201526265737360e81b6064820152608490fd5b346104a85760403660031901126104a857602061110b6111016140aa565b6024359033614ffc565b604051908152f35b346104a8575f3660031901126104a8576020600554604051908152f35b346104a85760203660031901126104a85760043560205481101561117257611159602091614a15565b905460405160039290921b1c6001600160a01b03168152f35b60405162461bcd60e51b8152602060048201526013602482015272496e646578206f7574206f6620626f756e647360681b6044820152606490fd5b346104a85760203660031901126104a857600854600435818102918115918304141715610dc45760209061271060405191048152f35b346104a8575f3660031901126104a857602060ff600b54166040519015158152f35b346104a85760203660031901126104a8576004355f52602460205261ffff60405f2061127a8154916001810154906112446003600283015492016141ae565b9160405195869560018060a01b038116875260a01c1660208601526040850152606084015260a0608084015260a0830190614271565b0390f35b346104a85760403660031901126104a85761129761405e565b61129f61408a565b9060018060a01b03165f52601360205260ff60405f2091165f52602052602060ff60405f2054166040519015158152f35b346104a85760203660031901126104a8576001600160a01b036112f161405e565b165f52601760205260e060405f20805490600181015490600281015460038201546004830154916006600585015494015494604051968752602087015260408601526060850152608084015260a083015260c0820152f35b346104a85760203660031901126104a8576004355f90815260226020526040902080546001600160a01b0316611381600183016141ae565b9161138e600282016141ae565b6003820154916113cc60056004830154920154926113be604051978897885260c0602089015260c0880190614271565b908682036040880152614271565b926060850152608084015260a08301520390f35b346104a8575f3660031901126104a857602060405160038152f35b346104a85760603660031901126104a8576114146140aa565b6044356001600160401b0381116104a857611433903690600401614296565b9182156114565761144b61110b926020943691614361565b9060243590336151b4565b60405162461bcd60e51b81526020600482015260156024820152744d697373696e67207075726368617365206461746560581b6044820152606490fd5b346104a85760803660031901126104a8576114ac6140aa565b6024906001600160401b03906044358281116104a8576114d0903690600401614296565b6064939193359461ffff809416926114e9841515614810565b81351561194c578215611912576115018715156149c6565b61151361150d33614472565b156147d2565b335f526020966013885260405f20600290815f52895260405f20916001928360ff19825416179055335f52601f8a5260405f20825f528a525f6040812055335f52601e8a5260405f20825f528a528060405f205561157033614472565b15611730575b506007549682880180891161171d57856115f98a969594938a60258f8f6115c1908e98600755604051986115a98a614104565b338a52838a0195865260408a01983589523691614361565b606088019081525f9b8c529190526040909920945185546001600160a01b0319166001600160a01b0391909116178555511683614a6e565b5183820155019251805192831161170a5761161e8361161886546140cc565b8661484e565b8991601f84116001146116975750825f80516020615b3b8339815191529593899a9593611652935f92610d4f57505061489d565b90555b61166e6040516116648161413a565b5f81528733614e1b565b61168c60405192839235835260408a84015233956040840191614770565b0390a4604051908152f35b9291601f19831691855f528b5f20925f5b8d8282106116f6575050915f80516020615b3b83398151915297959391858c9d989694106116de575b505050811b019055611655565b01515f1960f88460031b161c191690558b80806116d1565b8385015186559487019493840193016116a8565b84634e487b7160e01b5f5260416004525ffd5b85634e487b7160e01b5f5260116004525ffd5b60405161173c8161413a565b5f815261174a331515614dc5565b60405161175681614155565b8481528b8101908c36833751156118ff5760ca90526117736157e0565b5060ca5f525f8b5260405f20335f528b5260405f208054908582018092116118ec575560405160ca8152848c8201525f33915f8051602061591b83398151915260403392a4333b6117f8575b50604051829182335f805160206159fb8339815191525f80a35f82528b8201525f80516020615adb83398151915260403392a389611576565b9461183f8b829c9b9a999897604051809381925f63f23a6e6160e01b9788855233600486015284015260ca604484015289606484015260a0608484015260a4830190614271565b03815f335af15f91816118cd575b506118b2578b8b61185c615703565b6308c379a01461187f5760405162461bcd60e51b8152806107b96004820161578b565b61188761571e565b8061189257506107a0565b6107b99060405193849362461bcd60e51b85526004850152830190614271565b63ffffffff60e09c9798999a9b9c1b160361080557816117bf565b6118e59192508c8d3d1061084657610837818361418b565b908d61184d565b87634e487b7160e01b5f5260116004525ffd5b86634e487b7160e01b5f5260326004525ffd5b60405162461bcd60e51b815260206004820152601381840152724d697373696e6720706c65646765206461746560681b6044820152606490fd5b60405162461bcd60e51b815260206004820152600f818401526e125b9d985b1a59081cdd5c1c1bdc9d608a1b6044820152606490fd5b346104a85760203660031901126104a8576001600160a01b036119a361405e565b165f526015602052602060ff60405f205416604051908152f35b346104a85760203660031901126104a85761ffff6119d96140aa565b165f52601a60205261127a6119f060405f206141ae565b604051918291602083526020830190614271565b346104a85760603660031901126104a857611a1d61405e565b611a2561404f565b6044359160ff83168093036104a85760207fa0aa2b85df88566521daa2ac1eb0694994372f9f1e64a41307f9d06a571f921291611a60614a8d565b60018060a01b031692835f5260148252611a7d8160405f20614461565b6015825260405f208560ff198254161790556040519015158152a3005b346104a85760403660031901126104a857611ab361405e565b611abb61408a565b90611acd611ac883614c46565b614790565b60018060a01b03165f52601360205260ff60405f2091165f52602052602060ff60405f2054166040519015158152f35b346104a85760403660031901126104a857611b1661405e565b611b1e61404f565b6001600160a01b0390911690338214611b8057335f52600160205260405f20825f52602052611b508160405f20614461565b60405190151581527f17307eab39ab6107e8899845ad3d59bd9653f200f220920489ca2b5937696c3160203392a3005b60405162461bcd60e51b815260206004820152602960248201527f455243313135353a2073657474696e6720617070726f76616c20737461747573604482015268103337b91039b2b63360b91b6064820152608490fd5b346104a8576020806003193601126104a8576001600160401b036004358181116104a857611c0c611c1b913690600401614296565b611c14614a8d565b3691614361565b91825191821161099d57611c306002546140cc565b601f8111611cca575b5080601f8311600114611c6a57508190611c5a935f92611c5f57505061489d565b600255005b015190508380610bbd565b90601f1983169360025f52825f20925f905b868210611cb25750508360019510611c9a575b505050811b01600255005b01515f1960f88460031b161c19169055828080611c8f565b80600185968294968601518155019501930190611c7c565b60025f52815f20601f840160051c810191838510611d04575b601f0160051c01905b818110611cf95750611c39565b5f8155600101611cec565b9091508190611ce3565b346104a85760203660031901126104a857600435611d2a614a8d565b8015611d66576040817f1e1223c1f6274c6d64fdb08c485e192bd2896c9abf70e840e199ac1f54d6d1d5926008558151908152426020820152a1005b60405162461bcd60e51b815260206004820152600b60248201526a24b73b30b634b2102720ab60a91b6044820152606490fd5b346104a85760203660031901126104a8576001600160a01b03611dba61405e565b165f52601460205260ff60405f20541680611ddd575b6020906040519015158152f35b5060156020526020600260ff60405f20541610159050611dd0565b346104a85760403660031901126104a857611e1161405e565b611e1961408a565b9060018060a01b03165f52601f60205260ff60405f2091165f52602052602060405f2054604051908152f35b346104a8575f3660031901126104a857602060405160048152f35b346104a8575f3660031901126104a8576003546040516001600160a01b039091168152602090f35b346104a85760203660031901126104a8577f181f92f68826a8d2b5b97d27f9e18d05a337290356fabf5b717154077dbea9336040600435611ec7614a8d565b80600c5542600a558151908152426020820152a1005b346104a85760803660031901126104a8576040611ef86140aa565b611f006140bb565b5f90604435606435611f13828633614ffc565b9461ffff918285169485151580611f86575b611f68575b508751938452602084015216907f031b66f6d8a6a3252233defe3a4204c77215f4ddd23783ce33b9b3d9a86b6ac6863392a482519182526020820152f35b81611f7f929750611f7842614ae5565b91336151b4565b9488611f2a565b50811515611f25565b346104a85760203660031901126104a85761ffff611fab6140aa565b165f52601d60205261127a6119f060405f206141ae565b346104a85760203660031901126104a8576004355f526012602052602060ff60405f205416604051908152f35b346104a8575f3660031901126104a8576020600454604051908152f35b346104a8575f3660031901126104a857602060405160018152f35b346104a85760403660031901126104a85761204061405e565b6120486140bb565b9060018060a01b03165f52601960205261ffff60405f2091165f52602052602060405f2054604051908152f35b346104a85760403660031901126104a85761208e61409a565b612096614074565b6120a76120a283614fa7565b614a2d565b6001600160a01b0381169081156121db578133036121a557815f526020926011845260ff60405f20911690815f52845260ff60405f205416612169576004549260018401808511610dc457600455805f526011855260405f20825f52855260405f2060ff1990600182825416179055845f52601286528260405f20918254161790558160640180606411610dc457849361215091604051916121488361413a565b5f8352614e1b565b5f80516020615afb8339815191525f80a4604051908152f35b60405162461bcd60e51b815260048101859052601460248201527310985919d948185b1c9958591e481b5a5b9d195960621b6044820152606490fd5b60405162461bcd60e51b815260206004820152600e60248201526d13db9b1e481cd95b19881b5a5b9d60921b6044820152606490fd5b60405162461bcd60e51b8152602060048201526011602482015270125b9d985b1a59081c9958da5c1a595b9d607a1b6044820152606490fd5b346104a8575f3660031901126104a85761222c614a8d565b600380546001600160a01b031981169091555f906001600160a01b03165f80516020615a3b8339815191528280a3005b346104a8575f3660031901126104a8576010546040516001600160a01b039091168152602090f35b346104a8575f3660031901126104a857602060405160078152f35b346104a85760403660031901126104a8576122b861405e565b6122c061408a565b906122cd6120a283614fa7565b60018060a01b03165f52601160205260ff60405f2091165f52602052602060ff60405f2054166040519015158152f35b346104a85760603660031901126104a85760043560243560443590335f5260206017815260405f206201518042046018835260405f20805460ff81161561242d575b5050600582018181540361241f575b50506006810180549160038310156123de57806004915488136123ca575b4260038201550180549060018201809211610dc4575560018201809211610dc4575560405193845283015260408201524260608201527ff6d69723c1e13a6e751ff8839d394f04ffffc588fdd13a7cfd1fdfc1bf87ebe160803392a2005b87815585600182015586600282015561236c565b60405162461bcd60e51b815260048101859052601960248201527811185a5b1e481cd8dbdc99481b1a5b5a5d081c995858da1959603a1b6044820152606490fd5b555f6006820155858061234e565b60ff191660011790558254600160401b81101561099d5780600161245392018555614a15565b81546001600160a01b0360039290921b91821b19163390911b179055868061233f565b346104a85761ffff61248736614408565b91612493939193614a8d565b16916124a0831515614810565b825f52602090601b825260405f2060018060401b03841161099d576124c9846108ca83546140cc565b5f601f85116001146124fc57916109189161090486805f805160206159bb8339815191529897965f9161091d575061489d565b601f19851690825f52845f20915f5b8181106125405750916109189391875f805160206159bb833981519152989796941061096d575050600185811b019055610907565b91928660018192868901358155019401920161250b565b346104a857600319602036820181136104a8576001600160401b0390600435908282116104a857366023830112156104a85781600401359283116104a8576024820191602436918560051b0101116104a8576125b283614980565b5f5b84811061275a57506125c73685856142da565b92604051946125d58661413a565b5f86526125e3331515614dc5565b6125f08551845114614c72565b5f5b85518110156126395780612608600192866149b2565b5161261382896149b2565b515f525f875260405f20335f52875261263160405f209182546148af565b9055016125f2565b5084868594896040515f33915f805160206158db833981519152339180612661888b83614d88565b0390a4333b6126a4575b505050509091505f5b81811061267d57005b8061268b6001928486614a05565b35335f805160206159db8339815191525f80a301612674565b86916127006126f19260405195869485946126e163bc197c8160e01b9a8b88523360048901525f602489015260a0604489015260a48801906143b2565b90848783030160648801526143b2565b91848303016084850152614271565b03815f335af15f918161273b575b5061271c5784610795615703565b92935090916001600160e01b031916036108055781908380808061266b565b612753919250863d881161084657610837818361418b565b908661270e565b8061278661150d61276e6001948989614a05565b3561278061277b82614dad565b61493e565b33614509565b8161279182856149b2565b52016125b4565b346104a85760403660031901126104a857602061110b6127b66140aa565b61144b42614ae5565b346104a85760403660031901126104a8576127d861405e565b6127e06140bb565b9060018060a01b03165f52602160205261ffff60405f2091165f5260205260405f20805461127a60018301549261281e6003600283015492016141ae565b90604051948594856143e5565b346104a85760203660031901126104a85761ffff6128476140aa565b165f52601c60205261127a6119f060405f206141ae565b346104a8575f3660031901126104a857602060405160088152f35b346104a8576020806003193601126104a8576001600160401b036004358181116104a8576128ab903690600401614296565b90916128b5614a8d565b811161099d576128c6600d546140cc565b601f811161299c575b505f92601f821160011461292e576128fd82805f80516020615abb833981519152965f91612923575061489d565b600d555b612918604051938493604085526040850191614770565b9042908301520390a1005b9050850135876108fe565b601f19821693600d5f52815f20905f5b8681106129855750835f80516020615abb833981519152961061296c575b5050600182811b01600d55612901565b8401355f19600385901b60f8161c19169055848061295c565b90918360018192858901358155019301910161293e565b600d5f52835f20601f830160051c8101918584106129d6575b601f0160051c01905b8181106129cb57506128cf565b5f81556001016129be565b90915081906129b5565b346104a8576020806003193601126104a8576129fa61405e565b6001600160a01b038116908115612bdd57813303612ba757815f526011835260405f20600190815f52845260ff60405f2054166121695760045492818401808511610dc457600455805f526011855260405f20825f52855260405f2060ff19908382825416179055845f52601286528260405f2091825416179055604051612a818161413a565b5f8152604051612a9081614155565b838152868101908736833751156110915760659052612aad6157e0565b5060655f525f865260405f20825f52865260405f20938454848101809111610dc457869555825f60405160658152868a8201525f8051602061591b83398151915260403392a43b612b13575b505f80516020615afb8339815191525f80a4604051908152f35b909250604051858180612b5563f23a6e6160e01b958683523360048401525f60248401526065604484015287606484015260a0608484015260a4830190614271565b03815f885af15f9181612b88575b50612b715785610795615703565b6001600160e01b0319160361080557829185612af9565b612ba0919250873d891161084657610837818361418b565b9087612b63565b60405162461bcd60e51b815260048101849052600e60248201526d13db9b1e481cd95b19881b5a5b9d60921b6044820152606490fd5b60405162461bcd60e51b8152600481018490526011602482015270125b9d985b1a59081c9958da5c1a595b9d607a1b6044820152606490fd5b346104a85760603660031901126104a857612c2f61409a565b602435604435612c41611ac884614c46565b612c5061150d61278085614c61565b612c5b8115156149c6565b60ff831692600184148015612d65575b612d21575b335f52612cc66020916013835260405f20865f52835260405f20600160ff19825416179055335f52601f835260405f20865f5283528460405f2055335f52601e835260405f20865f5283528360405f2055614c61565b612cd08133614509565b15612cd757005b604051612cf091612ce78261413a565b5f825233614e1b565b6040519284335f805160206159fb8339815191525f80a383528201525f80516020615adb83398151915260403392a3005b5f8313612c705760405162461bcd60e51b8152602060048201526015602482015274141bdcda5d1a5d9948141b93081c995c5d5a5c9959605a1b6044820152606490fd5b5060038414612c6b565b346104a85760403660031901126104a8576004356001600160401b038082116104a857366023830112156104a857816004013590612dac826142c3565b92612dba604051948561418b565b82845260209260248486019160051b830101913683116104a857602401905b828210612ec4575050506024359081116104a857612dfb903690600401614328565b8251815103612e6d57612e0e8351614980565b925f5b8151811015612e5657600190612e456001600160a01b03612e3283866149b2565b5116612e3e83876149b2565b5190614509565b612e4f82886149b2565b5201612e11565b50505061127a6040519282849384528301906143b2565b60405162461bcd60e51b815260048101839052602960248201527f455243313135353a206163636f756e747320616e6420696473206c656e677468604482015268040dad2e6dac2e8c6d60bb1b6064820152608490fd5b81356001600160a01b03811681036104a8578152908401908401612dd9565b346104a85760203660031901126104a8576001600160a01b03612f0461405e565b165f526014602052602060ff60405f2054166040519015158152f35b346104a8575f3660031901126104a8576020600a54604051908152f35b346104a85760203660031901126104a8576004355f526016602052602060ff60405f2054166040519015158152f35b346104a8575f3660031901126104a8576020600954604051908152f35b346104a85760203660031901126104a8576001600160a01b03612faa61405e565b165f52601160205260405f2060015f52602052602060ff60405f2054166040519015158152f35b346104a85760203660031901126104a857600435612ff161277b82614dad565b612ffe61150d8233614509565b61301760405161300d8161413a565b5f81528233614e1b565b335f805160206159db8339815191525f80a3005b346104a85760203660031901126104a8576004355f52602560205261ffff60405f2061127a8154916130646002600183015492016141ae565b9060405194859460018060a01b038116865260a01c1660208501526040840152608060608401526080830190614271565b346104a8575f3660031901126104a857602060405160098152f35b346104a8575f3660031901126104a857604051600e545f826130d1836140cc565b91828252602093600190856001821691825f14613150575050600114613113575b506130ff9250038361418b565b61127a604051928284938452830190614271565b849150600e5f52815f20905f915b8583106131385750506130ff9350820101856130f2565b80548389018501528794508693909201918101613121565b60ff1916858201526130ff95151560051b85010192508791506130f29050565b346104a8575f3660031901126104a85760208054604051908152f35b346104a85760031960a0368201126104a8576131a661405e565b906131af614074565b906001600160401b03906044358281116104a8576131d1903690600401614328565b6064358381116104a8576131e9903690600401614328565b926084359081116104a857613202903690600401614397565b6001600160a01b039586169590929033871480156133db575b613224906148db565b6132318351865114614c72565b85169261323f841515614ccf565b5f5b83518110156132c35780613257600192866149b2565b5161326282896149b2565b5190805f526020905f825260405f208c5f5282528260405f205461328882821015614d29565b825f525f84528d60405f20905f5284520360405f20555f525f815260405f2090885f52526132bb60405f209182546148af565b905501613241565b5090949392919382876040515f805160206158db8339815191523391806132eb8a8c83614d88565b0390a43b6132f557005b5f6020946133366126f1976126e194604051998a988997889663bc197c8160e01b9e8f89523360048a0152602489015260a0604489015260a48801906143b2565b03925af15f91816133ba575b506133a95761334f615703565b6308c379a0146133725760405162461bcd60e51b8152806107b96004820161578b565b61337a61571e565b8061338557506107a0565b60405162461bcd60e51b8152602060048201529081906107b9906024830190614271565b6001600160e01b0319160361080557005b6133d491925060203d60201161084657610837818361418b565b9083613342565b50865f52600160205260405f20335f5260205261322460ff60405f205416905061321b565b346104a8575f3660031901126104a8576020600c54604051908152f35b346104a85760203660031901126104a857602061110b61343b6140aa565b6148bc565b346104a85760403660031901126104a8576001600160a01b0361346161405e565b165f52602360205260405f206024355f52602052602060405f2054604051908152f35b346104a8575f3660031901126104a8576020600754604051908152f35b346104a85760403660031901126104a8576134ba61405e565b6134c261408a565b9060018060a01b03165f52601e60205260ff60405f2091165f52602052602060405f2054604051908152f35b346104a8575f3660031901126104a85760206040516127108152f35b346104a8575f3660031901126104a8576020600854604051908152f35b346104a8575f3660031901126104a857602060405160058152f35b346104a85760603660031901126104a85761355b6140aa565b6001600160401b03906024358281116104a85761357c903690600401614296565b6044358481116104a85761359761ffff913690600401614296565b9190946135a2614a8d565b16936135af851515614810565b845f52602095601c875260405f2081851161099d576135d2856108ca83546140cc565b5f85601f81116001146136fa57806135f0925f916136ef575061489d565b90555b855f52601d875260405f2090831161099d57613613836108ca83546140cc565b5f601f84116001146136795791839161364783610918965f8051602061595b8339815191529a9b965f9161366e575061489d565b90555b613661604051968796604088526040880191614770565b9285840390860152614770565b90508401358c6108fe565b601f19841690825f52885f20915f5b8181106136d8575091859391610918965f8051602061595b8339815191529a9b9694106136bf575b5050600183811b01905561364a565b8301355f19600386901b60f8161c1916905589806136b0565b91928a600181928689013581550194019201613688565b90508801358b6108fe565b50601f19861690825f52868a5f20925f5b8c8282106137435750501061372a575b5050600185811b0190556135f3565b8701355f19600388901b60f8161c19169055888061371b565b8b8501358655600190950194938401938a93500161370b565b346104a8576020806003193601126104a85761377661409a565b90613783611ac883614c46565b61379261150d61278084614c61565b335f52601381526137eb60405f209260ff811693845f52835260405f20600160ff19825416179055335f52601f835260405f20845f5283525f6040812055335f52601e835260405f20845f5283525f6040812055614c61565b6137f58133614509565b156137fc57005b60405161380c91612ce78261413a565b5f6040519183335f805160206159fb8339815191528480a38183528201525f80516020615adb83398151915260403392a3005b346104a85760603660031901126104a85760043561385b61404f565b6044356001600160401b0381116104a8577f5cd61427930ab89a7ffdd8646dd284f02d4ec213a21d6dcaab300350e80066119161389f610918923690600401614296565b92906138a9614a8d565b855f5260166020526138be8360405f20614461565b60405193849315158452604060208501526040840191614770565b346104a8575f3660031901126104a857604051600d545f826138fa836140cc565b91828252602093600190856001821691825f1461315057505060011461392757506130ff9250038361418b565b849150600d5f52815f20905f915b85831061394c5750506130ff9350820101856130f2565b80548389018501528794508693909201918101613935565b346104a8575f3660031901126104a857604051600f545f82613985836140cc565b91828252602093600190856001821691825f146131505750506001146139b257506130ff9250038361418b565b849150600f5f52815f20905f915b8583106139d75750506130ff9350820101856130f2565b805483890185015287945086939092019181016139c0565b346104a8576020806003193601126104a857600435613a0d42614ae5565b60ff600b5416613e51576009548210613e1c57613a2b821515614fc2565b604051613a378161413a565b5f8152613a45331515614dc5565b60405191613a5283614155565b60019182845285840193863686375115611091576103e9809452613a7585615807565b50835f525f865260405f20335f52865260405f20613a948682546148af565b905560405184815285878201525f33915f8051602061591b83398151915260403392a4333b613d8e575b50335f526019855260405f20825f52855260405f20613ade8582546148af565b9055613ae861582c565b926003604051613af781614104565b868152878101878152604082019042825260608301978852335f5260218a5260405f20875f528a5260405f2092518355518683015551600282015501935193845160018060401b039586821161099d57613b5b82613b5585546140cc565b8561484e565b8890601f8311600114613d3057613b7b92915f9183613cc757505061489d565b90555b6006549383850190818611610dc45785916006556003604051613ba08161411f565b338152888a613bf261ffff8285018b81526024604087019486865260608801968752608088019a8d8c525f525260405f209560018060a01b0390511660018060a01b0319875416178655511684614a6e565b5188830155516002820155019151805191821161099d57613c1782613b5585546140cc565b8890601f8311600114613cd257613c3792915f9183613cc757505061489d565b90555b613c53604051613c498161413a565b5f81528533614e1b565b60405185815285878201525f80516020615a9b83398151915260403392a282613c7a61582c565b5f80516020615a5b83398151915260405180613c9a3394428c80856143e5565b0390a45f8051602061593b8339815191526040518581526040878201528061168c33946040830190614271565b015190508a80610bbd565b869291601f19831691855f528b5f20925f5b8d828210613d1a5750508411613d02575b505050811b019055613c3a565b01515f1960f88460031b161c19169055898080613cf5565b8385015186558b97909501949384019301613ce4565b869291601f19831691855f528b5f20925f5b8d828210613d785750508411613d60575b505050811b019055613b7e565b01515f1960f88460031b161c19169055898080613d53565b8385015186558b97909501949384019301613d42565b604051868180613dcc63f23a6e6160e01b958683523360048401525f60248401528960448401528a606484015260a0608484015260a4830190614271565b03815f335af15f9181613dfd575b50613de85786610795615703565b6001600160e01b031916036108055785613abe565b613e15919250883d8a1161084657610837818361418b565b9088613dda565b60405162461bcd60e51b815260048101849052600d60248201526c42656c6f77206d696e696d756d60981b6044820152606490fd5b60405162461bcd60e51b815260048101849052601460248201527314dd589cd8dc9a5c1d1a5bdb9cc81c185d5cd95960621b6044820152606490fd5b346104a85760203660031901126104a85761127a6119f0600435614531565b346104a85760203660031901126104a85761ffff613ec86140aa565b165f52601b60205261127a6119f060405f206141ae565b346104a85760203660031901126104a857612710600435818102918115918304141715610dc457600854908115613f1c5760209160405191048152f35b634e487b7160e01b5f52601260045260245ffd5b346104a85760203660031901126104a85760043563ffffffff60e01b81168091036104a857602090636cdb3d1360e11b8114908115613f8d575b8115613f7c575b506040519015158152f35b6301ffc9a760e01b14905082613f71565b6303a24d0760e21b81149150613f6a565b346104a85760403660031901126104a857613fb761405e565b613fbf61408a565b9060018060a01b03165f52601160205260ff60405f2091165f52602052602060ff60405f2054166040519015158152f35b346104a85760403660031901126104a857602061110b61400e61405e565b60243590614509565b346104a85760203660031901126104a8576004358015158091036104a85761403d614a8d565b60ff8019600b5416911617600b555f80f35b6024359081151582036104a857565b600435906001600160a01b03821682036104a857565b602435906001600160a01b03821682036104a857565b6024359060ff821682036104a857565b6004359060ff821682036104a857565b6004359061ffff821682036104a857565b6024359061ffff821682036104a857565b90600182811c921680156140fa575b60208310146140e657565b634e487b7160e01b5f52602260045260245ffd5b91607f16916140db565b608081019081106001600160401b0382111761099d57604052565b60a081019081106001600160401b0382111761099d57604052565b602081019081106001600160401b0382111761099d57604052565b604081019081106001600160401b0382111761099d57604052565b606081019081106001600160401b0382111761099d57604052565b601f909101601f19168101906001600160401b0382119082101761099d57604052565b9060405191825f82546141c0816140cc565b908184526020946001916001811690815f1461422e57506001146141f0575b5050506141ee9250038361418b565b565b5f90815285812095935091905b8183106142165750506141ee93508201015f80806141df565b855488840185015294850194879450918301916141fd565b925050506141ee94925060ff191682840152151560051b8201015f80806141df565b5f5b8381106142615750505f910152565b8181015183820152602001614252565b9060209161428a81518092818552858086019101614250565b601f01601f1916010190565b9181601f840112156104a8578235916001600160401b0383116104a857602083818601950101116104a857565b6001600160401b03811161099d5760051b60200190565b92916142e5826142c3565b916142f3604051938461418b565b829481845260208094019160051b81019283116104a857905b8282106143195750505050565b8135815290830190830161430c565b9080601f830112156104a857816020614343933591016142da565b90565b6001600160401b03811161099d57601f01601f191660200190565b92919261436d82614346565b9161437b604051938461418b565b8294818452818301116104a8578281602093845f960137010152565b9080601f830112156104a85781602061434393359101614361565b9081518082526020808093019301915f5b8281106143d1575050505090565b8351855293810193928101926001016143c3565b909260809261434395948352602083015260408201528160608201520190614271565b9060406003198301126104a85760043561ffff811681036104a85791602435906001600160401b0382116104a85761444291600401614296565b9091565b346104a8575f3660031901126104a857602060405160028152f35b9060ff801983541691151516179055565b6001600160a01b031680156144b1575f9081527f8768e3ed19a5d00be410e8d8ad51c65c3aa78049339b9ad4303f61914e359db3602052604090205490565b60405162461bcd60e51b815260206004820152602a60248201527f455243313135353a2061646472657373207a65726f206973206e6f742061207660448201526930b634b21037bbb732b960b11b6064820152608490fd5b6001600160a01b03169081156144b1575f525f60205260405f20905f5260205260405f205490565b6010546001600160a01b031690816146c7575b61454e9150614ae5565b61434361012060405180937a19185d184e985c1c1b1a58d85d1a5bdb8bda9cdbdb8edd5d198e0b602a1b60208301527f7b226e616d65223a225269736b4c656e732044656d6f20436f6c6c6563746962603b8301527f6c65222c226465736372697074696f6e223a225269736b4c656e73205365706f605b8301527f6c696120636f6c6c65637469626c652e20436f6e66696775726520746865206d607b8301527f657461646174612072656e646572657220666f722066756c6c20636f76657220609b8301527f6172742e222c2261747472696275746573223a5b7b2274726169745f7479706560bb8301527f223a224e6574776f726b222c2276616c7565223a225365706f6c6961227d2c7b60db8301527f2274726169745f74797065223a22546f6b656e204944222c2276616c7565223a60fb830152601160f91b61011b83015261011c906146a98151809260208587019101614250565b82019063227d5d7d60e01b908201520361010081018452018261418b565b5f602492604051938480926303a24d0760e21b82528560048301525afa5f92816146f6575b5015614544575090565b9092503d805f833e614708818361418b565b8101906020818303126104a8578051906001600160401b0382116104a8570181601f820112156104a857805161473d81614346565b9261474b604051948561418b565b818452602082840101116104a8576147699160208085019101614250565b915f6146ec565b908060209392818452848401375f828201840152601f01601f1916010190565b1561479757565b60405162461bcd60e51b8152602060048201526013602482015272496e76616c6964207765616c7468207461736b60681b6044820152606490fd5b156147d957565b60405162461bcd60e51b815260206004820152600f60248201526e105b1c9958591e4818db185a5b5959608a1b6044820152606490fd5b1561481757565b60405162461bcd60e51b815260206004820152600f60248201526e125b9d985b1a59081c1c9bd91d58dd608a1b6044820152606490fd5b601f821161485b57505050565b5f5260205f20906020601f840160051c83019310614893575b601f0160051c01905b818110614888575050565b5f815560010161487d565b9091508190614874565b8160011b915f199060031b1c19161790565b91908201809211610dc457565b61ffff166148cb811515614810565b6103e8908101809111610dc45790565b156148e257565b60405162461bcd60e51b815260206004820152602e60248201527f455243313135353a2063616c6c6572206973206e6f7420746f6b656e206f776e60448201526d195c881bdc88185c1c1c9bdd995960921b6064820152608490fd5b1561494557565b60405162461bcd60e51b8152602060048201526013602482015272125b9d985b1a59081858da1a595d995b595b9d606a1b6044820152606490fd5b9061498a826142c3565b614997604051918261418b565b82815280926149a8601f19916142c3565b0190602036910137565b80518210156110915760209160051b010190565b156149cd57565b60405162461bcd60e51b815260206004820152601060248201526f4d697373696e672065766964656e636560801b6044820152606490fd5b91908110156110915760051b0190565b6020548110156110915760205f5260205f2001905f90565b15614a3457565b60405162461bcd60e51b8152602060048201526012602482015271496e76616c696420686f6d6520626164676560701b6044820152606490fd5b805461ffff60a01b191660a09290921b61ffff60a01b16919091179055565b6003546001600160a01b03163303614aa157565b606460405162461bcd60e51b815260206004820152602060248201527f4f776e61626c653a2063616c6c6572206973206e6f7420746865206f776e65726044820152fd5b5f908072184f03e93ff9f4daa797ed6e38ed64bf6a1f0160401b80821015614c38575b506904ee2d6d415b85acef8160201b80831015614c29575b50662386f26fc1000080831015614c1a575b506305f5e10080831015614c0b575b5061271080831015614bfc575b506064821015614bec575b600a80921015614be2575b6001908160216001860195614b7887614346565b96614b86604051988961418b565b808852614b95601f1991614346565b01366020890137860101905b614bad575b5050505090565b5f19019083906f181899199a1a9b1b9c1cb0b131b232b360811b8282061a835304918215614bdd57919082614ba1565b614ba6565b9160010191614b64565b9190606460029104910191614b59565b6004919392049101915f614b4e565b6008919392049101915f614b41565b6010919392049101915f614b32565b6020919392049101915f614b20565b60409350810491505f614b08565b60ff1660018110159081614c58575090565b60039150111590565b60ff1660c8018060c811610dc45790565b15614c7957565b60405162461bcd60e51b815260206004820152602860248201527f455243313135353a2069647320616e6420616d6f756e7473206c656e677468206044820152670dad2e6dac2e8c6d60c31b6064820152608490fd5b15614cd657565b60405162461bcd60e51b815260206004820152602560248201527f455243313135353a207472616e7366657220746f20746865207a65726f206164604482015264647265737360d81b6064820152608490fd5b15614d3057565b60405162461bcd60e51b815260206004820152602a60248201527f455243313135353a20696e73756666696369656e742062616c616e636520666f60448201526939103a3930b739b332b960b11b6064820152608490fd5b9091614d9f614343936040845260408401906143b2565b9160208184039101526143b2565b60068110159081614dbc575090565b600a9150111590565b15614dcc57565b60405162461bcd60e51b815260206004820152602160248201527f455243313135353a206d696e7420746f20746865207a65726f206164647265736044820152607360f81b6064820152608490fd5b91906001600160a01b038316614e32811515614dc5565b614e3b82615807565b50614e446157e0565b50815f526020925f8452604094855f20835f528552855f2080549060018201809211610dc45755825f87518681526001888201525f8051602061591b833981519152893392a43b614e97575b5050505050565b92614ede5f9286979583975194858094819363f23a6e6160e01b998a845233600485015284602485015260448401526001606484015260a0608484015260a4830190614271565b03925af15f9181614f88575b50614f5157505050614efa615703565b6308c379a014614f1d575b505162461bcd60e51b8152806107b96004820161578b565b614f2561571e565b9081614f315750614f05565b6107b9835192839262461bcd60e51b845260048401526024830190614271565b919392506001600160e01b031990911603614f7157505f80808080614e90565b5162461bcd60e51b8152806107b9600482016156ba565b614fa0919250853d871161084657610837818361418b565b905f614eea565b60ff1660018110159081614fb9575090565b60059150111590565b15614fc957565b60405162461bcd60e51b815260206004820152600b60248201526a5a65726f2073686172657360a81b6044820152606490fd5b90929161ffff841690615010821515614810565b61501b811515614fc2565b61502581956148bc565b926001600160a01b03169081156151765761503f84615807565b5061504981615807565b5060405f81516150588161413a565b52845f5260205f8152815f20845f528152815f205483811061513a578390875f525f8352835f20865f52835203825f20555f84835188815285848201525f8051602061591b833981519152853392a45f82516150b38161413a565b525f848152601982528281208682528252829020549283811061511c575f80516020615a7b83398151915293505f5b855f5260198352835f20875f528352835f2055845f80516020615b1b8339815191528480518481528486820152a2825191818352820152a4565b808403938411610dc4575f80516020615a7b833981519152936150e2565b50608491519062461bcd60e51b825260048201526024808201525f80516020615a1b833981519152604482015263616e636560e01b6064820152fd5b60405162461bcd60e51b815260206004820152602360248201525f8051602061597b83398151915260448201526265737360e81b6064820152608490fd5b9091939260ff600b541661565e5761ffff926151d38482161515614810565b600954861061562957856151e8811515614fc2565b6151f1826148bc565b94604051906151ff8261413a565b5f82526001600160a01b03916152188784161515614dc5565b61522188615807565b5061522b84615807565b50875f525f60205260405f208388165f5260205260405f2061524e8582546148af565b90556040518881528460208201525f848916915f8051602061591b83398151915260403392a4863b615597575b508186165f52601960205260405f208185165f5260205260405f206152a18482546148af565b90556152ac846158c3565b9660036040516152bb81614104565b858152602081018681526040820190428252606083019b8c52868b165f52602160205260405f20868a165f5260205260405f209251835551600183015551600282015501975197885160018060401b03998a821161099d5761532182613b5585546140cc565b602090601f83116001146155335761534292915f9183610cba57505061489d565b90555b6006549760018901808a11610dc457600655604051906153648261411f565b8489168252878a60208401868a1681526153b48760408701928b845260608801948c8652608089019687525f5260246020528a60405f2098511660018060a01b0319895416178855511686614a6e565b51600185015551600284015551805191821161099d576153e4826153db60038601546140cc565b6003860161484e565b602090601f83116001146154b15761541f835f8051602061593b8339815191529a999896946154ac9896946003945f92610cba57505061489d565b9101555b61543c6040516154328161413a565b5f81528b8b614e1b565b6040518581528560208201525f80516020615a9b8339815191526040858c1692a288615467876158c3565b5f80516020615a5b8339815191526040518061548c88888d16961694428c80856143e5565b0390a4604051948594855260406020860152169616946040830190614271565b0390a4565b90600384015f5260205f20915f5b601f198516811061551b5750836154ac9795936003936001935f8051602061593b8339815191529d9c9b9997601f19811610615504575b505050811b01910155615423565b01515f1983861b60f8161c191690555f80806154f6565b919260206001819286850151815501940192016154bf565b90601f19831691845f5260205f20925f5b81811061557f5750908460019594939210615567575b505050811b019055615345565b01515f1960f88460031b161c191690555f808061555a565b92936020600181928786015181550195019301615544565b604051602081806155d663f23a6e6160e01b958683523360048401525f60248401528d604484015289606484015260a0608484015260a4830190614271565b03815f888d165af15f9181615608575b506155f35761334f615703565b6001600160e01b03191603610805575f61527b565b61562291925060203d60201161084657610837818361418b565b905f6155e6565b60405162461bcd60e51b815260206004820152600d60248201526c42656c6f77206d696e696d756d60981b6044820152606490fd5b60405162461bcd60e51b815260206004820152601460248201527314dd589cd8dc9a5c1d1a5bdb9cc81c185d5cd95960621b6044820152606490fd5b908160209103126104a857516001600160e01b0319811681036104a85790565b60809060208152602860208201527f455243313135353a204552433131353552656365697665722072656a656374656040820152676420746f6b656e7360c01b60608201520190565b5f9060033d1161570f57565b905060045f803e5f5160e01c90565b5f60443d1061434357604051600319913d83016004833e81516001600160401b03918282113d60248401111761577a57818401948551938411615782573d8501016020848701011161577a57506143439291016020019061418b565b949350505050565b50949350505050565b60809060208152603460208201527f455243313135353a207472616e7366657220746f206e6f6e2d455243313135356040820152732932b1b2b4bb32b91034b6b83632b6b2b73a32b960611b60608201520190565b6040516157ec81614155565b60018152602081016020368237815115611091576001905290565b6040519061581482614155565b60018252602082016020368237825115611091575290565b60015f52601b60205261585e7f9fafca4c9c0d5c2cbf85f49fd8ab8212430ce78c2a0cb75b51e0f9c4f9ace0036141ae565b8051614343575060405161587181614170565b603c81527f536574746c656d656e74207465726d73207265636f7264656420696e2074686560208201527b205269736b4c656e73205765616c74682064657461696c207061676560201b604082015290565b61ffff165f52601b60205261585e60405f206141ae56fe4a39dc06d4c0dbc64b70af90fd698a233a518aa5d07e595d983b8c0526c8f7fb866aab14c7f7439fa866f885f22e8a9fce19f006d3956137b07f4284346bac9cc3d58168c5ae7397731d063d5bbf3d657854427343f4c083240f7aacaa2d0f62d054490758ccb582307891c51bcbd8e7626fa40eaea4b9f7374c916dca2be628309eb5725bc0fcc8192e7491a4adaaf2ebbfb008e6f1062f264953c0976e27b7455243313135353a206275726e2066726f6d20746865207a65726f2061646472ee734f4dc9367a19993b3dd18a799f252c2874ef9d7388163aa9c16cb0011100b16cf5b05c6e7e92f2299a1d0894bbf220a63a7b1ccc786436c3d89d18df7bbe04844d30b922ffc2b845400eb2a15cdd62742176c723e09d7cc9703e83645e4bbd1ae2c6d13c1a8dc9dbe03823192cb9ab92b45e5b9264dd65b2794c526e6f9f455243313135353a206275726e20616d6f756e7420657863656564732062616c8be0079c531659141344cd1fd0a4f28419497f9722a3daafe3b4186f6b6457e09ec85e292a34c98a43e8ffe45de1c625bdfe7e8efc23f4a9da12895a70b358157c7917c3334372c8a1ab0009b4314b5fa722b2ae8bb2603b7195279aeb45a37af94991dcbea6e8ac439cbc93bd9c62a4d39f04e0ad656df9a703f13552c2787f09fb0a9f79f07cf16c95b92623175f408d609663d7868ae62581439d923470bdcfdb31fa548aa2c58dcf9c124e888cfd6afefe9fe228a5cc829205ab69b69e0c4c7380f1d23a71f74fa1303f23b7100826e4a89a4e47b2985e5c708e47a19b3af3a670cd3af7d64b488926880889d08a8585a138ff455227af6737339a1ec262683c55aed4ead4746321e8659fb2c565dd8e202a7a594f73a71e3f57607e1bd0a26469706673582212200fd2d39f95ca4ea50f8844653cd0faddfea7a309145c64809aa28f7667770a0564736f6c63430008180033","opcodes":"PUSH1 0x80 PUSH1 0x40 MSTORE CALLVALUE PUSH3 0x35B JUMPI PUSH3 0x5F69 DUP1 CODESIZE SUB DUP1 PUSH3 0x1D DUP2 PUSH3 0x35F JUMP JUMPDEST SWAP3 DUP4 CODECOPY DUP2 ADD SWAP1 PUSH1 0x20 SWAP2 DUP3 DUP3 DUP3 SUB SLT PUSH3 0x35B JUMPI DUP2 MLOAD PUSH1 0x1 PUSH1 0x1 PUSH1 0x40 SHL SUB SWAP3 DUP4 DUP3 GT PUSH3 0x35B JUMPI ADD SWAP2 PUSH1 0x1F SWAP2 DUP1 DUP4 DUP6 ADD SLT ISZERO PUSH3 0x35B JUMPI DUP4 MLOAD SWAP4 DUP3 DUP6 GT PUSH3 0x333 JUMPI PUSH1 0x1F NOT SWAP5 PUSH3 0x73 DUP6 DUP3 ADD DUP8 AND DUP9 ADD PUSH3 0x35F JUMP JUMPDEST SWAP3 DUP2 DUP5 MSTORE DUP8 DUP3 DUP5 ADD ADD GT PUSH3 0x35B JUMPI DUP7 SWAP2 PUSH0 JUMPDEST DUP3 DUP2 LT PUSH3 0x347 JUMPI POP POP SWAP1 PUSH0 SWAP2 DUP4 ADD ADD MSTORE DUP1 MLOAD SWAP2 DUP3 GT PUSH3 0x333 JUMPI PUSH3 0xAE PUSH1 0x2 SLOAD PUSH3 0x385 JUMP JUMPDEST DUP4 DUP2 GT PUSH3 0x2F7 JUMPI JUMPDEST POP DUP5 SWAP4 DUP4 DUP4 GT PUSH1 0x1 EQ PUSH3 0x294 JUMPI POP SWAP3 DUP2 SWAP3 SWAP4 PUSH0 SWAP3 PUSH3 0x288 JUMPI JUMPDEST POP POP DUP2 PUSH1 0x1 SHL SWAP2 PUSH0 NOT SWAP1 PUSH1 0x3 SHL SHR NOT AND OR PUSH1 0x2 SSTORE JUMPDEST PUSH1 0x3 DUP1 SLOAD CALLER PUSH1 0x1 PUSH1 0x1 PUSH1 0xA0 SHL SUB NOT DUP3 AND DUP2 OR SWAP1 SWAP3 SSTORE PUSH1 0x1 PUSH1 0x1 PUSH1 0xA0 SHL SUB AND PUSH32 0x8BE0079C531659141344CD1FD0A4F28419497F9722A3DAAFE3B4186F6B6457E0 PUSH0 DUP1 LOG3 PUSH1 0x1 PUSH1 0x4 SSTORE PUSH3 0x186A1 PUSH1 0x5 SSTORE PUSH3 0x30D41 PUSH1 0x6 SSTORE PUSH3 0x493E1 PUSH1 0x7 SSTORE PUSH2 0x2710 PUSH1 0x8 SSTORE PUSH2 0x1F4 PUSH1 0x9 SSTORE PUSH3 0x15C PUSH1 0xE SLOAD PUSH3 0x385 JUMP JUMPDEST DUP2 DUP2 GT PUSH3 0x266 JUMPI JUMPDEST POP PUSH32 0x5269736B4C656E7320556E69666965642044656D6F205661756C740000000036 PUSH1 0xE SSTORE PUSH1 0xF SLOAD PUSH3 0x198 SWAP1 PUSH3 0x385 JUMP JUMPDEST DUP2 DUP2 GT PUSH3 0x244 JUMPI JUMPDEST POP PUSH1 0x4 PUSH2 0x1415 PUSH1 0xF2 SHL ADD PUSH1 0xF SSTORE PUSH1 0xD SLOAD PUSH3 0x1BC SWAP1 PUSH3 0x385 JUMP JUMPDEST SWAP1 DUP1 DUP3 GT PUSH3 0x222 JUMPI JUMPDEST PUSH32 0x44656D6F20726561647900000000000000000000000000000000000000000014 PUSH1 0xD SSTORE PUSH32 0x326AEEA7ABF8A20D2AE5C71811B6E16C6AD80E0128362081EF8DD5AF3774B9C0 PUSH1 0xC SSTORE TIMESTAMP PUSH1 0xA SSTORE PUSH1 0x40 MLOAD PUSH2 0x5B90 SWAP1 DUP2 PUSH3 0x3D9 DUP3 CODECOPY RETURN JUMPDEST PUSH3 0x23B SWAP3 PUSH1 0xD PUSH0 MSTORE PUSH0 KECCAK256 SWAP2 ADD PUSH1 0x5 SHR DUP2 ADD SWAP1 PUSH3 0x3C0 JUMP JUMPDEST PUSH0 DUP1 DUP1 PUSH3 0x1C6 JUMP JUMPDEST PUSH3 0x25F SWAP1 PUSH1 0xF PUSH0 MSTORE DUP3 DUP5 PUSH0 KECCAK256 SWAP2 ADD PUSH1 0x5 SHR DUP2 ADD SWAP1 PUSH3 0x3C0 JUMP JUMPDEST PUSH0 PUSH3 0x1A1 JUMP JUMPDEST PUSH3 0x281 SWAP1 PUSH1 0xE PUSH0 MSTORE DUP3 DUP5 PUSH0 KECCAK256 SWAP2 ADD PUSH1 0x5 SHR DUP2 ADD SWAP1 PUSH3 0x3C0 JUMP JUMPDEST PUSH0 PUSH3 0x165 JUMP JUMPDEST ADD MLOAD SWAP1 POP PUSH0 DUP1 PUSH3 0xD2 JUMP JUMPDEST DUP3 AND SWAP4 PUSH1 0x2 PUSH0 MSTORE DUP6 PUSH0 KECCAK256 SWAP2 PUSH0 JUMPDEST DUP8 DUP8 DUP3 LT PUSH3 0x2E0 JUMPI POP POP DUP4 PUSH1 0x1 SWAP6 SWAP7 LT PUSH3 0x2C7 JUMPI JUMPDEST POP POP POP DUP2 SHL ADD PUSH1 0x2 SSTORE PUSH3 0xE7 JUMP JUMPDEST ADD MLOAD PUSH0 NOT PUSH1 0xF8 DUP5 PUSH1 0x3 SHL AND SHR NOT AND SWAP1 SSTORE PUSH0 DUP1 DUP1 PUSH3 0x2B8 JUMP JUMPDEST PUSH1 0x1 DUP5 SWAP6 DUP3 SWAP4 SWAP6 DUP6 ADD MLOAD DUP2 SSTORE ADD SWAP5 ADD SWAP3 ADD PUSH3 0x2A1 JUMP JUMPDEST PUSH3 0x322 SWAP1 PUSH1 0x2 PUSH0 MSTORE DUP7 PUSH0 KECCAK256 DUP6 DUP1 DUP7 ADD PUSH1 0x5 SHR DUP3 ADD SWAP3 DUP10 DUP8 LT PUSH3 0x329 JUMPI JUMPDEST ADD PUSH1 0x5 SHR ADD SWAP1 PUSH3 0x3C0 JUMP JUMPDEST PUSH0 PUSH3 0xB7 JUMP JUMPDEST SWAP3 POP DUP2 SWAP3 PUSH3 0x316 JUMP JUMPDEST PUSH4 0x4E487B71 PUSH1 0xE0 SHL PUSH0 MSTORE PUSH1 0x41 PUSH1 0x4 MSTORE PUSH1 0x24 PUSH0 REVERT JUMPDEST DUP2 DUP2 ADD DUP5 ADD MLOAD DUP6 DUP3 ADD DUP6 ADD MSTORE DUP4 ADD PUSH3 0x86 JUMP JUMPDEST PUSH0 DUP1 REVERT JUMPDEST PUSH1 0x40 MLOAD SWAP2 SWAP1 PUSH1 0x1F ADD PUSH1 0x1F NOT AND DUP3 ADD PUSH1 0x1 PUSH1 0x1 PUSH1 0x40 SHL SUB DUP2 GT DUP4 DUP3 LT OR PUSH3 0x333 JUMPI PUSH1 0x40 MSTORE JUMP JUMPDEST SWAP1 PUSH1 0x1 DUP3 DUP2 SHR SWAP3 AND DUP1 ISZERO PUSH3 0x3B5 JUMPI JUMPDEST PUSH1 0x20 DUP4 LT EQ PUSH3 0x3A1 JUMPI JUMP JUMPDEST PUSH4 0x4E487B71 PUSH1 0xE0 SHL PUSH0 MSTORE PUSH1 0x22 PUSH1 0x4 MSTORE PUSH1 0x24 PUSH0 REVERT JUMPDEST SWAP2 PUSH1 0x7F AND SWAP2 PUSH3 0x395 JUMP JUMPDEST DUP2 DUP2 LT PUSH3 0x3CC JUMPI POP POP JUMP JUMPDEST PUSH0 DUP2 SSTORE PUSH1 0x1 ADD PUSH3 0x3C0 JUMP INVALID PUSH1 0x80 PUSH1 0x40 MSTORE PUSH1 0x4 CALLDATASIZE LT ISZERO PUSH2 0x11 JUMPI PUSH0 DUP1 REVERT JUMPDEST PUSH0 CALLDATALOAD PUSH1 0xE0 SHR DUP1 PUSH3 0x9B27AF EQ PUSH2 0x4017 JUMPI DUP1 PUSH3 0xFDD58E EQ PUSH2 0x3FF0 JUMPI DUP1 PUSH4 0x1B4597D EQ PUSH2 0x3F9E JUMPI DUP1 PUSH4 0x1FFC9A7 EQ PUSH2 0x3F30 JUMPI DUP1 PUSH4 0x2CEA26B EQ PUSH2 0x3EDF JUMPI DUP1 PUSH4 0x765B4B4 EQ PUSH2 0x3EAC JUMPI DUP1 PUSH4 0xE89341C EQ PUSH2 0x3E8D JUMPI DUP1 PUSH4 0xF574BA7 EQ PUSH2 0x39EF JUMPI DUP1 PUSH4 0x176DE7A8 EQ PUSH2 0x3964 JUMPI DUP1 PUSH4 0x176F1CDD EQ PUSH2 0x38D9 JUMPI DUP1 PUSH4 0x179649AD EQ PUSH2 0x383F JUMPI DUP1 PUSH4 0x1A2E9996 EQ PUSH2 0x375C JUMPI DUP1 PUSH4 0x1B6C218E EQ PUSH2 0x3542 JUMPI DUP1 PUSH4 0x1DE3083D EQ PUSH2 0x3527 JUMPI DUP1 PUSH4 0x218900B4 EQ PUSH2 0x350A JUMPI DUP1 PUSH4 0x249D39E9 EQ PUSH2 0x34EE JUMPI DUP1 PUSH4 0x27DAC9E2 EQ PUSH2 0x34A1 JUMPI DUP1 PUSH4 0x27E80368 EQ PUSH2 0x3484 JUMPI DUP1 PUSH4 0x2A0EE085 EQ PUSH2 0x3440 JUMPI DUP1 PUSH4 0x2BAA7521 EQ PUSH2 0x341D JUMPI DUP1 PUSH4 0x2E6F6B1F EQ PUSH2 0x3400 JUMPI DUP1 PUSH4 0x2EB2C2D6 EQ PUSH2 0x318C JUMPI DUP1 PUSH4 0x2F85874A EQ PUSH2 0x3170 JUMPI DUP1 PUSH4 0x2FB4E0F9 EQ PUSH2 0x30B0 JUMPI DUP1 PUSH4 0x325116EE EQ PUSH2 0x3095 JUMPI DUP1 PUSH4 0x32DDC524 EQ PUSH2 0x302B JUMPI DUP1 PUSH4 0x379607F5 EQ PUSH2 0x2FD1 JUMPI DUP1 PUSH4 0x38E21CCE EQ PUSH2 0x2F89 JUMPI DUP1 PUSH4 0x41BE5F64 EQ PUSH2 0x2F6C JUMPI DUP1 PUSH4 0x4973FD9A EQ PUSH2 0x2F3D JUMPI DUP1 PUSH4 0x4ADB4CC8 EQ PUSH2 0x2F20 JUMPI DUP1 PUSH4 0x4D7C10A7 EQ PUSH2 0x2EE3 JUMPI DUP1 PUSH4 0x4E1273F4 EQ PUSH2 0x2D6F JUMPI DUP1 PUSH4 0x513F8401 EQ PUSH2 0x2C16 JUMPI DUP1 PUSH4 0x52163337 EQ PUSH2 0x29E0 JUMPI DUP1 PUSH4 0x55CC0261 EQ PUSH2 0x2879 JUMPI DUP1 PUSH4 0x57997AA2 EQ PUSH2 0x285E JUMPI DUP1 PUSH4 0x5ACC9009 EQ PUSH2 0x282B JUMPI DUP1 PUSH4 0x5AD32A3C EQ PUSH2 0x27BF JUMPI DUP1 PUSH4 0x619A1D29 EQ PUSH2 0x2798 JUMPI DUP1 PUSH4 0x62ABEBCE EQ PUSH2 0x2557 JUMPI DUP1 PUSH4 0x663C39D2 EQ PUSH2 0x2476 JUMPI DUP1 PUSH4 0x6961FD46 EQ PUSH2 0x22FD JUMPI DUP1 PUSH4 0x6B3CE2F1 EQ PUSH2 0x229F JUMPI DUP1 PUSH4 0x6EA17ABD EQ PUSH2 0x2284 JUMPI DUP1 PUSH4 0x70319970 EQ PUSH2 0x225C JUMPI DUP1 PUSH4 0x715018A6 EQ PUSH2 0x2214 JUMPI DUP1 PUSH4 0x7206ABBD EQ PUSH2 0x2075 JUMPI DUP1 PUSH4 0x74B3322C EQ PUSH2 0x2027 JUMPI DUP1 PUSH4 0x7CEA070A EQ PUSH2 0x200C JUMPI DUP1 PUSH4 0x8385F14A EQ PUSH2 0x1FEF JUMPI DUP1 PUSH4 0x8530A3BF EQ PUSH2 0x1FC2 JUMPI DUP1 PUSH4 0x889D1002 EQ PUSH2 0x1F8F JUMPI DUP1 PUSH4 0x8909E506 EQ PUSH2 0x1EDD JUMPI DUP1 PUSH4 0x8D00BBE5 EQ PUSH2 0x1E88 JUMPI DUP1 PUSH4 0x8DA5CB5B EQ PUSH2 0x1E60 JUMPI DUP1 PUSH4 0x8F631D54 EQ PUSH2 0x1E45 JUMPI DUP1 PUSH4 0x93B9E5AE EQ PUSH2 0x1DF8 JUMPI DUP1 PUSH4 0x99B49E25 EQ PUSH2 0x1D99 JUMPI DUP1 PUSH4 0x9A2AACA1 EQ PUSH2 0x1D0E JUMPI DUP1 PUSH4 0xA0BCFC7F EQ PUSH2 0x1BD7 JUMPI DUP1 PUSH4 0xA22CB465 EQ PUSH2 0x1AFD JUMPI DUP1 PUSH4 0xAEC45D80 EQ PUSH2 0x1A9A JUMPI DUP1 PUSH4 0xB363935C EQ PUSH2 0x567 JUMPI DUP1 PUSH4 0xB5884E20 EQ PUSH2 0x1A04 JUMPI DUP1 PUSH4 0xB7D120D0 EQ PUSH2 0x19BD JUMPI DUP1 PUSH4 0xB84D93D4 EQ PUSH2 0x1982 JUMPI DUP1 PUSH4 0xBCE48991 EQ PUSH2 0x1493 JUMPI DUP1 PUSH4 0xC056E1E3 EQ PUSH2 0x872 JUMPI DUP1 PUSH4 0xC1D150E4 EQ PUSH2 0x13FB JUMPI DUP1 PUSH4 0xC4EBE024 EQ PUSH2 0x13E0 JUMPI DUP1 PUSH4 0xC5E20F80 EQ PUSH2 0x1349 JUMPI DUP1 PUSH4 0xC8A3C3B5 EQ PUSH2 0x12D0 JUMPI DUP1 PUSH4 0xCAD47192 EQ PUSH2 0x562 JUMPI DUP1 PUSH4 0xCB33BCDB EQ PUSH2 0x127E JUMPI DUP1 PUSH4 0xCC272B11 EQ PUSH2 0x1205 JUMPI DUP1 PUSH4 0xCEB0F6D8 EQ PUSH2 0xEEF JUMPI DUP1 PUSH4 0xCF22928D EQ PUSH2 0x11E3 JUMPI DUP1 PUSH4 0xD28C390A EQ PUSH2 0x11AD JUMPI DUP1 PUSH4 0xD4B0521B EQ PUSH2 0x1130 JUMPI DUP1 PUSH4 0xD5C21BAA EQ PUSH2 0x1113 JUMPI DUP1 PUSH4 0xD92FA2C6 EQ PUSH2 0x10E3 JUMPI DUP1 PUSH4 0xDB006A75 EQ PUSH2 0xEF4 JUMPI DUP1 PUSH4 0xDCB2125B EQ PUSH2 0xEEF JUMPI DUP1 PUSH4 0xE5A89945 EQ PUSH2 0xA20 JUMPI DUP1 PUSH4 0xE985E9C5 EQ PUSH2 0x9CE JUMPI DUP1 PUSH4 0xED2FF225 EQ PUSH2 0x9B1 JUMPI DUP1 PUSH4 0xEDA7C56E EQ PUSH2 0x877 JUMPI DUP1 PUSH4 0xEEAA8177 EQ PUSH2 0x872 JUMPI DUP1 PUSH4 0xF242432A EQ PUSH2 0x631 JUMPI DUP1 PUSH4 0xF2FDE38B EQ PUSH2 0x582 JUMPI DUP1 PUSH4 0xF4DB8984 EQ PUSH2 0x567 JUMPI DUP1 PUSH4 0xF64BFA59 EQ PUSH2 0x562 JUMPI DUP1 PUSH4 0xF68E55C3 EQ PUSH2 0x504 JUMPI DUP1 PUSH4 0xF766DEE4 EQ PUSH2 0x4E9 JUMPI DUP1 PUSH4 0xF9569673 EQ PUSH2 0x4AC JUMPI PUSH4 0xFD4FE8A8 EQ PUSH2 0x442 JUMPI PUSH0 DUP1 REVERT JUMPDEST CALLVALUE PUSH2 0x4A8 JUMPI PUSH1 0x20 CALLDATASIZE PUSH1 0x3 NOT ADD SLT PUSH2 0x4A8 JUMPI PUSH2 0x45B PUSH2 0x405E JUMP JUMPDEST PUSH2 0x463 PUSH2 0x4A8D JUMP JUMPDEST PUSH1 0x10 DUP1 SLOAD PUSH1 0x1 PUSH1 0x1 PUSH1 0xA0 SHL SUB NOT AND PUSH1 0x1 PUSH1 0x1 PUSH1 0xA0 SHL SUB SWAP3 SWAP1 SWAP3 AND SWAP2 DUP3 OR SWAP1 SSTORE PUSH32 0x60A886C8DC324AF9C6D6A1BF7369FFE7557EF345EB5717BCEFFB59BEAC879A0A PUSH0 DUP1 LOG2 STOP JUMPDEST PUSH0 DUP1 REVERT JUMPDEST CALLVALUE PUSH2 0x4A8 JUMPI PUSH1 0x20 CALLDATASIZE PUSH1 0x3 NOT ADD SLT PUSH2 0x4A8 JUMPI PUSH1 0x1 PUSH1 0x1 PUSH1 0xA0 SHL SUB PUSH2 0x4CD PUSH2 0x405E JUMP JUMPDEST AND PUSH0 MSTORE PUSH1 0x18 PUSH1 0x20 MSTORE PUSH1 0x20 PUSH1 0xFF PUSH1 0x40 PUSH0 KECCAK256 SLOAD AND PUSH1 0x40 MLOAD SWAP1 ISZERO ISZERO DUP2 MSTORE RETURN JUMPDEST CALLVALUE PUSH2 0x4A8 JUMPI PUSH0 CALLDATASIZE PUSH1 0x3 NOT ADD SLT PUSH2 0x4A8 JUMPI PUSH1 0x20 PUSH1 0x40 MLOAD PUSH1 0xA DUP2 MSTORE RETURN JUMPDEST CALLVALUE PUSH2 0x4A8 JUMPI PUSH1 0x20 CALLDATASIZE PUSH1 0x3 NOT ADD SLT PUSH2 0x4A8 JUMPI PUSH1 0x4 CALLDATALOAD PUSH2 0x520 PUSH2 0x4A8D JUMP JUMPDEST DUP1 ISZERO PUSH2 0x52B JUMPI PUSH1 0x9 SSTORE STOP JUMPDEST PUSH1 0x40 MLOAD PUSH3 0x461BCD PUSH1 0xE5 SHL DUP2 MSTORE PUSH1 0x20 PUSH1 0x4 DUP3 ADD MSTORE PUSH1 0xF PUSH1 0x24 DUP3 ADD MSTORE PUSH15 0x496E76616C6964206D696E696D756D PUSH1 0x88 SHL PUSH1 0x44 DUP3 ADD MSTORE PUSH1 0x64 SWAP1 REVERT JUMPDEST PUSH2 0x4446 JUMP JUMPDEST CALLVALUE PUSH2 0x4A8 JUMPI PUSH0 CALLDATASIZE PUSH1 0x3 NOT ADD SLT PUSH2 0x4A8 JUMPI PUSH1 0x20 PUSH1 0x40 MLOAD PUSH1 0x6 DUP2 MSTORE RETURN JUMPDEST CALLVALUE PUSH2 0x4A8 JUMPI PUSH1 0x20 CALLDATASIZE PUSH1 0x3 NOT ADD SLT PUSH2 0x4A8 JUMPI PUSH2 0x59B PUSH2 0x405E JUMP JUMPDEST PUSH2 0x5A3 PUSH2 0x4A8D JUMP JUMPDEST PUSH1 0x1 PUSH1 0x1 PUSH1 0xA0 SHL SUB SWAP1 DUP2 AND SWAP1 DUP2 ISZERO PUSH2 0x5DD JUMPI PUSH1 0x3 DUP1 SLOAD PUSH1 0x1 PUSH1 0x1 PUSH1 0xA0 SHL SUB NOT DUP2 AND DUP5 OR SWAP1 SWAP2 SSTORE AND PUSH0 DUP1 MLOAD PUSH1 0x20 PUSH2 0x5A3B DUP4 CODECOPY DUP2 MLOAD SWAP2 MSTORE PUSH0 DUP1 LOG3 STOP JUMPDEST PUSH1 0x40 MLOAD PUSH3 0x461BCD PUSH1 0xE5 SHL DUP2 MSTORE PUSH1 0x20 PUSH1 0x4 DUP3 ADD MSTORE PUSH1 0x26 PUSH1 0x24 DUP3 ADD MSTORE PUSH32 0x4F776E61626C653A206E6577206F776E657220697320746865207A65726F2061 PUSH1 0x44 DUP3 ADD MSTORE PUSH6 0x646472657373 PUSH1 0xD0 SHL PUSH1 0x64 DUP3 ADD MSTORE PUSH1 0x84 SWAP1 REVERT JUMPDEST CALLVALUE PUSH2 0x4A8 JUMPI PUSH1 0xA0 CALLDATASIZE PUSH1 0x3 NOT ADD SLT PUSH2 0x4A8 JUMPI PUSH2 0x64A PUSH2 0x405E JUMP JUMPDEST PUSH2 0x652 PUSH2 0x4074 JUMP JUMPDEST SWAP1 PUSH1 0x64 CALLDATALOAD PUSH1 0x44 CALLDATALOAD PUSH1 0x84 CALLDATALOAD PUSH1 0x1 PUSH1 0x1 PUSH1 0x40 SHL SUB DUP2 GT PUSH2 0x4A8 JUMPI PUSH2 0x678 SWAP1 CALLDATASIZE SWAP1 PUSH1 0x4 ADD PUSH2 0x4397 JUMP JUMPDEST PUSH1 0x1 PUSH1 0x1 PUSH1 0xA0 SHL SUB SWAP4 DUP5 AND SWAP4 CALLER DUP6 EQ DUP1 ISZERO PUSH2 0x84D JUMPI JUMPDEST PUSH2 0x697 SWAP1 PUSH2 0x48DB JUMP JUMPDEST DUP6 AND PUSH2 0x6A4 DUP2 ISZERO ISZERO PUSH2 0x4CCF JUMP JUMPDEST PUSH2 0x6AD DUP4 PUSH2 0x5807 JUMP JUMPDEST POP PUSH2 0x6B7 DUP5 PUSH2 0x5807 JUMP JUMPDEST POP DUP3 PUSH0 MSTORE PUSH1 0x20 SWAP6 PUSH0 DUP8 MSTORE PUSH1 0x40 PUSH0 KECCAK256 DUP7 PUSH0 MSTORE DUP8 MSTORE DUP5 PUSH1 0x40 PUSH0 KECCAK256 SLOAD PUSH2 0x6DC DUP3 DUP3 LT ISZERO PUSH2 0x4D29 JUMP JUMPDEST DUP6 PUSH0 MSTORE PUSH0 DUP10 MSTORE PUSH1 0x40 PUSH0 KECCAK256 DUP9 PUSH0 MSTORE DUP10 MSTORE SUB PUSH1 0x40 PUSH0 KECCAK256 SSTORE DUP4 PUSH0 MSTORE PUSH0 DUP8 MSTORE PUSH1 0x40 PUSH0 KECCAK256 DUP3 PUSH0 MSTORE DUP8 MSTORE PUSH1 0x40 PUSH0 KECCAK256 PUSH2 0x70F DUP7 DUP3 SLOAD PUSH2 0x48AF JUMP JUMPDEST SWAP1 SSTORE DUP2 DUP7 PUSH1 0x40 MLOAD DUP7 DUP2 MSTORE DUP8 DUP11 DUP3 ADD MSTORE PUSH0 DUP1 MLOAD PUSH1 0x20 PUSH2 0x591B DUP4 CODECOPY DUP2 MLOAD SWAP2 MSTORE PUSH1 0x40 CALLER SWAP3 LOG4 EXTCODESIZE PUSH2 0x738 JUMPI STOP JUMPDEST PUSH2 0x77B SWAP4 PUSH0 DUP8 SWAP5 PUSH1 0x40 MLOAD SWAP7 DUP8 SWAP6 DUP7 SWAP5 DUP6 SWAP4 PUSH4 0xF23A6E61 PUSH1 0xE0 SHL SWAP12 DUP13 DUP7 MSTORE CALLER PUSH1 0x4 DUP8 ADD MSTORE PUSH1 0x24 DUP7 ADD MSTORE PUSH1 0x44 DUP6 ADD MSTORE PUSH1 0x64 DUP5 ADD MSTORE PUSH1 0xA0 PUSH1 0x84 DUP5 ADD MSTORE PUSH1 0xA4 DUP4 ADD SWAP1 PUSH2 0x4271 JUMP JUMPDEST SUB SWAP3 GAS CALL PUSH0 SWAP2 DUP2 PUSH2 0x81E JUMPI JUMPDEST POP PUSH2 0x7F2 JUMPI DUP3 PUSH2 0x795 PUSH2 0x5703 JUMP JUMPDEST PUSH4 0x8C379A0 EQ PUSH2 0x7BD JUMPI JUMPDEST PUSH1 0x40 MLOAD PUSH3 0x461BCD PUSH1 0xE5 SHL DUP2 MSTORE DUP1 PUSH2 0x7B9 PUSH1 0x4 DUP3 ADD PUSH2 0x578B JUMP JUMPDEST SUB SWAP1 REVERT JUMPDEST PUSH2 0x7C5 PUSH2 0x571E JUMP JUMPDEST SWAP1 DUP2 PUSH2 0x7D1 JUMPI POP PUSH2 0x7A0 JUMP JUMPDEST PUSH2 0x7B9 PUSH1 0x40 MLOAD SWAP3 DUP4 SWAP3 PUSH3 0x461BCD PUSH1 0xE5 SHL DUP5 MSTORE PUSH1 0x4 DUP5 ADD MSTORE PUSH1 0x24 DUP4 ADD SWAP1 PUSH2 0x4271 JUMP JUMPDEST PUSH1 0x1 PUSH1 0x1 PUSH1 0xE0 SHL SUB NOT AND SUB SWAP1 POP PUSH2 0x805 JUMPI STOP JUMPDEST PUSH1 0x40 MLOAD PUSH3 0x461BCD PUSH1 0xE5 SHL DUP2 MSTORE DUP1 PUSH2 0x7B9 PUSH1 0x4 DUP3 ADD PUSH2 0x56BA JUMP JUMPDEST PUSH2 0x83F SWAP2 SWAP3 POP DUP5 RETURNDATASIZE DUP7 GT PUSH2 0x846 JUMPI JUMPDEST PUSH2 0x837 DUP2 DUP4 PUSH2 0x418B JUMP JUMPDEST DUP2 ADD SWAP1 PUSH2 0x569A JUMP JUMPDEST SWAP1 DUP5 PUSH2 0x787 JUMP JUMPDEST POP RETURNDATASIZE PUSH2 0x82D JUMP JUMPDEST POP DUP5 PUSH0 MSTORE PUSH1 0x1 PUSH1 0x20 MSTORE PUSH1 0x40 PUSH0 KECCAK256 CALLER PUSH0 MSTORE PUSH1 0x20 MSTORE PUSH2 0x697 PUSH1 0xFF PUSH1 0x40 PUSH0 KECCAK256 SLOAD AND SWAP1 POP PUSH2 0x68E JUMP JUMPDEST PUSH2 0x13E0 JUMP JUMPDEST CALLVALUE PUSH2 0x4A8 JUMPI PUSH2 0xFFFF PUSH2 0x888 CALLDATASIZE PUSH2 0x4408 JUMP JUMPDEST SWAP2 PUSH2 0x894 SWAP4 SWAP2 SWAP4 PUSH2 0x4A8D JUMP JUMPDEST AND SWAP2 PUSH2 0x8A1 DUP4 ISZERO ISZERO PUSH2 0x4810 JUMP JUMPDEST DUP3 PUSH0 MSTORE PUSH1 0x20 SWAP1 PUSH1 0x1A DUP3 MSTORE PUSH1 0x40 PUSH0 KECCAK256 PUSH1 0x1 DUP1 PUSH1 0x40 SHL SUB DUP5 GT PUSH2 0x99D JUMPI PUSH2 0x8D0 DUP5 PUSH2 0x8CA DUP4 SLOAD PUSH2 0x40CC JUMP JUMPDEST DUP4 PUSH2 0x484E JUMP JUMPDEST PUSH0 PUSH1 0x1F DUP6 GT PUSH1 0x1 EQ PUSH2 0x928 JUMPI SWAP2 PUSH2 0x918 SWAP2 PUSH2 0x904 DUP7 DUP1 PUSH0 DUP1 MLOAD PUSH1 0x20 PUSH2 0x58FB DUP4 CODECOPY DUP2 MLOAD SWAP2 MSTORE SWAP9 SWAP8 SWAP7 PUSH0 SWAP2 PUSH2 0x91D JUMPI JUMPDEST POP PUSH2 0x489D JUMP JUMPDEST SWAP1 SSTORE JUMPDEST PUSH1 0x40 MLOAD SWAP4 DUP4 DUP6 SWAP5 DUP6 MSTORE DUP5 ADD SWAP2 PUSH2 0x4770 JUMP JUMPDEST SUB SWAP1 LOG2 STOP JUMPDEST SWAP1 POP DUP5 ADD CALLDATALOAD DUP11 PUSH2 0x8FE JUMP JUMPDEST PUSH1 0x1F NOT DUP6 AND SWAP1 DUP3 PUSH0 MSTORE DUP5 PUSH0 KECCAK256 SWAP2 PUSH0 JUMPDEST DUP2 DUP2 LT PUSH2 0x986 JUMPI POP SWAP2 PUSH2 0x918 SWAP4 SWAP2 DUP8 PUSH0 DUP1 MLOAD PUSH1 0x20 PUSH2 0x58FB DUP4 CODECOPY DUP2 MLOAD SWAP2 MSTORE SWAP9 SWAP8 SWAP7 SWAP5 LT PUSH2 0x96D JUMPI JUMPDEST POP POP PUSH1 0x1 DUP6 DUP2 SHL ADD SWAP1 SSTORE PUSH2 0x907 JUMP JUMPDEST DUP4 ADD CALLDATALOAD PUSH0 NOT PUSH1 0x3 DUP9 SWAP1 SHL PUSH1 0xF8 AND SHR NOT AND SWAP1 SSTORE DUP8 DUP1 PUSH2 0x95E JUMP JUMPDEST SWAP2 SWAP3 DUP7 PUSH1 0x1 DUP2 SWAP3 DUP7 DUP10 ADD CALLDATALOAD DUP2 SSTORE ADD SWAP5 ADD SWAP3 ADD PUSH2 0x937 JUMP JUMPDEST PUSH4 0x4E487B71 PUSH1 0xE0 SHL PUSH0 MSTORE PUSH1 0x41 PUSH1 0x4 MSTORE PUSH1 0x24 PUSH0 REVERT JUMPDEST CALLVALUE PUSH2 0x4A8 JUMPI PUSH0 CALLDATASIZE PUSH1 0x3 NOT ADD SLT PUSH2 0x4A8 JUMPI PUSH1 0x20 PUSH1 0x6 SLOAD PUSH1 0x40 MLOAD SWAP1 DUP2 MSTORE RETURN JUMPDEST CALLVALUE PUSH2 0x4A8 JUMPI PUSH1 0x40 CALLDATASIZE PUSH1 0x3 NOT ADD SLT PUSH2 0x4A8 JUMPI PUSH2 0x9E7 PUSH2 0x405E JUMP JUMPDEST PUSH2 0x9EF PUSH2 0x4074 JUMP JUMPDEST SWAP1 PUSH1 0x1 DUP1 PUSH1 0xA0 SHL SUB DUP1 SWAP2 AND PUSH0 MSTORE PUSH1 0x1 PUSH1 0x20 MSTORE PUSH1 0x40 PUSH0 KECCAK256 SWAP2 AND PUSH0 MSTORE PUSH1 0x20 MSTORE PUSH1 0x20 PUSH1 0xFF PUSH1 0x40 PUSH0 KECCAK256 SLOAD AND PUSH1 0x40 MLOAD SWAP1 ISZERO ISZERO DUP2 MSTORE RETURN JUMPDEST CALLVALUE PUSH2 0x4A8 JUMPI PUSH1 0xA0 CALLDATASIZE PUSH1 0x3 NOT ADD SLT PUSH2 0x4A8 JUMPI PUSH1 0x4 CALLDATALOAD PUSH1 0x1 PUSH1 0x1 PUSH1 0x40 SHL SUB DUP2 GT PUSH2 0x4A8 JUMPI PUSH2 0xA50 SWAP1 CALLDATASIZE SWAP1 PUSH1 0x4 ADD PUSH2 0x4296 JUMP JUMPDEST PUSH1 0x24 CALLDATALOAD PUSH1 0x1 PUSH1 0x1 PUSH1 0x40 SHL SUB DUP2 GT PUSH2 0x4A8 JUMPI PUSH2 0xA6F SWAP1 CALLDATASIZE SWAP1 PUSH1 0x4 ADD PUSH2 0x4296 JUMP JUMPDEST SWAP1 SWAP2 PUSH1 0x44 SWAP1 PUSH1 0x64 SWAP4 DUP2 ISZERO PUSH2 0xEB9 JUMPI DUP4 ISZERO PUSH2 0xE87 JUMPI PUSH2 0x2710 DUP1 DUP7 CALLDATALOAD GT PUSH2 0xE51 JUMPI PUSH1 0x84 CALLDATALOAD GT PUSH2 0xE1B JUMPI PUSH3 0x15180 TIMESTAMP DIV CALLER PUSH0 MSTORE PUSH1 0x23 PUSH1 0x20 MSTORE PUSH1 0x40 PUSH0 KECCAK256 DUP2 PUSH0 MSTORE PUSH1 0x20 MSTORE PUSH1 0x3 PUSH1 0x40 PUSH0 KECCAK256 SLOAD LT ISZERO PUSH2 0xDD8 JUMPI CALLER PUSH0 MSTORE PUSH1 0x23 PUSH1 0x20 MSTORE PUSH1 0x40 PUSH0 KECCAK256 SWAP1 PUSH0 MSTORE PUSH1 0x20 MSTORE PUSH1 0x40 PUSH0 KECCAK256 DUP1 SLOAD SWAP1 PUSH1 0x1 DUP3 ADD DUP1 SWAP3 GT PUSH2 0xDC4 JUMPI SSTORE PUSH1 0x5 SLOAD SWAP4 PUSH1 0x1 DUP6 ADD DUP1 DUP7 GT PUSH2 0xDC4 JUMPI PUSH1 0x5 SSTORE PUSH1 0x40 MLOAD SWAP7 PUSH1 0xC0 DUP9 ADD PUSH1 0x1 PUSH1 0x1 PUSH1 0x40 SHL SUB DUP2 GT DUP10 DUP3 LT OR PUSH2 0x99D JUMPI PUSH1 0x40 MSTORE CALLER DUP9 MSTORE PUSH2 0xB1D CALLDATASIZE DUP6 DUP4 PUSH2 0x4361 JUMP JUMPDEST PUSH1 0x20 DUP10 ADD SWAP1 DUP2 MSTORE PUSH2 0xB2F CALLDATASIZE DUP5 DUP7 PUSH2 0x4361 JUMP JUMPDEST PUSH1 0x40 DUP11 DUP2 ADD SWAP2 SWAP1 SWAP2 MSTORE DUP7 CALLDATALOAD PUSH1 0x60 DUP12 ADD MSTORE DUP9 CALLDATALOAD PUSH1 0x80 DUP12 ADD MSTORE PUSH1 0x84 CALLDATALOAD PUSH1 0xA0 DUP12 ADD MSTORE PUSH0 DUP9 DUP2 MSTORE PUSH1 0x22 PUSH1 0x20 MSTORE KECCAK256 DUP10 MLOAD DUP2 SLOAD PUSH1 0x1 PUSH1 0x1 PUSH1 0xA0 SHL SUB NOT AND PUSH1 0x1 PUSH1 0x1 PUSH1 0xA0 SHL SUB SWAP2 SWAP1 SWAP2 AND OR DUP2 SSTORE SWAP1 MLOAD DUP1 MLOAD SWAP1 PUSH1 0x1 PUSH1 0x1 PUSH1 0x40 SHL SUB DUP3 GT PUSH2 0x99D JUMPI PUSH2 0xBA2 DUP3 PUSH2 0xB99 PUSH1 0x1 DUP7 ADD SLOAD PUSH2 0x40CC JUMP JUMPDEST PUSH1 0x1 DUP7 ADD PUSH2 0x484E JUMP JUMPDEST PUSH1 0x20 SWAP1 PUSH1 0x1F DUP4 GT PUSH1 0x1 EQ PUSH2 0xD5A JUMPI PUSH2 0xBC4 SWAP3 SWAP2 PUSH0 SWAP2 DUP4 PUSH2 0xD4F JUMPI JUMPDEST POP POP PUSH2 0x489D JUMP JUMPDEST PUSH1 0x1 DUP3 ADD SSTORE JUMPDEST PUSH1 0x40 DUP10 ADD MLOAD DUP1 MLOAD SWAP1 SWAP10 SWAP1 PUSH1 0x1 PUSH1 0x1 PUSH1 0x40 SHL SUB DUP2 GT PUSH2 0x99D JUMPI PUSH1 0x20 SWAP11 PUSH2 0xBFF DUP3 PUSH2 0xBF6 PUSH1 0x2 DUP8 ADD SLOAD PUSH2 0x40CC JUMP JUMPDEST PUSH1 0x2 DUP8 ADD PUSH2 0x484E JUMP JUMPDEST DUP12 SWAP1 PUSH1 0x1F DUP4 GT PUSH1 0x1 EQ PUSH2 0xCC5 JUMPI SWAP4 PUSH1 0x5 PUSH1 0xA0 DUP13 SWAP14 SWAP9 SWAP6 PUSH2 0xC40 DUP7 PUSH2 0xC8A SWAP8 PUSH2 0xC97 SWAP12 SWAP8 PUSH0 DUP1 MLOAD PUSH1 0x20 PUSH2 0x599B DUP4 CODECOPY DUP2 MLOAD SWAP2 MSTORE SWAP16 SWAP15 SWAP12 PUSH0 SWAP3 PUSH2 0xCBA JUMPI POP POP PUSH2 0x489D JUMP JUMPDEST PUSH1 0x2 DUP6 ADD SSTORE JUMPDEST PUSH1 0x60 DUP2 ADD MLOAD PUSH1 0x3 DUP6 ADD SSTORE PUSH1 0x80 DUP2 ADD MLOAD PUSH1 0x4 DUP6 ADD SSTORE ADD MLOAD SWAP2 ADD SSTORE PUSH2 0xC78 PUSH1 0x40 MLOAD PUSH2 0xC6E DUP2 PUSH2 0x413A JUMP JUMPDEST PUSH0 DUP2 MSTORE DUP12 CALLER PUSH2 0x4E1B JUMP JUMPDEST PUSH1 0x40 MLOAD SWAP7 PUSH1 0xA0 DUP9 MSTORE PUSH1 0xA0 DUP9 ADD SWAP2 PUSH2 0x4770 JUMP JUMPDEST SWAP2 DUP6 DUP4 SUB DUP12 DUP8 ADD MSTORE PUSH2 0x4770 JUMP JUMPDEST SWAP4 CALLDATALOAD PUSH1 0x40 DUP4 ADD MSTORE CALLDATALOAD PUSH1 0x60 DUP3 ADD MSTORE PUSH1 0x84 CALLDATALOAD PUSH1 0x80 DUP3 ADD MSTORE DUP1 CALLER SWAP4 SUB SWAP1 LOG3 PUSH1 0x40 MLOAD SWAP1 DUP2 MSTORE RETURN JUMPDEST ADD MLOAD SWAP1 POP PUSH0 DUP1 PUSH2 0xBBD JUMP JUMPDEST SWAP1 PUSH1 0x2 DUP6 ADD PUSH0 MSTORE DUP13 PUSH0 KECCAK256 SWAP2 PUSH0 JUMPDEST PUSH1 0x1F NOT DUP6 AND DUP2 LT PUSH2 0xD38 JUMPI POP PUSH1 0xA0 DUP13 SWAP14 SWAP9 SWAP6 PUSH1 0x1 DUP7 PUSH2 0xC97 SWAP11 SWAP7 PUSH0 DUP1 MLOAD PUSH1 0x20 PUSH2 0x599B DUP4 CODECOPY DUP2 MLOAD SWAP2 MSTORE SWAP15 SWAP14 SWAP11 SWAP7 PUSH1 0x5 SWAP7 PUSH2 0xC8A SWAP11 PUSH1 0x1F NOT DUP2 AND LT PUSH2 0xD20 JUMPI JUMPDEST POP POP POP DUP2 SHL ADD PUSH1 0x2 DUP6 ADD SSTORE PUSH2 0xC46 JUMP JUMPDEST ADD MLOAD PUSH0 NOT PUSH1 0xF8 DUP5 PUSH1 0x3 SHL AND SHR NOT AND SWAP1 SSTORE PUSH0 DUP1 DUP1 PUSH2 0xD10 JUMP JUMPDEST SWAP2 SWAP3 DUP15 PUSH1 0x1 DUP2 SWAP3 DUP7 DUP6 ADD MLOAD DUP2 SSTORE ADD SWAP5 ADD SWAP3 ADD PUSH2 0xCD2 JUMP JUMPDEST ADD MLOAD SWAP1 POP DUP13 DUP1 PUSH2 0xBBD JUMP JUMPDEST SWAP1 PUSH1 0x1F NOT DUP4 AND SWAP2 PUSH1 0x1 DUP6 ADD PUSH0 MSTORE PUSH1 0x20 PUSH0 KECCAK256 SWAP3 PUSH0 JUMPDEST DUP2 DUP2 LT PUSH2 0xDAC JUMPI POP SWAP1 DUP5 PUSH1 0x1 SWAP6 SWAP5 SWAP4 SWAP3 LT PUSH2 0xD94 JUMPI JUMPDEST POP POP POP DUP2 SHL ADD PUSH1 0x1 DUP3 ADD SSTORE PUSH2 0xBCA JUMP JUMPDEST ADD MLOAD PUSH0 NOT PUSH1 0xF8 DUP5 PUSH1 0x3 SHL AND SHR NOT AND SWAP1 SSTORE DUP12 DUP1 DUP1 PUSH2 0xD84 JUMP JUMPDEST SWAP3 SWAP4 PUSH1 0x20 PUSH1 0x1 DUP2 SWAP3 DUP8 DUP7 ADD MLOAD DUP2 SSTORE ADD SWAP6 ADD SWAP4 ADD PUSH2 0xD6E JUMP JUMPDEST PUSH4 0x4E487B71 PUSH1 0xE0 SHL PUSH0 MSTORE PUSH1 0x11 PUSH1 0x4 MSTORE PUSH1 0x24 PUSH0 REVERT JUMPDEST PUSH1 0x40 MLOAD PUSH3 0x461BCD PUSH1 0xE5 SHL DUP2 MSTORE PUSH1 0x20 PUSH1 0x4 DUP3 ADD MSTORE PUSH1 0x1E PUSH1 0x24 DUP3 ADD MSTORE PUSH32 0x4461696C792063726564656E7469616C206C696D697420726561636865640000 DUP2 DUP7 ADD MSTORE DUP7 SWAP1 REVERT JUMPDEST PUSH1 0x40 MLOAD PUSH3 0x461BCD PUSH1 0xE5 SHL DUP2 MSTORE PUSH1 0x20 PUSH1 0x4 DUP3 ADD MSTORE PUSH1 0x10 PUSH1 0x24 DUP3 ADD MSTORE PUSH16 0x24B73B30B634B210323930BBB237BBB7 PUSH1 0x81 SHL DUP2 DUP6 ADD MSTORE DUP6 SWAP1 REVERT JUMPDEST PUSH1 0x40 MLOAD PUSH3 0x461BCD PUSH1 0xE5 SHL DUP2 MSTORE PUSH1 0x20 PUSH1 0x4 DUP3 ADD MSTORE PUSH1 0x10 PUSH1 0x24 DUP3 ADD MSTORE PUSH16 0x496E76616C69642077696E2072617465 PUSH1 0x80 SHL DUP2 DUP7 ADD MSTORE DUP7 SWAP1 REVERT JUMPDEST PUSH1 0x40 MLOAD PUSH3 0x461BCD PUSH1 0xE5 SHL DUP2 MSTORE PUSH1 0x20 PUSH1 0x4 DUP3 ADD MSTORE PUSH1 0xC PUSH1 0x24 DUP3 ADD MSTORE PUSH12 0x4D697373696E672064617465 PUSH1 0xA0 SHL DUP2 DUP6 ADD MSTORE DUP6 SWAP1 REVERT JUMPDEST PUSH1 0x40 MLOAD PUSH3 0x461BCD PUSH1 0xE5 SHL DUP2 MSTORE PUSH1 0x20 PUSH1 0x4 DUP3 ADD MSTORE PUSH1 0x10 PUSH1 0x24 DUP3 ADD MSTORE PUSH16 0x4D697373696E672063617465676F7279 PUSH1 0x80 SHL DUP2 DUP6 ADD MSTORE DUP6 SWAP1 REVERT JUMPDEST PUSH2 0x200C JUMP JUMPDEST CALLVALUE PUSH2 0x4A8 JUMPI PUSH1 0x20 DUP1 PUSH1 0x3 NOT CALLDATASIZE ADD SLT PUSH2 0x4A8 JUMPI PUSH1 0x4 CALLDATALOAD PUSH2 0xF14 DUP2 ISZERO ISZERO PUSH2 0x4FC2 JUMP JUMPDEST CALLER ISZERO PUSH2 0x10A5 JUMPI PUSH1 0x40 MLOAD PUSH2 0xF26 DUP2 PUSH2 0x4155 JUMP JUMPDEST PUSH1 0x1 DUP2 MSTORE DUP3 DUP2 ADD SWAP1 DUP4 CALLDATASIZE DUP4 CALLDATACOPY MLOAD ISZERO PUSH2 0x1091 JUMPI PUSH2 0x3E9 DUP1 SWAP2 MSTORE PUSH2 0xF47 DUP3 PUSH2 0x5807 JUMP JUMPDEST POP PUSH0 PUSH1 0x40 MLOAD PUSH2 0xF55 DUP2 PUSH2 0x413A JUMP JUMPDEST MSTORE DUP1 PUSH0 MSTORE PUSH0 DUP4 MSTORE PUSH1 0x40 PUSH0 KECCAK256 CALLER PUSH0 MSTORE DUP4 MSTORE PUSH1 0x40 PUSH0 KECCAK256 SLOAD DUP3 DUP2 LT PUSH2 0x1053 JUMPI DUP3 SWAP1 DUP3 PUSH0 MSTORE PUSH0 DUP6 MSTORE PUSH1 0x40 PUSH0 KECCAK256 CALLER PUSH0 MSTORE DUP6 MSTORE SUB PUSH1 0x40 PUSH0 KECCAK256 SSTORE PUSH0 PUSH1 0x40 MLOAD DUP3 DUP2 MSTORE DUP4 DUP6 DUP3 ADD MSTORE CALLER SWAP1 PUSH0 DUP1 MLOAD PUSH1 0x20 PUSH2 0x591B DUP4 CODECOPY DUP2 MLOAD SWAP2 MSTORE PUSH1 0x40 CALLER SWAP3 LOG4 PUSH0 PUSH1 0x40 MLOAD PUSH2 0xFB6 DUP2 PUSH2 0x413A JUMP JUMPDEST MSTORE CALLER PUSH0 SWAP1 DUP2 MSTORE PUSH1 0x19 DUP5 MSTORE PUSH1 0x40 DUP1 DUP3 KECCAK256 PUSH1 0x1 DUP4 MSTORE DUP6 MSTORE SWAP1 KECCAK256 SLOAD DUP1 DUP4 LT PUSH2 0x1034 JUMPI POP PUSH0 JUMPDEST CALLER PUSH0 MSTORE PUSH1 0x19 DUP5 MSTORE PUSH1 0x40 PUSH0 KECCAK256 PUSH1 0x1 PUSH0 MSTORE DUP5 MSTORE PUSH1 0x40 PUSH0 KECCAK256 SSTORE PUSH1 0x40 MLOAD DUP3 DUP2 MSTORE DUP3 DUP5 DUP3 ADD MSTORE PUSH0 DUP1 MLOAD PUSH1 0x20 PUSH2 0x5B1B DUP4 CODECOPY DUP2 MLOAD SWAP2 MSTORE PUSH1 0x40 CALLER SWAP3 LOG2 PUSH1 0x1 PUSH1 0x40 MLOAD DUP4 DUP2 MSTORE DUP4 DUP6 DUP3 ADD MSTORE PUSH0 DUP1 MLOAD PUSH1 0x20 PUSH2 0x5A7B DUP4 CODECOPY DUP2 MLOAD SWAP2 MSTORE PUSH1 0x40 CALLER SWAP3 LOG4 PUSH1 0x40 MLOAD SWAP1 DUP2 MSTORE RETURN JUMPDEST DUP3 DUP2 SUB SWAP1 DUP2 GT ISZERO PUSH2 0xFD8 JUMPI PUSH4 0x4E487B71 PUSH1 0xE0 SHL PUSH0 MSTORE PUSH1 0x11 PUSH1 0x4 MSTORE PUSH1 0x24 PUSH0 REVERT JUMPDEST PUSH1 0x40 MLOAD PUSH3 0x461BCD PUSH1 0xE5 SHL DUP2 MSTORE PUSH1 0x4 DUP2 ADD DUP6 SWAP1 MSTORE PUSH1 0x24 DUP1 DUP3 ADD MSTORE PUSH0 DUP1 MLOAD PUSH1 0x20 PUSH2 0x5A1B DUP4 CODECOPY DUP2 MLOAD SWAP2 MSTORE PUSH1 0x44 DUP3 ADD MSTORE PUSH4 0x616E6365 PUSH1 0xE0 SHL PUSH1 0x64 DUP3 ADD MSTORE PUSH1 0x84 SWAP1 REVERT JUMPDEST PUSH4 0x4E487B71 PUSH1 0xE0 SHL PUSH0 MSTORE PUSH1 0x32 PUSH1 0x4 MSTORE PUSH1 0x24 PUSH0 REVERT JUMPDEST PUSH1 0x40 MLOAD PUSH3 0x461BCD PUSH1 0xE5 SHL DUP2 MSTORE PUSH1 0x4 DUP2 ADD DUP4 SWAP1 MSTORE PUSH1 0x23 PUSH1 0x24 DUP3 ADD MSTORE PUSH0 DUP1 MLOAD PUSH1 0x20 PUSH2 0x597B DUP4 CODECOPY DUP2 MLOAD SWAP2 MSTORE PUSH1 0x44 DUP3 ADD MSTORE PUSH3 0x657373 PUSH1 0xE8 SHL PUSH1 0x64 DUP3 ADD MSTORE PUSH1 0x84 SWAP1 REVERT JUMPDEST CALLVALUE PUSH2 0x4A8 JUMPI PUSH1 0x40 CALLDATASIZE PUSH1 0x3 NOT ADD SLT PUSH2 0x4A8 JUMPI PUSH1 0x20 PUSH2 0x110B PUSH2 0x1101 PUSH2 0x40AA JUMP JUMPDEST PUSH1 0x24 CALLDATALOAD SWAP1 CALLER PUSH2 0x4FFC JUMP JUMPDEST PUSH1 0x40 MLOAD SWAP1 DUP2 MSTORE RETURN JUMPDEST CALLVALUE PUSH2 0x4A8 JUMPI PUSH0 CALLDATASIZE PUSH1 0x3 NOT ADD SLT PUSH2 0x4A8 JUMPI PUSH1 0x20 PUSH1 0x5 SLOAD PUSH1 0x40 MLOAD SWAP1 DUP2 MSTORE RETURN JUMPDEST CALLVALUE PUSH2 0x4A8 JUMPI PUSH1 0x20 CALLDATASIZE PUSH1 0x3 NOT ADD SLT PUSH2 0x4A8 JUMPI PUSH1 0x4 CALLDATALOAD PUSH1 0x20 SLOAD DUP2 LT ISZERO PUSH2 0x1172 JUMPI PUSH2 0x1159 PUSH1 0x20 SWAP2 PUSH2 0x4A15 JUMP JUMPDEST SWAP1 SLOAD PUSH1 0x40 MLOAD PUSH1 0x3 SWAP3 SWAP1 SWAP3 SHL SHR PUSH1 0x1 PUSH1 0x1 PUSH1 0xA0 SHL SUB AND DUP2 MSTORE RETURN JUMPDEST PUSH1 0x40 MLOAD PUSH3 0x461BCD PUSH1 0xE5 SHL DUP2 MSTORE PUSH1 0x20 PUSH1 0x4 DUP3 ADD MSTORE PUSH1 0x13 PUSH1 0x24 DUP3 ADD MSTORE PUSH19 0x496E646578206F7574206F6620626F756E6473 PUSH1 0x68 SHL PUSH1 0x44 DUP3 ADD MSTORE PUSH1 0x64 SWAP1 REVERT JUMPDEST CALLVALUE PUSH2 0x4A8 JUMPI PUSH1 0x20 CALLDATASIZE PUSH1 0x3 NOT ADD SLT PUSH2 0x4A8 JUMPI PUSH1 0x8 SLOAD PUSH1 0x4 CALLDATALOAD DUP2 DUP2 MUL SWAP2 DUP2 ISZERO SWAP2 DUP4 DIV EQ OR ISZERO PUSH2 0xDC4 JUMPI PUSH1 0x20 SWAP1 PUSH2 0x2710 PUSH1 0x40 MLOAD SWAP2 DIV DUP2 MSTORE RETURN JUMPDEST CALLVALUE PUSH2 0x4A8 JUMPI PUSH0 CALLDATASIZE PUSH1 0x3 NOT ADD SLT PUSH2 0x4A8 JUMPI PUSH1 0x20 PUSH1 0xFF PUSH1 0xB SLOAD AND PUSH1 0x40 MLOAD SWAP1 ISZERO ISZERO DUP2 MSTORE RETURN JUMPDEST CALLVALUE PUSH2 0x4A8 JUMPI PUSH1 0x20 CALLDATASIZE PUSH1 0x3 NOT ADD SLT PUSH2 0x4A8 JUMPI PUSH1 0x4 CALLDATALOAD PUSH0 MSTORE PUSH1 0x24 PUSH1 0x20 MSTORE PUSH2 0xFFFF PUSH1 0x40 PUSH0 KECCAK256 PUSH2 0x127A DUP2 SLOAD SWAP2 PUSH1 0x1 DUP2 ADD SLOAD SWAP1 PUSH2 0x1244 PUSH1 0x3 PUSH1 0x2 DUP4 ADD SLOAD SWAP3 ADD PUSH2 0x41AE JUMP JUMPDEST SWAP2 PUSH1 0x40 MLOAD SWAP6 DUP7 SWAP6 PUSH1 0x1 DUP1 PUSH1 0xA0 SHL SUB DUP2 AND DUP8 MSTORE PUSH1 0xA0 SHR AND PUSH1 0x20 DUP7 ADD MSTORE PUSH1 0x40 DUP6 ADD MSTORE PUSH1 0x60 DUP5 ADD MSTORE PUSH1 0xA0 PUSH1 0x80 DUP5 ADD MSTORE PUSH1 0xA0 DUP4 ADD SWAP1 PUSH2 0x4271 JUMP JUMPDEST SUB SWAP1 RETURN JUMPDEST CALLVALUE PUSH2 0x4A8 JUMPI PUSH1 0x40 CALLDATASIZE PUSH1 0x3 NOT ADD SLT PUSH2 0x4A8 JUMPI PUSH2 0x1297 PUSH2 0x405E JUMP JUMPDEST PUSH2 0x129F PUSH2 0x408A JUMP JUMPDEST SWAP1 PUSH1 0x1 DUP1 PUSH1 0xA0 SHL SUB AND PUSH0 MSTORE PUSH1 0x13 PUSH1 0x20 MSTORE PUSH1 0xFF PUSH1 0x40 PUSH0 KECCAK256 SWAP2 AND PUSH0 MSTORE PUSH1 0x20 MSTORE PUSH1 0x20 PUSH1 0xFF PUSH1 0x40 PUSH0 KECCAK256 SLOAD AND PUSH1 0x40 MLOAD SWAP1 ISZERO ISZERO DUP2 MSTORE RETURN JUMPDEST CALLVALUE PUSH2 0x4A8 JUMPI PUSH1 0x20 CALLDATASIZE PUSH1 0x3 NOT ADD SLT PUSH2 0x4A8 JUMPI PUSH1 0x1 PUSH1 0x1 PUSH1 0xA0 SHL SUB PUSH2 0x12F1 PUSH2 0x405E JUMP JUMPDEST AND PUSH0 MSTORE PUSH1 0x17 PUSH1 0x20 MSTORE PUSH1 0xE0 PUSH1 0x40 PUSH0 KECCAK256 DUP1 SLOAD SWAP1 PUSH1 0x1 DUP2 ADD SLOAD SWAP1 PUSH1 0x2 DUP2 ADD SLOAD PUSH1 0x3 DUP3 ADD SLOAD PUSH1 0x4 DUP4 ADD SLOAD SWAP2 PUSH1 0x6 PUSH1 0x5 DUP6 ADD SLOAD SWAP5 ADD SLOAD SWAP5 PUSH1 0x40 MLOAD SWAP7 DUP8 MSTORE PUSH1 0x20 DUP8 ADD MSTORE PUSH1 0x40 DUP7 ADD MSTORE PUSH1 0x60 DUP6 ADD MSTORE PUSH1 0x80 DUP5 ADD MSTORE PUSH1 0xA0 DUP4 ADD MSTORE PUSH1 0xC0 DUP3 ADD MSTORE RETURN JUMPDEST CALLVALUE PUSH2 0x4A8 JUMPI PUSH1 0x20 CALLDATASIZE PUSH1 0x3 NOT ADD SLT PUSH2 0x4A8 JUMPI PUSH1 0x4 CALLDATALOAD PUSH0 SWAP1 DUP2 MSTORE PUSH1 0x22 PUSH1 0x20 MSTORE PUSH1 0x40 SWAP1 KECCAK256 DUP1 SLOAD PUSH1 0x1 PUSH1 0x1 PUSH1 0xA0 SHL SUB AND PUSH2 0x1381 PUSH1 0x1 DUP4 ADD PUSH2 0x41AE JUMP JUMPDEST SWAP2 PUSH2 0x138E PUSH1 0x2 DUP3 ADD PUSH2 0x41AE JUMP JUMPDEST PUSH1 0x3 DUP3 ADD SLOAD SWAP2 PUSH2 0x13CC PUSH1 0x5 PUSH1 0x4 DUP4 ADD SLOAD SWAP3 ADD SLOAD SWAP3 PUSH2 0x13BE PUSH1 0x40 MLOAD SWAP8 DUP9 SWAP8 DUP9 MSTORE PUSH1 0xC0 PUSH1 0x20 DUP10 ADD MSTORE PUSH1 0xC0 DUP9 ADD SWAP1 PUSH2 0x4271 JUMP JUMPDEST SWAP1 DUP7 DUP3 SUB PUSH1 0x40 DUP9 ADD MSTORE PUSH2 0x4271 JUMP JUMPDEST SWAP3 PUSH1 0x60 DUP6 ADD MSTORE PUSH1 0x80 DUP5 ADD MSTORE PUSH1 0xA0 DUP4 ADD MSTORE SUB SWAP1 RETURN JUMPDEST CALLVALUE PUSH2 0x4A8 JUMPI PUSH0 CALLDATASIZE PUSH1 0x3 NOT ADD SLT PUSH2 0x4A8 JUMPI PUSH1 0x20 PUSH1 0x40 MLOAD PUSH1 0x3 DUP2 MSTORE RETURN JUMPDEST CALLVALUE PUSH2 0x4A8 JUMPI PUSH1 0x60 CALLDATASIZE PUSH1 0x3 NOT ADD SLT PUSH2 0x4A8 JUMPI PUSH2 0x1414 PUSH2 0x40AA JUMP JUMPDEST PUSH1 0x44 CALLDATALOAD PUSH1 0x1 PUSH1 0x1 PUSH1 0x40 SHL SUB DUP2 GT PUSH2 0x4A8 JUMPI PUSH2 0x1433 SWAP1 CALLDATASIZE SWAP1 PUSH1 0x4 ADD PUSH2 0x4296 JUMP JUMPDEST SWAP2 DUP3 ISZERO PUSH2 0x1456 JUMPI PUSH2 0x144B PUSH2 0x110B SWAP3 PUSH1 0x20 SWAP5 CALLDATASIZE SWAP2 PUSH2 0x4361 JUMP JUMPDEST SWAP1 PUSH1 0x24 CALLDATALOAD SWAP1 CALLER PUSH2 0x51B4 JUMP JUMPDEST PUSH1 0x40 MLOAD PUSH3 0x461BCD PUSH1 0xE5 SHL DUP2 MSTORE PUSH1 0x20 PUSH1 0x4 DUP3 ADD MSTORE PUSH1 0x15 PUSH1 0x24 DUP3 ADD MSTORE PUSH21 0x4D697373696E672070757263686173652064617465 PUSH1 0x58 SHL PUSH1 0x44 DUP3 ADD MSTORE PUSH1 0x64 SWAP1 REVERT JUMPDEST CALLVALUE PUSH2 0x4A8 JUMPI PUSH1 0x80 CALLDATASIZE PUSH1 0x3 NOT ADD SLT PUSH2 0x4A8 JUMPI PUSH2 0x14AC PUSH2 0x40AA JUMP JUMPDEST PUSH1 0x24 SWAP1 PUSH1 0x1 PUSH1 0x1 PUSH1 0x40 SHL SUB SWAP1 PUSH1 0x44 CALLDATALOAD DUP3 DUP2 GT PUSH2 0x4A8 JUMPI PUSH2 0x14D0 SWAP1 CALLDATASIZE SWAP1 PUSH1 0x4 ADD PUSH2 0x4296 JUMP JUMPDEST PUSH1 0x64 SWAP4 SWAP2 SWAP4 CALLDATALOAD SWAP5 PUSH2 0xFFFF DUP1 SWAP5 AND SWAP3 PUSH2 0x14E9 DUP5 ISZERO ISZERO PUSH2 0x4810 JUMP JUMPDEST DUP2 CALLDATALOAD ISZERO PUSH2 0x194C JUMPI DUP3 ISZERO PUSH2 0x1912 JUMPI PUSH2 0x1501 DUP8 ISZERO ISZERO PUSH2 0x49C6 JUMP JUMPDEST PUSH2 0x1513 PUSH2 0x150D CALLER PUSH2 0x4472 JUMP JUMPDEST ISZERO PUSH2 0x47D2 JUMP JUMPDEST CALLER PUSH0 MSTORE PUSH1 0x20 SWAP7 PUSH1 0x13 DUP9 MSTORE PUSH1 0x40 PUSH0 KECCAK256 PUSH1 0x2 SWAP1 DUP2 PUSH0 MSTORE DUP10 MSTORE PUSH1 0x40 PUSH0 KECCAK256 SWAP2 PUSH1 0x1 SWAP3 DUP4 PUSH1 0xFF NOT DUP3 SLOAD AND OR SWAP1 SSTORE CALLER PUSH0 MSTORE PUSH1 0x1F DUP11 MSTORE PUSH1 0x40 PUSH0 KECCAK256 DUP3 PUSH0 MSTORE DUP11 MSTORE PUSH0 PUSH1 0x40 DUP2 KECCAK256 SSTORE CALLER PUSH0 MSTORE PUSH1 0x1E DUP11 MSTORE PUSH1 0x40 PUSH0 KECCAK256 DUP3 PUSH0 MSTORE DUP11 MSTORE DUP1 PUSH1 0x40 PUSH0 KECCAK256 SSTORE PUSH2 0x1570 CALLER PUSH2 0x4472 JUMP JUMPDEST ISZERO PUSH2 0x1730 JUMPI JUMPDEST POP PUSH1 0x7 SLOAD SWAP7 DUP3 DUP9 ADD DUP1 DUP10 GT PUSH2 0x171D JUMPI DUP6 PUSH2 0x15F9 DUP11 SWAP7 SWAP6 SWAP5 SWAP4 DUP11 PUSH1 0x25 DUP16 DUP16 PUSH2 0x15C1 SWAP1 DUP15 SWAP9 PUSH1 0x7 SSTORE PUSH1 0x40 MLOAD SWAP9 PUSH2 0x15A9 DUP11 PUSH2 0x4104 JUMP JUMPDEST CALLER DUP11 MSTORE DUP4 DUP11 ADD SWAP6 DUP7 MSTORE PUSH1 0x40 DUP11 ADD SWAP9 CALLDATALOAD DUP10 MSTORE CALLDATASIZE SWAP2 PUSH2 0x4361 JUMP JUMPDEST PUSH1 0x60 DUP9 ADD SWAP1 DUP2 MSTORE PUSH0 SWAP12 DUP13 MSTORE SWAP2 SWAP1 MSTORE PUSH1 0x40 SWAP1 SWAP10 KECCAK256 SWAP5 MLOAD DUP6 SLOAD PUSH1 0x1 PUSH1 0x1 PUSH1 0xA0 SHL SUB NOT AND PUSH1 0x1 PUSH1 0x1 PUSH1 0xA0 SHL SUB SWAP2 SWAP1 SWAP2 AND OR DUP6 SSTORE MLOAD AND DUP4 PUSH2 0x4A6E JUMP JUMPDEST MLOAD DUP4 DUP3 ADD SSTORE ADD SWAP3 MLOAD DUP1 MLOAD SWAP3 DUP4 GT PUSH2 0x170A JUMPI PUSH2 0x161E DUP4 PUSH2 0x1618 DUP7 SLOAD PUSH2 0x40CC JUMP JUMPDEST DUP7 PUSH2 0x484E JUMP JUMPDEST DUP10 SWAP2 PUSH1 0x1F DUP5 GT PUSH1 0x1 EQ PUSH2 0x1697 JUMPI POP DUP3 PUSH0 DUP1 MLOAD PUSH1 0x20 PUSH2 0x5B3B DUP4 CODECOPY DUP2 MLOAD SWAP2 MSTORE SWAP6 SWAP4 DUP10 SWAP11 SWAP6 SWAP4 PUSH2 0x1652 SWAP4 PUSH0 SWAP3 PUSH2 0xD4F JUMPI POP POP PUSH2 0x489D JUMP JUMPDEST SWAP1 SSTORE JUMPDEST PUSH2 0x166E PUSH1 0x40 MLOAD PUSH2 0x1664 DUP2 PUSH2 0x413A JUMP JUMPDEST PUSH0 DUP2 MSTORE DUP8 CALLER PUSH2 0x4E1B JUMP JUMPDEST PUSH2 0x168C PUSH1 0x40 MLOAD SWAP3 DUP4 SWAP3 CALLDATALOAD DUP4 MSTORE PUSH1 0x40 DUP11 DUP5 ADD MSTORE CALLER SWAP6 PUSH1 0x40 DUP5 ADD SWAP2 PUSH2 0x4770 JUMP JUMPDEST SUB SWAP1 LOG4 PUSH1 0x40 MLOAD SWAP1 DUP2 MSTORE RETURN JUMPDEST SWAP3 SWAP2 PUSH1 0x1F NOT DUP4 AND SWAP2 DUP6 PUSH0 MSTORE DUP12 PUSH0 KECCAK256 SWAP3 PUSH0 JUMPDEST DUP14 DUP3 DUP3 LT PUSH2 0x16F6 JUMPI POP POP SWAP2 PUSH0 DUP1 MLOAD PUSH1 0x20 PUSH2 0x5B3B DUP4 CODECOPY DUP2 MLOAD SWAP2 MSTORE SWAP8 SWAP6 SWAP4 SWAP2 DUP6 DUP13 SWAP14 SWAP9 SWAP7 SWAP5 LT PUSH2 0x16DE JUMPI JUMPDEST POP POP POP DUP2 SHL ADD SWAP1 SSTORE PUSH2 0x1655 JUMP JUMPDEST ADD MLOAD PUSH0 NOT PUSH1 0xF8 DUP5 PUSH1 0x3 SHL AND SHR NOT AND SWAP1 SSTORE DUP12 DUP1 DUP1 PUSH2 0x16D1 JUMP JUMPDEST DUP4 DUP6 ADD MLOAD DUP7 SSTORE SWAP5 DUP8 ADD SWAP5 SWAP4 DUP5 ADD SWAP4 ADD PUSH2 0x16A8 JUMP JUMPDEST DUP5 PUSH4 0x4E487B71 PUSH1 0xE0 SHL PUSH0 MSTORE PUSH1 0x41 PUSH1 0x4 MSTORE PUSH0 REVERT JUMPDEST DUP6 PUSH4 0x4E487B71 PUSH1 0xE0 SHL PUSH0 MSTORE PUSH1 0x11 PUSH1 0x4 MSTORE PUSH0 REVERT JUMPDEST PUSH1 0x40 MLOAD PUSH2 0x173C DUP2 PUSH2 0x413A JUMP JUMPDEST PUSH0 DUP2 MSTORE PUSH2 0x174A CALLER ISZERO ISZERO PUSH2 0x4DC5 JUMP JUMPDEST PUSH1 0x40 MLOAD PUSH2 0x1756 DUP2 PUSH2 0x4155 JUMP JUMPDEST DUP5 DUP2 MSTORE DUP12 DUP2 ADD SWAP1 DUP13 CALLDATASIZE DUP4 CALLDATACOPY MLOAD ISZERO PUSH2 0x18FF JUMPI PUSH1 0xCA SWAP1 MSTORE PUSH2 0x1773 PUSH2 0x57E0 JUMP JUMPDEST POP PUSH1 0xCA PUSH0 MSTORE PUSH0 DUP12 MSTORE PUSH1 0x40 PUSH0 KECCAK256 CALLER PUSH0 MSTORE DUP12 MSTORE PUSH1 0x40 PUSH0 KECCAK256 DUP1 SLOAD SWAP1 DUP6 DUP3 ADD DUP1 SWAP3 GT PUSH2 0x18EC JUMPI SSTORE PUSH1 0x40 MLOAD PUSH1 0xCA DUP2 MSTORE DUP5 DUP13 DUP3 ADD MSTORE PUSH0 CALLER SWAP2 PUSH0 DUP1 MLOAD PUSH1 0x20 PUSH2 0x591B DUP4 CODECOPY DUP2 MLOAD SWAP2 MSTORE PUSH1 0x40 CALLER SWAP3 LOG4 CALLER EXTCODESIZE PUSH2 0x17F8 JUMPI JUMPDEST POP PUSH1 0x40 MLOAD DUP3 SWAP2 DUP3 CALLER PUSH0 DUP1 MLOAD PUSH1 0x20 PUSH2 0x59FB DUP4 CODECOPY DUP2 MLOAD SWAP2 MSTORE PUSH0 DUP1 LOG3 PUSH0 DUP3 MSTORE DUP12 DUP3 ADD MSTORE PUSH0 DUP1 MLOAD PUSH1 0x20 PUSH2 0x5ADB DUP4 CODECOPY DUP2 MLOAD SWAP2 MSTORE PUSH1 0x40 CALLER SWAP3 LOG3 DUP10 PUSH2 0x1576 JUMP JUMPDEST SWAP5 PUSH2 0x183F DUP12 DUP3 SWAP13 SWAP12 SWAP11 SWAP10 SWAP9 SWAP8 PUSH1 0x40 MLOAD DUP1 SWAP4 DUP2 SWAP3 PUSH0 PUSH4 0xF23A6E61 PUSH1 0xE0 SHL SWAP8 DUP9 DUP6 MSTORE CALLER PUSH1 0x4 DUP7 ADD MSTORE DUP5 ADD MSTORE PUSH1 0xCA PUSH1 0x44 DUP5 ADD MSTORE DUP10 PUSH1 0x64 DUP5 ADD MSTORE PUSH1 0xA0 PUSH1 0x84 DUP5 ADD MSTORE PUSH1 0xA4 DUP4 ADD SWAP1 PUSH2 0x4271 JUMP JUMPDEST SUB DUP2 PUSH0 CALLER GAS CALL PUSH0 SWAP2 DUP2 PUSH2 0x18CD JUMPI JUMPDEST POP PUSH2 0x18B2 JUMPI DUP12 DUP12 PUSH2 0x185C PUSH2 0x5703 JUMP JUMPDEST PUSH4 0x8C379A0 EQ PUSH2 0x187F JUMPI PUSH1 0x40 MLOAD PUSH3 0x461BCD PUSH1 0xE5 SHL DUP2 MSTORE DUP1 PUSH2 0x7B9 PUSH1 0x4 DUP3 ADD PUSH2 0x578B JUMP JUMPDEST PUSH2 0x1887 PUSH2 0x571E JUMP JUMPDEST DUP1 PUSH2 0x1892 JUMPI POP PUSH2 0x7A0 JUMP JUMPDEST PUSH2 0x7B9 SWAP1 PUSH1 0x40 MLOAD SWAP4 DUP5 SWAP4 PUSH3 0x461BCD PUSH1 0xE5 SHL DUP6 MSTORE PUSH1 0x4 DUP6 ADD MSTORE DUP4 ADD SWAP1 PUSH2 0x4271 JUMP JUMPDEST PUSH4 0xFFFFFFFF PUSH1 0xE0 SWAP13 SWAP8 SWAP9 SWAP10 SWAP11 SWAP12 SWAP13 SHL AND SUB PUSH2 0x805 JUMPI DUP2 PUSH2 0x17BF JUMP JUMPDEST PUSH2 0x18E5 SWAP2 SWAP3 POP DUP13 DUP14 RETURNDATASIZE LT PUSH2 0x846 JUMPI PUSH2 0x837 DUP2 DUP4 PUSH2 0x418B JUMP JUMPDEST SWAP1 DUP14 PUSH2 0x184D JUMP JUMPDEST DUP8 PUSH4 0x4E487B71 PUSH1 0xE0 SHL PUSH0 MSTORE PUSH1 0x11 PUSH1 0x4 MSTORE PUSH0 REVERT JUMPDEST DUP7 PUSH4 0x4E487B71 PUSH1 0xE0 SHL PUSH0 MSTORE PUSH1 0x32 PUSH1 0x4 MSTORE PUSH0 REVERT JUMPDEST PUSH1 0x40 MLOAD PUSH3 0x461BCD PUSH1 0xE5 SHL DUP2 MSTORE PUSH1 0x20 PUSH1 0x4 DUP3 ADD MSTORE PUSH1 0x13 DUP2 DUP5 ADD MSTORE PUSH19 0x4D697373696E6720706C656467652064617465 PUSH1 0x68 SHL PUSH1 0x44 DUP3 ADD MSTORE PUSH1 0x64 SWAP1 REVERT JUMPDEST PUSH1 0x40 MLOAD PUSH3 0x461BCD PUSH1 0xE5 SHL DUP2 MSTORE PUSH1 0x20 PUSH1 0x4 DUP3 ADD MSTORE PUSH1 0xF DUP2 DUP5 ADD MSTORE PUSH15 0x125B9D985B1A59081CDD5C1C1BDC9D PUSH1 0x8A SHL PUSH1 0x44 DUP3 ADD MSTORE PUSH1 0x64 SWAP1 REVERT JUMPDEST CALLVALUE PUSH2 0x4A8 JUMPI PUSH1 0x20 CALLDATASIZE PUSH1 0x3 NOT ADD SLT PUSH2 0x4A8 JUMPI PUSH1 0x1 PUSH1 0x1 PUSH1 0xA0 SHL SUB PUSH2 0x19A3 PUSH2 0x405E JUMP JUMPDEST AND PUSH0 MSTORE PUSH1 0x15 PUSH1 0x20 MSTORE PUSH1 0x20 PUSH1 0xFF PUSH1 0x40 PUSH0 KECCAK256 SLOAD AND PUSH1 0x40 MLOAD SWAP1 DUP2 MSTORE RETURN JUMPDEST CALLVALUE PUSH2 0x4A8 JUMPI PUSH1 0x20 CALLDATASIZE PUSH1 0x3 NOT ADD SLT PUSH2 0x4A8 JUMPI PUSH2 0xFFFF PUSH2 0x19D9 PUSH2 0x40AA JUMP JUMPDEST AND PUSH0 MSTORE PUSH1 0x1A PUSH1 0x20 MSTORE PUSH2 0x127A PUSH2 0x19F0 PUSH1 0x40 PUSH0 KECCAK256 PUSH2 0x41AE JUMP JUMPDEST PUSH1 0x40 MLOAD SWAP2 DUP3 SWAP2 PUSH1 0x20 DUP4 MSTORE PUSH1 0x20 DUP4 ADD SWAP1 PUSH2 0x4271 JUMP JUMPDEST CALLVALUE PUSH2 0x4A8 JUMPI PUSH1 0x60 CALLDATASIZE PUSH1 0x3 NOT ADD SLT PUSH2 0x4A8 JUMPI PUSH2 0x1A1D PUSH2 0x405E JUMP JUMPDEST PUSH2 0x1A25 PUSH2 0x404F JUMP JUMPDEST PUSH1 0x44 CALLDATALOAD SWAP2 PUSH1 0xFF DUP4 AND DUP1 SWAP4 SUB PUSH2 0x4A8 JUMPI PUSH1 0x20 PUSH32 0xA0AA2B85DF88566521DAA2AC1EB0694994372F9F1E64A41307F9D06A571F9212 SWAP2 PUSH2 0x1A60 PUSH2 0x4A8D JUMP JUMPDEST PUSH1 0x1 DUP1 PUSH1 0xA0 SHL SUB AND SWAP3 DUP4 PUSH0 MSTORE PUSH1 0x14 DUP3 MSTORE PUSH2 0x1A7D DUP2 PUSH1 0x40 PUSH0 KECCAK256 PUSH2 0x4461 JUMP JUMPDEST PUSH1 0x15 DUP3 MSTORE PUSH1 0x40 PUSH0 KECCAK256 DUP6 PUSH1 0xFF NOT DUP3 SLOAD AND OR SWAP1 SSTORE PUSH1 0x40 MLOAD SWAP1 ISZERO ISZERO DUP2 MSTORE LOG3 STOP JUMPDEST CALLVALUE PUSH2 0x4A8 JUMPI PUSH1 0x40 CALLDATASIZE PUSH1 0x3 NOT ADD SLT PUSH2 0x4A8 JUMPI PUSH2 0x1AB3 PUSH2 0x405E JUMP JUMPDEST PUSH2 0x1ABB PUSH2 0x408A JUMP JUMPDEST SWAP1 PUSH2 0x1ACD PUSH2 0x1AC8 DUP4 PUSH2 0x4C46 JUMP JUMPDEST PUSH2 0x4790 JUMP JUMPDEST PUSH1 0x1 DUP1 PUSH1 0xA0 SHL SUB AND PUSH0 MSTORE PUSH1 0x13 PUSH1 0x20 MSTORE PUSH1 0xFF PUSH1 0x40 PUSH0 KECCAK256 SWAP2 AND PUSH0 MSTORE PUSH1 0x20 MSTORE PUSH1 0x20 PUSH1 0xFF PUSH1 0x40 PUSH0 KECCAK256 SLOAD AND PUSH1 0x40 MLOAD SWAP1 ISZERO ISZERO DUP2 MSTORE RETURN JUMPDEST CALLVALUE PUSH2 0x4A8 JUMPI PUSH1 0x40 CALLDATASIZE PUSH1 0x3 NOT ADD SLT PUSH2 0x4A8 JUMPI PUSH2 0x1B16 PUSH2 0x405E JUMP JUMPDEST PUSH2 0x1B1E PUSH2 0x404F JUMP JUMPDEST PUSH1 0x1 PUSH1 0x1 PUSH1 0xA0 SHL SUB SWAP1 SWAP2 AND SWAP1 CALLER DUP3 EQ PUSH2 0x1B80 JUMPI CALLER PUSH0 MSTORE PUSH1 0x1 PUSH1 0x20 MSTORE PUSH1 0x40 PUSH0 KECCAK256 DUP3 PUSH0 MSTORE PUSH1 0x20 MSTORE PUSH2 0x1B50 DUP2 PUSH1 0x40 PUSH0 KECCAK256 PUSH2 0x4461 JUMP JUMPDEST PUSH1 0x40 MLOAD SWAP1 ISZERO ISZERO DUP2 MSTORE PUSH32 0x17307EAB39AB6107E8899845AD3D59BD9653F200F220920489CA2B5937696C31 PUSH1 0x20 CALLER SWAP3 LOG3 STOP JUMPDEST PUSH1 0x40 MLOAD PUSH3 0x461BCD PUSH1 0xE5 SHL DUP2 MSTORE PUSH1 0x20 PUSH1 0x4 DUP3 ADD MSTORE PUSH1 0x29 PUSH1 0x24 DUP3 ADD MSTORE PUSH32 0x455243313135353A2073657474696E6720617070726F76616C20737461747573 PUSH1 0x44 DUP3 ADD MSTORE PUSH9 0x103337B91039B2B633 PUSH1 0xB9 SHL PUSH1 0x64 DUP3 ADD MSTORE PUSH1 0x84 SWAP1 REVERT JUMPDEST CALLVALUE PUSH2 0x4A8 JUMPI PUSH1 0x20 DUP1 PUSH1 0x3 NOT CALLDATASIZE ADD SLT PUSH2 0x4A8 JUMPI PUSH1 0x1 PUSH1 0x1 PUSH1 0x40 SHL SUB PUSH1 0x4 CALLDATALOAD DUP2 DUP2 GT PUSH2 0x4A8 JUMPI PUSH2 0x1C0C PUSH2 0x1C1B SWAP2 CALLDATASIZE SWAP1 PUSH1 0x4 ADD PUSH2 0x4296 JUMP JUMPDEST PUSH2 0x1C14 PUSH2 0x4A8D JUMP JUMPDEST CALLDATASIZE SWAP2 PUSH2 0x4361 JUMP JUMPDEST SWAP2 DUP3 MLOAD SWAP2 DUP3 GT PUSH2 0x99D JUMPI PUSH2 0x1C30 PUSH1 0x2 SLOAD PUSH2 0x40CC JUMP JUMPDEST PUSH1 0x1F DUP2 GT PUSH2 0x1CCA JUMPI JUMPDEST POP DUP1 PUSH1 0x1F DUP4 GT PUSH1 0x1 EQ PUSH2 0x1C6A JUMPI POP DUP2 SWAP1 PUSH2 0x1C5A SWAP4 PUSH0 SWAP3 PUSH2 0x1C5F JUMPI POP POP PUSH2 0x489D JUMP JUMPDEST PUSH1 0x2 SSTORE STOP JUMPDEST ADD MLOAD SWAP1 POP DUP4 DUP1 PUSH2 0xBBD JUMP JUMPDEST SWAP1 PUSH1 0x1F NOT DUP4 AND SWAP4 PUSH1 0x2 PUSH0 MSTORE DUP3 PUSH0 KECCAK256 SWAP3 PUSH0 SWAP1 JUMPDEST DUP7 DUP3 LT PUSH2 0x1CB2 JUMPI POP POP DUP4 PUSH1 0x1 SWAP6 LT PUSH2 0x1C9A JUMPI JUMPDEST POP POP POP DUP2 SHL ADD PUSH1 0x2 SSTORE STOP JUMPDEST ADD MLOAD PUSH0 NOT PUSH1 0xF8 DUP5 PUSH1 0x3 SHL AND SHR NOT AND SWAP1 SSTORE DUP3 DUP1 DUP1 PUSH2 0x1C8F JUMP JUMPDEST DUP1 PUSH1 0x1 DUP6 SWAP7 DUP3 SWAP5 SWAP7 DUP7 ADD MLOAD DUP2 SSTORE ADD SWAP6 ADD SWAP4 ADD SWAP1 PUSH2 0x1C7C JUMP JUMPDEST PUSH1 0x2 PUSH0 MSTORE DUP2 PUSH0 KECCAK256 PUSH1 0x1F DUP5 ADD PUSH1 0x5 SHR DUP2 ADD SWAP2 DUP4 DUP6 LT PUSH2 0x1D04 JUMPI JUMPDEST PUSH1 0x1F ADD PUSH1 0x5 SHR ADD SWAP1 JUMPDEST DUP2 DUP2 LT PUSH2 0x1CF9 JUMPI POP PUSH2 0x1C39 JUMP JUMPDEST PUSH0 DUP2 SSTORE PUSH1 0x1 ADD PUSH2 0x1CEC JUMP JUMPDEST SWAP1 SWAP2 POP DUP2 SWAP1 PUSH2 0x1CE3 JUMP JUMPDEST CALLVALUE PUSH2 0x4A8 JUMPI PUSH1 0x20 CALLDATASIZE PUSH1 0x3 NOT ADD SLT PUSH2 0x4A8 JUMPI PUSH1 0x4 CALLDATALOAD PUSH2 0x1D2A PUSH2 0x4A8D JUMP JUMPDEST DUP1 ISZERO PUSH2 0x1D66 JUMPI PUSH1 0x40 DUP2 PUSH32 0x1E1223C1F6274C6D64FDB08C485E192BD2896C9ABF70E840E199AC1F54D6D1D5 SWAP3 PUSH1 0x8 SSTORE DUP2 MLOAD SWAP1 DUP2 MSTORE TIMESTAMP PUSH1 0x20 DUP3 ADD MSTORE LOG1 STOP JUMPDEST PUSH1 0x40 MLOAD PUSH3 0x461BCD PUSH1 0xE5 SHL DUP2 MSTORE PUSH1 0x20 PUSH1 0x4 DUP3 ADD MSTORE PUSH1 0xB PUSH1 0x24 DUP3 ADD MSTORE PUSH11 0x24B73B30B634B2102720AB PUSH1 0xA9 SHL PUSH1 0x44 DUP3 ADD MSTORE PUSH1 0x64 SWAP1 REVERT JUMPDEST CALLVALUE PUSH2 0x4A8 JUMPI PUSH1 0x20 CALLDATASIZE PUSH1 0x3 NOT ADD SLT PUSH2 0x4A8 JUMPI PUSH1 0x1 PUSH1 0x1 PUSH1 0xA0 SHL SUB PUSH2 0x1DBA PUSH2 0x405E JUMP JUMPDEST AND PUSH0 MSTORE PUSH1 0x14 PUSH1 0x20 MSTORE PUSH1 0xFF PUSH1 0x40 PUSH0 KECCAK256 SLOAD AND DUP1 PUSH2 0x1DDD JUMPI JUMPDEST PUSH1 0x20 SWAP1 PUSH1 0x40 MLOAD SWAP1 ISZERO ISZERO DUP2 MSTORE RETURN JUMPDEST POP PUSH1 0x15 PUSH1 0x20 MSTORE PUSH1 0x20 PUSH1 0x2 PUSH1 0xFF PUSH1 0x40 PUSH0 KECCAK256 SLOAD AND LT ISZERO SWAP1 POP PUSH2 0x1DD0 JUMP JUMPDEST CALLVALUE PUSH2 0x4A8 JUMPI PUSH1 0x40 CALLDATASIZE PUSH1 0x3 NOT ADD SLT PUSH2 0x4A8 JUMPI PUSH2 0x1E11 PUSH2 0x405E JUMP JUMPDEST PUSH2 0x1E19 PUSH2 0x408A JUMP JUMPDEST SWAP1 PUSH1 0x1 DUP1 PUSH1 0xA0 SHL SUB AND PUSH0 MSTORE PUSH1 0x1F PUSH1 0x20 MSTORE PUSH1 0xFF PUSH1 0x40 PUSH0 KECCAK256 SWAP2 AND PUSH0 MSTORE PUSH1 0x20 MSTORE PUSH1 0x20 PUSH1 0x40 PUSH0 KECCAK256 SLOAD PUSH1 0x40 MLOAD SWAP1 DUP2 MSTORE RETURN JUMPDEST CALLVALUE PUSH2 0x4A8 JUMPI PUSH0 CALLDATASIZE PUSH1 0x3 NOT ADD SLT PUSH2 0x4A8 JUMPI PUSH1 0x20 PUSH1 0x40 MLOAD PUSH1 0x4 DUP2 MSTORE RETURN JUMPDEST CALLVALUE PUSH2 0x4A8 JUMPI PUSH0 CALLDATASIZE PUSH1 0x3 NOT ADD SLT PUSH2 0x4A8 JUMPI PUSH1 0x3 SLOAD PUSH1 0x40 MLOAD PUSH1 0x1 PUSH1 0x1 PUSH1 0xA0 SHL SUB SWAP1 SWAP2 AND DUP2 MSTORE PUSH1 0x20 SWAP1 RETURN JUMPDEST CALLVALUE PUSH2 0x4A8 JUMPI PUSH1 0x20 CALLDATASIZE PUSH1 0x3 NOT ADD SLT PUSH2 0x4A8 JUMPI PUSH32 0x181F92F68826A8D2B5B97D27F9E18D05A337290356FABF5B717154077DBEA933 PUSH1 0x40 PUSH1 0x4 CALLDATALOAD PUSH2 0x1EC7 PUSH2 0x4A8D JUMP JUMPDEST DUP1 PUSH1 0xC SSTORE TIMESTAMP PUSH1 0xA SSTORE DUP2 MLOAD SWAP1 DUP2 MSTORE TIMESTAMP PUSH1 0x20 DUP3 ADD MSTORE LOG1 STOP JUMPDEST CALLVALUE PUSH2 0x4A8 JUMPI PUSH1 0x80 CALLDATASIZE PUSH1 0x3 NOT ADD SLT PUSH2 0x4A8 JUMPI PUSH1 0x40 PUSH2 0x1EF8 PUSH2 0x40AA JUMP JUMPDEST PUSH2 0x1F00 PUSH2 0x40BB JUMP JUMPDEST PUSH0 SWAP1 PUSH1 0x44 CALLDATALOAD PUSH1 0x64 CALLDATALOAD PUSH2 0x1F13 DUP3 DUP7 CALLER PUSH2 0x4FFC JUMP JUMPDEST SWAP5 PUSH2 0xFFFF SWAP2 DUP3 DUP6 AND SWAP5 DUP6 ISZERO ISZERO DUP1 PUSH2 0x1F86 JUMPI JUMPDEST PUSH2 0x1F68 JUMPI JUMPDEST POP DUP8 MLOAD SWAP4 DUP5 MSTORE PUSH1 0x20 DUP5 ADD MSTORE AND SWAP1 PUSH32 0x31B66F6D8A6A3252233DEFE3A4204C77215F4DDD23783CE33B9B3D9A86B6AC6 DUP7 CALLER SWAP3 LOG4 DUP3 MLOAD SWAP2 DUP3 MSTORE PUSH1 0x20 DUP3 ADD MSTORE RETURN JUMPDEST DUP2 PUSH2 0x1F7F SWAP3 SWAP8 POP PUSH2 0x1F78 TIMESTAMP PUSH2 0x4AE5 JUMP JUMPDEST SWAP2 CALLER PUSH2 0x51B4 JUMP JUMPDEST SWAP5 DUP9 PUSH2 0x1F2A JUMP JUMPDEST POP DUP2 ISZERO ISZERO PUSH2 0x1F25 JUMP JUMPDEST CALLVALUE PUSH2 0x4A8 JUMPI PUSH1 0x20 CALLDATASIZE PUSH1 0x3 NOT ADD SLT PUSH2 0x4A8 JUMPI PUSH2 0xFFFF PUSH2 0x1FAB PUSH2 0x40AA JUMP JUMPDEST AND PUSH0 MSTORE PUSH1 0x1D PUSH1 0x20 MSTORE PUSH2 0x127A PUSH2 0x19F0 PUSH1 0x40 PUSH0 KECCAK256 PUSH2 0x41AE JUMP JUMPDEST CALLVALUE PUSH2 0x4A8 JUMPI PUSH1 0x20 CALLDATASIZE PUSH1 0x3 NOT ADD SLT PUSH2 0x4A8 JUMPI PUSH1 0x4 CALLDATALOAD PUSH0 MSTORE PUSH1 0x12 PUSH1 0x20 MSTORE PUSH1 0x20 PUSH1 0xFF PUSH1 0x40 PUSH0 KECCAK256 SLOAD AND PUSH1 0x40 MLOAD SWAP1 DUP2 MSTORE RETURN JUMPDEST CALLVALUE PUSH2 0x4A8 JUMPI PUSH0 CALLDATASIZE PUSH1 0x3 NOT ADD SLT PUSH2 0x4A8 JUMPI PUSH1 0x20 PUSH1 0x4 SLOAD PUSH1 0x40 MLOAD SWAP1 DUP2 MSTORE RETURN JUMPDEST CALLVALUE PUSH2 0x4A8 JUMPI PUSH0 CALLDATASIZE PUSH1 0x3 NOT ADD SLT PUSH2 0x4A8 JUMPI PUSH1 0x20 PUSH1 0x40 MLOAD PUSH1 0x1 DUP2 MSTORE RETURN JUMPDEST CALLVALUE PUSH2 0x4A8 JUMPI PUSH1 0x40 CALLDATASIZE PUSH1 0x3 NOT ADD SLT PUSH2 0x4A8 JUMPI PUSH2 0x2040 PUSH2 0x405E JUMP JUMPDEST PUSH2 0x2048 PUSH2 0x40BB JUMP JUMPDEST SWAP1 PUSH1 0x1 DUP1 PUSH1 0xA0 SHL SUB AND PUSH0 MSTORE PUSH1 0x19 PUSH1 0x20 MSTORE PUSH2 0xFFFF PUSH1 0x40 PUSH0 KECCAK256 SWAP2 AND PUSH0 MSTORE PUSH1 0x20 MSTORE PUSH1 0x20 PUSH1 0x40 PUSH0 KECCAK256 SLOAD PUSH1 0x40 MLOAD SWAP1 DUP2 MSTORE RETURN JUMPDEST CALLVALUE PUSH2 0x4A8 JUMPI PUSH1 0x40 CALLDATASIZE PUSH1 0x3 NOT ADD SLT PUSH2 0x4A8 JUMPI PUSH2 0x208E PUSH2 0x409A JUMP JUMPDEST PUSH2 0x2096 PUSH2 0x4074 JUMP JUMPDEST PUSH2 0x20A7 PUSH2 0x20A2 DUP4 PUSH2 0x4FA7 JUMP JUMPDEST PUSH2 0x4A2D JUMP JUMPDEST PUSH1 0x1 PUSH1 0x1 PUSH1 0xA0 SHL SUB DUP2 AND SWAP1 DUP2 ISZERO PUSH2 0x21DB JUMPI DUP2 CALLER SUB PUSH2 0x21A5 JUMPI DUP2 PUSH0 MSTORE PUSH1 0x20 SWAP3 PUSH1 0x11 DUP5 MSTORE PUSH1 0xFF PUSH1 0x40 PUSH0 KECCAK256 SWAP2 AND SWAP1 DUP2 PUSH0 MSTORE DUP5 MSTORE PUSH1 0xFF PUSH1 0x40 PUSH0 KECCAK256 SLOAD AND PUSH2 0x2169 JUMPI PUSH1 0x4 SLOAD SWAP3 PUSH1 0x1 DUP5 ADD DUP1 DUP6 GT PUSH2 0xDC4 JUMPI PUSH1 0x4 SSTORE DUP1 PUSH0 MSTORE PUSH1 0x11 DUP6 MSTORE PUSH1 0x40 PUSH0 KECCAK256 DUP3 PUSH0 MSTORE DUP6 MSTORE PUSH1 0x40 PUSH0 KECCAK256 PUSH1 0xFF NOT SWAP1 PUSH1 0x1 DUP3 DUP3 SLOAD AND OR SWAP1 SSTORE DUP5 PUSH0 MSTORE PUSH1 0x12 DUP7 MSTORE DUP3 PUSH1 0x40 PUSH0 KECCAK256 SWAP2 DUP3 SLOAD AND OR SWAP1 SSTORE DUP2 PUSH1 0x64 ADD DUP1 PUSH1 0x64 GT PUSH2 0xDC4 JUMPI DUP5 SWAP4 PUSH2 0x2150 SWAP2 PUSH1 0x40 MLOAD SWAP2 PUSH2 0x2148 DUP4 PUSH2 0x413A JUMP JUMPDEST PUSH0 DUP4 MSTORE PUSH2 0x4E1B JUMP JUMPDEST PUSH0 DUP1 MLOAD PUSH1 0x20 PUSH2 0x5AFB DUP4 CODECOPY DUP2 MLOAD SWAP2 MSTORE PUSH0 DUP1 LOG4 PUSH1 0x40 MLOAD SWAP1 DUP2 MSTORE RETURN JUMPDEST PUSH1 0x40 MLOAD PUSH3 0x461BCD PUSH1 0xE5 SHL DUP2 MSTORE PUSH1 0x4 DUP2 ADD DUP6 SWAP1 MSTORE PUSH1 0x14 PUSH1 0x24 DUP3 ADD MSTORE PUSH20 0x10985919D948185B1C9958591E481B5A5B9D1959 PUSH1 0x62 SHL PUSH1 0x44 DUP3 ADD MSTORE PUSH1 0x64 SWAP1 REVERT JUMPDEST PUSH1 0x40 MLOAD PUSH3 0x461BCD PUSH1 0xE5 SHL DUP2 MSTORE PUSH1 0x20 PUSH1 0x4 DUP3 ADD MSTORE PUSH1 0xE PUSH1 0x24 DUP3 ADD MSTORE PUSH14 0x13DB9B1E481CD95B19881B5A5B9D PUSH1 0x92 SHL PUSH1 0x44 DUP3 ADD MSTORE PUSH1 0x64 SWAP1 REVERT JUMPDEST PUSH1 0x40 MLOAD PUSH3 0x461BCD PUSH1 0xE5 SHL DUP2 MSTORE PUSH1 0x20 PUSH1 0x4 DUP3 ADD MSTORE PUSH1 0x11 PUSH1 0x24 DUP3 ADD MSTORE PUSH17 0x125B9D985B1A59081C9958DA5C1A595B9D PUSH1 0x7A SHL PUSH1 0x44 DUP3 ADD MSTORE PUSH1 0x64 SWAP1 REVERT JUMPDEST CALLVALUE PUSH2 0x4A8 JUMPI PUSH0 CALLDATASIZE PUSH1 0x3 NOT ADD SLT PUSH2 0x4A8 JUMPI PUSH2 0x222C PUSH2 0x4A8D JUMP JUMPDEST PUSH1 0x3 DUP1 SLOAD PUSH1 0x1 PUSH1 0x1 PUSH1 0xA0 SHL SUB NOT DUP2 AND SWAP1 SWAP2 SSTORE PUSH0 SWAP1 PUSH1 0x1 PUSH1 0x1 PUSH1 0xA0 SHL SUB AND PUSH0 DUP1 MLOAD PUSH1 0x20 PUSH2 0x5A3B DUP4 CODECOPY DUP2 MLOAD SWAP2 MSTORE DUP3 DUP1 LOG3 STOP JUMPDEST CALLVALUE PUSH2 0x4A8 JUMPI PUSH0 CALLDATASIZE PUSH1 0x3 NOT ADD SLT PUSH2 0x4A8 JUMPI PUSH1 0x10 SLOAD PUSH1 0x40 MLOAD PUSH1 0x1 PUSH1 0x1 PUSH1 0xA0 SHL SUB SWAP1 SWAP2 AND DUP2 MSTORE PUSH1 0x20 SWAP1 RETURN JUMPDEST CALLVALUE PUSH2 0x4A8 JUMPI PUSH0 CALLDATASIZE PUSH1 0x3 NOT ADD SLT PUSH2 0x4A8 JUMPI PUSH1 0x20 PUSH1 0x40 MLOAD PUSH1 0x7 DUP2 MSTORE RETURN JUMPDEST CALLVALUE PUSH2 0x4A8 JUMPI PUSH1 0x40 CALLDATASIZE PUSH1 0x3 NOT ADD SLT PUSH2 0x4A8 JUMPI PUSH2 0x22B8 PUSH2 0x405E JUMP JUMPDEST PUSH2 0x22C0 PUSH2 0x408A JUMP JUMPDEST SWAP1 PUSH2 0x22CD PUSH2 0x20A2 DUP4 PUSH2 0x4FA7 JUMP JUMPDEST PUSH1 0x1 DUP1 PUSH1 0xA0 SHL SUB AND PUSH0 MSTORE PUSH1 0x11 PUSH1 0x20 MSTORE PUSH1 0xFF PUSH1 0x40 PUSH0 KECCAK256 SWAP2 AND PUSH0 MSTORE PUSH1 0x20 MSTORE PUSH1 0x20 PUSH1 0xFF PUSH1 0x40 PUSH0 KECCAK256 SLOAD AND PUSH1 0x40 MLOAD SWAP1 ISZERO ISZERO DUP2 MSTORE RETURN JUMPDEST CALLVALUE PUSH2 0x4A8 JUMPI PUSH1 0x60 CALLDATASIZE PUSH1 0x3 NOT ADD SLT PUSH2 0x4A8 JUMPI PUSH1 0x4 CALLDATALOAD PUSH1 0x24 CALLDATALOAD PUSH1 0x44 CALLDATALOAD SWAP1 CALLER PUSH0 MSTORE PUSH1 0x20 PUSH1 0x17 DUP2 MSTORE PUSH1 0x40 PUSH0 KECCAK256 PUSH3 0x15180 TIMESTAMP DIV PUSH1 0x18 DUP4 MSTORE PUSH1 0x40 PUSH0 KECCAK256 DUP1 SLOAD PUSH1 0xFF DUP2 AND ISZERO PUSH2 0x242D JUMPI JUMPDEST POP POP PUSH1 0x5 DUP3 ADD DUP2 DUP2 SLOAD SUB PUSH2 0x241F JUMPI JUMPDEST POP POP PUSH1 0x6 DUP2 ADD DUP1 SLOAD SWAP2 PUSH1 0x3 DUP4 LT ISZERO PUSH2 0x23DE JUMPI DUP1 PUSH1 0x4 SWAP2 SLOAD DUP9 SGT PUSH2 0x23CA JUMPI JUMPDEST TIMESTAMP PUSH1 0x3 DUP3 ADD SSTORE ADD DUP1 SLOAD SWAP1 PUSH1 0x1 DUP3 ADD DUP1 SWAP3 GT PUSH2 0xDC4 JUMPI SSTORE PUSH1 0x1 DUP3 ADD DUP1 SWAP3 GT PUSH2 0xDC4 JUMPI SSTORE PUSH1 0x40 MLOAD SWAP4 DUP5 MSTORE DUP4 ADD MSTORE PUSH1 0x40 DUP3 ADD MSTORE TIMESTAMP PUSH1 0x60 DUP3 ADD MSTORE PUSH32 0xF6D69723C1E13A6E751FF8839D394F04FFFFC588FDD13A7CFD1FDFC1BF87EBE1 PUSH1 0x80 CALLER SWAP3 LOG2 STOP JUMPDEST DUP8 DUP2 SSTORE DUP6 PUSH1 0x1 DUP3 ADD SSTORE DUP7 PUSH1 0x2 DUP3 ADD SSTORE PUSH2 0x236C JUMP JUMPDEST PUSH1 0x40 MLOAD PUSH3 0x461BCD PUSH1 0xE5 SHL DUP2 MSTORE PUSH1 0x4 DUP2 ADD DUP6 SWAP1 MSTORE PUSH1 0x19 PUSH1 0x24 DUP3 ADD MSTORE PUSH25 0x11185A5B1E481CD8DBDC99481B1A5B5A5D081C995858DA1959 PUSH1 0x3A SHL PUSH1 0x44 DUP3 ADD MSTORE PUSH1 0x64 SWAP1 REVERT JUMPDEST SSTORE PUSH0 PUSH1 0x6 DUP3 ADD SSTORE DUP6 DUP1 PUSH2 0x234E JUMP JUMPDEST PUSH1 0xFF NOT AND PUSH1 0x1 OR SWAP1 SSTORE DUP3 SLOAD PUSH1 0x1 PUSH1 0x40 SHL DUP2 LT ISZERO PUSH2 0x99D JUMPI DUP1 PUSH1 0x1 PUSH2 0x2453 SWAP3 ADD DUP6 SSTORE PUSH2 0x4A15 JUMP JUMPDEST DUP2 SLOAD PUSH1 0x1 PUSH1 0x1 PUSH1 0xA0 SHL SUB PUSH1 0x3 SWAP3 SWAP1 SWAP3 SHL SWAP2 DUP3 SHL NOT AND CALLER SWAP1 SWAP2 SHL OR SWAP1 SSTORE DUP7 DUP1 PUSH2 0x233F JUMP JUMPDEST CALLVALUE PUSH2 0x4A8 JUMPI PUSH2 0xFFFF PUSH2 0x2487 CALLDATASIZE PUSH2 0x4408 JUMP JUMPDEST SWAP2 PUSH2 0x2493 SWAP4 SWAP2 SWAP4 PUSH2 0x4A8D JUMP JUMPDEST AND SWAP2 PUSH2 0x24A0 DUP4 ISZERO ISZERO PUSH2 0x4810 JUMP JUMPDEST DUP3 PUSH0 MSTORE PUSH1 0x20 SWAP1 PUSH1 0x1B DUP3 MSTORE PUSH1 0x40 PUSH0 KECCAK256 PUSH1 0x1 DUP1 PUSH1 0x40 SHL SUB DUP5 GT PUSH2 0x99D JUMPI PUSH2 0x24C9 DUP5 PUSH2 0x8CA DUP4 SLOAD PUSH2 0x40CC JUMP JUMPDEST PUSH0 PUSH1 0x1F DUP6 GT PUSH1 0x1 EQ PUSH2 0x24FC JUMPI SWAP2 PUSH2 0x918 SWAP2 PUSH2 0x904 DUP7 DUP1 PUSH0 DUP1 MLOAD PUSH1 0x20 PUSH2 0x59BB DUP4 CODECOPY DUP2 MLOAD SWAP2 MSTORE SWAP9 SWAP8 SWAP7 PUSH0 SWAP2 PUSH2 0x91D JUMPI POP PUSH2 0x489D JUMP JUMPDEST PUSH1 0x1F NOT DUP6 AND SWAP1 DUP3 PUSH0 MSTORE DUP5 PUSH0 KECCAK256 SWAP2 PUSH0 JUMPDEST DUP2 DUP2 LT PUSH2 0x2540 JUMPI POP SWAP2 PUSH2 0x918 SWAP4 SWAP2 DUP8 PUSH0 DUP1 MLOAD PUSH1 0x20 PUSH2 0x59BB DUP4 CODECOPY DUP2 MLOAD SWAP2 MSTORE SWAP9 SWAP8 SWAP7 SWAP5 LT PUSH2 0x96D JUMPI POP POP PUSH1 0x1 DUP6 DUP2 SHL ADD SWAP1 SSTORE PUSH2 0x907 JUMP JUMPDEST SWAP2 SWAP3 DUP7 PUSH1 0x1 DUP2 SWAP3 DUP7 DUP10 ADD CALLDATALOAD DUP2 SSTORE ADD SWAP5 ADD SWAP3 ADD PUSH2 0x250B JUMP JUMPDEST CALLVALUE PUSH2 0x4A8 JUMPI PUSH1 0x3 NOT PUSH1 0x20 CALLDATASIZE DUP3 ADD DUP2 SGT PUSH2 0x4A8 JUMPI PUSH1 0x1 PUSH1 0x1 PUSH1 0x40 SHL SUB SWAP1 PUSH1 0x4 CALLDATALOAD SWAP1 DUP3 DUP3 GT PUSH2 0x4A8 JUMPI CALLDATASIZE PUSH1 0x23 DUP4 ADD SLT ISZERO PUSH2 0x4A8 JUMPI DUP2 PUSH1 0x4 ADD CALLDATALOAD SWAP3 DUP4 GT PUSH2 0x4A8 JUMPI PUSH1 0x24 DUP3 ADD SWAP2 PUSH1 0x24 CALLDATASIZE SWAP2 DUP6 PUSH1 0x5 SHL ADD ADD GT PUSH2 0x4A8 JUMPI PUSH2 0x25B2 DUP4 PUSH2 0x4980 JUMP JUMPDEST PUSH0 JUMPDEST DUP5 DUP2 LT PUSH2 0x275A JUMPI POP PUSH2 0x25C7 CALLDATASIZE DUP6 DUP6 PUSH2 0x42DA JUMP JUMPDEST SWAP3 PUSH1 0x40 MLOAD SWAP5 PUSH2 0x25D5 DUP7 PUSH2 0x413A JUMP JUMPDEST PUSH0 DUP7 MSTORE PUSH2 0x25E3 CALLER ISZERO ISZERO PUSH2 0x4DC5 JUMP JUMPDEST PUSH2 0x25F0 DUP6 MLOAD DUP5 MLOAD EQ PUSH2 0x4C72 JUMP JUMPDEST PUSH0 JUMPDEST DUP6 MLOAD DUP2 LT ISZERO PUSH2 0x2639 JUMPI DUP1 PUSH2 0x2608 PUSH1 0x1 SWAP3 DUP7 PUSH2 0x49B2 JUMP JUMPDEST MLOAD PUSH2 0x2613 DUP3 DUP10 PUSH2 0x49B2 JUMP JUMPDEST MLOAD PUSH0 MSTORE PUSH0 DUP8 MSTORE PUSH1 0x40 PUSH0 KECCAK256 CALLER PUSH0 MSTORE DUP8 MSTORE PUSH2 0x2631 PUSH1 0x40 PUSH0 KECCAK256 SWAP2 DUP3 SLOAD PUSH2 0x48AF JUMP JUMPDEST SWAP1 SSTORE ADD PUSH2 0x25F2 JUMP JUMPDEST POP DUP5 DUP7 DUP6 SWAP5 DUP10 PUSH1 0x40 MLOAD PUSH0 CALLER SWAP2 PUSH0 DUP1 MLOAD PUSH1 0x20 PUSH2 0x58DB DUP4 CODECOPY DUP2 MLOAD SWAP2 MSTORE CALLER SWAP2 DUP1 PUSH2 0x2661 DUP9 DUP12 DUP4 PUSH2 0x4D88 JUMP JUMPDEST SUB SWAP1 LOG4 CALLER EXTCODESIZE PUSH2 0x26A4 JUMPI JUMPDEST POP POP POP POP SWAP1 SWAP2 POP PUSH0 JUMPDEST DUP2 DUP2 LT PUSH2 0x267D JUMPI STOP JUMPDEST DUP1 PUSH2 0x268B PUSH1 0x1 SWAP3 DUP5 DUP7 PUSH2 0x4A05 JUMP JUMPDEST CALLDATALOAD CALLER PUSH0 DUP1 MLOAD PUSH1 0x20 PUSH2 0x59DB DUP4 CODECOPY DUP2 MLOAD SWAP2 MSTORE PUSH0 DUP1 LOG3 ADD PUSH2 0x2674 JUMP JUMPDEST DUP7 SWAP2 PUSH2 0x2700 PUSH2 0x26F1 SWAP3 PUSH1 0x40 MLOAD SWAP6 DUP7 SWAP5 DUP6 SWAP5 PUSH2 0x26E1 PUSH4 0xBC197C81 PUSH1 0xE0 SHL SWAP11 DUP12 DUP9 MSTORE CALLER PUSH1 0x4 DUP10 ADD MSTORE PUSH0 PUSH1 0x24 DUP10 ADD MSTORE PUSH1 0xA0 PUSH1 0x44 DUP10 ADD MSTORE PUSH1 0xA4 DUP9 ADD SWAP1 PUSH2 0x43B2 JUMP JUMPDEST SWAP1 DUP5 DUP8 DUP4 SUB ADD PUSH1 0x64 DUP9 ADD MSTORE PUSH2 0x43B2 JUMP JUMPDEST SWAP2 DUP5 DUP4 SUB ADD PUSH1 0x84 DUP6 ADD MSTORE PUSH2 0x4271 JUMP JUMPDEST SUB DUP2 PUSH0 CALLER GAS CALL PUSH0 SWAP2 DUP2 PUSH2 0x273B JUMPI JUMPDEST POP PUSH2 0x271C JUMPI DUP5 PUSH2 0x795 PUSH2 0x5703 JUMP JUMPDEST SWAP3 SWAP4 POP SWAP1 SWAP2 PUSH1 0x1 PUSH1 0x1 PUSH1 0xE0 SHL SUB NOT AND SUB PUSH2 0x805 JUMPI DUP2 SWAP1 DUP4 DUP1 DUP1 DUP1 PUSH2 0x266B JUMP JUMPDEST PUSH2 0x2753 SWAP2 SWAP3 POP DUP7 RETURNDATASIZE DUP9 GT PUSH2 0x846 JUMPI PUSH2 0x837 DUP2 DUP4 PUSH2 0x418B JUMP JUMPDEST SWAP1 DUP7 PUSH2 0x270E JUMP JUMPDEST DUP1 PUSH2 0x2786 PUSH2 0x150D PUSH2 0x276E PUSH1 0x1 SWAP5 DUP10 DUP10 PUSH2 0x4A05 JUMP JUMPDEST CALLDATALOAD PUSH2 0x2780 PUSH2 0x277B DUP3 PUSH2 0x4DAD JUMP JUMPDEST PUSH2 0x493E JUMP JUMPDEST CALLER PUSH2 0x4509 JUMP JUMPDEST DUP2 PUSH2 0x2791 DUP3 DUP6 PUSH2 0x49B2 JUMP JUMPDEST MSTORE ADD PUSH2 0x25B4 JUMP JUMPDEST CALLVALUE PUSH2 0x4A8 JUMPI PUSH1 0x40 CALLDATASIZE PUSH1 0x3 NOT ADD SLT PUSH2 0x4A8 JUMPI PUSH1 0x20 PUSH2 0x110B PUSH2 0x27B6 PUSH2 0x40AA JUMP JUMPDEST PUSH2 0x144B TIMESTAMP PUSH2 0x4AE5 JUMP JUMPDEST CALLVALUE PUSH2 0x4A8 JUMPI PUSH1 0x40 CALLDATASIZE PUSH1 0x3 NOT ADD SLT PUSH2 0x4A8 JUMPI PUSH2 0x27D8 PUSH2 0x405E JUMP JUMPDEST PUSH2 0x27E0 PUSH2 0x40BB JUMP JUMPDEST SWAP1 PUSH1 0x1 DUP1 PUSH1 0xA0 SHL SUB AND PUSH0 MSTORE PUSH1 0x21 PUSH1 0x20 MSTORE PUSH2 0xFFFF PUSH1 0x40 PUSH0 KECCAK256 SWAP2 AND PUSH0 MSTORE PUSH1 0x20 MSTORE PUSH1 0x40 PUSH0 KECCAK256 DUP1 SLOAD PUSH2 0x127A PUSH1 0x1 DUP4 ADD SLOAD SWAP3 PUSH2 0x281E PUSH1 0x3 PUSH1 0x2 DUP4 ADD SLOAD SWAP3 ADD PUSH2 0x41AE JUMP JUMPDEST SWAP1 PUSH1 0x40 MLOAD SWAP5 DUP6 SWAP5 DUP6 PUSH2 0x43E5 JUMP JUMPDEST CALLVALUE PUSH2 0x4A8 JUMPI PUSH1 0x20 CALLDATASIZE PUSH1 0x3 NOT ADD SLT PUSH2 0x4A8 JUMPI PUSH2 0xFFFF PUSH2 0x2847 PUSH2 0x40AA JUMP JUMPDEST AND PUSH0 MSTORE PUSH1 0x1C PUSH1 0x20 MSTORE PUSH2 0x127A PUSH2 0x19F0 PUSH1 0x40 PUSH0 KECCAK256 PUSH2 0x41AE JUMP JUMPDEST CALLVALUE PUSH2 0x4A8 JUMPI PUSH0 CALLDATASIZE PUSH1 0x3 NOT ADD SLT PUSH2 0x4A8 JUMPI PUSH1 0x20 PUSH1 0x40 MLOAD PUSH1 0x8 DUP2 MSTORE RETURN JUMPDEST CALLVALUE PUSH2 0x4A8 JUMPI PUSH1 0x20 DUP1 PUSH1 0x3 NOT CALLDATASIZE ADD SLT PUSH2 0x4A8 JUMPI PUSH1 0x1 PUSH1 0x1 PUSH1 0x40 SHL SUB PUSH1 0x4 CALLDATALOAD DUP2 DUP2 GT PUSH2 0x4A8 JUMPI PUSH2 0x28AB SWAP1 CALLDATASIZE SWAP1 PUSH1 0x4 ADD PUSH2 0x4296 JUMP JUMPDEST SWAP1 SWAP2 PUSH2 0x28B5 PUSH2 0x4A8D JUMP JUMPDEST DUP2 GT PUSH2 0x99D JUMPI PUSH2 0x28C6 PUSH1 0xD SLOAD PUSH2 0x40CC JUMP JUMPDEST PUSH1 0x1F DUP2 GT PUSH2 0x299C JUMPI JUMPDEST POP PUSH0 SWAP3 PUSH1 0x1F DUP3 GT PUSH1 0x1 EQ PUSH2 0x292E JUMPI PUSH2 0x28FD DUP3 DUP1 PUSH0 DUP1 MLOAD PUSH1 0x20 PUSH2 0x5ABB DUP4 CODECOPY DUP2 MLOAD SWAP2 MSTORE SWAP7 PUSH0 SWAP2 PUSH2 0x2923 JUMPI POP PUSH2 0x489D JUMP JUMPDEST PUSH1 0xD SSTORE JUMPDEST PUSH2 0x2918 PUSH1 0x40 MLOAD SWAP4 DUP5 SWAP4 PUSH1 0x40 DUP6 MSTORE PUSH1 0x40 DUP6 ADD SWAP2 PUSH2 0x4770 JUMP JUMPDEST SWAP1 TIMESTAMP SWAP1 DUP4 ADD MSTORE SUB SWAP1 LOG1 STOP JUMPDEST SWAP1 POP DUP6 ADD CALLDATALOAD DUP8 PUSH2 0x8FE JUMP JUMPDEST PUSH1 0x1F NOT DUP3 AND SWAP4 PUSH1 0xD PUSH0 MSTORE DUP2 PUSH0 KECCAK256 SWAP1 PUSH0 JUMPDEST DUP7 DUP2 LT PUSH2 0x2985 JUMPI POP DUP4 PUSH0 DUP1 MLOAD PUSH1 0x20 PUSH2 0x5ABB DUP4 CODECOPY DUP2 MLOAD SWAP2 MSTORE SWAP7 LT PUSH2 0x296C JUMPI JUMPDEST POP POP PUSH1 0x1 DUP3 DUP2 SHL ADD PUSH1 0xD SSTORE PUSH2 0x2901 JUMP JUMPDEST DUP5 ADD CALLDATALOAD PUSH0 NOT PUSH1 0x3 DUP6 SWAP1 SHL PUSH1 0xF8 AND SHR NOT AND SWAP1 SSTORE DUP5 DUP1 PUSH2 0x295C JUMP JUMPDEST SWAP1 SWAP2 DUP4 PUSH1 0x1 DUP2 SWAP3 DUP6 DUP10 ADD CALLDATALOAD DUP2 SSTORE ADD SWAP4 ADD SWAP2 ADD PUSH2 0x293E JUMP JUMPDEST PUSH1 0xD PUSH0 MSTORE DUP4 PUSH0 KECCAK256 PUSH1 0x1F DUP4 ADD PUSH1 0x5 SHR DUP2 ADD SWAP2 DUP6 DUP5 LT PUSH2 0x29D6 JUMPI JUMPDEST PUSH1 0x1F ADD PUSH1 0x5 SHR ADD SWAP1 JUMPDEST DUP2 DUP2 LT PUSH2 0x29CB JUMPI POP PUSH2 0x28CF JUMP JUMPDEST PUSH0 DUP2 SSTORE PUSH1 0x1 ADD PUSH2 0x29BE JUMP JUMPDEST SWAP1 SWAP2 POP DUP2 SWAP1 PUSH2 0x29B5 JUMP JUMPDEST CALLVALUE PUSH2 0x4A8 JUMPI PUSH1 0x20 DUP1 PUSH1 0x3 NOT CALLDATASIZE ADD SLT PUSH2 0x4A8 JUMPI PUSH2 0x29FA PUSH2 0x405E JUMP JUMPDEST PUSH1 0x1 PUSH1 0x1 PUSH1 0xA0 SHL SUB DUP2 AND SWAP1 DUP2 ISZERO PUSH2 0x2BDD JUMPI DUP2 CALLER SUB PUSH2 0x2BA7 JUMPI DUP2 PUSH0 MSTORE PUSH1 0x11 DUP4 MSTORE PUSH1 0x40 PUSH0 KECCAK256 PUSH1 0x1 SWAP1 DUP2 PUSH0 MSTORE DUP5 MSTORE PUSH1 0xFF PUSH1 0x40 PUSH0 KECCAK256 SLOAD AND PUSH2 0x2169 JUMPI PUSH1 0x4 SLOAD SWAP3 DUP2 DUP5 ADD DUP1 DUP6 GT PUSH2 0xDC4 JUMPI PUSH1 0x4 SSTORE DUP1 PUSH0 MSTORE PUSH1 0x11 DUP6 MSTORE PUSH1 0x40 PUSH0 KECCAK256 DUP3 PUSH0 MSTORE DUP6 MSTORE PUSH1 0x40 PUSH0 KECCAK256 PUSH1 0xFF NOT SWAP1 DUP4 DUP3 DUP3 SLOAD AND OR SWAP1 SSTORE DUP5 PUSH0 MSTORE PUSH1 0x12 DUP7 MSTORE DUP3 PUSH1 0x40 PUSH0 KECCAK256 SWAP2 DUP3 SLOAD AND OR SWAP1 SSTORE PUSH1 0x40 MLOAD PUSH2 0x2A81 DUP2 PUSH2 0x413A JUMP JUMPDEST PUSH0 DUP2 MSTORE PUSH1 0x40 MLOAD PUSH2 0x2A90 DUP2 PUSH2 0x4155 JUMP JUMPDEST DUP4 DUP2 MSTORE DUP7 DUP2 ADD SWAP1 DUP8 CALLDATASIZE DUP4 CALLDATACOPY MLOAD ISZERO PUSH2 0x1091 JUMPI PUSH1 0x65 SWAP1 MSTORE PUSH2 0x2AAD PUSH2 0x57E0 JUMP JUMPDEST POP PUSH1 0x65 PUSH0 MSTORE PUSH0 DUP7 MSTORE PUSH1 0x40 PUSH0 KECCAK256 DUP3 PUSH0 MSTORE DUP7 MSTORE PUSH1 0x40 PUSH0 KECCAK256 SWAP4 DUP5 SLOAD DUP5 DUP2 ADD DUP1 SWAP2 GT PUSH2 0xDC4 JUMPI DUP7 SWAP6 SSTORE DUP3 PUSH0 PUSH1 0x40 MLOAD PUSH1 0x65 DUP2 MSTORE DUP7 DUP11 DUP3 ADD MSTORE PUSH0 DUP1 MLOAD PUSH1 0x20 PUSH2 0x591B DUP4 CODECOPY DUP2 MLOAD SWAP2 MSTORE PUSH1 0x40 CALLER SWAP3 LOG4 EXTCODESIZE PUSH2 0x2B13 JUMPI JUMPDEST POP PUSH0 DUP1 MLOAD PUSH1 0x20 PUSH2 0x5AFB DUP4 CODECOPY DUP2 MLOAD SWAP2 MSTORE PUSH0 DUP1 LOG4 PUSH1 0x40 MLOAD SWAP1 DUP2 MSTORE RETURN JUMPDEST SWAP1 SWAP3 POP PUSH1 0x40 MLOAD DUP6 DUP2 DUP1 PUSH2 0x2B55 PUSH4 0xF23A6E61 PUSH1 0xE0 SHL SWAP6 DUP7 DUP4 MSTORE CALLER PUSH1 0x4 DUP5 ADD MSTORE PUSH0 PUSH1 0x24 DUP5 ADD MSTORE PUSH1 0x65 PUSH1 0x44 DUP5 ADD MSTORE DUP8 PUSH1 0x64 DUP5 ADD MSTORE PUSH1 0xA0 PUSH1 0x84 DUP5 ADD MSTORE PUSH1 0xA4 DUP4 ADD SWAP1 PUSH2 0x4271 JUMP JUMPDEST SUB DUP2 PUSH0 DUP9 GAS CALL PUSH0 SWAP2 DUP2 PUSH2 0x2B88 JUMPI JUMPDEST POP PUSH2 0x2B71 JUMPI DUP6 PUSH2 0x795 PUSH2 0x5703 JUMP JUMPDEST PUSH1 0x1 PUSH1 0x1 PUSH1 0xE0 SHL SUB NOT AND SUB PUSH2 0x805 JUMPI DUP3 SWAP2 DUP6 PUSH2 0x2AF9 JUMP JUMPDEST PUSH2 0x2BA0 SWAP2 SWAP3 POP DUP8 RETURNDATASIZE DUP10 GT PUSH2 0x846 JUMPI PUSH2 0x837 DUP2 DUP4 PUSH2 0x418B JUMP JUMPDEST SWAP1 DUP8 PUSH2 0x2B63 JUMP JUMPDEST PUSH1 0x40 MLOAD PUSH3 0x461BCD PUSH1 0xE5 SHL DUP2 MSTORE PUSH1 0x4 DUP2 ADD DUP5 SWAP1 MSTORE PUSH1 0xE PUSH1 0x24 DUP3 ADD MSTORE PUSH14 0x13DB9B1E481CD95B19881B5A5B9D PUSH1 0x92 SHL PUSH1 0x44 DUP3 ADD MSTORE PUSH1 0x64 SWAP1 REVERT JUMPDEST PUSH1 0x40 MLOAD PUSH3 0x461BCD PUSH1 0xE5 SHL DUP2 MSTORE PUSH1 0x4 DUP2 ADD DUP5 SWAP1 MSTORE PUSH1 0x11 PUSH1 0x24 DUP3 ADD MSTORE PUSH17 0x125B9D985B1A59081C9958DA5C1A595B9D PUSH1 0x7A SHL PUSH1 0x44 DUP3 ADD MSTORE PUSH1 0x64 SWAP1 REVERT JUMPDEST CALLVALUE PUSH2 0x4A8 JUMPI PUSH1 0x60 CALLDATASIZE PUSH1 0x3 NOT ADD SLT PUSH2 0x4A8 JUMPI PUSH2 0x2C2F PUSH2 0x409A JUMP JUMPDEST PUSH1 0x24 CALLDATALOAD PUSH1 0x44 CALLDATALOAD PUSH2 0x2C41 PUSH2 0x1AC8 DUP5 PUSH2 0x4C46 JUMP JUMPDEST PUSH2 0x2C50 PUSH2 0x150D PUSH2 0x2780 DUP6 PUSH2 0x4C61 JUMP JUMPDEST PUSH2 0x2C5B DUP2 ISZERO ISZERO PUSH2 0x49C6 JUMP JUMPDEST PUSH1 0xFF DUP4 AND SWAP3 PUSH1 0x1 DUP5 EQ DUP1 ISZERO PUSH2 0x2D65 JUMPI JUMPDEST PUSH2 0x2D21 JUMPI JUMPDEST CALLER PUSH0 MSTORE PUSH2 0x2CC6 PUSH1 0x20 SWAP2 PUSH1 0x13 DUP4 MSTORE PUSH1 0x40 PUSH0 KECCAK256 DUP7 PUSH0 MSTORE DUP4 MSTORE PUSH1 0x40 PUSH0 KECCAK256 PUSH1 0x1 PUSH1 0xFF NOT DUP3 SLOAD AND OR SWAP1 SSTORE CALLER PUSH0 MSTORE PUSH1 0x1F DUP4 MSTORE PUSH1 0x40 PUSH0 KECCAK256 DUP7 PUSH0 MSTORE DUP4 MSTORE DUP5 PUSH1 0x40 PUSH0 KECCAK256 SSTORE CALLER PUSH0 MSTORE PUSH1 0x1E DUP4 MSTORE PUSH1 0x40 PUSH0 KECCAK256 DUP7 PUSH0 MSTORE DUP4 MSTORE DUP4 PUSH1 0x40 PUSH0 KECCAK256 SSTORE PUSH2 0x4C61 JUMP JUMPDEST PUSH2 0x2CD0 DUP2 CALLER PUSH2 0x4509 JUMP JUMPDEST ISZERO PUSH2 0x2CD7 JUMPI STOP JUMPDEST PUSH1 0x40 MLOAD PUSH2 0x2CF0 SWAP2 PUSH2 0x2CE7 DUP3 PUSH2 0x413A JUMP JUMPDEST PUSH0 DUP3 MSTORE CALLER PUSH2 0x4E1B JUMP JUMPDEST PUSH1 0x40 MLOAD SWAP3 DUP5 CALLER PUSH0 DUP1 MLOAD PUSH1 0x20 PUSH2 0x59FB DUP4 CODECOPY DUP2 MLOAD SWAP2 MSTORE PUSH0 DUP1 LOG3 DUP4 MSTORE DUP3 ADD MSTORE PUSH0 DUP1 MLOAD PUSH1 0x20 PUSH2 0x5ADB DUP4 CODECOPY DUP2 MLOAD SWAP2 MSTORE PUSH1 0x40 CALLER SWAP3 LOG3 STOP JUMPDEST PUSH0 DUP4 SGT PUSH2 0x2C70 JUMPI PUSH1 0x40 MLOAD PUSH3 0x461BCD PUSH1 0xE5 SHL DUP2 MSTORE PUSH1 0x20 PUSH1 0x4 DUP3 ADD MSTORE PUSH1 0x15 PUSH1 0x24 DUP3 ADD MSTORE PUSH21 0x141BDCDA5D1A5D9948141B93081C995C5D5A5C9959 PUSH1 0x5A SHL PUSH1 0x44 DUP3 ADD MSTORE PUSH1 0x64 SWAP1 REVERT JUMPDEST POP PUSH1 0x3 DUP5 EQ PUSH2 0x2C6B JUMP JUMPDEST CALLVALUE PUSH2 0x4A8 JUMPI PUSH1 0x40 CALLDATASIZE PUSH1 0x3 NOT ADD SLT PUSH2 0x4A8 JUMPI PUSH1 0x4 CALLDATALOAD PUSH1 0x1 PUSH1 0x1 PUSH1 0x40 SHL SUB DUP1 DUP3 GT PUSH2 0x4A8 JUMPI CALLDATASIZE PUSH1 0x23 DUP4 ADD SLT ISZERO PUSH2 0x4A8 JUMPI DUP2 PUSH1 0x4 ADD CALLDATALOAD SWAP1 PUSH2 0x2DAC DUP3 PUSH2 0x42C3 JUMP JUMPDEST SWAP3 PUSH2 0x2DBA PUSH1 0x40 MLOAD SWAP5 DUP6 PUSH2 0x418B JUMP JUMPDEST DUP3 DUP5 MSTORE PUSH1 0x20 SWAP3 PUSH1 0x24 DUP5 DUP7 ADD SWAP2 PUSH1 0x5 SHL DUP4 ADD ADD SWAP2 CALLDATASIZE DUP4 GT PUSH2 0x4A8 JUMPI PUSH1 0x24 ADD SWAP1 JUMPDEST DUP3 DUP3 LT PUSH2 0x2EC4 JUMPI POP POP POP PUSH1 0x24 CALLDATALOAD SWAP1 DUP2 GT PUSH2 0x4A8 JUMPI PUSH2 0x2DFB SWAP1 CALLDATASIZE SWAP1 PUSH1 0x4 ADD PUSH2 0x4328 JUMP JUMPDEST DUP3 MLOAD DUP2 MLOAD SUB PUSH2 0x2E6D JUMPI PUSH2 0x2E0E DUP4 MLOAD PUSH2 0x4980 JUMP JUMPDEST SWAP3 PUSH0 JUMPDEST DUP2 MLOAD DUP2 LT ISZERO PUSH2 0x2E56 JUMPI PUSH1 0x1 SWAP1 PUSH2 0x2E45 PUSH1 0x1 PUSH1 0x1 PUSH1 0xA0 SHL SUB PUSH2 0x2E32 DUP4 DUP7 PUSH2 0x49B2 JUMP JUMPDEST MLOAD AND PUSH2 0x2E3E DUP4 DUP8 PUSH2 0x49B2 JUMP JUMPDEST MLOAD SWAP1 PUSH2 0x4509 JUMP JUMPDEST PUSH2 0x2E4F DUP3 DUP9 PUSH2 0x49B2 JUMP JUMPDEST MSTORE ADD PUSH2 0x2E11 JUMP JUMPDEST POP POP POP PUSH2 0x127A PUSH1 0x40 MLOAD SWAP3 DUP3 DUP5 SWAP4 DUP5 MSTORE DUP4 ADD SWAP1 PUSH2 0x43B2 JUMP JUMPDEST PUSH1 0x40 MLOAD PUSH3 0x461BCD PUSH1 0xE5 SHL DUP2 MSTORE PUSH1 0x4 DUP2 ADD DUP4 SWAP1 MSTORE PUSH1 0x29 PUSH1 0x24 DUP3 ADD MSTORE PUSH32 0x455243313135353A206163636F756E747320616E6420696473206C656E677468 PUSH1 0x44 DUP3 ADD MSTORE PUSH9 0x40DAD2E6DAC2E8C6D PUSH1 0xBB SHL PUSH1 0x64 DUP3 ADD MSTORE PUSH1 0x84 SWAP1 REVERT JUMPDEST DUP2 CALLDATALOAD PUSH1 0x1 PUSH1 0x1 PUSH1 0xA0 SHL SUB DUP2 AND DUP2 SUB PUSH2 0x4A8 JUMPI DUP2 MSTORE SWAP1 DUP5 ADD SWAP1 DUP5 ADD PUSH2 0x2DD9 JUMP JUMPDEST CALLVALUE PUSH2 0x4A8 JUMPI PUSH1 0x20 CALLDATASIZE PUSH1 0x3 NOT ADD SLT PUSH2 0x4A8 JUMPI PUSH1 0x1 PUSH1 0x1 PUSH1 0xA0 SHL SUB PUSH2 0x2F04 PUSH2 0x405E JUMP JUMPDEST AND PUSH0 MSTORE PUSH1 0x14 PUSH1 0x20 MSTORE PUSH1 0x20 PUSH1 0xFF PUSH1 0x40 PUSH0 KECCAK256 SLOAD AND PUSH1 0x40 MLOAD SWAP1 ISZERO ISZERO DUP2 MSTORE RETURN JUMPDEST CALLVALUE PUSH2 0x4A8 JUMPI PUSH0 CALLDATASIZE PUSH1 0x3 NOT ADD SLT PUSH2 0x4A8 JUMPI PUSH1 0x20 PUSH1 0xA SLOAD PUSH1 0x40 MLOAD SWAP1 DUP2 MSTORE RETURN JUMPDEST CALLVALUE PUSH2 0x4A8 JUMPI PUSH1 0x20 CALLDATASIZE PUSH1 0x3 NOT ADD SLT PUSH2 0x4A8 JUMPI PUSH1 0x4 CALLDATALOAD PUSH0 MSTORE PUSH1 0x16 PUSH1 0x20 MSTORE PUSH1 0x20 PUSH1 0xFF PUSH1 0x40 PUSH0 KECCAK256 SLOAD AND PUSH1 0x40 MLOAD SWAP1 ISZERO ISZERO DUP2 MSTORE RETURN JUMPDEST CALLVALUE PUSH2 0x4A8 JUMPI PUSH0 CALLDATASIZE PUSH1 0x3 NOT ADD SLT PUSH2 0x4A8 JUMPI PUSH1 0x20 PUSH1 0x9 SLOAD PUSH1 0x40 MLOAD SWAP1 DUP2 MSTORE RETURN JUMPDEST CALLVALUE PUSH2 0x4A8 JUMPI PUSH1 0x20 CALLDATASIZE PUSH1 0x3 NOT ADD SLT PUSH2 0x4A8 JUMPI PUSH1 0x1 PUSH1 0x1 PUSH1 0xA0 SHL SUB PUSH2 0x2FAA PUSH2 0x405E JUMP JUMPDEST AND PUSH0 MSTORE PUSH1 0x11 PUSH1 0x20 MSTORE PUSH1 0x40 PUSH0 KECCAK256 PUSH1 0x1 PUSH0 MSTORE PUSH1 0x20 MSTORE PUSH1 0x20 PUSH1 0xFF PUSH1 0x40 PUSH0 KECCAK256 SLOAD AND PUSH1 0x40 MLOAD SWAP1 ISZERO ISZERO DUP2 MSTORE RETURN JUMPDEST CALLVALUE PUSH2 0x4A8 JUMPI PUSH1 0x20 CALLDATASIZE PUSH1 0x3 NOT ADD SLT PUSH2 0x4A8 JUMPI PUSH1 0x4 CALLDATALOAD PUSH2 0x2FF1 PUSH2 0x277B DUP3 PUSH2 0x4DAD JUMP JUMPDEST PUSH2 0x2FFE PUSH2 0x150D DUP3 CALLER PUSH2 0x4509 JUMP JUMPDEST PUSH2 0x3017 PUSH1 0x40 MLOAD PUSH2 0x300D DUP2 PUSH2 0x413A JUMP JUMPDEST PUSH0 DUP2 MSTORE DUP3 CALLER PUSH2 0x4E1B JUMP JUMPDEST CALLER PUSH0 DUP1 MLOAD PUSH1 0x20 PUSH2 0x59DB DUP4 CODECOPY DUP2 MLOAD SWAP2 MSTORE PUSH0 DUP1 LOG3 STOP JUMPDEST CALLVALUE PUSH2 0x4A8 JUMPI PUSH1 0x20 CALLDATASIZE PUSH1 0x3 NOT ADD SLT PUSH2 0x4A8 JUMPI PUSH1 0x4 CALLDATALOAD PUSH0 MSTORE PUSH1 0x25 PUSH1 0x20 MSTORE PUSH2 0xFFFF PUSH1 0x40 PUSH0 KECCAK256 PUSH2 0x127A DUP2 SLOAD SWAP2 PUSH2 0x3064 PUSH1 0x2 PUSH1 0x1 DUP4 ADD SLOAD SWAP3 ADD PUSH2 0x41AE JUMP JUMPDEST SWAP1 PUSH1 0x40 MLOAD SWAP5 DUP6 SWAP5 PUSH1 0x1 DUP1 PUSH1 0xA0 SHL SUB DUP2 AND DUP7 MSTORE PUSH1 0xA0 SHR AND PUSH1 0x20 DUP6 ADD MSTORE PUSH1 0x40 DUP5 ADD MSTORE PUSH1 0x80 PUSH1 0x60 DUP5 ADD MSTORE PUSH1 0x80 DUP4 ADD SWAP1 PUSH2 0x4271 JUMP JUMPDEST CALLVALUE PUSH2 0x4A8 JUMPI PUSH0 CALLDATASIZE PUSH1 0x3 NOT ADD SLT PUSH2 0x4A8 JUMPI PUSH1 0x20 PUSH1 0x40 MLOAD PUSH1 0x9 DUP2 MSTORE RETURN JUMPDEST CALLVALUE PUSH2 0x4A8 JUMPI PUSH0 CALLDATASIZE PUSH1 0x3 NOT ADD SLT PUSH2 0x4A8 JUMPI PUSH1 0x40 MLOAD PUSH1 0xE SLOAD PUSH0 DUP3 PUSH2 0x30D1 DUP4 PUSH2 0x40CC JUMP JUMPDEST SWAP2 DUP3 DUP3 MSTORE PUSH1 0x20 SWAP4 PUSH1 0x1 SWAP1 DUP6 PUSH1 0x1 DUP3 AND SWAP2 DUP3 PUSH0 EQ PUSH2 0x3150 JUMPI POP POP PUSH1 0x1 EQ PUSH2 0x3113 JUMPI JUMPDEST POP PUSH2 0x30FF SWAP3 POP SUB DUP4 PUSH2 0x418B JUMP JUMPDEST PUSH2 0x127A PUSH1 0x40 MLOAD SWAP3 DUP3 DUP5 SWAP4 DUP5 MSTORE DUP4 ADD SWAP1 PUSH2 0x4271 JUMP JUMPDEST DUP5 SWAP2 POP PUSH1 0xE PUSH0 MSTORE DUP2 PUSH0 KECCAK256 SWAP1 PUSH0 SWAP2 JUMPDEST DUP6 DUP4 LT PUSH2 0x3138 JUMPI POP POP PUSH2 0x30FF SWAP4 POP DUP3 ADD ADD DUP6 PUSH2 0x30F2 JUMP JUMPDEST DUP1 SLOAD DUP4 DUP10 ADD DUP6 ADD MSTORE DUP8 SWAP5 POP DUP7 SWAP4 SWAP1 SWAP3 ADD SWAP2 DUP2 ADD PUSH2 0x3121 JUMP JUMPDEST PUSH1 0xFF NOT AND DUP6 DUP3 ADD MSTORE PUSH2 0x30FF SWAP6 ISZERO ISZERO PUSH1 0x5 SHL DUP6 ADD ADD SWAP3 POP DUP8 SWAP2 POP PUSH2 0x30F2 SWAP1 POP JUMP JUMPDEST CALLVALUE PUSH2 0x4A8 JUMPI PUSH0 CALLDATASIZE PUSH1 0x3 NOT ADD SLT PUSH2 0x4A8 JUMPI PUSH1 0x20 DUP1 SLOAD PUSH1 0x40 MLOAD SWAP1 DUP2 MSTORE RETURN JUMPDEST CALLVALUE PUSH2 0x4A8 JUMPI PUSH1 0x3 NOT PUSH1 0xA0 CALLDATASIZE DUP3 ADD SLT PUSH2 0x4A8 JUMPI PUSH2 0x31A6 PUSH2 0x405E JUMP JUMPDEST SWAP1 PUSH2 0x31AF PUSH2 0x4074 JUMP JUMPDEST SWAP1 PUSH1 0x1 PUSH1 0x1 PUSH1 0x40 SHL SUB SWAP1 PUSH1 0x44 CALLDATALOAD DUP3 DUP2 GT PUSH2 0x4A8 JUMPI PUSH2 0x31D1 SWAP1 CALLDATASIZE SWAP1 PUSH1 0x4 ADD PUSH2 0x4328 JUMP JUMPDEST PUSH1 0x64 CALLDATALOAD DUP4 DUP2 GT PUSH2 0x4A8 JUMPI PUSH2 0x31E9 SWAP1 CALLDATASIZE SWAP1 PUSH1 0x4 ADD PUSH2 0x4328 JUMP JUMPDEST SWAP3 PUSH1 0x84 CALLDATALOAD SWAP1 DUP2 GT PUSH2 0x4A8 JUMPI PUSH2 0x3202 SWAP1 CALLDATASIZE SWAP1 PUSH1 0x4 ADD PUSH2 0x4397 JUMP JUMPDEST PUSH1 0x1 PUSH1 0x1 PUSH1 0xA0 SHL SUB SWAP6 DUP7 AND SWAP6 SWAP1 SWAP3 SWAP1 CALLER DUP8 EQ DUP1 ISZERO PUSH2 0x33DB JUMPI JUMPDEST PUSH2 0x3224 SWAP1 PUSH2 0x48DB JUMP JUMPDEST PUSH2 0x3231 DUP4 MLOAD DUP7 MLOAD EQ PUSH2 0x4C72 JUMP JUMPDEST DUP6 AND SWAP3 PUSH2 0x323F DUP5 ISZERO ISZERO PUSH2 0x4CCF JUMP JUMPDEST PUSH0 JUMPDEST DUP4 MLOAD DUP2 LT ISZERO PUSH2 0x32C3 JUMPI DUP1 PUSH2 0x3257 PUSH1 0x1 SWAP3 DUP7 PUSH2 0x49B2 JUMP JUMPDEST MLOAD PUSH2 0x3262 DUP3 DUP10 PUSH2 0x49B2 JUMP JUMPDEST MLOAD SWAP1 DUP1 PUSH0 MSTORE PUSH1 0x20 SWAP1 PUSH0 DUP3 MSTORE PUSH1 0x40 PUSH0 KECCAK256 DUP13 PUSH0 MSTORE DUP3 MSTORE DUP3 PUSH1 0x40 PUSH0 KECCAK256 SLOAD PUSH2 0x3288 DUP3 DUP3 LT ISZERO PUSH2 0x4D29 JUMP JUMPDEST DUP3 PUSH0 MSTORE PUSH0 DUP5 MSTORE DUP14 PUSH1 0x40 PUSH0 KECCAK256 SWAP1 PUSH0 MSTORE DUP5 MSTORE SUB PUSH1 0x40 PUSH0 KECCAK256 SSTORE PUSH0 MSTORE PUSH0 DUP2 MSTORE PUSH1 0x40 PUSH0 KECCAK256 SWAP1 DUP9 PUSH0 MSTORE MSTORE PUSH2 0x32BB PUSH1 0x40 PUSH0 KECCAK256 SWAP2 DUP3 SLOAD PUSH2 0x48AF JUMP JUMPDEST SWAP1 SSTORE ADD PUSH2 0x3241 JUMP JUMPDEST POP SWAP1 SWAP5 SWAP4 SWAP3 SWAP2 SWAP4 DUP3 DUP8 PUSH1 0x40 MLOAD PUSH0 DUP1 MLOAD PUSH1 0x20 PUSH2 0x58DB DUP4 CODECOPY DUP2 MLOAD SWAP2 MSTORE CALLER SWAP2 DUP1 PUSH2 0x32EB DUP11 DUP13 DUP4 PUSH2 0x4D88 JUMP JUMPDEST SUB SWAP1 LOG4 EXTCODESIZE PUSH2 0x32F5 JUMPI STOP JUMPDEST PUSH0 PUSH1 0x20 SWAP5 PUSH2 0x3336 PUSH2 0x26F1 SWAP8 PUSH2 0x26E1 SWAP5 PUSH1 0x40 MLOAD SWAP10 DUP11 SWAP9 DUP10 SWAP8 DUP9 SWAP7 PUSH4 0xBC197C81 PUSH1 0xE0 SHL SWAP15 DUP16 DUP10 MSTORE CALLER PUSH1 0x4 DUP11 ADD MSTORE PUSH1 0x24 DUP10 ADD MSTORE PUSH1 0xA0 PUSH1 0x44 DUP10 ADD MSTORE PUSH1 0xA4 DUP9 ADD SWAP1 PUSH2 0x43B2 JUMP JUMPDEST SUB SWAP3 GAS CALL PUSH0 SWAP2 DUP2 PUSH2 0x33BA JUMPI JUMPDEST POP PUSH2 0x33A9 JUMPI PUSH2 0x334F PUSH2 0x5703 JUMP JUMPDEST PUSH4 0x8C379A0 EQ PUSH2 0x3372 JUMPI PUSH1 0x40 MLOAD PUSH3 0x461BCD PUSH1 0xE5 SHL DUP2 MSTORE DUP1 PUSH2 0x7B9 PUSH1 0x4 DUP3 ADD PUSH2 0x578B JUMP JUMPDEST PUSH2 0x337A PUSH2 0x571E JUMP JUMPDEST DUP1 PUSH2 0x3385 JUMPI POP PUSH2 0x7A0 JUMP JUMPDEST PUSH1 0x40 MLOAD PUSH3 0x461BCD PUSH1 0xE5 SHL DUP2 MSTORE PUSH1 0x20 PUSH1 0x4 DUP3 ADD MSTORE SWAP1 DUP2 SWAP1 PUSH2 0x7B9 SWAP1 PUSH1 0x24 DUP4 ADD SWAP1 PUSH2 0x4271 JUMP JUMPDEST PUSH1 0x1 PUSH1 0x1 PUSH1 0xE0 SHL SUB NOT AND SUB PUSH2 0x805 JUMPI STOP JUMPDEST PUSH2 0x33D4 SWAP2 SWAP3 POP PUSH1 0x20 RETURNDATASIZE PUSH1 0x20 GT PUSH2 0x846 JUMPI PUSH2 0x837 DUP2 DUP4 PUSH2 0x418B JUMP JUMPDEST SWAP1 DUP4 PUSH2 0x3342 JUMP JUMPDEST POP DUP7 PUSH0 MSTORE PUSH1 0x1 PUSH1 0x20 MSTORE PUSH1 0x40 PUSH0 KECCAK256 CALLER PUSH0 MSTORE PUSH1 0x20 MSTORE PUSH2 0x3224 PUSH1 0xFF PUSH1 0x40 PUSH0 KECCAK256 SLOAD AND SWAP1 POP PUSH2 0x321B JUMP JUMPDEST CALLVALUE PUSH2 0x4A8 JUMPI PUSH0 CALLDATASIZE PUSH1 0x3 NOT ADD SLT PUSH2 0x4A8 JUMPI PUSH1 0x20 PUSH1 0xC SLOAD PUSH1 0x40 MLOAD SWAP1 DUP2 MSTORE RETURN JUMPDEST CALLVALUE PUSH2 0x4A8 JUMPI PUSH1 0x20 CALLDATASIZE PUSH1 0x3 NOT ADD SLT PUSH2 0x4A8 JUMPI PUSH1 0x20 PUSH2 0x110B PUSH2 0x343B PUSH2 0x40AA JUMP JUMPDEST PUSH2 0x48BC JUMP JUMPDEST CALLVALUE PUSH2 0x4A8 JUMPI PUSH1 0x40 CALLDATASIZE PUSH1 0x3 NOT ADD SLT PUSH2 0x4A8 JUMPI PUSH1 0x1 PUSH1 0x1 PUSH1 0xA0 SHL SUB PUSH2 0x3461 PUSH2 0x405E JUMP JUMPDEST AND PUSH0 MSTORE PUSH1 0x23 PUSH1 0x20 MSTORE PUSH1 0x40 PUSH0 KECCAK256 PUSH1 0x24 CALLDATALOAD PUSH0 MSTORE PUSH1 0x20 MSTORE PUSH1 0x20 PUSH1 0x40 PUSH0 KECCAK256 SLOAD PUSH1 0x40 MLOAD SWAP1 DUP2 MSTORE RETURN JUMPDEST CALLVALUE PUSH2 0x4A8 JUMPI PUSH0 CALLDATASIZE PUSH1 0x3 NOT ADD SLT PUSH2 0x4A8 JUMPI PUSH1 0x20 PUSH1 0x7 SLOAD PUSH1 0x40 MLOAD SWAP1 DUP2 MSTORE RETURN JUMPDEST CALLVALUE PUSH2 0x4A8 JUMPI PUSH1 0x40 CALLDATASIZE PUSH1 0x3 NOT ADD SLT PUSH2 0x4A8 JUMPI PUSH2 0x34BA PUSH2 0x405E JUMP JUMPDEST PUSH2 0x34C2 PUSH2 0x408A JUMP JUMPDEST SWAP1 PUSH1 0x1 DUP1 PUSH1 0xA0 SHL SUB AND PUSH0 MSTORE PUSH1 0x1E PUSH1 0x20 MSTORE PUSH1 0xFF PUSH1 0x40 PUSH0 KECCAK256 SWAP2 AND PUSH0 MSTORE PUSH1 0x20 MSTORE PUSH1 0x20 PUSH1 0x40 PUSH0 KECCAK256 SLOAD PUSH1 0x40 MLOAD SWAP1 DUP2 MSTORE RETURN JUMPDEST CALLVALUE PUSH2 0x4A8 JUMPI PUSH0 CALLDATASIZE PUSH1 0x3 NOT ADD SLT PUSH2 0x4A8 JUMPI PUSH1 0x20 PUSH1 0x40 MLOAD PUSH2 0x2710 DUP2 MSTORE RETURN JUMPDEST CALLVALUE PUSH2 0x4A8 JUMPI PUSH0 CALLDATASIZE PUSH1 0x3 NOT ADD SLT PUSH2 0x4A8 JUMPI PUSH1 0x20 PUSH1 0x8 SLOAD PUSH1 0x40 MLOAD SWAP1 DUP2 MSTORE RETURN JUMPDEST CALLVALUE PUSH2 0x4A8 JUMPI PUSH0 CALLDATASIZE PUSH1 0x3 NOT ADD SLT PUSH2 0x4A8 JUMPI PUSH1 0x20 PUSH1 0x40 MLOAD PUSH1 0x5 DUP2 MSTORE RETURN JUMPDEST CALLVALUE PUSH2 0x4A8 JUMPI PUSH1 0x60 CALLDATASIZE PUSH1 0x3 NOT ADD SLT PUSH2 0x4A8 JUMPI PUSH2 0x355B PUSH2 0x40AA JUMP JUMPDEST PUSH1 0x1 PUSH1 0x1 PUSH1 0x40 SHL SUB SWAP1 PUSH1 0x24 CALLDATALOAD DUP3 DUP2 GT PUSH2 0x4A8 JUMPI PUSH2 0x357C SWAP1 CALLDATASIZE SWAP1 PUSH1 0x4 ADD PUSH2 0x4296 JUMP JUMPDEST PUSH1 0x44 CALLDATALOAD DUP5 DUP2 GT PUSH2 0x4A8 JUMPI PUSH2 0x3597 PUSH2 0xFFFF SWAP2 CALLDATASIZE SWAP1 PUSH1 0x4 ADD PUSH2 0x4296 JUMP JUMPDEST SWAP2 SWAP1 SWAP5 PUSH2 0x35A2 PUSH2 0x4A8D JUMP JUMPDEST AND SWAP4 PUSH2 0x35AF DUP6 ISZERO ISZERO PUSH2 0x4810 JUMP JUMPDEST DUP5 PUSH0 MSTORE PUSH1 0x20 SWAP6 PUSH1 0x1C DUP8 MSTORE PUSH1 0x40 PUSH0 KECCAK256 DUP2 DUP6 GT PUSH2 0x99D JUMPI PUSH2 0x35D2 DUP6 PUSH2 0x8CA DUP4 SLOAD PUSH2 0x40CC JUMP JUMPDEST PUSH0 DUP6 PUSH1 0x1F DUP2 GT PUSH1 0x1 EQ PUSH2 0x36FA JUMPI DUP1 PUSH2 0x35F0 SWAP3 PUSH0 SWAP2 PUSH2 0x36EF JUMPI POP PUSH2 0x489D JUMP JUMPDEST SWAP1 SSTORE JUMPDEST DUP6 PUSH0 MSTORE PUSH1 0x1D DUP8 MSTORE PUSH1 0x40 PUSH0 KECCAK256 SWAP1 DUP4 GT PUSH2 0x99D JUMPI PUSH2 0x3613 DUP4 PUSH2 0x8CA DUP4 SLOAD PUSH2 0x40CC JUMP JUMPDEST PUSH0 PUSH1 0x1F DUP5 GT PUSH1 0x1 EQ PUSH2 0x3679 JUMPI SWAP2 DUP4 SWAP2 PUSH2 0x3647 DUP4 PUSH2 0x918 SWAP7 PUSH0 DUP1 MLOAD PUSH1 0x20 PUSH2 0x595B DUP4 CODECOPY DUP2 MLOAD SWAP2 MSTORE SWAP11 SWAP12 SWAP7 PUSH0 SWAP2 PUSH2 0x366E JUMPI POP PUSH2 0x489D JUMP JUMPDEST SWAP1 SSTORE JUMPDEST PUSH2 0x3661 PUSH1 0x40 MLOAD SWAP7 DUP8 SWAP7 PUSH1 0x40 DUP9 MSTORE PUSH1 0x40 DUP9 ADD SWAP2 PUSH2 0x4770 JUMP JUMPDEST SWAP3 DUP6 DUP5 SUB SWAP1 DUP7 ADD MSTORE PUSH2 0x4770 JUMP JUMPDEST SWAP1 POP DUP5 ADD CALLDATALOAD DUP13 PUSH2 0x8FE JUMP JUMPDEST PUSH1 0x1F NOT DUP5 AND SWAP1 DUP3 PUSH0 MSTORE DUP9 PUSH0 KECCAK256 SWAP2 PUSH0 JUMPDEST DUP2 DUP2 LT PUSH2 0x36D8 JUMPI POP SWAP2 DUP6 SWAP4 SWAP2 PUSH2 0x918 SWAP7 PUSH0 DUP1 MLOAD PUSH1 0x20 PUSH2 0x595B DUP4 CODECOPY DUP2 MLOAD SWAP2 MSTORE SWAP11 SWAP12 SWAP7 SWAP5 LT PUSH2 0x36BF JUMPI JUMPDEST POP POP PUSH1 0x1 DUP4 DUP2 SHL ADD SWAP1 SSTORE PUSH2 0x364A JUMP JUMPDEST DUP4 ADD CALLDATALOAD PUSH0 NOT PUSH1 0x3 DUP7 SWAP1 SHL PUSH1 0xF8 AND SHR NOT AND SWAP1 SSTORE DUP10 DUP1 PUSH2 0x36B0 JUMP JUMPDEST SWAP2 SWAP3 DUP11 PUSH1 0x1 DUP2 SWAP3 DUP7 DUP10 ADD CALLDATALOAD DUP2 SSTORE ADD SWAP5 ADD SWAP3 ADD PUSH2 0x3688 JUMP JUMPDEST SWAP1 POP DUP9 ADD CALLDATALOAD DUP12 PUSH2 0x8FE JUMP JUMPDEST POP PUSH1 0x1F NOT DUP7 AND SWAP1 DUP3 PUSH0 MSTORE DUP7 DUP11 PUSH0 KECCAK256 SWAP3 PUSH0 JUMPDEST DUP13 DUP3 DUP3 LT PUSH2 0x3743 JUMPI POP POP LT PUSH2 0x372A JUMPI JUMPDEST POP POP PUSH1 0x1 DUP6 DUP2 SHL ADD SWAP1 SSTORE PUSH2 0x35F3 JUMP JUMPDEST DUP8 ADD CALLDATALOAD PUSH0 NOT PUSH1 0x3 DUP9 SWAP1 SHL PUSH1 0xF8 AND SHR NOT AND SWAP1 SSTORE DUP9 DUP1 PUSH2 0x371B JUMP JUMPDEST DUP12 DUP6 ADD CALLDATALOAD DUP7 SSTORE PUSH1 0x1 SWAP1 SWAP6 ADD SWAP5 SWAP4 DUP5 ADD SWAP4 DUP11 SWAP4 POP ADD PUSH2 0x370B JUMP JUMPDEST CALLVALUE PUSH2 0x4A8 JUMPI PUSH1 0x20 DUP1 PUSH1 0x3 NOT CALLDATASIZE ADD SLT PUSH2 0x4A8 JUMPI PUSH2 0x3776 PUSH2 0x409A JUMP JUMPDEST SWAP1 PUSH2 0x3783 PUSH2 0x1AC8 DUP4 PUSH2 0x4C46 JUMP JUMPDEST PUSH2 0x3792 PUSH2 0x150D PUSH2 0x2780 DUP5 PUSH2 0x4C61 JUMP JUMPDEST CALLER PUSH0 MSTORE PUSH1 0x13 DUP2 MSTORE PUSH2 0x37EB PUSH1 0x40 PUSH0 KECCAK256 SWAP3 PUSH1 0xFF DUP2 AND SWAP4 DUP5 PUSH0 MSTORE DUP4 MSTORE PUSH1 0x40 PUSH0 KECCAK256 PUSH1 0x1 PUSH1 0xFF NOT DUP3 SLOAD AND OR SWAP1 SSTORE CALLER PUSH0 MSTORE PUSH1 0x1F DUP4 MSTORE PUSH1 0x40 PUSH0 KECCAK256 DUP5 PUSH0 MSTORE DUP4 MSTORE PUSH0 PUSH1 0x40 DUP2 KECCAK256 SSTORE CALLER PUSH0 MSTORE PUSH1 0x1E DUP4 MSTORE PUSH1 0x40 PUSH0 KECCAK256 DUP5 PUSH0 MSTORE DUP4 MSTORE PUSH0 PUSH1 0x40 DUP2 KECCAK256 SSTORE PUSH2 0x4C61 JUMP JUMPDEST PUSH2 0x37F5 DUP2 CALLER PUSH2 0x4509 JUMP JUMPDEST ISZERO PUSH2 0x37FC JUMPI STOP JUMPDEST PUSH1 0x40 MLOAD PUSH2 0x380C SWAP2 PUSH2 0x2CE7 DUP3 PUSH2 0x413A JUMP JUMPDEST PUSH0 PUSH1 0x40 MLOAD SWAP2 DUP4 CALLER PUSH0 DUP1 MLOAD PUSH1 0x20 PUSH2 0x59FB DUP4 CODECOPY DUP2 MLOAD SWAP2 MSTORE DUP5 DUP1 LOG3 DUP2 DUP4 MSTORE DUP3 ADD MSTORE PUSH0 DUP1 MLOAD PUSH1 0x20 PUSH2 0x5ADB DUP4 CODECOPY DUP2 MLOAD SWAP2 MSTORE PUSH1 0x40 CALLER SWAP3 LOG3 STOP JUMPDEST CALLVALUE PUSH2 0x4A8 JUMPI PUSH1 0x60 CALLDATASIZE PUSH1 0x3 NOT ADD SLT PUSH2 0x4A8 JUMPI PUSH1 0x4 CALLDATALOAD PUSH2 0x385B PUSH2 0x404F JUMP JUMPDEST PUSH1 0x44 CALLDATALOAD PUSH1 0x1 PUSH1 0x1 PUSH1 0x40 SHL SUB DUP2 GT PUSH2 0x4A8 JUMPI PUSH32 0x5CD61427930AB89A7FFDD8646DD284F02D4EC213A21D6DCAAB300350E8006611 SWAP2 PUSH2 0x389F PUSH2 0x918 SWAP3 CALLDATASIZE SWAP1 PUSH1 0x4 ADD PUSH2 0x4296 JUMP JUMPDEST SWAP3 SWAP1 PUSH2 0x38A9 PUSH2 0x4A8D JUMP JUMPDEST DUP6 PUSH0 MSTORE PUSH1 0x16 PUSH1 0x20 MSTORE PUSH2 0x38BE DUP4 PUSH1 0x40 PUSH0 KECCAK256 PUSH2 0x4461 JUMP JUMPDEST PUSH1 0x40 MLOAD SWAP4 DUP5 SWAP4 ISZERO ISZERO DUP5 MSTORE PUSH1 0x40 PUSH1 0x20 DUP6 ADD MSTORE PUSH1 0x40 DUP5 ADD SWAP2 PUSH2 0x4770 JUMP JUMPDEST CALLVALUE PUSH2 0x4A8 JUMPI PUSH0 CALLDATASIZE PUSH1 0x3 NOT ADD SLT PUSH2 0x4A8 JUMPI PUSH1 0x40 MLOAD PUSH1 0xD SLOAD PUSH0 DUP3 PUSH2 0x38FA DUP4 PUSH2 0x40CC JUMP JUMPDEST SWAP2 DUP3 DUP3 MSTORE PUSH1 0x20 SWAP4 PUSH1 0x1 SWAP1 DUP6 PUSH1 0x1 DUP3 AND SWAP2 DUP3 PUSH0 EQ PUSH2 0x3150 JUMPI POP POP PUSH1 0x1 EQ PUSH2 0x3927 JUMPI POP PUSH2 0x30FF SWAP3 POP SUB DUP4 PUSH2 0x418B JUMP JUMPDEST DUP5 SWAP2 POP PUSH1 0xD PUSH0 MSTORE DUP2 PUSH0 KECCAK256 SWAP1 PUSH0 SWAP2 JUMPDEST DUP6 DUP4 LT PUSH2 0x394C JUMPI POP POP PUSH2 0x30FF SWAP4 POP DUP3 ADD ADD DUP6 PUSH2 0x30F2 JUMP JUMPDEST DUP1 SLOAD DUP4 DUP10 ADD DUP6 ADD MSTORE DUP8 SWAP5 POP DUP7 SWAP4 SWAP1 SWAP3 ADD SWAP2 DUP2 ADD PUSH2 0x3935 JUMP JUMPDEST CALLVALUE PUSH2 0x4A8 JUMPI PUSH0 CALLDATASIZE PUSH1 0x3 NOT ADD SLT PUSH2 0x4A8 JUMPI PUSH1 0x40 MLOAD PUSH1 0xF SLOAD PUSH0 DUP3 PUSH2 0x3985 DUP4 PUSH2 0x40CC JUMP JUMPDEST SWAP2 DUP3 DUP3 MSTORE PUSH1 0x20 SWAP4 PUSH1 0x1 SWAP1 DUP6 PUSH1 0x1 DUP3 AND SWAP2 DUP3 PUSH0 EQ PUSH2 0x3150 JUMPI POP POP PUSH1 0x1 EQ PUSH2 0x39B2 JUMPI POP PUSH2 0x30FF SWAP3 POP SUB DUP4 PUSH2 0x418B JUMP JUMPDEST DUP5 SWAP2 POP PUSH1 0xF PUSH0 MSTORE DUP2 PUSH0 KECCAK256 SWAP1 PUSH0 SWAP2 JUMPDEST DUP6 DUP4 LT PUSH2 0x39D7 JUMPI POP POP PUSH2 0x30FF SWAP4 POP DUP3 ADD ADD DUP6 PUSH2 0x30F2 JUMP JUMPDEST DUP1 SLOAD DUP4 DUP10 ADD DUP6 ADD MSTORE DUP8 SWAP5 POP DUP7 SWAP4 SWAP1 SWAP3 ADD SWAP2 DUP2 ADD PUSH2 0x39C0 JUMP JUMPDEST CALLVALUE PUSH2 0x4A8 JUMPI PUSH1 0x20 DUP1 PUSH1 0x3 NOT CALLDATASIZE ADD SLT PUSH2 0x4A8 JUMPI PUSH1 0x4 CALLDATALOAD PUSH2 0x3A0D TIMESTAMP PUSH2 0x4AE5 JUMP JUMPDEST PUSH1 0xFF PUSH1 0xB SLOAD AND PUSH2 0x3E51 JUMPI PUSH1 0x9 SLOAD DUP3 LT PUSH2 0x3E1C JUMPI PUSH2 0x3A2B DUP3 ISZERO ISZERO PUSH2 0x4FC2 JUMP JUMPDEST PUSH1 0x40 MLOAD PUSH2 0x3A37 DUP2 PUSH2 0x413A JUMP JUMPDEST PUSH0 DUP2 MSTORE PUSH2 0x3A45 CALLER ISZERO ISZERO PUSH2 0x4DC5 JUMP JUMPDEST PUSH1 0x40 MLOAD SWAP2 PUSH2 0x3A52 DUP4 PUSH2 0x4155 JUMP JUMPDEST PUSH1 0x1 SWAP2 DUP3 DUP5 MSTORE DUP6 DUP5 ADD SWAP4 DUP7 CALLDATASIZE DUP7 CALLDATACOPY MLOAD ISZERO PUSH2 0x1091 JUMPI PUSH2 0x3E9 DUP1 SWAP5 MSTORE PUSH2 0x3A75 DUP6 PUSH2 0x5807 JUMP JUMPDEST POP DUP4 PUSH0 MSTORE PUSH0 DUP7 MSTORE PUSH1 0x40 PUSH0 KECCAK256 CALLER PUSH0 MSTORE DUP7 MSTORE PUSH1 0x40 PUSH0 KECCAK256 PUSH2 0x3A94 DUP7 DUP3 SLOAD PUSH2 0x48AF JUMP JUMPDEST SWAP1 SSTORE PUSH1 0x40 MLOAD DUP5 DUP2 MSTORE DUP6 DUP8 DUP3 ADD MSTORE PUSH0 CALLER SWAP2 PUSH0 DUP1 MLOAD PUSH1 0x20 PUSH2 0x591B DUP4 CODECOPY DUP2 MLOAD SWAP2 MSTORE PUSH1 0x40 CALLER SWAP3 LOG4 CALLER EXTCODESIZE PUSH2 0x3D8E JUMPI JUMPDEST POP CALLER PUSH0 MSTORE PUSH1 0x19 DUP6 MSTORE PUSH1 0x40 PUSH0 KECCAK256 DUP3 PUSH0 MSTORE DUP6 MSTORE PUSH1 0x40 PUSH0 KECCAK256 PUSH2 0x3ADE DUP6 DUP3 SLOAD PUSH2 0x48AF JUMP JUMPDEST SWAP1 SSTORE PUSH2 0x3AE8 PUSH2 0x582C JUMP JUMPDEST SWAP3 PUSH1 0x3 PUSH1 0x40 MLOAD PUSH2 0x3AF7 DUP2 PUSH2 0x4104 JUMP JUMPDEST DUP7 DUP2 MSTORE DUP8 DUP2 ADD DUP8 DUP2 MSTORE PUSH1 0x40 DUP3 ADD SWAP1 TIMESTAMP DUP3 MSTORE PUSH1 0x60 DUP4 ADD SWAP8 DUP9 MSTORE CALLER PUSH0 MSTORE PUSH1 0x21 DUP11 MSTORE PUSH1 0x40 PUSH0 KECCAK256 DUP8 PUSH0 MSTORE DUP11 MSTORE PUSH1 0x40 PUSH0 KECCAK256 SWAP3 MLOAD DUP4 SSTORE MLOAD DUP7 DUP4 ADD SSTORE MLOAD PUSH1 0x2 DUP3 ADD SSTORE ADD SWAP4 MLOAD SWAP4 DUP5 MLOAD PUSH1 0x1 DUP1 PUSH1 0x40 SHL SUB SWAP6 DUP7 DUP3 GT PUSH2 0x99D JUMPI PUSH2 0x3B5B DUP3 PUSH2 0x3B55 DUP6 SLOAD PUSH2 0x40CC JUMP JUMPDEST DUP6 PUSH2 0x484E JUMP JUMPDEST DUP9 SWAP1 PUSH1 0x1F DUP4 GT PUSH1 0x1 EQ PUSH2 0x3D30 JUMPI PUSH2 0x3B7B SWAP3 SWAP2 PUSH0 SWAP2 DUP4 PUSH2 0x3CC7 JUMPI POP POP PUSH2 0x489D JUMP JUMPDEST SWAP1 SSTORE JUMPDEST PUSH1 0x6 SLOAD SWAP4 DUP4 DUP6 ADD SWAP1 DUP2 DUP7 GT PUSH2 0xDC4 JUMPI DUP6 SWAP2 PUSH1 0x6 SSTORE PUSH1 0x3 PUSH1 0x40 MLOAD PUSH2 0x3BA0 DUP2 PUSH2 0x411F JUMP JUMPDEST CALLER DUP2 MSTORE DUP9 DUP11 PUSH2 0x3BF2 PUSH2 0xFFFF DUP3 DUP6 ADD DUP12 DUP2 MSTORE PUSH1 0x24 PUSH1 0x40 DUP8 ADD SWAP5 DUP7 DUP7 MSTORE PUSH1 0x60 DUP9 ADD SWAP7 DUP8 MSTORE PUSH1 0x80 DUP9 ADD SWAP11 DUP14 DUP13 MSTORE PUSH0 MSTORE MSTORE PUSH1 0x40 PUSH0 KECCAK256 SWAP6 PUSH1 0x1 DUP1 PUSH1 0xA0 SHL SUB SWAP1 MLOAD AND PUSH1 0x1 DUP1 PUSH1 0xA0 SHL SUB NOT DUP8 SLOAD AND OR DUP7 SSTORE MLOAD AND DUP5 PUSH2 0x4A6E JUMP JUMPDEST MLOAD DUP9 DUP4 ADD SSTORE MLOAD PUSH1 0x2 DUP3 ADD SSTORE ADD SWAP2 MLOAD DUP1 MLOAD SWAP2 DUP3 GT PUSH2 0x99D JUMPI PUSH2 0x3C17 DUP3 PUSH2 0x3B55 DUP6 SLOAD PUSH2 0x40CC JUMP JUMPDEST DUP9 SWAP1 PUSH1 0x1F DUP4 GT PUSH1 0x1 EQ PUSH2 0x3CD2 JUMPI PUSH2 0x3C37 SWAP3 SWAP2 PUSH0 SWAP2 DUP4 PUSH2 0x3CC7 JUMPI POP POP PUSH2 0x489D JUMP JUMPDEST SWAP1 SSTORE JUMPDEST PUSH2 0x3C53 PUSH1 0x40 MLOAD PUSH2 0x3C49 DUP2 PUSH2 0x413A JUMP JUMPDEST PUSH0 DUP2 MSTORE DUP6 CALLER PUSH2 0x4E1B JUMP JUMPDEST PUSH1 0x40 MLOAD DUP6 DUP2 MSTORE DUP6 DUP8 DUP3 ADD MSTORE PUSH0 DUP1 MLOAD PUSH1 0x20 PUSH2 0x5A9B DUP4 CODECOPY DUP2 MLOAD SWAP2 MSTORE PUSH1 0x40 CALLER SWAP3 LOG2 DUP3 PUSH2 0x3C7A PUSH2 0x582C JUMP JUMPDEST PUSH0 DUP1 MLOAD PUSH1 0x20 PUSH2 0x5A5B DUP4 CODECOPY DUP2 MLOAD SWAP2 MSTORE PUSH1 0x40 MLOAD DUP1 PUSH2 0x3C9A CALLER SWAP5 TIMESTAMP DUP13 DUP1 DUP6 PUSH2 0x43E5 JUMP JUMPDEST SUB SWAP1 LOG4 PUSH0 DUP1 MLOAD PUSH1 0x20 PUSH2 0x593B DUP4 CODECOPY DUP2 MLOAD SWAP2 MSTORE PUSH1 0x40 MLOAD DUP6 DUP2 MSTORE PUSH1 0x40 DUP8 DUP3 ADD MSTORE DUP1 PUSH2 0x168C CALLER SWAP5 PUSH1 0x40 DUP4 ADD SWAP1 PUSH2 0x4271 JUMP JUMPDEST ADD MLOAD SWAP1 POP DUP11 DUP1 PUSH2 0xBBD JUMP JUMPDEST DUP7 SWAP3 SWAP2 PUSH1 0x1F NOT DUP4 AND SWAP2 DUP6 PUSH0 MSTORE DUP12 PUSH0 KECCAK256 SWAP3 PUSH0 JUMPDEST DUP14 DUP3 DUP3 LT PUSH2 0x3D1A JUMPI POP POP DUP5 GT PUSH2 0x3D02 JUMPI JUMPDEST POP POP POP DUP2 SHL ADD SWAP1 SSTORE PUSH2 0x3C3A JUMP JUMPDEST ADD MLOAD PUSH0 NOT PUSH1 0xF8 DUP5 PUSH1 0x3 SHL AND SHR NOT AND SWAP1 SSTORE DUP10 DUP1 DUP1 PUSH2 0x3CF5 JUMP JUMPDEST DUP4 DUP6 ADD MLOAD DUP7 SSTORE DUP12 SWAP8 SWAP1 SWAP6 ADD SWAP5 SWAP4 DUP5 ADD SWAP4 ADD PUSH2 0x3CE4 JUMP JUMPDEST DUP7 SWAP3 SWAP2 PUSH1 0x1F NOT DUP4 AND SWAP2 DUP6 PUSH0 MSTORE DUP12 PUSH0 KECCAK256 SWAP3 PUSH0 JUMPDEST DUP14 DUP3 DUP3 LT PUSH2 0x3D78 JUMPI POP POP DUP5 GT PUSH2 0x3D60 JUMPI JUMPDEST POP POP POP DUP2 SHL ADD SWAP1 SSTORE PUSH2 0x3B7E JUMP JUMPDEST ADD MLOAD PUSH0 NOT PUSH1 0xF8 DUP5 PUSH1 0x3 SHL AND SHR NOT AND SWAP1 SSTORE DUP10 DUP1 DUP1 PUSH2 0x3D53 JUMP JUMPDEST DUP4 DUP6 ADD MLOAD DUP7 SSTORE DUP12 SWAP8 SWAP1 SWAP6 ADD SWAP5 SWAP4 DUP5 ADD SWAP4 ADD PUSH2 0x3D42 JUMP JUMPDEST PUSH1 0x40 MLOAD DUP7 DUP2 DUP1 PUSH2 0x3DCC PUSH4 0xF23A6E61 PUSH1 0xE0 SHL SWAP6 DUP7 DUP4 MSTORE CALLER PUSH1 0x4 DUP5 ADD MSTORE PUSH0 PUSH1 0x24 DUP5 ADD MSTORE DUP10 PUSH1 0x44 DUP5 ADD MSTORE DUP11 PUSH1 0x64 DUP5 ADD MSTORE PUSH1 0xA0 PUSH1 0x84 DUP5 ADD MSTORE PUSH1 0xA4 DUP4 ADD SWAP1 PUSH2 0x4271 JUMP JUMPDEST SUB DUP2 PUSH0 CALLER GAS CALL PUSH0 SWAP2 DUP2 PUSH2 0x3DFD JUMPI JUMPDEST POP PUSH2 0x3DE8 JUMPI DUP7 PUSH2 0x795 PUSH2 0x5703 JUMP JUMPDEST PUSH1 0x1 PUSH1 0x1 PUSH1 0xE0 SHL SUB NOT AND SUB PUSH2 0x805 JUMPI DUP6 PUSH2 0x3ABE JUMP JUMPDEST PUSH2 0x3E15 SWAP2 SWAP3 POP DUP9 RETURNDATASIZE DUP11 GT PUSH2 0x846 JUMPI PUSH2 0x837 DUP2 DUP4 PUSH2 0x418B JUMP JUMPDEST SWAP1 DUP9 PUSH2 0x3DDA JUMP JUMPDEST PUSH1 0x40 MLOAD PUSH3 0x461BCD PUSH1 0xE5 SHL DUP2 MSTORE PUSH1 0x4 DUP2 ADD DUP5 SWAP1 MSTORE PUSH1 0xD PUSH1 0x24 DUP3 ADD MSTORE PUSH13 0x42656C6F77206D696E696D756D PUSH1 0x98 SHL PUSH1 0x44 DUP3 ADD MSTORE PUSH1 0x64 SWAP1 REVERT JUMPDEST PUSH1 0x40 MLOAD PUSH3 0x461BCD PUSH1 0xE5 SHL DUP2 MSTORE PUSH1 0x4 DUP2 ADD DUP5 SWAP1 MSTORE PUSH1 0x14 PUSH1 0x24 DUP3 ADD MSTORE PUSH20 0x14DD589CD8DC9A5C1D1A5BDB9CC81C185D5CD959 PUSH1 0x62 SHL PUSH1 0x44 DUP3 ADD MSTORE PUSH1 0x64 SWAP1 REVERT JUMPDEST CALLVALUE PUSH2 0x4A8 JUMPI PUSH1 0x20 CALLDATASIZE PUSH1 0x3 NOT ADD SLT PUSH2 0x4A8 JUMPI PUSH2 0x127A PUSH2 0x19F0 PUSH1 0x4 CALLDATALOAD PUSH2 0x4531 JUMP JUMPDEST CALLVALUE PUSH2 0x4A8 JUMPI PUSH1 0x20 CALLDATASIZE PUSH1 0x3 NOT ADD SLT PUSH2 0x4A8 JUMPI PUSH2 0xFFFF PUSH2 0x3EC8 PUSH2 0x40AA JUMP JUMPDEST AND PUSH0 MSTORE PUSH1 0x1B PUSH1 0x20 MSTORE PUSH2 0x127A PUSH2 0x19F0 PUSH1 0x40 PUSH0 KECCAK256 PUSH2 0x41AE JUMP JUMPDEST CALLVALUE PUSH2 0x4A8 JUMPI PUSH1 0x20 CALLDATASIZE PUSH1 0x3 NOT ADD SLT PUSH2 0x4A8 JUMPI PUSH2 0x2710 PUSH1 0x4 CALLDATALOAD DUP2 DUP2 MUL SWAP2 DUP2 ISZERO SWAP2 DUP4 DIV EQ OR ISZERO PUSH2 0xDC4 JUMPI PUSH1 0x8 SLOAD SWAP1 DUP2 ISZERO PUSH2 0x3F1C JUMPI PUSH1 0x20 SWAP2 PUSH1 0x40 MLOAD SWAP2 DIV DUP2 MSTORE RETURN JUMPDEST PUSH4 0x4E487B71 PUSH1 0xE0 SHL PUSH0 MSTORE PUSH1 0x12 PUSH1 0x4 MSTORE PUSH1 0x24 PUSH0 REVERT JUMPDEST CALLVALUE PUSH2 0x4A8 JUMPI PUSH1 0x20 CALLDATASIZE PUSH1 0x3 NOT ADD SLT PUSH2 0x4A8 JUMPI PUSH1 0x4 CALLDATALOAD PUSH4 0xFFFFFFFF PUSH1 0xE0 SHL DUP2 AND DUP1 SWAP2 SUB PUSH2 0x4A8 JUMPI PUSH1 0x20 SWAP1 PUSH4 0x6CDB3D13 PUSH1 0xE1 SHL DUP2 EQ SWAP1 DUP2 ISZERO PUSH2 0x3F8D JUMPI JUMPDEST DUP2 ISZERO PUSH2 0x3F7C JUMPI JUMPDEST POP PUSH1 0x40 MLOAD SWAP1 ISZERO ISZERO DUP2 MSTORE RETURN JUMPDEST PUSH4 0x1FFC9A7 PUSH1 0xE0 SHL EQ SWAP1 POP DUP3 PUSH2 0x3F71 JUMP JUMPDEST PUSH4 0x3A24D07 PUSH1 0xE2 SHL DUP2 EQ SWAP2 POP PUSH2 0x3F6A JUMP JUMPDEST CALLVALUE PUSH2 0x4A8 JUMPI PUSH1 0x40 CALLDATASIZE PUSH1 0x3 NOT ADD SLT PUSH2 0x4A8 JUMPI PUSH2 0x3FB7 PUSH2 0x405E JUMP JUMPDEST PUSH2 0x3FBF PUSH2 0x408A JUMP JUMPDEST SWAP1 PUSH1 0x1 DUP1 PUSH1 0xA0 SHL SUB AND PUSH0 MSTORE PUSH1 0x11 PUSH1 0x20 MSTORE PUSH1 0xFF PUSH1 0x40 PUSH0 KECCAK256 SWAP2 AND PUSH0 MSTORE PUSH1 0x20 MSTORE PUSH1 0x20 PUSH1 0xFF PUSH1 0x40 PUSH0 KECCAK256 SLOAD AND PUSH1 0x40 MLOAD SWAP1 ISZERO ISZERO DUP2 MSTORE RETURN JUMPDEST CALLVALUE PUSH2 0x4A8 JUMPI PUSH1 0x40 CALLDATASIZE PUSH1 0x3 NOT ADD SLT PUSH2 0x4A8 JUMPI PUSH1 0x20 PUSH2 0x110B PUSH2 0x400E PUSH2 0x405E JUMP JUMPDEST PUSH1 0x24 CALLDATALOAD SWAP1 PUSH2 0x4509 JUMP JUMPDEST CALLVALUE PUSH2 0x4A8 JUMPI PUSH1 0x20 CALLDATASIZE PUSH1 0x3 NOT ADD SLT PUSH2 0x4A8 JUMPI PUSH1 0x4 CALLDATALOAD DUP1 ISZERO ISZERO DUP1 SWAP2 SUB PUSH2 0x4A8 JUMPI PUSH2 0x403D PUSH2 0x4A8D JUMP JUMPDEST PUSH1 0xFF DUP1 NOT PUSH1 0xB SLOAD AND SWAP2 AND OR PUSH1 0xB SSTORE PUSH0 DUP1 RETURN JUMPDEST PUSH1 0x24 CALLDATALOAD SWAP1 DUP2 ISZERO ISZERO DUP3 SUB PUSH2 0x4A8 JUMPI JUMP JUMPDEST PUSH1 0x4 CALLDATALOAD SWAP1 PUSH1 0x1 PUSH1 0x1 PUSH1 0xA0 SHL SUB DUP3 AND DUP3 SUB PUSH2 0x4A8 JUMPI JUMP JUMPDEST PUSH1 0x24 CALLDATALOAD SWAP1 PUSH1 0x1 PUSH1 0x1 PUSH1 0xA0 SHL SUB DUP3 AND DUP3 SUB PUSH2 0x4A8 JUMPI JUMP JUMPDEST PUSH1 0x24 CALLDATALOAD SWAP1 PUSH1 0xFF DUP3 AND DUP3 SUB PUSH2 0x4A8 JUMPI JUMP JUMPDEST PUSH1 0x4 CALLDATALOAD SWAP1 PUSH1 0xFF DUP3 AND DUP3 SUB PUSH2 0x4A8 JUMPI JUMP JUMPDEST PUSH1 0x4 CALLDATALOAD SWAP1 PUSH2 0xFFFF DUP3 AND DUP3 SUB PUSH2 0x4A8 JUMPI JUMP JUMPDEST PUSH1 0x24 CALLDATALOAD SWAP1 PUSH2 0xFFFF DUP3 AND DUP3 SUB PUSH2 0x4A8 JUMPI JUMP JUMPDEST SWAP1 PUSH1 0x1 DUP3 DUP2 SHR SWAP3 AND DUP1 ISZERO PUSH2 0x40FA JUMPI JUMPDEST PUSH1 0x20 DUP4 LT EQ PUSH2 0x40E6 JUMPI JUMP JUMPDEST PUSH4 0x4E487B71 PUSH1 0xE0 SHL PUSH0 MSTORE PUSH1 0x22 PUSH1 0x4 MSTORE PUSH1 0x24 PUSH0 REVERT JUMPDEST SWAP2 PUSH1 0x7F AND SWAP2 PUSH2 0x40DB JUMP JUMPDEST PUSH1 0x80 DUP2 ADD SWAP1 DUP2 LT PUSH1 0x1 PUSH1 0x1 PUSH1 0x40 SHL SUB DUP3 GT OR PUSH2 0x99D JUMPI PUSH1 0x40 MSTORE JUMP JUMPDEST PUSH1 0xA0 DUP2 ADD SWAP1 DUP2 LT PUSH1 0x1 PUSH1 0x1 PUSH1 0x40 SHL SUB DUP3 GT OR PUSH2 0x99D JUMPI PUSH1 0x40 MSTORE JUMP JUMPDEST PUSH1 0x20 DUP2 ADD SWAP1 DUP2 LT PUSH1 0x1 PUSH1 0x1 PUSH1 0x40 SHL SUB DUP3 GT OR PUSH2 0x99D JUMPI PUSH1 0x40 MSTORE JUMP JUMPDEST PUSH1 0x40 DUP2 ADD SWAP1 DUP2 LT PUSH1 0x1 PUSH1 0x1 PUSH1 0x40 SHL SUB DUP3 GT OR PUSH2 0x99D JUMPI PUSH1 0x40 MSTORE JUMP JUMPDEST PUSH1 0x60 DUP2 ADD SWAP1 DUP2 LT PUSH1 0x1 PUSH1 0x1 PUSH1 0x40 SHL SUB DUP3 GT OR PUSH2 0x99D JUMPI PUSH1 0x40 MSTORE JUMP JUMPDEST PUSH1 0x1F SWAP1 SWAP2 ADD PUSH1 0x1F NOT AND DUP2 ADD SWAP1 PUSH1 0x1 PUSH1 0x1 PUSH1 0x40 SHL SUB DUP3 GT SWAP1 DUP3 LT OR PUSH2 0x99D JUMPI PUSH1 0x40 MSTORE JUMP JUMPDEST SWAP1 PUSH1 0x40 MLOAD SWAP2 DUP3 PUSH0 DUP3 SLOAD PUSH2 0x41C0 DUP2 PUSH2 0x40CC JUMP JUMPDEST SWAP1 DUP2 DUP5 MSTORE PUSH1 0x20 SWAP5 PUSH1 0x1 SWAP2 PUSH1 0x1 DUP2 AND SWAP1 DUP2 PUSH0 EQ PUSH2 0x422E JUMPI POP PUSH1 0x1 EQ PUSH2 0x41F0 JUMPI JUMPDEST POP POP POP PUSH2 0x41EE SWAP3 POP SUB DUP4 PUSH2 0x418B JUMP JUMPDEST JUMP JUMPDEST PUSH0 SWAP1 DUP2 MSTORE DUP6 DUP2 KECCAK256 SWAP6 SWAP4 POP SWAP2 SWAP1 JUMPDEST DUP2 DUP4 LT PUSH2 0x4216 JUMPI POP POP PUSH2 0x41EE SWAP4 POP DUP3 ADD ADD PUSH0 DUP1 DUP1 PUSH2 0x41DF JUMP JUMPDEST DUP6 SLOAD DUP9 DUP5 ADD DUP6 ADD MSTORE SWAP5 DUP6 ADD SWAP5 DUP8 SWAP5 POP SWAP2 DUP4 ADD SWAP2 PUSH2 0x41FD JUMP JUMPDEST SWAP3 POP POP POP PUSH2 0x41EE SWAP5 SWAP3 POP PUSH1 0xFF NOT AND DUP3 DUP5 ADD MSTORE ISZERO ISZERO PUSH1 0x5 SHL DUP3 ADD ADD PUSH0 DUP1 DUP1 PUSH2 0x41DF JUMP JUMPDEST PUSH0 JUMPDEST DUP4 DUP2 LT PUSH2 0x4261 JUMPI POP POP PUSH0 SWAP2 ADD MSTORE JUMP JUMPDEST DUP2 DUP2 ADD MLOAD DUP4 DUP3 ADD MSTORE PUSH1 0x20 ADD PUSH2 0x4252 JUMP JUMPDEST SWAP1 PUSH1 0x20 SWAP2 PUSH2 0x428A DUP2 MLOAD DUP1 SWAP3 DUP2 DUP6 MSTORE DUP6 DUP1 DUP7 ADD SWAP2 ADD PUSH2 0x4250 JUMP JUMPDEST PUSH1 0x1F ADD PUSH1 0x1F NOT AND ADD ADD SWAP1 JUMP JUMPDEST SWAP2 DUP2 PUSH1 0x1F DUP5 ADD SLT ISZERO PUSH2 0x4A8 JUMPI DUP3 CALLDATALOAD SWAP2 PUSH1 0x1 PUSH1 0x1 PUSH1 0x40 SHL SUB DUP4 GT PUSH2 0x4A8 JUMPI PUSH1 0x20 DUP4 DUP2 DUP7 ADD SWAP6 ADD ADD GT PUSH2 0x4A8 JUMPI JUMP JUMPDEST PUSH1 0x1 PUSH1 0x1 PUSH1 0x40 SHL SUB DUP2 GT PUSH2 0x99D JUMPI PUSH1 0x5 SHL PUSH1 0x20 ADD SWAP1 JUMP JUMPDEST SWAP3 SWAP2 PUSH2 0x42E5 DUP3 PUSH2 0x42C3 JUMP JUMPDEST SWAP2 PUSH2 0x42F3 PUSH1 0x40 MLOAD SWAP4 DUP5 PUSH2 0x418B JUMP JUMPDEST DUP3 SWAP5 DUP2 DUP5 MSTORE PUSH1 0x20 DUP1 SWAP5 ADD SWAP2 PUSH1 0x5 SHL DUP2 ADD SWAP3 DUP4 GT PUSH2 0x4A8 JUMPI SWAP1 JUMPDEST DUP3 DUP3 LT PUSH2 0x4319 JUMPI POP POP POP POP JUMP JUMPDEST DUP2 CALLDATALOAD DUP2 MSTORE SWAP1 DUP4 ADD SWAP1 DUP4 ADD PUSH2 0x430C JUMP JUMPDEST SWAP1 DUP1 PUSH1 0x1F DUP4 ADD SLT ISZERO PUSH2 0x4A8 JUMPI DUP2 PUSH1 0x20 PUSH2 0x4343 SWAP4 CALLDATALOAD SWAP2 ADD PUSH2 0x42DA JUMP JUMPDEST SWAP1 JUMP JUMPDEST PUSH1 0x1 PUSH1 0x1 PUSH1 0x40 SHL SUB DUP2 GT PUSH2 0x99D JUMPI PUSH1 0x1F ADD PUSH1 0x1F NOT AND PUSH1 0x20 ADD SWAP1 JUMP JUMPDEST SWAP3 SWAP2 SWAP3 PUSH2 0x436D DUP3 PUSH2 0x4346 JUMP JUMPDEST SWAP2 PUSH2 0x437B PUSH1 0x40 MLOAD SWAP4 DUP5 PUSH2 0x418B JUMP JUMPDEST DUP3 SWAP5 DUP2 DUP5 MSTORE DUP2 DUP4 ADD GT PUSH2 0x4A8 JUMPI DUP3 DUP2 PUSH1 0x20 SWAP4 DUP5 PUSH0 SWAP7 ADD CALLDATACOPY ADD ADD MSTORE JUMP JUMPDEST SWAP1 DUP1 PUSH1 0x1F DUP4 ADD SLT ISZERO PUSH2 0x4A8 JUMPI DUP2 PUSH1 0x20 PUSH2 0x4343 SWAP4 CALLDATALOAD SWAP2 ADD PUSH2 0x4361 JUMP JUMPDEST SWAP1 DUP2 MLOAD DUP1 DUP3 MSTORE PUSH1 0x20 DUP1 DUP1 SWAP4 ADD SWAP4 ADD SWAP2 PUSH0 JUMPDEST DUP3 DUP2 LT PUSH2 0x43D1 JUMPI POP POP POP POP SWAP1 JUMP JUMPDEST DUP4 MLOAD DUP6 MSTORE SWAP4 DUP2 ADD SWAP4 SWAP3 DUP2 ADD SWAP3 PUSH1 0x1 ADD PUSH2 0x43C3 JUMP JUMPDEST SWAP1 SWAP3 PUSH1 0x80 SWAP3 PUSH2 0x4343 SWAP6 SWAP5 DUP4 MSTORE PUSH1 0x20 DUP4 ADD MSTORE PUSH1 0x40 DUP3 ADD MSTORE DUP2 PUSH1 0x60 DUP3 ADD MSTORE ADD SWAP1 PUSH2 0x4271 JUMP JUMPDEST SWAP1 PUSH1 0x40 PUSH1 0x3 NOT DUP4 ADD SLT PUSH2 0x4A8 JUMPI PUSH1 0x4 CALLDATALOAD PUSH2 0xFFFF DUP2 AND DUP2 SUB PUSH2 0x4A8 JUMPI SWAP2 PUSH1 0x24 CALLDATALOAD SWAP1 PUSH1 0x1 PUSH1 0x1 PUSH1 0x40 SHL SUB DUP3 GT PUSH2 0x4A8 JUMPI PUSH2 0x4442 SWAP2 PUSH1 0x4 ADD PUSH2 0x4296 JUMP JUMPDEST SWAP1 SWAP2 JUMP JUMPDEST CALLVALUE PUSH2 0x4A8 JUMPI PUSH0 CALLDATASIZE PUSH1 0x3 NOT ADD SLT PUSH2 0x4A8 JUMPI PUSH1 0x20 PUSH1 0x40 MLOAD PUSH1 0x2 DUP2 MSTORE RETURN JUMPDEST SWAP1 PUSH1 0xFF DUP1 NOT DUP4 SLOAD AND SWAP2 ISZERO ISZERO AND OR SWAP1 SSTORE JUMP JUMPDEST PUSH1 0x1 PUSH1 0x1 PUSH1 0xA0 SHL SUB AND DUP1 ISZERO PUSH2 0x44B1 JUMPI PUSH0 SWAP1 DUP2 MSTORE PUSH32 0x8768E3ED19A5D00BE410E8D8AD51C65C3AA78049339B9AD4303F61914E359DB3 PUSH1 0x20 MSTORE PUSH1 0x40 SWAP1 KECCAK256 SLOAD SWAP1 JUMP JUMPDEST PUSH1 0x40 MLOAD PUSH3 0x461BCD PUSH1 0xE5 SHL DUP2 MSTORE PUSH1 0x20 PUSH1 0x4 DUP3 ADD MSTORE PUSH1 0x2A PUSH1 0x24 DUP3 ADD MSTORE PUSH32 0x455243313135353A2061646472657373207A65726F206973206E6F7420612076 PUSH1 0x44 DUP3 ADD MSTORE PUSH10 0x30B634B21037BBB732B9 PUSH1 0xB1 SHL PUSH1 0x64 DUP3 ADD MSTORE PUSH1 0x84 SWAP1 REVERT JUMPDEST PUSH1 0x1 PUSH1 0x1 PUSH1 0xA0 SHL SUB AND SWAP1 DUP2 ISZERO PUSH2 0x44B1 JUMPI PUSH0 MSTORE PUSH0 PUSH1 0x20 MSTORE PUSH1 0x40 PUSH0 KECCAK256 SWAP1 PUSH0 MSTORE PUSH1 0x20 MSTORE PUSH1 0x40 PUSH0 KECCAK256 SLOAD SWAP1 JUMP JUMPDEST PUSH1 0x10 SLOAD PUSH1 0x1 PUSH1 0x1 PUSH1 0xA0 SHL SUB AND SWAP1 DUP2 PUSH2 0x46C7 JUMPI JUMPDEST PUSH2 0x454E SWAP2 POP PUSH2 0x4AE5 JUMP JUMPDEST PUSH2 0x4343 PUSH2 0x120 PUSH1 0x40 MLOAD DUP1 SWAP4 PUSH27 0x19185D184E985C1C1B1A58D85D1A5BDB8BDA9CDBDB8EDD5D198E0B PUSH1 0x2A SHL PUSH1 0x20 DUP4 ADD MSTORE PUSH32 0x7B226E616D65223A225269736B4C656E732044656D6F20436F6C6C6563746962 PUSH1 0x3B DUP4 ADD MSTORE PUSH32 0x6C65222C226465736372697074696F6E223A225269736B4C656E73205365706F PUSH1 0x5B DUP4 ADD MSTORE PUSH32 0x6C696120636F6C6C65637469626C652E20436F6E66696775726520746865206D PUSH1 0x7B DUP4 ADD MSTORE PUSH32 0x657461646174612072656E646572657220666F722066756C6C20636F76657220 PUSH1 0x9B DUP4 ADD MSTORE PUSH32 0x6172742E222C2261747472696275746573223A5B7B2274726169745F74797065 PUSH1 0xBB DUP4 ADD MSTORE PUSH32 0x223A224E6574776F726B222C2276616C7565223A225365706F6C6961227D2C7B PUSH1 0xDB DUP4 ADD MSTORE PUSH32 0x2274726169745F74797065223A22546F6B656E204944222C2276616C7565223A PUSH1 0xFB DUP4 ADD MSTORE PUSH1 0x11 PUSH1 0xF9 SHL PUSH2 0x11B DUP4 ADD MSTORE PUSH2 0x11C SWAP1 PUSH2 0x46A9 DUP2 MLOAD DUP1 SWAP3 PUSH1 0x20 DUP6 DUP8 ADD SWAP2 ADD PUSH2 0x4250 JUMP JUMPDEST DUP3 ADD SWAP1 PUSH4 0x227D5D7D PUSH1 0xE0 SHL SWAP1 DUP3 ADD MSTORE SUB PUSH2 0x100 DUP2 ADD DUP5 MSTORE ADD DUP3 PUSH2 0x418B JUMP JUMPDEST PUSH0 PUSH1 0x24 SWAP3 PUSH1 0x40 MLOAD SWAP4 DUP5 DUP1 SWAP3 PUSH4 0x3A24D07 PUSH1 0xE2 SHL DUP3 MSTORE DUP6 PUSH1 0x4 DUP4 ADD MSTORE GAS STATICCALL PUSH0 SWAP3 DUP2 PUSH2 0x46F6 JUMPI JUMPDEST POP ISZERO PUSH2 0x4544 JUMPI POP SWAP1 JUMP JUMPDEST SWAP1 SWAP3 POP RETURNDATASIZE DUP1 PUSH0 DUP4 RETURNDATACOPY PUSH2 0x4708 DUP2 DUP4 PUSH2 0x418B JUMP JUMPDEST DUP2 ADD SWAP1 PUSH1 0x20 DUP2 DUP4 SUB SLT PUSH2 0x4A8 JUMPI DUP1 MLOAD SWAP1 PUSH1 0x1 PUSH1 0x1 PUSH1 0x40 SHL SUB DUP3 GT PUSH2 0x4A8 JUMPI ADD DUP2 PUSH1 0x1F DUP3 ADD SLT ISZERO PUSH2 0x4A8 JUMPI DUP1 MLOAD PUSH2 0x473D DUP2 PUSH2 0x4346 JUMP JUMPDEST SWAP3 PUSH2 0x474B PUSH1 0x40 MLOAD SWAP5 DUP6 PUSH2 0x418B JUMP JUMPDEST DUP2 DUP5 MSTORE PUSH1 0x20 DUP3 DUP5 ADD ADD GT PUSH2 0x4A8 JUMPI PUSH2 0x4769 SWAP2 PUSH1 0x20 DUP1 DUP6 ADD SWAP2 ADD PUSH2 0x4250 JUMP JUMPDEST SWAP2 PUSH0 PUSH2 0x46EC JUMP JUMPDEST SWAP1 DUP1 PUSH1 0x20 SWAP4 SWAP3 DUP2 DUP5 MSTORE DUP5 DUP5 ADD CALLDATACOPY PUSH0 DUP3 DUP3 ADD DUP5 ADD MSTORE PUSH1 0x1F ADD PUSH1 0x1F NOT AND ADD ADD SWAP1 JUMP JUMPDEST ISZERO PUSH2 0x4797 JUMPI JUMP JUMPDEST PUSH1 0x40 MLOAD PUSH3 0x461BCD PUSH1 0xE5 SHL DUP2 MSTORE PUSH1 0x20 PUSH1 0x4 DUP3 ADD MSTORE PUSH1 0x13 PUSH1 0x24 DUP3 ADD MSTORE PUSH19 0x496E76616C6964207765616C7468207461736B PUSH1 0x68 SHL PUSH1 0x44 DUP3 ADD MSTORE PUSH1 0x64 SWAP1 REVERT JUMPDEST ISZERO PUSH2 0x47D9 JUMPI JUMP JUMPDEST PUSH1 0x40 MLOAD PUSH3 0x461BCD PUSH1 0xE5 SHL DUP2 MSTORE PUSH1 0x20 PUSH1 0x4 DUP3 ADD MSTORE PUSH1 0xF PUSH1 0x24 DUP3 ADD MSTORE PUSH15 0x105B1C9958591E4818DB185A5B5959 PUSH1 0x8A SHL PUSH1 0x44 DUP3 ADD MSTORE PUSH1 0x64 SWAP1 REVERT JUMPDEST ISZERO PUSH2 0x4817 JUMPI JUMP JUMPDEST PUSH1 0x40 MLOAD PUSH3 0x461BCD PUSH1 0xE5 SHL DUP2 MSTORE PUSH1 0x20 PUSH1 0x4 DUP3 ADD MSTORE PUSH1 0xF PUSH1 0x24 DUP3 ADD MSTORE PUSH15 0x125B9D985B1A59081C1C9BD91D58DD PUSH1 0x8A SHL PUSH1 0x44 DUP3 ADD MSTORE PUSH1 0x64 SWAP1 REVERT JUMPDEST PUSH1 0x1F DUP3 GT PUSH2 0x485B JUMPI POP POP POP JUMP JUMPDEST PUSH0 MSTORE PUSH1 0x20 PUSH0 KECCAK256 SWAP1 PUSH1 0x20 PUSH1 0x1F DUP5 ADD PUSH1 0x5 SHR DUP4 ADD SWAP4 LT PUSH2 0x4893 JUMPI JUMPDEST PUSH1 0x1F ADD PUSH1 0x5 SHR ADD SWAP1 JUMPDEST DUP2 DUP2 LT PUSH2 0x4888 JUMPI POP POP JUMP JUMPDEST PUSH0 DUP2 SSTORE PUSH1 0x1 ADD PUSH2 0x487D JUMP JUMPDEST SWAP1 SWAP2 POP DUP2 SWAP1 PUSH2 0x4874 JUMP JUMPDEST DUP2 PUSH1 0x1 SHL SWAP2 PUSH0 NOT SWAP1 PUSH1 0x3 SHL SHR NOT AND OR SWAP1 JUMP JUMPDEST SWAP2 SWAP1 DUP3 ADD DUP1 SWAP3 GT PUSH2 0xDC4 JUMPI JUMP JUMPDEST PUSH2 0xFFFF AND PUSH2 0x48CB DUP2 ISZERO ISZERO PUSH2 0x4810 JUMP JUMPDEST PUSH2 0x3E8 SWAP1 DUP2 ADD DUP1 SWAP2 GT PUSH2 0xDC4 JUMPI SWAP1 JUMP JUMPDEST ISZERO PUSH2 0x48E2 JUMPI JUMP JUMPDEST PUSH1 0x40 MLOAD PUSH3 0x461BCD PUSH1 0xE5 SHL DUP2 MSTORE PUSH1 0x20 PUSH1 0x4 DUP3 ADD MSTORE PUSH1 0x2E PUSH1 0x24 DUP3 ADD MSTORE PUSH32 0x455243313135353A2063616C6C6572206973206E6F7420746F6B656E206F776E PUSH1 0x44 DUP3 ADD MSTORE PUSH14 0x195C881BDC88185C1C1C9BDD9959 PUSH1 0x92 SHL PUSH1 0x64 DUP3 ADD MSTORE PUSH1 0x84 SWAP1 REVERT JUMPDEST ISZERO PUSH2 0x4945 JUMPI JUMP JUMPDEST PUSH1 0x40 MLOAD PUSH3 0x461BCD PUSH1 0xE5 SHL DUP2 MSTORE PUSH1 0x20 PUSH1 0x4 DUP3 ADD MSTORE PUSH1 0x13 PUSH1 0x24 DUP3 ADD MSTORE PUSH19 0x125B9D985B1A59081858DA1A595D995B595B9D PUSH1 0x6A SHL PUSH1 0x44 DUP3 ADD MSTORE PUSH1 0x64 SWAP1 REVERT JUMPDEST SWAP1 PUSH2 0x498A DUP3 PUSH2 0x42C3 JUMP JUMPDEST PUSH2 0x4997 PUSH1 0x40 MLOAD SWAP2 DUP3 PUSH2 0x418B JUMP JUMPDEST DUP3 DUP2 MSTORE DUP1 SWAP3 PUSH2 0x49A8 PUSH1 0x1F NOT SWAP2 PUSH2 0x42C3 JUMP JUMPDEST ADD SWAP1 PUSH1 0x20 CALLDATASIZE SWAP2 ADD CALLDATACOPY JUMP JUMPDEST DUP1 MLOAD DUP3 LT ISZERO PUSH2 0x1091 JUMPI PUSH1 0x20 SWAP2 PUSH1 0x5 SHL ADD ADD SWAP1 JUMP JUMPDEST ISZERO PUSH2 0x49CD JUMPI JUMP JUMPDEST PUSH1 0x40 MLOAD PUSH3 0x461BCD PUSH1 0xE5 SHL DUP2 MSTORE PUSH1 0x20 PUSH1 0x4 DUP3 ADD MSTORE PUSH1 0x10 PUSH1 0x24 DUP3 ADD MSTORE PUSH16 0x4D697373696E672065766964656E6365 PUSH1 0x80 SHL PUSH1 0x44 DUP3 ADD MSTORE PUSH1 0x64 SWAP1 REVERT JUMPDEST SWAP2 SWAP1 DUP2 LT ISZERO PUSH2 0x1091 JUMPI PUSH1 0x5 SHL ADD SWAP1 JUMP JUMPDEST PUSH1 0x20 SLOAD DUP2 LT ISZERO PUSH2 0x1091 JUMPI PUSH1 0x20 PUSH0 MSTORE PUSH1 0x20 PUSH0 KECCAK256 ADD SWAP1 PUSH0 SWAP1 JUMP JUMPDEST ISZERO PUSH2 0x4A34 JUMPI JUMP JUMPDEST PUSH1 0x40 MLOAD PUSH3 0x461BCD PUSH1 0xE5 SHL DUP2 MSTORE PUSH1 0x20 PUSH1 0x4 DUP3 ADD MSTORE PUSH1 0x12 PUSH1 0x24 DUP3 ADD MSTORE PUSH18 0x496E76616C696420686F6D65206261646765 PUSH1 0x70 SHL PUSH1 0x44 DUP3 ADD MSTORE PUSH1 0x64 SWAP1 REVERT JUMPDEST DUP1 SLOAD PUSH2 0xFFFF PUSH1 0xA0 SHL NOT AND PUSH1 0xA0 SWAP3 SWAP1 SWAP3 SHL PUSH2 0xFFFF PUSH1 0xA0 SHL AND SWAP2 SWAP1 SWAP2 OR SWAP1 SSTORE JUMP JUMPDEST PUSH1 0x3 SLOAD PUSH1 0x1 PUSH1 0x1 PUSH1 0xA0 SHL SUB AND CALLER SUB PUSH2 0x4AA1 JUMPI JUMP JUMPDEST PUSH1 0x64 PUSH1 0x40 MLOAD PUSH3 0x461BCD PUSH1 0xE5 SHL DUP2 MSTORE PUSH1 0x20 PUSH1 0x4 DUP3 ADD MSTORE PUSH1 0x20 PUSH1 0x24 DUP3 ADD MSTORE PUSH32 0x4F776E61626C653A2063616C6C6572206973206E6F7420746865206F776E6572 PUSH1 0x44 DUP3 ADD MSTORE REVERT JUMPDEST PUSH0 SWAP1 DUP1 PUSH19 0x184F03E93FF9F4DAA797ED6E38ED64BF6A1F01 PUSH1 0x40 SHL DUP1 DUP3 LT ISZERO PUSH2 0x4C38 JUMPI JUMPDEST POP PUSH10 0x4EE2D6D415B85ACEF81 PUSH1 0x20 SHL DUP1 DUP4 LT ISZERO PUSH2 0x4C29 JUMPI JUMPDEST POP PUSH7 0x2386F26FC10000 DUP1 DUP4 LT ISZERO PUSH2 0x4C1A JUMPI JUMPDEST POP PUSH4 0x5F5E100 DUP1 DUP4 LT ISZERO PUSH2 0x4C0B JUMPI JUMPDEST POP PUSH2 0x2710 DUP1 DUP4 LT ISZERO PUSH2 0x4BFC JUMPI JUMPDEST POP PUSH1 0x64 DUP3 LT ISZERO PUSH2 0x4BEC JUMPI JUMPDEST PUSH1 0xA DUP1 SWAP3 LT ISZERO PUSH2 0x4BE2 JUMPI JUMPDEST PUSH1 0x1 SWAP1 DUP2 PUSH1 0x21 PUSH1 0x1 DUP7 ADD SWAP6 PUSH2 0x4B78 DUP8 PUSH2 0x4346 JUMP JUMPDEST SWAP7 PUSH2 0x4B86 PUSH1 0x40 MLOAD SWAP9 DUP10 PUSH2 0x418B JUMP JUMPDEST DUP1 DUP9 MSTORE PUSH2 0x4B95 PUSH1 0x1F NOT SWAP2 PUSH2 0x4346 JUMP JUMPDEST ADD CALLDATASIZE PUSH1 0x20 DUP10 ADD CALLDATACOPY DUP7 ADD ADD SWAP1 JUMPDEST PUSH2 0x4BAD JUMPI JUMPDEST POP POP POP POP SWAP1 JUMP JUMPDEST PUSH0 NOT ADD SWAP1 DUP4 SWAP1 PUSH16 0x181899199A1A9B1B9C1CB0B131B232B3 PUSH1 0x81 SHL DUP3 DUP3 MOD BYTE DUP4 MSTORE8 DIV SWAP2 DUP3 ISZERO PUSH2 0x4BDD JUMPI SWAP2 SWAP1 DUP3 PUSH2 0x4BA1 JUMP JUMPDEST PUSH2 0x4BA6 JUMP JUMPDEST SWAP2 PUSH1 0x1 ADD SWAP2 PUSH2 0x4B64 JUMP JUMPDEST SWAP2 SWAP1 PUSH1 0x64 PUSH1 0x2 SWAP2 DIV SWAP2 ADD SWAP2 PUSH2 0x4B59 JUMP JUMPDEST PUSH1 0x4 SWAP2 SWAP4 SWAP3 DIV SWAP2 ADD SWAP2 PUSH0 PUSH2 0x4B4E JUMP JUMPDEST PUSH1 0x8 SWAP2 SWAP4 SWAP3 DIV SWAP2 ADD SWAP2 PUSH0 PUSH2 0x4B41 JUMP JUMPDEST PUSH1 0x10 SWAP2 SWAP4 SWAP3 DIV SWAP2 ADD SWAP2 PUSH0 PUSH2 0x4B32 JUMP JUMPDEST PUSH1 0x20 SWAP2 SWAP4 SWAP3 DIV SWAP2 ADD SWAP2 PUSH0 PUSH2 0x4B20 JUMP JUMPDEST PUSH1 0x40 SWAP4 POP DUP2 DIV SWAP2 POP PUSH0 PUSH2 0x4B08 JUMP JUMPDEST PUSH1 0xFF AND PUSH1 0x1 DUP2 LT ISZERO SWAP1 DUP2 PUSH2 0x4C58 JUMPI POP SWAP1 JUMP JUMPDEST PUSH1 0x3 SWAP2 POP GT ISZERO SWAP1 JUMP JUMPDEST PUSH1 0xFF AND PUSH1 0xC8 ADD DUP1 PUSH1 0xC8 GT PUSH2 0xDC4 JUMPI SWAP1 JUMP JUMPDEST ISZERO PUSH2 0x4C79 JUMPI JUMP JUMPDEST PUSH1 0x40 MLOAD PUSH3 0x461BCD PUSH1 0xE5 SHL DUP2 MSTORE PUSH1 0x20 PUSH1 0x4 DUP3 ADD MSTORE PUSH1 0x28 PUSH1 0x24 DUP3 ADD MSTORE PUSH32 0x455243313135353A2069647320616E6420616D6F756E7473206C656E67746820 PUSH1 0x44 DUP3 ADD MSTORE PUSH8 0xDAD2E6DAC2E8C6D PUSH1 0xC3 SHL PUSH1 0x64 DUP3 ADD MSTORE PUSH1 0x84 SWAP1 REVERT JUMPDEST ISZERO PUSH2 0x4CD6 JUMPI JUMP JUMPDEST PUSH1 0x40 MLOAD PUSH3 0x461BCD PUSH1 0xE5 SHL DUP2 MSTORE PUSH1 0x20 PUSH1 0x4 DUP3 ADD MSTORE PUSH1 0x25 PUSH1 0x24 DUP3 ADD MSTORE PUSH32 0x455243313135353A207472616E7366657220746F20746865207A65726F206164 PUSH1 0x44 DUP3 ADD MSTORE PUSH5 0x6472657373 PUSH1 0xD8 SHL PUSH1 0x64 DUP3 ADD MSTORE PUSH1 0x84 SWAP1 REVERT JUMPDEST ISZERO PUSH2 0x4D30 JUMPI JUMP JUMPDEST PUSH1 0x40 MLOAD PUSH3 0x461BCD PUSH1 0xE5 SHL DUP2 MSTORE PUSH1 0x20 PUSH1 0x4 DUP3 ADD MSTORE PUSH1 0x2A PUSH1 0x24 DUP3 ADD MSTORE PUSH32 0x455243313135353A20696E73756666696369656E742062616C616E636520666F PUSH1 0x44 DUP3 ADD MSTORE PUSH10 0x39103A3930B739B332B9 PUSH1 0xB1 SHL PUSH1 0x64 DUP3 ADD MSTORE PUSH1 0x84 SWAP1 REVERT JUMPDEST SWAP1 SWAP2 PUSH2 0x4D9F PUSH2 0x4343 SWAP4 PUSH1 0x40 DUP5 MSTORE PUSH1 0x40 DUP5 ADD SWAP1 PUSH2 0x43B2 JUMP JUMPDEST SWAP2 PUSH1 0x20 DUP2 DUP5 SUB SWAP2 ADD MSTORE PUSH2 0x43B2 JUMP JUMPDEST PUSH1 0x6 DUP2 LT ISZERO SWAP1 DUP2 PUSH2 0x4DBC JUMPI POP SWAP1 JUMP JUMPDEST PUSH1 0xA SWAP2 POP GT ISZERO SWAP1 JUMP JUMPDEST ISZERO PUSH2 0x4DCC JUMPI JUMP JUMPDEST PUSH1 0x40 MLOAD PUSH3 0x461BCD PUSH1 0xE5 SHL DUP2 MSTORE PUSH1 0x20 PUSH1 0x4 DUP3 ADD MSTORE PUSH1 0x21 PUSH1 0x24 DUP3 ADD MSTORE PUSH32 0x455243313135353A206D696E7420746F20746865207A65726F20616464726573 PUSH1 0x44 DUP3 ADD MSTORE PUSH1 0x73 PUSH1 0xF8 SHL PUSH1 0x64 DUP3 ADD MSTORE PUSH1 0x84 SWAP1 REVERT JUMPDEST SWAP2 SWAP1 PUSH1 0x1 PUSH1 0x1 PUSH1 0xA0 SHL SUB DUP4 AND PUSH2 0x4E32 DUP2 ISZERO ISZERO PUSH2 0x4DC5 JUMP JUMPDEST PUSH2 0x4E3B DUP3 PUSH2 0x5807 JUMP JUMPDEST POP PUSH2 0x4E44 PUSH2 0x57E0 JUMP JUMPDEST POP DUP2 PUSH0 MSTORE PUSH1 0x20 SWAP3 PUSH0 DUP5 MSTORE PUSH1 0x40 SWAP5 DUP6 PUSH0 KECCAK256 DUP4 PUSH0 MSTORE DUP6 MSTORE DUP6 PUSH0 KECCAK256 DUP1 SLOAD SWAP1 PUSH1 0x1 DUP3 ADD DUP1 SWAP3 GT PUSH2 0xDC4 JUMPI SSTORE DUP3 PUSH0 DUP8 MLOAD DUP7 DUP2 MSTORE PUSH1 0x1 DUP9 DUP3 ADD MSTORE PUSH0 DUP1 MLOAD PUSH1 0x20 PUSH2 0x591B DUP4 CODECOPY DUP2 MLOAD SWAP2 MSTORE DUP10 CALLER SWAP3 LOG4 EXTCODESIZE PUSH2 0x4E97 JUMPI JUMPDEST POP POP POP POP POP JUMP JUMPDEST SWAP3 PUSH2 0x4EDE PUSH0 SWAP3 DUP7 SWAP8 SWAP6 DUP4 SWAP8 MLOAD SWAP5 DUP6 DUP1 SWAP5 DUP2 SWAP4 PUSH4 0xF23A6E61 PUSH1 0xE0 SHL SWAP10 DUP11 DUP5 MSTORE CALLER PUSH1 0x4 DUP6 ADD MSTORE DUP5 PUSH1 0x24 DUP6 ADD MSTORE PUSH1 0x44 DUP5 ADD MSTORE PUSH1 0x1 PUSH1 0x64 DUP5 ADD MSTORE PUSH1 0xA0 PUSH1 0x84 DUP5 ADD MSTORE PUSH1 0xA4 DUP4 ADD SWAP1 PUSH2 0x4271 JUMP JUMPDEST SUB SWAP3 GAS CALL PUSH0 SWAP2 DUP2 PUSH2 0x4F88 JUMPI JUMPDEST POP PUSH2 0x4F51 JUMPI POP POP POP PUSH2 0x4EFA PUSH2 0x5703 JUMP JUMPDEST PUSH4 0x8C379A0 EQ PUSH2 0x4F1D JUMPI JUMPDEST POP MLOAD PUSH3 0x461BCD PUSH1 0xE5 SHL DUP2 MSTORE DUP1 PUSH2 0x7B9 PUSH1 0x4 DUP3 ADD PUSH2 0x578B JUMP JUMPDEST PUSH2 0x4F25 PUSH2 0x571E JUMP JUMPDEST SWAP1 DUP2 PUSH2 0x4F31 JUMPI POP PUSH2 0x4F05 JUMP JUMPDEST PUSH2 0x7B9 DUP4 MLOAD SWAP3 DUP4 SWAP3 PUSH3 0x461BCD PUSH1 0xE5 SHL DUP5 MSTORE PUSH1 0x4 DUP5 ADD MSTORE PUSH1 0x24 DUP4 ADD SWAP1 PUSH2 0x4271 JUMP JUMPDEST SWAP2 SWAP4 SWAP3 POP PUSH1 0x1 PUSH1 0x1 PUSH1 0xE0 SHL SUB NOT SWAP1 SWAP2 AND SUB PUSH2 0x4F71 JUMPI POP PUSH0 DUP1 DUP1 DUP1 DUP1 PUSH2 0x4E90 JUMP JUMPDEST MLOAD PUSH3 0x461BCD PUSH1 0xE5 SHL DUP2 MSTORE DUP1 PUSH2 0x7B9 PUSH1 0x4 DUP3 ADD PUSH2 0x56BA JUMP JUMPDEST PUSH2 0x4FA0 SWAP2 SWAP3 POP DUP6 RETURNDATASIZE DUP8 GT PUSH2 0x846 JUMPI PUSH2 0x837 DUP2 DUP4 PUSH2 0x418B JUMP JUMPDEST SWAP1 PUSH0 PUSH2 0x4EEA JUMP JUMPDEST PUSH1 0xFF AND PUSH1 0x1 DUP2 LT ISZERO SWAP1 DUP2 PUSH2 0x4FB9 JUMPI POP SWAP1 JUMP JUMPDEST PUSH1 0x5 SWAP2 POP GT ISZERO SWAP1 JUMP JUMPDEST ISZERO PUSH2 0x4FC9 JUMPI JUMP JUMPDEST PUSH1 0x40 MLOAD PUSH3 0x461BCD PUSH1 0xE5 SHL DUP2 MSTORE PUSH1 0x20 PUSH1 0x4 DUP3 ADD MSTORE PUSH1 0xB PUSH1 0x24 DUP3 ADD MSTORE PUSH11 0x5A65726F20736861726573 PUSH1 0xA8 SHL PUSH1 0x44 DUP3 ADD MSTORE PUSH1 0x64 SWAP1 REVERT JUMPDEST SWAP1 SWAP3 SWAP2 PUSH2 0xFFFF DUP5 AND SWAP1 PUSH2 0x5010 DUP3 ISZERO ISZERO PUSH2 0x4810 JUMP JUMPDEST PUSH2 0x501B DUP2 ISZERO ISZERO PUSH2 0x4FC2 JUMP JUMPDEST PUSH2 0x5025 DUP2 SWAP6 PUSH2 0x48BC JUMP JUMPDEST SWAP3 PUSH1 0x1 PUSH1 0x1 PUSH1 0xA0 SHL SUB AND SWAP1 DUP2 ISZERO PUSH2 0x5176 JUMPI PUSH2 0x503F DUP5 PUSH2 0x5807 JUMP JUMPDEST POP PUSH2 0x5049 DUP2 PUSH2 0x5807 JUMP JUMPDEST POP PUSH1 0x40 PUSH0 DUP2 MLOAD PUSH2 0x5058 DUP2 PUSH2 0x413A JUMP JUMPDEST MSTORE DUP5 PUSH0 MSTORE PUSH1 0x20 PUSH0 DUP2 MSTORE DUP2 PUSH0 KECCAK256 DUP5 PUSH0 MSTORE DUP2 MSTORE DUP2 PUSH0 KECCAK256 SLOAD DUP4 DUP2 LT PUSH2 0x513A JUMPI DUP4 SWAP1 DUP8 PUSH0 MSTORE PUSH0 DUP4 MSTORE DUP4 PUSH0 KECCAK256 DUP7 PUSH0 MSTORE DUP4 MSTORE SUB DUP3 PUSH0 KECCAK256 SSTORE PUSH0 DUP5 DUP4 MLOAD DUP9 DUP2 MSTORE DUP6 DUP5 DUP3 ADD MSTORE PUSH0 DUP1 MLOAD PUSH1 0x20 PUSH2 0x591B DUP4 CODECOPY DUP2 MLOAD SWAP2 MSTORE DUP6 CALLER SWAP3 LOG4 PUSH0 DUP3 MLOAD PUSH2 0x50B3 DUP2 PUSH2 0x413A JUMP JUMPDEST MSTORE PUSH0 DUP5 DUP2 MSTORE PUSH1 0x19 DUP3 MSTORE DUP3 DUP2 KECCAK256 DUP7 DUP3 MSTORE DUP3 MSTORE DUP3 SWAP1 KECCAK256 SLOAD SWAP3 DUP4 DUP2 LT PUSH2 0x511C JUMPI PUSH0 DUP1 MLOAD PUSH1 0x20 PUSH2 0x5A7B DUP4 CODECOPY DUP2 MLOAD SWAP2 MSTORE SWAP4 POP PUSH0 JUMPDEST DUP6 PUSH0 MSTORE PUSH1 0x19 DUP4 MSTORE DUP4 PUSH0 KECCAK256 DUP8 PUSH0 MSTORE DUP4 MSTORE DUP4 PUSH0 KECCAK256 SSTORE DUP5 PUSH0 DUP1 MLOAD PUSH1 0x20 PUSH2 0x5B1B DUP4 CODECOPY DUP2 MLOAD SWAP2 MSTORE DUP5 DUP1 MLOAD DUP5 DUP2 MSTORE DUP5 DUP7 DUP3 ADD MSTORE LOG2 DUP3 MLOAD SWAP2 DUP2 DUP4 MSTORE DUP3 ADD MSTORE LOG4 JUMP JUMPDEST DUP1 DUP5 SUB SWAP4 DUP5 GT PUSH2 0xDC4 JUMPI PUSH0 DUP1 MLOAD PUSH1 0x20 PUSH2 0x5A7B DUP4 CODECOPY DUP2 MLOAD SWAP2 MSTORE SWAP4 PUSH2 0x50E2 JUMP JUMPDEST POP PUSH1 0x84 SWAP2 MLOAD SWAP1 PUSH3 0x461BCD PUSH1 0xE5 SHL DUP3 MSTORE PUSH1 0x4 DUP3 ADD MSTORE PUSH1 0x24 DUP1 DUP3 ADD MSTORE PUSH0 DUP1 MLOAD PUSH1 0x20 PUSH2 0x5A1B DUP4 CODECOPY DUP2 MLOAD SWAP2 MSTORE PUSH1 0x44 DUP3 ADD MSTORE PUSH4 0x616E6365 PUSH1 0xE0 SHL PUSH1 0x64 DUP3 ADD MSTORE REVERT JUMPDEST PUSH1 0x40 MLOAD PUSH3 0x461BCD PUSH1 0xE5 SHL DUP2 MSTORE PUSH1 0x20 PUSH1 0x4 DUP3 ADD MSTORE PUSH1 0x23 PUSH1 0x24 DUP3 ADD MSTORE PUSH0 DUP1 MLOAD PUSH1 0x20 PUSH2 0x597B DUP4 CODECOPY DUP2 MLOAD SWAP2 MSTORE PUSH1 0x44 DUP3 ADD MSTORE PUSH3 0x657373 PUSH1 0xE8 SHL PUSH1 0x64 DUP3 ADD MSTORE PUSH1 0x84 SWAP1 REVERT JUMPDEST SWAP1 SWAP2 SWAP4 SWAP3 PUSH1 0xFF PUSH1 0xB SLOAD AND PUSH2 0x565E JUMPI PUSH2 0xFFFF SWAP3 PUSH2 0x51D3 DUP5 DUP3 AND ISZERO ISZERO PUSH2 0x4810 JUMP JUMPDEST PUSH1 0x9 SLOAD DUP7 LT PUSH2 0x5629 JUMPI DUP6 PUSH2 0x51E8 DUP2 ISZERO ISZERO PUSH2 0x4FC2 JUMP JUMPDEST PUSH2 0x51F1 DUP3 PUSH2 0x48BC JUMP JUMPDEST SWAP5 PUSH1 0x40 MLOAD SWAP1 PUSH2 0x51FF DUP3 PUSH2 0x413A JUMP JUMPDEST PUSH0 DUP3 MSTORE PUSH1 0x1 PUSH1 0x1 PUSH1 0xA0 SHL SUB SWAP2 PUSH2 0x5218 DUP8 DUP5 AND ISZERO ISZERO PUSH2 0x4DC5 JUMP JUMPDEST PUSH2 0x5221 DUP9 PUSH2 0x5807 JUMP JUMPDEST POP PUSH2 0x522B DUP5 PUSH2 0x5807 JUMP JUMPDEST POP DUP8 PUSH0 MSTORE PUSH0 PUSH1 0x20 MSTORE PUSH1 0x40 PUSH0 KECCAK256 DUP4 DUP9 AND PUSH0 MSTORE PUSH1 0x20 MSTORE PUSH1 0x40 PUSH0 KECCAK256 PUSH2 0x524E DUP6 DUP3 SLOAD PUSH2 0x48AF JUMP JUMPDEST SWAP1 SSTORE PUSH1 0x40 MLOAD DUP9 DUP2 MSTORE DUP5 PUSH1 0x20 DUP3 ADD MSTORE PUSH0 DUP5 DUP10 AND SWAP2 PUSH0 DUP1 MLOAD PUSH1 0x20 PUSH2 0x591B DUP4 CODECOPY DUP2 MLOAD SWAP2 MSTORE PUSH1 0x40 CALLER SWAP3 LOG4 DUP7 EXTCODESIZE PUSH2 0x5597 JUMPI JUMPDEST POP DUP2 DUP7 AND PUSH0 MSTORE PUSH1 0x19 PUSH1 0x20 MSTORE PUSH1 0x40 PUSH0 KECCAK256 DUP2 DUP6 AND PUSH0 MSTORE PUSH1 0x20 MSTORE PUSH1 0x40 PUSH0 KECCAK256 PUSH2 0x52A1 DUP5 DUP3 SLOAD PUSH2 0x48AF JUMP JUMPDEST SWAP1 SSTORE PUSH2 0x52AC DUP5 PUSH2 0x58C3 JUMP JUMPDEST SWAP7 PUSH1 0x3 PUSH1 0x40 MLOAD PUSH2 0x52BB DUP2 PUSH2 0x4104 JUMP JUMPDEST DUP6 DUP2 MSTORE PUSH1 0x20 DUP2 ADD DUP7 DUP2 MSTORE PUSH1 0x40 DUP3 ADD SWAP1 TIMESTAMP DUP3 MSTORE PUSH1 0x60 DUP4 ADD SWAP12 DUP13 MSTORE DUP7 DUP12 AND PUSH0 MSTORE PUSH1 0x21 PUSH1 0x20 MSTORE PUSH1 0x40 PUSH0 KECCAK256 DUP7 DUP11 AND PUSH0 MSTORE PUSH1 0x20 MSTORE PUSH1 0x40 PUSH0 KECCAK256 SWAP3 MLOAD DUP4 SSTORE MLOAD PUSH1 0x1 DUP4 ADD SSTORE MLOAD PUSH1 0x2 DUP3 ADD SSTORE ADD SWAP8 MLOAD SWAP8 DUP9 MLOAD PUSH1 0x1 DUP1 PUSH1 0x40 SHL SUB SWAP10 DUP11 DUP3 GT PUSH2 0x99D JUMPI PUSH2 0x5321 DUP3 PUSH2 0x3B55 DUP6 SLOAD PUSH2 0x40CC JUMP JUMPDEST PUSH1 0x20 SWAP1 PUSH1 0x1F DUP4 GT PUSH1 0x1 EQ PUSH2 0x5533 JUMPI PUSH2 0x5342 SWAP3 SWAP2 PUSH0 SWAP2 DUP4 PUSH2 0xCBA JUMPI POP POP PUSH2 0x489D JUMP JUMPDEST SWAP1 SSTORE JUMPDEST PUSH1 0x6 SLOAD SWAP8 PUSH1 0x1 DUP10 ADD DUP1 DUP11 GT PUSH2 0xDC4 JUMPI PUSH1 0x6 SSTORE PUSH1 0x40 MLOAD SWAP1 PUSH2 0x5364 DUP3 PUSH2 0x411F JUMP JUMPDEST DUP5 DUP10 AND DUP3 MSTORE DUP8 DUP11 PUSH1 0x20 DUP5 ADD DUP7 DUP11 AND DUP2 MSTORE PUSH2 0x53B4 DUP8 PUSH1 0x40 DUP8 ADD SWAP3 DUP12 DUP5 MSTORE PUSH1 0x60 DUP9 ADD SWAP5 DUP13 DUP7 MSTORE PUSH1 0x80 DUP10 ADD SWAP7 DUP8 MSTORE PUSH0 MSTORE PUSH1 0x24 PUSH1 0x20 MSTORE DUP11 PUSH1 0x40 PUSH0 KECCAK256 SWAP9 MLOAD AND PUSH1 0x1 DUP1 PUSH1 0xA0 SHL SUB NOT DUP10 SLOAD AND OR DUP9 SSTORE MLOAD AND DUP7 PUSH2 0x4A6E JUMP JUMPDEST MLOAD PUSH1 0x1 DUP6 ADD SSTORE MLOAD PUSH1 0x2 DUP5 ADD SSTORE MLOAD DUP1 MLOAD SWAP2 DUP3 GT PUSH2 0x99D JUMPI PUSH2 0x53E4 DUP3 PUSH2 0x53DB PUSH1 0x3 DUP7 ADD SLOAD PUSH2 0x40CC JUMP JUMPDEST PUSH1 0x3 DUP7 ADD PUSH2 0x484E JUMP JUMPDEST PUSH1 0x20 SWAP1 PUSH1 0x1F DUP4 GT PUSH1 0x1 EQ PUSH2 0x54B1 JUMPI PUSH2 0x541F DUP4 PUSH0 DUP1 MLOAD PUSH1 0x20 PUSH2 0x593B DUP4 CODECOPY DUP2 MLOAD SWAP2 MSTORE SWAP11 SWAP10 SWAP9 SWAP7 SWAP5 PUSH2 0x54AC SWAP9 SWAP7 SWAP5 PUSH1 0x3 SWAP5 PUSH0 SWAP3 PUSH2 0xCBA JUMPI POP POP PUSH2 0x489D JUMP JUMPDEST SWAP2 ADD SSTORE JUMPDEST PUSH2 0x543C PUSH1 0x40 MLOAD PUSH2 0x5432 DUP2 PUSH2 0x413A JUMP JUMPDEST PUSH0 DUP2 MSTORE DUP12 DUP12 PUSH2 0x4E1B JUMP JUMPDEST PUSH1 0x40 MLOAD DUP6 DUP2 MSTORE DUP6 PUSH1 0x20 DUP3 ADD MSTORE PUSH0 DUP1 MLOAD PUSH1 0x20 PUSH2 0x5A9B DUP4 CODECOPY DUP2 MLOAD SWAP2 MSTORE PUSH1 0x40 DUP6 DUP13 AND SWAP3 LOG2 DUP9 PUSH2 0x5467 DUP8 PUSH2 0x58C3 JUMP JUMPDEST PUSH0 DUP1 MLOAD PUSH1 0x20 PUSH2 0x5A5B DUP4 CODECOPY DUP2 MLOAD SWAP2 MSTORE PUSH1 0x40 MLOAD DUP1 PUSH2 0x548C DUP9 DUP9 DUP14 AND SWAP7 AND SWAP5 TIMESTAMP DUP13 DUP1 DUP6 PUSH2 0x43E5 JUMP JUMPDEST SUB SWAP1 LOG4 PUSH1 0x40 MLOAD SWAP5 DUP6 SWAP5 DUP6 MSTORE PUSH1 0x40 PUSH1 0x20 DUP7 ADD MSTORE AND SWAP7 AND SWAP5 PUSH1 0x40 DUP4 ADD SWAP1 PUSH2 0x4271 JUMP JUMPDEST SUB SWAP1 LOG4 JUMP JUMPDEST SWAP1 PUSH1 0x3 DUP5 ADD PUSH0 MSTORE PUSH1 0x20 PUSH0 KECCAK256 SWAP2 PUSH0 JUMPDEST PUSH1 0x1F NOT DUP6 AND DUP2 LT PUSH2 0x551B JUMPI POP DUP4 PUSH2 0x54AC SWAP8 SWAP6 SWAP4 PUSH1 0x3 SWAP4 PUSH1 0x1 SWAP4 PUSH0 DUP1 MLOAD PUSH1 0x20 PUSH2 0x593B DUP4 CODECOPY DUP2 MLOAD SWAP2 MSTORE SWAP14 SWAP13 SWAP12 SWAP10 SWAP8 PUSH1 0x1F NOT DUP2 AND LT PUSH2 0x5504 JUMPI JUMPDEST POP POP POP DUP2 SHL ADD SWAP2 ADD SSTORE PUSH2 0x5423 JUMP JUMPDEST ADD MLOAD PUSH0 NOT DUP4 DUP7 SHL PUSH1 0xF8 AND SHR NOT AND SWAP1 SSTORE PUSH0 DUP1 DUP1 PUSH2 0x54F6 JUMP JUMPDEST SWAP2 SWAP3 PUSH1 0x20 PUSH1 0x1 DUP2 SWAP3 DUP7 DUP6 ADD MLOAD DUP2 SSTORE ADD SWAP5 ADD SWAP3 ADD PUSH2 0x54BF JUMP JUMPDEST SWAP1 PUSH1 0x1F NOT DUP4 AND SWAP2 DUP5 PUSH0 MSTORE PUSH1 0x20 PUSH0 KECCAK256 SWAP3 PUSH0 JUMPDEST DUP2 DUP2 LT PUSH2 0x557F JUMPI POP SWAP1 DUP5 PUSH1 0x1 SWAP6 SWAP5 SWAP4 SWAP3 LT PUSH2 0x5567 JUMPI JUMPDEST POP POP POP DUP2 SHL ADD SWAP1 SSTORE PUSH2 0x5345 JUMP JUMPDEST ADD MLOAD PUSH0 NOT PUSH1 0xF8 DUP5 PUSH1 0x3 SHL AND SHR NOT AND SWAP1 SSTORE PUSH0 DUP1 DUP1 PUSH2 0x555A JUMP JUMPDEST SWAP3 SWAP4 PUSH1 0x20 PUSH1 0x1 DUP2 SWAP3 DUP8 DUP7 ADD MLOAD DUP2 SSTORE ADD SWAP6 ADD SWAP4 ADD PUSH2 0x5544 JUMP JUMPDEST PUSH1 0x40 MLOAD PUSH1 0x20 DUP2 DUP1 PUSH2 0x55D6 PUSH4 0xF23A6E61 PUSH1 0xE0 SHL SWAP6 DUP7 DUP4 MSTORE CALLER PUSH1 0x4 DUP5 ADD MSTORE PUSH0 PUSH1 0x24 DUP5 ADD MSTORE DUP14 PUSH1 0x44 DUP5 ADD MSTORE DUP10 PUSH1 0x64 DUP5 ADD MSTORE PUSH1 0xA0 PUSH1 0x84 DUP5 ADD MSTORE PUSH1 0xA4 DUP4 ADD SWAP1 PUSH2 0x4271 JUMP JUMPDEST SUB DUP2 PUSH0 DUP9 DUP14 AND GAS CALL PUSH0 SWAP2 DUP2 PUSH2 0x5608 JUMPI JUMPDEST POP PUSH2 0x55F3 JUMPI PUSH2 0x334F PUSH2 0x5703 JUMP JUMPDEST PUSH1 0x1 PUSH1 0x1 PUSH1 0xE0 SHL SUB NOT AND SUB PUSH2 0x805 JUMPI PUSH0 PUSH2 0x527B JUMP JUMPDEST PUSH2 0x5622 SWAP2 SWAP3 POP PUSH1 0x20 RETURNDATASIZE PUSH1 0x20 GT PUSH2 0x846 JUMPI PUSH2 0x837 DUP2 DUP4 PUSH2 0x418B JUMP JUMPDEST SWAP1 PUSH0 PUSH2 0x55E6 JUMP JUMPDEST PUSH1 0x40 MLOAD PUSH3 0x461BCD PUSH1 0xE5 SHL DUP2 MSTORE PUSH1 0x20 PUSH1 0x4 DUP3 ADD MSTORE PUSH1 0xD PUSH1 0x24 DUP3 ADD MSTORE PUSH13 0x42656C6F77206D696E696D756D PUSH1 0x98 SHL PUSH1 0x44 DUP3 ADD MSTORE PUSH1 0x64 SWAP1 REVERT JUMPDEST PUSH1 0x40 MLOAD PUSH3 0x461BCD PUSH1 0xE5 SHL DUP2 MSTORE PUSH1 0x20 PUSH1 0x4 DUP3 ADD MSTORE PUSH1 0x14 PUSH1 0x24 DUP3 ADD MSTORE PUSH20 0x14DD589CD8DC9A5C1D1A5BDB9CC81C185D5CD959 PUSH1 0x62 SHL PUSH1 0x44 DUP3 ADD MSTORE PUSH1 0x64 SWAP1 REVERT JUMPDEST SWAP1 DUP2 PUSH1 0x20 SWAP2 SUB SLT PUSH2 0x4A8 JUMPI MLOAD PUSH1 0x1 PUSH1 0x1 PUSH1 0xE0 SHL SUB NOT DUP2 AND DUP2 SUB PUSH2 0x4A8 JUMPI SWAP1 JUMP JUMPDEST PUSH1 0x80 SWAP1 PUSH1 0x20 DUP2 MSTORE PUSH1 0x28 PUSH1 0x20 DUP3 ADD MSTORE PUSH32 0x455243313135353A204552433131353552656365697665722072656A65637465 PUSH1 0x40 DUP3 ADD MSTORE PUSH8 0x6420746F6B656E73 PUSH1 0xC0 SHL PUSH1 0x60 DUP3 ADD MSTORE ADD SWAP1 JUMP JUMPDEST PUSH0 SWAP1 PUSH1 0x3 RETURNDATASIZE GT PUSH2 0x570F JUMPI JUMP JUMPDEST SWAP1 POP PUSH1 0x4 PUSH0 DUP1 RETURNDATACOPY PUSH0 MLOAD PUSH1 0xE0 SHR SWAP1 JUMP JUMPDEST PUSH0 PUSH1 0x44 RETURNDATASIZE LT PUSH2 0x4343 JUMPI PUSH1 0x40 MLOAD PUSH1 0x3 NOT SWAP2 RETURNDATASIZE DUP4 ADD PUSH1 0x4 DUP4 RETURNDATACOPY DUP2 MLOAD PUSH1 0x1 PUSH1 0x1 PUSH1 0x40 SHL SUB SWAP2 DUP3 DUP3 GT RETURNDATASIZE PUSH1 0x24 DUP5 ADD GT OR PUSH2 0x577A JUMPI DUP2 DUP5 ADD SWAP5 DUP6 MLOAD SWAP4 DUP5 GT PUSH2 0x5782 JUMPI RETURNDATASIZE DUP6 ADD ADD PUSH1 0x20 DUP5 DUP8 ADD ADD GT PUSH2 0x577A JUMPI POP PUSH2 0x4343 SWAP3 SWAP2 ADD PUSH1 0x20 ADD SWAP1 PUSH2 0x418B JUMP JUMPDEST SWAP5 SWAP4 POP POP POP POP JUMP JUMPDEST POP SWAP5 SWAP4 POP POP POP POP JUMP JUMPDEST PUSH1 0x80 SWAP1 PUSH1 0x20 DUP2 MSTORE PUSH1 0x34 PUSH1 0x20 DUP3 ADD MSTORE PUSH32 0x455243313135353A207472616E7366657220746F206E6F6E2D45524331313535 PUSH1 0x40 DUP3 ADD MSTORE PUSH20 0x2932B1B2B4BB32B91034B6B83632B6B2B73A32B9 PUSH1 0x61 SHL PUSH1 0x60 DUP3 ADD MSTORE ADD SWAP1 JUMP JUMPDEST PUSH1 0x40 MLOAD PUSH2 0x57EC DUP2 PUSH2 0x4155 JUMP JUMPDEST PUSH1 0x1 DUP2 MSTORE PUSH1 0x20 DUP2 ADD PUSH1 0x20 CALLDATASIZE DUP3 CALLDATACOPY DUP2 MLOAD ISZERO PUSH2 0x1091 JUMPI PUSH1 0x1 SWAP1 MSTORE SWAP1 JUMP JUMPDEST PUSH1 0x40 MLOAD SWAP1 PUSH2 0x5814 DUP3 PUSH2 0x4155 JUMP JUMPDEST PUSH1 0x1 DUP3 MSTORE PUSH1 0x20 DUP3 ADD PUSH1 0x20 CALLDATASIZE DUP3 CALLDATACOPY DUP3 MLOAD ISZERO PUSH2 0x1091 JUMPI MSTORE SWAP1 JUMP JUMPDEST PUSH1 0x1 PUSH0 MSTORE PUSH1 0x1B PUSH1 0x20 MSTORE PUSH2 0x585E PUSH32 0x9FAFCA4C9C0D5C2CBF85F49FD8AB8212430CE78C2A0CB75B51E0F9C4F9ACE003 PUSH2 0x41AE JUMP JUMPDEST DUP1 MLOAD PUSH2 0x4343 JUMPI POP PUSH1 0x40 MLOAD PUSH2 0x5871 DUP2 PUSH2 0x4170 JUMP JUMPDEST PUSH1 0x3C DUP2 MSTORE PUSH32 0x536574746C656D656E74207465726D73207265636F7264656420696E20746865 PUSH1 0x20 DUP3 ADD MSTORE PUSH28 0x205269736B4C656E73205765616C74682064657461696C2070616765 PUSH1 0x20 SHL PUSH1 0x40 DUP3 ADD MSTORE SWAP1 JUMP JUMPDEST PUSH2 0xFFFF AND PUSH0 MSTORE PUSH1 0x1B PUSH1 0x20 MSTORE PUSH2 0x585E PUSH1 0x40 PUSH0 KECCAK256 PUSH2 0x41AE JUMP INVALID BLOBBASEFEE CODECOPY 0xDC MOD 0xD4 0xC0 0xDB 0xC6 0x4B PUSH17 0xAF90FD698A233A518AA5D07E595D983B8C SDIV 0x26 0xC8 0xF7 0xFB DUP7 PUSH11 0xAB14C7F7439FA866F885F2 0x2E DUP11 SWAP16 0xCE NOT CREATE MOD 0xD3 SWAP6 PUSH2 0x37B0 PUSH32 0x4284346BAC9CC3D58168C5AE7397731D063D5BBF3D657854427343F4C083240F PUSH27 0xACAA2D0F62D054490758CCB582307891C51BCBD8E7626FA40EAEA4 0xB9 0xF7 CALLDATACOPY 0x4C SWAP2 PUSH14 0xCA2BE628309EB5725BC0FCC8192E PUSH21 0x91A4ADAAF2EBBFB008E6F1062F264953C0976E27B7 GASLIMIT MSTORE NUMBER BALANCE BALANCE CALLDATALOAD CALLDATALOAD GASPRICE KECCAK256 PUSH3 0x75726E KECCAK256 PUSH7 0x726F6D20746865 KECCAK256 PUSH27 0x65726F2061646472EE734F4DC9367A19993B3DD18A799F252C2874 0xEF SWAP14 PUSH20 0x88163AA9C16CB0011100B16CF5B05C6E7E92F229 SWAP11 SAR ADDMOD SWAP5 0xBB CALLCODE KECCAK256 0xA6 GASPRICE PUSH28 0x1CCC786436C3D89D18DF7BBE04844D30B922FFC2B845400EB2A15CDD PUSH3 0x742176 0xC7 0x23 0xE0 SWAP14 PUSH29 0xC9703E83645E4BBD1AE2C6D13C1A8DC9DBE03823192CB9AB92B45E5B92 PUSH5 0xDD65B2794C MSTORE PUSH15 0x6F9F455243313135353A206275726E KECCAK256 PUSH2 0x6D6F PUSH22 0x6E7420657863656564732062616C8BE0079C53165914 SGT PREVRANDAO 0xCD 0x1F 0xD0 LOG4 CALLCODE DUP5 NOT BLOBHASH PUSH32 0x9722A3DAAFE3B4186F6B6457E09EC85E292A34C98A43E8FFE45DE1C625BDFE7E DUP15 0xFC 0x23 DELEGATECALL 0xA9 0xDA SLT DUP10 GAS PUSH17 0xB358157C7917C3334372C8A1AB0009B431 0x4B PUSH0 0xA7 0x22 0xB2 0xAE DUP12 0xB2 PUSH1 0x3B PUSH18 0x95279AEB45A37AF94991DCBEA6E8AC439CBC SWAP4 0xBD SWAP13 PUSH3 0xA4D39F DIV 0xE0 0xAD PUSH6 0x6DF9A703F135 MSTORE 0xC2 PUSH25 0x7F09FB0A9F79F07CF16C95B92623175F408D609663D7868AE6 0x25 DUP2 NUMBER SWAP14 SWAP3 CALLVALUE PUSH17 0xBDCFDB31FA548AA2C58DCF9C124E888CFD PUSH11 0xFEFE9FE228A5CC829205AB PUSH10 0xB69E0C4C7380F1D23A71 0xF7 0x4F LOG1 ADDRESS EXTCODEHASH 0x23 0xB7 LT ADDMOD 0x26 0xE4 0xA8 SWAP11 0x4E SELFBALANCE 0xB2 SWAP9 MCOPY TLOAD PUSH17 0x8E47A19B3AF3A670CD3AF7D64B48892688 ADDMOD DUP10 0xD0 DUP11 DUP6 DUP6 LOG1 CODESIZE SELFDESTRUCT GASLIMIT MSTORE 0x27 0xAF PUSH8 0x37339A1EC262683C SSTORE 0xAE 0xD4 0xEA 0xD4 PUSH21 0x6321E8659FB2C565DD8E202A7A594F73A71E3F5760 PUSH31 0x1BD0A26469706673582212200FD2D39F95CA4EA50F8844653CD0FADDFEA7A3 MULMOD EQ TLOAD PUSH5 0x809AA28F76 PUSH8 0x770A0564736F6C63 NUMBER STOP ADDMOD XOR STOP CALLER "},"methodIdentifiers":{"ASSET_DECIMALS()":"f4db8984","BPS()":"249d39e9","DEFAULT_WEALTH_PRODUCT_ID()":"7cea070a","HOME_PAPER()":"1de3083d","HOME_QUIZ()":"8f631d54","HOME_RISK()":"eeaa8177","HOME_WALLET()":"cad47192","HOME_WELCOME()":"dcb2125b","MAX_SCORE_SUBMISSIONS_PER_DAY()":"c4ebe024","PAPER_BASE_CHECK()":"b363935c","PAPER_LEADERBOARD()":"6ea17abd","PAPER_PERP_LEVERAGE()":"325116ee","PAPER_PROTECTIVE_HEDGE()":"f766dee4","PAPER_SPOT_LOOP()":"57997aa2","WEALTH_DUAL_PROFIT()":"c056e1e3","WEALTH_PLEDGE()":"f64bfa59","WEALTH_PROFITABLE_TRADE()":"ceb0f6d8","approvedUnderlyingHash(bytes32)":"4973fd9a","assetSymbol()":"176de7a8","balanceOf(address,uint256)":"00fdd58e","balanceOfBatch(address[],uint256[])":"4e1273f4","canAccessAdvancedShelf(address)":"99b49e25","claim(uint256)":"379607f5","claimBatch(uint256[])":"62abebce","eligibleInvestor(address)":"4d7c10a7","hasMinted(address)":"38e21cce","hasMintedBadge(address,uint8)":"01b4597d","hasMintedTask(address,uint8)":"6b3ce2f1","hasSubmittedScore(address)":"f9569673","hasWealthTask(address,uint8)":"aec45d80","isApprovedForAll(address,address)":"e985e9c5","lastAttestedAt()":"4adb4cc8","latestAttestationRoot()":"2e6f6b1f","markWealthPledgeWithEvidence(uint16,uint256,string,bytes32)":"bce48991","markWealthTask(uint8)":"1a2e9996","markWealthTaskWithEvidence(uint8,int256,bytes32)":"513f8401","metadataRenderer()":"70319970","minSubscription()":"41be5f64","mintBadge(uint8,address)":"7206abbd","mintPaperLeaderboardCredential(string,string,int256,uint256,uint256)":"e5a89945","mintWelcomeBadge(address)":"52163337","navBps()":"218900b4","nextHomeTokenId()":"8385f14a","nextPaperLeaderboardCredentialTokenId()":"d5c21baa","nextWealthPledgeCredentialTokenId()":"27e80368","nextWealthReceiptCredentialTokenId()":"ed2ff225","owner()":"8da5cb5b","paperLeaderboardCredentialMintsByDay(address,uint256)":"2a0ee085","paperLeaderboardCredentialOf(uint256)":"c5e20f80","previewAssets(uint256)":"d28c390a","previewShares(uint256)":"02cea26b","productReceiptDetail(uint16)":"0765b4b4","productReceiptLabel(uint16)":"b7d120d0","productReceiptMaturity(uint16)":"889d1002","productReceiptType(uint16)":"5acc9009","receiptTokenId(uint16)":"2baa7521","recordUnderlyingReview(bytes32,bool,string)":"179649ad","redeem(uint256)":"db006a75","redeemProduct(uint16,uint256)":"d92fa2c6","renounceOwnership()":"715018a6","replayScoreOf(address)":"c8a3c3b5","riskTier(address)":"b84d93d4","safeBatchTransferFrom(address,address,uint256[],uint256[],bytes)":"2eb2c2d6","safeTransferFrom(address,address,uint256,uint256,bytes)":"f242432a","scoreAccountAt(uint256)":"d4b0521b","scoreAccountCount()":"2f85874a","setApprovalForAll(address,bool)":"a22cb465","setBaseUri(string)":"a0bcfc7f","setInvestorEligibility(address,bool,uint8)":"b5884e20","setMetadataRenderer(address)":"fd4fe8a8","setMinSubscription(uint256)":"f68e55c3","setNavBps(uint256)":"9a2aaca1","setProductReceiptDetail(uint16,string)":"663c39d2","setProductReceiptLabel(uint16,string)":"eda7c56e","setProductReceiptMetadata(uint16,string,string)":"1b6c218e","setStrategyStatus(string)":"55cc0261","setSubscriptionsPaused(bool)":"009b27af","settleProduct(uint16,uint16,uint256,uint256)":"8909e506","strategyStatus()":"176f1cdd","submitScore(int256,uint256,uint256)":"6961fd46","subscribe(uint256)":"0f574ba7","subscribeProduct(uint16,uint256)":"619a1d29","subscribeProductWithMetadata(uint16,uint256,string)":"c1d150e4","subscriptionsPaused()":"cf22928d","supportsInterface(bytes4)":"01ffc9a7","tokenBadgeType(uint256)":"8530a3bf","transferOwnership(address)":"f2fde38b","updateAttestation(bytes32)":"8d00bbe5","uri(uint256)":"0e89341c","vaultLabel()":"2fb4e0f9","wealthPledgeCredentialOf(uint256)":"32ddc524","wealthReceiptCredentialOf(uint256)":"cc272b11","wealthReceiptProofOf(address,uint16)":"5ad32a3c","wealthReceiptShares(address,uint16)":"74b3322c","wealthTaskCompleted(address,uint8)":"cb33bcdb","wealthTaskEvidenceHash(address,uint8)":"27dac9e2","wealthTaskRealizedPnl(address,uint8)":"93b9e5ae"}}}}}