{
  "_format": "hh3-artifact-1",
  "contractName": "MSXReplayAchievementBadge",
  "sourceName": "contracts/MSXReplayAchievementBadge.sol",
  "abi": [
    {
      "inputs": [
        {
          "internalType": "string",
          "name": "baseUri",
          "type": "string"
        }
      ],
      "stateMutability": "nonpayable",
      "type": "constructor"
    },
    {
      "anonymous": false,
      "inputs": [
        {
          "indexed": true,
          "internalType": "address",
          "name": "account",
          "type": "address"
        },
        {
          "indexed": true,
          "internalType": "uint256",
          "name": "achievementId",
          "type": "uint256"
        }
      ],
      "name": "AchievementClaimed",
      "type": "event"
    },
    {
      "anonymous": false,
      "inputs": [
        {
          "indexed": true,
          "internalType": "uint256",
          "name": "achievementId",
          "type": "uint256"
        },
        {
          "indexed": false,
          "internalType": "string",
          "name": "label",
          "type": "string"
        }
      ],
      "name": "AchievementLabelUpdated",
      "type": "event"
    },
    {
      "anonymous": false,
      "inputs": [
        {
          "indexed": true,
          "internalType": "address",
          "name": "account",
          "type": "address"
        },
        {
          "indexed": true,
          "internalType": "address",
          "name": "operator",
          "type": "address"
        },
        {
          "indexed": false,
          "internalType": "bool",
          "name": "approved",
          "type": "bool"
        }
      ],
      "name": "ApprovalForAll",
      "type": "event"
    },
    {
      "anonymous": false,
      "inputs": [
        {
          "indexed": true,
          "internalType": "address",
          "name": "account",
          "type": "address"
        },
        {
          "indexed": true,
          "internalType": "uint256",
          "name": "achievementId",
          "type": "uint256"
        },
        {
          "indexed": false,
          "internalType": "bool",
          "name": "approved",
          "type": "bool"
        }
      ],
      "name": "ClaimApprovalUpdated",
      "type": "event"
    },
    {
      "anonymous": false,
      "inputs": [
        {
          "indexed": true,
          "internalType": "address",
          "name": "previousOwner",
          "type": "address"
        },
        {
          "indexed": true,
          "internalType": "address",
          "name": "newOwner",
          "type": "address"
        }
      ],
      "name": "OwnershipTransferred",
      "type": "event"
    },
    {
      "anonymous": false,
      "inputs": [
        {
          "indexed": true,
          "internalType": "address",
          "name": "account",
          "type": "address"
        },
        {
          "indexed": false,
          "internalType": "int256",
          "name": "netPnl",
          "type": "int256"
        },
        {
          "indexed": false,
          "internalType": "uint256",
          "name": "accountValue",
          "type": "uint256"
        },
        {
          "indexed": false,
          "internalType": "uint256",
          "name": "tradeCount",
          "type": "uint256"
        },
        {
          "indexed": false,
          "internalType": "uint256",
          "name": "submittedAt",
          "type": "uint256"
        }
      ],
      "name": "ReplayScoreSubmitted",
      "type": "event"
    },
    {
      "anonymous": false,
      "inputs": [
        {
          "indexed": true,
          "internalType": "address",
          "name": "operator",
          "type": "address"
        },
        {
          "indexed": true,
          "internalType": "address",
          "name": "from",
          "type": "address"
        },
        {
          "indexed": true,
          "internalType": "address",
          "name": "to",
          "type": "address"
        },
        {
          "indexed": false,
          "internalType": "uint256[]",
          "name": "ids",
          "type": "uint256[]"
        },
        {
          "indexed": false,
          "internalType": "uint256[]",
          "name": "values",
          "type": "uint256[]"
        }
      ],
      "name": "TransferBatch",
      "type": "event"
    },
    {
      "anonymous": false,
      "inputs": [
        {
          "indexed": true,
          "internalType": "address",
          "name": "operator",
          "type": "address"
        },
        {
          "indexed": true,
          "internalType": "address",
          "name": "from",
          "type": "address"
        },
        {
          "indexed": true,
          "internalType": "address",
          "name": "to",
          "type": "address"
        },
        {
          "indexed": false,
          "internalType": "uint256",
          "name": "id",
          "type": "uint256"
        },
        {
          "indexed": false,
          "internalType": "uint256",
          "name": "value",
          "type": "uint256"
        }
      ],
      "name": "TransferSingle",
      "type": "event"
    },
    {
      "anonymous": false,
      "inputs": [
        {
          "indexed": false,
          "internalType": "string",
          "name": "value",
          "type": "string"
        },
        {
          "indexed": true,
          "internalType": "uint256",
          "name": "id",
          "type": "uint256"
        }
      ],
      "name": "URI",
      "type": "event"
    },
    {
      "inputs": [],
      "name": "BASE_CHECK",
      "outputs": [
        {
          "internalType": "uint256",
          "name": "",
          "type": "uint256"
        }
      ],
      "stateMutability": "view",
      "type": "function"
    },
    {
      "inputs": [],
      "name": "LEADERBOARD",
      "outputs": [
        {
          "internalType": "uint256",
          "name": "",
          "type": "uint256"
        }
      ],
      "stateMutability": "view",
      "type": "function"
    },
    {
      "inputs": [],
      "name": "MAX_SCORE_SUBMISSIONS_PER_DAY",
      "outputs": [
        {
          "internalType": "uint256",
          "name": "",
          "type": "uint256"
        }
      ],
      "stateMutability": "view",
      "type": "function"
    },
    {
      "inputs": [],
      "name": "PERP_LEVERAGE",
      "outputs": [
        {
          "internalType": "uint256",
          "name": "",
          "type": "uint256"
        }
      ],
      "stateMutability": "view",
      "type": "function"
    },
    {
      "inputs": [],
      "name": "PROTECTIVE_HEDGE",
      "outputs": [
        {
          "internalType": "uint256",
          "name": "",
          "type": "uint256"
        }
      ],
      "stateMutability": "view",
      "type": "function"
    },
    {
      "inputs": [],
      "name": "SPOT_LOOP",
      "outputs": [
        {
          "internalType": "uint256",
          "name": "",
          "type": "uint256"
        }
      ],
      "stateMutability": "view",
      "type": "function"
    },
    {
      "inputs": [
        {
          "internalType": "uint256",
          "name": "",
          "type": "uint256"
        }
      ],
      "name": "achievementLabel",
      "outputs": [
        {
          "internalType": "string",
          "name": "",
          "type": "string"
        }
      ],
      "stateMutability": "view",
      "type": "function"
    },
    {
      "inputs": [
        {
          "internalType": "address",
          "name": "account",
          "type": "address"
        },
        {
          "internalType": "uint256[]",
          "name": "achievementIds",
          "type": "uint256[]"
        },
        {
          "internalType": "bool",
          "name": "approved",
          "type": "bool"
        }
      ],
      "name": "approveBatchClaims",
      "outputs": [],
      "stateMutability": "nonpayable",
      "type": "function"
    },
    {
      "inputs": [
        {
          "internalType": "address",
          "name": "account",
          "type": "address"
        },
        {
          "internalType": "uint256",
          "name": "achievementId",
          "type": "uint256"
        },
        {
          "internalType": "bool",
          "name": "approved",
          "type": "bool"
        }
      ],
      "name": "approveClaim",
      "outputs": [],
      "stateMutability": "nonpayable",
      "type": "function"
    },
    {
      "inputs": [
        {
          "internalType": "address",
          "name": "account",
          "type": "address"
        },
        {
          "internalType": "uint256",
          "name": "id",
          "type": "uint256"
        }
      ],
      "name": "balanceOf",
      "outputs": [
        {
          "internalType": "uint256",
          "name": "",
          "type": "uint256"
        }
      ],
      "stateMutability": "view",
      "type": "function"
    },
    {
      "inputs": [
        {
          "internalType": "address[]",
          "name": "accounts",
          "type": "address[]"
        },
        {
          "internalType": "uint256[]",
          "name": "ids",
          "type": "uint256[]"
        }
      ],
      "name": "balanceOfBatch",
      "outputs": [
        {
          "internalType": "uint256[]",
          "name": "",
          "type": "uint256[]"
        }
      ],
      "stateMutability": "view",
      "type": "function"
    },
    {
      "inputs": [
        {
          "internalType": "uint256",
          "name": "achievementId",
          "type": "uint256"
        }
      ],
      "name": "claim",
      "outputs": [],
      "stateMutability": "nonpayable",
      "type": "function"
    },
    {
      "inputs": [
        {
          "internalType": "address",
          "name": "",
          "type": "address"
        },
        {
          "internalType": "uint256",
          "name": "",
          "type": "uint256"
        }
      ],
      "name": "claimApproved",
      "outputs": [
        {
          "internalType": "bool",
          "name": "",
          "type": "bool"
        }
      ],
      "stateMutability": "view",
      "type": "function"
    },
    {
      "inputs": [
        {
          "internalType": "uint256[]",
          "name": "achievementIds",
          "type": "uint256[]"
        }
      ],
      "name": "claimBatch",
      "outputs": [],
      "stateMutability": "nonpayable",
      "type": "function"
    },
    {
      "inputs": [
        {
          "internalType": "address",
          "name": "",
          "type": "address"
        }
      ],
      "name": "hasSubmittedScore",
      "outputs": [
        {
          "internalType": "bool",
          "name": "",
          "type": "bool"
        }
      ],
      "stateMutability": "view",
      "type": "function"
    },
    {
      "inputs": [
        {
          "internalType": "address",
          "name": "account",
          "type": "address"
        },
        {
          "internalType": "address",
          "name": "operator",
          "type": "address"
        }
      ],
      "name": "isApprovedForAll",
      "outputs": [
        {
          "internalType": "bool",
          "name": "",
          "type": "bool"
        }
      ],
      "stateMutability": "view",
      "type": "function"
    },
    {
      "inputs": [],
      "name": "owner",
      "outputs": [
        {
          "internalType": "address",
          "name": "",
          "type": "address"
        }
      ],
      "stateMutability": "view",
      "type": "function"
    },
    {
      "inputs": [],
      "name": "renounceOwnership",
      "outputs": [],
      "stateMutability": "nonpayable",
      "type": "function"
    },
    {
      "inputs": [
        {
          "internalType": "address",
          "name": "",
          "type": "address"
        }
      ],
      "name": "replayScoreOf",
      "outputs": [
        {
          "internalType": "int256",
          "name": "bestNetPnl",
          "type": "int256"
        },
        {
          "internalType": "uint256",
          "name": "bestAccountValue",
          "type": "uint256"
        },
        {
          "internalType": "uint256",
          "name": "bestTradeCount",
          "type": "uint256"
        },
        {
          "internalType": "uint256",
          "name": "lastSubmittedAt",
          "type": "uint256"
        },
        {
          "internalType": "uint256",
          "name": "submissionCount",
          "type": "uint256"
        },
        {
          "internalType": "uint256",
          "name": "submissionDay",
          "type": "uint256"
        },
        {
          "internalType": "uint256",
          "name": "submissionsToday",
          "type": "uint256"
        }
      ],
      "stateMutability": "view",
      "type": "function"
    },
    {
      "inputs": [
        {
          "internalType": "address",
          "name": "from",
          "type": "address"
        },
        {
          "internalType": "address",
          "name": "to",
          "type": "address"
        },
        {
          "internalType": "uint256[]",
          "name": "ids",
          "type": "uint256[]"
        },
        {
          "internalType": "uint256[]",
          "name": "amounts",
          "type": "uint256[]"
        },
        {
          "internalType": "bytes",
          "name": "data",
          "type": "bytes"
        }
      ],
      "name": "safeBatchTransferFrom",
      "outputs": [],
      "stateMutability": "nonpayable",
      "type": "function"
    },
    {
      "inputs": [
        {
          "internalType": "address",
          "name": "from",
          "type": "address"
        },
        {
          "internalType": "address",
          "name": "to",
          "type": "address"
        },
        {
          "internalType": "uint256",
          "name": "id",
          "type": "uint256"
        },
        {
          "internalType": "uint256",
          "name": "amount",
          "type": "uint256"
        },
        {
          "internalType": "bytes",
          "name": "data",
          "type": "bytes"
        }
      ],
      "name": "safeTransferFrom",
      "outputs": [],
      "stateMutability": "nonpayable",
      "type": "function"
    },
    {
      "inputs": [
        {
          "internalType": "uint256",
          "name": "index",
          "type": "uint256"
        }
      ],
      "name": "scoreAccountAt",
      "outputs": [
        {
          "internalType": "address",
          "name": "",
          "type": "address"
        }
      ],
      "stateMutability": "view",
      "type": "function"
    },
    {
      "inputs": [],
      "name": "scoreAccountCount",
      "outputs": [
        {
          "internalType": "uint256",
          "name": "",
          "type": "uint256"
        }
      ],
      "stateMutability": "view",
      "type": "function"
    },
    {
      "inputs": [
        {
          "internalType": "uint256",
          "name": "achievementId",
          "type": "uint256"
        },
        {
          "internalType": "string",
          "name": "label",
          "type": "string"
        }
      ],
      "name": "setAchievementLabel",
      "outputs": [],
      "stateMutability": "nonpayable",
      "type": "function"
    },
    {
      "inputs": [
        {
          "internalType": "address",
          "name": "operator",
          "type": "address"
        },
        {
          "internalType": "bool",
          "name": "approved",
          "type": "bool"
        }
      ],
      "name": "setApprovalForAll",
      "outputs": [],
      "stateMutability": "nonpayable",
      "type": "function"
    },
    {
      "inputs": [
        {
          "internalType": "string",
          "name": "nextUri",
          "type": "string"
        }
      ],
      "name": "setBaseUri",
      "outputs": [],
      "stateMutability": "nonpayable",
      "type": "function"
    },
    {
      "inputs": [
        {
          "internalType": "int256",
          "name": "netPnl",
          "type": "int256"
        },
        {
          "internalType": "uint256",
          "name": "accountValue",
          "type": "uint256"
        },
        {
          "internalType": "uint256",
          "name": "tradeCount",
          "type": "uint256"
        }
      ],
      "name": "submitScore",
      "outputs": [],
      "stateMutability": "nonpayable",
      "type": "function"
    },
    {
      "inputs": [
        {
          "internalType": "bytes4",
          "name": "interfaceId",
          "type": "bytes4"
        }
      ],
      "name": "supportsInterface",
      "outputs": [
        {
          "internalType": "bool",
          "name": "",
          "type": "bool"
        }
      ],
      "stateMutability": "view",
      "type": "function"
    },
    {
      "inputs": [
        {
          "internalType": "address",
          "name": "newOwner",
          "type": "address"
        }
      ],
      "name": "transferOwnership",
      "outputs": [],
      "stateMutability": "nonpayable",
      "type": "function"
    },
    {
      "inputs": [
        {
          "internalType": "uint256",
          "name": "",
          "type": "uint256"
        }
      ],
      "name": "uri",
      "outputs": [
        {
          "internalType": "string",
          "name": "",
          "type": "string"
        }
      ],
      "stateMutability": "view",
      "type": "function"
    }
  ],
  "bytecode": "0x604060808152346200030157620024f190813803806200001f8162000305565b9384398201916020908181850312620003015780516001600160401b039182821162000301570190601f9480868401121562000301578251828111620002d857601f1993620000748289018616870162000305565b92828452868383010111620003015785905f5b838110620002ec5750505f91830101528051918211620002d857600292620000b084546200032b565b8781116200029d575b50849683116001146200023b57509481929394955f926200022f575b50508160011b915f199060031b1c19161781555b60038054336001600160a01b0319821681179092556001600160a01b03167f8be0079c531659141344cd1fd0a4f28419497f9722a3daafe3b4186f6b6457e05f80a360015f52600590818352835f206200014f6200014882546200032b565b826200037e565b6014694261736520436865636b60b01b0190555f52808252825f206200017a6200014882546200032b565b60166a13195859195c989bd85c9960aa1b01905560035f52808252825f20620001a86200014882546200032b565b601268053706f74204c6f6f760bc1b01905560045f52808252825f20620001d46200014882546200032b565b601a6c50657270204c6576657261676560981b019055805f528152815f20906200020a6200020383546200032b565b836200037e565b6f50726f7465637469766520486564676560801b019055516121479081620003aa8239f35b015190505f80620000d5565b821695835f52845f20915f5b88811062000285575083600195969798106200026c575b505050811b018155620000e9565b01515f1960f88460031b161c191690555f80806200025e565b91928660018192868501518155019401920162000247565b620002c790855f52865f208980870160051c820192898810620002ce575b0160051c019062000366565b5f620000b9565b92508192620002bb565b634e487b7160e01b5f52604160045260245ffd5b81810183015185820184015287920162000087565b5f80fd5b6040519190601f01601f191682016001600160401b03811183821017620002d857604052565b90600182811c921680156200035b575b60208310146200034757565b634e487b7160e01b5f52602260045260245ffd5b91607f16916200033b565b81811062000372575050565b5f815560010162000366565b90601f81116200038c575050565b620003a7915f52601f60205f20910160051c81019062000366565b56fe604060808152600480361015610013575f80fd5b5f3560e01c908162fdd58e1461186757816301ffc9a7146117fb5781630e89341c1461172a578163106749331461157357816316d26e6d1461149b5781631d4c1868146114805781632eb2c2d6146111e65781632f85874a146111c8578163379607f51461100a5781634e1273f414610e9a5781634ef64c0514610dcb5781635af02de714610db057816362abebce14610bbc578163681d0d6114610b795781636961fd46146109bd578163715018a6146109625781637865cd0f1461069f5781638da5cb5b1461093a578163a0bcfc7f146107a3578163a22cb465146106bf578163ac4d7298146106a4578163c4ebe0241461069f578163c8a3c3b514610629578163d4b0521b146105ae578163df54d23e14610593578163e985e9c514610545578163ed539364146104be578163f242432a14610270578163f2fde38b146101a5575063f956967314610166575f80fd5b346101a15760203660031901126101a1576020906001600160a01b0361018a611896565b165f526007825260ff815f20541690519015158152f35b5f80fd5b9050346101a15760203660031901126101a1576101c0611896565b906101c9611d70565b6001600160a01b0391821692831561021e575050600354826bffffffffffffffffffffffff60a01b821617600355167f8be0079c531659141344cd1fd0a4f28419497f9722a3daafe3b4186f6b6457e05f80a3005b906020608492519162461bcd60e51b8352820152602660248201527f4f776e61626c653a206e6577206f776e657220697320746865207a65726f206160448201526564647265737360d01b6064820152fd5b9050346101a15760a03660031901126101a15761028b611896565b916102946118ac565b9260443590606435906084356001600160401b0381116101a1576102bb9036908701611a98565b916001600160a01b0391821691338314801561049b575b6102db90611bc0565b87166102e8811515611e25565b6102f1856120ec565b506102fb826120ec565b50845f526020975f8952865f20845f52895282875f205461031e82821015611e7f565b875f525f8b52885f20865f528b5203875f2055855f525f8952865f20825f528952865f2061034d848254611d4f565b905581848851888152858c8201527fc3d58168c5ae7397731d063d5bbf3d657854427343f4c083240f7aacaa2d0f628a3392a43b61038757005b86945f89946103c989519788968795869463f23a6e6160e01b9c8d8752339087015260248601526044850152606484015260a0608484015260a48301906118c2565b03925af15f918161046c575b5061043d5750506103e461200f565b6308c379a01461040c575b5162461bcd60e51b815291508190610408908201612097565b0390fd5b61041461202a565b8061041f57506103ef565b610408915193849362461bcd60e51b855284015260248301906118c2565b9193506001600160e01b03199091160361045357005b905162461bcd60e51b8152908190610408908201611fc6565b61048d919250863d8811610494575b61048581836119af565b810190611fa6565b905f6103d5565b503d61047b565b50825f526001602052855f20335f526020526102db60ff875f20541690506102d2565b9050346101a15760603660031901126101a1577f9a91707d0ffd2febd948eb104af3b951795e9395cc97d50ab19776a94f0136dd60206104fc611896565b60243594610508611b16565b91610511611d70565b6001600160a01b03165f818152958452818620878752845294819020805460ff191660ff84151516179055519015158152a3005b82346101a157806003193601126101a157602090610561611896565b6105696118ac565b9060018060a01b038091165f5260018452825f2091165f52825260ff815f20541690519015158152f35b82346101a1575f3660031901126101a1576020905160018152f35b9050346101a15760203660031901126101a1578035906008548210156105f0576020836105da84611d1a565b905491519160018060a01b039160031b1c168152f35b606490602084519162461bcd60e51b83528201526013602482015272496e646578206f7574206f6620626f756e647360681b6044820152fd5b82346101a15760203660031901126101a15760e0916001600160a01b0361064e611896565b165f526006602052815f208054926001820154926002830154600384015491840154926006600586015495015495815197885260208801528601526060850152608084015260a083015260c0820152f35b611b25565b82346101a1575f3660031901126101a1576020905160058152f35b82346101a157806003193601126101a1576106d8611896565b90602435801515928382036101a1576001600160a01b03169333851461074e575061072290335f526001602052825f20855f52602052825f209060ff801983541691151516179055565b519081527f17307eab39ab6107e8899845ad3d59bd9653f200f220920489ca2b5937696c3160203392a3005b608490602084519162461bcd60e51b8352820152602960248201527f455243313135353a2073657474696e6720617070726f76616c20737461747573604482015268103337b91039b2b63360b91b6064820152fd5b346101a1576020806003193601126101a1576001600160401b039082358281116101a1576107d76107e69136908601611900565b6107df611d70565b3691611a53565b92835192831161092757506107fc60025461192d565b601f81116108c4575b50602090601f831160011461084657508190610836935f9261083b575b50508160011b915f199060031b1c19161790565b600255005b015190508380610822565b90601f1983169360025f527f405787fa12a823e0f2b7631cc41b3ba8828b3321ca811111fa75cd3aa3bb5ace925f905b8682106108ac5750508360019510610894575b505050811b01600255005b01515f1960f88460031b161c19169055828080610889565b80600185968294968601518155019501930190610876565b60025f527f405787fa12a823e0f2b7631cc41b3ba8828b3321ca811111fa75cd3aa3bb5ace601f840160051c8101916020851061091d575b601f0160051c01905b8181106109125750610805565b5f8155600101610905565b90915081906108fc565b604190634e487b7160e01b5f525260245ffd5b82346101a1575f3660031901126101a15760035490516001600160a01b039091168152602090f35b346101a1575f3660031901126101a15761097a611d70565b600380546001600160a01b031981169091555f906001600160a01b03167f8be0079c531659141344cd1fd0a4f28419497f9722a3daafe3b4186f6b6457e08280a3005b9050346101a15760603660031901126101a15780359160243560443592335f526006602052825f20906201518042046007602052845f20805460ff811615610b16575b50506005830181815403610b08575b505060068201908154926003841015610ac557808291548913610ab1575b4260038201550180549060018201809211610a9e575560018301809311610a8b575055815193845260208401528201524260608201527ff6d69723c1e13a6e751ff8839d394f04ffffc588fdd13a7cfd1fdfc1bf87ebe160803392a2005b601190634e487b7160e01b5f525260245ffd5b601183634e487b7160e01b5f525260245ffd5b888155856001820155876002820155610a2d565b855162461bcd60e51b8152602081840152601960248201527f4461696c792073636f7265206c696d69742072656163686564000000000000006044820152606490fd5b555f60068301555f80610a0f565b60ff1916600117905560085468010000000000000000811015610b6657806001610b439201600855611d1a565b81546001600160a01b0360039290921b91821b19163390911b1790555f80610a00565b604183634e487b7160e01b5f525260245ffd5b82346101a157806003193601126101a1576020916001600160a01b03610b9d611896565b165f528252805f206024355f52825260ff815f20541690519015158152f35b82346101a1576020916003199183833601126101a15781356001600160401b0381116101a157610bef9036908401611ae6565b905f5b828110610d785750610c0382611ca3565b915f5b818110610d63575090610c1a9136916119e7565b928251610c2681611965565b5f8152610c34331515611f50565b610c418551845114611dc8565b5f5b8551811015610c885780610c5960019286611cf6565b51610c648289611cf6565b515f525f8a52865f20335f528a52610c80875f20918254611d4f565b905501610c43565b50909391869584515f33917f4a39dc06d4c0dbc64b70af90fd698a233a518aa5d07e595d983b8c0526c8f7fb339180610cc2888b83611ede565b0390a4333b610ccd57005b8691610d28610d199287519586948594610d0963bc197c8160e01b9a8b88528d33908901525f602489015260a0604489015260a4880190611ab3565b9084878303016064880152611ab3565b918483030160848501526118c2565b03815f335af15f9181610d44575061043d5750506103e461200f565b610d5c919250863d88116104945761048581836119af565b90866103d5565b806001610d71819387611cf6565b5201610c06565b80610daa610da4610d8c6001948787611d0a565b35610d9e610d9982611f03565b611c23565b33611b40565b15611c65565b01610bf2565b9050346101a1575f3660031901126101a15760209151908152f35b9050346101a15760603660031901126101a157610de6611896565b906024356001600160401b0381116101a15790610e07849236908301611ae6565b610e12949194611b16565b92610e1b611d70565b6001600160a01b03909216918315155f5b838110610e3557005b80610e43600192868b611d0a565b35865f52867f9a91707d0ffd2febd948eb104af3b951795e9395cc97d50ab19776a94f0136dd60208781528b5f20845f528152610e8e8b8d5f209060ff801983541691151516179055565b8b51878152a301610e2c565b82346101a157806003193601126101a1576001600160401b039180358381116101a157366023820112156101a1578082013593610ed6856119d0565b91610ee3855193846119af565b85835260209560248785019160051b830101913683116101a157602401905b828210610feb575050506024359081116101a157610f239036908401611a35565b918151835103610f965750610f388151611ca3565b935f5b8251811015610f8057600190610f6f6001600160a01b03610f5c8387611cf6565b5116610f688388611cf6565b5190611b40565b610f798289611cf6565b5201610f3b565b845182815280610f9281850189611ab3565b0390f35b835162461bcd60e51b8152908101859052602960248201527f455243313135353a206163636f756e747320616e6420696473206c656e677468604482015268040dad2e6dac2e8c6d60bb1b6064820152608490fd5b81356001600160a01b03811681036101a1578152908701908701610f02565b9050346101a157602090816003193601126101a15780359261102e610d9985611f03565b61103b610da48533611b40565b805161104681611965565b5f8152611054331515611f50565b61105d856120ec565b50600161107c835161106e81611994565b828152863681830137611cd5565b52845f525f8452815f20335f528452815f20805490600182018092116111b5575581518581526001858201525f33917fc3d58168c5ae7397731d063d5bbf3d657854427343f4c083240f7aacaa2d0f62853392a4333b6110ff575b84337f04844d30b922ffc2b845400eb2a15cdd62742176c723e09d7cc9703e83645e4b5f80a3005b81929394915185818061114063f23a6e6160e01b95868352338a8401525f60248401528760448401526001606484015260a0608484015260a48301906118c2565b03815f335af15f9181611196575b5061115e575050506103e461200f565b9194506001600160e01b03199091160361117d5750505f8080806110d7565b5162461bcd60e51b815291508190610408908201611fc6565b6111ae919250873d89116104945761048581836119af565b905f61114e565b601185634e487b7160e01b5f525260245ffd5b82346101a1575f3660031901126101a1576020906008549051908152f35b9050346101a1576003199060a0368301126101a157611203611896565b9161120c6118ac565b926001600160401b03926044358481116101a15761122d9036908301611a35565b906064358581116101a1576112459036908301611a35565b946084359081116101a15761125d9036908301611a98565b936001600160a01b0393841693338514801561145d575b61127d90611bc0565b61128a8451885114611dc8565b871694611298861515611e25565b5f5b845181101561131657806112b060019287611cf6565b516112bb828b611cf6565b5190805f526020905f82528d5f208a5f5282528d83815f20546112e082821015611e7f565b835f525f8552825f208d5f52855203905f20555f525f81528c5f20908a5f525261130e8c5f20918254611d4f565b90550161129a565b509094939592919684878a517f4a39dc06d4c0dbc64b70af90fd698a233a518aa5d07e595d983b8c0526c8f7fb3391806113518a8a83611ede565b0390a43b61135b57005b8751948593849363bc197c8160e01b98898652338b87015260248601526044850160a0905260a4850161138d91611ab3565b828582030160648601526113a091611ab3565b908382030160848401526113b3916118c2565b03815a6020945f91f15f918161143c575b5061142b5750506113d361200f565b6308c379a0146113f7575b905162461bcd60e51b8152908190610408908201612097565b6113ff61202a565b8061140a57506113de565b610408906020935193849362461bcd60e51b855284015260248301906118c2565b6001600160e01b0319160361045357005b61145691925060203d6020116104945761048581836119af565b905f6113c4565b50845f526001602052885f20335f5260205261127d60ff8a5f2054169050611274565b82346101a1575f3660031901126101a1576020905160028152f35b9050346101a157602090816003193601126101a157355f5260058152815f2091805180935f9080546114cc8161192d565b91828552600191876001821691825f1461154c57505060011461150c575b505050610f9292916114fd9103856119af565b519282849384528301906118c2565b8693505f92919252825f20915f925b82841061153457505050820101816114fd610f926114ea565b8054848a01860152889550879490930192810161151b565b60ff19168782015293151560051b860190930193508492506114fd9150610f9290506114ea565b82346101a157806003193601126101a1578135906001600160401b03906024358281116101a1576115a79036908601611900565b926115b0611d70565b845f5260209560058752835f2091851161092757506115cf815461192d565b601f81116116e7575b505f601f851160011461165f577f0f1c7b1b56d5d626af1e77abead63b7d49ace9e5819ee9a93ff02e02d9da3271959692859261162c848080955f91611654575b508160011b915f199060031b1c19161790565b90555b8451958487958652850152848401375f828201840152601f01601f19168101030190a2005b90508401358c611619565b601f19851690825f52875f20915f5b8181106116d05750928693927f0f1c7b1b56d5d626af1e77abead63b7d49ace9e5819ee9a93ff02e02d9da327198999592858095106116b7575b5050600183811b01905561162f565b8301355f19600386901b60f8161c1916905589806116a8565b91928960018192868901358155019401920161166e565b815f52865f20601f860160051c810191888710611720575b601f0160051c01905b81811061171557506115d8565b5f8155600101611708565b90915081906116ff565b82346101a1576020806003193601126101a157815191825f60025461174e8161192d565b90818452600190866001821691825f146117d957505060011461177e575b5050610f9292916114fd9103856119af565b9085925060025f527f405787fa12a823e0f2b7631cc41b3ba8828b3321ca811111fa75cd3aa3bb5ace915f925b8284106117c157505050820101816114fd61176c565b8054848a0186015288955087949093019281016117ab565b60ff19168682015292151560051b850190920192508391506114fd905061176c565b9050346101a15760203660031901126101a1573563ffffffff60e01b81168091036101a157602091636cdb3d1360e11b8214918215611856575b8215611845575b50519015158152f35b6301ffc9a760e01b1491505f61183c565b6303a24d0760e21b81149250611835565b82346101a157806003193601126101a15760209061188f611886611896565b60243590611b40565b9051908152f35b600435906001600160a01b03821682036101a157565b602435906001600160a01b03821682036101a157565b91908251928382525f5b8481106118ec575050825f602080949584010152601f8019910116010190565b6020818301810151848301820152016118cc565b9181601f840112156101a1578235916001600160401b0383116101a157602083818601950101116101a157565b90600182811c9216801561195b575b602083101461194757565b634e487b7160e01b5f52602260045260245ffd5b91607f169161193c565b602081019081106001600160401b0382111761198057604052565b634e487b7160e01b5f52604160045260245ffd5b604081019081106001600160401b0382111761198057604052565b90601f801991011681019081106001600160401b0382111761198057604052565b6001600160401b0381116119805760051b60200190565b92916119f2826119d0565b91611a0060405193846119af565b829481845260208094019160051b81019283116101a157905b828210611a265750505050565b81358152908301908301611a19565b9080601f830112156101a157816020611a50933591016119e7565b90565b9291926001600160401b0382116119805760405191611a7c601f8201601f1916602001846119af565b8294818452818301116101a1578281602093845f960137010152565b9080601f830112156101a157816020611a5093359101611a53565b9081518082526020808093019301915f5b828110611ad2575050505090565b835185529381019392810192600101611ac4565b9181601f840112156101a1578235916001600160401b0383116101a1576020808501948460051b0101116101a157565b6044359081151582036101a157565b346101a1575f3660031901126101a157602060405160038152f35b6001600160a01b0316908115611b68575f525f60205260405f20905f5260205260405f205490565b60405162461bcd60e51b815260206004820152602a60248201527f455243313135353a2061646472657373207a65726f206973206e6f742061207660448201526930b634b21037bbb732b960b11b6064820152608490fd5b15611bc757565b60405162461bcd60e51b815260206004820152602e60248201527f455243313135353a2063616c6c6572206973206e6f7420746f6b656e206f776e60448201526d195c881bdc88185c1c1c9bdd995960921b6064820152608490fd5b15611c2a57565b60405162461bcd60e51b8152602060048201526013602482015272125b9d985b1a59081858da1a595d995b595b9d606a1b6044820152606490fd5b15611c6c57565b60405162461bcd60e51b815260206004820152600f60248201526e105b1c9958591e4818db185a5b5959608a1b6044820152606490fd5b90611cad826119d0565b611cba60405191826119af565b8281528092611ccb601f19916119d0565b0190602036910137565b805115611ce25760200190565b634e487b7160e01b5f52603260045260245ffd5b8051821015611ce25760209160051b010190565b9190811015611ce25760051b0190565b600854811015611ce25760085f527ff3f7a9fe364faab93b216da50a3214154f22a0a2b415b23a84c8169e8b636ee301905f90565b91908201809211611d5c57565b634e487b7160e01b5f52601160045260245ffd5b6003546001600160a01b03163303611d8457565b606460405162461bcd60e51b815260206004820152602060248201527f4f776e61626c653a2063616c6c6572206973206e6f7420746865206f776e65726044820152fd5b15611dcf57565b60405162461bcd60e51b815260206004820152602860248201527f455243313135353a2069647320616e6420616d6f756e7473206c656e677468206044820152670dad2e6dac2e8c6d60c31b6064820152608490fd5b15611e2c57565b60405162461bcd60e51b815260206004820152602560248201527f455243313135353a207472616e7366657220746f20746865207a65726f206164604482015264647265737360d81b6064820152608490fd5b15611e8657565b60405162461bcd60e51b815260206004820152602a60248201527f455243313135353a20696e73756666696369656e742062616c616e636520666f60448201526939103a3930b739b332b960b11b6064820152608490fd5b9091611ef5611a5093604084526040840190611ab3565b916020818403910152611ab3565b60018114908115611f45575b8115611f3a575b8115611f2f575b8115611f27575090565b600591501490565b600481149150611f1d565b600381149150611f16565b600281149150611f0f565b15611f5757565b60405162461bcd60e51b815260206004820152602160248201527f455243313135353a206d696e7420746f20746865207a65726f206164647265736044820152607360f81b6064820152608490fd5b908160209103126101a157516001600160e01b0319811681036101a15790565b60809060208152602860208201527f455243313135353a204552433131353552656365697665722072656a656374656040820152676420746f6b656e7360c01b60608201520190565b5f9060033d1161201b57565b905060045f803e5f5160e01c90565b5f60443d10611a5057604051600319913d83016004833e81516001600160401b03918282113d6024840111176120865781840194855193841161208e573d850101602084870101116120865750611a50929101602001906119af565b949350505050565b50949350505050565b60809060208152603460208201527f455243313135353a207472616e7366657220746f206e6f6e2d455243313135356040820152732932b1b2b4bb32b91034b6b83632b6b2b73a32b960611b60608201520190565b604051906120f982611994565b600182526020368184013761210d82611cd5565b529056fea264697066735822122025a8c3771a28a41e1161a52258d1d2875ba7cde92308fddc0306fa72520ca83364736f6c63430008180033",
  "linkReferences": {},
  "deployedLinkReferences": {},
  "immutableReferences": {},
  "inputSourceName": "project/contracts/MSXReplayAchievementBadge.sol",
  "buildInfoId": "solc-0_8_24-520891575acfae7c70889520cc9e3650daf28cf3"
}