{
  "_format": "hh3-artifact-1",
  "contractName": "MSXQuestBadge",
  "sourceName": "contracts/MSXQuestBadge.sol",
  "abi": [
    {
      "inputs": [],
      "stateMutability": "nonpayable",
      "type": "constructor"
    },
    {
      "anonymous": false,
      "inputs": [
        {
          "indexed": true,
          "internalType": "address",
          "name": "owner",
          "type": "address"
        },
        {
          "indexed": true,
          "internalType": "address",
          "name": "approved",
          "type": "address"
        },
        {
          "indexed": true,
          "internalType": "uint256",
          "name": "tokenId",
          "type": "uint256"
        }
      ],
      "name": "Approval",
      "type": "event"
    },
    {
      "anonymous": false,
      "inputs": [
        {
          "indexed": true,
          "internalType": "address",
          "name": "owner",
          "type": "address"
        },
        {
          "indexed": true,
          "internalType": "address",
          "name": "operator",
          "type": "address"
        },
        {
          "indexed": false,
          "internalType": "bool",
          "name": "approved",
          "type": "bool"
        }
      ],
      "name": "ApprovalForAll",
      "type": "event"
    },
    {
      "anonymous": false,
      "inputs": [
        {
          "indexed": true,
          "internalType": "address",
          "name": "previousOwner",
          "type": "address"
        },
        {
          "indexed": true,
          "internalType": "address",
          "name": "newOwner",
          "type": "address"
        }
      ],
      "name": "OwnershipTransferred",
      "type": "event"
    },
    {
      "anonymous": false,
      "inputs": [
        {
          "indexed": true,
          "internalType": "address",
          "name": "recipient",
          "type": "address"
        },
        {
          "indexed": true,
          "internalType": "uint8",
          "name": "badgeType",
          "type": "uint8"
        },
        {
          "indexed": true,
          "internalType": "uint256",
          "name": "tokenId",
          "type": "uint256"
        }
      ],
      "name": "TaskBadgeMinted",
      "type": "event"
    },
    {
      "anonymous": false,
      "inputs": [
        {
          "indexed": true,
          "internalType": "address",
          "name": "from",
          "type": "address"
        },
        {
          "indexed": true,
          "internalType": "address",
          "name": "to",
          "type": "address"
        },
        {
          "indexed": true,
          "internalType": "uint256",
          "name": "tokenId",
          "type": "uint256"
        }
      ],
      "name": "Transfer",
      "type": "event"
    },
    {
      "inputs": [],
      "name": "BADGE_COUNT",
      "outputs": [
        {
          "internalType": "uint8",
          "name": "",
          "type": "uint8"
        }
      ],
      "stateMutability": "view",
      "type": "function"
    },
    {
      "inputs": [],
      "name": "BADGE_PAPER",
      "outputs": [
        {
          "internalType": "uint8",
          "name": "",
          "type": "uint8"
        }
      ],
      "stateMutability": "view",
      "type": "function"
    },
    {
      "inputs": [],
      "name": "BADGE_QUIZ",
      "outputs": [
        {
          "internalType": "uint8",
          "name": "",
          "type": "uint8"
        }
      ],
      "stateMutability": "view",
      "type": "function"
    },
    {
      "inputs": [],
      "name": "BADGE_RISK",
      "outputs": [
        {
          "internalType": "uint8",
          "name": "",
          "type": "uint8"
        }
      ],
      "stateMutability": "view",
      "type": "function"
    },
    {
      "inputs": [],
      "name": "BADGE_WALLET",
      "outputs": [
        {
          "internalType": "uint8",
          "name": "",
          "type": "uint8"
        }
      ],
      "stateMutability": "view",
      "type": "function"
    },
    {
      "inputs": [],
      "name": "BADGE_WELCOME",
      "outputs": [
        {
          "internalType": "uint8",
          "name": "",
          "type": "uint8"
        }
      ],
      "stateMutability": "view",
      "type": "function"
    },
    {
      "inputs": [
        {
          "internalType": "address",
          "name": "to",
          "type": "address"
        },
        {
          "internalType": "uint256",
          "name": "tokenId",
          "type": "uint256"
        }
      ],
      "name": "approve",
      "outputs": [],
      "stateMutability": "nonpayable",
      "type": "function"
    },
    {
      "inputs": [
        {
          "internalType": "address",
          "name": "owner",
          "type": "address"
        }
      ],
      "name": "balanceOf",
      "outputs": [
        {
          "internalType": "uint256",
          "name": "",
          "type": "uint256"
        }
      ],
      "stateMutability": "view",
      "type": "function"
    },
    {
      "inputs": [
        {
          "internalType": "uint256",
          "name": "tokenId",
          "type": "uint256"
        }
      ],
      "name": "getApproved",
      "outputs": [
        {
          "internalType": "address",
          "name": "",
          "type": "address"
        }
      ],
      "stateMutability": "view",
      "type": "function"
    },
    {
      "inputs": [
        {
          "internalType": "address",
          "name": "holder",
          "type": "address"
        }
      ],
      "name": "hasMinted",
      "outputs": [
        {
          "internalType": "bool",
          "name": "",
          "type": "bool"
        }
      ],
      "stateMutability": "view",
      "type": "function"
    },
    {
      "inputs": [
        {
          "internalType": "address",
          "name": "",
          "type": "address"
        },
        {
          "internalType": "uint8",
          "name": "",
          "type": "uint8"
        }
      ],
      "name": "hasMintedBadge",
      "outputs": [
        {
          "internalType": "bool",
          "name": "",
          "type": "bool"
        }
      ],
      "stateMutability": "view",
      "type": "function"
    },
    {
      "inputs": [
        {
          "internalType": "address",
          "name": "holder",
          "type": "address"
        },
        {
          "internalType": "uint8",
          "name": "badgeType",
          "type": "uint8"
        }
      ],
      "name": "hasMintedTask",
      "outputs": [
        {
          "internalType": "bool",
          "name": "",
          "type": "bool"
        }
      ],
      "stateMutability": "view",
      "type": "function"
    },
    {
      "inputs": [
        {
          "internalType": "address",
          "name": "owner",
          "type": "address"
        },
        {
          "internalType": "address",
          "name": "operator",
          "type": "address"
        }
      ],
      "name": "isApprovedForAll",
      "outputs": [
        {
          "internalType": "bool",
          "name": "",
          "type": "bool"
        }
      ],
      "stateMutability": "view",
      "type": "function"
    },
    {
      "inputs": [
        {
          "internalType": "uint8",
          "name": "badgeType",
          "type": "uint8"
        },
        {
          "internalType": "address",
          "name": "to",
          "type": "address"
        }
      ],
      "name": "mintBadge",
      "outputs": [
        {
          "internalType": "uint256",
          "name": "tokenId",
          "type": "uint256"
        }
      ],
      "stateMutability": "nonpayable",
      "type": "function"
    },
    {
      "inputs": [
        {
          "internalType": "address",
          "name": "to",
          "type": "address"
        }
      ],
      "name": "mintWelcomeBadge",
      "outputs": [
        {
          "internalType": "uint256",
          "name": "tokenId",
          "type": "uint256"
        }
      ],
      "stateMutability": "nonpayable",
      "type": "function"
    },
    {
      "inputs": [],
      "name": "name",
      "outputs": [
        {
          "internalType": "string",
          "name": "",
          "type": "string"
        }
      ],
      "stateMutability": "view",
      "type": "function"
    },
    {
      "inputs": [],
      "name": "nextTokenId",
      "outputs": [
        {
          "internalType": "uint256",
          "name": "",
          "type": "uint256"
        }
      ],
      "stateMutability": "view",
      "type": "function"
    },
    {
      "inputs": [],
      "name": "owner",
      "outputs": [
        {
          "internalType": "address",
          "name": "",
          "type": "address"
        }
      ],
      "stateMutability": "view",
      "type": "function"
    },
    {
      "inputs": [
        {
          "internalType": "uint256",
          "name": "tokenId",
          "type": "uint256"
        }
      ],
      "name": "ownerOf",
      "outputs": [
        {
          "internalType": "address",
          "name": "",
          "type": "address"
        }
      ],
      "stateMutability": "view",
      "type": "function"
    },
    {
      "inputs": [],
      "name": "renounceOwnership",
      "outputs": [],
      "stateMutability": "nonpayable",
      "type": "function"
    },
    {
      "inputs": [
        {
          "internalType": "address",
          "name": "from",
          "type": "address"
        },
        {
          "internalType": "address",
          "name": "to",
          "type": "address"
        },
        {
          "internalType": "uint256",
          "name": "tokenId",
          "type": "uint256"
        }
      ],
      "name": "safeTransferFrom",
      "outputs": [],
      "stateMutability": "nonpayable",
      "type": "function"
    },
    {
      "inputs": [
        {
          "internalType": "address",
          "name": "from",
          "type": "address"
        },
        {
          "internalType": "address",
          "name": "to",
          "type": "address"
        },
        {
          "internalType": "uint256",
          "name": "tokenId",
          "type": "uint256"
        },
        {
          "internalType": "bytes",
          "name": "data",
          "type": "bytes"
        }
      ],
      "name": "safeTransferFrom",
      "outputs": [],
      "stateMutability": "nonpayable",
      "type": "function"
    },
    {
      "inputs": [
        {
          "internalType": "address",
          "name": "operator",
          "type": "address"
        },
        {
          "internalType": "bool",
          "name": "approved",
          "type": "bool"
        }
      ],
      "name": "setApprovalForAll",
      "outputs": [],
      "stateMutability": "nonpayable",
      "type": "function"
    },
    {
      "inputs": [
        {
          "internalType": "bytes4",
          "name": "interfaceId",
          "type": "bytes4"
        }
      ],
      "name": "supportsInterface",
      "outputs": [
        {
          "internalType": "bool",
          "name": "",
          "type": "bool"
        }
      ],
      "stateMutability": "view",
      "type": "function"
    },
    {
      "inputs": [],
      "name": "symbol",
      "outputs": [
        {
          "internalType": "string",
          "name": "",
          "type": "string"
        }
      ],
      "stateMutability": "view",
      "type": "function"
    },
    {
      "inputs": [
        {
          "internalType": "uint256",
          "name": "",
          "type": "uint256"
        }
      ],
      "name": "tokenBadgeType",
      "outputs": [
        {
          "internalType": "uint8",
          "name": "",
          "type": "uint8"
        }
      ],
      "stateMutability": "view",
      "type": "function"
    },
    {
      "inputs": [
        {
          "internalType": "uint256",
          "name": "tokenId",
          "type": "uint256"
        }
      ],
      "name": "tokenURI",
      "outputs": [
        {
          "internalType": "string",
          "name": "",
          "type": "string"
        }
      ],
      "stateMutability": "view",
      "type": "function"
    },
    {
      "inputs": [
        {
          "internalType": "address",
          "name": "from",
          "type": "address"
        },
        {
          "internalType": "address",
          "name": "to",
          "type": "address"
        },
        {
          "internalType": "uint256",
          "name": "tokenId",
          "type": "uint256"
        }
      ],
      "name": "transferFrom",
      "outputs": [],
      "stateMutability": "nonpayable",
      "type": "function"
    },
    {
      "inputs": [
        {
          "internalType": "address",
          "name": "newOwner",
          "type": "address"
        }
      ],
      "name": "transferOwnership",
      "outputs": [],
      "stateMutability": "nonpayable",
      "type": "function"
    }
  ],
  "bytecode": "0x6080346200032e576001600160401b0390604090808201838111828210176200024c578252600f81526020926e4d535820517565737420426164676560881b84830152825193838501858110838211176200024c578452600585526426a9ac28a160d91b818601528251908282116200024c575f54916001948584811c9416801562000323575b838510146200022d578190601f94858111620002d0575b5083908583116001146200026c575f9262000260575b50505f19600383901b1c191690851b175f555b85519283116200024c5783548481811c9116801562000241575b828210146200022d57828111620001e5575b5080918311600114620001805750819293945f9262000174575b50505f19600383901b1c191690821b1781555b60068054336001600160a01b0319821681179092559251926001600160a01b03167f8be0079c531659141344cd1fd0a4f28419497f9722a3daafe3b4186f6b6457e05f80a36007556133229081620003338239f35b015190505f806200010c565b90601f19831695845f52825f20925f905b888210620001cd5750508385969710620001b4575b505050811b0181556200011f565b01515f1960f88460031b161c191690555f8080620001a6565b80878596829496860151815501950193019062000191565b845f52815f208380860160051c82019284871062000223575b0160051c019085905b82811062000217575050620000f2565b5f815501859062000207565b92508192620001fe565b634e487b7160e01b5f52602260045260245ffd5b90607f1690620000e0565b634e487b7160e01b5f52604160045260245ffd5b015190505f80620000b3565b90879350601f198316915f8052855f20925f5b87828210620002b95750508411620002a0575b505050811b015f55620000c6565b01515f1960f88460031b161c191690555f808062000292565b8385015186558b979095019493840193016200027f565b9091505f8052835f208580850160051c82019286861062000319575b918991869594930160051c01915b8281106200030a5750506200009d565b5f8155859450899101620002fa565b92508192620002ec565b93607f169362000086565b5f80fdfe608060409080825260049081361015610016575f80fd5b5f3560e01c90816301b4597d14611f965750806301ffc9a714611f2b57806306fdde0314611e64578063081812fc14611e45578063095ea7b314611cd75780630ce1a02f14611cbd5780631cc6a90614611c1c57806323b872dd14611c9957806338e21cce14611c5457806342842e0e14611c215780634304f9a614611c1c5780635216333714611a6657806359e0c9be14611a4b5780636352211e14611a1b5780636b3ce2f1146119bf57806370a082311461192b578063715018a6146118d05780637206abbd1461168357806375794a3c146116655780638530a3bf1461163a5780638da5cb5b1461161257806395d89b41146115115780639ef94994146114f6578063a22cb4651461142c578063b88d4fde1461137f578063bf68f84814611364578063c87b56dd14610275578063e985e9c5146102275763f2fde38b1461015f575f80fd5b3461022357602036600319011261022357610178611fe4565b906101816124b6565b6001600160a01b039182169283156101d1575050600654826001600160601b0360a01b821617600655167f8be0079c531659141344cd1fd0a4f28419497f9722a3daafe3b4186f6b6457e05f80a3005b906020608492519162461bcd60e51b8352820152602660248201527f4f776e61626c653a206e6577206f776e657220697320746865207a65726f206160448201526564647265737360d01b6064820152fd5b5f80fd5b8234610223578060031936011261022357602090610243611fe4565b61024b611ffa565b9060018060a01b038091165f5260058452825f2091165f52825260ff815f20541690519015158152f35b503461022357602090816003193601126102235780355f81815260028452849020549091906102ae906001600160a01b03161515612216565b815f5260098352835f205460ff166102c581612585565b906102cf8161267d565b9286866102db84612777565b936102e581612d66565b6102ee82612d66565b6102f783612da2565b61030084612dbc565b908561030b86612da2565b9461031587612da2565b61031e88612e06565b9661032889612ee1565b956103328a612fe8565b9561033c8b61303f565b9a6103469061317a565b988d519d8e9d8e017f3c7376672077696474683d223132303022206865696768743d2231323030222090528d017f76696577426f783d2230203020313230302031323030222066696c6c3d226e6f905260608d017f6e652220786d6c6e733d22687474703a2f2f7777772e77332e6f72672f32303090528c661817b9bb33911f60c91b906080015260878d017f3c646566733e3c6c696e6561724772616469656e742069643d22626722207831905260a78d017f3d223634222079313d223430222078323d2231313034222079323d2231313436905260c78d017f22206772616469656e74556e6974733d227573657253706163654f6e55736522905260e78d017f3e3c73746f702073746f702d636f6c6f723d2223324134333145222f3e3c737490526101078d017f6f70206f66667365743d22302e3335222073746f702d636f6c6f723d2223304590526101278d017f31373232222f3e3c73746f70206f66667365743d2231222073746f702d636f6c90526101478d017f6f723d2223313733413346222f3e3c2f6c696e6561724772616469656e743e0090526101668d017f3c72616469616c4772616469656e742069643d22676c6f77222063783d22302290526101868d017f2063793d22302220723d223122206772616469656e74556e6974733d2275736590526101a68d017f7253706163654f6e55736522206772616469656e745472616e73666f726d3d2290526101c68d017f7472616e736c61746528323230203231302920726f746174652834372920736390526101e68d017f616c65283336302033363029223e3c73746f702073746f702d636f6c6f723d2290528c610206968791898251938492019201916105c492612020565b7f222073746f702d6f7061636974793d22302e35222f3e3c73746f70206f666673908e01968701527232ba1e9118911039ba37b816b1b7b637b91e9160691b6102268701528051610239969091610622908390898401908b01612020565b7f222073746f702d6f7061636974793d2230222f3e3c2f72616469616c477261649101958601526434b2b73a1f60d91b6102598601527f3c6c696e6561724772616469656e742069643d2265646765222078313d22393661025e8601527f222079313d223936222078323d2231313034222079323d22313130342220677261027e8601527f616469656e74556e6974733d227573657253706163654f6e557365223e3c737461029e8601526e37b81039ba37b816b1b7b637b91e9160891b6102be86015280516102cd9590916106ff908390888401908a01612020565b7f222073746f702d6f7061636974793d22302e3238222f3e3c73746f70206f66669101948501527339b2ba1e9118911039ba37b816b1b7b637b91e9160611b6102ed850152805161030194909161075d908390878401908901612020565b7f222073746f702d6f7061636974793d22302e3136222f3e3c2f6c696e656172479101938401526e3930b234b2b73a1f1e17b232b3399f60891b6103218401527f3c726563742077696474683d223132303022206865696768743d2231323030226103308401527f2072783d223732222066696c6c3d2223304331333230222f3e3c7265637420786103508401527f3d2235322220793d223532222077696474683d223130393622206865696768746103708401527f3d2231303936222072783d223438222066696c6c3d2275726c282362672922206103908401527f7374726f6b653d2275726c2823656467652922207374726f6b652d77696474686103b0840152651e911911179f60d11b6103d08401527f3c636972636c652063783d22323230222063793d223231302220723d223332306103d68401527411103334b6361e913ab9361411b3b637bb9491179f60591b6103f68401527f3c67206f7061636974793d22302e3122207374726f6b653d222338454130423761040b8401527f223e3c7061746820643d224d31323020305631323030222f3e3c70617468206461042b8401527f3d224d32343020305631323030222f3e3c7061746820643d224d33363020305661044b8401527f31323030222f3e3c7061746820643d224d34383020305631323030222f3e3c7061046b8401527f61746820643d224d36303020305631323030222f3e3c7061746820643d224d3761048b8401527f323020305631323030222f3e3c7061746820643d224d383430203056313230306104ab8401527f222f3e3c7061746820643d224d39363020305631323030222f3e3c70617468206104cb8401527f643d224d3130383020305631323030222f3e3c7061746820643d224d302031326104eb8401527f304831323030222f3e3c7061746820643d224d30203234304831323030222f3e61050b8401527f3c7061746820643d224d30203336304831323030222f3e3c7061746820643d2261052b8401527f4d30203438304831323030222f3e3c7061746820643d224d302036303048313261054b8401527f3030222f3e3c7061746820643d224d30203732304831323030222f3e3c70617461056b8401527f6820643d224d30203834304831323030222f3e3c7061746820643d224d30203961058b8401527f36304831323030222f3e3c7061746820643d224d3020313038304831323030226105ab84015265179f1e17b39f60d11b6105cb8401527f3c636972636c652063783d22313232222063793d223132322220723d223136226105d184015266103334b6361e9160c91b6105f184015280516105f8939091610b39908390868401908801612020565b019182017f222f3e3c7465787420783d223135342220793d22313332222066696c6c3d22009052610617918151918285858401920191610b7892612020565b7f2220666f6e742d73697a653d2232342220666f6e742d7765696768743d2238309101918201527f302220666f6e742d66616d696c793d22417269616c2c2073616e732d73657269610637820152753311103632ba3a32b916b9b830b1b4b7339e9119111f60511b610657820152855161066d969092610bfe9184918985019101612020565b01938d661e17ba32bc3a1f60c91b9586809382015261067481017f3c7465787420783d223131302220793d22343730222066696c6c3d222346344690527f3746422220666f6e742d73697a653d2236382220666f6e742d7765696768743d806106948301527f223930302220666f6e742d66616d696c793d22417269616c2c2073616e732d7390816106b4840152846532b934b3111f60d11b97886106d48601526106da948151918288888401920191610cb792612020565b01938401526106e183017f3c7465787420783d223131302220793d22353438222066696c6c3d22234634469052610701830152610721820152846107418201526107479380518093868401920191610d0e92612020565b019182015261074e81017f3c7465787420783d223131302220793d22363534222066696c6c3d222339464290528c847f3043342220666f6e742d73697a653d2232382220666f6e742d7765696768743d918261076e8501527f223530302220666f6e742d66616d696c793d22417269616c2c2073616e732d73938461078e820152856107ae8201526107b498805180938b8401920191610dad92612020565b01968701526107bb86017f3c7465787420783d223131302220793d22363936222066696c6c3d222339464290526107db8601526107fb85015261081b84015261082192815191828d868401920191610e0492612020565b01918201527f3c7265637420783d223131302220793d22383436222077696474683d223138386108288201527f22206865696768743d223538222072783d223239222066696c6c3d22726762616108488201527f2831302c31382c32382c302e36322922207374726f6b653d22726762612832356108688201527f352c3235352c3235352c302e313229222f3e3c7465787420783d2231343222206108888201527f793d22383833222066696c6c3d22234634463746422220666f6e742d73697a656108a88201527f3d2232322220666f6e742d7765696768743d223730302220666f6e742d66616d6108c88201527f696c793d22417269616c2c2073616e732d7365726966223e5365706f6c6961206108e88201526b28bab2b9ba1e17ba32bc3a1f60a11b610908820152651e17b9bb339f60d11b610914820152036108fa81018252610f569061091a018261213a565b610f5f906129dc565b91868880519384838101967f646174613a696d6167652f7376672b786d6c3b6261736536342c00000000000088528051908186603a8501920191610fa292612020565b810103601a81018652603a01610fb8908661213a565b8889915f9a7a184f03e93ff9f4daa797ed6e38ed64bf6a1f0100000000000000009081811015611355575b50506d04ee2d6d415b85acef810000000080841015611347575b50662386f26fc1000080841015611338575b506305f5e10080841015611329575b506127108084101561131b575b5050606482101561130b575b600a80921015611301575b6001908160216110538d83016129aa565b9c8d0101905b6112cc575b505050509461126394610135946110f561126899956112c89b956110d260296110a59c519c8d809b683d913730b6b2911d1160b91b86830152858151948593019101612020565b890191701116113232b9b1b934b83a34b7b7111d1160791b60298401528351938491603a85019101612020565b01916a11161134b6b0b3b2911d1160a91b603a8401525180936045840190612020565b017f222c2261747472696275746573223a5b7b2274726169745f74797065223a224360458201527f616d706169676e222c2276616c7565223a224d53582047756964656420496e7660658201527f657374696e6720487562227d2c7b2274726169745f74797065223a224e65747760858201527f6f726b222c2276616c7565223a225365706f6c6961227d2c7b2274726169745f60a58201527f74797065223a2242616467652054797065222c2276616c7565223a220000000060c58201526111c7825180938c60e185019101612020565b01907f227d2c7b2274726169745f74797065223a22537461747573222c2276616c756560e18301527f223a22556e6c6f636b6564227d2c7b2274726169745f74797065223a22546f6b6101018301526f32b71024a21116113b30b63ab2911d1160811b61012183015261013191611246825180938c8685019101612020565b019063227d5d7d60e01b908201520361011581018452018261213a565b6129dc565b926112b9603d825180967f646174613a6170706c69636174696f6e2f6a736f6e3b6261736536342c000000878301526112a981518092898686019101612020565b810103601d81018752018561213a565b51928284938452830190612041565b0390f35b5f19019083906f181899199a1a9b1b9c1cb0b131b232b360811b8282061a8353049182156112fc57919082611059565b61105e565b9860010198611042565b9890606460029104910198611037565b9a0199909104905f8061102b565b6008919b93049201995f61101e565b6010919b93049201995f61100f565b85919b93049201995f610ffd565b949b508b940492505f80610fe3565b8234610223575f366003190112610223576020905160018152f35b503461022357608036600319011261022357611399611fe4565b916113a2611ffa565b604435906064359367ffffffffffffffff8511610223573660238601121561022357840135946113dd6113d48761215c565b9451948561213a565b8584523660248787010111610223575f60208761142a9860246114259901838901378601015261141561141084336122c8565b6121b4565b61142083838361238c565b612c56565b612561565b005b509034610223578060031936011261022357611446611fe4565b9060243591821515809303610223576001600160a01b0316923384146114b45750335f526005602052805f20835f52602052805f2060ff1981541660ff8416179055519081527f17307eab39ab6107e8899845ad3d59bd9653f200f220920489ca2b5937696c3160203392a3005b6020606492519162461bcd60e51b8352820152601960248201527f4552433732313a20617070726f766520746f2063616c6c6572000000000000006044820152fd5b8234610223575f366003190112610223576020905160028152f35b509034610223575f366003190112610223578051905f90600191600154928360011c9060018516948515611608575b60209586841081146115f5578388528794939291879082156115d3575050600114611578575b50506112c892916112b991038561213a565b9085925060015f527fb10e2d527612073b26eecdfd717e6a320cf44b4afac2b0732d9fcbe2b7fa0cf6915f925b8284106115bb57505050820101816112b9611566565b8054848a0186015288955087949093019281016115a5565b60ff19168682015292151560051b850190920192508391506112b99050611566565b602289634e487b7160e01b5f525260245ffd5b91607f1691611540565b8234610223575f3660031901126102235760065490516001600160a01b039091168152602090f35b50903461022357602036600319011261022357602091355f526009825260ff815f2054169051908152f35b8234610223575f366003190112610223576020906007549051908152f35b503461022357816003193601126102235780359160ff8316808403610223576116bb6116b66116b0611ffa565b9561249b565b612287565b6001600160a01b03841680156118995780330361186557805f5260209460088652835f20835f52865260ff845f20541661182b576007549460018601908187116118185750611425869493926117ee92600755835f5260088952865f20855f528952865f2060ff1990600182825416179055865f5260098a5285885f20918254161790558587519161174c836120b6565b5f80845282815260026020526040902054611773906001600160a01b031615155b156132a0565b5f82815260026020526040902054611795906001600160a01b0316151561176d565b855f5260038b52885f2060018154019055815f5260028b52885f20866001600160601b0360a01b82541617905581865f7fddf252ad1be2c89b69c2b068fc378daa952ba7f163c4a11628f55a4df523b3ef8180a4612b49565b7f4c7380f1d23a71f74fa1303f23b7100826e4a89a4e47b2985e5c708e47a19b3a5f80a451908152f35b601190634e487b7160e01b5f525260245ffd5b835162461bcd60e51b8152808601879052601460248201527310985919d948185b1c9958591e481b5a5b9d195960621b6044820152606490fd5b825162461bcd60e51b8152602081860152600e60248201526d13db9b1e481cd95b19881b5a5b9d60921b6044820152606490fd5b825162461bcd60e51b81526020818601526011602482015270125b9d985b1a59081c9958da5c1a595b9d607a1b6044820152606490fd5b34610223575f366003190112610223576118e86124b6565b600680546001600160a01b031981169091555f906001600160a01b03167f8be0079c531659141344cd1fd0a4f28419497f9722a3daafe3b4186f6b6457e08280a3005b509034610223576020366003190112610223576001600160a01b0361194e611fe4565b16801561196a57602092505f5260038252805f20549051908152f35b815162461bcd60e51b8152602081850152602960248201527f4552433732313a2061646472657373207a65726f206973206e6f7420612076616044820152683634b21037bbb732b960b91b6064820152608490fd5b82346102235780600319360112610223576020906119db611fe4565b6119e3612010565b906119f06116b68361249b565b6001600160a01b03165f9081526008845282812060ff92831682528452829020549151911615158152f35b50903461022357602036600319011261022357611a3a60209235612262565b90516001600160a01b039091168152f35b8234610223575f366003190112610223576020905160038152f35b5034610223576020918260031936011261022357611a82611fe4565b6001600160a01b0381168015611be557803303611bb157805f5260088552825f2091600192835f52865260ff845f20541661182b5760075494838601908187116118185750611425869493926117ee92600755835f5260088952865f20855f528952865f2060ff19908682825416179055865f5260098a5285885f209182541617905585875191611b12836120b6565b5f80845282815260026020526040902054611b37906001600160a01b0316151561176d565b5f82815260026020526040902054611b59906001600160a01b0316151561176d565b855f5260038b52885f20878154019055815f5260028b52885f20866001600160601b0360a01b82541617905581865f7fddf252ad1be2c89b69c2b068fc378daa952ba7f163c4a11628f55a4df523b3ef8180a4612b49565b825162461bcd60e51b8152808501869052600e60248201526d13db9b1e481cd95b19881b5a5b9d60921b6044820152606490fd5b825162461bcd60e51b81528085018690526011602482015270125b9d985b1a59081c9958da5c1a595b9d607a1b6044820152606490fd5b612066565b82346102235761142561142a91611c3736612081565b91925192611c44846120b6565b5f845261141561141084336122c8565b8234610223576020366003190112610223576020906001600160a01b03611c79611fe4565b165f5260088252805f2060015f52825260ff815f20541690519015158152f35b346102235761142a611caa36612081565b91611cb861141084336122c8565b61238c565b5034610223575f3660031901126102235760209151908152f35b5034610223578160031936011261022357611cf0611fe4565b6024359290916001600160a01b0391908280611d0b87612262565b16941693808514611df857803314908115611dd9575b5015611d7157845f526020525f20826001600160601b0360a01b825416179055611d4a83612262565b167f8c5be1e5ebec7d5bd14f71427d1e84f3dd0314c0f7b2291e5b200ac8c7c3b9255f80a4005b6020608492519162461bcd60e51b8352820152603d60248201527f4552433732313a20617070726f76652063616c6c6572206973206e6f7420746f60448201527f6b656e206f776e6572206f7220617070726f76656420666f7220616c6c0000006064820152fd5b90505f526005602052815f20335f5260205260ff825f2054165f611d21565b506020608492519162461bcd60e51b8352820152602160248201527f4552433732313a20617070726f76616c20746f2063757272656e74206f776e656044820152603960f91b6064820152fd5b50903461022357602036600319011261022357611a3a60209235612178565b509034610223575f366003190112610223578051905f905f549160018360011c9060018516948515611f21575b60209586841081146115f5578388528794939291879082156115d3575050600114611ec85750506112c892916112b991038561213a565b5f80805286935091907f290decd9548b62a8d60345a988386fc84ba6bc95484008f6362f93160ef3e5635b828410611f0957505050820101816112b9611566565b8054848a018601528895508794909301928101611ef3565b91607f1691611e91565b5034610223576020366003190112610223573563ffffffff60e01b8116809103610223576020916380ac58cd60e01b8214918215611f85575b8215611f74575b50519015158152f35b6301ffc9a760e01b1491505f611f6b565b635b5e139f60e01b81149250611f64565b83903461022357816003193601126102235760ff602092611fb5611fe4565b611fbd612010565b6001600160a01b039091165f90815260088652828120918416815290855220541615158152f35b600435906001600160a01b038216820361022357565b602435906001600160a01b038216820361022357565b6024359060ff8216820361022357565b5f5b8381106120315750505f910152565b8181015183820152602001612022565b9060209161205a81518092818552858086019101612020565b601f01601f1916010190565b34610223575f36600319011261022357602060405160058152f35b6060906003190112610223576001600160a01b0390600435828116810361022357916024359081168103610223579060443590565b6020810190811067ffffffffffffffff8211176120d257604052565b634e487b7160e01b5f52604160045260245ffd5b6040810190811067ffffffffffffffff8211176120d257604052565b6080810190811067ffffffffffffffff8211176120d257604052565b6060810190811067ffffffffffffffff8211176120d257604052565b90601f8019910116810190811067ffffffffffffffff8211176120d257604052565b67ffffffffffffffff81116120d257601f01601f191660200190565b5f8181526002602052604090205461219a906001600160a01b03161515612216565b5f908152600460205260409020546001600160a01b031690565b156121bb57565b60405162461bcd60e51b815260206004820152602d60248201527f4552433732313a2063616c6c6572206973206e6f7420746f6b656e206f776e6560448201526c1c881bdc88185c1c1c9bdd9959609a1b6064820152608490fd5b1561221d57565b60405162461bcd60e51b815260206004820152601860248201527f4552433732313a20696e76616c696420746f6b656e20494400000000000000006044820152606490fd5b5f908152600260205260409020546001600160a01b0316612284811515612216565b90565b1561228e57565b60405162461bcd60e51b8152602060048201526012602482015271496e76616c6964206261646765207479706560701b6044820152606490fd5b906001600160a01b0380806122dc84612262565b1693169183831493841561230f575b5083156122f9575b50505090565b61230591929350612178565b16145f80806122f3565b9093505f52600560205260405f20825f5260205260ff60405f205416925f6122eb565b1561233957565b60405162461bcd60e51b815260206004820152602560248201527f4552433732313a207472616e736665722066726f6d20696e636f72726563742060448201526437bbb732b960d91b6064820152608490fd5b906123b49161239a84612262565b6001600160a01b0393918416928492909183168414612332565b1691821561244a57816123d1916123ca86612262565b1614612332565b825f52600460205260405f206001600160601b0360a01b90818154169055815f52600360205260405f205f198154019055825f5260405f2060018154019055835f5260026020528260405f20918254161790557fddf252ad1be2c89b69c2b068fc378daa952ba7f163c4a11628f55a4df523b3ef5f80a4565b60405162461bcd60e51b8152602060048201526024808201527f4552433732313a207472616e7366657220746f20746865207a65726f206164646044820152637265737360e01b6064820152608490fd5b60ff16600181101590816124ad575090565b60059150111590565b6006546001600160a01b031633036124ca57565b606460405162461bcd60e51b815260206004820152602060248201527f4f776e61626c653a2063616c6c6572206973206e6f7420746865206f776e65726044820152fd5b60809060208152603260208201527f4552433732313a207472616e7366657220746f206e6f6e20455243373231526560408201527131b2b4bb32b91034b6b83632b6b2b73a32b960711b60608201520190565b1561256857565b60405162461bcd60e51b8152806125816004820161250e565b0390fd5b60ff166001811461262c576002811461260957600381146125e8576004146125c8576040516125b3816120e6565b60058152643830b832b960d91b602082015290565b6040516125d4816120e6565b600481526338bab4bd60e11b602082015290565b506040516125f5816120e6565b60048152637269736b60e01b602082015290565b50604051612616816120e6565b60068152651dd85b1b195d60d21b602082015290565b50604051612639816120e6565b600781526677656c636f6d6560c81b602082015290565b6040519061265d826120e6565b60118252704d53582057656c636f6d6520426164676560781b6020830152565b60ff166001811461276e576002811461273c576003811461270a576004146126d8576040516126ab816120e6565b601781527f4d53582050617065722054726164696e67204261646765000000000000000000602082015290565b6040516126e4816120e6565b60168152754d53582050726f64756374205175697a20426164676560501b602082015290565b50604051612717816120e6565b60158152744d5358205269736b2052657669657720426164676560581b602082015290565b50604051612749816120e6565b60158152744d53582057616c6c6574205461736b20426164676560581b602082015290565b50612284612650565b60ff166001811461293257600281146128d2576003811461286857600414612809576040516127a581612102565b604881527f412070617065722d74726164696e67206d696c6573746f6e6520636f6c6c656360208201527f7469626c6520666f7220746865204d53582067756964656420696e7665737469604082015267373390333637bb9760c11b606082015290565b6040516128158161211e565b603d81527f412070726f647563742d7175697a20636f6c6c65637469626c6520666f72207460208201527f6865204d53582067756964656420696e76657374696e6720666c6f772e000000604082015290565b5060405161287581612102565b604181527f41207269736b2d636172642072657669657720636f6c6c65637469626c65206660208201527f6f7220746865204d53582067756964656420696e76657374696e6720666c6f776040820152601760f91b606082015290565b506040516128df8161211e565b603c81527f412077616c6c65742d636f6e6e656374696f6e20636f6c6c65637469626c652060208201527f666f7220746865204d5358206f6e626f617264696e6720666c6f772e00000000604082015290565b5060405161293f81612102565b604f81527f41205365706f6c69612077656c636f6d6520636f6c6c65637469626c6520666f60208201527f7220746865204d53582047756964656420496e76657374696e6720487562206f60408201526e373137b0b93234b73390333637bb9760891b606082015290565b906129b48261215c565b6129c1604051918261213a565b82815280926129d2601f199161215c565b0190602036910137565b90815115612b3557604051916129f18361211e565b604083527f4142434445464748494a4b4c4d4e4f505152535455565758595a61626364656660208401527f6768696a6b6c6d6e6f707172737475767778797a303132333435363738392b2f604084015280519260029160028501809511612b21576003948590046001600160fe1b0381168103612b2157612a779060029694961b6129aa565b9260208401928291835184019760208901928351945f85525b8a8110612ad457505050506003939495965052510680600114612ac257600214612ab8575090565b603d905f19015390565b50603d90815f19820153600119015390565b836004919b989b019a8b51600190603f9082828260121c16870101518453828282600c1c16870101518385015382828260061c168701015187850153168401015185820153019699612a90565b634e487b7160e01b5f52601160045260245ffd5b9050604051612b43816120b6565b5f815290565b919291803b15612c4e57612b92936040518092630a85bd0160e11b948583523360048401525f6024840152604483015260806064830152815f816020998a966084830190612041565b03926001600160a01b03165af15f9181612c0e575b50612bff57833d15612bf8573d612bbd8161215c565b90612bcb604051928361213a565b81523d5f8383013e5b80519182612bf55760405162461bcd60e51b8152806125816004820161250e565b01fd5b6060612bd4565b6001600160e01b031916149150565b9091508481813d8311612c47575b612c26818361213a565b8101031261022357516001600160e01b03198116810361022357905f612ba7565b503d612c1c565b506001925050565b9293929190803b15612cd157935f91612caf9560018060a01b039160405194838694928593630a85bd0160e11b998a86523360048701521660248501526044840152608060648401528260209a8b976084830190612041565b0393165af15f9181612c0e5750612bff57833d15612bf8573d612bbd8161215c565b50600193505050565b60405190612ce7826120e6565b6007825266119b23209aa32360c91b6020830152565b60405190612d0a826120e6565b600782526611a32322189b1b60c91b6020830152565b60405190612d2d826120e6565b60078252662346463946364560c81b6020830152565b60405190612d50826120e6565b60078252662342364646343360c81b6020830152565b60ff1660028114612d995760038114612d9057600414612d8857612284612d43565b612284612d20565b50612284612cfd565b50612284612cda565b60ff1660038114612d9057600414612d8857612284612d43565b60ff1660028114908115612dfb575b50612df357604051612ddc816120e6565b600781526608cd0e510d90cd60ca1b602082015290565b612284612cda565b60059150145f612dcb565b60ff166001811461276e5760028114612eb35760038114612e8557600414612e5957604051612e34816120e6565b60158152744d53582053696d756c6174696f6e2041636365737360581b602082015290565b604051612e65816120e6565b601081526f26a9ac10283937b23ab1ba1028bab4bd60811b602082015290565b50604051612e92816120e6565b60118152704d5358205374617274657220477569646560781b602082015290565b50604051612ec0816120e6565b60118152701354d60810dbdb9b9958dd08145d595cdd607a1b602082015290565b60ff1660018114612f9c5760028114612f745760038114612f4e57600414612f2957604051612f0f816120e6565b600a8152695041504552204d4f444560b01b602082015290565b604051612f35816120e6565b60098152685155495a205441534b60b81b602082015290565b50604051612f5b816120e6565b60098152685249534b205441534b60b81b602082015290565b50604051612f81816120e6565b600b81526a57414c4c4554205441534b60a81b602082015290565b50604051612fa9816120e6565b600d81526c57454c434f4d4520424144474560981b602082015290565b60405190612fd3826120e6565b600682526513525395115160d21b6020830152565b60ff1660018114613036576002811461303657600381146130365760041461302e57604051613016816120e6565b600881526715539313d0d2d15160c21b602082015290565b612284612fc6565b50612284612fc6565b60ff1660018114613140576002811461310657600381146130cc5760041461309a5760405161306d816120e6565b601a81527f507261637469636520666c6f77206f70656e6564206166746572000000000000602082015290565b6040516130a6816120e6565b60168152754f776e65727368697020616e6420646f776e7369646560501b602082015290565b506040516130d9816120e6565b601981527f5269736b2072657669657720636f6d706c6574656420666f7200000000000000602082015290565b50604051613113816120e6565b601a81527f57616c6c65742061636365737320617070726f76656420666f72000000000000602082015290565b5060405161314d816120e6565b601b81527f5365706f6c696120636f6c6c65637469626c6520666f72207468650000000000602082015290565b60ff166001811461326d576002811461323c5760038114613202576004146131d5576040516131a8816120e6565b601a81527f77616c6c6574207475746f7269616c20636f6d706c6574696f6e000000000000602082015290565b6040516131e1816120e6565b6011815270199c985b5a5b99c818dbdb999a5c9b5959607a1b602082015290565b5060405161320f816120e6565b601a81527f74686520677569646564206f6e626f617264696e6720666c6f77000000000000602082015290565b50604051613249816120e6565b6014815273746865204d53582077656c636f6d6520666c6f7760601b602082015290565b5060405161327a816120e6565b6016815275677569646564206f6e626f617264696e6720666c6f7760501b602082015290565b156132a757565b60405162461bcd60e51b815260206004820152601c60248201527f4552433732313a20746f6b656e20616c7265616479206d696e746564000000006044820152606490fdfea2646970667358221220d7f84a37e5eac3cf0b3fcb04ccc750f9e8d4c19441a0e52608a25dfcafcedc0964736f6c63430008180033",
  "linkReferences": {},
  "deployedLinkReferences": {},
  "immutableReferences": {},
  "inputSourceName": "project/contracts/MSXQuestBadge.sol",
  "buildInfoId": "solc-0_8_24-520891575acfae7c70889520cc9e3650daf28cf3"
}