{
  "_format": "hh3-artifact-1",
  "contractName": "MSXCollectibleRenderer",
  "sourceName": "contracts/MSXCollectibleRenderer.sol",
  "abi": [
    {
      "inputs": [
        {
          "internalType": "address",
          "name": "hubAddress",
          "type": "address"
        }
      ],
      "stateMutability": "nonpayable",
      "type": "constructor"
    },
    {
      "inputs": [],
      "name": "hub",
      "outputs": [
        {
          "internalType": "contract IMSXUnifiedDemoHubMetadataSource",
          "name": "",
          "type": "address"
        }
      ],
      "stateMutability": "view",
      "type": "function"
    },
    {
      "inputs": [
        {
          "internalType": "uint256",
          "name": "tokenId",
          "type": "uint256"
        }
      ],
      "name": "uri",
      "outputs": [
        {
          "internalType": "string",
          "name": "",
          "type": "string"
        }
      ],
      "stateMutability": "view",
      "type": "function"
    }
  ],
  "bytecode": "0x60a0346200014557601f62003c5a38819003918201601f19168301916001600160401b0383118484101762000149578084926020946040528339810103126200014557516001600160a01b03811690819003620001455780156200011257608052604051613afc90816200015e8239608051818181604301528181610e9301528181610f74015281816116ff0152818161185b01528181611e7c01528181611fe201528181612ae601528181612b4201528181612d6501528181612e2101528181613054015281816130df015281816131b70152818161326d0152818161336801528181613414015281816135b80152818161369401528181613710015281816138c40152818161399c0152613a400152f35b60405162461bcd60e51b815260206004820152600b60248201526a26b4b9b9b4b73390343ab160a91b6044820152606490fd5b5f80fd5b634e487b7160e01b5f52604160045260245ffdfe6040608081526004361015610012575f80fd5b5f3560e01c80630e89341c146100765763365a86fc14610030575f80fd5b34610072575f36600319011261007257517f00000000000000000000000000000000000000000000000000000000000000006001600160a01b03168152602090f35b5f80fd5b503461007257602090816003193601126100725760043561009681612246565b61009f82612246565b906100a983612246565b6100b2846123a5565b906100bc85612548565b856100c68161261c565b936100d08261298c565b946100da83612c24565b908b8b6100e686612ebf565b966100f087613178565b956100fa88613302565b9761010490611bb4565b83517f3c73766720786d6c6e733d22687474703a2f2f7777772e77332e6f72672f3230868201527f30302f737667222076696577426f783d223020302036303020363030223e3c64948101949094527f6566733e3c6c696e6561724772616469656e742069643d2267222078313d223360608501527f36222079313d223232222078323d22353630222079323d22353738223e3c737460808501527f6f702073746f702d636f6c6f723d2223313232323141222f3e3c73746f70206f60a08501527f66667365743d222e3535222073746f702d636f6c6f723d22233131313832372260c08501527f2f3e3c73746f70206f66667365743d2231222073746f702d636f6c6f723d222360e08501527f313233333341222f3e3c2f6c696e6561724772616469656e743e3c2f646566736101008501527f3e3c726563742077696474683d2236303022206865696768743d2236303022206101208501527f72783d223434222066696c6c3d2223304231313143222f3e3c7265637420783d6101408501527f2232382220793d223238222077696474683d2235343422206865696768743d226101608501527f353434222072783d223334222066696c6c3d2275726c2823672922207374726f6101808501526335b29e9160e11b6101a08501528c51939d8e9d919b6101a49590928f90610303908390898401908b01610a51565b7f22207374726f6b652d77696474683d2232222f3e3c636972636c652063783d22910195860152781c99111031bc9e911c991110391e91189c11103334b6361e9160391b6101c486015280516101dd959091610366908390888401908a01610a51565b019384017f222f3e3c7465787420783d223132362220793d22313031222066696c6c3d220090526101fc9381519182878784019201916103a592610a51565b7f2220666f6e742d73697a653d2231382220666f6e742d7765696768743d223830910193840152761811103337b73a16b330b6b4b63c9e9120b934b0b6111f60491b61021c8401528051610233939091610406908390868401908801610a51565b019182017f3c2f746578743e3c7465787420783d2235382220793d22323834222066696c6c90527f3d22234636463846422220666f6e742d73697a653d2234382220666f6e742d77806102538401527f65696768743d223930302220666f6e742d66616d696c793d22417269616c223e918261027385015261029393815191828787840192019161049692610a51565b019283017f3c2f746578743e3c7465787420783d2235382220793d22333434222066696c6c90526102b38301526102d38201526102f392805180938584019201916104e092610a51565b019081017f3c2f746578743e3c7465787420783d2235382220793d22343130222066696c6c90527f3d22234141423843372220666f6e742d73697a653d2232302220666f6e742d66806103138301528c6d30b6b4b63c9e9120b934b0b6111f60911b928361033382015261034199805180938c840192019161056192610a51565b019788017f3c2f746578743e3c7465787420783d2235382220793d22343430222066696c6c905261036188015261038187015261038f95815191828d8984019201916105ac92610a51565b019485017f3c2f746578743e3c7465787420783d2235382220793d22343836222066696c6c90526103af85017f3d22234439453445462220666f6e742d73697a653d2231382220666f6e742d7790527f65696768743d223730302220666f6e742d66616d696c793d22417269616c223e92836103cf8701526103ef95815191828d89840192019161063c92610a51565b019485017f3c2f746578743e3c7465787420783d2235382220793d22353134222066696c6c90527f3d22233846413142362220666f6e742d73697a653d2231372220666f6e742d77908161040f8701528361042f87015261044f95815191828d8984019201916106ab92610a51565b019485017f3c2f746578743e3c7465787420783d2235382220793d22353432222066696c6c905261046f8501528161048f8501526104af93815191828b8784019201916106f792610a51565b7f3c2f746578743e3c7465787420783d2235382220793d22353638222066696c6c9101938401527f3d22233646383039352220666f6e742d73697a653d2231362220666f6e742d776104cf8401526104ef83015266544f4b454e202360c81b61050f8301528051610516929091610775908390858401908b01610a51565b019081016c1e17ba32bc3a1f1e17b9bb339f60991b90520361050381018252610523016107a29082610ad7565b6107ab90610b47565b90825180858101937919185d184e9a5b5859d94bdcdd99cade1b5b0ed8985cd94d8d0b60321b85528051908188603a85019201916107e892610a51565b810103601a81018252603a016107fe9082610ad7565b61080782610def565b91610811816113de565b9361081b82611a11565b9061082583611bb4565b9261082f90611d24565b938751968796683d913730b6b2911d1160b91b8b890152805190818c60298b0192019161085b92610a51565b8701701116113232b9b1b934b83a34b7b7111d1160791b6029820152815191828c603a840192019161088c92610a51565b01906a11161134b6b0b3b2911d1160a91b603a830152519182604583016108b292610a51565b01604581017f222c2261747472696275746573223a5b7b2274726169745f74797065223a22539052703ab93330b1b29116113b30b63ab2911d1160791b606582015281519182896076840192019161090992610a51565b01607681017f227d2c7b2274726169745f74797065223a224e6574776f726b222c2276616c759052609681017f65223a225365706f6c6961227d2c7b2274726169745f74797065223a22546f6b90526f32b71024a21116113b30b63ab2911d1160811b60b6820152815191828860c6840192019161098692610a51565b0161227d60f01b60c6820152815191828760c884019201916109a792610a51565b0160c88101615d7d60f01b90520360aa8101825260ca016109c89082610ad7565b6109d190610b47565b9181519081818101947f646174613a6170706c69636174696f6e2f6a736f6e3b6261736536342c00000086528051908184603d8501920191610a1292610a51565b810103601d81018352603d01610a289083610ad7565b825193849282845251809284015281848401610a4392610a51565b601f01601f19168101030190f35b5f5b838110610a625750505f910152565b8181015183820152602001610a53565b602081019081106001600160401b03821117610a8d57604052565b634e487b7160e01b5f52604160045260245ffd5b606081019081106001600160401b03821117610a8d57604052565b604081019081106001600160401b03821117610a8d57604052565b601f909101601f19168101906001600160401b03821190821017610a8d57604052565b6001600160401b038111610a8d57601f01601f191660200190565b90610b1f82610afa565b610b2c6040519182610ad7565b8281528092610b3d601f1991610afa565b0190602036910137565b90815115610ca05760405191610b5c83610aa1565b604083527f4142434445464748494a4b4c4d4e4f505152535455565758595a61626364656660208401527f6768696a6b6c6d6e6f707172737475767778797a303132333435363738392b2f604084015280519260029160028501809511610c8c576003948590046001600160fe1b0381168103610c8c57610be29060029694961b610b15565b9260208401928291835184019760208901928351945f85525b8a8110610c3f57505050506003939495965052510680600114610c2d57600214610c23575090565b603d905f19015390565b50603d90815f19820153600119015390565b836004919b989b019a8b51600190603f9082828260121c16870101518453828282600c1c16870101518385015382828260061c168701015187850153168401015185820153019699610bfb565b634e487b7160e01b5f52601160045260245ffd5b9050604051610cae81610a72565b5f815290565b60405190610cc182610abc565b601b82527a5269736b4c656e732057616c6c657420436f6c6c65637469626c6560281b6020830152565b51906001600160a01b038216820361007257565b81601f82011215610072578051610d1581610afa565b92610d236040519485610ad7565b8184526020828401011161007257610d419160208085019101610a51565b90565b60c08183031261007257610d5781610ceb565b60208201519093906001600160401b03908181116100725784610d7b918501610cff565b93604084015191821161007257610d93918401610cff565b9160608101519160a0608083015192015190565b9060808282031261007257610dbb82610ceb565b92602083015161ffff811681036100725792604081015192606082015160018060401b03811161007257610d419201610cff565b60648111806113d3575b6112a55760c881118061129a575b6111bb57610e1481613559565b611099576103e881118061108c575b61102757610e308161366f565b610f5857610e3d816136eb565b610e775750604051610e4e81610abc565b60198152785269736b4c656e732044656d6f20436f6c6c65637469626c6560381b602082015290565b604051630cb7714960e21b815260048101919091525f816024817f00000000000000000000000000000000000000000000000000000000000000006001600160a01b03165afa8015610f4d57610ed4915f91610f27575b50613596565b610d41603d60405180937f5269736b4c656e7320506c656467652043726564656e7469616c202d200000006020830152610f178151809260208686019101610a51565b810103601d810184520182610ad7565b610f4391503d805f833e610f3b8183610ad7565b810190610da7565b505090505f610ece565b6040513d5f823e3d90fd5b60405163018bc41f60e71b815260048101919091525f816024817f00000000000000000000000000000000000000000000000000000000000000006001600160a01b03165afa908115610f4d575f91610fff575b50610d41603c60405180937b02934b9b5a632b739902830b832b91021b932b232b73a34b0b61016960251b6020830152610fef8151809260208686019101610a51565b810103601c810184520182610ad7565b61101b91503d805f833e6110138183610ad7565b810190610d44565b5050505090505f610fac565b61ffff61103661103c92613549565b16613596565b610d41603a60405180937902934b9b5a632b739902bb2b0b63a34102932b1b2b4b83a1016960351b602083015261107c8151809260208686019101610a51565b810103601a810184520182610ad7565b50620103e7811115610e23565b60068114611185576007811461114e576008811461111f576009146110ed576040516110c481610abc565b60198152785269736b4c656e732050726f7465637469766520486564676560381b602082015290565b6040516110f981610abc565b60168152755269736b4c656e732050657270204c6576657261676560501b602082015290565b5060405161112c81610abc565b601281527105269736b4c656e732053706f74204c6f6f760741b602082015290565b5060405161115b81610abc565b601a815279149a5cdad3195b9cc814185c195c8813195859195c989bd85c9960321b602082015290565b5060405161119281610abc565b60198152785269736b4c656e73205061706572204261736520436865636b60381b602082015290565b6111c660ff9161353a565b166001811461125157600214611219576040516111e281610aa1565b602181527f5269736b4c656e73205765616c7468204475616c2050726f66697420426164676020820152606560f81b604082015290565b60405161122581610abc565b601c81527b5269736b4c656e73205765616c746820506c6564676520426164676560201b602082015290565b5060405161125e81610aa1565b602681527f5269736b4c656e73205765616c74682050726f66697461626c6520547261646560208201526520426164676560d01b604082015290565b5060cb811115610e07565b6112b060ff9161352b565b166001811461139a5760028114611391576003811461135757600414611314576040516112dc81610aa1565b602281527f5269736b4c656e73205061706572205072657669657720436f6c6c65637469626020820152616c6560f01b604082015290565b60405161132081610aa1565b602181527f5269736b4c656e732050726f64756374205175697a20436f6c6c65637469626c6020820152606560f81b604082015290565b5060405161136481610abc565b602081527f5269736b4c656e73205269736b2052657669657720436f6c6c65637469626c65602082015290565b50610d41610cb4565b506040516113a781610abc565b601c81527b5269736b4c656e732057656c636f6d6520436f6c6c65637469626c6560201b602082015290565b506069811115610df9565b6113e78161366f565b61183f576113f4816136eb565b6116e3576103e88111806116d6575b6115825761141081613559565b6115305760c8811180611525575b6114de576064811190816114d2575b506114845760405161143e81610aa1565b603081527f41205365706f6c696120636f6c6c65637469626c6520666f722074686520526960208201526f39b5a632b739903232b6b790343ab11760811b604082015290565b60405161149081610aa1565b602c81527f5365706f6c6961206f6e626f617264696e6720636f6c6c65637469626c65206660208201526b37b9102934b9b5a632b7399760a11b604082015290565b6069915011155f61142d565b506040516114eb81610aa1565b602481527f5365706f6c6961205765616c746820776f726b666c6f7720636f6c6c656374696020820152633136329760e11b604082015290565b5060cb81111561141e565b5060405161153d81610aa1565b602f81527f5365706f6c69612070617065722d74726164696e6720616368696576656d656e60208201526e3a103337b9102934b9b5a632b7399760891b604082015290565b61158e61ffff91613549565b16610d4160a061159d83613596565b6115a6846138a4565b936115b96115b38261397c565b91613a20565b906040519586937a029b2b837b634b0902bb2b0b63a34103932b1b2b4b83a103337b91602d1b60208601526115f8815180926020603b89019101610a51565b84017101710283937b23ab1ba103232ba30b4b61d160751b603b820152611629825180936020604d85019101610a51565b016f01710283937b23ab1ba103a3cb8329d160851b604d820152611657825180936020605d85019101610a51565b016b0171026b0ba3ab934ba3c9d160a51b605d820152611681825180936020606985019101610a51565b017f2e205075726368617365206461746520697320656d697474656420627920507260698201527637b23ab1ba2932b1b2b4b83a29bab139b1b934b132b21760491b6089820152036080810184520182610ad7565b50620103e7811115611403565b604051630cb7714960e21b815260048101919091525f816024817f00000000000000000000000000000000000000000000000000000000000000006001600160a01b03165afa8015610f4d575f805f9261180c575b610d419293509061175361174d606193613596565b91611bb4565b6040519485927f57616c6c657420706c656467652063726564656e7469616c20666f72200000006020850152611793815180926020603d88019101610a51565b83016901710283632b233b2b2160b51b603d8201526117bc825180936020604785019101610a51565b01640103337b9160dd1b60478201526117df825180936020604c85019101610a51565b017410282a1037b3103937baba329039bab83837b93a1760591b604c820152036041810184520182610ad7565b505050610d41606161175361182d61174d943d805f833e610f3b8183610ad7565b91965090945092508491506117389050565b60405163018bc41f60e71b815260048101919091525f816024817f00000000000000000000000000000000000000000000000000000000000000006001600160a01b03165afa8015610f4d575f805f915f925f946119d2575b610d41949550906119b96118c16118bb6118b5607c979695613764565b956137e8565b976137e8565b6040519788956020947f5061706572206c6561646572626f617264207375626d697373696f6e20637265868901526b03232b73a34b0b6103337b9160a51b60408901526119178151809288604c8c019101610a51565b870168017102932ba3ab937160bd1b604c82015261193e8251809388605585019101610a51565b016a016103bb4b7103930ba32960ad1b60558201526119668251809387606085019101610a51565b016e0161036b0bc10323930bbb237bbb71608d1b60608201526119928251809386606f85019101610a51565b01916b0171029bab136b4ba3a32b2160a51b606f8401528351938491607b85019101610a51565b01601760f91b607b82015203605c810184520182610ad7565b5050505050610d41607c6119b96118bb6118b56119fb6118c1963d805f833e6110138183610ad7565b919a509098509650945092508691506118989050565b611a1a8161366f565b611b7b57611a27816136eb565b611b46576064811180611b3b575b611b1a5760c8811180611b0f575b611ae757611a5081613559565b611abd576103e881119081611aaf575b50611a8557604051611a7181610abc565b600481526344656d6f60e01b602082015290565b604051611a9181610abc565b600e81526d15d9585b1d1a08149958d95a5c1d60921b602082015290565b620103e7915011155f611a60565b50604051611aca81610abc565b600d81526c50617065722054726164696e6760981b602082015290565b50604051611af481610abc565b600b81526a5765616c7468205461736b60a81b602082015290565b5060cb811115611a43565b50604051611b2781610abc565b6004815263486f6d6560e01b602082015290565b506069811115611a35565b50604051611b5381610abc565b601881527715d9585b1d1a08141b195919d94810dc9959195b9d1a585b60421b602082015290565b50604051611b8881610abc565b601c81527b14185c195c8813195859195c989bd85c990810dc9959195b9d1a585b60221b602082015290565b5f908072184f03e93ff9f4daa797ed6e38ed64bf6a1f0160401b80821015611ce2575b506904ee2d6d415b85acef8160201b80831015611cd3575b50662386f26fc1000080831015611cc4575b506305f5e10080831015611cb5575b5061271080831015611ca6575b506064821015611c96575b600a80921015611c8c575b600190816021611c4560018701610b15565b95860101905b611c57575b5050505090565b5f19019083906f181899199a1a9b1b9c1cb0b131b232b360811b8282061a835304918215611c8757919082611c4b565b611c50565b9160010191611c33565b9190606460029104910191611c28565b6004919392049101915f611c1d565b6008919392049101915f611c10565b6010919392049101915f611c01565b6020919392049101915f611bef565b60409350810491505f611bd7565b7f2c7b2274726169745f74797065223a2250726f64756374222c2276616c7565228152611d1160f11b602082015260220190565b611d2d8161366f565b611fc657611d3a816136eb565b611e60576103e8811180611e53575b611d5a5750604051610cae81610a72565b610d41605061ffff611d6d602094613549565b16611d7781613596565b90611d846115b38261397c565b90604051958693611da6611d99838701611cf0565b9182815194859201610a51565b017f227d2c7b2274726169745f74797065223a2250726f647563742074797065222c815268113b30b63ab2911d1160b91b6020820152611df0825180936020602985019101610a51565b017f227d2c7b2274726169745f74797065223a224d61747572697479222c2276616c6029820152643ab2911d1160d91b6049820152611e39825180936020604e85019101610a51565b0161227d60f01b604e820152036030810184520182610ad7565b50620103e7811115611d49565b604051630cb7714960e21b815260048101919091525f816024817f00000000000000000000000000000000000000000000000000000000000000006001600160a01b03165afa908115610f4d576057610d41916020935f80925f92611f9c575b50611ecd611ed391613596565b92611bb4565b90604051958693611ee8611d99838701611cf0565b017f227d2c7b2274726169745f74797065223a22506c656467652064617465222c228152673b30b63ab2911d1160c11b6020820152611f31825180936020602885019101610a51565b017f227d2c7b2274726169745f74797065223a22526f75746520737570706f72742260288201526916113b30b63ab2911d1160b11b6048820152611f7f825180936020605285019101610a51565b0164205054227d60d81b6052820152036037810184520182610ad7565b611ed39350611ecd9250611fba91503d805f833e610f3b8183610ad7565b90945092909150611ec0565b60405163018bc41f60e71b815260048101919091525f816024817f00000000000000000000000000000000000000000000000000000000000000006001600160a01b03165afa8015610f4d575f805f905f80946121c0575b610d41949550906121a66120416118bb61203b60df9796956137e8565b94613764565b926040519788956020927f2c7b2274726169745f74797065223a2243617465676f7279222c2276616c75658489015262111d1160e91b918260408a0152612091815180928760438d019101610a51565b8801957f227d2c7b2274726169745f74797065223a225375626d6974746564206f6e222c604388015268113b30b63ab2911d1160b91b968760638201526120e18251809388606c85019101610a51565b017f227d2c7b2274726169745f74797065223a2257696e2072617465222c2276616c606c820152643ab2911d1160d91b608c8201526121298251809387609185019101610a51565b01907f227d2c7b2274726169745f74797065223a2252657475726e222c2276616c7565609183015260b1820152612169825180938560b485019101610a51565b01927f227d2c7b2274726169745f74797065223a224d61782064726177646f776e222c60b485015260d4840152835193849160dd85019101610a51565b0161227d60f01b60dd8201520360bf810184520182610ad7565b5050505050610d4160df6118bb61204161203b6121e96121a6963d805f833e6110138183610ad7565b909a509850919650909450925086915061201e9050565b6040519061220d82610abc565b6007825266119b9b209ca32360c91b6020830152565b6040519061223082610abc565b600782526611a32322189b1b60c91b6020830152565b61224f8161366f565b6123335761225c816136eb565b61239c576103e881118061238f575b61236b5760c8811180612360575b61233c5761228681613559565b61233357606481119081612327575b8180612312575b6122ed57816122d6575b506122ce576040516122b781610abc565b60078152662342364646343360c81b602082015290565b610d41612223565b600391506122e560ff9161352b565b16145f6122a6565b50506040516122fb81610abc565b600781526611a32321199b2160c91b602082015290565b50600460ff6123208361352b565b161461229c565b60698111159150612295565b50610d41612200565b5060405161234981610abc565b600781526608cd0e510d90cd60ca1b602082015290565b5060cb811115612279565b5060405161237881610abc565b600781526611a19c23231b2160c91b602082015290565b50620103e781111561226b565b50610d41612223565b6123ae8161366f565b6124ce576123bb816136eb565b61249b576103e881118061248e575b61245a5760c881118061244f575b612423576123e590613559565b6123f157610d41610cb4565b6040516123fd81610abc565b60168152755269736b4c656e732050617065722054726164696e6760501b602082015290565b5060405161243081610abc565b600f81526e0a4d2e6d698cadce640aecac2d8e8d608b1b602082015290565b5060cb8111156123d8565b5060405161246781610abc565b6017815276149a5cdad3195b9cc815d9585b1d1a08149958d95a5c1d604a1b602082015290565b50620103e78111156123ca565b506040516124a881610abc565b60168152755269736b4c656e73205765616c746820506c6564676560501b602082015290565b506040516124db81610abc565b6014815273149a5cdad3195b9cc813195859195c989bd85c9960621b602082015290565b6040519061250c82610abc565b600b82526a1311505111549093d0549160aa1b6020830152565b6040519061253382610abc565b60068252650ae8a8298a8960d31b6020830152565b6125518161366f565b6126135761255e816136eb565b6125f0576103e88111806125e3575b6125cf5760c88111806125d8575b6125cf5761258890613559565b6125ae5760405161259881610abc565b600681526515d05313115560d21b602082015290565b6040516125ba81610abc565b60058152642820a822a960d91b602082015290565b50610d41612526565b5060cb81111561257b565b50620103e781111561256d565b506040516125fd81610abc565b6006815265504c4544474560d01b602082015290565b50610d416124ff565b6126258161366f565b61296557612632816136eb565b61293c576103e881118061292f575b6128db5760c88111806128d0575b61283e5761265c81613559565b61278d576064811180612782575b612696575060405161267b81610abc565b600b81526a434f4c4c45435449424c4560a81b602082015290565b6126a160ff9161352b565b166001811461275e576002811461273a5760038114612712576004146126ea576040516126cd81610abc565b600d81526c5041504552205052455649455760981b602082015290565b6040516126f681610abc565b600c81526b282927a22aa1aa1028aaa4ad60a11b602082015290565b5060405161271f81610abc565b600b81526a5249534b2052455649455760a81b602082015290565b5060405161274781610abc565b600781526610d3d3939150d560ca1b602082015290565b5060405161276b81610abc565b600781526657454c434f4d4560c81b602082015290565b50606981111561266a565b60068114612817576007811461261357600881146127f1576009146127cd576040516127b881610abc565b6005815264484544474560d81b602082015290565b6040516127d981610abc565b60088152674c4556455241474560c01b602082015290565b506040516127fe81610abc565b6009815268053504f54204c4f4f560bc1b602082015290565b5060405161282481610abc565b600a8152694241534520434845434b60b01b602082015290565b61284960ff9161353a565b16600181146128a75760021461287f5760405161286581610abc565b600a8152694455414c20424144474560b01b602082015290565b60405161288b81610abc565b600c81526b504c4544474520424144474560a01b602082015290565b506040516128b481610abc565b600c81526b50524f46495420424144474560a01b602082015290565b5060cb81111561264f565b61ffff6128ea6128f092613549565b16611bb4565b610d41602960405180936852454345495054202360b81b602083015261291f8151809260208686019101610a51565b8101036009810184520182610ad7565b50620103e7811115612641565b5060405161294981610abc565b600c81526b535550504f5254204c494e4560a01b602082015290565b5060405161297281610abc565b600a81526910d4915111539512505360b21b602082015290565b6129958161366f565b612b26576129a2816136eb565b612aca576103e8811180612abd575b612a835760c8811180612a78575b612a40576129cc90613559565b612a09576040516129dc81610abc565b601d81527f4f6e626f617264696e67206d696c6573746f6e65207265636f72646564000000602082015290565b604051612a1581610abc565b601b81527a14995c1b185e481858da1a595d995b595b9d081c9958dbdc991959602a1b602082015290565b50604051612a4d81610abc565b601b81527a15dbdc9ad99b1bddc81b5a5b195cdd1bdb99481c9958dbdc991959602a1b602082015290565b5060cb8111156129bf565b50604051612a9081610abc565b602081527f537562736372697074696f6e207265636569707420736861726573206c697665602082015290565b50620103e78111156129b1565b604051630cb7714960e21b815260048101919091525f816024817f00000000000000000000000000000000000000000000000000000000000000006001600160a01b03165afa8015610f4d57610d41915f91610f275750613596565b60405163018bc41f60e71b815260048101919091525f816024817f00000000000000000000000000000000000000000000000000000000000000006001600160a01b03165afa8015610f4d575f915f91612bf2575b50602e612b93612b8d610d41936137e8565b93613764565b926040519381612bad869351809260208087019101610a51565b8201660103bb4b71017960cd1b6020820152612bd3825180936020602785019101610a51565b0166103932ba3ab93760c91b602782015203600e810184520182610ad7565b612b8d9250610d419150612b93612c14602e923d805f833e6110138183610ad7565b509097509550612b7b9350505050565b612c2d8161366f565b612e0557612c3a816136eb565b612d49576103e8811180612d3c575b612d085760c8811180612cfd575b612ccd57612c6490613559565b612c9857604051612c7481610abc565b60148152733337b9103a3432902934b9b5a632b73990343ab160611b602082015290565b604051612ca481610abc565b6019815278199bdc881d1a19481cda5b5d5b185d1a5bdb881dd85b1b195d603a1b602082015290565b50604051612cda81610abc565b6013815272666f7220746865205765616c746820666c6f7760681b602082015290565b5060cb811115612c57565b50604051612d1581610abc565b60178152761a5b881d1a194818dbdb9b9958dd1959081dd85b1b195d604a1b602082015290565b50620103e7811115612c49565b604051630cb7714960e21b815260048101919091525f816024817f00000000000000000000000000000000000000000000000000000000000000006001600160a01b03165afa8015610f4d57612da6915f91612de7575b50611bb4565b610d41602b60405183612dc3829551809260208086019101610a51565b81016a081415081cdd5c1c1bdc9d60aa1b602082015203600b810184520182610ad7565b612dfb91503d805f833e610f3b8183610ad7565b509150505f612da0565b60405163018bc41f60e71b815260048101919091525f816024817f00000000000000000000000000000000000000000000000000000000000000006001600160a01b03165afa8015610f4d57612e62915f91612e9f575b506137e8565b610d41602760405183612e7f829551809260208086019101610a51565b810166081b585e08111160ca1b6020820152036007810184520182610ad7565b612eb391503d805f833e6110138183610ad7565b9450505050505f612e5c565b612ec88161366f565b6130c357612ed5816136eb565b613038576103e881118061302b575b612fbd57612ef181613559565b612f835760c881119081612f77575b50612f3e57604051612f1181610abc565b602081527f5461736b20626164676520666f722077616c6c6574206f6e626f617264696e67602082015290565b604051612f4a81610abc565b601e81527f5461736b20626164676520666f72205765616c746820776f726b666c6f770000602082015290565b60cb915011155f612f00565b50604051612f9081610abc565b601e81527f5461736b20626164676520666f72207265706c6179206c6561726e696e670000602082015290565b612fc961ffff91613549565b16610d416023612fe1612fdb8461397c565b93613a20565b926040519381612ffb869351809260208087019101610a51565b82016201017960ed1b602082015261301c8251809360208785019101610a51565b01036003810184520182610ad7565b50620103e7811115612ee4565b604051630cb7714960e21b815260048101919091525f816024817f00000000000000000000000000000000000000000000000000000000000000006001600160a01b03165afa8015610f4d57613094915f91610f275750613596565b610d4160296040518093680283937b23ab1ba1d160bd1b602083015261291f8151809260208686019101610a51565b60405163018bc41f60e71b815260048101919091525f816024817f00000000000000000000000000000000000000000000000000000000000000006001600160a01b03165afa908115610f4d575f91613158575b50610d41602a604051809369021b0ba32b3b7b93c9d160b51b60208301526131488151809260208686019101610a51565b810103600a810184520182610ad7565b61316c91503d805f833e6110138183610ad7565b5050505090505f613117565b6131818161366f565b6132515761318e816136eb565b61319b57610d4190611a11565b604051630cb7714960e21b815260048101919091525f816024817f00000000000000000000000000000000000000000000000000000000000000006001600160a01b03165afa908115610f4d575f91613233575b50610d41602d60405180936c0283632b233b2903230ba329d1609d1b60208301526132238151809260208686019101610a51565b810103600d810184520182610ad7565b61324791503d805f833e610f3b8183610ad7565b925050505f6131ef565b60405163018bc41f60e71b815260048101919091525f816024817f00000000000000000000000000000000000000000000000000000000000000006001600160a01b03165afa908115610f4d575f916132e2575b50610d41602660405180936502230ba329d160d51b60208301526132d28151809260208686019101610a51565b8101036006810184520182610ad7565b6132f691503d805f833e6110138183610ad7565b5050509150505f6132a5565b61330b8161366f565b6133f857613318816136eb565b61334c575060405161332981610abc565b60138152725365706f6c696120636f6c6c65637469626c6560681b602082015290565b604051630cb7714960e21b815260048101919091525f816024817f00000000000000000000000000000000000000000000000000000000000000006001600160a01b03165afa8015610f4d576133a8915f91612de75750611bb4565b610d41603060405180936c0283632b233b2b21037baba1d1609d1b60208301526133dc815180926020602d86019101610a51565b81016208141560ea1b602d820152036010810184520182610ad7565b60405163018bc41f60e71b815260048101919091525f816024817f00000000000000000000000000000000000000000000000000000000000000006001600160a01b03165afa8015610f4d575f805f926134f3575b610d419293509061347161346b6134656034946137e8565b92613764565b946137e8565b6040519485926302bb4b7160e51b6020850152613498815180926020602488019101610a51565b83016901017902932ba3ab937160b51b60248201526134c1825180936020602e85019101610a51565b016501017902222160d51b602e8201526134e48251809360208785019101610a51565b01036014810184520182610ad7565b505050610d41603461346561347161351761346b953d805f833e6110138183610ad7565b9099509750955087945061344d9350505050565b606319810191908211610c8c57565b60c719810191908211610c8c57565b6103e719810191908211610c8c57565b60068110159081613568575090565b600a9150111590565b906020828203126100725781516001600160401b03811161007257610d419201610cff565b604051630b7d120d60e41b815261ffff91909116600482018190525f826024817f00000000000000000000000000000000000000000000000000000000000000006001600160a01b03165afa918215610f4d575f9261364b575b508151613647576136019150611bb4565b610d41603060405180936f5765616c74682050726f64756374202360801b60208301526136378151809260208686019101610a51565b8101036010810184520182610ad7565b5090565b6136689192503d805f833e6136608183610ad7565b810190613571565b905f6135f0565b60405163018bc41f60e71b815260048101919091526001600160a01b03905f816024817f000000000000000000000000000000000000000000000000000000000000000086165afa908115610f4d575f916136cc575b5016151590565b6136e091503d805f833e6110138183610ad7565b50505050505f6136c5565b604051630cb7714960e21b815260048101919091526001600160a01b03905f816024817f000000000000000000000000000000000000000000000000000000000000000086165afa908115610f4d575f91613747575016151590565b61375b91503d805f833e610f3b8183610ad7565b5050505f6136c5565b5f81126137ab57613774906137e8565b610d4160216040518093602b60f81b602083015261379b8151809260208686019101610a51565b8101036001810184520182610ad7565b600160ff1b8114610c8c576137c1905f036137e8565b610d4160216040518093602d60f81b602083015261379b8151809260208686019101610a51565b600a606480830492060490811561386357602261381061380a610d4193611bb4565b93611bb4565b92604051938161382a869351809260208087019101610a51565b8201601760f91b602082015261384a825180936020602185019101610a51565b01602560f81b6021820152036002810184520182610ad7565b61386d9150611bb4565b610d4160216040518361388a829551809260208086019101610a51565b8101602560f81b6020820152036001810184520182610ad7565b6040516301d96d2d60e21b815261ffff9190911660048201525f816024817f00000000000000000000000000000000000000000000000000000000000000006001600160a01b03165afa908115610f4d575f91613962575b508051610d41575060405161391081610aa1565b603c81527f536574746c656d656e74207465726d73207265636f7264656420696e2074686560208201527b205269736b4c656e73205765616c74682064657461696c207061676560201b604082015290565b61397691503d805f833e6136608183610ad7565b5f6138fc565b604051635acc900960e01b815261ffff9190911660048201525f816024817f00000000000000000000000000000000000000000000000000000000000000006001600160a01b03165afa908115610f4d575f91613a06575b508051610d4157506040516139e881610abc565b600e81526d15d9585b1d1a081c9958d95a5c1d60921b602082015290565b613a1a91503d805f833e6136608183610ad7565b5f6139d4565b60405163444e880160e11b815261ffff9190911660048201525f816024817f00000000000000000000000000000000000000000000000000000000000000006001600160a01b03165afa908115610f4d575f91613aac575b508051610d415750604051613a8c81610abc565b601081526f50726f647563742d737065636966696360801b602082015290565b613ac091503d805f833e6136608183610ad7565b5f613a7856fea2646970667358221220f345e5687688e854dfd37198987ecab362a42718a0c96d12cd05ca72c4a932b464736f6c63430008180033",
  "linkReferences": {},
  "deployedLinkReferences": {},
  "immutableReferences": {
    "5051": [
      {
        "length": 32,
        "start": 67
      },
      {
        "length": 32,
        "start": 3731
      },
      {
        "length": 32,
        "start": 3956
      },
      {
        "length": 32,
        "start": 5887
      },
      {
        "length": 32,
        "start": 6235
      },
      {
        "length": 32,
        "start": 7804
      },
      {
        "length": 32,
        "start": 8162
      },
      {
        "length": 32,
        "start": 10982
      },
      {
        "length": 32,
        "start": 11074
      },
      {
        "length": 32,
        "start": 11621
      },
      {
        "length": 32,
        "start": 11809
      },
      {
        "length": 32,
        "start": 12372
      },
      {
        "length": 32,
        "start": 12511
      },
      {
        "length": 32,
        "start": 12727
      },
      {
        "length": 32,
        "start": 12909
      },
      {
        "length": 32,
        "start": 13160
      },
      {
        "length": 32,
        "start": 13332
      },
      {
        "length": 32,
        "start": 13752
      },
      {
        "length": 32,
        "start": 13972
      },
      {
        "length": 32,
        "start": 14096
      },
      {
        "length": 32,
        "start": 14532
      },
      {
        "length": 32,
        "start": 14748
      },
      {
        "length": 32,
        "start": 14912
      }
    ]
  },
  "inputSourceName": "project/contracts/MSXCollectibleRenderer.sol",
  "buildInfoId": "solc-0_8_24-d2ce9c50d750522b7c6f4a9670760dc2cfd2d3a9"
}